{
  "contractName": "AuditToken",
  "abi": [
    {
      "inputs": [
        {
          "internalType": "address",
          "name": "account",
          "type": "address"
        }
      ],
      "stateMutability": "nonpayable",
      "type": "constructor"
    },
    {
      "anonymous": false,
      "inputs": [
        {
          "indexed": false,
          "internalType": "address",
          "name": "user",
          "type": "address"
        }
      ],
      "name": "AddedLock",
      "type": "event"
    },
    {
      "anonymous": false,
      "inputs": [
        {
          "indexed": true,
          "internalType": "address",
          "name": "owner",
          "type": "address"
        },
        {
          "indexed": true,
          "internalType": "address",
          "name": "spender",
          "type": "address"
        },
        {
          "indexed": false,
          "internalType": "uint256",
          "name": "value",
          "type": "uint256"
        }
      ],
      "name": "Approval",
      "type": "event"
    },
    {
      "anonymous": false,
      "inputs": [
        {
          "indexed": true,
          "internalType": "address",
          "name": "delegator",
          "type": "address"
        },
        {
          "indexed": true,
          "internalType": "address",
          "name": "fromDelegate",
          "type": "address"
        },
        {
          "indexed": true,
          "internalType": "address",
          "name": "toDelegate",
          "type": "address"
        }
      ],
      "name": "DelegateChanged",
      "type": "event"
    },
    {
      "anonymous": false,
      "inputs": [
        {
          "indexed": true,
          "internalType": "address",
          "name": "delegate",
          "type": "address"
        },
        {
          "indexed": false,
          "internalType": "uint256",
          "name": "previousBalance",
          "type": "uint256"
        },
        {
          "indexed": false,
          "internalType": "uint256",
          "name": "newBalance",
          "type": "uint256"
        }
      ],
      "name": "DelegateVotesChanged",
      "type": "event"
    },
    {
      "anonymous": false,
      "inputs": [
        {
          "indexed": true,
          "internalType": "address",
          "name": "from",
          "type": "address"
        },
        {
          "indexed": true,
          "internalType": "address",
          "name": "to",
          "type": "address"
        },
        {
          "indexed": false,
          "internalType": "uint256",
          "name": "value",
          "type": "uint256"
        }
      ],
      "name": "Migrate",
      "type": "event"
    },
    {
      "anonymous": false,
      "inputs": [
        {
          "indexed": false,
          "internalType": "address",
          "name": "account",
          "type": "address"
        }
      ],
      "name": "Paused",
      "type": "event"
    },
    {
      "anonymous": false,
      "inputs": [
        {
          "indexed": false,
          "internalType": "address",
          "name": "user",
          "type": "address"
        }
      ],
      "name": "RemovedLock",
      "type": "event"
    },
    {
      "anonymous": false,
      "inputs": [
        {
          "indexed": true,
          "internalType": "bytes32",
          "name": "role",
          "type": "bytes32"
        },
        {
          "indexed": true,
          "internalType": "bytes32",
          "name": "previousAdminRole",
          "type": "bytes32"
        },
        {
          "indexed": true,
          "internalType": "bytes32",
          "name": "newAdminRole",
          "type": "bytes32"
        }
      ],
      "name": "RoleAdminChanged",
      "type": "event"
    },
    {
      "anonymous": false,
      "inputs": [
        {
          "indexed": true,
          "internalType": "bytes32",
          "name": "role",
          "type": "bytes32"
        },
        {
          "indexed": true,
          "internalType": "address",
          "name": "account",
          "type": "address"
        },
        {
          "indexed": true,
          "internalType": "address",
          "name": "sender",
          "type": "address"
        }
      ],
      "name": "RoleGranted",
      "type": "event"
    },
    {
      "anonymous": false,
      "inputs": [
        {
          "indexed": true,
          "internalType": "bytes32",
          "name": "role",
          "type": "bytes32"
        },
        {
          "indexed": true,
          "internalType": "address",
          "name": "account",
          "type": "address"
        },
        {
          "indexed": true,
          "internalType": "address",
          "name": "sender",
          "type": "address"
        }
      ],
      "name": "RoleRevoked",
      "type": "event"
    },
    {
      "anonymous": false,
      "inputs": [
        {
          "indexed": true,
          "internalType": "address",
          "name": "from",
          "type": "address"
        },
        {
          "indexed": true,
          "internalType": "address",
          "name": "to",
          "type": "address"
        },
        {
          "indexed": false,
          "internalType": "uint256",
          "name": "value",
          "type": "uint256"
        }
      ],
      "name": "Transfer",
      "type": "event"
    },
    {
      "anonymous": false,
      "inputs": [
        {
          "indexed": false,
          "internalType": "address",
          "name": "account",
          "type": "address"
        }
      ],
      "name": "Unpaused",
      "type": "event"
    },
    {
      "inputs": [],
      "name": "CONTROLLER_ROLE",
      "outputs": [
        {
          "internalType": "bytes32",
          "name": "",
          "type": "bytes32"
        }
      ],
      "stateMutability": "view",
      "type": "function",
      "constant": true
    },
    {
      "inputs": [],
      "name": "DECIMALS",
      "outputs": [
        {
          "internalType": "uint8",
          "name": "",
          "type": "uint8"
        }
      ],
      "stateMutability": "view",
      "type": "function",
      "constant": true
    },
    {
      "inputs": [],
      "name": "DEFAULT_ADMIN_ROLE",
      "outputs": [
        {
          "internalType": "bytes32",
          "name": "",
          "type": "bytes32"
        }
      ],
      "stateMutability": "view",
      "type": "function",
      "constant": true
    },
    {
      "inputs": [],
      "name": "DELEGATION_TYPEHASH",
      "outputs": [
        {
          "internalType": "bytes32",
          "name": "",
          "type": "bytes32"
        }
      ],
      "stateMutability": "view",
      "type": "function",
      "constant": true
    },
    {
      "inputs": [],
      "name": "DOMAIN_TYPEHASH",
      "outputs": [
        {
          "internalType": "bytes32",
          "name": "",
          "type": "bytes32"
        }
      ],
      "stateMutability": "view",
      "type": "function",
      "constant": true
    },
    {
      "inputs": [],
      "name": "INITIAL_SUPPLY",
      "outputs": [
        {
          "internalType": "uint256",
          "name": "",
          "type": "uint256"
        }
      ],
      "stateMutability": "view",
      "type": "function",
      "constant": true
    },
    {
      "inputs": [],
      "name": "MINTER_ROLE",
      "outputs": [
        {
          "internalType": "bytes32",
          "name": "",
          "type": "bytes32"
        }
      ],
      "stateMutability": "view",
      "type": "function",
      "constant": true
    },
    {
      "inputs": [
        {
          "internalType": "address",
          "name": "_user",
          "type": "address"
        }
      ],
      "name": "addLock",
      "outputs": [],
      "stateMutability": "nonpayable",
      "type": "function"
    },
    {
      "inputs": [
        {
          "internalType": "address[]",
          "name": "_users",
          "type": "address[]"
        }
      ],
      "name": "addLockMultiple",
      "outputs": [],
      "stateMutability": "nonpayable",
      "type": "function"
    },
    {
      "inputs": [
        {
          "internalType": "address",
          "name": "owner",
          "type": "address"
        },
        {
          "internalType": "address",
          "name": "spender",
          "type": "address"
        }
      ],
      "name": "allowance",
      "outputs": [
        {
          "internalType": "uint256",
          "name": "",
          "type": "uint256"
        }
      ],
      "stateMutability": "view",
      "type": "function",
      "constant": true
    },
    {
      "inputs": [
        {
          "internalType": "address",
          "name": "spender",
          "type": "address"
        },
        {
          "internalType": "uint256",
          "name": "amount",
          "type": "uint256"
        }
      ],
      "name": "approve",
      "outputs": [
        {
          "internalType": "bool",
          "name": "",
          "type": "bool"
        }
      ],
      "stateMutability": "nonpayable",
      "type": "function"
    },
    {
      "inputs": [
        {
          "internalType": "address",
          "name": "account",
          "type": "address"
        }
      ],
      "name": "balanceOf",
      "outputs": [
        {
          "internalType": "uint256",
          "name": "",
          "type": "uint256"
        }
      ],
      "stateMutability": "view",
      "type": "function",
      "constant": true
    },
    {
      "inputs": [
        {
          "internalType": "address",
          "name": "",
          "type": "address"
        },
        {
          "internalType": "uint32",
          "name": "",
          "type": "uint32"
        }
      ],
      "name": "checkpoints",
      "outputs": [
        {
          "internalType": "uint32",
          "name": "fromBlock",
          "type": "uint32"
        },
        {
          "internalType": "uint96",
          "name": "votes",
          "type": "uint96"
        }
      ],
      "stateMutability": "view",
      "type": "function",
      "constant": true
    },
    {
      "inputs": [],
      "name": "decimals",
      "outputs": [
        {
          "internalType": "uint8",
          "name": "",
          "type": "uint8"
        }
      ],
      "stateMutability": "view",
      "type": "function",
      "constant": true
    },
    {
      "inputs": [
        {
          "internalType": "address",
          "name": "spender",
          "type": "address"
        },
        {
          "internalType": "uint256",
          "name": "subtractedValue",
          "type": "uint256"
        }
      ],
      "name": "decreaseAllowance",
      "outputs": [
        {
          "internalType": "bool",
          "name": "",
          "type": "bool"
        }
      ],
      "stateMutability": "nonpayable",
      "type": "function"
    },
    {
      "inputs": [
        {
          "internalType": "address",
          "name": "",
          "type": "address"
        }
      ],
      "name": "delegates",
      "outputs": [
        {
          "internalType": "address",
          "name": "",
          "type": "address"
        }
      ],
      "stateMutability": "view",
      "type": "function",
      "constant": true
    },
    {
      "inputs": [
        {
          "internalType": "bytes32",
          "name": "role",
          "type": "bytes32"
        }
      ],
      "name": "getRoleAdmin",
      "outputs": [
        {
          "internalType": "bytes32",
          "name": "",
          "type": "bytes32"
        }
      ],
      "stateMutability": "view",
      "type": "function",
      "constant": true
    },
    {
      "inputs": [
        {
          "internalType": "bytes32",
          "name": "role",
          "type": "bytes32"
        },
        {
          "internalType": "address",
          "name": "account",
          "type": "address"
        }
      ],
      "name": "grantRole",
      "outputs": [],
      "stateMutability": "nonpayable",
      "type": "function"
    },
    {
      "inputs": [
        {
          "internalType": "bytes32",
          "name": "role",
          "type": "bytes32"
        },
        {
          "internalType": "address",
          "name": "account",
          "type": "address"
        }
      ],
      "name": "hasRole",
      "outputs": [
        {
          "internalType": "bool",
          "name": "",
          "type": "bool"
        }
      ],
      "stateMutability": "view",
      "type": "function",
      "constant": true
    },
    {
      "inputs": [
        {
          "internalType": "address",
          "name": "spender",
          "type": "address"
        },
        {
          "internalType": "uint256",
          "name": "addedValue",
          "type": "uint256"
        }
      ],
      "name": "increaseAllowance",
      "outputs": [
        {
          "internalType": "bool",
          "name": "",
          "type": "bool"
        }
      ],
      "stateMutability": "nonpayable",
      "type": "function"
    },
    {
      "inputs": [
        {
          "internalType": "address",
          "name": "_user",
          "type": "address"
        }
      ],
      "name": "isLocked",
      "outputs": [
        {
          "internalType": "bool",
          "name": "",
          "type": "bool"
        }
      ],
      "stateMutability": "view",
      "type": "function",
      "constant": true
    },
    {
      "inputs": [
        {
          "internalType": "address",
          "name": "",
          "type": "address"
        }
      ],
      "name": "lockedList",
      "outputs": [
        {
          "internalType": "bool",
          "name": "",
          "type": "bool"
        }
      ],
      "stateMutability": "view",
      "type": "function",
      "constant": true
    },
    {
      "inputs": [],
      "name": "name",
      "outputs": [
        {
          "internalType": "string",
          "name": "",
          "type": "string"
        }
      ],
      "stateMutability": "view",
      "type": "function",
      "constant": true
    },
    {
      "inputs": [
        {
          "internalType": "address",
          "name": "",
          "type": "address"
        }
      ],
      "name": "nonces",
      "outputs": [
        {
          "internalType": "uint256",
          "name": "",
          "type": "uint256"
        }
      ],
      "stateMutability": "view",
      "type": "function",
      "constant": true
    },
    {
      "inputs": [
        {
          "internalType": "address",
          "name": "",
          "type": "address"
        }
      ],
      "name": "numCheckpoints",
      "outputs": [
        {
          "internalType": "uint32",
          "name": "",
          "type": "uint32"
        }
      ],
      "stateMutability": "view",
      "type": "function",
      "constant": true
    },
    {
      "inputs": [],
      "name": "paused",
      "outputs": [
        {
          "internalType": "bool",
          "name": "",
          "type": "bool"
        }
      ],
      "stateMutability": "view",
      "type": "function",
      "constant": true
    },
    {
      "inputs": [
        {
          "internalType": "address",
          "name": "_user",
          "type": "address"
        }
      ],
      "name": "removeLock",
      "outputs": [],
      "stateMutability": "nonpayable",
      "type": "function"
    },
    {
      "inputs": [
        {
          "internalType": "bytes32",
          "name": "role",
          "type": "bytes32"
        },
        {
          "internalType": "address",
          "name": "account",
          "type": "address"
        }
      ],
      "name": "renounceRole",
      "outputs": [],
      "stateMutability": "nonpayable",
      "type": "function"
    },
    {
      "inputs": [
        {
          "internalType": "bytes32",
          "name": "role",
          "type": "bytes32"
        },
        {
          "internalType": "address",
          "name": "account",
          "type": "address"
        }
      ],
      "name": "revokeRole",
      "outputs": [],
      "stateMutability": "nonpayable",
      "type": "function"
    },
    {
      "inputs": [
        {
          "internalType": "bytes4",
          "name": "interfaceId",
          "type": "bytes4"
        }
      ],
      "name": "supportsInterface",
      "outputs": [
        {
          "internalType": "bool",
          "name": "",
          "type": "bool"
        }
      ],
      "stateMutability": "view",
      "type": "function",
      "constant": true
    },
    {
      "inputs": [],
      "name": "symbol",
      "outputs": [
        {
          "internalType": "string",
          "name": "",
          "type": "string"
        }
      ],
      "stateMutability": "view",
      "type": "function",
      "constant": true
    },
    {
      "inputs": [],
      "name": "totalMigrated",
      "outputs": [
        {
          "internalType": "uint256",
          "name": "",
          "type": "uint256"
        }
      ],
      "stateMutability": "view",
      "type": "function",
      "constant": true
    },
    {
      "inputs": [],
      "name": "totalSupply",
      "outputs": [
        {
          "internalType": "uint256",
          "name": "",
          "type": "uint256"
        }
      ],
      "stateMutability": "view",
      "type": "function",
      "constant": true
    },
    {
      "inputs": [
        {
          "internalType": "address",
          "name": "account",
          "type": "address"
        }
      ],
      "name": "initialize",
      "outputs": [],
      "stateMutability": "nonpayable",
      "type": "function"
    },
    {
      "inputs": [
        {
          "internalType": "address",
          "name": "to",
          "type": "address"
        },
        {
          "internalType": "uint256",
          "name": "value",
          "type": "uint256"
        }
      ],
      "name": "transfer",
      "outputs": [
        {
          "internalType": "bool",
          "name": "",
          "type": "bool"
        }
      ],
      "stateMutability": "nonpayable",
      "type": "function"
    },
    {
      "inputs": [
        {
          "internalType": "address",
          "name": "from",
          "type": "address"
        },
        {
          "internalType": "address",
          "name": "to",
          "type": "address"
        },
        {
          "internalType": "uint256",
          "name": "value",
          "type": "uint256"
        }
      ],
      "name": "transferFrom",
      "outputs": [
        {
          "internalType": "bool",
          "name": "",
          "type": "bool"
        }
      ],
      "stateMutability": "nonpayable",
      "type": "function"
    },
    {
      "inputs": [
        {
          "internalType": "address",
          "name": "to",
          "type": "address"
        },
        {
          "internalType": "uint256",
          "name": "amount",
          "type": "uint256"
        }
      ],
      "name": "mint",
      "outputs": [
        {
          "internalType": "bool",
          "name": "",
          "type": "bool"
        }
      ],
      "stateMutability": "nonpayable",
      "type": "function"
    },
    {
      "inputs": [
        {
          "internalType": "uint256",
          "name": "amount",
          "type": "uint256"
        }
      ],
      "name": "burn",
      "outputs": [],
      "stateMutability": "nonpayable",
      "type": "function"
    },
    {
      "inputs": [
        {
          "internalType": "address",
          "name": "user",
          "type": "address"
        },
        {
          "internalType": "uint256",
          "name": "amount",
          "type": "uint256"
        }
      ],
      "name": "burnFrom",
      "outputs": [],
      "stateMutability": "nonpayable",
      "type": "function"
    },
    {
      "inputs": [],
      "name": "pause",
      "outputs": [],
      "stateMutability": "nonpayable",
      "type": "function"
    },
    {
      "inputs": [],
      "name": "unpause",
      "outputs": [],
      "stateMutability": "nonpayable",
      "type": "function"
    },
    {
      "inputs": [
        {
          "internalType": "address",
          "name": "delegatee",
          "type": "address"
        }
      ],
      "name": "delegate",
      "outputs": [],
      "stateMutability": "nonpayable",
      "type": "function"
    },
    {
      "inputs": [
        {
          "internalType": "address",
          "name": "delegatee",
          "type": "address"
        },
        {
          "internalType": "uint256",
          "name": "nonce",
          "type": "uint256"
        },
        {
          "internalType": "uint256",
          "name": "expiry",
          "type": "uint256"
        },
        {
          "internalType": "uint8",
          "name": "v",
          "type": "uint8"
        },
        {
          "internalType": "bytes32",
          "name": "r",
          "type": "bytes32"
        },
        {
          "internalType": "bytes32",
          "name": "s",
          "type": "bytes32"
        }
      ],
      "name": "delegateBySig",
      "outputs": [],
      "stateMutability": "nonpayable",
      "type": "function"
    },
    {
      "inputs": [
        {
          "internalType": "address",
          "name": "account",
          "type": "address"
        }
      ],
      "name": "getCurrentVotes",
      "outputs": [
        {
          "internalType": "uint96",
          "name": "",
          "type": "uint96"
        }
      ],
      "stateMutability": "view",
      "type": "function",
      "constant": true
    },
    {
      "inputs": [
        {
          "internalType": "address",
          "name": "account",
          "type": "address"
        },
        {
          "internalType": "uint256",
          "name": "blockNumber",
          "type": "uint256"
        }
      ],
      "name": "getPriorVotes",
      "outputs": [
        {
          "internalType": "uint96",
          "name": "",
          "type": "uint96"
        }
      ],
      "stateMutability": "view",
      "type": "function",
      "constant": true
    }
  ],
  "bytecode": "0x60806040523480156200001157600080fd5b50604051620065803803806200658083398181016040528101906200003791906200057a565b6040518060400160405280600a81526020017f4175646974636861696e000000000000000000000000000000000000000000008152506040518060400160405280600481526020017f41554454000000000000000000000000000000000000000000000000000000008152508160059080519060200190620000bb929190620004b3565b508060069080519060200190620000d4929190620004b3565b5050506000600760006101000a81548160ff021916908315150217905550600073ffffffffffffffffffffffffffffffffffffffff168173ffffffffffffffffffffffffffffffffffffffff16141562000165576040517f08c379a00000000000000000000000000000000000000000000000000000000081526004016200015c9062000661565b60405180910390fd5b6200019a81601260ff16600a6200017d91906200078b565b630ee6b2806200018e9190620008c8565b620001b660201b60201c565b620001af6000801b826200033060201b60201c565b5062000a22565b600073ffffffffffffffffffffffffffffffffffffffff168273ffffffffffffffffffffffffffffffffffffffff16141562000229576040517f08c379a0000000000000000000000000000000000000000000000000000000008152600401620002209062000683565b60405180910390fd5b6200023d600083836200034660201b60201c565b8060046000828254620002519190620006d3565b9250508190555080600260008473ffffffffffffffffffffffffffffffffffffffff1673ffffffffffffffffffffffffffffffffffffffff1681526020019081526020016000206000828254620002a99190620006d3565b925050819055508173ffffffffffffffffffffffffffffffffffffffff16600073ffffffffffffffffffffffffffffffffffffffff167fddf252ad1be2c89b69c2b068fc378daa952ba7f163c4a11628f55a4df523b3ef83604051620003109190620006a5565b60405180910390a36200032c600083836200034b60201b60201c565b5050565b6200034282826200035060201b60201c565b5050565b505050565b505050565b6200036282826200044160201b60201c565b6200043d57600160008084815260200190815260200160002060000160008373ffffffffffffffffffffffffffffffffffffffff1673ffffffffffffffffffffffffffffffffffffffff16815260200190815260200160002060006101000a81548160ff021916908315150217905550620003e2620004ab60201b60201c565b73ffffffffffffffffffffffffffffffffffffffff168173ffffffffffffffffffffffffffffffffffffffff16837f2f8788117e7eff1d82e926ec794901d17c78024a50270940304540a733656f0d60405160405180910390a45b5050565b600080600084815260200190815260200160002060000160008373ffffffffffffffffffffffffffffffffffffffff1673ffffffffffffffffffffffffffffffffffffffff16815260200190815260200160002060009054906101000a900460ff16905092915050565b600033905090565b828054620004c19062000967565b90600052602060002090601f016020900481019282620004e5576000855562000531565b82601f106200050057805160ff191683800117855562000531565b8280016001018555821562000531579182015b828111156200053057825182559160200191906001019062000513565b5b50905062000540919062000544565b5090565b5b808211156200055f57600081600090555060010162000545565b5090565b600081519050620005748162000a08565b92915050565b6000602082840312156200058d57600080fd5b60006200059d8482850162000563565b91505092915050565b6000620005b5602b83620006c2565b91507f4175646974546f6b656e3a636f6e7374727563746f72202d204164647265737360008301527f2063616e277420626520300000000000000000000000000000000000000000006020830152604082019050919050565b60006200061d601f83620006c2565b91507f45524332303a206d696e7420746f20746865207a65726f2061646472657373006000830152602082019050919050565b6200065b816200095d565b82525050565b600060208201905081810360008301526200067c81620005a6565b9050919050565b600060208201905081810360008301526200069e816200060e565b9050919050565b6000602082019050620006bc600083018462000650565b92915050565b600082825260208201905092915050565b6000620006e0826200095d565b9150620006ed836200095d565b9250827fffffffffffffffffffffffffffffffffffffffffffffffffffffffffffffffff038211156200072557620007246200099d565b5b828201905092915050565b6000808291508390505b600185111562000782578086048111156200075a57620007596200099d565b5b60018516156200076a5780820291505b80810290506200077a85620009fb565b94506200073a565b94509492505050565b600062000798826200095d565b9150620007a5836200095d565b9250620007d47fffffffffffffffffffffffffffffffffffffffffffffffffffffffffffffffff8484620007dc565b905092915050565b600082620007ee5760019050620008c1565b81620007fe5760009050620008c1565b8160018114620008175760028114620008225762000858565b6001915050620008c1565b60ff8411156200083757620008366200099d565b5b8360020a9150848211156200085157620008506200099d565b5b50620008c1565b5060208310610133831016604e8410600b8410161715620008925782820a9050838111156200088c576200088b6200099d565b5b620008c1565b620008a1848484600162000730565b92509050818404811115620008bb57620008ba6200099d565b5b81810290505b9392505050565b6000620008d5826200095d565b9150620008e2836200095d565b9250817fffffffffffffffffffffffffffffffffffffffffffffffffffffffffffffffff04831182151516156200091e576200091d6200099d565b5b828202905092915050565b600062000936826200093d565b9050919050565b600073ffffffffffffffffffffffffffffffffffffffff82169050919050565b6000819050919050565b600060028204905060018216806200098057607f821691505b60208210811415620009975762000996620009cc565b5b50919050565b7f4e487b7100000000000000000000000000000000000000000000000000000000600052601160045260246000fd5b7f4e487b7100000000000000000000000000000000000000000000000000000000600052602260045260246000fd5b60008160011c9050919050565b62000a138162000929565b811462000a1f57600080fd5b50565b615b4e8062000a326000396000f3fe608060405234801561001057600080fd5b506004361061027f5760003560e01c80635c975abb1161015c57806395d89b41116100ce578063c4d66de811610087578063c4d66de81461080e578063d53913931461082a578063d547741f14610848578063dd62ed3e14610864578063e7a324dc14610894578063f1127ed8146108b25761027f565b806395d89b4114610726578063a217fddf14610744578063a457c2d714610762578063a9059cbb14610792578063b4b5ea57146107c2578063c3cda520146107f25761027f565b80637ecebe00116101205780637ecebe00146106665780638456cb5914610696578063882f327b146106a05780638f557373146106bc57806391d14854146106d857806395a0f5eb146107085761027f565b80635c975abb1461059c5780636fcfff45146105ba57806370a08231146105ea578063782d6fe11461061a57806379cc67901461064a5761027f565b80632ff2e9dc116101f557806340c10f19116101b957806340c10f19146104b857806342966c68146104e85780634a387bef146105045780634a4fbeec14610520578063587cde1e146105505780635c19a95c146105805761027f565b80632ff2e9dc14610426578063313ce5671461044457806336568abe14610462578063395093511461047e5780633f4ba83a146104ae5761027f565b80631a921b3e116102475780631a921b3e1461033e57806320606b701461036e57806323b872dd1461038c578063248a9ca3146103bc5780632e0f2625146103ec5780632f2ff15d1461040a5761027f565b806301ffc9a71461028457806306fdde03146102b4578063092c5b3b146102d2578063095ea7b3146102f057806318160ddd14610320575b600080fd5b61029e6004803603810190610299919061420a565b6108e3565b6040516102ab9190614e65565b60405180910390f35b6102bc61095d565b6040516102c99190614f6a565b60405180910390f35b6102da6109ef565b6040516102e79190614e80565b60405180910390f35b61030a60048036038101906103059190614063565b610a13565b6040516103179190614e65565b60405180910390f35b610328610a31565b60405161033591906152cc565b60405180910390f35b61035860048036038101906103539190613faf565b610a3b565b6040516103659190614e65565b60405180910390f35b610376610a5b565b6040516103839190614e80565b60405180910390f35b6103a660048036038101906103a19190614014565b610a7f565b6040516103b39190614e65565b60405180910390f35b6103d660048036038101906103d191906141a5565b610cff565b6040516103e39190614e80565b60405180910390f35b6103f4610d1e565b604051610401919061532b565b60405180910390f35b610424600480360381019061041f91906141ce565b610d23565b005b61042e610d4c565b60405161043b91906152cc565b60405180910390f35b61044c610d6f565b604051610459919061532b565b60405180910390f35b61047c600480360381019061047791906141ce565b610d78565b005b61049860048036038101906104939190614063565b610dfb565b6040516104a59190614e65565b60405180910390f35b6104b6610ea7565b005b6104d260048036038101906104cd9190614063565b610f1a565b6040516104df9190614e65565b60405180910390f35b61050260048036038101906104fd9190614233565b611009565b005b61051e60048036038101906105199190613faf565b611145565b005b61053a60048036038101906105359190613faf565b6111ba565b6040516105479190614e65565b60405180910390f35b61056a60048036038101906105659190613faf565b611210565b6040516105779190614e4a565b60405180910390f35b61059a60048036038101906105959190613faf565b611243565b005b6105a4611250565b6040516105b19190614e65565b60405180910390f35b6105d460048036038101906105cf9190613faf565b611267565b6040516105e191906152e7565b60405180910390f35b61060460048036038101906105ff9190613faf565b61128a565b60405161061191906152cc565b60405180910390f35b610634600480360381019061062f9190614063565b6112d3565b6040516106419190615346565b60405180910390f35b610664600480360381019061065f9190614063565b61170e565b005b610680600480360381019061067b9190613faf565b61184c565b60405161068d91906152cc565b60405180910390f35b61069e611864565b005b6106ba60048036038101906106b59190613faf565b6118d7565b005b6106d660048036038101906106d19190614164565b61194c565b005b6106f260048036038101906106ed91906141ce565b611a6c565b6040516106ff9190614e65565b60405180910390f35b610710611ad6565b60405161071d91906152cc565b60405180910390f35b61072e611adc565b60405161073b9190614f6a565b60405180910390f35b61074c611b6e565b6040516107599190614e80565b60405180910390f35b61077c60048036038101906107779190614063565b611b75565b6040516107899190614e65565b60405180910390f35b6107ac60048036038101906107a79190614063565b611c60565b6040516107b99190614e65565b60405180910390f35b6107dc60048036038101906107d79190613faf565b611ede565b6040516107e99190615346565b60405180910390f35b61080c6004803603810190610807919061409f565b611fd5565b005b61082860048036038101906108239190613faf565b61226a565b005b6108326122ea565b60405161083f9190614e80565b60405180910390f35b610862600480360381019061085d91906141ce565b61230e565b005b61087e60048036038101906108799190613fd8565b612337565b60405161088b91906152cc565b60405180910390f35b61089c6123be565b6040516108a99190614e80565b60405180910390f35b6108cc60048036038101906108c79190614128565b6123e2565b6040516108da929190615302565b60405180910390f35b60007f7965db0b000000000000000000000000000000000000000000000000000000007bffffffffffffffffffffffffffffffffffffffffffffffffffffffff1916827bffffffffffffffffffffffffffffffffffffffffffffffffffffffff1916148061095657506109558261243b565b5b9050919050565b60606005805461096c9061589a565b80601f01602080910402602001604051908101604052809291908181526020018280546109989061589a565b80156109e55780601f106109ba576101008083540402835291602001916109e5565b820191906000526020600020905b8154815290600101906020018083116109c857829003601f168201915b5050505050905090565b7f7b765e0e932d348852a6f810bfa1ab891e259123f02db8cdcde614c57022335781565b6000610a27610a206124a5565b84846124ad565b6001905092915050565b6000600454905090565b60016020528060005260406000206000915054906101000a900460ff1681565b7f8cad95687ba82c2ce50e74f7b754645e5117c3a5bec8151c0726d5857980a86681565b60008383610a906000801b83611a6c565b610baf57600160008373ffffffffffffffffffffffffffffffffffffffff1673ffffffffffffffffffffffffffffffffffffffff16815260200190815260200160002060009054906101000a900460ff1615610b21576040517f08c379a0000000000000000000000000000000000000000000000000000000008152600401610b189061520c565b60405180910390fd5b600160008273ffffffffffffffffffffffffffffffffffffffff1673ffffffffffffffffffffffffffffffffffffffff16815260200190815260200160002060009054906101000a900460ff1615610bae576040517f08c379a0000000000000000000000000000000000000000000000000000000008152600401610ba59061520c565b60405180910390fd5b5b843073ffffffffffffffffffffffffffffffffffffffff168173ffffffffffffffffffffffffffffffffffffffff161415610c1f576040517f08c379a0000000000000000000000000000000000000000000000000000000008152600401610c169061524c565b60405180910390fd5b610ce8600860008973ffffffffffffffffffffffffffffffffffffffff1673ffffffffffffffffffffffffffffffffffffffff16815260200190815260200160002060009054906101000a900473ffffffffffffffffffffffffffffffffffffffff16600860008973ffffffffffffffffffffffffffffffffffffffff1673ffffffffffffffffffffffffffffffffffffffff16815260200190815260200160002060009054906101000a900473ffffffffffffffffffffffffffffffffffffffff1687612678565b610cf3878787612985565b93505050509392505050565b6000806000838152602001908152602001600020600101549050919050565b601281565b610d2c82610cff565b610d3d81610d386124a5565b612a7d565b610d478383612b1a565b505050565b601260ff16600a610d5d9190615564565b630ee6b280610d6c9190615682565b81565b60006012905090565b610d806124a5565b73ffffffffffffffffffffffffffffffffffffffff168173ffffffffffffffffffffffffffffffffffffffff1614610ded576040517f08c379a0000000000000000000000000000000000000000000000000000000008152600401610de49061528c565b60405180910390fd5b610df78282612bfa565b5050565b6000610e9d610e086124a5565b848460036000610e166124a5565b73ffffffffffffffffffffffffffffffffffffffff1673ffffffffffffffffffffffffffffffffffffffff16815260200190815260200160002060008873ffffffffffffffffffffffffffffffffffffffff1673ffffffffffffffffffffffffffffffffffffffff16815260200190815260200160002054610e98919061540e565b6124ad565b6001905092915050565b610ed17f7b765e0e932d348852a6f810bfa1ab891e259123f02db8cdcde614c57022335733611a6c565b610f10576040517f08c379a0000000000000000000000000000000000000000000000000000000008152600401610f079061522c565b60405180910390fd5b610f18612cdb565b565b6000610f467f9f2df0fed2c77648de5860a4cc508cd0818c85b8b8a1ab4ceeef8d981c8956a633611a6c565b610f85576040517f08c379a0000000000000000000000000000000000000000000000000000000008152600401610f7c9061510c565b60405180910390fd5b600073ffffffffffffffffffffffffffffffffffffffff168373ffffffffffffffffffffffffffffffffffffffff161415610ff5576040517f08c379a0000000000000000000000000000000000000000000000000000000008152600401610fec906150cc565b60405180910390fd5b610fff8383612d7d565b6001905092915050565b33336110186000801b83611a6c565b61113757600160008373ffffffffffffffffffffffffffffffffffffffff1673ffffffffffffffffffffffffffffffffffffffff16815260200190815260200160002060009054906101000a900460ff16156110a9576040517f08c379a00000000000000000000000000000000000000000000000000000000081526004016110a09061520c565b60405180910390fd5b600160008273ffffffffffffffffffffffffffffffffffffffff1673ffffffffffffffffffffffffffffffffffffffff16815260200190815260200160002060009054906101000a900460ff1615611136576040517f08c379a000000000000000000000000000000000000000000000000000000000815260040161112d9061520c565b60405180910390fd5b5b61114083612ede565b505050565b61116f7f7b765e0e932d348852a6f810bfa1ab891e259123f02db8cdcde614c57022335733611a6c565b6111ae576040517f08c379a00000000000000000000000000000000000000000000000000000000081526004016111a59061522c565b60405180910390fd5b6111b781612ef2565b50565b6000600160008373ffffffffffffffffffffffffffffffffffffffff1673ffffffffffffffffffffffffffffffffffffffff16815260200190815260200160002060009054906101000a900460ff169050919050565b60086020528060005260406000206000915054906101000a900473ffffffffffffffffffffffffffffffffffffffff1681565b61124d3382612f84565b50565b6000600760009054906101000a900460ff16905090565b600a6020528060005260406000206000915054906101000a900463ffffffff1681565b6000600260008373ffffffffffffffffffffffffffffffffffffffff1673ffffffffffffffffffffffffffffffffffffffff168152602001908152602001600020549050919050565b6000438210611317576040517f08c379a000000000000000000000000000000000000000000000000000000000815260040161130e9061516c565b60405180910390fd5b6000600a60008573ffffffffffffffffffffffffffffffffffffffff1673ffffffffffffffffffffffffffffffffffffffff16815260200190815260200160002060009054906101000a900463ffffffff16905060008163ffffffff161415611384576000915050611708565b82600960008673ffffffffffffffffffffffffffffffffffffffff1673ffffffffffffffffffffffffffffffffffffffff16815260200190815260200160002060006001846113d39190615710565b63ffffffff1663ffffffff16815260200190815260200160002060000160009054906101000a900463ffffffff1663ffffffff161161149857600960008573ffffffffffffffffffffffffffffffffffffffff1673ffffffffffffffffffffffffffffffffffffffff168152602001908152602001600020600060018361145a9190615710565b63ffffffff1663ffffffff16815260200190815260200160002060000160049054906101000a90046bffffffffffffffffffffffff16915050611708565b82600960008673ffffffffffffffffffffffffffffffffffffffff1673ffffffffffffffffffffffffffffffffffffffff16815260200190815260200160002060008063ffffffff16815260200190815260200160002060000160009054906101000a900463ffffffff1663ffffffff161115611519576000915050611708565b6000806001836115299190615710565b90505b8163ffffffff168163ffffffff16111561168a576000600283836115509190615710565b61155a91906154e0565b826115659190615710565b90506000600960008973ffffffffffffffffffffffffffffffffffffffff1673ffffffffffffffffffffffffffffffffffffffff16815260200190815260200160002060008363ffffffff1663ffffffff1681526020019081526020016000206040518060400160405290816000820160009054906101000a900463ffffffff1663ffffffff1663ffffffff1681526020016000820160049054906101000a90046bffffffffffffffffffffffff166bffffffffffffffffffffffff166bffffffffffffffffffffffff1681525050905086816000015163ffffffff16141561165957806020015195505050505050611708565b86816000015163ffffffff16101561167357819350611683565b6001826116809190615710565b92505b505061152c565b600960008773ffffffffffffffffffffffffffffffffffffffff1673ffffffffffffffffffffffffffffffffffffffff16815260200190815260200160002060008363ffffffff1663ffffffff16815260200190815260200160002060000160049054906101000a90046bffffffffffffffffffffffff1693505050505b92915050565b333361171d6000801b83611a6c565b61183c57600160008373ffffffffffffffffffffffffffffffffffffffff1673ffffffffffffffffffffffffffffffffffffffff16815260200190815260200160002060009054906101000a900460ff16156117ae576040517f08c379a00000000000000000000000000000000000000000000000000000000081526004016117a59061520c565b60405180910390fd5b600160008273ffffffffffffffffffffffffffffffffffffffff1673ffffffffffffffffffffffffffffffffffffffff16815260200190815260200160002060009054906101000a900460ff161561183b576040517f08c379a00000000000000000000000000000000000000000000000000000000081526004016118329061520c565b60405180910390fd5b5b61184684846130f5565b50505050565b600b6020528060005260406000206000915090505481565b61188e7f7b765e0e932d348852a6f810bfa1ab891e259123f02db8cdcde614c57022335733611a6c565b6118cd576040517f08c379a00000000000000000000000000000000000000000000000000000000081526004016118c49061522c565b60405180910390fd5b6118d5613170565b565b6119017f7b765e0e932d348852a6f810bfa1ab891e259123f02db8cdcde614c57022335733611a6c565b611940576040517f08c379a00000000000000000000000000000000000000000000000000000000081526004016119379061522c565b60405180910390fd5b61194981613213565b50565b6119767f7b765e0e932d348852a6f810bfa1ab891e259123f02db8cdcde614c57022335733611a6c565b6119b5576040517f08c379a00000000000000000000000000000000000000000000000000000000081526004016119ac9061522c565b60405180910390fd5b600081519050610100811115611a00576040517f08c379a00000000000000000000000000000000000000000000000000000000081526004016119f79061504c565b60405180910390fd5b60005b81811015611a6757611a54838281518110611a47577f4e487b7100000000000000000000000000000000000000000000000000000000600052603260045260246000fd5b6020026020010151613213565b8080611a5f906158cc565b915050611a03565b505050565b600080600084815260200190815260200160002060000160008373ffffffffffffffffffffffffffffffffffffffff1673ffffffffffffffffffffffffffffffffffffffff16815260200190815260200160002060009054906101000a900460ff16905092915050565b600c5481565b606060068054611aeb9061589a565b80601f0160208091040260200160405190810160405280929190818152602001828054611b179061589a565b8015611b645780601f10611b3957610100808354040283529160200191611b64565b820191906000526020600020905b815481529060010190602001808311611b4757829003601f168201915b5050505050905090565b6000801b81565b60008060036000611b846124a5565b73ffffffffffffffffffffffffffffffffffffffff1673ffffffffffffffffffffffffffffffffffffffff16815260200190815260200160002060008573ffffffffffffffffffffffffffffffffffffffff1673ffffffffffffffffffffffffffffffffffffffff16815260200190815260200160002054905082811015611c41576040517f08c379a0000000000000000000000000000000000000000000000000000000008152600401611c389061526c565b60405180910390fd5b611c55611c4c6124a5565b858584036124ad565b600191505092915050565b60003383611c716000801b83611a6c565b611d9057600160008373ffffffffffffffffffffffffffffffffffffffff1673ffffffffffffffffffffffffffffffffffffffff16815260200190815260200160002060009054906101000a900460ff1615611d02576040517f08c379a0000000000000000000000000000000000000000000000000000000008152600401611cf99061520c565b60405180910390fd5b600160008273ffffffffffffffffffffffffffffffffffffffff1673ffffffffffffffffffffffffffffffffffffffff16815260200190815260200160002060009054906101000a900460ff1615611d8f576040517f08c379a0000000000000000000000000000000000000000000000000000000008152600401611d869061520c565b60405180910390fd5b5b843073ffffffffffffffffffffffffffffffffffffffff168173ffffffffffffffffffffffffffffffffffffffff161415611e00576040517f08c379a0000000000000000000000000000000000000000000000000000000008152600401611df79061524c565b60405180910390fd5b611ec9600860003373ffffffffffffffffffffffffffffffffffffffff1673ffffffffffffffffffffffffffffffffffffffff16815260200190815260200160002060009054906101000a900473ffffffffffffffffffffffffffffffffffffffff16600860008973ffffffffffffffffffffffffffffffffffffffff1673ffffffffffffffffffffffffffffffffffffffff16815260200190815260200160002060009054906101000a900473ffffffffffffffffffffffffffffffffffffffff1687612678565b611ed386866132a4565b935050505092915050565b600080600a60008473ffffffffffffffffffffffffffffffffffffffff1673ffffffffffffffffffffffffffffffffffffffff16815260200190815260200160002060009054906101000a900463ffffffff16905060008163ffffffff1611611f48576000611fcd565b600960008473ffffffffffffffffffffffffffffffffffffffff1673ffffffffffffffffffffffffffffffffffffffff1681526020019081526020016000206000600183611f969190615710565b63ffffffff1663ffffffff16815260200190815260200160002060000160049054906101000a90046bffffffffffffffffffffffff165b915050919050565b60007f8cad95687ba82c2ce50e74f7b754645e5117c3a5bec8151c0726d5857980a86661200061095d565b8051906020012061200f6132c2565b306040516020016120239493929190614ee0565b60405160208183030381529060405280519060200120905060007fe48329057bfd03d55e49b547132e39cffd9c1820ad7b9d4c5307691425d15adf8888886040516020016120749493929190614e9b565b604051602081830303815290604052805190602001209050600082826040516020016120a1929190614dd9565b6040516020818303038152906040528051906020012090506000600182888888604051600081526020016040526040516120de9493929190614f25565b6020604051602081039080840390855afa158015612100573d6000803e3d6000fd5b505050602060405103519050600073ffffffffffffffffffffffffffffffffffffffff168173ffffffffffffffffffffffffffffffffffffffff16141561217c576040517f08c379a00000000000000000000000000000000000000000000000000000000081526004016121739061506c565b60405180910390fd5b600b60008273ffffffffffffffffffffffffffffffffffffffff1673ffffffffffffffffffffffffffffffffffffffff16815260200190815260200160002060008154809291906121cc906158cc565b919050558914612211576040517f08c379a00000000000000000000000000000000000000000000000000000000081526004016122089061512c565b60405180910390fd5b87421115612254576040517f08c379a000000000000000000000000000000000000000000000000000000000815260040161224b90614fcc565b60405180910390fd5b61225e818b612f84565b50505050505050505050565b600073ffffffffffffffffffffffffffffffffffffffff168173ffffffffffffffffffffffffffffffffffffffff1614156122da576040517f08c379a00000000000000000000000000000000000000000000000000000000081526004016122d1906150ac565b60405180910390fd5b6122e76000801b826132cf565b50565b7f9f2df0fed2c77648de5860a4cc508cd0818c85b8b8a1ab4ceeef8d981c8956a681565b61231782610cff565b612328816123236124a5565b612a7d565b6123328383612bfa565b505050565b6000600360008473ffffffffffffffffffffffffffffffffffffffff1673ffffffffffffffffffffffffffffffffffffffff16815260200190815260200160002060008373ffffffffffffffffffffffffffffffffffffffff1673ffffffffffffffffffffffffffffffffffffffff16815260200190815260200160002054905092915050565b7fe48329057bfd03d55e49b547132e39cffd9c1820ad7b9d4c5307691425d15adf81565b6009602052816000526040600020602052806000526040600020600091509150508060000160009054906101000a900463ffffffff16908060000160049054906101000a90046bffffffffffffffffffffffff16905082565b60007f01ffc9a7000000000000000000000000000000000000000000000000000000007bffffffffffffffffffffffffffffffffffffffffffffffffffffffff1916827bffffffffffffffffffffffffffffffffffffffffffffffffffffffff1916149050919050565b600033905090565b600073ffffffffffffffffffffffffffffffffffffffff168373ffffffffffffffffffffffffffffffffffffffff16141561251d576040517f08c379a0000000000000000000000000000000000000000000000000000000008152600401612514906151ec565b60405180910390fd5b600073ffffffffffffffffffffffffffffffffffffffff168273ffffffffffffffffffffffffffffffffffffffff16141561258d576040517f08c379a00000000000000000000000000000000000000000000000000000000081526004016125849061502c565b60405180910390fd5b80600360008573ffffffffffffffffffffffffffffffffffffffff1673ffffffffffffffffffffffffffffffffffffffff16815260200190815260200160002060008473ffffffffffffffffffffffffffffffffffffffff1673ffffffffffffffffffffffffffffffffffffffff168152602001908152602001600020819055508173ffffffffffffffffffffffffffffffffffffffff168373ffffffffffffffffffffffffffffffffffffffff167f8c5be1e5ebec7d5bd14f71427d1e84f3dd0314c0f7b2291e5b200ac8c7c3b9258360405161266b91906152cc565b60405180910390a3505050565b8173ffffffffffffffffffffffffffffffffffffffff168373ffffffffffffffffffffffffffffffffffffffff16141580156126c257506000816bffffffffffffffffffffffff16115b1561298057600073ffffffffffffffffffffffffffffffffffffffff168373ffffffffffffffffffffffffffffffffffffffff1614612823576000600a60008573ffffffffffffffffffffffffffffffffffffffff1673ffffffffffffffffffffffffffffffffffffffff16815260200190815260200160002060009054906101000a900463ffffffff1690506000808263ffffffff16116127655760006127ea565b600960008673ffffffffffffffffffffffffffffffffffffffff1673ffffffffffffffffffffffffffffffffffffffff16815260200190815260200160002060006001846127b39190615710565b63ffffffff1663ffffffff16815260200190815260200160002060000160049054906101000a90046bffffffffffffffffffffffff165b9050600061281182856040518060600160405280602e8152602001615a84602e91396132dd565b905061281f86848484613357565b5050505b600073ffffffffffffffffffffffffffffffffffffffff168273ffffffffffffffffffffffffffffffffffffffff161461297f576000600a60008473ffffffffffffffffffffffffffffffffffffffff1673ffffffffffffffffffffffffffffffffffffffff16815260200190815260200160002060009054906101000a900463ffffffff1690506000808263ffffffff16116128c1576000612946565b600960008573ffffffffffffffffffffffffffffffffffffffff1673ffffffffffffffffffffffffffffffffffffffff168152602001908152602001600020600060018461290f9190615710565b63ffffffff1663ffffffff16815260200190815260200160002060000160049054906101000a90046bffffffffffffffffffffffff165b9050600061296d82856040518060600160405280602d8152602001615aec602d9139613665565b905061297b85848484613357565b5050505b5b505050565b60006129928484846136e4565b6000600360008673ffffffffffffffffffffffffffffffffffffffff1673ffffffffffffffffffffffffffffffffffffffff16815260200190815260200160002060006129dd6124a5565b73ffffffffffffffffffffffffffffffffffffffff1673ffffffffffffffffffffffffffffffffffffffff16815260200190815260200160002054905082811015612a5d576040517f08c379a0000000000000000000000000000000000000000000000000000000008152600401612a549061514c565b60405180910390fd5b612a7185612a696124a5565b8584036124ad565b60019150509392505050565b612a878282611a6c565b612b1657612aac8173ffffffffffffffffffffffffffffffffffffffff166014613968565b612aba8360001c6020613968565b604051602001612acb929190614e10565b6040516020818303038152906040526040517f08c379a0000000000000000000000000000000000000000000000000000000008152600401612b0d9190614f6a565b60405180910390fd5b5050565b612b248282611a6c565b612bf657600160008084815260200190815260200160002060000160008373ffffffffffffffffffffffffffffffffffffffff1673ffffffffffffffffffffffffffffffffffffffff16815260200190815260200160002060006101000a81548160ff021916908315150217905550612b9b6124a5565b73ffffffffffffffffffffffffffffffffffffffff168173ffffffffffffffffffffffffffffffffffffffff16837f2f8788117e7eff1d82e926ec794901d17c78024a50270940304540a733656f0d60405160405180910390a45b5050565b612c048282611a6c565b15612cd757600080600084815260200190815260200160002060000160008373ffffffffffffffffffffffffffffffffffffffff1673ffffffffffffffffffffffffffffffffffffffff16815260200190815260200160002060006101000a81548160ff021916908315150217905550612c7c6124a5565b73ffffffffffffffffffffffffffffffffffffffff168173ffffffffffffffffffffffffffffffffffffffff16837ff6391f5c32d9c69d2a47ea670b442974b53935d1edc7fd64eb21e047a839171b60405160405180910390a45b5050565b612ce3611250565b612d22576040517f08c379a0000000000000000000000000000000000000000000000000000000008152600401612d1990614fec565b60405180910390fd5b6000600760006101000a81548160ff0219169083151502179055507f5db9ee0a495bf2e6ff9c91a7834c1ba4fdd244a5e8aa4e537bd38aeae4b073aa612d666124a5565b604051612d739190614e4a565b60405180910390a1565b600073ffffffffffffffffffffffffffffffffffffffff168273ffffffffffffffffffffffffffffffffffffffff161415612ded576040517f08c379a0000000000000000000000000000000000000000000000000000000008152600401612de4906152ac565b60405180910390fd5b612df960008383613c62565b8060046000828254612e0b919061540e565b9250508190555080600260008473ffffffffffffffffffffffffffffffffffffffff1673ffffffffffffffffffffffffffffffffffffffff1681526020019081526020016000206000828254612e61919061540e565b925050819055508173ffffffffffffffffffffffffffffffffffffffff16600073ffffffffffffffffffffffffffffffffffffffff167fddf252ad1be2c89b69c2b068fc378daa952ba7f163c4a11628f55a4df523b3ef83604051612ec691906152cc565b60405180910390a3612eda60008383613c67565b5050565b612eef612ee96124a5565b82613c6c565b50565b6000600160008373ffffffffffffffffffffffffffffffffffffffff1673ffffffffffffffffffffffffffffffffffffffff16815260200190815260200160002060006101000a81548160ff0219169083151502179055507f6134e30ca79f58d7566528b3768c7d33c9c30815c63cfeae3b69f52cf31dd61a81604051612f799190614e4a565b60405180910390a150565b6000600860008473ffffffffffffffffffffffffffffffffffffffff1673ffffffffffffffffffffffffffffffffffffffff16815260200190815260200160002060009054906101000a900473ffffffffffffffffffffffffffffffffffffffff1690506000612ff38461128a565b905082600860008673ffffffffffffffffffffffffffffffffffffffff1673ffffffffffffffffffffffffffffffffffffffff16815260200190815260200160002060006101000a81548173ffffffffffffffffffffffffffffffffffffffff021916908373ffffffffffffffffffffffffffffffffffffffff1602179055508273ffffffffffffffffffffffffffffffffffffffff168273ffffffffffffffffffffffffffffffffffffffff168573ffffffffffffffffffffffffffffffffffffffff167f3134e8a2e6d97e929a7e54011ea5485d7d196dd5f0ba4d4ef95803e8e3fc257f60405160405180910390a46130ef828483612678565b50505050565b6000613108836131036124a5565b612337565b90508181101561314d576040517f08c379a00000000000000000000000000000000000000000000000000000000081526004016131449061518c565b60405180910390fd5b613161836131596124a5565b8484036124ad565b61316b8383613c6c565b505050565b613178611250565b156131b8576040517f08c379a00000000000000000000000000000000000000000000000000000000081526004016131af906150ec565b60405180910390fd5b6001600760006101000a81548160ff0219169083151502179055507f62e78cea01bee320cd4e420270b5ea74000d11b0c9f74754ebdbfc544b05a2586131fc6124a5565b6040516132099190614e4a565b60405180910390a1565b60018060008373ffffffffffffffffffffffffffffffffffffffff1673ffffffffffffffffffffffffffffffffffffffff16815260200190815260200160002060006101000a81548160ff0219169083151502179055507f1b6f28dfffb89ba40ba9067329c3c0e8bd926256b970cf7d060cd48b1cd0e44e816040516132999190614e4a565b60405180910390a150565b60006132b86132b16124a5565b84846136e4565b6001905092915050565b6000804690508091505090565b6132d98282612b1a565b5050565b6000836bffffffffffffffffffffffff16836bffffffffffffffffffffffff1611158290613341576040517f08c379a00000000000000000000000000000000000000000000000000000000081526004016133389190614f6a565b60405180910390fd5b50828461334e9190615744565b90509392505050565b600061337b436040518060600160405280603a8152602001615ab2603a9139613e45565b905060008463ffffffff1611801561341957508063ffffffff16600960008773ffffffffffffffffffffffffffffffffffffffff1673ffffffffffffffffffffffffffffffffffffffff16815260200190815260200160002060006001876133e39190615710565b63ffffffff1663ffffffff16815260200190815260200160002060000160009054906101000a900463ffffffff1663ffffffff16145b156134bd5781600960008773ffffffffffffffffffffffffffffffffffffffff1673ffffffffffffffffffffffffffffffffffffffff168152602001908152602001600020600060018761346d9190615710565b63ffffffff1663ffffffff16815260200190815260200160002060000160046101000a8154816bffffffffffffffffffffffff02191690836bffffffffffffffffffffffff16021790555061360e565b60405180604001604052808263ffffffff168152602001836bffffffffffffffffffffffff16815250600960008773ffffffffffffffffffffffffffffffffffffffff1673ffffffffffffffffffffffffffffffffffffffff16815260200190815260200160002060008663ffffffff1663ffffffff16815260200190815260200160002060008201518160000160006101000a81548163ffffffff021916908363ffffffff16021790555060208201518160000160046101000a8154816bffffffffffffffffffffffff02191690836bffffffffffffffffffffffff1602179055509050506001846135b09190615464565b600a60008773ffffffffffffffffffffffffffffffffffffffff1673ffffffffffffffffffffffffffffffffffffffff16815260200190815260200160002060006101000a81548163ffffffff021916908363ffffffff1602179055505b8473ffffffffffffffffffffffffffffffffffffffff167fdec2bacdd2f05b59de34da9b523dff8be42e5e38e818c82fdb0bae774387a7248484604051613656929190615361565b60405180910390a25050505050565b6000808385613674919061549e565b9050846bffffffffffffffffffffffff16816bffffffffffffffffffffffff16101583906136d8576040517f08c379a00000000000000000000000000000000000000000000000000000000081526004016136cf9190614f6a565b60405180910390fd5b50809150509392505050565b600073ffffffffffffffffffffffffffffffffffffffff168373ffffffffffffffffffffffffffffffffffffffff161415613754576040517f08c379a000000000000000000000000000000000000000000000000000000000815260040161374b906151cc565b60405180910390fd5b600073ffffffffffffffffffffffffffffffffffffffff168273ffffffffffffffffffffffffffffffffffffffff1614156137c4576040517f08c379a00000000000000000000000000000000000000000000000000000000081526004016137bb90614fac565b60405180910390fd5b6137cf838383613c62565b6000600260008573ffffffffffffffffffffffffffffffffffffffff1673ffffffffffffffffffffffffffffffffffffffff16815260200190815260200160002054905081811015613856576040517f08c379a000000000000000000000000000000000000000000000000000000000815260040161384d9061508c565b60405180910390fd5b818103600260008673ffffffffffffffffffffffffffffffffffffffff1673ffffffffffffffffffffffffffffffffffffffff1681526020019081526020016000208190555081600260008573ffffffffffffffffffffffffffffffffffffffff1673ffffffffffffffffffffffffffffffffffffffff16815260200190815260200160002060008282546138eb919061540e565b925050819055508273ffffffffffffffffffffffffffffffffffffffff168473ffffffffffffffffffffffffffffffffffffffff167fddf252ad1be2c89b69c2b068fc378daa952ba7f163c4a11628f55a4df523b3ef8460405161394f91906152cc565b60405180910390a3613962848484613c67565b50505050565b60606000600283600261397b9190615682565b613985919061540e565b67ffffffffffffffff8111156139c4577f4e487b7100000000000000000000000000000000000000000000000000000000600052604160045260246000fd5b6040519080825280601f01601f1916602001820160405280156139f65781602001600182028036833780820191505090505b5090507f300000000000000000000000000000000000000000000000000000000000000081600081518110613a54577f4e487b7100000000000000000000000000000000000000000000000000000000600052603260045260246000fd5b60200101907effffffffffffffffffffffffffffffffffffffffffffffffffffffffffffff1916908160001a9053507f780000000000000000000000000000000000000000000000000000000000000081600181518110613ade577f4e487b7100000000000000000000000000000000000000000000000000000000600052603260045260246000fd5b60200101907effffffffffffffffffffffffffffffffffffffffffffffffffffffffffffff1916908160001a90535060006001846002613b1e9190615682565b613b28919061540e565b90505b6001811115613c14577f3031323334353637383961626364656600000000000000000000000000000000600f861660108110613b90577f4e487b7100000000000000000000000000000000000000000000000000000000600052603260045260246000fd5b1a60f81b828281518110613bcd577f4e487b7100000000000000000000000000000000000000000000000000000000600052603260045260246000fd5b60200101907effffffffffffffffffffffffffffffffffffffffffffffffffffffffffffff1916908160001a905350600485901c945080613c0d90615870565b9050613b2b565b5060008414613c58576040517f08c379a0000000000000000000000000000000000000000000000000000000008152600401613c4f90614f8c565b60405180910390fd5b8091505092915050565b505050565b505050565b600073ffffffffffffffffffffffffffffffffffffffff168273ffffffffffffffffffffffffffffffffffffffff161415613cdc576040517f08c379a0000000000000000000000000000000000000000000000000000000008152600401613cd3906151ac565b60405180910390fd5b613ce882600083613c62565b6000600260008473ffffffffffffffffffffffffffffffffffffffff1673ffffffffffffffffffffffffffffffffffffffff16815260200190815260200160002054905081811015613d6f576040517f08c379a0000000000000000000000000000000000000000000000000000000008152600401613d669061500c565b60405180910390fd5b818103600260008573ffffffffffffffffffffffffffffffffffffffff1673ffffffffffffffffffffffffffffffffffffffff168152602001908152602001600020819055508160046000828254613dc791906156dc565b92505081905550600073ffffffffffffffffffffffffffffffffffffffff168373ffffffffffffffffffffffffffffffffffffffff167fddf252ad1be2c89b69c2b068fc378daa952ba7f163c4a11628f55a4df523b3ef84604051613e2c91906152cc565b60405180910390a3613e4083600084613c67565b505050565b600064010000000083108290613e91576040517f08c379a0000000000000000000000000000000000000000000000000000000008152600401613e889190614f6a565b60405180910390fd5b5082905092915050565b6000613eae613ea9846153bb565b61538a565b90508083825260208201905082856020860282011115613ecd57600080fd5b60005b85811015613efd5781613ee38882613f07565b845260208401935060208301925050600181019050613ed0565b5050509392505050565b600081359050613f16816159f9565b92915050565b600082601f830112613f2d57600080fd5b8135613f3d848260208601613e9b565b91505092915050565b600081359050613f5581615a10565b92915050565b600081359050613f6a81615a27565b92915050565b600081359050613f7f81615a3e565b92915050565b600081359050613f9481615a55565b92915050565b600081359050613fa981615a6c565b92915050565b600060208284031215613fc157600080fd5b6000613fcf84828501613f07565b91505092915050565b60008060408385031215613feb57600080fd5b6000613ff985828601613f07565b925050602061400a85828601613f07565b9150509250929050565b60008060006060848603121561402957600080fd5b600061403786828701613f07565b935050602061404886828701613f07565b925050604061405986828701613f70565b9150509250925092565b6000806040838503121561407657600080fd5b600061408485828601613f07565b925050602061409585828601613f70565b9150509250929050565b60008060008060008060c087890312156140b857600080fd5b60006140c689828a01613f07565b96505060206140d789828a01613f70565b95505060406140e889828a01613f70565b94505060606140f989828a01613f9a565b935050608061410a89828a01613f46565b92505060a061411b89828a01613f46565b9150509295509295509295565b6000806040838503121561413b57600080fd5b600061414985828601613f07565b925050602061415a85828601613f85565b9150509250929050565b60006020828403121561417657600080fd5b600082013567ffffffffffffffff81111561419057600080fd5b61419c84828501613f1c565b91505092915050565b6000602082840312156141b757600080fd5b60006141c584828501613f46565b91505092915050565b600080604083850312156141e157600080fd5b60006141ef85828601613f46565b925050602061420085828601613f07565b9150509250929050565b60006020828403121561421c57600080fd5b600061422a84828501613f5b565b91505092915050565b60006020828403121561424557600080fd5b600061425384828501613f70565b91505092915050565b61426581615778565b82525050565b6142748161578a565b82525050565b61428381615796565b82525050565b61429a61429582615796565b615915565b82525050565b60006142ab826153e7565b6142b581856153f2565b93506142c581856020860161583d565b6142ce816159db565b840191505092915050565b60006142e4826153e7565b6142ee8185615403565b93506142fe81856020860161583d565b80840191505092915050565b60006143176020836153f2565b91507f537472696e67733a20686578206c656e67746820696e73756666696369656e746000830152602082019050919050565b60006143576023836153f2565b91507f45524332303a207472616e7366657220746f20746865207a65726f206164647260008301527f65737300000000000000000000000000000000000000000000000000000000006020830152604082019050919050565b60006143bd602c836153f2565b91507f6175646974546f6b656e3a3a64656c656761746542795369673a207369676e6160008301527f74757265206578706972656400000000000000000000000000000000000000006020830152604082019050919050565b60006144236014836153f2565b91507f5061757361626c653a206e6f74207061757365640000000000000000000000006000830152602082019050919050565b60006144636022836153f2565b91507f45524332303a206275726e20616d6f756e7420657863656564732062616c616e60008301527f63650000000000000000000000000000000000000000000000000000000000006020830152604082019050919050565b60006144c96022836153f2565b91507f45524332303a20617070726f766520746f20746865207a65726f20616464726560008301527f73730000000000000000000000000000000000000000000000000000000000006020830152604082019050919050565b600061452f600283615403565b91507f19010000000000000000000000000000000000000000000000000000000000006000830152600282019050919050565b600061456f6025836153f2565b91507f4c6f636b65642d6164644c6f636b4d756c7469706c653a204c69737420746f6f60008301527f206c6f6e670000000000000000000000000000000000000000000000000000006020830152604082019050919050565b60006145d5602c836153f2565b91507f6175646974546f6b656e3a3a64656c656761746542795369673a20696e76616c60008301527f6964207369676e617475726500000000000000000000000000000000000000006020830152604082019050919050565b600061463b6026836153f2565b91507f45524332303a207472616e7366657220616d6f756e742065786365656473206260008301527f616c616e636500000000000000000000000000000000000000000000000000006020830152604082019050919050565b60006146a1602a836153f2565b91507f4175646974546f6b656e3a696e697469616c697a65202d20416464726573732060008301527f63616e27742062652030000000000000000000000000000000000000000000006020830152604082019050919050565b60006147076029836153f2565b91507f546f6b656e3a6d696e74202d20526563697069656e742061646472657373206360008301527f616e2774206265203000000000000000000000000000000000000000000000006020830152604082019050919050565b600061476d6010836153f2565b91507f5061757361626c653a20706175736564000000000000000000000000000000006000830152602082019050919050565b60006147ad6029836153f2565b91507f4c6f636b65643a3a69734d696e746572202d2043616c6c6572206973206e6f7460008301527f2061206d696e74657200000000000000000000000000000000000000000000006020830152604082019050919050565b60006148136028836153f2565b91507f6175646974546f6b656e3a3a64656c656761746542795369673a20696e76616c60008301527f6964206e6f6e63650000000000000000000000000000000000000000000000006020830152604082019050919050565b60006148796028836153f2565b91507f45524332303a207472616e7366657220616d6f756e742065786365656473206160008301527f6c6c6f77616e63650000000000000000000000000000000000000000000000006020830152604082019050919050565b60006148df602d836153f2565b91507f6175646974546f6b656e3a3a6765745072696f72566f7465733a206e6f74207960008301527f65742064657465726d696e6564000000000000000000000000000000000000006020830152604082019050919050565b60006149456024836153f2565b91507f45524332303a206275726e20616d6f756e74206578636565647320616c6c6f7760008301527f616e6365000000000000000000000000000000000000000000000000000000006020830152604082019050919050565b60006149ab6021836153f2565b91507f45524332303a206275726e2066726f6d20746865207a65726f2061646472657360008301527f73000000000000000000000000000000000000000000000000000000000000006020830152604082019050919050565b6000614a116025836153f2565b91507f45524332303a207472616e736665722066726f6d20746865207a65726f20616460008301527f64726573730000000000000000000000000000000000000000000000000000006020830152604082019050919050565b6000614a776024836153f2565b91507f45524332303a20617070726f76652066726f6d20746865207a65726f2061646460008301527f72657373000000000000000000000000000000000000000000000000000000006020830152604082019050919050565b6000614add6024836153f2565b91507f4c6f636b65643a3a69734e6f744c6f636b6564202d2055736572206973206c6f60008301527f636b6564000000000000000000000000000000000000000000000000000000006020830152604082019050919050565b6000614b436031836153f2565b91507f4c6f636b65643a3a6973436f6e74726f6c6c6572202d2043616c6c657220697360008301527f206e6f74206120636f6e74726f6c6c65720000000000000000000000000000006020830152604082019050919050565b6000614ba9601783615403565b91507f416363657373436f6e74726f6c3a206163636f756e74200000000000000000006000830152601782019050919050565b6000614be96034836153f2565b91507f596f752061726520747279696e6720746f2073656e6420746f6b656e7320746f60008301527f207468697320746f6b656e20636f6e74726163740000000000000000000000006020830152604082019050919050565b6000614c4f6025836153f2565b91507f45524332303a2064656372656173656420616c6c6f77616e63652062656c6f7760008301527f207a65726f0000000000000000000000000000000000000000000000000000006020830152604082019050919050565b6000614cb5601183615403565b91507f206973206d697373696e6720726f6c65200000000000000000000000000000006000830152601182019050919050565b6000614cf5602f836153f2565b91507f416363657373436f6e74726f6c3a2063616e206f6e6c792072656e6f756e636560008301527f20726f6c657320666f722073656c6600000000000000000000000000000000006020830152604082019050919050565b6000614d5b601f836153f2565b91507f45524332303a206d696e7420746f20746865207a65726f2061646472657373006000830152602082019050919050565b614d97816157ec565b82525050565b614da6816157f6565b82525050565b614db581615806565b82525050565b614dc48161582b565b82525050565b614dd381615813565b82525050565b6000614de482614522565b9150614df08285614289565b602082019150614e008284614289565b6020820191508190509392505050565b6000614e1b82614b9c565b9150614e2782856142d9565b9150614e3282614ca8565b9150614e3e82846142d9565b91508190509392505050565b6000602082019050614e5f600083018461425c565b92915050565b6000602082019050614e7a600083018461426b565b92915050565b6000602082019050614e95600083018461427a565b92915050565b6000608082019050614eb0600083018761427a565b614ebd602083018661425c565b614eca6040830185614d8e565b614ed76060830184614d8e565b95945050505050565b6000608082019050614ef5600083018761427a565b614f02602083018661427a565b614f0f6040830185614d8e565b614f1c606083018461425c565b95945050505050565b6000608082019050614f3a600083018761427a565b614f476020830186614dac565b614f54604083018561427a565b614f61606083018461427a565b95945050505050565b60006020820190508181036000830152614f8481846142a0565b905092915050565b60006020820190508181036000830152614fa58161430a565b9050919050565b60006020820190508181036000830152614fc58161434a565b9050919050565b60006020820190508181036000830152614fe5816143b0565b9050919050565b6000602082019050818103600083015261500581614416565b9050919050565b6000602082019050818103600083015261502581614456565b9050919050565b60006020820190508181036000830152615045816144bc565b9050919050565b6000602082019050818103600083015261506581614562565b9050919050565b60006020820190508181036000830152615085816145c8565b9050919050565b600060208201905081810360008301526150a58161462e565b9050919050565b600060208201905081810360008301526150c581614694565b9050919050565b600060208201905081810360008301526150e5816146fa565b9050919050565b6000602082019050818103600083015261510581614760565b9050919050565b60006020820190508181036000830152615125816147a0565b9050919050565b6000602082019050818103600083015261514581614806565b9050919050565b600060208201905081810360008301526151658161486c565b9050919050565b60006020820190508181036000830152615185816148d2565b9050919050565b600060208201905081810360008301526151a581614938565b9050919050565b600060208201905081810360008301526151c58161499e565b9050919050565b600060208201905081810360008301526151e581614a04565b9050919050565b6000602082019050818103600083015261520581614a6a565b9050919050565b6000602082019050818103600083015261522581614ad0565b9050919050565b6000602082019050818103600083015261524581614b36565b9050919050565b6000602082019050818103600083015261526581614bdc565b9050919050565b6000602082019050818103600083015261528581614c42565b9050919050565b600060208201905081810360008301526152a581614ce8565b9050919050565b600060208201905081810360008301526152c581614d4e565b9050919050565b60006020820190506152e16000830184614d8e565b92915050565b60006020820190506152fc6000830184614d9d565b92915050565b60006040820190506153176000830185614d9d565b6153246020830184614dca565b9392505050565b60006020820190506153406000830184614dac565b92915050565b600060208201905061535b6000830184614dca565b92915050565b60006040820190506153766000830185614dbb565b6153836020830184614dbb565b9392505050565b6000604051905081810181811067ffffffffffffffff821117156153b1576153b06159ac565b5b8060405250919050565b600067ffffffffffffffff8211156153d6576153d56159ac565b5b602082029050602081019050919050565b600081519050919050565b600082825260208201905092915050565b600081905092915050565b6000615419826157ec565b9150615424836157ec565b9250827fffffffffffffffffffffffffffffffffffffffffffffffffffffffffffffffff038211156154595761545861591f565b5b828201905092915050565b600061546f826157f6565b915061547a836157f6565b92508263ffffffff038211156154935761549261591f565b5b828201905092915050565b60006154a982615813565b91506154b483615813565b9250826bffffffffffffffffffffffff038211156154d5576154d461591f565b5b828201905092915050565b60006154eb826157f6565b91506154f6836157f6565b9250826155065761550561594e565b5b828204905092915050565b6000808291508390505b600185111561555b578086048111156155375761553661591f565b5b60018516156155465780820291505b8081029050615554856159ec565b945061551b565b94509492505050565b600061556f826157ec565b915061557a836157ec565b92506155a77fffffffffffffffffffffffffffffffffffffffffffffffffffffffffffffffff84846155af565b905092915050565b6000826155bf576001905061567b565b816155cd576000905061567b565b81600181146155e357600281146155ed5761561c565b600191505061567b565b60ff8411156155ff576155fe61591f565b5b8360020a9150848211156156165761561561591f565b5b5061567b565b5060208310610133831016604e8410600b84101617156156515782820a90508381111561564c5761564b61591f565b5b61567b565b61565e8484846001615511565b925090508184048111156156755761567461591f565b5b81810290505b9392505050565b600061568d826157ec565b9150615698836157ec565b9250817fffffffffffffffffffffffffffffffffffffffffffffffffffffffffffffffff04831182151516156156d1576156d061591f565b5b828202905092915050565b60006156e7826157ec565b91506156f2836157ec565b9250828210156157055761570461591f565b5b828203905092915050565b600061571b826157f6565b9150615726836157f6565b9250828210156157395761573861591f565b5b828203905092915050565b600061574f82615813565b915061575a83615813565b92508282101561576d5761576c61591f565b5b828203905092915050565b6000615783826157cc565b9050919050565b60008115159050919050565b6000819050919050565b60007fffffffff0000000000000000000000000000000000000000000000000000000082169050919050565b600073ffffffffffffffffffffffffffffffffffffffff82169050919050565b6000819050919050565b600063ffffffff82169050919050565b600060ff82169050919050565b60006bffffffffffffffffffffffff82169050919050565b600061583682615813565b9050919050565b60005b8381101561585b578082015181840152602081019050615840565b8381111561586a576000848401525b50505050565b600061587b826157ec565b9150600082141561588f5761588e61591f565b5b600182039050919050565b600060028204905060018216806158b257607f821691505b602082108114156158c6576158c561597d565b5b50919050565b60006158d7826157ec565b91507fffffffffffffffffffffffffffffffffffffffffffffffffffffffffffffffff82141561590a5761590961591f565b5b600182019050919050565b6000819050919050565b7f4e487b7100000000000000000000000000000000000000000000000000000000600052601160045260246000fd5b7f4e487b7100000000000000000000000000000000000000000000000000000000600052601260045260246000fd5b7f4e487b7100000000000000000000000000000000000000000000000000000000600052602260045260246000fd5b7f4e487b7100000000000000000000000000000000000000000000000000000000600052604160045260246000fd5b6000601f19601f8301169050919050565b60008160011c9050919050565b615a0281615778565b8114615a0d57600080fd5b50565b615a1981615796565b8114615a2457600080fd5b50565b615a30816157a0565b8114615a3b57600080fd5b50565b615a47816157ec565b8114615a5257600080fd5b50565b615a5e816157f6565b8114615a6957600080fd5b50565b615a7581615806565b8114615a8057600080fd5b5056fe6175646974546f6b656e3a3a5f6d6f7665566f7465733a20766f746520616d6f756e7420756e646572666c6f77736175646974546f6b656e3a3a5f7772697465436865636b706f696e743a20626c6f636b206e756d626572206578636565647320333220626974736175646974546f6b656e3a3a5f6d6f7665566f7465733a20766f746520616d6f756e74206f766572666c6f7773a2646970667358221220531a9114e7c29f600cf41e3dfec6bac0f775ca94800fa5b995f8ce74b798e0f764736f6c63430008000033",
  "immutableReferences": {},
  "source": "// SPDX-License-Identifier: MIT\n\npragma solidity =0.8.0;\npragma experimental ABIEncoderV2;\n\nimport \"@openzeppelin/contracts/token/ERC20/extensions/ERC20Burnable.sol\";\nimport \"@openzeppelin/contracts/token/ERC20/extensions/ERC20Pausable.sol\";\nimport \"@openzeppelin/contracts/token/ERC20/ERC20.sol\";\nimport \"./Locked.sol\";\n\ncontract AuditToken is Locked, ERC20, Pausable, ERC20Burnable{\n      \n    /// @notice A record of each accounts delegate\n    mapping (address => address) public delegates;\n\n    /// @notice A checkpoint for marking number of votes from a given block\n    struct Checkpoint {\n        uint32 fromBlock;\n        uint96 votes;\n    }\n\n    /// @notice A record of votes checkpoints for each account, by index\n    mapping (address => mapping (uint32 => Checkpoint)) public checkpoints;\n\n    /// @notice The number of checkpoints for each account\n    mapping (address => uint32) public numCheckpoints;\n\n    /// @notice The EIP-712 typehash for the contract's domain\n    bytes32 public constant DOMAIN_TYPEHASH = keccak256(\"EIP712Domain(string name,uint256 chainId,address verifyingContract)\");\n\n    /// @notice The EIP-712 typehash for the delegation struct used by the contract\n    bytes32 public constant DELEGATION_TYPEHASH = keccak256(\"Delegation(address delegatee,uint256 nonce,uint256 expiry)\");\n\n    /// @notice A record of states for signing / validating signatures\n    mapping (address => uint) public nonces;\n\n    /// @notice An event thats emitted when an account changes its delegate\n    event DelegateChanged(address indexed delegator, address indexed fromDelegate, address indexed toDelegate);\n\n    /// @notice An event thats emitted when a delegate account's vote balance changes\n    event DelegateVotesChanged(address indexed delegate, uint previousBalance, uint newBalance);\n\n\n    uint8 public constant DECIMALS = 18;\n    uint256 public constant INITIAL_SUPPLY = 250000000 * (10**uint256(DECIMALS));\n    uint256 public totalMigrated;\n\n    \n\n    \n    event Migrate(address indexed from, address indexed to, uint256 value);\n\n    /// @dev Constructor that gives an account all initial tokens.\n    constructor(address account) ERC20(\"Auditchain\", \"AUDT\") {\n        require(account != address(0), \"AuditToken:constructor - Address can't be 0\");\n        _mint(account, INITIAL_SUPPLY);      \n        _setupRole(DEFAULT_ADMIN_ROLE, account);\n    }\n\n\n        /// @dev Initialize.\n    function initialize(address account) public {\n        // __ERC20_init(\"Auditchain\", \"AUDT\");\n        require(account != address(0), \"AuditToken:initialize - Address can't be 0\");\n        _setupRole(DEFAULT_ADMIN_ROLE, account);\n    }\n\n    /// @dev prevent accidental sending of tokens to this token contract\n    /// @param _self - address of this contract\n    modifier notSelf(address _self) {\n        require(\n            _self != address(this),\n            \"You are trying to send tokens to this token contract\"\n        );\n        _;\n    }\n\n    /// @notice Overwrite parent implementation to add locked verification, notSelf modifiers and call to moveDelegates\n    function transfer(address to, uint256 value)\n        public\n        override\n        isNotLocked(msg.sender, to)\n        notSelf(to)\n        returns (bool)\n    {\n        _moveDelegates(delegates[msg.sender], delegates[to], uint96(value));\n        return super.transfer(to, value);\n    }\n\n   /// @notice Overwrite parent implementation to add locked verification, notSelf modifiers and call to moveDelegates\n    function transferFrom(\n        address from,\n        address to,\n        uint256 value\n    ) public override isNotLocked(from, to) notSelf(to) returns (bool) {\n         _moveDelegates(delegates[from], delegates[to], uint96(value));\n        return super.transferFrom(from, to, value);\n    }\n\n\n    /// @dev Function to mint tokens\n    /// @param to address to which new minted tokens are sent\n    /// @param amount of tokens to send \n    /// @return A boolean that indicates if the operation was successful.\n    function mint(address to, uint256 amount) public isMinter() returns (bool) {       \n        require(to != address(0), \"Token:mint - Recipient address can't be 0\");        \n        _mint(to, amount);\n        return true;\n    }\n\n    /// @notice Overwrite parent implementation to add locked verification \n    function burn (uint256 amount) public override  isNotLocked(msg.sender, msg.sender) {\n        super.burn(amount);\n    }\n\n    /// @notice Overwrite parent implementation to add locked verification \n    function burnFrom (address user, uint256 amount) public override  isNotLocked(msg.sender, msg.sender) {\n        super.burnFrom(user, amount);\n    }\n\n     function pause() public isController()  {                  \n        super._pause();\n    }\n\n    function unpause() public  isController() {          \n        super._unpause();\n    }\n\n    \n    /**\n     * @notice Delegate votes from `msg.sender` to `delegatee`\n     * @param delegatee The address to delegate votes to\n     */\n    function delegate(address delegatee) public {\n        return _delegate(msg.sender, delegatee);\n    }\n\n    /**\n     * @notice Delegates votes from signatory to `delegatee`\n     * @param delegatee The address to delegate votes to\n     * @param nonce The contract state required to match the signature\n     * @param expiry The time at which to expire the signature\n     * @param v The recovery byte of the signature\n     * @param r Half of the ECDSA signature pair\n     * @param s Half of the ECDSA signature pair\n     */\n    function delegateBySig(address delegatee, uint nonce, uint expiry, uint8 v, bytes32 r, bytes32 s) public {\n        bytes32 domainSeparator = keccak256(abi.encode(DOMAIN_TYPEHASH, keccak256(bytes(name())), getChainId(), address(this)));\n        bytes32 structHash = keccak256(abi.encode(DELEGATION_TYPEHASH, delegatee, nonce, expiry));\n        bytes32 digest = keccak256(abi.encodePacked(\"\\x19\\x01\", domainSeparator, structHash));\n        address signatory = ecrecover(digest, v, r, s);\n        require(signatory != address(0), \"auditToken::delegateBySig: invalid signature\");\n        require(nonce == nonces[signatory]++, \"auditToken::delegateBySig: invalid nonce\");\n        require(block.timestamp <= expiry, \"auditToken::delegateBySig: signature expired\");\n        return _delegate(signatory, delegatee);\n    }\n\n    /**\n     * @notice Gets the current votes balance for `account`\n     * @param account The address to get votes balance\n     * @return The number of current votes for `account`\n     */\n    function getCurrentVotes(address account) external view returns (uint96) {\n        uint32 nCheckpoints = numCheckpoints[account];\n        return nCheckpoints > 0 ? checkpoints[account][nCheckpoints - 1].votes : 0;\n    }\n\n    /**\n     * @notice Determine the prior number of votes for an account as of a block number\n     * @dev Block number must be a finalized block or else this function will revert to prevent misinformation.\n     * @param account The address of the account to check\n     * @param blockNumber The block number to get the vote balance at\n     * @return The number of votes the account had as of the given block\n     */\n    function getPriorVotes(address account, uint blockNumber) public view returns (uint96) {\n        require(blockNumber < block.number, \"auditToken::getPriorVotes: not yet determined\");\n\n        uint32 nCheckpoints = numCheckpoints[account];\n        if (nCheckpoints == 0) {\n            return 0;\n        }\n\n        // First check most recent balance\n        if (checkpoints[account][nCheckpoints - 1].fromBlock <= blockNumber) {\n            return checkpoints[account][nCheckpoints - 1].votes;\n        }\n\n        // Next check implicit zero balance\n        if (checkpoints[account][0].fromBlock > blockNumber) {\n            return 0;\n        }\n\n        uint32 lower = 0;\n        uint32 upper = nCheckpoints - 1;\n        while (upper > lower) {\n            uint32 center = upper - (upper - lower) / 2; // ceil, avoiding overflow\n            Checkpoint memory cp = checkpoints[account][center];\n            if (cp.fromBlock == blockNumber) {\n                return cp.votes;\n            } else if (cp.fromBlock < blockNumber) {\n                lower = center;\n            } else {\n                upper = center - 1;\n            }\n        }\n        return checkpoints[account][lower].votes;\n    }\n\n    function _delegate(address delegator, address delegatee) internal {\n        address currentDelegate = delegates[delegator];\n        uint96 delegatorBalance = uint96(balanceOf(delegator));\n        delegates[delegator] = delegatee;\n\n        emit DelegateChanged(delegator, currentDelegate, delegatee);\n\n        _moveDelegates(currentDelegate, delegatee, delegatorBalance);\n    }   \n\n    function _moveDelegates(address srcRep, address dstRep, uint96 amount) internal {\n        if (srcRep != dstRep && amount > 0) {\n            if (srcRep != address(0)) {\n                uint32 srcRepNum = numCheckpoints[srcRep];\n                uint96 srcRepOld = srcRepNum > 0 ? checkpoints[srcRep][srcRepNum - 1].votes : 0;\n                uint96 srcRepNew = sub96(srcRepOld, amount, \"auditToken::_moveVotes: vote amount underflows\");\n                _writeCheckpoint(srcRep, srcRepNum, srcRepOld, srcRepNew);\n            }\n\n            if (dstRep != address(0)) {\n                uint32 dstRepNum = numCheckpoints[dstRep];\n                uint96 dstRepOld = dstRepNum > 0 ? checkpoints[dstRep][dstRepNum - 1].votes : 0;\n                uint96 dstRepNew = add96(dstRepOld, amount, \"auditToken::_moveVotes: vote amount overflows\");\n                _writeCheckpoint(dstRep, dstRepNum, dstRepOld, dstRepNew);\n            }\n        }\n    }\n\n    function _writeCheckpoint(address delegatee, uint32 nCheckpoints, uint96 oldVotes, uint96 newVotes) internal {\n      uint32 blockNumber = safe32(block.number, \"auditToken::_writeCheckpoint: block number exceeds 32 bits\");\n\n      if (nCheckpoints > 0 && checkpoints[delegatee][nCheckpoints - 1].fromBlock == blockNumber) {\n          checkpoints[delegatee][nCheckpoints - 1].votes = newVotes;\n      } else {\n          checkpoints[delegatee][nCheckpoints] = Checkpoint(blockNumber, newVotes);\n          numCheckpoints[delegatee] = nCheckpoints + 1;\n      }\n\n      emit DelegateVotesChanged(delegatee, oldVotes, newVotes);\n    }\n\n    function safe32(uint n, string memory errorMessage) internal pure returns (uint32) {\n        require(n < 2**32, errorMessage);\n        return uint32(n);\n    }\n\n    function add96(uint96 a, uint96 b, string memory errorMessage) internal pure returns (uint96) {\n        uint96 c = a + b;\n        require(c >= a, errorMessage);\n        return c;\n    }\n\n    function sub96(uint96 a, uint96 b, string memory errorMessage) internal pure returns (uint96) {\n        require(b <= a, errorMessage);\n        return a - b;\n    }\n\n    function getChainId() internal view returns (uint) {\n        uint256 chainId;\n        assembly { chainId := chainid() }\n        return chainId;\n    }\n\n    \n\n\n}",
  "sourcePath": "/home/win2win/eth/projects/AuditChain/Core-Smart-Contracts-v1/contracts/AuditToken.sol",
  "compiler": {
    "name": "solc",
    "version": "0.8.0+commit.c7dfd78e.Emscripten.clang"
  },
  "schemaVersion": "3.4.1",
  "updatedAt": "2022-03-24T12:29:20.445Z",
  "networkType": "ethereum",
  "devdoc": {
    "kind": "dev",
    "methods": {
      "addLock(address)": {
        "details": "add user to lock",
        "params": {
          "_user": "to lock"
        }
      },
      "allowance(address,address)": {
        "details": "See {IERC20-allowance}."
      },
      "approve(address,uint256)": {
        "details": "See {IERC20-approve}. Requirements: - `spender` cannot be the zero address."
      },
      "balanceOf(address)": {
        "details": "See {IERC20-balanceOf}."
      },
      "constructor": {
        "details": "Constructor that gives an account all initial tokens."
      },
      "decimals()": {
        "details": "Returns the number of decimals used to get its user representation. For example, if `decimals` equals `2`, a balance of `505` tokens should be displayed to a user as `5.05` (`505 / 10 ** 2`). Tokens usually opt for a value of 18, imitating the relationship between Ether and Wei. This is the value {ERC20} uses, unless this function is overridden; NOTE: This information is only used for _display_ purposes: it in no way affects any of the arithmetic of the contract, including {IERC20-balanceOf} and {IERC20-transfer}."
      },
      "decreaseAllowance(address,uint256)": {
        "details": "Atomically decreases the allowance granted to `spender` by the caller. This is an alternative to {approve} that can be used as a mitigation for problems described in {IERC20-approve}. Emits an {Approval} event indicating the updated allowance. Requirements: - `spender` cannot be the zero address. - `spender` must have allowance for the caller of at least `subtractedValue`."
      },
      "delegate(address)": {
        "params": {
          "delegatee": "The address to delegate votes to"
        }
      },
      "delegateBySig(address,uint256,uint256,uint8,bytes32,bytes32)": {
        "params": {
          "delegatee": "The address to delegate votes to",
          "expiry": "The time at which to expire the signature",
          "nonce": "The contract state required to match the signature",
          "r": "Half of the ECDSA signature pair",
          "s": "Half of the ECDSA signature pair",
          "v": "The recovery byte of the signature"
        }
      },
      "getCurrentVotes(address)": {
        "params": {
          "account": "The address to get votes balance"
        },
        "returns": {
          "_0": "The number of current votes for `account`"
        }
      },
      "getPriorVotes(address,uint256)": {
        "details": "Block number must be a finalized block or else this function will revert to prevent misinformation.",
        "params": {
          "account": "The address of the account to check",
          "blockNumber": "The block number to get the vote balance at"
        },
        "returns": {
          "_0": "The number of votes the account had as of the given block"
        }
      },
      "getRoleAdmin(bytes32)": {
        "details": "Returns the admin role that controls `role`. See {grantRole} and {revokeRole}. To change a role's admin, use {_setRoleAdmin}."
      },
      "grantRole(bytes32,address)": {
        "details": "Grants `role` to `account`. If `account` had not been already granted `role`, emits a {RoleGranted} event. Requirements: - the caller must have ``role``'s admin role."
      },
      "hasRole(bytes32,address)": {
        "details": "Returns `true` if `account` has been granted `role`."
      },
      "increaseAllowance(address,uint256)": {
        "details": "Atomically increases the allowance granted to `spender` by the caller. This is an alternative to {approve} that can be used as a mitigation for problems described in {IERC20-approve}. Emits an {Approval} event indicating the updated allowance. Requirements: - `spender` cannot be the zero address."
      },
      "initialize(address)": {
        "details": "Initialize."
      },
      "isLocked(address)": {
        "details": "check if user has been locked",
        "params": {
          "_user": "- usr to check"
        },
        "returns": {
          "_0": "true or false"
        }
      },
      "mint(address,uint256)": {
        "details": "Function to mint tokens",
        "params": {
          "amount": "of tokens to send ",
          "to": "address to which new minted tokens are sent"
        },
        "returns": {
          "_0": "A boolean that indicates if the operation was successful."
        }
      },
      "name()": {
        "details": "Returns the name of the token."
      },
      "paused()": {
        "details": "Returns true if the contract is paused, and false otherwise."
      },
      "removeLock(address)": {
        "details": "unlock user",
        "params": {
          "_user": "- user to unlock"
        }
      },
      "renounceRole(bytes32,address)": {
        "details": "Revokes `role` from the calling account. Roles are often managed via {grantRole} and {revokeRole}: this function's purpose is to provide a mechanism for accounts to lose their privileges if they are compromised (such as when a trusted device is misplaced). If the calling account had been revoked `role`, emits a {RoleRevoked} event. Requirements: - the caller must be `account`."
      },
      "revokeRole(bytes32,address)": {
        "details": "Revokes `role` from `account`. If `account` had been granted `role`, emits a {RoleRevoked} event. Requirements: - the caller must have ``role``'s admin role."
      },
      "supportsInterface(bytes4)": {
        "details": "See {IERC165-supportsInterface}."
      },
      "symbol()": {
        "details": "Returns the symbol of the token, usually a shorter version of the name."
      },
      "totalSupply()": {
        "details": "See {IERC20-totalSupply}."
      }
    },
    "version": 1
  },
  "userdoc": {
    "events": {
      "DelegateChanged(address,address,address)": {
        "notice": "An event thats emitted when an account changes its delegate"
      },
      "DelegateVotesChanged(address,uint256,uint256)": {
        "notice": "An event thats emitted when a delegate account's vote balance changes"
      }
    },
    "kind": "user",
    "methods": {
      "DELEGATION_TYPEHASH()": {
        "notice": "The EIP-712 typehash for the delegation struct used by the contract"
      },
      "DOMAIN_TYPEHASH()": {
        "notice": "The EIP-712 typehash for the contract's domain"
      },
      "burn(uint256)": {
        "notice": "Overwrite parent implementation to add locked verification "
      },
      "burnFrom(address,uint256)": {
        "notice": "Overwrite parent implementation to add locked verification "
      },
      "checkpoints(address,uint32)": {
        "notice": "A record of votes checkpoints for each account, by index"
      },
      "delegate(address)": {
        "notice": "Delegate votes from `msg.sender` to `delegatee`"
      },
      "delegateBySig(address,uint256,uint256,uint8,bytes32,bytes32)": {
        "notice": "Delegates votes from signatory to `delegatee`"
      },
      "delegates(address)": {
        "notice": "A record of each accounts delegate"
      },
      "getCurrentVotes(address)": {
        "notice": "Gets the current votes balance for `account`"
      },
      "getPriorVotes(address,uint256)": {
        "notice": "Determine the prior number of votes for an account as of a block number"
      },
      "nonces(address)": {
        "notice": "A record of states for signing / validating signatures"
      },
      "numCheckpoints(address)": {
        "notice": "The number of checkpoints for each account"
      },
      "transfer(address,uint256)": {
        "notice": "Overwrite parent implementation to add locked verification, notSelf modifiers and call to moveDelegates"
      },
      "transferFrom(address,address,uint256)": {
        "notice": "Overwrite parent implementation to add locked verification, notSelf modifiers and call to moveDelegates"
      }
    },
    "version": 1
  }
}