{
  "contractName": "AuditToken",
  "abi": [
    {
      "inputs": [
        {
          "internalType": "address",
          "name": "account",
          "type": "address"
        }
      ],
      "stateMutability": "nonpayable",
      "type": "constructor"
    },
    {
      "anonymous": false,
      "inputs": [
        {
          "indexed": false,
          "internalType": "address",
          "name": "user",
          "type": "address"
        }
      ],
      "name": "AddedLock",
      "type": "event"
    },
    {
      "anonymous": false,
      "inputs": [
        {
          "indexed": true,
          "internalType": "address",
          "name": "owner",
          "type": "address"
        },
        {
          "indexed": true,
          "internalType": "address",
          "name": "spender",
          "type": "address"
        },
        {
          "indexed": false,
          "internalType": "uint256",
          "name": "value",
          "type": "uint256"
        }
      ],
      "name": "Approval",
      "type": "event"
    },
    {
      "anonymous": false,
      "inputs": [
        {
          "indexed": true,
          "internalType": "address",
          "name": "delegator",
          "type": "address"
        },
        {
          "indexed": true,
          "internalType": "address",
          "name": "fromDelegate",
          "type": "address"
        },
        {
          "indexed": true,
          "internalType": "address",
          "name": "toDelegate",
          "type": "address"
        }
      ],
      "name": "DelegateChanged",
      "type": "event"
    },
    {
      "anonymous": false,
      "inputs": [
        {
          "indexed": true,
          "internalType": "address",
          "name": "delegate",
          "type": "address"
        },
        {
          "indexed": false,
          "internalType": "uint256",
          "name": "previousBalance",
          "type": "uint256"
        },
        {
          "indexed": false,
          "internalType": "uint256",
          "name": "newBalance",
          "type": "uint256"
        }
      ],
      "name": "DelegateVotesChanged",
      "type": "event"
    },
    {
      "anonymous": false,
      "inputs": [
        {
          "indexed": true,
          "internalType": "address",
          "name": "from",
          "type": "address"
        },
        {
          "indexed": true,
          "internalType": "address",
          "name": "to",
          "type": "address"
        },
        {
          "indexed": false,
          "internalType": "uint256",
          "name": "value",
          "type": "uint256"
        }
      ],
      "name": "Migrate",
      "type": "event"
    },
    {
      "anonymous": false,
      "inputs": [
        {
          "indexed": false,
          "internalType": "address",
          "name": "account",
          "type": "address"
        }
      ],
      "name": "Paused",
      "type": "event"
    },
    {
      "anonymous": false,
      "inputs": [
        {
          "indexed": false,
          "internalType": "address",
          "name": "user",
          "type": "address"
        }
      ],
      "name": "RemovedLock",
      "type": "event"
    },
    {
      "anonymous": false,
      "inputs": [
        {
          "indexed": true,
          "internalType": "bytes32",
          "name": "role",
          "type": "bytes32"
        },
        {
          "indexed": true,
          "internalType": "bytes32",
          "name": "previousAdminRole",
          "type": "bytes32"
        },
        {
          "indexed": true,
          "internalType": "bytes32",
          "name": "newAdminRole",
          "type": "bytes32"
        }
      ],
      "name": "RoleAdminChanged",
      "type": "event"
    },
    {
      "anonymous": false,
      "inputs": [
        {
          "indexed": true,
          "internalType": "bytes32",
          "name": "role",
          "type": "bytes32"
        },
        {
          "indexed": true,
          "internalType": "address",
          "name": "account",
          "type": "address"
        },
        {
          "indexed": true,
          "internalType": "address",
          "name": "sender",
          "type": "address"
        }
      ],
      "name": "RoleGranted",
      "type": "event"
    },
    {
      "anonymous": false,
      "inputs": [
        {
          "indexed": true,
          "internalType": "bytes32",
          "name": "role",
          "type": "bytes32"
        },
        {
          "indexed": true,
          "internalType": "address",
          "name": "account",
          "type": "address"
        },
        {
          "indexed": true,
          "internalType": "address",
          "name": "sender",
          "type": "address"
        }
      ],
      "name": "RoleRevoked",
      "type": "event"
    },
    {
      "anonymous": false,
      "inputs": [
        {
          "indexed": true,
          "internalType": "address",
          "name": "from",
          "type": "address"
        },
        {
          "indexed": true,
          "internalType": "address",
          "name": "to",
          "type": "address"
        },
        {
          "indexed": false,
          "internalType": "uint256",
          "name": "value",
          "type": "uint256"
        }
      ],
      "name": "Transfer",
      "type": "event"
    },
    {
      "anonymous": false,
      "inputs": [
        {
          "indexed": false,
          "internalType": "address",
          "name": "account",
          "type": "address"
        }
      ],
      "name": "Unpaused",
      "type": "event"
    },
    {
      "inputs": [],
      "name": "CONTROLLER_ROLE",
      "outputs": [
        {
          "internalType": "bytes32",
          "name": "",
          "type": "bytes32"
        }
      ],
      "stateMutability": "view",
      "type": "function",
      "constant": true
    },
    {
      "inputs": [],
      "name": "DECIMALS",
      "outputs": [
        {
          "internalType": "uint8",
          "name": "",
          "type": "uint8"
        }
      ],
      "stateMutability": "view",
      "type": "function",
      "constant": true
    },
    {
      "inputs": [],
      "name": "DEFAULT_ADMIN_ROLE",
      "outputs": [
        {
          "internalType": "bytes32",
          "name": "",
          "type": "bytes32"
        }
      ],
      "stateMutability": "view",
      "type": "function",
      "constant": true
    },
    {
      "inputs": [],
      "name": "DELEGATION_TYPEHASH",
      "outputs": [
        {
          "internalType": "bytes32",
          "name": "",
          "type": "bytes32"
        }
      ],
      "stateMutability": "view",
      "type": "function",
      "constant": true
    },
    {
      "inputs": [],
      "name": "DOMAIN_TYPEHASH",
      "outputs": [
        {
          "internalType": "bytes32",
          "name": "",
          "type": "bytes32"
        }
      ],
      "stateMutability": "view",
      "type": "function",
      "constant": true
    },
    {
      "inputs": [],
      "name": "INITIAL_SUPPLY",
      "outputs": [
        {
          "internalType": "uint256",
          "name": "",
          "type": "uint256"
        }
      ],
      "stateMutability": "view",
      "type": "function",
      "constant": true
    },
    {
      "inputs": [
        {
          "internalType": "address",
          "name": "_user",
          "type": "address"
        }
      ],
      "name": "addLock",
      "outputs": [],
      "stateMutability": "nonpayable",
      "type": "function"
    },
    {
      "inputs": [
        {
          "internalType": "address[]",
          "name": "_users",
          "type": "address[]"
        }
      ],
      "name": "addLockMultiple",
      "outputs": [],
      "stateMutability": "nonpayable",
      "type": "function"
    },
    {
      "inputs": [
        {
          "internalType": "address",
          "name": "owner",
          "type": "address"
        },
        {
          "internalType": "address",
          "name": "spender",
          "type": "address"
        }
      ],
      "name": "allowance",
      "outputs": [
        {
          "internalType": "uint256",
          "name": "",
          "type": "uint256"
        }
      ],
      "stateMutability": "view",
      "type": "function",
      "constant": true
    },
    {
      "inputs": [
        {
          "internalType": "address",
          "name": "spender",
          "type": "address"
        },
        {
          "internalType": "uint256",
          "name": "amount",
          "type": "uint256"
        }
      ],
      "name": "approve",
      "outputs": [
        {
          "internalType": "bool",
          "name": "",
          "type": "bool"
        }
      ],
      "stateMutability": "nonpayable",
      "type": "function"
    },
    {
      "inputs": [
        {
          "internalType": "address",
          "name": "account",
          "type": "address"
        }
      ],
      "name": "balanceOf",
      "outputs": [
        {
          "internalType": "uint256",
          "name": "",
          "type": "uint256"
        }
      ],
      "stateMutability": "view",
      "type": "function",
      "constant": true
    },
    {
      "inputs": [
        {
          "internalType": "address",
          "name": "",
          "type": "address"
        },
        {
          "internalType": "uint32",
          "name": "",
          "type": "uint32"
        }
      ],
      "name": "checkpoints",
      "outputs": [
        {
          "internalType": "uint32",
          "name": "fromBlock",
          "type": "uint32"
        },
        {
          "internalType": "uint96",
          "name": "votes",
          "type": "uint96"
        }
      ],
      "stateMutability": "view",
      "type": "function",
      "constant": true
    },
    {
      "inputs": [],
      "name": "decimals",
      "outputs": [
        {
          "internalType": "uint8",
          "name": "",
          "type": "uint8"
        }
      ],
      "stateMutability": "view",
      "type": "function",
      "constant": true
    },
    {
      "inputs": [
        {
          "internalType": "address",
          "name": "spender",
          "type": "address"
        },
        {
          "internalType": "uint256",
          "name": "subtractedValue",
          "type": "uint256"
        }
      ],
      "name": "decreaseAllowance",
      "outputs": [
        {
          "internalType": "bool",
          "name": "",
          "type": "bool"
        }
      ],
      "stateMutability": "nonpayable",
      "type": "function"
    },
    {
      "inputs": [
        {
          "internalType": "address",
          "name": "",
          "type": "address"
        }
      ],
      "name": "delegates",
      "outputs": [
        {
          "internalType": "address",
          "name": "",
          "type": "address"
        }
      ],
      "stateMutability": "view",
      "type": "function",
      "constant": true
    },
    {
      "inputs": [
        {
          "internalType": "bytes32",
          "name": "role",
          "type": "bytes32"
        }
      ],
      "name": "getRoleAdmin",
      "outputs": [
        {
          "internalType": "bytes32",
          "name": "",
          "type": "bytes32"
        }
      ],
      "stateMutability": "view",
      "type": "function",
      "constant": true
    },
    {
      "inputs": [
        {
          "internalType": "bytes32",
          "name": "role",
          "type": "bytes32"
        },
        {
          "internalType": "address",
          "name": "account",
          "type": "address"
        }
      ],
      "name": "grantRole",
      "outputs": [],
      "stateMutability": "nonpayable",
      "type": "function"
    },
    {
      "inputs": [
        {
          "internalType": "bytes32",
          "name": "role",
          "type": "bytes32"
        },
        {
          "internalType": "address",
          "name": "account",
          "type": "address"
        }
      ],
      "name": "hasRole",
      "outputs": [
        {
          "internalType": "bool",
          "name": "",
          "type": "bool"
        }
      ],
      "stateMutability": "view",
      "type": "function",
      "constant": true
    },
    {
      "inputs": [
        {
          "internalType": "address",
          "name": "spender",
          "type": "address"
        },
        {
          "internalType": "uint256",
          "name": "addedValue",
          "type": "uint256"
        }
      ],
      "name": "increaseAllowance",
      "outputs": [
        {
          "internalType": "bool",
          "name": "",
          "type": "bool"
        }
      ],
      "stateMutability": "nonpayable",
      "type": "function"
    },
    {
      "inputs": [
        {
          "internalType": "address",
          "name": "_user",
          "type": "address"
        }
      ],
      "name": "isLocked",
      "outputs": [
        {
          "internalType": "bool",
          "name": "",
          "type": "bool"
        }
      ],
      "stateMutability": "view",
      "type": "function",
      "constant": true
    },
    {
      "inputs": [
        {
          "internalType": "address",
          "name": "",
          "type": "address"
        }
      ],
      "name": "lockedList",
      "outputs": [
        {
          "internalType": "bool",
          "name": "",
          "type": "bool"
        }
      ],
      "stateMutability": "view",
      "type": "function",
      "constant": true
    },
    {
      "inputs": [],
      "name": "name",
      "outputs": [
        {
          "internalType": "string",
          "name": "",
          "type": "string"
        }
      ],
      "stateMutability": "view",
      "type": "function",
      "constant": true
    },
    {
      "inputs": [
        {
          "internalType": "address",
          "name": "",
          "type": "address"
        }
      ],
      "name": "nonces",
      "outputs": [
        {
          "internalType": "uint256",
          "name": "",
          "type": "uint256"
        }
      ],
      "stateMutability": "view",
      "type": "function",
      "constant": true
    },
    {
      "inputs": [
        {
          "internalType": "address",
          "name": "",
          "type": "address"
        }
      ],
      "name": "numCheckpoints",
      "outputs": [
        {
          "internalType": "uint32",
          "name": "",
          "type": "uint32"
        }
      ],
      "stateMutability": "view",
      "type": "function",
      "constant": true
    },
    {
      "inputs": [],
      "name": "paused",
      "outputs": [
        {
          "internalType": "bool",
          "name": "",
          "type": "bool"
        }
      ],
      "stateMutability": "view",
      "type": "function",
      "constant": true
    },
    {
      "inputs": [
        {
          "internalType": "address",
          "name": "_user",
          "type": "address"
        }
      ],
      "name": "removeLock",
      "outputs": [],
      "stateMutability": "nonpayable",
      "type": "function"
    },
    {
      "inputs": [
        {
          "internalType": "bytes32",
          "name": "role",
          "type": "bytes32"
        },
        {
          "internalType": "address",
          "name": "account",
          "type": "address"
        }
      ],
      "name": "renounceRole",
      "outputs": [],
      "stateMutability": "nonpayable",
      "type": "function"
    },
    {
      "inputs": [
        {
          "internalType": "bytes32",
          "name": "role",
          "type": "bytes32"
        },
        {
          "internalType": "address",
          "name": "account",
          "type": "address"
        }
      ],
      "name": "revokeRole",
      "outputs": [],
      "stateMutability": "nonpayable",
      "type": "function"
    },
    {
      "inputs": [
        {
          "internalType": "bytes4",
          "name": "interfaceId",
          "type": "bytes4"
        }
      ],
      "name": "supportsInterface",
      "outputs": [
        {
          "internalType": "bool",
          "name": "",
          "type": "bool"
        }
      ],
      "stateMutability": "view",
      "type": "function",
      "constant": true
    },
    {
      "inputs": [],
      "name": "symbol",
      "outputs": [
        {
          "internalType": "string",
          "name": "",
          "type": "string"
        }
      ],
      "stateMutability": "view",
      "type": "function",
      "constant": true
    },
    {
      "inputs": [],
      "name": "totalMigrated",
      "outputs": [
        {
          "internalType": "uint256",
          "name": "",
          "type": "uint256"
        }
      ],
      "stateMutability": "view",
      "type": "function",
      "constant": true
    },
    {
      "inputs": [],
      "name": "totalSupply",
      "outputs": [
        {
          "internalType": "uint256",
          "name": "",
          "type": "uint256"
        }
      ],
      "stateMutability": "view",
      "type": "function",
      "constant": true
    },
    {
      "inputs": [
        {
          "internalType": "address",
          "name": "to",
          "type": "address"
        },
        {
          "internalType": "uint256",
          "name": "value",
          "type": "uint256"
        }
      ],
      "name": "transfer",
      "outputs": [
        {
          "internalType": "bool",
          "name": "",
          "type": "bool"
        }
      ],
      "stateMutability": "nonpayable",
      "type": "function"
    },
    {
      "inputs": [
        {
          "internalType": "address",
          "name": "from",
          "type": "address"
        },
        {
          "internalType": "address",
          "name": "to",
          "type": "address"
        },
        {
          "internalType": "uint256",
          "name": "value",
          "type": "uint256"
        }
      ],
      "name": "transferFrom",
      "outputs": [
        {
          "internalType": "bool",
          "name": "",
          "type": "bool"
        }
      ],
      "stateMutability": "nonpayable",
      "type": "function"
    },
    {
      "inputs": [
        {
          "internalType": "address",
          "name": "to",
          "type": "address"
        },
        {
          "internalType": "uint256",
          "name": "amount",
          "type": "uint256"
        }
      ],
      "name": "mint",
      "outputs": [
        {
          "internalType": "bool",
          "name": "",
          "type": "bool"
        }
      ],
      "stateMutability": "nonpayable",
      "type": "function"
    },
    {
      "inputs": [
        {
          "internalType": "uint256",
          "name": "amount",
          "type": "uint256"
        }
      ],
      "name": "burn",
      "outputs": [],
      "stateMutability": "nonpayable",
      "type": "function"
    },
    {
      "inputs": [
        {
          "internalType": "address",
          "name": "user",
          "type": "address"
        },
        {
          "internalType": "uint256",
          "name": "amount",
          "type": "uint256"
        }
      ],
      "name": "burnFrom",
      "outputs": [],
      "stateMutability": "nonpayable",
      "type": "function"
    },
    {
      "inputs": [],
      "name": "pause",
      "outputs": [],
      "stateMutability": "nonpayable",
      "type": "function"
    },
    {
      "inputs": [],
      "name": "unpause",
      "outputs": [],
      "stateMutability": "nonpayable",
      "type": "function"
    },
    {
      "inputs": [
        {
          "internalType": "address",
          "name": "delegatee",
          "type": "address"
        }
      ],
      "name": "delegate",
      "outputs": [],
      "stateMutability": "nonpayable",
      "type": "function"
    },
    {
      "inputs": [
        {
          "internalType": "address",
          "name": "delegatee",
          "type": "address"
        },
        {
          "internalType": "uint256",
          "name": "nonce",
          "type": "uint256"
        },
        {
          "internalType": "uint256",
          "name": "expiry",
          "type": "uint256"
        },
        {
          "internalType": "uint8",
          "name": "v",
          "type": "uint8"
        },
        {
          "internalType": "bytes32",
          "name": "r",
          "type": "bytes32"
        },
        {
          "internalType": "bytes32",
          "name": "s",
          "type": "bytes32"
        }
      ],
      "name": "delegateBySig",
      "outputs": [],
      "stateMutability": "nonpayable",
      "type": "function"
    },
    {
      "inputs": [
        {
          "internalType": "address",
          "name": "account",
          "type": "address"
        }
      ],
      "name": "getCurrentVotes",
      "outputs": [
        {
          "internalType": "uint96",
          "name": "",
          "type": "uint96"
        }
      ],
      "stateMutability": "view",
      "type": "function",
      "constant": true
    },
    {
      "inputs": [
        {
          "internalType": "address",
          "name": "account",
          "type": "address"
        },
        {
          "internalType": "uint256",
          "name": "blockNumber",
          "type": "uint256"
        }
      ],
      "name": "getPriorVotes",
      "outputs": [
        {
          "internalType": "uint96",
          "name": "",
          "type": "uint96"
        }
      ],
      "stateMutability": "view",
      "type": "function",
      "constant": true
    }
  ],
  "bytecode": "0x60806040523480156200001157600080fd5b506040516200635e3803806200635e833981810160405281019062000037919062000561565b6040518060400160405280600a81526020017f4175646974636861696e000000000000000000000000000000000000000000008152506040518060400160405280600481526020017f41554454000000000000000000000000000000000000000000000000000000008152508160059080519060200190620000bb9291906200049a565b508060069080519060200190620000d49291906200049a565b5050506000600760006101000a81548160ff021916908315150217905550600073ffffffffffffffffffffffffffffffffffffffff168173ffffffffffffffffffffffffffffffffffffffff16141562000165576040517f08c379a00000000000000000000000000000000000000000000000000000000081526004016200015c9062000648565b60405180910390fd5b6200019a81601260ff16600a6200017d919062000772565b630ee6b2806200018e9190620008af565b620001b660201b60201c565b620001af6000801b826200031c60201b60201c565b5062000a09565b600073ffffffffffffffffffffffffffffffffffffffff168273ffffffffffffffffffffffffffffffffffffffff16141562000229576040517f08c379a000000000000000000000000000000000000000000000000000000000815260040162000220906200066a565b60405180910390fd5b6200023d600083836200033260201b60201c565b8060046000828254620002519190620006ba565b9250508190555080600260008473ffffffffffffffffffffffffffffffffffffffff1673ffffffffffffffffffffffffffffffffffffffff1681526020019081526020016000206000828254620002a99190620006ba565b925050819055508173ffffffffffffffffffffffffffffffffffffffff16600073ffffffffffffffffffffffffffffffffffffffff167fddf252ad1be2c89b69c2b068fc378daa952ba7f163c4a11628f55a4df523b3ef836040516200031091906200068c565b60405180910390a35050565b6200032e82826200033760201b60201c565b5050565b505050565b6200034982826200042860201b60201c565b6200042457600160008084815260200190815260200160002060000160008373ffffffffffffffffffffffffffffffffffffffff1673ffffffffffffffffffffffffffffffffffffffff16815260200190815260200160002060006101000a81548160ff021916908315150217905550620003c96200049260201b60201c565b73ffffffffffffffffffffffffffffffffffffffff168173ffffffffffffffffffffffffffffffffffffffff16837f2f8788117e7eff1d82e926ec794901d17c78024a50270940304540a733656f0d60405160405180910390a45b5050565b600080600084815260200190815260200160002060000160008373ffffffffffffffffffffffffffffffffffffffff1673ffffffffffffffffffffffffffffffffffffffff16815260200190815260200160002060009054906101000a900460ff16905092915050565b600033905090565b828054620004a8906200094e565b90600052602060002090601f016020900481019282620004cc576000855562000518565b82601f10620004e757805160ff191683800117855562000518565b8280016001018555821562000518579182015b8281111562000517578251825591602001919060010190620004fa565b5b5090506200052791906200052b565b5090565b5b80821115620005465760008160009055506001016200052c565b5090565b6000815190506200055b81620009ef565b92915050565b6000602082840312156200057457600080fd5b600062000584848285016200054a565b91505092915050565b60006200059c602b83620006a9565b91507f4175646974546f6b656e3a636f6e7374727563746f72202d204164647265737360008301527f2063616e277420626520300000000000000000000000000000000000000000006020830152604082019050919050565b600062000604601f83620006a9565b91507f45524332303a206d696e7420746f20746865207a65726f2061646472657373006000830152602082019050919050565b620006428162000944565b82525050565b6000602082019050818103600083015262000663816200058d565b9050919050565b600060208201905081810360008301526200068581620005f5565b9050919050565b6000602082019050620006a3600083018462000637565b92915050565b600082825260208201905092915050565b6000620006c78262000944565b9150620006d48362000944565b9250827fffffffffffffffffffffffffffffffffffffffffffffffffffffffffffffffff038211156200070c576200070b62000984565b5b828201905092915050565b6000808291508390505b6001851115620007695780860481111562000741576200074062000984565b5b6001851615620007515780820291505b80810290506200076185620009e2565b945062000721565b94509492505050565b60006200077f8262000944565b91506200078c8362000944565b9250620007bb7fffffffffffffffffffffffffffffffffffffffffffffffffffffffffffffffff8484620007c3565b905092915050565b600082620007d55760019050620008a8565b81620007e55760009050620008a8565b8160018114620007fe576002811462000809576200083f565b6001915050620008a8565b60ff8411156200081e576200081d62000984565b5b8360020a91508482111562000838576200083762000984565b5b50620008a8565b5060208310610133831016604e8410600b8410161715620008795782820a90508381111562000873576200087262000984565b5b620008a8565b62000888848484600162000717565b92509050818404811115620008a257620008a162000984565b5b81810290505b9392505050565b6000620008bc8262000944565b9150620008c98362000944565b9250817fffffffffffffffffffffffffffffffffffffffffffffffffffffffffffffffff048311821515161562000905576200090462000984565b5b828202905092915050565b60006200091d8262000924565b9050919050565b600073ffffffffffffffffffffffffffffffffffffffff82169050919050565b6000819050919050565b600060028204905060018216806200096757607f821691505b602082108114156200097e576200097d620009b3565b5b50919050565b7f4e487b7100000000000000000000000000000000000000000000000000000000600052601160045260246000fd5b7f4e487b7100000000000000000000000000000000000000000000000000000000600052602260045260246000fd5b60008160011c9050919050565b620009fa8162000910565b811462000a0657600080fd5b50565b6159458062000a196000396000f3fe608060405234801561001057600080fd5b50600436106102695760003560e01c80635c19a95c1161015157806395a0f5eb116100c3578063b4b5ea5711610087578063b4b5ea57146107ac578063c3cda520146107dc578063d547741f146107f8578063dd62ed3e14610814578063e7a324dc14610844578063f1127ed81461086257610269565b806395a0f5eb146106f257806395d89b4114610710578063a217fddf1461072e578063a457c2d71461074c578063a9059cbb1461077c57610269565b806379cc67901161011557806379cc6790146106345780637ecebe00146106505780638456cb5914610680578063882f327b1461068a5780638f557373146106a657806391d14854146106c257610269565b80635c19a95c1461056a5780635c975abb146105865780636fcfff45146105a457806370a08231146105d4578063782d6fe11461060457610269565b80632f2ff15d116101ea5780633f4ba83a116101ae5780633f4ba83a1461049857806340c10f19146104a257806342966c68146104d25780634a387bef146104ee5780634a4fbeec1461050a578063587cde1e1461053a57610269565b80632f2ff15d146103f45780632ff2e9dc14610410578063313ce5671461042e57806336568abe1461044c578063395093511461046857610269565b80631a921b3e116102315780631a921b3e1461032857806320606b701461035857806323b872dd14610376578063248a9ca3146103a65780632e0f2625146103d657610269565b806301ffc9a71461026e57806306fdde031461029e578063092c5b3b146102bc578063095ea7b3146102da57806318160ddd1461030a575b600080fd5b6102886004803603810190610283919061410d565b610893565b6040516102959190614c9c565b60405180910390f35b6102a661090d565b6040516102b39190614da1565b60405180910390f35b6102c461099f565b6040516102d19190614cb7565b60405180910390f35b6102f460048036038101906102ef9190613f66565b6109c3565b6040516103019190614c9c565b60405180910390f35b6103126109e1565b60405161031f91906150c3565b60405180910390f35b610342600480360381019061033d9190613eb2565b6109eb565b60405161034f9190614c9c565b60405180910390f35b610360610a0b565b60405161036d9190614cb7565b60405180910390f35b610390600480360381019061038b9190613f17565b610a2f565b60405161039d9190614c9c565b60405180910390f35b6103c060048036038101906103bb91906140a8565b610caf565b6040516103cd9190614cb7565b60405180910390f35b6103de610cce565b6040516103eb9190615122565b60405180910390f35b61040e600480360381019061040991906140d1565b610cd3565b005b610418610cfc565b60405161042591906150c3565b60405180910390f35b610436610d1f565b6040516104439190615122565b60405180910390f35b610466600480360381019061046191906140d1565b610d28565b005b610482600480360381019061047d9190613f66565b610dab565b60405161048f9190614c9c565b60405180910390f35b6104a0610e57565b005b6104bc60048036038101906104b79190613f66565b610eca565b6040516104c99190614c9c565b60405180910390f35b6104ec60048036038101906104e79190614136565b610fb9565b005b61050860048036038101906105039190613eb2565b6110f5565b005b610524600480360381019061051f9190613eb2565b61116a565b6040516105319190614c9c565b60405180910390f35b610554600480360381019061054f9190613eb2565b6111c0565b6040516105619190614c81565b60405180910390f35b610584600480360381019061057f9190613eb2565b6111f3565b005b61058e611200565b60405161059b9190614c9c565b60405180910390f35b6105be60048036038101906105b99190613eb2565b611217565b6040516105cb91906150de565b60405180910390f35b6105ee60048036038101906105e99190613eb2565b61123a565b6040516105fb91906150c3565b60405180910390f35b61061e60048036038101906106199190613f66565b611283565b60405161062b919061513d565b60405180910390f35b61064e60048036038101906106499190613f66565b6116be565b005b61066a60048036038101906106659190613eb2565b6117fc565b60405161067791906150c3565b60405180910390f35b610688611814565b005b6106a4600480360381019061069f9190613eb2565b611887565b005b6106c060048036038101906106bb9190614067565b6118fc565b005b6106dc60048036038101906106d791906140d1565b611a1c565b6040516106e99190614c9c565b60405180910390f35b6106fa611a86565b60405161070791906150c3565b60405180910390f35b610718611a8c565b6040516107259190614da1565b60405180910390f35b610736611b1e565b6040516107439190614cb7565b60405180910390f35b61076660048036038101906107619190613f66565b611b25565b6040516107739190614c9c565b60405180910390f35b61079660048036038101906107919190613f66565b611c19565b6040516107a39190614c9c565b60405180910390f35b6107c660048036038101906107c19190613eb2565b611e97565b6040516107d3919061513d565b60405180910390f35b6107f660048036038101906107f19190613fa2565b611f8e565b005b610812600480360381019061080d91906140d1565b612223565b005b61082e60048036038101906108299190613edb565b61224c565b60405161083b91906150c3565b60405180910390f35b61084c6122d3565b6040516108599190614cb7565b60405180910390f35b61087c6004803603810190610877919061402b565b6122f7565b60405161088a9291906150f9565b60405180910390f35b60007f7965db0b000000000000000000000000000000000000000000000000000000007bffffffffffffffffffffffffffffffffffffffffffffffffffffffff1916827bffffffffffffffffffffffffffffffffffffffffffffffffffffffff19161480610906575061090582612350565b5b9050919050565b60606005805461091c90615691565b80601f016020809104026020016040519081016040528092919081815260200182805461094890615691565b80156109955780601f1061096a57610100808354040283529160200191610995565b820191906000526020600020905b81548152906001019060200180831161097857829003601f168201915b5050505050905090565b7f7b765e0e932d348852a6f810bfa1ab891e259123f02db8cdcde614c57022335781565b60006109d76109d06123ba565b84846123c2565b6001905092915050565b6000600454905090565b60016020528060005260406000206000915054906101000a900460ff1681565b7f8cad95687ba82c2ce50e74f7b754645e5117c3a5bec8151c0726d5857980a86681565b60008383610a406000801b83611a1c565b610b5f57600160008373ffffffffffffffffffffffffffffffffffffffff1673ffffffffffffffffffffffffffffffffffffffff16815260200190815260200160002060009054906101000a900460ff1615610ad1576040517f08c379a0000000000000000000000000000000000000000000000000000000008152600401610ac890615003565b60405180910390fd5b600160008273ffffffffffffffffffffffffffffffffffffffff1673ffffffffffffffffffffffffffffffffffffffff16815260200190815260200160002060009054906101000a900460ff1615610b5e576040517f08c379a0000000000000000000000000000000000000000000000000000000008152600401610b5590615003565b60405180910390fd5b5b843073ffffffffffffffffffffffffffffffffffffffff168173ffffffffffffffffffffffffffffffffffffffff161415610bcf576040517f08c379a0000000000000000000000000000000000000000000000000000000008152600401610bc690615043565b60405180910390fd5b610c98600860008973ffffffffffffffffffffffffffffffffffffffff1673ffffffffffffffffffffffffffffffffffffffff16815260200190815260200160002060009054906101000a900473ffffffffffffffffffffffffffffffffffffffff16600860008973ffffffffffffffffffffffffffffffffffffffff1673ffffffffffffffffffffffffffffffffffffffff16815260200190815260200160002060009054906101000a900473ffffffffffffffffffffffffffffffffffffffff168761258d565b610ca387878761289a565b93505050509392505050565b6000806000838152602001908152602001600020600101549050919050565b601281565b610cdc82610caf565b610ced81610ce86123ba565b61299b565b610cf78383612a38565b505050565b601260ff16600a610d0d919061535b565b630ee6b280610d1c9190615479565b81565b60006012905090565b610d306123ba565b73ffffffffffffffffffffffffffffffffffffffff168173ffffffffffffffffffffffffffffffffffffffff1614610d9d576040517f08c379a0000000000000000000000000000000000000000000000000000000008152600401610d9490615083565b60405180910390fd5b610da78282612b18565b5050565b6000610e4d610db86123ba565b848460036000610dc66123ba565b73ffffffffffffffffffffffffffffffffffffffff1673ffffffffffffffffffffffffffffffffffffffff16815260200190815260200160002060008873ffffffffffffffffffffffffffffffffffffffff1673ffffffffffffffffffffffffffffffffffffffff16815260200190815260200160002054610e489190615205565b6123c2565b6001905092915050565b610e817f7b765e0e932d348852a6f810bfa1ab891e259123f02db8cdcde614c57022335733611a1c565b610ec0576040517f08c379a0000000000000000000000000000000000000000000000000000000008152600401610eb790615023565b60405180910390fd5b610ec8612bf9565b565b6000610ef67f7b765e0e932d348852a6f810bfa1ab891e259123f02db8cdcde614c57022335733611a1c565b610f35576040517f08c379a0000000000000000000000000000000000000000000000000000000008152600401610f2c90615023565b60405180910390fd5b600073ffffffffffffffffffffffffffffffffffffffff168373ffffffffffffffffffffffffffffffffffffffff161415610fa5576040517f08c379a0000000000000000000000000000000000000000000000000000000008152600401610f9c90614ee3565b60405180910390fd5b610faf8383612c9b565b6001905092915050565b3333610fc86000801b83611a1c565b6110e757600160008373ffffffffffffffffffffffffffffffffffffffff1673ffffffffffffffffffffffffffffffffffffffff16815260200190815260200160002060009054906101000a900460ff1615611059576040517f08c379a000000000000000000000000000000000000000000000000000000000815260040161105090615003565b60405180910390fd5b600160008273ffffffffffffffffffffffffffffffffffffffff1673ffffffffffffffffffffffffffffffffffffffff16815260200190815260200160002060009054906101000a900460ff16156110e6576040517f08c379a00000000000000000000000000000000000000000000000000000000081526004016110dd90615003565b60405180910390fd5b5b6110f083612df0565b505050565b61111f7f7b765e0e932d348852a6f810bfa1ab891e259123f02db8cdcde614c57022335733611a1c565b61115e576040517f08c379a000000000000000000000000000000000000000000000000000000000815260040161115590615023565b60405180910390fd5b61116781612e04565b50565b6000600160008373ffffffffffffffffffffffffffffffffffffffff1673ffffffffffffffffffffffffffffffffffffffff16815260200190815260200160002060009054906101000a900460ff169050919050565b60086020528060005260406000206000915054906101000a900473ffffffffffffffffffffffffffffffffffffffff1681565b6111fd3382612e96565b50565b6000600760009054906101000a900460ff16905090565b600a6020528060005260406000206000915054906101000a900463ffffffff1681565b6000600260008373ffffffffffffffffffffffffffffffffffffffff1673ffffffffffffffffffffffffffffffffffffffff168152602001908152602001600020549050919050565b60004382106112c7576040517f08c379a00000000000000000000000000000000000000000000000000000000081526004016112be90614f63565b60405180910390fd5b6000600a60008573ffffffffffffffffffffffffffffffffffffffff1673ffffffffffffffffffffffffffffffffffffffff16815260200190815260200160002060009054906101000a900463ffffffff16905060008163ffffffff1614156113345760009150506116b8565b82600960008673ffffffffffffffffffffffffffffffffffffffff1673ffffffffffffffffffffffffffffffffffffffff16815260200190815260200160002060006001846113839190615507565b63ffffffff1663ffffffff16815260200190815260200160002060000160009054906101000a900463ffffffff1663ffffffff161161144857600960008573ffffffffffffffffffffffffffffffffffffffff1673ffffffffffffffffffffffffffffffffffffffff168152602001908152602001600020600060018361140a9190615507565b63ffffffff1663ffffffff16815260200190815260200160002060000160049054906101000a90046bffffffffffffffffffffffff169150506116b8565b82600960008673ffffffffffffffffffffffffffffffffffffffff1673ffffffffffffffffffffffffffffffffffffffff16815260200190815260200160002060008063ffffffff16815260200190815260200160002060000160009054906101000a900463ffffffff1663ffffffff1611156114c95760009150506116b8565b6000806001836114d99190615507565b90505b8163ffffffff168163ffffffff16111561163a576000600283836115009190615507565b61150a91906152d7565b826115159190615507565b90506000600960008973ffffffffffffffffffffffffffffffffffffffff1673ffffffffffffffffffffffffffffffffffffffff16815260200190815260200160002060008363ffffffff1663ffffffff1681526020019081526020016000206040518060400160405290816000820160009054906101000a900463ffffffff1663ffffffff1663ffffffff1681526020016000820160049054906101000a90046bffffffffffffffffffffffff166bffffffffffffffffffffffff166bffffffffffffffffffffffff1681525050905086816000015163ffffffff161415611609578060200151955050505050506116b8565b86816000015163ffffffff16101561162357819350611633565b6001826116309190615507565b92505b50506114dc565b600960008773ffffffffffffffffffffffffffffffffffffffff1673ffffffffffffffffffffffffffffffffffffffff16815260200190815260200160002060008363ffffffff1663ffffffff16815260200190815260200160002060000160049054906101000a90046bffffffffffffffffffffffff1693505050505b92915050565b33336116cd6000801b83611a1c565b6117ec57600160008373ffffffffffffffffffffffffffffffffffffffff1673ffffffffffffffffffffffffffffffffffffffff16815260200190815260200160002060009054906101000a900460ff161561175e576040517f08c379a000000000000000000000000000000000000000000000000000000000815260040161175590615003565b60405180910390fd5b600160008273ffffffffffffffffffffffffffffffffffffffff1673ffffffffffffffffffffffffffffffffffffffff16815260200190815260200160002060009054906101000a900460ff16156117eb576040517f08c379a00000000000000000000000000000000000000000000000000000000081526004016117e290615003565b60405180910390fd5b5b6117f68484613007565b50505050565b600b6020528060005260406000206000915090505481565b61183e7f7b765e0e932d348852a6f810bfa1ab891e259123f02db8cdcde614c57022335733611a1c565b61187d576040517f08c379a000000000000000000000000000000000000000000000000000000000815260040161187490615023565b60405180910390fd5b61188561308b565b565b6118b17f7b765e0e932d348852a6f810bfa1ab891e259123f02db8cdcde614c57022335733611a1c565b6118f0576040517f08c379a00000000000000000000000000000000000000000000000000000000081526004016118e790615023565b60405180910390fd5b6118f98161312e565b50565b6119267f7b765e0e932d348852a6f810bfa1ab891e259123f02db8cdcde614c57022335733611a1c565b611965576040517f08c379a000000000000000000000000000000000000000000000000000000000815260040161195c90615023565b60405180910390fd5b6000815190506101008111156119b0576040517f08c379a00000000000000000000000000000000000000000000000000000000081526004016119a790614e83565b60405180910390fd5b60005b81811015611a1757611a048382815181106119f7577f4e487b7100000000000000000000000000000000000000000000000000000000600052603260045260246000fd5b602002602001015161312e565b8080611a0f906156c3565b9150506119b3565b505050565b600080600084815260200190815260200160002060000160008373ffffffffffffffffffffffffffffffffffffffff1673ffffffffffffffffffffffffffffffffffffffff16815260200190815260200160002060009054906101000a900460ff16905092915050565b600c5481565b606060068054611a9b90615691565b80601f0160208091040260200160405190810160405280929190818152602001828054611ac790615691565b8015611b145780601f10611ae957610100808354040283529160200191611b14565b820191906000526020600020905b815481529060010190602001808311611af757829003601f168201915b5050505050905090565b6000801b81565b60008060036000611b346123ba565b73ffffffffffffffffffffffffffffffffffffffff1673ffffffffffffffffffffffffffffffffffffffff16815260200190815260200160002060008573ffffffffffffffffffffffffffffffffffffffff1673ffffffffffffffffffffffffffffffffffffffff16815260200190815260200160002054905082811015611bf1576040517f08c379a0000000000000000000000000000000000000000000000000000000008152600401611be890615063565b60405180910390fd5b611c0e611bfc6123ba565b858584611c0991906154d3565b6123c2565b600191505092915050565b60003383611c2a6000801b83611a1c565b611d4957600160008373ffffffffffffffffffffffffffffffffffffffff1673ffffffffffffffffffffffffffffffffffffffff16815260200190815260200160002060009054906101000a900460ff1615611cbb576040517f08c379a0000000000000000000000000000000000000000000000000000000008152600401611cb290615003565b60405180910390fd5b600160008273ffffffffffffffffffffffffffffffffffffffff1673ffffffffffffffffffffffffffffffffffffffff16815260200190815260200160002060009054906101000a900460ff1615611d48576040517f08c379a0000000000000000000000000000000000000000000000000000000008152600401611d3f90615003565b60405180910390fd5b5b843073ffffffffffffffffffffffffffffffffffffffff168173ffffffffffffffffffffffffffffffffffffffff161415611db9576040517f08c379a0000000000000000000000000000000000000000000000000000000008152600401611db090615043565b60405180910390fd5b611e82600860003373ffffffffffffffffffffffffffffffffffffffff1673ffffffffffffffffffffffffffffffffffffffff16815260200190815260200160002060009054906101000a900473ffffffffffffffffffffffffffffffffffffffff16600860008973ffffffffffffffffffffffffffffffffffffffff1673ffffffffffffffffffffffffffffffffffffffff16815260200190815260200160002060009054906101000a900473ffffffffffffffffffffffffffffffffffffffff168761258d565b611e8c86866131bf565b935050505092915050565b600080600a60008473ffffffffffffffffffffffffffffffffffffffff1673ffffffffffffffffffffffffffffffffffffffff16815260200190815260200160002060009054906101000a900463ffffffff16905060008163ffffffff1611611f01576000611f86565b600960008473ffffffffffffffffffffffffffffffffffffffff1673ffffffffffffffffffffffffffffffffffffffff1681526020019081526020016000206000600183611f4f9190615507565b63ffffffff1663ffffffff16815260200190815260200160002060000160049054906101000a90046bffffffffffffffffffffffff165b915050919050565b60007f8cad95687ba82c2ce50e74f7b754645e5117c3a5bec8151c0726d5857980a866611fb961090d565b80519060200120611fc86131dd565b30604051602001611fdc9493929190614d17565b60405160208183030381529060405280519060200120905060007fe48329057bfd03d55e49b547132e39cffd9c1820ad7b9d4c5307691425d15adf88888860405160200161202d9493929190614cd2565b6040516020818303038152906040528051906020012090506000828260405160200161205a929190614c10565b6040516020818303038152906040528051906020012090506000600182888888604051600081526020016040526040516120979493929190614d5c565b6020604051602081039080840390855afa1580156120b9573d6000803e3d6000fd5b505050602060405103519050600073ffffffffffffffffffffffffffffffffffffffff168173ffffffffffffffffffffffffffffffffffffffff161415612135576040517f08c379a000000000000000000000000000000000000000000000000000000000815260040161212c90614ea3565b60405180910390fd5b600b60008273ffffffffffffffffffffffffffffffffffffffff1673ffffffffffffffffffffffffffffffffffffffff1681526020019081526020016000206000815480929190612185906156c3565b9190505589146121ca576040517f08c379a00000000000000000000000000000000000000000000000000000000081526004016121c190614f23565b60405180910390fd5b8742111561220d576040517f08c379a000000000000000000000000000000000000000000000000000000000815260040161220490614e03565b60405180910390fd5b612217818b612e96565b50505050505050505050565b61222c82610caf565b61223d816122386123ba565b61299b565b6122478383612b18565b505050565b6000600360008473ffffffffffffffffffffffffffffffffffffffff1673ffffffffffffffffffffffffffffffffffffffff16815260200190815260200160002060008373ffffffffffffffffffffffffffffffffffffffff1673ffffffffffffffffffffffffffffffffffffffff16815260200190815260200160002054905092915050565b7fe48329057bfd03d55e49b547132e39cffd9c1820ad7b9d4c5307691425d15adf81565b6009602052816000526040600020602052806000526040600020600091509150508060000160009054906101000a900463ffffffff16908060000160049054906101000a90046bffffffffffffffffffffffff16905082565b60007f01ffc9a7000000000000000000000000000000000000000000000000000000007bffffffffffffffffffffffffffffffffffffffffffffffffffffffff1916827bffffffffffffffffffffffffffffffffffffffffffffffffffffffff1916149050919050565b600033905090565b600073ffffffffffffffffffffffffffffffffffffffff168373ffffffffffffffffffffffffffffffffffffffff161415612432576040517f08c379a000000000000000000000000000000000000000000000000000000000815260040161242990614fe3565b60405180910390fd5b600073ffffffffffffffffffffffffffffffffffffffff168273ffffffffffffffffffffffffffffffffffffffff1614156124a2576040517f08c379a000000000000000000000000000000000000000000000000000000000815260040161249990614e63565b60405180910390fd5b80600360008573ffffffffffffffffffffffffffffffffffffffff1673ffffffffffffffffffffffffffffffffffffffff16815260200190815260200160002060008473ffffffffffffffffffffffffffffffffffffffff1673ffffffffffffffffffffffffffffffffffffffff168152602001908152602001600020819055508173ffffffffffffffffffffffffffffffffffffffff168373ffffffffffffffffffffffffffffffffffffffff167f8c5be1e5ebec7d5bd14f71427d1e84f3dd0314c0f7b2291e5b200ac8c7c3b9258360405161258091906150c3565b60405180910390a3505050565b8173ffffffffffffffffffffffffffffffffffffffff168373ffffffffffffffffffffffffffffffffffffffff16141580156125d757506000816bffffffffffffffffffffffff16115b1561289557600073ffffffffffffffffffffffffffffffffffffffff168373ffffffffffffffffffffffffffffffffffffffff1614612738576000600a60008573ffffffffffffffffffffffffffffffffffffffff1673ffffffffffffffffffffffffffffffffffffffff16815260200190815260200160002060009054906101000a900463ffffffff1690506000808263ffffffff161161267a5760006126ff565b600960008673ffffffffffffffffffffffffffffffffffffffff1673ffffffffffffffffffffffffffffffffffffffff16815260200190815260200160002060006001846126c89190615507565b63ffffffff1663ffffffff16815260200190815260200160002060000160049054906101000a90046bffffffffffffffffffffffff165b9050600061272682856040518060600160405280602e815260200161587b602e91396131ea565b905061273486848484613264565b5050505b600073ffffffffffffffffffffffffffffffffffffffff168273ffffffffffffffffffffffffffffffffffffffff1614612894576000600a60008473ffffffffffffffffffffffffffffffffffffffff1673ffffffffffffffffffffffffffffffffffffffff16815260200190815260200160002060009054906101000a900463ffffffff1690506000808263ffffffff16116127d657600061285b565b600960008573ffffffffffffffffffffffffffffffffffffffff1673ffffffffffffffffffffffffffffffffffffffff16815260200190815260200160002060006001846128249190615507565b63ffffffff1663ffffffff16815260200190815260200160002060000160049054906101000a90046bffffffffffffffffffffffff165b9050600061288282856040518060600160405280602d81526020016158e3602d9139613572565b905061289085848484613264565b5050505b5b505050565b60006128a78484846135f1565b6000600360008673ffffffffffffffffffffffffffffffffffffffff1673ffffffffffffffffffffffffffffffffffffffff16815260200190815260200160002060006128f26123ba565b73ffffffffffffffffffffffffffffffffffffffff1673ffffffffffffffffffffffffffffffffffffffff16815260200190815260200160002054905082811015612972576040517f08c379a000000000000000000000000000000000000000000000000000000000815260040161296990614f43565b60405180910390fd5b61298f8561297e6123ba565b858461298a91906154d3565b6123c2565b60019150509392505050565b6129a58282611a1c565b612a34576129ca8173ffffffffffffffffffffffffffffffffffffffff166014613873565b6129d88360001c6020613873565b6040516020016129e9929190614c47565b6040516020818303038152906040526040517f08c379a0000000000000000000000000000000000000000000000000000000008152600401612a2b9190614da1565b60405180910390fd5b5050565b612a428282611a1c565b612b1457600160008084815260200190815260200160002060000160008373ffffffffffffffffffffffffffffffffffffffff1673ffffffffffffffffffffffffffffffffffffffff16815260200190815260200160002060006101000a81548160ff021916908315150217905550612ab96123ba565b73ffffffffffffffffffffffffffffffffffffffff168173ffffffffffffffffffffffffffffffffffffffff16837f2f8788117e7eff1d82e926ec794901d17c78024a50270940304540a733656f0d60405160405180910390a45b5050565b612b228282611a1c565b15612bf557600080600084815260200190815260200160002060000160008373ffffffffffffffffffffffffffffffffffffffff1673ffffffffffffffffffffffffffffffffffffffff16815260200190815260200160002060006101000a81548160ff021916908315150217905550612b9a6123ba565b73ffffffffffffffffffffffffffffffffffffffff168173ffffffffffffffffffffffffffffffffffffffff16837ff6391f5c32d9c69d2a47ea670b442974b53935d1edc7fd64eb21e047a839171b60405160405180910390a45b5050565b612c01611200565b612c40576040517f08c379a0000000000000000000000000000000000000000000000000000000008152600401612c3790614e23565b60405180910390fd5b6000600760006101000a81548160ff0219169083151502179055507f5db9ee0a495bf2e6ff9c91a7834c1ba4fdd244a5e8aa4e537bd38aeae4b073aa612c846123ba565b604051612c919190614c81565b60405180910390a1565b600073ffffffffffffffffffffffffffffffffffffffff168273ffffffffffffffffffffffffffffffffffffffff161415612d0b576040517f08c379a0000000000000000000000000000000000000000000000000000000008152600401612d02906150a3565b60405180910390fd5b612d1760008383613b6d565b8060046000828254612d299190615205565b9250508190555080600260008473ffffffffffffffffffffffffffffffffffffffff1673ffffffffffffffffffffffffffffffffffffffff1681526020019081526020016000206000828254612d7f9190615205565b925050819055508173ffffffffffffffffffffffffffffffffffffffff16600073ffffffffffffffffffffffffffffffffffffffff167fddf252ad1be2c89b69c2b068fc378daa952ba7f163c4a11628f55a4df523b3ef83604051612de491906150c3565b60405180910390a35050565b612e01612dfb6123ba565b82613b72565b50565b6000600160008373ffffffffffffffffffffffffffffffffffffffff1673ffffffffffffffffffffffffffffffffffffffff16815260200190815260200160002060006101000a81548160ff0219169083151502179055507f6134e30ca79f58d7566528b3768c7d33c9c30815c63cfeae3b69f52cf31dd61a81604051612e8b9190614c81565b60405180910390a150565b6000600860008473ffffffffffffffffffffffffffffffffffffffff1673ffffffffffffffffffffffffffffffffffffffff16815260200190815260200160002060009054906101000a900473ffffffffffffffffffffffffffffffffffffffff1690506000612f058461123a565b905082600860008673ffffffffffffffffffffffffffffffffffffffff1673ffffffffffffffffffffffffffffffffffffffff16815260200190815260200160002060006101000a81548173ffffffffffffffffffffffffffffffffffffffff021916908373ffffffffffffffffffffffffffffffffffffffff1602179055508273ffffffffffffffffffffffffffffffffffffffff168273ffffffffffffffffffffffffffffffffffffffff168573ffffffffffffffffffffffffffffffffffffffff167f3134e8a2e6d97e929a7e54011ea5485d7d196dd5f0ba4d4ef95803e8e3fc257f60405160405180910390a461300182848361258d565b50505050565b600061301a836130156123ba565b61224c565b90508181101561305f576040517f08c379a000000000000000000000000000000000000000000000000000000000815260040161305690614f83565b60405180910390fd5b61307c8361306b6123ba565b848461307791906154d3565b6123c2565b6130868383613b72565b505050565b613093611200565b156130d3576040517f08c379a00000000000000000000000000000000000000000000000000000000081526004016130ca90614f03565b60405180910390fd5b6001600760006101000a81548160ff0219169083151502179055507f62e78cea01bee320cd4e420270b5ea74000d11b0c9f74754ebdbfc544b05a2586131176123ba565b6040516131249190614c81565b60405180910390a1565b60018060008373ffffffffffffffffffffffffffffffffffffffff1673ffffffffffffffffffffffffffffffffffffffff16815260200190815260200160002060006101000a81548160ff0219169083151502179055507f1b6f28dfffb89ba40ba9067329c3c0e8bd926256b970cf7d060cd48b1cd0e44e816040516131b49190614c81565b60405180910390a150565b60006131d36131cc6123ba565b84846135f1565b6001905092915050565b6000804690508091505090565b6000836bffffffffffffffffffffffff16836bffffffffffffffffffffffff161115829061324e576040517f08c379a00000000000000000000000000000000000000000000000000000000081526004016132459190614da1565b60405180910390fd5b50828461325b919061553b565b90509392505050565b6000613288436040518060600160405280603a81526020016158a9603a9139613d48565b905060008463ffffffff1611801561332657508063ffffffff16600960008773ffffffffffffffffffffffffffffffffffffffff1673ffffffffffffffffffffffffffffffffffffffff16815260200190815260200160002060006001876132f09190615507565b63ffffffff1663ffffffff16815260200190815260200160002060000160009054906101000a900463ffffffff1663ffffffff16145b156133ca5781600960008773ffffffffffffffffffffffffffffffffffffffff1673ffffffffffffffffffffffffffffffffffffffff168152602001908152602001600020600060018761337a9190615507565b63ffffffff1663ffffffff16815260200190815260200160002060000160046101000a8154816bffffffffffffffffffffffff02191690836bffffffffffffffffffffffff16021790555061351b565b60405180604001604052808263ffffffff168152602001836bffffffffffffffffffffffff16815250600960008773ffffffffffffffffffffffffffffffffffffffff1673ffffffffffffffffffffffffffffffffffffffff16815260200190815260200160002060008663ffffffff1663ffffffff16815260200190815260200160002060008201518160000160006101000a81548163ffffffff021916908363ffffffff16021790555060208201518160000160046101000a8154816bffffffffffffffffffffffff02191690836bffffffffffffffffffffffff1602179055509050506001846134bd919061525b565b600a60008773ffffffffffffffffffffffffffffffffffffffff1673ffffffffffffffffffffffffffffffffffffffff16815260200190815260200160002060006101000a81548163ffffffff021916908363ffffffff1602179055505b8473ffffffffffffffffffffffffffffffffffffffff167fdec2bacdd2f05b59de34da9b523dff8be42e5e38e818c82fdb0bae774387a7248484604051613563929190615158565b60405180910390a25050505050565b60008083856135819190615295565b9050846bffffffffffffffffffffffff16816bffffffffffffffffffffffff16101583906135e5576040517f08c379a00000000000000000000000000000000000000000000000000000000081526004016135dc9190614da1565b60405180910390fd5b50809150509392505050565b600073ffffffffffffffffffffffffffffffffffffffff168373ffffffffffffffffffffffffffffffffffffffff161415613661576040517f08c379a000000000000000000000000000000000000000000000000000000000815260040161365890614fc3565b60405180910390fd5b600073ffffffffffffffffffffffffffffffffffffffff168273ffffffffffffffffffffffffffffffffffffffff1614156136d1576040517f08c379a00000000000000000000000000000000000000000000000000000000081526004016136c890614de3565b60405180910390fd5b6136dc838383613b6d565b6000600260008573ffffffffffffffffffffffffffffffffffffffff1673ffffffffffffffffffffffffffffffffffffffff16815260200190815260200160002054905081811015613763576040517f08c379a000000000000000000000000000000000000000000000000000000000815260040161375a90614ec3565b60405180910390fd5b818161376f91906154d3565b600260008673ffffffffffffffffffffffffffffffffffffffff1673ffffffffffffffffffffffffffffffffffffffff1681526020019081526020016000208190555081600260008573ffffffffffffffffffffffffffffffffffffffff1673ffffffffffffffffffffffffffffffffffffffff16815260200190815260200160002060008282546138019190615205565b925050819055508273ffffffffffffffffffffffffffffffffffffffff168473ffffffffffffffffffffffffffffffffffffffff167fddf252ad1be2c89b69c2b068fc378daa952ba7f163c4a11628f55a4df523b3ef8460405161386591906150c3565b60405180910390a350505050565b6060600060028360026138869190615479565b6138909190615205565b67ffffffffffffffff8111156138cf577f4e487b7100000000000000000000000000000000000000000000000000000000600052604160045260246000fd5b6040519080825280601f01601f1916602001820160405280156139015781602001600182028036833780820191505090505b5090507f30000000000000000000000000000000000000000000000000000000000000008160008151811061395f577f4e487b7100000000000000000000000000000000000000000000000000000000600052603260045260246000fd5b60200101907effffffffffffffffffffffffffffffffffffffffffffffffffffffffffffff1916908160001a9053507f7800000000000000000000000000000000000000000000000000000000000000816001815181106139e9577f4e487b7100000000000000000000000000000000000000000000000000000000600052603260045260246000fd5b60200101907effffffffffffffffffffffffffffffffffffffffffffffffffffffffffffff1916908160001a90535060006001846002613a299190615479565b613a339190615205565b90505b6001811115613b1f577f3031323334353637383961626364656600000000000000000000000000000000600f861660108110613a9b577f4e487b7100000000000000000000000000000000000000000000000000000000600052603260045260246000fd5b1a60f81b828281518110613ad8577f4e487b7100000000000000000000000000000000000000000000000000000000600052603260045260246000fd5b60200101907effffffffffffffffffffffffffffffffffffffffffffffffffffffffffffff1916908160001a905350600485901c945080613b1890615667565b9050613a36565b5060008414613b63576040517f08c379a0000000000000000000000000000000000000000000000000000000008152600401613b5a90614dc3565b60405180910390fd5b8091505092915050565b505050565b600073ffffffffffffffffffffffffffffffffffffffff168273ffffffffffffffffffffffffffffffffffffffff161415613be2576040517f08c379a0000000000000000000000000000000000000000000000000000000008152600401613bd990614fa3565b60405180910390fd5b613bee82600083613b6d565b6000600260008473ffffffffffffffffffffffffffffffffffffffff1673ffffffffffffffffffffffffffffffffffffffff16815260200190815260200160002054905081811015613c75576040517f08c379a0000000000000000000000000000000000000000000000000000000008152600401613c6c90614e43565b60405180910390fd5b8181613c8191906154d3565b600260008573ffffffffffffffffffffffffffffffffffffffff1673ffffffffffffffffffffffffffffffffffffffff168152602001908152602001600020819055508160046000828254613cd691906154d3565b92505081905550600073ffffffffffffffffffffffffffffffffffffffff168373ffffffffffffffffffffffffffffffffffffffff167fddf252ad1be2c89b69c2b068fc378daa952ba7f163c4a11628f55a4df523b3ef84604051613d3b91906150c3565b60405180910390a3505050565b600064010000000083108290613d94576040517f08c379a0000000000000000000000000000000000000000000000000000000008152600401613d8b9190614da1565b60405180910390fd5b5082905092915050565b6000613db1613dac846151b2565b615181565b90508083825260208201905082856020860282011115613dd057600080fd5b60005b85811015613e005781613de68882613e0a565b845260208401935060208301925050600181019050613dd3565b5050509392505050565b600081359050613e19816157f0565b92915050565b600082601f830112613e3057600080fd5b8135613e40848260208601613d9e565b91505092915050565b600081359050613e5881615807565b92915050565b600081359050613e6d8161581e565b92915050565b600081359050613e8281615835565b92915050565b600081359050613e978161584c565b92915050565b600081359050613eac81615863565b92915050565b600060208284031215613ec457600080fd5b6000613ed284828501613e0a565b91505092915050565b60008060408385031215613eee57600080fd5b6000613efc85828601613e0a565b9250506020613f0d85828601613e0a565b9150509250929050565b600080600060608486031215613f2c57600080fd5b6000613f3a86828701613e0a565b9350506020613f4b86828701613e0a565b9250506040613f5c86828701613e73565b9150509250925092565b60008060408385031215613f7957600080fd5b6000613f8785828601613e0a565b9250506020613f9885828601613e73565b9150509250929050565b60008060008060008060c08789031215613fbb57600080fd5b6000613fc989828a01613e0a565b9650506020613fda89828a01613e73565b9550506040613feb89828a01613e73565b9450506060613ffc89828a01613e9d565b935050608061400d89828a01613e49565b92505060a061401e89828a01613e49565b9150509295509295509295565b6000806040838503121561403e57600080fd5b600061404c85828601613e0a565b925050602061405d85828601613e88565b9150509250929050565b60006020828403121561407957600080fd5b600082013567ffffffffffffffff81111561409357600080fd5b61409f84828501613e1f565b91505092915050565b6000602082840312156140ba57600080fd5b60006140c884828501613e49565b91505092915050565b600080604083850312156140e457600080fd5b60006140f285828601613e49565b925050602061410385828601613e0a565b9150509250929050565b60006020828403121561411f57600080fd5b600061412d84828501613e5e565b91505092915050565b60006020828403121561414857600080fd5b600061415684828501613e73565b91505092915050565b6141688161556f565b82525050565b61417781615581565b82525050565b6141868161558d565b82525050565b61419d6141988261558d565b61570c565b82525050565b60006141ae826151de565b6141b881856151e9565b93506141c8818560208601615634565b6141d1816157d2565b840191505092915050565b60006141e7826151de565b6141f181856151fa565b9350614201818560208601615634565b80840191505092915050565b600061421a6020836151e9565b91507f537472696e67733a20686578206c656e67746820696e73756666696369656e746000830152602082019050919050565b600061425a6023836151e9565b91507f45524332303a207472616e7366657220746f20746865207a65726f206164647260008301527f65737300000000000000000000000000000000000000000000000000000000006020830152604082019050919050565b60006142c0602c836151e9565b91507f6175646974546f6b656e3a3a64656c656761746542795369673a207369676e6160008301527f74757265206578706972656400000000000000000000000000000000000000006020830152604082019050919050565b60006143266014836151e9565b91507f5061757361626c653a206e6f74207061757365640000000000000000000000006000830152602082019050919050565b60006143666022836151e9565b91507f45524332303a206275726e20616d6f756e7420657863656564732062616c616e60008301527f63650000000000000000000000000000000000000000000000000000000000006020830152604082019050919050565b60006143cc6022836151e9565b91507f45524332303a20617070726f766520746f20746865207a65726f20616464726560008301527f73730000000000000000000000000000000000000000000000000000000000006020830152604082019050919050565b60006144326002836151fa565b91507f19010000000000000000000000000000000000000000000000000000000000006000830152600282019050919050565b60006144726025836151e9565b91507f4c6f636b65642d6164644c6f636b4d756c7469706c653a204c69737420746f6f60008301527f206c6f6e670000000000000000000000000000000000000000000000000000006020830152604082019050919050565b60006144d8602c836151e9565b91507f6175646974546f6b656e3a3a64656c656761746542795369673a20696e76616c60008301527f6964207369676e617475726500000000000000000000000000000000000000006020830152604082019050919050565b600061453e6026836151e9565b91507f45524332303a207472616e7366657220616d6f756e742065786365656473206260008301527f616c616e636500000000000000000000000000000000000000000000000000006020830152604082019050919050565b60006145a46029836151e9565b91507f546f6b656e3a6d696e74202d20526563697069656e742061646472657373206360008301527f616e2774206265203000000000000000000000000000000000000000000000006020830152604082019050919050565b600061460a6010836151e9565b91507f5061757361626c653a20706175736564000000000000000000000000000000006000830152602082019050919050565b600061464a6028836151e9565b91507f6175646974546f6b656e3a3a64656c656761746542795369673a20696e76616c60008301527f6964206e6f6e63650000000000000000000000000000000000000000000000006020830152604082019050919050565b60006146b06028836151e9565b91507f45524332303a207472616e7366657220616d6f756e742065786365656473206160008301527f6c6c6f77616e63650000000000000000000000000000000000000000000000006020830152604082019050919050565b6000614716602d836151e9565b91507f6175646974546f6b656e3a3a6765745072696f72566f7465733a206e6f74207960008301527f65742064657465726d696e6564000000000000000000000000000000000000006020830152604082019050919050565b600061477c6024836151e9565b91507f45524332303a206275726e20616d6f756e74206578636565647320616c6c6f7760008301527f616e6365000000000000000000000000000000000000000000000000000000006020830152604082019050919050565b60006147e26021836151e9565b91507f45524332303a206275726e2066726f6d20746865207a65726f2061646472657360008301527f73000000000000000000000000000000000000000000000000000000000000006020830152604082019050919050565b60006148486025836151e9565b91507f45524332303a207472616e736665722066726f6d20746865207a65726f20616460008301527f64726573730000000000000000000000000000000000000000000000000000006020830152604082019050919050565b60006148ae6024836151e9565b91507f45524332303a20617070726f76652066726f6d20746865207a65726f2061646460008301527f72657373000000000000000000000000000000000000000000000000000000006020830152604082019050919050565b60006149146024836151e9565b91507f4c6f636b65643a3a69734e6f744c6f636b6564202d2055736572206973206c6f60008301527f636b6564000000000000000000000000000000000000000000000000000000006020830152604082019050919050565b600061497a6031836151e9565b91507f4c6f636b65643a3a6973436f6e74726f6c6c6572202d2043616c6c657220697360008301527f206e6f74206120636f6e74726f6c6c65720000000000000000000000000000006020830152604082019050919050565b60006149e06017836151fa565b91507f416363657373436f6e74726f6c3a206163636f756e74200000000000000000006000830152601782019050919050565b6000614a206034836151e9565b91507f596f752061726520747279696e6720746f2073656e6420746f6b656e7320746f60008301527f207468697320746f6b656e20636f6e74726163740000000000000000000000006020830152604082019050919050565b6000614a866025836151e9565b91507f45524332303a2064656372656173656420616c6c6f77616e63652062656c6f7760008301527f207a65726f0000000000000000000000000000000000000000000000000000006020830152604082019050919050565b6000614aec6011836151fa565b91507f206973206d697373696e6720726f6c65200000000000000000000000000000006000830152601182019050919050565b6000614b2c602f836151e9565b91507f416363657373436f6e74726f6c3a2063616e206f6e6c792072656e6f756e636560008301527f20726f6c657320666f722073656c6600000000000000000000000000000000006020830152604082019050919050565b6000614b92601f836151e9565b91507f45524332303a206d696e7420746f20746865207a65726f2061646472657373006000830152602082019050919050565b614bce816155e3565b82525050565b614bdd816155ed565b82525050565b614bec816155fd565b82525050565b614bfb81615622565b82525050565b614c0a8161560a565b82525050565b6000614c1b82614425565b9150614c27828561418c565b602082019150614c37828461418c565b6020820191508190509392505050565b6000614c52826149d3565b9150614c5e82856141dc565b9150614c6982614adf565b9150614c7582846141dc565b91508190509392505050565b6000602082019050614c96600083018461415f565b92915050565b6000602082019050614cb1600083018461416e565b92915050565b6000602082019050614ccc600083018461417d565b92915050565b6000608082019050614ce7600083018761417d565b614cf4602083018661415f565b614d016040830185614bc5565b614d0e6060830184614bc5565b95945050505050565b6000608082019050614d2c600083018761417d565b614d39602083018661417d565b614d466040830185614bc5565b614d53606083018461415f565b95945050505050565b6000608082019050614d71600083018761417d565b614d7e6020830186614be3565b614d8b604083018561417d565b614d98606083018461417d565b95945050505050565b60006020820190508181036000830152614dbb81846141a3565b905092915050565b60006020820190508181036000830152614ddc8161420d565b9050919050565b60006020820190508181036000830152614dfc8161424d565b9050919050565b60006020820190508181036000830152614e1c816142b3565b9050919050565b60006020820190508181036000830152614e3c81614319565b9050919050565b60006020820190508181036000830152614e5c81614359565b9050919050565b60006020820190508181036000830152614e7c816143bf565b9050919050565b60006020820190508181036000830152614e9c81614465565b9050919050565b60006020820190508181036000830152614ebc816144cb565b9050919050565b60006020820190508181036000830152614edc81614531565b9050919050565b60006020820190508181036000830152614efc81614597565b9050919050565b60006020820190508181036000830152614f1c816145fd565b9050919050565b60006020820190508181036000830152614f3c8161463d565b9050919050565b60006020820190508181036000830152614f5c816146a3565b9050919050565b60006020820190508181036000830152614f7c81614709565b9050919050565b60006020820190508181036000830152614f9c8161476f565b9050919050565b60006020820190508181036000830152614fbc816147d5565b9050919050565b60006020820190508181036000830152614fdc8161483b565b9050919050565b60006020820190508181036000830152614ffc816148a1565b9050919050565b6000602082019050818103600083015261501c81614907565b9050919050565b6000602082019050818103600083015261503c8161496d565b9050919050565b6000602082019050818103600083015261505c81614a13565b9050919050565b6000602082019050818103600083015261507c81614a79565b9050919050565b6000602082019050818103600083015261509c81614b1f565b9050919050565b600060208201905081810360008301526150bc81614b85565b9050919050565b60006020820190506150d86000830184614bc5565b92915050565b60006020820190506150f36000830184614bd4565b92915050565b600060408201905061510e6000830185614bd4565b61511b6020830184614c01565b9392505050565b60006020820190506151376000830184614be3565b92915050565b60006020820190506151526000830184614c01565b92915050565b600060408201905061516d6000830185614bf2565b61517a6020830184614bf2565b9392505050565b6000604051905081810181811067ffffffffffffffff821117156151a8576151a76157a3565b5b8060405250919050565b600067ffffffffffffffff8211156151cd576151cc6157a3565b5b602082029050602081019050919050565b600081519050919050565b600082825260208201905092915050565b600081905092915050565b6000615210826155e3565b915061521b836155e3565b9250827fffffffffffffffffffffffffffffffffffffffffffffffffffffffffffffffff038211156152505761524f615716565b5b828201905092915050565b6000615266826155ed565b9150615271836155ed565b92508263ffffffff0382111561528a57615289615716565b5b828201905092915050565b60006152a08261560a565b91506152ab8361560a565b9250826bffffffffffffffffffffffff038211156152cc576152cb615716565b5b828201905092915050565b60006152e2826155ed565b91506152ed836155ed565b9250826152fd576152fc615745565b5b828204905092915050565b6000808291508390505b60018511156153525780860481111561532e5761532d615716565b5b600185161561533d5780820291505b808102905061534b856157e3565b9450615312565b94509492505050565b6000615366826155e3565b9150615371836155e3565b925061539e7fffffffffffffffffffffffffffffffffffffffffffffffffffffffffffffffff84846153a6565b905092915050565b6000826153b65760019050615472565b816153c45760009050615472565b81600181146153da57600281146153e457615413565b6001915050615472565b60ff8411156153f6576153f5615716565b5b8360020a91508482111561540d5761540c615716565b5b50615472565b5060208310610133831016604e8410600b84101617156154485782820a90508381111561544357615442615716565b5b615472565b6154558484846001615308565b9250905081840481111561546c5761546b615716565b5b81810290505b9392505050565b6000615484826155e3565b915061548f836155e3565b9250817fffffffffffffffffffffffffffffffffffffffffffffffffffffffffffffffff04831182151516156154c8576154c7615716565b5b828202905092915050565b60006154de826155e3565b91506154e9836155e3565b9250828210156154fc576154fb615716565b5b828203905092915050565b6000615512826155ed565b915061551d836155ed565b9250828210156155305761552f615716565b5b828203905092915050565b60006155468261560a565b91506155518361560a565b92508282101561556457615563615716565b5b828203905092915050565b600061557a826155c3565b9050919050565b60008115159050919050565b6000819050919050565b60007fffffffff0000000000000000000000000000000000000000000000000000000082169050919050565b600073ffffffffffffffffffffffffffffffffffffffff82169050919050565b6000819050919050565b600063ffffffff82169050919050565b600060ff82169050919050565b60006bffffffffffffffffffffffff82169050919050565b600061562d8261560a565b9050919050565b60005b83811015615652578082015181840152602081019050615637565b83811115615661576000848401525b50505050565b6000615672826155e3565b9150600082141561568657615685615716565b5b600182039050919050565b600060028204905060018216806156a957607f821691505b602082108114156156bd576156bc615774565b5b50919050565b60006156ce826155e3565b91507fffffffffffffffffffffffffffffffffffffffffffffffffffffffffffffffff82141561570157615700615716565b5b600182019050919050565b6000819050919050565b7f4e487b7100000000000000000000000000000000000000000000000000000000600052601160045260246000fd5b7f4e487b7100000000000000000000000000000000000000000000000000000000600052601260045260246000fd5b7f4e487b7100000000000000000000000000000000000000000000000000000000600052602260045260246000fd5b7f4e487b7100000000000000000000000000000000000000000000000000000000600052604160045260246000fd5b6000601f19601f8301169050919050565b60008160011c9050919050565b6157f98161556f565b811461580457600080fd5b50565b6158108161558d565b811461581b57600080fd5b50565b61582781615597565b811461583257600080fd5b50565b61583e816155e3565b811461584957600080fd5b50565b615855816155ed565b811461586057600080fd5b50565b61586c816155fd565b811461587757600080fd5b5056fe6175646974546f6b656e3a3a5f6d6f7665566f7465733a20766f746520616d6f756e7420756e646572666c6f77736175646974546f6b656e3a3a5f7772697465436865636b706f696e743a20626c6f636b206e756d626572206578636565647320333220626974736175646974546f6b656e3a3a5f6d6f7665566f7465733a20766f746520616d6f756e74206f766572666c6f7773a2646970667358221220a91eb5368e142d2e375adfe3291b62809ca168c446b8acb97dfb3dcbd5bd522364736f6c63430008000033",
  "immutableReferences": {},
  "source": "// SPDX-License-Identifier: MIT\n\npragma solidity =0.8.0;\npragma experimental ABIEncoderV2;\n\nimport \"@openzeppelin/contracts/token/ERC20/extensions/ERC20Burnable.sol\";\nimport \"@openzeppelin/contracts/token/ERC20/extensions/ERC20Pausable.sol\";\nimport \"@openzeppelin/contracts/token/ERC20/ERC20.sol\";\nimport \"./Locked.sol\";\n\ncontract AuditToken is Locked, ERC20, Pausable, ERC20Burnable{\n      \n    /// @notice A record of each accounts delegate\n    mapping (address => address) public delegates;\n\n    /// @notice A checkpoint for marking number of votes from a given block\n    struct Checkpoint {\n        uint32 fromBlock;\n        uint96 votes;\n    }\n\n    /// @notice A record of votes checkpoints for each account, by index\n    mapping (address => mapping (uint32 => Checkpoint)) public checkpoints;\n\n    /// @notice The number of checkpoints for each account\n    mapping (address => uint32) public numCheckpoints;\n\n    /// @notice The EIP-712 typehash for the contract's domain\n    bytes32 public constant DOMAIN_TYPEHASH = keccak256(\"EIP712Domain(string name,uint256 chainId,address verifyingContract)\");\n\n    /// @notice The EIP-712 typehash for the delegation struct used by the contract\n    bytes32 public constant DELEGATION_TYPEHASH = keccak256(\"Delegation(address delegatee,uint256 nonce,uint256 expiry)\");\n\n    /// @notice A record of states for signing / validating signatures\n    mapping (address => uint) public nonces;\n\n    /// @notice An event thats emitted when an account changes its delegate\n    event DelegateChanged(address indexed delegator, address indexed fromDelegate, address indexed toDelegate);\n\n    /// @notice An event thats emitted when a delegate account's vote balance changes\n    event DelegateVotesChanged(address indexed delegate, uint previousBalance, uint newBalance);\n\n\n    uint8 public constant DECIMALS = 18;\n    uint256 public constant INITIAL_SUPPLY = 250000000 * (10**uint256(DECIMALS));\n    uint256 public totalMigrated;\n    \n    event Migrate(address indexed from, address indexed to, uint256 value);\n\n    /// @dev Constructor that gives an account all initial tokens.\n    constructor(address account) ERC20(\"Auditchain\", \"AUDT\") {\n        require(account != address(0), \"AuditToken:constructor - Address can't be 0\");\n        _mint(account, INITIAL_SUPPLY);      \n        _setupRole(DEFAULT_ADMIN_ROLE, account);\n    }\n\n    /// @dev prevent accidental sending of tokens to this token contract\n    /// @param _self - address of this contract\n    modifier notSelf(address _self) {\n        require(\n            _self != address(this),\n            \"You are trying to send tokens to this token contract\"\n        );\n        _;\n    }\n\n    /// @notice Overwrite parent implementation to add locked verification, notSelf modifiers and call to moveDelegates\n    function transfer(address to, uint256 value)\n        public\n        override\n        isNotLocked(msg.sender, to)\n        notSelf(to)\n        returns (bool)\n    {\n        _moveDelegates(delegates[msg.sender], delegates[to], uint96(value));\n        return super.transfer(to, value);\n    }\n\n   /// @notice Overwrite parent implementation to add locked verification, notSelf modifiers and call to moveDelegates\n    function transferFrom(\n        address from,\n        address to,\n        uint256 value\n    ) public override isNotLocked(from, to) notSelf(to) returns (bool) {\n         _moveDelegates(delegates[from], delegates[to], uint96(value));\n        return super.transferFrom(from, to, value);\n    }\n\n\n    /// @dev Function to mint tokens\n    /// @param to address to which new minted tokens are sent\n    /// @param amount of tokens to send \n    /// @return A boolean that indicates if the operation was successful.\n    function mint(address to, uint256 amount) public isController() returns (bool) {       \n        require(to != address(0), \"Token:mint - Recipient address can't be 0\");        \n        _mint(to, amount);\n        return true;\n    }\n\n    /// @notice Overwrite parent implementation to add locked verification \n    function burn (uint256 amount) public override  isNotLocked(msg.sender, msg.sender) {\n        super.burn(amount);\n    }\n\n    /// @notice Overwrite parent implementation to add locked verification \n    function burnFrom (address user, uint256 amount) public override  isNotLocked(msg.sender, msg.sender) {\n        super.burnFrom(user, amount);\n    }\n\n     function pause() public isController()  {                  \n        super._pause();\n    }\n\n    function unpause() public  isController() {          \n        super._unpause();\n    }\n\n    \n    /**\n     * @notice Delegate votes from `msg.sender` to `delegatee`\n     * @param delegatee The address to delegate votes to\n     */\n    function delegate(address delegatee) public {\n        return _delegate(msg.sender, delegatee);\n    }\n\n    /**\n     * @notice Delegates votes from signatory to `delegatee`\n     * @param delegatee The address to delegate votes to\n     * @param nonce The contract state required to match the signature\n     * @param expiry The time at which to expire the signature\n     * @param v The recovery byte of the signature\n     * @param r Half of the ECDSA signature pair\n     * @param s Half of the ECDSA signature pair\n     */\n    function delegateBySig(address delegatee, uint nonce, uint expiry, uint8 v, bytes32 r, bytes32 s) public {\n        bytes32 domainSeparator = keccak256(abi.encode(DOMAIN_TYPEHASH, keccak256(bytes(name())), getChainId(), address(this)));\n        bytes32 structHash = keccak256(abi.encode(DELEGATION_TYPEHASH, delegatee, nonce, expiry));\n        bytes32 digest = keccak256(abi.encodePacked(\"\\x19\\x01\", domainSeparator, structHash));\n        address signatory = ecrecover(digest, v, r, s);\n        require(signatory != address(0), \"auditToken::delegateBySig: invalid signature\");\n        require(nonce == nonces[signatory]++, \"auditToken::delegateBySig: invalid nonce\");\n        require(block.timestamp <= expiry, \"auditToken::delegateBySig: signature expired\");\n        return _delegate(signatory, delegatee);\n    }\n\n    /**\n     * @notice Gets the current votes balance for `account`\n     * @param account The address to get votes balance\n     * @return The number of current votes for `account`\n     */\n    function getCurrentVotes(address account) external view returns (uint96) {\n        uint32 nCheckpoints = numCheckpoints[account];\n        return nCheckpoints > 0 ? checkpoints[account][nCheckpoints - 1].votes : 0;\n    }\n\n    /**\n     * @notice Determine the prior number of votes for an account as of a block number\n     * @dev Block number must be a finalized block or else this function will revert to prevent misinformation.\n     * @param account The address of the account to check\n     * @param blockNumber The block number to get the vote balance at\n     * @return The number of votes the account had as of the given block\n     */\n    function getPriorVotes(address account, uint blockNumber) public view returns (uint96) {\n        require(blockNumber < block.number, \"auditToken::getPriorVotes: not yet determined\");\n\n        uint32 nCheckpoints = numCheckpoints[account];\n        if (nCheckpoints == 0) {\n            return 0;\n        }\n\n        // First check most recent balance\n        if (checkpoints[account][nCheckpoints - 1].fromBlock <= blockNumber) {\n            return checkpoints[account][nCheckpoints - 1].votes;\n        }\n\n        // Next check implicit zero balance\n        if (checkpoints[account][0].fromBlock > blockNumber) {\n            return 0;\n        }\n\n        uint32 lower = 0;\n        uint32 upper = nCheckpoints - 1;\n        while (upper > lower) {\n            uint32 center = upper - (upper - lower) / 2; // ceil, avoiding overflow\n            Checkpoint memory cp = checkpoints[account][center];\n            if (cp.fromBlock == blockNumber) {\n                return cp.votes;\n            } else if (cp.fromBlock < blockNumber) {\n                lower = center;\n            } else {\n                upper = center - 1;\n            }\n        }\n        return checkpoints[account][lower].votes;\n    }\n\n    function _delegate(address delegator, address delegatee) internal {\n        address currentDelegate = delegates[delegator];\n        uint96 delegatorBalance = uint96(balanceOf(delegator));\n        delegates[delegator] = delegatee;\n\n        emit DelegateChanged(delegator, currentDelegate, delegatee);\n\n        _moveDelegates(currentDelegate, delegatee, delegatorBalance);\n    }   \n\n    function _moveDelegates(address srcRep, address dstRep, uint96 amount) internal {\n        if (srcRep != dstRep && amount > 0) {\n            if (srcRep != address(0)) {\n                uint32 srcRepNum = numCheckpoints[srcRep];\n                uint96 srcRepOld = srcRepNum > 0 ? checkpoints[srcRep][srcRepNum - 1].votes : 0;\n                uint96 srcRepNew = sub96(srcRepOld, amount, \"auditToken::_moveVotes: vote amount underflows\");\n                _writeCheckpoint(srcRep, srcRepNum, srcRepOld, srcRepNew);\n            }\n\n            if (dstRep != address(0)) {\n                uint32 dstRepNum = numCheckpoints[dstRep];\n                uint96 dstRepOld = dstRepNum > 0 ? checkpoints[dstRep][dstRepNum - 1].votes : 0;\n                uint96 dstRepNew = add96(dstRepOld, amount, \"auditToken::_moveVotes: vote amount overflows\");\n                _writeCheckpoint(dstRep, dstRepNum, dstRepOld, dstRepNew);\n            }\n        }\n    }\n\n    function _writeCheckpoint(address delegatee, uint32 nCheckpoints, uint96 oldVotes, uint96 newVotes) internal {\n      uint32 blockNumber = safe32(block.number, \"auditToken::_writeCheckpoint: block number exceeds 32 bits\");\n\n      if (nCheckpoints > 0 && checkpoints[delegatee][nCheckpoints - 1].fromBlock == blockNumber) {\n          checkpoints[delegatee][nCheckpoints - 1].votes = newVotes;\n      } else {\n          checkpoints[delegatee][nCheckpoints] = Checkpoint(blockNumber, newVotes);\n          numCheckpoints[delegatee] = nCheckpoints + 1;\n      }\n\n      emit DelegateVotesChanged(delegatee, oldVotes, newVotes);\n    }\n\n    function safe32(uint n, string memory errorMessage) internal pure returns (uint32) {\n        require(n < 2**32, errorMessage);\n        return uint32(n);\n    }\n\n    function add96(uint96 a, uint96 b, string memory errorMessage) internal pure returns (uint96) {\n        uint96 c = a + b;\n        require(c >= a, errorMessage);\n        return c;\n    }\n\n    function sub96(uint96 a, uint96 b, string memory errorMessage) internal pure returns (uint96) {\n        require(b <= a, errorMessage);\n        return a - b;\n    }\n\n    function getChainId() internal view returns (uint) {\n        uint256 chainId;\n        assembly { chainId := chainid() }\n        return chainId;\n    }\n\n    \n\n\n}",
  "sourcePath": "/home/win2win/eth/projects/AuditChain/Core-Smart-Contracts-v1/contracts/AuditToken.sol",
  "compiler": {
    "name": "solc",
    "version": "0.8.0+commit.c7dfd78e.Emscripten.clang"
  },
  "schemaVersion": "3.4.1",
  "updatedAt": "2021-08-02T21:34:49.399Z",
  "networkType": "ethereum",
  "devdoc": {
    "kind": "dev",
    "methods": {
      "addLock(address)": {
        "details": "add user to lock",
        "params": {
          "_user": "to lock"
        }
      },
      "allowance(address,address)": {
        "details": "See {IERC20-allowance}."
      },
      "approve(address,uint256)": {
        "details": "See {IERC20-approve}. Requirements: - `spender` cannot be the zero address."
      },
      "balanceOf(address)": {
        "details": "See {IERC20-balanceOf}."
      },
      "constructor": {
        "details": "Constructor that gives an account all initial tokens."
      },
      "decimals()": {
        "details": "Returns the number of decimals used to get its user representation. For example, if `decimals` equals `2`, a balance of `505` tokens should be displayed to a user as `5,05` (`505 / 10 ** 2`). Tokens usually opt for a value of 18, imitating the relationship between Ether and Wei. This is the value {ERC20} uses, unless this function is overridden; NOTE: This information is only used for _display_ purposes: it in no way affects any of the arithmetic of the contract, including {IERC20-balanceOf} and {IERC20-transfer}."
      },
      "decreaseAllowance(address,uint256)": {
        "details": "Atomically decreases the allowance granted to `spender` by the caller. This is an alternative to {approve} that can be used as a mitigation for problems described in {IERC20-approve}. Emits an {Approval} event indicating the updated allowance. Requirements: - `spender` cannot be the zero address. - `spender` must have allowance for the caller of at least `subtractedValue`."
      },
      "delegate(address)": {
        "params": {
          "delegatee": "The address to delegate votes to"
        }
      },
      "delegateBySig(address,uint256,uint256,uint8,bytes32,bytes32)": {
        "params": {
          "delegatee": "The address to delegate votes to",
          "expiry": "The time at which to expire the signature",
          "nonce": "The contract state required to match the signature",
          "r": "Half of the ECDSA signature pair",
          "s": "Half of the ECDSA signature pair",
          "v": "The recovery byte of the signature"
        }
      },
      "getCurrentVotes(address)": {
        "params": {
          "account": "The address to get votes balance"
        },
        "returns": {
          "_0": "The number of current votes for `account`"
        }
      },
      "getPriorVotes(address,uint256)": {
        "details": "Block number must be a finalized block or else this function will revert to prevent misinformation.",
        "params": {
          "account": "The address of the account to check",
          "blockNumber": "The block number to get the vote balance at"
        },
        "returns": {
          "_0": "The number of votes the account had as of the given block"
        }
      },
      "getRoleAdmin(bytes32)": {
        "details": "Returns the admin role that controls `role`. See {grantRole} and {revokeRole}. To change a role's admin, use {_setRoleAdmin}."
      },
      "grantRole(bytes32,address)": {
        "details": "Grants `role` to `account`. If `account` had not been already granted `role`, emits a {RoleGranted} event. Requirements: - the caller must have ``role``'s admin role."
      },
      "hasRole(bytes32,address)": {
        "details": "Returns `true` if `account` has been granted `role`."
      },
      "increaseAllowance(address,uint256)": {
        "details": "Atomically increases the allowance granted to `spender` by the caller. This is an alternative to {approve} that can be used as a mitigation for problems described in {IERC20-approve}. Emits an {Approval} event indicating the updated allowance. Requirements: - `spender` cannot be the zero address."
      },
      "isLocked(address)": {
        "details": "check if user has been locked",
        "params": {
          "_user": "- usr to check"
        },
        "returns": {
          "_0": "true or false"
        }
      },
      "mint(address,uint256)": {
        "details": "Function to mint tokens",
        "params": {
          "amount": "of tokens to send ",
          "to": "address to which new minted tokens are sent"
        },
        "returns": {
          "_0": "A boolean that indicates if the operation was successful."
        }
      },
      "name()": {
        "details": "Returns the name of the token."
      },
      "paused()": {
        "details": "Returns true if the contract is paused, and false otherwise."
      },
      "removeLock(address)": {
        "details": "unlock user",
        "params": {
          "_user": "- user to unlock"
        }
      },
      "renounceRole(bytes32,address)": {
        "details": "Revokes `role` from the calling account. Roles are often managed via {grantRole} and {revokeRole}: this function's purpose is to provide a mechanism for accounts to lose their privileges if they are compromised (such as when a trusted device is misplaced). If the calling account had been granted `role`, emits a {RoleRevoked} event. Requirements: - the caller must be `account`."
      },
      "revokeRole(bytes32,address)": {
        "details": "Revokes `role` from `account`. If `account` had been granted `role`, emits a {RoleRevoked} event. Requirements: - the caller must have ``role``'s admin role."
      },
      "supportsInterface(bytes4)": {
        "details": "See {IERC165-supportsInterface}."
      },
      "symbol()": {
        "details": "Returns the symbol of the token, usually a shorter version of the name."
      },
      "totalSupply()": {
        "details": "See {IERC20-totalSupply}."
      }
    },
    "version": 1
  },
  "userdoc": {
    "events": {
      "DelegateChanged(address,address,address)": {
        "notice": "An event thats emitted when an account changes its delegate"
      },
      "DelegateVotesChanged(address,uint256,uint256)": {
        "notice": "An event thats emitted when a delegate account's vote balance changes"
      }
    },
    "kind": "user",
    "methods": {
      "DELEGATION_TYPEHASH()": {
        "notice": "The EIP-712 typehash for the delegation struct used by the contract"
      },
      "DOMAIN_TYPEHASH()": {
        "notice": "The EIP-712 typehash for the contract's domain"
      },
      "burn(uint256)": {
        "notice": "Overwrite parent implementation to add locked verification "
      },
      "burnFrom(address,uint256)": {
        "notice": "Overwrite parent implementation to add locked verification "
      },
      "checkpoints(address,uint32)": {
        "notice": "A record of votes checkpoints for each account, by index"
      },
      "delegate(address)": {
        "notice": "Delegate votes from `msg.sender` to `delegatee`"
      },
      "delegateBySig(address,uint256,uint256,uint8,bytes32,bytes32)": {
        "notice": "Delegates votes from signatory to `delegatee`"
      },
      "delegates(address)": {
        "notice": "A record of each accounts delegate"
      },
      "getCurrentVotes(address)": {
        "notice": "Gets the current votes balance for `account`"
      },
      "getPriorVotes(address,uint256)": {
        "notice": "Determine the prior number of votes for an account as of a block number"
      },
      "nonces(address)": {
        "notice": "A record of states for signing / validating signatures"
      },
      "numCheckpoints(address)": {
        "notice": "The number of checkpoints for each account"
      },
      "transfer(address,uint256)": {
        "notice": "Overwrite parent implementation to add locked verification, notSelf modifiers and call to moveDelegates"
      },
      "transferFrom(address,address,uint256)": {
        "notice": "Overwrite parent implementation to add locked verification, notSelf modifiers and call to moveDelegates"
      }
    },
    "version": 1
  }
}