{
  "contractName": "AuditToken",
  "abi": [
    {
      "inputs": [
        {
          "internalType": "address",
          "name": "account",
          "type": "address"
        }
      ],
      "stateMutability": "nonpayable",
      "type": "constructor"
    },
    {
      "anonymous": false,
      "inputs": [
        {
          "indexed": false,
          "internalType": "address",
          "name": "user",
          "type": "address"
        }
      ],
      "name": "AddedLock",
      "type": "event"
    },
    {
      "anonymous": false,
      "inputs": [
        {
          "indexed": true,
          "internalType": "address",
          "name": "owner",
          "type": "address"
        },
        {
          "indexed": true,
          "internalType": "address",
          "name": "spender",
          "type": "address"
        },
        {
          "indexed": false,
          "internalType": "uint256",
          "name": "value",
          "type": "uint256"
        }
      ],
      "name": "Approval",
      "type": "event"
    },
    {
      "anonymous": false,
      "inputs": [
        {
          "indexed": true,
          "internalType": "address",
          "name": "delegator",
          "type": "address"
        },
        {
          "indexed": true,
          "internalType": "address",
          "name": "fromDelegate",
          "type": "address"
        },
        {
          "indexed": true,
          "internalType": "address",
          "name": "toDelegate",
          "type": "address"
        }
      ],
      "name": "DelegateChanged",
      "type": "event"
    },
    {
      "anonymous": false,
      "inputs": [
        {
          "indexed": true,
          "internalType": "address",
          "name": "delegate",
          "type": "address"
        },
        {
          "indexed": false,
          "internalType": "uint256",
          "name": "previousBalance",
          "type": "uint256"
        },
        {
          "indexed": false,
          "internalType": "uint256",
          "name": "newBalance",
          "type": "uint256"
        }
      ],
      "name": "DelegateVotesChanged",
      "type": "event"
    },
    {
      "anonymous": false,
      "inputs": [
        {
          "indexed": true,
          "internalType": "address",
          "name": "controller",
          "type": "address"
        }
      ],
      "name": "LogControllerRevoked",
      "type": "event"
    },
    {
      "anonymous": false,
      "inputs": [
        {
          "indexed": true,
          "internalType": "address",
          "name": "controller",
          "type": "address"
        }
      ],
      "name": "LogControllerSet",
      "type": "event"
    },
    {
      "anonymous": false,
      "inputs": [
        {
          "indexed": true,
          "internalType": "address",
          "name": "from",
          "type": "address"
        },
        {
          "indexed": true,
          "internalType": "address",
          "name": "to",
          "type": "address"
        },
        {
          "indexed": false,
          "internalType": "uint256",
          "name": "value",
          "type": "uint256"
        }
      ],
      "name": "Migrate",
      "type": "event"
    },
    {
      "anonymous": false,
      "inputs": [
        {
          "indexed": true,
          "internalType": "address",
          "name": "migrationAgent",
          "type": "address"
        }
      ],
      "name": "MigrationAgentSet",
      "type": "event"
    },
    {
      "anonymous": false,
      "inputs": [
        {
          "indexed": false,
          "internalType": "address",
          "name": "account",
          "type": "address"
        }
      ],
      "name": "Paused",
      "type": "event"
    },
    {
      "anonymous": false,
      "inputs": [
        {
          "indexed": false,
          "internalType": "address",
          "name": "user",
          "type": "address"
        }
      ],
      "name": "RemovedLock",
      "type": "event"
    },
    {
      "anonymous": false,
      "inputs": [
        {
          "indexed": true,
          "internalType": "bytes32",
          "name": "role",
          "type": "bytes32"
        },
        {
          "indexed": true,
          "internalType": "bytes32",
          "name": "previousAdminRole",
          "type": "bytes32"
        },
        {
          "indexed": true,
          "internalType": "bytes32",
          "name": "newAdminRole",
          "type": "bytes32"
        }
      ],
      "name": "RoleAdminChanged",
      "type": "event"
    },
    {
      "anonymous": false,
      "inputs": [
        {
          "indexed": true,
          "internalType": "bytes32",
          "name": "role",
          "type": "bytes32"
        },
        {
          "indexed": true,
          "internalType": "address",
          "name": "account",
          "type": "address"
        },
        {
          "indexed": true,
          "internalType": "address",
          "name": "sender",
          "type": "address"
        }
      ],
      "name": "RoleGranted",
      "type": "event"
    },
    {
      "anonymous": false,
      "inputs": [
        {
          "indexed": true,
          "internalType": "bytes32",
          "name": "role",
          "type": "bytes32"
        },
        {
          "indexed": true,
          "internalType": "address",
          "name": "account",
          "type": "address"
        },
        {
          "indexed": true,
          "internalType": "address",
          "name": "sender",
          "type": "address"
        }
      ],
      "name": "RoleRevoked",
      "type": "event"
    },
    {
      "anonymous": false,
      "inputs": [
        {
          "indexed": true,
          "internalType": "address",
          "name": "from",
          "type": "address"
        },
        {
          "indexed": true,
          "internalType": "address",
          "name": "to",
          "type": "address"
        },
        {
          "indexed": false,
          "internalType": "uint256",
          "name": "value",
          "type": "uint256"
        }
      ],
      "name": "Transfer",
      "type": "event"
    },
    {
      "anonymous": false,
      "inputs": [
        {
          "indexed": false,
          "internalType": "address",
          "name": "account",
          "type": "address"
        }
      ],
      "name": "Unpaused",
      "type": "event"
    },
    {
      "inputs": [],
      "name": "CONTROLLER_ROLE",
      "outputs": [
        {
          "internalType": "bytes32",
          "name": "",
          "type": "bytes32"
        }
      ],
      "stateMutability": "view",
      "type": "function",
      "constant": true
    },
    {
      "inputs": [],
      "name": "DECIMALS",
      "outputs": [
        {
          "internalType": "uint8",
          "name": "",
          "type": "uint8"
        }
      ],
      "stateMutability": "view",
      "type": "function",
      "constant": true
    },
    {
      "inputs": [],
      "name": "DEFAULT_ADMIN_ROLE",
      "outputs": [
        {
          "internalType": "bytes32",
          "name": "",
          "type": "bytes32"
        }
      ],
      "stateMutability": "view",
      "type": "function",
      "constant": true
    },
    {
      "inputs": [],
      "name": "DELEGATION_TYPEHASH",
      "outputs": [
        {
          "internalType": "bytes32",
          "name": "",
          "type": "bytes32"
        }
      ],
      "stateMutability": "view",
      "type": "function",
      "constant": true
    },
    {
      "inputs": [],
      "name": "DOMAIN_TYPEHASH",
      "outputs": [
        {
          "internalType": "bytes32",
          "name": "",
          "type": "bytes32"
        }
      ],
      "stateMutability": "view",
      "type": "function",
      "constant": true
    },
    {
      "inputs": [],
      "name": "INITIAL_SUPPLY",
      "outputs": [
        {
          "internalType": "uint256",
          "name": "",
          "type": "uint256"
        }
      ],
      "stateMutability": "view",
      "type": "function",
      "constant": true
    },
    {
      "inputs": [
        {
          "internalType": "address",
          "name": "_user",
          "type": "address"
        }
      ],
      "name": "addLock",
      "outputs": [],
      "stateMutability": "nonpayable",
      "type": "function"
    },
    {
      "inputs": [
        {
          "internalType": "address[]",
          "name": "_users",
          "type": "address[]"
        }
      ],
      "name": "addLockMultiple",
      "outputs": [],
      "stateMutability": "nonpayable",
      "type": "function"
    },
    {
      "inputs": [
        {
          "internalType": "address",
          "name": "owner",
          "type": "address"
        },
        {
          "internalType": "address",
          "name": "spender",
          "type": "address"
        }
      ],
      "name": "allowance",
      "outputs": [
        {
          "internalType": "uint256",
          "name": "",
          "type": "uint256"
        }
      ],
      "stateMutability": "view",
      "type": "function",
      "constant": true
    },
    {
      "inputs": [
        {
          "internalType": "address",
          "name": "spender",
          "type": "address"
        },
        {
          "internalType": "uint256",
          "name": "amount",
          "type": "uint256"
        }
      ],
      "name": "approve",
      "outputs": [
        {
          "internalType": "bool",
          "name": "",
          "type": "bool"
        }
      ],
      "stateMutability": "nonpayable",
      "type": "function"
    },
    {
      "inputs": [
        {
          "internalType": "address",
          "name": "account",
          "type": "address"
        }
      ],
      "name": "balanceOf",
      "outputs": [
        {
          "internalType": "uint256",
          "name": "",
          "type": "uint256"
        }
      ],
      "stateMutability": "view",
      "type": "function",
      "constant": true
    },
    {
      "inputs": [
        {
          "internalType": "address",
          "name": "",
          "type": "address"
        },
        {
          "internalType": "uint32",
          "name": "",
          "type": "uint32"
        }
      ],
      "name": "checkpoints",
      "outputs": [
        {
          "internalType": "uint32",
          "name": "fromBlock",
          "type": "uint32"
        },
        {
          "internalType": "uint96",
          "name": "votes",
          "type": "uint96"
        }
      ],
      "stateMutability": "view",
      "type": "function",
      "constant": true
    },
    {
      "inputs": [],
      "name": "decimals",
      "outputs": [
        {
          "internalType": "uint8",
          "name": "",
          "type": "uint8"
        }
      ],
      "stateMutability": "view",
      "type": "function",
      "constant": true
    },
    {
      "inputs": [
        {
          "internalType": "address",
          "name": "spender",
          "type": "address"
        },
        {
          "internalType": "uint256",
          "name": "subtractedValue",
          "type": "uint256"
        }
      ],
      "name": "decreaseAllowance",
      "outputs": [
        {
          "internalType": "bool",
          "name": "",
          "type": "bool"
        }
      ],
      "stateMutability": "nonpayable",
      "type": "function"
    },
    {
      "inputs": [
        {
          "internalType": "address",
          "name": "",
          "type": "address"
        }
      ],
      "name": "delegates",
      "outputs": [
        {
          "internalType": "address",
          "name": "",
          "type": "address"
        }
      ],
      "stateMutability": "view",
      "type": "function",
      "constant": true
    },
    {
      "inputs": [
        {
          "internalType": "bytes32",
          "name": "role",
          "type": "bytes32"
        }
      ],
      "name": "getRoleAdmin",
      "outputs": [
        {
          "internalType": "bytes32",
          "name": "",
          "type": "bytes32"
        }
      ],
      "stateMutability": "view",
      "type": "function",
      "constant": true
    },
    {
      "inputs": [
        {
          "internalType": "bytes32",
          "name": "role",
          "type": "bytes32"
        },
        {
          "internalType": "uint256",
          "name": "index",
          "type": "uint256"
        }
      ],
      "name": "getRoleMember",
      "outputs": [
        {
          "internalType": "address",
          "name": "",
          "type": "address"
        }
      ],
      "stateMutability": "view",
      "type": "function",
      "constant": true
    },
    {
      "inputs": [
        {
          "internalType": "bytes32",
          "name": "role",
          "type": "bytes32"
        }
      ],
      "name": "getRoleMemberCount",
      "outputs": [
        {
          "internalType": "uint256",
          "name": "",
          "type": "uint256"
        }
      ],
      "stateMutability": "view",
      "type": "function",
      "constant": true
    },
    {
      "inputs": [
        {
          "internalType": "bytes32",
          "name": "role",
          "type": "bytes32"
        },
        {
          "internalType": "address",
          "name": "account",
          "type": "address"
        }
      ],
      "name": "grantRole",
      "outputs": [],
      "stateMutability": "nonpayable",
      "type": "function"
    },
    {
      "inputs": [
        {
          "internalType": "bytes32",
          "name": "role",
          "type": "bytes32"
        },
        {
          "internalType": "address",
          "name": "account",
          "type": "address"
        }
      ],
      "name": "hasRole",
      "outputs": [
        {
          "internalType": "bool",
          "name": "",
          "type": "bool"
        }
      ],
      "stateMutability": "view",
      "type": "function",
      "constant": true
    },
    {
      "inputs": [
        {
          "internalType": "address",
          "name": "spender",
          "type": "address"
        },
        {
          "internalType": "uint256",
          "name": "addedValue",
          "type": "uint256"
        }
      ],
      "name": "increaseAllowance",
      "outputs": [
        {
          "internalType": "bool",
          "name": "",
          "type": "bool"
        }
      ],
      "stateMutability": "nonpayable",
      "type": "function"
    },
    {
      "inputs": [
        {
          "internalType": "address",
          "name": "_user",
          "type": "address"
        }
      ],
      "name": "isLocked",
      "outputs": [
        {
          "internalType": "bool",
          "name": "",
          "type": "bool"
        }
      ],
      "stateMutability": "view",
      "type": "function",
      "constant": true
    },
    {
      "inputs": [
        {
          "internalType": "address",
          "name": "",
          "type": "address"
        }
      ],
      "name": "lockedList",
      "outputs": [
        {
          "internalType": "bool",
          "name": "",
          "type": "bool"
        }
      ],
      "stateMutability": "view",
      "type": "function",
      "constant": true
    },
    {
      "inputs": [],
      "name": "migrationAgent",
      "outputs": [
        {
          "internalType": "address",
          "name": "",
          "type": "address"
        }
      ],
      "stateMutability": "view",
      "type": "function",
      "constant": true
    },
    {
      "inputs": [],
      "name": "name",
      "outputs": [
        {
          "internalType": "string",
          "name": "",
          "type": "string"
        }
      ],
      "stateMutability": "view",
      "type": "function",
      "constant": true
    },
    {
      "inputs": [
        {
          "internalType": "address",
          "name": "",
          "type": "address"
        }
      ],
      "name": "nonces",
      "outputs": [
        {
          "internalType": "uint256",
          "name": "",
          "type": "uint256"
        }
      ],
      "stateMutability": "view",
      "type": "function",
      "constant": true
    },
    {
      "inputs": [
        {
          "internalType": "address",
          "name": "",
          "type": "address"
        }
      ],
      "name": "numCheckpoints",
      "outputs": [
        {
          "internalType": "uint32",
          "name": "",
          "type": "uint32"
        }
      ],
      "stateMutability": "view",
      "type": "function",
      "constant": true
    },
    {
      "inputs": [],
      "name": "paused",
      "outputs": [
        {
          "internalType": "bool",
          "name": "",
          "type": "bool"
        }
      ],
      "stateMutability": "view",
      "type": "function",
      "constant": true
    },
    {
      "inputs": [
        {
          "internalType": "address",
          "name": "_user",
          "type": "address"
        }
      ],
      "name": "removeLock",
      "outputs": [],
      "stateMutability": "nonpayable",
      "type": "function"
    },
    {
      "inputs": [
        {
          "internalType": "bytes32",
          "name": "role",
          "type": "bytes32"
        },
        {
          "internalType": "address",
          "name": "account",
          "type": "address"
        }
      ],
      "name": "renounceRole",
      "outputs": [],
      "stateMutability": "nonpayable",
      "type": "function"
    },
    {
      "inputs": [
        {
          "internalType": "bytes32",
          "name": "role",
          "type": "bytes32"
        },
        {
          "internalType": "address",
          "name": "account",
          "type": "address"
        }
      ],
      "name": "revokeRole",
      "outputs": [],
      "stateMutability": "nonpayable",
      "type": "function"
    },
    {
      "inputs": [],
      "name": "symbol",
      "outputs": [
        {
          "internalType": "string",
          "name": "",
          "type": "string"
        }
      ],
      "stateMutability": "view",
      "type": "function",
      "constant": true
    },
    {
      "inputs": [],
      "name": "totalMigrated",
      "outputs": [
        {
          "internalType": "uint256",
          "name": "",
          "type": "uint256"
        }
      ],
      "stateMutability": "view",
      "type": "function",
      "constant": true
    },
    {
      "inputs": [],
      "name": "totalSupply",
      "outputs": [
        {
          "internalType": "uint256",
          "name": "",
          "type": "uint256"
        }
      ],
      "stateMutability": "view",
      "type": "function",
      "constant": true
    },
    {
      "inputs": [
        {
          "internalType": "address",
          "name": "to",
          "type": "address"
        },
        {
          "internalType": "uint256",
          "name": "value",
          "type": "uint256"
        }
      ],
      "name": "transfer",
      "outputs": [
        {
          "internalType": "bool",
          "name": "",
          "type": "bool"
        }
      ],
      "stateMutability": "nonpayable",
      "type": "function"
    },
    {
      "inputs": [
        {
          "internalType": "address",
          "name": "from",
          "type": "address"
        },
        {
          "internalType": "address",
          "name": "to",
          "type": "address"
        },
        {
          "internalType": "uint256",
          "name": "value",
          "type": "uint256"
        }
      ],
      "name": "transferFrom",
      "outputs": [
        {
          "internalType": "bool",
          "name": "",
          "type": "bool"
        }
      ],
      "stateMutability": "nonpayable",
      "type": "function"
    },
    {
      "inputs": [
        {
          "internalType": "address",
          "name": "to",
          "type": "address"
        },
        {
          "internalType": "uint256",
          "name": "amount",
          "type": "uint256"
        }
      ],
      "name": "mint",
      "outputs": [
        {
          "internalType": "bool",
          "name": "",
          "type": "bool"
        }
      ],
      "stateMutability": "nonpayable",
      "type": "function"
    },
    {
      "inputs": [
        {
          "internalType": "uint256",
          "name": "amount",
          "type": "uint256"
        }
      ],
      "name": "burn",
      "outputs": [],
      "stateMutability": "nonpayable",
      "type": "function"
    },
    {
      "inputs": [
        {
          "internalType": "address",
          "name": "user",
          "type": "address"
        },
        {
          "internalType": "uint256",
          "name": "amount",
          "type": "uint256"
        }
      ],
      "name": "burnFrom",
      "outputs": [],
      "stateMutability": "nonpayable",
      "type": "function"
    },
    {
      "inputs": [],
      "name": "pause",
      "outputs": [],
      "stateMutability": "nonpayable",
      "type": "function"
    },
    {
      "inputs": [],
      "name": "unpause",
      "outputs": [],
      "stateMutability": "nonpayable",
      "type": "function"
    },
    {
      "inputs": [],
      "name": "migrate",
      "outputs": [],
      "stateMutability": "nonpayable",
      "type": "function"
    },
    {
      "inputs": [
        {
          "internalType": "address",
          "name": "_agent",
          "type": "address"
        }
      ],
      "name": "setMigrationAgent",
      "outputs": [],
      "stateMutability": "nonpayable",
      "type": "function"
    },
    {
      "inputs": [
        {
          "internalType": "address",
          "name": "delegatee",
          "type": "address"
        }
      ],
      "name": "delegate",
      "outputs": [],
      "stateMutability": "nonpayable",
      "type": "function"
    },
    {
      "inputs": [
        {
          "internalType": "address",
          "name": "delegatee",
          "type": "address"
        },
        {
          "internalType": "uint256",
          "name": "nonce",
          "type": "uint256"
        },
        {
          "internalType": "uint256",
          "name": "expiry",
          "type": "uint256"
        },
        {
          "internalType": "uint8",
          "name": "v",
          "type": "uint8"
        },
        {
          "internalType": "bytes32",
          "name": "r",
          "type": "bytes32"
        },
        {
          "internalType": "bytes32",
          "name": "s",
          "type": "bytes32"
        }
      ],
      "name": "delegateBySig",
      "outputs": [],
      "stateMutability": "nonpayable",
      "type": "function"
    },
    {
      "inputs": [
        {
          "internalType": "address",
          "name": "account",
          "type": "address"
        }
      ],
      "name": "getCurrentVotes",
      "outputs": [
        {
          "internalType": "uint96",
          "name": "",
          "type": "uint96"
        }
      ],
      "stateMutability": "view",
      "type": "function",
      "constant": true
    },
    {
      "inputs": [
        {
          "internalType": "address",
          "name": "account",
          "type": "address"
        },
        {
          "internalType": "uint256",
          "name": "blockNumber",
          "type": "uint256"
        }
      ],
      "name": "getPriorVotes",
      "outputs": [
        {
          "internalType": "uint96",
          "name": "",
          "type": "uint96"
        }
      ],
      "stateMutability": "view",
      "type": "function",
      "constant": true
    }
  ],
  "bytecode": "0x60806040523480156200001157600080fd5b5060405162005e3738038062005e3783398181016040528101906200003791906200068d565b6040518060400160405280600a81526020017f4175646974636861696e000000000000000000000000000000000000000000008152506040518060400160405280600481526020017f41554454000000000000000000000000000000000000000000000000000000008152508160059080519060200190620000bb929190620005c0565b508060069080519060200190620000d4929190620005c0565b506012600760006101000a81548160ff021916908360ff16021790555050506000600760016101000a81548160ff021916908315150217905550600073ffffffffffffffffffffffffffffffffffffffff168173ffffffffffffffffffffffffffffffffffffffff16141562000181576040517f08c379a0000000000000000000000000000000000000000000000000000000008152600401620001789062000721565b60405180910390fd5b620001a081601260ff16600a0a630ee6b28002620001bc60201b60201c565b620001b56000801b826200039c60201b60201c565b50620007a2565b600073ffffffffffffffffffffffffffffffffffffffff168273ffffffffffffffffffffffffffffffffffffffff16141562000260576040517f08c379a000000000000000000000000000000000000000000000000000000000815260040180806020018281038252601f8152602001807f45524332303a206d696e7420746f20746865207a65726f20616464726573730081525060200191505060405180910390fd5b6200027460008383620003b260201b60201c565b6200029081600454620003b760201b620029531790919060201c565b600481905550620002ef81600260008573ffffffffffffffffffffffffffffffffffffffff1673ffffffffffffffffffffffffffffffffffffffff16815260200190815260200160002054620003b760201b620029531790919060201c565b600260008473ffffffffffffffffffffffffffffffffffffffff1673ffffffffffffffffffffffffffffffffffffffff168152602001908152602001600020819055508173ffffffffffffffffffffffffffffffffffffffff16600073ffffffffffffffffffffffffffffffffffffffff167fddf252ad1be2c89b69c2b068fc378daa952ba7f163c4a11628f55a4df523b3ef836040518082815260200191505060405180910390a35050565b620003ae82826200044060201b60201c565b5050565b505050565b60008082840190508381101562000436576040517f08c379a000000000000000000000000000000000000000000000000000000000815260040180806020018281038252601b8152602001807f536166654d6174683a206164646974696f6e206f766572666c6f77000000000081525060200191505060405180910390fd5b8091505092915050565b6200046e81600080858152602001908152602001600020600001620004e360201b620029db1790919060201c565b15620004df57620004846200051b60201b60201c565b73ffffffffffffffffffffffffffffffffffffffff168173ffffffffffffffffffffffffffffffffffffffff16837f2f8788117e7eff1d82e926ec794901d17c78024a50270940304540a733656f0d60405160405180910390a45b5050565b600062000513836000018373ffffffffffffffffffffffffffffffffffffffff1660001b6200052360201b60201c565b905092915050565b600033905090565b60006200053783836200059d60201b60201c565b6200059257826000018290806001815401808255809150506001900390600052602060002001600090919091909150558260000180549050836001016000848152602001908152602001600020819055506001905062000597565b600090505b92915050565b600080836001016000848152602001908152602001600020541415905092915050565b828054600181600116156101000203166002900490600052602060002090601f016020900481019282620005f8576000855562000644565b82601f106200061357805160ff191683800117855562000644565b8280016001018555821562000644579182015b828111156200064357825182559160200191906001019062000626565b5b50905062000653919062000657565b5090565b5b808211156200067257600081600090555060010162000658565b5090565b600081519050620006878162000788565b92915050565b600060208284031215620006a057600080fd5b6000620006b08482850162000676565b91505092915050565b6000620006c8602b8362000743565b91507f4175646974546f6b656e3a636f6e7374727563746f72202d204164647265737360008301527f2063616e277420626520300000000000000000000000000000000000000000006020830152604082019050919050565b600060208201905081810360008301526200073c81620006b9565b9050919050565b600082825260208201905092915050565b6000620007618262000768565b9050919050565b600073ffffffffffffffffffffffffffffffffffffffff82169050919050565b620007938162000754565b81146200079f57600080fd5b50565b61568580620007b26000396000f3fe608060405234801561001057600080fd5b50600436106102955760003560e01c806370a082311161016757806395a0f5eb116100ce578063c3cda52011610087578063c3cda5201461084c578063ca15c87314610868578063d547741f14610898578063dd62ed3e146108b4578063e7a324dc146108e4578063f1127ed81461090257610295565b806395a0f5eb1461076257806395d89b4114610780578063a217fddf1461079e578063a457c2d7146107bc578063a9059cbb146107ec578063b4b5ea571461081c57610295565b80638456cb59116101205780638456cb59146106b6578063882f327b146106c05780638f557373146106dc5780638fd3ab80146106f85780639010d07c1461070257806391d148541461073257610295565b806370a08231146105d057806375e2ff6514610600578063782d6fe11461061c57806379cc67901461064c5780637ecebe00146106685780638328dbcd1461069857610295565b8063313ce5671161020b5780634a387bef116101c45780634a387bef146104ea5780634a4fbeec14610506578063587cde1e146105365780635c19a95c146105665780635c975abb146105825780636fcfff45146105a057610295565b8063313ce5671461042a57806336568abe1461044857806339509351146104645780633f4ba83a1461049457806340c10f191461049e57806342966c68146104ce57610295565b806320606b701161025d57806320606b701461035457806323b872dd14610372578063248a9ca3146103a25780632e0f2625146103d25780632f2ff15d146103f05780632ff2e9dc1461040c57610295565b806306fdde031461029a578063092c5b3b146102b8578063095ea7b3146102d657806318160ddd146103065780631a921b3e14610324575b600080fd5b6102a2610933565b6040516102af9190614ef2565b60405180910390f35b6102c06109d5565b6040516102cd9190614e08565b60405180910390f35b6102f060048036038101906102eb9190614653565b6109f9565b6040516102fd9190614ded565b60405180910390f35b61030e610a17565b60405161031b9190615054565b60405180910390f35b61033e6004803603810190610339919061459f565b610a21565b60405161034b9190614ded565b60405180910390f35b61035c610a41565b6040516103699190614e08565b60405180910390f35b61038c60048036038101906103879190614604565b610a65565b6040516103999190614ded565b60405180910390f35b6103bc60048036038101906103b79190614795565b610d12565b6040516103c99190614e08565b60405180910390f35b6103da610d31565b6040516103e791906150b3565b60405180910390f35b61040a600480360381019061040591906147be565b610d36565b005b610414610dbf565b6040516104219190615054565b60405180910390f35b610432610dd0565b60405161043f91906150b3565b60405180910390f35b610462600480360381019061045d91906147be565b610de7565b005b61047e60048036038101906104799190614653565b610e80565b60405161048b9190614ded565b60405180910390f35b61049c610f33565b005b6104b860048036038101906104b39190614653565b610fbc565b6040516104c59190614ded565b60405180910390f35b6104e860048036038101906104e39190614836565b6110c1565b005b61050460048036038101906104ff919061459f565b61122a565b005b610520600480360381019061051b919061459f565b6112b5565b60405161052d9190614ded565b60405180910390f35b610550600480360381019061054b919061459f565b61130b565b60405161055d9190614da9565b60405180910390f35b610580600480360381019061057b919061459f565b61133e565b005b61058a61134b565b6040516105979190614ded565b60405180910390f35b6105ba60048036038101906105b5919061459f565b611362565b6040516105c7919061506f565b60405180910390f35b6105ea60048036038101906105e5919061459f565b611385565b6040516105f79190615054565b60405180910390f35b61061a6004803603810190610615919061459f565b6113ce565b005b61063660048036038101906106319190614653565b611511565b60405161064391906150ce565b60405180910390f35b61066660048036038101906106619190614653565b61191a565b005b610682600480360381019061067d919061459f565b611a85565b60405161068f9190615054565b60405180910390f35b6106a0611a9d565b6040516106ad9190614da9565b60405180910390f35b6106be611ac3565b005b6106da60048036038101906106d5919061459f565b611b4c565b005b6106f660048036038101906106f19190614754565b611bd7565b005b610700611cf0565b005b61071c600480360381019061071791906147fa565b611f9a565b6040516107299190614da9565b60405180910390f35b61074c600480360381019061074791906147be565b611fcb565b6040516107599190614ded565b60405180910390f35b61076a611ffc565b6040516107779190615054565b60405180910390f35b610788612002565b6040516107959190614ef2565b60405180910390f35b6107a66120a4565b6040516107b39190614e08565b60405180910390f35b6107d660048036038101906107d19190614653565b6120ab565b6040516107e39190614ded565b60405180910390f35b61080660048036038101906108019190614653565b612178565b6040516108139190614ded565b60405180910390f35b6108366004803603810190610831919061459f565b612423565b60405161084391906150ce565b60405180910390f35b6108666004803603810190610861919061468f565b612511565b005b610882600480360381019061087d9190614795565b6127a0565b60405161088f9190615054565b60405180910390f35b6108b260048036038101906108ad91906147be565b6127c6565b005b6108ce60048036038101906108c991906145c8565b61284f565b6040516108db9190615054565b60405180910390f35b6108ec6128d6565b6040516108f99190614e08565b60405180910390f35b61091c60048036038101906109179190614718565b6128fa565b60405161092a92919061508a565b60405180910390f35b606060058054600181600116156101000203166002900480601f0160208091040260200160405190810160405280929190818152602001828054600181600116156101000203166002900480156109cb5780601f106109a0576101008083540402835291602001916109cb565b820191906000526020600020905b8154815290600101906020018083116109ae57829003601f168201915b5050505050905090565b7f7b765e0e932d348852a6f810bfa1ab891e259123f02db8cdcde614c57022335781565b6000610a0d610a06612a0b565b8484612a13565b6001905092915050565b6000600454905090565b60016020528060005260406000206000915054906101000a900460ff1681565b7f8cad95687ba82c2ce50e74f7b754645e5117c3a5bec8151c0726d5857980a86681565b60008383610a766000801b83611fcb565b15610bc257600160008373ffffffffffffffffffffffffffffffffffffffff1673ffffffffffffffffffffffffffffffffffffffff16815260200190815260200160002060009054906101000a900460ff1615610b1e576040517f08c379a00000000000000000000000000000000000000000000000000000000081526004018080602001828103825260248152602001806155a76024913960400191505060405180910390fd5b600160008273ffffffffffffffffffffffffffffffffffffffff1673ffffffffffffffffffffffffffffffffffffffff16815260200190815260200160002060009054906101000a900460ff1615610bc1576040517f08c379a00000000000000000000000000000000000000000000000000000000081526004018080602001828103825260248152602001806155a76024913960400191505060405180910390fd5b5b843073ffffffffffffffffffffffffffffffffffffffff168173ffffffffffffffffffffffffffffffffffffffff161415610c32576040517f08c379a0000000000000000000000000000000000000000000000000000000008152600401610c2990615034565b60405180910390fd5b610cfb600860008973ffffffffffffffffffffffffffffffffffffffff1673ffffffffffffffffffffffffffffffffffffffff16815260200190815260200160002060009054906101000a900473ffffffffffffffffffffffffffffffffffffffff16600860008973ffffffffffffffffffffffffffffffffffffffff1673ffffffffffffffffffffffffffffffffffffffff16815260200190815260200160002060009054906101000a900473ffffffffffffffffffffffffffffffffffffffff1687612c0a565b610d06878787612f05565b93505050509392505050565b6000806000838152602001908152602001600020600201549050919050565b601281565b610d5c60008084815260200190815260200160002060020154610d57612a0b565b611fcb565b610db1576040517f08c379a000000000000000000000000000000000000000000000000000000000815260040180806020018281038252602f81526020018061536e602f913960400191505060405180910390fd5b610dbb8282612fde565b5050565b601260ff16600a0a630ee6b2800281565b6000600760009054906101000a900460ff16905090565b610def612a0b565b73ffffffffffffffffffffffffffffffffffffffff168173ffffffffffffffffffffffffffffffffffffffff1614610e72576040517f08c379a000000000000000000000000000000000000000000000000000000000815260040180806020018281038252602f815260200180615621602f913960400191505060405180910390fd5b610e7c8282613071565b5050565b6000610f29610e8d612a0b565b84610f248560036000610e9e612a0b565b73ffffffffffffffffffffffffffffffffffffffff1673ffffffffffffffffffffffffffffffffffffffff16815260200190815260200160002060008973ffffffffffffffffffffffffffffffffffffffff1673ffffffffffffffffffffffffffffffffffffffff1681526020019081526020016000205461295390919063ffffffff16565b612a13565b6001905092915050565b610f5d7f7b765e0e932d348852a6f810bfa1ab891e259123f02db8cdcde614c57022335733611fcb565b610fb2576040517f08c379a00000000000000000000000000000000000000000000000000000000081526004018080602001828103825260318152602001806155cb6031913960400191505060405180910390fd5b610fba613104565b565b6000610fe87f7b765e0e932d348852a6f810bfa1ab891e259123f02db8cdcde614c57022335733611fcb565b61103d576040517f08c379a00000000000000000000000000000000000000000000000000000000081526004018080602001828103825260318152602001806155cb6031913960400191505060405180910390fd5b600073ffffffffffffffffffffffffffffffffffffffff168373ffffffffffffffffffffffffffffffffffffffff1614156110ad576040517f08c379a00000000000000000000000000000000000000000000000000000000081526004016110a490614f94565b60405180910390fd5b6110b783836131ef565b6001905092915050565b33336110d06000801b83611fcb565b1561121c57600160008373ffffffffffffffffffffffffffffffffffffffff1673ffffffffffffffffffffffffffffffffffffffff16815260200190815260200160002060009054906101000a900460ff1615611178576040517f08c379a00000000000000000000000000000000000000000000000000000000081526004018080602001828103825260248152602001806155a76024913960400191505060405180910390fd5b600160008273ffffffffffffffffffffffffffffffffffffffff1673ffffffffffffffffffffffffffffffffffffffff16815260200190815260200160002060009054906101000a900460ff161561121b576040517f08c379a00000000000000000000000000000000000000000000000000000000081526004018080602001828103825260248152602001806155a76024913960400191505060405180910390fd5b5b611225836133b8565b505050565b6112547f7b765e0e932d348852a6f810bfa1ab891e259123f02db8cdcde614c57022335733611fcb565b6112a9576040517f08c379a00000000000000000000000000000000000000000000000000000000081526004018080602001828103825260318152602001806155cb6031913960400191505060405180910390fd5b6112b2816133cc565b50565b6000600160008373ffffffffffffffffffffffffffffffffffffffff1673ffffffffffffffffffffffffffffffffffffffff16815260200190815260200160002060009054906101000a900460ff169050919050565b60086020528060005260406000206000915054906101000a900473ffffffffffffffffffffffffffffffffffffffff1681565b6113483382613474565b50565b6000600760019054906101000a900460ff16905090565b600a6020528060005260406000206000915054906101000a900463ffffffff1681565b6000600260008373ffffffffffffffffffffffffffffffffffffffff1673ffffffffffffffffffffffffffffffffffffffff168152602001908152602001600020549050919050565b6113db6000801b33611fcb565b61141a576040517f08c379a000000000000000000000000000000000000000000000000000000000815260040161141190614f74565b60405180910390fd5b600073ffffffffffffffffffffffffffffffffffffffff168173ffffffffffffffffffffffffffffffffffffffff16141561148a576040517f08c379a000000000000000000000000000000000000000000000000000000000815260040161148190615014565b60405180910390fd5b80600c60006101000a81548173ffffffffffffffffffffffffffffffffffffffff021916908373ffffffffffffffffffffffffffffffffffffffff1602179055508073ffffffffffffffffffffffffffffffffffffffff167f53002f2ca3e2737f3405e7f734101551690f8426e082167285f3caa8e6c6a18260405160405180910390a250565b6000438210611555576040517f08c379a000000000000000000000000000000000000000000000000000000000815260040161154c90614fd4565b60405180910390fd5b6000600a60008573ffffffffffffffffffffffffffffffffffffffff1673ffffffffffffffffffffffffffffffffffffffff16815260200190815260200160002060009054906101000a900463ffffffff16905060008163ffffffff1614156115c2576000915050611914565b82600960008673ffffffffffffffffffffffffffffffffffffffff1673ffffffffffffffffffffffffffffffffffffffff16815260200190815260200160002060006001840363ffffffff1663ffffffff16815260200190815260200160002060000160009054906101000a900463ffffffff1663ffffffff16116116c457600960008573ffffffffffffffffffffffffffffffffffffffff1673ffffffffffffffffffffffffffffffffffffffff16815260200190815260200160002060006001830363ffffffff1663ffffffff16815260200190815260200160002060000160049054906101000a90046bffffffffffffffffffffffff16915050611914565b82600960008673ffffffffffffffffffffffffffffffffffffffff1673ffffffffffffffffffffffffffffffffffffffff16815260200190815260200160002060008063ffffffff16815260200190815260200160002060000160009054906101000a900463ffffffff1663ffffffff161115611745576000915050611914565b6000806001830390505b8163ffffffff168163ffffffff161115611896576000600283830363ffffffff168161177757fe5b04820390506000600960008973ffffffffffffffffffffffffffffffffffffffff1673ffffffffffffffffffffffffffffffffffffffff16815260200190815260200160002060008363ffffffff1663ffffffff1681526020019081526020016000206040518060400160405290816000820160009054906101000a900463ffffffff1663ffffffff1663ffffffff1681526020016000820160049054906101000a90046bffffffffffffffffffffffff166bffffffffffffffffffffffff166bffffffffffffffffffffffff1681525050905086816000015163ffffffff16141561186e57806020015195505050505050611914565b86816000015163ffffffff1610156118885781935061188f565b6001820392505b505061174f565b600960008773ffffffffffffffffffffffffffffffffffffffff1673ffffffffffffffffffffffffffffffffffffffff16815260200190815260200160002060008363ffffffff1663ffffffff16815260200190815260200160002060000160049054906101000a90046bffffffffffffffffffffffff1693505050505b92915050565b33336119296000801b83611fcb565b15611a7557600160008373ffffffffffffffffffffffffffffffffffffffff1673ffffffffffffffffffffffffffffffffffffffff16815260200190815260200160002060009054906101000a900460ff16156119d1576040517f08c379a00000000000000000000000000000000000000000000000000000000081526004018080602001828103825260248152602001806155a76024913960400191505060405180910390fd5b600160008273ffffffffffffffffffffffffffffffffffffffff1673ffffffffffffffffffffffffffffffffffffffff16815260200190815260200160002060009054906101000a900460ff1615611a74576040517f08c379a00000000000000000000000000000000000000000000000000000000081526004018080602001828103825260248152602001806155a76024913960400191505060405180910390fd5b5b611a7f84846135e5565b50505050565b600b6020528060005260406000206000915090505481565b600c60009054906101000a900473ffffffffffffffffffffffffffffffffffffffff1681565b611aed7f7b765e0e932d348852a6f810bfa1ab891e259123f02db8cdcde614c57022335733611fcb565b611b42576040517f08c379a00000000000000000000000000000000000000000000000000000000081526004018080602001828103825260318152602001806155cb6031913960400191505060405180910390fd5b611b4a613647565b565b611b767f7b765e0e932d348852a6f810bfa1ab891e259123f02db8cdcde614c57022335733611fcb565b611bcb576040517f08c379a00000000000000000000000000000000000000000000000000000000081526004018080602001828103825260318152602001806155cb6031913960400191505060405180910390fd5b611bd481613733565b50565b611c017f7b765e0e932d348852a6f810bfa1ab891e259123f02db8cdcde614c57022335733611fcb565b611c56576040517f08c379a00000000000000000000000000000000000000000000000000000000081526004018080602001828103825260318152602001806155cb6031913960400191505060405180910390fd5b600081519050610100811115611cb7576040517f08c379a000000000000000000000000000000000000000000000000000000000815260040180806020018281038252602581526020018061540f6025913960400191505060405180910390fd5b60005b81811015611ceb57611cde838281518110611cd157fe5b6020026020010151613733565b8080600101915050611cba565b505050565b611cf861134b565b15611d6b576040517f08c379a00000000000000000000000000000000000000000000000000000000081526004018080602001828103825260108152602001807f5061757361626c653a207061757365640000000000000000000000000000000081525060200191505060405180910390fd5b6000611d7633611385565b9050600073ffffffffffffffffffffffffffffffffffffffff16600c60009054906101000a900473ffffffffffffffffffffffffffffffffffffffff1673ffffffffffffffffffffffffffffffffffffffff161415611e0a576040517f08c379a0000000000000000000000000000000000000000000000000000000008152600401611e0190614ff4565b60405180910390fd5b60008111611e4d576040517f08c379a0000000000000000000000000000000000000000000000000000000008152600401611e4490614f34565b60405180910390fd5b611e5633613733565b611e6833611e6333611385565b6137da565b80600d60008282540192505081905550600c60009054906101000a900473ffffffffffffffffffffffffffffffffffffffff1673ffffffffffffffffffffffffffffffffffffffff16637a3130e333836040518363ffffffff1660e01b8152600401611ed5929190614dc4565b600060405180830381600087803b158015611eef57600080fd5b505af1158015611f03573d6000803e3d6000fd5b50505050611f10336133cc565b600c60009054906101000a900473ffffffffffffffffffffffffffffffffffffffff1673ffffffffffffffffffffffffffffffffffffffff163373ffffffffffffffffffffffffffffffffffffffff167f18df02dcc52b9c494f391df09661519c0069bd8540141946280399408205ca1a83604051611f8f9190615054565b60405180910390a350565b6000611fc3826000808681526020019081526020016000206000016139a090919063ffffffff16565b905092915050565b6000611ff4826000808681526020019081526020016000206000016139ba90919063ffffffff16565b905092915050565b600d5481565b606060068054600181600116156101000203166002900480601f01602080910402602001604051908101604052809291908181526020018280546001816001161561010002031660029004801561209a5780601f1061206f5761010080835404028352916020019161209a565b820191906000526020600020905b81548152906001019060200180831161207d57829003601f168201915b5050505050905090565b6000801b81565b600061216e6120b8612a0b565b84612169856040518060600160405280602581526020016155fc60259139600360006120e2612a0b565b73ffffffffffffffffffffffffffffffffffffffff1673ffffffffffffffffffffffffffffffffffffffff16815260200190815260200160002060008a73ffffffffffffffffffffffffffffffffffffffff1673ffffffffffffffffffffffffffffffffffffffff168152602001908152602001600020546139ea9092919063ffffffff16565b612a13565b6001905092915050565b600033836121896000801b83611fcb565b156122d557600160008373ffffffffffffffffffffffffffffffffffffffff1673ffffffffffffffffffffffffffffffffffffffff16815260200190815260200160002060009054906101000a900460ff1615612231576040517f08c379a00000000000000000000000000000000000000000000000000000000081526004018080602001828103825260248152602001806155a76024913960400191505060405180910390fd5b600160008273ffffffffffffffffffffffffffffffffffffffff1673ffffffffffffffffffffffffffffffffffffffff16815260200190815260200160002060009054906101000a900460ff16156122d4576040517f08c379a00000000000000000000000000000000000000000000000000000000081526004018080602001828103825260248152602001806155a76024913960400191505060405180910390fd5b5b843073ffffffffffffffffffffffffffffffffffffffff168173ffffffffffffffffffffffffffffffffffffffff161415612345576040517f08c379a000000000000000000000000000000000000000000000000000000000815260040161233c90615034565b60405180910390fd5b61240e600860003373ffffffffffffffffffffffffffffffffffffffff1673ffffffffffffffffffffffffffffffffffffffff16815260200190815260200160002060009054906101000a900473ffffffffffffffffffffffffffffffffffffffff16600860008973ffffffffffffffffffffffffffffffffffffffff1673ffffffffffffffffffffffffffffffffffffffff16815260200190815260200160002060009054906101000a900473ffffffffffffffffffffffffffffffffffffffff1687612c0a565b6124188686613aa4565b935050505092915050565b600080600a60008473ffffffffffffffffffffffffffffffffffffffff1673ffffffffffffffffffffffffffffffffffffffff16815260200190815260200160002060009054906101000a900463ffffffff16905060008163ffffffff161161248d576000612509565b600960008473ffffffffffffffffffffffffffffffffffffffff1673ffffffffffffffffffffffffffffffffffffffff16815260200190815260200160002060006001830363ffffffff1663ffffffff16815260200190815260200160002060000160049054906101000a90046bffffffffffffffffffffffff165b915050919050565b60007f8cad95687ba82c2ce50e74f7b754645e5117c3a5bec8151c0726d5857980a86661253c610933565b8051906020012061254b613ac2565b3060405160200161255f9493929190614e68565b60405160208183030381529060405280519060200120905060007fe48329057bfd03d55e49b547132e39cffd9c1820ad7b9d4c5307691425d15adf8888886040516020016125b09493929190614e23565b604051602081830303815290604052805190602001209050600082826040516020016125dd929190614d72565b60405160208183030381529060405280519060200120905060006001828888886040516000815260200160405260405161261a9493929190614ead565b6020604051602081039080840390855afa15801561263c573d6000803e3d6000fd5b505050602060405103519050600073ffffffffffffffffffffffffffffffffffffffff168173ffffffffffffffffffffffffffffffffffffffff1614156126b8576040517f08c379a00000000000000000000000000000000000000000000000000000000081526004016126af90614f54565b60405180910390fd5b600b60008273ffffffffffffffffffffffffffffffffffffffff1673ffffffffffffffffffffffffffffffffffffffff1681526020019081526020016000206000815480929190600101919050558914612747576040517f08c379a000000000000000000000000000000000000000000000000000000000815260040161273e90614fb4565b60405180910390fd5b8742111561278a576040517f08c379a000000000000000000000000000000000000000000000000000000000815260040161278190614f14565b60405180910390fd5b612794818b613474565b50505050505050505050565b60006127bf600080848152602001908152602001600020600001613acf565b9050919050565b6127ec600080848152602001908152602001600020600201546127e7612a0b565b611fcb565b612841576040517f08c379a000000000000000000000000000000000000000000000000000000000815260040180806020018281038252603081526020018061545a6030913960400191505060405180910390fd5b61284b8282613071565b5050565b6000600360008473ffffffffffffffffffffffffffffffffffffffff1673ffffffffffffffffffffffffffffffffffffffff16815260200190815260200160002060008373ffffffffffffffffffffffffffffffffffffffff1673ffffffffffffffffffffffffffffffffffffffff16815260200190815260200160002054905092915050565b7fe48329057bfd03d55e49b547132e39cffd9c1820ad7b9d4c5307691425d15adf81565b6009602052816000526040600020602052806000526040600020600091509150508060000160009054906101000a900463ffffffff16908060000160049054906101000a90046bffffffffffffffffffffffff16905082565b6000808284019050838110156129d1576040517f08c379a000000000000000000000000000000000000000000000000000000000815260040180806020018281038252601b8152602001807f536166654d6174683a206164646974696f6e206f766572666c6f77000000000081525060200191505060405180910390fd5b8091505092915050565b6000612a03836000018373ffffffffffffffffffffffffffffffffffffffff1660001b613ae4565b905092915050565b600033905090565b600073ffffffffffffffffffffffffffffffffffffffff168373ffffffffffffffffffffffffffffffffffffffff161415612a99576040517f08c379a00000000000000000000000000000000000000000000000000000000081526004018080602001828103825260248152602001806155836024913960400191505060405180910390fd5b600073ffffffffffffffffffffffffffffffffffffffff168273ffffffffffffffffffffffffffffffffffffffff161415612b1f576040517f08c379a00000000000000000000000000000000000000000000000000000000081526004018080602001828103825260228152602001806153bf6022913960400191505060405180910390fd5b80600360008573ffffffffffffffffffffffffffffffffffffffff1673ffffffffffffffffffffffffffffffffffffffff16815260200190815260200160002060008473ffffffffffffffffffffffffffffffffffffffff1673ffffffffffffffffffffffffffffffffffffffff168152602001908152602001600020819055508173ffffffffffffffffffffffffffffffffffffffff168373ffffffffffffffffffffffffffffffffffffffff167f8c5be1e5ebec7d5bd14f71427d1e84f3dd0314c0f7b2291e5b200ac8c7c3b925836040518082815260200191505060405180910390a3505050565b8173ffffffffffffffffffffffffffffffffffffffff168373ffffffffffffffffffffffffffffffffffffffff1614158015612c5457506000816bffffffffffffffffffffffff16115b15612f0057600073ffffffffffffffffffffffffffffffffffffffff168373ffffffffffffffffffffffffffffffffffffffff1614612dac576000600a60008573ffffffffffffffffffffffffffffffffffffffff1673ffffffffffffffffffffffffffffffffffffffff16815260200190815260200160002060009054906101000a900463ffffffff1690506000808263ffffffff1611612cf7576000612d73565b600960008673ffffffffffffffffffffffffffffffffffffffff1673ffffffffffffffffffffffffffffffffffffffff16815260200190815260200160002060006001840363ffffffff1663ffffffff16815260200190815260200160002060000160049054906101000a90046bffffffffffffffffffffffff165b90506000612d9a82856040518060600160405280602e81526020016153e1602e9139613b54565b9050612da886848484613bc5565b5050505b600073ffffffffffffffffffffffffffffffffffffffff168273ffffffffffffffffffffffffffffffffffffffff1614612eff576000600a60008473ffffffffffffffffffffffffffffffffffffffff1673ffffffffffffffffffffffffffffffffffffffff16815260200190815260200160002060009054906101000a900463ffffffff1690506000808263ffffffff1611612e4a576000612ec6565b600960008573ffffffffffffffffffffffffffffffffffffffff1673ffffffffffffffffffffffffffffffffffffffff16815260200190815260200160002060006001840363ffffffff1663ffffffff16815260200190815260200160002060000160049054906101000a90046bffffffffffffffffffffffff165b90506000612eed82856040518060600160405280602d8152602001615556602d9139613eb8565b9050612efb85848484613bc5565b5050505b5b505050565b6000612f12848484613f2e565b612fd384612f1e612a0b565b612fce8560405180606001604052806028815260200161548a60289139600360008b73ffffffffffffffffffffffffffffffffffffffff1673ffffffffffffffffffffffffffffffffffffffff1681526020019081526020016000206000612f84612a0b565b73ffffffffffffffffffffffffffffffffffffffff1673ffffffffffffffffffffffffffffffffffffffff168152602001908152602001600020546139ea9092919063ffffffff16565b612a13565b600190509392505050565b613005816000808581526020019081526020016000206000016129db90919063ffffffff16565b1561306d57613012612a0b565b73ffffffffffffffffffffffffffffffffffffffff168173ffffffffffffffffffffffffffffffffffffffff16837f2f8788117e7eff1d82e926ec794901d17c78024a50270940304540a733656f0d60405160405180910390a45b5050565b613098816000808581526020019081526020016000206000016141f390919063ffffffff16565b15613100576130a5612a0b565b73ffffffffffffffffffffffffffffffffffffffff168173ffffffffffffffffffffffffffffffffffffffff16837ff6391f5c32d9c69d2a47ea670b442974b53935d1edc7fd64eb21e047a839171b60405160405180910390a45b5050565b61310c61134b565b61317e576040517f08c379a00000000000000000000000000000000000000000000000000000000081526004018080602001828103825260148152602001807f5061757361626c653a206e6f742070617573656400000000000000000000000081525060200191505060405180910390fd5b6000600760016101000a81548160ff0219169083151502179055507f5db9ee0a495bf2e6ff9c91a7834c1ba4fdd244a5e8aa4e537bd38aeae4b073aa6131c2612a0b565b604051808273ffffffffffffffffffffffffffffffffffffffff16815260200191505060405180910390a1565b600073ffffffffffffffffffffffffffffffffffffffff168273ffffffffffffffffffffffffffffffffffffffff161415613292576040517f08c379a000000000000000000000000000000000000000000000000000000000815260040180806020018281038252601f8152602001807f45524332303a206d696e7420746f20746865207a65726f20616464726573730081525060200191505060405180910390fd5b61329e60008383614223565b6132b38160045461295390919063ffffffff16565b60048190555061330b81600260008573ffffffffffffffffffffffffffffffffffffffff1673ffffffffffffffffffffffffffffffffffffffff1681526020019081526020016000205461295390919063ffffffff16565b600260008473ffffffffffffffffffffffffffffffffffffffff1673ffffffffffffffffffffffffffffffffffffffff168152602001908152602001600020819055508173ffffffffffffffffffffffffffffffffffffffff16600073ffffffffffffffffffffffffffffffffffffffff167fddf252ad1be2c89b69c2b068fc378daa952ba7f163c4a11628f55a4df523b3ef836040518082815260200191505060405180910390a35050565b6133c96133c3612a0b565b826137da565b50565b6000600160008373ffffffffffffffffffffffffffffffffffffffff1673ffffffffffffffffffffffffffffffffffffffff16815260200190815260200160002060006101000a81548160ff0219169083151502179055507f6134e30ca79f58d7566528b3768c7d33c9c30815c63cfeae3b69f52cf31dd61a81604051808273ffffffffffffffffffffffffffffffffffffffff16815260200191505060405180910390a150565b6000600860008473ffffffffffffffffffffffffffffffffffffffff1673ffffffffffffffffffffffffffffffffffffffff16815260200190815260200160002060009054906101000a900473ffffffffffffffffffffffffffffffffffffffff16905060006134e384611385565b905082600860008673ffffffffffffffffffffffffffffffffffffffff1673ffffffffffffffffffffffffffffffffffffffff16815260200190815260200160002060006101000a81548173ffffffffffffffffffffffffffffffffffffffff021916908373ffffffffffffffffffffffffffffffffffffffff1602179055508273ffffffffffffffffffffffffffffffffffffffff168273ffffffffffffffffffffffffffffffffffffffff168573ffffffffffffffffffffffffffffffffffffffff167f3134e8a2e6d97e929a7e54011ea5485d7d196dd5f0ba4d4ef95803e8e3fc257f60405160405180910390a46135df828483612c0a565b50505050565b6000613624826040518060600160405280602481526020016154b26024913961361586613610612a0b565b61284f565b6139ea9092919063ffffffff16565b905061363883613632612a0b565b83612a13565b61364283836137da565b505050565b61364f61134b565b156136c2576040517f08c379a00000000000000000000000000000000000000000000000000000000081526004018080602001828103825260108152602001807f5061757361626c653a207061757365640000000000000000000000000000000081525060200191505060405180910390fd5b6001600760016101000a81548160ff0219169083151502179055507f62e78cea01bee320cd4e420270b5ea74000d11b0c9f74754ebdbfc544b05a258613706612a0b565b604051808273ffffffffffffffffffffffffffffffffffffffff16815260200191505060405180910390a1565b60018060008373ffffffffffffffffffffffffffffffffffffffff1673ffffffffffffffffffffffffffffffffffffffff16815260200190815260200160002060006101000a81548160ff0219169083151502179055507f1b6f28dfffb89ba40ba9067329c3c0e8bd926256b970cf7d060cd48b1cd0e44e81604051808273ffffffffffffffffffffffffffffffffffffffff16815260200191505060405180910390a150565b600073ffffffffffffffffffffffffffffffffffffffff168273ffffffffffffffffffffffffffffffffffffffff161415613860576040517f08c379a00000000000000000000000000000000000000000000000000000000081526004018080602001828103825260218152602001806155106021913960400191505060405180910390fd5b61386c82600083614223565b6138d88160405180606001604052806022815260200161539d60229139600260008673ffffffffffffffffffffffffffffffffffffffff1673ffffffffffffffffffffffffffffffffffffffff168152602001908152602001600020546139ea9092919063ffffffff16565b600260008473ffffffffffffffffffffffffffffffffffffffff1673ffffffffffffffffffffffffffffffffffffffff168152602001908152602001600020819055506139308160045461422890919063ffffffff16565b600481905550600073ffffffffffffffffffffffffffffffffffffffff168273ffffffffffffffffffffffffffffffffffffffff167fddf252ad1be2c89b69c2b068fc378daa952ba7f163c4a11628f55a4df523b3ef836040518082815260200191505060405180910390a35050565b60006139af83600001836142ab565b60001c905092915050565b60006139e2836000018373ffffffffffffffffffffffffffffffffffffffff1660001b61432e565b905092915050565b6000838311158290613a97576040517f08c379a00000000000000000000000000000000000000000000000000000000081526004018080602001828103825283818151815260200191508051906020019080838360005b83811015613a5c578082015181840152602081019050613a41565b50505050905090810190601f168015613a895780820380516001836020036101000a031916815260200191505b509250505060405180910390fd5b5082840390509392505050565b6000613ab8613ab1612a0b565b8484613f2e565b6001905092915050565b6000804690508091505090565b6000613add82600001614351565b9050919050565b6000613af0838361432e565b613b49578260000182908060018154018082558091505060019003906000526020600020016000909190919091505582600001805490508360010160008481526020019081526020016000208190555060019050613b4e565b600090505b92915050565b6000836bffffffffffffffffffffffff16836bffffffffffffffffffffffff1611158290613bb8576040517f08c379a0000000000000000000000000000000000000000000000000000000008152600401613baf9190614ef2565b60405180910390fd5b5082840390509392505050565b6000613be9436040518060600160405280603a81526020016154d6603a9139614362565b905060008463ffffffff16118015613c7e57508063ffffffff16600960008773ffffffffffffffffffffffffffffffffffffffff1673ffffffffffffffffffffffffffffffffffffffff16815260200190815260200160002060006001870363ffffffff1663ffffffff16815260200190815260200160002060000160009054906101000a900463ffffffff1663ffffffff16145b15613d195781600960008773ffffffffffffffffffffffffffffffffffffffff1673ffffffffffffffffffffffffffffffffffffffff16815260200190815260200160002060006001870363ffffffff1663ffffffff16815260200190815260200160002060000160046101000a8154816bffffffffffffffffffffffff02191690836bffffffffffffffffffffffff160217905550613e61565b60405180604001604052808263ffffffff168152602001836bffffffffffffffffffffffff16815250600960008773ffffffffffffffffffffffffffffffffffffffff1673ffffffffffffffffffffffffffffffffffffffff16815260200190815260200160002060008663ffffffff1663ffffffff16815260200190815260200160002060008201518160000160006101000a81548163ffffffff021916908363ffffffff16021790555060208201518160000160046101000a8154816bffffffffffffffffffffffff02191690836bffffffffffffffffffffffff16021790555090505060018401600a60008773ffffffffffffffffffffffffffffffffffffffff1673ffffffffffffffffffffffffffffffffffffffff16815260200190815260200160002060006101000a81548163ffffffff021916908363ffffffff1602179055505b8473ffffffffffffffffffffffffffffffffffffffff167fdec2bacdd2f05b59de34da9b523dff8be42e5e38e818c82fdb0bae774387a7248484604051613ea99291906150e9565b60405180910390a25050505050565b6000808385019050846bffffffffffffffffffffffff16816bffffffffffffffffffffffff1610158390613f22576040517f08c379a0000000000000000000000000000000000000000000000000000000008152600401613f199190614ef2565b60405180910390fd5b50809150509392505050565b600073ffffffffffffffffffffffffffffffffffffffff168373ffffffffffffffffffffffffffffffffffffffff161415613fb4576040517f08c379a00000000000000000000000000000000000000000000000000000000081526004018080602001828103825260258152602001806155316025913960400191505060405180910390fd5b600073ffffffffffffffffffffffffffffffffffffffff168273ffffffffffffffffffffffffffffffffffffffff16141561403a576040517f08c379a000000000000000000000000000000000000000000000000000000000815260040180806020018281038252602381526020018061534b6023913960400191505060405180910390fd5b614045838383614223565b6140b18160405180606001604052806026815260200161543460269139600260008773ffffffffffffffffffffffffffffffffffffffff1673ffffffffffffffffffffffffffffffffffffffff168152602001908152602001600020546139ea9092919063ffffffff16565b600260008573ffffffffffffffffffffffffffffffffffffffff1673ffffffffffffffffffffffffffffffffffffffff1681526020019081526020016000208190555061414681600260008573ffffffffffffffffffffffffffffffffffffffff1673ffffffffffffffffffffffffffffffffffffffff1681526020019081526020016000205461295390919063ffffffff16565b600260008473ffffffffffffffffffffffffffffffffffffffff1673ffffffffffffffffffffffffffffffffffffffff168152602001908152602001600020819055508173ffffffffffffffffffffffffffffffffffffffff168373ffffffffffffffffffffffffffffffffffffffff167fddf252ad1be2c89b69c2b068fc378daa952ba7f163c4a11628f55a4df523b3ef836040518082815260200191505060405180910390a3505050565b600061421b836000018373ffffffffffffffffffffffffffffffffffffffff1660001b6143b8565b905092915050565b505050565b6000828211156142a0576040517f08c379a000000000000000000000000000000000000000000000000000000000815260040180806020018281038252601e8152602001807f536166654d6174683a207375627472616374696f6e206f766572666c6f77000081525060200191505060405180910390fd5b818303905092915050565b60008183600001805490501161430c576040517f08c379a00000000000000000000000000000000000000000000000000000000081526004018080602001828103825260228152602001806153296022913960400191505060405180910390fd5b82600001828154811061431b57fe5b9060005260206000200154905092915050565b600080836001016000848152602001908152602001600020541415905092915050565b600081600001805490509050919050565b6000640100000000831082906143ae576040517f08c379a00000000000000000000000000000000000000000000000000000000081526004016143a59190614ef2565b60405180910390fd5b5082905092915050565b60008083600101600084815260200190815260200160002054905060008114614494576000600182039050600060018660000180549050039050600086600001828154811061440357fe5b906000526020600020015490508087600001848154811061442057fe5b906000526020600020018190555060018301876001016000838152602001908152602001600020819055508660000180548061445857fe5b6001900381819060005260206000200160009055905586600101600087815260200190815260200160002060009055600194505050505061449a565b60009150505b92915050565b60006144b36144ae84615143565b615112565b905080838252602082019050828560208602820111156144d257600080fd5b60005b8581101561450257816144e8888261450c565b8452602084019350602083019250506001810190506144d5565b5050509392505050565b60008135905061451b816152b5565b92915050565b600082601f83011261453257600080fd5b81356145428482602086016144a0565b91505092915050565b60008135905061455a816152cc565b92915050565b60008135905061456f816152e3565b92915050565b600081359050614584816152fa565b92915050565b60008135905061459981615311565b92915050565b6000602082840312156145b157600080fd5b60006145bf8482850161450c565b91505092915050565b600080604083850312156145db57600080fd5b60006145e98582860161450c565b92505060206145fa8582860161450c565b9150509250929050565b60008060006060848603121561461957600080fd5b60006146278682870161450c565b93505060206146388682870161450c565b925050604061464986828701614560565b9150509250925092565b6000806040838503121561466657600080fd5b60006146748582860161450c565b925050602061468585828601614560565b9150509250929050565b60008060008060008060c087890312156146a857600080fd5b60006146b689828a0161450c565b96505060206146c789828a01614560565b95505060406146d889828a01614560565b94505060606146e989828a0161458a565b93505060806146fa89828a0161454b565b92505060a061470b89828a0161454b565b9150509295509295509295565b6000806040838503121561472b57600080fd5b60006147398582860161450c565b925050602061474a85828601614575565b9150509250929050565b60006020828403121561476657600080fd5b600082013567ffffffffffffffff81111561478057600080fd5b61478c84828501614521565b91505092915050565b6000602082840312156147a757600080fd5b60006147b58482850161454b565b91505092915050565b600080604083850312156147d157600080fd5b60006147df8582860161454b565b92505060206147f08582860161450c565b9150509250929050565b6000806040838503121561480d57600080fd5b600061481b8582860161454b565b925050602061482c85828601614560565b9150509250929050565b60006020828403121561484857600080fd5b600061485684828501614560565b91505092915050565b6148688161521d565b82525050565b61487781615196565b82525050565b614886816151a8565b82525050565b614895816151b4565b82525050565b6148ac6148a7826151b4565b615298565b82525050565b60006148bd8261516f565b6148c7818561517a565b93506148d7818560208601615265565b6148e0816152a4565b840191505092915050565b60006148f8602c8361517a565b91507f6175646974546f6b656e3a3a64656c656761746542795369673a207369676e6160008301527f74757265206578706972656400000000000000000000000000000000000000006020830152604082019050919050565b600061495e602c8361517a565b91507f546f6b656e3a6d696772617465202d20416d6f756e74206f6620746f6b656e7360008301527f20697320726571756972656400000000000000000000000000000000000000006020830152604082019050919050565b60006149c460028361518b565b91507f19010000000000000000000000000000000000000000000000000000000000006000830152600282019050919050565b6000614a04602c8361517a565b91507f6175646974546f6b656e3a3a64656c656761746542795369673a20696e76616c60008301527f6964207369676e617475726500000000000000000000000000000000000000006020830152604082019050919050565b6000614a6a603f8361517a565b91507f4175646974546f6b656e2d7365744d6967726174696f6e4167656e743a204f6e60008301527f6c792061646d696e2063616e2063616c6c20746869732066756e6374696f6e006020830152604082019050919050565b6000614ad060298361517a565b91507f546f6b656e3a6d696e74202d20526563697069656e742061646472657373206360008301527f616e2774206265203000000000000000000000000000000000000000000000006020830152604082019050919050565b6000614b3660288361517a565b91507f6175646974546f6b656e3a3a64656c656761746542795369673a20696e76616c60008301527f6964206e6f6e63650000000000000000000000000000000000000000000000006020830152604082019050919050565b6000614b9c602d8361517a565b91507f6175646974546f6b656e3a3a6765745072696f72566f7465733a206e6f74207960008301527f65742064657465726d696e6564000000000000000000000000000000000000006020830152604082019050919050565b6000614c02602d8361517a565b91507f546f6b656e3a6d696772617465202d20456e746572206d6967726174696f6e2060008301527f6167656e742061646472657373000000000000000000000000000000000000006020830152604082019050919050565b6000614c6860348361517a565b91507f546f6b656e3a7365744d6967726174696f6e4167656e74202d204d696772617460008301527f696f6e206167656e742063616e277420626520300000000000000000000000006020830152604082019050919050565b6000614cce60348361517a565b91507f596f752061726520747279696e6720746f2073656e6420746f6b656e7320746f60008301527f207468697320746f6b656e20636f6e74726163740000000000000000000000006020830152604082019050919050565b614d30816151de565b82525050565b614d3f816151e8565b82525050565b614d4e816151f8565b82525050565b614d5d81615253565b82525050565b614d6c81615205565b82525050565b6000614d7d826149b7565b9150614d89828561489b565b602082019150614d99828461489b565b6020820191508190509392505050565b6000602082019050614dbe600083018461486e565b92915050565b6000604082019050614dd9600083018561485f565b614de66020830184614d27565b9392505050565b6000602082019050614e02600083018461487d565b92915050565b6000602082019050614e1d600083018461488c565b92915050565b6000608082019050614e38600083018761488c565b614e45602083018661486e565b614e526040830185614d27565b614e5f6060830184614d27565b95945050505050565b6000608082019050614e7d600083018761488c565b614e8a602083018661488c565b614e976040830185614d27565b614ea4606083018461486e565b95945050505050565b6000608082019050614ec2600083018761488c565b614ecf6020830186614d45565b614edc604083018561488c565b614ee9606083018461488c565b95945050505050565b60006020820190508181036000830152614f0c81846148b2565b905092915050565b60006020820190508181036000830152614f2d816148eb565b9050919050565b60006020820190508181036000830152614f4d81614951565b9050919050565b60006020820190508181036000830152614f6d816149f7565b9050919050565b60006020820190508181036000830152614f8d81614a5d565b9050919050565b60006020820190508181036000830152614fad81614ac3565b9050919050565b60006020820190508181036000830152614fcd81614b29565b9050919050565b60006020820190508181036000830152614fed81614b8f565b9050919050565b6000602082019050818103600083015261500d81614bf5565b9050919050565b6000602082019050818103600083015261502d81614c5b565b9050919050565b6000602082019050818103600083015261504d81614cc1565b9050919050565b60006020820190506150696000830184614d27565b92915050565b60006020820190506150846000830184614d36565b92915050565b600060408201905061509f6000830185614d36565b6150ac6020830184614d63565b9392505050565b60006020820190506150c86000830184614d45565b92915050565b60006020820190506150e36000830184614d63565b92915050565b60006040820190506150fe6000830185614d54565b61510b6020830184614d54565b9392505050565b6000604051905081810181811067ffffffffffffffff82111715615139576151386152a2565b5b8060405250919050565b600067ffffffffffffffff82111561515e5761515d6152a2565b5b602082029050602081019050919050565b600081519050919050565b600082825260208201905092915050565b600081905092915050565b60006151a1826151be565b9050919050565b60008115159050919050565b6000819050919050565b600073ffffffffffffffffffffffffffffffffffffffff82169050919050565b6000819050919050565b600063ffffffff82169050919050565b600060ff82169050919050565b60006bffffffffffffffffffffffff82169050919050565b60006152288261522f565b9050919050565b600061523a82615241565b9050919050565b600061524c826151be565b9050919050565b600061525e82615205565b9050919050565b60005b83811015615283578082015181840152602081019050615268565b83811115615292576000848401525b50505050565b6000819050919050565bfe5b6000601f19601f8301169050919050565b6152be81615196565b81146152c957600080fd5b50565b6152d5816151b4565b81146152e057600080fd5b50565b6152ec816151de565b81146152f757600080fd5b50565b615303816151e8565b811461530e57600080fd5b50565b61531a816151f8565b811461532557600080fd5b5056fe456e756d657261626c655365743a20696e646578206f7574206f6620626f756e647345524332303a207472616e7366657220746f20746865207a65726f2061646472657373416363657373436f6e74726f6c3a2073656e646572206d75737420626520616e2061646d696e20746f206772616e7445524332303a206275726e20616d6f756e7420657863656564732062616c616e636545524332303a20617070726f766520746f20746865207a65726f20616464726573736175646974546f6b656e3a3a5f6d6f7665566f7465733a20766f746520616d6f756e7420756e646572666c6f77734c6f636b65642d6164644c6f636b4d756c7469706c653a204c69737420746f6f206c6f6e6745524332303a207472616e7366657220616d6f756e7420657863656564732062616c616e6365416363657373436f6e74726f6c3a2073656e646572206d75737420626520616e2061646d696e20746f207265766f6b6545524332303a207472616e7366657220616d6f756e74206578636565647320616c6c6f77616e636545524332303a206275726e20616d6f756e74206578636565647320616c6c6f77616e63656175646974546f6b656e3a3a5f7772697465436865636b706f696e743a20626c6f636b206e756d6265722065786365656473203332206269747345524332303a206275726e2066726f6d20746865207a65726f206164647265737345524332303a207472616e736665722066726f6d20746865207a65726f20616464726573736175646974546f6b656e3a3a5f6d6f7665566f7465733a20766f746520616d6f756e74206f766572666c6f777345524332303a20617070726f76652066726f6d20746865207a65726f20616464726573734c6f636b65643a3a69734e6f744c6f636b6564202d2055736572206973206c6f636b65644c6f636b65643a3a6973436f6e74726f6c6c6572202d2043616c6c6572206973206e6f74206120636f6e74726f6c6c657245524332303a2064656372656173656420616c6c6f77616e63652062656c6f77207a65726f416363657373436f6e74726f6c3a2063616e206f6e6c792072656e6f756e636520726f6c657320666f722073656c66a26469706673582212208de2d14b5710300dc788b319793b9b3c3fad688e3711d293b37e1ea3b8dc875e64736f6c63430007060033",
  "immutableReferences": {},
  "source": "// SPDX-License-Identifier: MIT\r\n\r\npragma solidity =0.7.6;\r\npragma experimental ABIEncoderV2;\r\n\r\nimport \"@openzeppelin/contracts/token/ERC20/ERC20Burnable.sol\";\r\nimport \"@openzeppelin/contracts/utils/Pausable.sol\";\r\nimport \"@openzeppelin/contracts/token/ERC20/ERC20.sol\";\r\nimport \"@openzeppelin/contracts/token/ERC20/ERC20Burnable.sol\";\r\nimport \"./MigrationAgent.sol\";\r\nimport \"./Locked.sol\";\r\n\r\ncontract AuditToken is Locked, ERC20, Pausable, ERC20Burnable{\r\n      \r\n    /// @notice A record of each accounts delegate\r\n    mapping (address => address) public delegates;\r\n\r\n    /// @notice A checkpoint for marking number of votes from a given block\r\n    struct Checkpoint {\r\n        uint32 fromBlock;\r\n        uint96 votes;\r\n    }\r\n\r\n    /// @notice A record of votes checkpoints for each account, by index\r\n    mapping (address => mapping (uint32 => Checkpoint)) public checkpoints;\r\n\r\n    /// @notice The number of checkpoints for each account\r\n    mapping (address => uint32) public numCheckpoints;\r\n\r\n    /// @notice The EIP-712 typehash for the contract's domain\r\n    bytes32 public constant DOMAIN_TYPEHASH = keccak256(\"EIP712Domain(string name,uint256 chainId,address verifyingContract)\");\r\n\r\n    /// @notice The EIP-712 typehash for the delegation struct used by the contract\r\n    bytes32 public constant DELEGATION_TYPEHASH = keccak256(\"Delegation(address delegatee,uint256 nonce,uint256 expiry)\");\r\n\r\n    /// @notice A record of states for signing / validating signatures\r\n    mapping (address => uint) public nonces;\r\n\r\n    /// @notice An event thats emitted when an account changes its delegate\r\n    event DelegateChanged(address indexed delegator, address indexed fromDelegate, address indexed toDelegate);\r\n\r\n    /// @notice An event thats emitted when a delegate account's vote balance changes\r\n    event DelegateVotesChanged(address indexed delegate, uint previousBalance, uint newBalance);\r\n\r\n\r\n    uint8 public constant DECIMALS = 18;\r\n    uint256 public constant INITIAL_SUPPLY = 250000000 * (10**uint256(DECIMALS));\r\n    address public migrationAgent;\r\n    uint256 public totalMigrated;\r\n    \r\n    event Migrate(address indexed from, address indexed to, uint256 value);\r\n    event MigrationAgentSet(address indexed migrationAgent);\r\n    event LogControllerSet(address indexed controller);\r\n    event LogControllerRevoked(address indexed controller);\r\n\r\n    /// @dev Constructor that gives an account all initial tokens.\r\n    constructor(address account) ERC20(\"Auditchain\", \"AUDT\") {\r\n        require(account != address(0), \"AuditToken:constructor - Address can't be 0\");\r\n        _mint(account, INITIAL_SUPPLY);      \r\n        _setupRole(DEFAULT_ADMIN_ROLE, account);\r\n    }\r\n\r\n    /// @dev prevent accidental sending of tokens to this token contract\r\n    /// @param _self - address of this contract\r\n    modifier notSelf(address _self) {\r\n        require(\r\n            _self != address(this),\r\n            \"You are trying to send tokens to this token contract\"\r\n        );\r\n        _;\r\n    }\r\n\r\n    /// @notice Overwrite parent implementation to add locked verification, notSelf modifiers and call to moveDelegates\r\n    function transfer(address to, uint256 value)\r\n        public\r\n        override\r\n        isNotLocked(msg.sender, to)\r\n        notSelf(to)\r\n        returns (bool)\r\n    {\r\n        _moveDelegates(delegates[msg.sender], delegates[to], uint96(value));\r\n        return super.transfer(to, value);\r\n    }\r\n\r\n   /// @notice Overwrite parent implementation to add locked verification, notSelf modifiers and call to moveDelegates\r\n    function transferFrom(\r\n        address from,\r\n        address to,\r\n        uint256 value\r\n    ) public override isNotLocked(from, to) notSelf(to) returns (bool) {\r\n         _moveDelegates(delegates[from], delegates[to], uint96(value));\r\n        return super.transferFrom(from, to, value);\r\n    }\r\n\r\n\r\n    /// @dev Function to mint tokens\r\n    /// @param to address to which new minted tokens are sent\r\n    /// @param amount of tokens to send \r\n    /// @return A boolean that indicates if the operation was successful.\r\n    function mint(address to, uint256 amount) public isController() returns (bool) {       \r\n        require(to != address(0), \"Token:mint - Recipient address can't be 0\");        \r\n        _mint(to, amount);\r\n        return true;\r\n    }\r\n\r\n    /// @notice Overwrite parent implementation to add locked verification \r\n    function burn (uint256 amount) public override  isNotLocked(msg.sender, msg.sender) {\r\n        super.burn(amount);\r\n    }\r\n\r\n    /// @notice Overwrite parent implementation to add locked verification \r\n    function burnFrom (address user, uint256 amount) public override  isNotLocked(msg.sender, msg.sender) {\r\n        super.burnFrom(user, amount);\r\n    }\r\n\r\n     function pause() public isController()  {                  \r\n        super._pause();\r\n    }\r\n\r\n    function unpause() public  isController() {          \r\n        super._unpause();\r\n    }\r\n\r\n        /// @notice Migrate tokens to the new token contract.\r\n    function migrate() external whenNotPaused() {\r\n        uint256 value = balanceOf(msg.sender);\r\n        require(migrationAgent != address(0), \"Token:migrate - Enter migration agent address\");\r\n        require(value > 0, \"Token:migrate - Amount of tokens is required\");\r\n\r\n        _addLock(msg.sender);\r\n        _burn(msg.sender, balanceOf(msg.sender));\r\n        totalMigrated += value;\r\n        MigrationAgent(migrationAgent).migrateFrom(msg.sender, value);\r\n        _removeLock(msg.sender);\r\n        emit Migrate(msg.sender, migrationAgent, value);\r\n    }\r\n\r\n    /// @notice Set address of migration target contract and enable migration process\r\n    /// @param _agent The address of the MigrationAgent contract\r\n    function setMigrationAgent(address _agent) external  {\r\n        require(hasRole(DEFAULT_ADMIN_ROLE, msg.sender), \"AuditToken-setMigrationAgent: Only admin can call this function\");\r\n        require(_agent != address(0), \"Token:setMigrationAgent - Migration agent can't be 0\");\r\n        migrationAgent = _agent;\r\n        emit MigrationAgentSet(_agent);\r\n    }\r\n    \r\n    /**\r\n     * @notice Delegate votes from `msg.sender` to `delegatee`\r\n     * @param delegatee The address to delegate votes to\r\n     */\r\n    function delegate(address delegatee) public {\r\n        return _delegate(msg.sender, delegatee);\r\n    }\r\n\r\n    /**\r\n     * @notice Delegates votes from signatory to `delegatee`\r\n     * @param delegatee The address to delegate votes to\r\n     * @param nonce The contract state required to match the signature\r\n     * @param expiry The time at which to expire the signature\r\n     * @param v The recovery byte of the signature\r\n     * @param r Half of the ECDSA signature pair\r\n     * @param s Half of the ECDSA signature pair\r\n     */\r\n    function delegateBySig(address delegatee, uint nonce, uint expiry, uint8 v, bytes32 r, bytes32 s) public {\r\n        bytes32 domainSeparator = keccak256(abi.encode(DOMAIN_TYPEHASH, keccak256(bytes(name())), getChainId(), address(this)));\r\n        bytes32 structHash = keccak256(abi.encode(DELEGATION_TYPEHASH, delegatee, nonce, expiry));\r\n        bytes32 digest = keccak256(abi.encodePacked(\"\\x19\\x01\", domainSeparator, structHash));\r\n        address signatory = ecrecover(digest, v, r, s);\r\n        require(signatory != address(0), \"auditToken::delegateBySig: invalid signature\");\r\n        require(nonce == nonces[signatory]++, \"auditToken::delegateBySig: invalid nonce\");\r\n        require(block.timestamp <= expiry, \"auditToken::delegateBySig: signature expired\");\r\n        return _delegate(signatory, delegatee);\r\n    }\r\n\r\n    /**\r\n     * @notice Gets the current votes balance for `account`\r\n     * @param account The address to get votes balance\r\n     * @return The number of current votes for `account`\r\n     */\r\n    function getCurrentVotes(address account) external view returns (uint96) {\r\n        uint32 nCheckpoints = numCheckpoints[account];\r\n        return nCheckpoints > 0 ? checkpoints[account][nCheckpoints - 1].votes : 0;\r\n    }\r\n\r\n    /**\r\n     * @notice Determine the prior number of votes for an account as of a block number\r\n     * @dev Block number must be a finalized block or else this function will revert to prevent misinformation.\r\n     * @param account The address of the account to check\r\n     * @param blockNumber The block number to get the vote balance at\r\n     * @return The number of votes the account had as of the given block\r\n     */\r\n    function getPriorVotes(address account, uint blockNumber) public view returns (uint96) {\r\n        require(blockNumber < block.number, \"auditToken::getPriorVotes: not yet determined\");\r\n\r\n        uint32 nCheckpoints = numCheckpoints[account];\r\n        if (nCheckpoints == 0) {\r\n            return 0;\r\n        }\r\n\r\n        // First check most recent balance\r\n        if (checkpoints[account][nCheckpoints - 1].fromBlock <= blockNumber) {\r\n            return checkpoints[account][nCheckpoints - 1].votes;\r\n        }\r\n\r\n        // Next check implicit zero balance\r\n        if (checkpoints[account][0].fromBlock > blockNumber) {\r\n            return 0;\r\n        }\r\n\r\n        uint32 lower = 0;\r\n        uint32 upper = nCheckpoints - 1;\r\n        while (upper > lower) {\r\n            uint32 center = upper - (upper - lower) / 2; // ceil, avoiding overflow\r\n            Checkpoint memory cp = checkpoints[account][center];\r\n            if (cp.fromBlock == blockNumber) {\r\n                return cp.votes;\r\n            } else if (cp.fromBlock < blockNumber) {\r\n                lower = center;\r\n            } else {\r\n                upper = center - 1;\r\n            }\r\n        }\r\n        return checkpoints[account][lower].votes;\r\n    }\r\n\r\n    function _delegate(address delegator, address delegatee) internal {\r\n        address currentDelegate = delegates[delegator];\r\n        uint96 delegatorBalance = uint96(balanceOf(delegator));\r\n        delegates[delegator] = delegatee;\r\n\r\n        emit DelegateChanged(delegator, currentDelegate, delegatee);\r\n\r\n        _moveDelegates(currentDelegate, delegatee, delegatorBalance);\r\n    }   \r\n\r\n    function _moveDelegates(address srcRep, address dstRep, uint96 amount) internal {\r\n        if (srcRep != dstRep && amount > 0) {\r\n            if (srcRep != address(0)) {\r\n                uint32 srcRepNum = numCheckpoints[srcRep];\r\n                uint96 srcRepOld = srcRepNum > 0 ? checkpoints[srcRep][srcRepNum - 1].votes : 0;\r\n                uint96 srcRepNew = sub96(srcRepOld, amount, \"auditToken::_moveVotes: vote amount underflows\");\r\n                _writeCheckpoint(srcRep, srcRepNum, srcRepOld, srcRepNew);\r\n            }\r\n\r\n            if (dstRep != address(0)) {\r\n                uint32 dstRepNum = numCheckpoints[dstRep];\r\n                uint96 dstRepOld = dstRepNum > 0 ? checkpoints[dstRep][dstRepNum - 1].votes : 0;\r\n                uint96 dstRepNew = add96(dstRepOld, amount, \"auditToken::_moveVotes: vote amount overflows\");\r\n                _writeCheckpoint(dstRep, dstRepNum, dstRepOld, dstRepNew);\r\n            }\r\n        }\r\n    }\r\n\r\n    function _writeCheckpoint(address delegatee, uint32 nCheckpoints, uint96 oldVotes, uint96 newVotes) internal {\r\n      uint32 blockNumber = safe32(block.number, \"auditToken::_writeCheckpoint: block number exceeds 32 bits\");\r\n\r\n      if (nCheckpoints > 0 && checkpoints[delegatee][nCheckpoints - 1].fromBlock == blockNumber) {\r\n          checkpoints[delegatee][nCheckpoints - 1].votes = newVotes;\r\n      } else {\r\n          checkpoints[delegatee][nCheckpoints] = Checkpoint(blockNumber, newVotes);\r\n          numCheckpoints[delegatee] = nCheckpoints + 1;\r\n      }\r\n\r\n      emit DelegateVotesChanged(delegatee, oldVotes, newVotes);\r\n    }\r\n\r\n    function safe32(uint n, string memory errorMessage) internal pure returns (uint32) {\r\n        require(n < 2**32, errorMessage);\r\n        return uint32(n);\r\n    }\r\n\r\n    function add96(uint96 a, uint96 b, string memory errorMessage) internal pure returns (uint96) {\r\n        uint96 c = a + b;\r\n        require(c >= a, errorMessage);\r\n        return c;\r\n    }\r\n\r\n    function sub96(uint96 a, uint96 b, string memory errorMessage) internal pure returns (uint96) {\r\n        require(b <= a, errorMessage);\r\n        return a - b;\r\n    }\r\n\r\n    function getChainId() internal pure returns (uint) {\r\n        uint256 chainId;\r\n        assembly { chainId := chainid() }\r\n        return chainId;\r\n    }\r\n\r\n    \r\n\r\n\r\n}",
  "sourcePath": "/home/bogdan/Ethereum/Projects/TGE/Core-Smart-Contracts-v1/contracts/AuditToken.sol",
  "compiler": {
    "name": "solc",
    "version": "0.7.6+commit.7338295f.Emscripten.clang"
  },
  "schemaVersion": "3.4.0",
  "updatedAt": "2021-05-06T00:12:27.855Z",
  "networkType": "ethereum",
  "devdoc": {
    "kind": "dev",
    "methods": {
      "addLock(address)": {
        "details": "add user to lock",
        "params": {
          "_user": "to lock"
        }
      },
      "allowance(address,address)": {
        "details": "See {IERC20-allowance}."
      },
      "approve(address,uint256)": {
        "details": "See {IERC20-approve}. Requirements: - `spender` cannot be the zero address."
      },
      "balanceOf(address)": {
        "details": "See {IERC20-balanceOf}."
      },
      "constructor": {
        "details": "Constructor that gives an account all initial tokens."
      },
      "decimals()": {
        "details": "Returns the number of decimals used to get its user representation. For example, if `decimals` equals `2`, a balance of `505` tokens should be displayed to a user as `5,05` (`505 / 10 ** 2`). Tokens usually opt for a value of 18, imitating the relationship between Ether and Wei. This is the value {ERC20} uses, unless {_setupDecimals} is called. NOTE: This information is only used for _display_ purposes: it in no way affects any of the arithmetic of the contract, including {IERC20-balanceOf} and {IERC20-transfer}."
      },
      "decreaseAllowance(address,uint256)": {
        "details": "Atomically decreases the allowance granted to `spender` by the caller. This is an alternative to {approve} that can be used as a mitigation for problems described in {IERC20-approve}. Emits an {Approval} event indicating the updated allowance. Requirements: - `spender` cannot be the zero address. - `spender` must have allowance for the caller of at least `subtractedValue`."
      },
      "delegate(address)": {
        "params": {
          "delegatee": "The address to delegate votes to"
        }
      },
      "delegateBySig(address,uint256,uint256,uint8,bytes32,bytes32)": {
        "params": {
          "delegatee": "The address to delegate votes to",
          "expiry": "The time at which to expire the signature",
          "nonce": "The contract state required to match the signature",
          "r": "Half of the ECDSA signature pair",
          "s": "Half of the ECDSA signature pair",
          "v": "The recovery byte of the signature"
        }
      },
      "getCurrentVotes(address)": {
        "params": {
          "account": "The address to get votes balance"
        },
        "returns": {
          "_0": "The number of current votes for `account`"
        }
      },
      "getPriorVotes(address,uint256)": {
        "details": "Block number must be a finalized block or else this function will revert to prevent misinformation.",
        "params": {
          "account": "The address of the account to check",
          "blockNumber": "The block number to get the vote balance at"
        },
        "returns": {
          "_0": "The number of votes the account had as of the given block"
        }
      },
      "getRoleAdmin(bytes32)": {
        "details": "Returns the admin role that controls `role`. See {grantRole} and {revokeRole}. To change a role's admin, use {_setRoleAdmin}."
      },
      "getRoleMember(bytes32,uint256)": {
        "details": "Returns one of the accounts that have `role`. `index` must be a value between 0 and {getRoleMemberCount}, non-inclusive. Role bearers are not sorted in any particular way, and their ordering may change at any point. WARNING: When using {getRoleMember} and {getRoleMemberCount}, make sure you perform all queries on the same block. See the following https://forum.openzeppelin.com/t/iterating-over-elements-on-enumerableset-in-openzeppelin-contracts/2296[forum post] for more information."
      },
      "getRoleMemberCount(bytes32)": {
        "details": "Returns the number of accounts that have `role`. Can be used together with {getRoleMember} to enumerate all bearers of a role."
      },
      "grantRole(bytes32,address)": {
        "details": "Grants `role` to `account`. If `account` had not been already granted `role`, emits a {RoleGranted} event. Requirements: - the caller must have ``role``'s admin role."
      },
      "hasRole(bytes32,address)": {
        "details": "Returns `true` if `account` has been granted `role`."
      },
      "increaseAllowance(address,uint256)": {
        "details": "Atomically increases the allowance granted to `spender` by the caller. This is an alternative to {approve} that can be used as a mitigation for problems described in {IERC20-approve}. Emits an {Approval} event indicating the updated allowance. Requirements: - `spender` cannot be the zero address."
      },
      "isLocked(address)": {
        "details": "check if user has been locked",
        "params": {
          "_user": "- usr to check"
        },
        "returns": {
          "_0": "true or false"
        }
      },
      "mint(address,uint256)": {
        "details": "Function to mint tokens",
        "params": {
          "amount": "of tokens to send ",
          "to": "address to which new minted tokens are sent"
        },
        "returns": {
          "_0": "A boolean that indicates if the operation was successful."
        }
      },
      "name()": {
        "details": "Returns the name of the token."
      },
      "paused()": {
        "details": "Returns true if the contract is paused, and false otherwise."
      },
      "removeLock(address)": {
        "details": "unlock user",
        "params": {
          "_user": "- user to unlock"
        }
      },
      "renounceRole(bytes32,address)": {
        "details": "Revokes `role` from the calling account. Roles are often managed via {grantRole} and {revokeRole}: this function's purpose is to provide a mechanism for accounts to lose their privileges if they are compromised (such as when a trusted device is misplaced). If the calling account had been granted `role`, emits a {RoleRevoked} event. Requirements: - the caller must be `account`."
      },
      "revokeRole(bytes32,address)": {
        "details": "Revokes `role` from `account`. If `account` had been granted `role`, emits a {RoleRevoked} event. Requirements: - the caller must have ``role``'s admin role."
      },
      "setMigrationAgent(address)": {
        "params": {
          "_agent": "The address of the MigrationAgent contract"
        }
      },
      "symbol()": {
        "details": "Returns the symbol of the token, usually a shorter version of the name."
      },
      "totalSupply()": {
        "details": "See {IERC20-totalSupply}."
      }
    },
    "version": 1
  },
  "userdoc": {
    "events": {
      "DelegateChanged(address,address,address)": {
        "notice": "An event thats emitted when an account changes its delegate"
      },
      "DelegateVotesChanged(address,uint256,uint256)": {
        "notice": "An event thats emitted when a delegate account's vote balance changes"
      }
    },
    "kind": "user",
    "methods": {
      "DELEGATION_TYPEHASH()": {
        "notice": "The EIP-712 typehash for the delegation struct used by the contract"
      },
      "DOMAIN_TYPEHASH()": {
        "notice": "The EIP-712 typehash for the contract's domain"
      },
      "burn(uint256)": {
        "notice": "Overwrite parent implementation to add locked verification "
      },
      "burnFrom(address,uint256)": {
        "notice": "Overwrite parent implementation to add locked verification "
      },
      "checkpoints(address,uint32)": {
        "notice": "A record of votes checkpoints for each account, by index"
      },
      "delegate(address)": {
        "notice": "Delegate votes from `msg.sender` to `delegatee`"
      },
      "delegateBySig(address,uint256,uint256,uint8,bytes32,bytes32)": {
        "notice": "Delegates votes from signatory to `delegatee`"
      },
      "delegates(address)": {
        "notice": "A record of each accounts delegate"
      },
      "getCurrentVotes(address)": {
        "notice": "Gets the current votes balance for `account`"
      },
      "getPriorVotes(address,uint256)": {
        "notice": "Determine the prior number of votes for an account as of a block number"
      },
      "migrate()": {
        "notice": "Migrate tokens to the new token contract."
      },
      "nonces(address)": {
        "notice": "A record of states for signing / validating signatures"
      },
      "numCheckpoints(address)": {
        "notice": "The number of checkpoints for each account"
      },
      "setMigrationAgent(address)": {
        "notice": "Set address of migration target contract and enable migration process"
      },
      "transfer(address,uint256)": {
        "notice": "Overwrite parent implementation to add locked verification, notSelf modifiers and call to moveDelegates"
      },
      "transferFrom(address,address,uint256)": {
        "notice": "Overwrite parent implementation to add locked verification, notSelf modifiers and call to moveDelegates"
      }
    },
    "version": 1
  }
}