{
  "contractName": "CohortFactory",
  "abi": [
    {
      "inputs": [
        {
          "internalType": "contract Members",
          "name": "_members",
          "type": "address"
        },
        {
          "internalType": "address",
          "name": "_createCohortAddress",
          "type": "address"
        }
      ],
      "stateMutability": "nonpayable",
      "type": "constructor"
    },
    {
      "anonymous": false,
      "inputs": [
        {
          "indexed": true,
          "internalType": "address",
          "name": "enterprise",
          "type": "address"
        },
        {
          "indexed": true,
          "internalType": "address",
          "name": "cohort",
          "type": "address"
        },
        {
          "indexed": false,
          "internalType": "enum CohortFactory.AuditTypes",
          "name": "audits",
          "type": "uint8"
        }
      ],
      "name": "CohortCreated",
      "type": "event"
    },
    {
      "anonymous": false,
      "inputs": [
        {
          "indexed": true,
          "internalType": "address",
          "name": "validator",
          "type": "address"
        },
        {
          "indexed": false,
          "internalType": "uint256",
          "name": "invitationNumber",
          "type": "uint256"
        }
      ],
      "name": "InvitationAccepted",
      "type": "event"
    },
    {
      "anonymous": false,
      "inputs": [
        {
          "indexed": true,
          "internalType": "bytes32",
          "name": "role",
          "type": "bytes32"
        },
        {
          "indexed": true,
          "internalType": "bytes32",
          "name": "previousAdminRole",
          "type": "bytes32"
        },
        {
          "indexed": true,
          "internalType": "bytes32",
          "name": "newAdminRole",
          "type": "bytes32"
        }
      ],
      "name": "RoleAdminChanged",
      "type": "event"
    },
    {
      "anonymous": false,
      "inputs": [
        {
          "indexed": true,
          "internalType": "bytes32",
          "name": "role",
          "type": "bytes32"
        },
        {
          "indexed": true,
          "internalType": "address",
          "name": "account",
          "type": "address"
        },
        {
          "indexed": true,
          "internalType": "address",
          "name": "sender",
          "type": "address"
        }
      ],
      "name": "RoleGranted",
      "type": "event"
    },
    {
      "anonymous": false,
      "inputs": [
        {
          "indexed": true,
          "internalType": "bytes32",
          "name": "role",
          "type": "bytes32"
        },
        {
          "indexed": true,
          "internalType": "address",
          "name": "account",
          "type": "address"
        },
        {
          "indexed": true,
          "internalType": "address",
          "name": "sender",
          "type": "address"
        }
      ],
      "name": "RoleRevoked",
      "type": "event"
    },
    {
      "anonymous": false,
      "inputs": [
        {
          "indexed": false,
          "internalType": "uint256",
          "name": "minValidatorPerCohort",
          "type": "uint256"
        }
      ],
      "name": "UpdateMinValidatorsPerCohort",
      "type": "event"
    },
    {
      "anonymous": false,
      "inputs": [
        {
          "indexed": false,
          "internalType": "address",
          "name": "validator",
          "type": "address"
        },
        {
          "indexed": false,
          "internalType": "enum CohortFactory.AuditTypes",
          "name": "audit",
          "type": "uint8"
        },
        {
          "indexed": false,
          "internalType": "address",
          "name": "cohort",
          "type": "address"
        },
        {
          "indexed": false,
          "internalType": "address",
          "name": "enterprise",
          "type": "address"
        }
      ],
      "name": "ValidatorCleared",
      "type": "event"
    },
    {
      "anonymous": false,
      "inputs": [
        {
          "indexed": true,
          "internalType": "address",
          "name": "inviting",
          "type": "address"
        },
        {
          "indexed": true,
          "internalType": "address",
          "name": "invitee",
          "type": "address"
        },
        {
          "indexed": false,
          "internalType": "enum CohortFactory.AuditTypes",
          "name": "audits",
          "type": "uint8"
        },
        {
          "indexed": false,
          "internalType": "uint256",
          "name": "invitationNumber",
          "type": "uint256"
        },
        {
          "indexed": false,
          "internalType": "address",
          "name": "cohort",
          "type": "address"
        }
      ],
      "name": "ValidatorInvited",
      "type": "event"
    },
    {
      "inputs": [],
      "name": "DEFAULT_ADMIN_ROLE",
      "outputs": [
        {
          "internalType": "bytes32",
          "name": "",
          "type": "bytes32"
        }
      ],
      "stateMutability": "view",
      "type": "function",
      "constant": true
    },
    {
      "inputs": [],
      "name": "SETTER_ROLE",
      "outputs": [
        {
          "internalType": "bytes32",
          "name": "",
          "type": "bytes32"
        }
      ],
      "stateMutability": "view",
      "type": "function",
      "constant": true
    },
    {
      "inputs": [
        {
          "internalType": "address",
          "name": "",
          "type": "address"
        },
        {
          "internalType": "uint256",
          "name": "",
          "type": "uint256"
        }
      ],
      "name": "cohortList",
      "outputs": [
        {
          "internalType": "address",
          "name": "cohort",
          "type": "address"
        },
        {
          "internalType": "enum CohortFactory.AuditTypes",
          "name": "audits",
          "type": "uint8"
        }
      ],
      "stateMutability": "view",
      "type": "function",
      "constant": true
    },
    {
      "inputs": [
        {
          "internalType": "bytes32",
          "name": "role",
          "type": "bytes32"
        }
      ],
      "name": "getRoleAdmin",
      "outputs": [
        {
          "internalType": "bytes32",
          "name": "",
          "type": "bytes32"
        }
      ],
      "stateMutability": "view",
      "type": "function",
      "constant": true
    },
    {
      "inputs": [
        {
          "internalType": "bytes32",
          "name": "role",
          "type": "bytes32"
        },
        {
          "internalType": "uint256",
          "name": "index",
          "type": "uint256"
        }
      ],
      "name": "getRoleMember",
      "outputs": [
        {
          "internalType": "address",
          "name": "",
          "type": "address"
        }
      ],
      "stateMutability": "view",
      "type": "function",
      "constant": true
    },
    {
      "inputs": [
        {
          "internalType": "bytes32",
          "name": "role",
          "type": "bytes32"
        }
      ],
      "name": "getRoleMemberCount",
      "outputs": [
        {
          "internalType": "uint256",
          "name": "",
          "type": "uint256"
        }
      ],
      "stateMutability": "view",
      "type": "function",
      "constant": true
    },
    {
      "inputs": [
        {
          "internalType": "bytes32",
          "name": "role",
          "type": "bytes32"
        },
        {
          "internalType": "address",
          "name": "account",
          "type": "address"
        }
      ],
      "name": "grantRole",
      "outputs": [],
      "stateMutability": "nonpayable",
      "type": "function"
    },
    {
      "inputs": [
        {
          "internalType": "bytes32",
          "name": "role",
          "type": "bytes32"
        },
        {
          "internalType": "address",
          "name": "account",
          "type": "address"
        }
      ],
      "name": "hasRole",
      "outputs": [
        {
          "internalType": "bool",
          "name": "",
          "type": "bool"
        }
      ],
      "stateMutability": "view",
      "type": "function",
      "constant": true
    },
    {
      "inputs": [
        {
          "internalType": "address",
          "name": "",
          "type": "address"
        },
        {
          "internalType": "uint256",
          "name": "",
          "type": "uint256"
        }
      ],
      "name": "invitations",
      "outputs": [
        {
          "internalType": "address",
          "name": "enterprise",
          "type": "address"
        },
        {
          "internalType": "address",
          "name": "validator",
          "type": "address"
        },
        {
          "internalType": "uint256",
          "name": "invitationDate",
          "type": "uint256"
        },
        {
          "internalType": "uint256",
          "name": "acceptanceDate",
          "type": "uint256"
        },
        {
          "internalType": "enum CohortFactory.AuditTypes",
          "name": "audits",
          "type": "uint8"
        },
        {
          "internalType": "address",
          "name": "cohort",
          "type": "address"
        },
        {
          "internalType": "bool",
          "name": "deleted",
          "type": "bool"
        }
      ],
      "stateMutability": "view",
      "type": "function",
      "constant": true
    },
    {
      "inputs": [],
      "name": "minValidatorPerCohort",
      "outputs": [
        {
          "internalType": "uint256",
          "name": "",
          "type": "uint256"
        }
      ],
      "stateMutability": "view",
      "type": "function",
      "constant": true
    },
    {
      "inputs": [
        {
          "internalType": "bytes32",
          "name": "role",
          "type": "bytes32"
        },
        {
          "internalType": "address",
          "name": "account",
          "type": "address"
        }
      ],
      "name": "renounceRole",
      "outputs": [],
      "stateMutability": "nonpayable",
      "type": "function"
    },
    {
      "inputs": [
        {
          "internalType": "bytes32",
          "name": "role",
          "type": "bytes32"
        },
        {
          "internalType": "address",
          "name": "account",
          "type": "address"
        }
      ],
      "name": "revokeRole",
      "outputs": [],
      "stateMutability": "nonpayable",
      "type": "function"
    },
    {
      "inputs": [
        {
          "internalType": "uint256",
          "name": "_minValidatorPerCohort",
          "type": "uint256"
        }
      ],
      "name": "updatMinValidatorsPerCohort",
      "outputs": [],
      "stateMutability": "nonpayable",
      "type": "function"
    },
    {
      "inputs": [
        {
          "internalType": "address",
          "name": "validator",
          "type": "address"
        },
        {
          "internalType": "enum CohortFactory.AuditTypes",
          "name": "audit",
          "type": "uint8"
        },
        {
          "internalType": "address",
          "name": "cohort",
          "type": "address"
        }
      ],
      "name": "inviteValidator",
      "outputs": [],
      "stateMutability": "nonpayable",
      "type": "function"
    },
    {
      "inputs": [
        {
          "internalType": "address[]",
          "name": "validator",
          "type": "address[]"
        },
        {
          "internalType": "enum CohortFactory.AuditTypes",
          "name": "audit",
          "type": "uint8"
        },
        {
          "internalType": "address",
          "name": "cohort",
          "type": "address"
        }
      ],
      "name": "inviteValidatorMultiple",
      "outputs": [],
      "stateMutability": "nonpayable",
      "type": "function"
    },
    {
      "inputs": [
        {
          "internalType": "address",
          "name": "enterprise",
          "type": "address"
        },
        {
          "internalType": "uint256",
          "name": "invitationNumber",
          "type": "uint256"
        }
      ],
      "name": "acceptInvitation",
      "outputs": [],
      "stateMutability": "nonpayable",
      "type": "function"
    },
    {
      "inputs": [
        {
          "internalType": "address",
          "name": "validator",
          "type": "address"
        },
        {
          "internalType": "enum CohortFactory.AuditTypes",
          "name": "audit",
          "type": "uint8"
        },
        {
          "internalType": "address",
          "name": "cohort",
          "type": "address"
        }
      ],
      "name": "clearInvitationRemoveValidator",
      "outputs": [],
      "stateMutability": "nonpayable",
      "type": "function"
    },
    {
      "inputs": [
        {
          "internalType": "address[]",
          "name": "enterprise",
          "type": "address[]"
        },
        {
          "internalType": "uint256[]",
          "name": "invitationNumber",
          "type": "uint256[]"
        }
      ],
      "name": "acceptInvitationMultiple",
      "outputs": [],
      "stateMutability": "nonpayable",
      "type": "function"
    },
    {
      "inputs": [
        {
          "internalType": "address",
          "name": "enterprise",
          "type": "address"
        },
        {
          "internalType": "enum CohortFactory.AuditTypes",
          "name": "audit",
          "type": "uint8"
        }
      ],
      "name": "returnInvitationCount",
      "outputs": [
        {
          "internalType": "uint256",
          "name": "",
          "type": "uint256"
        }
      ],
      "stateMutability": "view",
      "type": "function",
      "constant": true
    },
    {
      "inputs": [
        {
          "internalType": "address",
          "name": "enterprise",
          "type": "address"
        },
        {
          "internalType": "address",
          "name": "validator",
          "type": "address"
        },
        {
          "internalType": "enum CohortFactory.AuditTypes",
          "name": "audits",
          "type": "uint8"
        }
      ],
      "name": "isValidatorInvited",
      "outputs": [
        {
          "internalType": "bool",
          "name": "",
          "type": "bool"
        },
        {
          "internalType": "bool",
          "name": "",
          "type": "bool"
        }
      ],
      "stateMutability": "view",
      "type": "function",
      "constant": true
    },
    {
      "inputs": [
        {
          "internalType": "address",
          "name": "enterprise",
          "type": "address"
        }
      ],
      "name": "returnCohorts",
      "outputs": [
        {
          "internalType": "address[]",
          "name": "",
          "type": "address[]"
        },
        {
          "internalType": "uint256[]",
          "name": "",
          "type": "uint256[]"
        }
      ],
      "stateMutability": "view",
      "type": "function",
      "constant": true
    },
    {
      "inputs": [],
      "name": "returnOutstandingValidations",
      "outputs": [
        {
          "internalType": "uint256",
          "name": "",
          "type": "uint256"
        }
      ],
      "stateMutability": "view",
      "type": "function",
      "constant": true
    },
    {
      "inputs": [
        {
          "internalType": "enum CohortFactory.AuditTypes",
          "name": "audit",
          "type": "uint8"
        }
      ],
      "name": "createCohort",
      "outputs": [],
      "stateMutability": "nonpayable",
      "type": "function"
    }
  ],
  "bytecode": "0x608060405260036006553480156200001657600080fd5b50604051620042673803806200426783398181016040528101906200003c91906200029f565b81600260006101000a81548173ffffffffffffffffffffffffffffffffffffffff021916908373ffffffffffffffffffffffffffffffffffffffff16021790555080600560006101000a81548173ffffffffffffffffffffffffffffffffffffffff021916908373ffffffffffffffffffffffffffffffffffffffff160217905550620000d36000801b33620000db60201b60201c565b50506200035c565b620000ed8282620000f160201b60201c565b5050565b6200011f816000808581526020019081526020016000206000016200019460201b620025c51790919060201c565b15620001905762000135620001cc60201b60201c565b73ffffffffffffffffffffffffffffffffffffffff168173ffffffffffffffffffffffffffffffffffffffff16837f2f8788117e7eff1d82e926ec794901d17c78024a50270940304540a733656f0d60405160405180910390a45b5050565b6000620001c4836000018373ffffffffffffffffffffffffffffffffffffffff1660001b620001d460201b60201c565b905092915050565b600033905090565b6000620001e883836200024e60201b60201c565b6200024357826000018290806001815401808255809150506001900390600052602060002001600090919091909150558260000180549050836001016000848152602001908152602001600020819055506001905062000248565b600090505b92915050565b600080836001016000848152602001908152602001600020541415905092915050565b600081519050620002828162000328565b92915050565b600081519050620002998162000342565b92915050565b60008060408385031215620002b357600080fd5b6000620002c38582860162000288565b9250506020620002d68582860162000271565b9150509250929050565b6000620002ed8262000308565b9050919050565b60006200030182620002e0565b9050919050565b600073ffffffffffffffffffffffffffffffffffffffff82169050919050565b6200033381620002e0565b81146200033f57600080fd5b50565b6200034d81620002f4565b81146200035957600080fd5b50565b613efb806200036c6000396000f3fe608060405234801561001057600080fd5b506004361061014d5760003560e01c80638e02c1f4116100c3578063a70e03931161007c578063a70e0393146103c6578063c535124e146103f7578063ca15c87314610415578063ced02c8b14610445578063cf1f078014610461578063d547741f1461047f5761014d565b80638e02c1f4146102d85780638ffb72f4146102f45780639010d07c1461032a57806391d148541461035a578063a2011b3f1461038a578063a217fddf146103a85761014d565b80632f2ff15d116101155780632f2ff15d1461021b57806336568abe146102375780635df11376146102535780637689bb7d1461026f5780637c915c861461028b57806387247dea146102a75761014d565b80630939a997146101525780630ea021601461016e5780631f94fc3a1461018a578063247e28b3146101bb578063248a9ca3146101eb575b600080fd5b61016c60048036038101906101679190612d74565b61049b565b005b61018860048036038101906101839190612d38565b6104ef565b005b6101a4600480360381019061019f9190612c5e565b6109a1565b6040516101b292919061394b565b60405180910390f35b6101d560048036038101906101d09190612cad565b610c36565b6040516101e29190613b81565b60405180910390f35b61020560048036038101906102009190612e70565b610e05565b6040516102129190613974565b60405180910390f35b61023560048036038101906102309190612e99565b610e24565b005b610251600480360381019061024c9190612e99565b610ead565b005b61026d60048036038101906102689190612f3a565b610f46565b005b61028960048036038101906102849190612ce9565b611034565b005b6102a560048036038101906102a09190612f11565b611648565b005b6102c160048036038101906102bc9190612c0c565b611c12565b6040516102cf9291906138f9565b60405180910390f35b6102f260048036038101906102ed9190612ce9565b611edd565b005b61030e60048036038101906103099190612d38565b6121f1565b604051610321979695949392919061381c565b60405180910390f35b610344600480360381019061033f9190612ed5565b6122ca565b60405161035191906137e6565b60405180910390f35b610374600480360381019061036f9190612e99565b6122fb565b6040516103819190613930565b60405180910390f35b61039261232c565b60405161039f9190613974565b60405180910390f35b6103b0612350565b6040516103bd9190613974565b60405180910390f35b6103e060048036038101906103db9190612d38565b612357565b6040516103ee92919061388b565b60405180910390f35b6103ff6123c1565b60405161040c9190613b81565b60405180910390f35b61042f600480360381019061042a9190612e70565b612488565b60405161043c9190613b81565b60405180910390f35b61045f600480360381019061045a9190612de0565b6124ae565b005b610469612536565b6040516104769190613b81565b60405180910390f35b61049960048036038101906104949190612e99565b61253c565b005b60008251905060005b818110156104e9576104dc8482815181106104bb57fe5b60200260200101518483815181106104cf57fe5b60200260200101516104ef565b80806001019150506104a4565b50505050565b80600360008473ffffffffffffffffffffffffffffffffffffffff1673ffffffffffffffffffffffffffffffffffffffff1681526020019081526020016000208054905011610573576040517f08c379a000000000000000000000000000000000000000000000000000000000815260040161056a90613a01565b60405180910390fd5b6000600360008473ffffffffffffffffffffffffffffffffffffffff1673ffffffffffffffffffffffffffffffffffffffff16815260200190815260200160002082815481106105bf57fe5b90600052602060002090600502016003015414610611576040517f08c379a000000000000000000000000000000000000000000000000000000000815260040161060890613a21565b60405180910390fd5b3373ffffffffffffffffffffffffffffffffffffffff16600360008473ffffffffffffffffffffffffffffffffffffffff1673ffffffffffffffffffffffffffffffffffffffff168152602001908152602001600020828154811061067257fe5b906000526020600020906005020160010160009054906101000a900473ffffffffffffffffffffffffffffffffffffffff1673ffffffffffffffffffffffffffffffffffffffff16146106fa576040517f08c379a00000000000000000000000000000000000000000000000000000000081526004016106f190613b01565b60405180910390fd5b42600360008473ffffffffffffffffffffffffffffffffffffffff1673ffffffffffffffffffffffffffffffffffffffff168152602001908152602001600020828154811061074557fe5b906000526020600020906005020160030181905550600073ffffffffffffffffffffffffffffffffffffffff16600360008473ffffffffffffffffffffffffffffffffffffffff1673ffffffffffffffffffffffffffffffffffffffff16815260200190815260200160002082815481106107bc57fe5b906000526020600020906005020160040160019054906101000a900473ffffffffffffffffffffffffffffffffffffffff1673ffffffffffffffffffffffffffffffffffffffff161461094f57600360008373ffffffffffffffffffffffffffffffffffffffff1673ffffffffffffffffffffffffffffffffffffffff168152602001908152602001600020818154811061085357fe5b906000526020600020906005020160040160019054906101000a900473ffffffffffffffffffffffffffffffffffffffff1673ffffffffffffffffffffffffffffffffffffffff16638c410fc8336040518263ffffffff1660e01b81526004016108bd9190613801565b602060405180830381600087803b1580156108d757600080fd5b505af11580156108eb573d6000803e3d6000fd5b505050506040513d601f19601f8201168201806040525081019061090f9190612e47565b61094e576040517f08c379a000000000000000000000000000000000000000000000000000000000815260040161094590613a41565b60405180910390fd5b5b3373ffffffffffffffffffffffffffffffffffffffff167f7b03e8bab458bdbb216f7525cb174b013e75d040884fe46cc9e836fc05a0cc7b826040516109959190613b81565b60405180910390a25050565b60008060005b600360008773ffffffffffffffffffffffffffffffffffffffff1673ffffffffffffffffffffffffffffffffffffffff16815260200190815260200160002080549050811015610c25578360058111156109fd57fe5b600360008873ffffffffffffffffffffffffffffffffffffffff1673ffffffffffffffffffffffffffffffffffffffff1681526020019081526020016000208281548110610a4757fe5b906000526020600020906005020160040160009054906101000a900460ff166005811115610a7157fe5b148015610b2457508473ffffffffffffffffffffffffffffffffffffffff16600360008873ffffffffffffffffffffffffffffffffffffffff1673ffffffffffffffffffffffffffffffffffffffff1681526020019081526020016000208281548110610ada57fe5b906000526020600020906005020160010160009054906101000a900473ffffffffffffffffffffffffffffffffffffffff1673ffffffffffffffffffffffffffffffffffffffff16145b8015610b965750600360008773ffffffffffffffffffffffffffffffffffffffff1673ffffffffffffffffffffffffffffffffffffffff1681526020019081526020016000208181548110610b7557fe5b906000526020600020906005020160040160159054906101000a900460ff16155b15610c1a576000600360008873ffffffffffffffffffffffffffffffffffffffff1673ffffffffffffffffffffffffffffffffffffffff1681526020019081526020016000208281548110610be757fe5b9060005260206000209060050201600301541115610c0c576001809250925050610c2e565b600160009250925050610c2e565b8060010190506109a7565b50600080915091505b935093915050565b60008060005b600360008673ffffffffffffffffffffffffffffffffffffffff1673ffffffffffffffffffffffffffffffffffffffff16815260200190815260200160002080549050811015610dfa57836005811115610c9257fe5b600360008773ffffffffffffffffffffffffffffffffffffffff1673ffffffffffffffffffffffffffffffffffffffff1681526020019081526020016000208281548110610cdc57fe5b906000526020600020906005020160040160009054906101000a900460ff166005811115610d0657fe5b148015610d6f57506000600360008773ffffffffffffffffffffffffffffffffffffffff1673ffffffffffffffffffffffffffffffffffffffff1681526020019081526020016000208281548110610d5a57fe5b90600052602060002090600502016003015414155b8015610de15750600360008673ffffffffffffffffffffffffffffffffffffffff1673ffffffffffffffffffffffffffffffffffffffff1681526020019081526020016000208181548110610dc057fe5b906000526020600020906005020160040160159054906101000a900460ff16155b15610def5781806001019250505b806001019050610c3c565b508091505092915050565b6000806000838152602001908152602001600020600201549050919050565b610e4a60008084815260200190815260200160002060020154610e456125f5565b6122fb565b610e9f576040517f08c379a000000000000000000000000000000000000000000000000000000000815260040180806020018281038252602f815260200180613e38602f913960400191505060405180910390fd5b610ea982826125fd565b5050565b610eb56125f5565b73ffffffffffffffffffffffffffffffffffffffff168173ffffffffffffffffffffffffffffffffffffffff1614610f38576040517f08c379a000000000000000000000000000000000000000000000000000000000815260040180806020018281038252602f815260200180613e97602f913960400191505060405180910390fd5b610f428282612690565b5050565b610f707f61c92169ef077349011ff0b1383c894d86c5f0b41d986366b58a6cf31e93beda336122fb565b610faf576040517f08c379a0000000000000000000000000000000000000000000000000000000008152600401610fa690613b21565b60405180910390fd5b6000811415610ff3576040517f08c379a0000000000000000000000000000000000000000000000000000000008152600401610fea90613ac1565b60405180910390fd5b806006819055507f1c56eec698b63b9b30c1ffe550cd932bcd93d99a2de3117d8babc9a2480a49b5816040516110299190613b81565b60405180910390a150565b61103c6129c1565b6000600260009054906101000a900473ffffffffffffffffffffffffffffffffffffffff1673ffffffffffffffffffffffffffffffffffffffff166318d50d33866040518263ffffffff1660e01b815260040161109991906137e6565b60206040518083038186803b1580156110b157600080fd5b505afa1580156110c5573d6000803e3d6000fd5b505050506040513d601f19601f820116820180604052508101906110e99190612e47565b90506000600260009054906101000a900473ffffffffffffffffffffffffffffffffffffffff1673ffffffffffffffffffffffffffffffffffffffff1663be07b32e336040518263ffffffff1660e01b81526004016111489190613801565b60206040518083038186803b15801561116057600080fd5b505afa158015611174573d6000803e3d6000fd5b505050506040513d601f19601f820116820180604052508101906111989190612e47565b905060006111a73388886109a1565b50905080156111eb576040517f08c379a00000000000000000000000000000000000000000000000000000000081526004016111e290613aa1565b60405180910390fd5b8161122b576040517f08c379a000000000000000000000000000000000000000000000000000000000815260040161122290613b41565b60405180910390fd5b8261126b576040517f08c379a000000000000000000000000000000000000000000000000000000000815260040161126290613a61565b60405180910390fd5b6000600260009054906101000a900473ffffffffffffffffffffffffffffffffffffffff1673ffffffffffffffffffffffffffffffffffffffff1663fc7e286d896040518263ffffffff1660e01b81526004016112c891906137e6565b60206040518083038186803b1580156112e057600080fd5b505afa1580156112f4573d6000803e3d6000fd5b505050506040513d601f19601f820116820180604052508101906113189190612f63565b11611358576040517f08c379a000000000000000000000000000000000000000000000000000000000815260040161134f906139e1565b60405180910390fd5b86846020019073ffffffffffffffffffffffffffffffffffffffff16908173ffffffffffffffffffffffffffffffffffffffff16815250504284604001818152505085846080019060058111156113ab57fe5b908160058111156113b857fe5b81525050848460a0019073ffffffffffffffffffffffffffffffffffffffff16908173ffffffffffffffffffffffffffffffffffffffff1681525050600360003373ffffffffffffffffffffffffffffffffffffffff1673ffffffffffffffffffffffffffffffffffffffff16815260200190815260200160002084908060018154018082558091505060019003906000526020600020906005020160009091909190915060008201518160000160006101000a81548173ffffffffffffffffffffffffffffffffffffffff021916908373ffffffffffffffffffffffffffffffffffffffff16021790555060208201518160010160006101000a81548173ffffffffffffffffffffffffffffffffffffffff021916908373ffffffffffffffffffffffffffffffffffffffff160217905550604082015181600201556060820151816003015560808201518160040160006101000a81548160ff0219169083600581111561152357fe5b021790555060a08201518160040160016101000a81548173ffffffffffffffffffffffffffffffffffffffff021916908373ffffffffffffffffffffffffffffffffffffffff16021790555060c08201518160040160156101000a81548160ff02191690831515021790555050508673ffffffffffffffffffffffffffffffffffffffff163373ffffffffffffffffffffffffffffffffffffffff167f2c2dbe2d2a7b83ef060aaf0987c01d917ae8b3c3f1b967f5ed2aaa5dd19ed48a886001600360003373ffffffffffffffffffffffffffffffffffffffff1673ffffffffffffffffffffffffffffffffffffffff168152602001908152602001600020805490500389604051611637939291906139aa565b60405180910390a350505050505050565b60006116543383610c36565b67ffffffffffffffff8111801561166a57600080fd5b506040519080825280602002602001820160405280156116995781602001602082028036833780820191505090505b509050600080600090505b600360003373ffffffffffffffffffffffffffffffffffffffff1673ffffffffffffffffffffffffffffffffffffffff168152602001908152602001600020805490508110156118b1578360058111156116fa57fe5b600360003373ffffffffffffffffffffffffffffffffffffffff1673ffffffffffffffffffffffffffffffffffffffff168152602001908152602001600020828154811061174457fe5b906000526020600020906005020160040160009054906101000a900460ff16600581111561176e57fe5b1480156117d657506000600360003373ffffffffffffffffffffffffffffffffffffffff1673ffffffffffffffffffffffffffffffffffffffff16815260200190815260200160002082815481106117c257fe5b906000526020600020906005020160030154115b156118a657600360003373ffffffffffffffffffffffffffffffffffffffff1673ffffffffffffffffffffffffffffffffffffffff168152602001908152602001600020818154811061182557fe5b906000526020600020906005020160010160009054906101000a900473ffffffffffffffffffffffffffffffffffffffff1683838151811061186357fe5b602002602001019073ffffffffffffffffffffffffffffffffffffffff16908173ffffffffffffffffffffffffffffffffffffffff168152505081806001019250505b8060010190506116a4565b506006548110156118f7576040517f08c379a00000000000000000000000000000000000000000000000000000000081526004016118ee90613b61565b60405180910390fd5b6000600560009054906101000a900473ffffffffffffffffffffffffffffffffffffffff1673ffffffffffffffffffffffffffffffffffffffff1663ac680c3f85600581111561194357fe5b85336040518463ffffffff1660e01b815260040161196393929190613b9c565b602060405180830381600087803b15801561197d57600080fd5b505af1158015611991573d6000803e3d6000fd5b505050506040513d601f19601f820116820180604052508101906119b59190612c35565b9050600160003373ffffffffffffffffffffffffffffffffffffffff1673ffffffffffffffffffffffffffffffffffffffff16815260200190815260200160002060018160018154018082558091505003906000526020600020505080600160003373ffffffffffffffffffffffffffffffffffffffff1673ffffffffffffffffffffffffffffffffffffffff16815260200190815260200160002060018060003373ffffffffffffffffffffffffffffffffffffffff1673ffffffffffffffffffffffffffffffffffffffff168152602001908152602001600020805490500381548110611aa057fe5b9060005260206000200160000160006101000a81548173ffffffffffffffffffffffffffffffffffffffff021916908373ffffffffffffffffffffffffffffffffffffffff16021790555083600160003373ffffffffffffffffffffffffffffffffffffffff1673ffffffffffffffffffffffffffffffffffffffff16815260200190815260200160002060018060003373ffffffffffffffffffffffffffffffffffffffff1673ffffffffffffffffffffffffffffffffffffffff168152602001908152602001600020805490500381548110611b7a57fe5b9060005260206000200160000160146101000a81548160ff02191690836005811115611ba257fe5b02179055508073ffffffffffffffffffffffffffffffffffffffff163373ffffffffffffffffffffffffffffffffffffffff167f90691b6bd4b271754d0eb5676725798ab1ab64c7225d8e48882bc2f6add2dd0986604051611c04919061398f565b60405180910390a350505050565b6060806000600160008573ffffffffffffffffffffffffffffffffffffffff1673ffffffffffffffffffffffffffffffffffffffff1681526020019081526020016000208054905067ffffffffffffffff81118015611c7057600080fd5b50604051908082528060200260200182016040528015611c9f5781602001602082028036833780820191505090505b5090506000600160008673ffffffffffffffffffffffffffffffffffffffff1673ffffffffffffffffffffffffffffffffffffffff1681526020019081526020016000208054905067ffffffffffffffff81118015611cfd57600080fd5b50604051908082528060200260200182016040528015611d2c5781602001602082028036833780820191505090505b50905060005b600160008773ffffffffffffffffffffffffffffffffffffffff1673ffffffffffffffffffffffffffffffffffffffff16815260200190815260200160002080549050811015611ecf57600160008773ffffffffffffffffffffffffffffffffffffffff1673ffffffffffffffffffffffffffffffffffffffff1681526020019081526020016000208181548110611dc657fe5b9060005260206000200160000160009054906101000a900473ffffffffffffffffffffffffffffffffffffffff16838281518110611e0057fe5b602002602001019073ffffffffffffffffffffffffffffffffffffffff16908173ffffffffffffffffffffffffffffffffffffffff1681525050600160008773ffffffffffffffffffffffffffffffffffffffff1673ffffffffffffffffffffffffffffffffffffffff1681526020019081526020016000208181548110611e8457fe5b9060005260206000200160000160149054906101000a900460ff166005811115611eaa57fe5b828281518110611eb657fe5b6020026020010181815250508080600101915050611d32565b508181935093505050915091565b60005b600360003373ffffffffffffffffffffffffffffffffffffffff1673ffffffffffffffffffffffffffffffffffffffff168152602001908152602001600020805490508110156121eb57826005811115611f3657fe5b600360003373ffffffffffffffffffffffffffffffffffffffff1673ffffffffffffffffffffffffffffffffffffffff1681526020019081526020016000208281548110611f8057fe5b906000526020600020906005020160040160009054906101000a900460ff166005811115611faa57fe5b14801561205d57508373ffffffffffffffffffffffffffffffffffffffff16600360003373ffffffffffffffffffffffffffffffffffffffff1673ffffffffffffffffffffffffffffffffffffffff168152602001908152602001600020828154811061201357fe5b906000526020600020906005020160010160009054906101000a900473ffffffffffffffffffffffffffffffffffffffff1673ffffffffffffffffffffffffffffffffffffffff16145b156121de576001600360003373ffffffffffffffffffffffffffffffffffffffff1673ffffffffffffffffffffffffffffffffffffffff16815260200190815260200160002082815481106120ae57fe5b906000526020600020906005020160040160156101000a81548160ff0219169083151502179055508173ffffffffffffffffffffffffffffffffffffffff166340a141ff856040518263ffffffff1660e01b815260040161210f91906137e6565b602060405180830381600087803b15801561212957600080fd5b505af115801561213d573d6000803e3d6000fd5b505050506040513d601f19601f820116820180604052508101906121619190612e47565b6121a0576040517f08c379a000000000000000000000000000000000000000000000000000000000815260040161219790613ae1565b60405180910390fd5b7fc79fd5e121f785109eb0b6f9236759e63b1507d2388bae38d35500874fd186b6848484336040516121d594939291906138b4565b60405180910390a15b8080600101915050611ee0565b50505050565b6003602052816000526040600020818154811061220d57600080fd5b9060005260206000209060050201600091509150508060000160009054906101000a900473ffffffffffffffffffffffffffffffffffffffff16908060010160009054906101000a900473ffffffffffffffffffffffffffffffffffffffff16908060020154908060030154908060040160009054906101000a900460ff16908060040160019054906101000a900473ffffffffffffffffffffffffffffffffffffffff16908060040160159054906101000a900460ff16905087565b60006122f38260008086815260200190815260200160002060000161272390919063ffffffff16565b905092915050565b60006123248260008086815260200190815260200160002060000161273d90919063ffffffff16565b905092915050565b7f61c92169ef077349011ff0b1383c894d86c5f0b41d986366b58a6cf31e93beda81565b6000801b81565b6001602052816000526040600020818154811061237357600080fd5b90600052602060002001600091509150508060000160009054906101000a900473ffffffffffffffffffffffffffffffffffffffff16908060000160149054906101000a900460ff16905082565b6000806123cd33611c12565b5090506000805b825181101561247f578281815181106123e957fe5b602002602001015173ffffffffffffffffffffffffffffffffffffffff1663860008f06040518163ffffffff1660e01b815260040160206040518083038186803b15801561243657600080fd5b505afa15801561244a573d6000803e3d6000fd5b505050506040513d601f19601f8201168201806040525081019061246e9190612f63565b8201915080806001019150506123d4565b50809250505090565b60006124a760008084815260200190815260200160002060000161276d565b9050919050565b6000835190506101008111156124f9576040517f08c379a00000000000000000000000000000000000000000000000000000000081526004016124f090613a81565b60405180910390fd5b60005b8181101561252f5761252285828151811061251357fe5b60200260200101518585611034565b80806001019150506124fc565b5050505050565b60065481565b6125626000808481526020019081526020016000206002015461255d6125f5565b6122fb565b6125b7576040517f08c379a0000000000000000000000000000000000000000000000000000000008152600401808060200182810382526030815260200180613e676030913960400191505060405180910390fd5b6125c18282612690565b5050565b60006125ed836000018373ffffffffffffffffffffffffffffffffffffffff1660001b612782565b905092915050565b600033905090565b612624816000808581526020019081526020016000206000016125c590919063ffffffff16565b1561268c576126316125f5565b73ffffffffffffffffffffffffffffffffffffffff168173ffffffffffffffffffffffffffffffffffffffff16837f2f8788117e7eff1d82e926ec794901d17c78024a50270940304540a733656f0d60405160405180910390a45b5050565b6126b7816000808581526020019081526020016000206000016127f290919063ffffffff16565b1561271f576126c46125f5565b73ffffffffffffffffffffffffffffffffffffffff168173ffffffffffffffffffffffffffffffffffffffff16837ff6391f5c32d9c69d2a47ea670b442974b53935d1edc7fd64eb21e047a839171b60405160405180910390a45b5050565b60006127328360000183612822565b60001c905092915050565b6000612765836000018373ffffffffffffffffffffffffffffffffffffffff1660001b6128a5565b905092915050565b600061277b826000016128c8565b9050919050565b600061278e83836128a5565b6127e75782600001829080600181540180825580915050600190039060005260206000200160009091909190915055826000018054905083600101600084815260200190815260200160002081905550600190506127ec565b600090505b92915050565b600061281a836000018373ffffffffffffffffffffffffffffffffffffffff1660001b6128d9565b905092915050565b600081836000018054905011612883576040517f08c379a0000000000000000000000000000000000000000000000000000000008152600401808060200182810382526022815260200180613e166022913960400191505060405180910390fd5b82600001828154811061289257fe5b9060005260206000200154905092915050565b600080836001016000848152602001908152602001600020541415905092915050565b600081600001805490509050919050565b600080836001016000848152602001908152602001600020549050600081146129b5576000600182039050600060018660000180549050039050600086600001828154811061292457fe5b906000526020600020015490508087600001848154811061294157fe5b906000526020600020018190555060018301876001016000838152602001908152602001600020819055508660000180548061297957fe5b600190038181906000526020600020016000905590558660010160008781526020019081526020016000206000905560019450505050506129bb565b60009150505b92915050565b6040518060e00160405280600073ffffffffffffffffffffffffffffffffffffffff168152602001600073ffffffffffffffffffffffffffffffffffffffff168152602001600081526020016000815260200160006005811115612a2157fe5b8152602001600073ffffffffffffffffffffffffffffffffffffffff1681526020016000151581525090565b6000612a60612a5b84613c0b565b613bda565b90508083825260208201905082856020860282011115612a7f57600080fd5b60005b85811015612aaf5781612a958882612b25565b845260208401935060208301925050600181019050612a82565b5050509392505050565b6000612acc612ac784613c37565b613bda565b90508083825260208201905082856020860282011115612aeb57600080fd5b60005b85811015612b1b5781612b018882612be2565b845260208401935060208301925050600181019050612aee565b5050509392505050565b600081359050612b3481613da9565b92915050565b600081519050612b4981613da9565b92915050565b600082601f830112612b6057600080fd5b8135612b70848260208601612a4d565b91505092915050565b600082601f830112612b8a57600080fd5b8135612b9a848260208601612ab9565b91505092915050565b600081519050612bb281613dc0565b92915050565b600081359050612bc781613dd7565b92915050565b600081359050612bdc81613dee565b92915050565b600081359050612bf181613dfe565b92915050565b600081519050612c0681613dfe565b92915050565b600060208284031215612c1e57600080fd5b6000612c2c84828501612b25565b91505092915050565b600060208284031215612c4757600080fd5b6000612c5584828501612b3a565b91505092915050565b600080600060608486031215612c7357600080fd5b6000612c8186828701612b25565b9350506020612c9286828701612b25565b9250506040612ca386828701612bcd565b9150509250925092565b60008060408385031215612cc057600080fd5b6000612cce85828601612b25565b9250506020612cdf85828601612bcd565b9150509250929050565b600080600060608486031215612cfe57600080fd5b6000612d0c86828701612b25565b9350506020612d1d86828701612bcd565b9250506040612d2e86828701612b25565b9150509250925092565b60008060408385031215612d4b57600080fd5b6000612d5985828601612b25565b9250506020612d6a85828601612be2565b9150509250929050565b60008060408385031215612d8757600080fd5b600083013567ffffffffffffffff811115612da157600080fd5b612dad85828601612b4f565b925050602083013567ffffffffffffffff811115612dca57600080fd5b612dd685828601612b79565b9150509250929050565b600080600060608486031215612df557600080fd5b600084013567ffffffffffffffff811115612e0f57600080fd5b612e1b86828701612b4f565b9350506020612e2c86828701612bcd565b9250506040612e3d86828701612b25565b9150509250925092565b600060208284031215612e5957600080fd5b6000612e6784828501612ba3565b91505092915050565b600060208284031215612e8257600080fd5b6000612e9084828501612bb8565b91505092915050565b60008060408385031215612eac57600080fd5b6000612eba85828601612bb8565b9250506020612ecb85828601612b25565b9150509250929050565b60008060408385031215612ee857600080fd5b6000612ef685828601612bb8565b9250506020612f0785828601612be2565b9150509250929050565b600060208284031215612f2357600080fd5b6000612f3184828501612bcd565b91505092915050565b600060208284031215612f4c57600080fd5b6000612f5a84828501612be2565b91505092915050565b600060208284031215612f7557600080fd5b6000612f8384828501612bf7565b91505092915050565b6000612f988383612fcb565b60208301905092915050565b6000612fb083836137c8565b60208301905092915050565b612fc581613d4b565b82525050565b612fd481613ce6565b82525050565b612fe381613ce6565b82525050565b6000612ff482613c83565b612ffe8185613cb3565b935061300983613c63565b8060005b8381101561303a5781516130218882612f8c565b975061302c83613c99565b92505060018101905061300d565b5085935050505092915050565b600061305282613c8e565b61305c8185613cc4565b935061306783613c73565b8060005b8381101561309857815161307f8882612fa4565b975061308a83613ca6565b92505060018101905061306b565b5085935050505092915050565b6130ae81613cf8565b82525050565b6130bd81613d04565b82525050565b6130cc81613d5d565b82525050565b60006130df604d83613cd5565b91507f436f686f7274466163746f72793a696e7669746556616c696461746f72202d2060008301527f546869732076616c696461746f7220686173206e6f74207374616b656420616e60208301527f7920746f6b656e73207965742e000000000000000000000000000000000000006040830152606082019050919050565b600061316b603e83613cd5565b91507f436f686f7274466163746f72793a616363657074496e7669746174696f6e202d60008301527f205468697320696e7669746174696f6e20646f65736e277420657869737400006020830152604082019050919050565b60006131d1604b83613cd5565b91507f436f686f7274466163746f72793a616363657074496e7669746174696f6e2d2060008301527f5468697320696e7669746174696f6e20686173206265656e206163636570746560208301527f6420616c7265616479202e0000000000000000000000000000000000000000006040830152606082019050919050565b600061325d603c83613cd5565b91507f436f686f7274466163746f72793a696e7669746556616c696461746f72202d2060008301527f50726f626c656d20616464696e67206e65772076616c696461746f72000000006020830152604082019050919050565b60006132c3604883613cd5565b91507f436f686f7274466163746f72793a696e7669746556616c696461746f72202d2060008301527f4f6e6c7920417070726f7665642056616c696461746f72732063616e2062652060208301527f696e76697465642e0000000000000000000000000000000000000000000000006040830152606082019050919050565b600061334f603483613cd5565b91507f436f686f7274466163746f72792d696e7669746556616c696461746f724d756c60008301527f7469706c653a204c69737420746f6f206c6f6e670000000000000000000000006020830152604082019050919050565b60006133b5606183613cd5565b91507f436f686f7274466163746f72793a696e7669746556616c696461746f72202d2060008301527f546869732076616c696461746f7220686173206265656e20616c72656164792060208301527f696e766974656420666f7220746869732076616c69646174696f6e207479706560408301527f2e000000000000000000000000000000000000000000000000000000000000006060830152608082019050919050565b6000613467606183613cd5565b91507f437265617465436f686f72743a75706461744d696e56616c696461746f72735060008301527f6572436f686f7274202d204e65772076616c756520666f722074686520206d6960208301527f6e2076616c696461746f722070657220636f686f72742063616e27742062652060408301527f30000000000000000000000000000000000000000000000000000000000000006060830152608082019050919050565b6000613519605683613cd5565b91507f436f686f7274466163746f72793a636c656172496e7669746174696f6e56616c60008301527f696461746f72202d2050726f626c656d2072656d6f76696e672076616c69646160208301527f746f7220696e20436f686f727420636f6e7472616374000000000000000000006040830152606082019050919050565b60006135a5607d83613cd5565b91507f436f686f7274466163746f72793a616363657074496e7669746174696f6e202d60008301527f20596f752061726520616363657074696e6720696e7669746174696f6e20746f60208301527f20776869636820796f752077657265206e6f7420696e7669746564206f72207460408301527f68697320696e7669746174696f6e20646f65736e27742065786973742e0000006060830152608082019050919050565b6000613657602983613cd5565b91507f4d656d626572733a6973536574746572202d2043616c6c6572206973206e6f7460008301527f20612073657474657200000000000000000000000000000000000000000000006020830152604082019050919050565b60006136bd604b83613cd5565b91507f436f686f7274466163746f72793a696e7669746556616c696461746f72202d2060008301527f4f6e6c7920456e746572707269736520757365722063616e20696e766974652060208301527f56616c696461746f72732e0000000000000000000000000000000000000000006040830152606082019050919050565b6000613749605383613cd5565b91507f436f686f7274466163746f72793a637265617465436f686f7274202d2041742060008301527f6c6561737420332076616c696461746f7273206172652072657169726564207460208301527f6f20637265617465206e657720636f686f7274000000000000000000000000006040830152606082019050919050565b6137d181613d41565b82525050565b6137e081613d41565b82525050565b60006020820190506137fb6000830184612fda565b92915050565b60006020820190506138166000830184612fbc565b92915050565b600060e082019050613831600083018a612fda565b61383e6020830189612fda565b61384b60408301886137d7565b61385860608301876137d7565b61386560808301866130c3565b61387260a0830185612fda565b61387f60c08301846130a5565b98975050505050505050565b60006040820190506138a06000830185612fda565b6138ad60208301846130c3565b9392505050565b60006080820190506138c96000830187612fda565b6138d660208301866130c3565b6138e36040830185612fda565b6138f06060830184612fbc565b95945050505050565b600060408201905081810360008301526139138185612fe9565b905081810360208301526139278184613047565b90509392505050565b600060208201905061394560008301846130a5565b92915050565b600060408201905061396060008301856130a5565b61396d60208301846130a5565b9392505050565b600060208201905061398960008301846130b4565b92915050565b60006020820190506139a460008301846130c3565b92915050565b60006060820190506139bf60008301866130c3565b6139cc60208301856137d7565b6139d96040830184612fda565b949350505050565b600060208201905081810360008301526139fa816130d2565b9050919050565b60006020820190508181036000830152613a1a8161315e565b9050919050565b60006020820190508181036000830152613a3a816131c4565b9050919050565b60006020820190508181036000830152613a5a81613250565b9050919050565b60006020820190508181036000830152613a7a816132b6565b9050919050565b60006020820190508181036000830152613a9a81613342565b9050919050565b60006020820190508181036000830152613aba816133a8565b9050919050565b60006020820190508181036000830152613ada8161345a565b9050919050565b60006020820190508181036000830152613afa8161350c565b9050919050565b60006020820190508181036000830152613b1a81613598565b9050919050565b60006020820190508181036000830152613b3a8161364a565b9050919050565b60006020820190508181036000830152613b5a816136b0565b9050919050565b60006020820190508181036000830152613b7a8161373c565b9050919050565b6000602082019050613b9660008301846137d7565b92915050565b6000606082019050613bb160008301866137d7565b8181036020830152613bc38185612fe9565b9050613bd26040830184612fbc565b949350505050565b6000604051905081810181811067ffffffffffffffff82111715613c0157613c00613d93565b5b8060405250919050565b600067ffffffffffffffff821115613c2657613c25613d93565b5b602082029050602081019050919050565b600067ffffffffffffffff821115613c5257613c51613d93565b5b602082029050602081019050919050565b6000819050602082019050919050565b6000819050602082019050919050565b600081519050919050565b600081519050919050565b6000602082019050919050565b6000602082019050919050565b600082825260208201905092915050565b600082825260208201905092915050565b600082825260208201905092915050565b6000613cf182613d21565b9050919050565b60008115159050919050565b6000819050919050565b6000819050613d1c82613d95565b919050565b600073ffffffffffffffffffffffffffffffffffffffff82169050919050565b6000819050919050565b6000613d5682613d6f565b9050919050565b6000613d6882613d0e565b9050919050565b6000613d7a82613d81565b9050919050565b6000613d8c82613d21565b9050919050565bfe5b60068110613da657613da5613d93565b5b50565b613db281613ce6565b8114613dbd57600080fd5b50565b613dc981613cf8565b8114613dd457600080fd5b50565b613de081613d04565b8114613deb57600080fd5b50565b60068110613dfb57600080fd5b50565b613e0781613d41565b8114613e1257600080fd5b5056fe456e756d657261626c655365743a20696e646578206f7574206f6620626f756e6473416363657373436f6e74726f6c3a2073656e646572206d75737420626520616e2061646d696e20746f206772616e74416363657373436f6e74726f6c3a2073656e646572206d75737420626520616e2061646d696e20746f207265766f6b65416363657373436f6e74726f6c3a2063616e206f6e6c792072656e6f756e636520726f6c657320666f722073656c66a264697066735822122061e5ab07cc9a6c1c91a439a7b5c8438d3746daa4ba062546553aa31f40118c0864736f6c63430007060033",
  "immutableReferences": {},
  "source": "// SPDX-License-Identifier: MIT\npragma solidity =0.7.6;\npragma experimental ABIEncoderV2;\nimport \"@openzeppelin/contracts/access/AccessControl.sol\";\nimport \"./Members.sol\";\nimport \"./CreateCohort.sol\";\n\n/**\n * @title CohortFactory\n * Allows on creation of invitations by Enterprise and acceptance of Validators of those \n * invitations. Finally Enterprise can create cohort consisting of invited Validators\n * and Enterprise. \n */\n\ncontract CohortFactory is  AccessControl {\n\n        // Audit types to be used. Three types added for future expansion \n    enum AuditTypes {\n        Financial, System, Contract, NFT, Type5, Type6\n    }\n\n\n    // Invitation structure to hold info about its status\n    struct Invitation {\n        address enterprise;\n        address validator;\n        uint256 invitationDate;      \n        uint256 acceptanceDate;\n        AuditTypes audits;\n        address cohort;\n        bool deleted;\n    }\n\n    struct Cohorts {\n        address cohort;\n        AuditTypes audits;\n    }\n\n    mapping(address => Cohorts[]) public cohortList;\n\n    Members members;                                            // pointer to Members contract\n    mapping (address =>  Invitation[]) public invitations;      // invitations list\n    address platformAddress;                                    // address to deposit platform fees\n    address createCohortAddress;\n    uint256 public minValidatorPerCohort = 3;\n\n    bytes32 public constant SETTER_ROLE =  keccak256(\"SETTER_ROLE\");\n\n    event ValidatorInvited(address indexed inviting, address indexed invitee, AuditTypes audits, uint256 invitationNumber, address cohort);\n    event InvitationAccepted(address indexed validator, uint256 invitationNumber);\n    event CohortCreated(address indexed enterprise, address indexed cohort, AuditTypes audits);\n    event UpdateMinValidatorsPerCohort(uint256 minValidatorPerCohort);\n    event ValidatorCleared(address validator, AuditTypes audit, address cohort, address enterprise);\n\n    /// @dev check if caller is a setter     \n    modifier isSetter {\n        require(hasRole(SETTER_ROLE, msg.sender), \"Members:isSetter - Caller is not a setter\");\n\n        _;\n    }\n\n    constructor(Members _members,  address _createCohortAddress ) {\n        members = _members;\n        createCohortAddress = _createCohortAddress;\n        _setupRole(DEFAULT_ADMIN_ROLE, msg.sender); // \n    }\n   \n\n    /**\n    * @dev to be called by Governance contract to update new value for min validators per cohort\n    * @param _minValidatorPerCohort new value \n    */\n    function updatMinValidatorsPerCohort(uint256 _minValidatorPerCohort) public isSetter() {\n\n        require(_minValidatorPerCohort != 0, \"CreateCohort:updatMinValidatorsPerCohort - New value for the  min validator per cohort can't be 0\");\n        minValidatorPerCohort = _minValidatorPerCohort;\n        emit UpdateMinValidatorsPerCohort(_minValidatorPerCohort);\n    }\n\n    /**\n    * @dev Used by Enterprise to invite validator\n    * @param validator address of the validator to invite\n    * @param audit type of the audit\n    */\n    function inviteValidator(address validator, AuditTypes audit, address cohort) public {\n\n        Invitation memory newInvitation;\n        bool approvedValidator = members.validatorMap(validator);\n        bool isEnterprise = members.enterpriseMap(msg.sender);\n        (bool invited, ) = isValidatorInvited(msg.sender, validator, audit);\n        require( !invited , \"CohortFactory:inviteValidator - This validator has been already invited for this validation type.\" );\n        require( isEnterprise, \"CohortFactory:inviteValidator - Only Enterprise user can invite Validators.\");\n        require( approvedValidator, \"CohortFactory:inviteValidator - Only Approved Validators can be invited.\");\n        require( members.deposits(validator) > 0,\"CohortFactory:inviteValidator - This validator has not staked any tokens yet.\");\n        newInvitation.validator = validator;\n        newInvitation.invitationDate = block.timestamp;     \n        newInvitation.audits = audit;   \n        newInvitation.cohort = cohort;\n        invitations[msg.sender].push(newInvitation);\n       \n        emit ValidatorInvited(msg.sender, validator, audit, invitations[msg.sender].length - 1, cohort);\n    }\n\n    /**\n    * @dev Used by Enterprise to invite multiple validators in one call \n    * @param validator address of the validator to invite\n    * @param audit type of the audit\n    */\n    function inviteValidatorMultiple(address[] memory validator, AuditTypes audit, address cohort) public{\n\n        uint256 length = validator.length;\n        require(length <= 256, \"CohortFactory-inviteValidatorMultiple: List too long\");\n        for (uint256 i = 0; i < length; i++) {\n            inviteValidator(validator[i], audit, cohort);\n        }\n    }\n\n    /**\n    * @dev Used by Validator to accept Enterprise invitation\n    * @param enterprise address of the Enterprise who created invitation\n    * @param invitationNumber invitation number\n    */\n    function acceptInvitation(address enterprise, uint256 invitationNumber) public {\n\n        require( invitations[enterprise].length > invitationNumber, \"CohortFactory:acceptInvitation - This invitation doesn't exist\");\n        require( invitations[enterprise][invitationNumber].acceptanceDate == 0, \"CohortFactory:acceptInvitation- This invitation has been accepted already .\");\n        require( invitations[enterprise][invitationNumber].validator == msg.sender, \"CohortFactory:acceptInvitation - You are accepting invitation to which you were not invited or this invitation doesn't exist.\");\n        invitations[enterprise][invitationNumber].acceptanceDate = block.timestamp;\n            if (invitations[enterprise][invitationNumber].cohort != address(0)) // adding validator to existng cohort\n                require(ICohort(invitations[enterprise][invitationNumber].cohort).addAdditionalValidator(msg.sender), \"CohortFactory:inviteValidator - Problem adding new validator\");\n        emit InvitationAccepted(msg.sender, invitationNumber);\n    }\n\n    /**\n    * @dev Used by Enterprise to remove existing validator\n    * @param validator validator to remove\n    * @param audit type of audit \n    * @param cohort cohort from which validator is removed\n    */\n    function clearInvitationRemoveValidator(address validator, AuditTypes audit, address cohort) public {\n\n        for (uint256 i = 0; i < invitations[msg.sender].length; i++){\n            if (invitations[msg.sender][i].audits == audit && \n                invitations[msg.sender][i].validator ==  validator){\n                invitations[msg.sender][i].deleted = true;\n                require(ICohort(cohort).removeValidator(validator), \n                        \"CohortFactory:clearInvitationValidator - Problem removing validator in Cohort contract\");\n                emit ValidatorCleared(validator, audit, cohort, msg.sender);\n            }\n        }\n    }\n\n    /**\n    * @dev Used by Validator to accept multiple Enterprise invitation\n    * @param enterprise address of the Enterprise who created invitation\n    * @param invitationNumber invitation number\n    */\n    function acceptInvitationMultiple(address[] memory enterprise, uint256[] memory invitationNumber) public{\n\n        uint256 length = enterprise.length;\n        for (uint256 i = 0; i < length; i++) {\n            acceptInvitation(enterprise[i], invitationNumber[i]);\n        }\n    }\n\n    /**\n    * @dev To return invitation count\n    * @param enterprise address of the Enterprise who created invitation\n    * @param audit type\n    * @return count of invitations\n    */\n    function returnInvitationCount(address enterprise, AuditTypes audit) public view returns(uint256) {\n\n        uint256 count;\n\n        for (uint i=0; i < invitations[enterprise].length; ++i ){\n            if (invitations[enterprise][i].audits == audit && \n                invitations[enterprise][i].acceptanceDate != 0 &&\n                !invitations[enterprise][i].deleted)\n                count ++;\n        }\n        return count;\n    }\n\n    /**\n    * @dev Used to determine if validator has been invited and/or if validation has been accepted\n    * @param enterprise inviting party\n    * @param validator address of the validator\n    * @param audits types\n    * @return true if invited\n    * @return true if accepted invitation\n    */\n    function isValidatorInvited(address enterprise, address validator, AuditTypes audits) public view returns (bool, bool) {\n\n        for (uint i=0; i < invitations[enterprise].length; ++i ){\n            if (invitations[enterprise][i].audits == audits && \n                invitations[enterprise][i].validator == validator &&\n                !invitations[enterprise][i].deleted){\n                if (invitations[enterprise][i].acceptanceDate > 0)\n                    return (true, true);\n                return (true, false);\n            }\n        }\n        return (false, false);\n    }\n\n     /**\n    * @dev Used to return of list of cohorts for enterprise\n    * @param enterprise inviting party\n    * @return cohort address \n    * @return audit type\n    */\n    function returnCohorts(address enterprise) public view returns (address[] memory, uint256[] memory){\n\n        address[] memory cohort = new address[](cohortList[enterprise].length);\n        uint256[] memory audits = new uint256[](cohortList[enterprise].length);\n\n        for (uint256 i; i < cohortList[enterprise].length; i++){\n            cohort[i] = cohortList[enterprise][i].cohort;\n            audits[i] = uint256(cohortList[enterprise][i].audits);\n        }\n        return (cohort, audits);\n    }\n\n     /**\n     * @dev Function to calculate outstanding validations for enterprise. \n     */   \n    function returnOutstandingValidations() public view returns(uint256) {\n\n         (address[] memory cohorts, ) = returnCohorts(msg.sender);\n         uint totalOutstandingValidations;\n\n         for (uint256 i; i< cohorts.length; i++)\n             totalOutstandingValidations = totalOutstandingValidations + ICohort(cohorts[i]).outstandingValidations();\n\n        return totalOutstandingValidations;\n    }\n\n    /**\n    * @dev Initiate creation a new cohort using create2 methods based on the audit type and enterprise combination\n    * @param audit type\n    */\n    function createCohort(AuditTypes audit) public {\n        address[] memory validatorsList = new address[](returnInvitationCount(msg.sender, audit));\n        uint k;\n        for (uint i=0; i < invitations[msg.sender].length; ++i ){\n            if (invitations[msg.sender][i].audits == audit && invitations[msg.sender][i].acceptanceDate > 0){\n                validatorsList[k] = invitations[msg.sender][i].validator;\n                k++;\n            }\n        }\n        require(k >= minValidatorPerCohort, \"CohortFactory:createCohort - At least 3 validators are reqired to create new cohort\");\n\n        address cohortAddress = CreateCohort(createCohortAddress).createCohort(uint256(audit),  validatorsList, msg.sender );\n        cohortList[msg.sender].push();\n        cohortList[msg.sender][cohortList[msg.sender].length - 1].cohort = cohortAddress;\n        cohortList[msg.sender][cohortList[msg.sender].length - 1].audits = audit;\n\n        emit CohortCreated(msg.sender, cohortAddress, AuditTypes(audit));\n        \n    }\n}\n",
  "sourcePath": "/home/bogdan/Ethereum/Projects/TGE/Core-Smart-Contracts-v1/contracts/Auditchain/CohortFactory.sol",
  "compiler": {
    "name": "solc",
    "version": "0.7.6+commit.7338295f.Emscripten.clang"
  },
  "schemaVersion": "3.3.4",
  "updatedAt": "2021-03-25T02:20:54.922Z",
  "networkType": "ethereum",
  "devdoc": {
    "kind": "dev",
    "methods": {
      "acceptInvitation(address,uint256)": {
        "details": "Used by Validator to accept Enterprise invitation",
        "params": {
          "enterprise": "address of the Enterprise who created invitation",
          "invitationNumber": "invitation number"
        }
      },
      "acceptInvitationMultiple(address[],uint256[])": {
        "details": "Used by Validator to accept multiple Enterprise invitation",
        "params": {
          "enterprise": "address of the Enterprise who created invitation",
          "invitationNumber": "invitation number"
        }
      },
      "clearInvitationRemoveValidator(address,uint8,address)": {
        "details": "Used by Enterprise to remove existing validator",
        "params": {
          "audit": "type of audit ",
          "cohort": "cohort from which validator is removed",
          "validator": "validator to remove"
        }
      },
      "createCohort(uint8)": {
        "details": "Initiate creation a new cohort using create2 methods based on the audit type and enterprise combination",
        "params": {
          "audit": "type"
        }
      },
      "getRoleAdmin(bytes32)": {
        "details": "Returns the admin role that controls `role`. See {grantRole} and {revokeRole}. To change a role's admin, use {_setRoleAdmin}."
      },
      "getRoleMember(bytes32,uint256)": {
        "details": "Returns one of the accounts that have `role`. `index` must be a value between 0 and {getRoleMemberCount}, non-inclusive. Role bearers are not sorted in any particular way, and their ordering may change at any point. WARNING: When using {getRoleMember} and {getRoleMemberCount}, make sure you perform all queries on the same block. See the following https://forum.openzeppelin.com/t/iterating-over-elements-on-enumerableset-in-openzeppelin-contracts/2296[forum post] for more information."
      },
      "getRoleMemberCount(bytes32)": {
        "details": "Returns the number of accounts that have `role`. Can be used together with {getRoleMember} to enumerate all bearers of a role."
      },
      "grantRole(bytes32,address)": {
        "details": "Grants `role` to `account`. If `account` had not been already granted `role`, emits a {RoleGranted} event. Requirements: - the caller must have ``role``'s admin role."
      },
      "hasRole(bytes32,address)": {
        "details": "Returns `true` if `account` has been granted `role`."
      },
      "inviteValidator(address,uint8,address)": {
        "details": "Used by Enterprise to invite validator",
        "params": {
          "audit": "type of the audit",
          "validator": "address of the validator to invite"
        }
      },
      "inviteValidatorMultiple(address[],uint8,address)": {
        "details": "Used by Enterprise to invite multiple validators in one call ",
        "params": {
          "audit": "type of the audit",
          "validator": "address of the validator to invite"
        }
      },
      "isValidatorInvited(address,address,uint8)": {
        "details": "Used to determine if validator has been invited and/or if validation has been accepted",
        "params": {
          "audits": "types",
          "enterprise": "inviting party",
          "validator": "address of the validator"
        },
        "returns": {
          "_0": "true if invited",
          "_1": "true if accepted invitation"
        }
      },
      "renounceRole(bytes32,address)": {
        "details": "Revokes `role` from the calling account. Roles are often managed via {grantRole} and {revokeRole}: this function's purpose is to provide a mechanism for accounts to lose their privileges if they are compromised (such as when a trusted device is misplaced). If the calling account had been granted `role`, emits a {RoleRevoked} event. Requirements: - the caller must be `account`."
      },
      "returnCohorts(address)": {
        "details": "Used to return of list of cohorts for enterprise",
        "params": {
          "enterprise": "inviting party"
        },
        "returns": {
          "_0": "cohort address ",
          "_1": "audit type"
        }
      },
      "returnInvitationCount(address,uint8)": {
        "details": "To return invitation count",
        "params": {
          "audit": "type",
          "enterprise": "address of the Enterprise who created invitation"
        },
        "returns": {
          "_0": "count of invitations"
        }
      },
      "returnOutstandingValidations()": {
        "details": "Function to calculate outstanding validations for enterprise. "
      },
      "revokeRole(bytes32,address)": {
        "details": "Revokes `role` from `account`. If `account` had been granted `role`, emits a {RoleRevoked} event. Requirements: - the caller must have ``role``'s admin role."
      },
      "updatMinValidatorsPerCohort(uint256)": {
        "details": "to be called by Governance contract to update new value for min validators per cohort",
        "params": {
          "_minValidatorPerCohort": "new value "
        }
      }
    },
    "title": "CohortFactory Allows on creation of invitations by Enterprise and acceptance of Validators of those  invitations. Finally Enterprise can create cohort consisting of invited Validators and Enterprise. ",
    "version": 1
  },
  "userdoc": {
    "kind": "user",
    "methods": {},
    "version": 1
  }
}