{
  "contractName": "CohortFactory",
  "abi": [
    {
      "inputs": [
        {
          "internalType": "contract Members",
          "name": "_members",
          "type": "address"
        },
        {
          "internalType": "address",
          "name": "_createCohortAddress",
          "type": "address"
        }
      ],
      "stateMutability": "nonpayable",
      "type": "constructor"
    },
    {
      "anonymous": false,
      "inputs": [
        {
          "indexed": true,
          "internalType": "address",
          "name": "enterprise",
          "type": "address"
        },
        {
          "indexed": true,
          "internalType": "address",
          "name": "cohort",
          "type": "address"
        },
        {
          "indexed": false,
          "internalType": "enum CohortFactory.AuditTypes",
          "name": "audits",
          "type": "uint8"
        }
      ],
      "name": "CohortCreated",
      "type": "event"
    },
    {
      "anonymous": false,
      "inputs": [
        {
          "indexed": true,
          "internalType": "address",
          "name": "validator",
          "type": "address"
        },
        {
          "indexed": false,
          "internalType": "uint256",
          "name": "invitationNumber",
          "type": "uint256"
        }
      ],
      "name": "InvitationAccepted",
      "type": "event"
    },
    {
      "anonymous": false,
      "inputs": [
        {
          "indexed": true,
          "internalType": "bytes32",
          "name": "role",
          "type": "bytes32"
        },
        {
          "indexed": true,
          "internalType": "bytes32",
          "name": "previousAdminRole",
          "type": "bytes32"
        },
        {
          "indexed": true,
          "internalType": "bytes32",
          "name": "newAdminRole",
          "type": "bytes32"
        }
      ],
      "name": "RoleAdminChanged",
      "type": "event"
    },
    {
      "anonymous": false,
      "inputs": [
        {
          "indexed": true,
          "internalType": "bytes32",
          "name": "role",
          "type": "bytes32"
        },
        {
          "indexed": true,
          "internalType": "address",
          "name": "account",
          "type": "address"
        },
        {
          "indexed": true,
          "internalType": "address",
          "name": "sender",
          "type": "address"
        }
      ],
      "name": "RoleGranted",
      "type": "event"
    },
    {
      "anonymous": false,
      "inputs": [
        {
          "indexed": true,
          "internalType": "bytes32",
          "name": "role",
          "type": "bytes32"
        },
        {
          "indexed": true,
          "internalType": "address",
          "name": "account",
          "type": "address"
        },
        {
          "indexed": true,
          "internalType": "address",
          "name": "sender",
          "type": "address"
        }
      ],
      "name": "RoleRevoked",
      "type": "event"
    },
    {
      "anonymous": false,
      "inputs": [
        {
          "indexed": false,
          "internalType": "uint256",
          "name": "minValidatorPerCohort",
          "type": "uint256"
        },
        {
          "indexed": false,
          "internalType": "enum CohortFactory.AuditTypes",
          "name": "audits",
          "type": "uint8"
        }
      ],
      "name": "UpdateMinValidatorsPerCohort",
      "type": "event"
    },
    {
      "anonymous": false,
      "inputs": [
        {
          "indexed": false,
          "internalType": "address",
          "name": "validator",
          "type": "address"
        },
        {
          "indexed": false,
          "internalType": "enum CohortFactory.AuditTypes",
          "name": "audit",
          "type": "uint8"
        },
        {
          "indexed": false,
          "internalType": "address",
          "name": "cohort",
          "type": "address"
        },
        {
          "indexed": false,
          "internalType": "address",
          "name": "enterprise",
          "type": "address"
        }
      ],
      "name": "ValidatorCleared",
      "type": "event"
    },
    {
      "anonymous": false,
      "inputs": [
        {
          "indexed": true,
          "internalType": "address",
          "name": "inviting",
          "type": "address"
        },
        {
          "indexed": true,
          "internalType": "address",
          "name": "invitee",
          "type": "address"
        },
        {
          "indexed": false,
          "internalType": "enum CohortFactory.AuditTypes",
          "name": "audits",
          "type": "uint8"
        },
        {
          "indexed": false,
          "internalType": "uint256",
          "name": "invitationNumber",
          "type": "uint256"
        },
        {
          "indexed": false,
          "internalType": "address",
          "name": "cohort",
          "type": "address"
        }
      ],
      "name": "ValidatorInvited",
      "type": "event"
    },
    {
      "inputs": [],
      "name": "DEFAULT_ADMIN_ROLE",
      "outputs": [
        {
          "internalType": "bytes32",
          "name": "",
          "type": "bytes32"
        }
      ],
      "stateMutability": "view",
      "type": "function"
    },
    {
      "inputs": [],
      "name": "SETTER_ROLE",
      "outputs": [
        {
          "internalType": "bytes32",
          "name": "",
          "type": "bytes32"
        }
      ],
      "stateMutability": "view",
      "type": "function"
    },
    {
      "inputs": [
        {
          "internalType": "address",
          "name": "",
          "type": "address"
        },
        {
          "internalType": "uint256",
          "name": "",
          "type": "uint256"
        }
      ],
      "name": "cohortList",
      "outputs": [
        {
          "internalType": "address",
          "name": "cohort",
          "type": "address"
        },
        {
          "internalType": "enum CohortFactory.AuditTypes",
          "name": "audits",
          "type": "uint8"
        }
      ],
      "stateMutability": "view",
      "type": "function"
    },
    {
      "inputs": [
        {
          "internalType": "bytes32",
          "name": "role",
          "type": "bytes32"
        }
      ],
      "name": "getRoleAdmin",
      "outputs": [
        {
          "internalType": "bytes32",
          "name": "",
          "type": "bytes32"
        }
      ],
      "stateMutability": "view",
      "type": "function"
    },
    {
      "inputs": [
        {
          "internalType": "bytes32",
          "name": "role",
          "type": "bytes32"
        },
        {
          "internalType": "uint256",
          "name": "index",
          "type": "uint256"
        }
      ],
      "name": "getRoleMember",
      "outputs": [
        {
          "internalType": "address",
          "name": "",
          "type": "address"
        }
      ],
      "stateMutability": "view",
      "type": "function"
    },
    {
      "inputs": [
        {
          "internalType": "bytes32",
          "name": "role",
          "type": "bytes32"
        }
      ],
      "name": "getRoleMemberCount",
      "outputs": [
        {
          "internalType": "uint256",
          "name": "",
          "type": "uint256"
        }
      ],
      "stateMutability": "view",
      "type": "function"
    },
    {
      "inputs": [
        {
          "internalType": "bytes32",
          "name": "role",
          "type": "bytes32"
        },
        {
          "internalType": "address",
          "name": "account",
          "type": "address"
        }
      ],
      "name": "grantRole",
      "outputs": [],
      "stateMutability": "nonpayable",
      "type": "function"
    },
    {
      "inputs": [
        {
          "internalType": "bytes32",
          "name": "role",
          "type": "bytes32"
        },
        {
          "internalType": "address",
          "name": "account",
          "type": "address"
        }
      ],
      "name": "hasRole",
      "outputs": [
        {
          "internalType": "bool",
          "name": "",
          "type": "bool"
        }
      ],
      "stateMutability": "view",
      "type": "function"
    },
    {
      "inputs": [
        {
          "internalType": "address",
          "name": "",
          "type": "address"
        },
        {
          "internalType": "uint256",
          "name": "",
          "type": "uint256"
        }
      ],
      "name": "invitations",
      "outputs": [
        {
          "internalType": "address",
          "name": "enterprise",
          "type": "address"
        },
        {
          "internalType": "address",
          "name": "validator",
          "type": "address"
        },
        {
          "internalType": "uint256",
          "name": "invitationDate",
          "type": "uint256"
        },
        {
          "internalType": "uint256",
          "name": "acceptanceDate",
          "type": "uint256"
        },
        {
          "internalType": "enum CohortFactory.AuditTypes",
          "name": "audits",
          "type": "uint8"
        },
        {
          "internalType": "address",
          "name": "cohort",
          "type": "address"
        },
        {
          "internalType": "bool",
          "name": "deleted",
          "type": "bool"
        }
      ],
      "stateMutability": "view",
      "type": "function"
    },
    {
      "inputs": [
        {
          "internalType": "bytes32",
          "name": "role",
          "type": "bytes32"
        },
        {
          "internalType": "address",
          "name": "account",
          "type": "address"
        }
      ],
      "name": "renounceRole",
      "outputs": [],
      "stateMutability": "nonpayable",
      "type": "function"
    },
    {
      "inputs": [
        {
          "internalType": "bytes32",
          "name": "role",
          "type": "bytes32"
        },
        {
          "internalType": "address",
          "name": "account",
          "type": "address"
        }
      ],
      "name": "revokeRole",
      "outputs": [],
      "stateMutability": "nonpayable",
      "type": "function"
    },
    {
      "inputs": [
        {
          "internalType": "uint256",
          "name": "_minValidatorPerCohort",
          "type": "uint256"
        },
        {
          "internalType": "enum CohortFactory.AuditTypes",
          "name": "audits",
          "type": "uint8"
        }
      ],
      "name": "updatMinValidatorsPerCohort",
      "outputs": [],
      "stateMutability": "nonpayable",
      "type": "function"
    },
    {
      "inputs": [
        {
          "internalType": "address",
          "name": "validator",
          "type": "address"
        },
        {
          "internalType": "enum CohortFactory.AuditTypes",
          "name": "audit",
          "type": "uint8"
        },
        {
          "internalType": "address",
          "name": "cohort",
          "type": "address"
        }
      ],
      "name": "inviteValidator",
      "outputs": [],
      "stateMutability": "nonpayable",
      "type": "function"
    },
    {
      "inputs": [
        {
          "internalType": "address[]",
          "name": "validator",
          "type": "address[]"
        },
        {
          "internalType": "enum CohortFactory.AuditTypes",
          "name": "audit",
          "type": "uint8"
        },
        {
          "internalType": "address",
          "name": "cohort",
          "type": "address"
        }
      ],
      "name": "inviteValidatorMultiple",
      "outputs": [],
      "stateMutability": "nonpayable",
      "type": "function"
    },
    {
      "inputs": [
        {
          "internalType": "address",
          "name": "enterprise",
          "type": "address"
        },
        {
          "internalType": "uint256",
          "name": "invitationNumber",
          "type": "uint256"
        }
      ],
      "name": "acceptInvitation",
      "outputs": [],
      "stateMutability": "nonpayable",
      "type": "function"
    },
    {
      "inputs": [
        {
          "internalType": "address",
          "name": "validator",
          "type": "address"
        },
        {
          "internalType": "enum CohortFactory.AuditTypes",
          "name": "audit",
          "type": "uint8"
        },
        {
          "internalType": "address",
          "name": "cohort",
          "type": "address"
        }
      ],
      "name": "clearInvitationRemoveValidator",
      "outputs": [],
      "stateMutability": "nonpayable",
      "type": "function"
    },
    {
      "inputs": [
        {
          "internalType": "address[]",
          "name": "enterprise",
          "type": "address[]"
        },
        {
          "internalType": "uint256[]",
          "name": "invitationNumber",
          "type": "uint256[]"
        }
      ],
      "name": "acceptInvitationMultiple",
      "outputs": [],
      "stateMutability": "nonpayable",
      "type": "function"
    },
    {
      "inputs": [
        {
          "internalType": "address",
          "name": "enterprise",
          "type": "address"
        },
        {
          "internalType": "enum CohortFactory.AuditTypes",
          "name": "audit",
          "type": "uint8"
        }
      ],
      "name": "returnInvitationCount",
      "outputs": [
        {
          "internalType": "uint256",
          "name": "",
          "type": "uint256"
        }
      ],
      "stateMutability": "view",
      "type": "function"
    },
    {
      "inputs": [
        {
          "internalType": "address",
          "name": "enterprise",
          "type": "address"
        },
        {
          "internalType": "address",
          "name": "validator",
          "type": "address"
        },
        {
          "internalType": "enum CohortFactory.AuditTypes",
          "name": "audits",
          "type": "uint8"
        }
      ],
      "name": "isValidatorInvited",
      "outputs": [
        {
          "internalType": "bool",
          "name": "",
          "type": "bool"
        },
        {
          "internalType": "bool",
          "name": "",
          "type": "bool"
        }
      ],
      "stateMutability": "view",
      "type": "function"
    },
    {
      "inputs": [
        {
          "internalType": "address",
          "name": "enterprise",
          "type": "address"
        }
      ],
      "name": "returnCohorts",
      "outputs": [
        {
          "internalType": "address[]",
          "name": "",
          "type": "address[]"
        },
        {
          "internalType": "uint256[]",
          "name": "",
          "type": "uint256[]"
        }
      ],
      "stateMutability": "view",
      "type": "function"
    },
    {
      "inputs": [],
      "name": "returnOutstandingValidations",
      "outputs": [
        {
          "internalType": "uint256",
          "name": "",
          "type": "uint256"
        }
      ],
      "stateMutability": "view",
      "type": "function"
    },
    {
      "inputs": [
        {
          "internalType": "enum CohortFactory.AuditTypes",
          "name": "audit",
          "type": "uint8"
        }
      ],
      "name": "createCohort",
      "outputs": [],
      "stateMutability": "nonpayable",
      "type": "function"
    }
  ],
  "bytecode": "0x60806040526040518060c00160405280600360ff168152602001600360ff168152602001600360ff168152602001600360ff168152602001600360ff168152602001600360ff1681525060019060066200005b929190620002c4565b503480156200006957600080fd5b50604051620044c0380380620044c083398181016040528101906200008f919062000368565b81600360006101000a81548173ffffffffffffffffffffffffffffffffffffffff021916908373ffffffffffffffffffffffffffffffffffffffff16021790555080600660006101000a81548173ffffffffffffffffffffffffffffffffffffffff021916908373ffffffffffffffffffffffffffffffffffffffff160217905550620001266000801b336200012e60201b60201c565b505062000425565b6200014082826200014460201b60201c565b5050565b6200017281600080858152602001908152602001600020600001620001e760201b620026441790919060201c565b15620001e357620001886200021f60201b60201c565b73ffffffffffffffffffffffffffffffffffffffff168173ffffffffffffffffffffffffffffffffffffffff16837f2f8788117e7eff1d82e926ec794901d17c78024a50270940304540a733656f0d60405160405180910390a45b5050565b600062000217836000018373ffffffffffffffffffffffffffffffffffffffff1660001b6200022760201b60201c565b905092915050565b600033905090565b60006200023b8383620002a160201b60201c565b620002965782600001829080600181540180825580915050600190039060005260206000200160009091909190915055826000018054905083600101600084815260200190815260200160002081905550600190506200029b565b600090505b92915050565b600080836001016000848152602001908152602001600020541415905092915050565b82805482825590600052602060002090810192821562000308579160200282015b8281111562000307578251829060ff16905591602001919060010190620002e5565b5b5090506200031791906200031b565b5090565b5b80821115620003365760008160009055506001016200031c565b5090565b6000815190506200034b81620003f1565b92915050565b60008151905062000362816200040b565b92915050565b600080604083850312156200037c57600080fd5b60006200038c8582860162000351565b92505060206200039f858286016200033a565b9150509250929050565b6000620003b682620003d1565b9050919050565b6000620003ca82620003a9565b9050919050565b600073ffffffffffffffffffffffffffffffffffffffff82169050919050565b620003fc81620003a9565b81146200040857600080fd5b50565b6200041681620003bd565b81146200042257600080fd5b50565b61408b80620004356000396000f3fe608060405234801561001057600080fd5b50600436106101425760003560e01c80638ffb72f4116100b8578063a70e03931161007c578063a70e03931461039f578063c535124e146103d0578063ca15c873146103ee578063ced02c8b1461041e578063d547741f1461043a578063ed44d19a1461045657610142565b80638ffb72f4146102cd5780639010d07c1461030357806391d1485414610333578063a2011b3f14610363578063a217fddf1461038157610142565b80632f2ff15d1161010a5780632f2ff15d1461021057806336568abe1461022c5780637689bb7d146102485780637c915c861461026457806387247dea146102805780638e02c1f4146102b157610142565b80630939a997146101475780630ea02160146101635780631f94fc3a1461017f578063247e28b3146101b0578063248a9ca3146101e0575b600080fd5b610161600480360381019061015c9190612df3565b610472565b005b61017d60048036038101906101789190612db7565b6104c6565b005b61019960048036038101906101949190612cdd565b610978565b6040516101a7929190613a92565b60405180910390f35b6101ca60048036038101906101c59190612d2c565b610c0d565b6040516101d79190613ce8565b60405180910390f35b6101fa60048036038101906101f59190612eef565b610ddc565b6040516102079190613abb565b60405180910390f35b61022a60048036038101906102259190612f18565b610dfb565b005b61024660048036038101906102419190612f18565b610e84565b005b610262600480360381019061025d9190612d68565b610f1d565b005b61027e60048036038101906102799190612f90565b611531565b005b61029a60048036038101906102959190612c8b565b611b1d565b6040516102a8929190613a40565b60405180910390f35b6102cb60048036038101906102c69190612d68565b611de8565b005b6102e760048036038101906102e29190612db7565b6120fe565b6040516102fa9796959493929190613963565b60405180910390f35b61031d60048036038101906103189190612f54565b6121d7565b60405161032a9190613904565b60405180910390f35b61034d60048036038101906103489190612f18565b612208565b60405161035a9190613a77565b60405180910390f35b61036b612239565b6040516103789190613abb565b60405180910390f35b61038961225d565b6040516103969190613abb565b60405180910390f35b6103b960048036038101906103b49190612db7565b612264565b6040516103c79291906139d2565b60405180910390f35b6103d86122ce565b6040516103e59190613ce8565b60405180910390f35b61040860048036038101906104039190612eef565b612395565b6040516104159190613ce8565b60405180910390f35b61043860048036038101906104339190612e5f565b6123bb565b005b610454600480360381019061044f9190612f18565b612443565b005b610470600480360381019061046b9190612fe2565b6124cc565b005b60008251905060005b818110156104c0576104b384828151811061049257fe5b60200260200101518483815181106104a657fe5b60200260200101516104c6565b808060010191505061047b565b50505050565b80600460008473ffffffffffffffffffffffffffffffffffffffff1673ffffffffffffffffffffffffffffffffffffffff168152602001908152602001600020805490501161054a576040517f08c379a000000000000000000000000000000000000000000000000000000000815260040161054190613b48565b60405180910390fd5b6000600460008473ffffffffffffffffffffffffffffffffffffffff1673ffffffffffffffffffffffffffffffffffffffff168152602001908152602001600020828154811061059657fe5b906000526020600020906005020160030154146105e8576040517f08c379a00000000000000000000000000000000000000000000000000000000081526004016105df90613ba8565b60405180910390fd5b3373ffffffffffffffffffffffffffffffffffffffff16600460008473ffffffffffffffffffffffffffffffffffffffff1673ffffffffffffffffffffffffffffffffffffffff168152602001908152602001600020828154811061064957fe5b906000526020600020906005020160010160009054906101000a900473ffffffffffffffffffffffffffffffffffffffff1673ffffffffffffffffffffffffffffffffffffffff16146106d1576040517f08c379a00000000000000000000000000000000000000000000000000000000081526004016106c890613c88565b60405180910390fd5b42600460008473ffffffffffffffffffffffffffffffffffffffff1673ffffffffffffffffffffffffffffffffffffffff168152602001908152602001600020828154811061071c57fe5b906000526020600020906005020160030181905550600073ffffffffffffffffffffffffffffffffffffffff16600460008473ffffffffffffffffffffffffffffffffffffffff1673ffffffffffffffffffffffffffffffffffffffff168152602001908152602001600020828154811061079357fe5b906000526020600020906005020160040160019054906101000a900473ffffffffffffffffffffffffffffffffffffffff1673ffffffffffffffffffffffffffffffffffffffff161461092657600460008373ffffffffffffffffffffffffffffffffffffffff1673ffffffffffffffffffffffffffffffffffffffff168152602001908152602001600020818154811061082a57fe5b906000526020600020906005020160040160019054906101000a900473ffffffffffffffffffffffffffffffffffffffff1673ffffffffffffffffffffffffffffffffffffffff16638c410fc8336040518263ffffffff1660e01b8152600401610894919061391f565b602060405180830381600087803b1580156108ae57600080fd5b505af11580156108c2573d6000803e3d6000fd5b505050506040513d601f19601f820116820180604052508101906108e69190612ec6565b610925576040517f08c379a000000000000000000000000000000000000000000000000000000000815260040161091c90613bc8565b60405180910390fd5b5b3373ffffffffffffffffffffffffffffffffffffffff167f7b03e8bab458bdbb216f7525cb174b013e75d040884fe46cc9e836fc05a0cc7b8260405161096c9190613ce8565b60405180910390a25050565b60008060005b600460008773ffffffffffffffffffffffffffffffffffffffff1673ffffffffffffffffffffffffffffffffffffffff16815260200190815260200160002080549050811015610bfc578360058111156109d457fe5b600460008873ffffffffffffffffffffffffffffffffffffffff1673ffffffffffffffffffffffffffffffffffffffff1681526020019081526020016000208281548110610a1e57fe5b906000526020600020906005020160040160009054906101000a900460ff166005811115610a4857fe5b148015610afb57508473ffffffffffffffffffffffffffffffffffffffff16600460008873ffffffffffffffffffffffffffffffffffffffff1673ffffffffffffffffffffffffffffffffffffffff1681526020019081526020016000208281548110610ab157fe5b906000526020600020906005020160010160009054906101000a900473ffffffffffffffffffffffffffffffffffffffff1673ffffffffffffffffffffffffffffffffffffffff16145b8015610b6d5750600460008773ffffffffffffffffffffffffffffffffffffffff1673ffffffffffffffffffffffffffffffffffffffff1681526020019081526020016000208181548110610b4c57fe5b906000526020600020906005020160040160159054906101000a900460ff16155b15610bf1576000600460008873ffffffffffffffffffffffffffffffffffffffff1673ffffffffffffffffffffffffffffffffffffffff1681526020019081526020016000208281548110610bbe57fe5b9060005260206000209060050201600301541115610be3576001809250925050610c05565b600160009250925050610c05565b80600101905061097e565b50600080915091505b935093915050565b60008060005b600460008673ffffffffffffffffffffffffffffffffffffffff1673ffffffffffffffffffffffffffffffffffffffff16815260200190815260200160002080549050811015610dd157836005811115610c6957fe5b600460008773ffffffffffffffffffffffffffffffffffffffff1673ffffffffffffffffffffffffffffffffffffffff1681526020019081526020016000208281548110610cb357fe5b906000526020600020906005020160040160009054906101000a900460ff166005811115610cdd57fe5b148015610d4657506000600460008773ffffffffffffffffffffffffffffffffffffffff1673ffffffffffffffffffffffffffffffffffffffff1681526020019081526020016000208281548110610d3157fe5b90600052602060002090600502016003015414155b8015610db85750600460008673ffffffffffffffffffffffffffffffffffffffff1673ffffffffffffffffffffffffffffffffffffffff1681526020019081526020016000208181548110610d9757fe5b906000526020600020906005020160040160159054906101000a900460ff16155b15610dc65781806001019250505b806001019050610c13565b508091505092915050565b6000806000838152602001908152602001600020600201549050919050565b610e2160008084815260200190815260200160002060020154610e1c612674565b612208565b610e76576040517f08c379a000000000000000000000000000000000000000000000000000000000815260040180806020018281038252602f815260200180613fc8602f913960400191505060405180910390fd5b610e80828261267c565b5050565b610e8c612674565b73ffffffffffffffffffffffffffffffffffffffff168173ffffffffffffffffffffffffffffffffffffffff1614610f0f576040517f08c379a000000000000000000000000000000000000000000000000000000000815260040180806020018281038252602f815260200180614027602f913960400191505060405180910390fd5b610f19828261270f565b5050565b610f25612a40565b6000600360009054906101000a900473ffffffffffffffffffffffffffffffffffffffff1673ffffffffffffffffffffffffffffffffffffffff166318d50d33866040518263ffffffff1660e01b8152600401610f829190613904565b60206040518083038186803b158015610f9a57600080fd5b505afa158015610fae573d6000803e3d6000fd5b505050506040513d601f19601f82011682018060405250810190610fd29190612ec6565b90506000600360009054906101000a900473ffffffffffffffffffffffffffffffffffffffff1673ffffffffffffffffffffffffffffffffffffffff1663be07b32e336040518263ffffffff1660e01b8152600401611031919061391f565b60206040518083038186803b15801561104957600080fd5b505afa15801561105d573d6000803e3d6000fd5b505050506040513d601f19601f820116820180604052508101906110819190612ec6565b90506000611090338888610978565b50905080156110d4576040517f08c379a00000000000000000000000000000000000000000000000000000000081526004016110cb90613c28565b60405180910390fd5b81611114576040517f08c379a000000000000000000000000000000000000000000000000000000000815260040161110b90613cc8565b60405180910390fd5b82611154576040517f08c379a000000000000000000000000000000000000000000000000000000000815260040161114b90613be8565b60405180910390fd5b6000600360009054906101000a900473ffffffffffffffffffffffffffffffffffffffff1673ffffffffffffffffffffffffffffffffffffffff1663fc7e286d896040518263ffffffff1660e01b81526004016111b19190613904565b60206040518083038186803b1580156111c957600080fd5b505afa1580156111dd573d6000803e3d6000fd5b505050506040513d601f19601f820116820180604052508101906112019190612fb9565b11611241576040517f08c379a000000000000000000000000000000000000000000000000000000000815260040161123890613b28565b60405180910390fd5b86846020019073ffffffffffffffffffffffffffffffffffffffff16908173ffffffffffffffffffffffffffffffffffffffff168152505042846040018181525050858460800190600581111561129457fe5b908160058111156112a157fe5b81525050848460a0019073ffffffffffffffffffffffffffffffffffffffff16908173ffffffffffffffffffffffffffffffffffffffff1681525050600460003373ffffffffffffffffffffffffffffffffffffffff1673ffffffffffffffffffffffffffffffffffffffff16815260200190815260200160002084908060018154018082558091505060019003906000526020600020906005020160009091909190915060008201518160000160006101000a81548173ffffffffffffffffffffffffffffffffffffffff021916908373ffffffffffffffffffffffffffffffffffffffff16021790555060208201518160010160006101000a81548173ffffffffffffffffffffffffffffffffffffffff021916908373ffffffffffffffffffffffffffffffffffffffff160217905550604082015181600201556060820151816003015560808201518160040160006101000a81548160ff0219169083600581111561140c57fe5b021790555060a08201518160040160016101000a81548173ffffffffffffffffffffffffffffffffffffffff021916908373ffffffffffffffffffffffffffffffffffffffff16021790555060c08201518160040160156101000a81548160ff02191690831515021790555050508673ffffffffffffffffffffffffffffffffffffffff163373ffffffffffffffffffffffffffffffffffffffff167f2c2dbe2d2a7b83ef060aaf0987c01d917ae8b3c3f1b967f5ed2aaa5dd19ed48a886001600460003373ffffffffffffffffffffffffffffffffffffffff1673ffffffffffffffffffffffffffffffffffffffff16815260200190815260200160002080549050038960405161152093929190613af1565b60405180910390a350505050505050565b600061153d3383610c0d565b67ffffffffffffffff8111801561155357600080fd5b506040519080825280602002602001820160405280156115825781602001602082028036833780820191505090505b509050600080600090505b600460003373ffffffffffffffffffffffffffffffffffffffff1673ffffffffffffffffffffffffffffffffffffffff1681526020019081526020016000208054905081101561179a578360058111156115e357fe5b600460003373ffffffffffffffffffffffffffffffffffffffff1673ffffffffffffffffffffffffffffffffffffffff168152602001908152602001600020828154811061162d57fe5b906000526020600020906005020160040160009054906101000a900460ff16600581111561165757fe5b1480156116bf57506000600460003373ffffffffffffffffffffffffffffffffffffffff1673ffffffffffffffffffffffffffffffffffffffff16815260200190815260200160002082815481106116ab57fe5b906000526020600020906005020160030154115b1561178f57600460003373ffffffffffffffffffffffffffffffffffffffff1673ffffffffffffffffffffffffffffffffffffffff168152602001908152602001600020818154811061170e57fe5b906000526020600020906005020160010160009054906101000a900473ffffffffffffffffffffffffffffffffffffffff1683838151811061174c57fe5b602002602001019073ffffffffffffffffffffffffffffffffffffffff16908173ffffffffffffffffffffffffffffffffffffffff168152505081806001019250505b80600101905061158d565b5060018360058111156117a957fe5b815481106117b357fe5b9060005260206000200154811015611800576040517f08c379a00000000000000000000000000000000000000000000000000000000081526004016117f790613b68565b60405180910390fd5b6000600660009054906101000a900473ffffffffffffffffffffffffffffffffffffffff1673ffffffffffffffffffffffffffffffffffffffff1663ac680c3f85600581111561184c57fe5b85336040518463ffffffff1660e01b815260040161186c93929190613d03565b602060405180830381600087803b15801561188657600080fd5b505af115801561189a573d6000803e3d6000fd5b505050506040513d601f19601f820116820180604052508101906118be9190612cb4565b9050600260003373ffffffffffffffffffffffffffffffffffffffff1673ffffffffffffffffffffffffffffffffffffffff16815260200190815260200160002060018160018154018082558091505003906000526020600020505080600260003373ffffffffffffffffffffffffffffffffffffffff1673ffffffffffffffffffffffffffffffffffffffff1681526020019081526020016000206001600260003373ffffffffffffffffffffffffffffffffffffffff1673ffffffffffffffffffffffffffffffffffffffff1681526020019081526020016000208054905003815481106119aa57fe5b9060005260206000200160000160006101000a81548173ffffffffffffffffffffffffffffffffffffffff021916908373ffffffffffffffffffffffffffffffffffffffff16021790555083600260003373ffffffffffffffffffffffffffffffffffffffff1673ffffffffffffffffffffffffffffffffffffffff1681526020019081526020016000206001600260003373ffffffffffffffffffffffffffffffffffffffff1673ffffffffffffffffffffffffffffffffffffffff168152602001908152602001600020805490500381548110611a8557fe5b9060005260206000200160000160146101000a81548160ff02191690836005811115611aad57fe5b02179055508073ffffffffffffffffffffffffffffffffffffffff163373ffffffffffffffffffffffffffffffffffffffff167f90691b6bd4b271754d0eb5676725798ab1ab64c7225d8e48882bc2f6add2dd0986604051611b0f9190613ad6565b60405180910390a350505050565b6060806000600260008573ffffffffffffffffffffffffffffffffffffffff1673ffffffffffffffffffffffffffffffffffffffff1681526020019081526020016000208054905067ffffffffffffffff81118015611b7b57600080fd5b50604051908082528060200260200182016040528015611baa5781602001602082028036833780820191505090505b5090506000600260008673ffffffffffffffffffffffffffffffffffffffff1673ffffffffffffffffffffffffffffffffffffffff1681526020019081526020016000208054905067ffffffffffffffff81118015611c0857600080fd5b50604051908082528060200260200182016040528015611c375781602001602082028036833780820191505090505b50905060005b600260008773ffffffffffffffffffffffffffffffffffffffff1673ffffffffffffffffffffffffffffffffffffffff16815260200190815260200160002080549050811015611dda57600260008773ffffffffffffffffffffffffffffffffffffffff1673ffffffffffffffffffffffffffffffffffffffff1681526020019081526020016000208181548110611cd157fe5b9060005260206000200160000160009054906101000a900473ffffffffffffffffffffffffffffffffffffffff16838281518110611d0b57fe5b602002602001019073ffffffffffffffffffffffffffffffffffffffff16908173ffffffffffffffffffffffffffffffffffffffff1681525050600260008773ffffffffffffffffffffffffffffffffffffffff1673ffffffffffffffffffffffffffffffffffffffff1681526020019081526020016000208181548110611d8f57fe5b9060005260206000200160000160149054906101000a900460ff166005811115611db557fe5b828281518110611dc157fe5b6020026020010181815250508080600101915050611c3d565b508181935093505050915091565b60005b600460003373ffffffffffffffffffffffffffffffffffffffff1673ffffffffffffffffffffffffffffffffffffffff168152602001908152602001600020805490508110156120f857826005811115611e4157fe5b600460003373ffffffffffffffffffffffffffffffffffffffff1673ffffffffffffffffffffffffffffffffffffffff1681526020019081526020016000208281548110611e8b57fe5b906000526020600020906005020160040160009054906101000a900460ff166005811115611eb557fe5b148015611f6857508373ffffffffffffffffffffffffffffffffffffffff16600460003373ffffffffffffffffffffffffffffffffffffffff1673ffffffffffffffffffffffffffffffffffffffff1681526020019081526020016000208281548110611f1e57fe5b906000526020600020906005020160010160009054906101000a900473ffffffffffffffffffffffffffffffffffffffff1673ffffffffffffffffffffffffffffffffffffffff16145b156120eb576001600460003373ffffffffffffffffffffffffffffffffffffffff1673ffffffffffffffffffffffffffffffffffffffff1681526020019081526020016000208281548110611fb957fe5b906000526020600020906005020160040160156101000a81548160ff0219169083151502179055508173ffffffffffffffffffffffffffffffffffffffff166396cb4c0d85336040518363ffffffff1660e01b815260040161201c92919061393a565b602060405180830381600087803b15801561203657600080fd5b505af115801561204a573d6000803e3d6000fd5b505050506040513d601f19601f8201168201806040525081019061206e9190612ec6565b6120ad576040517f08c379a00000000000000000000000000000000000000000000000000000000081526004016120a490613c68565b60405180910390fd5b7fc79fd5e121f785109eb0b6f9236759e63b1507d2388bae38d35500874fd186b6848484336040516120e294939291906139fb565b60405180910390a15b8080600101915050611deb565b50505050565b6004602052816000526040600020818154811061211a57600080fd5b9060005260206000209060050201600091509150508060000160009054906101000a900473ffffffffffffffffffffffffffffffffffffffff16908060010160009054906101000a900473ffffffffffffffffffffffffffffffffffffffff16908060020154908060030154908060040160009054906101000a900460ff16908060040160019054906101000a900473ffffffffffffffffffffffffffffffffffffffff16908060040160159054906101000a900460ff16905087565b6000612200826000808681526020019081526020016000206000016127a290919063ffffffff16565b905092915050565b6000612231826000808681526020019081526020016000206000016127bc90919063ffffffff16565b905092915050565b7f61c92169ef077349011ff0b1383c894d86c5f0b41d986366b58a6cf31e93beda81565b6000801b81565b6002602052816000526040600020818154811061228057600080fd5b90600052602060002001600091509150508060000160009054906101000a900473ffffffffffffffffffffffffffffffffffffffff16908060000160149054906101000a900460ff16905082565b6000806122da33611b1d565b5090506000805b825181101561238c578281815181106122f657fe5b602002602001015173ffffffffffffffffffffffffffffffffffffffff1663860008f06040518163ffffffff1660e01b815260040160206040518083038186803b15801561234357600080fd5b505afa158015612357573d6000803e3d6000fd5b505050506040513d601f19601f8201168201806040525081019061237b9190612fb9565b8201915080806001019150506122e1565b50809250505090565b60006123b46000808481526020019081526020016000206000016127ec565b9050919050565b600083519050610100811115612406576040517f08c379a00000000000000000000000000000000000000000000000000000000081526004016123fd90613c08565b60405180910390fd5b60005b8181101561243c5761242f85828151811061242057fe5b60200260200101518585610f1d565b8080600101915050612409565b5050505050565b61246960008084815260200190815260200160002060020154612464612674565b612208565b6124be576040517f08c379a0000000000000000000000000000000000000000000000000000000008152600401808060200182810382526030815260200180613ff76030913960400191505060405180910390fd5b6124c8828261270f565b5050565b6124f67f61c92169ef077349011ff0b1383c894d86c5f0b41d986366b58a6cf31e93beda33612208565b612535576040517f08c379a000000000000000000000000000000000000000000000000000000000815260040161252c90613ca8565b60405180910390fd5b6000821415612579576040517f08c379a000000000000000000000000000000000000000000000000000000000815260040161257090613c48565b60405180910390fd5b600581600581111561258757fe5b111580156125a15750600081600581111561259e57fe5b10155b6125e0576040517f08c379a00000000000000000000000000000000000000000000000000000000081526004016125d790613b88565b60405180910390fd5b8160018260058111156125ef57fe5b815481106125f957fe5b90600052602060002001819055507f77141346a51f055f5bb35ecb1499b0bb7d9fbf1442b909bd3fd419820ccb98b28282604051612638929190613d41565b60405180910390a15050565b600061266c836000018373ffffffffffffffffffffffffffffffffffffffff1660001b612801565b905092915050565b600033905090565b6126a38160008085815260200190815260200160002060000161264490919063ffffffff16565b1561270b576126b0612674565b73ffffffffffffffffffffffffffffffffffffffff168173ffffffffffffffffffffffffffffffffffffffff16837f2f8788117e7eff1d82e926ec794901d17c78024a50270940304540a733656f0d60405160405180910390a45b5050565b6127368160008085815260200190815260200160002060000161287190919063ffffffff16565b1561279e57612743612674565b73ffffffffffffffffffffffffffffffffffffffff168173ffffffffffffffffffffffffffffffffffffffff16837ff6391f5c32d9c69d2a47ea670b442974b53935d1edc7fd64eb21e047a839171b60405160405180910390a45b5050565b60006127b183600001836128a1565b60001c905092915050565b60006127e4836000018373ffffffffffffffffffffffffffffffffffffffff1660001b612924565b905092915050565b60006127fa82600001612947565b9050919050565b600061280d8383612924565b61286657826000018290806001815401808255809150506001900390600052602060002001600090919091909150558260000180549050836001016000848152602001908152602001600020819055506001905061286b565b600090505b92915050565b6000612899836000018373ffffffffffffffffffffffffffffffffffffffff1660001b612958565b905092915050565b600081836000018054905011612902576040517f08c379a0000000000000000000000000000000000000000000000000000000008152600401808060200182810382526022815260200180613fa66022913960400191505060405180910390fd5b82600001828154811061291157fe5b9060005260206000200154905092915050565b600080836001016000848152602001908152602001600020541415905092915050565b600081600001805490509050919050565b60008083600101600084815260200190815260200160002054905060008114612a3457600060018203905060006001866000018054905003905060008660000182815481106129a357fe5b90600052602060002001549050808760000184815481106129c057fe5b90600052602060002001819055506001830187600101600083815260200190815260200160002081905550866000018054806129f857fe5b60019003818190600052602060002001600090559055866001016000878152602001908152602001600020600090556001945050505050612a3a565b60009150505b92915050565b6040518060e00160405280600073ffffffffffffffffffffffffffffffffffffffff168152602001600073ffffffffffffffffffffffffffffffffffffffff168152602001600081526020016000815260200160006005811115612aa057fe5b8152602001600073ffffffffffffffffffffffffffffffffffffffff1681526020016000151581525090565b6000612adf612ada84613d9b565b613d6a565b90508083825260208201905082856020860282011115612afe57600080fd5b60005b85811015612b2e5781612b148882612ba4565b845260208401935060208301925050600181019050612b01565b5050509392505050565b6000612b4b612b4684613dc7565b613d6a565b90508083825260208201905082856020860282011115612b6a57600080fd5b60005b85811015612b9a5781612b808882612c61565b845260208401935060208301925050600181019050612b6d565b5050509392505050565b600081359050612bb381613f39565b92915050565b600081519050612bc881613f39565b92915050565b600082601f830112612bdf57600080fd5b8135612bef848260208601612acc565b91505092915050565b600082601f830112612c0957600080fd5b8135612c19848260208601612b38565b91505092915050565b600081519050612c3181613f50565b92915050565b600081359050612c4681613f67565b92915050565b600081359050612c5b81613f7e565b92915050565b600081359050612c7081613f8e565b92915050565b600081519050612c8581613f8e565b92915050565b600060208284031215612c9d57600080fd5b6000612cab84828501612ba4565b91505092915050565b600060208284031215612cc657600080fd5b6000612cd484828501612bb9565b91505092915050565b600080600060608486031215612cf257600080fd5b6000612d0086828701612ba4565b9350506020612d1186828701612ba4565b9250506040612d2286828701612c4c565b9150509250925092565b60008060408385031215612d3f57600080fd5b6000612d4d85828601612ba4565b9250506020612d5e85828601612c4c565b9150509250929050565b600080600060608486031215612d7d57600080fd5b6000612d8b86828701612ba4565b9350506020612d9c86828701612c4c565b9250506040612dad86828701612ba4565b9150509250925092565b60008060408385031215612dca57600080fd5b6000612dd885828601612ba4565b9250506020612de985828601612c61565b9150509250929050565b60008060408385031215612e0657600080fd5b600083013567ffffffffffffffff811115612e2057600080fd5b612e2c85828601612bce565b925050602083013567ffffffffffffffff811115612e4957600080fd5b612e5585828601612bf8565b9150509250929050565b600080600060608486031215612e7457600080fd5b600084013567ffffffffffffffff811115612e8e57600080fd5b612e9a86828701612bce565b9350506020612eab86828701612c4c565b9250506040612ebc86828701612ba4565b9150509250925092565b600060208284031215612ed857600080fd5b6000612ee684828501612c22565b91505092915050565b600060208284031215612f0157600080fd5b6000612f0f84828501612c37565b91505092915050565b60008060408385031215612f2b57600080fd5b6000612f3985828601612c37565b9250506020612f4a85828601612ba4565b9150509250929050565b60008060408385031215612f6757600080fd5b6000612f7585828601612c37565b9250506020612f8685828601612c61565b9150509250929050565b600060208284031215612fa257600080fd5b6000612fb084828501612c4c565b91505092915050565b600060208284031215612fcb57600080fd5b6000612fd984828501612c76565b91505092915050565b60008060408385031215612ff557600080fd5b600061300385828601612c61565b925050602061301485828601612c4c565b9150509250929050565b600061302a838361305d565b60208301905092915050565b600061304283836138e6565b60208301905092915050565b61305781613edb565b82525050565b61306681613e76565b82525050565b61307581613e76565b82525050565b600061308682613e13565b6130908185613e43565b935061309b83613df3565b8060005b838110156130cc5781516130b3888261301e565b97506130be83613e29565b92505060018101905061309f565b5085935050505092915050565b60006130e482613e1e565b6130ee8185613e54565b93506130f983613e03565b8060005b8381101561312a5781516131118882613036565b975061311c83613e36565b9250506001810190506130fd565b5085935050505092915050565b61314081613e88565b82525050565b61314f81613e94565b82525050565b61315e81613eed565b82525050565b6000613171604d83613e65565b91507f436f686f7274466163746f72793a696e7669746556616c696461746f72202d2060008301527f546869732076616c696461746f7220686173206e6f74207374616b656420616e60208301527f7920746f6b656e73207965742e000000000000000000000000000000000000006040830152606082019050919050565b60006131fd603e83613e65565b91507f436f686f7274466163746f72793a616363657074496e7669746174696f6e202d60008301527f205468697320696e7669746174696f6e20646f65736e277420657869737400006020830152604082019050919050565b6000613263604983613e65565b91507f436f686f7274466163746f72793a637265617465436f686f7274202d204e756d60008301527f626572206f662076616c696461746f72732062656c6f7720726571756972656460208301527f206d696e696d756d2e00000000000000000000000000000000000000000000006040830152606082019050919050565b60006132ef604e83613e65565b91507f436f686f727420466163746f72793a75706461744d696e56616c696461746f7260008301527f73506572436f686f7274202d20417564697420747970652068617320746f206260208301527f65203c3d203520616e64203e3d300000000000000000000000000000000000006040830152606082019050919050565b600061337b604b83613e65565b91507f436f686f7274466163746f72793a616363657074496e7669746174696f6e2d2060008301527f5468697320696e7669746174696f6e20686173206265656e206163636570746560208301527f6420616c7265616479202e0000000000000000000000000000000000000000006040830152606082019050919050565b6000613407603c83613e65565b91507f436f686f7274466163746f72793a696e7669746556616c696461746f72202d2060008301527f50726f626c656d20616464696e67206e65772076616c696461746f72000000006020830152604082019050919050565b600061346d604883613e65565b91507f436f686f7274466163746f72793a696e7669746556616c696461746f72202d2060008301527f4f6e6c7920417070726f7665642056616c696461746f72732063616e2062652060208301527f696e76697465642e0000000000000000000000000000000000000000000000006040830152606082019050919050565b60006134f9603483613e65565b91507f436f686f7274466163746f72792d696e7669746556616c696461746f724d756c60008301527f7469706c653a204c69737420746f6f206c6f6e670000000000000000000000006020830152604082019050919050565b600061355f606183613e65565b91507f436f686f7274466163746f72793a696e7669746556616c696461746f72202d2060008301527f546869732076616c696461746f7220686173206265656e20616c72656164792060208301527f696e766974656420666f7220746869732076616c69646174696f6e207479706560408301527f2e000000000000000000000000000000000000000000000000000000000000006060830152608082019050919050565b6000613611606183613e65565b91507f437265617465436f686f72743a75706461744d696e56616c696461746f72735060008301527f6572436f686f7274202d204e65772076616c756520666f722074686520206d6960208301527f6e2076616c696461746f722070657220636f686f72742063616e27742062652060408301527f30000000000000000000000000000000000000000000000000000000000000006060830152608082019050919050565b60006136c3605683613e65565b91507f436f686f7274466163746f72793a636c656172496e7669746174696f6e56616c60008301527f696461746f72202d2050726f626c656d2072656d6f76696e672076616c69646160208301527f746f7220696e20436f686f727420636f6e7472616374000000000000000000006040830152606082019050919050565b600061374f607d83613e65565b91507f436f686f7274466163746f72793a616363657074496e7669746174696f6e202d60008301527f20596f752061726520616363657074696e6720696e7669746174696f6e20746f60208301527f20776869636820796f752077657265206e6f7420696e7669746564206f72207460408301527f68697320696e7669746174696f6e20646f65736e27742065786973742e0000006060830152608082019050919050565b6000613801602983613e65565b91507f4d656d626572733a6973536574746572202d2043616c6c6572206973206e6f7460008301527f20612073657474657200000000000000000000000000000000000000000000006020830152604082019050919050565b6000613867604b83613e65565b91507f436f686f7274466163746f72793a696e7669746556616c696461746f72202d2060008301527f4f6e6c7920456e746572707269736520757365722063616e20696e766974652060208301527f56616c696461746f72732e0000000000000000000000000000000000000000006040830152606082019050919050565b6138ef81613ed1565b82525050565b6138fe81613ed1565b82525050565b6000602082019050613919600083018461306c565b92915050565b6000602082019050613934600083018461304e565b92915050565b600060408201905061394f600083018561306c565b61395c602083018461304e565b9392505050565b600060e082019050613978600083018a61306c565b613985602083018961306c565b61399260408301886138f5565b61399f60608301876138f5565b6139ac6080830186613155565b6139b960a083018561306c565b6139c660c0830184613137565b98975050505050505050565b60006040820190506139e7600083018561306c565b6139f46020830184613155565b9392505050565b6000608082019050613a10600083018761306c565b613a1d6020830186613155565b613a2a604083018561306c565b613a37606083018461304e565b95945050505050565b60006040820190508181036000830152613a5a818561307b565b90508181036020830152613a6e81846130d9565b90509392505050565b6000602082019050613a8c6000830184613137565b92915050565b6000604082019050613aa76000830185613137565b613ab46020830184613137565b9392505050565b6000602082019050613ad06000830184613146565b92915050565b6000602082019050613aeb6000830184613155565b92915050565b6000606082019050613b066000830186613155565b613b1360208301856138f5565b613b20604083018461306c565b949350505050565b60006020820190508181036000830152613b4181613164565b9050919050565b60006020820190508181036000830152613b61816131f0565b9050919050565b60006020820190508181036000830152613b8181613256565b9050919050565b60006020820190508181036000830152613ba1816132e2565b9050919050565b60006020820190508181036000830152613bc18161336e565b9050919050565b60006020820190508181036000830152613be1816133fa565b9050919050565b60006020820190508181036000830152613c0181613460565b9050919050565b60006020820190508181036000830152613c21816134ec565b9050919050565b60006020820190508181036000830152613c4181613552565b9050919050565b60006020820190508181036000830152613c6181613604565b9050919050565b60006020820190508181036000830152613c81816136b6565b9050919050565b60006020820190508181036000830152613ca181613742565b9050919050565b60006020820190508181036000830152613cc1816137f4565b9050919050565b60006020820190508181036000830152613ce18161385a565b9050919050565b6000602082019050613cfd60008301846138f5565b92915050565b6000606082019050613d1860008301866138f5565b8181036020830152613d2a818561307b565b9050613d39604083018461304e565b949350505050565b6000604082019050613d5660008301856138f5565b613d636020830184613155565b9392505050565b6000604051905081810181811067ffffffffffffffff82111715613d9157613d90613f23565b5b8060405250919050565b600067ffffffffffffffff821115613db657613db5613f23565b5b602082029050602081019050919050565b600067ffffffffffffffff821115613de257613de1613f23565b5b602082029050602081019050919050565b6000819050602082019050919050565b6000819050602082019050919050565b600081519050919050565b600081519050919050565b6000602082019050919050565b6000602082019050919050565b600082825260208201905092915050565b600082825260208201905092915050565b600082825260208201905092915050565b6000613e8182613eb1565b9050919050565b60008115159050919050565b6000819050919050565b6000819050613eac82613f25565b919050565b600073ffffffffffffffffffffffffffffffffffffffff82169050919050565b6000819050919050565b6000613ee682613eff565b9050919050565b6000613ef882613e9e565b9050919050565b6000613f0a82613f11565b9050919050565b6000613f1c82613eb1565b9050919050565bfe5b60068110613f3657613f35613f23565b5b50565b613f4281613e76565b8114613f4d57600080fd5b50565b613f5981613e88565b8114613f6457600080fd5b50565b613f7081613e94565b8114613f7b57600080fd5b50565b60068110613f8b57600080fd5b50565b613f9781613ed1565b8114613fa257600080fd5b5056fe456e756d657261626c655365743a20696e646578206f7574206f6620626f756e6473416363657373436f6e74726f6c3a2073656e646572206d75737420626520616e2061646d696e20746f206772616e74416363657373436f6e74726f6c3a2073656e646572206d75737420626520616e2061646d696e20746f207265766f6b65416363657373436f6e74726f6c3a2063616e206f6e6c792072656e6f756e636520726f6c657320666f722073656c66a26469706673582212209ce5e4e1da033d08b9c2bcd5c65d9f1318ee3dba5f7987a23ab303732c4e8d3764736f6c63430007060033",
  "immutableReferences": {},
  "source": "// SPDX-License-Identifier: MIT\npragma solidity =0.7.6;\npragma experimental ABIEncoderV2;\nimport \"@openzeppelin/contracts/access/AccessControl.sol\";\nimport \"./Members.sol\";\nimport \"./CreateCohort.sol\";\n\n/**\n * @title CohortFactory\n * Allows on creation of invitations by Enterprise and acceptance of Validators of those \n * invitations. Finally Enterprise can create cohort consisting of invited Validators\n * and Enterprise. \n */\n\ncontract CohortFactory is  AccessControl {\n\n    // Audit types to be used. Two types added for future expansion \n    enum AuditTypes {\n        Financial, System, Contract, NFT, Type5, Type6\n    }\n\n    uint256[] minValidatorPerCohort = [3,3,3,3,3,3];\n\n    // Invitation structure to hold info about its status\n    struct Invitation {\n        address enterprise;\n        address validator;\n        uint256 invitationDate;      \n        uint256 acceptanceDate;\n        AuditTypes audits;\n        address cohort;\n        bool deleted;\n    }\n\n    struct Cohorts {\n        address cohort;\n        AuditTypes audits;\n    }\n\n    mapping(address => Cohorts[]) public cohortList;\n\n    Members members;                                            // pointer to Members contract\n    mapping (address =>  Invitation[]) public invitations;      // invitations list\n    address platformAddress;                                    // address to deposit platform fees\n    address createCohortAddress;\n\n    bytes32 public constant SETTER_ROLE =  keccak256(\"SETTER_ROLE\");\n\n    event ValidatorInvited(address indexed inviting, address indexed invitee, AuditTypes audits, uint256 invitationNumber, address cohort);\n    event InvitationAccepted(address indexed validator, uint256 invitationNumber);\n    event CohortCreated(address indexed enterprise, address indexed cohort, AuditTypes audits);\n    event UpdateMinValidatorsPerCohort(uint256 minValidatorPerCohort, AuditTypes audits);\n    event ValidatorCleared(address validator, AuditTypes audit, address cohort, address enterprise);\n\n    /// @dev check if caller is a setter     \n    modifier isSetter {\n        require(hasRole(SETTER_ROLE, msg.sender), \"Members:isSetter - Caller is not a setter\");\n\n        _;\n    }\n\n    constructor(Members _members,  address _createCohortAddress ) {\n        members = _members;\n        createCohortAddress = _createCohortAddress;\n        _setupRole(DEFAULT_ADMIN_ROLE, msg.sender); // \n    }\n   \n\n    /**\n    * @dev to be called by Governance contract to update new value for min validators per cohort\n    * @param _minValidatorPerCohort new value \n    */\n    function updatMinValidatorsPerCohort(uint256 _minValidatorPerCohort, AuditTypes audits) public isSetter() {\n\n        require(_minValidatorPerCohort != 0, \"CreateCohort:updatMinValidatorsPerCohort - New value for the  min validator per cohort can't be 0\");\n        require(uint256(audits) <= 5 && uint256(audits) >=0 , \"Cohort Factory:updatMinValidatorsPerCohort - Audit type has to be <= 5 and >=0\");\n        minValidatorPerCohort[uint256(audits)] = _minValidatorPerCohort;\n        emit UpdateMinValidatorsPerCohort(_minValidatorPerCohort, audits);\n    }\n\n    /**\n    * @dev Used by Enterprise to invite validator\n    * @param validator address of the validator to invite\n    * @param audit type of the audit\n    */\n    function inviteValidator(address validator, AuditTypes audit, address cohort) public {\n\n        Invitation memory newInvitation;\n        bool approvedValidator = members.validatorMap(validator);\n        bool isEnterprise = members.enterpriseMap(msg.sender);\n        (bool invited, ) = isValidatorInvited(msg.sender, validator, audit);\n        require( !invited , \"CohortFactory:inviteValidator - This validator has been already invited for this validation type.\" );\n        require( isEnterprise, \"CohortFactory:inviteValidator - Only Enterprise user can invite Validators.\");\n        require( approvedValidator, \"CohortFactory:inviteValidator - Only Approved Validators can be invited.\");\n        require( members.deposits(validator) > 0,\"CohortFactory:inviteValidator - This validator has not staked any tokens yet.\");\n        newInvitation.validator = validator;\n        newInvitation.invitationDate = block.timestamp;     \n        newInvitation.audits = audit;   \n        newInvitation.cohort = cohort;\n        invitations[msg.sender].push(newInvitation);\n       \n        emit ValidatorInvited(msg.sender, validator, audit, invitations[msg.sender].length - 1, cohort);\n    }\n\n    /**\n    * @dev Used by Enterprise to invite multiple validators in one call \n    * @param validator address of the validator to invite\n    * @param audit type of the audit\n    */\n    function inviteValidatorMultiple(address[] memory validator, AuditTypes audit, address cohort) public{\n\n        uint256 length = validator.length;\n        require(length <= 256, \"CohortFactory-inviteValidatorMultiple: List too long\");\n        for (uint256 i = 0; i < length; i++) {\n            inviteValidator(validator[i], audit, cohort);\n        }\n    }\n\n    /**\n    * @dev Used by Validator to accept Enterprise invitation\n    * @param enterprise address of the Enterprise who created invitation\n    * @param invitationNumber invitation number\n    */\n    function acceptInvitation(address enterprise, uint256 invitationNumber) public {\n\n        require( invitations[enterprise].length > invitationNumber, \"CohortFactory:acceptInvitation - This invitation doesn't exist\");\n        require( invitations[enterprise][invitationNumber].acceptanceDate == 0, \"CohortFactory:acceptInvitation- This invitation has been accepted already .\");\n        require( invitations[enterprise][invitationNumber].validator == msg.sender, \"CohortFactory:acceptInvitation - You are accepting invitation to which you were not invited or this invitation doesn't exist.\");\n        invitations[enterprise][invitationNumber].acceptanceDate = block.timestamp;\n\n            if (invitations[enterprise][invitationNumber].cohort != address(0)) // adding validator to existng cohort\n                require(\n                    ICohort(invitations[enterprise][invitationNumber].cohort)\n                    .addAdditionalValidator(msg.sender), \n                    \"CohortFactory:inviteValidator - Problem adding new validator\"\n                    );\n\n        emit InvitationAccepted(msg.sender, invitationNumber);\n    }\n\n    /**\n    * @dev Used by Enterprise to remove existing validator\n    * @param validator validator to remove\n    * @param audit type of audit \n    * @param cohort cohort from which validator is removed\n    */\n    function clearInvitationRemoveValidator(address validator, AuditTypes audit, address cohort) public {\n\n        for (uint256 i = 0; i < invitations[msg.sender].length; i++){\n            if (invitations[msg.sender][i].audits == audit && \n                invitations[msg.sender][i].validator ==  validator){\n                invitations[msg.sender][i].deleted = true;\n                require(ICohort(cohort).removeValidator(validator, msg.sender), \n                        \"CohortFactory:clearInvitationValidator - Problem removing validator in Cohort contract\");\n                emit ValidatorCleared(validator, audit, cohort, msg.sender);\n            }\n        }\n    }\n\n    /**\n    * @dev Used by Validator to accept multiple Enterprise invitation\n    * @param enterprise address of the Enterprise who created invitation\n    * @param invitationNumber invitation number\n    */\n    function acceptInvitationMultiple(address[] memory enterprise, uint256[] memory invitationNumber) public{\n\n        uint256 length = enterprise.length;\n        for (uint256 i = 0; i < length; i++) {\n            acceptInvitation(enterprise[i], invitationNumber[i]);\n        }\n    }\n\n    /**\n    * @dev To return invitation count\n    * @param enterprise address of the Enterprise who created invitation\n    * @param audit type\n    * @return count of invitations\n    */\n    function returnInvitationCount(address enterprise, AuditTypes audit) public view returns(uint256) {\n\n        uint256 count;\n\n        for (uint i=0; i < invitations[enterprise].length; ++i ){\n            if (invitations[enterprise][i].audits == audit && \n                invitations[enterprise][i].acceptanceDate != 0 &&\n                !invitations[enterprise][i].deleted)\n                count ++;\n        }\n        return count;\n    }\n\n    /**\n    * @dev Used to determine if validator has been invited and/or if validation has been accepted\n    * @param enterprise inviting party\n    * @param validator address of the validator\n    * @param audits types\n    * @return true if invited\n    * @return true if accepted invitation\n    */\n    function isValidatorInvited(address enterprise, address validator, AuditTypes audits) public view returns (bool, bool) {\n\n        for (uint i=0; i < invitations[enterprise].length; ++i ){\n            if (invitations[enterprise][i].audits == audits && \n                invitations[enterprise][i].validator == validator &&\n                !invitations[enterprise][i].deleted){\n                if (invitations[enterprise][i].acceptanceDate > 0)\n                    return (true, true);\n                return (true, false);\n            }\n        }\n        return (false, false);\n    }\n\n     /**\n    * @dev Used to return of list of cohorts for enterprise\n    * @param enterprise inviting party\n    * @return cohort address \n    * @return audit type\n    */\n    function returnCohorts(address enterprise) public view returns (address[] memory, uint256[] memory){\n\n        address[] memory cohort = new address[](cohortList[enterprise].length);\n        uint256[] memory audits = new uint256[](cohortList[enterprise].length);\n\n        for (uint256 i; i < cohortList[enterprise].length; i++){\n            cohort[i] = cohortList[enterprise][i].cohort;\n            audits[i] = uint256(cohortList[enterprise][i].audits);\n        }\n        return (cohort, audits);\n    }\n\n     /**\n     * @dev Function to calculate outstanding validations for enterprise. \n     */   \n    function returnOutstandingValidations() public view returns(uint256) {\n\n         (address[] memory cohorts, ) = returnCohorts(msg.sender);\n         uint totalOutstandingValidations;\n\n         for (uint256 i; i< cohorts.length; i++)\n             totalOutstandingValidations = totalOutstandingValidations + ICohort(cohorts[i]).outstandingValidations();\n\n        return totalOutstandingValidations;\n    }\n\n    /**\n    * @dev Initiate creation a new cohort using create2 methods based on the audit type and enterprise combination\n    * @param audit type\n    */\n    function createCohort(AuditTypes audit) public {\n        address[] memory validatorsList = new address[](returnInvitationCount(msg.sender, audit));\n        uint k;\n        for (uint i=0; i < invitations[msg.sender].length; ++i ){\n            if (invitations[msg.sender][i].audits == audit && invitations[msg.sender][i].acceptanceDate > 0){\n                validatorsList[k] = invitations[msg.sender][i].validator;\n                k++;\n            }\n        }\n        require(k >= minValidatorPerCohort[uint256(audit)], \"CohortFactory:createCohort - Number of validators below required minimum.\");\n\n        address cohortAddress = CreateCohort(createCohortAddress).createCohort(uint256(audit),  validatorsList, msg.sender );\n        cohortList[msg.sender].push();\n        cohortList[msg.sender][cohortList[msg.sender].length - 1].cohort = cohortAddress;\n        cohortList[msg.sender][cohortList[msg.sender].length - 1].audits = audit;\n\n        emit CohortCreated(msg.sender, cohortAddress, AuditTypes(audit));\n        \n    }\n}\n",
  "sourcePath": "/home/bogdan/Ethereum/Projects/TGE/Core-Smart-Contracts-v1/contracts/Auditchain/CohortFactory.sol",
  "compiler": {
    "name": "solc",
    "version": "0.7.6+commit.7338295f.Emscripten.clang"
  },
  "schemaVersion": "3.3.4",
  "updatedAt": "2021-03-31T02:05:16.849Z",
  "devdoc": {
    "kind": "dev",
    "methods": {
      "acceptInvitation(address,uint256)": {
        "details": "Used by Validator to accept Enterprise invitation",
        "params": {
          "enterprise": "address of the Enterprise who created invitation",
          "invitationNumber": "invitation number"
        }
      },
      "acceptInvitationMultiple(address[],uint256[])": {
        "details": "Used by Validator to accept multiple Enterprise invitation",
        "params": {
          "enterprise": "address of the Enterprise who created invitation",
          "invitationNumber": "invitation number"
        }
      },
      "clearInvitationRemoveValidator(address,uint8,address)": {
        "details": "Used by Enterprise to remove existing validator",
        "params": {
          "audit": "type of audit ",
          "cohort": "cohort from which validator is removed",
          "validator": "validator to remove"
        }
      },
      "createCohort(uint8)": {
        "details": "Initiate creation a new cohort using create2 methods based on the audit type and enterprise combination",
        "params": {
          "audit": "type"
        }
      },
      "getRoleAdmin(bytes32)": {
        "details": "Returns the admin role that controls `role`. See {grantRole} and {revokeRole}. To change a role's admin, use {_setRoleAdmin}."
      },
      "getRoleMember(bytes32,uint256)": {
        "details": "Returns one of the accounts that have `role`. `index` must be a value between 0 and {getRoleMemberCount}, non-inclusive. Role bearers are not sorted in any particular way, and their ordering may change at any point. WARNING: When using {getRoleMember} and {getRoleMemberCount}, make sure you perform all queries on the same block. See the following https://forum.openzeppelin.com/t/iterating-over-elements-on-enumerableset-in-openzeppelin-contracts/2296[forum post] for more information."
      },
      "getRoleMemberCount(bytes32)": {
        "details": "Returns the number of accounts that have `role`. Can be used together with {getRoleMember} to enumerate all bearers of a role."
      },
      "grantRole(bytes32,address)": {
        "details": "Grants `role` to `account`. If `account` had not been already granted `role`, emits a {RoleGranted} event. Requirements: - the caller must have ``role``'s admin role."
      },
      "hasRole(bytes32,address)": {
        "details": "Returns `true` if `account` has been granted `role`."
      },
      "inviteValidator(address,uint8,address)": {
        "details": "Used by Enterprise to invite validator",
        "params": {
          "audit": "type of the audit",
          "validator": "address of the validator to invite"
        }
      },
      "inviteValidatorMultiple(address[],uint8,address)": {
        "details": "Used by Enterprise to invite multiple validators in one call ",
        "params": {
          "audit": "type of the audit",
          "validator": "address of the validator to invite"
        }
      },
      "isValidatorInvited(address,address,uint8)": {
        "details": "Used to determine if validator has been invited and/or if validation has been accepted",
        "params": {
          "audits": "types",
          "enterprise": "inviting party",
          "validator": "address of the validator"
        },
        "returns": {
          "_0": "true if invited",
          "_1": "true if accepted invitation"
        }
      },
      "renounceRole(bytes32,address)": {
        "details": "Revokes `role` from the calling account. Roles are often managed via {grantRole} and {revokeRole}: this function's purpose is to provide a mechanism for accounts to lose their privileges if they are compromised (such as when a trusted device is misplaced). If the calling account had been granted `role`, emits a {RoleRevoked} event. Requirements: - the caller must be `account`."
      },
      "returnCohorts(address)": {
        "details": "Used to return of list of cohorts for enterprise",
        "params": {
          "enterprise": "inviting party"
        },
        "returns": {
          "_0": "cohort address ",
          "_1": "audit type"
        }
      },
      "returnInvitationCount(address,uint8)": {
        "details": "To return invitation count",
        "params": {
          "audit": "type",
          "enterprise": "address of the Enterprise who created invitation"
        },
        "returns": {
          "_0": "count of invitations"
        }
      },
      "returnOutstandingValidations()": {
        "details": "Function to calculate outstanding validations for enterprise. "
      },
      "revokeRole(bytes32,address)": {
        "details": "Revokes `role` from `account`. If `account` had been granted `role`, emits a {RoleRevoked} event. Requirements: - the caller must have ``role``'s admin role."
      },
      "updatMinValidatorsPerCohort(uint256,uint8)": {
        "details": "to be called by Governance contract to update new value for min validators per cohort",
        "params": {
          "_minValidatorPerCohort": "new value "
        }
      }
    },
    "title": "CohortFactory Allows on creation of invitations by Enterprise and acceptance of Validators of those  invitations. Finally Enterprise can create cohort consisting of invited Validators and Enterprise. ",
    "version": 1
  },
  "userdoc": {
    "kind": "user",
    "methods": {},
    "version": 1
  }
}