{
  "contractName": "CohortFactory",
  "abi": [
    {
      "inputs": [
        {
          "internalType": "contract Members",
          "name": "_members",
          "type": "address"
        },
        {
          "internalType": "address",
          "name": "_createCohortAddress",
          "type": "address"
        }
      ],
      "stateMutability": "nonpayable",
      "type": "constructor"
    },
    {
      "anonymous": false,
      "inputs": [
        {
          "indexed": true,
          "internalType": "address",
          "name": "enterprise",
          "type": "address"
        },
        {
          "indexed": true,
          "internalType": "address",
          "name": "cohort",
          "type": "address"
        },
        {
          "indexed": false,
          "internalType": "enum CohortFactory.AuditTypes",
          "name": "audits",
          "type": "uint8"
        }
      ],
      "name": "CohortCreated",
      "type": "event"
    },
    {
      "anonymous": false,
      "inputs": [
        {
          "indexed": true,
          "internalType": "address",
          "name": "validator",
          "type": "address"
        },
        {
          "indexed": false,
          "internalType": "uint256",
          "name": "invitationNumber",
          "type": "uint256"
        }
      ],
      "name": "InvitationAccepted",
      "type": "event"
    },
    {
      "anonymous": false,
      "inputs": [
        {
          "indexed": true,
          "internalType": "bytes32",
          "name": "role",
          "type": "bytes32"
        },
        {
          "indexed": true,
          "internalType": "bytes32",
          "name": "previousAdminRole",
          "type": "bytes32"
        },
        {
          "indexed": true,
          "internalType": "bytes32",
          "name": "newAdminRole",
          "type": "bytes32"
        }
      ],
      "name": "RoleAdminChanged",
      "type": "event"
    },
    {
      "anonymous": false,
      "inputs": [
        {
          "indexed": true,
          "internalType": "bytes32",
          "name": "role",
          "type": "bytes32"
        },
        {
          "indexed": true,
          "internalType": "address",
          "name": "account",
          "type": "address"
        },
        {
          "indexed": true,
          "internalType": "address",
          "name": "sender",
          "type": "address"
        }
      ],
      "name": "RoleGranted",
      "type": "event"
    },
    {
      "anonymous": false,
      "inputs": [
        {
          "indexed": true,
          "internalType": "bytes32",
          "name": "role",
          "type": "bytes32"
        },
        {
          "indexed": true,
          "internalType": "address",
          "name": "account",
          "type": "address"
        },
        {
          "indexed": true,
          "internalType": "address",
          "name": "sender",
          "type": "address"
        }
      ],
      "name": "RoleRevoked",
      "type": "event"
    },
    {
      "anonymous": false,
      "inputs": [
        {
          "indexed": true,
          "internalType": "address",
          "name": "inviting",
          "type": "address"
        },
        {
          "indexed": true,
          "internalType": "address",
          "name": "invitee",
          "type": "address"
        },
        {
          "indexed": false,
          "internalType": "enum CohortFactory.AuditTypes",
          "name": "audits",
          "type": "uint8"
        },
        {
          "indexed": false,
          "internalType": "uint256",
          "name": "invitationNumber",
          "type": "uint256"
        }
      ],
      "name": "ValidatorInvited",
      "type": "event"
    },
    {
      "inputs": [],
      "name": "DEFAULT_ADMIN_ROLE",
      "outputs": [
        {
          "internalType": "bytes32",
          "name": "",
          "type": "bytes32"
        }
      ],
      "stateMutability": "view",
      "type": "function",
      "constant": true
    },
    {
      "inputs": [
        {
          "internalType": "address",
          "name": "",
          "type": "address"
        },
        {
          "internalType": "uint256",
          "name": "",
          "type": "uint256"
        }
      ],
      "name": "cohortList",
      "outputs": [
        {
          "internalType": "address",
          "name": "cohort",
          "type": "address"
        },
        {
          "internalType": "enum CohortFactory.AuditTypes",
          "name": "audits",
          "type": "uint8"
        }
      ],
      "stateMutability": "view",
      "type": "function",
      "constant": true
    },
    {
      "inputs": [
        {
          "internalType": "bytes32",
          "name": "role",
          "type": "bytes32"
        }
      ],
      "name": "getRoleAdmin",
      "outputs": [
        {
          "internalType": "bytes32",
          "name": "",
          "type": "bytes32"
        }
      ],
      "stateMutability": "view",
      "type": "function",
      "constant": true
    },
    {
      "inputs": [
        {
          "internalType": "bytes32",
          "name": "role",
          "type": "bytes32"
        },
        {
          "internalType": "uint256",
          "name": "index",
          "type": "uint256"
        }
      ],
      "name": "getRoleMember",
      "outputs": [
        {
          "internalType": "address",
          "name": "",
          "type": "address"
        }
      ],
      "stateMutability": "view",
      "type": "function",
      "constant": true
    },
    {
      "inputs": [
        {
          "internalType": "bytes32",
          "name": "role",
          "type": "bytes32"
        }
      ],
      "name": "getRoleMemberCount",
      "outputs": [
        {
          "internalType": "uint256",
          "name": "",
          "type": "uint256"
        }
      ],
      "stateMutability": "view",
      "type": "function",
      "constant": true
    },
    {
      "inputs": [
        {
          "internalType": "bytes32",
          "name": "role",
          "type": "bytes32"
        },
        {
          "internalType": "address",
          "name": "account",
          "type": "address"
        }
      ],
      "name": "grantRole",
      "outputs": [],
      "stateMutability": "nonpayable",
      "type": "function"
    },
    {
      "inputs": [
        {
          "internalType": "bytes32",
          "name": "role",
          "type": "bytes32"
        },
        {
          "internalType": "address",
          "name": "account",
          "type": "address"
        }
      ],
      "name": "hasRole",
      "outputs": [
        {
          "internalType": "bool",
          "name": "",
          "type": "bool"
        }
      ],
      "stateMutability": "view",
      "type": "function",
      "constant": true
    },
    {
      "inputs": [
        {
          "internalType": "address",
          "name": "",
          "type": "address"
        },
        {
          "internalType": "uint256",
          "name": "",
          "type": "uint256"
        }
      ],
      "name": "invitations",
      "outputs": [
        {
          "internalType": "address",
          "name": "enterprise",
          "type": "address"
        },
        {
          "internalType": "address",
          "name": "validator",
          "type": "address"
        },
        {
          "internalType": "uint256",
          "name": "invitationDate",
          "type": "uint256"
        },
        {
          "internalType": "uint256",
          "name": "acceptanceDate",
          "type": "uint256"
        },
        {
          "internalType": "enum CohortFactory.AuditTypes",
          "name": "audits",
          "type": "uint8"
        }
      ],
      "stateMutability": "view",
      "type": "function",
      "constant": true
    },
    {
      "inputs": [
        {
          "internalType": "bytes32",
          "name": "role",
          "type": "bytes32"
        },
        {
          "internalType": "address",
          "name": "account",
          "type": "address"
        }
      ],
      "name": "renounceRole",
      "outputs": [],
      "stateMutability": "nonpayable",
      "type": "function"
    },
    {
      "inputs": [
        {
          "internalType": "bytes32",
          "name": "role",
          "type": "bytes32"
        },
        {
          "internalType": "address",
          "name": "account",
          "type": "address"
        }
      ],
      "name": "revokeRole",
      "outputs": [],
      "stateMutability": "nonpayable",
      "type": "function"
    },
    {
      "inputs": [
        {
          "internalType": "address",
          "name": "validator",
          "type": "address"
        },
        {
          "internalType": "enum CohortFactory.AuditTypes",
          "name": "audit",
          "type": "uint8"
        }
      ],
      "name": "inviteValidator",
      "outputs": [],
      "stateMutability": "nonpayable",
      "type": "function"
    },
    {
      "inputs": [
        {
          "internalType": "address[]",
          "name": "validator",
          "type": "address[]"
        },
        {
          "internalType": "enum CohortFactory.AuditTypes",
          "name": "audit",
          "type": "uint8"
        }
      ],
      "name": "inviteValidatorMultiple",
      "outputs": [],
      "stateMutability": "nonpayable",
      "type": "function"
    },
    {
      "inputs": [
        {
          "internalType": "address",
          "name": "enterprise",
          "type": "address"
        },
        {
          "internalType": "uint256",
          "name": "invitationNumber",
          "type": "uint256"
        }
      ],
      "name": "acceptInvitation",
      "outputs": [],
      "stateMutability": "nonpayable",
      "type": "function"
    },
    {
      "inputs": [
        {
          "internalType": "address[]",
          "name": "enterprise",
          "type": "address[]"
        },
        {
          "internalType": "uint256[]",
          "name": "invitationNumber",
          "type": "uint256[]"
        }
      ],
      "name": "acceptInvitationMultiple",
      "outputs": [],
      "stateMutability": "nonpayable",
      "type": "function"
    },
    {
      "inputs": [
        {
          "internalType": "address",
          "name": "enterprise",
          "type": "address"
        },
        {
          "internalType": "enum CohortFactory.AuditTypes",
          "name": "audit",
          "type": "uint8"
        }
      ],
      "name": "returnInvitationCount",
      "outputs": [
        {
          "internalType": "uint256",
          "name": "",
          "type": "uint256"
        }
      ],
      "stateMutability": "view",
      "type": "function",
      "constant": true
    },
    {
      "inputs": [
        {
          "internalType": "address",
          "name": "enterprise",
          "type": "address"
        },
        {
          "internalType": "address",
          "name": "validator",
          "type": "address"
        },
        {
          "internalType": "enum CohortFactory.AuditTypes",
          "name": "audits",
          "type": "uint8"
        }
      ],
      "name": "isValidatorInvited",
      "outputs": [
        {
          "internalType": "bool",
          "name": "",
          "type": "bool"
        },
        {
          "internalType": "bool",
          "name": "",
          "type": "bool"
        }
      ],
      "stateMutability": "view",
      "type": "function",
      "constant": true
    },
    {
      "inputs": [
        {
          "internalType": "address",
          "name": "enterprise",
          "type": "address"
        }
      ],
      "name": "returnCohorts",
      "outputs": [
        {
          "internalType": "address[]",
          "name": "",
          "type": "address[]"
        },
        {
          "internalType": "uint256[]",
          "name": "",
          "type": "uint256[]"
        }
      ],
      "stateMutability": "view",
      "type": "function",
      "constant": true
    },
    {
      "inputs": [
        {
          "internalType": "enum CohortFactory.AuditTypes",
          "name": "audit",
          "type": "uint8"
        }
      ],
      "name": "createCohort",
      "outputs": [],
      "stateMutability": "nonpayable",
      "type": "function"
    }
  ],
  "bytecode": "0x60806040523480156200001157600080fd5b50604051620034533803806200345383398181016040528101906200003791906200029a565b81600260006101000a81548173ffffffffffffffffffffffffffffffffffffffff021916908373ffffffffffffffffffffffffffffffffffffffff16021790555080600560006101000a81548173ffffffffffffffffffffffffffffffffffffffff021916908373ffffffffffffffffffffffffffffffffffffffff160217905550620000ce6000801b33620000d660201b60201c565b505062000357565b620000e88282620000ec60201b60201c565b5050565b6200011a816000808581526020019081526020016000206000016200018f60201b62001c0c1790919060201c565b156200018b5762000130620001c760201b60201c565b73ffffffffffffffffffffffffffffffffffffffff168173ffffffffffffffffffffffffffffffffffffffff16837f2f8788117e7eff1d82e926ec794901d17c78024a50270940304540a733656f0d60405160405180910390a45b5050565b6000620001bf836000018373ffffffffffffffffffffffffffffffffffffffff1660001b620001cf60201b60201c565b905092915050565b600033905090565b6000620001e383836200024960201b60201c565b6200023e57826000018290806001815401808255809150506001900390600052602060002001600090919091909150558260000180549050836001016000848152602001908152602001600020819055506001905062000243565b600090505b92915050565b600080836001016000848152602001908152602001600020541415905092915050565b6000815190506200027d8162000323565b92915050565b60008151905062000294816200033d565b92915050565b60008060408385031215620002ae57600080fd5b6000620002be8582860162000283565b9250506020620002d1858286016200026c565b9150509250929050565b6000620002e88262000303565b9050919050565b6000620002fc82620002db565b9050919050565b600073ffffffffffffffffffffffffffffffffffffffff82169050919050565b6200032e81620002db565b81146200033a57600080fd5b50565b6200034881620002ef565b81146200035457600080fd5b50565b6130ec80620003676000396000f3fe608060405234801561001057600080fd5b50600436106101165760003560e01c80638ffb72f4116100a2578063a346973711610071578063a34697371461031b578063a70e039314610337578063ca15c87314610368578063d2a3da0214610398578063d547741f146103b457610116565b80638ffb72f4146102695780639010d07c1461029d57806391d14854146102cd578063a217fddf146102fd57610116565b8063248a9ca3116100e9578063248a9ca3146101b45780632f2ff15d146101e457806336568abe146102005780637c915c861461021c57806387247dea1461023857610116565b80630939a9971461011b5780630ea02160146101375780631f94fc3a14610153578063247e28b314610184575b600080fd5b61013560048036038101906101309190612346565b6103d0565b005b610151600480360381019061014c919061230a565b610424565b005b61016d6004803603810190610168919061227f565b6106e1565b60405161017b929190612bea565b60405180910390f35b61019e600480360381019061019991906122ce565b610904565b6040516101ab9190612d72565b60405180910390f35b6101ce60048036038101906101c9919061242f565b610a61565b6040516101db9190612c13565b60405180910390f35b6101fe60048036038101906101f99190612458565b610a80565b005b61021a60048036038101906102159190612458565b610b09565b005b610236600480360381019061023191906124d0565b610ba2565b005b610252600480360381019061024d919061222d565b611127565b604051610260929190612b98565b60405180910390f35b610283600480360381019061027e919061230a565b6113f2565b604051610294959493929190612b1c565b60405180910390f35b6102b760048036038101906102b29190612494565b611492565b6040516102c49190612ae6565b60405180910390f35b6102e760048036038101906102e29190612458565b6114c3565b6040516102f49190612bcf565b60405180910390f35b6103056114f4565b6040516103129190612c13565b60405180910390f35b610335600480360381019061033091906123b2565b6114fb565b005b610351600480360381019061034c919061230a565b611581565b60405161035f929190612b6f565b60405180910390f35b610382600480360381019061037d919061242f565b6115eb565b60405161038f9190612d72565b60405180910390f35b6103b260048036038101906103ad91906122ce565b611611565b005b6103ce60048036038101906103c99190612458565b611b83565b005b60008251905060005b8181101561041e576104118482815181106103f057fe5b602002602001015184838151811061040457fe5b6020026020010151610424565b80806001019150506103d9565b50505050565b80600360008473ffffffffffffffffffffffffffffffffffffffff1673ffffffffffffffffffffffffffffffffffffffff16815260200190815260200160002080549050116104a8576040517f08c379a000000000000000000000000000000000000000000000000000000000815260040161049f90612c92565b60405180910390fd5b6000600360008473ffffffffffffffffffffffffffffffffffffffff1673ffffffffffffffffffffffffffffffffffffffff16815260200190815260200160002082815481106104f457fe5b90600052602060002090600502016003015414610546576040517f08c379a000000000000000000000000000000000000000000000000000000000815260040161053d90612cb2565b60405180910390fd5b3373ffffffffffffffffffffffffffffffffffffffff16600360008473ffffffffffffffffffffffffffffffffffffffff1673ffffffffffffffffffffffffffffffffffffffff16815260200190815260200160002082815481106105a757fe5b906000526020600020906005020160010160009054906101000a900473ffffffffffffffffffffffffffffffffffffffff1673ffffffffffffffffffffffffffffffffffffffff161461062f576040517f08c379a000000000000000000000000000000000000000000000000000000000815260040161062690612d32565b60405180910390fd5b42600360008473ffffffffffffffffffffffffffffffffffffffff1673ffffffffffffffffffffffffffffffffffffffff168152602001908152602001600020828154811061067a57fe5b9060005260206000209060050201600301819055503373ffffffffffffffffffffffffffffffffffffffff167f7b03e8bab458bdbb216f7525cb174b013e75d040884fe46cc9e836fc05a0cc7b826040516106d59190612d72565b60405180910390a25050565b60008060005b600360008773ffffffffffffffffffffffffffffffffffffffff1673ffffffffffffffffffffffffffffffffffffffff168152602001908152602001600020805490508110156108f35783600581111561073d57fe5b600360008873ffffffffffffffffffffffffffffffffffffffff1673ffffffffffffffffffffffffffffffffffffffff168152602001908152602001600020828154811061078757fe5b906000526020600020906005020160040160009054906101000a900460ff1660058111156107b157fe5b14801561086457508473ffffffffffffffffffffffffffffffffffffffff16600360008873ffffffffffffffffffffffffffffffffffffffff1673ffffffffffffffffffffffffffffffffffffffff168152602001908152602001600020828154811061081a57fe5b906000526020600020906005020160010160009054906101000a900473ffffffffffffffffffffffffffffffffffffffff1673ffffffffffffffffffffffffffffffffffffffff16145b156108e8576000600360008873ffffffffffffffffffffffffffffffffffffffff1673ffffffffffffffffffffffffffffffffffffffff16815260200190815260200160002082815481106108b557fe5b90600052602060002090600502016003015411156108da5760018092509250506108fc565b6001600092509250506108fc565b8060010190506106e7565b50600080915091505b935093915050565b60008060005b600360008673ffffffffffffffffffffffffffffffffffffffff1673ffffffffffffffffffffffffffffffffffffffff16815260200190815260200160002080549050811015610a565783600581111561096057fe5b600360008773ffffffffffffffffffffffffffffffffffffffff1673ffffffffffffffffffffffffffffffffffffffff16815260200190815260200160002082815481106109aa57fe5b906000526020600020906005020160040160009054906101000a900460ff1660058111156109d457fe5b148015610a3d57506000600360008773ffffffffffffffffffffffffffffffffffffffff1673ffffffffffffffffffffffffffffffffffffffff1681526020019081526020016000208281548110610a2857fe5b90600052602060002090600502016003015414155b15610a4b5781806001019250505b80600101905061090a565b508091505092915050565b6000806000838152602001908152602001600020600201549050919050565b610aa660008084815260200190815260200160002060020154610aa1611c3c565b6114c3565b610afb576040517f08c379a000000000000000000000000000000000000000000000000000000000815260040180806020018281038252602f815260200180613029602f913960400191505060405180910390fd5b610b058282611c44565b5050565b610b11611c3c565b73ffffffffffffffffffffffffffffffffffffffff168173ffffffffffffffffffffffffffffffffffffffff1614610b94576040517f08c379a000000000000000000000000000000000000000000000000000000000815260040180806020018281038252602f815260200180613088602f913960400191505060405180910390fd5b610b9e8282611cd7565b5050565b6000610bae3383610904565b67ffffffffffffffff81118015610bc457600080fd5b50604051908082528060200260200182016040528015610bf35781602001602082028036833780820191505090505b509050600080600090505b600360003373ffffffffffffffffffffffffffffffffffffffff1673ffffffffffffffffffffffffffffffffffffffff16815260200190815260200160002080549050811015610e0b57836005811115610c5457fe5b600360003373ffffffffffffffffffffffffffffffffffffffff1673ffffffffffffffffffffffffffffffffffffffff1681526020019081526020016000208281548110610c9e57fe5b906000526020600020906005020160040160009054906101000a900460ff166005811115610cc857fe5b148015610d3057506000600360003373ffffffffffffffffffffffffffffffffffffffff1673ffffffffffffffffffffffffffffffffffffffff1681526020019081526020016000208281548110610d1c57fe5b906000526020600020906005020160030154115b15610e0057600360003373ffffffffffffffffffffffffffffffffffffffff1673ffffffffffffffffffffffffffffffffffffffff1681526020019081526020016000208181548110610d7f57fe5b906000526020600020906005020160010160009054906101000a900473ffffffffffffffffffffffffffffffffffffffff16838381518110610dbd57fe5b602002602001019073ffffffffffffffffffffffffffffffffffffffff16908173ffffffffffffffffffffffffffffffffffffffff168152505081806001019250505b806001019050610bfe565b506000600560009054906101000a900473ffffffffffffffffffffffffffffffffffffffff1673ffffffffffffffffffffffffffffffffffffffff1663ac680c3f856005811115610e5857fe5b85336040518463ffffffff1660e01b8152600401610e7893929190612d8d565b602060405180830381600087803b158015610e9257600080fd5b505af1158015610ea6573d6000803e3d6000fd5b505050506040513d601f19601f82011682018060405250810190610eca9190612256565b9050600160003373ffffffffffffffffffffffffffffffffffffffff1673ffffffffffffffffffffffffffffffffffffffff16815260200190815260200160002060018160018154018082558091505003906000526020600020505080600160003373ffffffffffffffffffffffffffffffffffffffff1673ffffffffffffffffffffffffffffffffffffffff16815260200190815260200160002060018060003373ffffffffffffffffffffffffffffffffffffffff1673ffffffffffffffffffffffffffffffffffffffff168152602001908152602001600020805490500381548110610fb557fe5b9060005260206000200160000160006101000a81548173ffffffffffffffffffffffffffffffffffffffff021916908373ffffffffffffffffffffffffffffffffffffffff16021790555083600160003373ffffffffffffffffffffffffffffffffffffffff1673ffffffffffffffffffffffffffffffffffffffff16815260200190815260200160002060018060003373ffffffffffffffffffffffffffffffffffffffff1673ffffffffffffffffffffffffffffffffffffffff16815260200190815260200160002080549050038154811061108f57fe5b9060005260206000200160000160146101000a81548160ff021916908360058111156110b757fe5b02179055508073ffffffffffffffffffffffffffffffffffffffff163373ffffffffffffffffffffffffffffffffffffffff167f90691b6bd4b271754d0eb5676725798ab1ab64c7225d8e48882bc2f6add2dd09866040516111199190612c2e565b60405180910390a350505050565b6060806000600160008573ffffffffffffffffffffffffffffffffffffffff1673ffffffffffffffffffffffffffffffffffffffff1681526020019081526020016000208054905067ffffffffffffffff8111801561118557600080fd5b506040519080825280602002602001820160405280156111b45781602001602082028036833780820191505090505b5090506000600160008673ffffffffffffffffffffffffffffffffffffffff1673ffffffffffffffffffffffffffffffffffffffff1681526020019081526020016000208054905067ffffffffffffffff8111801561121257600080fd5b506040519080825280602002602001820160405280156112415781602001602082028036833780820191505090505b50905060005b600160008773ffffffffffffffffffffffffffffffffffffffff1673ffffffffffffffffffffffffffffffffffffffff168152602001908152602001600020805490508110156113e457600160008773ffffffffffffffffffffffffffffffffffffffff1673ffffffffffffffffffffffffffffffffffffffff16815260200190815260200160002081815481106112db57fe5b9060005260206000200160000160009054906101000a900473ffffffffffffffffffffffffffffffffffffffff1683828151811061131557fe5b602002602001019073ffffffffffffffffffffffffffffffffffffffff16908173ffffffffffffffffffffffffffffffffffffffff1681525050600160008773ffffffffffffffffffffffffffffffffffffffff1673ffffffffffffffffffffffffffffffffffffffff168152602001908152602001600020818154811061139957fe5b9060005260206000200160000160149054906101000a900460ff1660058111156113bf57fe5b8282815181106113cb57fe5b6020026020010181815250508080600101915050611247565b508181935093505050915091565b6003602052816000526040600020818154811061140e57600080fd5b9060005260206000209060050201600091509150508060000160009054906101000a900473ffffffffffffffffffffffffffffffffffffffff16908060010160009054906101000a900473ffffffffffffffffffffffffffffffffffffffff16908060020154908060030154908060040160009054906101000a900460ff16905085565b60006114bb82600080868152602001908152602001600020600001611d6a90919063ffffffff16565b905092915050565b60006114ec82600080868152602001908152602001600020600001611d8490919063ffffffff16565b905092915050565b6000801b81565b600082519050610100811115611546576040517f08c379a000000000000000000000000000000000000000000000000000000000815260040161153d90612cf2565b60405180910390fd5b60005b8181101561157b5761156e84828151811061156057fe5b602002602001015184611611565b8080600101915050611549565b50505050565b6001602052816000526040600020818154811061159d57600080fd5b90600052602060002001600091509150508060000160009054906101000a900473ffffffffffffffffffffffffffffffffffffffff16908060000160149054906101000a900460ff16905082565b600061160a600080848152602001908152602001600020600001611db4565b9050919050565b611619612008565b6000600260009054906101000a900473ffffffffffffffffffffffffffffffffffffffff1673ffffffffffffffffffffffffffffffffffffffff166318d50d33856040518263ffffffff1660e01b81526004016116769190612ae6565b60206040518083038186803b15801561168e57600080fd5b505afa1580156116a2573d6000803e3d6000fd5b505050506040513d601f19601f820116820180604052508101906116c69190612406565b90506000600260009054906101000a900473ffffffffffffffffffffffffffffffffffffffff1673ffffffffffffffffffffffffffffffffffffffff1663be07b32e336040518263ffffffff1660e01b81526004016117259190612b01565b60206040518083038186803b15801561173d57600080fd5b505afa158015611751573d6000803e3d6000fd5b505050506040513d601f19601f820116820180604052508101906117759190612406565b905060006117843387876106e1565b50905080156117c8576040517f08c379a00000000000000000000000000000000000000000000000000000000081526004016117bf90612d12565b60405180910390fd5b81611808576040517f08c379a00000000000000000000000000000000000000000000000000000000081526004016117ff90612d52565b60405180910390fd5b82611848576040517f08c379a000000000000000000000000000000000000000000000000000000000815260040161183f90612cd2565b60405180910390fd5b6000600260009054906101000a900473ffffffffffffffffffffffffffffffffffffffff1673ffffffffffffffffffffffffffffffffffffffff1663fc7e286d886040518263ffffffff1660e01b81526004016118a59190612ae6565b60206040518083038186803b1580156118bd57600080fd5b505afa1580156118d1573d6000803e3d6000fd5b505050506040513d601f19601f820116820180604052508101906118f591906124f9565b11611935576040517f08c379a000000000000000000000000000000000000000000000000000000000815260040161192c90612c72565b60405180910390fd5b85846020019073ffffffffffffffffffffffffffffffffffffffff16908173ffffffffffffffffffffffffffffffffffffffff168152505042846040018181525050848460800190600581111561198857fe5b9081600581111561199557fe5b81525050600360003373ffffffffffffffffffffffffffffffffffffffff1673ffffffffffffffffffffffffffffffffffffffff16815260200190815260200160002084908060018154018082558091505060019003906000526020600020906005020160009091909190915060008201518160000160006101000a81548173ffffffffffffffffffffffffffffffffffffffff021916908373ffffffffffffffffffffffffffffffffffffffff16021790555060208201518160010160006101000a81548173ffffffffffffffffffffffffffffffffffffffff021916908373ffffffffffffffffffffffffffffffffffffffff160217905550604082015181600201556060820151816003015560808201518160040160006101000a81548160ff02191690836005811115611ac857fe5b021790555050508573ffffffffffffffffffffffffffffffffffffffff163373ffffffffffffffffffffffffffffffffffffffff167fdb045b05e2cea9cac8289ec48770f5e3dff84ba85c4d3aeaaa75f81a16e2f4b9876001600360003373ffffffffffffffffffffffffffffffffffffffff1673ffffffffffffffffffffffffffffffffffffffff1681526020019081526020016000208054905003604051611b73929190612c49565b60405180910390a3505050505050565b611ba960008084815260200190815260200160002060020154611ba4611c3c565b6114c3565b611bfe576040517f08c379a00000000000000000000000000000000000000000000000000000000081526004018080602001828103825260308152602001806130586030913960400191505060405180910390fd5b611c088282611cd7565b5050565b6000611c34836000018373ffffffffffffffffffffffffffffffffffffffff1660001b611dc9565b905092915050565b600033905090565b611c6b81600080858152602001908152602001600020600001611c0c90919063ffffffff16565b15611cd357611c78611c3c565b73ffffffffffffffffffffffffffffffffffffffff168173ffffffffffffffffffffffffffffffffffffffff16837f2f8788117e7eff1d82e926ec794901d17c78024a50270940304540a733656f0d60405160405180910390a45b5050565b611cfe81600080858152602001908152602001600020600001611e3990919063ffffffff16565b15611d6657611d0b611c3c565b73ffffffffffffffffffffffffffffffffffffffff168173ffffffffffffffffffffffffffffffffffffffff16837ff6391f5c32d9c69d2a47ea670b442974b53935d1edc7fd64eb21e047a839171b60405160405180910390a45b5050565b6000611d798360000183611e69565b60001c905092915050565b6000611dac836000018373ffffffffffffffffffffffffffffffffffffffff1660001b611eec565b905092915050565b6000611dc282600001611f0f565b9050919050565b6000611dd58383611eec565b611e2e578260000182908060018154018082558091505060019003906000526020600020016000909190919091505582600001805490508360010160008481526020019081526020016000208190555060019050611e33565b600090505b92915050565b6000611e61836000018373ffffffffffffffffffffffffffffffffffffffff1660001b611f20565b905092915050565b600081836000018054905011611eca576040517f08c379a00000000000000000000000000000000000000000000000000000000081526004018080602001828103825260228152602001806130076022913960400191505060405180910390fd5b826000018281548110611ed957fe5b9060005260206000200154905092915050565b600080836001016000848152602001908152602001600020541415905092915050565b600081600001805490509050919050565b60008083600101600084815260200190815260200160002054905060008114611ffc5760006001820390506000600186600001805490500390506000866000018281548110611f6b57fe5b9060005260206000200154905080876000018481548110611f8857fe5b9060005260206000200181905550600183018760010160008381526020019081526020016000208190555086600001805480611fc057fe5b60019003818190600052602060002001600090559055866001016000878152602001908152602001600020600090556001945050505050612002565b60009150505b92915050565b6040518060a00160405280600073ffffffffffffffffffffffffffffffffffffffff168152602001600073ffffffffffffffffffffffffffffffffffffffff16815260200160008152602001600081526020016000600581111561206857fe5b81525090565b600061208161207c84612dfc565b612dcb565b905080838252602082019050828560208602820111156120a057600080fd5b60005b858110156120d057816120b68882612146565b8452602084019350602083019250506001810190506120a3565b5050509392505050565b60006120ed6120e884612e28565b612dcb565b9050808382526020820190508285602086028201111561210c57600080fd5b60005b8581101561213c57816121228882612203565b84526020840193506020830192505060018101905061210f565b5050509392505050565b60008135905061215581612f9a565b92915050565b60008151905061216a81612f9a565b92915050565b600082601f83011261218157600080fd5b813561219184826020860161206e565b91505092915050565b600082601f8301126121ab57600080fd5b81356121bb8482602086016120da565b91505092915050565b6000815190506121d381612fb1565b92915050565b6000813590506121e881612fc8565b92915050565b6000813590506121fd81612fdf565b92915050565b60008135905061221281612fef565b92915050565b60008151905061222781612fef565b92915050565b60006020828403121561223f57600080fd5b600061224d84828501612146565b91505092915050565b60006020828403121561226857600080fd5b60006122768482850161215b565b91505092915050565b60008060006060848603121561229457600080fd5b60006122a286828701612146565b93505060206122b386828701612146565b92505060406122c4868287016121ee565b9150509250925092565b600080604083850312156122e157600080fd5b60006122ef85828601612146565b9250506020612300858286016121ee565b9150509250929050565b6000806040838503121561231d57600080fd5b600061232b85828601612146565b925050602061233c85828601612203565b9150509250929050565b6000806040838503121561235957600080fd5b600083013567ffffffffffffffff81111561237357600080fd5b61237f85828601612170565b925050602083013567ffffffffffffffff81111561239c57600080fd5b6123a88582860161219a565b9150509250929050565b600080604083850312156123c557600080fd5b600083013567ffffffffffffffff8111156123df57600080fd5b6123eb85828601612170565b92505060206123fc858286016121ee565b9150509250929050565b60006020828403121561241857600080fd5b6000612426848285016121c4565b91505092915050565b60006020828403121561244157600080fd5b600061244f848285016121d9565b91505092915050565b6000806040838503121561246b57600080fd5b6000612479858286016121d9565b925050602061248a85828601612146565b9150509250929050565b600080604083850312156124a757600080fd5b60006124b5858286016121d9565b92505060206124c685828601612203565b9150509250929050565b6000602082840312156124e257600080fd5b60006124f0848285016121ee565b91505092915050565b60006020828403121561250b57600080fd5b600061251984828501612218565b91505092915050565b600061252e8383612561565b60208301905092915050565b60006125468383612ac8565b60208301905092915050565b61255b81612f3c565b82525050565b61256a81612ed7565b82525050565b61257981612ed7565b82525050565b600061258a82612e74565b6125948185612ea4565b935061259f83612e54565b8060005b838110156125d05781516125b78882612522565b97506125c283612e8a565b9250506001810190506125a3565b5085935050505092915050565b60006125e882612e7f565b6125f28185612eb5565b93506125fd83612e64565b8060005b8381101561262e578151612615888261253a565b975061262083612e97565b925050600181019050612601565b5085935050505092915050565b61264481612ee9565b82525050565b61265381612ef5565b82525050565b61266281612f4e565b82525050565b6000612675604d83612ec6565b91507f436f686f7274466163746f72793a696e7669746556616c696461746f72202d2060008301527f546869732076616c696461746f7220686173206e6f74207374616b656420616e60208301527f7920746f6b656e73207965742e000000000000000000000000000000000000006040830152606082019050919050565b6000612701603e83612ec6565b91507f436f686f7274466163746f72793a616363657074496e7669746174696f6e202d60008301527f205468697320696e7669746174696f6e20646f65736e277420657869737400006020830152604082019050919050565b6000612767604b83612ec6565b91507f436f686f7274466163746f72793a616363657074496e7669746174696f6e2d2060008301527f5468697320696e7669746174696f6e20686173206265656e206163636570746560208301527f6420616c7265616479202e0000000000000000000000000000000000000000006040830152606082019050919050565b60006127f3604883612ec6565b91507f436f686f7274466163746f72793a696e7669746556616c696461746f72202d2060008301527f4f6e6c7920417070726f7665642056616c696461746f72732063616e2062652060208301527f696e76697465642e0000000000000000000000000000000000000000000000006040830152606082019050919050565b600061287f603483612ec6565b91507f436f686f7274466163746f72792d696e7669746556616c696461746f724d756c60008301527f7469706c653a204c69737420746f6f206c6f6e670000000000000000000000006020830152604082019050919050565b60006128e5606183612ec6565b91507f436f686f7274466163746f72793a696e7669746556616c696461746f72202d2060008301527f546869732076616c696461746f7220686173206265656e20616c72656164792060208301527f696e766974656420666f7220746869732076616c69646174696f6e207479706560408301527f2e000000000000000000000000000000000000000000000000000000000000006060830152608082019050919050565b6000612997607d83612ec6565b91507f436f686f7274466163746f72793a616363657074496e7669746174696f6e202d60008301527f20596f752061726520616363657074696e6720696e7669746174696f6e20746f60208301527f20776869636820796f752077657265206e6f7420696e7669746564206f72207460408301527f68697320696e7669746174696f6e20646f65736e27742065786973742e0000006060830152608082019050919050565b6000612a49604b83612ec6565b91507f436f686f7274466163746f72793a696e7669746556616c696461746f72202d2060008301527f4f6e6c7920456e746572707269736520757365722063616e20696e766974652060208301527f56616c696461746f72732e0000000000000000000000000000000000000000006040830152606082019050919050565b612ad181612f32565b82525050565b612ae081612f32565b82525050565b6000602082019050612afb6000830184612570565b92915050565b6000602082019050612b166000830184612552565b92915050565b600060a082019050612b316000830188612570565b612b3e6020830187612570565b612b4b6040830186612ad7565b612b586060830185612ad7565b612b656080830184612659565b9695505050505050565b6000604082019050612b846000830185612570565b612b916020830184612659565b9392505050565b60006040820190508181036000830152612bb2818561257f565b90508181036020830152612bc681846125dd565b90509392505050565b6000602082019050612be4600083018461263b565b92915050565b6000604082019050612bff600083018561263b565b612c0c602083018461263b565b9392505050565b6000602082019050612c28600083018461264a565b92915050565b6000602082019050612c436000830184612659565b92915050565b6000604082019050612c5e6000830185612659565b612c6b6020830184612ad7565b9392505050565b60006020820190508181036000830152612c8b81612668565b9050919050565b60006020820190508181036000830152612cab816126f4565b9050919050565b60006020820190508181036000830152612ccb8161275a565b9050919050565b60006020820190508181036000830152612ceb816127e6565b9050919050565b60006020820190508181036000830152612d0b81612872565b9050919050565b60006020820190508181036000830152612d2b816128d8565b9050919050565b60006020820190508181036000830152612d4b8161298a565b9050919050565b60006020820190508181036000830152612d6b81612a3c565b9050919050565b6000602082019050612d876000830184612ad7565b92915050565b6000606082019050612da26000830186612ad7565b8181036020830152612db4818561257f565b9050612dc36040830184612552565b949350505050565b6000604051905081810181811067ffffffffffffffff82111715612df257612df1612f84565b5b8060405250919050565b600067ffffffffffffffff821115612e1757612e16612f84565b5b602082029050602081019050919050565b600067ffffffffffffffff821115612e4357612e42612f84565b5b602082029050602081019050919050565b6000819050602082019050919050565b6000819050602082019050919050565b600081519050919050565b600081519050919050565b6000602082019050919050565b6000602082019050919050565b600082825260208201905092915050565b600082825260208201905092915050565b600082825260208201905092915050565b6000612ee282612f12565b9050919050565b60008115159050919050565b6000819050919050565b6000819050612f0d82612f86565b919050565b600073ffffffffffffffffffffffffffffffffffffffff82169050919050565b6000819050919050565b6000612f4782612f60565b9050919050565b6000612f5982612eff565b9050919050565b6000612f6b82612f72565b9050919050565b6000612f7d82612f12565b9050919050565bfe5b60068110612f9757612f96612f84565b5b50565b612fa381612ed7565b8114612fae57600080fd5b50565b612fba81612ee9565b8114612fc557600080fd5b50565b612fd181612ef5565b8114612fdc57600080fd5b50565b60068110612fec57600080fd5b50565b612ff881612f32565b811461300357600080fd5b5056fe456e756d657261626c655365743a20696e646578206f7574206f6620626f756e6473416363657373436f6e74726f6c3a2073656e646572206d75737420626520616e2061646d696e20746f206772616e74416363657373436f6e74726f6c3a2073656e646572206d75737420626520616e2061646d696e20746f207265766f6b65416363657373436f6e74726f6c3a2063616e206f6e6c792072656e6f756e636520726f6c657320666f722073656c66a264697066735822122006738770e3570c4af5870f3182b98efcac58dcae3356a8aeab3e530f2eff2b9c64736f6c63430007060033",
  "immutableReferences": {},
  "source": "// SPDX-License-Identifier: MIT\npragma solidity =0.7.6;\npragma experimental ABIEncoderV2;\nimport \"@openzeppelin/contracts/access/AccessControl.sol\";\nimport \"./Members.sol\";\nimport \"./CreateCohort.sol\";\n\n/**\n * @title CohortFactory\n * @dev AccessControl \n * Allows on creation of invitations by Enterprise and acceptance of Validators of those \n * invitations. Finally Enterprise can create cohort consisting of invited Validators\n * and enterprise. \n */\n\ncontract CohortFactory is  AccessControl {\n\n    // Audit types to be used. Three types added for future expansion \n    enum AuditTypes {\n        Financial,\n        System,\n        Contract,\n        Type4,\n        Type5,\n        Type6\n    }\n\n    // Invitation structure to hold info about its status\n    struct Invitation {\n        address enterprise;\n        address validator;\n        uint256 invitationDate;      \n        uint256 acceptanceDate;\n        AuditTypes audits;\n    }\n\n    struct Cohorts {\n        address cohort;\n        AuditTypes audits;\n    }\n\n    mapping(address => Cohorts[]) public cohortList;\n\n    Members members;                                            // pointer to Members contract\n    mapping (address =>  Invitation[]) public invitations;      // invitations list\n    address platformAddress;                                    // address to deposit platform fees\n    address createCohortAddress;\n\n    event ValidatorInvited(address indexed inviting, address indexed invitee, AuditTypes audits, uint256 invitationNumber);\n    event InvitationAccepted(address indexed validator, uint256 invitationNumber);\n    event CohortCreated(address indexed enterprise, address indexed cohort, AuditTypes audits);\n\n\n    constructor(Members _members,  address _createCohortAddress ) {\n        members = _members;\n        createCohortAddress = _createCohortAddress;\n        _setupRole(DEFAULT_ADMIN_ROLE, msg.sender); // \n    }\n\n\n    /**\n    * @dev Used by Enterprise to invite validator\n    * @param validator address of the validator to invite\n    * @param audit type of the audit\n    */\n    function inviteValidator(address validator, AuditTypes audit) public {\n\n        Invitation memory newInvitation;\n        bool approvedValidator = members.validatorMap(validator);\n        bool isEnterprise = members.enterpriseMap(msg.sender);\n        (bool invited, ) = isValidatorInvited(msg.sender, validator, audit);\n        require( !invited , \"CohortFactory:inviteValidator - This validator has been already invited for this validation type.\" );\n        require( isEnterprise, \"CohortFactory:inviteValidator - Only Enterprise user can invite Validators.\");\n        require( approvedValidator, \"CohortFactory:inviteValidator - Only Approved Validators can be invited.\");\n        require( members.deposits(validator) > 0,\"CohortFactory:inviteValidator - This validator has not staked any tokens yet.\");\n        newInvitation.validator = validator;\n        newInvitation.invitationDate = block.timestamp;     \n        newInvitation.audits = audit;   \n        invitations[msg.sender].push(newInvitation);\n        emit ValidatorInvited(msg.sender, validator, audit, invitations[msg.sender].length - 1);\n        }\n\n    /**\n    * @dev Used by Enterprise to invite multiple validators in one call \n    * @param validator address of the validator to invite\n    * @param audit type of the audit\n    */\n    function inviteValidatorMultiple(address[] memory validator, AuditTypes audit) public{\n\n        uint256 length = validator.length;\n        require(length <= 256, \"CohortFactory-inviteValidatorMultiple: List too long\");\n        for (uint256 i = 0; i < length; i++) {\n            inviteValidator(validator[i], audit);\n        }\n    }\n\n    /**\n    * @dev Used by Validator to accept Enterprise invitation\n    * @param enterprise address of the Enterprise who created invitation\n    * @param invitationNumber invitation number\n    */\n    function acceptInvitation(address enterprise, uint256 invitationNumber) public {\n\n        require( invitations[enterprise].length > invitationNumber, \"CohortFactory:acceptInvitation - This invitation doesn't exist\");\n        require( invitations[enterprise][invitationNumber].acceptanceDate == 0, \"CohortFactory:acceptInvitation- This invitation has been accepted already .\");\n        require( invitations[enterprise][invitationNumber].validator == msg.sender, \"CohortFactory:acceptInvitation - You are accepting invitation to which you were not invited or this invitation doesn't exist.\");\n        invitations[enterprise][invitationNumber].acceptanceDate = block.timestamp;\n        emit InvitationAccepted(msg.sender, invitationNumber);\n    }\n\n     /**\n    * @dev Used by Validator to accept multiple Enterprise invitation\n    * @param enterprise address of the Enterprise who created invitation\n    * @param invitationNumber invitation number\n    */\n    function acceptInvitationMultiple(address[] memory enterprise, uint256[] memory invitationNumber) public{\n\n        uint256 length = enterprise.length;\n        for (uint256 i = 0; i < length; i++) {\n            acceptInvitation(enterprise[i], invitationNumber[i]);\n        }\n    }\n\n     /**\n    * @dev Used to determine size of validator list to be included in Cohort\n    * @param enterprise address of the Enterprise who created invitation\n    * @param audit type\n    * @return count of invitations\n    */\n    function returnInvitationCount(address enterprise, AuditTypes audit) public view returns(uint256) {\n\n        uint256 count;\n\n        for (uint i=0; i < invitations[enterprise].length; ++i ){\n            if (invitations[enterprise][i].audits == audit && invitations[enterprise][i].acceptanceDate != 0)\n                count ++;\n        }\n        return count;\n    }\n\n    /**\n    * @dev Used to determine if validator has been invited and/or if validation has been accepted\n    * @param enterprise inviting party\n    * @param validator address of the validator\n    * @param audits types\n    * @return true if invited\n    * @return true if accepted invitation\n    */\n    function isValidatorInvited(address enterprise, address validator, AuditTypes audits) public view returns (bool, bool) {\n\n        for (uint i=0; i < invitations[enterprise].length; ++i ){\n            if (invitations[enterprise][i].audits == audits && invitations[enterprise][i].validator == validator ){\n                if (invitations[enterprise][i].acceptanceDate > 0)\n                    return (true, true);\n                return (true, false);\n            }\n        }\n        return (false, false);\n    }\n\n     /**\n    * @dev Used to return of list of cohorts for enterprise\n    * @param enterprise inviting party\n    * @return cohort address \n    * @return audit type\n    */\n    function returnCohorts(address enterprise) public view returns (address[] memory, uint256[] memory){\n\n        address[] memory cohort = new address[](cohortList[enterprise].length);\n        uint256[] memory audits = new uint256[](cohortList[enterprise].length);\n\n\n        for (uint256 i; i < cohortList[enterprise].length; i++){\n\n            cohort[i] = cohortList[enterprise][i].cohort;\n            audits[i] = uint256(cohortList[enterprise][i].audits);\n\n        }\n        return (cohort, audits);\n    }\n\n    /**\n    * @dev creates a new cohort using create2 methods based on the audit type\n    * @param audit type\n    */\n    function createCohort(AuditTypes audit) public {\n        address[] memory validatorsList = new address[](returnInvitationCount(msg.sender, audit));\n         uint k;\n        for (uint i=0; i < invitations[msg.sender].length; ++i ){\n            if (invitations[msg.sender][i].audits == audit && invitations[msg.sender][i].acceptanceDate > 0){\n                validatorsList[k] = invitations[msg.sender][i].validator;\n                k++;\n            }\n        }\n\n        address cohortAddress = CreateCohort(createCohortAddress).createCohort(uint256(audit),  validatorsList, msg.sender );\n        cohortList[msg.sender].push();\n        cohortList[msg.sender][cohortList[msg.sender].length - 1].cohort = cohortAddress;\n        cohortList[msg.sender][cohortList[msg.sender].length - 1].audits = audit;\n\n        emit CohortCreated(msg.sender, cohortAddress, AuditTypes(audit));\n        \n    }\n}",
  "sourcePath": "/home/bogdan/Ethereum/Projects/TGE/Core-Smart-Contracts-v1/contracts/Auditchain/CohortFactory.sol",
  "compiler": {
    "name": "solc",
    "version": "0.7.6+commit.7338295f.Emscripten.clang"
  },
  "schemaVersion": "3.3.4",
  "updatedAt": "2021-03-12T23:32:31.777Z",
  "networkType": "ethereum",
  "devdoc": {
    "details": "AccessControl  Allows on creation of invitations by Enterprise and acceptance of Validators of those  invitations. Finally Enterprise can create cohort consisting of invited Validators and enterprise. ",
    "kind": "dev",
    "methods": {
      "acceptInvitation(address,uint256)": {
        "details": "Used by Validator to accept Enterprise invitation",
        "params": {
          "enterprise": "address of the Enterprise who created invitation",
          "invitationNumber": "invitation number"
        }
      },
      "acceptInvitationMultiple(address[],uint256[])": {
        "details": "Used by Validator to accept multiple Enterprise invitation",
        "params": {
          "enterprise": "address of the Enterprise who created invitation",
          "invitationNumber": "invitation number"
        }
      },
      "createCohort(uint8)": {
        "details": "creates a new cohort using create2 methods based on the audit type",
        "params": {
          "audit": "type"
        }
      },
      "getRoleAdmin(bytes32)": {
        "details": "Returns the admin role that controls `role`. See {grantRole} and {revokeRole}. To change a role's admin, use {_setRoleAdmin}."
      },
      "getRoleMember(bytes32,uint256)": {
        "details": "Returns one of the accounts that have `role`. `index` must be a value between 0 and {getRoleMemberCount}, non-inclusive. Role bearers are not sorted in any particular way, and their ordering may change at any point. WARNING: When using {getRoleMember} and {getRoleMemberCount}, make sure you perform all queries on the same block. See the following https://forum.openzeppelin.com/t/iterating-over-elements-on-enumerableset-in-openzeppelin-contracts/2296[forum post] for more information."
      },
      "getRoleMemberCount(bytes32)": {
        "details": "Returns the number of accounts that have `role`. Can be used together with {getRoleMember} to enumerate all bearers of a role."
      },
      "grantRole(bytes32,address)": {
        "details": "Grants `role` to `account`. If `account` had not been already granted `role`, emits a {RoleGranted} event. Requirements: - the caller must have ``role``'s admin role."
      },
      "hasRole(bytes32,address)": {
        "details": "Returns `true` if `account` has been granted `role`."
      },
      "inviteValidator(address,uint8)": {
        "details": "Used by Enterprise to invite validator",
        "params": {
          "audit": "type of the audit",
          "validator": "address of the validator to invite"
        }
      },
      "inviteValidatorMultiple(address[],uint8)": {
        "details": "Used by Enterprise to invite multiple validators in one call ",
        "params": {
          "audit": "type of the audit",
          "validator": "address of the validator to invite"
        }
      },
      "isValidatorInvited(address,address,uint8)": {
        "details": "Used to determine if validator has been invited and/or if validation has been accepted",
        "params": {
          "audits": "types",
          "enterprise": "inviting party",
          "validator": "address of the validator"
        },
        "returns": {
          "_0": "true if invited",
          "_1": "true if accepted invitation"
        }
      },
      "renounceRole(bytes32,address)": {
        "details": "Revokes `role` from the calling account. Roles are often managed via {grantRole} and {revokeRole}: this function's purpose is to provide a mechanism for accounts to lose their privileges if they are compromised (such as when a trusted device is misplaced). If the calling account had been granted `role`, emits a {RoleRevoked} event. Requirements: - the caller must be `account`."
      },
      "returnCohorts(address)": {
        "details": "Used to return of list of cohorts for enterprise",
        "params": {
          "enterprise": "inviting party"
        },
        "returns": {
          "_0": "cohort address ",
          "_1": "audit type"
        }
      },
      "returnInvitationCount(address,uint8)": {
        "details": "Used to determine size of validator list to be included in Cohort",
        "params": {
          "audit": "type",
          "enterprise": "address of the Enterprise who created invitation"
        },
        "returns": {
          "_0": "count of invitations"
        }
      },
      "revokeRole(bytes32,address)": {
        "details": "Revokes `role` from `account`. If `account` had been granted `role`, emits a {RoleRevoked} event. Requirements: - the caller must have ``role``'s admin role."
      }
    },
    "title": "CohortFactory",
    "version": 1
  },
  "userdoc": {
    "kind": "user",
    "methods": {},
    "version": 1
  }
}