{
  "contractName": "CohortFactory",
  "abi": [
    {
      "inputs": [
        {
          "internalType": "contract Members",
          "name": "_members",
          "type": "address"
        },
        {
          "internalType": "address",
          "name": "_createCohortAddress",
          "type": "address"
        }
      ],
      "stateMutability": "nonpayable",
      "type": "constructor"
    },
    {
      "anonymous": false,
      "inputs": [
        {
          "indexed": true,
          "internalType": "address",
          "name": "enterprise",
          "type": "address"
        },
        {
          "indexed": true,
          "internalType": "address",
          "name": "cohort",
          "type": "address"
        },
        {
          "indexed": false,
          "internalType": "enum CohortFactory.AuditTypes",
          "name": "audits",
          "type": "uint8"
        }
      ],
      "name": "CohortCreated",
      "type": "event"
    },
    {
      "anonymous": false,
      "inputs": [
        {
          "indexed": true,
          "internalType": "address",
          "name": "validator",
          "type": "address"
        },
        {
          "indexed": false,
          "internalType": "uint256",
          "name": "invitationNumber",
          "type": "uint256"
        }
      ],
      "name": "InvitationAccepted",
      "type": "event"
    },
    {
      "anonymous": false,
      "inputs": [
        {
          "indexed": true,
          "internalType": "bytes32",
          "name": "role",
          "type": "bytes32"
        },
        {
          "indexed": true,
          "internalType": "bytes32",
          "name": "previousAdminRole",
          "type": "bytes32"
        },
        {
          "indexed": true,
          "internalType": "bytes32",
          "name": "newAdminRole",
          "type": "bytes32"
        }
      ],
      "name": "RoleAdminChanged",
      "type": "event"
    },
    {
      "anonymous": false,
      "inputs": [
        {
          "indexed": true,
          "internalType": "bytes32",
          "name": "role",
          "type": "bytes32"
        },
        {
          "indexed": true,
          "internalType": "address",
          "name": "account",
          "type": "address"
        },
        {
          "indexed": true,
          "internalType": "address",
          "name": "sender",
          "type": "address"
        }
      ],
      "name": "RoleGranted",
      "type": "event"
    },
    {
      "anonymous": false,
      "inputs": [
        {
          "indexed": true,
          "internalType": "bytes32",
          "name": "role",
          "type": "bytes32"
        },
        {
          "indexed": true,
          "internalType": "address",
          "name": "account",
          "type": "address"
        },
        {
          "indexed": true,
          "internalType": "address",
          "name": "sender",
          "type": "address"
        }
      ],
      "name": "RoleRevoked",
      "type": "event"
    },
    {
      "anonymous": false,
      "inputs": [
        {
          "indexed": false,
          "internalType": "uint256",
          "name": "minValidatorPerCohort",
          "type": "uint256"
        }
      ],
      "name": "UpdateMinValidatorsPerCohort",
      "type": "event"
    },
    {
      "anonymous": false,
      "inputs": [
        {
          "indexed": true,
          "internalType": "address",
          "name": "inviting",
          "type": "address"
        },
        {
          "indexed": true,
          "internalType": "address",
          "name": "invitee",
          "type": "address"
        },
        {
          "indexed": false,
          "internalType": "enum CohortFactory.AuditTypes",
          "name": "audits",
          "type": "uint8"
        },
        {
          "indexed": false,
          "internalType": "uint256",
          "name": "invitationNumber",
          "type": "uint256"
        }
      ],
      "name": "ValidatorInvited",
      "type": "event"
    },
    {
      "inputs": [],
      "name": "DEFAULT_ADMIN_ROLE",
      "outputs": [
        {
          "internalType": "bytes32",
          "name": "",
          "type": "bytes32"
        }
      ],
      "stateMutability": "view",
      "type": "function",
      "constant": true
    },
    {
      "inputs": [],
      "name": "SETTER_ROLE",
      "outputs": [
        {
          "internalType": "bytes32",
          "name": "",
          "type": "bytes32"
        }
      ],
      "stateMutability": "view",
      "type": "function",
      "constant": true
    },
    {
      "inputs": [
        {
          "internalType": "address",
          "name": "",
          "type": "address"
        },
        {
          "internalType": "uint256",
          "name": "",
          "type": "uint256"
        }
      ],
      "name": "cohortList",
      "outputs": [
        {
          "internalType": "address",
          "name": "cohort",
          "type": "address"
        },
        {
          "internalType": "enum CohortFactory.AuditTypes",
          "name": "audits",
          "type": "uint8"
        }
      ],
      "stateMutability": "view",
      "type": "function",
      "constant": true
    },
    {
      "inputs": [
        {
          "internalType": "bytes32",
          "name": "role",
          "type": "bytes32"
        }
      ],
      "name": "getRoleAdmin",
      "outputs": [
        {
          "internalType": "bytes32",
          "name": "",
          "type": "bytes32"
        }
      ],
      "stateMutability": "view",
      "type": "function",
      "constant": true
    },
    {
      "inputs": [
        {
          "internalType": "bytes32",
          "name": "role",
          "type": "bytes32"
        },
        {
          "internalType": "uint256",
          "name": "index",
          "type": "uint256"
        }
      ],
      "name": "getRoleMember",
      "outputs": [
        {
          "internalType": "address",
          "name": "",
          "type": "address"
        }
      ],
      "stateMutability": "view",
      "type": "function",
      "constant": true
    },
    {
      "inputs": [
        {
          "internalType": "bytes32",
          "name": "role",
          "type": "bytes32"
        }
      ],
      "name": "getRoleMemberCount",
      "outputs": [
        {
          "internalType": "uint256",
          "name": "",
          "type": "uint256"
        }
      ],
      "stateMutability": "view",
      "type": "function",
      "constant": true
    },
    {
      "inputs": [
        {
          "internalType": "bytes32",
          "name": "role",
          "type": "bytes32"
        },
        {
          "internalType": "address",
          "name": "account",
          "type": "address"
        }
      ],
      "name": "grantRole",
      "outputs": [],
      "stateMutability": "nonpayable",
      "type": "function"
    },
    {
      "inputs": [
        {
          "internalType": "bytes32",
          "name": "role",
          "type": "bytes32"
        },
        {
          "internalType": "address",
          "name": "account",
          "type": "address"
        }
      ],
      "name": "hasRole",
      "outputs": [
        {
          "internalType": "bool",
          "name": "",
          "type": "bool"
        }
      ],
      "stateMutability": "view",
      "type": "function",
      "constant": true
    },
    {
      "inputs": [
        {
          "internalType": "address",
          "name": "",
          "type": "address"
        },
        {
          "internalType": "uint256",
          "name": "",
          "type": "uint256"
        }
      ],
      "name": "invitations",
      "outputs": [
        {
          "internalType": "address",
          "name": "enterprise",
          "type": "address"
        },
        {
          "internalType": "address",
          "name": "validator",
          "type": "address"
        },
        {
          "internalType": "uint256",
          "name": "invitationDate",
          "type": "uint256"
        },
        {
          "internalType": "uint256",
          "name": "acceptanceDate",
          "type": "uint256"
        },
        {
          "internalType": "enum CohortFactory.AuditTypes",
          "name": "audits",
          "type": "uint8"
        }
      ],
      "stateMutability": "view",
      "type": "function",
      "constant": true
    },
    {
      "inputs": [],
      "name": "minValidatorPerCohort",
      "outputs": [
        {
          "internalType": "uint256",
          "name": "",
          "type": "uint256"
        }
      ],
      "stateMutability": "view",
      "type": "function",
      "constant": true
    },
    {
      "inputs": [
        {
          "internalType": "bytes32",
          "name": "role",
          "type": "bytes32"
        },
        {
          "internalType": "address",
          "name": "account",
          "type": "address"
        }
      ],
      "name": "renounceRole",
      "outputs": [],
      "stateMutability": "nonpayable",
      "type": "function"
    },
    {
      "inputs": [
        {
          "internalType": "bytes32",
          "name": "role",
          "type": "bytes32"
        },
        {
          "internalType": "address",
          "name": "account",
          "type": "address"
        }
      ],
      "name": "revokeRole",
      "outputs": [],
      "stateMutability": "nonpayable",
      "type": "function"
    },
    {
      "inputs": [
        {
          "internalType": "uint256",
          "name": "_minValidatorPerCohort",
          "type": "uint256"
        }
      ],
      "name": "updatMinValidatorsPerCohort",
      "outputs": [],
      "stateMutability": "nonpayable",
      "type": "function"
    },
    {
      "inputs": [
        {
          "internalType": "address",
          "name": "validator",
          "type": "address"
        },
        {
          "internalType": "enum CohortFactory.AuditTypes",
          "name": "audit",
          "type": "uint8"
        }
      ],
      "name": "inviteValidator",
      "outputs": [],
      "stateMutability": "nonpayable",
      "type": "function"
    },
    {
      "inputs": [
        {
          "internalType": "address[]",
          "name": "validator",
          "type": "address[]"
        },
        {
          "internalType": "enum CohortFactory.AuditTypes",
          "name": "audit",
          "type": "uint8"
        }
      ],
      "name": "inviteValidatorMultiple",
      "outputs": [],
      "stateMutability": "nonpayable",
      "type": "function"
    },
    {
      "inputs": [
        {
          "internalType": "address",
          "name": "enterprise",
          "type": "address"
        },
        {
          "internalType": "uint256",
          "name": "invitationNumber",
          "type": "uint256"
        }
      ],
      "name": "acceptInvitation",
      "outputs": [],
      "stateMutability": "nonpayable",
      "type": "function"
    },
    {
      "inputs": [
        {
          "internalType": "address[]",
          "name": "enterprise",
          "type": "address[]"
        },
        {
          "internalType": "uint256[]",
          "name": "invitationNumber",
          "type": "uint256[]"
        }
      ],
      "name": "acceptInvitationMultiple",
      "outputs": [],
      "stateMutability": "nonpayable",
      "type": "function"
    },
    {
      "inputs": [
        {
          "internalType": "address",
          "name": "enterprise",
          "type": "address"
        },
        {
          "internalType": "enum CohortFactory.AuditTypes",
          "name": "audit",
          "type": "uint8"
        }
      ],
      "name": "returnInvitationCount",
      "outputs": [
        {
          "internalType": "uint256",
          "name": "",
          "type": "uint256"
        }
      ],
      "stateMutability": "view",
      "type": "function",
      "constant": true
    },
    {
      "inputs": [
        {
          "internalType": "address",
          "name": "enterprise",
          "type": "address"
        },
        {
          "internalType": "address",
          "name": "validator",
          "type": "address"
        },
        {
          "internalType": "enum CohortFactory.AuditTypes",
          "name": "audits",
          "type": "uint8"
        }
      ],
      "name": "isValidatorInvited",
      "outputs": [
        {
          "internalType": "bool",
          "name": "",
          "type": "bool"
        },
        {
          "internalType": "bool",
          "name": "",
          "type": "bool"
        }
      ],
      "stateMutability": "view",
      "type": "function",
      "constant": true
    },
    {
      "inputs": [
        {
          "internalType": "address",
          "name": "enterprise",
          "type": "address"
        }
      ],
      "name": "returnCohorts",
      "outputs": [
        {
          "internalType": "address[]",
          "name": "",
          "type": "address[]"
        },
        {
          "internalType": "uint256[]",
          "name": "",
          "type": "uint256[]"
        }
      ],
      "stateMutability": "view",
      "type": "function",
      "constant": true
    },
    {
      "inputs": [],
      "name": "returnOutstandingValidations",
      "outputs": [
        {
          "internalType": "uint256",
          "name": "",
          "type": "uint256"
        }
      ],
      "stateMutability": "view",
      "type": "function",
      "constant": true
    },
    {
      "inputs": [
        {
          "internalType": "enum CohortFactory.AuditTypes",
          "name": "audit",
          "type": "uint8"
        }
      ],
      "name": "createCohort",
      "outputs": [],
      "stateMutability": "nonpayable",
      "type": "function"
    }
  ],
  "bytecode": "0x608060405260036006553480156200001657600080fd5b506040516200394b3803806200394b83398181016040528101906200003c91906200029f565b81600260006101000a81548173ffffffffffffffffffffffffffffffffffffffff021916908373ffffffffffffffffffffffffffffffffffffffff16021790555080600560006101000a81548173ffffffffffffffffffffffffffffffffffffffff021916908373ffffffffffffffffffffffffffffffffffffffff160217905550620000d36000801b33620000db60201b60201c565b50506200035c565b620000ed8282620000f160201b60201c565b5050565b6200011f816000808581526020019081526020016000206000016200019460201b62001ed21790919060201c565b15620001905762000135620001cc60201b60201c565b73ffffffffffffffffffffffffffffffffffffffff168173ffffffffffffffffffffffffffffffffffffffff16837f2f8788117e7eff1d82e926ec794901d17c78024a50270940304540a733656f0d60405160405180910390a45b5050565b6000620001c4836000018373ffffffffffffffffffffffffffffffffffffffff1660001b620001d460201b60201c565b905092915050565b600033905090565b6000620001e883836200024e60201b60201c565b6200024357826000018290806001815401808255809150506001900390600052602060002001600090919091909150558260000180549050836001016000848152602001908152602001600020819055506001905062000248565b600090505b92915050565b600080836001016000848152602001908152602001600020541415905092915050565b600081519050620002828162000328565b92915050565b600081519050620002998162000342565b92915050565b60008060408385031215620002b357600080fd5b6000620002c38582860162000288565b9250506020620002d68582860162000271565b9150509250929050565b6000620002ed8262000308565b9050919050565b60006200030182620002e0565b9050919050565b600073ffffffffffffffffffffffffffffffffffffffff82169050919050565b6200033381620002e0565b81146200033f57600080fd5b50565b6200034d81620002f4565b81146200035957600080fd5b50565b6135df806200036c6000396000f3fe608060405234801561001057600080fd5b50600436106101425760003560e01c80639010d07c116100b8578063a70e03931161007c578063a70e03931461039d578063c535124e146103ce578063ca15c873146103ec578063cf1f07801461041c578063d2a3da021461043a578063d547741f1461045657610142565b80639010d07c146102e557806391d1485414610315578063a2011b3f14610345578063a217fddf14610363578063a34697371461038157610142565b80632f2ff15d1161010a5780632f2ff15d1461021057806336568abe1461022c5780635df11376146102485780637c915c861461026457806387247dea146102805780638ffb72f4146102b157610142565b80630939a997146101475780630ea02160146101635780631f94fc3a1461017f578063247e28b3146101b0578063248a9ca3146101e0575b600080fd5b610161600480360381019061015c919061260c565b610472565b005b61017d600480360381019061017891906125d0565b6104c6565b005b61019960048036038101906101949190612545565b610783565b6040516101a792919061307d565b60405180910390f35b6101ca60048036038101906101c59190612594565b6109a6565b6040516101d79190613265565b60405180910390f35b6101fa60048036038101906101f591906126f5565b610b03565b60405161020791906130a6565b60405180910390f35b61022a6004803603810190610225919061271e565b610b22565b005b6102466004803603810190610241919061271e565b610bab565b005b610262600480360381019061025d91906127bf565b610c44565b005b61027e60048036038101906102799190612796565b610d32565b005b61029a600480360381019061029591906124f3565b6112fc565b6040516102a892919061302b565b60405180910390f35b6102cb60048036038101906102c691906125d0565b6115c7565b6040516102dc959493929190612faf565b60405180910390f35b6102ff60048036038101906102fa919061275a565b611667565b60405161030c9190612f79565b60405180910390f35b61032f600480360381019061032a919061271e565b611698565b60405161033c9190613062565b60405180910390f35b61034d6116c9565b60405161035a91906130a6565b60405180910390f35b61036b6116ed565b60405161037891906130a6565b60405180910390f35b61039b60048036038101906103969190612678565b6116f4565b005b6103b760048036038101906103b291906125d0565b61177a565b6040516103c5929190613002565b60405180910390f35b6103d66117e4565b6040516103e39190613265565b60405180910390f35b610406600480360381019061040191906126f5565b6118ab565b6040516104139190613265565b60405180910390f35b6104246118d1565b6040516104319190613265565b60405180910390f35b610454600480360381019061044f9190612594565b6118d7565b005b610470600480360381019061046b919061271e565b611e49565b005b60008251905060005b818110156104c0576104b384828151811061049257fe5b60200260200101518483815181106104a657fe5b60200260200101516104c6565b808060010191505061047b565b50505050565b80600360008473ffffffffffffffffffffffffffffffffffffffff1673ffffffffffffffffffffffffffffffffffffffff168152602001908152602001600020805490501161054a576040517f08c379a000000000000000000000000000000000000000000000000000000000815260040161054190613125565b60405180910390fd5b6000600360008473ffffffffffffffffffffffffffffffffffffffff1673ffffffffffffffffffffffffffffffffffffffff168152602001908152602001600020828154811061059657fe5b906000526020600020906005020160030154146105e8576040517f08c379a00000000000000000000000000000000000000000000000000000000081526004016105df90613145565b60405180910390fd5b3373ffffffffffffffffffffffffffffffffffffffff16600360008473ffffffffffffffffffffffffffffffffffffffff1673ffffffffffffffffffffffffffffffffffffffff168152602001908152602001600020828154811061064957fe5b906000526020600020906005020160010160009054906101000a900473ffffffffffffffffffffffffffffffffffffffff1673ffffffffffffffffffffffffffffffffffffffff16146106d1576040517f08c379a00000000000000000000000000000000000000000000000000000000081526004016106c8906131e5565b60405180910390fd5b42600360008473ffffffffffffffffffffffffffffffffffffffff1673ffffffffffffffffffffffffffffffffffffffff168152602001908152602001600020828154811061071c57fe5b9060005260206000209060050201600301819055503373ffffffffffffffffffffffffffffffffffffffff167f7b03e8bab458bdbb216f7525cb174b013e75d040884fe46cc9e836fc05a0cc7b826040516107779190613265565b60405180910390a25050565b60008060005b600360008773ffffffffffffffffffffffffffffffffffffffff1673ffffffffffffffffffffffffffffffffffffffff16815260200190815260200160002080549050811015610995578360058111156107df57fe5b600360008873ffffffffffffffffffffffffffffffffffffffff1673ffffffffffffffffffffffffffffffffffffffff168152602001908152602001600020828154811061082957fe5b906000526020600020906005020160040160009054906101000a900460ff16600581111561085357fe5b14801561090657508473ffffffffffffffffffffffffffffffffffffffff16600360008873ffffffffffffffffffffffffffffffffffffffff1673ffffffffffffffffffffffffffffffffffffffff16815260200190815260200160002082815481106108bc57fe5b906000526020600020906005020160010160009054906101000a900473ffffffffffffffffffffffffffffffffffffffff1673ffffffffffffffffffffffffffffffffffffffff16145b1561098a576000600360008873ffffffffffffffffffffffffffffffffffffffff1673ffffffffffffffffffffffffffffffffffffffff168152602001908152602001600020828154811061095757fe5b906000526020600020906005020160030154111561097c57600180925092505061099e565b60016000925092505061099e565b806001019050610789565b50600080915091505b935093915050565b60008060005b600360008673ffffffffffffffffffffffffffffffffffffffff1673ffffffffffffffffffffffffffffffffffffffff16815260200190815260200160002080549050811015610af857836005811115610a0257fe5b600360008773ffffffffffffffffffffffffffffffffffffffff1673ffffffffffffffffffffffffffffffffffffffff1681526020019081526020016000208281548110610a4c57fe5b906000526020600020906005020160040160009054906101000a900460ff166005811115610a7657fe5b148015610adf57506000600360008773ffffffffffffffffffffffffffffffffffffffff1673ffffffffffffffffffffffffffffffffffffffff1681526020019081526020016000208281548110610aca57fe5b90600052602060002090600502016003015414155b15610aed5781806001019250505b8060010190506109ac565b508091505092915050565b6000806000838152602001908152602001600020600201549050919050565b610b4860008084815260200190815260200160002060020154610b43611f02565b611698565b610b9d576040517f08c379a000000000000000000000000000000000000000000000000000000000815260040180806020018281038252602f81526020018061351c602f913960400191505060405180910390fd5b610ba78282611f0a565b5050565b610bb3611f02565b73ffffffffffffffffffffffffffffffffffffffff168173ffffffffffffffffffffffffffffffffffffffff1614610c36576040517f08c379a000000000000000000000000000000000000000000000000000000000815260040180806020018281038252602f81526020018061357b602f913960400191505060405180910390fd5b610c408282611f9d565b5050565b610c6e7f61c92169ef077349011ff0b1383c894d86c5f0b41d986366b58a6cf31e93beda33611698565b610cad576040517f08c379a0000000000000000000000000000000000000000000000000000000008152600401610ca490613205565b60405180910390fd5b6000811415610cf1576040517f08c379a0000000000000000000000000000000000000000000000000000000008152600401610ce8906131c5565b60405180910390fd5b806006819055507f1c56eec698b63b9b30c1ffe550cd932bcd93d99a2de3117d8babc9a2480a49b581604051610d279190613265565b60405180910390a150565b6000610d3e33836109a6565b67ffffffffffffffff81118015610d5457600080fd5b50604051908082528060200260200182016040528015610d835781602001602082028036833780820191505090505b509050600080600090505b600360003373ffffffffffffffffffffffffffffffffffffffff1673ffffffffffffffffffffffffffffffffffffffff16815260200190815260200160002080549050811015610f9b57836005811115610de457fe5b600360003373ffffffffffffffffffffffffffffffffffffffff1673ffffffffffffffffffffffffffffffffffffffff1681526020019081526020016000208281548110610e2e57fe5b906000526020600020906005020160040160009054906101000a900460ff166005811115610e5857fe5b148015610ec057506000600360003373ffffffffffffffffffffffffffffffffffffffff1673ffffffffffffffffffffffffffffffffffffffff1681526020019081526020016000208281548110610eac57fe5b906000526020600020906005020160030154115b15610f9057600360003373ffffffffffffffffffffffffffffffffffffffff1673ffffffffffffffffffffffffffffffffffffffff1681526020019081526020016000208181548110610f0f57fe5b906000526020600020906005020160010160009054906101000a900473ffffffffffffffffffffffffffffffffffffffff16838381518110610f4d57fe5b602002602001019073ffffffffffffffffffffffffffffffffffffffff16908173ffffffffffffffffffffffffffffffffffffffff168152505081806001019250505b806001019050610d8e565b50600654811015610fe1576040517f08c379a0000000000000000000000000000000000000000000000000000000008152600401610fd890613245565b60405180910390fd5b6000600560009054906101000a900473ffffffffffffffffffffffffffffffffffffffff1673ffffffffffffffffffffffffffffffffffffffff1663ac680c3f85600581111561102d57fe5b85336040518463ffffffff1660e01b815260040161104d93929190613280565b602060405180830381600087803b15801561106757600080fd5b505af115801561107b573d6000803e3d6000fd5b505050506040513d601f19601f8201168201806040525081019061109f919061251c565b9050600160003373ffffffffffffffffffffffffffffffffffffffff1673ffffffffffffffffffffffffffffffffffffffff16815260200190815260200160002060018160018154018082558091505003906000526020600020505080600160003373ffffffffffffffffffffffffffffffffffffffff1673ffffffffffffffffffffffffffffffffffffffff16815260200190815260200160002060018060003373ffffffffffffffffffffffffffffffffffffffff1673ffffffffffffffffffffffffffffffffffffffff16815260200190815260200160002080549050038154811061118a57fe5b9060005260206000200160000160006101000a81548173ffffffffffffffffffffffffffffffffffffffff021916908373ffffffffffffffffffffffffffffffffffffffff16021790555083600160003373ffffffffffffffffffffffffffffffffffffffff1673ffffffffffffffffffffffffffffffffffffffff16815260200190815260200160002060018060003373ffffffffffffffffffffffffffffffffffffffff1673ffffffffffffffffffffffffffffffffffffffff16815260200190815260200160002080549050038154811061126457fe5b9060005260206000200160000160146101000a81548160ff0219169083600581111561128c57fe5b02179055508073ffffffffffffffffffffffffffffffffffffffff163373ffffffffffffffffffffffffffffffffffffffff167f90691b6bd4b271754d0eb5676725798ab1ab64c7225d8e48882bc2f6add2dd09866040516112ee91906130c1565b60405180910390a350505050565b6060806000600160008573ffffffffffffffffffffffffffffffffffffffff1673ffffffffffffffffffffffffffffffffffffffff1681526020019081526020016000208054905067ffffffffffffffff8111801561135a57600080fd5b506040519080825280602002602001820160405280156113895781602001602082028036833780820191505090505b5090506000600160008673ffffffffffffffffffffffffffffffffffffffff1673ffffffffffffffffffffffffffffffffffffffff1681526020019081526020016000208054905067ffffffffffffffff811180156113e757600080fd5b506040519080825280602002602001820160405280156114165781602001602082028036833780820191505090505b50905060005b600160008773ffffffffffffffffffffffffffffffffffffffff1673ffffffffffffffffffffffffffffffffffffffff168152602001908152602001600020805490508110156115b957600160008773ffffffffffffffffffffffffffffffffffffffff1673ffffffffffffffffffffffffffffffffffffffff16815260200190815260200160002081815481106114b057fe5b9060005260206000200160000160009054906101000a900473ffffffffffffffffffffffffffffffffffffffff168382815181106114ea57fe5b602002602001019073ffffffffffffffffffffffffffffffffffffffff16908173ffffffffffffffffffffffffffffffffffffffff1681525050600160008773ffffffffffffffffffffffffffffffffffffffff1673ffffffffffffffffffffffffffffffffffffffff168152602001908152602001600020818154811061156e57fe5b9060005260206000200160000160149054906101000a900460ff16600581111561159457fe5b8282815181106115a057fe5b602002602001018181525050808060010191505061141c565b508181935093505050915091565b600360205281600052604060002081815481106115e357600080fd5b9060005260206000209060050201600091509150508060000160009054906101000a900473ffffffffffffffffffffffffffffffffffffffff16908060010160009054906101000a900473ffffffffffffffffffffffffffffffffffffffff16908060020154908060030154908060040160009054906101000a900460ff16905085565b60006116908260008086815260200190815260200160002060000161203090919063ffffffff16565b905092915050565b60006116c18260008086815260200190815260200160002060000161204a90919063ffffffff16565b905092915050565b7f61c92169ef077349011ff0b1383c894d86c5f0b41d986366b58a6cf31e93beda81565b6000801b81565b60008251905061010081111561173f576040517f08c379a000000000000000000000000000000000000000000000000000000000815260040161173690613185565b60405180910390fd5b60005b818110156117745761176784828151811061175957fe5b6020026020010151846118d7565b8080600101915050611742565b50505050565b6001602052816000526040600020818154811061179657600080fd5b90600052602060002001600091509150508060000160009054906101000a900473ffffffffffffffffffffffffffffffffffffffff16908060000160149054906101000a900460ff16905082565b6000806117f0336112fc565b5090506000805b82518110156118a25782818151811061180c57fe5b602002602001015173ffffffffffffffffffffffffffffffffffffffff1663860008f06040518163ffffffff1660e01b815260040160206040518083038186803b15801561185957600080fd5b505afa15801561186d573d6000803e3d6000fd5b505050506040513d601f19601f8201168201806040525081019061189191906127e8565b8201915080806001019150506117f7565b50809250505090565b60006118ca60008084815260200190815260200160002060000161207a565b9050919050565b60065481565b6118df6122ce565b6000600260009054906101000a900473ffffffffffffffffffffffffffffffffffffffff1673ffffffffffffffffffffffffffffffffffffffff166318d50d33856040518263ffffffff1660e01b815260040161193c9190612f79565b60206040518083038186803b15801561195457600080fd5b505afa158015611968573d6000803e3d6000fd5b505050506040513d601f19601f8201168201806040525081019061198c91906126cc565b90506000600260009054906101000a900473ffffffffffffffffffffffffffffffffffffffff1673ffffffffffffffffffffffffffffffffffffffff1663be07b32e336040518263ffffffff1660e01b81526004016119eb9190612f94565b60206040518083038186803b158015611a0357600080fd5b505afa158015611a17573d6000803e3d6000fd5b505050506040513d601f19601f82011682018060405250810190611a3b91906126cc565b90506000611a4a338787610783565b5090508015611a8e576040517f08c379a0000000000000000000000000000000000000000000000000000000008152600401611a85906131a5565b60405180910390fd5b81611ace576040517f08c379a0000000000000000000000000000000000000000000000000000000008152600401611ac590613225565b60405180910390fd5b82611b0e576040517f08c379a0000000000000000000000000000000000000000000000000000000008152600401611b0590613165565b60405180910390fd5b6000600260009054906101000a900473ffffffffffffffffffffffffffffffffffffffff1673ffffffffffffffffffffffffffffffffffffffff1663fc7e286d886040518263ffffffff1660e01b8152600401611b6b9190612f79565b60206040518083038186803b158015611b8357600080fd5b505afa158015611b97573d6000803e3d6000fd5b505050506040513d601f19601f82011682018060405250810190611bbb91906127e8565b11611bfb576040517f08c379a0000000000000000000000000000000000000000000000000000000008152600401611bf290613105565b60405180910390fd5b85846020019073ffffffffffffffffffffffffffffffffffffffff16908173ffffffffffffffffffffffffffffffffffffffff1681525050428460400181815250508484608001906005811115611c4e57fe5b90816005811115611c5b57fe5b81525050600360003373ffffffffffffffffffffffffffffffffffffffff1673ffffffffffffffffffffffffffffffffffffffff16815260200190815260200160002084908060018154018082558091505060019003906000526020600020906005020160009091909190915060008201518160000160006101000a81548173ffffffffffffffffffffffffffffffffffffffff021916908373ffffffffffffffffffffffffffffffffffffffff16021790555060208201518160010160006101000a81548173ffffffffffffffffffffffffffffffffffffffff021916908373ffffffffffffffffffffffffffffffffffffffff160217905550604082015181600201556060820151816003015560808201518160040160006101000a81548160ff02191690836005811115611d8e57fe5b021790555050508573ffffffffffffffffffffffffffffffffffffffff163373ffffffffffffffffffffffffffffffffffffffff167fdb045b05e2cea9cac8289ec48770f5e3dff84ba85c4d3aeaaa75f81a16e2f4b9876001600360003373ffffffffffffffffffffffffffffffffffffffff1673ffffffffffffffffffffffffffffffffffffffff1681526020019081526020016000208054905003604051611e399291906130dc565b60405180910390a3505050505050565b611e6f60008084815260200190815260200160002060020154611e6a611f02565b611698565b611ec4576040517f08c379a000000000000000000000000000000000000000000000000000000000815260040180806020018281038252603081526020018061354b6030913960400191505060405180910390fd5b611ece8282611f9d565b5050565b6000611efa836000018373ffffffffffffffffffffffffffffffffffffffff1660001b61208f565b905092915050565b600033905090565b611f3181600080858152602001908152602001600020600001611ed290919063ffffffff16565b15611f9957611f3e611f02565b73ffffffffffffffffffffffffffffffffffffffff168173ffffffffffffffffffffffffffffffffffffffff16837f2f8788117e7eff1d82e926ec794901d17c78024a50270940304540a733656f0d60405160405180910390a45b5050565b611fc4816000808581526020019081526020016000206000016120ff90919063ffffffff16565b1561202c57611fd1611f02565b73ffffffffffffffffffffffffffffffffffffffff168173ffffffffffffffffffffffffffffffffffffffff16837ff6391f5c32d9c69d2a47ea670b442974b53935d1edc7fd64eb21e047a839171b60405160405180910390a45b5050565b600061203f836000018361212f565b60001c905092915050565b6000612072836000018373ffffffffffffffffffffffffffffffffffffffff1660001b6121b2565b905092915050565b6000612088826000016121d5565b9050919050565b600061209b83836121b2565b6120f45782600001829080600181540180825580915050600190039060005260206000200160009091909190915055826000018054905083600101600084815260200190815260200160002081905550600190506120f9565b600090505b92915050565b6000612127836000018373ffffffffffffffffffffffffffffffffffffffff1660001b6121e6565b905092915050565b600081836000018054905011612190576040517f08c379a00000000000000000000000000000000000000000000000000000000081526004018080602001828103825260228152602001806134fa6022913960400191505060405180910390fd5b82600001828154811061219f57fe5b9060005260206000200154905092915050565b600080836001016000848152602001908152602001600020541415905092915050565b600081600001805490509050919050565b600080836001016000848152602001908152602001600020549050600081146122c2576000600182039050600060018660000180549050039050600086600001828154811061223157fe5b906000526020600020015490508087600001848154811061224e57fe5b906000526020600020018190555060018301876001016000838152602001908152602001600020819055508660000180548061228657fe5b600190038181906000526020600020016000905590558660010160008781526020019081526020016000206000905560019450505050506122c8565b60009150505b92915050565b6040518060a00160405280600073ffffffffffffffffffffffffffffffffffffffff168152602001600073ffffffffffffffffffffffffffffffffffffffff16815260200160008152602001600081526020016000600581111561232e57fe5b81525090565b6000612347612342846132ef565b6132be565b9050808382526020820190508285602086028201111561236657600080fd5b60005b85811015612396578161237c888261240c565b845260208401935060208301925050600181019050612369565b5050509392505050565b60006123b36123ae8461331b565b6132be565b905080838252602082019050828560208602820111156123d257600080fd5b60005b8581101561240257816123e888826124c9565b8452602084019350602083019250506001810190506123d5565b5050509392505050565b60008135905061241b8161348d565b92915050565b6000815190506124308161348d565b92915050565b600082601f83011261244757600080fd5b8135612457848260208601612334565b91505092915050565b600082601f83011261247157600080fd5b81356124818482602086016123a0565b91505092915050565b600081519050612499816134a4565b92915050565b6000813590506124ae816134bb565b92915050565b6000813590506124c3816134d2565b92915050565b6000813590506124d8816134e2565b92915050565b6000815190506124ed816134e2565b92915050565b60006020828403121561250557600080fd5b60006125138482850161240c565b91505092915050565b60006020828403121561252e57600080fd5b600061253c84828501612421565b91505092915050565b60008060006060848603121561255a57600080fd5b60006125688682870161240c565b93505060206125798682870161240c565b925050604061258a868287016124b4565b9150509250925092565b600080604083850312156125a757600080fd5b60006125b58582860161240c565b92505060206125c6858286016124b4565b9150509250929050565b600080604083850312156125e357600080fd5b60006125f18582860161240c565b9250506020612602858286016124c9565b9150509250929050565b6000806040838503121561261f57600080fd5b600083013567ffffffffffffffff81111561263957600080fd5b61264585828601612436565b925050602083013567ffffffffffffffff81111561266257600080fd5b61266e85828601612460565b9150509250929050565b6000806040838503121561268b57600080fd5b600083013567ffffffffffffffff8111156126a557600080fd5b6126b185828601612436565b92505060206126c2858286016124b4565b9150509250929050565b6000602082840312156126de57600080fd5b60006126ec8482850161248a565b91505092915050565b60006020828403121561270757600080fd5b60006127158482850161249f565b91505092915050565b6000806040838503121561273157600080fd5b600061273f8582860161249f565b92505060206127508582860161240c565b9150509250929050565b6000806040838503121561276d57600080fd5b600061277b8582860161249f565b925050602061278c858286016124c9565b9150509250929050565b6000602082840312156127a857600080fd5b60006127b6848285016124b4565b91505092915050565b6000602082840312156127d157600080fd5b60006127df848285016124c9565b91505092915050565b6000602082840312156127fa57600080fd5b6000612808848285016124de565b91505092915050565b600061281d8383612850565b60208301905092915050565b60006128358383612f5b565b60208301905092915050565b61284a8161342f565b82525050565b612859816133ca565b82525050565b612868816133ca565b82525050565b600061287982613367565b6128838185613397565b935061288e83613347565b8060005b838110156128bf5781516128a68882612811565b97506128b18361337d565b925050600181019050612892565b5085935050505092915050565b60006128d782613372565b6128e181856133a8565b93506128ec83613357565b8060005b8381101561291d5781516129048882612829565b975061290f8361338a565b9250506001810190506128f0565b5085935050505092915050565b612933816133dc565b82525050565b612942816133e8565b82525050565b61295181613441565b82525050565b6000612964604d836133b9565b91507f436f686f7274466163746f72793a696e7669746556616c696461746f72202d2060008301527f546869732076616c696461746f7220686173206e6f74207374616b656420616e60208301527f7920746f6b656e73207965742e000000000000000000000000000000000000006040830152606082019050919050565b60006129f0603e836133b9565b91507f436f686f7274466163746f72793a616363657074496e7669746174696f6e202d60008301527f205468697320696e7669746174696f6e20646f65736e277420657869737400006020830152604082019050919050565b6000612a56604b836133b9565b91507f436f686f7274466163746f72793a616363657074496e7669746174696f6e2d2060008301527f5468697320696e7669746174696f6e20686173206265656e206163636570746560208301527f6420616c7265616479202e0000000000000000000000000000000000000000006040830152606082019050919050565b6000612ae26048836133b9565b91507f436f686f7274466163746f72793a696e7669746556616c696461746f72202d2060008301527f4f6e6c7920417070726f7665642056616c696461746f72732063616e2062652060208301527f696e76697465642e0000000000000000000000000000000000000000000000006040830152606082019050919050565b6000612b6e6034836133b9565b91507f436f686f7274466163746f72792d696e7669746556616c696461746f724d756c60008301527f7469706c653a204c69737420746f6f206c6f6e670000000000000000000000006020830152604082019050919050565b6000612bd46061836133b9565b91507f436f686f7274466163746f72793a696e7669746556616c696461746f72202d2060008301527f546869732076616c696461746f7220686173206265656e20616c72656164792060208301527f696e766974656420666f7220746869732076616c69646174696f6e207479706560408301527f2e000000000000000000000000000000000000000000000000000000000000006060830152608082019050919050565b6000612c866061836133b9565b91507f437265617465436f686f72743a75706461744d696e56616c696461746f72735060008301527f6572436f686f7274202d204e65772076616c756520666f722074686520206d6960208301527f6e2076616c696461746f722070657220636f686f72742063616e27742062652060408301527f30000000000000000000000000000000000000000000000000000000000000006060830152608082019050919050565b6000612d38607d836133b9565b91507f436f686f7274466163746f72793a616363657074496e7669746174696f6e202d60008301527f20596f752061726520616363657074696e6720696e7669746174696f6e20746f60208301527f20776869636820796f752077657265206e6f7420696e7669746564206f72207460408301527f68697320696e7669746174696f6e20646f65736e27742065786973742e0000006060830152608082019050919050565b6000612dea6029836133b9565b91507f4d656d626572733a6973536574746572202d2043616c6c6572206973206e6f7460008301527f20612073657474657200000000000000000000000000000000000000000000006020830152604082019050919050565b6000612e50604b836133b9565b91507f436f686f7274466163746f72793a696e7669746556616c696461746f72202d2060008301527f4f6e6c7920456e746572707269736520757365722063616e20696e766974652060208301527f56616c696461746f72732e0000000000000000000000000000000000000000006040830152606082019050919050565b6000612edc6053836133b9565b91507f436f686f7274466163746f72793a637265617465436f686f7274202d2041742060008301527f6c6561737420332076616c696461746f7273206172652072657169726564207460208301527f6f20637265617465206e657720636f686f7274000000000000000000000000006040830152606082019050919050565b612f6481613425565b82525050565b612f7381613425565b82525050565b6000602082019050612f8e600083018461285f565b92915050565b6000602082019050612fa96000830184612841565b92915050565b600060a082019050612fc4600083018861285f565b612fd1602083018761285f565b612fde6040830186612f6a565b612feb6060830185612f6a565b612ff86080830184612948565b9695505050505050565b6000604082019050613017600083018561285f565b6130246020830184612948565b9392505050565b60006040820190508181036000830152613045818561286e565b9050818103602083015261305981846128cc565b90509392505050565b6000602082019050613077600083018461292a565b92915050565b6000604082019050613092600083018561292a565b61309f602083018461292a565b9392505050565b60006020820190506130bb6000830184612939565b92915050565b60006020820190506130d66000830184612948565b92915050565b60006040820190506130f16000830185612948565b6130fe6020830184612f6a565b9392505050565b6000602082019050818103600083015261311e81612957565b9050919050565b6000602082019050818103600083015261313e816129e3565b9050919050565b6000602082019050818103600083015261315e81612a49565b9050919050565b6000602082019050818103600083015261317e81612ad5565b9050919050565b6000602082019050818103600083015261319e81612b61565b9050919050565b600060208201905081810360008301526131be81612bc7565b9050919050565b600060208201905081810360008301526131de81612c79565b9050919050565b600060208201905081810360008301526131fe81612d2b565b9050919050565b6000602082019050818103600083015261321e81612ddd565b9050919050565b6000602082019050818103600083015261323e81612e43565b9050919050565b6000602082019050818103600083015261325e81612ecf565b9050919050565b600060208201905061327a6000830184612f6a565b92915050565b60006060820190506132956000830186612f6a565b81810360208301526132a7818561286e565b90506132b66040830184612841565b949350505050565b6000604051905081810181811067ffffffffffffffff821117156132e5576132e4613477565b5b8060405250919050565b600067ffffffffffffffff82111561330a57613309613477565b5b602082029050602081019050919050565b600067ffffffffffffffff82111561333657613335613477565b5b602082029050602081019050919050565b6000819050602082019050919050565b6000819050602082019050919050565b600081519050919050565b600081519050919050565b6000602082019050919050565b6000602082019050919050565b600082825260208201905092915050565b600082825260208201905092915050565b600082825260208201905092915050565b60006133d582613405565b9050919050565b60008115159050919050565b6000819050919050565b600081905061340082613479565b919050565b600073ffffffffffffffffffffffffffffffffffffffff82169050919050565b6000819050919050565b600061343a82613453565b9050919050565b600061344c826133f2565b9050919050565b600061345e82613465565b9050919050565b600061347082613405565b9050919050565bfe5b6006811061348a57613489613477565b5b50565b613496816133ca565b81146134a157600080fd5b50565b6134ad816133dc565b81146134b857600080fd5b50565b6134c4816133e8565b81146134cf57600080fd5b50565b600681106134df57600080fd5b50565b6134eb81613425565b81146134f657600080fd5b5056fe456e756d657261626c655365743a20696e646578206f7574206f6620626f756e6473416363657373436f6e74726f6c3a2073656e646572206d75737420626520616e2061646d696e20746f206772616e74416363657373436f6e74726f6c3a2073656e646572206d75737420626520616e2061646d696e20746f207265766f6b65416363657373436f6e74726f6c3a2063616e206f6e6c792072656e6f756e636520726f6c657320666f722073656c66a2646970667358221220854f46e98683df1dd37a20fcc6a569970ca943ca11399723a2060121594107c464736f6c63430007060033",
  "immutableReferences": {},
  "source": "// SPDX-License-Identifier: MIT\npragma solidity =0.7.6;\npragma experimental ABIEncoderV2;\nimport \"@openzeppelin/contracts/access/AccessControl.sol\";\nimport \"./Members.sol\";\nimport \"./CreateCohort.sol\";\n\n/**\n * @title CohortFactory\n * Allows on creation of invitations by Enterprise and acceptance of Validators of those \n * invitations. Finally Enterprise can create cohort consisting of invited Validators\n * and Enterprise. \n */\n\ncontract CohortFactory is  AccessControl {\n\n    // Audit types to be used. Three types added for future expansion \n    enum AuditTypes {\n        Financial,\n        System,\n        Contract,\n        Type4,\n        Type5,\n        Type6\n    }\n\n    // Invitation structure to hold info about its status\n    struct Invitation {\n        address enterprise;\n        address validator;\n        uint256 invitationDate;      \n        uint256 acceptanceDate;\n        AuditTypes audits;\n    }\n\n    struct Cohorts {\n        address cohort;\n        AuditTypes audits;\n    }\n\n    mapping(address => Cohorts[]) public cohortList;\n\n    Members members;                                            // pointer to Members contract\n    mapping (address =>  Invitation[]) public invitations;      // invitations list\n    address platformAddress;                                    // address to deposit platform fees\n    address createCohortAddress;\n    uint256 public minValidatorPerCohort = 3;\n\n    bytes32 public constant SETTER_ROLE =  keccak256(\"SETTER_ROLE\");\n\n    event ValidatorInvited(address indexed inviting, address indexed invitee, AuditTypes audits, uint256 invitationNumber);\n    event InvitationAccepted(address indexed validator, uint256 invitationNumber);\n    event CohortCreated(address indexed enterprise, address indexed cohort, AuditTypes audits);\n    event UpdateMinValidatorsPerCohort(uint256 minValidatorPerCohort);\n\n    /// @dev check if caller is a setter     \n    modifier isSetter {\n        require(hasRole(SETTER_ROLE, msg.sender), \"Members:isSetter - Caller is not a setter\");\n\n        _;\n    }\n\n    constructor(Members _members,  address _createCohortAddress ) {\n        members = _members;\n        createCohortAddress = _createCohortAddress;\n        _setupRole(DEFAULT_ADMIN_ROLE, msg.sender); // \n    }\n   \n\n    /**\n    * @dev to be called by Governance contract to update new value for min validators per cohort\n    * @param _minValidatorPerCohort new value \n    */\n    function updatMinValidatorsPerCohort(uint256 _minValidatorPerCohort) public isSetter() {\n\n        require(_minValidatorPerCohort != 0, \"CreateCohort:updatMinValidatorsPerCohort - New value for the  min validator per cohort can't be 0\");\n        minValidatorPerCohort = _minValidatorPerCohort;\n        emit UpdateMinValidatorsPerCohort(_minValidatorPerCohort);\n    }\n\n    /**\n    * @dev Used by Enterprise to invite validator\n    * @param validator address of the validator to invite\n    * @param audit type of the audit\n    */\n    function inviteValidator(address validator, AuditTypes audit) public {\n\n        Invitation memory newInvitation;\n        bool approvedValidator = members.validatorMap(validator);\n        bool isEnterprise = members.enterpriseMap(msg.sender);\n        (bool invited, ) = isValidatorInvited(msg.sender, validator, audit);\n        require( !invited , \"CohortFactory:inviteValidator - This validator has been already invited for this validation type.\" );\n        require( isEnterprise, \"CohortFactory:inviteValidator - Only Enterprise user can invite Validators.\");\n        require( approvedValidator, \"CohortFactory:inviteValidator - Only Approved Validators can be invited.\");\n        require( members.deposits(validator) > 0,\"CohortFactory:inviteValidator - This validator has not staked any tokens yet.\");\n        newInvitation.validator = validator;\n        newInvitation.invitationDate = block.timestamp;     \n        newInvitation.audits = audit;   \n        invitations[msg.sender].push(newInvitation);\n        emit ValidatorInvited(msg.sender, validator, audit, invitations[msg.sender].length - 1);\n        }\n\n    /**\n    * @dev Used by Enterprise to invite multiple validators in one call \n    * @param validator address of the validator to invite\n    * @param audit type of the audit\n    */\n    function inviteValidatorMultiple(address[] memory validator, AuditTypes audit) public{\n\n        uint256 length = validator.length;\n        require(length <= 256, \"CohortFactory-inviteValidatorMultiple: List too long\");\n        for (uint256 i = 0; i < length; i++) {\n            inviteValidator(validator[i], audit);\n        }\n    }\n\n    /**\n    * @dev Used by Validator to accept Enterprise invitation\n    * @param enterprise address of the Enterprise who created invitation\n    * @param invitationNumber invitation number\n    */\n    function acceptInvitation(address enterprise, uint256 invitationNumber) public {\n\n        require( invitations[enterprise].length > invitationNumber, \"CohortFactory:acceptInvitation - This invitation doesn't exist\");\n        require( invitations[enterprise][invitationNumber].acceptanceDate == 0, \"CohortFactory:acceptInvitation- This invitation has been accepted already .\");\n        require( invitations[enterprise][invitationNumber].validator == msg.sender, \"CohortFactory:acceptInvitation - You are accepting invitation to which you were not invited or this invitation doesn't exist.\");\n        invitations[enterprise][invitationNumber].acceptanceDate = block.timestamp;\n        emit InvitationAccepted(msg.sender, invitationNumber);\n    }\n\n     /**\n    * @dev Used by Validator to accept multiple Enterprise invitation\n    * @param enterprise address of the Enterprise who created invitation\n    * @param invitationNumber invitation number\n    */\n    function acceptInvitationMultiple(address[] memory enterprise, uint256[] memory invitationNumber) public{\n\n        uint256 length = enterprise.length;\n        for (uint256 i = 0; i < length; i++) {\n            acceptInvitation(enterprise[i], invitationNumber[i]);\n        }\n    }\n\n     /**\n    * @dev Used to determine size of validator list to be included in Cohort\n    * @param enterprise address of the Enterprise who created invitation\n    * @param audit type\n    * @return count of invitations\n    */\n    function returnInvitationCount(address enterprise, AuditTypes audit) public view returns(uint256) {\n\n        uint256 count;\n\n        for (uint i=0; i < invitations[enterprise].length; ++i ){\n            if (invitations[enterprise][i].audits == audit && invitations[enterprise][i].acceptanceDate != 0)\n                count ++;\n        }\n        return count;\n    }\n\n    /**\n    * @dev Used to determine if validator has been invited and/or if validation has been accepted\n    * @param enterprise inviting party\n    * @param validator address of the validator\n    * @param audits types\n    * @return true if invited\n    * @return true if accepted invitation\n    */\n    function isValidatorInvited(address enterprise, address validator, AuditTypes audits) public view returns (bool, bool) {\n\n        for (uint i=0; i < invitations[enterprise].length; ++i ){\n            if (invitations[enterprise][i].audits == audits && invitations[enterprise][i].validator == validator ){\n                if (invitations[enterprise][i].acceptanceDate > 0)\n                    return (true, true);\n                return (true, false);\n            }\n        }\n        return (false, false);\n    }\n\n     /**\n    * @dev Used to return of list of cohorts for enterprise\n    * @param enterprise inviting party\n    * @return cohort address \n    * @return audit type\n    */\n    function returnCohorts(address enterprise) public view returns (address[] memory, uint256[] memory){\n\n        address[] memory cohort = new address[](cohortList[enterprise].length);\n        uint256[] memory audits = new uint256[](cohortList[enterprise].length);\n\n\n        for (uint256 i; i < cohortList[enterprise].length; i++){\n\n            cohort[i] = cohortList[enterprise][i].cohort;\n            audits[i] = uint256(cohortList[enterprise][i].audits);\n\n        }\n        return (cohort, audits);\n    }\n\n     /**\n     * @dev Function to calculate outstanding validations for enterprise. \n     */   \n    function returnOutstandingValidations() public view returns(uint256) {\n\n         (address[] memory cohorts, ) = returnCohorts(msg.sender);\n         uint totalOutstandingValidations;\n\n         for (uint256 i; i< cohorts.length; i++)\n             totalOutstandingValidations = totalOutstandingValidations + CohortInterface(cohorts[i]).outstandingValidations();\n\n        return totalOutstandingValidations;\n    }\n\n    /**\n    * @dev Initiate creation a new cohort using create2 methods based on the audit type and enterprise combination\n    * @param audit type\n    */\n    function createCohort(AuditTypes audit) public {\n        address[] memory validatorsList = new address[](returnInvitationCount(msg.sender, audit));\n        uint k;\n        for (uint i=0; i < invitations[msg.sender].length; ++i ){\n            if (invitations[msg.sender][i].audits == audit && invitations[msg.sender][i].acceptanceDate > 0){\n                validatorsList[k] = invitations[msg.sender][i].validator;\n                k++;\n            }\n        }\n        require(k >= minValidatorPerCohort, \"CohortFactory:createCohort - At least 3 validators are reqired to create new cohort\");\n\n        address cohortAddress = CreateCohort(createCohortAddress).createCohort(uint256(audit),  validatorsList, msg.sender );\n        cohortList[msg.sender].push();\n        cohortList[msg.sender][cohortList[msg.sender].length - 1].cohort = cohortAddress;\n        cohortList[msg.sender][cohortList[msg.sender].length - 1].audits = audit;\n\n        emit CohortCreated(msg.sender, cohortAddress, AuditTypes(audit));\n        \n    }\n}",
  "sourcePath": "/home/bogdan/Ethereum/Projects/TGE/Core-Smart-Contracts-v1/contracts/Auditchain/CohortFactory.sol",
  "compiler": {
    "name": "solc",
    "version": "0.7.6+commit.7338295f.Emscripten.clang"
  },
  "schemaVersion": "3.3.4",
  "updatedAt": "2021-03-16T22:19:11.536Z",
  "networkType": "ethereum",
  "devdoc": {
    "kind": "dev",
    "methods": {
      "acceptInvitation(address,uint256)": {
        "details": "Used by Validator to accept Enterprise invitation",
        "params": {
          "enterprise": "address of the Enterprise who created invitation",
          "invitationNumber": "invitation number"
        }
      },
      "acceptInvitationMultiple(address[],uint256[])": {
        "details": "Used by Validator to accept multiple Enterprise invitation",
        "params": {
          "enterprise": "address of the Enterprise who created invitation",
          "invitationNumber": "invitation number"
        }
      },
      "createCohort(uint8)": {
        "details": "Initiate creation a new cohort using create2 methods based on the audit type and enterprise combination",
        "params": {
          "audit": "type"
        }
      },
      "getRoleAdmin(bytes32)": {
        "details": "Returns the admin role that controls `role`. See {grantRole} and {revokeRole}. To change a role's admin, use {_setRoleAdmin}."
      },
      "getRoleMember(bytes32,uint256)": {
        "details": "Returns one of the accounts that have `role`. `index` must be a value between 0 and {getRoleMemberCount}, non-inclusive. Role bearers are not sorted in any particular way, and their ordering may change at any point. WARNING: When using {getRoleMember} and {getRoleMemberCount}, make sure you perform all queries on the same block. See the following https://forum.openzeppelin.com/t/iterating-over-elements-on-enumerableset-in-openzeppelin-contracts/2296[forum post] for more information."
      },
      "getRoleMemberCount(bytes32)": {
        "details": "Returns the number of accounts that have `role`. Can be used together with {getRoleMember} to enumerate all bearers of a role."
      },
      "grantRole(bytes32,address)": {
        "details": "Grants `role` to `account`. If `account` had not been already granted `role`, emits a {RoleGranted} event. Requirements: - the caller must have ``role``'s admin role."
      },
      "hasRole(bytes32,address)": {
        "details": "Returns `true` if `account` has been granted `role`."
      },
      "inviteValidator(address,uint8)": {
        "details": "Used by Enterprise to invite validator",
        "params": {
          "audit": "type of the audit",
          "validator": "address of the validator to invite"
        }
      },
      "inviteValidatorMultiple(address[],uint8)": {
        "details": "Used by Enterprise to invite multiple validators in one call ",
        "params": {
          "audit": "type of the audit",
          "validator": "address of the validator to invite"
        }
      },
      "isValidatorInvited(address,address,uint8)": {
        "details": "Used to determine if validator has been invited and/or if validation has been accepted",
        "params": {
          "audits": "types",
          "enterprise": "inviting party",
          "validator": "address of the validator"
        },
        "returns": {
          "_0": "true if invited",
          "_1": "true if accepted invitation"
        }
      },
      "renounceRole(bytes32,address)": {
        "details": "Revokes `role` from the calling account. Roles are often managed via {grantRole} and {revokeRole}: this function's purpose is to provide a mechanism for accounts to lose their privileges if they are compromised (such as when a trusted device is misplaced). If the calling account had been granted `role`, emits a {RoleRevoked} event. Requirements: - the caller must be `account`."
      },
      "returnCohorts(address)": {
        "details": "Used to return of list of cohorts for enterprise",
        "params": {
          "enterprise": "inviting party"
        },
        "returns": {
          "_0": "cohort address ",
          "_1": "audit type"
        }
      },
      "returnInvitationCount(address,uint8)": {
        "details": "Used to determine size of validator list to be included in Cohort",
        "params": {
          "audit": "type",
          "enterprise": "address of the Enterprise who created invitation"
        },
        "returns": {
          "_0": "count of invitations"
        }
      },
      "returnOutstandingValidations()": {
        "details": "Function to calculate outstanding validations for enterprise. "
      },
      "revokeRole(bytes32,address)": {
        "details": "Revokes `role` from `account`. If `account` had been granted `role`, emits a {RoleRevoked} event. Requirements: - the caller must have ``role``'s admin role."
      },
      "updatMinValidatorsPerCohort(uint256)": {
        "details": "to be called by Governance contract to update new value for min validators per cohort",
        "params": {
          "_minValidatorPerCohort": "new value "
        }
      }
    },
    "title": "CohortFactory Allows on creation of invitations by Enterprise and acceptance of Validators of those  invitations. Finally Enterprise can create cohort consisting of invited Validators and Enterprise. ",
    "version": 1
  },
  "userdoc": {
    "kind": "user",
    "methods": {},
    "version": 1
  }
}