{
  "contractName": "Cohort",
  "abi": [
    {
      "anonymous": false,
      "inputs": [
        {
          "indexed": false,
          "internalType": "uint256",
          "name": "count",
          "type": "uint256"
        }
      ],
      "name": "LogOutstandingValidationRest",
      "type": "event"
    },
    {
      "anonymous": false,
      "inputs": [
        {
          "indexed": true,
          "internalType": "bytes32",
          "name": "role",
          "type": "bytes32"
        },
        {
          "indexed": true,
          "internalType": "bytes32",
          "name": "previousAdminRole",
          "type": "bytes32"
        },
        {
          "indexed": true,
          "internalType": "bytes32",
          "name": "newAdminRole",
          "type": "bytes32"
        }
      ],
      "name": "RoleAdminChanged",
      "type": "event"
    },
    {
      "anonymous": false,
      "inputs": [
        {
          "indexed": true,
          "internalType": "bytes32",
          "name": "role",
          "type": "bytes32"
        },
        {
          "indexed": true,
          "internalType": "address",
          "name": "account",
          "type": "address"
        },
        {
          "indexed": true,
          "internalType": "address",
          "name": "sender",
          "type": "address"
        }
      ],
      "name": "RoleGranted",
      "type": "event"
    },
    {
      "anonymous": false,
      "inputs": [
        {
          "indexed": true,
          "internalType": "bytes32",
          "name": "role",
          "type": "bytes32"
        },
        {
          "indexed": true,
          "internalType": "address",
          "name": "account",
          "type": "address"
        },
        {
          "indexed": true,
          "internalType": "address",
          "name": "sender",
          "type": "address"
        }
      ],
      "name": "RoleRevoked",
      "type": "event"
    },
    {
      "anonymous": false,
      "inputs": [
        {
          "indexed": true,
          "internalType": "bytes32",
          "name": "validationHash",
          "type": "bytes32"
        },
        {
          "indexed": true,
          "internalType": "uint256",
          "name": "timeExecuted",
          "type": "uint256"
        },
        {
          "indexed": false,
          "internalType": "address",
          "name": "cohort",
          "type": "address"
        }
      ],
      "name": "ValidationExecuted",
      "type": "event"
    },
    {
      "anonymous": false,
      "inputs": [
        {
          "indexed": false,
          "internalType": "bytes32",
          "name": "validationHash",
          "type": "bytes32"
        },
        {
          "indexed": true,
          "internalType": "uint256",
          "name": "initTime",
          "type": "uint256"
        },
        {
          "indexed": true,
          "internalType": "address",
          "name": "enterprise",
          "type": "address"
        },
        {
          "indexed": false,
          "internalType": "address",
          "name": "cohort",
          "type": "address"
        }
      ],
      "name": "ValidationInitialized",
      "type": "event"
    },
    {
      "anonymous": false,
      "inputs": [
        {
          "indexed": false,
          "internalType": "address",
          "name": "validator",
          "type": "address"
        }
      ],
      "name": "ValidatorRemoved",
      "type": "event"
    },
    {
      "anonymous": false,
      "inputs": [
        {
          "indexed": false,
          "internalType": "address",
          "name": "validator",
          "type": "address"
        },
        {
          "indexed": false,
          "internalType": "bytes32",
          "name": "documentHash",
          "type": "bytes32"
        },
        {
          "indexed": false,
          "internalType": "uint256",
          "name": "validationTime",
          "type": "uint256"
        },
        {
          "indexed": false,
          "internalType": "enum Cohort.ValidationStatus",
          "name": "decision",
          "type": "uint8"
        }
      ],
      "name": "ValidatorValidated",
      "type": "event"
    },
    {
      "inputs": [],
      "name": "CONTROLLER_ROLE",
      "outputs": [
        {
          "internalType": "bytes32",
          "name": "",
          "type": "bytes32"
        }
      ],
      "stateMutability": "view",
      "type": "function"
    },
    {
      "inputs": [],
      "name": "DEFAULT_ADMIN_ROLE",
      "outputs": [
        {
          "internalType": "bytes32",
          "name": "",
          "type": "bytes32"
        }
      ],
      "stateMutability": "view",
      "type": "function"
    },
    {
      "inputs": [],
      "name": "SETTER_ROLE",
      "outputs": [
        {
          "internalType": "bytes32",
          "name": "",
          "type": "bytes32"
        }
      ],
      "stateMutability": "view",
      "type": "function"
    },
    {
      "inputs": [],
      "name": "auditToken",
      "outputs": [
        {
          "internalType": "contract AuditToken",
          "name": "",
          "type": "address"
        }
      ],
      "stateMutability": "view",
      "type": "function"
    },
    {
      "inputs": [],
      "name": "audits",
      "outputs": [
        {
          "internalType": "enum Cohort.AuditTypes",
          "name": "",
          "type": "uint8"
        }
      ],
      "stateMutability": "view",
      "type": "function"
    },
    {
      "inputs": [
        {
          "internalType": "address",
          "name": "",
          "type": "address"
        }
      ],
      "name": "deposits",
      "outputs": [
        {
          "internalType": "uint256",
          "name": "",
          "type": "uint256"
        }
      ],
      "stateMutability": "view",
      "type": "function"
    },
    {
      "inputs": [],
      "name": "enterprise",
      "outputs": [
        {
          "internalType": "address",
          "name": "",
          "type": "address"
        }
      ],
      "stateMutability": "view",
      "type": "function"
    },
    {
      "inputs": [
        {
          "internalType": "bytes32",
          "name": "role",
          "type": "bytes32"
        }
      ],
      "name": "getRoleAdmin",
      "outputs": [
        {
          "internalType": "bytes32",
          "name": "",
          "type": "bytes32"
        }
      ],
      "stateMutability": "view",
      "type": "function"
    },
    {
      "inputs": [
        {
          "internalType": "bytes32",
          "name": "role",
          "type": "bytes32"
        },
        {
          "internalType": "uint256",
          "name": "index",
          "type": "uint256"
        }
      ],
      "name": "getRoleMember",
      "outputs": [
        {
          "internalType": "address",
          "name": "",
          "type": "address"
        }
      ],
      "stateMutability": "view",
      "type": "function"
    },
    {
      "inputs": [
        {
          "internalType": "bytes32",
          "name": "role",
          "type": "bytes32"
        }
      ],
      "name": "getRoleMemberCount",
      "outputs": [
        {
          "internalType": "uint256",
          "name": "",
          "type": "uint256"
        }
      ],
      "stateMutability": "view",
      "type": "function"
    },
    {
      "inputs": [
        {
          "internalType": "bytes32",
          "name": "role",
          "type": "bytes32"
        },
        {
          "internalType": "address",
          "name": "account",
          "type": "address"
        }
      ],
      "name": "grantRole",
      "outputs": [],
      "stateMutability": "nonpayable",
      "type": "function"
    },
    {
      "inputs": [
        {
          "internalType": "bytes32",
          "name": "role",
          "type": "bytes32"
        },
        {
          "internalType": "address",
          "name": "account",
          "type": "address"
        }
      ],
      "name": "hasRole",
      "outputs": [
        {
          "internalType": "bool",
          "name": "",
          "type": "bool"
        }
      ],
      "stateMutability": "view",
      "type": "function"
    },
    {
      "inputs": [],
      "name": "members",
      "outputs": [
        {
          "internalType": "contract Members",
          "name": "",
          "type": "address"
        }
      ],
      "stateMutability": "view",
      "type": "function"
    },
    {
      "inputs": [],
      "name": "outstandingValidations",
      "outputs": [
        {
          "internalType": "uint256",
          "name": "",
          "type": "uint256"
        }
      ],
      "stateMutability": "view",
      "type": "function"
    },
    {
      "inputs": [],
      "name": "platformShare",
      "outputs": [
        {
          "internalType": "uint256",
          "name": "",
          "type": "uint256"
        }
      ],
      "stateMutability": "view",
      "type": "function"
    },
    {
      "inputs": [
        {
          "internalType": "bytes32",
          "name": "role",
          "type": "bytes32"
        },
        {
          "internalType": "address",
          "name": "account",
          "type": "address"
        }
      ],
      "name": "renounceRole",
      "outputs": [],
      "stateMutability": "nonpayable",
      "type": "function"
    },
    {
      "inputs": [],
      "name": "requiredQuorum",
      "outputs": [
        {
          "internalType": "uint256",
          "name": "",
          "type": "uint256"
        }
      ],
      "stateMutability": "view",
      "type": "function"
    },
    {
      "inputs": [
        {
          "internalType": "bytes32",
          "name": "role",
          "type": "bytes32"
        },
        {
          "internalType": "address",
          "name": "account",
          "type": "address"
        }
      ],
      "name": "revokeRole",
      "outputs": [],
      "stateMutability": "nonpayable",
      "type": "function"
    },
    {
      "inputs": [
        {
          "internalType": "bytes32",
          "name": "",
          "type": "bytes32"
        }
      ],
      "name": "validations",
      "outputs": [
        {
          "internalType": "uint256",
          "name": "validationTime",
          "type": "uint256"
        },
        {
          "internalType": "uint256",
          "name": "executionTime",
          "type": "uint256"
        }
      ],
      "stateMutability": "view",
      "type": "function"
    },
    {
      "inputs": [
        {
          "internalType": "uint256",
          "name": "",
          "type": "uint256"
        }
      ],
      "name": "validators",
      "outputs": [
        {
          "internalType": "address",
          "name": "",
          "type": "address"
        }
      ],
      "stateMutability": "view",
      "type": "function"
    },
    {
      "inputs": [
        {
          "internalType": "address",
          "name": "_auditTokenAddress",
          "type": "address"
        },
        {
          "internalType": "contract Members",
          "name": "_members",
          "type": "address"
        },
        {
          "internalType": "address",
          "name": "_enterprise",
          "type": "address"
        },
        {
          "internalType": "address[]",
          "name": "_validators",
          "type": "address[]"
        },
        {
          "internalType": "uint256",
          "name": "_audits",
          "type": "uint256"
        },
        {
          "internalType": "address",
          "name": "_cohortFactory",
          "type": "address"
        }
      ],
      "name": "initialize",
      "outputs": [],
      "stateMutability": "nonpayable",
      "type": "function"
    },
    {
      "inputs": [],
      "name": "returnValidators",
      "outputs": [
        {
          "internalType": "address[]",
          "name": "",
          "type": "address[]"
        }
      ],
      "stateMutability": "view",
      "type": "function"
    },
    {
      "inputs": [
        {
          "internalType": "uint256",
          "name": "_requiredQuorum",
          "type": "uint256"
        }
      ],
      "name": "updateQuorum",
      "outputs": [],
      "stateMutability": "nonpayable",
      "type": "function"
    },
    {
      "inputs": [],
      "name": "resetOutstandingValidations",
      "outputs": [],
      "stateMutability": "nonpayable",
      "type": "function"
    },
    {
      "inputs": [
        {
          "internalType": "address",
          "name": "validator",
          "type": "address"
        }
      ],
      "name": "addAdditionalValidator",
      "outputs": [
        {
          "internalType": "bool",
          "name": "",
          "type": "bool"
        }
      ],
      "stateMutability": "nonpayable",
      "type": "function"
    },
    {
      "inputs": [
        {
          "internalType": "address",
          "name": "validator",
          "type": "address"
        }
      ],
      "name": "removeValidator",
      "outputs": [
        {
          "internalType": "bool",
          "name": "",
          "type": "bool"
        }
      ],
      "stateMutability": "nonpayable",
      "type": "function"
    },
    {
      "inputs": [
        {
          "internalType": "bytes32",
          "name": "documentHash",
          "type": "bytes32"
        }
      ],
      "name": "initializeValidation",
      "outputs": [],
      "stateMutability": "nonpayable",
      "type": "function"
    },
    {
      "inputs": [
        {
          "internalType": "bytes32",
          "name": "validationHash",
          "type": "bytes32"
        }
      ],
      "name": "collectValidationResults",
      "outputs": [
        {
          "internalType": "address[]",
          "name": "",
          "type": "address[]"
        },
        {
          "internalType": "uint256[]",
          "name": "",
          "type": "uint256[]"
        },
        {
          "internalType": "enum Cohort.ValidationStatus[]",
          "name": "",
          "type": "uint8[]"
        }
      ],
      "stateMutability": "view",
      "type": "function"
    },
    {
      "inputs": [
        {
          "internalType": "bytes32",
          "name": "validationHash",
          "type": "bytes32"
        }
      ],
      "name": "isValidated",
      "outputs": [
        {
          "internalType": "enum Cohort.ValidationStatus",
          "name": "",
          "type": "uint8"
        }
      ],
      "stateMutability": "view",
      "type": "function"
    },
    {
      "inputs": [
        {
          "internalType": "bytes32",
          "name": "validationHash",
          "type": "bytes32"
        }
      ],
      "name": "calculateVoteQuorum",
      "outputs": [
        {
          "internalType": "uint256",
          "name": "",
          "type": "uint256"
        }
      ],
      "stateMutability": "view",
      "type": "function"
    },
    {
      "inputs": [
        {
          "internalType": "bytes32",
          "name": "documentHash",
          "type": "bytes32"
        },
        {
          "internalType": "uint256",
          "name": "validationTime",
          "type": "uint256"
        },
        {
          "internalType": "enum Cohort.ValidationStatus",
          "name": "decision",
          "type": "uint8"
        }
      ],
      "name": "validate",
      "outputs": [],
      "stateMutability": "nonpayable",
      "type": "function"
    }
  ],
  "bytecode": "0x6080604052600f600355604b60045534801561001a57600080fd5b50612f668061002a6000396000f3fe608060405234801561001057600080fd5b50600436106101e55760003560e01c80639478a8c01161010f578063bbe91d10116100a2578063d547741f11610071578063d547741f146109e4578063e28c380214610a32578063ebb33a8114610a7b578063fc7e286d14610ada576101e5565b8063bbe91d10146108dc578063bdd4d18d14610921578063bf1db71e14610955578063ca15c873146109a2576101e5565b806399ae444a116100de57806399ae444a14610764578063a2011b3f1461078d578063a217fddf146107ab578063b39fd6cf146107c9576101e5565b80639478a8c01461059c57806395d9110e146105d057806398c3c1161461071257806398d15e1314610746576101e5565b806340a141ff116101875780638c410fc8116101565780638c410fc81461044e5780639010d07c146104a85780639047d7451461050a57806391d1485414610538576101e5565b806340a141ff146103765780637036014e146103d0578063860008f0146103ee57806388e438fe1461040c576101e5565b80632faa6619116101c35780632faa66191461029857806335680dc2146102a257806335aa2e44146102d057806336568abe14610328576101e5565b8063092c5b3b146101ea578063248a9ca3146102085780632f2ff15d1461024a575b600080fd5b6101f2610b32565b6040518082815260200191505060405180910390f35b6102346004803603602081101561021e57600080fd5b8101908080359060200190929190505050610b56565b6040518082815260200191505060405180910390f35b6102966004803603604081101561026057600080fd5b8101908080359060200190929190803573ffffffffffffffffffffffffffffffffffffffff169060200190929190505050610b75565b005b6102a0610bfe565b005b6102ce600480360360208110156102b857600080fd5b8101908080359060200190929190505050610cc0565b005b6102fc600480360360208110156102e657600080fd5b8101908080359060200190929190505050610dc0565b604051808273ffffffffffffffffffffffffffffffffffffffff16815260200191505060405180910390f35b6103746004803603604081101561033e57600080fd5b8101908080359060200190929190803573ffffffffffffffffffffffffffffffffffffffff169060200190929190505050610dff565b005b6103b86004803603602081101561038c57600080fd5b81019080803573ffffffffffffffffffffffffffffffffffffffff169060200190929190505050610e98565b60405180821515815260200191505060405180910390f35b6103d86110ff565b6040518082815260200191505060405180910390f35b6103f6611105565b6040518082815260200191505060405180910390f35b6104386004803603602081101561042257600080fd5b810190808035906020019092919050505061110b565b6040518082815260200191505060405180910390f35b6104906004803603602081101561046457600080fd5b81019080803573ffffffffffffffffffffffffffffffffffffffff16906020019092919050505061145a565b60405180821515815260200191505060405180910390f35b6104de600480360360408110156104be57600080fd5b8101908080359060200190929190803590602001909291905050506114c8565b604051808273ffffffffffffffffffffffffffffffffffffffff16815260200191505060405180910390f35b6105366004803603602081101561052057600080fd5b81019080803590602001909291905050506114f9565b005b6105846004803603604081101561054e57600080fd5b8101908080359060200190929190803573ffffffffffffffffffffffffffffffffffffffff169060200190929190505050611972565b60405180821515815260200191505060405180910390f35b6105a46119a3565b604051808273ffffffffffffffffffffffffffffffffffffffff16815260200191505060405180910390f35b610710600480360360c08110156105e657600080fd5b81019080803573ffffffffffffffffffffffffffffffffffffffff169060200190929190803573ffffffffffffffffffffffffffffffffffffffff169060200190929190803573ffffffffffffffffffffffffffffffffffffffff1690602001909291908035906020019064010000000081111561066357600080fd5b82018360208201111561067557600080fd5b8035906020019184602083028401116401000000008311171561069757600080fd5b919080806020026020016040519081016040528093929190818152602001838360200280828437600081840152601f19601f82011690508083019250505050505050919291929080359060200190929190803573ffffffffffffffffffffffffffffffffffffffff1690602001909291905050506119c9565b005b61071a611c67565b604051808273ffffffffffffffffffffffffffffffffffffffff16815260200191505060405180910390f35b61074e611c8d565b6040518082815260200191505060405180910390f35b61076c611c93565b6040518082600581111561077c57fe5b815260200191505060405180910390f35b610795611ca6565b6040518082815260200191505060405180910390f35b6107b3611cca565b6040518082815260200191505060405180910390f35b6107f5600480360360208110156107df57600080fd5b8101908080359060200190929190505050611cd1565b60405180806020018060200180602001848103845287818151815260200191508051906020019060200280838360005b83811015610840578082015181840152602081019050610825565b50505050905001848103835286818151815260200191508051906020019060200280838360005b83811015610882578082015181840152602081019050610867565b50505050905001848103825285818151815260200191508051906020019060200280838360005b838110156108c45780820151818401526020810190506108a9565b50505050905001965050505050505060405180910390f35b61091f600480360360608110156108f257600080fd5b810190808035906020019092919080359060200190929190803560ff169060200190929190505050612013565b005b61092961237f565b604051808273ffffffffffffffffffffffffffffffffffffffff16815260200191505060405180910390f35b6109816004803603602081101561096b57600080fd5b81019080803590602001909291905050506123a5565b6040518082600281111561099157fe5b815260200191505060405180910390f35b6109ce600480360360208110156109b857600080fd5b810190808035906020019092919050505061240f565b6040518082815260200191505060405180910390f35b610a30600480360360408110156109fa57600080fd5b8101908080359060200190929190803573ffffffffffffffffffffffffffffffffffffffff169060200190929190505050612435565b005b610a5e60048036036020811015610a4857600080fd5b81019080803590602001909291905050506124be565b604051808381526020018281526020019250505060405180910390f35b610a836124e2565b6040518080602001828103825283818151815260200191508051906020019060200280838360005b83811015610ac6578082015181840152602081019050610aab565b505050509050019250505060405180910390f35b610b1c60048036036020811015610af057600080fd5b81019080803573ffffffffffffffffffffffffffffffffffffffff169060200190929190505050612570565b6040518082815260200191505060405180910390f35b7f7b765e0e932d348852a6f810bfa1ab891e259123f02db8cdcde614c57022335781565b6000806000838152602001908152602001600020600201549050919050565b610b9b60008084815260200190815260200160002060020154610b96612588565b611972565b610bf0576040517f08c379a000000000000000000000000000000000000000000000000000000000815260040180806020018281038252602f815260200180612bf0602f913960400191505060405180910390fd5b610bfa8282612590565b5050565b610c287f7b765e0e932d348852a6f810bfa1ab891e259123f02db8cdcde614c57022335733611972565b610c7d576040517f08c379a0000000000000000000000000000000000000000000000000000000008152600401808060200182810382526030815260200180612c4d6030913960400191505060405180910390fd5b60006007819055507f2abea2711b2c7793f56d98c06108c81584562801d64d5625926743145680018d6007546040518082815260200191505060405180910390a1565b610cea7f61c92169ef077349011ff0b1383c894d86c5f0b41d986366b58a6cf31e93beda33611972565b610d3f576040517f08c379a0000000000000000000000000000000000000000000000000000000008152600401808060200182810382526029815260200180612dd96029913960400191505060405180910390fd5b6000811415610db6576040517f08c379a000000000000000000000000000000000000000000000000000000000815260040180806020018281038252601b8152602001807f4e65772071756f72756d2076616c75652063616e27742062652030000000000081525060200191505060405180910390fd5b8060048190555050565b60028181548110610dd057600080fd5b906000526020600020016000915054906101000a900473ffffffffffffffffffffffffffffffffffffffff1681565b610e07612588565b73ffffffffffffffffffffffffffffffffffffffff168173ffffffffffffffffffffffffffffffffffffffff1614610e8a576040517f08c379a000000000000000000000000000000000000000000000000000000000815260040180806020018281038252602f815260200180612ebd602f913960400191505060405180910390fd5b610e948282612623565b5050565b6000600860019054906101000a900473ffffffffffffffffffffffffffffffffffffffff1673ffffffffffffffffffffffffffffffffffffffff163373ffffffffffffffffffffffffffffffffffffffff1614610f40576040517f08c379a0000000000000000000000000000000000000000000000000000000008152600401808060200182810382526045815260200180612eec6045913960600191505060405180910390fd5b60005b6002805490508110156110f4578273ffffffffffffffffffffffffffffffffffffffff1660028281548110610f7457fe5b9060005260206000200160009054906101000a900473ffffffffffffffffffffffffffffffffffffffff1673ffffffffffffffffffffffffffffffffffffffff1614156110e757600260016002805490500381548110610fd057fe5b9060005260206000200160009054906101000a900473ffffffffffffffffffffffffffffffffffffffff166002828154811061100857fe5b9060005260206000200160006101000a81548173ffffffffffffffffffffffffffffffffffffffff021916908373ffffffffffffffffffffffffffffffffffffffff160217905550600280548061105b57fe5b6001900381819060005260206000200160006101000a81549073ffffffffffffffffffffffffffffffffffffffff021916905590557fe1434e25d6611e0db941968fdc97811c982ac1602e951637d206f5fdda9dd8f183604051808273ffffffffffffffffffffffffffffffffffffffff16815260200191505060405180910390a160019150506110fa565b8080600101915050610f43565b50600090505b919050565b60045481565b60075481565b6000806000806009600086815260200190815260200160002090506000816000015411611183576040517f08c379a000000000000000000000000000000000000000000000000000000000815260040180806020018281038252603a815260200180612e83603a913960400191505060405180910390fd5b60005b60028054905081101561144257600660009054906101000a900473ffffffffffffffffffffffffffffffffffffffff1673ffffffffffffffffffffffffffffffffffffffff1663fc7e286d600283815481106111de57fe5b9060005260206000200160009054906101000a900473ffffffffffffffffffffffffffffffffffffffff166040518263ffffffff1660e01b8152600401808273ffffffffffffffffffffffffffffffffffffffff16815260200191505060206040518083038186803b15801561125357600080fd5b505afa158015611267573d6000803e3d6000fd5b505050506040513d602081101561127d57600080fd5b8101908080519060200190929190505050840193506000600281111561129f57fe5b826002016000600284815481106112b257fe5b9060005260206000200160009054906101000a900473ffffffffffffffffffffffffffffffffffffffff1673ffffffffffffffffffffffffffffffffffffffff1673ffffffffffffffffffffffffffffffffffffffff16815260200190815260200160002060009054906101000a900460ff16600281111561133057fe5b1461143557600660009054906101000a900473ffffffffffffffffffffffffffffffffffffffff1673ffffffffffffffffffffffffffffffffffffffff1663fc7e286d6002838154811061138057fe5b9060005260206000200160009054906101000a900473ffffffffffffffffffffffffffffffffffffffff166040518263ffffffff1660e01b8152600401808273ffffffffffffffffffffffffffffffffffffffff16815260200191505060206040518083038186803b1580156113f557600080fd5b505afa158015611409573d6000803e3d6000fd5b505050506040513d602081101561141f57600080fd5b8101908080519060200190929190505050830192505b8080600101915050611186565b5082606483028161144f57fe5b049350505050919050565b60006002829080600181540180825580915050600190039060005260206000200160009091909190916101000a81548173ffffffffffffffffffffffffffffffffffffffff021916908373ffffffffffffffffffffffffffffffffffffffff16021790555060019050919050565b60006114f1826000808681526020019081526020016000206000016126b690919063ffffffff16565b905092915050565b61167861271061166a600660009054906101000a900473ffffffffffffffffffffffffffffffffffffffff1673ffffffffffffffffffffffffffffffffffffffff1663a7579be86040518163ffffffff1660e01b815260040160206040518083038186803b15801561156a57600080fd5b505afa15801561157e573d6000803e3d6000fd5b505050506040513d602081101561159457600080fd5b810190808051906020019092919050505061165c600754600660009054906101000a900473ffffffffffffffffffffffffffffffffffffffff1673ffffffffffffffffffffffffffffffffffffffff16634d9c798c6040518163ffffffff1660e01b815260040160206040518083038186803b15801561161357600080fd5b505afa158015611627573d6000803e3d6000fd5b505050506040513d602081101561163d57600080fd5b81019080805190602001909291905050506126d090919063ffffffff16565b6126d090919063ffffffff16565b61275690919063ffffffff16565b600660009054906101000a900473ffffffffffffffffffffffffffffffffffffffff1673ffffffffffffffffffffffffffffffffffffffff1663fc7e286d336040518263ffffffff1660e01b8152600401808273ffffffffffffffffffffffffffffffffffffffff16815260200191505060206040518083038186803b15801561170157600080fd5b505afa158015611715573d6000803e3d6000fd5b505050506040513d602081101561172b57600080fd5b810190808051906020019092919050505011611792576040517f08c379a000000000000000000000000000000000000000000000000000000000815260040180806020018281038252604d815260200180612e02604d913960600191505060405180910390fd5b6000602060ff16116117ef576040517f08c379a000000000000000000000000000000000000000000000000000000000815260040180806020018281038252603c815260200180612cd3603c913960400191505060405180910390fd5b3373ffffffffffffffffffffffffffffffffffffffff16600160009054906101000a900473ffffffffffffffffffffffffffffffffffffffff1673ffffffffffffffffffffffffffffffffffffffff1614611895576040517f08c379a0000000000000000000000000000000000000000000000000000000008152600401808060200182810382526056815260200180612c7d6056913960600191505060405180910390fd5b600042905060008282604051602001808381526020018281526020019250505060405160208183030381529060405280519060200120905060076000815480929190600101919050555060006009600083815260200190815260200160002090504281600001819055503373ffffffffffffffffffffffffffffffffffffffff16837fc6a04694924682b1690a60b473e0ce42fa35b612140f57e8819e8d0a6b01602f8430604051808381526020018273ffffffffffffffffffffffffffffffffffffffff1681526020019250505060405180910390a350505050565b600061199b826000808681526020019081526020016000206000016127df90919063ffffffff16565b905092915050565b600160009054906101000a900473ffffffffffffffffffffffffffffffffffffffff1681565b600860009054906101000a900460ff1615611a2f576040517f08c379a000000000000000000000000000000000000000000000000000000000815260040180806020018281038252603e815260200180612d0f603e913960400191505060405180910390fd5b83600160006101000a81548173ffffffffffffffffffffffffffffffffffffffff021916908373ffffffffffffffffffffffffffffffffffffffff1602179055508260029080519060200190611a86929190612b26565b50816005811115611a9357fe5b600860156101000a81548160ff02191690836005811115611ab057fe5b021790555085600560006101000a81548173ffffffffffffffffffffffffffffffffffffffff021916908373ffffffffffffffffffffffffffffffffffffffff16021790555084600660006101000a81548173ffffffffffffffffffffffffffffffffffffffff021916908373ffffffffffffffffffffffffffffffffffffffff1602179055506000600560009054906101000a900473ffffffffffffffffffffffffffffffffffffffff1673ffffffffffffffffffffffffffffffffffffffff16639010d07c6000801b60006040518363ffffffff1660e01b8152600401808381526020018281526020019250505060206040518083038186803b158015611bb857600080fd5b505afa158015611bcc573d6000803e3d6000fd5b505050506040513d6020811015611be257600080fd5b81019080805190602001909291905050509050611c026000801b8261280f565b6001600860006101000a81548160ff02191690831515021790555081600860016101000a81548173ffffffffffffffffffffffffffffffffffffffff021916908373ffffffffffffffffffffffffffffffffffffffff16021790555050505050505050565b600560009054906101000a900473ffffffffffffffffffffffffffffffffffffffff1681565b60035481565b600860159054906101000a900460ff1681565b7f61c92169ef077349011ff0b1383c894d86c5f0b41d986366b58a6cf31e93beda81565b6000801b81565b606080606060006002805480602002602001604051908101604052809291908181526020018280548015611d5a57602002820191906000526020600020905b8160009054906101000a900473ffffffffffffffffffffffffffffffffffffffff1673ffffffffffffffffffffffffffffffffffffffff1681526020019060010190808311611d10575b50505050509050600060028054905067ffffffffffffffff81118015611d7f57600080fd5b50604051908082528060200260200182016040528015611dae5781602001602082028036833780820191505090505b509050600060028054905067ffffffffffffffff81118015611dcf57600080fd5b50604051908082528060200260200182016040528015611dfe5781602001602082028036833780820191505090505b509050600060096000898152602001908152602001600020905060005b600280549050811015611ffe57600660009054906101000a900473ffffffffffffffffffffffffffffffffffffffff1673ffffffffffffffffffffffffffffffffffffffff1663fc7e286d60028381548110611e7357fe5b9060005260206000200160009054906101000a900473ffffffffffffffffffffffffffffffffffffffff166040518263ffffffff1660e01b8152600401808273ffffffffffffffffffffffffffffffffffffffff16815260200191505060206040518083038186803b158015611ee857600080fd5b505afa158015611efc573d6000803e3d6000fd5b505050506040513d6020811015611f1257600080fd5b8101908080519060200190929190505050848281518110611f2f57fe5b60200260200101818152505081600201600060028381548110611f4e57fe5b9060005260206000200160009054906101000a900473ffffffffffffffffffffffffffffffffffffffff1673ffffffffffffffffffffffffffffffffffffffff1673ffffffffffffffffffffffffffffffffffffffff16815260200190815260200160002060009054906101000a900460ff16838281518110611fcd57fe5b60200260200101906002811115611fe057fe5b90816002811115611fed57fe5b815250508080600101915050611e1b565b50838383965096509650505050509193909250565b6000838360405160200180838152602001828152602001925050506040516020818303038152906040528051906020012090506000600960008381526020019081526020016000209050600660009054906101000a900473ffffffffffffffffffffffffffffffffffffffff1673ffffffffffffffffffffffffffffffffffffffff166318d50d33336040518263ffffffff1660e01b8152600401808273ffffffffffffffffffffffffffffffffffffffff16815260200191505060206040518083038186803b1580156120e657600080fd5b505afa1580156120fa573d6000803e3d6000fd5b505050506040513d602081101561211057600080fd5b8101908080519060200190929190505050612176576040517f08c379a000000000000000000000000000000000000000000000000000000000815260040180806020018281038252602e815260200180612c1f602e913960400191505060405180910390fd5b838160000154146121d2576040517f08c379a0000000000000000000000000000000000000000000000000000000008152600401808060200182810382526034815260200180612e4f6034913960400191505060405180910390fd5b600060028111156121df57fe5b8160020160003373ffffffffffffffffffffffffffffffffffffffff1673ffffffffffffffffffffffffffffffffffffffff16815260200190815260200160002060009054906101000a900460ff16600281111561223957fe5b1461228f576040517f08c379a000000000000000000000000000000000000000000000000000000000815260040180806020018281038252603b815260200180612d4d603b913960400191505060405180910390fd5b828160020160003373ffffffffffffffffffffffffffffffffffffffff1673ffffffffffffffffffffffffffffffffffffffff16815260200190815260200160002060006101000a81548160ff021916908360028111156122ec57fe5b0217905550600081600101541415612308576123078261281d565b5b7f4b83165525e8a33e47863e81a457e20dcf4a5a565ff817e856ac3b232bf5e95733868686604051808573ffffffffffffffffffffffffffffffffffffffff16815260200184815260200183815260200182600281111561236557fe5b815260200194505050505060405180910390a15050505050565b600660009054906101000a900473ffffffffffffffffffffffffffffffffffffffff1681565b60006009600083815260200190815260200160002060020160003373ffffffffffffffffffffffffffffffffffffffff1673ffffffffffffffffffffffffffffffffffffffff16815260200190815260200160002060009054906101000a900460ff169050919050565b600061242e6000808481526020019081526020016000206000016128a2565b9050919050565b61245b60008084815260200190815260200160002060020154612456612588565b611972565b6124b0576040517f08c379a0000000000000000000000000000000000000000000000000000000008152600401808060200182810382526030815260200180612d886030913960400191505060405180910390fd5b6124ba8282612623565b5050565b60096020528060005260406000206000915090508060000154908060010154905082565b6060600280548060200260200160405190810160405280929190818152602001828054801561256657602002820191906000526020600020905b8160009054906101000a900473ffffffffffffffffffffffffffffffffffffffff1673ffffffffffffffffffffffffffffffffffffffff168152602001906001019080831161251c575b5050505050905090565b600a6020528060005260406000206000915090505481565b600033905090565b6125b7816000808581526020019081526020016000206000016128b790919063ffffffff16565b1561261f576125c4612588565b73ffffffffffffffffffffffffffffffffffffffff168173ffffffffffffffffffffffffffffffffffffffff16837f2f8788117e7eff1d82e926ec794901d17c78024a50270940304540a733656f0d60405160405180910390a45b5050565b61264a816000808581526020019081526020016000206000016128e790919063ffffffff16565b156126b257612657612588565b73ffffffffffffffffffffffffffffffffffffffff168173ffffffffffffffffffffffffffffffffffffffff16837ff6391f5c32d9c69d2a47ea670b442974b53935d1edc7fd64eb21e047a839171b60405160405180910390a45b5050565b60006126c58360000183612917565b60001c905092915050565b6000808314156126e35760009050612750565b60008284029050828482816126f457fe5b041461274b576040517f08c379a0000000000000000000000000000000000000000000000000000000008152600401808060200182810382526021815260200180612db86021913960400191505060405180910390fd5b809150505b92915050565b60008082116127cd576040517f08c379a000000000000000000000000000000000000000000000000000000000815260040180806020018281038252601a8152602001807f536166654d6174683a206469766973696f6e206279207a65726f00000000000081525060200191505060405180910390fd5b8183816127d657fe5b04905092915050565b6000612807836000018373ffffffffffffffffffffffffffffffffffffffff1660001b61299a565b905092915050565b6128198282612590565b5050565b6004546128298261110b565b1061289f57600060096000838152602001908152602001600020905042816001018190555042827f4641078b78dd9bebdf6f33ac78436683380992cde468d54bb56ffe15b0850bdd30604051808273ffffffffffffffffffffffffffffffffffffffff16815260200191505060405180910390a3505b50565b60006128b0826000016129bd565b9050919050565b60006128df836000018373ffffffffffffffffffffffffffffffffffffffff1660001b6129ce565b905092915050565b600061290f836000018373ffffffffffffffffffffffffffffffffffffffff1660001b612a3e565b905092915050565b600081836000018054905011612978576040517f08c379a0000000000000000000000000000000000000000000000000000000008152600401808060200182810382526022815260200180612bce6022913960400191505060405180910390fd5b82600001828154811061298757fe5b9060005260206000200154905092915050565b600080836001016000848152602001908152602001600020541415905092915050565b600081600001805490509050919050565b60006129da838361299a565b612a33578260000182908060018154018082558091505060019003906000526020600020016000909190919091505582600001805490508360010160008481526020019081526020016000208190555060019050612a38565b600090505b92915050565b60008083600101600084815260200190815260200160002054905060008114612b1a5760006001820390506000600186600001805490500390506000866000018281548110612a8957fe5b9060005260206000200154905080876000018481548110612aa657fe5b9060005260206000200181905550600183018760010160008381526020019081526020016000208190555086600001805480612ade57fe5b60019003818190600052602060002001600090559055866001016000878152602001908152602001600020600090556001945050505050612b20565b60009150505b92915050565b828054828255906000526020600020908101928215612b9f579160200282015b82811115612b9e5782518260006101000a81548173ffffffffffffffffffffffffffffffffffffffff021916908373ffffffffffffffffffffffffffffffffffffffff16021790555091602001919060010190612b46565b5b509050612bac9190612bb0565b5090565b5b80821115612bc9576000816000905550600101612bb1565b509056fe456e756d657261626c655365743a20696e646578206f7574206f6620626f756e6473416363657373436f6e74726f6c3a2073656e646572206d75737420626520616e2061646d696e20746f206772616e74436f686f72743a76616c6964617465202d2056616c696461746f72206973206e6f7420617574686f72697a65642e436f686f72743a6973436f6e74726f6c6c6572202d2043616c6c6572206973206e6f74206120636f6e74726f6c6c6572436f686f72743a696e697469616c697a6556616c69646174696f6e202d204f6e6c7920656e7465727072697365206f77696e67207468697320636f686f72742063616e2063616c6c20746869732066756e6374696f6e436f686f72743a696e697469616c697a6556616c69646174696f6e202d20446f63756d656e7420686173682076616c75652063616e27742062652030436f686f72743a696e697469616c697a65202d207468697320436f686f727420686173206265656e20616c726561647920696e697469616c697a65642e20436f686f72743a76616c6964617465202d205468697320646f63756d656e7420686173206265656e2076616c69646174656420616c72656164792e416363657373436f6e74726f6c3a2073656e646572206d75737420626520616e2061646d696e20746f207265766f6b65536166654d6174683a206d756c7469706c69636174696f6e206f766572666c6f774d656d626572733a6973536574746572202d2043616c6c6572206973206e6f74206120736574746572436f686f72743a696e697469616c697a6556616c69646174696f6e202d204e6f742073756666696369656e742066756e64732e204465706f736974206164646974696f6e616c2066756e64732e436f686f72743a76616c6964617465202d207468652076616c69646174696f6e20706172616d7320646f6e2774206d617463682e436f686f72743a63616c63756c617465566f746551756f72756d202d2056616c69646174696f6e206861736820646f65736e2774206578697374416363657373436f6e74726f6c3a2063616e206f6e6c792072656e6f756e636520726f6c657320666f722073656c66436f686f72743a72656d6f766556616c696461746f72202d20596f7520617265206e6f7420617574686f72697a656420746f2063616c6c20746869732066756e6374696f6ea264697066735822122092b764679d1927aa627a6d644578693f7f41599b5ec80e41a6e811edf444d51464736f6c63430007060033",
  "immutableReferences": {},
  "source": "// SPDX-License-Identifier: MIT\npragma solidity >=0.6.0 <0.8.0;\n\nimport \"../AuditToken.sol\";\nimport \"./Members.sol\";\nimport \"@openzeppelin/contracts/math/SafeMath.sol\";\nimport \"@openzeppelin/contracts/token/ERC20/SafeERC20.sol\";\nimport \"@openzeppelin/contracts/access/AccessControl.sol\";\n\n/**\n * @title Cohort\n * @dev AccessControl\n * Allows on creation of invitations by Enterprise and acceptance of Validators of those\n * invitations. Finally Enterprise can create cohort consisting of invited Validators\n * and enterprise.\n */\ncontract Cohort is AccessControl {\n    using SafeMath for uint256;\n    using SafeERC20 for AuditToken;\n\n    address public enterprise;\n    address[] public validators;\n    uint256 public platformShare = 15; //Percentage of platform share\n    uint256 public requiredQuorum = 75;\n    AuditToken public auditToken;\n    Members public members;\n    uint256 public outstandingValidations;\n    // uint256 public recentBlockUpdated;\n    bool initialized;\n    address cohortFactory;\n\n    // Create a new role identifier for the controller role\n    bytes32 public constant CONTROLLER_ROLE = keccak256(\"CONTROLLER_ROLE\");\n    bytes32 public constant SETTER_ROLE = keccak256(\"SETTER_ROLE\");\n\n    // check if caller is authorized to make the call\n    modifier isController {\n        require( hasRole(CONTROLLER_ROLE, msg.sender),\n            \"Cohort:isController - Caller is not a controller\");\n        _;\n    }\n    /// @dev check if caller is a setter\n    modifier isSetter {\n        require(hasRole(SETTER_ROLE, msg.sender),\n            \"Members:isSetter - Caller is not a setter\"\n        );\n        _;\n    }\n\n    // Audit types to be used. Three types added for future expansion\n    enum AuditTypes {Financial, System, Contract, Type4, Type5, Type6}\n\n    AuditTypes public audits;\n\n    // Validation can be approved or disapproved. Initial status is undefined.\n    enum ValidationStatus {Undefined, Yes, No}\n\n    struct Validation {\n        uint256 validationTime;\n        uint256 executionTime;\n        mapping(address => ValidationStatus) validatorChoice;\n    }\n\n    mapping(bytes32 => Validation) public validations; // track each validation\n    mapping(address => uint256) public deposits; //track deposits per user\n\n    event ValidationInitialized(\n        bytes32 validationHash,\n        uint256 indexed initTime,\n        address indexed enterprise,\n        address cohort\n    );\n    event ValidatorValidated(\n        address validator,\n        bytes32 documentHash,\n        uint256 validationTime,\n        ValidationStatus decision\n    );\n    event ValidationExecuted(\n        bytes32 indexed validationHash,\n        uint256 indexed timeExecuted,\n        address cohort\n    );\n\n    event ValidatorRemoved(\n\n        address validator\n    );\n    // event LogRewardsRedeemed(address user, uint256 amount);\n    event LogOutstandingValidationRest(uint256 count);\n\n    /**\n     * @dev Called from CohortFactory.sol by Enterprise within the cohort creation function\n     * @param _auditTokenAddress     // address of AUDT token contract\n     * @param _members               // address of Members contract\n     * @param _enterprise            // address of enterprise user\n     * @param _validators            // list of invited validators\n     * @param _audits                // audit type\n     */\n    function initialize(\n        address _auditTokenAddress,\n        Members _members,\n        address _enterprise,\n        address[] memory _validators,\n        uint256 _audits,\n        address _cohortFactory\n    ) public {\n        require(!initialized,\n                \"Cohort:initialize - this Cohort has been already initialized. \"\n        );\n        enterprise = _enterprise;\n        validators = _validators;\n        audits = AuditTypes(_audits);\n        auditToken = AuditToken(_auditTokenAddress);\n        members = _members;\n        address tokenAdmin = auditToken.getRoleMember(DEFAULT_ADMIN_ROLE, 0); // get admin of token contract\n        _setupRole(DEFAULT_ADMIN_ROLE, tokenAdmin);\n        initialized = true;\n        cohortFactory = _cohortFactory;\n    }\n\n    /**\n     * @dev returns list of validators for this cohort\n     * @return array of validators\n     */\n    function returnValidators() public view returns (address[] memory) {\n        return validators;\n    }\n\n    /**\n     * @dev to be called by administrator to update new amount for required quorum\n     * @param _requiredQuorum new value of required quorum\n     */\n    function updateQuorum(uint256 _requiredQuorum) public isSetter() {\n        require(_requiredQuorum != 0, \"New quorum value can't be 0\");\n        requiredQuorum = _requiredQuorum;\n    }\n\n    function resetOutstandingValidations() public isController() {\n        outstandingValidations = 0;\n        emit LogOutstandingValidationRest(outstandingValidations);\n    }\n\n    function addAdditionalValidator(address validator) public returns (bool){\n        // require(msg.sender == enterprise,\n        //     \"Cohort:addAdditionalValidator - Only owner of cohort can add additional validators\");\n        validators.push(validator);\n        return true;\n    }\n    \n    function removeValidator(address validator) public returns (bool) {\n\n    \n        require(msg.sender == cohortFactory, \"Cohort:removeValidator - You are not authorized to call this function\");\n            for (uint256 i; i< validators.length; i++){\n\n                if (validators[i] == validator) {\n\n                    validators[i] =  validators[validators.length - 1] ;\n                    validators.pop();                    \n                    emit ValidatorRemoved(validator);\n                    return true;\n                }\n            }\n         return false;\n    }\n    /**\n     * @dev to be called by Enterprise to initiate new validation\n     * @param documentHash - hash of unique identifier of validated transaction\n     */\n    function initializeValidation(bytes32 documentHash) public {\n        // div(1e4) account for precision up to 4 decimal points\n        require(\n            members.deposits(msg.sender) > members\n                    .amountTokensPerValidation()\n                    .mul(outstandingValidations)\n                    .mul(members.enterpriseMatch())\n                    .div(1e4),\n            \"Cohort:initializeValidation - Not sufficient funds. Deposit additional funds.\"\n        );\n        require(\n            documentHash.length > 0,\n            \"Cohort:initializeValidation - Document hash value can't be 0\"\n        );\n        require(\n            enterprise == msg.sender,\n            \"Cohort:initializeValidation - Only enterprise owing this cohort can call this function\"\n        );\n        uint256 validationTime = block.timestamp;\n        bytes32 validationHash =\n            keccak256(abi.encodePacked(documentHash, validationTime));\n\n        outstandingValidations++;\n\n        Validation storage newValidation = validations[validationHash];\n        newValidation.validationTime = block.timestamp;\n        emit ValidationInitialized(\n            validationHash,\n            validationTime,\n            msg.sender,\n            address(this)\n        );\n    }\n\n    /**\n     * @dev retriev the validation results\n     * @param validationHash - consist of hash of hashed document and timestamp\n     * @return array  of validators\n     * @return array of stakes of each validator\n     * @return array of validation choices for each validator\n     */\n    function collectValidationResults(bytes32 validationHash)\n        public\n        view\n        returns (\n            address[] memory,\n            uint256[] memory,\n            ValidationStatus[] memory\n        )\n    {\n        address[] memory validatorsList = validators;\n        uint256[] memory stake = new uint256[](validators.length);\n        ValidationStatus[] memory validatorsValues =\n            new ValidationStatus[](validators.length);\n\n        Validation storage validation = validations[validationHash];\n\n        for (uint256 i = 0; i < validators.length; i++) {\n            stake[i] = members.deposits(validators[i]);\n            validatorsValues[i] = validation.validatorChoice[validators[i]];\n        }\n        return (validatorsList, stake, validatorsValues);\n    }\n\n    /**\n     * @dev validators can check if specific document has been already validated by them\n     * @param validationHash - consist of hash of hashed document and timestamp\n     * @return validation choices used by validator\n     */\n    function isValidated(bytes32 validationHash)\n        public\n        view\n        returns (ValidationStatus)\n    {\n        return validations[validationHash].validatorChoice[msg.sender];\n    }\n\n    /**\n     * @dev to calculate state of the quorum for the validation\n     * @param validationHash - consist of hash of hashed document and timestamp\n     * @return number representing current participation level in percentage\n     */\n    function calculateVoteQuorum(bytes32 validationHash)\n        public\n        view\n        returns (uint256)\n    {\n        uint256 totalStaked;\n        uint256 currentlyVoted;\n\n        Validation storage validation = validations[validationHash];\n        require(\n            validation.validationTime > 0,\n            \"Cohort:calculateVoteQuorum - Validation hash doesn't exist\"\n        );\n\n        for (uint256 i = 0; i < validators.length; i++) {\n            totalStaked += members.deposits(validators[i]);\n            if (validation.validatorChoice[validators[i]] != ValidationStatus.Undefined) \n                currentlyVoted += members.deposits(validators[i]);\n        }\n        return (currentlyVoted * 100) / totalStaked;\n    }\n\n    /**\n     * @dev to mark validation as executed. This happens when participation level reached \"requiredQuorum\"\n     * @param validationHash - consist of hash of hashed document and timestamp\n     */\n    function executeValidation(bytes32 validationHash) internal {\n        if (calculateVoteQuorum(validationHash) >= requiredQuorum) {\n            Validation storage validation = validations[validationHash];\n            validation.executionTime = block.timestamp;\n            emit ValidationExecuted(\n                validationHash,\n                block.timestamp,\n                address(this)\n            );\n        }\n    }\n\n    /**\n     * @dev called by validator to approve or disapprove this validation\n     * @param documentHash - hash of validated document\n     * @param validationTime - this is the time when validation has been initialized\n     * @param decision - one of the ValidationStatus choices cast by validator\n     */\n    function validate(\n        bytes32 documentHash,\n        uint256 validationTime,\n        ValidationStatus decision\n    ) public {\n        bytes32 validationHash = keccak256(abi.encodePacked(documentHash, validationTime));\n        Validation storage validation = validations[validationHash];\n        require(members.validatorMap(msg.sender),\n            \"Cohort:validate - Validator is not authorized.\");\n        require(validation.validationTime == validationTime,\n            \"Cohort:validate - the validation params don't match.\");\n        require(validation.validatorChoice[msg.sender] ==ValidationStatus.Undefined,\n            \"Cohort:validate - This document has been validated already.\");\n        validation.validatorChoice[msg.sender] = decision;\n\n        if (validation.executionTime == 0) executeValidation(validationHash);\n\n        emit ValidatorValidated(\n            msg.sender,\n            documentHash,\n            validationTime,\n            decision\n        );\n    }\n}\n",
  "sourcePath": "/home/bogdan/Ethereum/Projects/TGE/Core-Smart-Contracts-v1/contracts/Auditchain/Cohort.sol",
  "compiler": {
    "name": "solc",
    "version": "0.7.6+commit.7338295f.Emscripten.clang"
  },
  "schemaVersion": "3.3.4",
  "updatedAt": "2021-03-24T02:00:26.216Z",
  "devdoc": {
    "details": "AccessControl Allows on creation of invitations by Enterprise and acceptance of Validators of those invitations. Finally Enterprise can create cohort consisting of invited Validators and enterprise.",
    "kind": "dev",
    "methods": {
      "calculateVoteQuorum(bytes32)": {
        "details": "to calculate state of the quorum for the validation",
        "params": {
          "validationHash": "- consist of hash of hashed document and timestamp"
        },
        "returns": {
          "_0": "number representing current participation level in percentage"
        }
      },
      "collectValidationResults(bytes32)": {
        "details": "retriev the validation results",
        "params": {
          "validationHash": "- consist of hash of hashed document and timestamp"
        },
        "returns": {
          "_0": "array  of validators",
          "_1": "array of stakes of each validator",
          "_2": "array of validation choices for each validator"
        }
      },
      "getRoleAdmin(bytes32)": {
        "details": "Returns the admin role that controls `role`. See {grantRole} and {revokeRole}. To change a role's admin, use {_setRoleAdmin}."
      },
      "getRoleMember(bytes32,uint256)": {
        "details": "Returns one of the accounts that have `role`. `index` must be a value between 0 and {getRoleMemberCount}, non-inclusive. Role bearers are not sorted in any particular way, and their ordering may change at any point. WARNING: When using {getRoleMember} and {getRoleMemberCount}, make sure you perform all queries on the same block. See the following https://forum.openzeppelin.com/t/iterating-over-elements-on-enumerableset-in-openzeppelin-contracts/2296[forum post] for more information."
      },
      "getRoleMemberCount(bytes32)": {
        "details": "Returns the number of accounts that have `role`. Can be used together with {getRoleMember} to enumerate all bearers of a role."
      },
      "grantRole(bytes32,address)": {
        "details": "Grants `role` to `account`. If `account` had not been already granted `role`, emits a {RoleGranted} event. Requirements: - the caller must have ``role``'s admin role."
      },
      "hasRole(bytes32,address)": {
        "details": "Returns `true` if `account` has been granted `role`."
      },
      "initialize(address,address,address,address[],uint256,address)": {
        "details": "Called from CohortFactory.sol by Enterprise within the cohort creation function",
        "params": {
          "_auditTokenAddress": "// address of AUDT token contract",
          "_audits": "// audit type",
          "_enterprise": "// address of enterprise user",
          "_members": "// address of Members contract",
          "_validators": "// list of invited validators"
        }
      },
      "initializeValidation(bytes32)": {
        "details": "to be called by Enterprise to initiate new validation",
        "params": {
          "documentHash": "- hash of unique identifier of validated transaction"
        }
      },
      "isValidated(bytes32)": {
        "details": "validators can check if specific document has been already validated by them",
        "params": {
          "validationHash": "- consist of hash of hashed document and timestamp"
        },
        "returns": {
          "_0": "validation choices used by validator"
        }
      },
      "renounceRole(bytes32,address)": {
        "details": "Revokes `role` from the calling account. Roles are often managed via {grantRole} and {revokeRole}: this function's purpose is to provide a mechanism for accounts to lose their privileges if they are compromised (such as when a trusted device is misplaced). If the calling account had been granted `role`, emits a {RoleRevoked} event. Requirements: - the caller must be `account`."
      },
      "returnValidators()": {
        "details": "returns list of validators for this cohort",
        "returns": {
          "_0": "array of validators"
        }
      },
      "revokeRole(bytes32,address)": {
        "details": "Revokes `role` from `account`. If `account` had been granted `role`, emits a {RoleRevoked} event. Requirements: - the caller must have ``role``'s admin role."
      },
      "updateQuorum(uint256)": {
        "details": "to be called by administrator to update new amount for required quorum",
        "params": {
          "_requiredQuorum": "new value of required quorum"
        }
      },
      "validate(bytes32,uint256,uint8)": {
        "details": "called by validator to approve or disapprove this validation",
        "params": {
          "decision": "- one of the ValidationStatus choices cast by validator",
          "documentHash": "- hash of validated document",
          "validationTime": "- this is the time when validation has been initialized"
        }
      }
    },
    "title": "Cohort",
    "version": 1
  },
  "userdoc": {
    "kind": "user",
    "methods": {},
    "version": 1
  }
}