{
  "contractName": "CohortFactory",
  "abi": [
    {
      "inputs": [
        {
          "internalType": "contract Members",
          "name": "_members",
          "type": "address"
        },
        {
          "internalType": "address",
          "name": "_createCohortAddress",
          "type": "address"
        }
      ],
      "stateMutability": "nonpayable",
      "type": "constructor"
    },
    {
      "anonymous": false,
      "inputs": [
        {
          "indexed": true,
          "internalType": "address",
          "name": "enterprise",
          "type": "address"
        },
        {
          "indexed": false,
          "internalType": "address",
          "name": "cohort",
          "type": "address"
        },
        {
          "indexed": false,
          "internalType": "enum CohortFactory.AuditTypes",
          "name": "audits",
          "type": "uint8"
        }
      ],
      "name": "CohortCreated",
      "type": "event"
    },
    {
      "anonymous": false,
      "inputs": [
        {
          "indexed": true,
          "internalType": "address",
          "name": "validator",
          "type": "address"
        },
        {
          "indexed": false,
          "internalType": "uint256",
          "name": "invitationNumber",
          "type": "uint256"
        }
      ],
      "name": "InvitationAccepted",
      "type": "event"
    },
    {
      "anonymous": false,
      "inputs": [
        {
          "indexed": true,
          "internalType": "bytes32",
          "name": "role",
          "type": "bytes32"
        },
        {
          "indexed": true,
          "internalType": "bytes32",
          "name": "previousAdminRole",
          "type": "bytes32"
        },
        {
          "indexed": true,
          "internalType": "bytes32",
          "name": "newAdminRole",
          "type": "bytes32"
        }
      ],
      "name": "RoleAdminChanged",
      "type": "event"
    },
    {
      "anonymous": false,
      "inputs": [
        {
          "indexed": true,
          "internalType": "bytes32",
          "name": "role",
          "type": "bytes32"
        },
        {
          "indexed": true,
          "internalType": "address",
          "name": "account",
          "type": "address"
        },
        {
          "indexed": true,
          "internalType": "address",
          "name": "sender",
          "type": "address"
        }
      ],
      "name": "RoleGranted",
      "type": "event"
    },
    {
      "anonymous": false,
      "inputs": [
        {
          "indexed": true,
          "internalType": "bytes32",
          "name": "role",
          "type": "bytes32"
        },
        {
          "indexed": true,
          "internalType": "address",
          "name": "account",
          "type": "address"
        },
        {
          "indexed": true,
          "internalType": "address",
          "name": "sender",
          "type": "address"
        }
      ],
      "name": "RoleRevoked",
      "type": "event"
    },
    {
      "anonymous": false,
      "inputs": [
        {
          "indexed": false,
          "internalType": "uint256",
          "name": "minValidatorPerCohort",
          "type": "uint256"
        },
        {
          "indexed": false,
          "internalType": "enum CohortFactory.AuditTypes",
          "name": "audits",
          "type": "uint8"
        }
      ],
      "name": "UpdateMinValidatorsPerCohort",
      "type": "event"
    },
    {
      "anonymous": false,
      "inputs": [
        {
          "indexed": false,
          "internalType": "address",
          "name": "validator",
          "type": "address"
        },
        {
          "indexed": false,
          "internalType": "enum CohortFactory.AuditTypes",
          "name": "audit",
          "type": "uint8"
        },
        {
          "indexed": false,
          "internalType": "address",
          "name": "cohort",
          "type": "address"
        },
        {
          "indexed": false,
          "internalType": "address",
          "name": "enterprise",
          "type": "address"
        }
      ],
      "name": "ValidatorCleared",
      "type": "event"
    },
    {
      "anonymous": false,
      "inputs": [
        {
          "indexed": false,
          "internalType": "address",
          "name": "inviting",
          "type": "address"
        },
        {
          "indexed": true,
          "internalType": "address",
          "name": "invitee",
          "type": "address"
        },
        {
          "indexed": false,
          "internalType": "enum CohortFactory.AuditTypes",
          "name": "audits",
          "type": "uint8"
        },
        {
          "indexed": false,
          "internalType": "uint256",
          "name": "invitationNumber",
          "type": "uint256"
        },
        {
          "indexed": false,
          "internalType": "address",
          "name": "cohort",
          "type": "address"
        }
      ],
      "name": "ValidatorInvited",
      "type": "event"
    },
    {
      "inputs": [],
      "name": "DEFAULT_ADMIN_ROLE",
      "outputs": [
        {
          "internalType": "bytes32",
          "name": "",
          "type": "bytes32"
        }
      ],
      "stateMutability": "view",
      "type": "function",
      "constant": true
    },
    {
      "inputs": [],
      "name": "SETTER_ROLE",
      "outputs": [
        {
          "internalType": "bytes32",
          "name": "",
          "type": "bytes32"
        }
      ],
      "stateMutability": "view",
      "type": "function",
      "constant": true
    },
    {
      "inputs": [
        {
          "internalType": "address",
          "name": "",
          "type": "address"
        },
        {
          "internalType": "uint256",
          "name": "",
          "type": "uint256"
        }
      ],
      "name": "cohortList",
      "outputs": [
        {
          "internalType": "address",
          "name": "cohort",
          "type": "address"
        },
        {
          "internalType": "enum CohortFactory.AuditTypes",
          "name": "audits",
          "type": "uint8"
        }
      ],
      "stateMutability": "view",
      "type": "function",
      "constant": true
    },
    {
      "inputs": [
        {
          "internalType": "bytes32",
          "name": "role",
          "type": "bytes32"
        }
      ],
      "name": "getRoleAdmin",
      "outputs": [
        {
          "internalType": "bytes32",
          "name": "",
          "type": "bytes32"
        }
      ],
      "stateMutability": "view",
      "type": "function",
      "constant": true
    },
    {
      "inputs": [
        {
          "internalType": "bytes32",
          "name": "role",
          "type": "bytes32"
        },
        {
          "internalType": "uint256",
          "name": "index",
          "type": "uint256"
        }
      ],
      "name": "getRoleMember",
      "outputs": [
        {
          "internalType": "address",
          "name": "",
          "type": "address"
        }
      ],
      "stateMutability": "view",
      "type": "function",
      "constant": true
    },
    {
      "inputs": [
        {
          "internalType": "bytes32",
          "name": "role",
          "type": "bytes32"
        }
      ],
      "name": "getRoleMemberCount",
      "outputs": [
        {
          "internalType": "uint256",
          "name": "",
          "type": "uint256"
        }
      ],
      "stateMutability": "view",
      "type": "function",
      "constant": true
    },
    {
      "inputs": [
        {
          "internalType": "bytes32",
          "name": "role",
          "type": "bytes32"
        },
        {
          "internalType": "address",
          "name": "account",
          "type": "address"
        }
      ],
      "name": "grantRole",
      "outputs": [],
      "stateMutability": "nonpayable",
      "type": "function"
    },
    {
      "inputs": [
        {
          "internalType": "bytes32",
          "name": "role",
          "type": "bytes32"
        },
        {
          "internalType": "address",
          "name": "account",
          "type": "address"
        }
      ],
      "name": "hasRole",
      "outputs": [
        {
          "internalType": "bool",
          "name": "",
          "type": "bool"
        }
      ],
      "stateMutability": "view",
      "type": "function",
      "constant": true
    },
    {
      "inputs": [
        {
          "internalType": "address",
          "name": "",
          "type": "address"
        },
        {
          "internalType": "uint256",
          "name": "",
          "type": "uint256"
        }
      ],
      "name": "invitations",
      "outputs": [
        {
          "internalType": "address",
          "name": "enterprise",
          "type": "address"
        },
        {
          "internalType": "address",
          "name": "validator",
          "type": "address"
        },
        {
          "internalType": "uint256",
          "name": "invitationDate",
          "type": "uint256"
        },
        {
          "internalType": "uint256",
          "name": "acceptanceDate",
          "type": "uint256"
        },
        {
          "internalType": "enum CohortFactory.AuditTypes",
          "name": "audits",
          "type": "uint8"
        },
        {
          "internalType": "address",
          "name": "cohort",
          "type": "address"
        },
        {
          "internalType": "bool",
          "name": "deleted",
          "type": "bool"
        }
      ],
      "stateMutability": "view",
      "type": "function",
      "constant": true
    },
    {
      "inputs": [
        {
          "internalType": "uint256",
          "name": "",
          "type": "uint256"
        }
      ],
      "name": "minValidatorPerCohort",
      "outputs": [
        {
          "internalType": "uint256",
          "name": "",
          "type": "uint256"
        }
      ],
      "stateMutability": "view",
      "type": "function",
      "constant": true
    },
    {
      "inputs": [
        {
          "internalType": "bytes32",
          "name": "role",
          "type": "bytes32"
        },
        {
          "internalType": "address",
          "name": "account",
          "type": "address"
        }
      ],
      "name": "renounceRole",
      "outputs": [],
      "stateMutability": "nonpayable",
      "type": "function"
    },
    {
      "inputs": [
        {
          "internalType": "bytes32",
          "name": "role",
          "type": "bytes32"
        },
        {
          "internalType": "address",
          "name": "account",
          "type": "address"
        }
      ],
      "name": "revokeRole",
      "outputs": [],
      "stateMutability": "nonpayable",
      "type": "function"
    },
    {
      "inputs": [
        {
          "internalType": "uint256",
          "name": "_minValidatorPerCohort",
          "type": "uint256"
        },
        {
          "internalType": "uint256",
          "name": "audits",
          "type": "uint256"
        }
      ],
      "name": "updateMinValidatorsPerCohort",
      "outputs": [],
      "stateMutability": "nonpayable",
      "type": "function"
    },
    {
      "inputs": [
        {
          "internalType": "address",
          "name": "validator",
          "type": "address"
        },
        {
          "internalType": "enum CohortFactory.AuditTypes",
          "name": "audit",
          "type": "uint8"
        },
        {
          "internalType": "address",
          "name": "cohort",
          "type": "address"
        }
      ],
      "name": "inviteValidator",
      "outputs": [],
      "stateMutability": "nonpayable",
      "type": "function"
    },
    {
      "inputs": [
        {
          "internalType": "address[]",
          "name": "validator",
          "type": "address[]"
        },
        {
          "internalType": "enum CohortFactory.AuditTypes",
          "name": "audit",
          "type": "uint8"
        },
        {
          "internalType": "address",
          "name": "cohort",
          "type": "address"
        }
      ],
      "name": "inviteValidatorMultiple",
      "outputs": [],
      "stateMutability": "nonpayable",
      "type": "function"
    },
    {
      "inputs": [
        {
          "internalType": "address",
          "name": "enterprise",
          "type": "address"
        },
        {
          "internalType": "uint256",
          "name": "invitationNumber",
          "type": "uint256"
        }
      ],
      "name": "acceptInvitation",
      "outputs": [],
      "stateMutability": "nonpayable",
      "type": "function"
    },
    {
      "inputs": [
        {
          "internalType": "address",
          "name": "validator",
          "type": "address"
        },
        {
          "internalType": "enum CohortFactory.AuditTypes",
          "name": "audit",
          "type": "uint8"
        },
        {
          "internalType": "address",
          "name": "cohort",
          "type": "address"
        }
      ],
      "name": "clearInvitationRemoveValidator",
      "outputs": [],
      "stateMutability": "nonpayable",
      "type": "function"
    },
    {
      "inputs": [
        {
          "internalType": "address[]",
          "name": "enterprise",
          "type": "address[]"
        },
        {
          "internalType": "uint256[]",
          "name": "invitationNumber",
          "type": "uint256[]"
        }
      ],
      "name": "acceptInvitationMultiple",
      "outputs": [],
      "stateMutability": "nonpayable",
      "type": "function"
    },
    {
      "inputs": [
        {
          "internalType": "address",
          "name": "enterprise",
          "type": "address"
        },
        {
          "internalType": "enum CohortFactory.AuditTypes",
          "name": "audit",
          "type": "uint8"
        }
      ],
      "name": "returnInvitationCount",
      "outputs": [
        {
          "internalType": "uint256",
          "name": "",
          "type": "uint256"
        }
      ],
      "stateMutability": "view",
      "type": "function",
      "constant": true
    },
    {
      "inputs": [
        {
          "internalType": "address",
          "name": "enterprise",
          "type": "address"
        },
        {
          "internalType": "address",
          "name": "validator",
          "type": "address"
        },
        {
          "internalType": "enum CohortFactory.AuditTypes",
          "name": "audits",
          "type": "uint8"
        }
      ],
      "name": "isValidatorInvited",
      "outputs": [
        {
          "internalType": "bool",
          "name": "",
          "type": "bool"
        },
        {
          "internalType": "bool",
          "name": "",
          "type": "bool"
        }
      ],
      "stateMutability": "view",
      "type": "function",
      "constant": true
    },
    {
      "inputs": [
        {
          "internalType": "address",
          "name": "enterprise",
          "type": "address"
        }
      ],
      "name": "returnCohorts",
      "outputs": [
        {
          "internalType": "address[]",
          "name": "",
          "type": "address[]"
        },
        {
          "internalType": "uint256[]",
          "name": "",
          "type": "uint256[]"
        }
      ],
      "stateMutability": "view",
      "type": "function",
      "constant": true
    },
    {
      "inputs": [],
      "name": "returnOutstandingValidations",
      "outputs": [
        {
          "internalType": "uint256",
          "name": "",
          "type": "uint256"
        }
      ],
      "stateMutability": "view",
      "type": "function",
      "constant": true
    },
    {
      "inputs": [
        {
          "internalType": "enum CohortFactory.AuditTypes",
          "name": "audit",
          "type": "uint8"
        }
      ],
      "name": "createCohort",
      "outputs": [],
      "stateMutability": "nonpayable",
      "type": "function"
    }
  ],
  "bytecode": "0x60806040526040518060c00160405280600360ff168152602001600360ff168152602001600360ff168152602001600360ff168152602001600360ff168152602001600360ff1681525060019060066200005b929190620002c4565b503480156200006957600080fd5b50604051620044fb380380620044fb83398181016040528101906200008f919062000368565b81600360006101000a81548173ffffffffffffffffffffffffffffffffffffffff021916908373ffffffffffffffffffffffffffffffffffffffff16021790555080600660006101000a81548173ffffffffffffffffffffffffffffffffffffffff021916908373ffffffffffffffffffffffffffffffffffffffff160217905550620001266000801b336200012e60201b60201c565b505062000425565b6200014082826200014460201b60201c565b5050565b6200017281600080858152602001908152602001600020600001620001e760201b620026631790919060201c565b15620001e357620001886200021f60201b60201c565b73ffffffffffffffffffffffffffffffffffffffff168173ffffffffffffffffffffffffffffffffffffffff16837f2f8788117e7eff1d82e926ec794901d17c78024a50270940304540a733656f0d60405160405180910390a45b5050565b600062000217836000018373ffffffffffffffffffffffffffffffffffffffff1660001b6200022760201b60201c565b905092915050565b600033905090565b60006200023b8383620002a160201b60201c565b620002965782600001829080600181540180825580915050600190039060005260206000200160009091909190915055826000018054905083600101600084815260200190815260200160002081905550600190506200029b565b600090505b92915050565b600080836001016000848152602001908152602001600020541415905092915050565b82805482825590600052602060002090810192821562000308579160200282015b8281111562000307578251829060ff16905591602001919060010190620002e5565b5b5090506200031791906200031b565b5090565b5b80821115620003365760008160009055506001016200031c565b5090565b6000815190506200034b81620003f1565b92915050565b60008151905062000362816200040b565b92915050565b600080604083850312156200037c57600080fd5b60006200038c8582860162000351565b92505060206200039f858286016200033a565b9150509250929050565b6000620003b682620003d1565b9050919050565b6000620003ca82620003a9565b9050919050565b600073ffffffffffffffffffffffffffffffffffffffff82169050919050565b620003fc81620003a9565b81146200040857600080fd5b50565b6200041681620003bd565b81146200042257600080fd5b50565b6140c680620004356000396000f3fe608060405234801561001057600080fd5b506004361061014d5760003560e01c80638e02c1f4116100c3578063a70e03931161007c578063a70e0393146103da578063b9f577b11461040b578063c535124e14610427578063ca15c87314610445578063ced02c8b14610475578063d547741f146104915761014d565b80638e02c1f4146102ec5780638ffb72f4146103085780639010d07c1461033e57806391d148541461036e578063a2011b3f1461039e578063a217fddf146103bc5761014d565b80632f2ff15d116101155780632f2ff15d1461021b57806336568abe1461023757806345f49bb0146102535780637689bb7d146102835780637c915c861461029f57806387247dea146102bb5761014d565b80630939a997146101525780630ea021601461016e5780631f94fc3a1461018a578063247e28b3146101bb578063248a9ca3146101eb575b600080fd5b61016c60048036038101906101679190612e12565b6104ad565b005b61018860048036038101906101839190612dd6565b610501565b005b6101a4600480360381019061019f9190612cfc565b6109b3565b6040516101b2929190613b1f565b60405180910390f35b6101d560048036038101906101d09190612d4b565b610c48565b6040516101e29190613d23565b60405180910390f35b61020560048036038101906102009190612f0e565b610e17565b6040516102129190613b48565b60405180910390f35b61023560048036038101906102309190612f37565b610e36565b005b610251600480360381019061024c9190612f37565b610ebf565b005b61026d60048036038101906102689190612fd8565b610f58565b60405161027a9190613d23565b60405180910390f35b61029d60048036038101906102989190612d87565b610f7c565b005b6102b960048036038101906102b49190612faf565b61157b565b005b6102d560048036038101906102d09190612caa565b611b52565b6040516102e3929190613acd565b60405180910390f35b61030660048036038101906103019190612d87565b611e1d565b005b610322600480360381019061031d9190612dd6565b612133565b60405161033597969594939291906139f0565b60405180910390f35b61035860048036038101906103539190612f73565b61220c565b604051610365919061394c565b60405180910390f35b61038860048036038101906103839190612f37565b61223d565b6040516103959190613b04565b60405180910390f35b6103a661226e565b6040516103b39190613b48565b60405180910390f35b6103c4612292565b6040516103d19190613b48565b60405180910390f35b6103f460048036038101906103ef9190612dd6565b612299565b604051610402929190613a5f565b60405180910390f35b6104256004803603810190610420919061302a565b612303565b005b61042f612465565b60405161043c9190613d23565b60405180910390f35b61045f600480360381019061045a9190612f0e565b61252c565b60405161046c9190613d23565b60405180910390f35b61048f600480360381019061048a9190612e7e565b612552565b005b6104ab60048036038101906104a69190612f37565b6125da565b005b60008251905060005b818110156104fb576104ee8482815181106104cd57fe5b60200260200101518483815181106104e157fe5b6020026020010151610501565b80806001019150506104b6565b50505050565b80600460008473ffffffffffffffffffffffffffffffffffffffff1673ffffffffffffffffffffffffffffffffffffffff1681526020019081526020016000208054905011610585576040517f08c379a000000000000000000000000000000000000000000000000000000000815260040161057c90613ba3565b60405180910390fd5b6000600460008473ffffffffffffffffffffffffffffffffffffffff1673ffffffffffffffffffffffffffffffffffffffff16815260200190815260200160002082815481106105d157fe5b90600052602060002090600502016003015414610623576040517f08c379a000000000000000000000000000000000000000000000000000000000815260040161061a90613c03565b60405180910390fd5b3373ffffffffffffffffffffffffffffffffffffffff16600460008473ffffffffffffffffffffffffffffffffffffffff1673ffffffffffffffffffffffffffffffffffffffff168152602001908152602001600020828154811061068457fe5b906000526020600020906005020160010160009054906101000a900473ffffffffffffffffffffffffffffffffffffffff1673ffffffffffffffffffffffffffffffffffffffff161461070c576040517f08c379a000000000000000000000000000000000000000000000000000000000815260040161070390613cc3565b60405180910390fd5b42600460008473ffffffffffffffffffffffffffffffffffffffff1673ffffffffffffffffffffffffffffffffffffffff168152602001908152602001600020828154811061075757fe5b906000526020600020906005020160030181905550600073ffffffffffffffffffffffffffffffffffffffff16600460008473ffffffffffffffffffffffffffffffffffffffff1673ffffffffffffffffffffffffffffffffffffffff16815260200190815260200160002082815481106107ce57fe5b906000526020600020906005020160040160019054906101000a900473ffffffffffffffffffffffffffffffffffffffff1673ffffffffffffffffffffffffffffffffffffffff161461096157600460008373ffffffffffffffffffffffffffffffffffffffff1673ffffffffffffffffffffffffffffffffffffffff168152602001908152602001600020818154811061086557fe5b906000526020600020906005020160040160019054906101000a900473ffffffffffffffffffffffffffffffffffffffff1673ffffffffffffffffffffffffffffffffffffffff16638c410fc8336040518263ffffffff1660e01b81526004016108cf9190613967565b602060405180830381600087803b1580156108e957600080fd5b505af11580156108fd573d6000803e3d6000fd5b505050506040513d601f19601f820116820180604052508101906109219190612ee5565b610960576040517f08c379a000000000000000000000000000000000000000000000000000000000815260040161095790613c23565b60405180910390fd5b5b3373ffffffffffffffffffffffffffffffffffffffff167f7b03e8bab458bdbb216f7525cb174b013e75d040884fe46cc9e836fc05a0cc7b826040516109a79190613d23565b60405180910390a25050565b60008060005b600460008773ffffffffffffffffffffffffffffffffffffffff1673ffffffffffffffffffffffffffffffffffffffff16815260200190815260200160002080549050811015610c3757836005811115610a0f57fe5b600460008873ffffffffffffffffffffffffffffffffffffffff1673ffffffffffffffffffffffffffffffffffffffff1681526020019081526020016000208281548110610a5957fe5b906000526020600020906005020160040160009054906101000a900460ff166005811115610a8357fe5b148015610b3657508473ffffffffffffffffffffffffffffffffffffffff16600460008873ffffffffffffffffffffffffffffffffffffffff1673ffffffffffffffffffffffffffffffffffffffff1681526020019081526020016000208281548110610aec57fe5b906000526020600020906005020160010160009054906101000a900473ffffffffffffffffffffffffffffffffffffffff1673ffffffffffffffffffffffffffffffffffffffff16145b8015610ba85750600460008773ffffffffffffffffffffffffffffffffffffffff1673ffffffffffffffffffffffffffffffffffffffff1681526020019081526020016000208181548110610b8757fe5b906000526020600020906005020160040160159054906101000a900460ff16155b15610c2c576000600460008873ffffffffffffffffffffffffffffffffffffffff1673ffffffffffffffffffffffffffffffffffffffff1681526020019081526020016000208281548110610bf957fe5b9060005260206000209060050201600301541115610c1e576001809250925050610c40565b600160009250925050610c40565b8060010190506109b9565b50600080915091505b935093915050565b60008060005b600460008673ffffffffffffffffffffffffffffffffffffffff1673ffffffffffffffffffffffffffffffffffffffff16815260200190815260200160002080549050811015610e0c57836005811115610ca457fe5b600460008773ffffffffffffffffffffffffffffffffffffffff1673ffffffffffffffffffffffffffffffffffffffff1681526020019081526020016000208281548110610cee57fe5b906000526020600020906005020160040160009054906101000a900460ff166005811115610d1857fe5b148015610d8157506000600460008773ffffffffffffffffffffffffffffffffffffffff1673ffffffffffffffffffffffffffffffffffffffff1681526020019081526020016000208281548110610d6c57fe5b90600052602060002090600502016003015414155b8015610df35750600460008673ffffffffffffffffffffffffffffffffffffffff1673ffffffffffffffffffffffffffffffffffffffff1681526020019081526020016000208181548110610dd257fe5b906000526020600020906005020160040160159054906101000a900460ff16155b15610e015781806001019250505b806001019050610c4e565b508091505092915050565b6000806000838152602001908152602001600020600201549050919050565b610e5c60008084815260200190815260200160002060020154610e57612693565b61223d565b610eb1576040517f08c379a000000000000000000000000000000000000000000000000000000000815260040180806020018281038252602f815260200180614003602f913960400191505060405180910390fd5b610ebb828261269b565b5050565b610ec7612693565b73ffffffffffffffffffffffffffffffffffffffff168173ffffffffffffffffffffffffffffffffffffffff1614610f4a576040517f08c379a000000000000000000000000000000000000000000000000000000000815260040180806020018281038252602f815260200180614062602f913960400191505060405180910390fd5b610f54828261272e565b5050565b60018181548110610f6857600080fd5b906000526020600020016000915090505481565b610f84612a5f565b6000600360009054906101000a900473ffffffffffffffffffffffffffffffffffffffff1673ffffffffffffffffffffffffffffffffffffffff166318d50d33866040518263ffffffff1660e01b8152600401610fe1919061394c565b60206040518083038186803b158015610ff957600080fd5b505afa15801561100d573d6000803e3d6000fd5b505050506040513d601f19601f820116820180604052508101906110319190612ee5565b90506000600360009054906101000a900473ffffffffffffffffffffffffffffffffffffffff1673ffffffffffffffffffffffffffffffffffffffff1663be07b32e336040518263ffffffff1660e01b81526004016110909190613967565b60206040518083038186803b1580156110a857600080fd5b505afa1580156110bc573d6000803e3d6000fd5b505050506040513d601f19601f820116820180604052508101906110e09190612ee5565b905060006110ef3388886109b3565b5090508015611133576040517f08c379a000000000000000000000000000000000000000000000000000000000815260040161112a90613c83565b60405180910390fd5b81611173576040517f08c379a000000000000000000000000000000000000000000000000000000000815260040161116a90613d03565b60405180910390fd5b826111b3576040517f08c379a00000000000000000000000000000000000000000000000000000000081526004016111aa90613c43565b60405180910390fd5b6000600360009054906101000a900473ffffffffffffffffffffffffffffffffffffffff1673ffffffffffffffffffffffffffffffffffffffff1663fc7e286d896040518263ffffffff1660e01b8152600401611210919061394c565b60206040518083038186803b15801561122857600080fd5b505afa15801561123c573d6000803e3d6000fd5b505050506040513d601f19601f820116820180604052508101906112609190613001565b116112a0576040517f08c379a000000000000000000000000000000000000000000000000000000000815260040161129790613b63565b60405180910390fd5b86846020019073ffffffffffffffffffffffffffffffffffffffff16908173ffffffffffffffffffffffffffffffffffffffff16815250504284604001818152505085846080019060058111156112f357fe5b9081600581111561130057fe5b81525050848460a0019073ffffffffffffffffffffffffffffffffffffffff16908173ffffffffffffffffffffffffffffffffffffffff1681525050600460003373ffffffffffffffffffffffffffffffffffffffff1673ffffffffffffffffffffffffffffffffffffffff16815260200190815260200160002084908060018154018082558091505060019003906000526020600020906005020160009091909190915060008201518160000160006101000a81548173ffffffffffffffffffffffffffffffffffffffff021916908373ffffffffffffffffffffffffffffffffffffffff16021790555060208201518160010160006101000a81548173ffffffffffffffffffffffffffffffffffffffff021916908373ffffffffffffffffffffffffffffffffffffffff160217905550604082015181600201556060820151816003015560808201518160040160006101000a81548160ff0219169083600581111561146b57fe5b021790555060a08201518160040160016101000a81548173ffffffffffffffffffffffffffffffffffffffff021916908373ffffffffffffffffffffffffffffffffffffffff16021790555060c08201518160040160156101000a81548160ff02191690831515021790555050508673ffffffffffffffffffffffffffffffffffffffff167f2c2dbe2d2a7b83ef060aaf0987c01d917ae8b3c3f1b967f5ed2aaa5dd19ed48a33886001600460003373ffffffffffffffffffffffffffffffffffffffff1673ffffffffffffffffffffffffffffffffffffffff16815260200190815260200160002080549050038960405161156a9493929190613982565b60405180910390a250505050505050565b60006115873383610c48565b67ffffffffffffffff8111801561159d57600080fd5b506040519080825280602002602001820160405280156115cc5781602001602082028036833780820191505090505b509050600080600090505b600460003373ffffffffffffffffffffffffffffffffffffffff1673ffffffffffffffffffffffffffffffffffffffff168152602001908152602001600020805490508110156117e45783600581111561162d57fe5b600460003373ffffffffffffffffffffffffffffffffffffffff1673ffffffffffffffffffffffffffffffffffffffff168152602001908152602001600020828154811061167757fe5b906000526020600020906005020160040160009054906101000a900460ff1660058111156116a157fe5b14801561170957506000600460003373ffffffffffffffffffffffffffffffffffffffff1673ffffffffffffffffffffffffffffffffffffffff16815260200190815260200160002082815481106116f557fe5b906000526020600020906005020160030154115b156117d957600460003373ffffffffffffffffffffffffffffffffffffffff1673ffffffffffffffffffffffffffffffffffffffff168152602001908152602001600020818154811061175857fe5b906000526020600020906005020160010160009054906101000a900473ffffffffffffffffffffffffffffffffffffffff1683838151811061179657fe5b602002602001019073ffffffffffffffffffffffffffffffffffffffff16908173ffffffffffffffffffffffffffffffffffffffff168152505081806001019250505b8060010190506115d7565b5060018360058111156117f357fe5b815481106117fd57fe5b906000526020600020015481101561184a576040517f08c379a000000000000000000000000000000000000000000000000000000000815260040161184190613bc3565b60405180910390fd5b6000600660009054906101000a900473ffffffffffffffffffffffffffffffffffffffff1673ffffffffffffffffffffffffffffffffffffffff1663ac680c3f85600581111561189657fe5b85336040518463ffffffff1660e01b81526004016118b693929190613d3e565b602060405180830381600087803b1580156118d057600080fd5b505af11580156118e4573d6000803e3d6000fd5b505050506040513d601f19601f820116820180604052508101906119089190612cd3565b9050600260003373ffffffffffffffffffffffffffffffffffffffff1673ffffffffffffffffffffffffffffffffffffffff16815260200190815260200160002060018160018154018082558091505003906000526020600020505080600260003373ffffffffffffffffffffffffffffffffffffffff1673ffffffffffffffffffffffffffffffffffffffff1681526020019081526020016000206001600260003373ffffffffffffffffffffffffffffffffffffffff1673ffffffffffffffffffffffffffffffffffffffff1681526020019081526020016000208054905003815481106119f457fe5b9060005260206000200160000160006101000a81548173ffffffffffffffffffffffffffffffffffffffff021916908373ffffffffffffffffffffffffffffffffffffffff16021790555083600260003373ffffffffffffffffffffffffffffffffffffffff1673ffffffffffffffffffffffffffffffffffffffff1681526020019081526020016000206001600260003373ffffffffffffffffffffffffffffffffffffffff1673ffffffffffffffffffffffffffffffffffffffff168152602001908152602001600020805490500381548110611acf57fe5b9060005260206000200160000160146101000a81548160ff02191690836005811115611af757fe5b02179055503373ffffffffffffffffffffffffffffffffffffffff167f90691b6bd4b271754d0eb5676725798ab1ab64c7225d8e48882bc2f6add2dd098286604051611b44929190613a5f565b60405180910390a250505050565b6060806000600260008573ffffffffffffffffffffffffffffffffffffffff1673ffffffffffffffffffffffffffffffffffffffff1681526020019081526020016000208054905067ffffffffffffffff81118015611bb057600080fd5b50604051908082528060200260200182016040528015611bdf5781602001602082028036833780820191505090505b5090506000600260008673ffffffffffffffffffffffffffffffffffffffff1673ffffffffffffffffffffffffffffffffffffffff1681526020019081526020016000208054905067ffffffffffffffff81118015611c3d57600080fd5b50604051908082528060200260200182016040528015611c6c5781602001602082028036833780820191505090505b50905060005b600260008773ffffffffffffffffffffffffffffffffffffffff1673ffffffffffffffffffffffffffffffffffffffff16815260200190815260200160002080549050811015611e0f57600260008773ffffffffffffffffffffffffffffffffffffffff1673ffffffffffffffffffffffffffffffffffffffff1681526020019081526020016000208181548110611d0657fe5b9060005260206000200160000160009054906101000a900473ffffffffffffffffffffffffffffffffffffffff16838281518110611d4057fe5b602002602001019073ffffffffffffffffffffffffffffffffffffffff16908173ffffffffffffffffffffffffffffffffffffffff1681525050600260008773ffffffffffffffffffffffffffffffffffffffff1673ffffffffffffffffffffffffffffffffffffffff1681526020019081526020016000208181548110611dc457fe5b9060005260206000200160000160149054906101000a900460ff166005811115611dea57fe5b828281518110611df657fe5b6020026020010181815250508080600101915050611c72565b508181935093505050915091565b60005b600460003373ffffffffffffffffffffffffffffffffffffffff1673ffffffffffffffffffffffffffffffffffffffff1681526020019081526020016000208054905081101561212d57826005811115611e7657fe5b600460003373ffffffffffffffffffffffffffffffffffffffff1673ffffffffffffffffffffffffffffffffffffffff1681526020019081526020016000208281548110611ec057fe5b906000526020600020906005020160040160009054906101000a900460ff166005811115611eea57fe5b148015611f9d57508373ffffffffffffffffffffffffffffffffffffffff16600460003373ffffffffffffffffffffffffffffffffffffffff1673ffffffffffffffffffffffffffffffffffffffff1681526020019081526020016000208281548110611f5357fe5b906000526020600020906005020160010160009054906101000a900473ffffffffffffffffffffffffffffffffffffffff1673ffffffffffffffffffffffffffffffffffffffff16145b15612120576001600460003373ffffffffffffffffffffffffffffffffffffffff1673ffffffffffffffffffffffffffffffffffffffff1681526020019081526020016000208281548110611fee57fe5b906000526020600020906005020160040160156101000a81548160ff0219169083151502179055508173ffffffffffffffffffffffffffffffffffffffff166396cb4c0d85336040518363ffffffff1660e01b81526004016120519291906139c7565b602060405180830381600087803b15801561206b57600080fd5b505af115801561207f573d6000803e3d6000fd5b505050506040513d601f19601f820116820180604052508101906120a39190612ee5565b6120e2576040517f08c379a00000000000000000000000000000000000000000000000000000000081526004016120d990613ca3565b60405180910390fd5b7fc79fd5e121f785109eb0b6f9236759e63b1507d2388bae38d35500874fd186b6848484336040516121179493929190613a88565b60405180910390a15b8080600101915050611e20565b50505050565b6004602052816000526040600020818154811061214f57600080fd5b9060005260206000209060050201600091509150508060000160009054906101000a900473ffffffffffffffffffffffffffffffffffffffff16908060010160009054906101000a900473ffffffffffffffffffffffffffffffffffffffff16908060020154908060030154908060040160009054906101000a900460ff16908060040160019054906101000a900473ffffffffffffffffffffffffffffffffffffffff16908060040160159054906101000a900460ff16905087565b6000612235826000808681526020019081526020016000206000016127c190919063ffffffff16565b905092915050565b6000612266826000808681526020019081526020016000206000016127db90919063ffffffff16565b905092915050565b7f61c92169ef077349011ff0b1383c894d86c5f0b41d986366b58a6cf31e93beda81565b6000801b81565b600260205281600052604060002081815481106122b557600080fd5b90600052602060002001600091509150508060000160009054906101000a900473ffffffffffffffffffffffffffffffffffffffff16908060000160149054906101000a900460ff16905082565b61232d7f61c92169ef077349011ff0b1383c894d86c5f0b41d986366b58a6cf31e93beda3361223d565b61236c576040517f08c379a000000000000000000000000000000000000000000000000000000000815260040161236390613ce3565b60405180910390fd5b60008214156123b0576040517f08c379a00000000000000000000000000000000000000000000000000000000081526004016123a790613b83565b60405180910390fd5b600581111580156123c2575060008110155b612401576040517f08c379a00000000000000000000000000000000000000000000000000000000081526004016123f890613be3565b60405180910390fd5b816001828154811061240f57fe5b90600052602060002001819055507f77141346a51f055f5bb35ecb1499b0bb7d9fbf1442b909bd3fd419820ccb98b28282600581111561244b57fe5b604051612459929190613d7c565b60405180910390a15050565b60008061247133611b52565b5090506000805b82518110156125235782818151811061248d57fe5b602002602001015173ffffffffffffffffffffffffffffffffffffffff1663860008f06040518163ffffffff1660e01b815260040160206040518083038186803b1580156124da57600080fd5b505afa1580156124ee573d6000803e3d6000fd5b505050506040513d601f19601f820116820180604052508101906125129190613001565b820191508080600101915050612478565b50809250505090565b600061254b60008084815260200190815260200160002060000161280b565b9050919050565b60008351905061010081111561259d576040517f08c379a000000000000000000000000000000000000000000000000000000000815260040161259490613c63565b60405180910390fd5b60005b818110156125d3576125c68582815181106125b757fe5b60200260200101518585610f7c565b80806001019150506125a0565b5050505050565b612600600080848152602001908152602001600020600201546125fb612693565b61223d565b612655576040517f08c379a00000000000000000000000000000000000000000000000000000000081526004018080602001828103825260308152602001806140326030913960400191505060405180910390fd5b61265f828261272e565b5050565b600061268b836000018373ffffffffffffffffffffffffffffffffffffffff1660001b612820565b905092915050565b600033905090565b6126c28160008085815260200190815260200160002060000161266390919063ffffffff16565b1561272a576126cf612693565b73ffffffffffffffffffffffffffffffffffffffff168173ffffffffffffffffffffffffffffffffffffffff16837f2f8788117e7eff1d82e926ec794901d17c78024a50270940304540a733656f0d60405160405180910390a45b5050565b6127558160008085815260200190815260200160002060000161289090919063ffffffff16565b156127bd57612762612693565b73ffffffffffffffffffffffffffffffffffffffff168173ffffffffffffffffffffffffffffffffffffffff16837ff6391f5c32d9c69d2a47ea670b442974b53935d1edc7fd64eb21e047a839171b60405160405180910390a45b5050565b60006127d083600001836128c0565b60001c905092915050565b6000612803836000018373ffffffffffffffffffffffffffffffffffffffff1660001b612943565b905092915050565b600061281982600001612966565b9050919050565b600061282c8383612943565b61288557826000018290806001815401808255809150506001900390600052602060002001600090919091909150558260000180549050836001016000848152602001908152602001600020819055506001905061288a565b600090505b92915050565b60006128b8836000018373ffffffffffffffffffffffffffffffffffffffff1660001b612977565b905092915050565b600081836000018054905011612921576040517f08c379a0000000000000000000000000000000000000000000000000000000008152600401808060200182810382526022815260200180613fe16022913960400191505060405180910390fd5b82600001828154811061293057fe5b9060005260206000200154905092915050565b600080836001016000848152602001908152602001600020541415905092915050565b600081600001805490509050919050565b60008083600101600084815260200190815260200160002054905060008114612a5357600060018203905060006001866000018054905003905060008660000182815481106129c257fe5b90600052602060002001549050808760000184815481106129df57fe5b9060005260206000200181905550600183018760010160008381526020019081526020016000208190555086600001805480612a1757fe5b60019003818190600052602060002001600090559055866001016000878152602001908152602001600020600090556001945050505050612a59565b60009150505b92915050565b6040518060e00160405280600073ffffffffffffffffffffffffffffffffffffffff168152602001600073ffffffffffffffffffffffffffffffffffffffff168152602001600081526020016000815260200160006005811115612abf57fe5b8152602001600073ffffffffffffffffffffffffffffffffffffffff1681526020016000151581525090565b6000612afe612af984613dd6565b613da5565b90508083825260208201905082856020860282011115612b1d57600080fd5b60005b85811015612b4d5781612b338882612bc3565b845260208401935060208301925050600181019050612b20565b5050509392505050565b6000612b6a612b6584613e02565b613da5565b90508083825260208201905082856020860282011115612b8957600080fd5b60005b85811015612bb95781612b9f8882612c80565b845260208401935060208301925050600181019050612b8c565b5050509392505050565b600081359050612bd281613f74565b92915050565b600081519050612be781613f74565b92915050565b600082601f830112612bfe57600080fd5b8135612c0e848260208601612aeb565b91505092915050565b600082601f830112612c2857600080fd5b8135612c38848260208601612b57565b91505092915050565b600081519050612c5081613f8b565b92915050565b600081359050612c6581613fa2565b92915050565b600081359050612c7a81613fb9565b92915050565b600081359050612c8f81613fc9565b92915050565b600081519050612ca481613fc9565b92915050565b600060208284031215612cbc57600080fd5b6000612cca84828501612bc3565b91505092915050565b600060208284031215612ce557600080fd5b6000612cf384828501612bd8565b91505092915050565b600080600060608486031215612d1157600080fd5b6000612d1f86828701612bc3565b9350506020612d3086828701612bc3565b9250506040612d4186828701612c6b565b9150509250925092565b60008060408385031215612d5e57600080fd5b6000612d6c85828601612bc3565b9250506020612d7d85828601612c6b565b9150509250929050565b600080600060608486031215612d9c57600080fd5b6000612daa86828701612bc3565b9350506020612dbb86828701612c6b565b9250506040612dcc86828701612bc3565b9150509250925092565b60008060408385031215612de957600080fd5b6000612df785828601612bc3565b9250506020612e0885828601612c80565b9150509250929050565b60008060408385031215612e2557600080fd5b600083013567ffffffffffffffff811115612e3f57600080fd5b612e4b85828601612bed565b925050602083013567ffffffffffffffff811115612e6857600080fd5b612e7485828601612c17565b9150509250929050565b600080600060608486031215612e9357600080fd5b600084013567ffffffffffffffff811115612ead57600080fd5b612eb986828701612bed565b9350506020612eca86828701612c6b565b9250506040612edb86828701612bc3565b9150509250925092565b600060208284031215612ef757600080fd5b6000612f0584828501612c41565b91505092915050565b600060208284031215612f2057600080fd5b6000612f2e84828501612c56565b91505092915050565b60008060408385031215612f4a57600080fd5b6000612f5885828601612c56565b9250506020612f6985828601612bc3565b9150509250929050565b60008060408385031215612f8657600080fd5b6000612f9485828601612c56565b9250506020612fa585828601612c80565b9150509250929050565b600060208284031215612fc157600080fd5b6000612fcf84828501612c6b565b91505092915050565b600060208284031215612fea57600080fd5b6000612ff884828501612c80565b91505092915050565b60006020828403121561301357600080fd5b600061302184828501612c95565b91505092915050565b6000806040838503121561303d57600080fd5b600061304b85828601612c80565b925050602061305c85828601612c80565b9150509250929050565b600061307283836130a5565b60208301905092915050565b600061308a838361392e565b60208301905092915050565b61309f81613f16565b82525050565b6130ae81613eb1565b82525050565b6130bd81613eb1565b82525050565b60006130ce82613e4e565b6130d88185613e7e565b93506130e383613e2e565b8060005b838110156131145781516130fb8882613066565b975061310683613e64565b9250506001810190506130e7565b5085935050505092915050565b600061312c82613e59565b6131368185613e8f565b935061314183613e3e565b8060005b83811015613172578151613159888261307e565b975061316483613e71565b925050600181019050613145565b5085935050505092915050565b61318881613ec3565b82525050565b61319781613ecf565b82525050565b6131a681613f28565b82525050565b60006131b9604d83613ea0565b91507f436f686f7274466163746f72793a696e7669746556616c696461746f72202d2060008301527f546869732076616c696461746f7220686173206e6f74207374616b656420616e60208301527f7920746f6b656e73207965742e000000000000000000000000000000000000006040830152606082019050919050565b6000613245606283613ea0565b91507f437265617465436f686f72743a7570646174654d696e56616c696461746f727360008301527f506572436f686f7274202d204e65772076616c756520666f722074686520206d60208301527f696e2076616c696461746f722070657220636f686f72742063616e277420626560408301527f20300000000000000000000000000000000000000000000000000000000000006060830152608082019050919050565b60006132f7603e83613ea0565b91507f436f686f7274466163746f72793a616363657074496e7669746174696f6e202d60008301527f205468697320696e7669746174696f6e20646f65736e277420657869737400006020830152604082019050919050565b600061335d604983613ea0565b91507f436f686f7274466163746f72793a637265617465436f686f7274202d204e756d60008301527f626572206f662076616c696461746f72732062656c6f7720726571756972656460208301527f206d696e696d756d2e00000000000000000000000000000000000000000000006040830152606082019050919050565b60006133e9604f83613ea0565b91507f436f686f727420466163746f72793a7570646174654d696e56616c696461746f60008301527f7273506572436f686f7274202d20417564697420747970652068617320746f2060208301527f6265203c3d203520616e64203e3d3000000000000000000000000000000000006040830152606082019050919050565b6000613475604b83613ea0565b91507f436f686f7274466163746f72793a616363657074496e7669746174696f6e2d2060008301527f5468697320696e7669746174696f6e20686173206265656e206163636570746560208301527f6420616c7265616479202e0000000000000000000000000000000000000000006040830152606082019050919050565b6000613501603c83613ea0565b91507f436f686f7274466163746f72793a696e7669746556616c696461746f72202d2060008301527f50726f626c656d20616464696e67206e65772076616c696461746f72000000006020830152604082019050919050565b6000613567604883613ea0565b91507f436f686f7274466163746f72793a696e7669746556616c696461746f72202d2060008301527f4f6e6c7920417070726f7665642056616c696461746f72732063616e2062652060208301527f696e76697465642e0000000000000000000000000000000000000000000000006040830152606082019050919050565b60006135f3603483613ea0565b91507f436f686f7274466163746f72792d696e7669746556616c696461746f724d756c60008301527f7469706c653a204c69737420746f6f206c6f6e670000000000000000000000006020830152604082019050919050565b6000613659606183613ea0565b91507f436f686f7274466163746f72793a696e7669746556616c696461746f72202d2060008301527f546869732076616c696461746f7220686173206265656e20616c72656164792060208301527f696e766974656420666f7220746869732076616c69646174696f6e207479706560408301527f2e000000000000000000000000000000000000000000000000000000000000006060830152608082019050919050565b600061370b605683613ea0565b91507f436f686f7274466163746f72793a636c656172496e7669746174696f6e56616c60008301527f696461746f72202d2050726f626c656d2072656d6f76696e672076616c69646160208301527f746f7220696e20436f686f727420636f6e7472616374000000000000000000006040830152606082019050919050565b6000613797607d83613ea0565b91507f436f686f7274466163746f72793a616363657074496e7669746174696f6e202d60008301527f20596f752061726520616363657074696e6720696e7669746174696f6e20746f60208301527f20776869636820796f752077657265206e6f7420696e7669746564206f72207460408301527f68697320696e7669746174696f6e20646f65736e27742065786973742e0000006060830152608082019050919050565b6000613849602983613ea0565b91507f4d656d626572733a6973536574746572202d2043616c6c6572206973206e6f7460008301527f20612073657474657200000000000000000000000000000000000000000000006020830152604082019050919050565b60006138af604b83613ea0565b91507f436f686f7274466163746f72793a696e7669746556616c696461746f72202d2060008301527f4f6e6c7920456e746572707269736520757365722063616e20696e766974652060208301527f56616c696461746f72732e0000000000000000000000000000000000000000006040830152606082019050919050565b61393781613f0c565b82525050565b61394681613f0c565b82525050565b600060208201905061396160008301846130b4565b92915050565b600060208201905061397c6000830184613096565b92915050565b60006080820190506139976000830187613096565b6139a4602083018661319d565b6139b1604083018561393d565b6139be60608301846130b4565b95945050505050565b60006040820190506139dc60008301856130b4565b6139e96020830184613096565b9392505050565b600060e082019050613a05600083018a6130b4565b613a1260208301896130b4565b613a1f604083018861393d565b613a2c606083018761393d565b613a39608083018661319d565b613a4660a08301856130b4565b613a5360c083018461317f565b98975050505050505050565b6000604082019050613a7460008301856130b4565b613a81602083018461319d565b9392505050565b6000608082019050613a9d60008301876130b4565b613aaa602083018661319d565b613ab760408301856130b4565b613ac46060830184613096565b95945050505050565b60006040820190508181036000830152613ae781856130c3565b90508181036020830152613afb8184613121565b90509392505050565b6000602082019050613b19600083018461317f565b92915050565b6000604082019050613b34600083018561317f565b613b41602083018461317f565b9392505050565b6000602082019050613b5d600083018461318e565b92915050565b60006020820190508181036000830152613b7c816131ac565b9050919050565b60006020820190508181036000830152613b9c81613238565b9050919050565b60006020820190508181036000830152613bbc816132ea565b9050919050565b60006020820190508181036000830152613bdc81613350565b9050919050565b60006020820190508181036000830152613bfc816133dc565b9050919050565b60006020820190508181036000830152613c1c81613468565b9050919050565b60006020820190508181036000830152613c3c816134f4565b9050919050565b60006020820190508181036000830152613c5c8161355a565b9050919050565b60006020820190508181036000830152613c7c816135e6565b9050919050565b60006020820190508181036000830152613c9c8161364c565b9050919050565b60006020820190508181036000830152613cbc816136fe565b9050919050565b60006020820190508181036000830152613cdc8161378a565b9050919050565b60006020820190508181036000830152613cfc8161383c565b9050919050565b60006020820190508181036000830152613d1c816138a2565b9050919050565b6000602082019050613d38600083018461393d565b92915050565b6000606082019050613d53600083018661393d565b8181036020830152613d6581856130c3565b9050613d746040830184613096565b949350505050565b6000604082019050613d91600083018561393d565b613d9e602083018461319d565b9392505050565b6000604051905081810181811067ffffffffffffffff82111715613dcc57613dcb613f5e565b5b8060405250919050565b600067ffffffffffffffff821115613df157613df0613f5e565b5b602082029050602081019050919050565b600067ffffffffffffffff821115613e1d57613e1c613f5e565b5b602082029050602081019050919050565b6000819050602082019050919050565b6000819050602082019050919050565b600081519050919050565b600081519050919050565b6000602082019050919050565b6000602082019050919050565b600082825260208201905092915050565b600082825260208201905092915050565b600082825260208201905092915050565b6000613ebc82613eec565b9050919050565b60008115159050919050565b6000819050919050565b6000819050613ee782613f60565b919050565b600073ffffffffffffffffffffffffffffffffffffffff82169050919050565b6000819050919050565b6000613f2182613f3a565b9050919050565b6000613f3382613ed9565b9050919050565b6000613f4582613f4c565b9050919050565b6000613f5782613eec565b9050919050565bfe5b60068110613f7157613f70613f5e565b5b50565b613f7d81613eb1565b8114613f8857600080fd5b50565b613f9481613ec3565b8114613f9f57600080fd5b50565b613fab81613ecf565b8114613fb657600080fd5b50565b60068110613fc657600080fd5b50565b613fd281613f0c565b8114613fdd57600080fd5b5056fe456e756d657261626c655365743a20696e646578206f7574206f6620626f756e6473416363657373436f6e74726f6c3a2073656e646572206d75737420626520616e2061646d696e20746f206772616e74416363657373436f6e74726f6c3a2073656e646572206d75737420626520616e2061646d696e20746f207265766f6b65416363657373436f6e74726f6c3a2063616e206f6e6c792072656e6f756e636520726f6c657320666f722073656c66a26469706673582212201003e0cea96d09bb5c92418c08ca4d053e7bb63739f6fe3f92b53d2c12ed15c864736f6c63430007060033",
  "immutableReferences": {},
  "source": "// SPDX-License-Identifier: MIT\npragma solidity =0.7.6;\npragma experimental ABIEncoderV2;\nimport \"@openzeppelin/contracts/access/AccessControl.sol\";\nimport \"./Members.sol\";\nimport \"./CreateCohort.sol\";\n\n/**\n * @title CohortFactory\n * Allows on creation of invitations by Enterprise and acceptance of Validators of those \n * invitations. Finally Enterprise can create cohort consisting of invited Validators\n * and Enterprise. \n */\n\ncontract CohortFactory is  AccessControl {\n\n    // Audit types to be used. Two types added for future expansion \n    enum AuditTypes {\n        Financial, System, Contract, NFT, Type5, Type6\n    }\n\n    uint256[] public minValidatorPerCohort = [3,3,3,3,3,3];\n\n    // Invitation structure to hold info about its status\n    struct Invitation {\n        address enterprise;\n        address validator;\n        uint256 invitationDate;      \n        uint256 acceptanceDate;\n        AuditTypes audits;\n        address cohort;\n        bool deleted;\n    }\n\n    struct Cohorts {\n        address cohort;\n        AuditTypes audits;\n    }\n\n    mapping(address => Cohorts[]) public cohortList;\n\n    Members members;                                            // pointer to Members contract1 \n    mapping (address =>  Invitation[]) public invitations;      // invitations list\n    address platformAddress;                                    // address to deposit platform fees\n    address createCohortAddress;\n\n    bytes32 public constant SETTER_ROLE =  keccak256(\"SETTER_ROLE\");\n\n    event ValidatorInvited(address  inviting, address indexed invitee, AuditTypes audits, uint256 invitationNumber, address cohort);\n    event InvitationAccepted(address indexed validator, uint256 invitationNumber);\n    event CohortCreated(address indexed enterprise, address cohort, AuditTypes audits);\n    event UpdateMinValidatorsPerCohort(uint256 minValidatorPerCohort, AuditTypes audits);\n    event ValidatorCleared(address validator, AuditTypes audit, address cohort, address enterprise);\n\n    /// @dev check if caller is a setter     \n    modifier isSetter {\n        require(hasRole(SETTER_ROLE, msg.sender), \"Members:isSetter - Caller is not a setter\");\n\n        _;\n    }\n\n    constructor(Members _members,  address _createCohortAddress ) {\n        members = _members;\n        createCohortAddress = _createCohortAddress;\n        _setupRole(DEFAULT_ADMIN_ROLE, msg.sender); // \n    }\n   \n    /**\n    * @dev to be called by Governance contract to update new value for min validators per cohort\n    * @param _minValidatorPerCohort new value \n    */\n    function updateMinValidatorsPerCohort(uint256 _minValidatorPerCohort, uint256 audits) public isSetter() {\n\n        require(_minValidatorPerCohort != 0, \"CreateCohort:updateMinValidatorsPerCohort - New value for the  min validator per cohort can't be 0\");\n        require(audits <= 5 && audits >=0 , \"Cohort Factory:updateMinValidatorsPerCohort - Audit type has to be <= 5 and >=0\");\n        minValidatorPerCohort[uint256(audits)] = _minValidatorPerCohort;\n        emit UpdateMinValidatorsPerCohort(_minValidatorPerCohort, AuditTypes(audits));\n    }\n\n    /**\n    * @dev Used by Enterprise to invite validator\n    * @param validator address of the validator to invite\n    * @param audit type of the audit\n    */\n    function inviteValidator(address validator, AuditTypes audit, address cohort) public {\n\n        Invitation memory newInvitation;\n        bool approvedValidator = members.validatorMap(validator);\n        bool isEnterprise = members.enterpriseMap(msg.sender);\n        (bool invited, ) = isValidatorInvited(msg.sender, validator, audit);\n        require( !invited , \"CohortFactory:inviteValidator - This validator has been already invited for this validation type.\" );\n        require( isEnterprise, \"CohortFactory:inviteValidator - Only Enterprise user can invite Validators.\");\n        require( approvedValidator, \"CohortFactory:inviteValidator - Only Approved Validators can be invited.\");\n        require( members.deposits(validator) > 0,\"CohortFactory:inviteValidator - This validator has not staked any tokens yet.\");\n        newInvitation.validator = validator;\n        newInvitation.invitationDate = block.timestamp;     \n        newInvitation.audits = audit;   \n        newInvitation.cohort = cohort;\n        invitations[msg.sender].push(newInvitation);\n       \n        emit ValidatorInvited(msg.sender, validator, audit, invitations[msg.sender].length - 1, cohort);\n    }\n\n    /**\n    * @dev Used by Enterprise to invite multiple validators in one call \n    * @param validator address of the validator to invite\n    * @param audit type of the audit\n    */\n    function inviteValidatorMultiple(address[] memory validator, AuditTypes audit, address cohort) public{\n\n        uint256 length = validator.length;\n        require(length <= 256, \"CohortFactory-inviteValidatorMultiple: List too long\");\n        for (uint256 i = 0; i < length; i++) {\n            inviteValidator(validator[i], audit, cohort);\n        }\n    }\n\n    /**\n    * @dev Used by Validator to accept Enterprise invitation\n    * @param enterprise address of the Enterprise who created invitation\n    * @param invitationNumber invitation number\n    */\n    function acceptInvitation(address enterprise, uint256 invitationNumber) public {\n\n        require( invitations[enterprise].length > invitationNumber, \"CohortFactory:acceptInvitation - This invitation doesn't exist\");\n        require( invitations[enterprise][invitationNumber].acceptanceDate == 0, \"CohortFactory:acceptInvitation- This invitation has been accepted already .\");\n        require( invitations[enterprise][invitationNumber].validator == msg.sender, \"CohortFactory:acceptInvitation - You are accepting invitation to which you were not invited or this invitation doesn't exist.\");\n        invitations[enterprise][invitationNumber].acceptanceDate = block.timestamp;\n\n            if (invitations[enterprise][invitationNumber].cohort != address(0)) // adding validator to existing cohort\n                require(\n                    ICohort(invitations[enterprise][invitationNumber].cohort)\n                    .addAdditionalValidator(msg.sender), \n                    \"CohortFactory:inviteValidator - Problem adding new validator\"\n                    );\n\n        emit InvitationAccepted(msg.sender, invitationNumber);\n    }\n\n    /**\n    * @dev Used by Enterprise to remove existing validator\n    * @param validator validator to remove\n    * @param audit type of audit \n    * @param cohort cohort from which validator is removed\n    */\n    function clearInvitationRemoveValidator(address validator, AuditTypes audit, address cohort) public {\n\n        for (uint256 i = 0; i < invitations[msg.sender].length; i++){\n            if (invitations[msg.sender][i].audits == audit && \n                invitations[msg.sender][i].validator ==  validator){\n                invitations[msg.sender][i].deleted = true;\n                require(ICohort(cohort).removeValidator(validator, msg.sender), \n                        \"CohortFactory:clearInvitationValidator - Problem removing validator in Cohort contract\");\n                emit ValidatorCleared(validator, audit, cohort, msg.sender);\n            }\n        }\n    }\n\n    /**\n    * @dev Used by Validator to accept multiple Enterprise invitation\n    * @param enterprise address of the Enterprise who created invitation\n    * @param invitationNumber invitation number\n    */\n    function acceptInvitationMultiple(address[] memory enterprise, uint256[] memory invitationNumber) public{\n\n        uint256 length = enterprise.length;\n        for (uint256 i = 0; i < length; i++) {\n            acceptInvitation(enterprise[i], invitationNumber[i]);\n        }\n    }\n\n    /**\n    * @dev To return invitation count\n    * @param enterprise address of the Enterprise who created invitation\n    * @param audit type\n    * @return count of invitations\n    */\n    function returnInvitationCount(address enterprise, AuditTypes audit) public view returns(uint256) {\n\n        uint256 count;\n\n        for (uint i=0; i < invitations[enterprise].length; ++i ){\n            if (invitations[enterprise][i].audits == audit && \n                invitations[enterprise][i].acceptanceDate != 0 &&\n                !invitations[enterprise][i].deleted)\n                count ++;\n        }\n        return count;\n    }\n\n    /**\n    * @dev Used to determine if validator has been invited and/or if validation has been accepted\n    * @param enterprise inviting party\n    * @param validator address of the validator\n    * @param audits types\n    * @return true if invited\n    * @return true if accepted invitation\n    */\n    function isValidatorInvited(address enterprise, address validator, AuditTypes audits) public view returns (bool, bool) {\n\n        for (uint i=0; i < invitations[enterprise].length; ++i ){\n            if (invitations[enterprise][i].audits == audits && \n                invitations[enterprise][i].validator == validator &&\n                !invitations[enterprise][i].deleted){\n                if (invitations[enterprise][i].acceptanceDate > 0)\n                    return (true, true);\n                return (true, false);\n            }\n        }\n        return (false, false);\n    }\n\n     /**\n    * @dev Used to return list of cohorts for enterprise\n    * @param enterprise inviting party\n    * @return cohort address \n    * @return audit type\n    */\n    function returnCohorts(address enterprise) public view returns (address[] memory, uint256[] memory){\n\n        address[] memory cohort = new address[](cohortList[enterprise].length);\n        uint256[] memory audits = new uint256[](cohortList[enterprise].length);\n\n        for (uint256 i; i < cohortList[enterprise].length; i++){\n            cohort[i] = cohortList[enterprise][i].cohort;\n            audits[i] = uint256(cohortList[enterprise][i].audits);\n        }\n        return (cohort, audits);\n    }\n\n     /**\n     * @dev Function to calculate outstanding validations for enterprise. \n     */   \n    function returnOutstandingValidations() public view returns(uint256) {\n\n         (address[] memory cohorts, ) = returnCohorts(msg.sender);\n         uint totalOutstandingValidations;\n\n         for (uint256 i; i< cohorts.length; i++)\n             totalOutstandingValidations = totalOutstandingValidations + ICohort(cohorts[i]).outstandingValidations();\n\n        return totalOutstandingValidations;\n    }\n\n    /**\n    * @dev Initiate creation a new cohort using create2 methods based on the audit type and enterprise combination\n    * @param audit type\n    */\n    function createCohort(AuditTypes audit) public {\n        address[] memory validatorsList = new address[](returnInvitationCount(msg.sender, audit));\n        uint k;\n        for (uint i=0; i < invitations[msg.sender].length; ++i ){\n            if (invitations[msg.sender][i].audits == audit && invitations[msg.sender][i].acceptanceDate > 0){\n                validatorsList[k] = invitations[msg.sender][i].validator;\n                k++;\n            }\n        }\n        require(k >= minValidatorPerCohort[uint256(audit)], \"CohortFactory:createCohort - Number of validators below required minimum.\");\n\n        address cohortAddress = CreateCohort(createCohortAddress).createCohort(uint256(audit),  validatorsList, msg.sender );\n        cohortList[msg.sender].push();\n        cohortList[msg.sender][cohortList[msg.sender].length - 1].cohort = cohortAddress;\n        cohortList[msg.sender][cohortList[msg.sender].length - 1].audits = audit;\n\n        emit CohortCreated(msg.sender, cohortAddress, AuditTypes(audit));\n        \n    }\n}\n",
  "sourcePath": "/home/bogdan/Ethereum/Projects/TGE/Core-Smart-Contracts-v1/contracts/Auditchain/CohortFactory.sol",
  "compiler": {
    "name": "solc",
    "version": "0.7.6+commit.7338295f.Emscripten.clang"
  },
  "schemaVersion": "3.3.4",
  "updatedAt": "2021-04-09T20:13:08.553Z",
  "networkType": "ethereum",
  "devdoc": {
    "kind": "dev",
    "methods": {
      "acceptInvitation(address,uint256)": {
        "details": "Used by Validator to accept Enterprise invitation",
        "params": {
          "enterprise": "address of the Enterprise who created invitation",
          "invitationNumber": "invitation number"
        }
      },
      "acceptInvitationMultiple(address[],uint256[])": {
        "details": "Used by Validator to accept multiple Enterprise invitation",
        "params": {
          "enterprise": "address of the Enterprise who created invitation",
          "invitationNumber": "invitation number"
        }
      },
      "clearInvitationRemoveValidator(address,uint8,address)": {
        "details": "Used by Enterprise to remove existing validator",
        "params": {
          "audit": "type of audit ",
          "cohort": "cohort from which validator is removed",
          "validator": "validator to remove"
        }
      },
      "createCohort(uint8)": {
        "details": "Initiate creation a new cohort using create2 methods based on the audit type and enterprise combination",
        "params": {
          "audit": "type"
        }
      },
      "getRoleAdmin(bytes32)": {
        "details": "Returns the admin role that controls `role`. See {grantRole} and {revokeRole}. To change a role's admin, use {_setRoleAdmin}."
      },
      "getRoleMember(bytes32,uint256)": {
        "details": "Returns one of the accounts that have `role`. `index` must be a value between 0 and {getRoleMemberCount}, non-inclusive. Role bearers are not sorted in any particular way, and their ordering may change at any point. WARNING: When using {getRoleMember} and {getRoleMemberCount}, make sure you perform all queries on the same block. See the following https://forum.openzeppelin.com/t/iterating-over-elements-on-enumerableset-in-openzeppelin-contracts/2296[forum post] for more information."
      },
      "getRoleMemberCount(bytes32)": {
        "details": "Returns the number of accounts that have `role`. Can be used together with {getRoleMember} to enumerate all bearers of a role."
      },
      "grantRole(bytes32,address)": {
        "details": "Grants `role` to `account`. If `account` had not been already granted `role`, emits a {RoleGranted} event. Requirements: - the caller must have ``role``'s admin role."
      },
      "hasRole(bytes32,address)": {
        "details": "Returns `true` if `account` has been granted `role`."
      },
      "inviteValidator(address,uint8,address)": {
        "details": "Used by Enterprise to invite validator",
        "params": {
          "audit": "type of the audit",
          "validator": "address of the validator to invite"
        }
      },
      "inviteValidatorMultiple(address[],uint8,address)": {
        "details": "Used by Enterprise to invite multiple validators in one call ",
        "params": {
          "audit": "type of the audit",
          "validator": "address of the validator to invite"
        }
      },
      "isValidatorInvited(address,address,uint8)": {
        "details": "Used to determine if validator has been invited and/or if validation has been accepted",
        "params": {
          "audits": "types",
          "enterprise": "inviting party",
          "validator": "address of the validator"
        },
        "returns": {
          "_0": "true if invited",
          "_1": "true if accepted invitation"
        }
      },
      "renounceRole(bytes32,address)": {
        "details": "Revokes `role` from the calling account. Roles are often managed via {grantRole} and {revokeRole}: this function's purpose is to provide a mechanism for accounts to lose their privileges if they are compromised (such as when a trusted device is misplaced). If the calling account had been granted `role`, emits a {RoleRevoked} event. Requirements: - the caller must be `account`."
      },
      "returnCohorts(address)": {
        "details": "Used to return list of cohorts for enterprise",
        "params": {
          "enterprise": "inviting party"
        },
        "returns": {
          "_0": "cohort address ",
          "_1": "audit type"
        }
      },
      "returnInvitationCount(address,uint8)": {
        "details": "To return invitation count",
        "params": {
          "audit": "type",
          "enterprise": "address of the Enterprise who created invitation"
        },
        "returns": {
          "_0": "count of invitations"
        }
      },
      "returnOutstandingValidations()": {
        "details": "Function to calculate outstanding validations for enterprise. "
      },
      "revokeRole(bytes32,address)": {
        "details": "Revokes `role` from `account`. If `account` had been granted `role`, emits a {RoleRevoked} event. Requirements: - the caller must have ``role``'s admin role."
      },
      "updateMinValidatorsPerCohort(uint256,uint256)": {
        "details": "to be called by Governance contract to update new value for min validators per cohort",
        "params": {
          "_minValidatorPerCohort": "new value "
        }
      }
    },
    "title": "CohortFactory Allows on creation of invitations by Enterprise and acceptance of Validators of those  invitations. Finally Enterprise can create cohort consisting of invited Validators and Enterprise. ",
    "version": 1
  },
  "userdoc": {
    "kind": "user",
    "methods": {},
    "version": 1
  }
}