{
  "contractName": "CohortFactory",
  "abi": [
    {
      "inputs": [
        {
          "internalType": "contract Members",
          "name": "_members",
          "type": "address"
        },
        {
          "internalType": "address",
          "name": "_createCohortAddress",
          "type": "address"
        }
      ],
      "stateMutability": "nonpayable",
      "type": "constructor"
    },
    {
      "anonymous": false,
      "inputs": [
        {
          "indexed": true,
          "internalType": "address",
          "name": "enterprise",
          "type": "address"
        },
        {
          "indexed": true,
          "internalType": "address",
          "name": "cohort",
          "type": "address"
        },
        {
          "indexed": false,
          "internalType": "enum CohortFactory.AuditTypes",
          "name": "audits",
          "type": "uint8"
        }
      ],
      "name": "CohortCreated",
      "type": "event"
    },
    {
      "anonymous": false,
      "inputs": [
        {
          "indexed": true,
          "internalType": "address",
          "name": "validator",
          "type": "address"
        },
        {
          "indexed": false,
          "internalType": "uint256",
          "name": "invitationNumber",
          "type": "uint256"
        }
      ],
      "name": "InvitationAccepted",
      "type": "event"
    },
    {
      "anonymous": false,
      "inputs": [
        {
          "indexed": true,
          "internalType": "bytes32",
          "name": "role",
          "type": "bytes32"
        },
        {
          "indexed": true,
          "internalType": "bytes32",
          "name": "previousAdminRole",
          "type": "bytes32"
        },
        {
          "indexed": true,
          "internalType": "bytes32",
          "name": "newAdminRole",
          "type": "bytes32"
        }
      ],
      "name": "RoleAdminChanged",
      "type": "event"
    },
    {
      "anonymous": false,
      "inputs": [
        {
          "indexed": true,
          "internalType": "bytes32",
          "name": "role",
          "type": "bytes32"
        },
        {
          "indexed": true,
          "internalType": "address",
          "name": "account",
          "type": "address"
        },
        {
          "indexed": true,
          "internalType": "address",
          "name": "sender",
          "type": "address"
        }
      ],
      "name": "RoleGranted",
      "type": "event"
    },
    {
      "anonymous": false,
      "inputs": [
        {
          "indexed": true,
          "internalType": "bytes32",
          "name": "role",
          "type": "bytes32"
        },
        {
          "indexed": true,
          "internalType": "address",
          "name": "account",
          "type": "address"
        },
        {
          "indexed": true,
          "internalType": "address",
          "name": "sender",
          "type": "address"
        }
      ],
      "name": "RoleRevoked",
      "type": "event"
    },
    {
      "anonymous": false,
      "inputs": [
        {
          "indexed": false,
          "internalType": "uint256",
          "name": "minValidatorPerCohort",
          "type": "uint256"
        },
        {
          "indexed": false,
          "internalType": "enum CohortFactory.AuditTypes",
          "name": "audits",
          "type": "uint8"
        }
      ],
      "name": "UpdateMinValidatorsPerCohort",
      "type": "event"
    },
    {
      "anonymous": false,
      "inputs": [
        {
          "indexed": false,
          "internalType": "address",
          "name": "validator",
          "type": "address"
        },
        {
          "indexed": false,
          "internalType": "enum CohortFactory.AuditTypes",
          "name": "audit",
          "type": "uint8"
        },
        {
          "indexed": false,
          "internalType": "address",
          "name": "cohort",
          "type": "address"
        },
        {
          "indexed": false,
          "internalType": "address",
          "name": "enterprise",
          "type": "address"
        }
      ],
      "name": "ValidatorCleared",
      "type": "event"
    },
    {
      "anonymous": false,
      "inputs": [
        {
          "indexed": true,
          "internalType": "address",
          "name": "inviting",
          "type": "address"
        },
        {
          "indexed": true,
          "internalType": "address",
          "name": "invitee",
          "type": "address"
        },
        {
          "indexed": false,
          "internalType": "enum CohortFactory.AuditTypes",
          "name": "audits",
          "type": "uint8"
        },
        {
          "indexed": false,
          "internalType": "uint256",
          "name": "invitationNumber",
          "type": "uint256"
        },
        {
          "indexed": false,
          "internalType": "address",
          "name": "cohort",
          "type": "address"
        }
      ],
      "name": "ValidatorInvited",
      "type": "event"
    },
    {
      "inputs": [],
      "name": "DEFAULT_ADMIN_ROLE",
      "outputs": [
        {
          "internalType": "bytes32",
          "name": "",
          "type": "bytes32"
        }
      ],
      "stateMutability": "view",
      "type": "function",
      "constant": true
    },
    {
      "inputs": [],
      "name": "SETTER_ROLE",
      "outputs": [
        {
          "internalType": "bytes32",
          "name": "",
          "type": "bytes32"
        }
      ],
      "stateMutability": "view",
      "type": "function",
      "constant": true
    },
    {
      "inputs": [
        {
          "internalType": "address",
          "name": "",
          "type": "address"
        },
        {
          "internalType": "uint256",
          "name": "",
          "type": "uint256"
        }
      ],
      "name": "cohortList",
      "outputs": [
        {
          "internalType": "address",
          "name": "cohort",
          "type": "address"
        },
        {
          "internalType": "enum CohortFactory.AuditTypes",
          "name": "audits",
          "type": "uint8"
        }
      ],
      "stateMutability": "view",
      "type": "function",
      "constant": true
    },
    {
      "inputs": [
        {
          "internalType": "bytes32",
          "name": "role",
          "type": "bytes32"
        }
      ],
      "name": "getRoleAdmin",
      "outputs": [
        {
          "internalType": "bytes32",
          "name": "",
          "type": "bytes32"
        }
      ],
      "stateMutability": "view",
      "type": "function",
      "constant": true
    },
    {
      "inputs": [
        {
          "internalType": "bytes32",
          "name": "role",
          "type": "bytes32"
        },
        {
          "internalType": "uint256",
          "name": "index",
          "type": "uint256"
        }
      ],
      "name": "getRoleMember",
      "outputs": [
        {
          "internalType": "address",
          "name": "",
          "type": "address"
        }
      ],
      "stateMutability": "view",
      "type": "function",
      "constant": true
    },
    {
      "inputs": [
        {
          "internalType": "bytes32",
          "name": "role",
          "type": "bytes32"
        }
      ],
      "name": "getRoleMemberCount",
      "outputs": [
        {
          "internalType": "uint256",
          "name": "",
          "type": "uint256"
        }
      ],
      "stateMutability": "view",
      "type": "function",
      "constant": true
    },
    {
      "inputs": [
        {
          "internalType": "bytes32",
          "name": "role",
          "type": "bytes32"
        },
        {
          "internalType": "address",
          "name": "account",
          "type": "address"
        }
      ],
      "name": "grantRole",
      "outputs": [],
      "stateMutability": "nonpayable",
      "type": "function"
    },
    {
      "inputs": [
        {
          "internalType": "bytes32",
          "name": "role",
          "type": "bytes32"
        },
        {
          "internalType": "address",
          "name": "account",
          "type": "address"
        }
      ],
      "name": "hasRole",
      "outputs": [
        {
          "internalType": "bool",
          "name": "",
          "type": "bool"
        }
      ],
      "stateMutability": "view",
      "type": "function",
      "constant": true
    },
    {
      "inputs": [
        {
          "internalType": "address",
          "name": "",
          "type": "address"
        },
        {
          "internalType": "uint256",
          "name": "",
          "type": "uint256"
        }
      ],
      "name": "invitations",
      "outputs": [
        {
          "internalType": "address",
          "name": "enterprise",
          "type": "address"
        },
        {
          "internalType": "address",
          "name": "validator",
          "type": "address"
        },
        {
          "internalType": "uint256",
          "name": "invitationDate",
          "type": "uint256"
        },
        {
          "internalType": "uint256",
          "name": "acceptanceDate",
          "type": "uint256"
        },
        {
          "internalType": "enum CohortFactory.AuditTypes",
          "name": "audits",
          "type": "uint8"
        },
        {
          "internalType": "address",
          "name": "cohort",
          "type": "address"
        },
        {
          "internalType": "bool",
          "name": "deleted",
          "type": "bool"
        }
      ],
      "stateMutability": "view",
      "type": "function",
      "constant": true
    },
    {
      "inputs": [
        {
          "internalType": "uint256",
          "name": "",
          "type": "uint256"
        }
      ],
      "name": "minValidatorPerCohort",
      "outputs": [
        {
          "internalType": "uint256",
          "name": "",
          "type": "uint256"
        }
      ],
      "stateMutability": "view",
      "type": "function",
      "constant": true
    },
    {
      "inputs": [
        {
          "internalType": "bytes32",
          "name": "role",
          "type": "bytes32"
        },
        {
          "internalType": "address",
          "name": "account",
          "type": "address"
        }
      ],
      "name": "renounceRole",
      "outputs": [],
      "stateMutability": "nonpayable",
      "type": "function"
    },
    {
      "inputs": [
        {
          "internalType": "bytes32",
          "name": "role",
          "type": "bytes32"
        },
        {
          "internalType": "address",
          "name": "account",
          "type": "address"
        }
      ],
      "name": "revokeRole",
      "outputs": [],
      "stateMutability": "nonpayable",
      "type": "function"
    },
    {
      "inputs": [
        {
          "internalType": "uint256",
          "name": "_minValidatorPerCohort",
          "type": "uint256"
        },
        {
          "internalType": "uint256",
          "name": "audits",
          "type": "uint256"
        }
      ],
      "name": "updateMinValidatorsPerCohort",
      "outputs": [],
      "stateMutability": "nonpayable",
      "type": "function"
    },
    {
      "inputs": [
        {
          "internalType": "address",
          "name": "validator",
          "type": "address"
        },
        {
          "internalType": "enum CohortFactory.AuditTypes",
          "name": "audit",
          "type": "uint8"
        },
        {
          "internalType": "address",
          "name": "cohort",
          "type": "address"
        }
      ],
      "name": "inviteValidator",
      "outputs": [],
      "stateMutability": "nonpayable",
      "type": "function"
    },
    {
      "inputs": [
        {
          "internalType": "address[]",
          "name": "validator",
          "type": "address[]"
        },
        {
          "internalType": "enum CohortFactory.AuditTypes",
          "name": "audit",
          "type": "uint8"
        },
        {
          "internalType": "address",
          "name": "cohort",
          "type": "address"
        }
      ],
      "name": "inviteValidatorMultiple",
      "outputs": [],
      "stateMutability": "nonpayable",
      "type": "function"
    },
    {
      "inputs": [
        {
          "internalType": "address",
          "name": "enterprise",
          "type": "address"
        },
        {
          "internalType": "uint256",
          "name": "invitationNumber",
          "type": "uint256"
        }
      ],
      "name": "acceptInvitation",
      "outputs": [],
      "stateMutability": "nonpayable",
      "type": "function"
    },
    {
      "inputs": [
        {
          "internalType": "address",
          "name": "validator",
          "type": "address"
        },
        {
          "internalType": "enum CohortFactory.AuditTypes",
          "name": "audit",
          "type": "uint8"
        },
        {
          "internalType": "address",
          "name": "cohort",
          "type": "address"
        }
      ],
      "name": "clearInvitationRemoveValidator",
      "outputs": [],
      "stateMutability": "nonpayable",
      "type": "function"
    },
    {
      "inputs": [
        {
          "internalType": "address[]",
          "name": "enterprise",
          "type": "address[]"
        },
        {
          "internalType": "uint256[]",
          "name": "invitationNumber",
          "type": "uint256[]"
        }
      ],
      "name": "acceptInvitationMultiple",
      "outputs": [],
      "stateMutability": "nonpayable",
      "type": "function"
    },
    {
      "inputs": [
        {
          "internalType": "address",
          "name": "enterprise",
          "type": "address"
        },
        {
          "internalType": "enum CohortFactory.AuditTypes",
          "name": "audit",
          "type": "uint8"
        }
      ],
      "name": "returnInvitationCount",
      "outputs": [
        {
          "internalType": "uint256",
          "name": "",
          "type": "uint256"
        }
      ],
      "stateMutability": "view",
      "type": "function",
      "constant": true
    },
    {
      "inputs": [
        {
          "internalType": "address",
          "name": "enterprise",
          "type": "address"
        },
        {
          "internalType": "address",
          "name": "validator",
          "type": "address"
        },
        {
          "internalType": "enum CohortFactory.AuditTypes",
          "name": "audits",
          "type": "uint8"
        }
      ],
      "name": "isValidatorInvited",
      "outputs": [
        {
          "internalType": "bool",
          "name": "",
          "type": "bool"
        },
        {
          "internalType": "bool",
          "name": "",
          "type": "bool"
        }
      ],
      "stateMutability": "view",
      "type": "function",
      "constant": true
    },
    {
      "inputs": [
        {
          "internalType": "address",
          "name": "enterprise",
          "type": "address"
        }
      ],
      "name": "returnCohorts",
      "outputs": [
        {
          "internalType": "address[]",
          "name": "",
          "type": "address[]"
        },
        {
          "internalType": "uint256[]",
          "name": "",
          "type": "uint256[]"
        }
      ],
      "stateMutability": "view",
      "type": "function",
      "constant": true
    },
    {
      "inputs": [],
      "name": "returnOutstandingValidations",
      "outputs": [
        {
          "internalType": "uint256",
          "name": "",
          "type": "uint256"
        }
      ],
      "stateMutability": "view",
      "type": "function",
      "constant": true
    },
    {
      "inputs": [
        {
          "internalType": "enum CohortFactory.AuditTypes",
          "name": "audit",
          "type": "uint8"
        }
      ],
      "name": "createCohort",
      "outputs": [],
      "stateMutability": "nonpayable",
      "type": "function"
    }
  ],
  "bytecode": "0x60806040526040518060c00160405280600360ff168152602001600360ff168152602001600360ff168152602001600360ff168152602001600360ff168152602001600360ff1681525060019060066200005b929190620002c4565b503480156200006957600080fd5b50604051620045323803806200453283398181016040528101906200008f919062000368565b81600360006101000a81548173ffffffffffffffffffffffffffffffffffffffff021916908373ffffffffffffffffffffffffffffffffffffffff16021790555080600660006101000a81548173ffffffffffffffffffffffffffffffffffffffff021916908373ffffffffffffffffffffffffffffffffffffffff160217905550620001266000801b336200012e60201b60201c565b505062000425565b6200014082826200014460201b60201c565b5050565b6200017281600080858152602001908152602001600020600001620001e760201b6200268d1790919060201c565b15620001e357620001886200021f60201b60201c565b73ffffffffffffffffffffffffffffffffffffffff168173ffffffffffffffffffffffffffffffffffffffff16837f2f8788117e7eff1d82e926ec794901d17c78024a50270940304540a733656f0d60405160405180910390a45b5050565b600062000217836000018373ffffffffffffffffffffffffffffffffffffffff1660001b6200022760201b60201c565b905092915050565b600033905090565b60006200023b8383620002a160201b60201c565b620002965782600001829080600181540180825580915050600190039060005260206000200160009091909190915055826000018054905083600101600084815260200190815260200160002081905550600190506200029b565b600090505b92915050565b600080836001016000848152602001908152602001600020541415905092915050565b82805482825590600052602060002090810192821562000308579160200282015b8281111562000307578251829060ff16905591602001919060010190620002e5565b5b5090506200031791906200031b565b5090565b5b80821115620003365760008160009055506001016200031c565b5090565b6000815190506200034b81620003f1565b92915050565b60008151905062000362816200040b565b92915050565b600080604083850312156200037c57600080fd5b60006200038c8582860162000351565b92505060206200039f858286016200033a565b9150509250929050565b6000620003b682620003d1565b9050919050565b6000620003ca82620003a9565b9050919050565b600073ffffffffffffffffffffffffffffffffffffffff82169050919050565b620003fc81620003a9565b81146200040857600080fd5b50565b6200041681620003bd565b81146200042257600080fd5b50565b6140fd80620004356000396000f3fe608060405234801561001057600080fd5b506004361061014d5760003560e01c80638e02c1f4116100c3578063a70e03931161007c578063a70e0393146103da578063b9f577b11461040b578063c535124e14610427578063ca15c87314610445578063ced02c8b14610475578063d547741f146104915761014d565b80638e02c1f4146102ec5780638ffb72f4146103085780639010d07c1461033e57806391d148541461036e578063a2011b3f1461039e578063a217fddf146103bc5761014d565b80632f2ff15d116101155780632f2ff15d1461021b57806336568abe1461023757806345f49bb0146102535780637689bb7d146102835780637c915c861461029f57806387247dea146102bb5761014d565b80630939a997146101525780630ea021601461016e5780631f94fc3a1461018a578063247e28b3146101bb578063248a9ca3146101eb575b600080fd5b61016c60048036038101906101679190612e3c565b6104ad565b005b61018860048036038101906101839190612e00565b610501565b005b6101a4600480360381019061019f9190612d26565b6109b3565b6040516101b2929190613b04565b60405180910390f35b6101d560048036038101906101d09190612d75565b610c48565b6040516101e29190613d5a565b60405180910390f35b61020560048036038101906102009190612f38565b610e17565b6040516102129190613b2d565b60405180910390f35b61023560048036038101906102309190612f61565b610e36565b005b610251600480360381019061024c9190612f61565b610ebf565b005b61026d60048036038101906102689190613002565b610f58565b60405161027a9190613d5a565b60405180910390f35b61029d60048036038101906102989190612db1565b610f7c565b005b6102b960048036038101906102b49190612fd9565b611590565b005b6102d560048036038101906102d09190612cd4565b611b7c565b6040516102e3929190613ab2565b60405180910390f35b61030660048036038101906103019190612db1565b611e47565b005b610322600480360381019061031d9190612e00565b61215d565b60405161033597969594939291906139d5565b60405180910390f35b61035860048036038101906103539190612f9d565b612236565b6040516103659190613976565b60405180910390f35b61038860048036038101906103839190612f61565b612267565b6040516103959190613ae9565b60405180910390f35b6103a6612298565b6040516103b39190613b2d565b60405180910390f35b6103c46122bc565b6040516103d19190613b2d565b60405180910390f35b6103f460048036038101906103ef9190612e00565b6122c3565b604051610402929190613a44565b60405180910390f35b61042560048036038101906104209190613054565b61232d565b005b61042f61248f565b60405161043c9190613d5a565b60405180910390f35b61045f600480360381019061045a9190612f38565b612556565b60405161046c9190613d5a565b60405180910390f35b61048f600480360381019061048a9190612ea8565b61257c565b005b6104ab60048036038101906104a69190612f61565b612604565b005b60008251905060005b818110156104fb576104ee8482815181106104cd57fe5b60200260200101518483815181106104e157fe5b6020026020010151610501565b80806001019150506104b6565b50505050565b80600460008473ffffffffffffffffffffffffffffffffffffffff1673ffffffffffffffffffffffffffffffffffffffff1681526020019081526020016000208054905011610585576040517f08c379a000000000000000000000000000000000000000000000000000000000815260040161057c90613bda565b60405180910390fd5b6000600460008473ffffffffffffffffffffffffffffffffffffffff1673ffffffffffffffffffffffffffffffffffffffff16815260200190815260200160002082815481106105d157fe5b90600052602060002090600502016003015414610623576040517f08c379a000000000000000000000000000000000000000000000000000000000815260040161061a90613c3a565b60405180910390fd5b3373ffffffffffffffffffffffffffffffffffffffff16600460008473ffffffffffffffffffffffffffffffffffffffff1673ffffffffffffffffffffffffffffffffffffffff168152602001908152602001600020828154811061068457fe5b906000526020600020906005020160010160009054906101000a900473ffffffffffffffffffffffffffffffffffffffff1673ffffffffffffffffffffffffffffffffffffffff161461070c576040517f08c379a000000000000000000000000000000000000000000000000000000000815260040161070390613cfa565b60405180910390fd5b42600460008473ffffffffffffffffffffffffffffffffffffffff1673ffffffffffffffffffffffffffffffffffffffff168152602001908152602001600020828154811061075757fe5b906000526020600020906005020160030181905550600073ffffffffffffffffffffffffffffffffffffffff16600460008473ffffffffffffffffffffffffffffffffffffffff1673ffffffffffffffffffffffffffffffffffffffff16815260200190815260200160002082815481106107ce57fe5b906000526020600020906005020160040160019054906101000a900473ffffffffffffffffffffffffffffffffffffffff1673ffffffffffffffffffffffffffffffffffffffff161461096157600460008373ffffffffffffffffffffffffffffffffffffffff1673ffffffffffffffffffffffffffffffffffffffff168152602001908152602001600020818154811061086557fe5b906000526020600020906005020160040160019054906101000a900473ffffffffffffffffffffffffffffffffffffffff1673ffffffffffffffffffffffffffffffffffffffff16638c410fc8336040518263ffffffff1660e01b81526004016108cf9190613991565b602060405180830381600087803b1580156108e957600080fd5b505af11580156108fd573d6000803e3d6000fd5b505050506040513d601f19601f820116820180604052508101906109219190612f0f565b610960576040517f08c379a000000000000000000000000000000000000000000000000000000000815260040161095790613c5a565b60405180910390fd5b5b3373ffffffffffffffffffffffffffffffffffffffff167f7b03e8bab458bdbb216f7525cb174b013e75d040884fe46cc9e836fc05a0cc7b826040516109a79190613d5a565b60405180910390a25050565b60008060005b600460008773ffffffffffffffffffffffffffffffffffffffff1673ffffffffffffffffffffffffffffffffffffffff16815260200190815260200160002080549050811015610c3757836005811115610a0f57fe5b600460008873ffffffffffffffffffffffffffffffffffffffff1673ffffffffffffffffffffffffffffffffffffffff1681526020019081526020016000208281548110610a5957fe5b906000526020600020906005020160040160009054906101000a900460ff166005811115610a8357fe5b148015610b3657508473ffffffffffffffffffffffffffffffffffffffff16600460008873ffffffffffffffffffffffffffffffffffffffff1673ffffffffffffffffffffffffffffffffffffffff1681526020019081526020016000208281548110610aec57fe5b906000526020600020906005020160010160009054906101000a900473ffffffffffffffffffffffffffffffffffffffff1673ffffffffffffffffffffffffffffffffffffffff16145b8015610ba85750600460008773ffffffffffffffffffffffffffffffffffffffff1673ffffffffffffffffffffffffffffffffffffffff1681526020019081526020016000208181548110610b8757fe5b906000526020600020906005020160040160159054906101000a900460ff16155b15610c2c576000600460008873ffffffffffffffffffffffffffffffffffffffff1673ffffffffffffffffffffffffffffffffffffffff1681526020019081526020016000208281548110610bf957fe5b9060005260206000209060050201600301541115610c1e576001809250925050610c40565b600160009250925050610c40565b8060010190506109b9565b50600080915091505b935093915050565b60008060005b600460008673ffffffffffffffffffffffffffffffffffffffff1673ffffffffffffffffffffffffffffffffffffffff16815260200190815260200160002080549050811015610e0c57836005811115610ca457fe5b600460008773ffffffffffffffffffffffffffffffffffffffff1673ffffffffffffffffffffffffffffffffffffffff1681526020019081526020016000208281548110610cee57fe5b906000526020600020906005020160040160009054906101000a900460ff166005811115610d1857fe5b148015610d8157506000600460008773ffffffffffffffffffffffffffffffffffffffff1673ffffffffffffffffffffffffffffffffffffffff1681526020019081526020016000208281548110610d6c57fe5b90600052602060002090600502016003015414155b8015610df35750600460008673ffffffffffffffffffffffffffffffffffffffff1673ffffffffffffffffffffffffffffffffffffffff1681526020019081526020016000208181548110610dd257fe5b906000526020600020906005020160040160159054906101000a900460ff16155b15610e015781806001019250505b806001019050610c4e565b508091505092915050565b6000806000838152602001908152602001600020600201549050919050565b610e5c60008084815260200190815260200160002060020154610e576126bd565b612267565b610eb1576040517f08c379a000000000000000000000000000000000000000000000000000000000815260040180806020018281038252602f81526020018061403a602f913960400191505060405180910390fd5b610ebb82826126c5565b5050565b610ec76126bd565b73ffffffffffffffffffffffffffffffffffffffff168173ffffffffffffffffffffffffffffffffffffffff1614610f4a576040517f08c379a000000000000000000000000000000000000000000000000000000000815260040180806020018281038252602f815260200180614099602f913960400191505060405180910390fd5b610f548282612758565b5050565b60018181548110610f6857600080fd5b906000526020600020016000915090505481565b610f84612a89565b6000600360009054906101000a900473ffffffffffffffffffffffffffffffffffffffff1673ffffffffffffffffffffffffffffffffffffffff166318d50d33866040518263ffffffff1660e01b8152600401610fe19190613976565b60206040518083038186803b158015610ff957600080fd5b505afa15801561100d573d6000803e3d6000fd5b505050506040513d601f19601f820116820180604052508101906110319190612f0f565b90506000600360009054906101000a900473ffffffffffffffffffffffffffffffffffffffff1673ffffffffffffffffffffffffffffffffffffffff1663be07b32e336040518263ffffffff1660e01b81526004016110909190613991565b60206040518083038186803b1580156110a857600080fd5b505afa1580156110bc573d6000803e3d6000fd5b505050506040513d601f19601f820116820180604052508101906110e09190612f0f565b905060006110ef3388886109b3565b5090508015611133576040517f08c379a000000000000000000000000000000000000000000000000000000000815260040161112a90613cba565b60405180910390fd5b81611173576040517f08c379a000000000000000000000000000000000000000000000000000000000815260040161116a90613d3a565b60405180910390fd5b826111b3576040517f08c379a00000000000000000000000000000000000000000000000000000000081526004016111aa90613c7a565b60405180910390fd5b6000600360009054906101000a900473ffffffffffffffffffffffffffffffffffffffff1673ffffffffffffffffffffffffffffffffffffffff1663fc7e286d896040518263ffffffff1660e01b81526004016112109190613976565b60206040518083038186803b15801561122857600080fd5b505afa15801561123c573d6000803e3d6000fd5b505050506040513d601f19601f82011682018060405250810190611260919061302b565b116112a0576040517f08c379a000000000000000000000000000000000000000000000000000000000815260040161129790613b9a565b60405180910390fd5b86846020019073ffffffffffffffffffffffffffffffffffffffff16908173ffffffffffffffffffffffffffffffffffffffff16815250504284604001818152505085846080019060058111156112f357fe5b9081600581111561130057fe5b81525050848460a0019073ffffffffffffffffffffffffffffffffffffffff16908173ffffffffffffffffffffffffffffffffffffffff1681525050600460003373ffffffffffffffffffffffffffffffffffffffff1673ffffffffffffffffffffffffffffffffffffffff16815260200190815260200160002084908060018154018082558091505060019003906000526020600020906005020160009091909190915060008201518160000160006101000a81548173ffffffffffffffffffffffffffffffffffffffff021916908373ffffffffffffffffffffffffffffffffffffffff16021790555060208201518160010160006101000a81548173ffffffffffffffffffffffffffffffffffffffff021916908373ffffffffffffffffffffffffffffffffffffffff160217905550604082015181600201556060820151816003015560808201518160040160006101000a81548160ff0219169083600581111561146b57fe5b021790555060a08201518160040160016101000a81548173ffffffffffffffffffffffffffffffffffffffff021916908373ffffffffffffffffffffffffffffffffffffffff16021790555060c08201518160040160156101000a81548160ff02191690831515021790555050508673ffffffffffffffffffffffffffffffffffffffff163373ffffffffffffffffffffffffffffffffffffffff167f2c2dbe2d2a7b83ef060aaf0987c01d917ae8b3c3f1b967f5ed2aaa5dd19ed48a886001600460003373ffffffffffffffffffffffffffffffffffffffff1673ffffffffffffffffffffffffffffffffffffffff16815260200190815260200160002080549050038960405161157f93929190613b63565b60405180910390a350505050505050565b600061159c3383610c48565b67ffffffffffffffff811180156115b257600080fd5b506040519080825280602002602001820160405280156115e15781602001602082028036833780820191505090505b509050600080600090505b600460003373ffffffffffffffffffffffffffffffffffffffff1673ffffffffffffffffffffffffffffffffffffffff168152602001908152602001600020805490508110156117f95783600581111561164257fe5b600460003373ffffffffffffffffffffffffffffffffffffffff1673ffffffffffffffffffffffffffffffffffffffff168152602001908152602001600020828154811061168c57fe5b906000526020600020906005020160040160009054906101000a900460ff1660058111156116b657fe5b14801561171e57506000600460003373ffffffffffffffffffffffffffffffffffffffff1673ffffffffffffffffffffffffffffffffffffffff168152602001908152602001600020828154811061170a57fe5b906000526020600020906005020160030154115b156117ee57600460003373ffffffffffffffffffffffffffffffffffffffff1673ffffffffffffffffffffffffffffffffffffffff168152602001908152602001600020818154811061176d57fe5b906000526020600020906005020160010160009054906101000a900473ffffffffffffffffffffffffffffffffffffffff168383815181106117ab57fe5b602002602001019073ffffffffffffffffffffffffffffffffffffffff16908173ffffffffffffffffffffffffffffffffffffffff168152505081806001019250505b8060010190506115ec565b50600183600581111561180857fe5b8154811061181257fe5b906000526020600020015481101561185f576040517f08c379a000000000000000000000000000000000000000000000000000000000815260040161185690613bfa565b60405180910390fd5b6000600660009054906101000a900473ffffffffffffffffffffffffffffffffffffffff1673ffffffffffffffffffffffffffffffffffffffff1663ac680c3f8560058111156118ab57fe5b85336040518463ffffffff1660e01b81526004016118cb93929190613d75565b602060405180830381600087803b1580156118e557600080fd5b505af11580156118f9573d6000803e3d6000fd5b505050506040513d601f19601f8201168201806040525081019061191d9190612cfd565b9050600260003373ffffffffffffffffffffffffffffffffffffffff1673ffffffffffffffffffffffffffffffffffffffff16815260200190815260200160002060018160018154018082558091505003906000526020600020505080600260003373ffffffffffffffffffffffffffffffffffffffff1673ffffffffffffffffffffffffffffffffffffffff1681526020019081526020016000206001600260003373ffffffffffffffffffffffffffffffffffffffff1673ffffffffffffffffffffffffffffffffffffffff168152602001908152602001600020805490500381548110611a0957fe5b9060005260206000200160000160006101000a81548173ffffffffffffffffffffffffffffffffffffffff021916908373ffffffffffffffffffffffffffffffffffffffff16021790555083600260003373ffffffffffffffffffffffffffffffffffffffff1673ffffffffffffffffffffffffffffffffffffffff1681526020019081526020016000206001600260003373ffffffffffffffffffffffffffffffffffffffff1673ffffffffffffffffffffffffffffffffffffffff168152602001908152602001600020805490500381548110611ae457fe5b9060005260206000200160000160146101000a81548160ff02191690836005811115611b0c57fe5b02179055508073ffffffffffffffffffffffffffffffffffffffff163373ffffffffffffffffffffffffffffffffffffffff167f90691b6bd4b271754d0eb5676725798ab1ab64c7225d8e48882bc2f6add2dd0986604051611b6e9190613b48565b60405180910390a350505050565b6060806000600260008573ffffffffffffffffffffffffffffffffffffffff1673ffffffffffffffffffffffffffffffffffffffff1681526020019081526020016000208054905067ffffffffffffffff81118015611bda57600080fd5b50604051908082528060200260200182016040528015611c095781602001602082028036833780820191505090505b5090506000600260008673ffffffffffffffffffffffffffffffffffffffff1673ffffffffffffffffffffffffffffffffffffffff1681526020019081526020016000208054905067ffffffffffffffff81118015611c6757600080fd5b50604051908082528060200260200182016040528015611c965781602001602082028036833780820191505090505b50905060005b600260008773ffffffffffffffffffffffffffffffffffffffff1673ffffffffffffffffffffffffffffffffffffffff16815260200190815260200160002080549050811015611e3957600260008773ffffffffffffffffffffffffffffffffffffffff1673ffffffffffffffffffffffffffffffffffffffff1681526020019081526020016000208181548110611d3057fe5b9060005260206000200160000160009054906101000a900473ffffffffffffffffffffffffffffffffffffffff16838281518110611d6a57fe5b602002602001019073ffffffffffffffffffffffffffffffffffffffff16908173ffffffffffffffffffffffffffffffffffffffff1681525050600260008773ffffffffffffffffffffffffffffffffffffffff1673ffffffffffffffffffffffffffffffffffffffff1681526020019081526020016000208181548110611dee57fe5b9060005260206000200160000160149054906101000a900460ff166005811115611e1457fe5b828281518110611e2057fe5b6020026020010181815250508080600101915050611c9c565b508181935093505050915091565b60005b600460003373ffffffffffffffffffffffffffffffffffffffff1673ffffffffffffffffffffffffffffffffffffffff1681526020019081526020016000208054905081101561215757826005811115611ea057fe5b600460003373ffffffffffffffffffffffffffffffffffffffff1673ffffffffffffffffffffffffffffffffffffffff1681526020019081526020016000208281548110611eea57fe5b906000526020600020906005020160040160009054906101000a900460ff166005811115611f1457fe5b148015611fc757508373ffffffffffffffffffffffffffffffffffffffff16600460003373ffffffffffffffffffffffffffffffffffffffff1673ffffffffffffffffffffffffffffffffffffffff1681526020019081526020016000208281548110611f7d57fe5b906000526020600020906005020160010160009054906101000a900473ffffffffffffffffffffffffffffffffffffffff1673ffffffffffffffffffffffffffffffffffffffff16145b1561214a576001600460003373ffffffffffffffffffffffffffffffffffffffff1673ffffffffffffffffffffffffffffffffffffffff168152602001908152602001600020828154811061201857fe5b906000526020600020906005020160040160156101000a81548160ff0219169083151502179055508173ffffffffffffffffffffffffffffffffffffffff166396cb4c0d85336040518363ffffffff1660e01b815260040161207b9291906139ac565b602060405180830381600087803b15801561209557600080fd5b505af11580156120a9573d6000803e3d6000fd5b505050506040513d601f19601f820116820180604052508101906120cd9190612f0f565b61210c576040517f08c379a000000000000000000000000000000000000000000000000000000000815260040161210390613cda565b60405180910390fd5b7fc79fd5e121f785109eb0b6f9236759e63b1507d2388bae38d35500874fd186b6848484336040516121419493929190613a6d565b60405180910390a15b8080600101915050611e4a565b50505050565b6004602052816000526040600020818154811061217957600080fd5b9060005260206000209060050201600091509150508060000160009054906101000a900473ffffffffffffffffffffffffffffffffffffffff16908060010160009054906101000a900473ffffffffffffffffffffffffffffffffffffffff16908060020154908060030154908060040160009054906101000a900460ff16908060040160019054906101000a900473ffffffffffffffffffffffffffffffffffffffff16908060040160159054906101000a900460ff16905087565b600061225f826000808681526020019081526020016000206000016127eb90919063ffffffff16565b905092915050565b60006122908260008086815260200190815260200160002060000161280590919063ffffffff16565b905092915050565b7f61c92169ef077349011ff0b1383c894d86c5f0b41d986366b58a6cf31e93beda81565b6000801b81565b600260205281600052604060002081815481106122df57600080fd5b90600052602060002001600091509150508060000160009054906101000a900473ffffffffffffffffffffffffffffffffffffffff16908060000160149054906101000a900460ff16905082565b6123577f61c92169ef077349011ff0b1383c894d86c5f0b41d986366b58a6cf31e93beda33612267565b612396576040517f08c379a000000000000000000000000000000000000000000000000000000000815260040161238d90613d1a565b60405180910390fd5b60008214156123da576040517f08c379a00000000000000000000000000000000000000000000000000000000081526004016123d190613bba565b60405180910390fd5b600581111580156123ec575060008110155b61242b576040517f08c379a000000000000000000000000000000000000000000000000000000000815260040161242290613c1a565b60405180910390fd5b816001828154811061243957fe5b90600052602060002001819055507f77141346a51f055f5bb35ecb1499b0bb7d9fbf1442b909bd3fd419820ccb98b28282600581111561247557fe5b604051612483929190613db3565b60405180910390a15050565b60008061249b33611b7c565b5090506000805b825181101561254d578281815181106124b757fe5b602002602001015173ffffffffffffffffffffffffffffffffffffffff1663860008f06040518163ffffffff1660e01b815260040160206040518083038186803b15801561250457600080fd5b505afa158015612518573d6000803e3d6000fd5b505050506040513d601f19601f8201168201806040525081019061253c919061302b565b8201915080806001019150506124a2565b50809250505090565b6000612575600080848152602001908152602001600020600001612835565b9050919050565b6000835190506101008111156125c7576040517f08c379a00000000000000000000000000000000000000000000000000000000081526004016125be90613c9a565b60405180910390fd5b60005b818110156125fd576125f08582815181106125e157fe5b60200260200101518585610f7c565b80806001019150506125ca565b5050505050565b61262a600080848152602001908152602001600020600201546126256126bd565b612267565b61267f576040517f08c379a00000000000000000000000000000000000000000000000000000000081526004018080602001828103825260308152602001806140696030913960400191505060405180910390fd5b6126898282612758565b5050565b60006126b5836000018373ffffffffffffffffffffffffffffffffffffffff1660001b61284a565b905092915050565b600033905090565b6126ec8160008085815260200190815260200160002060000161268d90919063ffffffff16565b15612754576126f96126bd565b73ffffffffffffffffffffffffffffffffffffffff168173ffffffffffffffffffffffffffffffffffffffff16837f2f8788117e7eff1d82e926ec794901d17c78024a50270940304540a733656f0d60405160405180910390a45b5050565b61277f816000808581526020019081526020016000206000016128ba90919063ffffffff16565b156127e75761278c6126bd565b73ffffffffffffffffffffffffffffffffffffffff168173ffffffffffffffffffffffffffffffffffffffff16837ff6391f5c32d9c69d2a47ea670b442974b53935d1edc7fd64eb21e047a839171b60405160405180910390a45b5050565b60006127fa83600001836128ea565b60001c905092915050565b600061282d836000018373ffffffffffffffffffffffffffffffffffffffff1660001b61296d565b905092915050565b600061284382600001612990565b9050919050565b6000612856838361296d565b6128af5782600001829080600181540180825580915050600190039060005260206000200160009091909190915055826000018054905083600101600084815260200190815260200160002081905550600190506128b4565b600090505b92915050565b60006128e2836000018373ffffffffffffffffffffffffffffffffffffffff1660001b6129a1565b905092915050565b60008183600001805490501161294b576040517f08c379a00000000000000000000000000000000000000000000000000000000081526004018080602001828103825260228152602001806140186022913960400191505060405180910390fd5b82600001828154811061295a57fe5b9060005260206000200154905092915050565b600080836001016000848152602001908152602001600020541415905092915050565b600081600001805490509050919050565b60008083600101600084815260200190815260200160002054905060008114612a7d57600060018203905060006001866000018054905003905060008660000182815481106129ec57fe5b9060005260206000200154905080876000018481548110612a0957fe5b9060005260206000200181905550600183018760010160008381526020019081526020016000208190555086600001805480612a4157fe5b60019003818190600052602060002001600090559055866001016000878152602001908152602001600020600090556001945050505050612a83565b60009150505b92915050565b6040518060e00160405280600073ffffffffffffffffffffffffffffffffffffffff168152602001600073ffffffffffffffffffffffffffffffffffffffff168152602001600081526020016000815260200160006005811115612ae957fe5b8152602001600073ffffffffffffffffffffffffffffffffffffffff1681526020016000151581525090565b6000612b28612b2384613e0d565b613ddc565b90508083825260208201905082856020860282011115612b4757600080fd5b60005b85811015612b775781612b5d8882612bed565b845260208401935060208301925050600181019050612b4a565b5050509392505050565b6000612b94612b8f84613e39565b613ddc565b90508083825260208201905082856020860282011115612bb357600080fd5b60005b85811015612be35781612bc98882612caa565b845260208401935060208301925050600181019050612bb6565b5050509392505050565b600081359050612bfc81613fab565b92915050565b600081519050612c1181613fab565b92915050565b600082601f830112612c2857600080fd5b8135612c38848260208601612b15565b91505092915050565b600082601f830112612c5257600080fd5b8135612c62848260208601612b81565b91505092915050565b600081519050612c7a81613fc2565b92915050565b600081359050612c8f81613fd9565b92915050565b600081359050612ca481613ff0565b92915050565b600081359050612cb981614000565b92915050565b600081519050612cce81614000565b92915050565b600060208284031215612ce657600080fd5b6000612cf484828501612bed565b91505092915050565b600060208284031215612d0f57600080fd5b6000612d1d84828501612c02565b91505092915050565b600080600060608486031215612d3b57600080fd5b6000612d4986828701612bed565b9350506020612d5a86828701612bed565b9250506040612d6b86828701612c95565b9150509250925092565b60008060408385031215612d8857600080fd5b6000612d9685828601612bed565b9250506020612da785828601612c95565b9150509250929050565b600080600060608486031215612dc657600080fd5b6000612dd486828701612bed565b9350506020612de586828701612c95565b9250506040612df686828701612bed565b9150509250925092565b60008060408385031215612e1357600080fd5b6000612e2185828601612bed565b9250506020612e3285828601612caa565b9150509250929050565b60008060408385031215612e4f57600080fd5b600083013567ffffffffffffffff811115612e6957600080fd5b612e7585828601612c17565b925050602083013567ffffffffffffffff811115612e9257600080fd5b612e9e85828601612c41565b9150509250929050565b600080600060608486031215612ebd57600080fd5b600084013567ffffffffffffffff811115612ed757600080fd5b612ee386828701612c17565b9350506020612ef486828701612c95565b9250506040612f0586828701612bed565b9150509250925092565b600060208284031215612f2157600080fd5b6000612f2f84828501612c6b565b91505092915050565b600060208284031215612f4a57600080fd5b6000612f5884828501612c80565b91505092915050565b60008060408385031215612f7457600080fd5b6000612f8285828601612c80565b9250506020612f9385828601612bed565b9150509250929050565b60008060408385031215612fb057600080fd5b6000612fbe85828601612c80565b9250506020612fcf85828601612caa565b9150509250929050565b600060208284031215612feb57600080fd5b6000612ff984828501612c95565b91505092915050565b60006020828403121561301457600080fd5b600061302284828501612caa565b91505092915050565b60006020828403121561303d57600080fd5b600061304b84828501612cbf565b91505092915050565b6000806040838503121561306757600080fd5b600061307585828601612caa565b925050602061308685828601612caa565b9150509250929050565b600061309c83836130cf565b60208301905092915050565b60006130b48383613958565b60208301905092915050565b6130c981613f4d565b82525050565b6130d881613ee8565b82525050565b6130e781613ee8565b82525050565b60006130f882613e85565b6131028185613eb5565b935061310d83613e65565b8060005b8381101561313e5781516131258882613090565b975061313083613e9b565b925050600181019050613111565b5085935050505092915050565b600061315682613e90565b6131608185613ec6565b935061316b83613e75565b8060005b8381101561319c57815161318388826130a8565b975061318e83613ea8565b92505060018101905061316f565b5085935050505092915050565b6131b281613efa565b82525050565b6131c181613f06565b82525050565b6131d081613f5f565b82525050565b60006131e3604d83613ed7565b91507f436f686f7274466163746f72793a696e7669746556616c696461746f72202d2060008301527f546869732076616c696461746f7220686173206e6f74207374616b656420616e60208301527f7920746f6b656e73207965742e000000000000000000000000000000000000006040830152606082019050919050565b600061326f606283613ed7565b91507f437265617465436f686f72743a7570646174654d696e56616c696461746f727360008301527f506572436f686f7274202d204e65772076616c756520666f722074686520206d60208301527f696e2076616c696461746f722070657220636f686f72742063616e277420626560408301527f20300000000000000000000000000000000000000000000000000000000000006060830152608082019050919050565b6000613321603e83613ed7565b91507f436f686f7274466163746f72793a616363657074496e7669746174696f6e202d60008301527f205468697320696e7669746174696f6e20646f65736e277420657869737400006020830152604082019050919050565b6000613387604983613ed7565b91507f436f686f7274466163746f72793a637265617465436f686f7274202d204e756d60008301527f626572206f662076616c696461746f72732062656c6f7720726571756972656460208301527f206d696e696d756d2e00000000000000000000000000000000000000000000006040830152606082019050919050565b6000613413604f83613ed7565b91507f436f686f727420466163746f72793a7570646174654d696e56616c696461746f60008301527f7273506572436f686f7274202d20417564697420747970652068617320746f2060208301527f6265203c3d203520616e64203e3d3000000000000000000000000000000000006040830152606082019050919050565b600061349f604b83613ed7565b91507f436f686f7274466163746f72793a616363657074496e7669746174696f6e2d2060008301527f5468697320696e7669746174696f6e20686173206265656e206163636570746560208301527f6420616c7265616479202e0000000000000000000000000000000000000000006040830152606082019050919050565b600061352b603c83613ed7565b91507f436f686f7274466163746f72793a696e7669746556616c696461746f72202d2060008301527f50726f626c656d20616464696e67206e65772076616c696461746f72000000006020830152604082019050919050565b6000613591604883613ed7565b91507f436f686f7274466163746f72793a696e7669746556616c696461746f72202d2060008301527f4f6e6c7920417070726f7665642056616c696461746f72732063616e2062652060208301527f696e76697465642e0000000000000000000000000000000000000000000000006040830152606082019050919050565b600061361d603483613ed7565b91507f436f686f7274466163746f72792d696e7669746556616c696461746f724d756c60008301527f7469706c653a204c69737420746f6f206c6f6e670000000000000000000000006020830152604082019050919050565b6000613683606183613ed7565b91507f436f686f7274466163746f72793a696e7669746556616c696461746f72202d2060008301527f546869732076616c696461746f7220686173206265656e20616c72656164792060208301527f696e766974656420666f7220746869732076616c69646174696f6e207479706560408301527f2e000000000000000000000000000000000000000000000000000000000000006060830152608082019050919050565b6000613735605683613ed7565b91507f436f686f7274466163746f72793a636c656172496e7669746174696f6e56616c60008301527f696461746f72202d2050726f626c656d2072656d6f76696e672076616c69646160208301527f746f7220696e20436f686f727420636f6e7472616374000000000000000000006040830152606082019050919050565b60006137c1607d83613ed7565b91507f436f686f7274466163746f72793a616363657074496e7669746174696f6e202d60008301527f20596f752061726520616363657074696e6720696e7669746174696f6e20746f60208301527f20776869636820796f752077657265206e6f7420696e7669746564206f72207460408301527f68697320696e7669746174696f6e20646f65736e27742065786973742e0000006060830152608082019050919050565b6000613873602983613ed7565b91507f4d656d626572733a6973536574746572202d2043616c6c6572206973206e6f7460008301527f20612073657474657200000000000000000000000000000000000000000000006020830152604082019050919050565b60006138d9604b83613ed7565b91507f436f686f7274466163746f72793a696e7669746556616c696461746f72202d2060008301527f4f6e6c7920456e746572707269736520757365722063616e20696e766974652060208301527f56616c696461746f72732e0000000000000000000000000000000000000000006040830152606082019050919050565b61396181613f43565b82525050565b61397081613f43565b82525050565b600060208201905061398b60008301846130de565b92915050565b60006020820190506139a660008301846130c0565b92915050565b60006040820190506139c160008301856130de565b6139ce60208301846130c0565b9392505050565b600060e0820190506139ea600083018a6130de565b6139f760208301896130de565b613a046040830188613967565b613a116060830187613967565b613a1e60808301866131c7565b613a2b60a08301856130de565b613a3860c08301846131a9565b98975050505050505050565b6000604082019050613a5960008301856130de565b613a6660208301846131c7565b9392505050565b6000608082019050613a8260008301876130de565b613a8f60208301866131c7565b613a9c60408301856130de565b613aa960608301846130c0565b95945050505050565b60006040820190508181036000830152613acc81856130ed565b90508181036020830152613ae0818461314b565b90509392505050565b6000602082019050613afe60008301846131a9565b92915050565b6000604082019050613b1960008301856131a9565b613b2660208301846131a9565b9392505050565b6000602082019050613b4260008301846131b8565b92915050565b6000602082019050613b5d60008301846131c7565b92915050565b6000606082019050613b7860008301866131c7565b613b856020830185613967565b613b9260408301846130de565b949350505050565b60006020820190508181036000830152613bb3816131d6565b9050919050565b60006020820190508181036000830152613bd381613262565b9050919050565b60006020820190508181036000830152613bf381613314565b9050919050565b60006020820190508181036000830152613c138161337a565b9050919050565b60006020820190508181036000830152613c3381613406565b9050919050565b60006020820190508181036000830152613c5381613492565b9050919050565b60006020820190508181036000830152613c738161351e565b9050919050565b60006020820190508181036000830152613c9381613584565b9050919050565b60006020820190508181036000830152613cb381613610565b9050919050565b60006020820190508181036000830152613cd381613676565b9050919050565b60006020820190508181036000830152613cf381613728565b9050919050565b60006020820190508181036000830152613d13816137b4565b9050919050565b60006020820190508181036000830152613d3381613866565b9050919050565b60006020820190508181036000830152613d53816138cc565b9050919050565b6000602082019050613d6f6000830184613967565b92915050565b6000606082019050613d8a6000830186613967565b8181036020830152613d9c81856130ed565b9050613dab60408301846130c0565b949350505050565b6000604082019050613dc86000830185613967565b613dd560208301846131c7565b9392505050565b6000604051905081810181811067ffffffffffffffff82111715613e0357613e02613f95565b5b8060405250919050565b600067ffffffffffffffff821115613e2857613e27613f95565b5b602082029050602081019050919050565b600067ffffffffffffffff821115613e5457613e53613f95565b5b602082029050602081019050919050565b6000819050602082019050919050565b6000819050602082019050919050565b600081519050919050565b600081519050919050565b6000602082019050919050565b6000602082019050919050565b600082825260208201905092915050565b600082825260208201905092915050565b600082825260208201905092915050565b6000613ef382613f23565b9050919050565b60008115159050919050565b6000819050919050565b6000819050613f1e82613f97565b919050565b600073ffffffffffffffffffffffffffffffffffffffff82169050919050565b6000819050919050565b6000613f5882613f71565b9050919050565b6000613f6a82613f10565b9050919050565b6000613f7c82613f83565b9050919050565b6000613f8e82613f23565b9050919050565bfe5b60068110613fa857613fa7613f95565b5b50565b613fb481613ee8565b8114613fbf57600080fd5b50565b613fcb81613efa565b8114613fd657600080fd5b50565b613fe281613f06565b8114613fed57600080fd5b50565b60068110613ffd57600080fd5b50565b61400981613f43565b811461401457600080fd5b5056fe456e756d657261626c655365743a20696e646578206f7574206f6620626f756e6473416363657373436f6e74726f6c3a2073656e646572206d75737420626520616e2061646d696e20746f206772616e74416363657373436f6e74726f6c3a2073656e646572206d75737420626520616e2061646d696e20746f207265766f6b65416363657373436f6e74726f6c3a2063616e206f6e6c792072656e6f756e636520726f6c657320666f722073656c66a2646970667358221220e4a6e2c320a3c4de294340803c1be619796951fe913ed8333cc9213e19c0b3c064736f6c63430007060033",
  "immutableReferences": {},
  "source": "// SPDX-License-Identifier: MIT\npragma solidity =0.7.6;\npragma experimental ABIEncoderV2;\nimport \"@openzeppelin/contracts/access/AccessControl.sol\";\nimport \"./Members.sol\";\nimport \"./CreateCohort.sol\";\n\n/**\n * @title CohortFactory\n * Allows on creation of invitations by Enterprise and acceptance of Validators of those \n * invitations. Finally Enterprise can create cohort consisting of invited Validators\n * and Enterprise. \n */\n\ncontract CohortFactory is  AccessControl {\n\n    // Audit types to be used. Two types added for future expansion \n    enum AuditTypes {\n        Financial, System, Contract, NFT, Type5, Type6\n    }\n\n    uint256[] public minValidatorPerCohort = [3,3,3,3,3,3];\n\n    // Invitation structure to hold info about its status\n    struct Invitation {\n        address enterprise;\n        address validator;\n        uint256 invitationDate;      \n        uint256 acceptanceDate;\n        AuditTypes audits;\n        address cohort;\n        bool deleted;\n    }\n\n    struct Cohorts {\n        address cohort;\n        AuditTypes audits;\n    }\n\n    mapping(address => Cohorts[]) public cohortList;\n\n    Members members;                                            // pointer to Members contract1 \n    mapping (address =>  Invitation[]) public invitations;      // invitations list\n    address platformAddress;                                    // address to deposit platform fees\n    address createCohortAddress;\n\n    bytes32 public constant SETTER_ROLE =  keccak256(\"SETTER_ROLE\");\n\n    event ValidatorInvited(address indexed inviting, address indexed invitee, AuditTypes audits, uint256 invitationNumber, address cohort);\n    event InvitationAccepted(address indexed validator, uint256 invitationNumber);\n    event CohortCreated(address indexed enterprise, address indexed cohort, AuditTypes audits);\n    event UpdateMinValidatorsPerCohort(uint256 minValidatorPerCohort, AuditTypes audits);\n    event ValidatorCleared(address validator, AuditTypes audit, address cohort, address enterprise);\n\n    /// @dev check if caller is a setter     \n    modifier isSetter {\n        require(hasRole(SETTER_ROLE, msg.sender), \"Members:isSetter - Caller is not a setter\");\n\n        _;\n    }\n\n    constructor(Members _members,  address _createCohortAddress ) {\n        members = _members;\n        createCohortAddress = _createCohortAddress;\n        _setupRole(DEFAULT_ADMIN_ROLE, msg.sender); // \n    }\n   \n    /**\n    * @dev to be called by Governance contract to update new value for min validators per cohort\n    * @param _minValidatorPerCohort new value \n    */\n    function updateMinValidatorsPerCohort(uint256 _minValidatorPerCohort, uint256 audits) public isSetter() {\n\n        require(_minValidatorPerCohort != 0, \"CreateCohort:updateMinValidatorsPerCohort - New value for the  min validator per cohort can't be 0\");\n        require(audits <= 5 && audits >=0 , \"Cohort Factory:updateMinValidatorsPerCohort - Audit type has to be <= 5 and >=0\");\n        minValidatorPerCohort[uint256(audits)] = _minValidatorPerCohort;\n        emit UpdateMinValidatorsPerCohort(_minValidatorPerCohort, AuditTypes(audits));\n    }\n\n    /**\n    * @dev Used by Enterprise to invite validator\n    * @param validator address of the validator to invite\n    * @param audit type of the audit\n    */\n    function inviteValidator(address validator, AuditTypes audit, address cohort) public {\n\n        Invitation memory newInvitation;\n        bool approvedValidator = members.validatorMap(validator);\n        bool isEnterprise = members.enterpriseMap(msg.sender);\n        (bool invited, ) = isValidatorInvited(msg.sender, validator, audit);\n        require( !invited , \"CohortFactory:inviteValidator - This validator has been already invited for this validation type.\" );\n        require( isEnterprise, \"CohortFactory:inviteValidator - Only Enterprise user can invite Validators.\");\n        require( approvedValidator, \"CohortFactory:inviteValidator - Only Approved Validators can be invited.\");\n        require( members.deposits(validator) > 0,\"CohortFactory:inviteValidator - This validator has not staked any tokens yet.\");\n        newInvitation.validator = validator;\n        newInvitation.invitationDate = block.timestamp;     \n        newInvitation.audits = audit;   \n        newInvitation.cohort = cohort;\n        invitations[msg.sender].push(newInvitation);\n       \n        emit ValidatorInvited(msg.sender, validator, audit, invitations[msg.sender].length - 1, cohort);\n    }\n\n    /**\n    * @dev Used by Enterprise to invite multiple validators in one call \n    * @param validator address of the validator to invite\n    * @param audit type of the audit\n    */\n    function inviteValidatorMultiple(address[] memory validator, AuditTypes audit, address cohort) public{\n\n        uint256 length = validator.length;\n        require(length <= 256, \"CohortFactory-inviteValidatorMultiple: List too long\");\n        for (uint256 i = 0; i < length; i++) {\n            inviteValidator(validator[i], audit, cohort);\n        }\n    }\n\n    /**\n    * @dev Used by Validator to accept Enterprise invitation\n    * @param enterprise address of the Enterprise who created invitation\n    * @param invitationNumber invitation number\n    */\n    function acceptInvitation(address enterprise, uint256 invitationNumber) public {\n\n        require( invitations[enterprise].length > invitationNumber, \"CohortFactory:acceptInvitation - This invitation doesn't exist\");\n        require( invitations[enterprise][invitationNumber].acceptanceDate == 0, \"CohortFactory:acceptInvitation- This invitation has been accepted already .\");\n        require( invitations[enterprise][invitationNumber].validator == msg.sender, \"CohortFactory:acceptInvitation - You are accepting invitation to which you were not invited or this invitation doesn't exist.\");\n        invitations[enterprise][invitationNumber].acceptanceDate = block.timestamp;\n\n            if (invitations[enterprise][invitationNumber].cohort != address(0)) // adding validator to existing cohort\n                require(\n                    ICohort(invitations[enterprise][invitationNumber].cohort)\n                    .addAdditionalValidator(msg.sender), \n                    \"CohortFactory:inviteValidator - Problem adding new validator\"\n                    );\n\n        emit InvitationAccepted(msg.sender, invitationNumber);\n    }\n\n    /**\n    * @dev Used by Enterprise to remove existing validator\n    * @param validator validator to remove\n    * @param audit type of audit \n    * @param cohort cohort from which validator is removed\n    */\n    function clearInvitationRemoveValidator(address validator, AuditTypes audit, address cohort) public {\n\n        for (uint256 i = 0; i < invitations[msg.sender].length; i++){\n            if (invitations[msg.sender][i].audits == audit && \n                invitations[msg.sender][i].validator ==  validator){\n                invitations[msg.sender][i].deleted = true;\n                require(ICohort(cohort).removeValidator(validator, msg.sender), \n                        \"CohortFactory:clearInvitationValidator - Problem removing validator in Cohort contract\");\n                emit ValidatorCleared(validator, audit, cohort, msg.sender);\n            }\n        }\n    }\n\n    /**\n    * @dev Used by Validator to accept multiple Enterprise invitation\n    * @param enterprise address of the Enterprise who created invitation\n    * @param invitationNumber invitation number\n    */\n    function acceptInvitationMultiple(address[] memory enterprise, uint256[] memory invitationNumber) public{\n\n        uint256 length = enterprise.length;\n        for (uint256 i = 0; i < length; i++) {\n            acceptInvitation(enterprise[i], invitationNumber[i]);\n        }\n    }\n\n    /**\n    * @dev To return invitation count\n    * @param enterprise address of the Enterprise who created invitation\n    * @param audit type\n    * @return count of invitations\n    */\n    function returnInvitationCount(address enterprise, AuditTypes audit) public view returns(uint256) {\n\n        uint256 count;\n\n        for (uint i=0; i < invitations[enterprise].length; ++i ){\n            if (invitations[enterprise][i].audits == audit && \n                invitations[enterprise][i].acceptanceDate != 0 &&\n                !invitations[enterprise][i].deleted)\n                count ++;\n        }\n        return count;\n    }\n\n    /**\n    * @dev Used to determine if validator has been invited and/or if validation has been accepted\n    * @param enterprise inviting party\n    * @param validator address of the validator\n    * @param audits types\n    * @return true if invited\n    * @return true if accepted invitation\n    */\n    function isValidatorInvited(address enterprise, address validator, AuditTypes audits) public view returns (bool, bool) {\n\n        for (uint i=0; i < invitations[enterprise].length; ++i ){\n            if (invitations[enterprise][i].audits == audits && \n                invitations[enterprise][i].validator == validator &&\n                !invitations[enterprise][i].deleted){\n                if (invitations[enterprise][i].acceptanceDate > 0)\n                    return (true, true);\n                return (true, false);\n            }\n        }\n        return (false, false);\n    }\n\n     /**\n    * @dev Used to return list of cohorts for enterprise\n    * @param enterprise inviting party\n    * @return cohort address \n    * @return audit type\n    */\n    function returnCohorts(address enterprise) public view returns (address[] memory, uint256[] memory){\n\n        address[] memory cohort = new address[](cohortList[enterprise].length);\n        uint256[] memory audits = new uint256[](cohortList[enterprise].length);\n\n        for (uint256 i; i < cohortList[enterprise].length; i++){\n            cohort[i] = cohortList[enterprise][i].cohort;\n            audits[i] = uint256(cohortList[enterprise][i].audits);\n        }\n        return (cohort, audits);\n    }\n\n     /**\n     * @dev Function to calculate outstanding validations for enterprise. \n     */   \n    function returnOutstandingValidations() public view returns(uint256) {\n\n         (address[] memory cohorts, ) = returnCohorts(msg.sender);\n         uint totalOutstandingValidations;\n\n         for (uint256 i; i< cohorts.length; i++)\n             totalOutstandingValidations = totalOutstandingValidations + ICohort(cohorts[i]).outstandingValidations();\n\n        return totalOutstandingValidations;\n    }\n\n    /**\n    * @dev Initiate creation a new cohort using create2 methods based on the audit type and enterprise combination\n    * @param audit type\n    */\n    function createCohort(AuditTypes audit) public {\n        address[] memory validatorsList = new address[](returnInvitationCount(msg.sender, audit));\n        uint k;\n        for (uint i=0; i < invitations[msg.sender].length; ++i ){\n            if (invitations[msg.sender][i].audits == audit && invitations[msg.sender][i].acceptanceDate > 0){\n                validatorsList[k] = invitations[msg.sender][i].validator;\n                k++;\n            }\n        }\n        require(k >= minValidatorPerCohort[uint256(audit)], \"CohortFactory:createCohort - Number of validators below required minimum.\");\n\n        address cohortAddress = CreateCohort(createCohortAddress).createCohort(uint256(audit),  validatorsList, msg.sender );\n        cohortList[msg.sender].push();\n        cohortList[msg.sender][cohortList[msg.sender].length - 1].cohort = cohortAddress;\n        cohortList[msg.sender][cohortList[msg.sender].length - 1].audits = audit;\n\n        emit CohortCreated(msg.sender, cohortAddress, AuditTypes(audit));\n        \n    }\n}\n",
  "sourcePath": "/home/bogdan/Ethereum/Projects/TGE/Core-Smart-Contracts-v1/contracts/Auditchain/CohortFactory.sol",
  "compiler": {
    "name": "solc",
    "version": "0.7.6+commit.7338295f.Emscripten.clang"
  },
  "schemaVersion": "3.3.4",
  "updatedAt": "2021-04-08T02:43:32.920Z",
  "networkType": "ethereum",
  "devdoc": {
    "kind": "dev",
    "methods": {
      "acceptInvitation(address,uint256)": {
        "details": "Used by Validator to accept Enterprise invitation",
        "params": {
          "enterprise": "address of the Enterprise who created invitation",
          "invitationNumber": "invitation number"
        }
      },
      "acceptInvitationMultiple(address[],uint256[])": {
        "details": "Used by Validator to accept multiple Enterprise invitation",
        "params": {
          "enterprise": "address of the Enterprise who created invitation",
          "invitationNumber": "invitation number"
        }
      },
      "clearInvitationRemoveValidator(address,uint8,address)": {
        "details": "Used by Enterprise to remove existing validator",
        "params": {
          "audit": "type of audit ",
          "cohort": "cohort from which validator is removed",
          "validator": "validator to remove"
        }
      },
      "createCohort(uint8)": {
        "details": "Initiate creation a new cohort using create2 methods based on the audit type and enterprise combination",
        "params": {
          "audit": "type"
        }
      },
      "getRoleAdmin(bytes32)": {
        "details": "Returns the admin role that controls `role`. See {grantRole} and {revokeRole}. To change a role's admin, use {_setRoleAdmin}."
      },
      "getRoleMember(bytes32,uint256)": {
        "details": "Returns one of the accounts that have `role`. `index` must be a value between 0 and {getRoleMemberCount}, non-inclusive. Role bearers are not sorted in any particular way, and their ordering may change at any point. WARNING: When using {getRoleMember} and {getRoleMemberCount}, make sure you perform all queries on the same block. See the following https://forum.openzeppelin.com/t/iterating-over-elements-on-enumerableset-in-openzeppelin-contracts/2296[forum post] for more information."
      },
      "getRoleMemberCount(bytes32)": {
        "details": "Returns the number of accounts that have `role`. Can be used together with {getRoleMember} to enumerate all bearers of a role."
      },
      "grantRole(bytes32,address)": {
        "details": "Grants `role` to `account`. If `account` had not been already granted `role`, emits a {RoleGranted} event. Requirements: - the caller must have ``role``'s admin role."
      },
      "hasRole(bytes32,address)": {
        "details": "Returns `true` if `account` has been granted `role`."
      },
      "inviteValidator(address,uint8,address)": {
        "details": "Used by Enterprise to invite validator",
        "params": {
          "audit": "type of the audit",
          "validator": "address of the validator to invite"
        }
      },
      "inviteValidatorMultiple(address[],uint8,address)": {
        "details": "Used by Enterprise to invite multiple validators in one call ",
        "params": {
          "audit": "type of the audit",
          "validator": "address of the validator to invite"
        }
      },
      "isValidatorInvited(address,address,uint8)": {
        "details": "Used to determine if validator has been invited and/or if validation has been accepted",
        "params": {
          "audits": "types",
          "enterprise": "inviting party",
          "validator": "address of the validator"
        },
        "returns": {
          "_0": "true if invited",
          "_1": "true if accepted invitation"
        }
      },
      "renounceRole(bytes32,address)": {
        "details": "Revokes `role` from the calling account. Roles are often managed via {grantRole} and {revokeRole}: this function's purpose is to provide a mechanism for accounts to lose their privileges if they are compromised (such as when a trusted device is misplaced). If the calling account had been granted `role`, emits a {RoleRevoked} event. Requirements: - the caller must be `account`."
      },
      "returnCohorts(address)": {
        "details": "Used to return list of cohorts for enterprise",
        "params": {
          "enterprise": "inviting party"
        },
        "returns": {
          "_0": "cohort address ",
          "_1": "audit type"
        }
      },
      "returnInvitationCount(address,uint8)": {
        "details": "To return invitation count",
        "params": {
          "audit": "type",
          "enterprise": "address of the Enterprise who created invitation"
        },
        "returns": {
          "_0": "count of invitations"
        }
      },
      "returnOutstandingValidations()": {
        "details": "Function to calculate outstanding validations for enterprise. "
      },
      "revokeRole(bytes32,address)": {
        "details": "Revokes `role` from `account`. If `account` had been granted `role`, emits a {RoleRevoked} event. Requirements: - the caller must have ``role``'s admin role."
      },
      "updateMinValidatorsPerCohort(uint256,uint256)": {
        "details": "to be called by Governance contract to update new value for min validators per cohort",
        "params": {
          "_minValidatorPerCohort": "new value "
        }
      }
    },
    "title": "CohortFactory Allows on creation of invitations by Enterprise and acceptance of Validators of those  invitations. Finally Enterprise can create cohort consisting of invited Validators and Enterprise. ",
    "version": 1
  },
  "userdoc": {
    "kind": "user",
    "methods": {},
    "version": 1
  }
}