{
  "contractName": "Cohort",
  "abi": [
    {
      "anonymous": false,
      "inputs": [
        {
          "indexed": false,
          "internalType": "uint256",
          "name": "count",
          "type": "uint256"
        }
      ],
      "name": "LogOutstandingValidationRest",
      "type": "event"
    },
    {
      "anonymous": false,
      "inputs": [
        {
          "indexed": true,
          "internalType": "bytes32",
          "name": "role",
          "type": "bytes32"
        },
        {
          "indexed": true,
          "internalType": "bytes32",
          "name": "previousAdminRole",
          "type": "bytes32"
        },
        {
          "indexed": true,
          "internalType": "bytes32",
          "name": "newAdminRole",
          "type": "bytes32"
        }
      ],
      "name": "RoleAdminChanged",
      "type": "event"
    },
    {
      "anonymous": false,
      "inputs": [
        {
          "indexed": true,
          "internalType": "bytes32",
          "name": "role",
          "type": "bytes32"
        },
        {
          "indexed": true,
          "internalType": "address",
          "name": "account",
          "type": "address"
        },
        {
          "indexed": true,
          "internalType": "address",
          "name": "sender",
          "type": "address"
        }
      ],
      "name": "RoleGranted",
      "type": "event"
    },
    {
      "anonymous": false,
      "inputs": [
        {
          "indexed": true,
          "internalType": "bytes32",
          "name": "role",
          "type": "bytes32"
        },
        {
          "indexed": true,
          "internalType": "address",
          "name": "account",
          "type": "address"
        },
        {
          "indexed": true,
          "internalType": "address",
          "name": "sender",
          "type": "address"
        }
      ],
      "name": "RoleRevoked",
      "type": "event"
    },
    {
      "anonymous": false,
      "inputs": [
        {
          "indexed": true,
          "internalType": "bytes32",
          "name": "validationHash",
          "type": "bytes32"
        },
        {
          "indexed": true,
          "internalType": "uint256",
          "name": "timeExecuted",
          "type": "uint256"
        },
        {
          "indexed": false,
          "internalType": "address",
          "name": "cohort",
          "type": "address"
        }
      ],
      "name": "ValidationExecuted",
      "type": "event"
    },
    {
      "anonymous": false,
      "inputs": [
        {
          "indexed": false,
          "internalType": "bytes32",
          "name": "validationHash",
          "type": "bytes32"
        },
        {
          "indexed": true,
          "internalType": "uint256",
          "name": "initTime",
          "type": "uint256"
        },
        {
          "indexed": true,
          "internalType": "address",
          "name": "enterprise",
          "type": "address"
        },
        {
          "indexed": false,
          "internalType": "address",
          "name": "cohort",
          "type": "address"
        }
      ],
      "name": "ValidationInitialized",
      "type": "event"
    },
    {
      "anonymous": false,
      "inputs": [
        {
          "indexed": false,
          "internalType": "address",
          "name": "validator",
          "type": "address"
        },
        {
          "indexed": false,
          "internalType": "bytes32",
          "name": "documentHash",
          "type": "bytes32"
        },
        {
          "indexed": false,
          "internalType": "uint256",
          "name": "validationTime",
          "type": "uint256"
        },
        {
          "indexed": false,
          "internalType": "enum Cohort.ValidationStatus",
          "name": "decision",
          "type": "uint8"
        }
      ],
      "name": "ValidatorValidated",
      "type": "event"
    },
    {
      "inputs": [],
      "name": "CONTROLLER_ROLE",
      "outputs": [
        {
          "internalType": "bytes32",
          "name": "",
          "type": "bytes32"
        }
      ],
      "stateMutability": "view",
      "type": "function"
    },
    {
      "inputs": [],
      "name": "DEFAULT_ADMIN_ROLE",
      "outputs": [
        {
          "internalType": "bytes32",
          "name": "",
          "type": "bytes32"
        }
      ],
      "stateMutability": "view",
      "type": "function"
    },
    {
      "inputs": [],
      "name": "auditToken",
      "outputs": [
        {
          "internalType": "contract AuditToken",
          "name": "",
          "type": "address"
        }
      ],
      "stateMutability": "view",
      "type": "function"
    },
    {
      "inputs": [],
      "name": "audits",
      "outputs": [
        {
          "internalType": "enum Cohort.AuditTypes",
          "name": "",
          "type": "uint8"
        }
      ],
      "stateMutability": "view",
      "type": "function"
    },
    {
      "inputs": [
        {
          "internalType": "address",
          "name": "",
          "type": "address"
        }
      ],
      "name": "deposits",
      "outputs": [
        {
          "internalType": "uint256",
          "name": "",
          "type": "uint256"
        }
      ],
      "stateMutability": "view",
      "type": "function"
    },
    {
      "inputs": [],
      "name": "enterprise",
      "outputs": [
        {
          "internalType": "address",
          "name": "",
          "type": "address"
        }
      ],
      "stateMutability": "view",
      "type": "function"
    },
    {
      "inputs": [
        {
          "internalType": "bytes32",
          "name": "role",
          "type": "bytes32"
        }
      ],
      "name": "getRoleAdmin",
      "outputs": [
        {
          "internalType": "bytes32",
          "name": "",
          "type": "bytes32"
        }
      ],
      "stateMutability": "view",
      "type": "function"
    },
    {
      "inputs": [
        {
          "internalType": "bytes32",
          "name": "role",
          "type": "bytes32"
        },
        {
          "internalType": "uint256",
          "name": "index",
          "type": "uint256"
        }
      ],
      "name": "getRoleMember",
      "outputs": [
        {
          "internalType": "address",
          "name": "",
          "type": "address"
        }
      ],
      "stateMutability": "view",
      "type": "function"
    },
    {
      "inputs": [
        {
          "internalType": "bytes32",
          "name": "role",
          "type": "bytes32"
        }
      ],
      "name": "getRoleMemberCount",
      "outputs": [
        {
          "internalType": "uint256",
          "name": "",
          "type": "uint256"
        }
      ],
      "stateMutability": "view",
      "type": "function"
    },
    {
      "inputs": [
        {
          "internalType": "bytes32",
          "name": "role",
          "type": "bytes32"
        },
        {
          "internalType": "address",
          "name": "account",
          "type": "address"
        }
      ],
      "name": "grantRole",
      "outputs": [],
      "stateMutability": "nonpayable",
      "type": "function"
    },
    {
      "inputs": [
        {
          "internalType": "bytes32",
          "name": "role",
          "type": "bytes32"
        },
        {
          "internalType": "address",
          "name": "account",
          "type": "address"
        }
      ],
      "name": "hasRole",
      "outputs": [
        {
          "internalType": "bool",
          "name": "",
          "type": "bool"
        }
      ],
      "stateMutability": "view",
      "type": "function"
    },
    {
      "inputs": [],
      "name": "members",
      "outputs": [
        {
          "internalType": "contract Members",
          "name": "",
          "type": "address"
        }
      ],
      "stateMutability": "view",
      "type": "function"
    },
    {
      "inputs": [],
      "name": "outstandingValidations",
      "outputs": [
        {
          "internalType": "uint256",
          "name": "",
          "type": "uint256"
        }
      ],
      "stateMutability": "view",
      "type": "function"
    },
    {
      "inputs": [],
      "name": "platformShare",
      "outputs": [
        {
          "internalType": "uint256",
          "name": "",
          "type": "uint256"
        }
      ],
      "stateMutability": "view",
      "type": "function"
    },
    {
      "inputs": [
        {
          "internalType": "bytes32",
          "name": "role",
          "type": "bytes32"
        },
        {
          "internalType": "address",
          "name": "account",
          "type": "address"
        }
      ],
      "name": "renounceRole",
      "outputs": [],
      "stateMutability": "nonpayable",
      "type": "function"
    },
    {
      "inputs": [],
      "name": "requiredQuorum",
      "outputs": [
        {
          "internalType": "uint256",
          "name": "",
          "type": "uint256"
        }
      ],
      "stateMutability": "view",
      "type": "function"
    },
    {
      "inputs": [
        {
          "internalType": "bytes32",
          "name": "role",
          "type": "bytes32"
        },
        {
          "internalType": "address",
          "name": "account",
          "type": "address"
        }
      ],
      "name": "revokeRole",
      "outputs": [],
      "stateMutability": "nonpayable",
      "type": "function"
    },
    {
      "inputs": [
        {
          "internalType": "bytes32",
          "name": "",
          "type": "bytes32"
        }
      ],
      "name": "validations",
      "outputs": [
        {
          "internalType": "uint256",
          "name": "validationTime",
          "type": "uint256"
        },
        {
          "internalType": "uint256",
          "name": "executionTime",
          "type": "uint256"
        }
      ],
      "stateMutability": "view",
      "type": "function"
    },
    {
      "inputs": [
        {
          "internalType": "uint256",
          "name": "",
          "type": "uint256"
        }
      ],
      "name": "validators",
      "outputs": [
        {
          "internalType": "address",
          "name": "",
          "type": "address"
        }
      ],
      "stateMutability": "view",
      "type": "function"
    },
    {
      "inputs": [
        {
          "internalType": "address",
          "name": "_auditTokenAddress",
          "type": "address"
        },
        {
          "internalType": "contract Members",
          "name": "_members",
          "type": "address"
        },
        {
          "internalType": "address",
          "name": "_enterprise",
          "type": "address"
        },
        {
          "internalType": "address[]",
          "name": "_validators",
          "type": "address[]"
        },
        {
          "internalType": "uint256",
          "name": "_audits",
          "type": "uint256"
        }
      ],
      "name": "initialize",
      "outputs": [],
      "stateMutability": "nonpayable",
      "type": "function"
    },
    {
      "inputs": [],
      "name": "returnValidators",
      "outputs": [
        {
          "internalType": "address[]",
          "name": "",
          "type": "address[]"
        }
      ],
      "stateMutability": "view",
      "type": "function"
    },
    {
      "inputs": [
        {
          "internalType": "uint256",
          "name": "_requiredQuorum",
          "type": "uint256"
        }
      ],
      "name": "updateQuorum",
      "outputs": [],
      "stateMutability": "nonpayable",
      "type": "function"
    },
    {
      "inputs": [],
      "name": "resetOutstandingValidations",
      "outputs": [],
      "stateMutability": "nonpayable",
      "type": "function"
    },
    {
      "inputs": [
        {
          "internalType": "bytes32",
          "name": "documentHash",
          "type": "bytes32"
        }
      ],
      "name": "initializeValidation",
      "outputs": [],
      "stateMutability": "nonpayable",
      "type": "function"
    },
    {
      "inputs": [
        {
          "internalType": "bytes32",
          "name": "validationHash",
          "type": "bytes32"
        }
      ],
      "name": "collectValidationResults",
      "outputs": [
        {
          "internalType": "address[]",
          "name": "",
          "type": "address[]"
        },
        {
          "internalType": "uint256[]",
          "name": "",
          "type": "uint256[]"
        },
        {
          "internalType": "enum Cohort.ValidationStatus[]",
          "name": "",
          "type": "uint8[]"
        }
      ],
      "stateMutability": "view",
      "type": "function"
    },
    {
      "inputs": [
        {
          "internalType": "bytes32",
          "name": "validationHash",
          "type": "bytes32"
        }
      ],
      "name": "isValidated",
      "outputs": [
        {
          "internalType": "enum Cohort.ValidationStatus",
          "name": "",
          "type": "uint8"
        }
      ],
      "stateMutability": "view",
      "type": "function"
    },
    {
      "inputs": [
        {
          "internalType": "bytes32",
          "name": "validationHash",
          "type": "bytes32"
        }
      ],
      "name": "calculateVoteQuorum",
      "outputs": [
        {
          "internalType": "uint256",
          "name": "",
          "type": "uint256"
        }
      ],
      "stateMutability": "view",
      "type": "function"
    },
    {
      "inputs": [
        {
          "internalType": "bytes32",
          "name": "documentHash",
          "type": "bytes32"
        },
        {
          "internalType": "uint256",
          "name": "validationTime",
          "type": "uint256"
        },
        {
          "internalType": "enum Cohort.ValidationStatus",
          "name": "decision",
          "type": "uint8"
        }
      ],
      "name": "validate",
      "outputs": [],
      "stateMutability": "nonpayable",
      "type": "function"
    }
  ],
  "bytecode": "0x6080604052600f600355604b60045534801561001a57600080fd5b50612b518061002a6000396000f3fe608060405234801561001057600080fd5b50600436106101c45760003560e01c80639478a8c0116100f9578063bdd4d18d11610097578063d547741f11610071578063d547741f146108d1578063e28c38021461091f578063ebb33a8114610968578063fc7e286d146109c7576101c4565b8063bdd4d18d1461080e578063bf1db71e14610842578063ca15c8731461088f576101c4565b806399ae444a116100d357806399ae444a1461066f578063a217fddf14610698578063b39fd6cf146106b6578063bbe91d10146107c9576101c4565b80639478a8c0146105e957806398c3c1161461061d57806398d15e1314610651576101c4565b80637036014e1161016657806388e438fe1161014057806388e438fe146104b35780639010d07c146104f55780639047d7451461055757806391d1485414610585576101c4565b80637036014e1461035557806375d1a9d614610373578063860008f014610495576101c4565b80632faa6619116101a25780632faa66191461027757806335680dc21461028157806335aa2e44146102af57806336568abe14610307576101c4565b8063092c5b3b146101c9578063248a9ca3146101e75780632f2ff15d14610229575b600080fd5b6101d1610a1f565b6040518082815260200191505060405180910390f35b610213600480360360208110156101fd57600080fd5b8101908080359060200190929190505050610a43565b6040518082815260200191505060405180910390f35b6102756004803603604081101561023f57600080fd5b8101908080359060200190929190803573ffffffffffffffffffffffffffffffffffffffff169060200190929190505050610a62565b005b61027f610aeb565b005b6102ad6004803603602081101561029757600080fd5b8101908080359060200190929190505050610bad565b005b6102db600480360360208110156102c557600080fd5b8101908080359060200190929190505050610cad565b604051808273ffffffffffffffffffffffffffffffffffffffff16815260200191505060405180910390f35b6103536004803603604081101561031d57600080fd5b8101908080359060200190929190803573ffffffffffffffffffffffffffffffffffffffff169060200190929190505050610cec565b005b61035d610d85565b6040518082815260200191505060405180910390f35b610493600480360360a081101561038957600080fd5b81019080803573ffffffffffffffffffffffffffffffffffffffff169060200190929190803573ffffffffffffffffffffffffffffffffffffffff169060200190929190803573ffffffffffffffffffffffffffffffffffffffff1690602001909291908035906020019064010000000081111561040657600080fd5b82018360208201111561041857600080fd5b8035906020019184602083028401116401000000008311171561043a57600080fd5b919080806020026020016040519081016040528093929190818152602001838360200280828437600081840152601f19601f82011690508083019250505050505050919291929080359060200190929190505050610d8b565b005b61049d610fe7565b6040518082815260200191505060405180910390f35b6104df600480360360208110156104c957600080fd5b8101908080359060200190929190505050610fed565b6040518082815260200191505060405180910390f35b61052b6004803603604081101561050b57600080fd5b8101908080359060200190929190803590602001909291905050506113e2565b604051808273ffffffffffffffffffffffffffffffffffffffff16815260200191505060405180910390f35b6105836004803603602081101561056d57600080fd5b8101908080359060200190929190505050611413565b005b6105d16004803603604081101561059b57600080fd5b8101908080359060200190929190803573ffffffffffffffffffffffffffffffffffffffff16906020019092919050505061188c565b60405180821515815260200191505060405180910390f35b6105f16118bd565b604051808273ffffffffffffffffffffffffffffffffffffffff16815260200191505060405180910390f35b6106256118e3565b604051808273ffffffffffffffffffffffffffffffffffffffff16815260200191505060405180910390f35b610659611909565b6040518082815260200191505060405180910390f35b61067761190f565b6040518082600581111561068757fe5b815260200191505060405180910390f35b6106a0611922565b6040518082815260200191505060405180910390f35b6106e2600480360360208110156106cc57600080fd5b8101908080359060200190929190505050611929565b60405180806020018060200180602001848103845287818151815260200191508051906020019060200280838360005b8381101561072d578082015181840152602081019050610712565b50505050905001848103835286818151815260200191508051906020019060200280838360005b8381101561076f578082015181840152602081019050610754565b50505050905001848103825285818151815260200191508051906020019060200280838360005b838110156107b1578082015181840152602081019050610796565b50505050905001965050505050505060405180910390f35b61080c600480360360608110156107df57600080fd5b810190808035906020019092919080359060200190929190803560ff169060200190929190505050611c6b565b005b610816611fd8565b604051808273ffffffffffffffffffffffffffffffffffffffff16815260200191505060405180910390f35b61086e6004803603602081101561085857600080fd5b8101908080359060200190929190505050611ffe565b6040518082600281111561087e57fe5b815260200191505060405180910390f35b6108bb600480360360208110156108a557600080fd5b8101908080359060200190929190505050612068565b6040518082815260200191505060405180910390f35b61091d600480360360408110156108e757600080fd5b8101908080359060200190929190803573ffffffffffffffffffffffffffffffffffffffff16906020019092919050505061208e565b005b61094b6004803603602081101561093557600080fd5b8101908080359060200190929190505050612117565b604051808381526020018281526020019250505060405180910390f35b61097061213b565b6040518080602001828103825283818151815260200191508051906020019060200280838360005b838110156109b3578082015181840152602081019050610998565b505050509050019250505060405180910390f35b610a09600480360360208110156109dd57600080fd5b81019080803573ffffffffffffffffffffffffffffffffffffffff1690602001909291905050506121c9565b6040518082815260200191505060405180910390f35b7f7b765e0e932d348852a6f810bfa1ab891e259123f02db8cdcde614c57022335781565b6000806000838152602001908152602001600020600201549050919050565b610a8860008084815260200190815260200160002060020154610a836121e1565b61188c565b610add576040517f08c379a000000000000000000000000000000000000000000000000000000000815260040180806020018281038252602f815260200180612849602f913960400191505060405180910390fd5b610ae782826121e9565b5050565b610b157f7b765e0e932d348852a6f810bfa1ab891e259123f02db8cdcde614c5702233573361188c565b610b6a576040517f08c379a00000000000000000000000000000000000000000000000000000000081526004018080602001828103825260308152602001806128a66030913960400191505060405180910390fd5b7f2abea2711b2c7793f56d98c06108c81584562801d64d5625926743145680018d6007546040518082815260200191505060405180910390a16000600781905550565b610bd77f7b765e0e932d348852a6f810bfa1ab891e259123f02db8cdcde614c5702233573361188c565b610c2c576040517f08c379a00000000000000000000000000000000000000000000000000000000081526004018080602001828103825260308152602001806128a66030913960400191505060405180910390fd5b6000811415610ca3576040517f08c379a000000000000000000000000000000000000000000000000000000000815260040180806020018281038252601b8152602001807f4e65772071756f72756d2076616c75652063616e27742062652030000000000081525060200191505060405180910390fd5b8060048190555050565b60028181548110610cbd57600080fd5b906000526020600020016000915054906101000a900473ffffffffffffffffffffffffffffffffffffffff1681565b610cf46121e1565b73ffffffffffffffffffffffffffffffffffffffff168173ffffffffffffffffffffffffffffffffffffffff1614610d77576040517f08c379a000000000000000000000000000000000000000000000000000000000815260040180806020018281038252602f815260200180612aed602f913960400191505060405180910390fd5b610d81828261227c565b5050565b60045481565b600860009054906101000a900460ff1615610df1576040517f08c379a000000000000000000000000000000000000000000000000000000000815260040180806020018281038252603e815260200180612968603e913960400191505060405180910390fd5b82600160006101000a81548173ffffffffffffffffffffffffffffffffffffffff021916908373ffffffffffffffffffffffffffffffffffffffff1602179055508160029080519060200190610e4892919061277f565b50806005811115610e5557fe5b600860016101000a81548160ff02191690836005811115610e7257fe5b021790555084600560006101000a81548173ffffffffffffffffffffffffffffffffffffffff021916908373ffffffffffffffffffffffffffffffffffffffff16021790555083600660006101000a81548173ffffffffffffffffffffffffffffffffffffffff021916908373ffffffffffffffffffffffffffffffffffffffff1602179055506000600560009054906101000a900473ffffffffffffffffffffffffffffffffffffffff1673ffffffffffffffffffffffffffffffffffffffff16639010d07c6000801b60006040518363ffffffff1660e01b8152600401808381526020018281526020019250505060206040518083038186803b158015610f7a57600080fd5b505afa158015610f8e573d6000803e3d6000fd5b505050506040513d6020811015610fa457600080fd5b81019080805190602001909291905050509050610fc46000801b8261230f565b6001600860006101000a81548160ff021916908315150217905550505050505050565b60075481565b6000806000806009600086815260200190815260200160002090506000816000015411611065576040517f08c379a000000000000000000000000000000000000000000000000000000000815260040180806020018281038252603a815260200180612ab3603a913960400191505060405180910390fd5b60005b6002805490508110156113ca57600660009054906101000a900473ffffffffffffffffffffffffffffffffffffffff1673ffffffffffffffffffffffffffffffffffffffff1663fc7e286d600283815481106110c057fe5b9060005260206000200160009054906101000a900473ffffffffffffffffffffffffffffffffffffffff166040518263ffffffff1660e01b8152600401808273ffffffffffffffffffffffffffffffffffffffff16815260200191505060206040518083038186803b15801561113557600080fd5b505afa158015611149573d6000803e3d6000fd5b505050506040513d602081101561115f57600080fd5b8101908080519060200190929190505050840193506001600281111561118157fe5b8260020160006002848154811061119457fe5b9060005260206000200160009054906101000a900473ffffffffffffffffffffffffffffffffffffffff1673ffffffffffffffffffffffffffffffffffffffff1673ffffffffffffffffffffffffffffffffffffffff16815260200190815260200160002060009054906101000a900460ff16600281111561121257fe5b14806112b8575060028081111561122557fe5b8260020160006002848154811061123857fe5b9060005260206000200160009054906101000a900473ffffffffffffffffffffffffffffffffffffffff1673ffffffffffffffffffffffffffffffffffffffff1673ffffffffffffffffffffffffffffffffffffffff16815260200190815260200160002060009054906101000a900460ff1660028111156112b657fe5b145b156113bd57600660009054906101000a900473ffffffffffffffffffffffffffffffffffffffff1673ffffffffffffffffffffffffffffffffffffffff1663fc7e286d6002838154811061130857fe5b9060005260206000200160009054906101000a900473ffffffffffffffffffffffffffffffffffffffff166040518263ffffffff1660e01b8152600401808273ffffffffffffffffffffffffffffffffffffffff16815260200191505060206040518083038186803b15801561137d57600080fd5b505afa158015611391573d6000803e3d6000fd5b505050506040513d60208110156113a757600080fd5b8101908080519060200190929190505050830192505b8080600101915050611068565b508260648302816113d757fe5b049350505050919050565b600061140b8260008086815260200190815260200160002060000161231d90919063ffffffff16565b905092915050565b611592612710611584600660009054906101000a900473ffffffffffffffffffffffffffffffffffffffff1673ffffffffffffffffffffffffffffffffffffffff1663a7579be86040518163ffffffff1660e01b815260040160206040518083038186803b15801561148457600080fd5b505afa158015611498573d6000803e3d6000fd5b505050506040513d60208110156114ae57600080fd5b8101908080519060200190929190505050611576600754600660009054906101000a900473ffffffffffffffffffffffffffffffffffffffff1673ffffffffffffffffffffffffffffffffffffffff16634d9c798c6040518163ffffffff1660e01b815260040160206040518083038186803b15801561152d57600080fd5b505afa158015611541573d6000803e3d6000fd5b505050506040513d602081101561155757600080fd5b810190808051906020019092919050505061233790919063ffffffff16565b61233790919063ffffffff16565b6123bd90919063ffffffff16565b600660009054906101000a900473ffffffffffffffffffffffffffffffffffffffff1673ffffffffffffffffffffffffffffffffffffffff1663fc7e286d336040518263ffffffff1660e01b8152600401808273ffffffffffffffffffffffffffffffffffffffff16815260200191505060206040518083038186803b15801561161b57600080fd5b505afa15801561162f573d6000803e3d6000fd5b505050506040513d602081101561164557600080fd5b8101908080519060200190929190505050116116ac576040517f08c379a000000000000000000000000000000000000000000000000000000000815260040180806020018281038252604d815260200180612a32604d913960600191505060405180910390fd5b6000602060ff1611611709576040517f08c379a000000000000000000000000000000000000000000000000000000000815260040180806020018281038252603c81526020018061292c603c913960400191505060405180910390fd5b3373ffffffffffffffffffffffffffffffffffffffff16600160009054906101000a900473ffffffffffffffffffffffffffffffffffffffff1673ffffffffffffffffffffffffffffffffffffffff16146117af576040517f08c379a00000000000000000000000000000000000000000000000000000000081526004018080602001828103825260568152602001806128d66056913960600191505060405180910390fd5b600042905060008282604051602001808381526020018281526020019250505060405160208183030381529060405280519060200120905060076000815480929190600101919050555060006009600083815260200190815260200160002090504281600001819055503373ffffffffffffffffffffffffffffffffffffffff16837fc6a04694924682b1690a60b473e0ce42fa35b612140f57e8819e8d0a6b01602f8430604051808381526020018273ffffffffffffffffffffffffffffffffffffffff1681526020019250505060405180910390a350505050565b60006118b58260008086815260200190815260200160002060000161244690919063ffffffff16565b905092915050565b600160009054906101000a900473ffffffffffffffffffffffffffffffffffffffff1681565b600560009054906101000a900473ffffffffffffffffffffffffffffffffffffffff1681565b60035481565b600860019054906101000a900460ff1681565b6000801b81565b6060806060600060028054806020026020016040519081016040528092919081815260200182805480156119b257602002820191906000526020600020905b8160009054906101000a900473ffffffffffffffffffffffffffffffffffffffff1673ffffffffffffffffffffffffffffffffffffffff1681526020019060010190808311611968575b50505050509050600060028054905067ffffffffffffffff811180156119d757600080fd5b50604051908082528060200260200182016040528015611a065781602001602082028036833780820191505090505b509050600060028054905067ffffffffffffffff81118015611a2757600080fd5b50604051908082528060200260200182016040528015611a565781602001602082028036833780820191505090505b509050600060096000898152602001908152602001600020905060005b600280549050811015611c5657600660009054906101000a900473ffffffffffffffffffffffffffffffffffffffff1673ffffffffffffffffffffffffffffffffffffffff1663fc7e286d60028381548110611acb57fe5b9060005260206000200160009054906101000a900473ffffffffffffffffffffffffffffffffffffffff166040518263ffffffff1660e01b8152600401808273ffffffffffffffffffffffffffffffffffffffff16815260200191505060206040518083038186803b158015611b4057600080fd5b505afa158015611b54573d6000803e3d6000fd5b505050506040513d6020811015611b6a57600080fd5b8101908080519060200190929190505050848281518110611b8757fe5b60200260200101818152505081600201600060028381548110611ba657fe5b9060005260206000200160009054906101000a900473ffffffffffffffffffffffffffffffffffffffff1673ffffffffffffffffffffffffffffffffffffffff1673ffffffffffffffffffffffffffffffffffffffff16815260200190815260200160002060009054906101000a900460ff16838281518110611c2557fe5b60200260200101906002811115611c3857fe5b90816002811115611c4557fe5b815250508080600101915050611a73565b50838383965096509650505050509193909250565b6000838360405160200180838152602001828152602001925050506040516020818303038152906040528051906020012090506000600960008381526020019081526020016000209050600660009054906101000a900473ffffffffffffffffffffffffffffffffffffffff1673ffffffffffffffffffffffffffffffffffffffff166318d50d33336040518263ffffffff1660e01b8152600401808273ffffffffffffffffffffffffffffffffffffffff16815260200191505060206040518083038186803b158015611d3e57600080fd5b505afa158015611d52573d6000803e3d6000fd5b505050506040513d6020811015611d6857600080fd5b8101908080519060200190929190505050611dce576040517f08c379a000000000000000000000000000000000000000000000000000000000815260040180806020018281038252602e815260200180612878602e913960400191505060405180910390fd5b83816000015414611e2a576040517f08c379a0000000000000000000000000000000000000000000000000000000008152600401808060200182810382526034815260200180612a7f6034913960400191505060405180910390fd5b60016002811115611e3757fe5b8160020160003373ffffffffffffffffffffffffffffffffffffffff1673ffffffffffffffffffffffffffffffffffffffff16815260200190815260200160002060009054906101000a900460ff166002811115611e9157fe5b1415611ee8576040517f08c379a000000000000000000000000000000000000000000000000000000000815260040180806020018281038252603b8152602001806129a6603b913960400191505060405180910390fd5b828160020160003373ffffffffffffffffffffffffffffffffffffffff1673ffffffffffffffffffffffffffffffffffffffff16815260200190815260200160002060006101000a81548160ff02191690836002811115611f4557fe5b0217905550600081600101541415611f6157611f6082612476565b5b7f4b83165525e8a33e47863e81a457e20dcf4a5a565ff817e856ac3b232bf5e95733868686604051808573ffffffffffffffffffffffffffffffffffffffff168152602001848152602001838152602001826002811115611fbe57fe5b815260200194505050505060405180910390a15050505050565b600660009054906101000a900473ffffffffffffffffffffffffffffffffffffffff1681565b60006009600083815260200190815260200160002060020160003373ffffffffffffffffffffffffffffffffffffffff1673ffffffffffffffffffffffffffffffffffffffff16815260200190815260200160002060009054906101000a900460ff169050919050565b60006120876000808481526020019081526020016000206000016124fb565b9050919050565b6120b4600080848152602001908152602001600020600201546120af6121e1565b61188c565b612109576040517f08c379a00000000000000000000000000000000000000000000000000000000081526004018080602001828103825260308152602001806129e16030913960400191505060405180910390fd5b612113828261227c565b5050565b60096020528060005260406000206000915090508060000154908060010154905082565b606060028054806020026020016040519081016040528092919081815260200182805480156121bf57602002820191906000526020600020905b8160009054906101000a900473ffffffffffffffffffffffffffffffffffffffff1673ffffffffffffffffffffffffffffffffffffffff1681526020019060010190808311612175575b5050505050905090565b600a6020528060005260406000206000915090505481565b600033905090565b6122108160008085815260200190815260200160002060000161251090919063ffffffff16565b156122785761221d6121e1565b73ffffffffffffffffffffffffffffffffffffffff168173ffffffffffffffffffffffffffffffffffffffff16837f2f8788117e7eff1d82e926ec794901d17c78024a50270940304540a733656f0d60405160405180910390a45b5050565b6122a38160008085815260200190815260200160002060000161254090919063ffffffff16565b1561230b576122b06121e1565b73ffffffffffffffffffffffffffffffffffffffff168173ffffffffffffffffffffffffffffffffffffffff16837ff6391f5c32d9c69d2a47ea670b442974b53935d1edc7fd64eb21e047a839171b60405160405180910390a45b5050565b61231982826121e9565b5050565b600061232c8360000183612570565b60001c905092915050565b60008083141561234a57600090506123b7565b600082840290508284828161235b57fe5b04146123b2576040517f08c379a0000000000000000000000000000000000000000000000000000000008152600401808060200182810382526021815260200180612a116021913960400191505060405180910390fd5b809150505b92915050565b6000808211612434576040517f08c379a000000000000000000000000000000000000000000000000000000000815260040180806020018281038252601a8152602001807f536166654d6174683a206469766973696f6e206279207a65726f00000000000081525060200191505060405180910390fd5b81838161243d57fe5b04905092915050565b600061246e836000018373ffffffffffffffffffffffffffffffffffffffff1660001b6125f3565b905092915050565b60045461248282610fed565b106124f857600060096000838152602001908152602001600020905042816001018190555042827f4641078b78dd9bebdf6f33ac78436683380992cde468d54bb56ffe15b0850bdd30604051808273ffffffffffffffffffffffffffffffffffffffff16815260200191505060405180910390a3505b50565b600061250982600001612616565b9050919050565b6000612538836000018373ffffffffffffffffffffffffffffffffffffffff1660001b612627565b905092915050565b6000612568836000018373ffffffffffffffffffffffffffffffffffffffff1660001b612697565b905092915050565b6000818360000180549050116125d1576040517f08c379a00000000000000000000000000000000000000000000000000000000081526004018080602001828103825260228152602001806128276022913960400191505060405180910390fd5b8260000182815481106125e057fe5b9060005260206000200154905092915050565b600080836001016000848152602001908152602001600020541415905092915050565b600081600001805490509050919050565b600061263383836125f3565b61268c578260000182908060018154018082558091505060019003906000526020600020016000909190919091505582600001805490508360010160008481526020019081526020016000208190555060019050612691565b600090505b92915050565b6000808360010160008481526020019081526020016000205490506000811461277357600060018203905060006001866000018054905003905060008660000182815481106126e257fe5b90600052602060002001549050808760000184815481106126ff57fe5b906000526020600020018190555060018301876001016000838152602001908152602001600020819055508660000180548061273757fe5b60019003818190600052602060002001600090559055866001016000878152602001908152602001600020600090556001945050505050612779565b60009150505b92915050565b8280548282559060005260206000209081019282156127f8579160200282015b828111156127f75782518260006101000a81548173ffffffffffffffffffffffffffffffffffffffff021916908373ffffffffffffffffffffffffffffffffffffffff1602179055509160200191906001019061279f565b5b5090506128059190612809565b5090565b5b8082111561282257600081600090555060010161280a565b509056fe456e756d657261626c655365743a20696e646578206f7574206f6620626f756e6473416363657373436f6e74726f6c3a2073656e646572206d75737420626520616e2061646d696e20746f206772616e74436f686f72743a76616c6964617465202d2056616c696461746f72206973206e6f7420617574686f72697a65642e436f686f72743a6973436f6e74726f6c6c6572202d2043616c6c6572206973206e6f74206120636f6e74726f6c6c6572436f686f72743a696e697469616c697a6556616c69646174696f6e202d204f6e6c7920656e7465727072697365206f77696e67207468697320636f686f72742063616e2063616c6c20746869732066756e6374696f6e436f686f72743a696e697469616c697a6556616c69646174696f6e202d20446f63756d656e7420686173682076616c75652063616e27742062652030436f686f72743a696e697469616c697a65202d207468697320436f686f727420686173206265656e20616c726561647920696e697469616c697a65642e20436f686f72743a76616c6964617465202d205468697320646f63756d656e7420686173206265656e2076616c69646174656420616c72656164792e416363657373436f6e74726f6c3a2073656e646572206d75737420626520616e2061646d696e20746f207265766f6b65536166654d6174683a206d756c7469706c69636174696f6e206f766572666c6f77436f686f72743a696e697469616c697a6556616c69646174696f6e202d204e6f742073756666696369656e742066756e64732e204465706f736974206164646974696f6e616c2066756e64732e436f686f72743a76616c6964617465202d207468652076616c69646174696f6e20706172616d7320646f6e2774206d617463682e436f686f72743a63616c63756c617465566f746551756f72756d202d2056616c69646174696f6e206861736820646f65736e2774206578697374416363657373436f6e74726f6c3a2063616e206f6e6c792072656e6f756e636520726f6c657320666f722073656c66a2646970667358221220d562d79ccfaaaf7b334114254f7628bbc2336becd3583361e3bb6c080af0ac8a64736f6c63430007060033",
  "immutableReferences": {},
  "source": "// SPDX-License-Identifier: MIT\npragma solidity >=0.7.0 <0.8.0;\n\nimport \"./../AuditToken.sol\";\nimport \"./Members.sol\";\nimport \"@openzeppelin/contracts/math/SafeMath.sol\";\nimport \"@openzeppelin/contracts/token/ERC20/SafeERC20.sol\";\nimport \"@openzeppelin/contracts/access/AccessControl.sol\";\n\n/**\n * @title CohortF\n * @dev AccessControl \n * Allows on creation of invitations by Enterprise and acceptance of Validators of those \n * invitations. Finally Enterprise can create cohort consisting of invited Validators\n * and enterprise. \n */\ncontract Cohort is AccessControl {\n\n    using SafeMath for uint256;\n    using SafeERC20 for AuditToken;\n\n    address public enterprise;\n    address[] public validators;\n    uint256 public platformShare = 15;                          //Percentage of platform share\n    uint256 public requiredQuorum = 75;\n    AuditToken public auditToken;                                \n    Members public members;\n    uint256 public outstandingValidations;\n    // uint256 public recentBlockUpdated;\n    bool initialized;\n\n    // Create a new role identifier for the controller role\n    bytes32 public constant CONTROLLER_ROLE = keccak256(\"CONTROLLER_ROLE\");  \n  \n\n    // check if caller is authorized to make the call  \n    modifier isController {\n        require(hasRole(CONTROLLER_ROLE, msg.sender), \"Cohort:isController - Caller is not a controller\");\n\n        _;\n    }\n\n \n    // Audit types to be used. Three types added for future expansion \n    enum AuditTypes {\n        Financial,\n        System,\n        Contract,\n        Type4,\n        Type5,\n        Type6\n    }\n\n    AuditTypes public audits;\n\n    // Validation can be approved or disapproved. Initial status is undefined. \n    enum ValidationStatus {\n        Undefined,\n        Yes,\n        No\n    }\n\n    struct Validation {       \n        uint256 validationTime;\n        uint256 executionTime;\n        mapping(address => ValidationStatus) validatorChoice;\n    }\n\n    mapping(bytes32 => Validation) public validations;  // track each validation\n    mapping(address => uint256) public deposits;        //track deposits per user\n\n\n    event ValidationInitialized(bytes32 validationHash, uint indexed initTime, address indexed enterprise, address cohort);\n    event ValidatorValidated(address validator, bytes32 documentHash, uint256 validationTime, ValidationStatus decision );\n    event ValidationExecuted(bytes32 indexed validationHash, uint256 indexed timeExecuted, address cohort);\n    // event LogRewardsRedeemed(address user, uint256 amount);\n    event LogOutstandingValidationRest(uint256 count);\n    \n    /**\n    * @dev Called from CohortFactory.sol by Enterprise within the cohort creation function\n    * @param _auditTokenAddress     // address of AUDT token contract\n    * @param _members               // address of Members contract\n    * @param _enterprise            // address of enterprise user\n    * @param _validators            // list of invited validators\n    * @param _audits                // audit type\n    */\n    function initialize(address _auditTokenAddress, \n                        Members _members,\n                        address _enterprise, \n                        address[] memory _validators, \n                        uint256 _audits)\n                        public {\n        require(!initialized, \"Cohort:initialize - this Cohort has been already initialized. \");\n        enterprise =_enterprise;\n        validators = _validators;\n        audits = AuditTypes(_audits);\n        auditToken = AuditToken(_auditTokenAddress);\n        members = _members;\n        address tokenAdmin = auditToken.getRoleMember(DEFAULT_ADMIN_ROLE, 0);  // get admin of token contract\n        _setupRole(DEFAULT_ADMIN_ROLE, tokenAdmin);\n        initialized = true; \n    }\n\n    /**\n    * @dev returns list of validators for this cohort\n    * @return array of validators\n    */\n    function returnValidators( ) public view returns(address[] memory) {\n\n        return validators;\n    }\n\n\n    /**\n    * @dev to be called by administrator to update new amount for required quorum\n    * @param _requiredQuorum new value of required quorum\n    */\n    function updateQuorum(uint256 _requiredQuorum) public isController() {\n\n        require(_requiredQuorum != 0, \"New quorum value can't be 0\");\n        requiredQuorum = _requiredQuorum;\n    }   \n\n    function resetOutstandingValidations() public isController() {\n\n        emit LogOutstandingValidationRest(outstandingValidations);\n        outstandingValidations = 0;\n    }\n\n    /**\n    * @dev to be called by Enterprise to initiate new validation\n    * @param documentHash - hash of unique identifier of validated transaction\n    */\n    function initializeValidation(bytes32 documentHash) public {\n\n        // div(1e4) account for precision up to 4 decimal points\n        require(members.deposits(msg.sender) > members.amountTokensPerValidation().mul(outstandingValidations).mul(members.enterpriseMatch()).div(1e4), \"Cohort:initializeValidation - Not sufficient funds. Deposit additional funds.\");\n        require(documentHash.length > 0, \"Cohort:initializeValidation - Document hash value can't be 0\" );\n        require(enterprise == msg.sender, \"Cohort:initializeValidation - Only enterprise owing this cohort can call this function\");\n        uint256 validationTime =  block.timestamp;\n        bytes32 validationHash = keccak256(abi.encodePacked(documentHash, validationTime));\n\n\n        outstandingValidations++;\n\n        Validation storage newValidation =  validations[validationHash];\n        newValidation.validationTime = block.timestamp;       \n        emit ValidationInitialized(validationHash, validationTime, msg.sender, address(this));\n    }\n\n    /**\n    * @dev only controller can call this function to obtain full state of validation\n    * @param validationHash - consist of hash of hashed document and timestamp\n    * @return array  of validators\n    * @return array of stakes of each validator\n    * @return array of validation choices for each validator\n    */\n    function collectValidationResults(bytes32 validationHash)public view  returns (address[] memory, uint256[] memory, ValidationStatus[] memory) {\n\n        address[] memory validatorsList = validators;\n        uint256[] memory stake = new uint256[](validators.length); \n        ValidationStatus[] memory validatorsValues = new ValidationStatus[](validators.length);\n\n        Validation storage validation =  validations[validationHash];\n\n        for (uint256 i=0; i< validators.length; i++ ){               \n            stake[i] = members.deposits(validators[i]);\n            validatorsValues[i] = validation.validatorChoice[validators[i]];\n        }\n        return (validatorsList, stake, validatorsValues);\n    }\n\n    /**\n    * @dev validators can check if specific document has been already validated by them\n    * @param validationHash - consist of hash of hashed document and timestamp\n    * @return validation choices used by validator\n    */\n    function isValidated(bytes32 validationHash) public view returns (ValidationStatus) {\n\n        return validations[validationHash].validatorChoice[msg.sender];\n    }\n\n\n    /**\n    * @dev to calculate state of the quorum for the validation\n    * @param validationHash - consist of hash of hashed document and timestamp\n    * @return number representing current participation level in percentage\n    */\n    function calculateVoteQuorum(bytes32 validationHash) public view returns(uint256) {\n\n        uint totalStaked;\n        uint currentlyVoted; \n\n        Validation storage validation =  validations[validationHash];\n        require(validation.validationTime > 0, \"Cohort:calculateVoteQuorum - Validation hash doesn't exist\");\n\n        for (uint256 i=0; i< validators.length; i++ ){\n            totalStaked += members.deposits(validators[i]);\n            if (validation.validatorChoice[validators[i]] ==  ValidationStatus.Yes || validation.validatorChoice[validators[i]] == ValidationStatus.No )\n                currentlyVoted += members.deposits(validators[i]);\n        }\n        return currentlyVoted * 100/totalStaked;\n    }\n\n  \n    /**\n    * @dev to mark validation as executed. This happens when participation level reached \"requiredQuorum\"\n    * @param validationHash - consist of hash of hashed document and timestamp\n    */\n    function executeValidation(bytes32 validationHash) internal {\n\n        if (calculateVoteQuorum(validationHash) >= requiredQuorum){            \n            Validation storage validation =  validations[validationHash];\n            validation.executionTime = block.timestamp; \n            emit ValidationExecuted(validationHash, block.timestamp, address(this));\n        }\n    }\n\n    /**\n    * @dev called by validator to approve or disapprove this validation\n    * @param documentHash - hash of validated document\n    * @param validationTime - this is the time when validation has been initialized \n    * @param decision - one of the ValidationStatus choices cast by validator\n    */\n    function validate(bytes32 documentHash, uint256 validationTime, ValidationStatus decision ) public {\n\n        bytes32 validationHash = keccak256(abi.encodePacked(documentHash, validationTime));\n        Validation storage validation =  validations[validationHash];\n        require(members.validatorMap(msg.sender), \"Cohort:validate - Validator is not authorized.\");\n        require(validation.validationTime == validationTime, \"Cohort:validate - the validation params don't match.\");\n        require(validation.validatorChoice[msg.sender] != ValidationStatus.Yes,\n                \"Cohort:validate - This document has been validated already.\");\n        validation.validatorChoice[msg.sender] = decision;\n        \n        if (validation.executionTime == 0)\n            executeValidation(validationHash);\n            \n        emit ValidatorValidated(msg.sender, documentHash, validationTime, decision );\n    }\n   \n}",
  "sourcePath": "/home/bogdan/Ethereum/Projects/TGE/Core-Smart-Contracts-v1/contracts/Auditchain/Cohort.sol",
  "compiler": {
    "name": "solc",
    "version": "0.7.6+commit.7338295f.Emscripten.clang"
  },
  "schemaVersion": "3.3.4",
  "updatedAt": "2021-03-11T15:30:25.463Z",
  "devdoc": {
    "details": "AccessControl  Allows on creation of invitations by Enterprise and acceptance of Validators of those  invitations. Finally Enterprise can create cohort consisting of invited Validators and enterprise. ",
    "kind": "dev",
    "methods": {
      "calculateVoteQuorum(bytes32)": {
        "details": "to calculate state of the quorum for the validation",
        "params": {
          "validationHash": "- consist of hash of hashed document and timestamp"
        },
        "returns": {
          "_0": "number representing current participation level in percentage"
        }
      },
      "collectValidationResults(bytes32)": {
        "details": "only controller can call this function to obtain full state of validation",
        "params": {
          "validationHash": "- consist of hash of hashed document and timestamp"
        },
        "returns": {
          "_0": "array  of validators",
          "_1": "array of stakes of each validator",
          "_2": "array of validation choices for each validator"
        }
      },
      "getRoleAdmin(bytes32)": {
        "details": "Returns the admin role that controls `role`. See {grantRole} and {revokeRole}. To change a role's admin, use {_setRoleAdmin}."
      },
      "getRoleMember(bytes32,uint256)": {
        "details": "Returns one of the accounts that have `role`. `index` must be a value between 0 and {getRoleMemberCount}, non-inclusive. Role bearers are not sorted in any particular way, and their ordering may change at any point. WARNING: When using {getRoleMember} and {getRoleMemberCount}, make sure you perform all queries on the same block. See the following https://forum.openzeppelin.com/t/iterating-over-elements-on-enumerableset-in-openzeppelin-contracts/2296[forum post] for more information."
      },
      "getRoleMemberCount(bytes32)": {
        "details": "Returns the number of accounts that have `role`. Can be used together with {getRoleMember} to enumerate all bearers of a role."
      },
      "grantRole(bytes32,address)": {
        "details": "Grants `role` to `account`. If `account` had not been already granted `role`, emits a {RoleGranted} event. Requirements: - the caller must have ``role``'s admin role."
      },
      "hasRole(bytes32,address)": {
        "details": "Returns `true` if `account` has been granted `role`."
      },
      "initialize(address,address,address,address[],uint256)": {
        "details": "Called from CohortFactory.sol by Enterprise within the cohort creation function",
        "params": {
          "_auditTokenAddress": "// address of AUDT token contract",
          "_audits": "// audit type",
          "_enterprise": "// address of enterprise user",
          "_members": "// address of Members contract",
          "_validators": "// list of invited validators"
        }
      },
      "initializeValidation(bytes32)": {
        "details": "to be called by Enterprise to initiate new validation",
        "params": {
          "documentHash": "- hash of unique identifier of validated transaction"
        }
      },
      "isValidated(bytes32)": {
        "details": "validators can check if specific document has been already validated by them",
        "params": {
          "validationHash": "- consist of hash of hashed document and timestamp"
        },
        "returns": {
          "_0": "validation choices used by validator"
        }
      },
      "renounceRole(bytes32,address)": {
        "details": "Revokes `role` from the calling account. Roles are often managed via {grantRole} and {revokeRole}: this function's purpose is to provide a mechanism for accounts to lose their privileges if they are compromised (such as when a trusted device is misplaced). If the calling account had been granted `role`, emits a {RoleRevoked} event. Requirements: - the caller must be `account`."
      },
      "returnValidators()": {
        "details": "returns list of validators for this cohort",
        "returns": {
          "_0": "array of validators"
        }
      },
      "revokeRole(bytes32,address)": {
        "details": "Revokes `role` from `account`. If `account` had been granted `role`, emits a {RoleRevoked} event. Requirements: - the caller must have ``role``'s admin role."
      },
      "updateQuorum(uint256)": {
        "details": "to be called by administrator to update new amount for required quorum",
        "params": {
          "_requiredQuorum": "new value of required quorum"
        }
      },
      "validate(bytes32,uint256,uint8)": {
        "details": "called by validator to approve or disapprove this validation",
        "params": {
          "decision": "- one of the ValidationStatus choices cast by validator",
          "documentHash": "- hash of validated document",
          "validationTime": "- this is the time when validation has been initialized "
        }
      }
    },
    "title": "CohortF",
    "version": 1
  },
  "userdoc": {
    "kind": "user",
    "methods": {},
    "version": 1
  }
}