{
  "contractName": "CohortFactory",
  "abi": [
    {
      "inputs": [
        {
          "internalType": "contract Members",
          "name": "_members",
          "type": "address"
        },
        {
          "internalType": "contract MemberHelpers",
          "name": "_memberHelpers",
          "type": "address"
        }
      ],
      "stateMutability": "nonpayable",
      "type": "constructor"
    },
    {
      "anonymous": false,
      "inputs": [
        {
          "indexed": true,
          "internalType": "address",
          "name": "enterprise",
          "type": "address"
        },
        {
          "indexed": false,
          "internalType": "uint256",
          "name": "audits",
          "type": "uint256"
        }
      ],
      "name": "CohortCreated",
      "type": "event"
    },
    {
      "anonymous": false,
      "inputs": [
        {
          "indexed": true,
          "internalType": "address",
          "name": "validator",
          "type": "address"
        },
        {
          "indexed": false,
          "internalType": "uint256",
          "name": "invitationNumber",
          "type": "uint256"
        }
      ],
      "name": "InvitationAccepted",
      "type": "event"
    },
    {
      "anonymous": false,
      "inputs": [
        {
          "indexed": true,
          "internalType": "bytes32",
          "name": "role",
          "type": "bytes32"
        },
        {
          "indexed": true,
          "internalType": "bytes32",
          "name": "previousAdminRole",
          "type": "bytes32"
        },
        {
          "indexed": true,
          "internalType": "bytes32",
          "name": "newAdminRole",
          "type": "bytes32"
        }
      ],
      "name": "RoleAdminChanged",
      "type": "event"
    },
    {
      "anonymous": false,
      "inputs": [
        {
          "indexed": true,
          "internalType": "bytes32",
          "name": "role",
          "type": "bytes32"
        },
        {
          "indexed": true,
          "internalType": "address",
          "name": "account",
          "type": "address"
        },
        {
          "indexed": true,
          "internalType": "address",
          "name": "sender",
          "type": "address"
        }
      ],
      "name": "RoleGranted",
      "type": "event"
    },
    {
      "anonymous": false,
      "inputs": [
        {
          "indexed": true,
          "internalType": "bytes32",
          "name": "role",
          "type": "bytes32"
        },
        {
          "indexed": true,
          "internalType": "address",
          "name": "account",
          "type": "address"
        },
        {
          "indexed": true,
          "internalType": "address",
          "name": "sender",
          "type": "address"
        }
      ],
      "name": "RoleRevoked",
      "type": "event"
    },
    {
      "anonymous": false,
      "inputs": [
        {
          "indexed": false,
          "internalType": "uint256",
          "name": "minValidatorPerCohort",
          "type": "uint256"
        },
        {
          "indexed": false,
          "internalType": "enum CohortFactory.AuditTypes",
          "name": "audits",
          "type": "uint8"
        }
      ],
      "name": "UpdateMinValidatorsPerCohort",
      "type": "event"
    },
    {
      "anonymous": false,
      "inputs": [
        {
          "indexed": false,
          "internalType": "address",
          "name": "validator",
          "type": "address"
        },
        {
          "indexed": false,
          "internalType": "enum CohortFactory.AuditTypes",
          "name": "audit",
          "type": "uint8"
        },
        {
          "indexed": false,
          "internalType": "address",
          "name": "enterprise",
          "type": "address"
        }
      ],
      "name": "ValidatorCleared",
      "type": "event"
    },
    {
      "anonymous": false,
      "inputs": [
        {
          "indexed": false,
          "internalType": "address",
          "name": "inviting",
          "type": "address"
        },
        {
          "indexed": true,
          "internalType": "address",
          "name": "invitee",
          "type": "address"
        },
        {
          "indexed": true,
          "internalType": "enum CohortFactory.AuditTypes",
          "name": "audits",
          "type": "uint8"
        },
        {
          "indexed": false,
          "internalType": "uint256",
          "name": "invitationNumber",
          "type": "uint256"
        }
      ],
      "name": "ValidatorInvited",
      "type": "event"
    },
    {
      "inputs": [],
      "name": "DEFAULT_ADMIN_ROLE",
      "outputs": [
        {
          "internalType": "bytes32",
          "name": "",
          "type": "bytes32"
        }
      ],
      "stateMutability": "view",
      "type": "function",
      "constant": true
    },
    {
      "inputs": [],
      "name": "SETTER_ROLE",
      "outputs": [
        {
          "internalType": "bytes32",
          "name": "",
          "type": "bytes32"
        }
      ],
      "stateMutability": "view",
      "type": "function",
      "constant": true
    },
    {
      "inputs": [
        {
          "internalType": "address",
          "name": "",
          "type": "address"
        },
        {
          "internalType": "uint256",
          "name": "",
          "type": "uint256"
        }
      ],
      "name": "cohortList",
      "outputs": [
        {
          "internalType": "uint256",
          "name": "",
          "type": "uint256"
        }
      ],
      "stateMutability": "view",
      "type": "function",
      "constant": true
    },
    {
      "inputs": [
        {
          "internalType": "address",
          "name": "",
          "type": "address"
        },
        {
          "internalType": "uint256",
          "name": "",
          "type": "uint256"
        }
      ],
      "name": "cohortMap",
      "outputs": [
        {
          "internalType": "bool",
          "name": "",
          "type": "bool"
        }
      ],
      "stateMutability": "view",
      "type": "function",
      "constant": true
    },
    {
      "inputs": [
        {
          "internalType": "bytes32",
          "name": "role",
          "type": "bytes32"
        }
      ],
      "name": "getRoleAdmin",
      "outputs": [
        {
          "internalType": "bytes32",
          "name": "",
          "type": "bytes32"
        }
      ],
      "stateMutability": "view",
      "type": "function",
      "constant": true
    },
    {
      "inputs": [
        {
          "internalType": "bytes32",
          "name": "role",
          "type": "bytes32"
        },
        {
          "internalType": "address",
          "name": "account",
          "type": "address"
        }
      ],
      "name": "grantRole",
      "outputs": [],
      "stateMutability": "nonpayable",
      "type": "function"
    },
    {
      "inputs": [
        {
          "internalType": "bytes32",
          "name": "role",
          "type": "bytes32"
        },
        {
          "internalType": "address",
          "name": "account",
          "type": "address"
        }
      ],
      "name": "hasRole",
      "outputs": [
        {
          "internalType": "bool",
          "name": "",
          "type": "bool"
        }
      ],
      "stateMutability": "view",
      "type": "function",
      "constant": true
    },
    {
      "inputs": [
        {
          "internalType": "address",
          "name": "",
          "type": "address"
        },
        {
          "internalType": "uint256",
          "name": "",
          "type": "uint256"
        }
      ],
      "name": "invitations",
      "outputs": [
        {
          "internalType": "address",
          "name": "validator",
          "type": "address"
        },
        {
          "internalType": "uint256",
          "name": "invitationDate",
          "type": "uint256"
        },
        {
          "internalType": "uint256",
          "name": "acceptanceDate",
          "type": "uint256"
        },
        {
          "internalType": "enum CohortFactory.AuditTypes",
          "name": "audits",
          "type": "uint8"
        },
        {
          "internalType": "bool",
          "name": "deleted",
          "type": "bool"
        }
      ],
      "stateMutability": "view",
      "type": "function",
      "constant": true
    },
    {
      "inputs": [],
      "name": "memberHelpers",
      "outputs": [
        {
          "internalType": "contract MemberHelpers",
          "name": "",
          "type": "address"
        }
      ],
      "stateMutability": "view",
      "type": "function",
      "constant": true
    },
    {
      "inputs": [
        {
          "internalType": "uint256",
          "name": "",
          "type": "uint256"
        }
      ],
      "name": "minValidatorPerCohort",
      "outputs": [
        {
          "internalType": "uint256",
          "name": "",
          "type": "uint256"
        }
      ],
      "stateMutability": "view",
      "type": "function",
      "constant": true
    },
    {
      "inputs": [
        {
          "internalType": "bytes32",
          "name": "role",
          "type": "bytes32"
        },
        {
          "internalType": "address",
          "name": "account",
          "type": "address"
        }
      ],
      "name": "renounceRole",
      "outputs": [],
      "stateMutability": "nonpayable",
      "type": "function"
    },
    {
      "inputs": [
        {
          "internalType": "bytes32",
          "name": "role",
          "type": "bytes32"
        },
        {
          "internalType": "address",
          "name": "account",
          "type": "address"
        }
      ],
      "name": "revokeRole",
      "outputs": [],
      "stateMutability": "nonpayable",
      "type": "function"
    },
    {
      "inputs": [
        {
          "internalType": "bytes4",
          "name": "interfaceId",
          "type": "bytes4"
        }
      ],
      "name": "supportsInterface",
      "outputs": [
        {
          "internalType": "bool",
          "name": "",
          "type": "bool"
        }
      ],
      "stateMutability": "view",
      "type": "function",
      "constant": true
    },
    {
      "inputs": [
        {
          "internalType": "address",
          "name": "",
          "type": "address"
        },
        {
          "internalType": "address",
          "name": "",
          "type": "address"
        },
        {
          "internalType": "uint256",
          "name": "",
          "type": "uint256"
        }
      ],
      "name": "validatorCohortList",
      "outputs": [
        {
          "internalType": "enum CohortFactory.AuditTypes",
          "name": "",
          "type": "uint8"
        }
      ],
      "stateMutability": "view",
      "type": "function",
      "constant": true
    },
    {
      "inputs": [
        {
          "internalType": "uint256",
          "name": "_minValidatorPerCohort",
          "type": "uint256"
        },
        {
          "internalType": "uint256",
          "name": "audits",
          "type": "uint256"
        }
      ],
      "name": "updateMinValidatorsPerCohort",
      "outputs": [],
      "stateMutability": "nonpayable",
      "type": "function"
    },
    {
      "inputs": [
        {
          "internalType": "address",
          "name": "validator",
          "type": "address"
        },
        {
          "internalType": "uint256",
          "name": "audit",
          "type": "uint256"
        }
      ],
      "name": "inviteValidator",
      "outputs": [],
      "stateMutability": "nonpayable",
      "type": "function"
    },
    {
      "inputs": [
        {
          "internalType": "address[]",
          "name": "validator",
          "type": "address[]"
        },
        {
          "internalType": "enum CohortFactory.AuditTypes",
          "name": "audit",
          "type": "uint8"
        }
      ],
      "name": "inviteValidatorMultiple",
      "outputs": [],
      "stateMutability": "nonpayable",
      "type": "function"
    },
    {
      "inputs": [
        {
          "internalType": "address",
          "name": "enterprise",
          "type": "address"
        },
        {
          "internalType": "uint256",
          "name": "invitationNumber",
          "type": "uint256"
        }
      ],
      "name": "acceptInvitation",
      "outputs": [],
      "stateMutability": "nonpayable",
      "type": "function"
    },
    {
      "inputs": [
        {
          "internalType": "address",
          "name": "validator",
          "type": "address"
        },
        {
          "internalType": "enum CohortFactory.AuditTypes",
          "name": "audit",
          "type": "uint8"
        }
      ],
      "name": "clearInvitationRemoveValidator",
      "outputs": [
        {
          "internalType": "bool",
          "name": "",
          "type": "bool"
        }
      ],
      "stateMutability": "nonpayable",
      "type": "function"
    },
    {
      "inputs": [
        {
          "internalType": "address[]",
          "name": "enterprise",
          "type": "address[]"
        },
        {
          "internalType": "uint256[]",
          "name": "invitationNumber",
          "type": "uint256[]"
        }
      ],
      "name": "acceptInvitationMultiple",
      "outputs": [],
      "stateMutability": "nonpayable",
      "type": "function"
    },
    {
      "inputs": [
        {
          "internalType": "address",
          "name": "enterprise",
          "type": "address"
        },
        {
          "internalType": "enum CohortFactory.AuditTypes",
          "name": "audit",
          "type": "uint8"
        }
      ],
      "name": "returnInvitationCount",
      "outputs": [
        {
          "internalType": "uint256",
          "name": "",
          "type": "uint256"
        }
      ],
      "stateMutability": "view",
      "type": "function",
      "constant": true
    },
    {
      "inputs": [
        {
          "internalType": "address",
          "name": "enterprise",
          "type": "address"
        },
        {
          "internalType": "address",
          "name": "validator",
          "type": "address"
        },
        {
          "internalType": "uint256",
          "name": "audits",
          "type": "uint256"
        }
      ],
      "name": "isValidatorInvited",
      "outputs": [
        {
          "internalType": "bool",
          "name": "",
          "type": "bool"
        },
        {
          "internalType": "bool",
          "name": "",
          "type": "bool"
        }
      ],
      "stateMutability": "view",
      "type": "function",
      "constant": true
    },
    {
      "inputs": [
        {
          "internalType": "address",
          "name": "enterprise",
          "type": "address"
        },
        {
          "internalType": "address",
          "name": "validator",
          "type": "address"
        },
        {
          "internalType": "uint256",
          "name": "audits",
          "type": "uint256"
        },
        {
          "internalType": "uint256",
          "name": "invitNumber",
          "type": "uint256"
        }
      ],
      "name": "isValidatorInvitedNumber",
      "outputs": [
        {
          "internalType": "bool",
          "name": "",
          "type": "bool"
        },
        {
          "internalType": "bool",
          "name": "",
          "type": "bool"
        }
      ],
      "stateMutability": "view",
      "type": "function",
      "constant": true
    },
    {
      "inputs": [
        {
          "internalType": "address",
          "name": "enterprise",
          "type": "address"
        }
      ],
      "name": "returnCohorts",
      "outputs": [
        {
          "internalType": "bool[]",
          "name": "",
          "type": "bool[]"
        }
      ],
      "stateMutability": "view",
      "type": "function",
      "constant": true
    },
    {
      "inputs": [
        {
          "internalType": "address",
          "name": "enterprise",
          "type": "address"
        },
        {
          "internalType": "uint256",
          "name": "audit",
          "type": "uint256"
        }
      ],
      "name": "returnValidatorList",
      "outputs": [
        {
          "internalType": "address[]",
          "name": "",
          "type": "address[]"
        }
      ],
      "stateMutability": "view",
      "type": "function",
      "constant": true
    },
    {
      "inputs": [
        {
          "internalType": "address",
          "name": "validator",
          "type": "address"
        },
        {
          "internalType": "address",
          "name": "enterprise",
          "type": "address"
        }
      ],
      "name": "returnValidatorCohortsCount",
      "outputs": [
        {
          "internalType": "uint256",
          "name": "",
          "type": "uint256"
        }
      ],
      "stateMutability": "view",
      "type": "function",
      "constant": true
    },
    {
      "inputs": [
        {
          "internalType": "uint256",
          "name": "audit",
          "type": "uint256"
        }
      ],
      "name": "createCohort",
      "outputs": [],
      "stateMutability": "nonpayable",
      "type": "function"
    }
  ],
  "bytecode": "0x60806040526040518060e00160405280600060ff168152602001600360ff168152602001600360ff168152602001600360ff168152602001600360ff168152602001600360ff168152602001600360ff16815250600190600762000065929190620002b1565b503480156200007357600080fd5b506040516200513838038062005138833981810160405281019062000099919062000355565b81600560006101000a81548173ffffffffffffffffffffffffffffffffffffffff021916908373ffffffffffffffffffffffffffffffffffffffff16021790555080600660006101000a81548173ffffffffffffffffffffffffffffffffffffffff021916908373ffffffffffffffffffffffffffffffffffffffff160217905550620001306000801b336200013860201b60201c565b505062000426565b6200014a82826200014e60201b60201c565b5050565b6200016082826200023f60201b60201c565b6200023b57600160008084815260200190815260200160002060000160008373ffffffffffffffffffffffffffffffffffffffff1673ffffffffffffffffffffffffffffffffffffffff16815260200190815260200160002060006101000a81548160ff021916908315150217905550620001e0620002a960201b60201c565b73ffffffffffffffffffffffffffffffffffffffff168173ffffffffffffffffffffffffffffffffffffffff16837f2f8788117e7eff1d82e926ec794901d17c78024a50270940304540a733656f0d60405160405180910390a45b5050565b600080600084815260200190815260200160002060000160008373ffffffffffffffffffffffffffffffffffffffff1673ffffffffffffffffffffffffffffffffffffffff16815260200190815260200160002060009054906101000a900460ff16905092915050565b600033905090565b828054828255906000526020600020908101928215620002f5579160200282015b82811115620002f4578251829060ff16905591602001919060010190620002d2565b5b50905062000304919062000308565b5090565b5b808211156200032357600081600090555060010162000309565b5090565b6000815190506200033881620003f2565b92915050565b6000815190506200034f816200040c565b92915050565b600080604083850312156200036957600080fd5b600062000379858286016200033e565b92505060206200038c8582860162000327565b9150509250929050565b6000620003a382620003d2565b9050919050565b6000620003b78262000396565b9050919050565b6000620003cb8262000396565b9050919050565b600073ffffffffffffffffffffffffffffffffffffffff82169050919050565b620003fd81620003aa565b81146200040957600080fd5b50565b6200041781620003be565b81146200042357600080fd5b50565b614d0280620004366000396000f3fe608060405234801561001057600080fd5b50600436106101a95760003560e01c806372b74581116100f9578063a346973711610097578063b9f577b111610071578063b9f577b114610542578063cd7264931461055e578063d547741f1461058e578063df03d081146105aa576101a9565b8063a3469737146104c6578063a70e0393146104e2578063aacc19b314610512576101a9565b806391d14854116100d357806391d14854146104295780639df4e87014610459578063a2011b3f1461048a578063a217fddf146104a8576101a9565b806372b74581146103a957806387247dea146103c55780638ffb72f4146103f5576101a9565b8063265fe4e71161016657806345f49bb01161014057806345f49bb01461030e5780634e991f881461033e5780636df853451461035a57806371d8c7a01461038b576101a9565b8063265fe4e7146102a65780632f2ff15d146102d657806336568abe146102f2576101a9565b806301ffc9a7146101ae57806302495c59146101de5780630939a9971461020e5780630ea021601461022a578063247e28b314610246578063248a9ca314610276575b600080fd5b6101c860048036038101906101c3919061388b565b6105da565b6040516101d591906144f0565b60405180910390f35b6101f860048036038101906101f39190613701565b610654565b60405161020591906144ac565b60405180910390f35b6102286004803603810190610223919061373d565b610a0d565b005b610244600480360381019061023f9190613701565b610ac1565b005b610260600480360381019061025b91906136c5565b610e05565b60405161026d91906147a7565b60405180910390f35b610290600480360381019061028b9190613826565b6110c1565b60405161029d9190614534565b60405180910390f35b6102c060048036038101906102bb91906136c5565b6110e0565b6040516102cd91906144f0565b60405180910390f35b6102f060048036038101906102eb919061384f565b611459565b005b61030c6004803603810190610307919061384f565b611482565b005b610328600480360381019061032391906138b4565b611505565b60405161033591906147a7565b60405180910390f35b61035860048036038101906103539190613701565b611529565b005b610374600480360381019061036f9190613613565b611c0c565b60405161038292919061450b565b60405180910390f35b610393611fed565b6040516103a0919061454f565b60405180910390f35b6103c360048036038101906103be91906138b4565b612013565b005b6103df60048036038101906103da91906135ae565b612245565b6040516103ec91906144ce565b60405180910390f35b61040f600480360381019061040a9190613701565b61239a565b604051610420959493929190614459565b60405180910390f35b610443600480360381019061043e919061384f565b612427565b60405161045091906144f0565b60405180910390f35b610473600480360381019061046e9190613662565b612491565b60405161048192919061450b565b60405180910390f35b610492612812565b60405161049f9190614534565b60405180910390f35b6104b0612836565b6040516104bd9190614534565b60405180910390f35b6104e060048036038101906104db91906137a9565b61283d565b005b6104fc60048036038101906104f79190613701565b61292e565b60405161050991906147a7565b60405180910390f35b61052c60048036038101906105279190613613565b61295f565b604051610539919061456a565b60405180910390f35b61055c60048036038101906105579190613906565b6129af565b005b610578600480360381019061057391906135d7565b612b6b565b60405161058591906147a7565b60405180910390f35b6105a860048036038101906105a3919061384f565b612bf5565b005b6105c460048036038101906105bf9190613701565b612c1e565b6040516105d191906144f0565b60405180910390f35b60007f7965db0b000000000000000000000000000000000000000000000000000000007bffffffffffffffffffffffffffffffffffffffffffffffffffffffff1916827bffffffffffffffffffffffffffffffffffffffffffffffffffffffff1916148061064d575061064c82612c4d565b5b9050919050565b6060600061069a84846005811115610695577f4e487b7100000000000000000000000000000000000000000000000000000000600052602160045260246000fd5b610e05565b67ffffffffffffffff8111156106d9577f4e487b7100000000000000000000000000000000000000000000000000000000600052604160045260246000fd5b6040519080825280602002602001820160405280156107075781602001602082028036833780820191505090505b509050600080600090505b600760008773ffffffffffffffffffffffffffffffffffffffff1673ffffffffffffffffffffffffffffffffffffffff16815260200190815260200160002080549050811015610a015784600760008873ffffffffffffffffffffffffffffffffffffffff1673ffffffffffffffffffffffffffffffffffffffff16815260200190815260200160002082815481106107d4577f4e487b7100000000000000000000000000000000000000000000000000000000600052603260045260246000fd5b906000526020600020906004020160030160009054906101000a900460ff16600581111561082b577f4e487b7100000000000000000000000000000000000000000000000000000000600052602160045260246000fd5b1480156108c057506000600760008873ffffffffffffffffffffffffffffffffffffffff1673ffffffffffffffffffffffffffffffffffffffff16815260200190815260200160002082815481106108ac577f4e487b7100000000000000000000000000000000000000000000000000000000600052603260045260246000fd5b906000526020600020906004020160020154115b156109f057600760008773ffffffffffffffffffffffffffffffffffffffff1673ffffffffffffffffffffffffffffffffffffffff168152602001908152602001600020818154811061093c577f4e487b7100000000000000000000000000000000000000000000000000000000600052603260045260246000fd5b906000526020600020906004020160000160009054906101000a900473ffffffffffffffffffffffffffffffffffffffff168383815181106109a7577f4e487b7100000000000000000000000000000000000000000000000000000000600052603260045260246000fd5b602002602001019073ffffffffffffffffffffffffffffffffffffffff16908173ffffffffffffffffffffffffffffffffffffffff168152505081806109ec90614b3a565b9250505b806109fa90614b3a565b9050610712565b50819250505092915050565b60008251905060005b81811015610abb57610aa8848281518110610a5a577f4e487b7100000000000000000000000000000000000000000000000000000000600052603260045260246000fd5b6020026020010151848381518110610a9b577f4e487b7100000000000000000000000000000000000000000000000000000000600052603260045260246000fd5b6020026020010151610ac1565b8080610ab390614b3a565b915050610a16565b50505050565b80600760008473ffffffffffffffffffffffffffffffffffffffff1673ffffffffffffffffffffffffffffffffffffffff1681526020019081526020016000208054905011610b45576040517f08c379a0000000000000000000000000000000000000000000000000000000008152600401610b3c906145e7565b60405180910390fd5b6000600760008473ffffffffffffffffffffffffffffffffffffffff1673ffffffffffffffffffffffffffffffffffffffff1681526020019081526020016000208281548110610bbe577f4e487b7100000000000000000000000000000000000000000000000000000000600052603260045260246000fd5b90600052602060002090600402016002015414610c10576040517f08c379a0000000000000000000000000000000000000000000000000000000008152600401610c0790614667565b60405180910390fd5b3373ffffffffffffffffffffffffffffffffffffffff16600760008473ffffffffffffffffffffffffffffffffffffffff1673ffffffffffffffffffffffffffffffffffffffff1681526020019081526020016000208281548110610c9e577f4e487b7100000000000000000000000000000000000000000000000000000000600052603260045260246000fd5b906000526020600020906004020160000160009054906101000a900473ffffffffffffffffffffffffffffffffffffffff1673ffffffffffffffffffffffffffffffffffffffff1614610d26576040517f08c379a0000000000000000000000000000000000000000000000000000000008152600401610d1d90614707565b60405180910390fd5b42600760008473ffffffffffffffffffffffffffffffffffffffff1673ffffffffffffffffffffffffffffffffffffffff1681526020019081526020016000208281548110610d9e577f4e487b7100000000000000000000000000000000000000000000000000000000600052603260045260246000fd5b9060005260206000209060040201600201819055503373ffffffffffffffffffffffffffffffffffffffff167f7b03e8bab458bdbb216f7525cb174b013e75d040884fe46cc9e836fc05a0cc7b82604051610df991906147a7565b60405180910390a25050565b60008060005b600760008673ffffffffffffffffffffffffffffffffffffffff1673ffffffffffffffffffffffffffffffffffffffff168152602001908152602001600020805490508110156110b657836005811115610e8e577f4e487b7100000000000000000000000000000000000000000000000000000000600052602160045260246000fd5b600760008773ffffffffffffffffffffffffffffffffffffffff1673ffffffffffffffffffffffffffffffffffffffff1681526020019081526020016000208281548110610f05577f4e487b7100000000000000000000000000000000000000000000000000000000600052603260045260246000fd5b906000526020600020906004020160030160009054906101000a900460ff166005811115610f5c577f4e487b7100000000000000000000000000000000000000000000000000000000600052602160045260246000fd5b148015610ff257506000600760008773ffffffffffffffffffffffffffffffffffffffff1673ffffffffffffffffffffffffffffffffffffffff1681526020019081526020016000208281548110610fdd577f4e487b7100000000000000000000000000000000000000000000000000000000600052603260045260246000fd5b90600052602060002090600402016002015414155b80156110915750600760008673ffffffffffffffffffffffffffffffffffffffff1673ffffffffffffffffffffffffffffffffffffffff1681526020019081526020016000208181548110611070577f4e487b7100000000000000000000000000000000000000000000000000000000600052603260045260246000fd5b906000526020600020906004020160030160019054906101000a900460ff16155b156110a55781806110a190614b3a565b9250505b806110af90614b3a565b9050610e0b565b508091505092915050565b6000806000838152602001908152602001600020600101549050919050565b600080600090505b600760003373ffffffffffffffffffffffffffffffffffffffff1673ffffffffffffffffffffffffffffffffffffffff168152602001908152602001600020805490508110156114175782600581111561116b577f4e487b7100000000000000000000000000000000000000000000000000000000600052602160045260246000fd5b600760003373ffffffffffffffffffffffffffffffffffffffff1673ffffffffffffffffffffffffffffffffffffffff16815260200190815260200160002082815481106111e2577f4e487b7100000000000000000000000000000000000000000000000000000000600052603260045260246000fd5b906000526020600020906004020160030160009054906101000a900460ff166005811115611239577f4e487b7100000000000000000000000000000000000000000000000000000000600052602160045260246000fd5b14801561131957508373ffffffffffffffffffffffffffffffffffffffff16600760003373ffffffffffffffffffffffffffffffffffffffff1673ffffffffffffffffffffffffffffffffffffffff16815260200190815260200160002082815481106112cf577f4e487b7100000000000000000000000000000000000000000000000000000000600052603260045260246000fd5b906000526020600020906004020160000160009054906101000a900473ffffffffffffffffffffffffffffffffffffffff1673ffffffffffffffffffffffffffffffffffffffff16145b15611404576001600760003373ffffffffffffffffffffffffffffffffffffffff1673ffffffffffffffffffffffffffffffffffffffff1681526020019081526020016000208281548110611397577f4e487b7100000000000000000000000000000000000000000000000000000000600052603260045260246000fd5b906000526020600020906004020160030160016101000a81548160ff0219169083151502179055507f430f07ad8d443841cca872721479bee31948a99fc854082aa28dc44b9e3af20e8484336040516113f2939291906143d0565b60405180910390a16001915050611453565b808061140f90614b3a565b9150506110e8565b506040517f08c379a000000000000000000000000000000000000000000000000000000000815260040161144a906146e7565b60405180910390fd5b92915050565b611462826110c1565b6114738161146e612cb7565b612cbf565b61147d8383612d5c565b505050565b61148a612cb7565b73ffffffffffffffffffffffffffffffffffffffff168173ffffffffffffffffffffffffffffffffffffffff16146114f7576040517f08c379a00000000000000000000000000000000000000000000000000000000081526004016114ee90614787565b60405180910390fd5b6115018282612e3c565b5050565b6001818154811061151557600080fd5b906000526020600020016000915090505481565b611531613370565b6000600560009054906101000a900473ffffffffffffffffffffffffffffffffffffffff1673ffffffffffffffffffffffffffffffffffffffff16636f9cf98585600160028111156115ac577f4e487b7100000000000000000000000000000000000000000000000000000000600052602160045260246000fd5b6040518363ffffffff1660e01b81526004016115c9929190614407565b60206040518083038186803b1580156115e157600080fd5b505afa1580156115f5573d6000803e3d6000fd5b505050506040513d601f19601f8201168201806040525081019061161991906137fd565b90506000600560009054906101000a900473ffffffffffffffffffffffffffffffffffffffff1673ffffffffffffffffffffffffffffffffffffffff16636f9cf9853360006002811115611696577f4e487b7100000000000000000000000000000000000000000000000000000000600052602160045260246000fd5b6040518363ffffffff1660e01b81526004016116b3929190614407565b60206040518083038186803b1580156116cb57600080fd5b505afa1580156116df573d6000803e3d6000fd5b505050506040513d601f19601f8201168201806040525081019061170391906137fd565b90506000611712338787611c0c565b5090508015611756576040517f08c379a000000000000000000000000000000000000000000000000000000000815260040161174d906146c7565b60405180910390fd5b81611796576040517f08c379a000000000000000000000000000000000000000000000000000000000815260040161178d90614767565b60405180910390fd5b826117d6576040517f08c379a00000000000000000000000000000000000000000000000000000000081526004016117cd90614687565b60405180910390fd5b6000600660009054906101000a900473ffffffffffffffffffffffffffffffffffffffff1673ffffffffffffffffffffffffffffffffffffffff1663fc7e286d886040518263ffffffff1660e01b815260040161183391906143b5565b60206040518083038186803b15801561184b57600080fd5b505afa15801561185f573d6000803e3d6000fd5b505050506040513d601f19601f8201168201806040525081019061188391906138dd565b116118c3576040517f08c379a00000000000000000000000000000000000000000000000000000000081526004016118ba906145c7565b60405180910390fd5b85846000019073ffffffffffffffffffffffffffffffffffffffff16908173ffffffffffffffffffffffffffffffffffffffff16815250504284602001818152505084600581111561193e577f4e487b7100000000000000000000000000000000000000000000000000000000600052602160045260246000fd5b8460600190600581111561197b577f4e487b7100000000000000000000000000000000000000000000000000000000600052602160045260246000fd5b908160058111156119b5577f4e487b7100000000000000000000000000000000000000000000000000000000600052602160045260246000fd5b81525050600760003373ffffffffffffffffffffffffffffffffffffffff1673ffffffffffffffffffffffffffffffffffffffff16815260200190815260200160002084908060018154018082558091505060019003906000526020600020906004020160009091909190915060008201518160000160006101000a81548173ffffffffffffffffffffffffffffffffffffffff021916908373ffffffffffffffffffffffffffffffffffffffff160217905550602082015181600101556040820151816002015560608201518160030160006101000a81548160ff02191690836005811115611ace577f4e487b7100000000000000000000000000000000000000000000000000000000600052602160045260246000fd5b021790555060808201518160030160016101000a81548160ff0219169083151502179055505050846005811115611b2e577f4e487b7100000000000000000000000000000000000000000000000000000000600052602160045260246000fd5b6005811115611b66577f4e487b7100000000000000000000000000000000000000000000000000000000600052602160045260246000fd5b8673ffffffffffffffffffffffffffffffffffffffff167fdb045b05e2cea9cac8289ec48770f5e3dff84ba85c4d3aeaaa75f81a16e2f4b9336001600760003373ffffffffffffffffffffffffffffffffffffffff1673ffffffffffffffffffffffffffffffffffffffff16815260200190815260200160002080549050611bee91906149bd565b604051611bfc929190614430565b60405180910390a3505050505050565b60008060005b600760008773ffffffffffffffffffffffffffffffffffffffff1673ffffffffffffffffffffffffffffffffffffffff16815260200190815260200160002080549050811015611fdc57836005811115611c95577f4e487b7100000000000000000000000000000000000000000000000000000000600052602160045260246000fd5b6005811115611ccd577f4e487b7100000000000000000000000000000000000000000000000000000000600052602160045260246000fd5b600760008873ffffffffffffffffffffffffffffffffffffffff1673ffffffffffffffffffffffffffffffffffffffff1681526020019081526020016000208281548110611d44577f4e487b7100000000000000000000000000000000000000000000000000000000600052603260045260246000fd5b906000526020600020906004020160030160009054906101000a900460ff166005811115611d9b577f4e487b7100000000000000000000000000000000000000000000000000000000600052602160045260246000fd5b148015611e7b57508473ffffffffffffffffffffffffffffffffffffffff16600760008873ffffffffffffffffffffffffffffffffffffffff1673ffffffffffffffffffffffffffffffffffffffff1681526020019081526020016000208281548110611e31577f4e487b7100000000000000000000000000000000000000000000000000000000600052603260045260246000fd5b906000526020600020906004020160000160009054906101000a900473ffffffffffffffffffffffffffffffffffffffff1673ffffffffffffffffffffffffffffffffffffffff16145b8015611f1a5750600760008773ffffffffffffffffffffffffffffffffffffffff1673ffffffffffffffffffffffffffffffffffffffff1681526020019081526020016000208181548110611ef9577f4e487b7100000000000000000000000000000000000000000000000000000000600052603260045260246000fd5b906000526020600020906004020160030160019054906101000a900460ff16155b15611fcb576000600760008873ffffffffffffffffffffffffffffffffffffffff1673ffffffffffffffffffffffffffffffffffffffff1681526020019081526020016000208281548110611f98577f4e487b7100000000000000000000000000000000000000000000000000000000600052603260045260246000fd5b9060005260206000209060040201600201541115611fbd576001809250925050611fe5565b600160009250925050611fe5565b80611fd590614b3a565b9050611c12565b50600080915091505b935093915050565b600660009054906101000a900473ffffffffffffffffffffffffffffffffffffffff1681565b600360003373ffffffffffffffffffffffffffffffffffffffff1673ffffffffffffffffffffffffffffffffffffffff168152602001908152602001600020600082815260200190815260200160002060009054906101000a900460ff16156120b1576040517f08c379a00000000000000000000000000000000000000000000000000000000081526004016120a890614607565b60405180910390fd5b60006120bd3383610654565b9050600182815481106120f9577f4e487b7100000000000000000000000000000000000000000000000000000000600052603260045260246000fd5b906000526020600020015481511015612147576040517f08c379a000000000000000000000000000000000000000000000000000000000815260040161213e90614627565b60405180910390fd5b6001600360003373ffffffffffffffffffffffffffffffffffffffff1673ffffffffffffffffffffffffffffffffffffffff168152602001908152602001600020600084815260200190815260200160002060006101000a81548160ff0219169083151502179055506121f381338460058111156121ee577f4e487b7100000000000000000000000000000000000000000000000000000000600052602160045260246000fd5b612f1d565b3373ffffffffffffffffffffffffffffffffffffffff167f03606271d603b6a466bdd7e062ffffa529563dc83e949f6ac2b2d159f3c2f8a18360405161223991906147a7565b60405180910390a25050565b606060006006905060008167ffffffffffffffff81111561228f577f4e487b7100000000000000000000000000000000000000000000000000000000600052604160045260246000fd5b6040519080825280602002602001820160405280156122bd5781602001602082028036833780820191505090505b50905060005b8281101561238f57600360008673ffffffffffffffffffffffffffffffffffffffff1673ffffffffffffffffffffffffffffffffffffffff168152602001908152602001600020600082815260200190815260200160002060009054906101000a900460ff161561237c576001828281518110612369577f4e487b7100000000000000000000000000000000000000000000000000000000600052603260045260246000fd5b6020026020010190151590811515815250505b808061238790614b3a565b9150506122c3565b508092505050919050565b600760205281600052604060002081815481106123b657600080fd5b9060005260206000209060040201600091509150508060000160009054906101000a900473ffffffffffffffffffffffffffffffffffffffff16908060010154908060020154908060030160009054906101000a900460ff16908060030160019054906101000a900460ff16905085565b600080600084815260200190815260200160002060000160008373ffffffffffffffffffffffffffffffffffffffff1673ffffffffffffffffffffffffffffffffffffffff16815260200190815260200160002060009054906101000a900460ff16905092915050565b6000808360058111156124cd577f4e487b7100000000000000000000000000000000000000000000000000000000600052602160045260246000fd5b6005811115612505577f4e487b7100000000000000000000000000000000000000000000000000000000600052602160045260246000fd5b600760008873ffffffffffffffffffffffffffffffffffffffff1673ffffffffffffffffffffffffffffffffffffffff168152602001908152602001600020848154811061257c577f4e487b7100000000000000000000000000000000000000000000000000000000600052603260045260246000fd5b906000526020600020906004020160030160009054906101000a900460ff1660058111156125d3577f4e487b7100000000000000000000000000000000000000000000000000000000600052602160045260246000fd5b1480156126b357508473ffffffffffffffffffffffffffffffffffffffff16600760008873ffffffffffffffffffffffffffffffffffffffff1673ffffffffffffffffffffffffffffffffffffffff1681526020019081526020016000208481548110612669577f4e487b7100000000000000000000000000000000000000000000000000000000600052603260045260246000fd5b906000526020600020906004020160000160009054906101000a900473ffffffffffffffffffffffffffffffffffffffff1673ffffffffffffffffffffffffffffffffffffffff16145b80156127525750600760008773ffffffffffffffffffffffffffffffffffffffff1673ffffffffffffffffffffffffffffffffffffffff1681526020019081526020016000208381548110612731577f4e487b7100000000000000000000000000000000000000000000000000000000600052603260045260246000fd5b906000526020600020906004020160030160019054906101000a900460ff16155b15612801576000600760008873ffffffffffffffffffffffffffffffffffffffff1673ffffffffffffffffffffffffffffffffffffffff16815260200190815260200160002084815481106127d0577f4e487b7100000000000000000000000000000000000000000000000000000000600052603260045260246000fd5b90600052602060002090600402016002015411156127f45760018091509150612809565b6001600091509150612809565b600080915091505b94509492505050565b7f61c92169ef077349011ff0b1383c894d86c5f0b41d986366b58a6cf31e93beda81565b6000801b81565b600082519050610100811115612888576040517f08c379a000000000000000000000000000000000000000000000000000000000815260040161287f906146a7565b60405180910390fd5b60005b81811015612928576129158482815181106128cf577f4e487b7100000000000000000000000000000000000000000000000000000000600052603260045260246000fd5b6020026020010151846005811115612910577f4e487b7100000000000000000000000000000000000000000000000000000000600052602160045260246000fd5b611529565b808061292090614b3a565b91505061288b565b50505050565b6002602052816000526040600020818154811061294a57600080fd5b90600052602060002001600091509150505481565b6004602052826000526040600020602052816000526040600020818154811061298757600080fd5b906000526020600020906020918282040191900692509250509054906101000a900460ff1681565b6129d97f61c92169ef077349011ff0b1383c894d86c5f0b41d986366b58a6cf31e93beda33612427565b612a18576040517f08c379a0000000000000000000000000000000000000000000000000000000008152600401612a0f90614727565b60405180910390fd5b6000821415612a5c576040517f08c379a0000000000000000000000000000000000000000000000000000000008152600401612a5390614747565b60405180910390fd5b60068111158015612a6e575060008110155b612aad576040517f08c379a0000000000000000000000000000000000000000000000000000000008152600401612aa490614647565b60405180910390fd5b8160018281548110612ae8577f4e487b7100000000000000000000000000000000000000000000000000000000600052603260045260246000fd5b90600052602060002001819055507f77141346a51f055f5bb35ecb1499b0bb7d9fbf1442b909bd3fd419820ccb98b282826005811115612b51577f4e487b7100000000000000000000000000000000000000000000000000000000600052602160045260246000fd5b604051612b5f9291906147c2565b60405180910390a15050565b6000600460008473ffffffffffffffffffffffffffffffffffffffff1673ffffffffffffffffffffffffffffffffffffffff16815260200190815260200160002060008373ffffffffffffffffffffffffffffffffffffffff1673ffffffffffffffffffffffffffffffffffffffff16815260200190815260200160002080549050905092915050565b612bfe826110c1565b612c0f81612c0a612cb7565b612cbf565b612c198383612e3c565b505050565b60036020528160005260406000206020528060005260406000206000915091509054906101000a900460ff1681565b60007f01ffc9a7000000000000000000000000000000000000000000000000000000007bffffffffffffffffffffffffffffffffffffffffffffffffffffffff1916827bffffffffffffffffffffffffffffffffffffffffffffffffffffffff1916149050919050565b600033905090565b612cc98282612427565b612d5857612cee8173ffffffffffffffffffffffffffffffffffffffff166014613076565b612cfc8360001c6020613076565b604051602001612d0d92919061437b565b6040516020818303038152906040526040517f08c379a0000000000000000000000000000000000000000000000000000000008152600401612d4f9190614585565b60405180910390fd5b5050565b612d668282612427565b612e3857600160008084815260200190815260200160002060000160008373ffffffffffffffffffffffffffffffffffffffff1673ffffffffffffffffffffffffffffffffffffffff16815260200190815260200160002060006101000a81548160ff021916908315150217905550612ddd612cb7565b73ffffffffffffffffffffffffffffffffffffffff168173ffffffffffffffffffffffffffffffffffffffff16837f2f8788117e7eff1d82e926ec794901d17c78024a50270940304540a733656f0d60405160405180910390a45b5050565b612e468282612427565b15612f1957600080600084815260200190815260200160002060000160008373ffffffffffffffffffffffffffffffffffffffff1673ffffffffffffffffffffffffffffffffffffffff16815260200190815260200160002060006101000a81548160ff021916908315150217905550612ebe612cb7565b73ffffffffffffffffffffffffffffffffffffffff168173ffffffffffffffffffffffffffffffffffffffff16837ff6391f5c32d9c69d2a47ea670b442974b53935d1edc7fd64eb21e047a839171b60405160405180910390a45b5050565b60005b83518110156130705760046000858381518110612f66577f4e487b7100000000000000000000000000000000000000000000000000000000600052603260045260246000fd5b602002602001015173ffffffffffffffffffffffffffffffffffffffff1673ffffffffffffffffffffffffffffffffffffffff16815260200190815260200160002060008473ffffffffffffffffffffffffffffffffffffffff1673ffffffffffffffffffffffffffffffffffffffff1681526020019081526020016000208290806001815401808255809150506001900390600052602060002090602091828204019190069091909190916101000a81548160ff02191690836005811115613058577f4e487b7100000000000000000000000000000000000000000000000000000000600052602160045260246000fd5b0217905550808061306890614b3a565b915050612f20565b50505050565b6060600060028360026130899190614963565b613093919061490d565b67ffffffffffffffff8111156130d2577f4e487b7100000000000000000000000000000000000000000000000000000000600052604160045260246000fd5b6040519080825280601f01601f1916602001820160405280156131045781602001600182028036833780820191505090505b5090507f300000000000000000000000000000000000000000000000000000000000000081600081518110613162577f4e487b7100000000000000000000000000000000000000000000000000000000600052603260045260246000fd5b60200101907effffffffffffffffffffffffffffffffffffffffffffffffffffffffffffff1916908160001a9053507f7800000000000000000000000000000000000000000000000000000000000000816001815181106131ec577f4e487b7100000000000000000000000000000000000000000000000000000000600052603260045260246000fd5b60200101907effffffffffffffffffffffffffffffffffffffffffffffffffffffffffffff1916908160001a9053506000600184600261322c9190614963565b613236919061490d565b90505b6001811115613322577f3031323334353637383961626364656600000000000000000000000000000000600f86166010811061329e577f4e487b7100000000000000000000000000000000000000000000000000000000600052603260045260246000fd5b1a60f81b8282815181106132db577f4e487b7100000000000000000000000000000000000000000000000000000000600052603260045260246000fd5b60200101907effffffffffffffffffffffffffffffffffffffffffffffffffffffffffffff1916908160001a905350600485901c94508061331b90614b10565b9050613239565b5060008414613366576040517f08c379a000000000000000000000000000000000000000000000000000000000815260040161335d906145a7565b60405180910390fd5b8091505092915050565b6040518060a00160405280600073ffffffffffffffffffffffffffffffffffffffff1681526020016000815260200160008152602001600060058111156133e0577f4e487b7100000000000000000000000000000000000000000000000000000000600052602160045260246000fd5b81526020016000151581525090565b60006134026133fd8461481c565b6147eb565b9050808382526020820190508285602086028201111561342157600080fd5b60005b85811015613451578161343788826134c7565b845260208401935060208301925050600181019050613424565b5050509392505050565b600061346e61346984614848565b6147eb565b9050808382526020820190508285602086028201111561348d57600080fd5b60005b858110156134bd57816134a38882613584565b845260208401935060208301925050600181019050613490565b5050509392505050565b6000813590506134d681614c49565b92915050565b600082601f8301126134ed57600080fd5b81356134fd8482602086016133ef565b91505092915050565b600082601f83011261351757600080fd5b813561352784826020860161345b565b91505092915050565b60008151905061353f81614c60565b92915050565b60008135905061355481614c77565b92915050565b60008135905061356981614c8e565b92915050565b60008135905061357e81614ca5565b92915050565b60008135905061359381614cb5565b92915050565b6000815190506135a881614cb5565b92915050565b6000602082840312156135c057600080fd5b60006135ce848285016134c7565b91505092915050565b600080604083850312156135ea57600080fd5b60006135f8858286016134c7565b9250506020613609858286016134c7565b9150509250929050565b60008060006060848603121561362857600080fd5b6000613636868287016134c7565b9350506020613647868287016134c7565b925050604061365886828701613584565b9150509250925092565b6000806000806080858703121561367857600080fd5b6000613686878288016134c7565b9450506020613697878288016134c7565b93505060406136a887828801613584565b92505060606136b987828801613584565b91505092959194509250565b600080604083850312156136d857600080fd5b60006136e6858286016134c7565b92505060206136f78582860161356f565b9150509250929050565b6000806040838503121561371457600080fd5b6000613722858286016134c7565b925050602061373385828601613584565b9150509250929050565b6000806040838503121561375057600080fd5b600083013567ffffffffffffffff81111561376a57600080fd5b613776858286016134dc565b925050602083013567ffffffffffffffff81111561379357600080fd5b61379f85828601613506565b9150509250929050565b600080604083850312156137bc57600080fd5b600083013567ffffffffffffffff8111156137d657600080fd5b6137e2858286016134dc565b92505060206137f38582860161356f565b9150509250929050565b60006020828403121561380f57600080fd5b600061381d84828501613530565b91505092915050565b60006020828403121561383857600080fd5b600061384684828501613545565b91505092915050565b6000806040838503121561386257600080fd5b600061387085828601613545565b9250506020613881858286016134c7565b9150509250929050565b60006020828403121561389d57600080fd5b60006138ab8482850161355a565b91505092915050565b6000602082840312156138c657600080fd5b60006138d484828501613584565b91505092915050565b6000602082840312156138ef57600080fd5b60006138fd84828501613599565b91505092915050565b6000806040838503121561391957600080fd5b600061392785828601613584565b925050602061393885828601613584565b9150509250929050565b600061394e8383613972565b60208301905092915050565b60006139668383613a4c565b60208301905092915050565b61397b816149f1565b82525050565b61398a816149f1565b82525050565b600061399b82614894565b6139a581856148cf565b93506139b083614874565b8060005b838110156139e15781516139c88882613942565b97506139d3836148b5565b9250506001810190506139b4565b5085935050505092915050565b60006139f98261489f565b613a0381856148e0565b9350613a0e83614884565b8060005b83811015613a3f578151613a26888261395a565b9750613a31836148c2565b925050600181019050613a12565b5085935050505092915050565b613a5581614a03565b82525050565b613a6481614a03565b82525050565b613a7381614a0f565b82525050565b613a8281614a95565b82525050565b613a9181614ab9565b82525050565b613aa081614acb565b82525050565b6000613ab1826148aa565b613abb81856148f1565b9350613acb818560208601614add565b613ad481614c10565b840191505092915050565b6000613aea826148aa565b613af48185614902565b9350613b04818560208601614add565b80840191505092915050565b6000613b1d6020836148f1565b91507f537472696e67733a20686578206c656e67746820696e73756666696369656e746000830152602082019050919050565b6000613b5d604d836148f1565b91507f436f686f7274466163746f72793a696e7669746556616c696461746f72202d2060008301527f546869732076616c696461746f7220686173206e6f74207374616b656420616e60208301527f7920746f6b656e73207965742e000000000000000000000000000000000000006040830152606082019050919050565b6000613be9603e836148f1565b91507f436f686f7274466163746f72793a616363657074496e7669746174696f6e202d60008301527f205468697320696e7669746174696f6e20646f65736e277420657869737400006020830152604082019050919050565b6000613c4f6038836148f1565b91507f436f686f7274466163746f72793a637265617465436f686f7274202d2054686960008301527f7320636f686f727420616c7265616479206578697374732e00000000000000006020830152604082019050919050565b6000613cb56049836148f1565b91507f436f686f7274466163746f72793a637265617465436f686f7274202d204e756d60008301527f626572206f662076616c696461746f72732062656c6f7720726571756972656460208301527f206d696e696d756d2e00000000000000000000000000000000000000000000006040830152606082019050919050565b6000613d41604f836148f1565b91507f436f686f727420466163746f72793a7570646174654d696e56616c696461746f60008301527f7273506572436f686f7274202d20417564697420747970652068617320746f2060208301527f6265203c3d203520616e64203e3d3000000000000000000000000000000000006040830152606082019050919050565b6000613dcd604b836148f1565b91507f436f686f7274466163746f72793a616363657074496e7669746174696f6e2d2060008301527f5468697320696e7669746174696f6e20686173206265656e206163636570746560208301527f6420616c7265616479202e0000000000000000000000000000000000000000006040830152606082019050919050565b6000613e596048836148f1565b91507f436f686f7274466163746f72793a696e7669746556616c696461746f72202d2060008301527f4f6e6c7920417070726f7665642056616c696461746f72732063616e2062652060208301527f696e76697465642e0000000000000000000000000000000000000000000000006040830152606082019050919050565b6000613ee56034836148f1565b91507f436f686f7274466163746f72792d696e7669746556616c696461746f724d756c60008301527f7469706c653a204c69737420746f6f206c6f6e670000000000000000000000006020830152604082019050919050565b6000613f4b6061836148f1565b91507f436f686f7274466163746f72793a696e7669746556616c696461746f72202d2060008301527f546869732076616c696461746f7220686173206265656e20616c72656164792060208301527f696e766974656420666f7220746869732076616c69646174696f6e207479706560408301527f2e000000000000000000000000000000000000000000000000000000000000006060830152608082019050919050565b6000613ffd601d836148f1565b91507f5468697320696e7669746174696f6e20646f65736e27742065786973740000006000830152602082019050919050565b600061403d607d836148f1565b91507f436f686f7274466163746f72793a616363657074496e7669746174696f6e202d60008301527f20596f752061726520616363657074696e6720696e7669746174696f6e20746f60208301527f20776869636820796f752077657265206e6f7420696e7669746564206f72207460408301527f68697320696e7669746174696f6e20646f65736e27742065786973742e0000006060830152608082019050919050565b60006140ef6029836148f1565b91507f4d656d626572733a6973536574746572202d2043616c6c6572206973206e6f7460008301527f20612073657474657200000000000000000000000000000000000000000000006020830152604082019050919050565b60006141556063836148f1565b91507f436f686f7274466163746f72793a7570646174654d696e56616c696461746f7260008301527f73506572436f686f7274202d204e65772076616c756520666f7220746865202060208301527f6d696e2076616c696461746f722070657220636f686f72742063616e2774206260408301527f65203000000000000000000000000000000000000000000000000000000000006060830152608082019050919050565b6000614207601783614902565b91507f416363657373436f6e74726f6c3a206163636f756e74200000000000000000006000830152601782019050919050565b6000614247604b836148f1565b91507f436f686f7274466163746f72793a696e7669746556616c696461746f72202d2060008301527f4f6e6c7920456e746572707269736520757365722063616e20696e766974652060208301527f56616c696461746f72732e0000000000000000000000000000000000000000006040830152606082019050919050565b60006142d3601183614902565b91507f206973206d697373696e6720726f6c65200000000000000000000000000000006000830152601182019050919050565b6000614313602f836148f1565b91507f416363657373436f6e74726f6c3a2063616e206f6e6c792072656e6f756e636560008301527f20726f6c657320666f722073656c6600000000000000000000000000000000006020830152604082019050919050565b61437581614a8b565b82525050565b6000614386826141fa565b91506143928285613adf565b915061439d826142c6565b91506143a98284613adf565b91508190509392505050565b60006020820190506143ca6000830184613981565b92915050565b60006060820190506143e56000830186613981565b6143f26020830185613a88565b6143ff6040830184613981565b949350505050565b600060408201905061441c6000830185613981565b6144296020830184613a97565b9392505050565b60006040820190506144456000830185613981565b614452602083018461436c565b9392505050565b600060a08201905061446e6000830188613981565b61447b602083018761436c565b614488604083018661436c565b6144956060830185613a88565b6144a26080830184613a5b565b9695505050505050565b600060208201905081810360008301526144c68184613990565b905092915050565b600060208201905081810360008301526144e881846139ee565b905092915050565b60006020820190506145056000830184613a5b565b92915050565b60006040820190506145206000830185613a5b565b61452d6020830184613a5b565b9392505050565b60006020820190506145496000830184613a6a565b92915050565b60006020820190506145646000830184613a79565b92915050565b600060208201905061457f6000830184613a88565b92915050565b6000602082019050818103600083015261459f8184613aa6565b905092915050565b600060208201905081810360008301526145c081613b10565b9050919050565b600060208201905081810360008301526145e081613b50565b9050919050565b6000602082019050818103600083015261460081613bdc565b9050919050565b6000602082019050818103600083015261462081613c42565b9050919050565b6000602082019050818103600083015261464081613ca8565b9050919050565b6000602082019050818103600083015261466081613d34565b9050919050565b6000602082019050818103600083015261468081613dc0565b9050919050565b600060208201905081810360008301526146a081613e4c565b9050919050565b600060208201905081810360008301526146c081613ed8565b9050919050565b600060208201905081810360008301526146e081613f3e565b9050919050565b6000602082019050818103600083015261470081613ff0565b9050919050565b6000602082019050818103600083015261472081614030565b9050919050565b60006020820190508181036000830152614740816140e2565b9050919050565b6000602082019050818103600083015261476081614148565b9050919050565b600060208201905081810360008301526147808161423a565b9050919050565b600060208201905081810360008301526147a081614306565b9050919050565b60006020820190506147bc600083018461436c565b92915050565b60006040820190506147d7600083018561436c565b6147e46020830184613a88565b9392505050565b6000604051905081810181811067ffffffffffffffff8211171561481257614811614be1565b5b8060405250919050565b600067ffffffffffffffff82111561483757614836614be1565b5b602082029050602081019050919050565b600067ffffffffffffffff82111561486357614862614be1565b5b602082029050602081019050919050565b6000819050602082019050919050565b6000819050602082019050919050565b600081519050919050565b600081519050919050565b600081519050919050565b6000602082019050919050565b6000602082019050919050565b600082825260208201905092915050565b600082825260208201905092915050565b600082825260208201905092915050565b600081905092915050565b600061491882614a8b565b915061492383614a8b565b9250827fffffffffffffffffffffffffffffffffffffffffffffffffffffffffffffffff0382111561495857614957614b83565b5b828201905092915050565b600061496e82614a8b565b915061497983614a8b565b9250817fffffffffffffffffffffffffffffffffffffffffffffffffffffffffffffffff04831182151516156149b2576149b1614b83565b5b828202905092915050565b60006149c882614a8b565b91506149d383614a8b565b9250828210156149e6576149e5614b83565b5b828203905092915050565b60006149fc82614a6b565b9050919050565b60008115159050919050565b6000819050919050565b60007fffffffff0000000000000000000000000000000000000000000000000000000082169050919050565b6000819050614a5382614c21565b919050565b6000819050614a6682614c35565b919050565b600073ffffffffffffffffffffffffffffffffffffffff82169050919050565b6000819050919050565b6000614aa082614aa7565b9050919050565b6000614ab282614a6b565b9050919050565b6000614ac482614a45565b9050919050565b6000614ad682614a58565b9050919050565b60005b83811015614afb578082015181840152602081019050614ae0565b83811115614b0a576000848401525b50505050565b6000614b1b82614a8b565b91506000821415614b2f57614b2e614b83565b5b600182039050919050565b6000614b4582614a8b565b91507fffffffffffffffffffffffffffffffffffffffffffffffffffffffffffffffff821415614b7857614b77614b83565b5b600182019050919050565b7f4e487b7100000000000000000000000000000000000000000000000000000000600052601160045260246000fd5b7f4e487b7100000000000000000000000000000000000000000000000000000000600052602160045260246000fd5b7f4e487b7100000000000000000000000000000000000000000000000000000000600052604160045260246000fd5b6000601f19601f8301169050919050565b60068110614c3257614c31614bb2565b5b50565b60038110614c4657614c45614bb2565b5b50565b614c52816149f1565b8114614c5d57600080fd5b50565b614c6981614a03565b8114614c7457600080fd5b50565b614c8081614a0f565b8114614c8b57600080fd5b50565b614c9781614a19565b8114614ca257600080fd5b50565b60068110614cb257600080fd5b50565b614cbe81614a8b565b8114614cc957600080fd5b5056fea264697066735822122040e8b9a3d8982a2c83953e5122999e7e5f01e77b6fc36d3009146f6170e7c3af64736f6c63430008000033",
  "immutableReferences": {},
  "source": "// SPDX-License-Identifier: MIT\npragma solidity =0.8.0;\n// pragma experimental ABIEncoderV2;\nimport \"@openzeppelin/contracts/access/AccessControl.sol\";\nimport \"./Members.sol\";\nimport \"./MemberHelpers.sol\";\n\n/**\n * @title CohortFactory\n * Allows on creation of invitations by Enterprise and acceptance of Validators of those \n * invitations. Finally Enterprise can create cohort consisting of invited Validators\n * and Enterprise. \n */\n\ncontract CohortFactory is  AccessControl {\n\n    // Audit types to be used. Two types added for future expansion \n    enum AuditTypes {\n        Unknown, Financial, System, NFT, Type4, Type5\n    }\n\n    uint256[] public minValidatorPerCohort = [0,3,3,3,3,3,3];\n    bytes32 public constant SETTER_ROLE =  keccak256(\"SETTER_ROLE\");\n\n\n    // Invitation structure to hold info about its status\n    struct Invitation {\n        // address enterprise;\n        address validator;\n        uint256 invitationDate;      \n        uint256 acceptanceDate;\n        AuditTypes audits;\n        // address cohort;\n        bool deleted;\n    }\n\n    // struct Cohorts {\n    //     AuditTypes audits;\n    // }\n\n    mapping(address => uint256[]) public cohortList;\n    mapping(address => mapping(uint256=>bool)) public cohortMap;\n    mapping (address => mapping(address=> AuditTypes[])) public validatorCohortList;  // list of validators\n    \n\n    Members members;                                            // pointer to Members contract1 \n    MemberHelpers public memberHelpers;                                       \n    mapping (address =>  Invitation[]) public invitations;      // invitations list\n    address platformAddress;                                    // address to deposit platform fees\n\n\n    event ValidatorInvited(address  inviting, address indexed invitee, AuditTypes indexed audits, uint256 invitationNumber);\n    event InvitationAccepted(address indexed validator, uint256 invitationNumber);\n    event CohortCreated(address indexed enterprise, uint256 audits);\n    event UpdateMinValidatorsPerCohort(uint256 minValidatorPerCohort, AuditTypes audits);\n    event ValidatorCleared(address validator, AuditTypes audit, address enterprise);\n\n\n     /// @dev check if caller is a setter     \n    modifier isSetter {\n        require(hasRole(SETTER_ROLE, msg.sender), \"Members:isSetter - Caller is not a setter\");\n\n        _;\n    }\n\n    constructor(Members _members, MemberHelpers _memberHelpers) {\n        members = _members;\n        memberHelpers = _memberHelpers;\n        _setupRole(DEFAULT_ADMIN_ROLE, msg.sender); // \n    }\n   \n    /**\n    * @dev to be called by Governance contract to update new value for min validators per cohort\n    * @param _minValidatorPerCohort new value \n    * @param audits type of validations\n    */\n    function updateMinValidatorsPerCohort(uint256 _minValidatorPerCohort, uint256 audits) public  isSetter()  {\n\n        require(_minValidatorPerCohort != 0, \"CohortFactory:updateMinValidatorsPerCohort - New value for the  min validator per cohort can't be 0\");\n        require(audits <= 6 && audits >=0 , \"Cohort Factory:updateMinValidatorsPerCohort - Audit type has to be <= 5 and >=0\");\n        minValidatorPerCohort[audits] = _minValidatorPerCohort;\n        emit UpdateMinValidatorsPerCohort(_minValidatorPerCohort, AuditTypes(audits));\n    }\n\n    /**\n    * @dev Used by Enterprise to invite validator\n    * @param validator address of the validator to invite\n    * @param audit type of the audit\n    */\n    function inviteValidator(address validator, uint256 audit) public {\n\n        Invitation memory newInvitation;\n        bool isValidator = members.userMap(validator, Members.UserType(1));\n        bool isEnterprise = members.userMap(msg.sender, Members.UserType(0));\n        (bool invited, ) = isValidatorInvited(msg.sender, validator, audit);\n        require( !invited , \"CohortFactory:inviteValidator - This validator has been already invited for this validation type.\" );\n        require( isEnterprise, \"CohortFactory:inviteValidator - Only Enterprise user can invite Validators.\");\n        require( isValidator, \"CohortFactory:inviteValidator - Only Approved Validators can be invited.\");\n        require( memberHelpers.deposits(validator) > 0,\"CohortFactory:inviteValidator - This validator has not staked any tokens yet.\");\n        newInvitation.validator = validator;\n        newInvitation.invitationDate = block.timestamp;     \n        newInvitation.audits = AuditTypes(audit);   \n        invitations[msg.sender].push(newInvitation);\n       \n        emit ValidatorInvited(msg.sender, validator, AuditTypes(audit), invitations[msg.sender].length - 1);\n    }\n    \n\n    /**\n    * @dev Used by Enterprise to invite multiple validators in one call \n    * @param validator address of the validator to invite\n    * @param audit type of the audit\n    */\n    function inviteValidatorMultiple(address[] memory validator, AuditTypes audit) public{\n\n        uint256 length = validator.length;\n        require(length <= 256, \"CohortFactory-inviteValidatorMultiple: List too long\");\n        for (uint256 i = 0; i < length; i++) {\n            inviteValidator(validator[i], uint256(audit));\n        }\n    }\n\n    /**\n    * @dev Used by Validator to accept Enterprise invitation\n    * @param enterprise address of the Enterprise who created invitation\n    * @param invitationNumber invitation number\n    */\n    function acceptInvitation(address enterprise, uint256 invitationNumber) public {\n\n        require( invitations[enterprise].length > invitationNumber, \"CohortFactory:acceptInvitation - This invitation doesn't exist\");\n        require( invitations[enterprise][invitationNumber].acceptanceDate == 0, \"CohortFactory:acceptInvitation- This invitation has been accepted already .\");\n        require( invitations[enterprise][invitationNumber].validator == msg.sender, \"CohortFactory:acceptInvitation - You are accepting invitation to which you were not invited or this invitation doesn't exist.\");\n        invitations[enterprise][invitationNumber].acceptanceDate = block.timestamp;\n          \n        emit InvitationAccepted(msg.sender, invitationNumber);\n    }\n\n\n    function clearInvitationRemoveValidator(address validator, AuditTypes audit) public  returns (bool) {\n\n        for (uint256 i = 0; i < invitations[msg.sender].length; i++){\n            if (invitations[msg.sender][i].audits == audit && invitations[msg.sender][i].validator ==  validator){\n                invitations[msg.sender][i].deleted = true;                \n                emit ValidatorCleared(validator, audit, msg.sender);\n                return true;\n            }\n        }\n\n\n        revert(\"This invitation doesn't exist\");\n    }\n\n    /**\n    * @dev Used by Validator to accept multiple Enterprise invitation\n    * @param enterprise address of the Enterprise who created invitation\n    * @param invitationNumber invitation number\n    */\n    function acceptInvitationMultiple(address[] memory enterprise, uint256[] memory invitationNumber) public{\n\n        uint256 length = enterprise.length;\n        for (uint256 i = 0; i < length; i++) {\n            acceptInvitation(enterprise[i], invitationNumber[i]);\n        }\n    }\n\n    /**\n    * @dev To return invitation count\n    * @param enterprise address of the Enterprise who created invitation\n    * @param audit type\n    * @return count of invitations\n    */\n    function returnInvitationCount(address enterprise, AuditTypes audit) public view returns(uint256) {\n\n        uint256 count;\n\n        for (uint i=0; i < invitations[enterprise].length; ++i ){\n            if (invitations[enterprise][i].audits == audit && \n                invitations[enterprise][i].acceptanceDate != 0 &&\n                !invitations[enterprise][i].deleted)\n                count ++;\n        }\n        return count;\n    }\n\n    /**\n    * @dev Used to determine if validator has been invited and/or if validation has been accepted\n    * @param enterprise inviting party\n    * @param validator address of the validator\n    * @param audits types\n    * @return true if invited\n    * @return true if accepted invitation\n    */\n    function isValidatorInvited(address enterprise, address validator, uint256 audits) public view returns (bool, bool) {\n\n        for (uint i=0; i < invitations[enterprise].length; ++i ){\n            if (invitations[enterprise][i].audits == AuditTypes(audits) && \n                invitations[enterprise][i].validator == validator &&\n                !invitations[enterprise][i].deleted){\n                if (invitations[enterprise][i].acceptanceDate > 0)\n                    return (true, true);\n                return (true, false);\n            }\n        }\n        return (false, false);\n    }\n\n     /**\n    * @dev Used to determine if validator has been invited and/or if validation has been accepted\n    * @param enterprise inviting party\n    * @param validator address of the validator\n    * @param audits types\n    * @param invitNumber invitation number\n    * @return true if invited\n    * @return true if accepted invitation\n    */\n    function isValidatorInvitedNumber(address enterprise, address validator, uint256 audits, uint256 invitNumber) public view returns (bool, bool) {\n\n        if (invitations[enterprise][invitNumber].audits == AuditTypes(audits) && \n            invitations[enterprise][invitNumber].validator == validator &&\n            !invitations[enterprise][invitNumber].deleted){\n            if (invitations[enterprise][invitNumber].acceptanceDate > 0)\n                return (true, true);\n            return (true, false);\n        }\n        return (false, false);\n    }\n\n    /**\n    * @dev Returns true for audit types for which enterprise has created cohorts.\n    * @param enterprise inviting party\n    * @return list of boolean variables with value true for audit types enterprise has initiated cohort, \n    */\n    function returnCohorts(address enterprise) public view returns (bool[] memory){\n\n        uint256 auditCount = 6;\n        bool[] memory audits = new bool[](auditCount);\n\n        for (uint256 i; i < auditCount; i++){\n            if (cohortMap[enterprise][i])\n               audits[i] = true;\n        }\n        return (audits);\n    }\n\n\n    /**\n    * @dev Returns list of validators \n    * @param enterprise to get list for\n    * @param audit type of audits\n    * @return list of boolean variables with value true for audit types enterprise has initiated cohort, \n    */\n    function returnValidatorList(address enterprise, uint256 audit)public view returns(address[] memory){\n\n        address[] memory validatorsList = new address[](returnInvitationCount(enterprise, AuditTypes(audit)));\n        uint k;\n        for (uint i=0; i < invitations[enterprise].length; ++i ){\n            if (uint256(invitations[enterprise][i].audits) == audit && invitations[enterprise][i].acceptanceDate > 0){\n                validatorsList[k] = invitations[enterprise][i].validator;\n                k++;\n            }\n        }\n        return validatorsList;\n    }\n\n     /**\n    * @dev create a list of validators to be initialized in new cohort   \n    * @param validators any array of address of the validators\n    * @param enterprise who created cohort\n    * @param audit  type of audit\n    */\n    function createValidatorCohortList(address[] memory validators, address enterprise, AuditTypes audit) internal {\n\n        for (uint256 i=0; i< validators.length; i++){\n            validatorCohortList[validators[i]][enterprise].push(audit);\n        }\n    }\n\n\n   /**\n    * @dev Used to determine cohorts count for given validator\n    * @param validator address of the validator\n    * @return number of cohorts\n    */ \n    function returnValidatorCohortsCount(address validator, address enterprise) public view returns (uint256){\n\n        return validatorCohortList[validator][enterprise].length;\n    }\n\n    /**\n    * @dev Initiate creation of a new cohort \n    * @param audit type\n    */\n    function createCohort(uint256 audit) public {\n        require(!cohortMap[msg.sender][uint256(audit)] , \"CohortFactory:createCohort - This cohort already exists.\");\n        address[] memory validators =  returnValidatorList(msg.sender, audit);\n        require(validators.length >= minValidatorPerCohort[uint256(audit)], \"CohortFactory:createCohort - Number of validators below required minimum.\");\n        cohortMap[msg.sender][uint256(audit)] = true;   \n        createValidatorCohortList(validators, msg.sender, AuditTypes(audit));\n        emit CohortCreated(msg.sender, audit);\n        \n    }\n}\n",
  "sourcePath": "/home/win2win/eth/projects/AuditChain/Core-Smart-Contracts-v1/contracts/Auditchain/CohortFactory.sol",
  "compiler": {
    "name": "solc",
    "version": "0.8.0+commit.c7dfd78e.Emscripten.clang"
  },
  "schemaVersion": "3.4.1",
  "updatedAt": "2022-04-08T16:19:02.341Z",
  "networkType": "ethereum",
  "devdoc": {
    "kind": "dev",
    "methods": {
      "acceptInvitation(address,uint256)": {
        "details": "Used by Validator to accept Enterprise invitation",
        "params": {
          "enterprise": "address of the Enterprise who created invitation",
          "invitationNumber": "invitation number"
        }
      },
      "acceptInvitationMultiple(address[],uint256[])": {
        "details": "Used by Validator to accept multiple Enterprise invitation",
        "params": {
          "enterprise": "address of the Enterprise who created invitation",
          "invitationNumber": "invitation number"
        }
      },
      "createCohort(uint256)": {
        "details": "Initiate creation of a new cohort ",
        "params": {
          "audit": "type"
        }
      },
      "getRoleAdmin(bytes32)": {
        "details": "Returns the admin role that controls `role`. See {grantRole} and {revokeRole}. To change a role's admin, use {_setRoleAdmin}."
      },
      "grantRole(bytes32,address)": {
        "details": "Grants `role` to `account`. If `account` had not been already granted `role`, emits a {RoleGranted} event. Requirements: - the caller must have ``role``'s admin role."
      },
      "hasRole(bytes32,address)": {
        "details": "Returns `true` if `account` has been granted `role`."
      },
      "inviteValidator(address,uint256)": {
        "details": "Used by Enterprise to invite validator",
        "params": {
          "audit": "type of the audit",
          "validator": "address of the validator to invite"
        }
      },
      "inviteValidatorMultiple(address[],uint8)": {
        "details": "Used by Enterprise to invite multiple validators in one call ",
        "params": {
          "audit": "type of the audit",
          "validator": "address of the validator to invite"
        }
      },
      "isValidatorInvited(address,address,uint256)": {
        "details": "Used to determine if validator has been invited and/or if validation has been accepted",
        "params": {
          "audits": "types",
          "enterprise": "inviting party",
          "validator": "address of the validator"
        },
        "returns": {
          "_0": "true if invited",
          "_1": "true if accepted invitation"
        }
      },
      "isValidatorInvitedNumber(address,address,uint256,uint256)": {
        "details": "Used to determine if validator has been invited and/or if validation has been accepted",
        "params": {
          "audits": "types",
          "enterprise": "inviting party",
          "invitNumber": "invitation number",
          "validator": "address of the validator"
        },
        "returns": {
          "_0": "true if invited",
          "_1": "true if accepted invitation"
        }
      },
      "renounceRole(bytes32,address)": {
        "details": "Revokes `role` from the calling account. Roles are often managed via {grantRole} and {revokeRole}: this function's purpose is to provide a mechanism for accounts to lose their privileges if they are compromised (such as when a trusted device is misplaced). If the calling account had been revoked `role`, emits a {RoleRevoked} event. Requirements: - the caller must be `account`."
      },
      "returnCohorts(address)": {
        "details": "Returns true for audit types for which enterprise has created cohorts.",
        "params": {
          "enterprise": "inviting party"
        },
        "returns": {
          "_0": "list of boolean variables with value true for audit types enterprise has initiated cohort, "
        }
      },
      "returnInvitationCount(address,uint8)": {
        "details": "To return invitation count",
        "params": {
          "audit": "type",
          "enterprise": "address of the Enterprise who created invitation"
        },
        "returns": {
          "_0": "count of invitations"
        }
      },
      "returnValidatorCohortsCount(address,address)": {
        "details": "Used to determine cohorts count for given validator",
        "params": {
          "validator": "address of the validator"
        },
        "returns": {
          "_0": "number of cohorts"
        }
      },
      "returnValidatorList(address,uint256)": {
        "details": "Returns list of validators ",
        "params": {
          "audit": "type of audits",
          "enterprise": "to get list for"
        },
        "returns": {
          "_0": "list of boolean variables with value true for audit types enterprise has initiated cohort, "
        }
      },
      "revokeRole(bytes32,address)": {
        "details": "Revokes `role` from `account`. If `account` had been granted `role`, emits a {RoleRevoked} event. Requirements: - the caller must have ``role``'s admin role."
      },
      "supportsInterface(bytes4)": {
        "details": "See {IERC165-supportsInterface}."
      },
      "updateMinValidatorsPerCohort(uint256,uint256)": {
        "details": "to be called by Governance contract to update new value for min validators per cohort",
        "params": {
          "_minValidatorPerCohort": "new value ",
          "audits": "type of validations"
        }
      }
    },
    "title": "CohortFactory Allows on creation of invitations by Enterprise and acceptance of Validators of those  invitations. Finally Enterprise can create cohort consisting of invited Validators and Enterprise. ",
    "version": 1
  },
  "userdoc": {
    "kind": "user",
    "methods": {},
    "version": 1
  }
}