{
  "contractName": "Cohort",
  "abi": [
    {
      "anonymous": false,
      "inputs": [
        {
          "indexed": false,
          "internalType": "uint256",
          "name": "count",
          "type": "uint256"
        }
      ],
      "name": "LogOutstandingValidationRest",
      "type": "event"
    },
    {
      "anonymous": false,
      "inputs": [
        {
          "indexed": true,
          "internalType": "bytes32",
          "name": "role",
          "type": "bytes32"
        },
        {
          "indexed": true,
          "internalType": "bytes32",
          "name": "previousAdminRole",
          "type": "bytes32"
        },
        {
          "indexed": true,
          "internalType": "bytes32",
          "name": "newAdminRole",
          "type": "bytes32"
        }
      ],
      "name": "RoleAdminChanged",
      "type": "event"
    },
    {
      "anonymous": false,
      "inputs": [
        {
          "indexed": true,
          "internalType": "bytes32",
          "name": "role",
          "type": "bytes32"
        },
        {
          "indexed": true,
          "internalType": "address",
          "name": "account",
          "type": "address"
        },
        {
          "indexed": true,
          "internalType": "address",
          "name": "sender",
          "type": "address"
        }
      ],
      "name": "RoleGranted",
      "type": "event"
    },
    {
      "anonymous": false,
      "inputs": [
        {
          "indexed": true,
          "internalType": "bytes32",
          "name": "role",
          "type": "bytes32"
        },
        {
          "indexed": true,
          "internalType": "address",
          "name": "account",
          "type": "address"
        },
        {
          "indexed": true,
          "internalType": "address",
          "name": "sender",
          "type": "address"
        }
      ],
      "name": "RoleRevoked",
      "type": "event"
    },
    {
      "anonymous": false,
      "inputs": [
        {
          "indexed": true,
          "internalType": "bytes32",
          "name": "validationHash",
          "type": "bytes32"
        },
        {
          "indexed": true,
          "internalType": "uint256",
          "name": "timeExecuted",
          "type": "uint256"
        },
        {
          "indexed": false,
          "internalType": "bytes32",
          "name": "documentHash",
          "type": "bytes32"
        }
      ],
      "name": "ValidationExecuted",
      "type": "event"
    },
    {
      "anonymous": false,
      "inputs": [
        {
          "indexed": true,
          "internalType": "address",
          "name": "user",
          "type": "address"
        },
        {
          "indexed": false,
          "internalType": "bytes32",
          "name": "validationHash",
          "type": "bytes32"
        },
        {
          "indexed": false,
          "internalType": "uint256",
          "name": "initTime",
          "type": "uint256"
        },
        {
          "indexed": false,
          "internalType": "bytes32",
          "name": "documentHash",
          "type": "bytes32"
        },
        {
          "indexed": false,
          "internalType": "string",
          "name": "url",
          "type": "string"
        }
      ],
      "name": "ValidationInitialized",
      "type": "event"
    },
    {
      "anonymous": false,
      "inputs": [
        {
          "indexed": false,
          "internalType": "address",
          "name": "validator",
          "type": "address"
        }
      ],
      "name": "ValidatorRemoved",
      "type": "event"
    },
    {
      "anonymous": false,
      "inputs": [
        {
          "indexed": false,
          "internalType": "address",
          "name": "validator",
          "type": "address"
        },
        {
          "indexed": true,
          "internalType": "bytes32",
          "name": "documentHash",
          "type": "bytes32"
        },
        {
          "indexed": false,
          "internalType": "uint256",
          "name": "validationTime",
          "type": "uint256"
        },
        {
          "indexed": false,
          "internalType": "enum Cohort.ValidationStatus",
          "name": "decision",
          "type": "uint8"
        }
      ],
      "name": "ValidatorValidated",
      "type": "event"
    },
    {
      "anonymous": false,
      "inputs": [
        {
          "indexed": true,
          "internalType": "address",
          "name": "validator",
          "type": "address"
        }
      ],
      "name": "additionalValidatorAdded",
      "type": "event"
    },
    {
      "inputs": [],
      "name": "CONTROLLER_ROLE",
      "outputs": [
        {
          "internalType": "bytes32",
          "name": "",
          "type": "bytes32"
        }
      ],
      "stateMutability": "view",
      "type": "function"
    },
    {
      "inputs": [],
      "name": "DEFAULT_ADMIN_ROLE",
      "outputs": [
        {
          "internalType": "bytes32",
          "name": "",
          "type": "bytes32"
        }
      ],
      "stateMutability": "view",
      "type": "function"
    },
    {
      "inputs": [],
      "name": "SETTER_ROLE",
      "outputs": [
        {
          "internalType": "bytes32",
          "name": "",
          "type": "bytes32"
        }
      ],
      "stateMutability": "view",
      "type": "function"
    },
    {
      "inputs": [],
      "name": "auditToken",
      "outputs": [
        {
          "internalType": "contract AuditToken",
          "name": "",
          "type": "address"
        }
      ],
      "stateMutability": "view",
      "type": "function"
    },
    {
      "inputs": [],
      "name": "audits",
      "outputs": [
        {
          "internalType": "enum Cohort.AuditTypes",
          "name": "",
          "type": "uint8"
        }
      ],
      "stateMutability": "view",
      "type": "function"
    },
    {
      "inputs": [
        {
          "internalType": "address",
          "name": "",
          "type": "address"
        }
      ],
      "name": "deposits",
      "outputs": [
        {
          "internalType": "uint256",
          "name": "",
          "type": "uint256"
        }
      ],
      "stateMutability": "view",
      "type": "function"
    },
    {
      "inputs": [],
      "name": "enterprise",
      "outputs": [
        {
          "internalType": "address",
          "name": "",
          "type": "address"
        }
      ],
      "stateMutability": "view",
      "type": "function"
    },
    {
      "inputs": [
        {
          "internalType": "bytes32",
          "name": "role",
          "type": "bytes32"
        }
      ],
      "name": "getRoleAdmin",
      "outputs": [
        {
          "internalType": "bytes32",
          "name": "",
          "type": "bytes32"
        }
      ],
      "stateMutability": "view",
      "type": "function"
    },
    {
      "inputs": [
        {
          "internalType": "bytes32",
          "name": "role",
          "type": "bytes32"
        },
        {
          "internalType": "uint256",
          "name": "index",
          "type": "uint256"
        }
      ],
      "name": "getRoleMember",
      "outputs": [
        {
          "internalType": "address",
          "name": "",
          "type": "address"
        }
      ],
      "stateMutability": "view",
      "type": "function"
    },
    {
      "inputs": [
        {
          "internalType": "bytes32",
          "name": "role",
          "type": "bytes32"
        }
      ],
      "name": "getRoleMemberCount",
      "outputs": [
        {
          "internalType": "uint256",
          "name": "",
          "type": "uint256"
        }
      ],
      "stateMutability": "view",
      "type": "function"
    },
    {
      "inputs": [
        {
          "internalType": "bytes32",
          "name": "role",
          "type": "bytes32"
        },
        {
          "internalType": "address",
          "name": "account",
          "type": "address"
        }
      ],
      "name": "grantRole",
      "outputs": [],
      "stateMutability": "nonpayable",
      "type": "function"
    },
    {
      "inputs": [
        {
          "internalType": "bytes32",
          "name": "role",
          "type": "bytes32"
        },
        {
          "internalType": "address",
          "name": "account",
          "type": "address"
        }
      ],
      "name": "hasRole",
      "outputs": [
        {
          "internalType": "bool",
          "name": "",
          "type": "bool"
        }
      ],
      "stateMutability": "view",
      "type": "function"
    },
    {
      "inputs": [],
      "name": "members",
      "outputs": [
        {
          "internalType": "contract Members",
          "name": "",
          "type": "address"
        }
      ],
      "stateMutability": "view",
      "type": "function"
    },
    {
      "inputs": [],
      "name": "outstandingValidations",
      "outputs": [
        {
          "internalType": "uint256",
          "name": "",
          "type": "uint256"
        }
      ],
      "stateMutability": "view",
      "type": "function"
    },
    {
      "inputs": [],
      "name": "platformShare",
      "outputs": [
        {
          "internalType": "uint256",
          "name": "",
          "type": "uint256"
        }
      ],
      "stateMutability": "view",
      "type": "function"
    },
    {
      "inputs": [
        {
          "internalType": "bytes32",
          "name": "role",
          "type": "bytes32"
        },
        {
          "internalType": "address",
          "name": "account",
          "type": "address"
        }
      ],
      "name": "renounceRole",
      "outputs": [],
      "stateMutability": "nonpayable",
      "type": "function"
    },
    {
      "inputs": [],
      "name": "requiredQuorum",
      "outputs": [
        {
          "internalType": "uint256",
          "name": "",
          "type": "uint256"
        }
      ],
      "stateMutability": "view",
      "type": "function"
    },
    {
      "inputs": [
        {
          "internalType": "bytes32",
          "name": "role",
          "type": "bytes32"
        },
        {
          "internalType": "address",
          "name": "account",
          "type": "address"
        }
      ],
      "name": "revokeRole",
      "outputs": [],
      "stateMutability": "nonpayable",
      "type": "function"
    },
    {
      "inputs": [
        {
          "internalType": "bytes32",
          "name": "",
          "type": "bytes32"
        }
      ],
      "name": "validations",
      "outputs": [
        {
          "internalType": "uint256",
          "name": "validationTime",
          "type": "uint256"
        },
        {
          "internalType": "uint256",
          "name": "executionTime",
          "type": "uint256"
        },
        {
          "internalType": "string",
          "name": "url",
          "type": "string"
        },
        {
          "internalType": "uint256",
          "name": "consensus",
          "type": "uint256"
        }
      ],
      "stateMutability": "view",
      "type": "function"
    },
    {
      "inputs": [
        {
          "internalType": "uint256",
          "name": "",
          "type": "uint256"
        }
      ],
      "name": "validators",
      "outputs": [
        {
          "internalType": "address",
          "name": "",
          "type": "address"
        }
      ],
      "stateMutability": "view",
      "type": "function"
    },
    {
      "inputs": [
        {
          "internalType": "address",
          "name": "_auditTokenAddress",
          "type": "address"
        },
        {
          "internalType": "contract Members",
          "name": "_members",
          "type": "address"
        },
        {
          "internalType": "address",
          "name": "_enterprise",
          "type": "address"
        },
        {
          "internalType": "address[]",
          "name": "_validators",
          "type": "address[]"
        },
        {
          "internalType": "uint256",
          "name": "_audits",
          "type": "uint256"
        },
        {
          "internalType": "address",
          "name": "_cohortFactory",
          "type": "address"
        }
      ],
      "name": "initialize",
      "outputs": [],
      "stateMutability": "nonpayable",
      "type": "function"
    },
    {
      "inputs": [],
      "name": "returnValidators",
      "outputs": [
        {
          "internalType": "address[]",
          "name": "",
          "type": "address[]"
        }
      ],
      "stateMutability": "view",
      "type": "function"
    },
    {
      "inputs": [
        {
          "internalType": "uint256",
          "name": "_requiredQuorum",
          "type": "uint256"
        }
      ],
      "name": "updateQuorum",
      "outputs": [],
      "stateMutability": "nonpayable",
      "type": "function"
    },
    {
      "inputs": [],
      "name": "resetOutstandingValidations",
      "outputs": [],
      "stateMutability": "nonpayable",
      "type": "function"
    },
    {
      "inputs": [
        {
          "internalType": "address",
          "name": "validator",
          "type": "address"
        }
      ],
      "name": "addAdditionalValidator",
      "outputs": [
        {
          "internalType": "bool",
          "name": "",
          "type": "bool"
        }
      ],
      "stateMutability": "nonpayable",
      "type": "function"
    },
    {
      "inputs": [
        {
          "internalType": "address",
          "name": "validator",
          "type": "address"
        },
        {
          "internalType": "address",
          "name": "_enterprise",
          "type": "address"
        }
      ],
      "name": "removeValidator",
      "outputs": [
        {
          "internalType": "bool",
          "name": "",
          "type": "bool"
        }
      ],
      "stateMutability": "nonpayable",
      "type": "function"
    },
    {
      "inputs": [
        {
          "internalType": "address",
          "name": "_enterprise",
          "type": "address"
        }
      ],
      "name": "checkIfEnterpriseHasFunds",
      "outputs": [
        {
          "internalType": "bool",
          "name": "",
          "type": "bool"
        }
      ],
      "stateMutability": "view",
      "type": "function"
    },
    {
      "inputs": [
        {
          "internalType": "bytes32",
          "name": "documentHash",
          "type": "bytes32"
        },
        {
          "internalType": "string",
          "name": "url",
          "type": "string"
        }
      ],
      "name": "initializeValidation",
      "outputs": [],
      "stateMutability": "nonpayable",
      "type": "function"
    },
    {
      "inputs": [
        {
          "internalType": "bytes32",
          "name": "validationHash",
          "type": "bytes32"
        }
      ],
      "name": "collectValidationResults",
      "outputs": [
        {
          "internalType": "address[]",
          "name": "",
          "type": "address[]"
        },
        {
          "internalType": "uint256[]",
          "name": "",
          "type": "uint256[]"
        },
        {
          "internalType": "enum Cohort.ValidationStatus[]",
          "name": "",
          "type": "uint8[]"
        }
      ],
      "stateMutability": "view",
      "type": "function"
    },
    {
      "inputs": [
        {
          "internalType": "bytes32",
          "name": "validationHash",
          "type": "bytes32"
        }
      ],
      "name": "isValidated",
      "outputs": [
        {
          "internalType": "enum Cohort.ValidationStatus",
          "name": "",
          "type": "uint8"
        }
      ],
      "stateMutability": "view",
      "type": "function"
    },
    {
      "inputs": [
        {
          "internalType": "bytes32",
          "name": "validationHash",
          "type": "bytes32"
        }
      ],
      "name": "calculateVoteQuorum",
      "outputs": [
        {
          "internalType": "uint256",
          "name": "",
          "type": "uint256"
        }
      ],
      "stateMutability": "view",
      "type": "function"
    },
    {
      "inputs": [
        {
          "internalType": "enum Cohort.ValidationStatus[]",
          "name": "validation",
          "type": "uint8[]"
        }
      ],
      "name": "determineConsensus",
      "outputs": [
        {
          "internalType": "uint256",
          "name": "",
          "type": "uint256"
        }
      ],
      "stateMutability": "pure",
      "type": "function"
    },
    {
      "inputs": [
        {
          "internalType": "bytes32",
          "name": "documentHash",
          "type": "bytes32"
        },
        {
          "internalType": "uint256",
          "name": "validationTime",
          "type": "uint256"
        },
        {
          "internalType": "enum Cohort.ValidationStatus",
          "name": "decision",
          "type": "uint8"
        }
      ],
      "name": "validate",
      "outputs": [],
      "stateMutability": "nonpayable",
      "type": "function"
    },
    {
      "inputs": [
        {
          "internalType": "bytes32",
          "name": "documentHash",
          "type": "bytes32"
        },
        {
          "internalType": "uint256",
          "name": "validationTime",
          "type": "uint256"
        }
      ],
      "name": "isHashAndTimeCorrect",
      "outputs": [
        {
          "internalType": "bool",
          "name": "",
          "type": "bool"
        }
      ],
      "stateMutability": "view",
      "type": "function"
    }
  ],
  "bytecode": "0x6080604052600f600355604b60045534801561001a57600080fd5b506136ab8061002a6000396000f3fe608060405234801561001057600080fd5b50600436106102065760003560e01c806396cb4c0d1161011a578063bbe91d10116100ad578063d547741f1161007c578063d547741f14610bd6578063e28c380214610c24578063ebb33a8114610ce0578063f4d5a6bb14610d3f578063fc7e286d14610d9957610206565b8063bbe91d1014610ace578063bdd4d18d14610b13578063bf1db71e14610b47578063ca15c87314610b9457610206565b8063a2011b3f116100e9578063a2011b3f14610931578063a217fddf1461094f578063ab6c77a71461096d578063b39fd6cf146109bb57610206565b806396cb4c0d1461083c57806398c3c116146108b657806398d15e13146108ea57806399ae444a1461090857610206565b8063637e38281161019d5780638c410fc81161016c5780638c410fc8146105a65780639010d07c1461060057806391d14854146106625780639478a8c0146106c657806395d9110e146106fa57610206565b8063637e3828146104635780637036014e14610528578063860008f01461054657806388e438fe1461056457610206565b80632faa6619116101d95780632faa66191461038557806335680dc21461038f57806335aa2e44146103bd57806336568abe1461041557610206565b806302c94cff1461020b578063092c5b3b146102d7578063248a9ca3146102f55780632f2ff15d14610337575b600080fd5b6102c16004803603602081101561022157600080fd5b810190808035906020019064010000000081111561023e57600080fd5b82018360208201111561025057600080fd5b8035906020019184602083028401116401000000008311171561027257600080fd5b919080806020026020016040519081016040528093929190818152602001838360200280828437600081840152601f19601f820116905080830192505050505050509192919290505050610df1565b6040518082815260200191505060405180910390f35b6102df610e8d565b6040518082815260200191505060405180910390f35b6103216004803603602081101561030b57600080fd5b8101908080359060200190929190505050610eb1565b6040518082815260200191505060405180910390f35b6103836004803603604081101561034d57600080fd5b8101908080359060200190929190803573ffffffffffffffffffffffffffffffffffffffff169060200190929190505050610ed0565b005b61038d610f59565b005b6103bb600480360360208110156103a557600080fd5b810190808035906020019092919050505061101b565b005b6103e9600480360360208110156103d357600080fd5b810190808035906020019092919050505061111b565b604051808273ffffffffffffffffffffffffffffffffffffffff16815260200191505060405180910390f35b6104616004803603604081101561042b57600080fd5b8101908080359060200190929190803573ffffffffffffffffffffffffffffffffffffffff16906020019092919050505061115a565b005b6105266004803603604081101561047957600080fd5b8101908080359060200190929190803590602001906401000000008111156104a057600080fd5b8201836020820111156104b257600080fd5b803590602001918460018302840111640100000000831117156104d457600080fd5b91908080601f016020809104026020016040519081016040528093929190818152602001838380828437600081840152601f19601f8201169050808301925050505050505091929192905050506111f3565b005b6105306114b5565b6040518082815260200191505060405180910390f35b61054e6114bb565b6040518082815260200191505060405180910390f35b6105906004803603602081101561057a57600080fd5b81019080803590602001909291905050506114c1565b6040518082815260200191505060405180910390f35b6105e8600480360360208110156105bc57600080fd5b81019080803573ffffffffffffffffffffffffffffffffffffffff169060200190929190505050611810565b60405180821515815260200191505060405180910390f35b6106366004803603604081101561061657600080fd5b810190808035906020019092919080359060200190929190505050611967565b604051808273ffffffffffffffffffffffffffffffffffffffff16815260200191505060405180910390f35b6106ae6004803603604081101561067857600080fd5b8101908080359060200190929190803573ffffffffffffffffffffffffffffffffffffffff169060200190929190505050611998565b60405180821515815260200191505060405180910390f35b6106ce6119c9565b604051808273ffffffffffffffffffffffffffffffffffffffff16815260200191505060405180910390f35b61083a600480360360c081101561071057600080fd5b81019080803573ffffffffffffffffffffffffffffffffffffffff169060200190929190803573ffffffffffffffffffffffffffffffffffffffff169060200190929190803573ffffffffffffffffffffffffffffffffffffffff1690602001909291908035906020019064010000000081111561078d57600080fd5b82018360208201111561079f57600080fd5b803590602001918460208302840111640100000000831117156107c157600080fd5b919080806020026020016040519081016040528093929190818152602001838360200280828437600081840152601f19601f82011690508083019250505050505050919291929080359060200190929190803573ffffffffffffffffffffffffffffffffffffffff1690602001909291905050506119ef565b005b61089e6004803603604081101561085257600080fd5b81019080803573ffffffffffffffffffffffffffffffffffffffff169060200190929190803573ffffffffffffffffffffffffffffffffffffffff169060200190929190505050611c8d565b60405180821515815260200191505060405180910390f35b6108be611f4e565b604051808273ffffffffffffffffffffffffffffffffffffffff16815260200191505060405180910390f35b6108f2611f74565b6040518082815260200191505060405180910390f35b610910611f7a565b6040518082600581111561092057fe5b815260200191505060405180910390f35b610939611f8d565b6040518082815260200191505060405180910390f35b610957611fb1565b6040518082815260200191505060405180910390f35b6109a36004803603604081101561098357600080fd5b810190808035906020019092919080359060200190929190505050611fb8565b60405180821515815260200191505060405180910390f35b6109e7600480360360208110156109d157600080fd5b8101908080359060200190929190505050612027565b60405180806020018060200180602001848103845287818151815260200191508051906020019060200280838360005b83811015610a32578082015181840152602081019050610a17565b50505050905001848103835286818151815260200191508051906020019060200280838360005b83811015610a74578082015181840152602081019050610a59565b50505050905001848103825285818151815260200191508051906020019060200280838360005b83811015610ab6578082015181840152602081019050610a9b565b50505050905001965050505050505060405180910390f35b610b1160048036036060811015610ae457600080fd5b810190808035906020019092919080359060200190929190803560ff169060200190929190505050612369565b005b610b1b6126ee565b604051808273ffffffffffffffffffffffffffffffffffffffff16815260200191505060405180910390f35b610b7360048036036020811015610b5d57600080fd5b8101908080359060200190929190505050612714565b60405180826002811115610b8357fe5b815260200191505060405180910390f35b610bc060048036036020811015610baa57600080fd5b810190808035906020019092919050505061277e565b6040518082815260200191505060405180910390f35b610c2260048036036040811015610bec57600080fd5b8101908080359060200190929190803573ffffffffffffffffffffffffffffffffffffffff1690602001909291905050506127a4565b005b610c5060048036036020811015610c3a57600080fd5b810190808035906020019092919050505061282d565b6040518085815260200184815260200180602001838152602001828103825284818151815260200191508051906020019080838360005b83811015610ca2578082015181840152602081019050610c87565b50505050905090810190601f168015610ccf5780820380516001836020036101000a031916815260200191505b509550505050505060405180910390f35b610ce86128f5565b6040518080602001828103825283818151815260200191508051906020019060200280838360005b83811015610d2b578082015181840152602081019050610d10565b505050509050019250505060405180910390f35b610d8160048036036020811015610d5557600080fd5b81019080803573ffffffffffffffffffffffffffffffffffffffff169060200190929190505050612983565b60405180821515815260200191505060405180910390f35b610ddb60048036036020811015610daf57600080fd5b81019080803573ffffffffffffffffffffffffffffffffffffffff169060200190929190505050612bd0565b6040518082815260200191505060405180910390f35b600080600080600090505b8451811015610e5a5760016002811115610e1257fe5b858281518110610e1e57fe5b60200260200101516002811115610e3157fe5b1415610e44578280600101935050610e4d565b81806001019250505b8080600101915050610dfc565b5080821115610e6e57600192505050610e88565b81811115610e8157600292505050610e88565b6000925050505b919050565b7f7b765e0e932d348852a6f810bfa1ab891e259123f02db8cdcde614c57022335781565b6000806000838152602001908152602001600020600201549050919050565b610ef660008084815260200190815260200160002060020154610ef1612be8565b611998565b610f4b576040517f08c379a000000000000000000000000000000000000000000000000000000000815260040180806020018281038252602f8152602001806132ea602f913960400191505060405180910390fd5b610f558282612bf0565b5050565b610f837f7b765e0e932d348852a6f810bfa1ab891e259123f02db8cdcde614c57022335733611998565b610fd8576040517f08c379a00000000000000000000000000000000000000000000000000000000081526004018080602001828103825260308152602001806133476030913960400191505060405180910390fd5b60006007819055507f2abea2711b2c7793f56d98c06108c81584562801d64d5625926743145680018d6007546040518082815260200191505060405180910390a1565b6110457f61c92169ef077349011ff0b1383c894d86c5f0b41d986366b58a6cf31e93beda33611998565b61109a576040517f08c379a00000000000000000000000000000000000000000000000000000000081526004018080602001828103825260298152602001806134956029913960400191505060405180910390fd5b6000811415611111576040517f08c379a000000000000000000000000000000000000000000000000000000000815260040180806020018281038252601b8152602001807f4e65772071756f72756d2076616c75652063616e27742062652030000000000081525060200191505060405180910390fd5b8060048190555050565b6002818154811061112b57600080fd5b906000526020600020016000915054906101000a900473ffffffffffffffffffffffffffffffffffffffff1681565b611162612be8565b73ffffffffffffffffffffffffffffffffffffffff168173ffffffffffffffffffffffffffffffffffffffff16146111e5576040517f08c379a000000000000000000000000000000000000000000000000000000000815260040180806020018281038252602f815260200180613602602f913960400191505060405180910390fd5b6111ef8282612c83565b5050565b6111fc33612983565b611251576040517f08c379a000000000000000000000000000000000000000000000000000000000815260040180806020018281038252604d8152602001806134be604d913960600191505060405180910390fd5b6000602060ff16116112ae576040517f08c379a000000000000000000000000000000000000000000000000000000000815260040180806020018281038252603c8152602001806133cd603c913960400191505060405180910390fd5b3373ffffffffffffffffffffffffffffffffffffffff16600160009054906101000a900473ffffffffffffffffffffffffffffffffffffffff1673ffffffffffffffffffffffffffffffffffffffff1614611354576040517f08c379a00000000000000000000000000000000000000000000000000000000081526004018080602001828103825260568152602001806133776056913960600191505060405180910390fd5b6000429050600083826040516020018083815260200182815260200192505050604051602081830303815290604052805190602001209050600760008154809291906001019190505550426009600083815260200190815260200160002060000181905550826009600083815260200190815260200160002060020190805190602001906113e3929190613192565b503373ffffffffffffffffffffffffffffffffffffffff167f0110eb708834cff782426a2fbe2776de7c749525599e3fe19b576ab5cc3b29ff828487876040518085815260200184815260200183815260200180602001828103825283818151815260200191508051906020019080838360005b83811015611472578082015181840152602081019050611457565b50505050905090810190601f16801561149f5780820380516001836020036101000a031916815260200191505b509550505050505060405180910390a250505050565b60045481565b60075481565b6000806000806009600086815260200190815260200160002090506000816000015411611539576040517f08c379a000000000000000000000000000000000000000000000000000000000815260040180806020018281038252603a81526020018061358b603a913960400191505060405180910390fd5b60005b6002805490508110156117f857600660009054906101000a900473ffffffffffffffffffffffffffffffffffffffff1673ffffffffffffffffffffffffffffffffffffffff1663fc7e286d6002838154811061159457fe5b9060005260206000200160009054906101000a900473ffffffffffffffffffffffffffffffffffffffff166040518263ffffffff1660e01b8152600401808273ffffffffffffffffffffffffffffffffffffffff16815260200191505060206040518083038186803b15801561160957600080fd5b505afa15801561161d573d6000803e3d6000fd5b505050506040513d602081101561163357600080fd5b8101908080519060200190929190505050840193506000600281111561165557fe5b8260040160006002848154811061166857fe5b9060005260206000200160009054906101000a900473ffffffffffffffffffffffffffffffffffffffff1673ffffffffffffffffffffffffffffffffffffffff1673ffffffffffffffffffffffffffffffffffffffff16815260200190815260200160002060009054906101000a900460ff1660028111156116e657fe5b146117eb57600660009054906101000a900473ffffffffffffffffffffffffffffffffffffffff1673ffffffffffffffffffffffffffffffffffffffff1663fc7e286d6002838154811061173657fe5b9060005260206000200160009054906101000a900473ffffffffffffffffffffffffffffffffffffffff166040518263ffffffff1660e01b8152600401808273ffffffffffffffffffffffffffffffffffffffff16815260200191505060206040518083038186803b1580156117ab57600080fd5b505afa1580156117bf573d6000803e3d6000fd5b505050506040513d60208110156117d557600080fd5b8101908080519060200190929190505050830192505b808060010191505061153c565b5082606483028161180557fe5b049350505050919050565b6000600860019054906101000a900473ffffffffffffffffffffffffffffffffffffffff1673ffffffffffffffffffffffffffffffffffffffff163373ffffffffffffffffffffffffffffffffffffffff16146118b8576040517f08c379a000000000000000000000000000000000000000000000000000000000815260040180806020018281038252604c81526020018061353f604c913960600191505060405180910390fd5b6002829080600181540180825580915050600190039060005260206000200160009091909190916101000a81548173ffffffffffffffffffffffffffffffffffffffff021916908373ffffffffffffffffffffffffffffffffffffffff1602179055508173ffffffffffffffffffffffffffffffffffffffff167f062e1697d99ab0bf9982c8b5a533e4c44d82844d8f4aa777335bc87c9a4bd07560405160405180910390a260019050919050565b600061199082600080868152602001908152602001600020600001612d1690919063ffffffff16565b905092915050565b60006119c182600080868152602001908152602001600020600001612d3090919063ffffffff16565b905092915050565b600160009054906101000a900473ffffffffffffffffffffffffffffffffffffffff1681565b600860009054906101000a900460ff1615611a55576040517f08c379a000000000000000000000000000000000000000000000000000000000815260040180806020018281038252603d8152602001806135c5603d913960400191505060405180910390fd5b83600160006101000a81548173ffffffffffffffffffffffffffffffffffffffff021916908373ffffffffffffffffffffffffffffffffffffffff1602179055508260029080519060200190611aac929190613220565b50816005811115611ab957fe5b600860156101000a81548160ff02191690836005811115611ad657fe5b021790555085600560006101000a81548173ffffffffffffffffffffffffffffffffffffffff021916908373ffffffffffffffffffffffffffffffffffffffff16021790555084600660006101000a81548173ffffffffffffffffffffffffffffffffffffffff021916908373ffffffffffffffffffffffffffffffffffffffff1602179055506000600560009054906101000a900473ffffffffffffffffffffffffffffffffffffffff1673ffffffffffffffffffffffffffffffffffffffff16639010d07c6000801b60006040518363ffffffff1660e01b8152600401808381526020018281526020019250505060206040518083038186803b158015611bde57600080fd5b505afa158015611bf2573d6000803e3d6000fd5b505050506040513d6020811015611c0857600080fd5b81019080805190602001909291905050509050611c286000801b82612d60565b6001600860006101000a81548160ff02191690831515021790555081600860016101000a81548173ffffffffffffffffffffffffffffffffffffffff021916908373ffffffffffffffffffffffffffffffffffffffff16021790555050505050505050565b6000600860019054906101000a900473ffffffffffffffffffffffffffffffffffffffff1673ffffffffffffffffffffffffffffffffffffffff163373ffffffffffffffffffffffffffffffffffffffff16148015611d3957508173ffffffffffffffffffffffffffffffffffffffff16600160009054906101000a900473ffffffffffffffffffffffffffffffffffffffff1673ffffffffffffffffffffffffffffffffffffffff16145b611d8e576040517f08c379a00000000000000000000000000000000000000000000000000000000081526004018080602001828103825260458152602001806136316045913960600191505060405180910390fd5b60005b600280549050811015611f42578373ffffffffffffffffffffffffffffffffffffffff1660028281548110611dc257fe5b9060005260206000200160009054906101000a900473ffffffffffffffffffffffffffffffffffffffff1673ffffffffffffffffffffffffffffffffffffffff161415611f3557600260016002805490500381548110611e1e57fe5b9060005260206000200160009054906101000a900473ffffffffffffffffffffffffffffffffffffffff1660028281548110611e5657fe5b9060005260206000200160006101000a81548173ffffffffffffffffffffffffffffffffffffffff021916908373ffffffffffffffffffffffffffffffffffffffff1602179055506002805480611ea957fe5b6001900381819060005260206000200160006101000a81549073ffffffffffffffffffffffffffffffffffffffff021916905590557fe1434e25d6611e0db941968fdc97811c982ac1602e951637d206f5fdda9dd8f184604051808273ffffffffffffffffffffffffffffffffffffffff16815260200191505060405180910390a16001915050611f48565b8080600101915050611d91565b50600090505b92915050565b600560009054906101000a900473ffffffffffffffffffffffffffffffffffffffff1681565b60035481565b600860159054906101000a900460ff1681565b7f61c92169ef077349011ff0b1383c894d86c5f0b41d986366b58a6cf31e93beda81565b6000801b81565b600080838360405160200180838152602001828152602001925050506040516020818303038152906040528051906020012090506000600960008381526020019081526020016000209050838160000154141561201a57600192505050612021565b6000925050505b92915050565b6060806060600060028054806020026020016040519081016040528092919081815260200182805480156120b057602002820191906000526020600020905b8160009054906101000a900473ffffffffffffffffffffffffffffffffffffffff1673ffffffffffffffffffffffffffffffffffffffff1681526020019060010190808311612066575b50505050509050600060028054905067ffffffffffffffff811180156120d557600080fd5b506040519080825280602002602001820160405280156121045781602001602082028036833780820191505090505b509050600060028054905067ffffffffffffffff8111801561212557600080fd5b506040519080825280602002602001820160405280156121545781602001602082028036833780820191505090505b509050600060096000898152602001908152602001600020905060005b60028054905081101561235457600660009054906101000a900473ffffffffffffffffffffffffffffffffffffffff1673ffffffffffffffffffffffffffffffffffffffff1663fc7e286d600283815481106121c957fe5b9060005260206000200160009054906101000a900473ffffffffffffffffffffffffffffffffffffffff166040518263ffffffff1660e01b8152600401808273ffffffffffffffffffffffffffffffffffffffff16815260200191505060206040518083038186803b15801561223e57600080fd5b505afa158015612252573d6000803e3d6000fd5b505050506040513d602081101561226857600080fd5b810190808051906020019092919050505084828151811061228557fe5b602002602001018181525050816004016000600283815481106122a457fe5b9060005260206000200160009054906101000a900473ffffffffffffffffffffffffffffffffffffffff1673ffffffffffffffffffffffffffffffffffffffff1673ffffffffffffffffffffffffffffffffffffffff16815260200190815260200160002060009054906101000a900460ff1683828151811061232357fe5b6020026020010190600281111561233657fe5b9081600281111561234357fe5b815250508080600101915050612171565b50838383965096509650505050509193909250565b6000838360405160200180838152602001828152602001925050506040516020818303038152906040528051906020012090506000600960008381526020019081526020016000209050600660009054906101000a900473ffffffffffffffffffffffffffffffffffffffff1673ffffffffffffffffffffffffffffffffffffffff16636f9cf98533600160028111156123ff57fe5b6040518363ffffffff1660e01b8152600401808373ffffffffffffffffffffffffffffffffffffffff16815260200182600281111561243a57fe5b81526020019250505060206040518083038186803b15801561245b57600080fd5b505afa15801561246f573d6000803e3d6000fd5b505050506040513d602081101561248557600080fd5b81019080805190602001909291905050506124eb576040517f08c379a000000000000000000000000000000000000000000000000000000000815260040180806020018281038252602e815260200180613319602e913960400191505060405180910390fd5b83816000015414612547576040517f08c379a000000000000000000000000000000000000000000000000000000000815260040180806020018281038252603481526020018061350b6034913960400191505060405180910390fd5b6000600281111561255457fe5b8160040160003373ffffffffffffffffffffffffffffffffffffffff1673ffffffffffffffffffffffffffffffffffffffff16815260200190815260200160002060009054906101000a900460ff1660028111156125ae57fe5b14612604576040517f08c379a000000000000000000000000000000000000000000000000000000000815260040180806020018281038252603b815260200180613409603b913960400191505060405180910390fd5b828160040160003373ffffffffffffffffffffffffffffffffffffffff1673ffffffffffffffffffffffffffffffffffffffff16815260200190815260200160002060006101000a81548160ff0219169083600281111561266157fe5b021790555060008160010154141561267e5761267d8286612d6e565b5b847f4b83165525e8a33e47863e81a457e20dcf4a5a565ff817e856ac3b232bf5e957338686604051808473ffffffffffffffffffffffffffffffffffffffff1681526020018381526020018260028111156126d557fe5b8152602001935050505060405180910390a25050505050565b600660009054906101000a900473ffffffffffffffffffffffffffffffffffffffff1681565b60006009600083815260200190815260200160002060040160003373ffffffffffffffffffffffffffffffffffffffff1673ffffffffffffffffffffffffffffffffffffffff16815260200190815260200160002060009054906101000a900460ff169050919050565b600061279d600080848152602001908152602001600020600001612dff565b9050919050565b6127ca600080848152602001908152602001600020600201546127c5612be8565b611998565b61281f576040517f08c379a00000000000000000000000000000000000000000000000000000000081526004018080602001828103825260308152602001806134446030913960400191505060405180910390fd5b6128298282612c83565b5050565b6009602052806000526040600020600091509050806000015490806001015490806002018054600181600116156101000203166002900480601f0160208091040260200160405190810160405280929190818152602001828054600181600116156101000203166002900480156128e55780601f106128ba576101008083540402835291602001916128e5565b820191906000526020600020905b8154815290600101906020018083116128c857829003601f168201915b5050505050908060030154905084565b6060600280548060200260200160405190810160405280929190818152602001828054801561297957602002820191906000526020600020905b8160009054906101000a900473ffffffffffffffffffffffffffffffffffffffff1673ffffffffffffffffffffffffffffffffffffffff168152602001906001019080831161292f575b5050505050905090565b6000612b04612710612af6600660009054906101000a900473ffffffffffffffffffffffffffffffffffffffff1673ffffffffffffffffffffffffffffffffffffffff1663a7579be86040518163ffffffff1660e01b815260040160206040518083038186803b1580156129f657600080fd5b505afa158015612a0a573d6000803e3d6000fd5b505050506040513d6020811015612a2057600080fd5b8101908080519060200190929190505050612ae8600754600660009054906101000a900473ffffffffffffffffffffffffffffffffffffffff1673ffffffffffffffffffffffffffffffffffffffff16634d9c798c6040518163ffffffff1660e01b815260040160206040518083038186803b158015612a9f57600080fd5b505afa158015612ab3573d6000803e3d6000fd5b505050506040513d6020811015612ac957600080fd5b8101908080519060200190929190505050612e1490919063ffffffff16565b612e1490919063ffffffff16565b612e9a90919063ffffffff16565b600660009054906101000a900473ffffffffffffffffffffffffffffffffffffffff1673ffffffffffffffffffffffffffffffffffffffff1663fc7e286d846040518263ffffffff1660e01b8152600401808273ffffffffffffffffffffffffffffffffffffffff16815260200191505060206040518083038186803b158015612b8d57600080fd5b505afa158015612ba1573d6000803e3d6000fd5b505050506040513d6020811015612bb757600080fd5b8101908080519060200190929190505050119050919050565b600a6020528060005260406000206000915090505481565b600033905090565b612c1781600080858152602001908152602001600020600001612f2390919063ffffffff16565b15612c7f57612c24612be8565b73ffffffffffffffffffffffffffffffffffffffff168173ffffffffffffffffffffffffffffffffffffffff16837f2f8788117e7eff1d82e926ec794901d17c78024a50270940304540a733656f0d60405160405180910390a45b5050565b612caa81600080858152602001908152602001600020600001612f5390919063ffffffff16565b15612d1257612cb7612be8565b73ffffffffffffffffffffffffffffffffffffffff168173ffffffffffffffffffffffffffffffffffffffff16837ff6391f5c32d9c69d2a47ea670b442974b53935d1edc7fd64eb21e047a839171b60405160405180910390a45b5050565b6000612d258360000183612f83565b60001c905092915050565b6000612d58836000018373ffffffffffffffffffffffffffffffffffffffff1660001b613006565b905092915050565b612d6a8282612bf0565b5050565b600454612d7a836114c1565b10612dfb5760006009600084815260200190815260200160002090504281600101819055506000612daa84612027565b92505050612db781610df1565b826003018190555042847fd8373619c0739e6f93111b30e9b8a6859e396044de7952438e1239173bd3b1f1856040518082815260200191505060405180910390a350505b5050565b6000612e0d82600001613029565b9050919050565b600080831415612e275760009050612e94565b6000828402905082848281612e3857fe5b0414612e8f576040517f08c379a00000000000000000000000000000000000000000000000000000000081526004018080602001828103825260218152602001806134746021913960400191505060405180910390fd5b809150505b92915050565b6000808211612f11576040517f08c379a000000000000000000000000000000000000000000000000000000000815260040180806020018281038252601a8152602001807f536166654d6174683a206469766973696f6e206279207a65726f00000000000081525060200191505060405180910390fd5b818381612f1a57fe5b04905092915050565b6000612f4b836000018373ffffffffffffffffffffffffffffffffffffffff1660001b61303a565b905092915050565b6000612f7b836000018373ffffffffffffffffffffffffffffffffffffffff1660001b6130aa565b905092915050565b600081836000018054905011612fe4576040517f08c379a00000000000000000000000000000000000000000000000000000000081526004018080602001828103825260228152602001806132c86022913960400191505060405180910390fd5b826000018281548110612ff357fe5b9060005260206000200154905092915050565b600080836001016000848152602001908152602001600020541415905092915050565b600081600001805490509050919050565b60006130468383613006565b61309f5782600001829080600181540180825580915050600190039060005260206000200160009091909190915055826000018054905083600101600084815260200190815260200160002081905550600190506130a4565b600090505b92915050565b6000808360010160008481526020019081526020016000205490506000811461318657600060018203905060006001866000018054905003905060008660000182815481106130f557fe5b906000526020600020015490508087600001848154811061311257fe5b906000526020600020018190555060018301876001016000838152602001908152602001600020819055508660000180548061314a57fe5b6001900381819060005260206000200160009055905586600101600087815260200190815260200160002060009055600194505050505061318c565b60009150505b92915050565b828054600181600116156101000203166002900490600052602060002090601f0160209004810192826131c8576000855561320f565b82601f106131e157805160ff191683800117855561320f565b8280016001018555821561320f579182015b8281111561320e5782518255916020019190600101906131f3565b5b50905061321c91906132aa565b5090565b828054828255906000526020600020908101928215613299579160200282015b828111156132985782518260006101000a81548173ffffffffffffffffffffffffffffffffffffffff021916908373ffffffffffffffffffffffffffffffffffffffff16021790555091602001919060010190613240565b5b5090506132a691906132aa565b5090565b5b808211156132c35760008160009055506001016132ab565b509056fe456e756d657261626c655365743a20696e646578206f7574206f6620626f756e6473416363657373436f6e74726f6c3a2073656e646572206d75737420626520616e2061646d696e20746f206772616e74436f686f72743a76616c6964617465202d2056616c696461746f72206973206e6f7420617574686f72697a65642e436f686f72743a6973436f6e74726f6c6c6572202d2043616c6c6572206973206e6f74206120636f6e74726f6c6c6572436f686f72743a696e697469616c697a6556616c69646174696f6e202d204f6e6c7920656e7465727072697365206f77696e67207468697320636f686f72742063616e2063616c6c20746869732066756e6374696f6e436f686f72743a696e697469616c697a6556616c69646174696f6e202d20446f63756d656e7420686173682076616c75652063616e27742062652030436f686f72743a76616c6964617465202d205468697320646f63756d656e7420686173206265656e2076616c69646174656420616c72656164792e416363657373436f6e74726f6c3a2073656e646572206d75737420626520616e2061646d696e20746f207265766f6b65536166654d6174683a206d756c7469706c69636174696f6e206f766572666c6f774d656d626572733a6973536574746572202d2043616c6c6572206973206e6f74206120736574746572436f686f72743a696e697469616c697a6556616c69646174696f6e202d204e6f742073756666696369656e742066756e64732e204465706f736974206164646974696f6e616c2066756e64732e436f686f72743a76616c6964617465202d207468652076616c69646174696f6e20706172616d7320646f6e2774206d617463682e436f686f72743a6164644164646974696f6e616c56616c696461746f72202d20596f7520617265206e6f7420617574686f72697a656420746f2063616c6c20746869732066756e6374696f6e436f686f72743a63616c63756c617465566f746551756f72756d202d2056616c69646174696f6e206861736820646f65736e2774206578697374436f686f72743a696e697469616c697a65202d207468697320436f686f727420686173206265656e20616c726561647920696e697469616c697a65642e416363657373436f6e74726f6c3a2063616e206f6e6c792072656e6f756e636520726f6c657320666f722073656c66436f686f72743a72656d6f766556616c696461746f72202d20596f7520617265206e6f7420617574686f72697a656420746f2063616c6c20746869732066756e6374696f6ea264697066735822122045ea8b59439b0621f370b39f06a13a65b3138a493b0c162adff843741f37aa5d64736f6c63430007060033",
  "immutableReferences": {},
  "source": "// SPDX-License-Identifier: MIT\npragma solidity =0.7.6;\n\nimport \"../AuditToken.sol\";\nimport \"./Members.sol\";\nimport \"@openzeppelin/contracts/math/SafeMath.sol\";\nimport \"@openzeppelin/contracts/token/ERC20/SafeERC20.sol\";\nimport \"@openzeppelin/contracts/access/AccessControl.sol\";\n\n/**\n * @title Cohort\n * Allows on creation of cohort by Enterprise based on invitations. \n * Enterprise can create cohort consisting of invited Validators.\n * Later Enterprise can remove inactive validators and invite new ones. \n */\ncontract Cohort is AccessControl {\n    using SafeMath for uint256;\n    using SafeERC20 for AuditToken;\n\n    address public enterprise;\n    address[] public validators;\n    uint256 public platformShare = 15; //Percentage of platform share\n    uint256 public requiredQuorum = 75;\n    AuditToken public auditToken;\n    Members public members;\n    uint256 public outstandingValidations;\n    bool initialized;\n    address cohortFactory;\n\n    // Create a new role identifier for the controller role\n    bytes32 public constant CONTROLLER_ROLE = keccak256(\"CONTROLLER_ROLE\");\n    bytes32 public constant SETTER_ROLE = keccak256(\"SETTER_ROLE\");\n\n    // check if caller is authorized to make the call\n    modifier isController {\n        require( hasRole(CONTROLLER_ROLE, msg.sender),\n            \"Cohort:isController - Caller is not a controller\");\n        _;\n    }\n    /// @dev check if caller is a setter\n    modifier isSetter {\n        require(hasRole(SETTER_ROLE, msg.sender),\n            \"Members:isSetter - Caller is not a setter\"\n        );\n        _;\n    }\n\n    // Audit types to be used. Three types added for future expansion\n    enum AuditTypes {Financial, System, Contract, NFT, Type5, Type6}\n\n    AuditTypes public audits;\n\n\n    // Validation can be approved or disapproved. Initial status is undefined.\n    enum ValidationStatus {Undefined, Yes, No}        \n\n    struct Validation {\n        uint256 validationTime;\n        uint256 executionTime;\n        string url;\n        uint256 consensus;\n        mapping(address => ValidationStatus) validatorChoice;\n    }\n\n\n  \n    mapping(bytes32 => Validation) public validations; // track each validation\n    \n\n    mapping(address => uint256) public deposits; //track deposits per user\n\n    event ValidationInitialized(address indexed user, bytes32 validationHash, uint256 initTime, bytes32 documentHash, string url);\n    event ValidatorValidated(address validator, bytes32 indexed documentHash, uint256 validationTime, ValidationStatus decision);\n    event ValidationExecuted(bytes32 indexed validationHash, uint256 indexed timeExecuted, bytes32 documentHash);\n    event additionalValidatorAdded(address indexed validator);\n    event ValidatorRemoved(address validator);\n    event LogOutstandingValidationRest(uint256 count);\n\n    /**\n     * @dev Called from CohortFactory.sol by Enterprise within the cohort creation function\n     * @param _auditTokenAddress     // address of AUDT token contract\n     * @param _members               // address of Members contract\n     * @param _enterprise            // address of enterprise user\n     * @param _validators            // list of invited validators\n     * @param _audits                // audit type\n     */\n    function initialize(\n        address _auditTokenAddress,\n        Members _members,\n        address _enterprise,\n        address[] memory _validators,\n        uint256 _audits,\n        address _cohortFactory\n    ) public {\n        require(!initialized,\"Cohort:initialize - this Cohort has been already initialized.\");\n        enterprise = _enterprise;\n        validators = _validators;\n        audits = AuditTypes(_audits);\n        auditToken = AuditToken(_auditTokenAddress);\n        members = _members;\n        address tokenAdmin = auditToken.getRoleMember(DEFAULT_ADMIN_ROLE, 0); // get admin of token contract\n        _setupRole(DEFAULT_ADMIN_ROLE, tokenAdmin);\n        initialized = true;\n        cohortFactory = _cohortFactory;\n    }\n\n    /**\n     * @dev returns list of validators for this cohort\n     * @return array of validators\n     */\n    function returnValidators() public view returns (address[] memory) {\n        return validators;\n    }\n\n    /**\n     * @dev to be called by administrator to update new amount for required quorum\n     * @param _requiredQuorum new value of required quorum\n     */\n    function updateQuorum(uint256 _requiredQuorum) public isSetter() {\n        require(_requiredQuorum != 0, \"New quorum value can't be 0\");\n        requiredQuorum = _requiredQuorum;\n    }\n\n    function resetOutstandingValidations() public isController() {\n        outstandingValidations = 0;\n        emit LogOutstandingValidationRest(outstandingValidations);\n    }\n\n    function addAdditionalValidator(address validator) public returns (bool){\n        require(msg.sender == cohortFactory, \"Cohort:addAdditionalValidator - You are not authorized to call this function\");        \n        validators.push(validator);\n        emit additionalValidatorAdded(validator);\n        return true;\n    }\n    \n    function removeValidator(address validator, address _enterprise) public returns (bool) {\n\n        require(msg.sender == cohortFactory && enterprise == _enterprise, \"Cohort:removeValidator - You are not authorized to call this function\");\n        for (uint256 i; i< validators.length; i++){\n\n            if (validators[i] == validator) {\n                validators[i] =  validators[validators.length - 1] ;\n                validators.pop();                    \n                emit ValidatorRemoved(validator);\n                return (true);\n            }\n        }\n         return false;\n    }\n\n    function checkIfEnterpriseHasFunds(address _enterprise) public view returns (bool) {\n        return ( members.deposits(_enterprise) > members\n                    .amountTokensPerValidation()\n                    .mul(outstandingValidations)\n                    .mul(members.enterpriseMatch())\n                    .div(1e4));\n    }\n    /**\n     * @dev to be called by Enterprise to initiate new validation\n     * @param documentHash - hash of unique identifier of validated transaction\n     */\n    function initializeValidation(bytes32 documentHash, string memory url) public {\n        // div(1e4) account for precision up to 4 decimal points\n        require(checkIfEnterpriseHasFunds(msg.sender), \"Cohort:initializeValidation - Not sufficient funds. Deposit additional funds.\");\n        require(documentHash.length > 0, \"Cohort:initializeValidation - Document hash value can't be 0\");\n        require(enterprise == msg.sender, \"Cohort:initializeValidation - Only enterprise owing this cohort can call this function\");\n        uint256 validationTime = block.timestamp;\n        bytes32 validationHash = keccak256(abi.encodePacked(documentHash, validationTime));\n\n        outstandingValidations++;\n        // Validation storage newValidation = validations[validationHash];\n        // newValidation.validationTime = block.timestamp;\n        // newValidation.url= url;\n\n        validations[validationHash].validationTime = block.timestamp;\n        validations[validationHash].url = url;\n\n        emit ValidationInitialized(msg.sender, validationHash, validationTime, documentHash, url);\n    }\n\n    /**\n     * @dev Review the validation results\n     * @param validationHash - consist of hash of hashed document and timestamp\n     * @return array  of validators\n     * @return array of stakes of each validator\n     * @return array of validation choices for each validator\n     */\n    function collectValidationResults(bytes32 validationHash)\n        public\n        view\n        returns (\n            address[] memory,\n            uint256[] memory,\n            ValidationStatus[] memory\n        )\n    {\n        address[] memory validatorsList = validators;\n        uint256[] memory stake = new uint256[](validators.length);\n        ValidationStatus[] memory validatorsValues = new ValidationStatus[](validators.length);\n\n        Validation storage validation = validations[validationHash];\n\n        for (uint256 i = 0; i < validators.length; i++) {\n            stake[i] = members.deposits(validators[i]);\n            validatorsValues[i] = validation.validatorChoice[validators[i]];\n        }\n        return (validatorsList, stake, validatorsValues);\n    }\n\n    /**\n     * @dev validators can check if specific document has been already validated by them\n     * @param validationHash - consist of hash of hashed document and timestamp\n     * @return validation choices used by validator\n     */\n    function isValidated(bytes32 validationHash) public view returns (ValidationStatus){\n        return validations[validationHash].validatorChoice[msg.sender];\n    }\n\n    /**\n     * @dev to calculate state of the quorum for the validation\n     * @param validationHash - consist of hash of hashed document and timestamp\n     * @return number representing current participation level in percentage\n     */\n    function calculateVoteQuorum(bytes32 validationHash)\n        public\n        view\n        returns (uint256)\n    {\n        uint256 totalStaked;\n        uint256 currentlyVoted;\n\n        Validation storage validation = validations[validationHash];\n        require(validation.validationTime > 0, \"Cohort:calculateVoteQuorum - Validation hash doesn't exist\");\n\n        for (uint256 i = 0; i < validators.length; i++) {\n            totalStaked += members.deposits(validators[i]);\n            if (validation.validatorChoice[validators[i]] != ValidationStatus.Undefined) \n                currentlyVoted += members.deposits(validators[i]);\n        }\n        return (currentlyVoted * 100) / totalStaked;\n    }\n\n    function determineConsensus(ValidationStatus[] memory validation) public pure returns(uint256 ) {\n\n        // const validatorsValues = validation[2];\n        uint256 yes;\n        uint256 no;\n\n        for (uint256 i=0; i< validation.length; i++) {\n\n            if (validation[i] == ValidationStatus.Yes)\n                yes++;\n            else\n                no++;\n        }\n\n        if (yes > no)\n            return 1; // consensus is to approve\n        else if (no > yes)\n            return 2; // consensus is to disapprove\n        else\n            return 0; // consensus is tie - should not happen\n}\n\n    /**\n     * @dev to mark validation as executed. This happens when participation level reached \"requiredQuorum\"\n     * @param validationHash - consist of hash of hashed document and timestamp\n     */\n    function executeValidation(bytes32 validationHash, bytes32 documentHash) internal {\n        if (calculateVoteQuorum(validationHash) >= requiredQuorum) {\n            Validation storage validation = validations[validationHash];\n            validation.executionTime = block.timestamp;\n\n            (,, ValidationStatus[] memory results) = collectValidationResults(validationHash);\n\n            validation.consensus = determineConsensus(results);\n            emit ValidationExecuted(validationHash, block.timestamp, documentHash);\n        }\n    }\n\n    /**\n     * @dev called by validator to approve or disapprove this validation\n     * @param documentHash - hash of validated document\n     * @param validationTime - this is the time when validation has been initialized\n     * @param decision - one of the ValidationStatus choices cast by validator\n     */\n    function validate(\n        bytes32 documentHash,\n        uint256 validationTime,\n        ValidationStatus decision\n    ) public {\n        bytes32 validationHash = keccak256(abi.encodePacked(documentHash, validationTime));\n        Validation storage validation = validations[validationHash];\n        require(members.userMap(msg.sender, Members.UserType(1)), \"Cohort:validate - Validator is not authorized.\");\n        require(validation.validationTime == validationTime, \"Cohort:validate - the validation params don't match.\");\n        require(validation.validatorChoice[msg.sender] ==ValidationStatus.Undefined, \"Cohort:validate - This document has been validated already.\");\n        validation.validatorChoice[msg.sender] = decision;\n\n        if (validation.executionTime == 0) \n            executeValidation(validationHash, documentHash);\n\n        emit ValidatorValidated(msg.sender, documentHash, validationTime, decision);\n    }\n\n    function isHashAndTimeCorrect( bytes32 documentHash, uint256 validationTime) public view returns (bool){\n\n        bytes32 validationHash = keccak256(abi.encodePacked(documentHash, validationTime));\n        Validation storage validation = validations[validationHash];\n        if (validation.validationTime == validationTime)\n            return true;\n        else\n            return false;\n    }\n}\n",
  "sourcePath": "/home/bogdan/Ethereum/Projects/TGE/Core-Smart-Contracts-v1/contracts/Auditchain/Cohort.sol",
  "compiler": {
    "name": "solc",
    "version": "0.7.6+commit.7338295f.Emscripten.clang"
  },
  "schemaVersion": "3.4.0",
  "updatedAt": "2021-04-30T20:39:55.293Z",
  "devdoc": {
    "kind": "dev",
    "methods": {
      "calculateVoteQuorum(bytes32)": {
        "details": "to calculate state of the quorum for the validation",
        "params": {
          "validationHash": "- consist of hash of hashed document and timestamp"
        },
        "returns": {
          "_0": "number representing current participation level in percentage"
        }
      },
      "collectValidationResults(bytes32)": {
        "details": "Review the validation results",
        "params": {
          "validationHash": "- consist of hash of hashed document and timestamp"
        },
        "returns": {
          "_0": "array  of validators",
          "_1": "array of stakes of each validator",
          "_2": "array of validation choices for each validator"
        }
      },
      "getRoleAdmin(bytes32)": {
        "details": "Returns the admin role that controls `role`. See {grantRole} and {revokeRole}. To change a role's admin, use {_setRoleAdmin}."
      },
      "getRoleMember(bytes32,uint256)": {
        "details": "Returns one of the accounts that have `role`. `index` must be a value between 0 and {getRoleMemberCount}, non-inclusive. Role bearers are not sorted in any particular way, and their ordering may change at any point. WARNING: When using {getRoleMember} and {getRoleMemberCount}, make sure you perform all queries on the same block. See the following https://forum.openzeppelin.com/t/iterating-over-elements-on-enumerableset-in-openzeppelin-contracts/2296[forum post] for more information."
      },
      "getRoleMemberCount(bytes32)": {
        "details": "Returns the number of accounts that have `role`. Can be used together with {getRoleMember} to enumerate all bearers of a role."
      },
      "grantRole(bytes32,address)": {
        "details": "Grants `role` to `account`. If `account` had not been already granted `role`, emits a {RoleGranted} event. Requirements: - the caller must have ``role``'s admin role."
      },
      "hasRole(bytes32,address)": {
        "details": "Returns `true` if `account` has been granted `role`."
      },
      "initialize(address,address,address,address[],uint256,address)": {
        "details": "Called from CohortFactory.sol by Enterprise within the cohort creation function",
        "params": {
          "_auditTokenAddress": "// address of AUDT token contract",
          "_audits": "// audit type",
          "_enterprise": "// address of enterprise user",
          "_members": "// address of Members contract",
          "_validators": "// list of invited validators"
        }
      },
      "initializeValidation(bytes32,string)": {
        "details": "to be called by Enterprise to initiate new validation",
        "params": {
          "documentHash": "- hash of unique identifier of validated transaction"
        }
      },
      "isValidated(bytes32)": {
        "details": "validators can check if specific document has been already validated by them",
        "params": {
          "validationHash": "- consist of hash of hashed document and timestamp"
        },
        "returns": {
          "_0": "validation choices used by validator"
        }
      },
      "renounceRole(bytes32,address)": {
        "details": "Revokes `role` from the calling account. Roles are often managed via {grantRole} and {revokeRole}: this function's purpose is to provide a mechanism for accounts to lose their privileges if they are compromised (such as when a trusted device is misplaced). If the calling account had been granted `role`, emits a {RoleRevoked} event. Requirements: - the caller must be `account`."
      },
      "returnValidators()": {
        "details": "returns list of validators for this cohort",
        "returns": {
          "_0": "array of validators"
        }
      },
      "revokeRole(bytes32,address)": {
        "details": "Revokes `role` from `account`. If `account` had been granted `role`, emits a {RoleRevoked} event. Requirements: - the caller must have ``role``'s admin role."
      },
      "updateQuorum(uint256)": {
        "details": "to be called by administrator to update new amount for required quorum",
        "params": {
          "_requiredQuorum": "new value of required quorum"
        }
      },
      "validate(bytes32,uint256,uint8)": {
        "details": "called by validator to approve or disapprove this validation",
        "params": {
          "decision": "- one of the ValidationStatus choices cast by validator",
          "documentHash": "- hash of validated document",
          "validationTime": "- this is the time when validation has been initialized"
        }
      }
    },
    "title": "Cohort Allows on creation of cohort by Enterprise based on invitations.  Enterprise can create cohort consisting of invited Validators. Later Enterprise can remove inactive validators and invite new ones. ",
    "version": 1
  },
  "userdoc": {
    "kind": "user",
    "methods": {},
    "version": 1
  }
}