{
  "contractName": "CohortFactory",
  "abi": [
    {
      "inputs": [
        {
          "internalType": "contract Members",
          "name": "_members",
          "type": "address"
        },
        {
          "internalType": "contract MemberHelpers",
          "name": "_memberHelpers",
          "type": "address"
        }
      ],
      "stateMutability": "nonpayable",
      "type": "constructor"
    },
    {
      "anonymous": false,
      "inputs": [
        {
          "indexed": true,
          "internalType": "address",
          "name": "enterprise",
          "type": "address"
        },
        {
          "indexed": false,
          "internalType": "enum CohortFactory.AuditTypes",
          "name": "audits",
          "type": "uint8"
        }
      ],
      "name": "CohortCreated",
      "type": "event"
    },
    {
      "anonymous": false,
      "inputs": [
        {
          "indexed": true,
          "internalType": "address",
          "name": "validator",
          "type": "address"
        },
        {
          "indexed": false,
          "internalType": "uint256",
          "name": "invitationNumber",
          "type": "uint256"
        }
      ],
      "name": "InvitationAccepted",
      "type": "event"
    },
    {
      "anonymous": false,
      "inputs": [
        {
          "indexed": true,
          "internalType": "bytes32",
          "name": "role",
          "type": "bytes32"
        },
        {
          "indexed": true,
          "internalType": "bytes32",
          "name": "previousAdminRole",
          "type": "bytes32"
        },
        {
          "indexed": true,
          "internalType": "bytes32",
          "name": "newAdminRole",
          "type": "bytes32"
        }
      ],
      "name": "RoleAdminChanged",
      "type": "event"
    },
    {
      "anonymous": false,
      "inputs": [
        {
          "indexed": true,
          "internalType": "bytes32",
          "name": "role",
          "type": "bytes32"
        },
        {
          "indexed": true,
          "internalType": "address",
          "name": "account",
          "type": "address"
        },
        {
          "indexed": true,
          "internalType": "address",
          "name": "sender",
          "type": "address"
        }
      ],
      "name": "RoleGranted",
      "type": "event"
    },
    {
      "anonymous": false,
      "inputs": [
        {
          "indexed": true,
          "internalType": "bytes32",
          "name": "role",
          "type": "bytes32"
        },
        {
          "indexed": true,
          "internalType": "address",
          "name": "account",
          "type": "address"
        },
        {
          "indexed": true,
          "internalType": "address",
          "name": "sender",
          "type": "address"
        }
      ],
      "name": "RoleRevoked",
      "type": "event"
    },
    {
      "anonymous": false,
      "inputs": [
        {
          "indexed": false,
          "internalType": "uint256",
          "name": "minValidatorPerCohort",
          "type": "uint256"
        },
        {
          "indexed": false,
          "internalType": "enum CohortFactory.AuditTypes",
          "name": "audits",
          "type": "uint8"
        }
      ],
      "name": "UpdateMinValidatorsPerCohort",
      "type": "event"
    },
    {
      "anonymous": false,
      "inputs": [
        {
          "indexed": false,
          "internalType": "address",
          "name": "validator",
          "type": "address"
        },
        {
          "indexed": false,
          "internalType": "enum CohortFactory.AuditTypes",
          "name": "audit",
          "type": "uint8"
        },
        {
          "indexed": false,
          "internalType": "address",
          "name": "cohort",
          "type": "address"
        },
        {
          "indexed": false,
          "internalType": "address",
          "name": "enterprise",
          "type": "address"
        }
      ],
      "name": "ValidatorCleared",
      "type": "event"
    },
    {
      "anonymous": false,
      "inputs": [
        {
          "indexed": false,
          "internalType": "address",
          "name": "inviting",
          "type": "address"
        },
        {
          "indexed": true,
          "internalType": "address",
          "name": "invitee",
          "type": "address"
        },
        {
          "indexed": false,
          "internalType": "enum CohortFactory.AuditTypes",
          "name": "audits",
          "type": "uint8"
        },
        {
          "indexed": false,
          "internalType": "uint256",
          "name": "invitationNumber",
          "type": "uint256"
        }
      ],
      "name": "ValidatorInvited",
      "type": "event"
    },
    {
      "inputs": [],
      "name": "DEFAULT_ADMIN_ROLE",
      "outputs": [
        {
          "internalType": "bytes32",
          "name": "",
          "type": "bytes32"
        }
      ],
      "stateMutability": "view",
      "type": "function"
    },
    {
      "inputs": [],
      "name": "SETTER_ROLE",
      "outputs": [
        {
          "internalType": "bytes32",
          "name": "",
          "type": "bytes32"
        }
      ],
      "stateMutability": "view",
      "type": "function"
    },
    {
      "inputs": [
        {
          "internalType": "address",
          "name": "",
          "type": "address"
        },
        {
          "internalType": "uint256",
          "name": "",
          "type": "uint256"
        }
      ],
      "name": "cohortList",
      "outputs": [
        {
          "internalType": "uint256",
          "name": "",
          "type": "uint256"
        }
      ],
      "stateMutability": "view",
      "type": "function"
    },
    {
      "inputs": [
        {
          "internalType": "address",
          "name": "",
          "type": "address"
        },
        {
          "internalType": "uint256",
          "name": "",
          "type": "uint256"
        }
      ],
      "name": "cohortMap",
      "outputs": [
        {
          "internalType": "bool",
          "name": "",
          "type": "bool"
        }
      ],
      "stateMutability": "view",
      "type": "function"
    },
    {
      "inputs": [
        {
          "internalType": "bytes32",
          "name": "role",
          "type": "bytes32"
        }
      ],
      "name": "getRoleAdmin",
      "outputs": [
        {
          "internalType": "bytes32",
          "name": "",
          "type": "bytes32"
        }
      ],
      "stateMutability": "view",
      "type": "function"
    },
    {
      "inputs": [
        {
          "internalType": "bytes32",
          "name": "role",
          "type": "bytes32"
        },
        {
          "internalType": "address",
          "name": "account",
          "type": "address"
        }
      ],
      "name": "grantRole",
      "outputs": [],
      "stateMutability": "nonpayable",
      "type": "function"
    },
    {
      "inputs": [
        {
          "internalType": "bytes32",
          "name": "role",
          "type": "bytes32"
        },
        {
          "internalType": "address",
          "name": "account",
          "type": "address"
        }
      ],
      "name": "hasRole",
      "outputs": [
        {
          "internalType": "bool",
          "name": "",
          "type": "bool"
        }
      ],
      "stateMutability": "view",
      "type": "function"
    },
    {
      "inputs": [
        {
          "internalType": "address",
          "name": "",
          "type": "address"
        },
        {
          "internalType": "uint256",
          "name": "",
          "type": "uint256"
        }
      ],
      "name": "invitations",
      "outputs": [
        {
          "internalType": "address",
          "name": "validator",
          "type": "address"
        },
        {
          "internalType": "uint256",
          "name": "invitationDate",
          "type": "uint256"
        },
        {
          "internalType": "uint256",
          "name": "acceptanceDate",
          "type": "uint256"
        },
        {
          "internalType": "enum CohortFactory.AuditTypes",
          "name": "audits",
          "type": "uint8"
        },
        {
          "internalType": "bool",
          "name": "deleted",
          "type": "bool"
        }
      ],
      "stateMutability": "view",
      "type": "function"
    },
    {
      "inputs": [],
      "name": "memberHelpers",
      "outputs": [
        {
          "internalType": "contract MemberHelpers",
          "name": "",
          "type": "address"
        }
      ],
      "stateMutability": "view",
      "type": "function"
    },
    {
      "inputs": [
        {
          "internalType": "uint256",
          "name": "",
          "type": "uint256"
        }
      ],
      "name": "minValidatorPerCohort",
      "outputs": [
        {
          "internalType": "uint256",
          "name": "",
          "type": "uint256"
        }
      ],
      "stateMutability": "view",
      "type": "function"
    },
    {
      "inputs": [
        {
          "internalType": "bytes32",
          "name": "role",
          "type": "bytes32"
        },
        {
          "internalType": "address",
          "name": "account",
          "type": "address"
        }
      ],
      "name": "renounceRole",
      "outputs": [],
      "stateMutability": "nonpayable",
      "type": "function"
    },
    {
      "inputs": [
        {
          "internalType": "bytes32",
          "name": "role",
          "type": "bytes32"
        },
        {
          "internalType": "address",
          "name": "account",
          "type": "address"
        }
      ],
      "name": "revokeRole",
      "outputs": [],
      "stateMutability": "nonpayable",
      "type": "function"
    },
    {
      "inputs": [
        {
          "internalType": "bytes4",
          "name": "interfaceId",
          "type": "bytes4"
        }
      ],
      "name": "supportsInterface",
      "outputs": [
        {
          "internalType": "bool",
          "name": "",
          "type": "bool"
        }
      ],
      "stateMutability": "view",
      "type": "function"
    },
    {
      "inputs": [
        {
          "internalType": "uint256",
          "name": "_minValidatorPerCohort",
          "type": "uint256"
        },
        {
          "internalType": "uint256",
          "name": "audits",
          "type": "uint256"
        }
      ],
      "name": "updateMinValidatorsPerCohort",
      "outputs": [],
      "stateMutability": "nonpayable",
      "type": "function"
    },
    {
      "inputs": [
        {
          "internalType": "address",
          "name": "validator",
          "type": "address"
        },
        {
          "internalType": "uint256",
          "name": "audit",
          "type": "uint256"
        }
      ],
      "name": "inviteValidator",
      "outputs": [],
      "stateMutability": "nonpayable",
      "type": "function"
    },
    {
      "inputs": [
        {
          "internalType": "address[]",
          "name": "validator",
          "type": "address[]"
        },
        {
          "internalType": "enum CohortFactory.AuditTypes",
          "name": "audit",
          "type": "uint8"
        }
      ],
      "name": "inviteValidatorMultiple",
      "outputs": [],
      "stateMutability": "nonpayable",
      "type": "function"
    },
    {
      "inputs": [
        {
          "internalType": "address",
          "name": "enterprise",
          "type": "address"
        },
        {
          "internalType": "uint256",
          "name": "invitationNumber",
          "type": "uint256"
        }
      ],
      "name": "acceptInvitation",
      "outputs": [],
      "stateMutability": "nonpayable",
      "type": "function"
    },
    {
      "inputs": [
        {
          "internalType": "address",
          "name": "validator",
          "type": "address"
        },
        {
          "internalType": "enum CohortFactory.AuditTypes",
          "name": "audit",
          "type": "uint8"
        }
      ],
      "name": "clearInvitationRemoveValidator",
      "outputs": [
        {
          "internalType": "bool",
          "name": "",
          "type": "bool"
        }
      ],
      "stateMutability": "nonpayable",
      "type": "function"
    },
    {
      "inputs": [
        {
          "internalType": "address[]",
          "name": "enterprise",
          "type": "address[]"
        },
        {
          "internalType": "uint256[]",
          "name": "invitationNumber",
          "type": "uint256[]"
        }
      ],
      "name": "acceptInvitationMultiple",
      "outputs": [],
      "stateMutability": "nonpayable",
      "type": "function"
    },
    {
      "inputs": [
        {
          "internalType": "address",
          "name": "enterprise",
          "type": "address"
        },
        {
          "internalType": "enum CohortFactory.AuditTypes",
          "name": "audit",
          "type": "uint8"
        }
      ],
      "name": "returnInvitationCount",
      "outputs": [
        {
          "internalType": "uint256",
          "name": "",
          "type": "uint256"
        }
      ],
      "stateMutability": "view",
      "type": "function"
    },
    {
      "inputs": [
        {
          "internalType": "address",
          "name": "enterprise",
          "type": "address"
        },
        {
          "internalType": "address",
          "name": "validator",
          "type": "address"
        },
        {
          "internalType": "uint256",
          "name": "audits",
          "type": "uint256"
        }
      ],
      "name": "isValidatorInvited",
      "outputs": [
        {
          "internalType": "bool",
          "name": "",
          "type": "bool"
        },
        {
          "internalType": "bool",
          "name": "",
          "type": "bool"
        }
      ],
      "stateMutability": "view",
      "type": "function"
    },
    {
      "inputs": [
        {
          "internalType": "address",
          "name": "enterprise",
          "type": "address"
        }
      ],
      "name": "returnCohorts",
      "outputs": [
        {
          "internalType": "bool[]",
          "name": "",
          "type": "bool[]"
        }
      ],
      "stateMutability": "view",
      "type": "function"
    },
    {
      "inputs": [
        {
          "internalType": "address",
          "name": "enterprise",
          "type": "address"
        },
        {
          "internalType": "uint256",
          "name": "audit",
          "type": "uint256"
        }
      ],
      "name": "returnValidatorList",
      "outputs": [
        {
          "internalType": "address[]",
          "name": "",
          "type": "address[]"
        }
      ],
      "stateMutability": "view",
      "type": "function"
    },
    {
      "inputs": [
        {
          "internalType": "uint256",
          "name": "audit",
          "type": "uint256"
        }
      ],
      "name": "createCohort",
      "outputs": [],
      "stateMutability": "nonpayable",
      "type": "function"
    }
  ],
  "bytecode": "0x60806040526040518060c00160405280600360ff168152602001600360ff168152602001600360ff168152602001600360ff168152602001600360ff168152602001600360ff1681525060019060066200005b929190620002a7565b503480156200006957600080fd5b50604051620048333803806200483383398181016040528101906200008f91906200034b565b81600460006101000a81548173ffffffffffffffffffffffffffffffffffffffff021916908373ffffffffffffffffffffffffffffffffffffffff16021790555080600560006101000a81548173ffffffffffffffffffffffffffffffffffffffff021916908373ffffffffffffffffffffffffffffffffffffffff160217905550620001266000801b336200012e60201b60201c565b50506200041c565b6200014082826200014460201b60201c565b5050565b6200015682826200023560201b60201c565b6200023157600160008084815260200190815260200160002060000160008373ffffffffffffffffffffffffffffffffffffffff1673ffffffffffffffffffffffffffffffffffffffff16815260200190815260200160002060006101000a81548160ff021916908315150217905550620001d66200029f60201b60201c565b73ffffffffffffffffffffffffffffffffffffffff168173ffffffffffffffffffffffffffffffffffffffff16837f2f8788117e7eff1d82e926ec794901d17c78024a50270940304540a733656f0d60405160405180910390a45b5050565b600080600084815260200190815260200160002060000160008373ffffffffffffffffffffffffffffffffffffffff1673ffffffffffffffffffffffffffffffffffffffff16815260200190815260200160002060009054906101000a900460ff16905092915050565b600033905090565b828054828255906000526020600020908101928215620002eb579160200282015b82811115620002ea578251829060ff16905591602001919060010190620002c8565b5b509050620002fa9190620002fe565b5090565b5b8082111562000319576000816000905550600101620002ff565b5090565b6000815190506200032e81620003e8565b92915050565b600081519050620003458162000402565b92915050565b600080604083850312156200035f57600080fd5b60006200036f8582860162000334565b925050602062000382858286016200031d565b9150509250929050565b60006200039982620003c8565b9050919050565b6000620003ad826200038c565b9050919050565b6000620003c1826200038c565b9050919050565b600073ffffffffffffffffffffffffffffffffffffffff82169050919050565b620003f381620003a0565b8114620003ff57600080fd5b50565b6200040d81620003b4565b81146200041957600080fd5b50565b614407806200042c6000396000f3fe608060405234801561001057600080fd5b50600436106101585760003560e01c806371d8c7a0116100c3578063a217fddf1161007c578063a217fddf14610426578063a346973714610444578063a70e039314610460578063b9f577b114610490578063d547741f146104ac578063df03d081146104c857610158565b806371d8c7a01461033a57806372b745811461035857806387247dea146103745780638ffb72f4146103a457806391d14854146103d8578063a2011b3f1461040857610158565b8063265fe4e711610115578063265fe4e7146102555780632f2ff15d1461028557806336568abe146102a157806345f49bb0146102bd5780634e991f88146102ed5780636df853451461030957610158565b806301ffc9a71461015d57806302495c591461018d5780630939a997146101bd5780630ea02160146101d9578063247e28b3146101f5578063248a9ca314610225575b600080fd5b61017760048036038101906101729190613080565b6104f8565b6040516101849190613c35565b60405180910390f35b6101a760048036038101906101a29190612ef6565b610572565b6040516101b49190613bf1565b60405180910390f35b6101d760048036038101906101d29190612f32565b61099b565b005b6101f360048036038101906101ee9190612ef6565b610a4f565b005b61020f600480360381019061020a9190612eba565b610d93565b60405161021c9190613eac565b60405180910390f35b61023f600480360381019061023a919061301b565b61104f565b60405161024c9190613c79565b60405180910390f35b61026f600480360381019061026a9190612eba565b61106e565b60405161027c9190613c35565b60405180910390f35b61029f600480360381019061029a9190613044565b6113ea565b005b6102bb60048036038101906102b69190613044565b611413565b005b6102d760048036038101906102d291906130a9565b611496565b6040516102e49190613eac565b60405180910390f35b61030760048036038101906103029190612ef6565b6114ba565b005b610323600480360381019061031e9190612e6b565b611b66565b604051610331929190613c50565b60405180910390f35b610342611f47565b60405161034f9190613c94565b60405180910390f35b610372600480360381019061036d91906130a9565b611f6d565b005b61038e60048036038101906103899190612e42565b6120f6565b60405161039b9190613c13565b60405180910390f35b6103be60048036038101906103b99190612ef6565b61224b565b6040516103cf959493929190613b9e565b60405180910390f35b6103f260048036038101906103ed9190613044565b6122d8565b6040516103ff9190613c35565b60405180910390f35b610410612342565b60405161041d9190613c79565b60405180910390f35b61042e612366565b60405161043b9190613c79565b60405180910390f35b61045e60048036038101906104599190612f9e565b61236d565b005b61047a60048036038101906104759190612ef6565b61245e565b6040516104879190613eac565b60405180910390f35b6104aa60048036038101906104a591906130fb565b61248f565b005b6104c660048036038101906104c19190613044565b6125e2565b005b6104e260048036038101906104dd9190612ef6565b61260b565b6040516104ef9190613c35565b60405180910390f35b60007f7965db0b000000000000000000000000000000000000000000000000000000007bffffffffffffffffffffffffffffffffffffffffffffffffffffffff1916827bffffffffffffffffffffffffffffffffffffffffffffffffffffffff1916148061056b575061056a8261263a565b5b9050919050565b606060006105b8848460058111156105b3577f4e487b7100000000000000000000000000000000000000000000000000000000600052602160045260246000fd5b610d93565b67ffffffffffffffff8111156105f7577f4e487b7100000000000000000000000000000000000000000000000000000000600052604160045260246000fd5b6040519080825280602002602001820160405280156106255781602001602082028036833780820191505090505b509050600080600090505b600660008773ffffffffffffffffffffffffffffffffffffffff1673ffffffffffffffffffffffffffffffffffffffff1681526020019081526020016000208054905081101561098f578460058111156106b3577f4e487b7100000000000000000000000000000000000000000000000000000000600052602160045260246000fd5b60058111156106eb577f4e487b7100000000000000000000000000000000000000000000000000000000600052602160045260246000fd5b600660008873ffffffffffffffffffffffffffffffffffffffff1673ffffffffffffffffffffffffffffffffffffffff1681526020019081526020016000208281548110610762577f4e487b7100000000000000000000000000000000000000000000000000000000600052603260045260246000fd5b906000526020600020906004020160030160009054906101000a900460ff1660058111156107b9577f4e487b7100000000000000000000000000000000000000000000000000000000600052602160045260246000fd5b14801561084e57506000600660008873ffffffffffffffffffffffffffffffffffffffff1673ffffffffffffffffffffffffffffffffffffffff168152602001908152602001600020828154811061083a577f4e487b7100000000000000000000000000000000000000000000000000000000600052603260045260246000fd5b906000526020600020906004020160020154115b1561097e57600660008773ffffffffffffffffffffffffffffffffffffffff1673ffffffffffffffffffffffffffffffffffffffff16815260200190815260200160002081815481106108ca577f4e487b7100000000000000000000000000000000000000000000000000000000600052603260045260246000fd5b906000526020600020906004020160000160009054906101000a900473ffffffffffffffffffffffffffffffffffffffff16838381518110610935577f4e487b7100000000000000000000000000000000000000000000000000000000600052603260045260246000fd5b602002602001019073ffffffffffffffffffffffffffffffffffffffff16908173ffffffffffffffffffffffffffffffffffffffff1681525050818061097a9061423f565b9250505b806109889061423f565b9050610630565b50819250505092915050565b60008251905060005b81811015610a4957610a368482815181106109e8577f4e487b7100000000000000000000000000000000000000000000000000000000600052603260045260246000fd5b6020026020010151848381518110610a29577f4e487b7100000000000000000000000000000000000000000000000000000000600052603260045260246000fd5b6020026020010151610a4f565b8080610a419061423f565b9150506109a4565b50505050565b80600660008473ffffffffffffffffffffffffffffffffffffffff1673ffffffffffffffffffffffffffffffffffffffff1681526020019081526020016000208054905011610ad3576040517f08c379a0000000000000000000000000000000000000000000000000000000008152600401610aca90613d2c565b60405180910390fd5b6000600660008473ffffffffffffffffffffffffffffffffffffffff1673ffffffffffffffffffffffffffffffffffffffff1681526020019081526020016000208281548110610b4c577f4e487b7100000000000000000000000000000000000000000000000000000000600052603260045260246000fd5b90600052602060002090600402016002015414610b9e576040517f08c379a0000000000000000000000000000000000000000000000000000000008152600401610b9590613d8c565b60405180910390fd5b3373ffffffffffffffffffffffffffffffffffffffff16600660008473ffffffffffffffffffffffffffffffffffffffff1673ffffffffffffffffffffffffffffffffffffffff1681526020019081526020016000208281548110610c2c577f4e487b7100000000000000000000000000000000000000000000000000000000600052603260045260246000fd5b906000526020600020906004020160000160009054906101000a900473ffffffffffffffffffffffffffffffffffffffff1673ffffffffffffffffffffffffffffffffffffffff1614610cb4576040517f08c379a0000000000000000000000000000000000000000000000000000000008152600401610cab90613e2c565b60405180910390fd5b42600660008473ffffffffffffffffffffffffffffffffffffffff1673ffffffffffffffffffffffffffffffffffffffff1681526020019081526020016000208281548110610d2c577f4e487b7100000000000000000000000000000000000000000000000000000000600052603260045260246000fd5b9060005260206000209060040201600201819055503373ffffffffffffffffffffffffffffffffffffffff167f7b03e8bab458bdbb216f7525cb174b013e75d040884fe46cc9e836fc05a0cc7b82604051610d879190613eac565b60405180910390a25050565b60008060005b600660008673ffffffffffffffffffffffffffffffffffffffff1673ffffffffffffffffffffffffffffffffffffffff1681526020019081526020016000208054905081101561104457836005811115610e1c577f4e487b7100000000000000000000000000000000000000000000000000000000600052602160045260246000fd5b600660008773ffffffffffffffffffffffffffffffffffffffff1673ffffffffffffffffffffffffffffffffffffffff1681526020019081526020016000208281548110610e93577f4e487b7100000000000000000000000000000000000000000000000000000000600052603260045260246000fd5b906000526020600020906004020160030160009054906101000a900460ff166005811115610eea577f4e487b7100000000000000000000000000000000000000000000000000000000600052602160045260246000fd5b148015610f8057506000600660008773ffffffffffffffffffffffffffffffffffffffff1673ffffffffffffffffffffffffffffffffffffffff1681526020019081526020016000208281548110610f6b577f4e487b7100000000000000000000000000000000000000000000000000000000600052603260045260246000fd5b90600052602060002090600402016002015414155b801561101f5750600660008673ffffffffffffffffffffffffffffffffffffffff1673ffffffffffffffffffffffffffffffffffffffff1681526020019081526020016000208181548110610ffe577f4e487b7100000000000000000000000000000000000000000000000000000000600052603260045260246000fd5b906000526020600020906004020160030160019054906101000a900460ff16155b1561103357818061102f9061423f565b9250505b8061103d9061423f565b9050610d99565b508091505092915050565b6000806000838152602001908152602001600020600101549050919050565b600080600090505b600660003373ffffffffffffffffffffffffffffffffffffffff1673ffffffffffffffffffffffffffffffffffffffff168152602001908152602001600020805490508110156113a8578260058111156110f9577f4e487b7100000000000000000000000000000000000000000000000000000000600052602160045260246000fd5b600660003373ffffffffffffffffffffffffffffffffffffffff1673ffffffffffffffffffffffffffffffffffffffff1681526020019081526020016000208281548110611170577f4e487b7100000000000000000000000000000000000000000000000000000000600052603260045260246000fd5b906000526020600020906004020160030160009054906101000a900460ff1660058111156111c7577f4e487b7100000000000000000000000000000000000000000000000000000000600052602160045260246000fd5b1480156112a757508373ffffffffffffffffffffffffffffffffffffffff16600660003373ffffffffffffffffffffffffffffffffffffffff1673ffffffffffffffffffffffffffffffffffffffff168152602001908152602001600020828154811061125d577f4e487b7100000000000000000000000000000000000000000000000000000000600052603260045260246000fd5b906000526020600020906004020160000160009054906101000a900473ffffffffffffffffffffffffffffffffffffffff1673ffffffffffffffffffffffffffffffffffffffff16145b15611395576001600660003373ffffffffffffffffffffffffffffffffffffffff1673ffffffffffffffffffffffffffffffffffffffff1681526020019081526020016000208281548110611325577f4e487b7100000000000000000000000000000000000000000000000000000000600052603260045260246000fd5b906000526020600020906004020160030160016101000a81548160ff0219169083151502179055507fc79fd5e121f785109eb0b6f9236759e63b1507d2388bae38d35500874fd186b684846000336040516113839493929190613af9565b60405180910390a160019150506113e4565b80806113a09061423f565b915050611076565b506040517f08c379a00000000000000000000000000000000000000000000000000000000081526004016113db90613e0c565b60405180910390fd5b92915050565b6113f38261104f565b611404816113ff6126a4565b6126ac565b61140e8383612749565b505050565b61141b6126a4565b73ffffffffffffffffffffffffffffffffffffffff168173ffffffffffffffffffffffffffffffffffffffff1614611488576040517f08c379a000000000000000000000000000000000000000000000000000000000815260040161147f90613e8c565b60405180910390fd5b6114928282612829565b5050565b600181815481106114a657600080fd5b906000526020600020016000915090505481565b6114c2612c04565b6000600460009054906101000a900473ffffffffffffffffffffffffffffffffffffffff1673ffffffffffffffffffffffffffffffffffffffff16636f9cf985856001600281111561153d577f4e487b7100000000000000000000000000000000000000000000000000000000600052602160045260246000fd5b6040518363ffffffff1660e01b815260040161155a929190613b75565b60206040518083038186803b15801561157257600080fd5b505afa158015611586573d6000803e3d6000fd5b505050506040513d601f19601f820116820180604052508101906115aa9190612ff2565b90506000600460009054906101000a900473ffffffffffffffffffffffffffffffffffffffff1673ffffffffffffffffffffffffffffffffffffffff16636f9cf9853360006002811115611627577f4e487b7100000000000000000000000000000000000000000000000000000000600052602160045260246000fd5b6040518363ffffffff1660e01b8152600401611644929190613b75565b60206040518083038186803b15801561165c57600080fd5b505afa158015611670573d6000803e3d6000fd5b505050506040513d601f19601f820116820180604052508101906116949190612ff2565b905060006116a3338787611b66565b50905080156116e7576040517f08c379a00000000000000000000000000000000000000000000000000000000081526004016116de90613dec565b60405180910390fd5b81611727576040517f08c379a000000000000000000000000000000000000000000000000000000000815260040161171e90613e6c565b60405180910390fd5b82611767576040517f08c379a000000000000000000000000000000000000000000000000000000000815260040161175e90613dac565b60405180910390fd5b6000600560009054906101000a900473ffffffffffffffffffffffffffffffffffffffff1673ffffffffffffffffffffffffffffffffffffffff1663fc7e286d886040518263ffffffff1660e01b81526004016117c49190613ade565b60206040518083038186803b1580156117dc57600080fd5b505afa1580156117f0573d6000803e3d6000fd5b505050506040513d601f19601f8201168201806040525081019061181491906130d2565b11611854576040517f08c379a000000000000000000000000000000000000000000000000000000000815260040161184b90613d0c565b60405180910390fd5b85846000019073ffffffffffffffffffffffffffffffffffffffff16908173ffffffffffffffffffffffffffffffffffffffff1681525050428460200181815250508460058111156118cf577f4e487b7100000000000000000000000000000000000000000000000000000000600052602160045260246000fd5b8460600190600581111561190c577f4e487b7100000000000000000000000000000000000000000000000000000000600052602160045260246000fd5b90816005811115611946577f4e487b7100000000000000000000000000000000000000000000000000000000600052602160045260246000fd5b81525050600660003373ffffffffffffffffffffffffffffffffffffffff1673ffffffffffffffffffffffffffffffffffffffff16815260200190815260200160002084908060018154018082558091505060019003906000526020600020906004020160009091909190915060008201518160000160006101000a81548173ffffffffffffffffffffffffffffffffffffffff021916908373ffffffffffffffffffffffffffffffffffffffff160217905550602082015181600101556040820151816002015560608201518160030160006101000a81548160ff02191690836005811115611a5f577f4e487b7100000000000000000000000000000000000000000000000000000000600052602160045260246000fd5b021790555060808201518160030160016101000a81548160ff02191690831515021790555050508573ffffffffffffffffffffffffffffffffffffffff167fdb045b05e2cea9cac8289ec48770f5e3dff84ba85c4d3aeaaa75f81a16e2f4b933876005811115611af8577f4e487b7100000000000000000000000000000000000000000000000000000000600052602160045260246000fd5b6001600660003373ffffffffffffffffffffffffffffffffffffffff1673ffffffffffffffffffffffffffffffffffffffff16815260200190815260200160002080549050611b4791906140c2565b604051611b5693929190613b3e565b60405180910390a2505050505050565b60008060005b600660008773ffffffffffffffffffffffffffffffffffffffff1673ffffffffffffffffffffffffffffffffffffffff16815260200190815260200160002080549050811015611f3657836005811115611bef577f4e487b7100000000000000000000000000000000000000000000000000000000600052602160045260246000fd5b6005811115611c27577f4e487b7100000000000000000000000000000000000000000000000000000000600052602160045260246000fd5b600660008873ffffffffffffffffffffffffffffffffffffffff1673ffffffffffffffffffffffffffffffffffffffff1681526020019081526020016000208281548110611c9e577f4e487b7100000000000000000000000000000000000000000000000000000000600052603260045260246000fd5b906000526020600020906004020160030160009054906101000a900460ff166005811115611cf5577f4e487b7100000000000000000000000000000000000000000000000000000000600052602160045260246000fd5b148015611dd557508473ffffffffffffffffffffffffffffffffffffffff16600660008873ffffffffffffffffffffffffffffffffffffffff1673ffffffffffffffffffffffffffffffffffffffff1681526020019081526020016000208281548110611d8b577f4e487b7100000000000000000000000000000000000000000000000000000000600052603260045260246000fd5b906000526020600020906004020160000160009054906101000a900473ffffffffffffffffffffffffffffffffffffffff1673ffffffffffffffffffffffffffffffffffffffff16145b8015611e745750600660008773ffffffffffffffffffffffffffffffffffffffff1673ffffffffffffffffffffffffffffffffffffffff1681526020019081526020016000208181548110611e53577f4e487b7100000000000000000000000000000000000000000000000000000000600052603260045260246000fd5b906000526020600020906004020160030160019054906101000a900460ff16155b15611f25576000600660008873ffffffffffffffffffffffffffffffffffffffff1673ffffffffffffffffffffffffffffffffffffffff1681526020019081526020016000208281548110611ef2577f4e487b7100000000000000000000000000000000000000000000000000000000600052603260045260246000fd5b9060005260206000209060040201600201541115611f17576001809250925050611f3f565b600160009250925050611f3f565b80611f2f9061423f565b9050611b6c565b50600080915091505b935093915050565b600560009054906101000a900473ffffffffffffffffffffffffffffffffffffffff1681565b6000611f793383610572565b905060018281548110611fb5577f4e487b7100000000000000000000000000000000000000000000000000000000600052603260045260246000fd5b906000526020600020015481511015612003576040517f08c379a0000000000000000000000000000000000000000000000000000000008152600401611ffa90613d4c565b60405180910390fd5b6001600360003373ffffffffffffffffffffffffffffffffffffffff1673ffffffffffffffffffffffffffffffffffffffff168152602001908152602001600020600084815260200190815260200160002060006101000a81548160ff0219169083151502179055503373ffffffffffffffffffffffffffffffffffffffff167f7440a044e7901d08bcaec30df50132b3cc94f8b5cab017bd0d12cabfce7175448360058111156120dd577f4e487b7100000000000000000000000000000000000000000000000000000000600052602160045260246000fd5b6040516120ea9190613caf565b60405180910390a25050565b606060006005905060008167ffffffffffffffff811115612140577f4e487b7100000000000000000000000000000000000000000000000000000000600052604160045260246000fd5b60405190808252806020026020018201604052801561216e5781602001602082028036833780820191505090505b50905060005b8281101561224057600360008673ffffffffffffffffffffffffffffffffffffffff1673ffffffffffffffffffffffffffffffffffffffff168152602001908152602001600020600082815260200190815260200160002060009054906101000a900460ff161561222d57600182828151811061221a577f4e487b7100000000000000000000000000000000000000000000000000000000600052603260045260246000fd5b6020026020010190151590811515815250505b80806122389061423f565b915050612174565b508092505050919050565b6006602052816000526040600020818154811061226757600080fd5b9060005260206000209060040201600091509150508060000160009054906101000a900473ffffffffffffffffffffffffffffffffffffffff16908060010154908060020154908060030160009054906101000a900460ff16908060030160019054906101000a900460ff16905085565b600080600084815260200190815260200160002060000160008373ffffffffffffffffffffffffffffffffffffffff1673ffffffffffffffffffffffffffffffffffffffff16815260200190815260200160002060009054906101000a900460ff16905092915050565b7f61c92169ef077349011ff0b1383c894d86c5f0b41d986366b58a6cf31e93beda81565b6000801b81565b6000825190506101008111156123b8576040517f08c379a00000000000000000000000000000000000000000000000000000000081526004016123af90613dcc565b60405180910390fd5b60005b81811015612458576124458482815181106123ff577f4e487b7100000000000000000000000000000000000000000000000000000000600052603260045260246000fd5b6020026020010151846005811115612440577f4e487b7100000000000000000000000000000000000000000000000000000000600052602160045260246000fd5b6114ba565b80806124509061423f565b9150506123bb565b50505050565b6002602052816000526040600020818154811061247a57600080fd5b90600052602060002001600091509150505481565b60008214156124d3576040517f08c379a00000000000000000000000000000000000000000000000000000000081526004016124ca90613e4c565b60405180910390fd5b600581111580156124e5575060008110155b612524576040517f08c379a000000000000000000000000000000000000000000000000000000000815260040161251b90613d6c565b60405180910390fd5b816001828154811061255f577f4e487b7100000000000000000000000000000000000000000000000000000000600052603260045260246000fd5b90600052602060002001819055507f77141346a51f055f5bb35ecb1499b0bb7d9fbf1442b909bd3fd419820ccb98b2828260058111156125c8577f4e487b7100000000000000000000000000000000000000000000000000000000600052602160045260246000fd5b6040516125d6929190613ec7565b60405180910390a15050565b6125eb8261104f565b6125fc816125f76126a4565b6126ac565b6126068383612829565b505050565b60036020528160005260406000206020528060005260406000206000915091509054906101000a900460ff1681565b60007f01ffc9a7000000000000000000000000000000000000000000000000000000007bffffffffffffffffffffffffffffffffffffffffffffffffffffffff1916827bffffffffffffffffffffffffffffffffffffffffffffffffffffffff1916149050919050565b600033905090565b6126b682826122d8565b612745576126db8173ffffffffffffffffffffffffffffffffffffffff16601461290a565b6126e98360001c602061290a565b6040516020016126fa929190613aa4565b6040516020818303038152906040526040517f08c379a000000000000000000000000000000000000000000000000000000000815260040161273c9190613cca565b60405180910390fd5b5050565b61275382826122d8565b61282557600160008084815260200190815260200160002060000160008373ffffffffffffffffffffffffffffffffffffffff1673ffffffffffffffffffffffffffffffffffffffff16815260200190815260200160002060006101000a81548160ff0219169083151502179055506127ca6126a4565b73ffffffffffffffffffffffffffffffffffffffff168173ffffffffffffffffffffffffffffffffffffffff16837f2f8788117e7eff1d82e926ec794901d17c78024a50270940304540a733656f0d60405160405180910390a45b5050565b61283382826122d8565b1561290657600080600084815260200190815260200160002060000160008373ffffffffffffffffffffffffffffffffffffffff1673ffffffffffffffffffffffffffffffffffffffff16815260200190815260200160002060006101000a81548160ff0219169083151502179055506128ab6126a4565b73ffffffffffffffffffffffffffffffffffffffff168173ffffffffffffffffffffffffffffffffffffffff16837ff6391f5c32d9c69d2a47ea670b442974b53935d1edc7fd64eb21e047a839171b60405160405180910390a45b5050565b60606000600283600261291d9190614068565b6129279190614012565b67ffffffffffffffff811115612966577f4e487b7100000000000000000000000000000000000000000000000000000000600052604160045260246000fd5b6040519080825280601f01601f1916602001820160405280156129985781602001600182028036833780820191505090505b5090507f3000000000000000000000000000000000000000000000000000000000000000816000815181106129f6577f4e487b7100000000000000000000000000000000000000000000000000000000600052603260045260246000fd5b60200101907effffffffffffffffffffffffffffffffffffffffffffffffffffffffffffff1916908160001a9053507f780000000000000000000000000000000000000000000000000000000000000081600181518110612a80577f4e487b7100000000000000000000000000000000000000000000000000000000600052603260045260246000fd5b60200101907effffffffffffffffffffffffffffffffffffffffffffffffffffffffffffff1916908160001a90535060006001846002612ac09190614068565b612aca9190614012565b90505b6001811115612bb6577f3031323334353637383961626364656600000000000000000000000000000000600f861660108110612b32577f4e487b7100000000000000000000000000000000000000000000000000000000600052603260045260246000fd5b1a60f81b828281518110612b6f577f4e487b7100000000000000000000000000000000000000000000000000000000600052603260045260246000fd5b60200101907effffffffffffffffffffffffffffffffffffffffffffffffffffffffffffff1916908160001a905350600485901c945080612baf90614215565b9050612acd565b5060008414612bfa576040517f08c379a0000000000000000000000000000000000000000000000000000000008152600401612bf190613cec565b60405180910390fd5b8091505092915050565b6040518060a00160405280600073ffffffffffffffffffffffffffffffffffffffff168152602001600081526020016000815260200160006005811115612c74577f4e487b7100000000000000000000000000000000000000000000000000000000600052602160045260246000fd5b81526020016000151581525090565b6000612c96612c9184613f21565b613ef0565b90508083825260208201905082856020860282011115612cb557600080fd5b60005b85811015612ce55781612ccb8882612d5b565b845260208401935060208301925050600181019050612cb8565b5050509392505050565b6000612d02612cfd84613f4d565b613ef0565b90508083825260208201905082856020860282011115612d2157600080fd5b60005b85811015612d515781612d378882612e18565b845260208401935060208301925050600181019050612d24565b5050509392505050565b600081359050612d6a8161434e565b92915050565b600082601f830112612d8157600080fd5b8135612d91848260208601612c83565b91505092915050565b600082601f830112612dab57600080fd5b8135612dbb848260208601612cef565b91505092915050565b600081519050612dd381614365565b92915050565b600081359050612de88161437c565b92915050565b600081359050612dfd81614393565b92915050565b600081359050612e12816143aa565b92915050565b600081359050612e27816143ba565b92915050565b600081519050612e3c816143ba565b92915050565b600060208284031215612e5457600080fd5b6000612e6284828501612d5b565b91505092915050565b600080600060608486031215612e8057600080fd5b6000612e8e86828701612d5b565b9350506020612e9f86828701612d5b565b9250506040612eb086828701612e18565b9150509250925092565b60008060408385031215612ecd57600080fd5b6000612edb85828601612d5b565b9250506020612eec85828601612e03565b9150509250929050565b60008060408385031215612f0957600080fd5b6000612f1785828601612d5b565b9250506020612f2885828601612e18565b9150509250929050565b60008060408385031215612f4557600080fd5b600083013567ffffffffffffffff811115612f5f57600080fd5b612f6b85828601612d70565b925050602083013567ffffffffffffffff811115612f8857600080fd5b612f9485828601612d9a565b9150509250929050565b60008060408385031215612fb157600080fd5b600083013567ffffffffffffffff811115612fcb57600080fd5b612fd785828601612d70565b9250506020612fe885828601612e03565b9150509250929050565b60006020828403121561300457600080fd5b600061301284828501612dc4565b91505092915050565b60006020828403121561302d57600080fd5b600061303b84828501612dd9565b91505092915050565b6000806040838503121561305757600080fd5b600061306585828601612dd9565b925050602061307685828601612d5b565b9150509250929050565b60006020828403121561309257600080fd5b60006130a084828501612dee565b91505092915050565b6000602082840312156130bb57600080fd5b60006130c984828501612e18565b91505092915050565b6000602082840312156130e457600080fd5b60006130f284828501612e2d565b91505092915050565b6000806040838503121561310e57600080fd5b600061311c85828601612e18565b925050602061312d85828601612e18565b9150509250929050565b60006131438383613167565b60208301905092915050565b600061315b8383613241565b60208301905092915050565b613170816140f6565b82525050565b61317f816140f6565b82525050565b600061319082613f99565b61319a8185613fd4565b93506131a583613f79565b8060005b838110156131d65781516131bd8882613137565b97506131c883613fba565b9250506001810190506131a9565b5085935050505092915050565b60006131ee82613fa4565b6131f88185613fe5565b935061320383613f89565b8060005b8381101561323457815161321b888261314f565b975061322683613fc7565b925050600181019050613207565b5085935050505092915050565b61324a81614108565b82525050565b61325981614108565b82525050565b61326881614114565b82525050565b6132778161419a565b82525050565b613286816141be565b82525050565b613295816141d0565b82525050565b60006132a682613faf565b6132b08185613ff6565b93506132c08185602086016141e2565b6132c981614315565b840191505092915050565b60006132df82613faf565b6132e98185614007565b93506132f98185602086016141e2565b80840191505092915050565b6000613312602083613ff6565b91507f537472696e67733a20686578206c656e67746820696e73756666696369656e746000830152602082019050919050565b6000613352604d83613ff6565b91507f436f686f7274466163746f72793a696e7669746556616c696461746f72202d2060008301527f546869732076616c696461746f7220686173206e6f74207374616b656420616e60208301527f7920746f6b656e73207965742e000000000000000000000000000000000000006040830152606082019050919050565b60006133de603e83613ff6565b91507f436f686f7274466163746f72793a616363657074496e7669746174696f6e202d60008301527f205468697320696e7669746174696f6e20646f65736e277420657869737400006020830152604082019050919050565b6000613444604983613ff6565b91507f436f686f7274466163746f72793a637265617465436f686f7274202d204e756d60008301527f626572206f662076616c696461746f72732062656c6f7720726571756972656460208301527f206d696e696d756d2e00000000000000000000000000000000000000000000006040830152606082019050919050565b60006134d0604f83613ff6565b91507f436f686f727420466163746f72793a7570646174654d696e56616c696461746f60008301527f7273506572436f686f7274202d20417564697420747970652068617320746f2060208301527f6265203c3d203520616e64203e3d3000000000000000000000000000000000006040830152606082019050919050565b600061355c604b83613ff6565b91507f436f686f7274466163746f72793a616363657074496e7669746174696f6e2d2060008301527f5468697320696e7669746174696f6e20686173206265656e206163636570746560208301527f6420616c7265616479202e0000000000000000000000000000000000000000006040830152606082019050919050565b60006135e8604883613ff6565b91507f436f686f7274466163746f72793a696e7669746556616c696461746f72202d2060008301527f4f6e6c7920417070726f7665642056616c696461746f72732063616e2062652060208301527f696e76697465642e0000000000000000000000000000000000000000000000006040830152606082019050919050565b6000613674603483613ff6565b91507f436f686f7274466163746f72792d696e7669746556616c696461746f724d756c60008301527f7469706c653a204c69737420746f6f206c6f6e670000000000000000000000006020830152604082019050919050565b60006136da606183613ff6565b91507f436f686f7274466163746f72793a696e7669746556616c696461746f72202d2060008301527f546869732076616c696461746f7220686173206265656e20616c72656164792060208301527f696e766974656420666f7220746869732076616c69646174696f6e207479706560408301527f2e000000000000000000000000000000000000000000000000000000000000006060830152608082019050919050565b600061378c601d83613ff6565b91507f5468697320696e7669746174696f6e20646f65736e27742065786973740000006000830152602082019050919050565b60006137cc607d83613ff6565b91507f436f686f7274466163746f72793a616363657074496e7669746174696f6e202d60008301527f20596f752061726520616363657074696e6720696e7669746174696f6e20746f60208301527f20776869636820796f752077657265206e6f7420696e7669746564206f72207460408301527f68697320696e7669746174696f6e20646f65736e27742065786973742e0000006060830152608082019050919050565b600061387e606383613ff6565b91507f436f686f7274466163746f72793a7570646174654d696e56616c696461746f7260008301527f73506572436f686f7274202d204e65772076616c756520666f7220746865202060208301527f6d696e2076616c696461746f722070657220636f686f72742063616e2774206260408301527f65203000000000000000000000000000000000000000000000000000000000006060830152608082019050919050565b6000613930601783614007565b91507f416363657373436f6e74726f6c3a206163636f756e74200000000000000000006000830152601782019050919050565b6000613970604b83613ff6565b91507f436f686f7274466163746f72793a696e7669746556616c696461746f72202d2060008301527f4f6e6c7920456e746572707269736520757365722063616e20696e766974652060208301527f56616c696461746f72732e0000000000000000000000000000000000000000006040830152606082019050919050565b60006139fc601183614007565b91507f206973206d697373696e6720726f6c65200000000000000000000000000000006000830152601182019050919050565b6000613a3c602f83613ff6565b91507f416363657373436f6e74726f6c3a2063616e206f6e6c792072656e6f756e636560008301527f20726f6c657320666f722073656c6600000000000000000000000000000000006020830152604082019050919050565b613a9e81614190565b82525050565b6000613aaf82613923565b9150613abb82856132d4565b9150613ac6826139ef565b9150613ad282846132d4565b91508190509392505050565b6000602082019050613af36000830184613176565b92915050565b6000608082019050613b0e6000830187613176565b613b1b602083018661327d565b613b286040830185613176565b613b356060830184613176565b95945050505050565b6000606082019050613b536000830186613176565b613b60602083018561327d565b613b6d6040830184613a95565b949350505050565b6000604082019050613b8a6000830185613176565b613b97602083018461328c565b9392505050565b600060a082019050613bb36000830188613176565b613bc06020830187613a95565b613bcd6040830186613a95565b613bda606083018561327d565b613be76080830184613250565b9695505050505050565b60006020820190508181036000830152613c0b8184613185565b905092915050565b60006020820190508181036000830152613c2d81846131e3565b905092915050565b6000602082019050613c4a6000830184613250565b92915050565b6000604082019050613c656000830185613250565b613c726020830184613250565b9392505050565b6000602082019050613c8e600083018461325f565b92915050565b6000602082019050613ca9600083018461326e565b92915050565b6000602082019050613cc4600083018461327d565b92915050565b60006020820190508181036000830152613ce4818461329b565b905092915050565b60006020820190508181036000830152613d0581613305565b9050919050565b60006020820190508181036000830152613d2581613345565b9050919050565b60006020820190508181036000830152613d45816133d1565b9050919050565b60006020820190508181036000830152613d6581613437565b9050919050565b60006020820190508181036000830152613d85816134c3565b9050919050565b60006020820190508181036000830152613da58161354f565b9050919050565b60006020820190508181036000830152613dc5816135db565b9050919050565b60006020820190508181036000830152613de581613667565b9050919050565b60006020820190508181036000830152613e05816136cd565b9050919050565b60006020820190508181036000830152613e258161377f565b9050919050565b60006020820190508181036000830152613e45816137bf565b9050919050565b60006020820190508181036000830152613e6581613871565b9050919050565b60006020820190508181036000830152613e8581613963565b9050919050565b60006020820190508181036000830152613ea581613a2f565b9050919050565b6000602082019050613ec16000830184613a95565b92915050565b6000604082019050613edc6000830185613a95565b613ee9602083018461327d565b9392505050565b6000604051905081810181811067ffffffffffffffff82111715613f1757613f166142e6565b5b8060405250919050565b600067ffffffffffffffff821115613f3c57613f3b6142e6565b5b602082029050602081019050919050565b600067ffffffffffffffff821115613f6857613f676142e6565b5b602082029050602081019050919050565b6000819050602082019050919050565b6000819050602082019050919050565b600081519050919050565b600081519050919050565b600081519050919050565b6000602082019050919050565b6000602082019050919050565b600082825260208201905092915050565b600082825260208201905092915050565b600082825260208201905092915050565b600081905092915050565b600061401d82614190565b915061402883614190565b9250827fffffffffffffffffffffffffffffffffffffffffffffffffffffffffffffffff0382111561405d5761405c614288565b5b828201905092915050565b600061407382614190565b915061407e83614190565b9250817fffffffffffffffffffffffffffffffffffffffffffffffffffffffffffffffff04831182151516156140b7576140b6614288565b5b828202905092915050565b60006140cd82614190565b91506140d883614190565b9250828210156140eb576140ea614288565b5b828203905092915050565b600061410182614170565b9050919050565b60008115159050919050565b6000819050919050565b60007fffffffff0000000000000000000000000000000000000000000000000000000082169050919050565b600081905061415882614326565b919050565b600081905061416b8261433a565b919050565b600073ffffffffffffffffffffffffffffffffffffffff82169050919050565b6000819050919050565b60006141a5826141ac565b9050919050565b60006141b782614170565b9050919050565b60006141c98261414a565b9050919050565b60006141db8261415d565b9050919050565b60005b838110156142005780820151818401526020810190506141e5565b8381111561420f576000848401525b50505050565b600061422082614190565b9150600082141561423457614233614288565b5b600182039050919050565b600061424a82614190565b91507fffffffffffffffffffffffffffffffffffffffffffffffffffffffffffffffff82141561427d5761427c614288565b5b600182019050919050565b7f4e487b7100000000000000000000000000000000000000000000000000000000600052601160045260246000fd5b7f4e487b7100000000000000000000000000000000000000000000000000000000600052602160045260246000fd5b7f4e487b7100000000000000000000000000000000000000000000000000000000600052604160045260246000fd5b6000601f19601f8301169050919050565b60068110614337576143366142b7565b5b50565b6003811061434b5761434a6142b7565b5b50565b614357816140f6565b811461436257600080fd5b50565b61436e81614108565b811461437957600080fd5b50565b61438581614114565b811461439057600080fd5b50565b61439c8161411e565b81146143a757600080fd5b50565b600681106143b757600080fd5b50565b6143c381614190565b81146143ce57600080fd5b5056fea26469706673582212204160cfd67055411ee15a53ec9e6bb7de0237cae2b8ef46e57c5b089678e7d7a564736f6c63430008000033",
  "immutableReferences": {},
  "source": "// SPDX-License-Identifier: MIT\npragma solidity =0.8.0;\npragma experimental ABIEncoderV2;\nimport \"@openzeppelin/contracts/access/AccessControl.sol\";\nimport \"./Members.sol\";\nimport \"./MemberHelpers.sol\";\n\n/**\n * @title CohortFactory\n * Allows on creation of invitations by Enterprise and acceptance of Validators of those \n * invitations. Finally Enterprise can create cohort consisting of invited Validators\n * and Enterprise. \n */\n\ncontract CohortFactory is  AccessControl {\n\n    // Audit types to be used. Two types added for future expansion \n    enum AuditTypes {\n        Financial, System, Rules, NFT, Type5, Type6\n    }\n\n    uint256[] public minValidatorPerCohort = [3,3,3,3,3,3];\n\n    // Invitation structure to hold info about its status\n    struct Invitation {\n        // address enterprise;\n        address validator;\n        uint256 invitationDate;      \n        uint256 acceptanceDate;\n        AuditTypes audits;\n        // address cohort;\n        bool deleted;\n    }\n\n    // struct Cohorts {\n    //     AuditTypes audits;\n    // }\n\n    mapping(address => uint256[]) public cohortList;\n    mapping(address => mapping(uint256=>bool)) public cohortMap;\n    \n\n    Members members;                                            // pointer to Members contract1 \n    MemberHelpers public memberHelpers;                                       \n    mapping (address =>  Invitation[]) public invitations;      // invitations list\n    address platformAddress;                                    // address to deposit platform fees\n\n    bytes32 public constant SETTER_ROLE =  keccak256(\"SETTER_ROLE\");\n\n    event ValidatorInvited(address  inviting, address indexed invitee, AuditTypes audits, uint256 invitationNumber);\n    event InvitationAccepted(address indexed validator, uint256 invitationNumber);\n    event CohortCreated(address indexed enterprise, AuditTypes audits);\n    event UpdateMinValidatorsPerCohort(uint256 minValidatorPerCohort, AuditTypes audits);\n    event ValidatorCleared(address validator, AuditTypes audit, address cohort, address enterprise);\n\n    /// @dev check if caller is a setter     \n    modifier isSetter {\n        require(hasRole(SETTER_ROLE, msg.sender), \"Members:isSetter - Caller is not a setter\");\n\n        _;\n    }\n\n    constructor(Members _members, MemberHelpers _memberHelpers) {\n        members = _members;\n        memberHelpers = _memberHelpers;\n        _setupRole(DEFAULT_ADMIN_ROLE, msg.sender); // \n    }\n   \n    /**\n    * @dev to be called by Governance contract to update new value for min validators per cohort\n    * @param _minValidatorPerCohort new value \n    * @param audits type of validations\n    */\n    function updateMinValidatorsPerCohort(uint256 _minValidatorPerCohort, uint256 audits) public  {\n\n        require(_minValidatorPerCohort != 0, \"CohortFactory:updateMinValidatorsPerCohort - New value for the  min validator per cohort can't be 0\");\n        require(audits <= 5 && audits >=0 , \"Cohort Factory:updateMinValidatorsPerCohort - Audit type has to be <= 5 and >=0\");\n        minValidatorPerCohort[audits] = _minValidatorPerCohort;\n        emit UpdateMinValidatorsPerCohort(_minValidatorPerCohort, AuditTypes(audits));\n    }\n\n    /**\n    * @dev Used by Enterprise to invite validator\n    * @param validator address of the validator to invite\n    * @param audit type of the audit\n    */\n    function inviteValidator(address validator, uint256 audit) public {\n\n        Invitation memory newInvitation;\n        bool isValidator = members.userMap(validator, Members.UserType(1));\n        bool isEnterprise = members.userMap(msg.sender, Members.UserType(0));\n        (bool invited, ) = isValidatorInvited(msg.sender, validator, audit);\n        require( !invited , \"CohortFactory:inviteValidator - This validator has been already invited for this validation type.\" );\n        require( isEnterprise, \"CohortFactory:inviteValidator - Only Enterprise user can invite Validators.\");\n        require( isValidator, \"CohortFactory:inviteValidator - Only Approved Validators can be invited.\");\n        require( memberHelpers.deposits(validator) > 0,\"CohortFactory:inviteValidator - This validator has not staked any tokens yet.\");\n        newInvitation.validator = validator;\n        newInvitation.invitationDate = block.timestamp;     \n        newInvitation.audits = AuditTypes(audit);   \n        invitations[msg.sender].push(newInvitation);\n       \n        emit ValidatorInvited(msg.sender, validator, AuditTypes(audit), invitations[msg.sender].length - 1);\n    }\n    \n\n    /**\n    * @dev Used by Enterprise to invite multiple validators in one call \n    * @param validator address of the validator to invite\n    * @param audit type of the audit\n    */\n    function inviteValidatorMultiple(address[] memory validator, AuditTypes audit) public{\n\n        uint256 length = validator.length;\n        require(length <= 256, \"CohortFactory-inviteValidatorMultiple: List too long\");\n        for (uint256 i = 0; i < length; i++) {\n            inviteValidator(validator[i], uint256(audit));\n        }\n    }\n\n    /**\n    * @dev Used by Validator to accept Enterprise invitation\n    * @param enterprise address of the Enterprise who created invitation\n    * @param invitationNumber invitation number\n    */\n    function acceptInvitation(address enterprise, uint256 invitationNumber) public {\n\n        require( invitations[enterprise].length > invitationNumber, \"CohortFactory:acceptInvitation - This invitation doesn't exist\");\n        require( invitations[enterprise][invitationNumber].acceptanceDate == 0, \"CohortFactory:acceptInvitation- This invitation has been accepted already .\");\n        require( invitations[enterprise][invitationNumber].validator == msg.sender, \"CohortFactory:acceptInvitation - You are accepting invitation to which you were not invited or this invitation doesn't exist.\");\n        invitations[enterprise][invitationNumber].acceptanceDate = block.timestamp;\n          \n        emit InvitationAccepted(msg.sender, invitationNumber);\n    }\n\n\n    function clearInvitationRemoveValidator(address validator, AuditTypes audit) public  returns (bool) {\n\n        for (uint256 i = 0; i < invitations[msg.sender].length; i++){\n            if (invitations[msg.sender][i].audits == audit && invitations[msg.sender][i].validator ==  validator){\n                invitations[msg.sender][i].deleted = true;                \n                emit ValidatorCleared(validator, audit, address(0x0), msg.sender);\n                return true;\n            }\n        }\n\n        revert(\"This invitation doesn't exist\");\n    }\n\n    /**\n    * @dev Used by Validator to accept multiple Enterprise invitation\n    * @param enterprise address of the Enterprise who created invitation\n    * @param invitationNumber invitation number\n    */\n    function acceptInvitationMultiple(address[] memory enterprise, uint256[] memory invitationNumber) public{\n\n        uint256 length = enterprise.length;\n        for (uint256 i = 0; i < length; i++) {\n            acceptInvitation(enterprise[i], invitationNumber[i]);\n        }\n    }\n\n    /**\n    * @dev To return invitation count\n    * @param enterprise address of the Enterprise who created invitation\n    * @param audit type\n    * @return count of invitations\n    */\n    function returnInvitationCount(address enterprise, AuditTypes audit) public view returns(uint256) {\n\n        uint256 count;\n\n        for (uint i=0; i < invitations[enterprise].length; ++i ){\n            if (invitations[enterprise][i].audits == audit && \n                invitations[enterprise][i].acceptanceDate != 0 &&\n                !invitations[enterprise][i].deleted)\n                count ++;\n        }\n        return count;\n    }\n\n    /**\n    * @dev Used to determine if validator has been invited and/or if validation has been accepted\n    * @param enterprise inviting party\n    * @param validator address of the validator\n    * @param audits types\n    * @return true if invited\n    * @return true if accepted invitation\n    */\n    function isValidatorInvited(address enterprise, address validator, uint256 audits) public view returns (bool, bool) {\n\n        for (uint i=0; i < invitations[enterprise].length; ++i ){\n            if (invitations[enterprise][i].audits == AuditTypes(audits) && \n                invitations[enterprise][i].validator == validator &&\n                !invitations[enterprise][i].deleted){\n                if (invitations[enterprise][i].acceptanceDate > 0)\n                    return (true, true);\n                return (true, false);\n            }\n        }\n        return (false, false);\n    }\n\n     /**\n    * @dev Returns true for audit types for which enterprise has created cohorts.\n    * @param enterprise inviting party\n    * @return list of boolean variables with value true for audit types enterprise has initiated cohort, \n    */\n    function returnCohorts(address enterprise) public view returns (bool[] memory){\n\n        uint256 auditCount = 5;\n        bool[] memory audits = new bool[](auditCount);\n\n        for (uint256 i; i < auditCount; i++){\n            if (cohortMap[enterprise][i])\n               audits[i] = true;\n        }\n        return (audits);\n    }\n\n    function returnValidatorList(address enterprise, uint256 audit)public view returns(address[] memory){\n\n        address[] memory validatorsList = new address[](returnInvitationCount(enterprise, AuditTypes(audit)));\n        uint k;\n        for (uint i=0; i < invitations[enterprise].length; ++i ){\n            if (invitations[enterprise][i].audits == AuditTypes(audit) && invitations[enterprise][i].acceptanceDate > 0){\n                validatorsList[k] = invitations[enterprise][i].validator;\n                k++;\n            }\n        }\n        return validatorsList;\n    }\n\n    /**\n    * @dev Initiate creation of a new cohort \n    * @param audit type\n    */\n    function createCohort(uint256 audit) public {\n        address[] memory validators =  returnValidatorList(msg.sender, audit);\n        require(validators.length >= minValidatorPerCohort[uint256(audit)], \"CohortFactory:createCohort - Number of validators below required minimum.\");\n        cohortMap[msg.sender][uint256(audit)] = true;   \n        emit CohortCreated(msg.sender, AuditTypes(audit));\n        \n    }\n}\n",
  "sourcePath": "/home/win2win/eth/projects/AuditChain/Core-Smart-Contracts-v1/contracts/Auditchain/CohortFactory.sol",
  "compiler": {
    "name": "solc",
    "version": "0.8.0+commit.c7dfd78e.Emscripten.clang"
  },
  "schemaVersion": "3.4.1",
  "updatedAt": "2021-08-02T21:35:13.956Z",
  "devdoc": {
    "kind": "dev",
    "methods": {
      "acceptInvitation(address,uint256)": {
        "details": "Used by Validator to accept Enterprise invitation",
        "params": {
          "enterprise": "address of the Enterprise who created invitation",
          "invitationNumber": "invitation number"
        }
      },
      "acceptInvitationMultiple(address[],uint256[])": {
        "details": "Used by Validator to accept multiple Enterprise invitation",
        "params": {
          "enterprise": "address of the Enterprise who created invitation",
          "invitationNumber": "invitation number"
        }
      },
      "createCohort(uint256)": {
        "details": "Initiate creation of a new cohort ",
        "params": {
          "audit": "type"
        }
      },
      "getRoleAdmin(bytes32)": {
        "details": "Returns the admin role that controls `role`. See {grantRole} and {revokeRole}. To change a role's admin, use {_setRoleAdmin}."
      },
      "grantRole(bytes32,address)": {
        "details": "Grants `role` to `account`. If `account` had not been already granted `role`, emits a {RoleGranted} event. Requirements: - the caller must have ``role``'s admin role."
      },
      "hasRole(bytes32,address)": {
        "details": "Returns `true` if `account` has been granted `role`."
      },
      "inviteValidator(address,uint256)": {
        "details": "Used by Enterprise to invite validator",
        "params": {
          "audit": "type of the audit",
          "validator": "address of the validator to invite"
        }
      },
      "inviteValidatorMultiple(address[],uint8)": {
        "details": "Used by Enterprise to invite multiple validators in one call ",
        "params": {
          "audit": "type of the audit",
          "validator": "address of the validator to invite"
        }
      },
      "isValidatorInvited(address,address,uint256)": {
        "details": "Used to determine if validator has been invited and/or if validation has been accepted",
        "params": {
          "audits": "types",
          "enterprise": "inviting party",
          "validator": "address of the validator"
        },
        "returns": {
          "_0": "true if invited",
          "_1": "true if accepted invitation"
        }
      },
      "renounceRole(bytes32,address)": {
        "details": "Revokes `role` from the calling account. Roles are often managed via {grantRole} and {revokeRole}: this function's purpose is to provide a mechanism for accounts to lose their privileges if they are compromised (such as when a trusted device is misplaced). If the calling account had been granted `role`, emits a {RoleRevoked} event. Requirements: - the caller must be `account`."
      },
      "returnCohorts(address)": {
        "details": "Returns true for audit types for which enterprise has created cohorts.",
        "params": {
          "enterprise": "inviting party"
        },
        "returns": {
          "_0": "list of boolean variables with value true for audit types enterprise has initiated cohort, "
        }
      },
      "returnInvitationCount(address,uint8)": {
        "details": "To return invitation count",
        "params": {
          "audit": "type",
          "enterprise": "address of the Enterprise who created invitation"
        },
        "returns": {
          "_0": "count of invitations"
        }
      },
      "revokeRole(bytes32,address)": {
        "details": "Revokes `role` from `account`. If `account` had been granted `role`, emits a {RoleRevoked} event. Requirements: - the caller must have ``role``'s admin role."
      },
      "supportsInterface(bytes4)": {
        "details": "See {IERC165-supportsInterface}."
      },
      "updateMinValidatorsPerCohort(uint256,uint256)": {
        "details": "to be called by Governance contract to update new value for min validators per cohort",
        "params": {
          "_minValidatorPerCohort": "new value ",
          "audits": "type of validations"
        }
      }
    },
    "title": "CohortFactory Allows on creation of invitations by Enterprise and acceptance of Validators of those  invitations. Finally Enterprise can create cohort consisting of invited Validators and Enterprise. ",
    "version": 1
  },
  "userdoc": {
    "kind": "user",
    "methods": {},
    "version": 1
  }
}