{
  "contractName": "CohortFactory",
  "abi": [
    {
      "inputs": [
        {
          "internalType": "contract Members",
          "name": "_members",
          "type": "address"
        },
        {
          "internalType": "address",
          "name": "_createCohortAddress",
          "type": "address"
        }
      ],
      "stateMutability": "nonpayable",
      "type": "constructor"
    },
    {
      "anonymous": false,
      "inputs": [
        {
          "indexed": true,
          "internalType": "address",
          "name": "enterprise",
          "type": "address"
        },
        {
          "indexed": false,
          "internalType": "address",
          "name": "cohort",
          "type": "address"
        },
        {
          "indexed": false,
          "internalType": "enum CohortFactory.AuditTypes",
          "name": "audits",
          "type": "uint8"
        }
      ],
      "name": "CohortCreated",
      "type": "event"
    },
    {
      "anonymous": false,
      "inputs": [
        {
          "indexed": true,
          "internalType": "address",
          "name": "validator",
          "type": "address"
        },
        {
          "indexed": false,
          "internalType": "uint256",
          "name": "invitationNumber",
          "type": "uint256"
        }
      ],
      "name": "InvitationAccepted",
      "type": "event"
    },
    {
      "anonymous": false,
      "inputs": [
        {
          "indexed": true,
          "internalType": "bytes32",
          "name": "role",
          "type": "bytes32"
        },
        {
          "indexed": true,
          "internalType": "bytes32",
          "name": "previousAdminRole",
          "type": "bytes32"
        },
        {
          "indexed": true,
          "internalType": "bytes32",
          "name": "newAdminRole",
          "type": "bytes32"
        }
      ],
      "name": "RoleAdminChanged",
      "type": "event"
    },
    {
      "anonymous": false,
      "inputs": [
        {
          "indexed": true,
          "internalType": "bytes32",
          "name": "role",
          "type": "bytes32"
        },
        {
          "indexed": true,
          "internalType": "address",
          "name": "account",
          "type": "address"
        },
        {
          "indexed": true,
          "internalType": "address",
          "name": "sender",
          "type": "address"
        }
      ],
      "name": "RoleGranted",
      "type": "event"
    },
    {
      "anonymous": false,
      "inputs": [
        {
          "indexed": true,
          "internalType": "bytes32",
          "name": "role",
          "type": "bytes32"
        },
        {
          "indexed": true,
          "internalType": "address",
          "name": "account",
          "type": "address"
        },
        {
          "indexed": true,
          "internalType": "address",
          "name": "sender",
          "type": "address"
        }
      ],
      "name": "RoleRevoked",
      "type": "event"
    },
    {
      "anonymous": false,
      "inputs": [
        {
          "indexed": false,
          "internalType": "uint256",
          "name": "minValidatorPerCohort",
          "type": "uint256"
        },
        {
          "indexed": false,
          "internalType": "enum CohortFactory.AuditTypes",
          "name": "audits",
          "type": "uint8"
        }
      ],
      "name": "UpdateMinValidatorsPerCohort",
      "type": "event"
    },
    {
      "anonymous": false,
      "inputs": [
        {
          "indexed": false,
          "internalType": "address",
          "name": "validator",
          "type": "address"
        },
        {
          "indexed": false,
          "internalType": "enum CohortFactory.AuditTypes",
          "name": "audit",
          "type": "uint8"
        },
        {
          "indexed": false,
          "internalType": "address",
          "name": "cohort",
          "type": "address"
        },
        {
          "indexed": false,
          "internalType": "address",
          "name": "enterprise",
          "type": "address"
        }
      ],
      "name": "ValidatorCleared",
      "type": "event"
    },
    {
      "anonymous": false,
      "inputs": [
        {
          "indexed": false,
          "internalType": "address",
          "name": "inviting",
          "type": "address"
        },
        {
          "indexed": true,
          "internalType": "address",
          "name": "invitee",
          "type": "address"
        },
        {
          "indexed": false,
          "internalType": "enum CohortFactory.AuditTypes",
          "name": "audits",
          "type": "uint8"
        },
        {
          "indexed": false,
          "internalType": "uint256",
          "name": "invitationNumber",
          "type": "uint256"
        },
        {
          "indexed": false,
          "internalType": "address",
          "name": "cohort",
          "type": "address"
        }
      ],
      "name": "ValidatorInvited",
      "type": "event"
    },
    {
      "inputs": [],
      "name": "DEFAULT_ADMIN_ROLE",
      "outputs": [
        {
          "internalType": "bytes32",
          "name": "",
          "type": "bytes32"
        }
      ],
      "stateMutability": "view",
      "type": "function",
      "constant": true
    },
    {
      "inputs": [],
      "name": "SETTER_ROLE",
      "outputs": [
        {
          "internalType": "bytes32",
          "name": "",
          "type": "bytes32"
        }
      ],
      "stateMutability": "view",
      "type": "function",
      "constant": true
    },
    {
      "inputs": [
        {
          "internalType": "address",
          "name": "",
          "type": "address"
        },
        {
          "internalType": "uint256",
          "name": "",
          "type": "uint256"
        }
      ],
      "name": "cohortList",
      "outputs": [
        {
          "internalType": "address",
          "name": "cohort",
          "type": "address"
        },
        {
          "internalType": "enum CohortFactory.AuditTypes",
          "name": "audits",
          "type": "uint8"
        }
      ],
      "stateMutability": "view",
      "type": "function",
      "constant": true
    },
    {
      "inputs": [
        {
          "internalType": "address",
          "name": "",
          "type": "address"
        }
      ],
      "name": "cohortMap",
      "outputs": [
        {
          "internalType": "uint256",
          "name": "",
          "type": "uint256"
        }
      ],
      "stateMutability": "view",
      "type": "function",
      "constant": true
    },
    {
      "inputs": [
        {
          "internalType": "bytes32",
          "name": "role",
          "type": "bytes32"
        }
      ],
      "name": "getRoleAdmin",
      "outputs": [
        {
          "internalType": "bytes32",
          "name": "",
          "type": "bytes32"
        }
      ],
      "stateMutability": "view",
      "type": "function",
      "constant": true
    },
    {
      "inputs": [
        {
          "internalType": "bytes32",
          "name": "role",
          "type": "bytes32"
        },
        {
          "internalType": "uint256",
          "name": "index",
          "type": "uint256"
        }
      ],
      "name": "getRoleMember",
      "outputs": [
        {
          "internalType": "address",
          "name": "",
          "type": "address"
        }
      ],
      "stateMutability": "view",
      "type": "function",
      "constant": true
    },
    {
      "inputs": [
        {
          "internalType": "bytes32",
          "name": "role",
          "type": "bytes32"
        }
      ],
      "name": "getRoleMemberCount",
      "outputs": [
        {
          "internalType": "uint256",
          "name": "",
          "type": "uint256"
        }
      ],
      "stateMutability": "view",
      "type": "function",
      "constant": true
    },
    {
      "inputs": [
        {
          "internalType": "bytes32",
          "name": "role",
          "type": "bytes32"
        },
        {
          "internalType": "address",
          "name": "account",
          "type": "address"
        }
      ],
      "name": "grantRole",
      "outputs": [],
      "stateMutability": "nonpayable",
      "type": "function"
    },
    {
      "inputs": [
        {
          "internalType": "bytes32",
          "name": "role",
          "type": "bytes32"
        },
        {
          "internalType": "address",
          "name": "account",
          "type": "address"
        }
      ],
      "name": "hasRole",
      "outputs": [
        {
          "internalType": "bool",
          "name": "",
          "type": "bool"
        }
      ],
      "stateMutability": "view",
      "type": "function",
      "constant": true
    },
    {
      "inputs": [
        {
          "internalType": "address",
          "name": "",
          "type": "address"
        },
        {
          "internalType": "uint256",
          "name": "",
          "type": "uint256"
        }
      ],
      "name": "invitations",
      "outputs": [
        {
          "internalType": "address",
          "name": "enterprise",
          "type": "address"
        },
        {
          "internalType": "address",
          "name": "validator",
          "type": "address"
        },
        {
          "internalType": "uint256",
          "name": "invitationDate",
          "type": "uint256"
        },
        {
          "internalType": "uint256",
          "name": "acceptanceDate",
          "type": "uint256"
        },
        {
          "internalType": "enum CohortFactory.AuditTypes",
          "name": "audits",
          "type": "uint8"
        },
        {
          "internalType": "address",
          "name": "cohort",
          "type": "address"
        },
        {
          "internalType": "bool",
          "name": "deleted",
          "type": "bool"
        }
      ],
      "stateMutability": "view",
      "type": "function",
      "constant": true
    },
    {
      "inputs": [
        {
          "internalType": "uint256",
          "name": "",
          "type": "uint256"
        }
      ],
      "name": "minValidatorPerCohort",
      "outputs": [
        {
          "internalType": "uint256",
          "name": "",
          "type": "uint256"
        }
      ],
      "stateMutability": "view",
      "type": "function",
      "constant": true
    },
    {
      "inputs": [
        {
          "internalType": "bytes32",
          "name": "role",
          "type": "bytes32"
        },
        {
          "internalType": "address",
          "name": "account",
          "type": "address"
        }
      ],
      "name": "renounceRole",
      "outputs": [],
      "stateMutability": "nonpayable",
      "type": "function"
    },
    {
      "inputs": [
        {
          "internalType": "bytes32",
          "name": "role",
          "type": "bytes32"
        },
        {
          "internalType": "address",
          "name": "account",
          "type": "address"
        }
      ],
      "name": "revokeRole",
      "outputs": [],
      "stateMutability": "nonpayable",
      "type": "function"
    },
    {
      "inputs": [
        {
          "internalType": "uint256",
          "name": "_minValidatorPerCohort",
          "type": "uint256"
        },
        {
          "internalType": "uint256",
          "name": "audits",
          "type": "uint256"
        }
      ],
      "name": "updateMinValidatorsPerCohort",
      "outputs": [],
      "stateMutability": "nonpayable",
      "type": "function"
    },
    {
      "inputs": [
        {
          "internalType": "address",
          "name": "validator",
          "type": "address"
        },
        {
          "internalType": "enum CohortFactory.AuditTypes",
          "name": "audit",
          "type": "uint8"
        },
        {
          "internalType": "address",
          "name": "cohort",
          "type": "address"
        }
      ],
      "name": "inviteValidator",
      "outputs": [],
      "stateMutability": "nonpayable",
      "type": "function"
    },
    {
      "inputs": [
        {
          "internalType": "address[]",
          "name": "validator",
          "type": "address[]"
        },
        {
          "internalType": "enum CohortFactory.AuditTypes",
          "name": "audit",
          "type": "uint8"
        },
        {
          "internalType": "address",
          "name": "cohort",
          "type": "address"
        }
      ],
      "name": "inviteValidatorMultiple",
      "outputs": [],
      "stateMutability": "nonpayable",
      "type": "function"
    },
    {
      "inputs": [
        {
          "internalType": "address",
          "name": "enterprise",
          "type": "address"
        },
        {
          "internalType": "uint256",
          "name": "invitationNumber",
          "type": "uint256"
        }
      ],
      "name": "acceptInvitation",
      "outputs": [],
      "stateMutability": "nonpayable",
      "type": "function"
    },
    {
      "inputs": [
        {
          "internalType": "address",
          "name": "validator",
          "type": "address"
        },
        {
          "internalType": "enum CohortFactory.AuditTypes",
          "name": "audit",
          "type": "uint8"
        },
        {
          "internalType": "address",
          "name": "cohort",
          "type": "address"
        }
      ],
      "name": "clearInvitationRemoveValidator",
      "outputs": [],
      "stateMutability": "nonpayable",
      "type": "function"
    },
    {
      "inputs": [
        {
          "internalType": "address[]",
          "name": "enterprise",
          "type": "address[]"
        },
        {
          "internalType": "uint256[]",
          "name": "invitationNumber",
          "type": "uint256[]"
        }
      ],
      "name": "acceptInvitationMultiple",
      "outputs": [],
      "stateMutability": "nonpayable",
      "type": "function"
    },
    {
      "inputs": [
        {
          "internalType": "address",
          "name": "enterprise",
          "type": "address"
        },
        {
          "internalType": "enum CohortFactory.AuditTypes",
          "name": "audit",
          "type": "uint8"
        }
      ],
      "name": "returnInvitationCount",
      "outputs": [
        {
          "internalType": "uint256",
          "name": "",
          "type": "uint256"
        }
      ],
      "stateMutability": "view",
      "type": "function",
      "constant": true
    },
    {
      "inputs": [
        {
          "internalType": "address",
          "name": "enterprise",
          "type": "address"
        },
        {
          "internalType": "address",
          "name": "validator",
          "type": "address"
        },
        {
          "internalType": "enum CohortFactory.AuditTypes",
          "name": "audits",
          "type": "uint8"
        }
      ],
      "name": "isValidatorInvited",
      "outputs": [
        {
          "internalType": "bool",
          "name": "",
          "type": "bool"
        },
        {
          "internalType": "bool",
          "name": "",
          "type": "bool"
        }
      ],
      "stateMutability": "view",
      "type": "function",
      "constant": true
    },
    {
      "inputs": [
        {
          "internalType": "address",
          "name": "enterprise",
          "type": "address"
        }
      ],
      "name": "returnCohorts",
      "outputs": [
        {
          "internalType": "address[]",
          "name": "",
          "type": "address[]"
        },
        {
          "internalType": "uint256[]",
          "name": "",
          "type": "uint256[]"
        }
      ],
      "stateMutability": "view",
      "type": "function",
      "constant": true
    },
    {
      "inputs": [],
      "name": "returnOutstandingValidations",
      "outputs": [
        {
          "internalType": "uint256",
          "name": "",
          "type": "uint256"
        }
      ],
      "stateMutability": "view",
      "type": "function",
      "constant": true
    },
    {
      "inputs": [
        {
          "internalType": "enum CohortFactory.AuditTypes",
          "name": "audit",
          "type": "uint8"
        }
      ],
      "name": "createCohort",
      "outputs": [],
      "stateMutability": "nonpayable",
      "type": "function"
    }
  ],
  "bytecode": "0x60806040526040518060c00160405280600360ff168152602001600360ff168152602001600360ff168152602001600360ff168152602001600360ff168152602001600360ff1681525060019060066200005b929190620002c4565b503480156200006957600080fd5b50604051620044ae380380620044ae83398181016040528101906200008f919062000368565b81600460006101000a81548173ffffffffffffffffffffffffffffffffffffffff021916908373ffffffffffffffffffffffffffffffffffffffff16021790555080600760006101000a81548173ffffffffffffffffffffffffffffffffffffffff021916908373ffffffffffffffffffffffffffffffffffffffff160217905550620001266000801b336200012e60201b60201c565b505062000425565b6200014082826200014460201b60201c565b5050565b6200017281600080858152602001908152602001600020600001620001e760201b6200269c1790919060201c565b15620001e357620001886200021f60201b60201c565b73ffffffffffffffffffffffffffffffffffffffff168173ffffffffffffffffffffffffffffffffffffffff16837f2f8788117e7eff1d82e926ec794901d17c78024a50270940304540a733656f0d60405160405180910390a45b5050565b600062000217836000018373ffffffffffffffffffffffffffffffffffffffff1660001b6200022760201b60201c565b905092915050565b600033905090565b60006200023b8383620002a160201b60201c565b620002965782600001829080600181540180825580915050600190039060005260206000200160009091909190915055826000018054905083600101600084815260200190815260200160002081905550600190506200029b565b600090505b92915050565b600080836001016000848152602001908152602001600020541415905092915050565b82805482825590600052602060002090810192821562000308579160200282015b8281111562000307578251829060ff16905591602001919060010190620002e5565b5b5090506200031791906200031b565b5090565b5b80821115620003365760008160009055506001016200031c565b5090565b6000815190506200034b81620003f1565b92915050565b60008151905062000362816200040b565b92915050565b600080604083850312156200037c57600080fd5b60006200038c8582860162000351565b92505060206200039f858286016200033a565b9150509250929050565b6000620003b682620003d1565b9050919050565b6000620003ca82620003a9565b9050919050565b600073ffffffffffffffffffffffffffffffffffffffff82169050919050565b620003fc81620003a9565b81146200040857600080fd5b50565b6200041681620003bd565b81146200042257600080fd5b50565b61407980620004356000396000f3fe608060405234801561001057600080fd5b50600436106101585760003560e01c80638e02c1f4116100c3578063a70e03931161007c578063a70e039314610415578063b9f577b114610446578063c535124e14610462578063ca15c87314610480578063ced02c8b146104b0578063d547741f146104cc57610158565b80638e02c1f4146103275780638ffb72f4146103435780639010d07c1461037957806391d14854146103a9578063a2011b3f146103d9578063a217fddf146103f757610158565b806336568abe1161011557806336568abe1461024257806345f49bb01461025e5780634b524e071461028e5780637689bb7d146102be5780637c915c86146102da57806387247dea146102f657610158565b80630939a9971461015d5780630ea02160146101795780631f94fc3a14610195578063247e28b3146101c6578063248a9ca3146101f65780632f2ff15d14610226575b600080fd5b61017760048036038101906101729190612e4b565b6104e8565b005b610193600480360381019061018e9190612e0f565b61053c565b005b6101af60048036038101906101aa9190612d35565b6109ee565b6040516101bd929190613af2565b60405180910390f35b6101e060048036038101906101db9190612d84565b610c83565b6040516101ed9190613cd6565b60405180910390f35b610210600480360381019061020b9190612f47565b610e52565b60405161021d9190613b1b565b60405180910390f35b610240600480360381019061023b9190612f70565b610e71565b005b61025c60048036038101906102579190612f70565b610efa565b005b61027860048036038101906102739190613011565b610f93565b6040516102859190613cd6565b60405180910390f35b6102a860048036038101906102a39190612ce3565b610fb7565b6040516102b59190613cd6565b60405180910390f35b6102d860048036038101906102d39190612dc0565b610fcf565b005b6102f460048036038101906102ef9190612fe8565b6115ce565b005b610310600480360381019061030b9190612ce3565b611bf4565b60405161031e929190613aa0565b60405180910390f35b610341600480360381019061033c9190612dc0565b611ebf565b005b61035d60048036038101906103589190612e0f565b6121d5565b60405161037097969594939291906139c3565b60405180910390f35b610393600480360381019061038e9190612fac565b6122ae565b6040516103a0919061391f565b60405180910390f35b6103c360048036038101906103be9190612f70565b6122df565b6040516103d09190613ad7565b60405180910390f35b6103e1612310565b6040516103ee9190613b1b565b60405180910390f35b6103ff612334565b60405161040c9190613b1b565b60405180910390f35b61042f600480360381019061042a9190612e0f565b61233b565b60405161043d929190613a32565b60405180910390f35b610460600480360381019061045b9190613063565b6123a5565b005b61046a61249e565b6040516104779190613cd6565b60405180910390f35b61049a60048036038101906104959190612f47565b612565565b6040516104a79190613cd6565b60405180910390f35b6104ca60048036038101906104c59190612eb7565b61258b565b005b6104e660048036038101906104e19190612f70565b612613565b005b60008251905060005b818110156105365761052984828151811061050857fe5b602002602001015184838151811061051c57fe5b602002602001015161053c565b80806001019150506104f1565b50505050565b80600560008473ffffffffffffffffffffffffffffffffffffffff1673ffffffffffffffffffffffffffffffffffffffff16815260200190815260200160002080549050116105c0576040517f08c379a00000000000000000000000000000000000000000000000000000000081526004016105b790613b76565b60405180910390fd5b6000600560008473ffffffffffffffffffffffffffffffffffffffff1673ffffffffffffffffffffffffffffffffffffffff168152602001908152602001600020828154811061060c57fe5b9060005260206000209060050201600301541461065e576040517f08c379a000000000000000000000000000000000000000000000000000000000815260040161065590613bd6565b60405180910390fd5b3373ffffffffffffffffffffffffffffffffffffffff16600560008473ffffffffffffffffffffffffffffffffffffffff1673ffffffffffffffffffffffffffffffffffffffff16815260200190815260200160002082815481106106bf57fe5b906000526020600020906005020160010160009054906101000a900473ffffffffffffffffffffffffffffffffffffffff1673ffffffffffffffffffffffffffffffffffffffff1614610747576040517f08c379a000000000000000000000000000000000000000000000000000000000815260040161073e90613c96565b60405180910390fd5b42600560008473ffffffffffffffffffffffffffffffffffffffff1673ffffffffffffffffffffffffffffffffffffffff168152602001908152602001600020828154811061079257fe5b906000526020600020906005020160030181905550600073ffffffffffffffffffffffffffffffffffffffff16600560008473ffffffffffffffffffffffffffffffffffffffff1673ffffffffffffffffffffffffffffffffffffffff168152602001908152602001600020828154811061080957fe5b906000526020600020906005020160040160019054906101000a900473ffffffffffffffffffffffffffffffffffffffff1673ffffffffffffffffffffffffffffffffffffffff161461099c57600560008373ffffffffffffffffffffffffffffffffffffffff1673ffffffffffffffffffffffffffffffffffffffff16815260200190815260200160002081815481106108a057fe5b906000526020600020906005020160040160019054906101000a900473ffffffffffffffffffffffffffffffffffffffff1673ffffffffffffffffffffffffffffffffffffffff16638c410fc8336040518263ffffffff1660e01b815260040161090a919061393a565b602060405180830381600087803b15801561092457600080fd5b505af1158015610938573d6000803e3d6000fd5b505050506040513d601f19601f8201168201806040525081019061095c9190612f1e565b61099b576040517f08c379a000000000000000000000000000000000000000000000000000000000815260040161099290613bf6565b60405180910390fd5b5b3373ffffffffffffffffffffffffffffffffffffffff167f7b03e8bab458bdbb216f7525cb174b013e75d040884fe46cc9e836fc05a0cc7b826040516109e29190613cd6565b60405180910390a25050565b60008060005b600560008773ffffffffffffffffffffffffffffffffffffffff1673ffffffffffffffffffffffffffffffffffffffff16815260200190815260200160002080549050811015610c7257836005811115610a4a57fe5b600560008873ffffffffffffffffffffffffffffffffffffffff1673ffffffffffffffffffffffffffffffffffffffff1681526020019081526020016000208281548110610a9457fe5b906000526020600020906005020160040160009054906101000a900460ff166005811115610abe57fe5b148015610b7157508473ffffffffffffffffffffffffffffffffffffffff16600560008873ffffffffffffffffffffffffffffffffffffffff1673ffffffffffffffffffffffffffffffffffffffff1681526020019081526020016000208281548110610b2757fe5b906000526020600020906005020160010160009054906101000a900473ffffffffffffffffffffffffffffffffffffffff1673ffffffffffffffffffffffffffffffffffffffff16145b8015610be35750600560008773ffffffffffffffffffffffffffffffffffffffff1673ffffffffffffffffffffffffffffffffffffffff1681526020019081526020016000208181548110610bc257fe5b906000526020600020906005020160040160159054906101000a900460ff16155b15610c67576000600560008873ffffffffffffffffffffffffffffffffffffffff1673ffffffffffffffffffffffffffffffffffffffff1681526020019081526020016000208281548110610c3457fe5b9060005260206000209060050201600301541115610c59576001809250925050610c7b565b600160009250925050610c7b565b8060010190506109f4565b50600080915091505b935093915050565b60008060005b600560008673ffffffffffffffffffffffffffffffffffffffff1673ffffffffffffffffffffffffffffffffffffffff16815260200190815260200160002080549050811015610e4757836005811115610cdf57fe5b600560008773ffffffffffffffffffffffffffffffffffffffff1673ffffffffffffffffffffffffffffffffffffffff1681526020019081526020016000208281548110610d2957fe5b906000526020600020906005020160040160009054906101000a900460ff166005811115610d5357fe5b148015610dbc57506000600560008773ffffffffffffffffffffffffffffffffffffffff1673ffffffffffffffffffffffffffffffffffffffff1681526020019081526020016000208281548110610da757fe5b90600052602060002090600502016003015414155b8015610e2e5750600560008673ffffffffffffffffffffffffffffffffffffffff1673ffffffffffffffffffffffffffffffffffffffff1681526020019081526020016000208181548110610e0d57fe5b906000526020600020906005020160040160159054906101000a900460ff16155b15610e3c5781806001019250505b806001019050610c89565b508091505092915050565b6000806000838152602001908152602001600020600201549050919050565b610e9760008084815260200190815260200160002060020154610e926126cc565b6122df565b610eec576040517f08c379a000000000000000000000000000000000000000000000000000000000815260040180806020018281038252602f815260200180613fb6602f913960400191505060405180910390fd5b610ef682826126d4565b5050565b610f026126cc565b73ffffffffffffffffffffffffffffffffffffffff168173ffffffffffffffffffffffffffffffffffffffff1614610f85576040517f08c379a000000000000000000000000000000000000000000000000000000000815260040180806020018281038252602f815260200180614015602f913960400191505060405180910390fd5b610f8f8282612767565b5050565b60018181548110610fa357600080fd5b906000526020600020016000915090505481565b60036020528060005260406000206000915090505481565b610fd7612a98565b6000600460009054906101000a900473ffffffffffffffffffffffffffffffffffffffff1673ffffffffffffffffffffffffffffffffffffffff166318d50d33866040518263ffffffff1660e01b8152600401611034919061391f565b60206040518083038186803b15801561104c57600080fd5b505afa158015611060573d6000803e3d6000fd5b505050506040513d601f19601f820116820180604052508101906110849190612f1e565b90506000600460009054906101000a900473ffffffffffffffffffffffffffffffffffffffff1673ffffffffffffffffffffffffffffffffffffffff1663be07b32e336040518263ffffffff1660e01b81526004016110e3919061393a565b60206040518083038186803b1580156110fb57600080fd5b505afa15801561110f573d6000803e3d6000fd5b505050506040513d601f19601f820116820180604052508101906111339190612f1e565b905060006111423388886109ee565b5090508015611186576040517f08c379a000000000000000000000000000000000000000000000000000000000815260040161117d90613c56565b60405180910390fd5b816111c6576040517f08c379a00000000000000000000000000000000000000000000000000000000081526004016111bd90613cb6565b60405180910390fd5b82611206576040517f08c379a00000000000000000000000000000000000000000000000000000000081526004016111fd90613c16565b60405180910390fd5b6000600460009054906101000a900473ffffffffffffffffffffffffffffffffffffffff1673ffffffffffffffffffffffffffffffffffffffff1663fc7e286d896040518263ffffffff1660e01b8152600401611263919061391f565b60206040518083038186803b15801561127b57600080fd5b505afa15801561128f573d6000803e3d6000fd5b505050506040513d601f19601f820116820180604052508101906112b3919061303a565b116112f3576040517f08c379a00000000000000000000000000000000000000000000000000000000081526004016112ea90613b36565b60405180910390fd5b86846020019073ffffffffffffffffffffffffffffffffffffffff16908173ffffffffffffffffffffffffffffffffffffffff168152505042846040018181525050858460800190600581111561134657fe5b9081600581111561135357fe5b81525050848460a0019073ffffffffffffffffffffffffffffffffffffffff16908173ffffffffffffffffffffffffffffffffffffffff1681525050600560003373ffffffffffffffffffffffffffffffffffffffff1673ffffffffffffffffffffffffffffffffffffffff16815260200190815260200160002084908060018154018082558091505060019003906000526020600020906005020160009091909190915060008201518160000160006101000a81548173ffffffffffffffffffffffffffffffffffffffff021916908373ffffffffffffffffffffffffffffffffffffffff16021790555060208201518160010160006101000a81548173ffffffffffffffffffffffffffffffffffffffff021916908373ffffffffffffffffffffffffffffffffffffffff160217905550604082015181600201556060820151816003015560808201518160040160006101000a81548160ff021916908360058111156114be57fe5b021790555060a08201518160040160016101000a81548173ffffffffffffffffffffffffffffffffffffffff021916908373ffffffffffffffffffffffffffffffffffffffff16021790555060c08201518160040160156101000a81548160ff02191690831515021790555050508673ffffffffffffffffffffffffffffffffffffffff167f2c2dbe2d2a7b83ef060aaf0987c01d917ae8b3c3f1b967f5ed2aaa5dd19ed48a33886001600560003373ffffffffffffffffffffffffffffffffffffffff1673ffffffffffffffffffffffffffffffffffffffff1681526020019081526020016000208054905003896040516115bd9493929190613955565b60405180910390a250505050505050565b60006115da3383610c83565b67ffffffffffffffff811180156115f057600080fd5b5060405190808252806020026020018201604052801561161f5781602001602082028036833780820191505090505b509050600080600090505b600560003373ffffffffffffffffffffffffffffffffffffffff1673ffffffffffffffffffffffffffffffffffffffff168152602001908152602001600020805490508110156118375783600581111561168057fe5b600560003373ffffffffffffffffffffffffffffffffffffffff1673ffffffffffffffffffffffffffffffffffffffff16815260200190815260200160002082815481106116ca57fe5b906000526020600020906005020160040160009054906101000a900460ff1660058111156116f457fe5b14801561175c57506000600560003373ffffffffffffffffffffffffffffffffffffffff1673ffffffffffffffffffffffffffffffffffffffff168152602001908152602001600020828154811061174857fe5b906000526020600020906005020160030154115b1561182c57600560003373ffffffffffffffffffffffffffffffffffffffff1673ffffffffffffffffffffffffffffffffffffffff16815260200190815260200160002081815481106117ab57fe5b906000526020600020906005020160010160009054906101000a900473ffffffffffffffffffffffffffffffffffffffff168383815181106117e957fe5b602002602001019073ffffffffffffffffffffffffffffffffffffffff16908173ffffffffffffffffffffffffffffffffffffffff168152505081806001019250505b80600101905061162a565b50600183600581111561184657fe5b8154811061185057fe5b906000526020600020015481101561189d576040517f08c379a000000000000000000000000000000000000000000000000000000000815260040161189490613b96565b60405180910390fd5b6000600760009054906101000a900473ffffffffffffffffffffffffffffffffffffffff1673ffffffffffffffffffffffffffffffffffffffff1663ac680c3f8560058111156118e957fe5b85336040518463ffffffff1660e01b815260040161190993929190613cf1565b602060405180830381600087803b15801561192357600080fd5b505af1158015611937573d6000803e3d6000fd5b505050506040513d601f19601f8201168201806040525081019061195b9190612d0c565b9050600260003373ffffffffffffffffffffffffffffffffffffffff1673ffffffffffffffffffffffffffffffffffffffff16815260200190815260200160002060018160018154018082558091505003906000526020600020505080600260003373ffffffffffffffffffffffffffffffffffffffff1673ffffffffffffffffffffffffffffffffffffffff1681526020019081526020016000206001600260003373ffffffffffffffffffffffffffffffffffffffff1673ffffffffffffffffffffffffffffffffffffffff168152602001908152602001600020805490500381548110611a4757fe5b9060005260206000200160000160006101000a81548173ffffffffffffffffffffffffffffffffffffffff021916908373ffffffffffffffffffffffffffffffffffffffff16021790555083600260003373ffffffffffffffffffffffffffffffffffffffff1673ffffffffffffffffffffffffffffffffffffffff1681526020019081526020016000206001600260003373ffffffffffffffffffffffffffffffffffffffff1673ffffffffffffffffffffffffffffffffffffffff168152602001908152602001600020805490500381548110611b2257fe5b9060005260206000200160000160146101000a81548160ff02191690836005811115611b4a57fe5b0217905550836005811115611b5b57fe5b600360008373ffffffffffffffffffffffffffffffffffffffff1673ffffffffffffffffffffffffffffffffffffffff168152602001908152602001600020819055503373ffffffffffffffffffffffffffffffffffffffff167f90691b6bd4b271754d0eb5676725798ab1ab64c7225d8e48882bc2f6add2dd098286604051611be6929190613a32565b60405180910390a250505050565b6060806000600260008573ffffffffffffffffffffffffffffffffffffffff1673ffffffffffffffffffffffffffffffffffffffff1681526020019081526020016000208054905067ffffffffffffffff81118015611c5257600080fd5b50604051908082528060200260200182016040528015611c815781602001602082028036833780820191505090505b5090506000600260008673ffffffffffffffffffffffffffffffffffffffff1673ffffffffffffffffffffffffffffffffffffffff1681526020019081526020016000208054905067ffffffffffffffff81118015611cdf57600080fd5b50604051908082528060200260200182016040528015611d0e5781602001602082028036833780820191505090505b50905060005b600260008773ffffffffffffffffffffffffffffffffffffffff1673ffffffffffffffffffffffffffffffffffffffff16815260200190815260200160002080549050811015611eb157600260008773ffffffffffffffffffffffffffffffffffffffff1673ffffffffffffffffffffffffffffffffffffffff1681526020019081526020016000208181548110611da857fe5b9060005260206000200160000160009054906101000a900473ffffffffffffffffffffffffffffffffffffffff16838281518110611de257fe5b602002602001019073ffffffffffffffffffffffffffffffffffffffff16908173ffffffffffffffffffffffffffffffffffffffff1681525050600260008773ffffffffffffffffffffffffffffffffffffffff1673ffffffffffffffffffffffffffffffffffffffff1681526020019081526020016000208181548110611e6657fe5b9060005260206000200160000160149054906101000a900460ff166005811115611e8c57fe5b828281518110611e9857fe5b6020026020010181815250508080600101915050611d14565b508181935093505050915091565b60005b600560003373ffffffffffffffffffffffffffffffffffffffff1673ffffffffffffffffffffffffffffffffffffffff168152602001908152602001600020805490508110156121cf57826005811115611f1857fe5b600560003373ffffffffffffffffffffffffffffffffffffffff1673ffffffffffffffffffffffffffffffffffffffff1681526020019081526020016000208281548110611f6257fe5b906000526020600020906005020160040160009054906101000a900460ff166005811115611f8c57fe5b14801561203f57508373ffffffffffffffffffffffffffffffffffffffff16600560003373ffffffffffffffffffffffffffffffffffffffff1673ffffffffffffffffffffffffffffffffffffffff1681526020019081526020016000208281548110611ff557fe5b906000526020600020906005020160010160009054906101000a900473ffffffffffffffffffffffffffffffffffffffff1673ffffffffffffffffffffffffffffffffffffffff16145b156121c2576001600560003373ffffffffffffffffffffffffffffffffffffffff1673ffffffffffffffffffffffffffffffffffffffff168152602001908152602001600020828154811061209057fe5b906000526020600020906005020160040160156101000a81548160ff0219169083151502179055508173ffffffffffffffffffffffffffffffffffffffff166396cb4c0d85336040518363ffffffff1660e01b81526004016120f392919061399a565b602060405180830381600087803b15801561210d57600080fd5b505af1158015612121573d6000803e3d6000fd5b505050506040513d601f19601f820116820180604052508101906121459190612f1e565b612184576040517f08c379a000000000000000000000000000000000000000000000000000000000815260040161217b90613c76565b60405180910390fd5b7fc79fd5e121f785109eb0b6f9236759e63b1507d2388bae38d35500874fd186b6848484336040516121b99493929190613a5b565b60405180910390a15b8080600101915050611ec2565b50505050565b600560205281600052604060002081815481106121f157600080fd5b9060005260206000209060050201600091509150508060000160009054906101000a900473ffffffffffffffffffffffffffffffffffffffff16908060010160009054906101000a900473ffffffffffffffffffffffffffffffffffffffff16908060020154908060030154908060040160009054906101000a900460ff16908060040160019054906101000a900473ffffffffffffffffffffffffffffffffffffffff16908060040160159054906101000a900460ff16905087565b60006122d7826000808681526020019081526020016000206000016127fa90919063ffffffff16565b905092915050565b60006123088260008086815260200190815260200160002060000161281490919063ffffffff16565b905092915050565b7f61c92169ef077349011ff0b1383c894d86c5f0b41d986366b58a6cf31e93beda81565b6000801b81565b6002602052816000526040600020818154811061235757600080fd5b90600052602060002001600091509150508060000160009054906101000a900473ffffffffffffffffffffffffffffffffffffffff16908060000160149054906101000a900460ff16905082565b60008214156123e9576040517f08c379a00000000000000000000000000000000000000000000000000000000081526004016123e090613b56565b60405180910390fd5b600581111580156123fb575060008110155b61243a576040517f08c379a000000000000000000000000000000000000000000000000000000000815260040161243190613bb6565b60405180910390fd5b816001828154811061244857fe5b90600052602060002001819055507f77141346a51f055f5bb35ecb1499b0bb7d9fbf1442b909bd3fd419820ccb98b28282600581111561248457fe5b604051612492929190613d2f565b60405180910390a15050565b6000806124aa33611bf4565b5090506000805b825181101561255c578281815181106124c657fe5b602002602001015173ffffffffffffffffffffffffffffffffffffffff1663860008f06040518163ffffffff1660e01b815260040160206040518083038186803b15801561251357600080fd5b505afa158015612527573d6000803e3d6000fd5b505050506040513d601f19601f8201168201806040525081019061254b919061303a565b8201915080806001019150506124b1565b50809250505090565b6000612584600080848152602001908152602001600020600001612844565b9050919050565b6000835190506101008111156125d6576040517f08c379a00000000000000000000000000000000000000000000000000000000081526004016125cd90613c36565b60405180910390fd5b60005b8181101561260c576125ff8582815181106125f057fe5b60200260200101518585610fcf565b80806001019150506125d9565b5050505050565b612639600080848152602001908152602001600020600201546126346126cc565b6122df565b61268e576040517f08c379a0000000000000000000000000000000000000000000000000000000008152600401808060200182810382526030815260200180613fe56030913960400191505060405180910390fd5b6126988282612767565b5050565b60006126c4836000018373ffffffffffffffffffffffffffffffffffffffff1660001b612859565b905092915050565b600033905090565b6126fb8160008085815260200190815260200160002060000161269c90919063ffffffff16565b15612763576127086126cc565b73ffffffffffffffffffffffffffffffffffffffff168173ffffffffffffffffffffffffffffffffffffffff16837f2f8788117e7eff1d82e926ec794901d17c78024a50270940304540a733656f0d60405160405180910390a45b5050565b61278e816000808581526020019081526020016000206000016128c990919063ffffffff16565b156127f65761279b6126cc565b73ffffffffffffffffffffffffffffffffffffffff168173ffffffffffffffffffffffffffffffffffffffff16837ff6391f5c32d9c69d2a47ea670b442974b53935d1edc7fd64eb21e047a839171b60405160405180910390a45b5050565b600061280983600001836128f9565b60001c905092915050565b600061283c836000018373ffffffffffffffffffffffffffffffffffffffff1660001b61297c565b905092915050565b60006128528260000161299f565b9050919050565b6000612865838361297c565b6128be5782600001829080600181540180825580915050600190039060005260206000200160009091909190915055826000018054905083600101600084815260200190815260200160002081905550600190506128c3565b600090505b92915050565b60006128f1836000018373ffffffffffffffffffffffffffffffffffffffff1660001b6129b0565b905092915050565b60008183600001805490501161295a576040517f08c379a0000000000000000000000000000000000000000000000000000000008152600401808060200182810382526022815260200180613f946022913960400191505060405180910390fd5b82600001828154811061296957fe5b9060005260206000200154905092915050565b600080836001016000848152602001908152602001600020541415905092915050565b600081600001805490509050919050565b60008083600101600084815260200190815260200160002054905060008114612a8c57600060018203905060006001866000018054905003905060008660000182815481106129fb57fe5b9060005260206000200154905080876000018481548110612a1857fe5b9060005260206000200181905550600183018760010160008381526020019081526020016000208190555086600001805480612a5057fe5b60019003818190600052602060002001600090559055866001016000878152602001908152602001600020600090556001945050505050612a92565b60009150505b92915050565b6040518060e00160405280600073ffffffffffffffffffffffffffffffffffffffff168152602001600073ffffffffffffffffffffffffffffffffffffffff168152602001600081526020016000815260200160006005811115612af857fe5b8152602001600073ffffffffffffffffffffffffffffffffffffffff1681526020016000151581525090565b6000612b37612b3284613d89565b613d58565b90508083825260208201905082856020860282011115612b5657600080fd5b60005b85811015612b865781612b6c8882612bfc565b845260208401935060208301925050600181019050612b59565b5050509392505050565b6000612ba3612b9e84613db5565b613d58565b90508083825260208201905082856020860282011115612bc257600080fd5b60005b85811015612bf25781612bd88882612cb9565b845260208401935060208301925050600181019050612bc5565b5050509392505050565b600081359050612c0b81613f27565b92915050565b600081519050612c2081613f27565b92915050565b600082601f830112612c3757600080fd5b8135612c47848260208601612b24565b91505092915050565b600082601f830112612c6157600080fd5b8135612c71848260208601612b90565b91505092915050565b600081519050612c8981613f3e565b92915050565b600081359050612c9e81613f55565b92915050565b600081359050612cb381613f6c565b92915050565b600081359050612cc881613f7c565b92915050565b600081519050612cdd81613f7c565b92915050565b600060208284031215612cf557600080fd5b6000612d0384828501612bfc565b91505092915050565b600060208284031215612d1e57600080fd5b6000612d2c84828501612c11565b91505092915050565b600080600060608486031215612d4a57600080fd5b6000612d5886828701612bfc565b9350506020612d6986828701612bfc565b9250506040612d7a86828701612ca4565b9150509250925092565b60008060408385031215612d9757600080fd5b6000612da585828601612bfc565b9250506020612db685828601612ca4565b9150509250929050565b600080600060608486031215612dd557600080fd5b6000612de386828701612bfc565b9350506020612df486828701612ca4565b9250506040612e0586828701612bfc565b9150509250925092565b60008060408385031215612e2257600080fd5b6000612e3085828601612bfc565b9250506020612e4185828601612cb9565b9150509250929050565b60008060408385031215612e5e57600080fd5b600083013567ffffffffffffffff811115612e7857600080fd5b612e8485828601612c26565b925050602083013567ffffffffffffffff811115612ea157600080fd5b612ead85828601612c50565b9150509250929050565b600080600060608486031215612ecc57600080fd5b600084013567ffffffffffffffff811115612ee657600080fd5b612ef286828701612c26565b9350506020612f0386828701612ca4565b9250506040612f1486828701612bfc565b9150509250925092565b600060208284031215612f3057600080fd5b6000612f3e84828501612c7a565b91505092915050565b600060208284031215612f5957600080fd5b6000612f6784828501612c8f565b91505092915050565b60008060408385031215612f8357600080fd5b6000612f9185828601612c8f565b9250506020612fa285828601612bfc565b9150509250929050565b60008060408385031215612fbf57600080fd5b6000612fcd85828601612c8f565b9250506020612fde85828601612cb9565b9150509250929050565b600060208284031215612ffa57600080fd5b600061300884828501612ca4565b91505092915050565b60006020828403121561302357600080fd5b600061303184828501612cb9565b91505092915050565b60006020828403121561304c57600080fd5b600061305a84828501612cce565b91505092915050565b6000806040838503121561307657600080fd5b600061308485828601612cb9565b925050602061309585828601612cb9565b9150509250929050565b60006130ab83836130de565b60208301905092915050565b60006130c38383613901565b60208301905092915050565b6130d881613ec9565b82525050565b6130e781613e64565b82525050565b6130f681613e64565b82525050565b600061310782613e01565b6131118185613e31565b935061311c83613de1565b8060005b8381101561314d578151613134888261309f565b975061313f83613e17565b925050600181019050613120565b5085935050505092915050565b600061316582613e0c565b61316f8185613e42565b935061317a83613df1565b8060005b838110156131ab57815161319288826130b7565b975061319d83613e24565b92505060018101905061317e565b5085935050505092915050565b6131c181613e76565b82525050565b6131d081613e82565b82525050565b6131df81613edb565b82525050565b60006131f2604d83613e53565b91507f436f686f7274466163746f72793a696e7669746556616c696461746f72202d2060008301527f546869732076616c696461746f7220686173206e6f74207374616b656420616e60208301527f7920746f6b656e73207965742e000000000000000000000000000000000000006040830152606082019050919050565b600061327e606283613e53565b91507f437265617465436f686f72743a7570646174654d696e56616c696461746f727360008301527f506572436f686f7274202d204e65772076616c756520666f722074686520206d60208301527f696e2076616c696461746f722070657220636f686f72742063616e277420626560408301527f20300000000000000000000000000000000000000000000000000000000000006060830152608082019050919050565b6000613330603e83613e53565b91507f436f686f7274466163746f72793a616363657074496e7669746174696f6e202d60008301527f205468697320696e7669746174696f6e20646f65736e277420657869737400006020830152604082019050919050565b6000613396604983613e53565b91507f436f686f7274466163746f72793a637265617465436f686f7274202d204e756d60008301527f626572206f662076616c696461746f72732062656c6f7720726571756972656460208301527f206d696e696d756d2e00000000000000000000000000000000000000000000006040830152606082019050919050565b6000613422604f83613e53565b91507f436f686f727420466163746f72793a7570646174654d696e56616c696461746f60008301527f7273506572436f686f7274202d20417564697420747970652068617320746f2060208301527f6265203c3d203520616e64203e3d3000000000000000000000000000000000006040830152606082019050919050565b60006134ae604b83613e53565b91507f436f686f7274466163746f72793a616363657074496e7669746174696f6e2d2060008301527f5468697320696e7669746174696f6e20686173206265656e206163636570746560208301527f6420616c7265616479202e0000000000000000000000000000000000000000006040830152606082019050919050565b600061353a603c83613e53565b91507f436f686f7274466163746f72793a696e7669746556616c696461746f72202d2060008301527f50726f626c656d20616464696e67206e65772076616c696461746f72000000006020830152604082019050919050565b60006135a0604883613e53565b91507f436f686f7274466163746f72793a696e7669746556616c696461746f72202d2060008301527f4f6e6c7920417070726f7665642056616c696461746f72732063616e2062652060208301527f696e76697465642e0000000000000000000000000000000000000000000000006040830152606082019050919050565b600061362c603483613e53565b91507f436f686f7274466163746f72792d696e7669746556616c696461746f724d756c60008301527f7469706c653a204c69737420746f6f206c6f6e670000000000000000000000006020830152604082019050919050565b6000613692606183613e53565b91507f436f686f7274466163746f72793a696e7669746556616c696461746f72202d2060008301527f546869732076616c696461746f7220686173206265656e20616c72656164792060208301527f696e766974656420666f7220746869732076616c69646174696f6e207479706560408301527f2e000000000000000000000000000000000000000000000000000000000000006060830152608082019050919050565b6000613744605683613e53565b91507f436f686f7274466163746f72793a636c656172496e7669746174696f6e56616c60008301527f696461746f72202d2050726f626c656d2072656d6f76696e672076616c69646160208301527f746f7220696e20436f686f727420636f6e7472616374000000000000000000006040830152606082019050919050565b60006137d0607d83613e53565b91507f436f686f7274466163746f72793a616363657074496e7669746174696f6e202d60008301527f20596f752061726520616363657074696e6720696e7669746174696f6e20746f60208301527f20776869636820796f752077657265206e6f7420696e7669746564206f72207460408301527f68697320696e7669746174696f6e20646f65736e27742065786973742e0000006060830152608082019050919050565b6000613882604b83613e53565b91507f436f686f7274466163746f72793a696e7669746556616c696461746f72202d2060008301527f4f6e6c7920456e746572707269736520757365722063616e20696e766974652060208301527f56616c696461746f72732e0000000000000000000000000000000000000000006040830152606082019050919050565b61390a81613ebf565b82525050565b61391981613ebf565b82525050565b600060208201905061393460008301846130ed565b92915050565b600060208201905061394f60008301846130cf565b92915050565b600060808201905061396a60008301876130cf565b61397760208301866131d6565b6139846040830185613910565b61399160608301846130ed565b95945050505050565b60006040820190506139af60008301856130ed565b6139bc60208301846130cf565b9392505050565b600060e0820190506139d8600083018a6130ed565b6139e560208301896130ed565b6139f26040830188613910565b6139ff6060830187613910565b613a0c60808301866131d6565b613a1960a08301856130ed565b613a2660c08301846131b8565b98975050505050505050565b6000604082019050613a4760008301856130ed565b613a5460208301846131d6565b9392505050565b6000608082019050613a7060008301876130ed565b613a7d60208301866131d6565b613a8a60408301856130ed565b613a9760608301846130cf565b95945050505050565b60006040820190508181036000830152613aba81856130fc565b90508181036020830152613ace818461315a565b90509392505050565b6000602082019050613aec60008301846131b8565b92915050565b6000604082019050613b0760008301856131b8565b613b1460208301846131b8565b9392505050565b6000602082019050613b3060008301846131c7565b92915050565b60006020820190508181036000830152613b4f816131e5565b9050919050565b60006020820190508181036000830152613b6f81613271565b9050919050565b60006020820190508181036000830152613b8f81613323565b9050919050565b60006020820190508181036000830152613baf81613389565b9050919050565b60006020820190508181036000830152613bcf81613415565b9050919050565b60006020820190508181036000830152613bef816134a1565b9050919050565b60006020820190508181036000830152613c0f8161352d565b9050919050565b60006020820190508181036000830152613c2f81613593565b9050919050565b60006020820190508181036000830152613c4f8161361f565b9050919050565b60006020820190508181036000830152613c6f81613685565b9050919050565b60006020820190508181036000830152613c8f81613737565b9050919050565b60006020820190508181036000830152613caf816137c3565b9050919050565b60006020820190508181036000830152613ccf81613875565b9050919050565b6000602082019050613ceb6000830184613910565b92915050565b6000606082019050613d066000830186613910565b8181036020830152613d1881856130fc565b9050613d2760408301846130cf565b949350505050565b6000604082019050613d446000830185613910565b613d5160208301846131d6565b9392505050565b6000604051905081810181811067ffffffffffffffff82111715613d7f57613d7e613f11565b5b8060405250919050565b600067ffffffffffffffff821115613da457613da3613f11565b5b602082029050602081019050919050565b600067ffffffffffffffff821115613dd057613dcf613f11565b5b602082029050602081019050919050565b6000819050602082019050919050565b6000819050602082019050919050565b600081519050919050565b600081519050919050565b6000602082019050919050565b6000602082019050919050565b600082825260208201905092915050565b600082825260208201905092915050565b600082825260208201905092915050565b6000613e6f82613e9f565b9050919050565b60008115159050919050565b6000819050919050565b6000819050613e9a82613f13565b919050565b600073ffffffffffffffffffffffffffffffffffffffff82169050919050565b6000819050919050565b6000613ed482613eed565b9050919050565b6000613ee682613e8c565b9050919050565b6000613ef882613eff565b9050919050565b6000613f0a82613e9f565b9050919050565bfe5b60068110613f2457613f23613f11565b5b50565b613f3081613e64565b8114613f3b57600080fd5b50565b613f4781613e76565b8114613f5257600080fd5b50565b613f5e81613e82565b8114613f6957600080fd5b50565b60068110613f7957600080fd5b50565b613f8581613ebf565b8114613f9057600080fd5b5056fe456e756d657261626c655365743a20696e646578206f7574206f6620626f756e6473416363657373436f6e74726f6c3a2073656e646572206d75737420626520616e2061646d696e20746f206772616e74416363657373436f6e74726f6c3a2073656e646572206d75737420626520616e2061646d696e20746f207265766f6b65416363657373436f6e74726f6c3a2063616e206f6e6c792072656e6f756e636520726f6c657320666f722073656c66a2646970667358221220b36bc7a90c2433114e2c006a100515e7017064bed7054d59950fa9926a63db3564736f6c63430007060033",
  "immutableReferences": {},
  "source": "// SPDX-License-Identifier: MIT\npragma solidity =0.7.6;\npragma experimental ABIEncoderV2;\nimport \"@openzeppelin/contracts/access/AccessControl.sol\";\nimport \"./Members.sol\";\nimport \"./CreateCohort.sol\";\n\n/**\n * @title CohortFactory\n * Allows on creation of invitations by Enterprise and acceptance of Validators of those \n * invitations. Finally Enterprise can create cohort consisting of invited Validators\n * and Enterprise. \n */\n\ncontract CohortFactory is  AccessControl {\n\n    // Audit types to be used. Two types added for future expansion \n    enum AuditTypes {\n        Financial, System, Contract, NFT, Type5, Type6\n    }\n\n    uint256[] public minValidatorPerCohort = [3,3,3,3,3,3];\n\n    // Invitation structure to hold info about its status\n    struct Invitation {\n        address enterprise;\n        address validator;\n        uint256 invitationDate;      \n        uint256 acceptanceDate;\n        AuditTypes audits;\n        address cohort;\n        bool deleted;\n    }\n\n    struct Cohorts {\n        address cohort;\n        AuditTypes audits;\n    }\n\n    mapping(address => Cohorts[]) public cohortList;\n    mapping(address => uint256) public cohortMap;\n\n    Members members;                                            // pointer to Members contract1 \n    mapping (address =>  Invitation[]) public invitations;      // invitations list\n    address platformAddress;                                    // address to deposit platform fees\n    address createCohortAddress;\n\n    bytes32 public constant SETTER_ROLE =  keccak256(\"SETTER_ROLE\");\n\n    event ValidatorInvited(address  inviting, address indexed invitee, AuditTypes audits, uint256 invitationNumber, address cohort);\n    event InvitationAccepted(address indexed validator, uint256 invitationNumber);\n    event CohortCreated(address indexed enterprise, address cohort, AuditTypes audits);\n    event UpdateMinValidatorsPerCohort(uint256 minValidatorPerCohort, AuditTypes audits);\n    event ValidatorCleared(address validator, AuditTypes audit, address cohort, address enterprise);\n\n    /// @dev check if caller is a setter     \n    modifier isSetter {\n        require(hasRole(SETTER_ROLE, msg.sender), \"Members:isSetter - Caller is not a setter\");\n\n        _;\n    }\n\n    constructor(Members _members,  address _createCohortAddress ) {\n        members = _members;\n        createCohortAddress = _createCohortAddress;\n        _setupRole(DEFAULT_ADMIN_ROLE, msg.sender); // \n    }\n   \n    /**\n    * @dev to be called by Governance contract to update new value for min validators per cohort\n    * @param _minValidatorPerCohort new value \n    * @param audits type of validations\n    */\n    function updateMinValidatorsPerCohort(uint256 _minValidatorPerCohort, uint256 audits) public  {\n\n        require(_minValidatorPerCohort != 0, \"CreateCohort:updateMinValidatorsPerCohort - New value for the  min validator per cohort can't be 0\");\n        require(audits <= 5 && audits >=0 , \"Cohort Factory:updateMinValidatorsPerCohort - Audit type has to be <= 5 and >=0\");\n        minValidatorPerCohort[audits] = _minValidatorPerCohort;\n        emit UpdateMinValidatorsPerCohort(_minValidatorPerCohort, AuditTypes(audits));\n    }\n\n    /**\n    * @dev Used by Enterprise to invite validator\n    * @param validator address of the validator to invite\n    * @param audit type of the audit\n    */\n    function inviteValidator(address validator, AuditTypes audit, address cohort) public {\n\n        Invitation memory newInvitation;\n        bool approvedValidator = members.validatorMap(validator);\n        bool isEnterprise = members.enterpriseMap(msg.sender);\n        (bool invited, ) = isValidatorInvited(msg.sender, validator, audit);\n        require( !invited , \"CohortFactory:inviteValidator - This validator has been already invited for this validation type.\" );\n        require( isEnterprise, \"CohortFactory:inviteValidator - Only Enterprise user can invite Validators.\");\n        require( approvedValidator, \"CohortFactory:inviteValidator - Only Approved Validators can be invited.\");\n        require( members.deposits(validator) > 0,\"CohortFactory:inviteValidator - This validator has not staked any tokens yet.\");\n        newInvitation.validator = validator;\n        newInvitation.invitationDate = block.timestamp;     \n        newInvitation.audits = audit;   \n        newInvitation.cohort = cohort;\n        invitations[msg.sender].push(newInvitation);\n       \n        emit ValidatorInvited(msg.sender, validator, audit, invitations[msg.sender].length - 1, cohort);\n    }\n\n    /**\n    * @dev Used by Enterprise to invite multiple validators in one call \n    * @param validator address of the validator to invite\n    * @param audit type of the audit\n    */\n    function inviteValidatorMultiple(address[] memory validator, AuditTypes audit, address cohort) public{\n\n        uint256 length = validator.length;\n        require(length <= 256, \"CohortFactory-inviteValidatorMultiple: List too long\");\n        for (uint256 i = 0; i < length; i++) {\n            inviteValidator(validator[i], audit, cohort);\n        }\n    }\n\n    /**\n    * @dev Used by Validator to accept Enterprise invitation\n    * @param enterprise address of the Enterprise who created invitation\n    * @param invitationNumber invitation number\n    */\n    function acceptInvitation(address enterprise, uint256 invitationNumber) public {\n\n        require( invitations[enterprise].length > invitationNumber, \"CohortFactory:acceptInvitation - This invitation doesn't exist\");\n        require( invitations[enterprise][invitationNumber].acceptanceDate == 0, \"CohortFactory:acceptInvitation- This invitation has been accepted already .\");\n        require( invitations[enterprise][invitationNumber].validator == msg.sender, \"CohortFactory:acceptInvitation - You are accepting invitation to which you were not invited or this invitation doesn't exist.\");\n        invitations[enterprise][invitationNumber].acceptanceDate = block.timestamp;\n\n            if (invitations[enterprise][invitationNumber].cohort != address(0)) // adding validator to existing cohort\n                require(\n                    ICohort(invitations[enterprise][invitationNumber].cohort)\n                    .addAdditionalValidator(msg.sender), \n                    \"CohortFactory:inviteValidator - Problem adding new validator\"\n                    );\n\n        emit InvitationAccepted(msg.sender, invitationNumber);\n    }\n\n    /**\n    * @dev Used by Enterprise to remove existing validator\n    * @param validator validator to remove\n    * @param audit type of audit \n    * @param cohort cohort from which validator is removed\n    */\n    function clearInvitationRemoveValidator(address validator, AuditTypes audit, address cohort) public {\n\n        for (uint256 i = 0; i < invitations[msg.sender].length; i++){\n            if (invitations[msg.sender][i].audits == audit && \n                invitations[msg.sender][i].validator ==  validator){\n                invitations[msg.sender][i].deleted = true;\n                require(ICohort(cohort).removeValidator(validator, msg.sender), \n                        \"CohortFactory:clearInvitationValidator - Problem removing validator in Cohort contract\");\n                emit ValidatorCleared(validator, audit, cohort, msg.sender);\n            }\n        }\n    }\n\n    /**\n    * @dev Used by Validator to accept multiple Enterprise invitation\n    * @param enterprise address of the Enterprise who created invitation\n    * @param invitationNumber invitation number\n    */\n    function acceptInvitationMultiple(address[] memory enterprise, uint256[] memory invitationNumber) public{\n\n        uint256 length = enterprise.length;\n        for (uint256 i = 0; i < length; i++) {\n            acceptInvitation(enterprise[i], invitationNumber[i]);\n        }\n    }\n\n    /**\n    * @dev To return invitation count\n    * @param enterprise address of the Enterprise who created invitation\n    * @param audit type\n    * @return count of invitations\n    */\n    function returnInvitationCount(address enterprise, AuditTypes audit) public view returns(uint256) {\n\n        uint256 count;\n\n        for (uint i=0; i < invitations[enterprise].length; ++i ){\n            if (invitations[enterprise][i].audits == audit && \n                invitations[enterprise][i].acceptanceDate != 0 &&\n                !invitations[enterprise][i].deleted)\n                count ++;\n        }\n        return count;\n    }\n\n    /**\n    * @dev Used to determine if validator has been invited and/or if validation has been accepted\n    * @param enterprise inviting party\n    * @param validator address of the validator\n    * @param audits types\n    * @return true if invited\n    * @return true if accepted invitation\n    */\n    function isValidatorInvited(address enterprise, address validator, AuditTypes audits) public view returns (bool, bool) {\n\n        for (uint i=0; i < invitations[enterprise].length; ++i ){\n            if (invitations[enterprise][i]. audits == audits && \n                invitations[enterprise][i].validator == validator &&\n                !invitations[enterprise][i].deleted){\n                if (invitations[enterprise][i].acceptanceDate > 0)\n                    return (true, true);\n                return (true, false);\n            }\n        }\n        return (false, false);\n    }\n\n     /**\n    * @dev Used to return list of cohorts for enterprise\n    * @param enterprise inviting party\n    * @return cohort address \n    * @return audit type\n    */\n    function returnCohorts(address enterprise) public view returns (address[] memory, uint256[] memory){\n\n        address[] memory cohort = new address[](cohortList[enterprise].length);\n        uint256[] memory audits = new uint256[](cohortList[enterprise].length);\n\n        for (uint256 i; i < cohortList[enterprise].length; i++){\n            cohort[i] = cohortList[enterprise][i].cohort;\n            audits[i] = uint256(cohortList[enterprise][i].audits);\n        }\n        return (cohort, audits);\n    }\n\n     /**\n     * @dev Function to calculate outstanding validations for enterprise. \n     */   \n    function returnOutstandingValidations() public view returns(uint256) {\n\n         (address[] memory cohorts, ) = returnCohorts(msg.sender);\n         uint totalOutstandingValidations;\n\n         for (uint256 i; i< cohorts.length; i++)\n             totalOutstandingValidations = totalOutstandingValidations + ICohort(cohorts[i]).outstandingValidations();\n\n        return totalOutstandingValidations;\n    }\n\n    /**\n    * @dev Initiate creation a new cohort using create2 methods based on the audit type and enterprise combination\n    * @param audit type\n    */\n    function createCohort(AuditTypes audit) public {\n        address[] memory validatorsList = new address[](returnInvitationCount(msg.sender, audit));\n        uint k;\n        for (uint i=0; i < invitations[msg.sender].length; ++i ){\n            if (invitations[msg.sender][i].audits == audit && invitations[msg.sender][i].acceptanceDate > 0){\n                validatorsList[k] = invitations[msg.sender][i].validator;\n                k++;\n            }\n        }\n        require(k >= minValidatorPerCohort[uint256(audit)], \"CohortFactory:createCohort - Number of validators below required minimum.\");\n\n        address cohortAddress = CreateCohort(createCohortAddress).createCohort(uint256(audit),  validatorsList, msg.sender );\n        cohortList[msg.sender].push();\n        cohortList[msg.sender][cohortList[msg.sender].length - 1].cohort = cohortAddress;\n        cohortList[msg.sender][cohortList[msg.sender].length - 1].audits = audit;\n\n        cohortMap[cohortAddress] = uint256(audit);\n\n        emit CohortCreated(msg.sender, cohortAddress, AuditTypes(audit));\n        \n    }\n}\n",
  "sourcePath": "/home/bogdan/Ethereum/Projects/TGE/Core-Smart-Contracts-v1/contracts/Auditchain/CohortFactory.sol",
  "compiler": {
    "name": "solc",
    "version": "0.7.6+commit.7338295f.Emscripten.clang"
  },
  "schemaVersion": "3.3.4",
  "updatedAt": "2021-04-19T18:55:54.035Z",
  "networkType": "ethereum",
  "devdoc": {
    "kind": "dev",
    "methods": {
      "acceptInvitation(address,uint256)": {
        "details": "Used by Validator to accept Enterprise invitation",
        "params": {
          "enterprise": "address of the Enterprise who created invitation",
          "invitationNumber": "invitation number"
        }
      },
      "acceptInvitationMultiple(address[],uint256[])": {
        "details": "Used by Validator to accept multiple Enterprise invitation",
        "params": {
          "enterprise": "address of the Enterprise who created invitation",
          "invitationNumber": "invitation number"
        }
      },
      "clearInvitationRemoveValidator(address,uint8,address)": {
        "details": "Used by Enterprise to remove existing validator",
        "params": {
          "audit": "type of audit ",
          "cohort": "cohort from which validator is removed",
          "validator": "validator to remove"
        }
      },
      "createCohort(uint8)": {
        "details": "Initiate creation a new cohort using create2 methods based on the audit type and enterprise combination",
        "params": {
          "audit": "type"
        }
      },
      "getRoleAdmin(bytes32)": {
        "details": "Returns the admin role that controls `role`. See {grantRole} and {revokeRole}. To change a role's admin, use {_setRoleAdmin}."
      },
      "getRoleMember(bytes32,uint256)": {
        "details": "Returns one of the accounts that have `role`. `index` must be a value between 0 and {getRoleMemberCount}, non-inclusive. Role bearers are not sorted in any particular way, and their ordering may change at any point. WARNING: When using {getRoleMember} and {getRoleMemberCount}, make sure you perform all queries on the same block. See the following https://forum.openzeppelin.com/t/iterating-over-elements-on-enumerableset-in-openzeppelin-contracts/2296[forum post] for more information."
      },
      "getRoleMemberCount(bytes32)": {
        "details": "Returns the number of accounts that have `role`. Can be used together with {getRoleMember} to enumerate all bearers of a role."
      },
      "grantRole(bytes32,address)": {
        "details": "Grants `role` to `account`. If `account` had not been already granted `role`, emits a {RoleGranted} event. Requirements: - the caller must have ``role``'s admin role."
      },
      "hasRole(bytes32,address)": {
        "details": "Returns `true` if `account` has been granted `role`."
      },
      "inviteValidator(address,uint8,address)": {
        "details": "Used by Enterprise to invite validator",
        "params": {
          "audit": "type of the audit",
          "validator": "address of the validator to invite"
        }
      },
      "inviteValidatorMultiple(address[],uint8,address)": {
        "details": "Used by Enterprise to invite multiple validators in one call ",
        "params": {
          "audit": "type of the audit",
          "validator": "address of the validator to invite"
        }
      },
      "isValidatorInvited(address,address,uint8)": {
        "details": "Used to determine if validator has been invited and/or if validation has been accepted",
        "params": {
          "audits": "types",
          "enterprise": "inviting party",
          "validator": "address of the validator"
        },
        "returns": {
          "_0": "true if invited",
          "_1": "true if accepted invitation"
        }
      },
      "renounceRole(bytes32,address)": {
        "details": "Revokes `role` from the calling account. Roles are often managed via {grantRole} and {revokeRole}: this function's purpose is to provide a mechanism for accounts to lose their privileges if they are compromised (such as when a trusted device is misplaced). If the calling account had been granted `role`, emits a {RoleRevoked} event. Requirements: - the caller must be `account`."
      },
      "returnCohorts(address)": {
        "details": "Used to return list of cohorts for enterprise",
        "params": {
          "enterprise": "inviting party"
        },
        "returns": {
          "_0": "cohort address ",
          "_1": "audit type"
        }
      },
      "returnInvitationCount(address,uint8)": {
        "details": "To return invitation count",
        "params": {
          "audit": "type",
          "enterprise": "address of the Enterprise who created invitation"
        },
        "returns": {
          "_0": "count of invitations"
        }
      },
      "returnOutstandingValidations()": {
        "details": "Function to calculate outstanding validations for enterprise. "
      },
      "revokeRole(bytes32,address)": {
        "details": "Revokes `role` from `account`. If `account` had been granted `role`, emits a {RoleRevoked} event. Requirements: - the caller must have ``role``'s admin role."
      },
      "updateMinValidatorsPerCohort(uint256,uint256)": {
        "details": "to be called by Governance contract to update new value for min validators per cohort",
        "params": {
          "_minValidatorPerCohort": "new value ",
          "audits": "type of validations"
        }
      }
    },
    "title": "CohortFactory Allows on creation of invitations by Enterprise and acceptance of Validators of those  invitations. Finally Enterprise can create cohort consisting of invited Validators and Enterprise. ",
    "version": 1
  },
  "userdoc": {
    "kind": "user",
    "methods": {},
    "version": 1
  }
}