{
  "contractName": "CreateCohort",
  "abi": [
    {
      "inputs": [
        {
          "internalType": "address",
          "name": "_members",
          "type": "address"
        },
        {
          "internalType": "address",
          "name": "_auditTokenAddress",
          "type": "address"
        }
      ],
      "stateMutability": "nonpayable",
      "type": "constructor"
    },
    {
      "anonymous": false,
      "inputs": [
        {
          "indexed": true,
          "internalType": "address",
          "name": "enterprise",
          "type": "address"
        },
        {
          "indexed": true,
          "internalType": "address",
          "name": "cohort",
          "type": "address"
        },
        {
          "indexed": false,
          "internalType": "enum CreateCohort.AuditTypes",
          "name": "audits",
          "type": "uint8"
        }
      ],
      "name": "CohortCreatedFinal",
      "type": "event"
    },
    {
      "anonymous": false,
      "inputs": [
        {
          "indexed": true,
          "internalType": "bytes32",
          "name": "role",
          "type": "bytes32"
        },
        {
          "indexed": true,
          "internalType": "bytes32",
          "name": "previousAdminRole",
          "type": "bytes32"
        },
        {
          "indexed": true,
          "internalType": "bytes32",
          "name": "newAdminRole",
          "type": "bytes32"
        }
      ],
      "name": "RoleAdminChanged",
      "type": "event"
    },
    {
      "anonymous": false,
      "inputs": [
        {
          "indexed": true,
          "internalType": "bytes32",
          "name": "role",
          "type": "bytes32"
        },
        {
          "indexed": true,
          "internalType": "address",
          "name": "account",
          "type": "address"
        },
        {
          "indexed": true,
          "internalType": "address",
          "name": "sender",
          "type": "address"
        }
      ],
      "name": "RoleGranted",
      "type": "event"
    },
    {
      "anonymous": false,
      "inputs": [
        {
          "indexed": true,
          "internalType": "bytes32",
          "name": "role",
          "type": "bytes32"
        },
        {
          "indexed": true,
          "internalType": "address",
          "name": "account",
          "type": "address"
        },
        {
          "indexed": true,
          "internalType": "address",
          "name": "sender",
          "type": "address"
        }
      ],
      "name": "RoleRevoked",
      "type": "event"
    },
    {
      "inputs": [],
      "name": "CONTROLLER_ROLE",
      "outputs": [
        {
          "internalType": "bytes32",
          "name": "",
          "type": "bytes32"
        }
      ],
      "stateMutability": "view",
      "type": "function",
      "constant": true
    },
    {
      "inputs": [],
      "name": "DEFAULT_ADMIN_ROLE",
      "outputs": [
        {
          "internalType": "bytes32",
          "name": "",
          "type": "bytes32"
        }
      ],
      "stateMutability": "view",
      "type": "function",
      "constant": true
    },
    {
      "inputs": [],
      "name": "auditToken",
      "outputs": [
        {
          "internalType": "address",
          "name": "",
          "type": "address"
        }
      ],
      "stateMutability": "view",
      "type": "function",
      "constant": true
    },
    {
      "inputs": [
        {
          "internalType": "bytes32",
          "name": "role",
          "type": "bytes32"
        }
      ],
      "name": "getRoleAdmin",
      "outputs": [
        {
          "internalType": "bytes32",
          "name": "",
          "type": "bytes32"
        }
      ],
      "stateMutability": "view",
      "type": "function",
      "constant": true
    },
    {
      "inputs": [
        {
          "internalType": "bytes32",
          "name": "role",
          "type": "bytes32"
        },
        {
          "internalType": "uint256",
          "name": "index",
          "type": "uint256"
        }
      ],
      "name": "getRoleMember",
      "outputs": [
        {
          "internalType": "address",
          "name": "",
          "type": "address"
        }
      ],
      "stateMutability": "view",
      "type": "function",
      "constant": true
    },
    {
      "inputs": [
        {
          "internalType": "bytes32",
          "name": "role",
          "type": "bytes32"
        }
      ],
      "name": "getRoleMemberCount",
      "outputs": [
        {
          "internalType": "uint256",
          "name": "",
          "type": "uint256"
        }
      ],
      "stateMutability": "view",
      "type": "function",
      "constant": true
    },
    {
      "inputs": [
        {
          "internalType": "bytes32",
          "name": "role",
          "type": "bytes32"
        },
        {
          "internalType": "address",
          "name": "account",
          "type": "address"
        }
      ],
      "name": "grantRole",
      "outputs": [],
      "stateMutability": "nonpayable",
      "type": "function"
    },
    {
      "inputs": [
        {
          "internalType": "bytes32",
          "name": "role",
          "type": "bytes32"
        },
        {
          "internalType": "address",
          "name": "account",
          "type": "address"
        }
      ],
      "name": "hasRole",
      "outputs": [
        {
          "internalType": "bool",
          "name": "",
          "type": "bool"
        }
      ],
      "stateMutability": "view",
      "type": "function",
      "constant": true
    },
    {
      "inputs": [],
      "name": "members",
      "outputs": [
        {
          "internalType": "contract Members",
          "name": "",
          "type": "address"
        }
      ],
      "stateMutability": "view",
      "type": "function",
      "constant": true
    },
    {
      "inputs": [
        {
          "internalType": "bytes32",
          "name": "role",
          "type": "bytes32"
        },
        {
          "internalType": "address",
          "name": "account",
          "type": "address"
        }
      ],
      "name": "renounceRole",
      "outputs": [],
      "stateMutability": "nonpayable",
      "type": "function"
    },
    {
      "inputs": [
        {
          "internalType": "bytes32",
          "name": "role",
          "type": "bytes32"
        },
        {
          "internalType": "address",
          "name": "account",
          "type": "address"
        }
      ],
      "name": "revokeRole",
      "outputs": [],
      "stateMutability": "nonpayable",
      "type": "function"
    },
    {
      "inputs": [
        {
          "internalType": "address",
          "name": "",
          "type": "address"
        },
        {
          "internalType": "uint256",
          "name": "",
          "type": "uint256"
        }
      ],
      "name": "validatorCohortList",
      "outputs": [
        {
          "internalType": "address",
          "name": "",
          "type": "address"
        }
      ],
      "stateMutability": "view",
      "type": "function",
      "constant": true
    },
    {
      "inputs": [
        {
          "internalType": "address",
          "name": "validator",
          "type": "address"
        }
      ],
      "name": "returnValidatorCohortsCount",
      "outputs": [
        {
          "internalType": "uint256",
          "name": "",
          "type": "uint256"
        }
      ],
      "stateMutability": "view",
      "type": "function",
      "constant": true
    },
    {
      "inputs": [
        {
          "internalType": "uint256",
          "name": "audit",
          "type": "uint256"
        },
        {
          "internalType": "address[]",
          "name": "validatorsList",
          "type": "address[]"
        },
        {
          "internalType": "address",
          "name": "enterprise",
          "type": "address"
        }
      ],
      "name": "createCohort",
      "outputs": [
        {
          "internalType": "address",
          "name": "",
          "type": "address"
        }
      ],
      "stateMutability": "nonpayable",
      "type": "function"
    }
  ],
  "bytecode": "0x60806040523480156200001157600080fd5b506040516200414b3803806200414b833981810160405260408110156200003757600080fd5b810190808051906020019092919080519060200190929190505050600073ffffffffffffffffffffffffffffffffffffffff168273ffffffffffffffffffffffffffffffffffffffff161415620000da576040517f08c379a000000000000000000000000000000000000000000000000000000000815260040180806020018281038252603e815260200180620040d4603e913960400191505060405180910390fd5b600073ffffffffffffffffffffffffffffffffffffffff168173ffffffffffffffffffffffffffffffffffffffff16141562000162576040517f08c379a0000000000000000000000000000000000000000000000000000000008152600401808060200182810382526039815260200180620041126039913960400191505060405180910390fd5b81600160006101000a81548173ffffffffffffffffffffffffffffffffffffffff021916908373ffffffffffffffffffffffffffffffffffffffff16021790555080600360006101000a81548173ffffffffffffffffffffffffffffffffffffffff021916908373ffffffffffffffffffffffffffffffffffffffff160217905550620001f96000801b336200020160201b60201c565b505062000397565b6200021382826200021760201b60201c565b5050565b6200024581600080858152602001908152602001600020600001620002ba60201b62000bed1790919060201c565b15620002b6576200025b620002f260201b60201c565b73ffffffffffffffffffffffffffffffffffffffff168173ffffffffffffffffffffffffffffffffffffffff16837f2f8788117e7eff1d82e926ec794901d17c78024a50270940304540a733656f0d60405160405180910390a45b5050565b6000620002ea836000018373ffffffffffffffffffffffffffffffffffffffff1660001b620002fa60201b60201c565b905092915050565b600033905090565b60006200030e83836200037460201b60201c565b620003695782600001829080600181540180825580915050600190039060005260206000200160009091909190915055826000018054905083600101600084815260200190815260200160002081905550600190506200036e565b600090505b92915050565b600080836001016000848152602001908152602001600020541415905092915050565b613d2d80620003a76000396000f3fe608060405234801561001057600080fd5b50600436106100ea5760003560e01c806398c3c1161161008c578063bdd4d18d11610066578063bdd4d18d14610487578063ca15c873146104bb578063d547741f146104fd578063f653bf501461054b576100ea565b806398c3c11614610329578063a217fddf1461035d578063ac680c3f1461037b576100ea565b806336568abe116100c857806336568abe1461019d57806380504a3f146101eb5780639010d07c1461026357806391d14854146102c5576100ea565b8063092c5b3b146100ef578063248a9ca31461010d5780632f2ff15d1461014f575b600080fd5b6100f76105a3565b6040518082815260200191505060405180910390f35b6101396004803603602081101561012357600080fd5b81019080803590602001909291905050506105c7565b6040518082815260200191505060405180910390f35b61019b6004803603604081101561016557600080fd5b8101908080359060200190929190803573ffffffffffffffffffffffffffffffffffffffff1690602001909291905050506105e6565b005b6101e9600480360360408110156101b357600080fd5b8101908080359060200190929190803573ffffffffffffffffffffffffffffffffffffffff16906020019092919050505061066f565b005b6102376004803603604081101561020157600080fd5b81019080803573ffffffffffffffffffffffffffffffffffffffff16906020019092919080359060200190929190505050610708565b604051808273ffffffffffffffffffffffffffffffffffffffff16815260200191505060405180910390f35b6102996004803603604081101561027957600080fd5b810190808035906020019092919080359060200190929190505050610756565b604051808273ffffffffffffffffffffffffffffffffffffffff16815260200191505060405180910390f35b610311600480360360408110156102db57600080fd5b8101908080359060200190929190803573ffffffffffffffffffffffffffffffffffffffff169060200190929190505050610787565b60405180821515815260200191505060405180910390f35b6103316107b8565b604051808273ffffffffffffffffffffffffffffffffffffffff16815260200191505060405180910390f35b6103656107de565b6040518082815260200191505060405180910390f35b61045b6004803603606081101561039157600080fd5b8101908080359060200190929190803590602001906401000000008111156103b857600080fd5b8201836020820111156103ca57600080fd5b803590602001918460208302840111640100000000831117156103ec57600080fd5b919080806020026020016040519081016040528093929190818152602001838360200280828437600081840152601f19601f820116905080830192505050505050509192919290803573ffffffffffffffffffffffffffffffffffffffff1690602001909291905050506107e5565b604051808273ffffffffffffffffffffffffffffffffffffffff16815260200191505060405180910390f35b61048f610acc565b604051808273ffffffffffffffffffffffffffffffffffffffff16815260200191505060405180910390f35b6104e7600480360360208110156104d157600080fd5b8101908080359060200190929190505050610af2565b6040518082815260200191505060405180910390f35b6105496004803603604081101561051357600080fd5b8101908080359060200190929190803573ffffffffffffffffffffffffffffffffffffffff169060200190929190505050610b18565b005b61058d6004803603602081101561056157600080fd5b81019080803573ffffffffffffffffffffffffffffffffffffffff169060200190929190505050610ba1565b6040518082815260200191505060405180910390f35b7f7b765e0e932d348852a6f810bfa1ab891e259123f02db8cdcde614c57022335781565b6000806000838152602001908152602001600020600201549050919050565b61060c60008084815260200190815260200160002060020154610607610c1d565b610787565b610661576040517f08c379a000000000000000000000000000000000000000000000000000000000815260040180806020018281038252602f815260200180613c34602f913960400191505060405180910390fd5b61066b8282610c25565b5050565b610677610c1d565b73ffffffffffffffffffffffffffffffffffffffff168173ffffffffffffffffffffffffffffffffffffffff16146106fa576040517f08c379a000000000000000000000000000000000000000000000000000000000815260040180806020018281038252602f815260200180613cc9602f913960400191505060405180910390fd5b6107048282610cb8565b5050565b6002602052816000526040600020818154811061072457600080fd5b906000526020600020016000915091509054906101000a900473ffffffffffffffffffffffffffffffffffffffff1681565b600061077f82600080868152602001908152602001600020600001610d4b90919063ffffffff16565b905092915050565b60006107b082600080868152602001908152602001600020600001610d6590919063ffffffff16565b905092915050565b600360009054906101000a900473ffffffffffffffffffffffffffffffffffffffff1681565b6000801b81565b60006108117f7b765e0e932d348852a6f810bfa1ab891e259123f02db8cdcde614c57022335733610787565b610866576040517f08c379a0000000000000000000000000000000000000000000000000000000008152600401808060200182810382526036815260200180613c936036913960400191505060405180910390fd5b600060405180602001610878906110ba565b6020820181038252601f19601f82011660405250905060008386604051602001808373ffffffffffffffffffffffffffffffffffffffff1660601b8152601401828152602001925050506040516020818303038152906040528051906020012090506000818351602085016000f590506108f28682610d95565b8073ffffffffffffffffffffffffffffffffffffffff166375d1a9d6600360009054906101000a900473ffffffffffffffffffffffffffffffffffffffff16600160009054906101000a900473ffffffffffffffffffffffffffffffffffffffff16888a8c6040518663ffffffff1660e01b8152600401808673ffffffffffffffffffffffffffffffffffffffff1681526020018573ffffffffffffffffffffffffffffffffffffffff1681526020018473ffffffffffffffffffffffffffffffffffffffff16815260200180602001838152602001828103825284818151815260200191508051906020019060200280838360005b83811015610a035780820151818401526020810190506109e8565b505050509050019650505050505050600060405180830381600087803b158015610a2c57600080fd5b505af1158015610a40573d6000803e3d6000fd5b505050508073ffffffffffffffffffffffffffffffffffffffff168573ffffffffffffffffffffffffffffffffffffffff167f5502dd559b428ec10b5be1a2e8a023f49d08e622d5689579b7fd38d0caa32216896005811115610a9f57fe5b60405180826005811115610aaf57fe5b815260200191505060405180910390a38093505050509392505050565b600160009054906101000a900473ffffffffffffffffffffffffffffffffffffffff1681565b6000610b11600080848152602001908152602001600020600001610e66565b9050919050565b610b3e60008084815260200190815260200160002060020154610b39610c1d565b610787565b610b93576040517f08c379a0000000000000000000000000000000000000000000000000000000008152600401808060200182810382526030815260200180613c636030913960400191505060405180910390fd5b610b9d8282610cb8565b5050565b6000600260008373ffffffffffffffffffffffffffffffffffffffff1673ffffffffffffffffffffffffffffffffffffffff168152602001908152602001600020805490509050919050565b6000610c15836000018373ffffffffffffffffffffffffffffffffffffffff1660001b610e7b565b905092915050565b600033905090565b610c4c81600080858152602001908152602001600020600001610bed90919063ffffffff16565b15610cb457610c59610c1d565b73ffffffffffffffffffffffffffffffffffffffff168173ffffffffffffffffffffffffffffffffffffffff16837f2f8788117e7eff1d82e926ec794901d17c78024a50270940304540a733656f0d60405160405180910390a45b5050565b610cdf81600080858152602001908152602001600020600001610eeb90919063ffffffff16565b15610d4757610cec610c1d565b73ffffffffffffffffffffffffffffffffffffffff168173ffffffffffffffffffffffffffffffffffffffff16837ff6391f5c32d9c69d2a47ea670b442974b53935d1edc7fd64eb21e047a839171b60405160405180910390a45b5050565b6000610d5a8360000183610f1b565b60001c905092915050565b6000610d8d836000018373ffffffffffffffffffffffffffffffffffffffff1660001b610f9e565b905092915050565b60005b8251811015610e615760026000848381518110610db157fe5b602002602001015173ffffffffffffffffffffffffffffffffffffffff1673ffffffffffffffffffffffffffffffffffffffff168152602001908152602001600020829080600181540180825580915050600190039060005260206000200160009091909190916101000a81548173ffffffffffffffffffffffffffffffffffffffff021916908373ffffffffffffffffffffffffffffffffffffffff1602179055508080600101915050610d98565b505050565b6000610e7482600001610fc1565b9050919050565b6000610e878383610f9e565b610ee0578260000182908060018154018082558091505060019003906000526020600020016000909190919091505582600001805490508360010160008481526020019081526020016000208190555060019050610ee5565b600090505b92915050565b6000610f13836000018373ffffffffffffffffffffffffffffffffffffffff1660001b610fd2565b905092915050565b600081836000018054905011610f7c576040517f08c379a0000000000000000000000000000000000000000000000000000000008152600401808060200182810382526022815260200180613c126022913960400191505060405180910390fd5b826000018281548110610f8b57fe5b9060005260206000200154905092915050565b600080836001016000848152602001908152602001600020541415905092915050565b600081600001805490509050919050565b600080836001016000848152602001908152602001600020549050600081146110ae576000600182039050600060018660000180549050039050600086600001828154811061101d57fe5b906000526020600020015490508087600001848154811061103a57fe5b906000526020600020018190555060018301876001016000838152602001908152602001600020819055508660000180548061107257fe5b600190038181906000526020600020016000905590558660010160008781526020019081526020016000206000905560019450505050506110b4565b60009150505b92915050565b612b4a806110c88339019056fe6080604052600f600355604b60045534801561001a57600080fd5b50612b208061002a6000396000f3fe608060405234801561001057600080fd5b50600436106101cf5760003560e01c80639478a8c011610104578063bbe91d10116100a2578063d547741f11610071578063d547741f146108fa578063e28c380214610948578063ebb33a8114610991578063fc7e286d146109f0576101cf565b8063bbe91d10146107f2578063bdd4d18d14610837578063bf1db71e1461086b578063ca15c873146108b8576101cf565b806399ae444a116100de57806399ae444a1461067a578063a2011b3f146106a3578063a217fddf146106c1578063b39fd6cf146106df576101cf565b80639478a8c0146105f457806398c3c1161461062857806398d15e131461065c576101cf565b80637036014e1161017157806388e438fe1161014b57806388e438fe146104be5780639010d07c146105005780639047d7451461056257806391d1485414610590576101cf565b80637036014e1461036057806375d1a9d61461037e578063860008f0146104a0576101cf565b80632faa6619116101ad5780632faa66191461028257806335680dc21461028c57806335aa2e44146102ba57806336568abe14610312576101cf565b8063092c5b3b146101d4578063248a9ca3146101f25780632f2ff15d14610234575b600080fd5b6101dc610a48565b6040518082815260200191505060405180910390f35b61021e6004803603602081101561020857600080fd5b8101908080359060200190929190505050610a6c565b6040518082815260200191505060405180910390f35b6102806004803603604081101561024a57600080fd5b8101908080359060200190929190803573ffffffffffffffffffffffffffffffffffffffff169060200190929190505050610a8b565b005b61028a610b14565b005b6102b8600480360360208110156102a257600080fd5b8101908080359060200190929190505050610bd6565b005b6102e6600480360360208110156102d057600080fd5b8101908080359060200190929190505050610cd6565b604051808273ffffffffffffffffffffffffffffffffffffffff16815260200191505060405180910390f35b61035e6004803603604081101561032857600080fd5b8101908080359060200190929190803573ffffffffffffffffffffffffffffffffffffffff169060200190929190505050610d15565b005b610368610dae565b6040518082815260200191505060405180910390f35b61049e600480360360a081101561039457600080fd5b81019080803573ffffffffffffffffffffffffffffffffffffffff169060200190929190803573ffffffffffffffffffffffffffffffffffffffff169060200190929190803573ffffffffffffffffffffffffffffffffffffffff1690602001909291908035906020019064010000000081111561041157600080fd5b82018360208201111561042357600080fd5b8035906020019184602083028401116401000000008311171561044557600080fd5b919080806020026020016040519081016040528093929190818152602001838360200280828437600081840152601f19601f82011690508083019250505050505050919291929080359060200190929190505050610db4565b005b6104a8611010565b6040518082815260200191505060405180910390f35b6104ea600480360360208110156104d457600080fd5b8101908080359060200190929190505050611016565b6040518082815260200191505060405180910390f35b6105366004803603604081101561051657600080fd5b810190808035906020019092919080359060200190929190505050611365565b604051808273ffffffffffffffffffffffffffffffffffffffff16815260200191505060405180910390f35b61058e6004803603602081101561057857600080fd5b8101908080359060200190929190505050611396565b005b6105dc600480360360408110156105a657600080fd5b8101908080359060200190929190803573ffffffffffffffffffffffffffffffffffffffff16906020019092919050505061180f565b60405180821515815260200191505060405180910390f35b6105fc611840565b604051808273ffffffffffffffffffffffffffffffffffffffff16815260200191505060405180910390f35b610630611866565b604051808273ffffffffffffffffffffffffffffffffffffffff16815260200191505060405180910390f35b61066461188c565b6040518082815260200191505060405180910390f35b610682611892565b6040518082600581111561069257fe5b815260200191505060405180910390f35b6106ab6118a5565b6040518082815260200191505060405180910390f35b6106c96118c9565b6040518082815260200191505060405180910390f35b61070b600480360360208110156106f557600080fd5b81019080803590602001909291905050506118d0565b60405180806020018060200180602001848103845287818151815260200191508051906020019060200280838360005b8381101561075657808201518184015260208101905061073b565b50505050905001848103835286818151815260200191508051906020019060200280838360005b8381101561079857808201518184015260208101905061077d565b50505050905001848103825285818151815260200191508051906020019060200280838360005b838110156107da5780820151818401526020810190506107bf565b50505050905001965050505050505060405180910390f35b6108356004803603606081101561080857600080fd5b810190808035906020019092919080359060200190929190803560ff169060200190929190505050611c12565b005b61083f611f7e565b604051808273ffffffffffffffffffffffffffffffffffffffff16815260200191505060405180910390f35b6108976004803603602081101561088157600080fd5b8101908080359060200190929190505050611fa4565b604051808260028111156108a757fe5b815260200191505060405180910390f35b6108e4600480360360208110156108ce57600080fd5b810190808035906020019092919050505061200e565b6040518082815260200191505060405180910390f35b6109466004803603604081101561091057600080fd5b8101908080359060200190929190803573ffffffffffffffffffffffffffffffffffffffff169060200190929190505050612034565b005b6109746004803603602081101561095e57600080fd5b81019080803590602001909291905050506120bd565b604051808381526020018281526020019250505060405180910390f35b6109996120e1565b6040518080602001828103825283818151815260200191508051906020019060200280838360005b838110156109dc5780820151818401526020810190506109c1565b505050509050019250505060405180910390f35b610a3260048036036020811015610a0657600080fd5b81019080803573ffffffffffffffffffffffffffffffffffffffff16906020019092919050505061216f565b6040518082815260200191505060405180910390f35b7f7b765e0e932d348852a6f810bfa1ab891e259123f02db8cdcde614c57022335781565b6000806000838152602001908152602001600020600201549050919050565b610ab160008084815260200190815260200160002060020154610aac612187565b61180f565b610b06576040517f08c379a000000000000000000000000000000000000000000000000000000000815260040180806020018281038252602f8152602001806127ef602f913960400191505060405180910390fd5b610b10828261218f565b5050565b610b3e7f7b765e0e932d348852a6f810bfa1ab891e259123f02db8cdcde614c5702233573361180f565b610b93576040517f08c379a000000000000000000000000000000000000000000000000000000000815260040180806020018281038252603081526020018061284c6030913960400191505060405180910390fd5b60006007819055507f2abea2711b2c7793f56d98c06108c81584562801d64d5625926743145680018d6007546040518082815260200191505060405180910390a1565b610c007f61c92169ef077349011ff0b1383c894d86c5f0b41d986366b58a6cf31e93beda3361180f565b610c55576040517f08c379a00000000000000000000000000000000000000000000000000000000081526004018080602001828103825260298152602001806129d86029913960400191505060405180910390fd5b6000811415610ccc576040517f08c379a000000000000000000000000000000000000000000000000000000000815260040180806020018281038252601b8152602001807f4e65772071756f72756d2076616c75652063616e27742062652030000000000081525060200191505060405180910390fd5b8060048190555050565b60028181548110610ce657600080fd5b906000526020600020016000915054906101000a900473ffffffffffffffffffffffffffffffffffffffff1681565b610d1d612187565b73ffffffffffffffffffffffffffffffffffffffff168173ffffffffffffffffffffffffffffffffffffffff1614610da0576040517f08c379a000000000000000000000000000000000000000000000000000000000815260040180806020018281038252602f815260200180612abc602f913960400191505060405180910390fd5b610daa8282612222565b5050565b60045481565b600860009054906101000a900460ff1615610e1a576040517f08c379a000000000000000000000000000000000000000000000000000000000815260040180806020018281038252603e81526020018061290e603e913960400191505060405180910390fd5b82600160006101000a81548173ffffffffffffffffffffffffffffffffffffffff021916908373ffffffffffffffffffffffffffffffffffffffff1602179055508160029080519060200190610e71929190612725565b50806005811115610e7e57fe5b600860016101000a81548160ff02191690836005811115610e9b57fe5b021790555084600560006101000a81548173ffffffffffffffffffffffffffffffffffffffff021916908373ffffffffffffffffffffffffffffffffffffffff16021790555083600660006101000a81548173ffffffffffffffffffffffffffffffffffffffff021916908373ffffffffffffffffffffffffffffffffffffffff1602179055506000600560009054906101000a900473ffffffffffffffffffffffffffffffffffffffff1673ffffffffffffffffffffffffffffffffffffffff16639010d07c6000801b60006040518363ffffffff1660e01b8152600401808381526020018281526020019250505060206040518083038186803b158015610fa357600080fd5b505afa158015610fb7573d6000803e3d6000fd5b505050506040513d6020811015610fcd57600080fd5b81019080805190602001909291905050509050610fed6000801b826122b5565b6001600860006101000a81548160ff021916908315150217905550505050505050565b60075481565b600080600080600960008681526020019081526020016000209050600081600001541161108e576040517f08c379a000000000000000000000000000000000000000000000000000000000815260040180806020018281038252603a815260200180612a82603a913960400191505060405180910390fd5b60005b60028054905081101561134d57600660009054906101000a900473ffffffffffffffffffffffffffffffffffffffff1673ffffffffffffffffffffffffffffffffffffffff1663fc7e286d600283815481106110e957fe5b9060005260206000200160009054906101000a900473ffffffffffffffffffffffffffffffffffffffff166040518263ffffffff1660e01b8152600401808273ffffffffffffffffffffffffffffffffffffffff16815260200191505060206040518083038186803b15801561115e57600080fd5b505afa158015611172573d6000803e3d6000fd5b505050506040513d602081101561118857600080fd5b810190808051906020019092919050505084019350600060028111156111aa57fe5b826002016000600284815481106111bd57fe5b9060005260206000200160009054906101000a900473ffffffffffffffffffffffffffffffffffffffff1673ffffffffffffffffffffffffffffffffffffffff1673ffffffffffffffffffffffffffffffffffffffff16815260200190815260200160002060009054906101000a900460ff16600281111561123b57fe5b1461134057600660009054906101000a900473ffffffffffffffffffffffffffffffffffffffff1673ffffffffffffffffffffffffffffffffffffffff1663fc7e286d6002838154811061128b57fe5b9060005260206000200160009054906101000a900473ffffffffffffffffffffffffffffffffffffffff166040518263ffffffff1660e01b8152600401808273ffffffffffffffffffffffffffffffffffffffff16815260200191505060206040518083038186803b15801561130057600080fd5b505afa158015611314573d6000803e3d6000fd5b505050506040513d602081101561132a57600080fd5b8101908080519060200190929190505050830192505b8080600101915050611091565b5082606483028161135a57fe5b049350505050919050565b600061138e826000808681526020019081526020016000206000016122c390919063ffffffff16565b905092915050565b611515612710611507600660009054906101000a900473ffffffffffffffffffffffffffffffffffffffff1673ffffffffffffffffffffffffffffffffffffffff1663a7579be86040518163ffffffff1660e01b815260040160206040518083038186803b15801561140757600080fd5b505afa15801561141b573d6000803e3d6000fd5b505050506040513d602081101561143157600080fd5b81019080805190602001909291905050506114f9600754600660009054906101000a900473ffffffffffffffffffffffffffffffffffffffff1673ffffffffffffffffffffffffffffffffffffffff16634d9c798c6040518163ffffffff1660e01b815260040160206040518083038186803b1580156114b057600080fd5b505afa1580156114c4573d6000803e3d6000fd5b505050506040513d60208110156114da57600080fd5b81019080805190602001909291905050506122dd90919063ffffffff16565b6122dd90919063ffffffff16565b61236390919063ffffffff16565b600660009054906101000a900473ffffffffffffffffffffffffffffffffffffffff1673ffffffffffffffffffffffffffffffffffffffff1663fc7e286d336040518263ffffffff1660e01b8152600401808273ffffffffffffffffffffffffffffffffffffffff16815260200191505060206040518083038186803b15801561159e57600080fd5b505afa1580156115b2573d6000803e3d6000fd5b505050506040513d60208110156115c857600080fd5b81019080805190602001909291905050501161162f576040517f08c379a000000000000000000000000000000000000000000000000000000000815260040180806020018281038252604d815260200180612a01604d913960600191505060405180910390fd5b6000602060ff161161168c576040517f08c379a000000000000000000000000000000000000000000000000000000000815260040180806020018281038252603c8152602001806128d2603c913960400191505060405180910390fd5b3373ffffffffffffffffffffffffffffffffffffffff16600160009054906101000a900473ffffffffffffffffffffffffffffffffffffffff1673ffffffffffffffffffffffffffffffffffffffff1614611732576040517f08c379a000000000000000000000000000000000000000000000000000000000815260040180806020018281038252605681526020018061287c6056913960600191505060405180910390fd5b600042905060008282604051602001808381526020018281526020019250505060405160208183030381529060405280519060200120905060076000815480929190600101919050555060006009600083815260200190815260200160002090504281600001819055503373ffffffffffffffffffffffffffffffffffffffff16837fc6a04694924682b1690a60b473e0ce42fa35b612140f57e8819e8d0a6b01602f8430604051808381526020018273ffffffffffffffffffffffffffffffffffffffff1681526020019250505060405180910390a350505050565b6000611838826000808681526020019081526020016000206000016123ec90919063ffffffff16565b905092915050565b600160009054906101000a900473ffffffffffffffffffffffffffffffffffffffff1681565b600560009054906101000a900473ffffffffffffffffffffffffffffffffffffffff1681565b60035481565b600860019054906101000a900460ff1681565b7f61c92169ef077349011ff0b1383c894d86c5f0b41d986366b58a6cf31e93beda81565b6000801b81565b60608060606000600280548060200260200160405190810160405280929190818152602001828054801561195957602002820191906000526020600020905b8160009054906101000a900473ffffffffffffffffffffffffffffffffffffffff1673ffffffffffffffffffffffffffffffffffffffff168152602001906001019080831161190f575b50505050509050600060028054905067ffffffffffffffff8111801561197e57600080fd5b506040519080825280602002602001820160405280156119ad5781602001602082028036833780820191505090505b509050600060028054905067ffffffffffffffff811180156119ce57600080fd5b506040519080825280602002602001820160405280156119fd5781602001602082028036833780820191505090505b509050600060096000898152602001908152602001600020905060005b600280549050811015611bfd57600660009054906101000a900473ffffffffffffffffffffffffffffffffffffffff1673ffffffffffffffffffffffffffffffffffffffff1663fc7e286d60028381548110611a7257fe5b9060005260206000200160009054906101000a900473ffffffffffffffffffffffffffffffffffffffff166040518263ffffffff1660e01b8152600401808273ffffffffffffffffffffffffffffffffffffffff16815260200191505060206040518083038186803b158015611ae757600080fd5b505afa158015611afb573d6000803e3d6000fd5b505050506040513d6020811015611b1157600080fd5b8101908080519060200190929190505050848281518110611b2e57fe5b60200260200101818152505081600201600060028381548110611b4d57fe5b9060005260206000200160009054906101000a900473ffffffffffffffffffffffffffffffffffffffff1673ffffffffffffffffffffffffffffffffffffffff1673ffffffffffffffffffffffffffffffffffffffff16815260200190815260200160002060009054906101000a900460ff16838281518110611bcc57fe5b60200260200101906002811115611bdf57fe5b90816002811115611bec57fe5b815250508080600101915050611a1a565b50838383965096509650505050509193909250565b6000838360405160200180838152602001828152602001925050506040516020818303038152906040528051906020012090506000600960008381526020019081526020016000209050600660009054906101000a900473ffffffffffffffffffffffffffffffffffffffff1673ffffffffffffffffffffffffffffffffffffffff166318d50d33336040518263ffffffff1660e01b8152600401808273ffffffffffffffffffffffffffffffffffffffff16815260200191505060206040518083038186803b158015611ce557600080fd5b505afa158015611cf9573d6000803e3d6000fd5b505050506040513d6020811015611d0f57600080fd5b8101908080519060200190929190505050611d75576040517f08c379a000000000000000000000000000000000000000000000000000000000815260040180806020018281038252602e81526020018061281e602e913960400191505060405180910390fd5b83816000015414611dd1576040517f08c379a0000000000000000000000000000000000000000000000000000000008152600401808060200182810382526034815260200180612a4e6034913960400191505060405180910390fd5b60006002811115611dde57fe5b8160020160003373ffffffffffffffffffffffffffffffffffffffff1673ffffffffffffffffffffffffffffffffffffffff16815260200190815260200160002060009054906101000a900460ff166002811115611e3857fe5b14611e8e576040517f08c379a000000000000000000000000000000000000000000000000000000000815260040180806020018281038252603b81526020018061294c603b913960400191505060405180910390fd5b828160020160003373ffffffffffffffffffffffffffffffffffffffff1673ffffffffffffffffffffffffffffffffffffffff16815260200190815260200160002060006101000a81548160ff02191690836002811115611eeb57fe5b0217905550600081600101541415611f0757611f068261241c565b5b7f4b83165525e8a33e47863e81a457e20dcf4a5a565ff817e856ac3b232bf5e95733868686604051808573ffffffffffffffffffffffffffffffffffffffff168152602001848152602001838152602001826002811115611f6457fe5b815260200194505050505060405180910390a15050505050565b600660009054906101000a900473ffffffffffffffffffffffffffffffffffffffff1681565b60006009600083815260200190815260200160002060020160003373ffffffffffffffffffffffffffffffffffffffff1673ffffffffffffffffffffffffffffffffffffffff16815260200190815260200160002060009054906101000a900460ff169050919050565b600061202d6000808481526020019081526020016000206000016124a1565b9050919050565b61205a60008084815260200190815260200160002060020154612055612187565b61180f565b6120af576040517f08c379a00000000000000000000000000000000000000000000000000000000081526004018080602001828103825260308152602001806129876030913960400191505060405180910390fd5b6120b98282612222565b5050565b60096020528060005260406000206000915090508060000154908060010154905082565b6060600280548060200260200160405190810160405280929190818152602001828054801561216557602002820191906000526020600020905b8160009054906101000a900473ffffffffffffffffffffffffffffffffffffffff1673ffffffffffffffffffffffffffffffffffffffff168152602001906001019080831161211b575b5050505050905090565b600a6020528060005260406000206000915090505481565b600033905090565b6121b6816000808581526020019081526020016000206000016124b690919063ffffffff16565b1561221e576121c3612187565b73ffffffffffffffffffffffffffffffffffffffff168173ffffffffffffffffffffffffffffffffffffffff16837f2f8788117e7eff1d82e926ec794901d17c78024a50270940304540a733656f0d60405160405180910390a45b5050565b612249816000808581526020019081526020016000206000016124e690919063ffffffff16565b156122b157612256612187565b73ffffffffffffffffffffffffffffffffffffffff168173ffffffffffffffffffffffffffffffffffffffff16837ff6391f5c32d9c69d2a47ea670b442974b53935d1edc7fd64eb21e047a839171b60405160405180910390a45b5050565b6122bf828261218f565b5050565b60006122d28360000183612516565b60001c905092915050565b6000808314156122f0576000905061235d565b600082840290508284828161230157fe5b0414612358576040517f08c379a00000000000000000000000000000000000000000000000000000000081526004018080602001828103825260218152602001806129b76021913960400191505060405180910390fd5b809150505b92915050565b60008082116123da576040517f08c379a000000000000000000000000000000000000000000000000000000000815260040180806020018281038252601a8152602001807f536166654d6174683a206469766973696f6e206279207a65726f00000000000081525060200191505060405180910390fd5b8183816123e357fe5b04905092915050565b6000612414836000018373ffffffffffffffffffffffffffffffffffffffff1660001b612599565b905092915050565b60045461242882611016565b1061249e57600060096000838152602001908152602001600020905042816001018190555042827f4641078b78dd9bebdf6f33ac78436683380992cde468d54bb56ffe15b0850bdd30604051808273ffffffffffffffffffffffffffffffffffffffff16815260200191505060405180910390a3505b50565b60006124af826000016125bc565b9050919050565b60006124de836000018373ffffffffffffffffffffffffffffffffffffffff1660001b6125cd565b905092915050565b600061250e836000018373ffffffffffffffffffffffffffffffffffffffff1660001b61263d565b905092915050565b600081836000018054905011612577576040517f08c379a00000000000000000000000000000000000000000000000000000000081526004018080602001828103825260228152602001806127cd6022913960400191505060405180910390fd5b82600001828154811061258657fe5b9060005260206000200154905092915050565b600080836001016000848152602001908152602001600020541415905092915050565b600081600001805490509050919050565b60006125d98383612599565b612632578260000182908060018154018082558091505060019003906000526020600020016000909190919091505582600001805490508360010160008481526020019081526020016000208190555060019050612637565b600090505b92915050565b60008083600101600084815260200190815260200160002054905060008114612719576000600182039050600060018660000180549050039050600086600001828154811061268857fe5b90600052602060002001549050808760000184815481106126a557fe5b90600052602060002001819055506001830187600101600083815260200190815260200160002081905550866000018054806126dd57fe5b6001900381819060005260206000200160009055905586600101600087815260200190815260200160002060009055600194505050505061271f565b60009150505b92915050565b82805482825590600052602060002090810192821561279e579160200282015b8281111561279d5782518260006101000a81548173ffffffffffffffffffffffffffffffffffffffff021916908373ffffffffffffffffffffffffffffffffffffffff16021790555091602001919060010190612745565b5b5090506127ab91906127af565b5090565b5b808211156127c85760008160009055506001016127b0565b509056fe456e756d657261626c655365743a20696e646578206f7574206f6620626f756e6473416363657373436f6e74726f6c3a2073656e646572206d75737420626520616e2061646d696e20746f206772616e74436f686f72743a76616c6964617465202d2056616c696461746f72206973206e6f7420617574686f72697a65642e436f686f72743a6973436f6e74726f6c6c6572202d2043616c6c6572206973206e6f74206120636f6e74726f6c6c6572436f686f72743a696e697469616c697a6556616c69646174696f6e202d204f6e6c7920656e7465727072697365206f77696e67207468697320636f686f72742063616e2063616c6c20746869732066756e6374696f6e436f686f72743a696e697469616c697a6556616c69646174696f6e202d20446f63756d656e7420686173682076616c75652063616e27742062652030436f686f72743a696e697469616c697a65202d207468697320436f686f727420686173206265656e20616c726561647920696e697469616c697a65642e20436f686f72743a76616c6964617465202d205468697320646f63756d656e7420686173206265656e2076616c69646174656420616c72656164792e416363657373436f6e74726f6c3a2073656e646572206d75737420626520616e2061646d696e20746f207265766f6b65536166654d6174683a206d756c7469706c69636174696f6e206f766572666c6f774d656d626572733a6973536574746572202d2043616c6c6572206973206e6f74206120736574746572436f686f72743a696e697469616c697a6556616c69646174696f6e202d204e6f742073756666696369656e742066756e64732e204465706f736974206164646974696f6e616c2066756e64732e436f686f72743a76616c6964617465202d207468652076616c69646174696f6e20706172616d7320646f6e2774206d617463682e436f686f72743a63616c63756c617465566f746551756f72756d202d2056616c69646174696f6e206861736820646f65736e2774206578697374416363657373436f6e74726f6c3a2063616e206f6e6c792072656e6f756e636520726f6c657320666f722073656c66a26469706673582212207351c5b9129f5502b8e66b04078edb859fdcf4b856ad7561a4bd012cd955ec0f64736f6c63430007060033456e756d657261626c655365743a20696e646578206f7574206f6620626f756e6473416363657373436f6e74726f6c3a2073656e646572206d75737420626520616e2061646d696e20746f206772616e74416363657373436f6e74726f6c3a2073656e646572206d75737420626520616e2061646d696e20746f207265766f6b65437265617465436f686f72743a637265617465436f686f7274202d2043616c6c6572206973206e6f74206120636f6e74726f6c6c6572416363657373436f6e74726f6c3a2063616e206f6e6c792072656e6f756e636520726f6c657320666f722073656c66a2646970667358221220194a326e8f16a2c8ccab434e6998fa0a02ebd4847c99fe77af9de8b1f591a59d64736f6c63430007060033437265617465436f686f72743a636f6e7374727563746f72202d204d656d6265727320636f6e747261637420616464726573732063616e27742062652030437265617465436f686f72743a636f6e7374727563746f72202d20417564697420546f6b656e20616464726573732063616e27742062652030",
  "immutableReferences": {},
  "source": "// SPDX-License-Identifier: MIT\npragma solidity =0.7.6;\nimport \"@openzeppelin/contracts/access/AccessControl.sol\";\nimport \"./Cohort.sol\";\nimport \"./Members.sol\";\n\n/**\n * @title CohortCreation\n * @dev AccessControl \n\n */\n\ncontract CreateCohort is  AccessControl {\n\n    // Audit types to be used. Three types added for future expansion \n    enum AuditTypes {\n        Financial,\n        System,\n        Contract,\n        Type4,\n        Type5,\n        Type6\n    }\n\n    \n\n    Members public members;                                     // pointer to Members contract\n    mapping (address => address[]) public validatorCohortList;  // list of validators\n    address public auditToken;                                  // AUDT token contract\n\n    event CohortCreatedFinal(address indexed enterprise, address indexed cohort, AuditTypes audits);\n    bytes32 public constant CONTROLLER_ROLE = keccak256(\"CONTROLLER_ROLE\");  \n\n\n\n\n\n\n    constructor(address _members, address _auditTokenAddress ) {\n        require (_members != address(0), \"CreateCohort:constructor - Members contract address can't be 0\");\n        require (_auditTokenAddress != address(0), \"CreateCohort:constructor - Audit Token address can't be 0\");\n        members = Members(_members);\n        auditToken = _auditTokenAddress;\n        _setupRole(DEFAULT_ADMIN_ROLE, msg.sender); // \n    }\n\n\n    /**\n    * @dev Used to determine cohorts count for given validator\n    * @param validator address of the validator\n    */\n    function returnValidatorCohortsCount(address validator) public view returns (uint256){\n        return validatorCohortList[validator].length;\n    }\n   \n\n    /**\n    * @dev create a list of validators to be initialized in new cohort   \n    * @param validators any array of address of the validators\n    * @param cohort in which the validators should be initialized     \n    */\n    function createValidatorCohortList(address[] memory validators, address cohort) internal {\n\n        for (uint256 i=0; i< validators.length; i++){\n            validatorCohortList[validators[i]].push(cohort);\n        }\n    }\n\n    /**\n    * @dev creates a new cohort using create2 methods based on the audit type\n    * it is called from cohortFactory. \n    * @param audit type\n    */\n    function createCohort(uint256 audit,  address[] memory validatorsList, address enterprise ) public returns(address) {\n\n        require(hasRole(CONTROLLER_ROLE, msg.sender), \"CreateCohort:createCohort - Caller is not a controller\");\n\n        bytes memory bytecode = type(Cohort).creationCode;        \n        bytes32 salt = keccak256(abi.encodePacked(enterprise, audit));\n\n\n        address cohortAddress;           \n        assembly {\n            cohortAddress := create2(0, add(bytecode, 32), mload(bytecode), salt)\n        }\n        createValidatorCohortList(validatorsList, cohortAddress);\n        Cohort(cohortAddress).initialize(auditToken, members, enterprise, validatorsList, uint256(audit));\n    \n        emit CohortCreatedFinal(enterprise, cohortAddress, AuditTypes(audit));\n        return cohortAddress;\n    } \n}",
  "sourcePath": "/home/bogdan/Ethereum/Projects/TGE/Core-Smart-Contracts-v1/contracts/Auditchain/CreateCohort.sol",
  "compiler": {
    "name": "solc",
    "version": "0.7.6+commit.7338295f.Emscripten.clang"
  },
  "schemaVersion": "3.3.4",
  "updatedAt": "2021-03-17T23:25:23.598Z",
  "networkType": "ethereum",
  "devdoc": {
    "details": "AccessControl ",
    "kind": "dev",
    "methods": {
      "createCohort(uint256,address[],address)": {
        "details": "creates a new cohort using create2 methods based on the audit type it is called from cohortFactory. ",
        "params": {
          "audit": "type"
        }
      },
      "getRoleAdmin(bytes32)": {
        "details": "Returns the admin role that controls `role`. See {grantRole} and {revokeRole}. To change a role's admin, use {_setRoleAdmin}."
      },
      "getRoleMember(bytes32,uint256)": {
        "details": "Returns one of the accounts that have `role`. `index` must be a value between 0 and {getRoleMemberCount}, non-inclusive. Role bearers are not sorted in any particular way, and their ordering may change at any point. WARNING: When using {getRoleMember} and {getRoleMemberCount}, make sure you perform all queries on the same block. See the following https://forum.openzeppelin.com/t/iterating-over-elements-on-enumerableset-in-openzeppelin-contracts/2296[forum post] for more information."
      },
      "getRoleMemberCount(bytes32)": {
        "details": "Returns the number of accounts that have `role`. Can be used together with {getRoleMember} to enumerate all bearers of a role."
      },
      "grantRole(bytes32,address)": {
        "details": "Grants `role` to `account`. If `account` had not been already granted `role`, emits a {RoleGranted} event. Requirements: - the caller must have ``role``'s admin role."
      },
      "hasRole(bytes32,address)": {
        "details": "Returns `true` if `account` has been granted `role`."
      },
      "renounceRole(bytes32,address)": {
        "details": "Revokes `role` from the calling account. Roles are often managed via {grantRole} and {revokeRole}: this function's purpose is to provide a mechanism for accounts to lose their privileges if they are compromised (such as when a trusted device is misplaced). If the calling account had been granted `role`, emits a {RoleRevoked} event. Requirements: - the caller must be `account`."
      },
      "returnValidatorCohortsCount(address)": {
        "details": "Used to determine cohorts count for given validator",
        "params": {
          "validator": "address of the validator"
        }
      },
      "revokeRole(bytes32,address)": {
        "details": "Revokes `role` from `account`. If `account` had been granted `role`, emits a {RoleRevoked} event. Requirements: - the caller must have ``role``'s admin role."
      }
    },
    "title": "CohortCreation",
    "version": 1
  },
  "userdoc": {
    "kind": "user",
    "methods": {},
    "version": 1
  }
}