{
  "contractName": "DepositModifiers",
  "abi": [
    {
      "inputs": [
        {
          "internalType": "address",
          "name": "_members",
          "type": "address"
        },
        {
          "internalType": "address",
          "name": "_auditToken",
          "type": "address"
        },
        {
          "internalType": "address",
          "name": "_memberHelpers",
          "type": "address"
        },
        {
          "internalType": "address",
          "name": "_cohortFactory",
          "type": "address"
        },
        {
          "internalType": "address",
          "name": "_nodeOperations",
          "type": "address"
        }
      ],
      "stateMutability": "nonpayable",
      "type": "constructor"
    },
    {
      "anonymous": false,
      "inputs": [
        {
          "indexed": true,
          "internalType": "address",
          "name": "from",
          "type": "address"
        },
        {
          "indexed": false,
          "internalType": "uint256",
          "name": "accessFee",
          "type": "uint256"
        },
        {
          "indexed": true,
          "internalType": "uint256",
          "name": "audits",
          "type": "uint256"
        },
        {
          "indexed": false,
          "internalType": "address",
          "name": "enterprise",
          "type": "address"
        },
        {
          "indexed": false,
          "internalType": "uint256",
          "name": "enterpriseShare",
          "type": "uint256"
        }
      ],
      "name": "LogDataSubscriberPaid",
      "type": "event"
    },
    {
      "anonymous": false,
      "inputs": [
        {
          "indexed": false,
          "internalType": "address",
          "name": "from",
          "type": "address"
        },
        {
          "indexed": true,
          "internalType": "address",
          "name": "validator",
          "type": "address"
        },
        {
          "indexed": false,
          "internalType": "uint256",
          "name": "amount",
          "type": "uint256"
        }
      ],
      "name": "LogDataSubscriberValidatorPaid",
      "type": "event"
    },
    {
      "anonymous": false,
      "inputs": [
        {
          "indexed": true,
          "internalType": "address",
          "name": "validator",
          "type": "address"
        },
        {
          "indexed": false,
          "internalType": "uint256",
          "name": "tokens",
          "type": "uint256"
        },
        {
          "indexed": false,
          "internalType": "bytes32",
          "name": "validationHash",
          "type": "bytes32"
        }
      ],
      "name": "LogFeesReceived",
      "type": "event"
    },
    {
      "anonymous": false,
      "inputs": [
        {
          "indexed": true,
          "internalType": "address",
          "name": "requestor",
          "type": "address"
        },
        {
          "indexed": false,
          "internalType": "address",
          "name": "winner",
          "type": "address"
        },
        {
          "indexed": false,
          "internalType": "bytes32",
          "name": "validationHash",
          "type": "bytes32"
        },
        {
          "indexed": false,
          "internalType": "uint256",
          "name": "amount",
          "type": "uint256"
        }
      ],
      "name": "LogNonCohortValidationPaid",
      "type": "event"
    },
    {
      "anonymous": false,
      "inputs": [
        {
          "indexed": false,
          "internalType": "uint256",
          "name": "tokens",
          "type": "uint256"
        },
        {
          "indexed": false,
          "internalType": "uint256",
          "name": "enterpriseAmount",
          "type": "uint256"
        },
        {
          "indexed": true,
          "internalType": "address",
          "name": "enterprise",
          "type": "address"
        },
        {
          "indexed": false,
          "internalType": "bytes32",
          "name": "validationHash",
          "type": "bytes32"
        }
      ],
      "name": "LogRewardsDeposited",
      "type": "event"
    },
    {
      "anonymous": false,
      "inputs": [
        {
          "indexed": false,
          "internalType": "address",
          "name": "subscriber",
          "type": "address"
        },
        {
          "indexed": false,
          "internalType": "uint256",
          "name": "numberOfSubscriptions",
          "type": "uint256"
        }
      ],
      "name": "LogSubscriptionCompleted",
      "type": "event"
    },
    {
      "anonymous": false,
      "inputs": [
        {
          "indexed": true,
          "internalType": "bytes32",
          "name": "role",
          "type": "bytes32"
        },
        {
          "indexed": true,
          "internalType": "bytes32",
          "name": "previousAdminRole",
          "type": "bytes32"
        },
        {
          "indexed": true,
          "internalType": "bytes32",
          "name": "newAdminRole",
          "type": "bytes32"
        }
      ],
      "name": "RoleAdminChanged",
      "type": "event"
    },
    {
      "anonymous": false,
      "inputs": [
        {
          "indexed": true,
          "internalType": "bytes32",
          "name": "role",
          "type": "bytes32"
        },
        {
          "indexed": true,
          "internalType": "address",
          "name": "account",
          "type": "address"
        },
        {
          "indexed": true,
          "internalType": "address",
          "name": "sender",
          "type": "address"
        }
      ],
      "name": "RoleGranted",
      "type": "event"
    },
    {
      "anonymous": false,
      "inputs": [
        {
          "indexed": true,
          "internalType": "bytes32",
          "name": "role",
          "type": "bytes32"
        },
        {
          "indexed": true,
          "internalType": "address",
          "name": "account",
          "type": "address"
        },
        {
          "indexed": true,
          "internalType": "address",
          "name": "sender",
          "type": "address"
        }
      ],
      "name": "RoleRevoked",
      "type": "event"
    },
    {
      "inputs": [],
      "name": "CONTROLLER_ROLE",
      "outputs": [
        {
          "internalType": "bytes32",
          "name": "",
          "type": "bytes32"
        }
      ],
      "stateMutability": "view",
      "type": "function"
    },
    {
      "inputs": [],
      "name": "DEFAULT_ADMIN_ROLE",
      "outputs": [
        {
          "internalType": "bytes32",
          "name": "",
          "type": "bytes32"
        }
      ],
      "stateMutability": "view",
      "type": "function"
    },
    {
      "inputs": [],
      "name": "auditToken",
      "outputs": [
        {
          "internalType": "address",
          "name": "",
          "type": "address"
        }
      ],
      "stateMutability": "view",
      "type": "function"
    },
    {
      "inputs": [],
      "name": "cohortFactory",
      "outputs": [
        {
          "internalType": "contract ICohortFactory",
          "name": "",
          "type": "address"
        }
      ],
      "stateMutability": "view",
      "type": "function"
    },
    {
      "inputs": [
        {
          "internalType": "address",
          "name": "",
          "type": "address"
        },
        {
          "internalType": "address",
          "name": "",
          "type": "address"
        },
        {
          "internalType": "uint256",
          "name": "",
          "type": "uint256"
        }
      ],
      "name": "dataSubscriberCohortMap",
      "outputs": [
        {
          "internalType": "bool",
          "name": "",
          "type": "bool"
        }
      ],
      "stateMutability": "view",
      "type": "function"
    },
    {
      "inputs": [
        {
          "internalType": "address",
          "name": "",
          "type": "address"
        },
        {
          "internalType": "uint256",
          "name": "",
          "type": "uint256"
        }
      ],
      "name": "dataSubscriberCohorts",
      "outputs": [
        {
          "internalType": "address",
          "name": "cohort",
          "type": "address"
        },
        {
          "internalType": "uint256",
          "name": "audits",
          "type": "uint256"
        }
      ],
      "stateMutability": "view",
      "type": "function"
    },
    {
      "inputs": [
        {
          "internalType": "bytes32",
          "name": "role",
          "type": "bytes32"
        }
      ],
      "name": "getRoleAdmin",
      "outputs": [
        {
          "internalType": "bytes32",
          "name": "",
          "type": "bytes32"
        }
      ],
      "stateMutability": "view",
      "type": "function"
    },
    {
      "inputs": [
        {
          "internalType": "bytes32",
          "name": "role",
          "type": "bytes32"
        },
        {
          "internalType": "address",
          "name": "account",
          "type": "address"
        }
      ],
      "name": "grantRole",
      "outputs": [],
      "stateMutability": "nonpayable",
      "type": "function"
    },
    {
      "inputs": [
        {
          "internalType": "bytes32",
          "name": "role",
          "type": "bytes32"
        },
        {
          "internalType": "address",
          "name": "account",
          "type": "address"
        }
      ],
      "name": "hasRole",
      "outputs": [
        {
          "internalType": "bool",
          "name": "",
          "type": "bool"
        }
      ],
      "stateMutability": "view",
      "type": "function"
    },
    {
      "inputs": [],
      "name": "memberHelpers",
      "outputs": [
        {
          "internalType": "contract MemberHelpers",
          "name": "",
          "type": "address"
        }
      ],
      "stateMutability": "view",
      "type": "function"
    },
    {
      "inputs": [],
      "name": "nodeOperations",
      "outputs": [
        {
          "internalType": "contract INodeOperations",
          "name": "",
          "type": "address"
        }
      ],
      "stateMutability": "view",
      "type": "function"
    },
    {
      "inputs": [
        {
          "internalType": "bytes32",
          "name": "role",
          "type": "bytes32"
        },
        {
          "internalType": "address",
          "name": "account",
          "type": "address"
        }
      ],
      "name": "renounceRole",
      "outputs": [],
      "stateMutability": "nonpayable",
      "type": "function"
    },
    {
      "inputs": [
        {
          "internalType": "bytes32",
          "name": "role",
          "type": "bytes32"
        },
        {
          "internalType": "address",
          "name": "account",
          "type": "address"
        }
      ],
      "name": "revokeRole",
      "outputs": [],
      "stateMutability": "nonpayable",
      "type": "function"
    },
    {
      "inputs": [
        {
          "internalType": "bytes4",
          "name": "interfaceId",
          "type": "bytes4"
        }
      ],
      "name": "supportsInterface",
      "outputs": [
        {
          "internalType": "bool",
          "name": "",
          "type": "bool"
        }
      ],
      "stateMutability": "view",
      "type": "function"
    },
    {
      "inputs": [
        {
          "internalType": "address",
          "name": "enterpriseAddress",
          "type": "address"
        },
        {
          "internalType": "uint256",
          "name": "audits",
          "type": "uint256"
        }
      ],
      "name": "dataSubscriberPayment",
      "outputs": [],
      "stateMutability": "nonpayable",
      "type": "function"
    },
    {
      "inputs": [
        {
          "internalType": "address[]",
          "name": "enterprise",
          "type": "address[]"
        },
        {
          "internalType": "uint256[]",
          "name": "audits",
          "type": "uint256[]"
        }
      ],
      "name": "dataSubscriberPaymentMultiple",
      "outputs": [],
      "stateMutability": "nonpayable",
      "type": "function"
    },
    {
      "inputs": [
        {
          "internalType": "address",
          "name": "winner",
          "type": "address"
        },
        {
          "internalType": "address",
          "name": "_requestor",
          "type": "address"
        },
        {
          "internalType": "bytes32",
          "name": "validationHash",
          "type": "bytes32"
        }
      ],
      "name": "processPayment",
      "outputs": [],
      "stateMutability": "nonpayable",
      "type": "function"
    },
    {
      "inputs": [
        {
          "internalType": "address",
          "name": "_winner",
          "type": "address"
        },
        {
          "internalType": "address",
          "name": "_requestor",
          "type": "address"
        },
        {
          "internalType": "bytes32",
          "name": "validationHash",
          "type": "bytes32"
        }
      ],
      "name": "processNonChortPayment",
      "outputs": [],
      "stateMutability": "nonpayable",
      "type": "function"
    },
    {
      "inputs": [
        {
          "internalType": "address",
          "name": "subscriber",
          "type": "address"
        }
      ],
      "name": "returnCohortsForDataSubscriber",
      "outputs": [
        {
          "components": [
            {
              "internalType": "address",
              "name": "cohort",
              "type": "address"
            },
            {
              "internalType": "uint256",
              "name": "audits",
              "type": "uint256"
            }
          ],
          "internalType": "struct DepositModifiers.DataSubscriberTypes[]",
          "name": "",
          "type": "tuple[]"
        }
      ],
      "stateMutability": "view",
      "type": "function"
    }
  ],
  "bytecode": "0x60806040523480156200001157600080fd5b5060405162004b0938038062004b0983398181016040528101906200003791906200039f565b600073ffffffffffffffffffffffffffffffffffffffff168573ffffffffffffffffffffffffffffffffffffffff161415620000aa576040517f08c379a0000000000000000000000000000000000000000000000000000000008152600401620000a19062000489565b60405180910390fd5b84600260006101000a81548173ffffffffffffffffffffffffffffffffffffffff021916908373ffffffffffffffffffffffffffffffffffffffff16021790555083600160006101000a81548173ffffffffffffffffffffffffffffffffffffffff021916908373ffffffffffffffffffffffffffffffffffffffff16021790555082600360006101000a81548173ffffffffffffffffffffffffffffffffffffffff021916908373ffffffffffffffffffffffffffffffffffffffff16021790555081600460006101000a81548173ffffffffffffffffffffffffffffffffffffffff021916908373ffffffffffffffffffffffffffffffffffffffff16021790555080600560006101000a81548173ffffffffffffffffffffffffffffffffffffffff021916908373ffffffffffffffffffffffffffffffffffffffff160217905550620002046000801b336200020f60201b60201c565b50505050506200050a565b6200022182826200022560201b60201c565b5050565b6200023782826200031660201b60201c565b6200031257600160008084815260200190815260200160002060000160008373ffffffffffffffffffffffffffffffffffffffff1673ffffffffffffffffffffffffffffffffffffffff16815260200190815260200160002060006101000a81548160ff021916908315150217905550620002b76200038060201b60201c565b73ffffffffffffffffffffffffffffffffffffffff168173ffffffffffffffffffffffffffffffffffffffff16837f2f8788117e7eff1d82e926ec794901d17c78024a50270940304540a733656f0d60405160405180910390a45b5050565b600080600084815260200190815260200160002060000160008373ffffffffffffffffffffffffffffffffffffffff1673ffffffffffffffffffffffffffffffffffffffff16815260200190815260200160002060009054906101000a900460ff16905092915050565b600033905090565b6000815190506200039981620004f0565b92915050565b600080600080600060a08688031215620003b857600080fd5b6000620003c88882890162000388565b9550506020620003db8882890162000388565b9450506040620003ee8882890162000388565b9350506060620004018882890162000388565b9250506080620004148882890162000388565b9150509295509295909350565b600062000430603783620004ab565b91507f4465706f7369744d6f6469666965723a636f6e7374727563746f72202d204d6560008301527f6d62657220616464726573732063616e277420626520300000000000000000006020830152604082019050919050565b60006020820190508181036000830152620004a48162000421565b9050919050565b600082825260208201905092915050565b6000620004c982620004d0565b9050919050565b600073ffffffffffffffffffffffffffffffffffffffff82169050919050565b620004fb81620004bc565b81146200050757600080fd5b50565b6145ef806200051a6000396000f3fe608060405234801561001057600080fd5b50600436106101215760003560e01c8063525d14d8116100ad57806398c3c1161161007157806398c3c1161461032f578063a217fddf1461034d578063a5cfbb311461036b578063d547741f14610387578063dc8c62c8146103a357610121565b8063525d14d81461027857806371d8c7a01461029457806382d51ba8146102b25780638ab134e8146102e357806391d14854146102ff57610121565b8063248a9ca3116100f4578063248a9ca3146101c25780632f2ff15d146101f257806332cd42441461020e57806336568abe1461023e5780634bd4545f1461025a57610121565b806301ffc9a714610126578063092c5b3b146101565780631476ad211461017457806320120ffa146101a4575b600080fd5b610140600480360381019061013b919061345f565b6103bf565b60405161014d9190613dfc565b60405180910390f35b61015e610439565b60405161016b9190613e17565b60405180910390f35b61018e60048036038101906101899190613299565b61045d565b60405161019b9190613dfc565b60405180910390f35b6101ac610499565b6040516101b99190613e4d565b60405180910390f35b6101dc60048036038101906101d791906133fa565b6104bf565b6040516101e99190613e17565b60405180910390f35b61020c60048036038101906102079190613423565b6104de565b005b610228600480360381019061022391906131f8565b610507565b6040516102359190613dda565b60405180910390f35b61025860048036038101906102539190613423565b610605565b005b610262610688565b60405161026f9190613e32565b60405180910390f35b610292600480360381019061028d9190613365565b6106ae565b005b61029c6107e0565b6040516102a99190613e68565b60405180910390f35b6102cc60048036038101906102c791906132e8565b610806565b6040516102da929190613db1565b60405180910390f35b6102fd60048036038101906102f891906132e8565b610867565b005b61031960048036038101906103149190613423565b61150e565b6040516103269190613dfc565b60405180910390f35b610337611578565b6040516103449190613cff565b60405180910390f35b61035561159e565b6040516103629190613e17565b60405180910390f35b6103856004803603810190610380919061324a565b6115a5565b005b6103a1600480360381019061039c9190613423565b611e4b565b005b6103bd60048036038101906103b8919061324a565b611e74565b005b60007f7965db0b000000000000000000000000000000000000000000000000000000007bffffffffffffffffffffffffffffffffffffffffffffffffffffffff1916827bffffffffffffffffffffffffffffffffffffffffffffffffffffffff19161480610432575061043182612157565b5b9050919050565b7f7b765e0e932d348852a6f810bfa1ab891e259123f02db8cdcde614c57022335781565b6007602052826000526040600020602052816000526040600020602052806000526040600020600092509250509054906101000a900460ff1681565b600560009054906101000a900473ffffffffffffffffffffffffffffffffffffffff1681565b6000806000838152602001908152602001600020600101549050919050565b6104e7826104bf565b6104f8816104f36121c1565b6121c9565b6105028383612266565b505050565b6060600660008373ffffffffffffffffffffffffffffffffffffffff1673ffffffffffffffffffffffffffffffffffffffff168152602001908152602001600020805480602002602001604051908101604052809291908181526020016000905b828210156105fa57838290600052602060002090600202016040518060400160405290816000820160009054906101000a900473ffffffffffffffffffffffffffffffffffffffff1673ffffffffffffffffffffffffffffffffffffffff1673ffffffffffffffffffffffffffffffffffffffff16815260200160018201548152505081526020019060010190610568565b505050509050919050565b61060d6121c1565b73ffffffffffffffffffffffffffffffffffffffff168173ffffffffffffffffffffffffffffffffffffffff161461067a576040517f08c379a000000000000000000000000000000000000000000000000000000000815260040161067190613fc5565b60405180910390fd5b6106848282612346565b5050565b600460009054906101000a900473ffffffffffffffffffffffffffffffffffffffff1681565b6000825190506101008111156106f9576040517f08c379a00000000000000000000000000000000000000000000000000000000081526004016106f090613fe5565b60405180910390fd5b60005b818110156107a15761078e848281518110610740577f4e487b7100000000000000000000000000000000000000000000000000000000600052603260045260246000fd5b6020026020010151848381518110610781577f4e487b7100000000000000000000000000000000000000000000000000000000600052603260045260246000fd5b6020026020010151610867565b80806107999061441c565b9150506106fc565b507fe0b9e94ab5fbe92a5c1fcdc7f3dba88b173c784bda0772e4998afde00857526833826040516107d3929190613db1565b60405180910390a1505050565b600360009054906101000a900473ffffffffffffffffffffffffffffffffffffffff1681565b6006602052816000526040600020818154811061082257600080fd5b9060005260206000209060020201600091509150508060000160009054906101000a900473ffffffffffffffffffffffffffffffffffffffff16908060010154905082565b600073ffffffffffffffffffffffffffffffffffffffff168273ffffffffffffffffffffffffffffffffffffffff1614156108d7576040517f08c379a00000000000000000000000000000000000000000000000000000000081526004016108ce90613ec5565b60405180910390fd5b600081101580156108e9575060058111155b610928576040517f08c379a000000000000000000000000000000000000000000000000000000000815260040161091f90613f65565b60405180910390fd5b600760003373ffffffffffffffffffffffffffffffffffffffff1673ffffffffffffffffffffffffffffffffffffffff16815260200190815260200160002060008373ffffffffffffffffffffffffffffffffffffffff1673ffffffffffffffffffffffffffffffffffffffff168152602001908152602001600020600082815260200190815260200160002060009054906101000a900460ff1615610a03576040517f08c379a00000000000000000000000000000000000000000000000000000000081526004016109fa90613f25565b60405180910390fd5b600260009054906101000a900473ffffffffffffffffffffffffffffffffffffffff1673ffffffffffffffffffffffffffffffffffffffff16636f9cf98533600280811115610a7b577f4e487b7100000000000000000000000000000000000000000000000000000000600052602160045260246000fd5b6040518363ffffffff1660e01b8152600401610a98929190613d88565b60206040518083038186803b158015610ab057600080fd5b505afa158015610ac4573d6000803e3d6000fd5b505050506040513d601f19601f82011682018060405250810190610ae891906133d1565b610b27576040517f08c379a0000000000000000000000000000000000000000000000000000000008152600401610b1e90613ee5565b60405180910390fd5b6000600260009054906101000a900473ffffffffffffffffffffffffffffffffffffffff1673ffffffffffffffffffffffffffffffffffffffff1663492b85cd6040518163ffffffff1660e01b815260040160206040518083038186803b158015610b9157600080fd5b505afa158015610ba5573d6000803e3d6000fd5b505050506040513d601f19601f82011682018060405250810190610bc99190613488565b905080600360009054906101000a900473ffffffffffffffffffffffffffffffffffffffff1673ffffffffffffffffffffffffffffffffffffffff16638319d390336040518263ffffffff1660e01b8152600401610c279190613cff565b60206040518083038186803b158015610c3f57600080fd5b505afa158015610c53573d6000803e3d6000fd5b505050506040513d601f19601f82011682018060405250810190610c779190613488565b1015610cb8576040517f08c379a0000000000000000000000000000000000000000000000000000000008152600401610caf90613f45565b60405180910390fd5b610d07333083600160009054906101000a900473ffffffffffffffffffffffffffffffffffffffff1673ffffffffffffffffffffffffffffffffffffffff16612427909392919063ffffffff16565b6000610e6d600260009054906101000a900473ffffffffffffffffffffffffffffffffffffffff1673ffffffffffffffffffffffffffffffffffffffff1663e9b6c9756040518163ffffffff1660e01b815260040160206040518083038186803b158015610d7457600080fd5b505afa158015610d88573d6000803e3d6000fd5b505050506040513d601f19601f82011682018060405250810190610dac9190613488565b610e5f600260009054906101000a900473ffffffffffffffffffffffffffffffffffffffff1673ffffffffffffffffffffffffffffffffffffffff1663dac95d416040518163ffffffff1660e01b815260040160206040518083038186803b158015610e1757600080fd5b505afa158015610e2b573d6000803e3d6000fd5b505050506040513d601f19601f82011682018060405250810190610e4f9190613488565b60646124b090919063ffffffff16565b6124b090919063ffffffff16565b9050610f80600260009054906101000a900473ffffffffffffffffffffffffffffffffffffffff1673ffffffffffffffffffffffffffffffffffffffff1663dbe55e566040518163ffffffff1660e01b815260040160206040518083038186803b158015610eda57600080fd5b505afa158015610eee573d6000803e3d6000fd5b505050506040513d601f19601f82011682018060405250810190610f129190613221565b610f386064610f2a85876124c690919063ffffffff16565b6124dc90919063ffffffff16565b600160009054906101000a900473ffffffffffffffffffffffffffffffffffffffff1673ffffffffffffffffffffffffffffffffffffffff166124f29092919063ffffffff16565b600260009054906101000a900473ffffffffffffffffffffffffffffffffffffffff1673ffffffffffffffffffffffffffffffffffffffff16636f9cf98533600280811115610ff8577f4e487b7100000000000000000000000000000000000000000000000000000000600052602160045260246000fd5b6040518363ffffffff1660e01b8152600401611015929190613d88565b60206040518083038186803b15801561102d57600080fd5b505afa158015611041573d6000803e3d6000fd5b505050506040513d601f19601f8201168201806040525081019061106591906133d1565b806111525750600260009054906101000a900473ffffffffffffffffffffffffffffffffffffffff1673ffffffffffffffffffffffffffffffffffffffff16636f9cf98533600060028111156110e4577f4e487b7100000000000000000000000000000000000000000000000000000000600052602160045260246000fd5b6040518363ffffffff1660e01b8152600401611101929190613d88565b60206040518083038186803b15801561111957600080fd5b505afa15801561112d573d6000803e3d6000fd5b505050506040513d601f19601f8201168201806040525081019061115191906133d1565b5b156111e757600360009054906101000a900473ffffffffffffffffffffffffffffffffffffffff1673ffffffffffffffffffffffffffffffffffffffff1663c3fb1a6e33846040518363ffffffff1660e01b81526004016111b4929190613db1565b600060405180830381600087803b1580156111ce57600080fd5b505af11580156111e2573d6000803e3d6000fd5b505050505b60006112ae60646112a0600260009054906101000a900473ffffffffffffffffffffffffffffffffffffffff1673ffffffffffffffffffffffffffffffffffffffff1663dac95d416040518163ffffffff1660e01b815260040160206040518083038186803b15801561125957600080fd5b505afa15801561126d573d6000803e3d6000fd5b505050506040513d601f19601f820116820180604052508101906112919190613488565b866124c690919063ffffffff16565b6124dc90919063ffffffff16565b9050600360009054906101000a900473ffffffffffffffffffffffffffffffffffffffff1673ffffffffffffffffffffffffffffffffffffffff1663d417b7b386836040518363ffffffff1660e01b815260040161130d929190613db1565b600060405180830381600087803b15801561132757600080fd5b505af115801561133b573d6000803e3d6000fd5b5050505061140e858561140960646113fb600260009054906101000a900473ffffffffffffffffffffffffffffffffffffffff1673ffffffffffffffffffffffffffffffffffffffff1663e9b6c9756040518163ffffffff1660e01b815260040160206040518083038186803b1580156113b457600080fd5b505afa1580156113c8573d6000803e3d6000fd5b505050506040513d601f19601f820116820180604052508101906113ec9190613488565b896124c690919063ffffffff16565b6124dc90919063ffffffff16565b612578565b6001600760003373ffffffffffffffffffffffffffffffffffffffff1673ffffffffffffffffffffffffffffffffffffffff16815260200190815260200160002060008773ffffffffffffffffffffffffffffffffffffffff1673ffffffffffffffffffffffffffffffffffffffff168152602001908152602001600020600086815260200190815260200160002060006101000a81548160ff021916908315150217905550833373ffffffffffffffffffffffffffffffffffffffff167f789d6ca7c6ba494ee9a2cbda76e410066f2ab37d7bf222e02830f76f977a7d298588856040516114ff93929190614005565b60405180910390a35050505050565b600080600084815260200190815260200160002060000160008373ffffffffffffffffffffffffffffffffffffffff1673ffffffffffffffffffffffffffffffffffffffff16815260200190815260200160002060009054906101000a900460ff16905092915050565b600160009054906101000a900473ffffffffffffffffffffffffffffffffffffffff1681565b6000801b81565b6040518060400160405280600e81526020017f70726f636573735061796d656e740000000000000000000000000000000000008152506000816040516020016115ee9190613c98565b60405160208183030381529060405290506116297f7b765e0e932d348852a6f810bfa1ab891e259123f02db8cdcde614c5702233573361150e565b819061166b576040517f08c379a00000000000000000000000000000000000000000000000000000000081526004016116629190613e83565b60405180910390fd5b5060006117d260646117c4600260009054906101000a900473ffffffffffffffffffffffffffffffffffffffff1673ffffffffffffffffffffffffffffffffffffffff1663a7579be86040518163ffffffff1660e01b815260040160206040518083038186803b1580156116de57600080fd5b505afa1580156116f2573d6000803e3d6000fd5b505050506040513d601f19601f820116820180604052508101906117169190613488565b600260009054906101000a900473ffffffffffffffffffffffffffffffffffffffff1673ffffffffffffffffffffffffffffffffffffffff16634d9c798c6040518163ffffffff1660e01b815260040160206040518083038186803b15801561177e57600080fd5b505afa158015611792573d6000803e3d6000fd5b505050506040513d601f19601f820116820180604052508101906117b69190613488565b6124c690919063ffffffff16565b6124dc90919063ffffffff16565b9050600061193a606461192c600260009054906101000a900473ffffffffffffffffffffffffffffffffffffffff1673ffffffffffffffffffffffffffffffffffffffff16633507abaf6040518163ffffffff1660e01b815260040160206040518083038186803b15801561184657600080fd5b505afa15801561185a573d6000803e3d6000fd5b505050506040513d601f19601f8201168201806040525081019061187e9190613488565b600260009054906101000a900473ffffffffffffffffffffffffffffffffffffffff1673ffffffffffffffffffffffffffffffffffffffff16634d9c798c6040518163ffffffff1660e01b815260040160206040518083038186803b1580156118e657600080fd5b505afa1580156118fa573d6000803e3d6000fd5b505050506040513d601f19601f8201168201806040525081019061191e9190613488565b6124c690919063ffffffff16565b6124dc90919063ffffffff16565b90506000611a02826119f485600260009054906101000a900473ffffffffffffffffffffffffffffffffffffffff1673ffffffffffffffffffffffffffffffffffffffff16634d9c798c6040518163ffffffff1660e01b815260040160206040518083038186803b1580156119ae57600080fd5b505afa1580156119c2573d6000803e3d6000fd5b505050506040513d601f19601f820116820180604052508101906119e69190613488565b612a2690919063ffffffff16565b6124b090919063ffffffff16565b9050600360009054906101000a900473ffffffffffffffffffffffffffffffffffffffff1673ffffffffffffffffffffffffffffffffffffffff1663c3fb1a6e88856040518363ffffffff1660e01b8152600401611a61929190613db1565b600060405180830381600087803b158015611a7b57600080fd5b505af1158015611a8f573d6000803e3d6000fd5b50505050600160009054906101000a900473ffffffffffffffffffffffffffffffffffffffff1673ffffffffffffffffffffffffffffffffffffffff166340c10f1930600260009054906101000a900473ffffffffffffffffffffffffffffffffffffffff1673ffffffffffffffffffffffffffffffffffffffff16634d9c798c6040518163ffffffff1660e01b815260040160206040518083038186803b158015611b3a57600080fd5b505afa158015611b4e573d6000803e3d6000fd5b505050506040513d601f19601f82011682018060405250810190611b729190613488565b6040518363ffffffff1660e01b8152600401611b8f929190613db1565b602060405180830381600087803b158015611ba957600080fd5b505af1158015611bbd573d6000803e3d6000fd5b505050506040513d601f19601f82011682018060405250810190611be191906133d1565b50600360009054906101000a900473ffffffffffffffffffffffffffffffffffffffff1673ffffffffffffffffffffffffffffffffffffffff1663d417b7b3600260009054906101000a900473ffffffffffffffffffffffffffffffffffffffff1673ffffffffffffffffffffffffffffffffffffffff1663dbe55e566040518163ffffffff1660e01b815260040160206040518083038186803b158015611c8857600080fd5b505afa158015611c9c573d6000803e3d6000fd5b505050506040513d601f19601f82011682018060405250810190611cc09190613221565b846040518363ffffffff1660e01b8152600401611cde929190613db1565b600060405180830381600087803b158015611cf857600080fd5b505af1158015611d0c573d6000803e3d6000fd5b50505050600360009054906101000a900473ffffffffffffffffffffffffffffffffffffffff1673ffffffffffffffffffffffffffffffffffffffff1663d417b7b389836040518363ffffffff1660e01b8152600401611d6d929190613db1565b600060405180830381600087803b158015611d8757600080fd5b505af1158015611d9b573d6000803e3d6000fd5b505050508773ffffffffffffffffffffffffffffffffffffffff167f037abc98223efd7cb15f107ace271379a203ca8074c377ac5f59197a71d9c0608288604051611de792919061403c565b60405180910390a28673ffffffffffffffffffffffffffffffffffffffff167f1a685b956fe761ae8240849ef27481e954f16db54e815dae112f1f9860caeb3a828589604051611e3993929190614065565b60405180910390a25050505050505050565b611e54826104bf565b611e6581611e606121c1565b6121c9565b611e6f8383612346565b505050565b6040518060400160405280601681526020017f70726f636573734e6f6e43686f72745061796d656e7400000000000000000000815250600081604051602001611ebd9190613c98565b6040516020818303038152906040529050611ef87f7b765e0e932d348852a6f810bfa1ab891e259123f02db8cdcde614c5702233573361150e565b8190611f3a576040517f08c379a0000000000000000000000000000000000000000000000000000000008152600401611f319190613e83565b60405180910390fd5b506000600560009054906101000a900473ffffffffffffffffffffffffffffffffffffffff1673ffffffffffffffffffffffffffffffffffffffff16636f875c4d6040518163ffffffff1660e01b815260040160206040518083038186803b158015611fa557600080fd5b505afa158015611fb9573d6000803e3d6000fd5b505050506040513d601f19601f82011682018060405250810190611fdd9190613488565b9050600360009054906101000a900473ffffffffffffffffffffffffffffffffffffffff1673ffffffffffffffffffffffffffffffffffffffff1663c3fb1a6e86836040518363ffffffff1660e01b815260040161203c929190613db1565b600060405180830381600087803b15801561205657600080fd5b505af115801561206a573d6000803e3d6000fd5b50505050600560009054906101000a900473ffffffffffffffffffffffffffffffffffffffff1673ffffffffffffffffffffffffffffffffffffffff166342083e9787836040518363ffffffff1660e01b81526004016120cb929190613db1565b600060405180830381600087803b1580156120e557600080fd5b505af11580156120f9573d6000803e3d6000fd5b505050508473ffffffffffffffffffffffffffffffffffffffff167f71f25b27a282beb06a7ef6b4d9442e51dfe9a1679cd4a24bdc461258a5b63ee587868460405161214793929190613d51565b60405180910390a2505050505050565b60007f01ffc9a7000000000000000000000000000000000000000000000000000000007bffffffffffffffffffffffffffffffffffffffffffffffffffffffff1916827bffffffffffffffffffffffffffffffffffffffffffffffffffffffff1916149050919050565b600033905090565b6121d3828261150e565b612262576121f88173ffffffffffffffffffffffffffffffffffffffff166014612a3c565b6122068360001c6020612a3c565b604051602001612217929190613cc5565b6040516020818303038152906040526040517f08c379a00000000000000000000000000000000000000000000000000000000081526004016122599190613e83565b60405180910390fd5b5050565b612270828261150e565b61234257600160008084815260200190815260200160002060000160008373ffffffffffffffffffffffffffffffffffffffff1673ffffffffffffffffffffffffffffffffffffffff16815260200190815260200160002060006101000a81548160ff0219169083151502179055506122e76121c1565b73ffffffffffffffffffffffffffffffffffffffff168173ffffffffffffffffffffffffffffffffffffffff16837f2f8788117e7eff1d82e926ec794901d17c78024a50270940304540a733656f0d60405160405180910390a45b5050565b612350828261150e565b1561242357600080600084815260200190815260200160002060000160008373ffffffffffffffffffffffffffffffffffffffff1673ffffffffffffffffffffffffffffffffffffffff16815260200190815260200160002060006101000a81548160ff0219169083151502179055506123c86121c1565b73ffffffffffffffffffffffffffffffffffffffff168173ffffffffffffffffffffffffffffffffffffffff16837ff6391f5c32d9c69d2a47ea670b442974b53935d1edc7fd64eb21e047a839171b60405160405180910390a45b5050565b6124aa846323b872dd60e01b85858560405160240161244893929190613d1a565b604051602081830303815290604052907bffffffffffffffffffffffffffffffffffffffffffffffffffffffff19166020820180517bffffffffffffffffffffffffffffffffffffffffffffffffffffffff8381831617835250505050612d36565b50505050565b600081836124be919061427c565b905092915050565b600081836124d49190614222565b905092915050565b600081836124ea91906141f1565b905092915050565b6125738363a9059cbb60e01b8484604051602401612511929190613db1565b604051602081830303815290604052907bffffffffffffffffffffffffffffffffffffffffffffffffffffffff19166020820180517bffffffffffffffffffffffffffffffffffffffffffffffffffffffff8381831617835250505050612d36565b505050565b6000600460009054906101000a900473ffffffffffffffffffffffffffffffffffffffff1673ffffffffffffffffffffffffffffffffffffffff166302495c5985856040518363ffffffff1660e01b81526004016125d7929190613db1565b60006040518083038186803b1580156125ef57600080fd5b505afa158015612603573d6000803e3d6000fd5b505050506040513d6000823e3d601f19601f8201168201806040525081019061262c9190613324565b9050600080600090505b82518110156127515761273c600360009054906101000a900473ffffffffffffffffffffffffffffffffffffffff1673ffffffffffffffffffffffffffffffffffffffff16638319d3908584815181106126b9577f4e487b7100000000000000000000000000000000000000000000000000000000600052603260045260246000fd5b60200260200101516040518263ffffffff1660e01b81526004016126dd9190613cff565b60206040518083038186803b1580156126f557600080fd5b505afa158015612709573d6000803e3d6000fd5b505050506040513d601f19601f8201168201806040525081019061272d9190613488565b83612a2690919063ffffffff16565b915080806127499061441c565b915050612636565b5060005b8251811015612a1e57600061287783612869678ac7230489e80000600360009054906101000a900473ffffffffffffffffffffffffffffffffffffffff1673ffffffffffffffffffffffffffffffffffffffff16638319d3908988815181106127e7577f4e487b7100000000000000000000000000000000000000000000000000000000600052603260045260246000fd5b60200260200101516040518263ffffffff1660e01b815260040161280b9190613cff565b60206040518083038186803b15801561282357600080fd5b505afa158015612837573d6000803e3d6000fd5b505050506040513d601f19601f8201168201806040525081019061285b9190613488565b6124c690919063ffffffff16565b6124dc90919063ffffffff16565b905060006128a8678ac7230489e8000061289a84896124c690919063ffffffff16565b6124dc90919063ffffffff16565b9050600360009054906101000a900473ffffffffffffffffffffffffffffffffffffffff1673ffffffffffffffffffffffffffffffffffffffff1663d417b7b3868581518110612921577f4e487b7100000000000000000000000000000000000000000000000000000000600052603260045260246000fd5b6020026020010151836040518363ffffffff1660e01b8152600401612947929190613db1565b600060405180830381600087803b15801561296157600080fd5b505af1158015612975573d6000803e3d6000fd5b505050508483815181106129b2577f4e487b7100000000000000000000000000000000000000000000000000000000600052603260045260246000fd5b602002602001015173ffffffffffffffffffffffffffffffffffffffff167f3e4fd36a8c6a5f774423977e7d7e6badc0d7f8972efdaa142830e6048bdcdd523383604051612a01929190613db1565b60405180910390a250508080612a169061441c565b915050612755565b505050505050565b60008183612a34919061419b565b905092915050565b606060006002836002612a4f9190614222565b612a59919061419b565b67ffffffffffffffff811115612a98577f4e487b7100000000000000000000000000000000000000000000000000000000600052604160045260246000fd5b6040519080825280601f01601f191660200182016040528015612aca5781602001600182028036833780820191505090505b5090507f300000000000000000000000000000000000000000000000000000000000000081600081518110612b28577f4e487b7100000000000000000000000000000000000000000000000000000000600052603260045260246000fd5b60200101907effffffffffffffffffffffffffffffffffffffffffffffffffffffffffffff1916908160001a9053507f780000000000000000000000000000000000000000000000000000000000000081600181518110612bb2577f4e487b7100000000000000000000000000000000000000000000000000000000600052603260045260246000fd5b60200101907effffffffffffffffffffffffffffffffffffffffffffffffffffffffffffff1916908160001a90535060006001846002612bf29190614222565b612bfc919061419b565b90505b6001811115612ce8577f3031323334353637383961626364656600000000000000000000000000000000600f861660108110612c64577f4e487b7100000000000000000000000000000000000000000000000000000000600052603260045260246000fd5b1a60f81b828281518110612ca1577f4e487b7100000000000000000000000000000000000000000000000000000000600052603260045260246000fd5b60200101907effffffffffffffffffffffffffffffffffffffffffffffffffffffffffffff1916908160001a905350600485901c945080612ce1906143f2565b9050612bff565b5060008414612d2c576040517f08c379a0000000000000000000000000000000000000000000000000000000008152600401612d2390613ea5565b60405180910390fd5b8091505092915050565b6000612d98826040518060400160405280602081526020017f5361666545524332303a206c6f772d6c6576656c2063616c6c206661696c65648152508573ffffffffffffffffffffffffffffffffffffffff16612dfd9092919063ffffffff16565b9050600081511115612df85780806020019051810190612db891906133d1565b612df7576040517f08c379a0000000000000000000000000000000000000000000000000000000008152600401612dee90613fa5565b60405180910390fd5b5b505050565b6060612e0c8484600085612e15565b90509392505050565b606082471015612e5a576040517f08c379a0000000000000000000000000000000000000000000000000000000008152600401612e5190613f05565b60405180910390fd5b612e6385612f29565b612ea2576040517f08c379a0000000000000000000000000000000000000000000000000000000008152600401612e9990613f85565b60405180910390fd5b6000808673ffffffffffffffffffffffffffffffffffffffff168587604051612ecb9190613c81565b60006040518083038185875af1925050503d8060008114612f08576040519150601f19603f3d011682016040523d82523d6000602084013e612f0d565b606091505b5091509150612f1d828286612f3c565b92505050949350505050565b600080823b905060008111915050919050565b60608315612f4c57829050612f9c565b600083511115612f5f5782518084602001fd5b816040517f08c379a0000000000000000000000000000000000000000000000000000000008152600401612f939190613e83565b60405180910390fd5b9392505050565b6000612fb6612fb1846140cd565b61409c565b90508083825260208201905082856020860282011115612fd557600080fd5b60005b858110156130055781612feb88826130e7565b845260208401935060208301925050600181019050612fd8565b5050509392505050565b600061302261301d846140cd565b61409c565b9050808382526020820190508285602086028201111561304157600080fd5b60005b85811015613071578161305788826130fc565b845260208401935060208301925050600181019050613044565b5050509392505050565b600061308e613089846140f9565b61409c565b905080838252602082019050828560208602820111156130ad57600080fd5b60005b858110156130dd57816130c388826131ce565b8452602084019350602083019250506001810190506130b0565b5050509392505050565b6000813590506130f681614546565b92915050565b60008151905061310b81614546565b92915050565b600082601f83011261312257600080fd5b8135613132848260208601612fa3565b91505092915050565b600082601f83011261314c57600080fd5b815161315c84826020860161300f565b91505092915050565b600082601f83011261317657600080fd5b813561318684826020860161307b565b91505092915050565b60008151905061319e8161455d565b92915050565b6000813590506131b381614574565b92915050565b6000813590506131c88161458b565b92915050565b6000813590506131dd816145a2565b92915050565b6000815190506131f2816145a2565b92915050565b60006020828403121561320a57600080fd5b6000613218848285016130e7565b91505092915050565b60006020828403121561323357600080fd5b6000613241848285016130fc565b91505092915050565b60008060006060848603121561325f57600080fd5b600061326d868287016130e7565b935050602061327e868287016130e7565b925050604061328f868287016131a4565b9150509250925092565b6000806000606084860312156132ae57600080fd5b60006132bc868287016130e7565b93505060206132cd868287016130e7565b92505060406132de868287016131ce565b9150509250925092565b600080604083850312156132fb57600080fd5b6000613309858286016130e7565b925050602061331a858286016131ce565b9150509250929050565b60006020828403121561333657600080fd5b600082015167ffffffffffffffff81111561335057600080fd5b61335c8482850161313b565b91505092915050565b6000806040838503121561337857600080fd5b600083013567ffffffffffffffff81111561339257600080fd5b61339e85828601613111565b925050602083013567ffffffffffffffff8111156133bb57600080fd5b6133c785828601613165565b9150509250929050565b6000602082840312156133e357600080fd5b60006133f18482850161318f565b91505092915050565b60006020828403121561340c57600080fd5b600061341a848285016131a4565b91505092915050565b6000806040838503121561343657600080fd5b6000613444858286016131a4565b9250506020613455858286016130e7565b9150509250929050565b60006020828403121561347157600080fd5b600061347f848285016131b9565b91505092915050565b60006020828403121561349a57600080fd5b60006134a8848285016131e3565b91505092915050565b60006134bd8383613c34565b60408301905092915050565b6134d2816142b0565b82525050565b6134e1816142b0565b82525050565b60006134f282614135565b6134fc8185614163565b935061350783614125565b8060005b8381101561353857815161351f88826134b1565b975061352a83614156565b92505060018101905061350b565b5085935050505092915050565b61354e816142c2565b82525050565b61355d816142ce565b82525050565b600061356e82614140565b6135788185614174565b93506135888185602086016143bf565b80840191505092915050565b61359d81614341565b82525050565b6135ac81614365565b82525050565b6135bb81614389565b82525050565b6135ca816143ad565b82525050565b60006135db8261414b565b6135e5818561417f565b93506135f58185602086016143bf565b6135fe81614521565b840191505092915050565b60006136148261414b565b61361e8185614190565b935061362e8185602086016143bf565b80840191505092915050565b600061364760208361417f565b91507f537472696e67733a20686578206c656e67746820696e73756666696369656e746000830152602082019050919050565b600061368760458361417f565b91507f4465706f7369744d6f6469666965723a6461746153756273637269626572506160008301527f796d656e74202d20456e746572707269736520616464726573732063616e277460208301527f20626520300000000000000000000000000000000000000000000000000000006040830152606082019050919050565b6000613713604f8361417f565b91507f4465706f7369744d6f6469666965723a6461746153756273637269626572506160008301527f796d656e74202d20596f75206861766520746f2072656769737465722061732060208301527f64617461207375627363726962657200000000000000000000000000000000006040830152606082019050919050565b600061379f60268361417f565b91507f416464726573733a20696e73756666696369656e742062616c616e636520666f60008301527f722063616c6c00000000000000000000000000000000000000000000000000006020830152604082019050919050565b6000613805602a83614190565b91507f4465706f7369744d6f646966696572202d20286973436f6e74726f6c6c65722d60008301527f4d6f646966696572293a000000000000000000000000000000000000000000006020830152602a82019050919050565b600061386b60428361417f565b91507f4465706f7369744d6f6469666965723a6461746153756273637269626572506160008301527f796d656e74202d20596f752061726520616c726561647920737562736372696260208301527f65640000000000000000000000000000000000000000000000000000000000006040830152606082019050919050565b60006138f7605f8361417f565b91507f4465706f7369744d6f6469666965723a6461746153756273637269626572506160008301527f796d656e74202d20596f7520646f6e2774206861766520656e6f75676820415560208301527f445420746f20636f6d706c65742074686973207472616e61736374696f6e2e006040830152606082019050919050565b6000613983604f8361417f565b91507f4465706f7369744d6f6469666965723a6461746153756273637269626572506160008301527f796d656e74202d2041756469742074797065206973206e6f7420696e2074686560208301527f2072657175697265642072616e676500000000000000000000000000000000006040830152606082019050919050565b6000613a0f601d8361417f565b91507f416464726573733a2063616c6c20746f206e6f6e2d636f6e74726163740000006000830152602082019050919050565b6000613a4f601783614190565b91507f416363657373436f6e74726f6c3a206163636f756e74200000000000000000006000830152601782019050919050565b6000613a8f602a8361417f565b91507f5361666545524332303a204552433230206f7065726174696f6e20646964206e60008301527f6f742073756363656564000000000000000000000000000000000000000000006020830152604082019050919050565b6000613af5601183614190565b91507f206973206d697373696e6720726f6c65200000000000000000000000000000006000830152601182019050919050565b6000613b35601c83614190565b91507f2d2043616c6c6572206973206e6f74206120636f6e74726f6c6c6572000000006000830152601c82019050919050565b6000613b75602f8361417f565b91507f416363657373436f6e74726f6c3a2063616e206f6e6c792072656e6f756e636560008301527f20726f6c657320666f722073656c6600000000000000000000000000000000006020830152604082019050919050565b6000613bdb603e8361417f565b91507f4465706f7369744d6f646966696572733a64617461537562736372696265725060008301527f61796d656e744d756c7469706c65202d204c69737420746f6f206c6f6e6700006020830152604082019050919050565b604082016000820151613c4a60008501826134c9565b506020820151613c5d6020850182613c63565b50505050565b613c6c81614337565b82525050565b613c7b81614337565b82525050565b6000613c8d8284613563565b915081905092915050565b6000613ca3826137f8565b9150613caf8284613609565b9150613cba82613b28565b915081905092915050565b6000613cd082613a42565b9150613cdc8285613609565b9150613ce782613ae8565b9150613cf38284613609565b91508190509392505050565b6000602082019050613d1460008301846134d8565b92915050565b6000606082019050613d2f60008301866134d8565b613d3c60208301856134d8565b613d496040830184613c72565b949350505050565b6000606082019050613d6660008301866134d8565b613d736020830185613554565b613d806040830184613c72565b949350505050565b6000604082019050613d9d60008301856134d8565b613daa60208301846135c1565b9392505050565b6000604082019050613dc660008301856134d8565b613dd36020830184613c72565b9392505050565b60006020820190508181036000830152613df481846134e7565b905092915050565b6000602082019050613e116000830184613545565b92915050565b6000602082019050613e2c6000830184613554565b92915050565b6000602082019050613e476000830184613594565b92915050565b6000602082019050613e6260008301846135a3565b92915050565b6000602082019050613e7d60008301846135b2565b92915050565b60006020820190508181036000830152613e9d81846135d0565b905092915050565b60006020820190508181036000830152613ebe8161363a565b9050919050565b60006020820190508181036000830152613ede8161367a565b9050919050565b60006020820190508181036000830152613efe81613706565b9050919050565b60006020820190508181036000830152613f1e81613792565b9050919050565b60006020820190508181036000830152613f3e8161385e565b9050919050565b60006020820190508181036000830152613f5e816138ea565b9050919050565b60006020820190508181036000830152613f7e81613976565b9050919050565b60006020820190508181036000830152613f9e81613a02565b9050919050565b60006020820190508181036000830152613fbe81613a82565b9050919050565b60006020820190508181036000830152613fde81613b68565b9050919050565b60006020820190508181036000830152613ffe81613bce565b9050919050565b600060608201905061401a6000830186613c72565b61402760208301856134d8565b6140346040830184613c72565b949350505050565b60006040820190506140516000830185613c72565b61405e6020830184613554565b9392505050565b600060608201905061407a6000830186613c72565b6140876020830185613c72565b6140946040830184613554565b949350505050565b6000604051905081810181811067ffffffffffffffff821117156140c3576140c26144f2565b5b8060405250919050565b600067ffffffffffffffff8211156140e8576140e76144f2565b5b602082029050602081019050919050565b600067ffffffffffffffff821115614114576141136144f2565b5b602082029050602081019050919050565b6000819050602082019050919050565b600081519050919050565b600081519050919050565b600081519050919050565b6000602082019050919050565b600082825260208201905092915050565b600081905092915050565b600082825260208201905092915050565b600081905092915050565b60006141a682614337565b91506141b183614337565b9250827fffffffffffffffffffffffffffffffffffffffffffffffffffffffffffffffff038211156141e6576141e5614465565b5b828201905092915050565b60006141fc82614337565b915061420783614337565b92508261421757614216614494565b5b828204905092915050565b600061422d82614337565b915061423883614337565b9250817fffffffffffffffffffffffffffffffffffffffffffffffffffffffffffffffff048311821515161561427157614270614465565b5b828202905092915050565b600061428782614337565b915061429283614337565b9250828210156142a5576142a4614465565b5b828203905092915050565b60006142bb82614317565b9050919050565b60008115159050919050565b6000819050919050565b60007fffffffff0000000000000000000000000000000000000000000000000000000082169050919050565b600081905061431282614532565b919050565b600073ffffffffffffffffffffffffffffffffffffffff82169050919050565b6000819050919050565b600061434c82614353565b9050919050565b600061435e82614317565b9050919050565b600061437082614377565b9050919050565b600061438282614317565b9050919050565b60006143948261439b565b9050919050565b60006143a682614317565b9050919050565b60006143b882614304565b9050919050565b60005b838110156143dd5780820151818401526020810190506143c2565b838111156143ec576000848401525b50505050565b60006143fd82614337565b9150600082141561441157614410614465565b5b600182039050919050565b600061442782614337565b91507fffffffffffffffffffffffffffffffffffffffffffffffffffffffffffffffff82141561445a57614459614465565b5b600182019050919050565b7f4e487b7100000000000000000000000000000000000000000000000000000000600052601160045260246000fd5b7f4e487b7100000000000000000000000000000000000000000000000000000000600052601260045260246000fd5b7f4e487b7100000000000000000000000000000000000000000000000000000000600052602160045260246000fd5b7f4e487b7100000000000000000000000000000000000000000000000000000000600052604160045260246000fd5b6000601f19601f8301169050919050565b60038110614543576145426144c3565b5b50565b61454f816142b0565b811461455a57600080fd5b50565b614566816142c2565b811461457157600080fd5b50565b61457d816142ce565b811461458857600080fd5b50565b614594816142d8565b811461459f57600080fd5b50565b6145ab81614337565b81146145b657600080fd5b5056fea26469706673582212202141957086c8f8414de453a8a117056612f4a487b0a8e3b23f25aae4b54b603b64736f6c63430008000033",
  "immutableReferences": {},
  "source": "// SPDX-License-Identifier: MIT\npragma solidity =0.8.0;\npragma experimental ABIEncoderV2;\nimport \"@openzeppelin/contracts/access/AccessControl.sol\";\nimport \"@openzeppelin/contracts/token/ERC20/utils/SafeERC20.sol\";\nimport \"@openzeppelin/contracts/utils/math/SafeMath.sol\";\nimport \"./Members.sol\";\nimport \"./MemberHelpers.sol\";\nimport \"./ICohortFactory.sol\";\nimport \"./INodeOperations.sol\";\n\n\n\n/**\n * @title DepositModifiers\n * Collection of function which alter deposit values\n */\n\ncontract DepositModifiers is  AccessControl {\n\n    using SafeERC20 for IERC20;\n    using SafeMath for uint256;\n\n\n\n    address public auditToken;                  \n    Members members;\n    MemberHelpers public memberHelpers;\n    ICohortFactory public cohortFactory;\n    INodeOperations public nodeOperations;\n\n    mapping(address => DataSubscriberTypes[]) public dataSubscriberCohorts;\n\n    struct DataSubscriberTypes{\n        address cohort;\n        uint256 audits;\n    }\n\n    mapping(address => mapping(address => mapping(uint256 => bool))) public dataSubscriberCohortMap;\n    bytes32 public constant CONTROLLER_ROLE = keccak256(\"CONTROLLER_ROLE\");\n\n\n    event LogDataSubscriberPaid(address indexed from, uint256 accessFee,  uint256 indexed audits, address enterprise, uint256 enterpriseShare);\n    event LogSubscriptionCompleted(address subscriber, uint256 numberOfSubscriptions);\n    event LogDataSubscriberValidatorPaid(address  from, address indexed validator, uint256 amount);\n    event LogFeesReceived(address indexed validator, uint256 tokens, bytes32 validationHash);\n    event LogRewardsDeposited(uint256 tokens, uint256 enterpriseAmount, address indexed enterprise, bytes32 validationHash);\n    event LogNonCohortValidationPaid(address indexed requestor, address winner, bytes32 validationHash, uint256 amount);\n\n\n\n    constructor(address  _members, address _auditToken, address _memberHelpers, address _cohortFactory, address _nodeOperations ) {\n        require(_members != address(0), \"DepositModifier:constructor - Member address can't be 0\");\n        members = Members(_members);\n        auditToken = _auditToken;\n        memberHelpers = MemberHelpers(_memberHelpers);\n        cohortFactory = ICohortFactory(_cohortFactory);\n        nodeOperations = INodeOperations(_nodeOperations);\n        _setupRole(DEFAULT_ADMIN_ROLE, msg.sender);\n    }\n\n    /// @dev check if caller is a controller\n    modifier isController(string memory source) {\n        string memory msgError = string(abi.encodePacked(\"DepositModifier - (isController-Modifier):\", source, \"- Caller is not a controller\"));\n        require(hasRole(CONTROLLER_ROLE, msg.sender),msgError);\n\n        _;\n    }\n\n\n    /**\n    * @dev called when data subscriber initiates subscription \n    * @param enterpriseAddress - address of the enterprise\n    * @param audits - type of audits this cohort is part of\n    */\n    function dataSubscriberPayment(address enterpriseAddress, uint256 audits) public  {\n\n        require(enterpriseAddress != address(0), \"DepositModifier:dataSubscriberPayment - Enterprise address can't be 0\");\n        require(audits >=0 && audits <=5, \"DepositModifier:dataSubscriberPayment - Audit type is not in the required range\");\n        require(!dataSubscriberCohortMap[msg.sender][enterpriseAddress][audits], \"DepositModifier:dataSubscriberPayment - You are already subscribed\");\n        require(members.userMap(msg.sender, Members.UserType(2)), \"DepositModifier:dataSubscriberPayment - You have to register as data subscriber\");\n\n        uint256 accessFee = members.accessFee();\n\n        require(memberHelpers.returnDepositAmount(msg.sender) >= accessFee, \"DepositModifier:dataSubscriberPayment - You don't have enough AUDT to complet this tranasction.\");\n        IERC20(auditToken).safeTransferFrom(msg.sender, address(this), accessFee);\n        uint platformShare = (uint256(100)).sub(members.enterpriseShareSubscriber()).sub(members.validatorShareSubscriber());\n        IERC20(auditToken).safeTransfer(members.platformAddress(), accessFee.mul(platformShare).div(100));\n\n        if (members.userMap(msg.sender, Members.UserType(2)) || members.userMap(msg.sender, Members.UserType(0))){\n            memberHelpers.decreaseDeposit(msg.sender, accessFee);\n        }\n\n        uint256 enterpriseShare = accessFee.mul(members.enterpriseShareSubscriber()).div(100);\n        memberHelpers.increaseDeposit(enterpriseAddress, enterpriseShare);\n\n        allocateValidatorDataSubscriberFee(enterpriseAddress, audits, accessFee.mul(members.validatorShareSubscriber()).div(100));\n        dataSubscriberCohortMap[msg.sender][enterpriseAddress][audits] = true;\n\n        emit LogDataSubscriberPaid(msg.sender, accessFee, audits, enterpriseAddress, enterpriseShare);\n    }\n\n    /**\n    * @dev To calculate validator share of data subscriber fee and allocate it to validator deposits\n    * @param enterprise - address of cohort holding list of validators\n    * @param audits - audit type\n    * @param amount - total amount of tokens available for allocation\n    */\n    function allocateValidatorDataSubscriberFee(address enterprise, uint256 audits, uint256 amount) internal  {\n\n        address[] memory cohortValidators = cohortFactory.returnValidatorList(enterprise, audits);\n        uint256 totalDeposits;\n\n        for (uint i=0; i < cohortValidators.length; i++){\n            totalDeposits = totalDeposits.add(memberHelpers.returnDepositAmount(cohortValidators[i]));\n        }\n\n        for (uint i=0; i < cohortValidators.length; i++){\n            uint256 oneValidatorPercentage = (memberHelpers.returnDepositAmount(cohortValidators[i]).mul(10e18)).div(totalDeposits);\n            uint256 oneValidatorAmount = amount.mul(oneValidatorPercentage).div(10e18);\n            memberHelpers.increaseDeposit(cohortValidators[i], oneValidatorAmount);\n            emit LogDataSubscriberValidatorPaid(msg.sender, cohortValidators[i], oneValidatorAmount);\n        }\n    }\n\n\n    /**\n    * @dev To automate subscription for multiple cohorts for data subscriber \n    * @param enterprise - array of enterprise addresses\n    * @param audits - array of audit types for each cohort\n    */\n    function dataSubscriberPaymentMultiple(address[] memory enterprise, uint256[] memory audits) public {\n\n        uint256 length = enterprise.length;\n        require(length <= 256, \"DepositModifiers:dataSubscriberPaymentMultiple - List too long\");\n        for (uint256 i = 0; i < length; i++) {\n            dataSubscriberPayment(enterprise[i], audits[i]);\n        }\n\n        emit LogSubscriptionCompleted(msg.sender, length);\n    }\n\n    /**\n    * @dev To process payment for cohort validation\n    * @param winner - winner of POW\n    * @param _requestor - requesting party\n    * @param validationHash -  hash identifying validation\n    */\n    function processPayment(address winner, address _requestor, bytes32 validationHash) public isController(\"processPayment\") {\n\n        uint256 enterprisePortion =  members.amountTokensPerValidation().mul(members.enterpriseMatch()).div(100);\n        uint256 platformFee = members.amountTokensPerValidation().mul(members.platformShareValidation()).div(100);\n        uint256 winnerFee = members.amountTokensPerValidation().add(enterprisePortion).sub(platformFee);\n\n        memberHelpers.decreaseDeposit(_requestor, enterprisePortion);\n        IAuditToken(auditToken).mint(address(this), members.amountTokensPerValidation());\n        memberHelpers.increaseDeposit(members.platformAddress(), platformFee);\n\n        memberHelpers.increaseDeposit(winner, winnerFee);\n        emit LogFeesReceived(winner, winnerFee, validationHash);\n        emit LogRewardsDeposited(winnerFee, enterprisePortion, _requestor, validationHash);\n    }\n\n\n     /**\n    * @dev To process payment for no cohort validation\n    * @param _winner - winner of the POW\n    * @param _requestor - requesting party\n    * @param validationHash -  hash identifying validation\n    */\n    function processNonChortPayment(address _winner, address _requestor, bytes32 validationHash) public isController(\"processNonChortPayment\") {\n\n        uint256 POWFee = nodeOperations.POWFee();\n        memberHelpers.decreaseDeposit(_requestor, POWFee);\n        nodeOperations.increasePOWRewards(_winner, POWFee);\n        emit LogNonCohortValidationPaid(_requestor, _winner, validationHash, POWFee);\n    }\n\n    /**\n    * @dev To return all cohorts to which data subscriber is subscribed to \n    * @param subscriber - address of the subscriber\n    * @return the structure with cohort address and their types for subscriber\n    */\n    function returnCohortsForDataSubscriber(address subscriber) public view returns(DataSubscriberTypes[] memory){\n            return (dataSubscriberCohorts[subscriber]);\n    }\n\n}",
  "sourcePath": "/home/win2win/eth/projects/AuditChain/Core-Smart-Contracts-v1/contracts/Auditchain/DepositModifiers.sol",
  "compiler": {
    "name": "solc",
    "version": "0.8.0+commit.c7dfd78e.Emscripten.clang"
  },
  "schemaVersion": "3.4.1",
  "updatedAt": "2022-04-12T21:16:33.486Z",
  "devdoc": {
    "kind": "dev",
    "methods": {
      "dataSubscriberPayment(address,uint256)": {
        "details": "called when data subscriber initiates subscription ",
        "params": {
          "audits": "- type of audits this cohort is part of",
          "enterpriseAddress": "- address of the enterprise"
        }
      },
      "dataSubscriberPaymentMultiple(address[],uint256[])": {
        "details": "To automate subscription for multiple cohorts for data subscriber ",
        "params": {
          "audits": "- array of audit types for each cohort",
          "enterprise": "- array of enterprise addresses"
        }
      },
      "getRoleAdmin(bytes32)": {
        "details": "Returns the admin role that controls `role`. See {grantRole} and {revokeRole}. To change a role's admin, use {_setRoleAdmin}."
      },
      "grantRole(bytes32,address)": {
        "details": "Grants `role` to `account`. If `account` had not been already granted `role`, emits a {RoleGranted} event. Requirements: - the caller must have ``role``'s admin role."
      },
      "hasRole(bytes32,address)": {
        "details": "Returns `true` if `account` has been granted `role`."
      },
      "processNonChortPayment(address,address,bytes32)": {
        "details": "To process payment for no cohort validation",
        "params": {
          "_requestor": "- requesting party",
          "_winner": "- winner of the POW",
          "validationHash": "-  hash identifying validation"
        }
      },
      "processPayment(address,address,bytes32)": {
        "details": "To process payment for cohort validation",
        "params": {
          "_requestor": "- requesting party",
          "validationHash": "-  hash identifying validation",
          "winner": "- winner of POW"
        }
      },
      "renounceRole(bytes32,address)": {
        "details": "Revokes `role` from the calling account. Roles are often managed via {grantRole} and {revokeRole}: this function's purpose is to provide a mechanism for accounts to lose their privileges if they are compromised (such as when a trusted device is misplaced). If the calling account had been revoked `role`, emits a {RoleRevoked} event. Requirements: - the caller must be `account`."
      },
      "returnCohortsForDataSubscriber(address)": {
        "details": "To return all cohorts to which data subscriber is subscribed to ",
        "params": {
          "subscriber": "- address of the subscriber"
        },
        "returns": {
          "_0": "the structure with cohort address and their types for subscriber"
        }
      },
      "revokeRole(bytes32,address)": {
        "details": "Revokes `role` from `account`. If `account` had been granted `role`, emits a {RoleRevoked} event. Requirements: - the caller must have ``role``'s admin role."
      },
      "supportsInterface(bytes4)": {
        "details": "See {IERC165-supportsInterface}."
      }
    },
    "title": "DepositModifiers Collection of function which alter deposit values",
    "version": 1
  },
  "userdoc": {
    "kind": "user",
    "methods": {},
    "version": 1
  }
}