{
  "contractName": "GovernorAlpha",
  "abi": [
    {
      "inputs": [
        {
          "internalType": "address",
          "name": "timelock_",
          "type": "address"
        },
        {
          "internalType": "address",
          "name": "auditToken_",
          "type": "address"
        },
        {
          "internalType": "address",
          "name": "guardian_",
          "type": "address"
        }
      ],
      "stateMutability": "nonpayable",
      "type": "constructor"
    },
    {
      "anonymous": false,
      "inputs": [
        {
          "indexed": true,
          "internalType": "uint256",
          "name": "id",
          "type": "uint256"
        }
      ],
      "name": "ProposalCanceled",
      "type": "event"
    },
    {
      "anonymous": false,
      "inputs": [
        {
          "indexed": true,
          "internalType": "uint256",
          "name": "id",
          "type": "uint256"
        },
        {
          "indexed": false,
          "internalType": "address",
          "name": "proposer",
          "type": "address"
        },
        {
          "indexed": false,
          "internalType": "address[]",
          "name": "targets",
          "type": "address[]"
        },
        {
          "indexed": false,
          "internalType": "uint256[]",
          "name": "values",
          "type": "uint256[]"
        },
        {
          "indexed": false,
          "internalType": "string[]",
          "name": "signatures",
          "type": "string[]"
        },
        {
          "indexed": false,
          "internalType": "bytes[]",
          "name": "calldatas",
          "type": "bytes[]"
        },
        {
          "indexed": false,
          "internalType": "uint256",
          "name": "startBlock",
          "type": "uint256"
        },
        {
          "indexed": false,
          "internalType": "uint256",
          "name": "endBlock",
          "type": "uint256"
        },
        {
          "indexed": false,
          "internalType": "string",
          "name": "description",
          "type": "string"
        }
      ],
      "name": "ProposalCreated",
      "type": "event"
    },
    {
      "anonymous": false,
      "inputs": [
        {
          "indexed": true,
          "internalType": "uint256",
          "name": "id",
          "type": "uint256"
        }
      ],
      "name": "ProposalExecuted",
      "type": "event"
    },
    {
      "anonymous": false,
      "inputs": [
        {
          "indexed": true,
          "internalType": "uint256",
          "name": "id",
          "type": "uint256"
        },
        {
          "indexed": false,
          "internalType": "uint256",
          "name": "eta",
          "type": "uint256"
        }
      ],
      "name": "ProposalQueued",
      "type": "event"
    },
    {
      "anonymous": false,
      "inputs": [
        {
          "indexed": false,
          "internalType": "address",
          "name": "voter",
          "type": "address"
        },
        {
          "indexed": true,
          "internalType": "uint256",
          "name": "proposalId",
          "type": "uint256"
        },
        {
          "indexed": false,
          "internalType": "bool",
          "name": "support",
          "type": "bool"
        },
        {
          "indexed": false,
          "internalType": "uint256",
          "name": "votes",
          "type": "uint256"
        }
      ],
      "name": "VoteCast",
      "type": "event"
    },
    {
      "inputs": [],
      "name": "BALLOT_TYPEHASH",
      "outputs": [
        {
          "internalType": "bytes32",
          "name": "",
          "type": "bytes32"
        }
      ],
      "stateMutability": "view",
      "type": "function",
      "constant": true
    },
    {
      "inputs": [],
      "name": "DOMAIN_TYPEHASH",
      "outputs": [
        {
          "internalType": "bytes32",
          "name": "",
          "type": "bytes32"
        }
      ],
      "stateMutability": "view",
      "type": "function",
      "constant": true
    },
    {
      "inputs": [],
      "name": "auditToken",
      "outputs": [
        {
          "internalType": "contract AuditTokenInterface",
          "name": "",
          "type": "address"
        }
      ],
      "stateMutability": "view",
      "type": "function",
      "constant": true
    },
    {
      "inputs": [],
      "name": "guardian",
      "outputs": [
        {
          "internalType": "address",
          "name": "",
          "type": "address"
        }
      ],
      "stateMutability": "view",
      "type": "function",
      "constant": true
    },
    {
      "inputs": [
        {
          "internalType": "address",
          "name": "",
          "type": "address"
        }
      ],
      "name": "latestProposalIds",
      "outputs": [
        {
          "internalType": "uint256",
          "name": "",
          "type": "uint256"
        }
      ],
      "stateMutability": "view",
      "type": "function",
      "constant": true
    },
    {
      "inputs": [],
      "name": "name",
      "outputs": [
        {
          "internalType": "string",
          "name": "",
          "type": "string"
        }
      ],
      "stateMutability": "view",
      "type": "function",
      "constant": true
    },
    {
      "inputs": [],
      "name": "proposalCount",
      "outputs": [
        {
          "internalType": "uint256",
          "name": "",
          "type": "uint256"
        }
      ],
      "stateMutability": "view",
      "type": "function",
      "constant": true
    },
    {
      "inputs": [
        {
          "internalType": "uint256",
          "name": "",
          "type": "uint256"
        }
      ],
      "name": "proposals",
      "outputs": [
        {
          "internalType": "uint256",
          "name": "id",
          "type": "uint256"
        },
        {
          "internalType": "address",
          "name": "proposer",
          "type": "address"
        },
        {
          "internalType": "uint256",
          "name": "eta",
          "type": "uint256"
        },
        {
          "internalType": "uint256",
          "name": "startBlock",
          "type": "uint256"
        },
        {
          "internalType": "uint256",
          "name": "endBlock",
          "type": "uint256"
        },
        {
          "internalType": "uint256",
          "name": "forVotes",
          "type": "uint256"
        },
        {
          "internalType": "uint256",
          "name": "againstVotes",
          "type": "uint256"
        },
        {
          "internalType": "bool",
          "name": "canceled",
          "type": "bool"
        },
        {
          "internalType": "bool",
          "name": "executed",
          "type": "bool"
        },
        {
          "internalType": "string",
          "name": "description",
          "type": "string"
        }
      ],
      "stateMutability": "view",
      "type": "function",
      "constant": true
    },
    {
      "inputs": [],
      "name": "timelock",
      "outputs": [
        {
          "internalType": "contract TimelockInterface",
          "name": "",
          "type": "address"
        }
      ],
      "stateMutability": "view",
      "type": "function",
      "constant": true
    },
    {
      "inputs": [],
      "name": "proposalMaxOperations",
      "outputs": [
        {
          "internalType": "uint256",
          "name": "",
          "type": "uint256"
        }
      ],
      "stateMutability": "pure",
      "type": "function",
      "constant": true
    },
    {
      "inputs": [],
      "name": "votingDelay",
      "outputs": [
        {
          "internalType": "uint256",
          "name": "",
          "type": "uint256"
        }
      ],
      "stateMutability": "pure",
      "type": "function",
      "constant": true
    },
    {
      "inputs": [],
      "name": "votingPeriod",
      "outputs": [
        {
          "internalType": "uint256",
          "name": "",
          "type": "uint256"
        }
      ],
      "stateMutability": "pure",
      "type": "function",
      "constant": true
    },
    {
      "inputs": [],
      "name": "proposalThreshold",
      "outputs": [
        {
          "internalType": "uint256",
          "name": "",
          "type": "uint256"
        }
      ],
      "stateMutability": "view",
      "type": "function",
      "constant": true
    },
    {
      "inputs": [],
      "name": "quorumVotes",
      "outputs": [
        {
          "internalType": "uint256",
          "name": "",
          "type": "uint256"
        }
      ],
      "stateMutability": "view",
      "type": "function",
      "constant": true
    },
    {
      "inputs": [
        {
          "internalType": "address[]",
          "name": "targets",
          "type": "address[]"
        },
        {
          "internalType": "uint256[]",
          "name": "values",
          "type": "uint256[]"
        },
        {
          "internalType": "string[]",
          "name": "signatures",
          "type": "string[]"
        },
        {
          "internalType": "bytes[]",
          "name": "calldatas",
          "type": "bytes[]"
        },
        {
          "internalType": "string",
          "name": "description",
          "type": "string"
        }
      ],
      "name": "propose",
      "outputs": [
        {
          "internalType": "uint256",
          "name": "",
          "type": "uint256"
        }
      ],
      "stateMutability": "nonpayable",
      "type": "function"
    },
    {
      "inputs": [
        {
          "internalType": "uint256",
          "name": "proposalId",
          "type": "uint256"
        }
      ],
      "name": "queue",
      "outputs": [],
      "stateMutability": "nonpayable",
      "type": "function"
    },
    {
      "inputs": [
        {
          "internalType": "uint256",
          "name": "proposalId",
          "type": "uint256"
        }
      ],
      "name": "execute",
      "outputs": [],
      "stateMutability": "payable",
      "type": "function",
      "payable": true
    },
    {
      "inputs": [
        {
          "internalType": "uint256",
          "name": "proposalId",
          "type": "uint256"
        }
      ],
      "name": "cancel",
      "outputs": [],
      "stateMutability": "nonpayable",
      "type": "function"
    },
    {
      "inputs": [
        {
          "internalType": "uint256",
          "name": "proposalId",
          "type": "uint256"
        }
      ],
      "name": "getActions",
      "outputs": [
        {
          "internalType": "address[]",
          "name": "targets",
          "type": "address[]"
        },
        {
          "internalType": "uint256[]",
          "name": "values",
          "type": "uint256[]"
        },
        {
          "internalType": "string[]",
          "name": "signatures",
          "type": "string[]"
        },
        {
          "internalType": "bytes[]",
          "name": "calldatas",
          "type": "bytes[]"
        }
      ],
      "stateMutability": "view",
      "type": "function",
      "constant": true
    },
    {
      "inputs": [
        {
          "internalType": "uint256",
          "name": "proposalId",
          "type": "uint256"
        },
        {
          "internalType": "address",
          "name": "voter",
          "type": "address"
        }
      ],
      "name": "getReceipt",
      "outputs": [
        {
          "components": [
            {
              "internalType": "bool",
              "name": "hasVoted",
              "type": "bool"
            },
            {
              "internalType": "bool",
              "name": "support",
              "type": "bool"
            },
            {
              "internalType": "uint96",
              "name": "votes",
              "type": "uint96"
            }
          ],
          "internalType": "struct GovernorAlpha.Receipt",
          "name": "",
          "type": "tuple"
        }
      ],
      "stateMutability": "view",
      "type": "function",
      "constant": true
    },
    {
      "inputs": [
        {
          "internalType": "uint256",
          "name": "proposalId",
          "type": "uint256"
        }
      ],
      "name": "state",
      "outputs": [
        {
          "internalType": "enum GovernorAlpha.ProposalState",
          "name": "",
          "type": "uint8"
        }
      ],
      "stateMutability": "view",
      "type": "function",
      "constant": true
    },
    {
      "inputs": [
        {
          "internalType": "uint256",
          "name": "proposalId",
          "type": "uint256"
        },
        {
          "internalType": "bool",
          "name": "support",
          "type": "bool"
        }
      ],
      "name": "castVote",
      "outputs": [],
      "stateMutability": "nonpayable",
      "type": "function"
    },
    {
      "inputs": [
        {
          "internalType": "uint256",
          "name": "proposalId",
          "type": "uint256"
        },
        {
          "internalType": "bool",
          "name": "support",
          "type": "bool"
        },
        {
          "internalType": "uint8",
          "name": "v",
          "type": "uint8"
        },
        {
          "internalType": "bytes32",
          "name": "r",
          "type": "bytes32"
        },
        {
          "internalType": "bytes32",
          "name": "s",
          "type": "bytes32"
        }
      ],
      "name": "castVoteBySig",
      "outputs": [],
      "stateMutability": "nonpayable",
      "type": "function"
    },
    {
      "inputs": [],
      "name": "__acceptAdmin",
      "outputs": [],
      "stateMutability": "nonpayable",
      "type": "function"
    },
    {
      "inputs": [],
      "name": "__abdicate",
      "outputs": [],
      "stateMutability": "nonpayable",
      "type": "function"
    },
    {
      "inputs": [
        {
          "internalType": "address",
          "name": "newPendingAdmin",
          "type": "address"
        },
        {
          "internalType": "uint256",
          "name": "eta",
          "type": "uint256"
        }
      ],
      "name": "__queueSetTimelockPendingAdmin",
      "outputs": [],
      "stateMutability": "nonpayable",
      "type": "function"
    },
    {
      "inputs": [
        {
          "internalType": "address",
          "name": "newPendingAdmin",
          "type": "address"
        },
        {
          "internalType": "uint256",
          "name": "eta",
          "type": "uint256"
        }
      ],
      "name": "__executeSetTimelockPendingAdmin",
      "outputs": [],
      "stateMutability": "nonpayable",
      "type": "function"
    }
  ],
  "bytecode": "0x60806040523480156200001157600080fd5b506040516200537938038062005379833981810160405281019062000037919062000119565b826000806101000a81548173ffffffffffffffffffffffffffffffffffffffff021916908373ffffffffffffffffffffffffffffffffffffffff16021790555081600160006101000a81548173ffffffffffffffffffffffffffffffffffffffff021916908373ffffffffffffffffffffffffffffffffffffffff16021790555080600260006101000a81548173ffffffffffffffffffffffffffffffffffffffff021916908373ffffffffffffffffffffffffffffffffffffffff160217905550505050620001bd565b6000815190506200011381620001a3565b92915050565b6000806000606084860312156200012f57600080fd5b60006200013f8682870162000102565b9350506020620001528682870162000102565b9250506040620001658682870162000102565b9150509250925092565b60006200017c8262000183565b9050919050565b600073ffffffffffffffffffffffffffffffffffffffff82169050919050565b620001ae816200016f565b8114620001ba57600080fd5b50565b6151ac80620001cd6000396000f3fe60806040526004361061019c5760003560e01c80634634c61f116100ec578063d33219b41161008a578063ddf0b00911610064578063ddf0b009146105b2578063deaaa7cc146105db578063e23a9a5214610606578063fe0d94c1146106435761019c565b8063d33219b41461051f578063da35c6641461054a578063da95691a146105755761019c565b806391500671116100c6578063915006711461048957806398c3c116146104b2578063b58131b0146104dd578063b9a61961146105085761019c565b80634634c61f1461041e578063760fbc13146104475780637bdbe4d01461045e5761019c565b806321f43e42116101595780633932abb1116101335780633932abb1146103625780633e4f49e61461038d57806340e58ee5146103ca578063452a9320146103f35761019c565b806321f43e42146102ce57806324bc1a64146102f7578063328dd982146103225761019c565b8063013cf08b146101a157806302a251a3146101e757806306fdde031461021257806315373e3d1461023d57806317977c611461026657806320606b70146102a3575b600080fd5b3480156101ad57600080fd5b506101c860048036038101906101c3919061345b565b61065f565b6040516101de9a99989796959493929190614be4565b60405180910390f35b3480156101f357600080fd5b506101fc610785565b6040516102099190614bc9565b60405180910390f35b34801561021e57600080fd5b5061022761078e565b60405161023491906148ec565b60405180910390f35b34801561024957600080fd5b50610264600480360381019061025f91906134e9565b6107c7565b005b34801561027257600080fd5b5061028d60048036038101906102889190613274565b6107d6565b60405161029a9190614bc9565b60405180910390f35b3480156102af57600080fd5b506102b86107ee565b6040516102c591906147bf565b60405180910390f35b3480156102da57600080fd5b506102f560048036038101906102f0919061329d565b610812565b005b34801561030357600080fd5b5061030c61099d565b6040516103199190614bc9565b60405180910390f35b34801561032e57600080fd5b506103496004803603810190610344919061345b565b610a51565b604051610359949392919061475e565b60405180910390f35b34801561036e57600080fd5b50610377610d2e565b6040516103849190614bc9565b60405180910390f35b34801561039957600080fd5b506103b460048036038101906103af919061345b565b610d33565b6040516103c191906148d1565b60405180910390f35b3480156103d657600080fd5b506103f160048036038101906103ec919061345b565b610f16565b005b3480156103ff57600080fd5b506104086112a4565b60405161041591906144f8565b60405180910390f35b34801561042a57600080fd5b5061044560048036038101906104409190613525565b6112ca565b005b34801561045357600080fd5b5061045c6114b3565b005b34801561046a57600080fd5b50610473611587565b6040516104809190614bc9565b60405180910390f35b34801561049557600080fd5b506104b060048036038101906104ab919061329d565b611590565b005b3480156104be57600080fd5b506104c7611716565b6040516104d4919061489b565b60405180910390f35b3480156104e957600080fd5b506104f261173c565b6040516104ff9190614bc9565b60405180910390f35b34801561051457600080fd5b5061051d6117ed565b005b34801561052b57600080fd5b506105346118ff565b60405161054191906148b6565b60405180910390f35b34801561055657600080fd5b5061055f611923565b60405161056c9190614bc9565b60405180910390f35b34801561058157600080fd5b5061059c600480360381019061059791906132d9565b611929565b6040516105a99190614bc9565b60405180910390f35b3480156105be57600080fd5b506105d960048036038101906105d4919061345b565b611e89565b005b3480156105e757600080fd5b506105f06121d3565b6040516105fd91906147bf565b60405180910390f35b34801561061257600080fd5b5061062d600480360381019061062891906134ad565b6121f7565b60405161063a9190614bae565b60405180910390f35b61065d6004803603810190610658919061345b565b6122d9565b005b60046020528060005260406000206000915090508060000154908060010160009054906101000a900473ffffffffffffffffffffffffffffffffffffffff169080600201549080600701549080600801549080600901549080600a01549080600b0160009054906101000a900460ff169080600b0160019054906101000a900460ff169080600d018054600181600116156101000203166002900480601f01602080910402602001604051908101604052809291908181526020018280546001816001161561010002031660029004801561077b5780601f106107505761010080835404028352916020019161077b565b820191906000526020600020905b81548152906001019060200180831161075e57829003601f168201915b505050505090508a565b60006023905090565b6040518060400160405280601981526020017f4175646974636861696e20476f7665726e6f7220416c7068610000000000000081525081565b6107d2338383612518565b5050565b60056020528060005260406000206000915090505481565b7f8cad95687ba82c2ce50e74f7b754645e5117c3a5bec8151c0726d5857980a86681565b600260009054906101000a900473ffffffffffffffffffffffffffffffffffffffff1673ffffffffffffffffffffffffffffffffffffffff163373ffffffffffffffffffffffffffffffffffffffff16146108a2576040517f08c379a00000000000000000000000000000000000000000000000000000000081526004016108999061496e565b60405180910390fd5b60008054906101000a900473ffffffffffffffffffffffffffffffffffffffff1673ffffffffffffffffffffffffffffffffffffffff16630825f38f60008054906101000a900473ffffffffffffffffffffffffffffffffffffffff1660008560405160200161091291906144f8565b604051602081830303815290604052856040518563ffffffff1660e01b81526004016109419493929190614614565b600060405180830381600087803b15801561095b57600080fd5b505af115801561096f573d6000803e3d6000fd5b505050506040513d6000823e3d601f19601f82011682018060405250810190610998919061341a565b505050565b600060646004600160009054906101000a900473ffffffffffffffffffffffffffffffffffffffff1673ffffffffffffffffffffffffffffffffffffffff166318160ddd6040518163ffffffff1660e01b815260040160206040518083038186803b158015610a0b57600080fd5b505afa158015610a1f573d6000803e3d6000fd5b505050506040513d601f19601f82011682018060405250810190610a439190613484565b0281610a4b57fe5b04905090565b60608060608060006004600087815260200190815260200160002090508060030181600401826005018360060183805480602002602001604051908101604052809291908181526020018280548015610aff57602002820191906000526020600020905b8160009054906101000a900473ffffffffffffffffffffffffffffffffffffffff1673ffffffffffffffffffffffffffffffffffffffff1681526020019060010190808311610ab5575b5050505050935082805480602002602001604051908101604052809291908181526020018280548015610b5157602002820191906000526020600020905b815481526020019060010190808311610b3d575b5050505050925081805480602002602001604051908101604052809291908181526020016000905b82821015610c35578382906000526020600020018054600181600116156101000203166002900480601f016020809104026020016040519081016040528092919081815260200182805460018160011615610100020316600290048015610c215780601f10610bf657610100808354040283529160200191610c21565b820191906000526020600020905b815481529060010190602001808311610c0457829003601f168201915b505050505081526020019060010190610b79565b50505050915080805480602002602001604051908101604052809291908181526020016000905b82821015610d18578382906000526020600020018054600181600116156101000203166002900480601f016020809104026020016040519081016040528092919081815260200182805460018160011615610100020316600290048015610d045780601f10610cd957610100808354040283529160200191610d04565b820191906000526020600020905b815481529060010190602001808311610ce757829003601f168201915b505050505081526020019060010190610c5c565b5050505090509450945094509450509193509193565b600090565b60008160035410158015610d475750600082115b610d86576040517f08c379a0000000000000000000000000000000000000000000000000000000008152600401610d7d9061498e565b60405180910390fd5b600060046000848152602001908152602001600020905080600b0160009054906101000a900460ff1615610dbe576002915050610f11565b80600701544311610dd3576000915050610f11565b80600801544311610de8576001915050610f11565b80600a01548160090154111580610e095750610e0261099d565b8160090154105b15610e18576003915050610f11565b600081600201541415610e2f576004915050610f11565b80600b0160019054906101000a900460ff1615610e50576007915050610f11565b610efb816002015460008054906101000a900473ffffffffffffffffffffffffffffffffffffffff1673ffffffffffffffffffffffffffffffffffffffff1663c1a287e26040518163ffffffff1660e01b815260040160206040518083038186803b158015610ebe57600080fd5b505afa158015610ed2573d6000803e3d6000fd5b505050506040513d601f19601f82011682018060405250810190610ef69190613484565b6127e6565b4210610f0b576006915050610f11565b60059150505b919050565b6000610f2182610d33565b9050600780811115610f2f57fe5b816007811115610f3b57fe5b1415610f7c576040517f08c379a0000000000000000000000000000000000000000000000000000000008152600401610f7390614b2e565b60405180910390fd5b6000600460008481526020019081526020016000209050600260009054906101000a900473ffffffffffffffffffffffffffffffffffffffff1673ffffffffffffffffffffffffffffffffffffffff163373ffffffffffffffffffffffffffffffffffffffff1614806110dd5750610ff261173c565b600160009054906101000a900473ffffffffffffffffffffffffffffffffffffffff1673ffffffffffffffffffffffffffffffffffffffff1663782d6fe18360010160009054906101000a900473ffffffffffffffffffffffffffffffffffffffff1661106043600161283b565b6040518363ffffffff1660e01b815260040161107d929190614673565b60206040518083038186803b15801561109557600080fd5b505afa1580156110a9573d6000803e3d6000fd5b505050506040513d601f19601f820116820180604052508101906110cd919061359c565b6bffffffffffffffffffffffff16105b61111c576040517f08c379a000000000000000000000000000000000000000000000000000000000815260040161111390614a6e565b60405180910390fd5b600181600b0160006101000a81548160ff02191690831515021790555060005b81600301805490508110156112715760008054906101000a900473ffffffffffffffffffffffffffffffffffffffff1673ffffffffffffffffffffffffffffffffffffffff1663591fcdfe83600301838154811061119657fe5b9060005260206000200160009054906101000a900473ffffffffffffffffffffffffffffffffffffffff168460040184815481106111d057fe5b90600052602060002001548560050185815481106111ea57fe5b9060005260206000200186600601868154811061120357fe5b9060005260206000200187600201546040518663ffffffff1660e01b81526004016112329594939291906146fd565b600060405180830381600087803b15801561124c57600080fd5b505af1158015611260573d6000803e3d6000fd5b50505050808060010191505061113c565b50827f789cf55be980739dad1d0699b93b58e806b51c9d96619bfa8fe0a28abaa7b30c60405160405180910390a2505050565b600260009054906101000a900473ffffffffffffffffffffffffffffffffffffffff1681565b60007f8cad95687ba82c2ce50e74f7b754645e5117c3a5bec8151c0726d5857980a8666040518060400160405280601981526020017f4175646974636861696e20476f7665726e6f7220416c706861000000000000008152508051906020012061133261288b565b3060405160200161134694939291906147da565b60405160208183030381529060405280519060200120905060007f8e25870c07e0b0b3884c78da52790939a455c275406c44ae8b434b692fb916ee87876040516020016113959392919061481f565b604051602081830303815290604052805190602001209050600082826040516020016113c29291906144c1565b6040516020818303038152906040528051906020012090506000600182888888604051600081526020016040526040516113ff9493929190614856565b6020604051602081039080840390855afa158015611421573d6000803e3d6000fd5b505050602060405103519050600073ffffffffffffffffffffffffffffffffffffffff168173ffffffffffffffffffffffffffffffffffffffff16141561149d576040517f08c379a000000000000000000000000000000000000000000000000000000000815260040161149490614aee565b60405180910390fd5b6114a8818a8a612518565b505050505050505050565b600260009054906101000a900473ffffffffffffffffffffffffffffffffffffffff1673ffffffffffffffffffffffffffffffffffffffff163373ffffffffffffffffffffffffffffffffffffffff1614611543576040517f08c379a000000000000000000000000000000000000000000000000000000000815260040161153a90614b8e565b60405180910390fd5b6000600260006101000a81548173ffffffffffffffffffffffffffffffffffffffff021916908373ffffffffffffffffffffffffffffffffffffffff160217905550565b6000600a905090565b600260009054906101000a900473ffffffffffffffffffffffffffffffffffffffff1673ffffffffffffffffffffffffffffffffffffffff163373ffffffffffffffffffffffffffffffffffffffff1614611620576040517f08c379a0000000000000000000000000000000000000000000000000000000008152600401611617906149ee565b60405180910390fd5b60008054906101000a900473ffffffffffffffffffffffffffffffffffffffff1673ffffffffffffffffffffffffffffffffffffffff16633a66f90160008054906101000a900473ffffffffffffffffffffffffffffffffffffffff1660008560405160200161169091906144f8565b604051602081830303815290604052856040518563ffffffff1660e01b81526004016116bf9493929190614614565b602060405180830381600087803b1580156116d957600080fd5b505af11580156116ed573d6000803e3d6000fd5b505050506040513d601f19601f8201168201806040525081019061171191906133f1565b505050565b600160009054906101000a900473ffffffffffffffffffffffffffffffffffffffff1681565b60006064600160009054906101000a900473ffffffffffffffffffffffffffffffffffffffff1673ffffffffffffffffffffffffffffffffffffffff166318160ddd6040518163ffffffff1660e01b815260040160206040518083038186803b1580156117a857600080fd5b505afa1580156117bc573d6000803e3d6000fd5b505050506040513d601f19601f820116820180604052508101906117e09190613484565b816117e757fe5b04905090565b600260009054906101000a900473ffffffffffffffffffffffffffffffffffffffff1673ffffffffffffffffffffffffffffffffffffffff163373ffffffffffffffffffffffffffffffffffffffff161461187d576040517f08c379a00000000000000000000000000000000000000000000000000000000081526004016118749061490e565b60405180910390fd5b60008054906101000a900473ffffffffffffffffffffffffffffffffffffffff1673ffffffffffffffffffffffffffffffffffffffff16630e18b6816040518163ffffffff1660e01b8152600401600060405180830381600087803b1580156118e557600080fd5b505af11580156118f9573d6000803e3d6000fd5b50505050565b60008054906101000a900473ffffffffffffffffffffffffffffffffffffffff1681565b60035481565b600061193361173c565b600160009054906101000a900473ffffffffffffffffffffffffffffffffffffffff1673ffffffffffffffffffffffffffffffffffffffff1663782d6fe13361197d43600161283b565b6040518363ffffffff1660e01b815260040161199a9291906145b4565b60206040518083038186803b1580156119b257600080fd5b505afa1580156119c6573d6000803e3d6000fd5b505050506040513d601f19601f820116820180604052508101906119ea919061359c565b6bffffffffffffffffffffffff1611611a38576040517f08c379a0000000000000000000000000000000000000000000000000000000008152600401611a2f90614ace565b60405180910390fd5b84518651148015611a4a575083518651145b8015611a57575082518651145b611a96576040517f08c379a0000000000000000000000000000000000000000000000000000000008152600401611a8d90614a4e565b60405180910390fd5b600086511415611adb576040517f08c379a0000000000000000000000000000000000000000000000000000000008152600401611ad290614aae565b60405180910390fd5b611ae3611587565b86511115611b26576040517f08c379a0000000000000000000000000000000000000000000000000000000008152600401611b1d90614a0e565b60405180910390fd5b6000600560003373ffffffffffffffffffffffffffffffffffffffff1673ffffffffffffffffffffffffffffffffffffffff16815260200190815260200160002054905060008114611c35576000611b7d82610d33565b905060016007811115611b8c57fe5b816007811115611b9857fe5b1415611bd9576040517f08c379a0000000000000000000000000000000000000000000000000000000008152600401611bd090614b0e565b60405180910390fd5b60006007811115611be657fe5b816007811115611bf257fe5b1415611c33576040517f08c379a0000000000000000000000000000000000000000000000000000000008152600401611c2a906149ce565b60405180910390fd5b505b6000611c4843611c43610d2e565b6127e6565b90506000611c5d82611c58610785565b6127e6565b9050600360008154809291906001019190505550600060046000600354815260200190815260200160002090506003548160000181905550338160010160006101000a81548173ffffffffffffffffffffffffffffffffffffffff021916908373ffffffffffffffffffffffffffffffffffffffff1602179055506000816002018190555089816003019080519060200190611cfa929190612a6a565b5088816004019080519060200190611d13929190612af4565b5087816005019080519060200190611d2c929190612b41565b5086816006019080519060200190611d45929190612ba1565b5082816007018190555081816008018190555060008160090181905550600081600a0181905550600081600b0160006101000a81548160ff021916908315150217905550600081600b0160016101000a81548160ff0219169083151502179055508581600d019080519060200190611dbe929190612c01565b508060000154600560008360010160009054906101000a900473ffffffffffffffffffffffffffffffffffffffff1673ffffffffffffffffffffffffffffffffffffffff1673ffffffffffffffffffffffffffffffffffffffff1681526020019081526020016000208190555080600001547f7d84a6263ae0d98d3329bd7b46bb4e8d6f98cd35a7adb45c274c8b7fd5ebd5e0338c8c8c8c89898e604051611e6d989796959493929190614513565b60405180910390a2806000015494505050505095945050505050565b60046007811115611e9657fe5b611e9f82610d33565b6007811115611eaa57fe5b14611eea576040517f08c379a0000000000000000000000000000000000000000000000000000000008152600401611ee19061492e565b60405180910390fd5b60006004600083815260200190815260200160002090506000611faa4260008054906101000a900473ffffffffffffffffffffffffffffffffffffffff1673ffffffffffffffffffffffffffffffffffffffff16636a42b8f86040518163ffffffff1660e01b815260040160206040518083038186803b158015611f6d57600080fd5b505afa158015611f81573d6000803e3d6000fd5b505050506040513d601f19601f82011682018060405250810190611fa59190613484565b6127e6565b905060005b826003018054905081101561218c5761217f836003018281548110611fd057fe5b9060005260206000200160009054906101000a900473ffffffffffffffffffffffffffffffffffffffff1684600401838154811061200a57fe5b906000526020600020015485600501848154811061202457fe5b906000526020600020018054600181600116156101000203166002900480601f0160208091040260200160405190810160405280929190818152602001828054600181600116156101000203166002900480156120c25780601f10612097576101008083540402835291602001916120c2565b820191906000526020600020905b8154815290600101906020018083116120a557829003601f168201915b50505050508660060185815481106120d657fe5b906000526020600020018054600181600116156101000203166002900480601f0160208091040260200160405190810160405280929190818152602001828054600181600116156101000203166002900480156121745780601f1061214957610100808354040283529160200191612174565b820191906000526020600020905b81548152906001019060200180831161215757829003601f168201915b505050505086612898565b8080600101915050611faf565b50808260020181905550827f9a2e42fd6722813d69113e7d0079d3d940171428df7373df9c7f7617cfda2892826040516121c69190614bc9565b60405180910390a2505050565b7f8e25870c07e0b0b3884c78da52790939a455c275406c44ae8b434b692fb916ee81565b6121ff612c8f565b60046000848152602001908152602001600020600c0160008373ffffffffffffffffffffffffffffffffffffffff1673ffffffffffffffffffffffffffffffffffffffff1681526020019081526020016000206040518060600160405290816000820160009054906101000a900460ff161515151581526020016000820160019054906101000a900460ff161515151581526020016000820160029054906101000a90046bffffffffffffffffffffffff166bffffffffffffffffffffffff166bffffffffffffffffffffffff1681525050905092915050565b600560078111156122e657fe5b6122ef82610d33565b60078111156122fa57fe5b1461233a576040517f08c379a00000000000000000000000000000000000000000000000000000000081526004016123319061494e565b60405180910390fd5b6000600460008381526020019081526020016000209050600181600b0160016101000a81548160ff02191690831515021790555060005b81600301805490508110156124e65760008054906101000a900473ffffffffffffffffffffffffffffffffffffffff1673ffffffffffffffffffffffffffffffffffffffff16630825f38f8360040183815481106123cb57fe5b90600052602060002001548460030184815481106123e557fe5b9060005260206000200160009054906101000a900473ffffffffffffffffffffffffffffffffffffffff1685600401858154811061241f57fe5b906000526020600020015486600501868154811061243957fe5b9060005260206000200187600601878154811061245257fe5b9060005260206000200188600201546040518763ffffffff1660e01b81526004016124819594939291906146fd565b6000604051808303818588803b15801561249a57600080fd5b505af11580156124ae573d6000803e3d6000fd5b50505050506040513d6000823e3d601f19601f820116820180604052508101906124d8919061341a565b508080600101915050612371565b50817f712ae1383f79ac853f8d882153778e0260ef8f03b504e2866e0593e04d2b291f60405160405180910390a25050565b6001600781111561252557fe5b61252e83610d33565b600781111561253957fe5b14612579576040517f08c379a000000000000000000000000000000000000000000000000000000000815260040161257090614b4e565b60405180910390fd5b6000600460008481526020019081526020016000209050600081600c0160008673ffffffffffffffffffffffffffffffffffffffff1673ffffffffffffffffffffffffffffffffffffffff1681526020019081526020016000209050600015158160000160009054906101000a900460ff1615151461262d576040517f08c379a0000000000000000000000000000000000000000000000000000000008152600401612624906149ae565b60405180910390fd5b6000600160009054906101000a900473ffffffffffffffffffffffffffffffffffffffff1673ffffffffffffffffffffffffffffffffffffffff1663782d6fe18785600701546040518363ffffffff1660e01b8152600401612690929190614673565b60206040518083038186803b1580156126a857600080fd5b505afa1580156126bc573d6000803e3d6000fd5b505050506040513d601f19601f820116820180604052508101906126e0919061359c565b90508315612711576127048360090154826bffffffffffffffffffffffff166127e6565b8360090181905550612736565b61272d83600a0154826bffffffffffffffffffffffff166127e6565b83600a01819055505b60018260000160006101000a81548160ff021916908315150217905550838260000160016101000a81548160ff021916908315150217905550808260000160026101000a8154816bffffffffffffffffffffffff02191690836bffffffffffffffffffffffff160217905550847f877856338e13f63d0c36822ff0ef736b80934cd90574a3a5bc9262c39d217c468786846040516127d6939291906145dd565b60405180910390a2505050505050565b600080828401905083811015612831576040517f08c379a000000000000000000000000000000000000000000000000000000000815260040161282890614a2e565b60405180910390fd5b8091505092915050565b600082821115612880576040517f08c379a000000000000000000000000000000000000000000000000000000000815260040161287790614b6e565b60405180910390fd5b818303905092915050565b6000804690508091505090565b60008054906101000a900473ffffffffffffffffffffffffffffffffffffffff1673ffffffffffffffffffffffffffffffffffffffff1663f2b0653786868686866040516020016128ed95949392919061469c565b604051602081830303815290604052805190602001206040518263ffffffff1660e01b815260040161291f91906147bf565b60206040518083038186803b15801561293757600080fd5b505afa15801561294b573d6000803e3d6000fd5b505050506040513d601f19601f8201168201806040525081019061296f91906133c8565b156129af576040517f08c379a00000000000000000000000000000000000000000000000000000000081526004016129a690614a8e565b60405180910390fd5b60008054906101000a900473ffffffffffffffffffffffffffffffffffffffff1673ffffffffffffffffffffffffffffffffffffffff16633a66f90186868686866040518663ffffffff1660e01b8152600401612a1095949392919061469c565b602060405180830381600087803b158015612a2a57600080fd5b505af1158015612a3e573d6000803e3d6000fd5b505050506040513d601f19601f82011682018060405250810190612a6291906133f1565b505050505050565b828054828255906000526020600020908101928215612ae3579160200282015b82811115612ae25782518260006101000a81548173ffffffffffffffffffffffffffffffffffffffff021916908373ffffffffffffffffffffffffffffffffffffffff16021790555091602001919060010190612a8a565b5b509050612af09190612cc2565b5090565b828054828255906000526020600020908101928215612b30579160200282015b82811115612b2f578251825591602001919060010190612b14565b5b509050612b3d9190612cc2565b5090565b828054828255906000526020600020908101928215612b90579160200282015b82811115612b8f578251829080519060200190612b7f929190612c01565b5091602001919060010190612b61565b5b509050612b9d9190612cdf565b5090565b828054828255906000526020600020908101928215612bf0579160200282015b82811115612bef578251829080519060200190612bdf929190612d03565b5091602001919060010190612bc1565b5b509050612bfd9190612d91565b5090565b828054600181600116156101000203166002900490600052602060002090601f016020900481019282612c375760008555612c7e565b82601f10612c5057805160ff1916838001178555612c7e565b82800160010185558215612c7e579182015b82811115612c7d578251825591602001919060010190612c62565b5b509050612c8b9190612cc2565b5090565b604051806060016040528060001515815260200160001515815260200160006bffffffffffffffffffffffff1681525090565b5b80821115612cdb576000816000905550600101612cc3565b5090565b5b80821115612cff5760008181612cf69190612db5565b50600101612ce0565b5090565b828054600181600116156101000203166002900490600052602060002090601f016020900481019282612d395760008555612d80565b82601f10612d5257805160ff1916838001178555612d80565b82800160010185558215612d80579182015b82811115612d7f578251825591602001919060010190612d64565b5b509050612d8d9190612cc2565b5090565b5b80821115612db15760008181612da89190612dfd565b50600101612d92565b5090565b50805460018160011615610100020316600290046000825580601f10612ddb5750612dfa565b601f016020900490600052602060002090810190612df99190612cc2565b5b50565b50805460018160011615610100020316600290046000825580601f10612e235750612e42565b601f016020900490600052602060002090810190612e419190612cc2565b5b50565b6000612e58612e5384614cb8565b614c87565b90508083825260208201905082856020860282011115612e7757600080fd5b60005b85811015612ea75781612e8d8882613091565b845260208401935060208301925050600181019050612e7a565b5050509392505050565b6000612ec4612ebf84614ce4565b614c87565b9050808382526020820190508260005b85811015612f045781358501612eea88826131a2565b845260208401935060208301925050600181019050612ed4565b5050509392505050565b6000612f21612f1c84614d10565b614c87565b9050808382526020820190508260005b85811015612f615781358501612f4788826131f6565b845260208401935060208301925050600181019050612f31565b5050509392505050565b6000612f7e612f7984614d3c565b614c87565b90508083825260208201905082856020860282011115612f9d57600080fd5b60005b85811015612fcd5781612fb38882613220565b845260208401935060208301925050600181019050612fa0565b5050509392505050565b6000612fea612fe584614d68565b614c87565b90508281526020810184848401111561300257600080fd5b61300d848285615079565b509392505050565b600061302861302384614d68565b614c87565b90508281526020810184848401111561304057600080fd5b61304b848285615088565b509392505050565b600061306661306184614d98565b614c87565b90508281526020810184848401111561307e57600080fd5b613089848285615079565b509392505050565b6000813590506130a0816150ec565b92915050565b600082601f8301126130b757600080fd5b81356130c7848260208601612e45565b91505092915050565b600082601f8301126130e157600080fd5b81356130f1848260208601612eb1565b91505092915050565b600082601f83011261310b57600080fd5b813561311b848260208601612f0e565b91505092915050565b600082601f83011261313557600080fd5b8135613145848260208601612f6b565b91505092915050565b60008135905061315d81615103565b92915050565b60008151905061317281615103565b92915050565b6000813590506131878161511a565b92915050565b60008151905061319c8161511a565b92915050565b600082601f8301126131b357600080fd5b81356131c3848260208601612fd7565b91505092915050565b600082601f8301126131dd57600080fd5b81516131ed848260208601613015565b91505092915050565b600082601f83011261320757600080fd5b8135613217848260208601613053565b91505092915050565b60008135905061322f81615131565b92915050565b60008151905061324481615131565b92915050565b60008135905061325981615148565b92915050565b60008151905061326e8161515f565b92915050565b60006020828403121561328657600080fd5b600061329484828501613091565b91505092915050565b600080604083850312156132b057600080fd5b60006132be85828601613091565b92505060206132cf85828601613220565b9150509250929050565b600080600080600060a086880312156132f157600080fd5b600086013567ffffffffffffffff81111561330b57600080fd5b613317888289016130a6565b955050602086013567ffffffffffffffff81111561333457600080fd5b61334088828901613124565b945050604086013567ffffffffffffffff81111561335d57600080fd5b613369888289016130fa565b935050606086013567ffffffffffffffff81111561338657600080fd5b613392888289016130d0565b925050608086013567ffffffffffffffff8111156133af57600080fd5b6133bb888289016131f6565b9150509295509295909350565b6000602082840312156133da57600080fd5b60006133e884828501613163565b91505092915050565b60006020828403121561340357600080fd5b60006134118482850161318d565b91505092915050565b60006020828403121561342c57600080fd5b600082015167ffffffffffffffff81111561344657600080fd5b613452848285016131cc565b91505092915050565b60006020828403121561346d57600080fd5b600061347b84828501613220565b91505092915050565b60006020828403121561349657600080fd5b60006134a484828501613235565b91505092915050565b600080604083850312156134c057600080fd5b60006134ce85828601613220565b92505060206134df85828601613091565b9150509250929050565b600080604083850312156134fc57600080fd5b600061350a85828601613220565b925050602061351b8582860161314e565b9150509250929050565b600080600080600060a0868803121561353d57600080fd5b600061354b88828901613220565b955050602061355c8882890161314e565b945050604061356d8882890161324a565b935050606061357e88828901613178565b925050608061358f88828901613178565b9150509295509295909350565b6000602082840312156135ae57600080fd5b60006135bc8482850161325f565b91505092915050565b60006135d1838361362c565b60208301905092915050565b60006135e98383613834565b905092915050565b60006135fd8383613971565b905092915050565b60006136118383614476565b60208301905092915050565b61362681614fc5565b82525050565b61363581614f3b565b82525050565b61364481614f3b565b82525050565b600061365582614e32565b61365f8185614ea8565b935061366a83614dc8565b8060005b8381101561369b57815161368288826135c5565b975061368d83614e74565b92505060018101905061366e565b5085935050505092915050565b60006136b382614e3d565b6136bd8185614eb9565b9350836020820285016136cf85614dd8565b8060005b8581101561370b57848403895281516136ec85826135dd565b94506136f783614e81565b925060208a019950506001810190506136d3565b50829750879550505050505092915050565b600061372882614e48565b6137328185614eca565b93508360208202850161374485614de8565b8060005b85811015613780578484038952815161376185826135f1565b945061376c83614e8e565b925060208a01995050600181019050613748565b50829750879550505050505092915050565b600061379d82614e53565b6137a78185614edb565b93506137b283614df8565b8060005b838110156137e35781516137ca8882613605565b97506137d583614e9b565b9250506001810190506137b6565b5085935050505092915050565b6137f981614f4d565b82525050565b61380881614f4d565b82525050565b61381781614f59565b82525050565b61382e61382982614f59565b6150bb565b82525050565b600061383f82614e5e565b6138498185614eec565b9350613859818560208601615088565b613862816150c7565b840191505092915050565b600061387882614e5e565b6138828185614efd565b9350613892818560208601615088565b61389b816150c7565b840191505092915050565b6000815460018116600081146138c357600181146138e95761392d565b607f60028304166138d48187614efd565b955060ff19831686526020860193505061392d565b600282046138f78187614efd565b955061390285614e08565b60005b8281101561392457815481890152600182019150602081019050613905565b80880195505050505b505092915050565b61393e81614fd7565b82525050565b61394d81614ffb565b82525050565b61395c8161501f565b82525050565b61396b81615031565b82525050565b600061397c82614e69565b6139868185614f0e565b9350613996818560208601615088565b61399f816150c7565b840191505092915050565b60006139b582614e69565b6139bf8185614f1f565b93506139cf818560208601615088565b6139d8816150c7565b840191505092915050565b600081546001811660008114613a005760018114613a2657613a6a565b607f6002830416613a118187614f1f565b955060ff198316865260208601935050613a6a565b60028204613a348187614f1f565b9550613a3f85614e1d565b60005b82811015613a6157815481890152600182019150602081019050613a42565b80880195505050505b505092915050565b6000613a7f603983614f1f565b91507f476f7665726e6f72416c7068613a3a5f5f61636365707441646d696e3a20736560008301527f6e646572206d75737420626520676f7620677561726469616e000000000000006020830152604082019050919050565b6000613ae5604483614f1f565b91507f476f7665726e6f72416c7068613a3a71756575653a2070726f706f73616c206360008301527f616e206f6e6c792062652071756575656420696620697420697320737563636560208301527f65646564000000000000000000000000000000000000000000000000000000006040830152606082019050919050565b6000613b71604583614f1f565b91507f476f7665726e6f72416c7068613a3a657865637574653a2070726f706f73616c60008301527f2063616e206f6e6c79206265206578656375746564206966206974206973207160208301527f75657565640000000000000000000000000000000000000000000000000000006040830152606082019050919050565b6000613bfd600283614f30565b91507f19010000000000000000000000000000000000000000000000000000000000006000830152600282019050919050565b6000613c3d604c83614f1f565b91507f476f7665726e6f72416c7068613a3a5f5f6578656375746553657454696d656c60008301527f6f636b50656e64696e6741646d696e3a2073656e646572206d7573742062652060208301527f676f7620677561726469616e00000000000000000000000000000000000000006040830152606082019050919050565b6000613cc9601883614f1f565b91507f73657450656e64696e6741646d696e28616464726573732900000000000000006000830152602082019050919050565b6000613d09602983614f1f565b91507f476f7665726e6f72416c7068613a3a73746174653a20696e76616c696420707260008301527f6f706f73616c20696400000000000000000000000000000000000000000000006020830152604082019050919050565b6000613d6f602d83614f1f565b91507f476f7665726e6f72416c7068613a3a5f63617374566f74653a20766f7465722060008301527f616c726561647920766f746564000000000000000000000000000000000000006020830152604082019050919050565b6000613dd5605983614f1f565b91507f476f7665726e6f72416c7068613a3a70726f706f73653a206f6e65206c69766560008301527f2070726f706f73616c207065722070726f706f7365722c20666f756e6420616e60208301527f20616c72656164792070656e64696e672070726f706f73616c000000000000006040830152606082019050919050565b6000613e61604a83614f1f565b91507f476f7665726e6f72416c7068613a3a5f5f717565756553657454696d656c6f6360008301527f6b50656e64696e6741646d696e3a2073656e646572206d75737420626520676f60208301527f7620677561726469616e000000000000000000000000000000000000000000006040830152606082019050919050565b6000613eed602883614f1f565b91507f476f7665726e6f72416c7068613a3a70726f706f73653a20746f6f206d616e7960008301527f20616374696f6e730000000000000000000000000000000000000000000000006020830152604082019050919050565b6000613f53601183614f1f565b91507f6164646974696f6e206f766572666c6f770000000000000000000000000000006000830152602082019050919050565b6000613f93604483614f1f565b91507f476f7665726e6f72416c7068613a3a70726f706f73653a2070726f706f73616c60008301527f2066756e6374696f6e20696e666f726d6174696f6e206172697479206d69736d60208301527f61746368000000000000000000000000000000000000000000000000000000006040830152606082019050919050565b600061401f602f83614f1f565b91507f476f7665726e6f72416c7068613a3a63616e63656c3a2070726f706f7365722060008301527f61626f7665207468726573686f6c6400000000000000000000000000000000006020830152604082019050919050565b6000614085604483614f1f565b91507f476f7665726e6f72416c7068613a3a5f71756575654f725265766572743a207060008301527f726f706f73616c20616374696f6e20616c72656164792071756575656420617460208301527f20657461000000000000000000000000000000000000000000000000000000006040830152606082019050919050565b6000614111602c83614f1f565b91507f476f7665726e6f72416c7068613a3a70726f706f73653a206d7573742070726f60008301527f7669646520616374696f6e7300000000000000000000000000000000000000006020830152604082019050919050565b6000614177603f83614f1f565b91507f476f7665726e6f72416c7068613a3a70726f706f73653a2070726f706f73657260008301527f20766f7465732062656c6f772070726f706f73616c207468726573686f6c64006020830152604082019050919050565b60006141dd602f83614f1f565b91507f476f7665726e6f72416c7068613a3a63617374566f746542795369673a20696e60008301527f76616c6964207369676e617475726500000000000000000000000000000000006020830152604082019050919050565b6000614243605883614f1f565b91507f476f7665726e6f72416c7068613a3a70726f706f73653a206f6e65206c69766560008301527f2070726f706f73616c207065722070726f706f7365722c20666f756e6420616e60208301527f20616c7265616479206163746976652070726f706f73616c00000000000000006040830152606082019050919050565b60006142cf603683614f1f565b91507f476f7665726e6f72416c7068613a3a63616e63656c3a2063616e6e6f7420636160008301527f6e63656c2065786563757465642070726f706f73616c000000000000000000006020830152604082019050919050565b6000614335602a83614f1f565b91507f476f7665726e6f72416c7068613a3a5f63617374566f74653a20766f74696e6760008301527f20697320636c6f736564000000000000000000000000000000000000000000006020830152604082019050919050565b600061439b601583614f1f565b91507f7375627472616374696f6e20756e646572666c6f7700000000000000000000006000830152602082019050919050565b60006143db603683614f1f565b91507f476f7665726e6f72416c7068613a3a5f5f61626469636174653a2073656e646560008301527f72206d75737420626520676f7620677561726469616e000000000000000000006020830152604082019050919050565b60608201600082015161444a60008501826137f0565b50602082015161445d60208501826137f0565b50604082015161447060408501826144b2565b50505050565b61447f81614f96565b82525050565b61448e81614f96565b82525050565b61449d81614fa0565b82525050565b6144ac81615067565b82525050565b6144bb81614fad565b82525050565b60006144cc82613bf0565b91506144d8828561381d565b6020820191506144e8828461381d565b6020820191508190509392505050565b600060208201905061450d600083018461363b565b92915050565b600061010082019050614529600083018b61361d565b818103602083015261453b818a61364a565b9050818103604083015261454f8189613792565b90508181036060830152614563818861371d565b9050818103608083015261457781876136a8565b905061458660a0830186614485565b61459360c0830185614485565b81810360e08301526145a581846139aa565b90509998505050505050505050565b60006040820190506145c9600083018561361d565b6145d66020830184614485565b9392505050565b60006060820190506145f2600083018661363b565b6145ff60208301856137ff565b61460c60408301846144a3565b949350505050565b600060a082019050614629600083018761363b565b6146366020830186613962565b818103604083015261464781613cbc565b9050818103606083015261465b818561386d565b905061466a6080830184614485565b95945050505050565b6000604082019050614688600083018561363b565b6146956020830184614485565b9392505050565b600060a0820190506146b1600083018861363b565b6146be6020830187614485565b81810360408301526146d081866139aa565b905081810360608301526146e4818561386d565b90506146f36080830184614485565b9695505050505050565b600060a082019050614712600083018861363b565b61471f6020830187614485565b818103604083015261473181866139e3565b9050818103606083015261474581856138a6565b90506147546080830184614485565b9695505050505050565b60006080820190508181036000830152614778818761364a565b9050818103602083015261478c8186613792565b905081810360408301526147a0818561371d565b905081810360608301526147b481846136a8565b905095945050505050565b60006020820190506147d4600083018461380e565b92915050565b60006080820190506147ef600083018761380e565b6147fc602083018661380e565b6148096040830185614485565b614816606083018461363b565b95945050505050565b6000606082019050614834600083018661380e565b6148416020830185614485565b61484e60408301846137ff565b949350505050565b600060808201905061486b600083018761380e565b6148786020830186614494565b614885604083018561380e565b614892606083018461380e565b95945050505050565b60006020820190506148b06000830184613935565b92915050565b60006020820190506148cb6000830184613944565b92915050565b60006020820190506148e66000830184613953565b92915050565b6000602082019050818103600083015261490681846139aa565b905092915050565b6000602082019050818103600083015261492781613a72565b9050919050565b6000602082019050818103600083015261494781613ad8565b9050919050565b6000602082019050818103600083015261496781613b64565b9050919050565b6000602082019050818103600083015261498781613c30565b9050919050565b600060208201905081810360008301526149a781613cfc565b9050919050565b600060208201905081810360008301526149c781613d62565b9050919050565b600060208201905081810360008301526149e781613dc8565b9050919050565b60006020820190508181036000830152614a0781613e54565b9050919050565b60006020820190508181036000830152614a2781613ee0565b9050919050565b60006020820190508181036000830152614a4781613f46565b9050919050565b60006020820190508181036000830152614a6781613f86565b9050919050565b60006020820190508181036000830152614a8781614012565b9050919050565b60006020820190508181036000830152614aa781614078565b9050919050565b60006020820190508181036000830152614ac781614104565b9050919050565b60006020820190508181036000830152614ae78161416a565b9050919050565b60006020820190508181036000830152614b07816141d0565b9050919050565b60006020820190508181036000830152614b2781614236565b9050919050565b60006020820190508181036000830152614b47816142c2565b9050919050565b60006020820190508181036000830152614b6781614328565b9050919050565b60006020820190508181036000830152614b878161438e565b9050919050565b60006020820190508181036000830152614ba7816143ce565b9050919050565b6000606082019050614bc36000830184614434565b92915050565b6000602082019050614bde6000830184614485565b92915050565b600061014082019050614bfa600083018d614485565b614c07602083018c61363b565b614c14604083018b614485565b614c21606083018a614485565b614c2e6080830189614485565b614c3b60a0830188614485565b614c4860c0830187614485565b614c5560e08301866137ff565b614c636101008301856137ff565b818103610120830152614c7681846139aa565b90509b9a5050505050505050505050565b6000604051905081810181811067ffffffffffffffff82111715614cae57614cad6150c5565b5b8060405250919050565b600067ffffffffffffffff821115614cd357614cd26150c5565b5b602082029050602081019050919050565b600067ffffffffffffffff821115614cff57614cfe6150c5565b5b602082029050602081019050919050565b600067ffffffffffffffff821115614d2b57614d2a6150c5565b5b602082029050602081019050919050565b600067ffffffffffffffff821115614d5757614d566150c5565b5b602082029050602081019050919050565b600067ffffffffffffffff821115614d8357614d826150c5565b5b601f19601f8301169050602081019050919050565b600067ffffffffffffffff821115614db357614db26150c5565b5b601f19601f8301169050602081019050919050565b6000819050602082019050919050565b6000819050602082019050919050565b6000819050602082019050919050565b6000819050602082019050919050565b60008190508160005260206000209050919050565b60008190508160005260206000209050919050565b600081519050919050565b600081519050919050565b600081519050919050565b600081519050919050565b600081519050919050565b600081519050919050565b6000602082019050919050565b6000602082019050919050565b6000602082019050919050565b6000602082019050919050565b600082825260208201905092915050565b600082825260208201905092915050565b600082825260208201905092915050565b600082825260208201905092915050565b600082825260208201905092915050565b600082825260208201905092915050565b600082825260208201905092915050565b600082825260208201905092915050565b600081905092915050565b6000614f4682614f76565b9050919050565b60008115159050919050565b6000819050919050565b6000819050614f71826150d8565b919050565b600073ffffffffffffffffffffffffffffffffffffffff82169050919050565b6000819050919050565b600060ff82169050919050565b60006bffffffffffffffffffffffff82169050919050565b6000614fd082615043565b9050919050565b6000614fe282614fe9565b9050919050565b6000614ff482614f76565b9050919050565b60006150068261500d565b9050919050565b600061501882614f76565b9050919050565b600061502a82614f63565b9050919050565b600061503c82614f96565b9050919050565b600061504e82615055565b9050919050565b600061506082614f76565b9050919050565b600061507282614fad565b9050919050565b82818337600083830152505050565b60005b838110156150a657808201518184015260208101905061508b565b838111156150b5576000848401525b50505050565b6000819050919050565bfe5b6000601f19601f8301169050919050565b600881106150e9576150e86150c5565b5b50565b6150f581614f3b565b811461510057600080fd5b50565b61510c81614f4d565b811461511757600080fd5b50565b61512381614f59565b811461512e57600080fd5b50565b61513a81614f96565b811461514557600080fd5b50565b61515181614fa0565b811461515c57600080fd5b50565b61516881614fad565b811461517357600080fd5b5056fea2646970667358221220f32d72d29b0a3b25538d6157ce27f7d577d4b87ed38ca2ed34c90191c2b8c4fb64736f6c63430007060033",
  "immutableReferences": {},
  "source": "// SPDX-License-Identifier: MIT\npragma solidity =0.7.6;\npragma experimental ABIEncoderV2;\n\ncontract GovernorAlpha {\n    /// @notice The name of this contract\n    string public constant name = \"Auditchain Governor Alpha\";\n\n    /// @notice The maximum number of actions that can be included in a proposal\n    function proposalMaxOperations() public pure returns (uint) { return 10; } // 10 actions\n\n    /// @notice The delay before voting on a proposal may take place, once proposed\n    //TODO: voting delay should be returned to 1\n    function votingDelay() public pure returns (uint) { return 0; } // 1 block\n\n    /// @notice The duration of voting on a proposal, in blocks\n    // function votingPeriod() public pure returns (uint) { return 17280; } // ~3 days in blocks (assuming 15s blocks)\n    function votingPeriod() public pure returns (uint) { return 35; } // ~3 days in blocks (assuming 15s blocks)\n\n\n    /// @notice The address of the Auditchain Protocol Timelock\n    TimelockInterface public timelock;\n\n    /// @notice The address of the Auditchain governance token\n    AuditTokenInterface public auditToken;\n\n    /// @notice The address of the Governor Guardian\n    address public guardian;\n\n    /// @notice The total number of proposals\n    uint public proposalCount;\n\n\n    struct Proposal {\n        // @notice Unique id for looking up a proposal\n        uint id;\n\n        // @notice Creator of the proposal\n        address proposer;\n\n        // @notice The timestamp that the proposal will be available for execution, set once the vote succeeds\n        uint eta;\n\n        // @notice the ordered list of target addresses for calls to be made\n        address[] targets;\n\n        // @notice The ordered list of values (i.e. msg.value) to be passed to the calls to be made\n        uint[] values;\n\n        // @notice The ordered list of function signatures to be called\n        string[] signatures;\n\n        // @notice The ordered list of calldata to be passed to each call\n        bytes[] calldatas;\n\n        // @notice The block at which voting begins: holders must delegate their votes prior to this block\n        uint startBlock;\n\n        // @notice The block at which voting ends: votes must be cast prior to this block\n        uint endBlock;\n\n        // @notice Current number of votes in favor of this proposal\n        uint forVotes;\n\n        // @notice Current number of votes in opposition to this proposal\n        uint againstVotes;\n\n        // @notice Flag marking whether the proposal has been canceled\n        bool canceled;\n\n        // @notice Flag marking whether the proposal has been executed\n        bool executed;       \n\n        // @notice Receipts of ballots for the entire set of voters\n        mapping  (address => Receipt) receipts;\n        string description;\n    }\n\n    /// @notice Ballot receipt record for a voter\n    struct Receipt {\n        // @notice Whether or not a vote has been cast\n        bool hasVoted;\n\n        // @notice Whether or not the voter supports the proposal\n        bool support;\n\n        // @notice The number of votes the voter had, which were cast\n        uint96 votes;\n    }\n\n    /// @notice Possible states that a proposal may be in\n    enum ProposalState {\n        Pending,\n        Active,\n        Canceled,\n        Defeated,\n        Succeeded,\n        Queued,\n        Expired,\n        Executed\n    }\n\n    /// @notice The official record of all proposals ever proposed\n    mapping (uint => Proposal) public proposals;\n\n    /// @notice The latest proposal for each proposer\n    mapping (address => uint) public latestProposalIds;\n\n    /// @notice The EIP-712 typehash for the contract's domain\n    bytes32 public constant DOMAIN_TYPEHASH = keccak256(\"EIP712Domain(string name,uint256 chainId,address verifyingContract)\");\n\n    /// @notice The EIP-712 typehash for the ballot struct used by the contract\n    bytes32 public constant BALLOT_TYPEHASH = keccak256(\"Ballot(uint256 proposalId,bool support)\");\n\n    /// @notice An event emitted when a new proposal is created\n    event ProposalCreated(uint indexed id, address proposer, address[] targets, uint[] values, string[] signatures, bytes[] calldatas, uint startBlock, uint endBlock, string description);\n\n    /// @notice An event emitted when a vote has been cast on a proposal\n    event VoteCast(address voter, uint indexed proposalId, bool support, uint votes);\n\n    /// @notice An event emitted when a proposal has been canceled\n    event ProposalCanceled(uint indexed id);\n\n    /// @notice An event emitted when a proposal has been queued in the Timelock\n    event ProposalQueued(uint indexed id, uint eta);\n\n    /// @notice An event emitted when a proposal has been executed in the Timelock\n    event ProposalExecuted(uint indexed id);\n\n    constructor(address timelock_, address auditToken_, address guardian_) {\n        timelock = TimelockInterface(timelock_);\n        auditToken = AuditTokenInterface(auditToken_);\n        guardian = guardian_;\n    }\n\n    /// @notice The number of votes required in order for a voter to become a proposer\n    function proposalThreshold() public view returns (uint256) { \n        \n        return auditToken.totalSupply() / 100; // 1% of AUDT\n        \n    } \n\n    /// @notice The number of votes in support of a proposal required in order for a quorum to be reached and for a vote to succeed\n    function quorumVotes() public view returns (uint) { \n        return (auditToken.totalSupply() * 4) / 100; // 4% of AUDT \n    } \n\n\n\n    function propose(address[] memory targets, uint[] memory values, string[] memory signatures, bytes[] memory calldatas, string memory description) public returns (uint) {\n        require(auditToken.getPriorVotes(msg.sender, sub256(block.number, 1)) > proposalThreshold(), \"GovernorAlpha::propose: proposer votes below proposal threshold\");\n        require(targets.length == values.length && targets.length == signatures.length && targets.length == calldatas.length, \"GovernorAlpha::propose: proposal function information arity mismatch\");\n        require(targets.length != 0, \"GovernorAlpha::propose: must provide actions\");\n        require(targets.length <= proposalMaxOperations(), \"GovernorAlpha::propose: too many actions\");\n\n        uint latestProposalId = latestProposalIds[msg.sender];\n        if (latestProposalId != 0) {\n          ProposalState proposersLatestProposalState = state(latestProposalId);\n          require(proposersLatestProposalState != ProposalState.Active, \"GovernorAlpha::propose: one live proposal per proposer, found an already active proposal\");\n          require(proposersLatestProposalState != ProposalState.Pending, \"GovernorAlpha::propose: one live proposal per proposer, found an already pending proposal\");\n        }\n\n        uint startBlock = add256(block.number, votingDelay());\n        uint endBlock = add256(startBlock, votingPeriod());\n\n        proposalCount++;\n        Proposal storage newProposal = proposals[proposalCount];\n        newProposal.id = proposalCount;\n        newProposal.proposer = msg.sender;\n        newProposal.eta = 0;\n        newProposal.targets = targets;\n        newProposal.values= values;\n        newProposal.signatures = signatures;\n        newProposal.calldatas = calldatas;\n        newProposal.startBlock = startBlock;\n        newProposal.endBlock = endBlock;\n        newProposal.forVotes = 0;\n        newProposal.againstVotes = 0;\n        newProposal.canceled = false;\n        newProposal.executed = false;\n        newProposal.description = description;\n\n        // proposals[newProposal.id] = newProposal;\n        latestProposalIds[newProposal.proposer] = newProposal.id;\n\n        emit ProposalCreated(newProposal.id, msg.sender, targets, values, signatures, calldatas, startBlock, endBlock, description);\n        return newProposal.id;\n    }\n\n    function queue(uint proposalId) public {\n        require(state(proposalId) == ProposalState.Succeeded, \"GovernorAlpha::queue: proposal can only be queued if it is succeeded\");\n        Proposal storage proposal = proposals[proposalId];\n        uint eta = add256(block.timestamp, timelock.delay());\n        for (uint i = 0; i < proposal.targets.length; i++) {\n            _queueOrRevert(proposal.targets[i], proposal.values[i], proposal.signatures[i], proposal.calldatas[i], eta);\n        }\n        proposal.eta = eta;\n        emit ProposalQueued(proposalId, eta);\n    }\n\n    function _queueOrRevert(address target, uint value, string memory signature, bytes memory data, uint eta) internal {\n        require(!timelock.queuedTransactions(keccak256(abi.encode(target, value, signature, data, eta))), \"GovernorAlpha::_queueOrRevert: proposal action already queued at eta\");\n        timelock.queueTransaction(target, value, signature, data, eta);\n    }\n\n    function execute(uint proposalId) public payable {\n        require(state(proposalId) == ProposalState.Queued, \"GovernorAlpha::execute: proposal can only be executed if it is queued\");\n        Proposal storage proposal = proposals[proposalId];\n        proposal.executed = true;\n        for (uint i = 0; i < proposal.targets.length; i++) {\n            // timelock.executeTransaction.value(proposal.values[i])(proposal.targets[i], proposal.values[i], proposal.signatures[i], proposal.calldatas[i], proposal.eta};\n            timelock.executeTransaction{value: proposal.values[i]} (proposal.targets[i], proposal.values[i], proposal.signatures[i], proposal.calldatas[i], proposal.eta);\n\n        }\n        emit ProposalExecuted(proposalId);\n    }\n\n    function cancel(uint proposalId) public {\n        ProposalState state = state(proposalId);\n        require(state != ProposalState.Executed, \"GovernorAlpha::cancel: cannot cancel executed proposal\");\n\n        Proposal storage proposal = proposals[proposalId];\n        require(msg.sender == guardian || auditToken.getPriorVotes(proposal.proposer, sub256(block.number, 1)) < proposalThreshold(), \"GovernorAlpha::cancel: proposer above threshold\");\n\n        proposal.canceled = true;\n        for (uint i = 0; i < proposal.targets.length; i++) {\n            timelock.cancelTransaction(proposal.targets[i], proposal.values[i], proposal.signatures[i], proposal.calldatas[i], proposal.eta);\n        }\n\n        emit ProposalCanceled(proposalId);\n    }\n\n    function getActions(uint proposalId) public view returns (address[] memory targets, uint[] memory values, string[] memory signatures, bytes[] memory calldatas) {\n        Proposal storage p = proposals[proposalId];\n        return (p.targets, p.values, p.signatures, p.calldatas);\n    }\n\n    function getReceipt(uint proposalId, address voter) public view returns (Receipt memory) {\n        return proposals[proposalId].receipts[voter];\n    }\n\n    function state(uint proposalId) public view returns (ProposalState) {\n        require(proposalCount >= proposalId && proposalId > 0, \"GovernorAlpha::state: invalid proposal id\");\n        Proposal storage proposal = proposals[proposalId];\n        if (proposal.canceled) {\n            return ProposalState.Canceled;\n        } else if (block.number <= proposal.startBlock) {\n            return ProposalState.Pending;\n        } else if (block.number <= proposal.endBlock) {\n            return ProposalState.Active;\n        } else if (proposal.forVotes <= proposal.againstVotes || proposal.forVotes < quorumVotes() ) {\n            return ProposalState.Defeated;\n        } else if (proposal.eta == 0) {\n            return ProposalState.Succeeded;\n        } else if (proposal.executed) {\n            return ProposalState.Executed;\n        } else if (block.timestamp >= add256(proposal.eta, timelock.GRACE_PERIOD())) {\n            return ProposalState.Expired;\n        } else {\n            return ProposalState.Queued;\n        }\n    }\n\n    function castVote(uint proposalId, bool support) public {\n        return _castVote(msg.sender, proposalId, support);\n    }\n\n    function castVoteBySig(uint proposalId, bool support, uint8 v, bytes32 r, bytes32 s) public {\n        bytes32 domainSeparator = keccak256(abi.encode(DOMAIN_TYPEHASH, keccak256(bytes(name)), getChainId(), address(this)));\n        bytes32 structHash = keccak256(abi.encode(BALLOT_TYPEHASH, proposalId, support));\n        bytes32 digest = keccak256(abi.encodePacked(\"\\x19\\x01\", domainSeparator, structHash));\n        address signatory = ecrecover(digest, v, r, s);\n        require(signatory != address(0), \"GovernorAlpha::castVoteBySig: invalid signature\");\n        return _castVote(signatory, proposalId, support);\n    }\n\n    function _castVote(address voter, uint proposalId, bool support) internal {\n        require(state(proposalId) == ProposalState.Active, \"GovernorAlpha::_castVote: voting is closed\");\n        Proposal storage proposal = proposals[proposalId];\n        Receipt storage receipt = proposal.receipts[voter];\n        require(receipt.hasVoted == false, \"GovernorAlpha::_castVote: voter already voted\");\n        uint96 votes = auditToken.getPriorVotes(voter, proposal.startBlock);\n\n        if (support) {\n            proposal.forVotes = add256(proposal.forVotes, votes);\n        } else {\n            proposal.againstVotes = add256(proposal.againstVotes, votes);\n        }\n\n        receipt.hasVoted = true;\n        receipt.support = support;\n        receipt.votes = votes;\n\n        emit VoteCast(voter, proposalId, support, votes);\n    }\n\n    function __acceptAdmin() public {\n        require(msg.sender == guardian, \"GovernorAlpha::__acceptAdmin: sender must be gov guardian\");\n        timelock.acceptAdmin();\n    }\n\n    function __abdicate() public {\n        require(msg.sender == guardian, \"GovernorAlpha::__abdicate: sender must be gov guardian\");\n        guardian = address(0);\n    }\n\n    function __queueSetTimelockPendingAdmin(address newPendingAdmin, uint eta) public {\n        require(msg.sender == guardian, \"GovernorAlpha::__queueSetTimelockPendingAdmin: sender must be gov guardian\");\n        timelock.queueTransaction(address(timelock), 0, \"setPendingAdmin(address)\", abi.encode(newPendingAdmin), eta);\n    }\n\n    function __executeSetTimelockPendingAdmin(address newPendingAdmin, uint eta) public {\n        require(msg.sender == guardian, \"GovernorAlpha::__executeSetTimelockPendingAdmin: sender must be gov guardian\");\n        timelock.executeTransaction(address(timelock), 0, \"setPendingAdmin(address)\", abi.encode(newPendingAdmin), eta);\n    }\n\n    function add256(uint256 a, uint256 b) internal pure returns (uint) {\n        uint c = a + b;\n        require(c >= a, \"addition overflow\");\n        return c;\n    }\n\n    function sub256(uint256 a, uint256 b) internal pure returns (uint) {\n        require(b <= a, \"subtraction underflow\");\n        return a - b;\n    }\n\n    function getChainId() internal view returns (uint) {\n        uint chainId;\n        assembly { chainId := chainid() }\n        return chainId;\n    }\n}\n\ninterface TimelockInterface {\n    function delay() external view returns (uint);\n    function GRACE_PERIOD() external view returns (uint);\n    function acceptAdmin() external;\n    function queuedTransactions(bytes32 hash) external view returns (bool);\n    function queueTransaction(address target, uint value, string calldata signature, bytes calldata data, uint eta) external returns (bytes32);\n    function cancelTransaction(address target, uint value, string calldata signature, bytes calldata data, uint eta) external;\n    function executeTransaction(address target, uint value, string calldata signature, bytes calldata data, uint eta) external payable returns (bytes memory);\n}\n\ninterface AuditTokenInterface {\n    function getPriorVotes(address account, uint blockNumber) external view returns (uint96);\n    function totalSupply() external view returns (uint256);\n}",
  "sourcePath": "/home/bogdan/Ethereum/Projects/TGE/Core-Smart-Contracts-v1/contracts/Governance/GovernorAlpha.sol",
  "compiler": {
    "name": "solc",
    "version": "0.7.6+commit.7338295f.Emscripten.clang"
  },
  "schemaVersion": "3.4.0",
  "updatedAt": "2021-04-30T20:40:15.954Z",
  "networkType": "ethereum",
  "devdoc": {
    "kind": "dev",
    "methods": {},
    "version": 1
  },
  "userdoc": {
    "events": {
      "ProposalCanceled(uint256)": {
        "notice": "An event emitted when a proposal has been canceled"
      },
      "ProposalCreated(uint256,address,address[],uint256[],string[],bytes[],uint256,uint256,string)": {
        "notice": "An event emitted when a new proposal is created"
      },
      "ProposalExecuted(uint256)": {
        "notice": "An event emitted when a proposal has been executed in the Timelock"
      },
      "ProposalQueued(uint256,uint256)": {
        "notice": "An event emitted when a proposal has been queued in the Timelock"
      },
      "VoteCast(address,uint256,bool,uint256)": {
        "notice": "An event emitted when a vote has been cast on a proposal"
      }
    },
    "kind": "user",
    "methods": {
      "BALLOT_TYPEHASH()": {
        "notice": "The EIP-712 typehash for the ballot struct used by the contract"
      },
      "DOMAIN_TYPEHASH()": {
        "notice": "The EIP-712 typehash for the contract's domain"
      },
      "auditToken()": {
        "notice": "The address of the Auditchain governance token"
      },
      "guardian()": {
        "notice": "The address of the Governor Guardian"
      },
      "latestProposalIds(address)": {
        "notice": "The latest proposal for each proposer"
      },
      "name()": {
        "notice": "The name of this contract"
      },
      "proposalCount()": {
        "notice": "The total number of proposals"
      },
      "proposalMaxOperations()": {
        "notice": "The maximum number of actions that can be included in a proposal"
      },
      "proposalThreshold()": {
        "notice": "The number of votes required in order for a voter to become a proposer"
      },
      "proposals(uint256)": {
        "notice": "The official record of all proposals ever proposed"
      },
      "quorumVotes()": {
        "notice": "The number of votes in support of a proposal required in order for a quorum to be reached and for a vote to succeed"
      },
      "timelock()": {
        "notice": "The address of the Auditchain Protocol Timelock"
      },
      "votingDelay()": {
        "notice": "The delay before voting on a proposal may take place, once proposed"
      },
      "votingPeriod()": {
        "notice": "The duration of voting on a proposal, in blocks"
      }
    },
    "version": 1
  }
}