{
  "contractName": "LinkedList",
  "abi": [
    {
      "inputs": [],
      "stateMutability": "nonpayable",
      "type": "constructor"
    },
    {
      "anonymous": false,
      "inputs": [
        {
          "indexed": false,
          "internalType": "uint256",
          "name": "id",
          "type": "uint256"
        }
      ],
      "name": "NewHead",
      "type": "event"
    },
    {
      "anonymous": false,
      "inputs": [
        {
          "indexed": false,
          "internalType": "uint256",
          "name": "id",
          "type": "uint256"
        },
        {
          "indexed": false,
          "internalType": "uint256",
          "name": "price",
          "type": "uint256"
        },
        {
          "indexed": false,
          "internalType": "bytes32",
          "name": "validationHash",
          "type": "bytes32"
        }
      ],
      "name": "ObjectCreated",
      "type": "event"
    },
    {
      "anonymous": false,
      "inputs": [
        {
          "indexed": false,
          "internalType": "uint256",
          "name": "id",
          "type": "uint256"
        }
      ],
      "name": "ObjectRemoved",
      "type": "event"
    },
    {
      "anonymous": false,
      "inputs": [
        {
          "indexed": false,
          "internalType": "uint256",
          "name": "prev",
          "type": "uint256"
        },
        {
          "indexed": false,
          "internalType": "uint256",
          "name": "next",
          "type": "uint256"
        }
      ],
      "name": "ObjectsLinked",
      "type": "event"
    },
    {
      "inputs": [],
      "name": "head",
      "outputs": [
        {
          "internalType": "uint256",
          "name": "",
          "type": "uint256"
        }
      ],
      "stateMutability": "view",
      "type": "function"
    },
    {
      "inputs": [],
      "name": "idCounter",
      "outputs": [
        {
          "internalType": "uint256",
          "name": "",
          "type": "uint256"
        }
      ],
      "stateMutability": "view",
      "type": "function"
    },
    {
      "inputs": [
        {
          "internalType": "uint256",
          "name": "",
          "type": "uint256"
        }
      ],
      "name": "objects",
      "outputs": [
        {
          "internalType": "uint256",
          "name": "id",
          "type": "uint256"
        },
        {
          "internalType": "uint256",
          "name": "next",
          "type": "uint256"
        },
        {
          "internalType": "uint256",
          "name": "price",
          "type": "uint256"
        },
        {
          "internalType": "bytes32",
          "name": "validationHash",
          "type": "bytes32"
        }
      ],
      "stateMutability": "view",
      "type": "function"
    },
    {
      "inputs": [
        {
          "internalType": "uint256",
          "name": "_id",
          "type": "uint256"
        }
      ],
      "name": "get",
      "outputs": [
        {
          "internalType": "uint256",
          "name": "",
          "type": "uint256"
        },
        {
          "internalType": "uint256",
          "name": "",
          "type": "uint256"
        },
        {
          "internalType": "uint256",
          "name": "",
          "type": "uint256"
        },
        {
          "internalType": "bytes32",
          "name": "",
          "type": "bytes32"
        }
      ],
      "stateMutability": "view",
      "type": "function"
    },
    {
      "inputs": [
        {
          "internalType": "uint256",
          "name": "_id",
          "type": "uint256"
        }
      ],
      "name": "findPrevId",
      "outputs": [
        {
          "internalType": "uint256",
          "name": "",
          "type": "uint256"
        }
      ],
      "stateMutability": "view",
      "type": "function"
    },
    {
      "inputs": [],
      "name": "findTailId",
      "outputs": [
        {
          "internalType": "uint256",
          "name": "",
          "type": "uint256"
        }
      ],
      "stateMutability": "view",
      "type": "function"
    },
    {
      "inputs": [
        {
          "internalType": "uint256",
          "name": "_price",
          "type": "uint256"
        }
      ],
      "name": "findIdForData",
      "outputs": [
        {
          "internalType": "uint256",
          "name": "",
          "type": "uint256"
        }
      ],
      "stateMutability": "view",
      "type": "function"
    },
    {
      "inputs": [
        {
          "internalType": "bytes32",
          "name": "_validationHash",
          "type": "bytes32"
        }
      ],
      "name": "findIdForValidationHash",
      "outputs": [
        {
          "internalType": "uint256",
          "name": "",
          "type": "uint256"
        }
      ],
      "stateMutability": "view",
      "type": "function"
    },
    {
      "inputs": [
        {
          "internalType": "uint256",
          "name": "_price",
          "type": "uint256"
        }
      ],
      "name": "findIdForLesserPrice",
      "outputs": [
        {
          "internalType": "uint256",
          "name": "",
          "type": "uint256"
        }
      ],
      "stateMutability": "view",
      "type": "function"
    },
    {
      "inputs": [
        {
          "internalType": "uint256",
          "name": "_price",
          "type": "uint256"
        },
        {
          "internalType": "bytes32",
          "name": "_validationHash",
          "type": "bytes32"
        }
      ],
      "name": "addHead",
      "outputs": [],
      "stateMutability": "nonpayable",
      "type": "function"
    },
    {
      "inputs": [
        {
          "internalType": "uint256",
          "name": "_price",
          "type": "uint256"
        },
        {
          "internalType": "bytes32",
          "name": "_validationHash",
          "type": "bytes32"
        }
      ],
      "name": "addTail",
      "outputs": [],
      "stateMutability": "nonpayable",
      "type": "function"
    },
    {
      "inputs": [
        {
          "internalType": "uint256",
          "name": "_id",
          "type": "uint256"
        }
      ],
      "name": "remove",
      "outputs": [],
      "stateMutability": "nonpayable",
      "type": "function"
    },
    {
      "inputs": [
        {
          "internalType": "uint256",
          "name": "_prevId",
          "type": "uint256"
        },
        {
          "internalType": "uint256",
          "name": "_price",
          "type": "uint256"
        },
        {
          "internalType": "bytes32",
          "name": "validationHash",
          "type": "bytes32"
        }
      ],
      "name": "insertAfter",
      "outputs": [],
      "stateMutability": "nonpayable",
      "type": "function"
    },
    {
      "inputs": [
        {
          "internalType": "uint256",
          "name": "_nextId",
          "type": "uint256"
        },
        {
          "internalType": "uint256",
          "name": "_price",
          "type": "uint256"
        },
        {
          "internalType": "bytes32",
          "name": "validatioHash",
          "type": "bytes32"
        }
      ],
      "name": "insertBefore",
      "outputs": [],
      "stateMutability": "nonpayable",
      "type": "function"
    },
    {
      "inputs": [
        {
          "internalType": "uint256",
          "name": "_price",
          "type": "uint256"
        },
        {
          "internalType": "bytes32",
          "name": "_validationHash",
          "type": "bytes32"
        }
      ],
      "name": "addToQueue",
      "outputs": [],
      "stateMutability": "nonpayable",
      "type": "function"
    },
    {
      "inputs": [
        {
          "internalType": "bytes32",
          "name": "_validationHash",
          "type": "bytes32"
        }
      ],
      "name": "getValidationToProcess",
      "outputs": [
        {
          "internalType": "bytes32",
          "name": "",
          "type": "bytes32"
        }
      ],
      "stateMutability": "view",
      "type": "function"
    },
    {
      "inputs": [],
      "name": "removeFromQueue",
      "outputs": [],
      "stateMutability": "nonpayable",
      "type": "function"
    }
  ],
  "bytecode": "0x608060405234801561001057600080fd5b506000808190555060018081905550610ede8061002e6000396000f3fe608060405234801561001057600080fd5b506004361061010b5760003560e01c80639507d39a116100a2578063dd49155311610071578063dd491553146102b9578063eb08ab28146102d5578063ed175850146102f3578063f7c15fc814610326578063fad9fdd5146103425761010b565b80639507d39a1461020a578063a8d0fcf91461023d578063cd48e3b914610259578063d4d76754146102895761010b565b80634cc82215116100de5780634cc82215146101825780637108614a1461019e5780638f7dcfa3146101bc5780639057e605146101da5761010b565b806317eccb8b1461011057806346150acb1461011a57806346ba2bea14610136578063479d957514610152575b600080fd5b610118610372565b005b610134600480360381019061012f9190610c5d565b61037f565b005b610150600480360381019061014b9190610c99565b6103c3565b005b61016c60048036038101906101679190610c34565b6103fb565b6040516101799190610d21565b60405180910390f35b61019c60048036038101906101979190610c34565b6104c5565b005b6101a66105bd565b6040516101b39190610d21565b60405180910390f35b6101c4610672565b6040516101d19190610d21565b60405180910390f35b6101f460048036038101906101ef9190610c34565b610678565b6040516102019190610d21565b60405180910390f35b610224600480360381019061021f9190610c34565b61072e565b6040516102349493929190610d9c565b60405180910390f35b61025760048036038101906102529190610c99565b6107a2565b005b610273600480360381019061026e9190610c34565b61081d565b6040516102809190610d21565b60405180910390f35b6102a3600480360381019061029e9190610c0b565b6108d3565b6040516102b09190610d06565b60405180910390f35b6102d360048036038101906102ce9190610c5d565b610937565b005b6102dd61095f565b6040516102ea9190610d21565b60405180910390f35b61030d60048036038101906103089190610c34565b610965565b60405161031d9493929190610d9c565b60405180910390f35b610340600480360381019061033b9190610c5d565b610995565b005b61035c60048036038101906103579190610c0b565b6109b2565b6040516103699190610d21565b60405180910390f35b61037d6000546104c5565b565b600080541415610398576103938282610937565b6103bf565b60006103a26105bd565b905060006103b08484610a68565b90506103bc8282610b48565b50505b5050565b6000548314156103dc576103d78282610937565b6103f6565b60006103e7846103fb565b90506103f48184846107a2565b505b505050565b6000805482141561040f57600090506104c0565b6000600260008054815260200190815260200160002060405180608001604052908160008201548152602001600182015481526020016002820154815260200160038201548152505090505b828160200151146104b7576002600082602001518152602001908152602001600020604051806080016040529081600082015481526020016001820154815260200160028201548152602001600382015481525050905061045b565b80600001519150505b919050565b600060026000838152602001908152602001600020604051806080016040529081600082015481526020016001820154815260200160028201548152602001600382015481525050905081600054141561052b576105268160200151610ba0565b610548565b6000610536836103fb565b9050610546818360200151610b48565b505b600260008260000151815260200190815260200160002060008082016000905560018201600090556002820160009055600382016000905550507fe1919cab237081e04a387d81704c769f832679b068e9b87b1d6a27eb5102b956826040516105b19190610d21565b60405180910390a15050565b600080600260008054815260200190815260200160002060405180608001604052908160008201548152602001600182015481526020016002820154815260200160038201548152505090505b6000816020015114610667576002600082602001518152602001908152602001600020604051806080016040529081600082015481526020016001820154815260200160028201548152602001600382015481525050905061060a565b806000015191505090565b60005481565b600080600260008054815260200190815260200160002060405180608001604052908160008201548152602001600182015481526020016002820154815260200160038201548152505090505b8281604001511461072157600260008260200151815260200190815260200160002060405180608001604052908160008201548152602001600182015481526020016002820154815260200160038201548152505090506106c5565b8060000151915050919050565b600080600080600060026000878152602001908152602001600020604051806080016040529081600082015481526020016001820154815260200160028201548152602001600382015481525050905080600001518160200151826040015183606001519450945094509450509193509193565b600060026000858152602001908152602001600020604051806080016040529081600082015481526020016001820154815260200160028201548152602001600382015481525050905060006107f88484610a68565b9050610808818360200151610b48565b610816826000015182610b48565b5050505050565b600080600260008054815260200190815260200160002060405180608001604052908160008201548152602001600182015481526020016002820154815260200160038201548152505090505b828160400151106108c6576002600082602001518152602001908152602001600020604051806080016040529081600082015481526020016001820154815260200160028201548152602001600382015481525050905061086a565b8060000151915050919050565b6000806108df836109b2565b9050600080821415610908576108f660005461072e565b9091925090915090508091505061092d565b6000610913836103fb565b905061091e8161072e565b90919250909150905080925050505b8092505050919050565b60006109438383610a68565b905061095181600054610b48565b61095a81610ba0565b505050565b60015481565b60026020528060005260406000206000915090508060000154908060010154908060020154908060030154905084565b60006109a08361081d565b90506109ad8184846103c3565b505050565b600080600260008054815260200190815260200160002060405180608001604052908160008201548152602001600182015481526020016002820154815260200160038201548152505090505b82816060015114610a5b57600260008260200151815260200190815260200160002060405180608001604052908160008201548152602001600182015481526020016002820154815260200160038201548152505090506109ff565b8060000151915050919050565b60008060015490506001806000828254610a829190610de1565b925050819055506000604051806080016040528083815260200160008152602001868152602001858152509050806002600083600001518152602001908152602001600020600082015181600001556020820151816001015560408201518160020155606082015181600301559050507fae3fa14712358fd14ea9daaa663953bb097578df220e6c81d698b842db789f2f816000015182604001518360600151604051610b3193929190610d65565b60405180910390a180600001519250505092915050565b8060026000848152602001908152602001600020600101819055507fbe1f66c94cc2553f09c996e2153854d4b74a747e3c2648161fb8daa3bfe983028282604051610b94929190610d3c565b60405180910390a15050565b806000819055507f58b81d35330cc08b909b14dbf5bcf7c3e769206cd0be7dd65e76e95a815439e181604051610bd69190610d21565b60405180910390a150565b600081359050610bf081610e7a565b92915050565b600081359050610c0581610e91565b92915050565b600060208284031215610c1d57600080fd5b6000610c2b84828501610be1565b91505092915050565b600060208284031215610c4657600080fd5b6000610c5484828501610bf6565b91505092915050565b60008060408385031215610c7057600080fd5b6000610c7e85828601610bf6565b9250506020610c8f85828601610be1565b9150509250929050565b600080600060608486031215610cae57600080fd5b6000610cbc86828701610bf6565b9350506020610ccd86828701610bf6565b9250506040610cde86828701610be1565b9150509250925092565b610cf181610e37565b82525050565b610d0081610e41565b82525050565b6000602082019050610d1b6000830184610ce8565b92915050565b6000602082019050610d366000830184610cf7565b92915050565b6000604082019050610d516000830185610cf7565b610d5e6020830184610cf7565b9392505050565b6000606082019050610d7a6000830186610cf7565b610d876020830185610cf7565b610d946040830184610ce8565b949350505050565b6000608082019050610db16000830187610cf7565b610dbe6020830186610cf7565b610dcb6040830185610cf7565b610dd86060830184610ce8565b95945050505050565b6000610dec82610e41565b9150610df783610e41565b9250827fffffffffffffffffffffffffffffffffffffffffffffffffffffffffffffffff03821115610e2c57610e2b610e4b565b5b828201905092915050565b6000819050919050565b6000819050919050565b7f4e487b7100000000000000000000000000000000000000000000000000000000600052601160045260246000fd5b610e8381610e37565b8114610e8e57600080fd5b50565b610e9a81610e41565b8114610ea557600080fd5b5056fea26469706673582212206f87856409f1395c0b3a312876213a25a2b20b2cd82b6a1099d827da75ad0e0964736f6c63430008000033",
  "immutableReferences": {},
  "source": "pragma solidity =0.8.0;\n// SPDX-License-Identifier: MIT\n\n\n\n/**\n * @title LinkedList\n * @dev Data structure\n * @author Alberto Cuesta Caada\n */\ncontract LinkedList {\n\n    event ObjectCreated(uint256 id, uint256 price, bytes32 validationHash);\n    event ObjectsLinked(uint256 prev, uint256 next);\n    event ObjectRemoved(uint256 id);\n    event NewHead(uint256 id);\n\n    struct Object{\n        uint256 id;\n        uint256 next;\n        uint256 price;\n        bytes32 validationHash;\n    }\n\n    uint256 public head;\n    uint256 public idCounter;\n    mapping (uint256 => Object) public objects;\n\n    /**\n     * @dev Creates an empty list.\n     */\n    constructor() {\n        head = 0;\n        idCounter = 1;\n    }\n\n    /**\n     * @dev Retrieves the Object denoted by `_id`.\n     */\n    function get(uint256 _id)\n        public\n        virtual\n        view\n        returns (uint256, uint256, uint256, bytes32)\n    {\n        Object memory object = objects[_id];\n        return (object.id, object.next, object.price, object.validationHash);\n    }\n\n    /**\n     * @dev Given an Object, denoted by `_id`, returns the id of the Object that points to it, or 0 if `_id` refers to the Head.\n     */\n    function findPrevId(uint256 _id)\n        public\n        virtual\n        view\n        returns (uint256)\n    {\n        if (_id == head) return 0;\n        Object memory prevObject = objects[head];\n        while (prevObject.next != _id) {\n            prevObject = objects[prevObject.next];\n        }\n        return prevObject.id;\n    }\n\n    /**\n     * @dev Returns the id for the Tail.\n     */\n    function findTailId()\n        public\n        virtual\n        view\n        returns (uint256)\n    {\n        Object memory oldTailObject = objects[head];\n        while (oldTailObject.next != 0) {\n            oldTailObject = objects[oldTailObject.next];    \n        }\n        return oldTailObject.id;\n    }\n\n    /**\n     * @dev Return the id of the first Object matching `_price` in the data field.\n     */\n    function findIdForData(uint256 _price)\n        public\n        virtual\n        view\n        returns (uint256)\n    {\n        Object memory object = objects[head];\n        while (object.price != _price) {\n            object = objects[object.next];\n        }\n        return object.id;\n    }\n\n    function findIdForValidationHash(bytes32 _validationHash)public view returns (uint256) {\n          Object memory object = objects[head];\n            while (object.validationHash != _validationHash) {\n                object = objects[object.next];\n            }\n            return object.id;\n    }\n\n    /**\n     * @dev Return the id of the first Object matching `_price` in the data field.\n     */\n    function findIdForLesserPrice(uint256 _price)\n        public\n        virtual\n        view\n        returns (uint256)\n    {\n        Object memory object = objects[head];\n        while (object.price >= _price) {\n            object = objects[object.next];\n        }\n        return object.id;\n    }\n\n    /**\n     * @dev Insert a new Object as the new Head with `_price` in the data field.\n     */\n    function addHead(uint256 _price, bytes32 _validationHash)\n        public\n        virtual\n    {\n        uint256 objectId = _createObject(_price, _validationHash);\n        _link(objectId, head);\n        _setHead(objectId);\n    }\n\n    /**\n     * @dev Insert a new Object as the new Tail with `_price` in the data field.\n     */\n    function addTail(uint256 _price, bytes32 _validationHash)\n        public\n        virtual\n    {\n        if (head == 0) {\n            addHead(_price, _validationHash);\n        }\n        else {\n            uint256 oldTailId = findTailId();\n            uint256 newTailId = _createObject(_price, _validationHash);\n            _link(oldTailId, newTailId);\n        }\n    }\n\n    /**\n     * @dev Remove the Object denoted by `_id` from the List.\n     */\n    function remove(uint256 _id)\n        public\n        virtual\n    {\n        Object memory removeObject = objects[_id];\n        if (head == _id) {\n            _setHead(removeObject.next);\n        }\n        else {\n            uint256 prevObjectId = findPrevId(_id);\n            _link(prevObjectId, removeObject.next);\n        }\n        delete objects[removeObject.id];\n        emit ObjectRemoved(_id);\n    }\n\n    /**\n     * @dev Insert a new Object after the Object denoted by `_id` with `_price` in the data field.\n     */\n    function insertAfter(uint256 _prevId, uint256 _price, bytes32 validationHash)\n        public\n        virtual\n    {\n        Object memory prevObject = objects[_prevId];\n        uint256 newObjectId = _createObject(_price, validationHash);\n        _link(newObjectId, prevObject.next);\n        _link(prevObject.id, newObjectId);\n    }\n\n    /**\n     * @dev Insert a new Object before the Object denoted by `_id` with `_price` in the data field.\n     */\n    function insertBefore(uint256 _nextId, uint256 _price, bytes32 validatioHash)\n        public\n        virtual\n    {\n        if (_nextId == head) {\n            addHead(_price, validatioHash);\n        }\n        else {\n            uint256 prevId = findPrevId(_nextId);\n            insertAfter(prevId, _price, validatioHash);\n        }\n    }\n\n    /**\n     * @dev Internal function to update the Head pointer.\n     */\n    function _setHead(uint256 _id)\n        internal\n    {\n        head = _id;\n        emit NewHead(_id);\n    }\n\n    /**\n     * @dev Internal function to create an unlinked Object.\n     */\n    function _createObject(uint256 _price, bytes32 _validationHash)\n        internal\n        returns (uint256)\n    {\n        uint256 newId = idCounter;\n        idCounter += 1;\n        Object memory object = Object(newId, 0, _price, _validationHash);\n        objects[object.id] = object;\n        emit ObjectCreated(\n            object.id,\n            object.price,\n            object.validationHash\n        );\n        return object.id;\n    }\n\n    /**\n     * @dev Internal function to link an Object to another.\n     */\n    function _link(uint256 _prevId, uint256 _nextId)\n        internal\n    {\n        objects[_prevId].next = _nextId;\n        emit ObjectsLinked(_prevId, _nextId);\n    }\n\n\n    function addToQueue(uint256 _price, bytes32 _validationHash) public {\n        \n\n       uint256 id = findIdForLesserPrice(_price);\n       insertBefore(id, _price, _validationHash);\n\n    }\n\n    function getValidationToProcess(bytes32 _validationHash) public view returns (bytes32) {\n\n        uint256 id = findIdForValidationHash(_validationHash);\n        bytes32 transactionHash;\n\n\n        if (id == 0){\n            (,,,transactionHash) =   get(head);\n        } else {\n\n            uint256 prevId = findPrevId(id);\n            (,,,transactionHash) =   get(prevId);\n        }\n\n        return transactionHash;\n    }\n\n\n\n    function removeFromQueue() public {\n\n\n        remove(head);\n\n    }\n\n\n}",
  "sourcePath": "/home/win2win/eth/projects/AuditChain/Core-Smart-Contracts-v1/contracts/Auditchain/List.sol",
  "compiler": {
    "name": "solc",
    "version": "0.8.0+commit.c7dfd78e.Emscripten.clang"
  },
  "schemaVersion": "3.4.1",
  "updatedAt": "2022-03-09T20:24:30.449Z",
  "devdoc": {
    "author": "Alberto Cuesta Caada",
    "details": "Data structure",
    "kind": "dev",
    "methods": {
      "addHead(uint256,bytes32)": {
        "details": "Insert a new Object as the new Head with `_price` in the data field."
      },
      "addTail(uint256,bytes32)": {
        "details": "Insert a new Object as the new Tail with `_price` in the data field."
      },
      "constructor": {
        "details": "Creates an empty list."
      },
      "findIdForData(uint256)": {
        "details": "Return the id of the first Object matching `_price` in the data field."
      },
      "findIdForLesserPrice(uint256)": {
        "details": "Return the id of the first Object matching `_price` in the data field."
      },
      "findPrevId(uint256)": {
        "details": "Given an Object, denoted by `_id`, returns the id of the Object that points to it, or 0 if `_id` refers to the Head."
      },
      "findTailId()": {
        "details": "Returns the id for the Tail."
      },
      "get(uint256)": {
        "details": "Retrieves the Object denoted by `_id`."
      },
      "insertAfter(uint256,uint256,bytes32)": {
        "details": "Insert a new Object after the Object denoted by `_id` with `_price` in the data field."
      },
      "insertBefore(uint256,uint256,bytes32)": {
        "details": "Insert a new Object before the Object denoted by `_id` with `_price` in the data field."
      },
      "remove(uint256)": {
        "details": "Remove the Object denoted by `_id` from the List."
      }
    },
    "title": "LinkedList",
    "version": 1
  },
  "userdoc": {
    "kind": "user",
    "methods": {},
    "version": 1
  }
}