{
  "contractName": "Locked",
  "abi": [
    {
      "anonymous": false,
      "inputs": [
        {
          "indexed": false,
          "internalType": "address",
          "name": "user",
          "type": "address"
        }
      ],
      "name": "AddedLock",
      "type": "event"
    },
    {
      "anonymous": false,
      "inputs": [
        {
          "indexed": false,
          "internalType": "address",
          "name": "user",
          "type": "address"
        }
      ],
      "name": "RemovedLock",
      "type": "event"
    },
    {
      "anonymous": false,
      "inputs": [
        {
          "indexed": true,
          "internalType": "bytes32",
          "name": "role",
          "type": "bytes32"
        },
        {
          "indexed": true,
          "internalType": "bytes32",
          "name": "previousAdminRole",
          "type": "bytes32"
        },
        {
          "indexed": true,
          "internalType": "bytes32",
          "name": "newAdminRole",
          "type": "bytes32"
        }
      ],
      "name": "RoleAdminChanged",
      "type": "event"
    },
    {
      "anonymous": false,
      "inputs": [
        {
          "indexed": true,
          "internalType": "bytes32",
          "name": "role",
          "type": "bytes32"
        },
        {
          "indexed": true,
          "internalType": "address",
          "name": "account",
          "type": "address"
        },
        {
          "indexed": true,
          "internalType": "address",
          "name": "sender",
          "type": "address"
        }
      ],
      "name": "RoleGranted",
      "type": "event"
    },
    {
      "anonymous": false,
      "inputs": [
        {
          "indexed": true,
          "internalType": "bytes32",
          "name": "role",
          "type": "bytes32"
        },
        {
          "indexed": true,
          "internalType": "address",
          "name": "account",
          "type": "address"
        },
        {
          "indexed": true,
          "internalType": "address",
          "name": "sender",
          "type": "address"
        }
      ],
      "name": "RoleRevoked",
      "type": "event"
    },
    {
      "inputs": [],
      "name": "CONTROLLER_ROLE",
      "outputs": [
        {
          "internalType": "bytes32",
          "name": "",
          "type": "bytes32"
        }
      ],
      "stateMutability": "view",
      "type": "function"
    },
    {
      "inputs": [],
      "name": "DEFAULT_ADMIN_ROLE",
      "outputs": [
        {
          "internalType": "bytes32",
          "name": "",
          "type": "bytes32"
        }
      ],
      "stateMutability": "view",
      "type": "function"
    },
    {
      "inputs": [],
      "name": "MINTER_ROLE",
      "outputs": [
        {
          "internalType": "bytes32",
          "name": "",
          "type": "bytes32"
        }
      ],
      "stateMutability": "view",
      "type": "function"
    },
    {
      "inputs": [
        {
          "internalType": "bytes32",
          "name": "role",
          "type": "bytes32"
        }
      ],
      "name": "getRoleAdmin",
      "outputs": [
        {
          "internalType": "bytes32",
          "name": "",
          "type": "bytes32"
        }
      ],
      "stateMutability": "view",
      "type": "function"
    },
    {
      "inputs": [
        {
          "internalType": "bytes32",
          "name": "role",
          "type": "bytes32"
        },
        {
          "internalType": "address",
          "name": "account",
          "type": "address"
        }
      ],
      "name": "grantRole",
      "outputs": [],
      "stateMutability": "nonpayable",
      "type": "function"
    },
    {
      "inputs": [
        {
          "internalType": "bytes32",
          "name": "role",
          "type": "bytes32"
        },
        {
          "internalType": "address",
          "name": "account",
          "type": "address"
        }
      ],
      "name": "hasRole",
      "outputs": [
        {
          "internalType": "bool",
          "name": "",
          "type": "bool"
        }
      ],
      "stateMutability": "view",
      "type": "function"
    },
    {
      "inputs": [
        {
          "internalType": "address",
          "name": "",
          "type": "address"
        }
      ],
      "name": "lockedList",
      "outputs": [
        {
          "internalType": "bool",
          "name": "",
          "type": "bool"
        }
      ],
      "stateMutability": "view",
      "type": "function"
    },
    {
      "inputs": [
        {
          "internalType": "bytes32",
          "name": "role",
          "type": "bytes32"
        },
        {
          "internalType": "address",
          "name": "account",
          "type": "address"
        }
      ],
      "name": "renounceRole",
      "outputs": [],
      "stateMutability": "nonpayable",
      "type": "function"
    },
    {
      "inputs": [
        {
          "internalType": "bytes32",
          "name": "role",
          "type": "bytes32"
        },
        {
          "internalType": "address",
          "name": "account",
          "type": "address"
        }
      ],
      "name": "revokeRole",
      "outputs": [],
      "stateMutability": "nonpayable",
      "type": "function"
    },
    {
      "inputs": [
        {
          "internalType": "bytes4",
          "name": "interfaceId",
          "type": "bytes4"
        }
      ],
      "name": "supportsInterface",
      "outputs": [
        {
          "internalType": "bool",
          "name": "",
          "type": "bool"
        }
      ],
      "stateMutability": "view",
      "type": "function"
    },
    {
      "inputs": [
        {
          "internalType": "address",
          "name": "_user",
          "type": "address"
        }
      ],
      "name": "isLocked",
      "outputs": [
        {
          "internalType": "bool",
          "name": "",
          "type": "bool"
        }
      ],
      "stateMutability": "view",
      "type": "function"
    },
    {
      "inputs": [
        {
          "internalType": "address",
          "name": "_user",
          "type": "address"
        }
      ],
      "name": "addLock",
      "outputs": [],
      "stateMutability": "nonpayable",
      "type": "function"
    },
    {
      "inputs": [
        {
          "internalType": "address[]",
          "name": "_users",
          "type": "address[]"
        }
      ],
      "name": "addLockMultiple",
      "outputs": [],
      "stateMutability": "nonpayable",
      "type": "function"
    },
    {
      "inputs": [
        {
          "internalType": "address",
          "name": "_user",
          "type": "address"
        }
      ],
      "name": "removeLock",
      "outputs": [],
      "stateMutability": "nonpayable",
      "type": "function"
    }
  ],
  "bytecode": "0x608060405234801561001057600080fd5b5061173a806100206000396000f3fe608060405234801561001057600080fd5b50600436106100ea5760003560e01c80634a4fbeec1161008c57806391d148541161006657806391d1485414610259578063a217fddf14610289578063d5391393146102a7578063d547741f146102c5576100ea565b80634a4fbeec146101f1578063882f327b146102215780638f5573731461023d576100ea565b8063248a9ca3116100c8578063248a9ca31461016d5780632f2ff15d1461019d57806336568abe146101b95780634a387bef146101d5576100ea565b806301ffc9a7146100ef578063092c5b3b1461011f5780631a921b3e1461013d575b600080fd5b61010960048036038101906101049190611019565b6102e1565b6040516101169190611320565b60405180910390f35b61012761035b565b604051610134919061133b565b60405180910390f35b61015760048036038101906101529190610f4a565b61037f565b6040516101649190611320565b60405180910390f35b61018760048036038101906101829190610fb4565b61039f565b604051610194919061133b565b60405180910390f35b6101b760048036038101906101b29190610fdd565b6103be565b005b6101d360048036038101906101ce9190610fdd565b6103e7565b005b6101ef60048036038101906101ea9190610f4a565b61046a565b005b61020b60048036038101906102069190610f4a565b6104df565b6040516102189190611320565b60405180910390f35b61023b60048036038101906102369190610f4a565b610535565b005b61025760048036038101906102529190610f73565b6105aa565b005b610273600480360381019061026e9190610fdd565b6106ca565b6040516102809190611320565b60405180910390f35b610291610734565b60405161029e919061133b565b60405180910390f35b6102af61073b565b6040516102bc919061133b565b60405180910390f35b6102df60048036038101906102da9190610fdd565b61075f565b005b60007f7965db0b000000000000000000000000000000000000000000000000000000007bffffffffffffffffffffffffffffffffffffffffffffffffffffffff1916827bffffffffffffffffffffffffffffffffffffffffffffffffffffffff19161480610354575061035382610788565b5b9050919050565b7f7b765e0e932d348852a6f810bfa1ab891e259123f02db8cdcde614c57022335781565b60016020528060005260406000206000915054906101000a900460ff1681565b6000806000838152602001908152602001600020600101549050919050565b6103c78261039f565b6103d8816103d36107f2565b6107fa565b6103e28383610897565b505050565b6103ef6107f2565b73ffffffffffffffffffffffffffffffffffffffff168173ffffffffffffffffffffffffffffffffffffffff161461045c576040517f08c379a0000000000000000000000000000000000000000000000000000000008152600401610453906113d8565b60405180910390fd5b6104668282610977565b5050565b6104947f7b765e0e932d348852a6f810bfa1ab891e259123f02db8cdcde614c570223357336106ca565b6104d3576040517f08c379a00000000000000000000000000000000000000000000000000000000081526004016104ca906113b8565b60405180910390fd5b6104dc81610a58565b50565b6000600160008373ffffffffffffffffffffffffffffffffffffffff1673ffffffffffffffffffffffffffffffffffffffff16815260200190815260200160002060009054906101000a900460ff169050919050565b61055f7f7b765e0e932d348852a6f810bfa1ab891e259123f02db8cdcde614c570223357336106ca565b61059e576040517f08c379a0000000000000000000000000000000000000000000000000000000008152600401610595906113b8565b60405180910390fd5b6105a781610aea565b50565b6105d47f7b765e0e932d348852a6f810bfa1ab891e259123f02db8cdcde614c570223357336106ca565b610613576040517f08c379a000000000000000000000000000000000000000000000000000000000815260040161060a906113b8565b60405180910390fd5b60008151905061010081111561065e576040517f08c379a000000000000000000000000000000000000000000000000000000000815260040161065590611398565b60405180910390fd5b60005b818110156106c5576106b28382815181106106a5577f4e487b7100000000000000000000000000000000000000000000000000000000600052603260045260246000fd5b6020026020010151610aea565b80806106bd90611607565b915050610661565b505050565b600080600084815260200190815260200160002060000160008373ffffffffffffffffffffffffffffffffffffffff1673ffffffffffffffffffffffffffffffffffffffff16815260200190815260200160002060009054906101000a900460ff16905092915050565b6000801b81565b7f9f2df0fed2c77648de5860a4cc508cd0818c85b8b8a1ab4ceeef8d981c8956a681565b6107688261039f565b610779816107746107f2565b6107fa565b6107838383610977565b505050565b60007f01ffc9a7000000000000000000000000000000000000000000000000000000007bffffffffffffffffffffffffffffffffffffffffffffffffffffffff1916827bffffffffffffffffffffffffffffffffffffffffffffffffffffffff1916149050919050565b600033905090565b61080482826106ca565b610893576108298173ffffffffffffffffffffffffffffffffffffffff166014610b7b565b6108378360001c6020610b7b565b6040516020016108489291906112cb565b6040516020818303038152906040526040517f08c379a000000000000000000000000000000000000000000000000000000000815260040161088a9190611356565b60405180910390fd5b5050565b6108a182826106ca565b61097357600160008084815260200190815260200160002060000160008373ffffffffffffffffffffffffffffffffffffffff1673ffffffffffffffffffffffffffffffffffffffff16815260200190815260200160002060006101000a81548160ff0219169083151502179055506109186107f2565b73ffffffffffffffffffffffffffffffffffffffff168173ffffffffffffffffffffffffffffffffffffffff16837f2f8788117e7eff1d82e926ec794901d17c78024a50270940304540a733656f0d60405160405180910390a45b5050565b61098182826106ca565b15610a5457600080600084815260200190815260200160002060000160008373ffffffffffffffffffffffffffffffffffffffff1673ffffffffffffffffffffffffffffffffffffffff16815260200190815260200160002060006101000a81548160ff0219169083151502179055506109f96107f2565b73ffffffffffffffffffffffffffffffffffffffff168173ffffffffffffffffffffffffffffffffffffffff16837ff6391f5c32d9c69d2a47ea670b442974b53935d1edc7fd64eb21e047a839171b60405160405180910390a45b5050565b6000600160008373ffffffffffffffffffffffffffffffffffffffff1673ffffffffffffffffffffffffffffffffffffffff16815260200190815260200160002060006101000a81548160ff0219169083151502179055507f6134e30ca79f58d7566528b3768c7d33c9c30815c63cfeae3b69f52cf31dd61a81604051610adf9190611305565b60405180910390a150565b60018060008373ffffffffffffffffffffffffffffffffffffffff1673ffffffffffffffffffffffffffffffffffffffff16815260200190815260200160002060006101000a81548160ff0219169083151502179055507f1b6f28dfffb89ba40ba9067329c3c0e8bd926256b970cf7d060cd48b1cd0e44e81604051610b709190611305565b60405180910390a150565b606060006002836002610b8e91906114d2565b610b98919061147c565b67ffffffffffffffff811115610bd7577f4e487b7100000000000000000000000000000000000000000000000000000000600052604160045260246000fd5b6040519080825280601f01601f191660200182016040528015610c095781602001600182028036833780820191505090505b5090507f300000000000000000000000000000000000000000000000000000000000000081600081518110610c67577f4e487b7100000000000000000000000000000000000000000000000000000000600052603260045260246000fd5b60200101907effffffffffffffffffffffffffffffffffffffffffffffffffffffffffffff1916908160001a9053507f780000000000000000000000000000000000000000000000000000000000000081600181518110610cf1577f4e487b7100000000000000000000000000000000000000000000000000000000600052603260045260246000fd5b60200101907effffffffffffffffffffffffffffffffffffffffffffffffffffffffffffff1916908160001a90535060006001846002610d3191906114d2565b610d3b919061147c565b90505b6001811115610e27577f3031323334353637383961626364656600000000000000000000000000000000600f861660108110610da3577f4e487b7100000000000000000000000000000000000000000000000000000000600052603260045260246000fd5b1a60f81b828281518110610de0577f4e487b7100000000000000000000000000000000000000000000000000000000600052603260045260246000fd5b60200101907effffffffffffffffffffffffffffffffffffffffffffffffffffffffffffff1916908160001a905350600485901c945080610e20906115dd565b9050610d3e565b5060008414610e6b576040517f08c379a0000000000000000000000000000000000000000000000000000000008152600401610e6290611378565b60405180910390fd5b8091505092915050565b6000610e88610e8384611429565b6113f8565b90508083825260208201905082856020860282011115610ea757600080fd5b60005b85811015610ed75781610ebd8882610ee1565b845260208401935060208301925050600181019050610eaa565b5050509392505050565b600081359050610ef0816116bf565b92915050565b600082601f830112610f0757600080fd5b8135610f17848260208601610e75565b91505092915050565b600081359050610f2f816116d6565b92915050565b600081359050610f44816116ed565b92915050565b600060208284031215610f5c57600080fd5b6000610f6a84828501610ee1565b91505092915050565b600060208284031215610f8557600080fd5b600082013567ffffffffffffffff811115610f9f57600080fd5b610fab84828501610ef6565b91505092915050565b600060208284031215610fc657600080fd5b6000610fd484828501610f20565b91505092915050565b60008060408385031215610ff057600080fd5b6000610ffe85828601610f20565b925050602061100f85828601610ee1565b9150509250929050565b60006020828403121561102b57600080fd5b600061103984828501610f35565b91505092915050565b61104b8161152c565b82525050565b61105a8161153e565b82525050565b6110698161154a565b82525050565b600061107a82611455565b6110848185611460565b93506110948185602086016115aa565b61109d816116ae565b840191505092915050565b60006110b382611455565b6110bd8185611471565b93506110cd8185602086016115aa565b80840191505092915050565b60006110e6602083611460565b91507f537472696e67733a20686578206c656e67746820696e73756666696369656e746000830152602082019050919050565b6000611126602583611460565b91507f4c6f636b65642d6164644c6f636b4d756c7469706c653a204c69737420746f6f60008301527f206c6f6e670000000000000000000000000000000000000000000000000000006020830152604082019050919050565b600061118c603183611460565b91507f4c6f636b65643a3a6973436f6e74726f6c6c6572202d2043616c6c657220697360008301527f206e6f74206120636f6e74726f6c6c65720000000000000000000000000000006020830152604082019050919050565b60006111f2601783611471565b91507f416363657373436f6e74726f6c3a206163636f756e74200000000000000000006000830152601782019050919050565b6000611232601183611471565b91507f206973206d697373696e6720726f6c65200000000000000000000000000000006000830152601182019050919050565b6000611272602f83611460565b91507f416363657373436f6e74726f6c3a2063616e206f6e6c792072656e6f756e636560008301527f20726f6c657320666f722073656c6600000000000000000000000000000000006020830152604082019050919050565b60006112d6826111e5565b91506112e282856110a8565b91506112ed82611225565b91506112f982846110a8565b91508190509392505050565b600060208201905061131a6000830184611042565b92915050565b60006020820190506113356000830184611051565b92915050565b60006020820190506113506000830184611060565b92915050565b60006020820190508181036000830152611370818461106f565b905092915050565b60006020820190508181036000830152611391816110d9565b9050919050565b600060208201905081810360008301526113b181611119565b9050919050565b600060208201905081810360008301526113d18161117f565b9050919050565b600060208201905081810360008301526113f181611265565b9050919050565b6000604051905081810181811067ffffffffffffffff8211171561141f5761141e61167f565b5b8060405250919050565b600067ffffffffffffffff8211156114445761144361167f565b5b602082029050602081019050919050565b600081519050919050565b600082825260208201905092915050565b600081905092915050565b6000611487826115a0565b9150611492836115a0565b9250827fffffffffffffffffffffffffffffffffffffffffffffffffffffffffffffffff038211156114c7576114c6611650565b5b828201905092915050565b60006114dd826115a0565b91506114e8836115a0565b9250817fffffffffffffffffffffffffffffffffffffffffffffffffffffffffffffffff048311821515161561152157611520611650565b5b828202905092915050565b600061153782611580565b9050919050565b60008115159050919050565b6000819050919050565b60007fffffffff0000000000000000000000000000000000000000000000000000000082169050919050565b600073ffffffffffffffffffffffffffffffffffffffff82169050919050565b6000819050919050565b60005b838110156115c85780820151818401526020810190506115ad565b838111156115d7576000848401525b50505050565b60006115e8826115a0565b915060008214156115fc576115fb611650565b5b600182039050919050565b6000611612826115a0565b91507fffffffffffffffffffffffffffffffffffffffffffffffffffffffffffffffff82141561164557611644611650565b5b600182019050919050565b7f4e487b7100000000000000000000000000000000000000000000000000000000600052601160045260246000fd5b7f4e487b7100000000000000000000000000000000000000000000000000000000600052604160045260246000fd5b6000601f19601f8301169050919050565b6116c88161152c565b81146116d357600080fd5b50565b6116df8161154a565b81146116ea57600080fd5b50565b6116f681611554565b811461170157600080fd5b5056fea264697066735822122093987e4827335910b4f87ced9e4dc22f572e7bebcae0e8c3f08630a2896e837664736f6c63430008000033",
  "immutableReferences": {},
  "source": "// SPDX-License-Identifier: MIT\npragma solidity =0.8.0;\n\nimport \"@openzeppelin/contracts/access/AccessControl.sol\";\n\n/// @title Locked\n/// @dev Smart contract to enable locking and unlocking of token holders. \ncontract Locked is AccessControl {\n\n    mapping (address => bool) public lockedList;\n\n    event AddedLock(address user);\n    event RemovedLock(address user);\n\n    // Create a new role identifier for the controller role\n    bytes32 public constant CONTROLLER_ROLE = keccak256(\"CONTROLLER_ROLE\");\n    bytes32 public constant MINTER_ROLE = keccak256(\"MINTER_ROLE\");\n\n\n       modifier isController {\n            require(hasRole(CONTROLLER_ROLE, msg.sender), \"Locked::isController - Caller is not a controller\");\n\n        _;\n    }\n\n    modifier isMinter {\n            require(hasRole(MINTER_ROLE, msg.sender), \"Locked::isMinter - Caller is not a minter\");\n        _;\n    }\n\n\n\n    /// @dev terminate transaction if any of the participants is locked\n    /// @param _from - user initiating process\n    /// @param _to  - user involved in process\n    modifier isNotLocked(address _from, address _to) {\n\n        if (!hasRole(DEFAULT_ADMIN_ROLE, _from)){  // allow contract admin on sending tokens even if recipient is locked\n            require(!lockedList[_from], \"Locked::isNotLocked - User is locked\");\n            require(!lockedList[_to], \"Locked::isNotLocked - User is locked\");\n        }\n        _;\n    }\n\n    /// @dev check if user has been locked\n    /// @param _user - usr to check\n    /// @return true or false\n    function isLocked(address _user) public view returns (bool) {\n        return lockedList[_user];\n    }\n    \n    /// @dev add user to lock\n    /// @param _user to lock\n    function addLock (address _user) public  isController() {        \n        _addLock(_user);\n    }\n\n    function addLockMultiple(address[] memory _users) public isController() {\n        uint256 length = _users.length;\n        require(length <= 256, \"Locked-addLockMultiple: List too long\");\n        for (uint256 i = 0; i < length; i++) {\n            _addLock(_users[i]);\n        }\n    }\n\n    /// @dev unlock user\n    /// @param _user - user to unlock\n    function removeLock (address _user) isController() public {       \n        _removeLock(_user);\n    }\n\n\n    /// @dev add user to lock for internal needs\n    /// @param _user to lock\n    function _addLock(address _user) internal {\n        lockedList[_user] = true;\n        emit AddedLock(_user);\n    }\n\n    /// @dev unlock user for internal needs\n    /// @param _user - user to unlock\n    function _removeLock (address _user) internal {\n        lockedList[_user] = false;\n        emit RemovedLock(_user);\n    }\n\n}",
  "sourcePath": "/home/win2win/eth/projects/AuditChain/Core-Smart-Contracts-v1/contracts/Locked.sol",
  "compiler": {
    "name": "solc",
    "version": "0.8.0+commit.c7dfd78e.Emscripten.clang"
  },
  "schemaVersion": "3.4.1",
  "updatedAt": "2022-03-04T18:11:23.170Z",
  "devdoc": {
    "details": "Smart contract to enable locking and unlocking of token holders. ",
    "kind": "dev",
    "methods": {
      "addLock(address)": {
        "details": "add user to lock",
        "params": {
          "_user": "to lock"
        }
      },
      "getRoleAdmin(bytes32)": {
        "details": "Returns the admin role that controls `role`. See {grantRole} and {revokeRole}. To change a role's admin, use {_setRoleAdmin}."
      },
      "grantRole(bytes32,address)": {
        "details": "Grants `role` to `account`. If `account` had not been already granted `role`, emits a {RoleGranted} event. Requirements: - the caller must have ``role``'s admin role."
      },
      "hasRole(bytes32,address)": {
        "details": "Returns `true` if `account` has been granted `role`."
      },
      "isLocked(address)": {
        "details": "check if user has been locked",
        "params": {
          "_user": "- usr to check"
        },
        "returns": {
          "_0": "true or false"
        }
      },
      "removeLock(address)": {
        "details": "unlock user",
        "params": {
          "_user": "- user to unlock"
        }
      },
      "renounceRole(bytes32,address)": {
        "details": "Revokes `role` from the calling account. Roles are often managed via {grantRole} and {revokeRole}: this function's purpose is to provide a mechanism for accounts to lose their privileges if they are compromised (such as when a trusted device is misplaced). If the calling account had been revoked `role`, emits a {RoleRevoked} event. Requirements: - the caller must be `account`."
      },
      "revokeRole(bytes32,address)": {
        "details": "Revokes `role` from `account`. If `account` had been granted `role`, emits a {RoleRevoked} event. Requirements: - the caller must have ``role``'s admin role."
      },
      "supportsInterface(bytes4)": {
        "details": "See {IERC165-supportsInterface}."
      }
    },
    "title": "Locked",
    "version": 1
  },
  "userdoc": {
    "kind": "user",
    "methods": {},
    "version": 1
  }
}