{
  "contractName": "Locked",
  "abi": [
    {
      "anonymous": false,
      "inputs": [
        {
          "indexed": false,
          "internalType": "address",
          "name": "user",
          "type": "address"
        }
      ],
      "name": "AddedLock",
      "type": "event"
    },
    {
      "anonymous": false,
      "inputs": [
        {
          "indexed": false,
          "internalType": "address",
          "name": "user",
          "type": "address"
        }
      ],
      "name": "RemovedLock",
      "type": "event"
    },
    {
      "anonymous": false,
      "inputs": [
        {
          "indexed": true,
          "internalType": "bytes32",
          "name": "role",
          "type": "bytes32"
        },
        {
          "indexed": true,
          "internalType": "bytes32",
          "name": "previousAdminRole",
          "type": "bytes32"
        },
        {
          "indexed": true,
          "internalType": "bytes32",
          "name": "newAdminRole",
          "type": "bytes32"
        }
      ],
      "name": "RoleAdminChanged",
      "type": "event"
    },
    {
      "anonymous": false,
      "inputs": [
        {
          "indexed": true,
          "internalType": "bytes32",
          "name": "role",
          "type": "bytes32"
        },
        {
          "indexed": true,
          "internalType": "address",
          "name": "account",
          "type": "address"
        },
        {
          "indexed": true,
          "internalType": "address",
          "name": "sender",
          "type": "address"
        }
      ],
      "name": "RoleGranted",
      "type": "event"
    },
    {
      "anonymous": false,
      "inputs": [
        {
          "indexed": true,
          "internalType": "bytes32",
          "name": "role",
          "type": "bytes32"
        },
        {
          "indexed": true,
          "internalType": "address",
          "name": "account",
          "type": "address"
        },
        {
          "indexed": true,
          "internalType": "address",
          "name": "sender",
          "type": "address"
        }
      ],
      "name": "RoleRevoked",
      "type": "event"
    },
    {
      "inputs": [],
      "name": "CONTROLLER_ROLE",
      "outputs": [
        {
          "internalType": "bytes32",
          "name": "",
          "type": "bytes32"
        }
      ],
      "stateMutability": "view",
      "type": "function"
    },
    {
      "inputs": [],
      "name": "DEFAULT_ADMIN_ROLE",
      "outputs": [
        {
          "internalType": "bytes32",
          "name": "",
          "type": "bytes32"
        }
      ],
      "stateMutability": "view",
      "type": "function"
    },
    {
      "inputs": [
        {
          "internalType": "bytes32",
          "name": "role",
          "type": "bytes32"
        }
      ],
      "name": "getRoleAdmin",
      "outputs": [
        {
          "internalType": "bytes32",
          "name": "",
          "type": "bytes32"
        }
      ],
      "stateMutability": "view",
      "type": "function"
    },
    {
      "inputs": [
        {
          "internalType": "bytes32",
          "name": "role",
          "type": "bytes32"
        },
        {
          "internalType": "address",
          "name": "account",
          "type": "address"
        }
      ],
      "name": "grantRole",
      "outputs": [],
      "stateMutability": "nonpayable",
      "type": "function"
    },
    {
      "inputs": [
        {
          "internalType": "bytes32",
          "name": "role",
          "type": "bytes32"
        },
        {
          "internalType": "address",
          "name": "account",
          "type": "address"
        }
      ],
      "name": "hasRole",
      "outputs": [
        {
          "internalType": "bool",
          "name": "",
          "type": "bool"
        }
      ],
      "stateMutability": "view",
      "type": "function"
    },
    {
      "inputs": [
        {
          "internalType": "address",
          "name": "",
          "type": "address"
        }
      ],
      "name": "lockedList",
      "outputs": [
        {
          "internalType": "bool",
          "name": "",
          "type": "bool"
        }
      ],
      "stateMutability": "view",
      "type": "function"
    },
    {
      "inputs": [
        {
          "internalType": "bytes32",
          "name": "role",
          "type": "bytes32"
        },
        {
          "internalType": "address",
          "name": "account",
          "type": "address"
        }
      ],
      "name": "renounceRole",
      "outputs": [],
      "stateMutability": "nonpayable",
      "type": "function"
    },
    {
      "inputs": [
        {
          "internalType": "bytes32",
          "name": "role",
          "type": "bytes32"
        },
        {
          "internalType": "address",
          "name": "account",
          "type": "address"
        }
      ],
      "name": "revokeRole",
      "outputs": [],
      "stateMutability": "nonpayable",
      "type": "function"
    },
    {
      "inputs": [
        {
          "internalType": "bytes4",
          "name": "interfaceId",
          "type": "bytes4"
        }
      ],
      "name": "supportsInterface",
      "outputs": [
        {
          "internalType": "bool",
          "name": "",
          "type": "bool"
        }
      ],
      "stateMutability": "view",
      "type": "function"
    },
    {
      "inputs": [
        {
          "internalType": "address",
          "name": "_user",
          "type": "address"
        }
      ],
      "name": "isLocked",
      "outputs": [
        {
          "internalType": "bool",
          "name": "",
          "type": "bool"
        }
      ],
      "stateMutability": "view",
      "type": "function"
    },
    {
      "inputs": [
        {
          "internalType": "address",
          "name": "_user",
          "type": "address"
        }
      ],
      "name": "addLock",
      "outputs": [],
      "stateMutability": "nonpayable",
      "type": "function"
    },
    {
      "inputs": [
        {
          "internalType": "address[]",
          "name": "_users",
          "type": "address[]"
        }
      ],
      "name": "addLockMultiple",
      "outputs": [],
      "stateMutability": "nonpayable",
      "type": "function"
    },
    {
      "inputs": [
        {
          "internalType": "address",
          "name": "_user",
          "type": "address"
        }
      ],
      "name": "removeLock",
      "outputs": [],
      "stateMutability": "nonpayable",
      "type": "function"
    }
  ],
  "bytecode": "0x608060405234801561001057600080fd5b506116dd806100206000396000f3fe608060405234801561001057600080fd5b50600436106100cf5760003560e01c80634a387bef1161008c5780638f557373116100665780638f5573731461022257806391d148541461023e578063a217fddf1461026e578063d547741f1461028c576100cf565b80634a387bef146101ba5780634a4fbeec146101d6578063882f327b14610206576100cf565b806301ffc9a7146100d4578063092c5b3b146101045780631a921b3e14610122578063248a9ca3146101525780632f2ff15d1461018257806336568abe1461019e575b600080fd5b6100ee60048036038101906100e99190610fbc565b6102a8565b6040516100fb91906112c3565b60405180910390f35b61010c610322565b60405161011991906112de565b60405180910390f35b61013c60048036038101906101379190610eed565b610346565b60405161014991906112c3565b60405180910390f35b61016c60048036038101906101679190610f57565b610366565b60405161017991906112de565b60405180910390f35b61019c60048036038101906101979190610f80565b610385565b005b6101b860048036038101906101b39190610f80565b6103ae565b005b6101d460048036038101906101cf9190610eed565b610431565b005b6101f060048036038101906101eb9190610eed565b6104a6565b6040516101fd91906112c3565b60405180910390f35b610220600480360381019061021b9190610eed565b6104fc565b005b61023c60048036038101906102379190610f16565b610571565b005b61025860048036038101906102539190610f80565b610691565b60405161026591906112c3565b60405180910390f35b6102766106fb565b60405161028391906112de565b60405180910390f35b6102a660048036038101906102a19190610f80565b610702565b005b60007f7965db0b000000000000000000000000000000000000000000000000000000007bffffffffffffffffffffffffffffffffffffffffffffffffffffffff1916827bffffffffffffffffffffffffffffffffffffffffffffffffffffffff1916148061031b575061031a8261072b565b5b9050919050565b7f7b765e0e932d348852a6f810bfa1ab891e259123f02db8cdcde614c57022335781565b60016020528060005260406000206000915054906101000a900460ff1681565b6000806000838152602001908152602001600020600101549050919050565b61038e82610366565b61039f8161039a610795565b61079d565b6103a9838361083a565b505050565b6103b6610795565b73ffffffffffffffffffffffffffffffffffffffff168173ffffffffffffffffffffffffffffffffffffffff1614610423576040517f08c379a000000000000000000000000000000000000000000000000000000000815260040161041a9061137b565b60405180910390fd5b61042d828261091a565b5050565b61045b7f7b765e0e932d348852a6f810bfa1ab891e259123f02db8cdcde614c57022335733610691565b61049a576040517f08c379a00000000000000000000000000000000000000000000000000000000081526004016104919061135b565b60405180910390fd5b6104a3816109fb565b50565b6000600160008373ffffffffffffffffffffffffffffffffffffffff1673ffffffffffffffffffffffffffffffffffffffff16815260200190815260200160002060009054906101000a900460ff169050919050565b6105267f7b765e0e932d348852a6f810bfa1ab891e259123f02db8cdcde614c57022335733610691565b610565576040517f08c379a000000000000000000000000000000000000000000000000000000000815260040161055c9061135b565b60405180910390fd5b61056e81610a8d565b50565b61059b7f7b765e0e932d348852a6f810bfa1ab891e259123f02db8cdcde614c57022335733610691565b6105da576040517f08c379a00000000000000000000000000000000000000000000000000000000081526004016105d19061135b565b60405180910390fd5b600081519050610100811115610625576040517f08c379a000000000000000000000000000000000000000000000000000000000815260040161061c9061133b565b60405180910390fd5b60005b8181101561068c5761067983828151811061066c577f4e487b7100000000000000000000000000000000000000000000000000000000600052603260045260246000fd5b6020026020010151610a8d565b8080610684906115aa565b915050610628565b505050565b600080600084815260200190815260200160002060000160008373ffffffffffffffffffffffffffffffffffffffff1673ffffffffffffffffffffffffffffffffffffffff16815260200190815260200160002060009054906101000a900460ff16905092915050565b6000801b81565b61070b82610366565b61071c81610717610795565b61079d565b610726838361091a565b505050565b60007f01ffc9a7000000000000000000000000000000000000000000000000000000007bffffffffffffffffffffffffffffffffffffffffffffffffffffffff1916827bffffffffffffffffffffffffffffffffffffffffffffffffffffffff1916149050919050565b600033905090565b6107a78282610691565b610836576107cc8173ffffffffffffffffffffffffffffffffffffffff166014610b1e565b6107da8360001c6020610b1e565b6040516020016107eb92919061126e565b6040516020818303038152906040526040517f08c379a000000000000000000000000000000000000000000000000000000000815260040161082d91906112f9565b60405180910390fd5b5050565b6108448282610691565b61091657600160008084815260200190815260200160002060000160008373ffffffffffffffffffffffffffffffffffffffff1673ffffffffffffffffffffffffffffffffffffffff16815260200190815260200160002060006101000a81548160ff0219169083151502179055506108bb610795565b73ffffffffffffffffffffffffffffffffffffffff168173ffffffffffffffffffffffffffffffffffffffff16837f2f8788117e7eff1d82e926ec794901d17c78024a50270940304540a733656f0d60405160405180910390a45b5050565b6109248282610691565b156109f757600080600084815260200190815260200160002060000160008373ffffffffffffffffffffffffffffffffffffffff1673ffffffffffffffffffffffffffffffffffffffff16815260200190815260200160002060006101000a81548160ff02191690831515021790555061099c610795565b73ffffffffffffffffffffffffffffffffffffffff168173ffffffffffffffffffffffffffffffffffffffff16837ff6391f5c32d9c69d2a47ea670b442974b53935d1edc7fd64eb21e047a839171b60405160405180910390a45b5050565b6000600160008373ffffffffffffffffffffffffffffffffffffffff1673ffffffffffffffffffffffffffffffffffffffff16815260200190815260200160002060006101000a81548160ff0219169083151502179055507f6134e30ca79f58d7566528b3768c7d33c9c30815c63cfeae3b69f52cf31dd61a81604051610a8291906112a8565b60405180910390a150565b60018060008373ffffffffffffffffffffffffffffffffffffffff1673ffffffffffffffffffffffffffffffffffffffff16815260200190815260200160002060006101000a81548160ff0219169083151502179055507f1b6f28dfffb89ba40ba9067329c3c0e8bd926256b970cf7d060cd48b1cd0e44e81604051610b1391906112a8565b60405180910390a150565b606060006002836002610b319190611475565b610b3b919061141f565b67ffffffffffffffff811115610b7a577f4e487b7100000000000000000000000000000000000000000000000000000000600052604160045260246000fd5b6040519080825280601f01601f191660200182016040528015610bac5781602001600182028036833780820191505090505b5090507f300000000000000000000000000000000000000000000000000000000000000081600081518110610c0a577f4e487b7100000000000000000000000000000000000000000000000000000000600052603260045260246000fd5b60200101907effffffffffffffffffffffffffffffffffffffffffffffffffffffffffffff1916908160001a9053507f780000000000000000000000000000000000000000000000000000000000000081600181518110610c94577f4e487b7100000000000000000000000000000000000000000000000000000000600052603260045260246000fd5b60200101907effffffffffffffffffffffffffffffffffffffffffffffffffffffffffffff1916908160001a90535060006001846002610cd49190611475565b610cde919061141f565b90505b6001811115610dca577f3031323334353637383961626364656600000000000000000000000000000000600f861660108110610d46577f4e487b7100000000000000000000000000000000000000000000000000000000600052603260045260246000fd5b1a60f81b828281518110610d83577f4e487b7100000000000000000000000000000000000000000000000000000000600052603260045260246000fd5b60200101907effffffffffffffffffffffffffffffffffffffffffffffffffffffffffffff1916908160001a905350600485901c945080610dc390611580565b9050610ce1565b5060008414610e0e576040517f08c379a0000000000000000000000000000000000000000000000000000000008152600401610e059061131b565b60405180910390fd5b8091505092915050565b6000610e2b610e26846113cc565b61139b565b90508083825260208201905082856020860282011115610e4a57600080fd5b60005b85811015610e7a5781610e608882610e84565b845260208401935060208301925050600181019050610e4d565b5050509392505050565b600081359050610e9381611662565b92915050565b600082601f830112610eaa57600080fd5b8135610eba848260208601610e18565b91505092915050565b600081359050610ed281611679565b92915050565b600081359050610ee781611690565b92915050565b600060208284031215610eff57600080fd5b6000610f0d84828501610e84565b91505092915050565b600060208284031215610f2857600080fd5b600082013567ffffffffffffffff811115610f4257600080fd5b610f4e84828501610e99565b91505092915050565b600060208284031215610f6957600080fd5b6000610f7784828501610ec3565b91505092915050565b60008060408385031215610f9357600080fd5b6000610fa185828601610ec3565b9250506020610fb285828601610e84565b9150509250929050565b600060208284031215610fce57600080fd5b6000610fdc84828501610ed8565b91505092915050565b610fee816114cf565b82525050565b610ffd816114e1565b82525050565b61100c816114ed565b82525050565b600061101d826113f8565b6110278185611403565b935061103781856020860161154d565b61104081611651565b840191505092915050565b6000611056826113f8565b6110608185611414565b935061107081856020860161154d565b80840191505092915050565b6000611089602083611403565b91507f537472696e67733a20686578206c656e67746820696e73756666696369656e746000830152602082019050919050565b60006110c9602583611403565b91507f4c6f636b65642d6164644c6f636b4d756c7469706c653a204c69737420746f6f60008301527f206c6f6e670000000000000000000000000000000000000000000000000000006020830152604082019050919050565b600061112f603183611403565b91507f4c6f636b65643a3a6973436f6e74726f6c6c6572202d2043616c6c657220697360008301527f206e6f74206120636f6e74726f6c6c65720000000000000000000000000000006020830152604082019050919050565b6000611195601783611414565b91507f416363657373436f6e74726f6c3a206163636f756e74200000000000000000006000830152601782019050919050565b60006111d5601183611414565b91507f206973206d697373696e6720726f6c65200000000000000000000000000000006000830152601182019050919050565b6000611215602f83611403565b91507f416363657373436f6e74726f6c3a2063616e206f6e6c792072656e6f756e636560008301527f20726f6c657320666f722073656c6600000000000000000000000000000000006020830152604082019050919050565b600061127982611188565b9150611285828561104b565b9150611290826111c8565b915061129c828461104b565b91508190509392505050565b60006020820190506112bd6000830184610fe5565b92915050565b60006020820190506112d86000830184610ff4565b92915050565b60006020820190506112f36000830184611003565b92915050565b600060208201905081810360008301526113138184611012565b905092915050565b600060208201905081810360008301526113348161107c565b9050919050565b60006020820190508181036000830152611354816110bc565b9050919050565b6000602082019050818103600083015261137481611122565b9050919050565b6000602082019050818103600083015261139481611208565b9050919050565b6000604051905081810181811067ffffffffffffffff821117156113c2576113c1611622565b5b8060405250919050565b600067ffffffffffffffff8211156113e7576113e6611622565b5b602082029050602081019050919050565b600081519050919050565b600082825260208201905092915050565b600081905092915050565b600061142a82611543565b915061143583611543565b9250827fffffffffffffffffffffffffffffffffffffffffffffffffffffffffffffffff0382111561146a576114696115f3565b5b828201905092915050565b600061148082611543565b915061148b83611543565b9250817fffffffffffffffffffffffffffffffffffffffffffffffffffffffffffffffff04831182151516156114c4576114c36115f3565b5b828202905092915050565b60006114da82611523565b9050919050565b60008115159050919050565b6000819050919050565b60007fffffffff0000000000000000000000000000000000000000000000000000000082169050919050565b600073ffffffffffffffffffffffffffffffffffffffff82169050919050565b6000819050919050565b60005b8381101561156b578082015181840152602081019050611550565b8381111561157a576000848401525b50505050565b600061158b82611543565b9150600082141561159f5761159e6115f3565b5b600182039050919050565b60006115b582611543565b91507fffffffffffffffffffffffffffffffffffffffffffffffffffffffffffffffff8214156115e8576115e76115f3565b5b600182019050919050565b7f4e487b7100000000000000000000000000000000000000000000000000000000600052601160045260246000fd5b7f4e487b7100000000000000000000000000000000000000000000000000000000600052604160045260246000fd5b6000601f19601f8301169050919050565b61166b816114cf565b811461167657600080fd5b50565b611682816114ed565b811461168d57600080fd5b50565b611699816114f7565b81146116a457600080fd5b5056fea2646970667358221220da2388d0bd44f1916ec8e697a89be06ec75605d49acacb2de13eb6c65168845864736f6c63430008000033",
  "immutableReferences": {},
  "source": "// SPDX-License-Identifier: MIT\npragma solidity =0.8.0;\n\nimport \"@openzeppelin/contracts/access/AccessControl.sol\";\n\n/// @title Locked\n/// @dev Smart contract to enable locking and unlocking of token holders. \ncontract Locked is AccessControl {\n\n    mapping (address => bool) public lockedList;\n\n    event AddedLock(address user);\n    event RemovedLock(address user);\n\n    // Create a new role identifier for the controller role\n    bytes32 public constant CONTROLLER_ROLE = keccak256(\"CONTROLLER_ROLE\");\n\n       modifier isController {\n            require(hasRole(CONTROLLER_ROLE, msg.sender), \"Locked::isController - Caller is not a controller\");\n\n        _;\n    }\n\n\n    /// @dev terminate transaction if any of the participants is locked\n    /// @param _from - user initiating process\n    /// @param _to  - user involved in process\n    modifier isNotLocked(address _from, address _to) {\n\n        if (!hasRole(DEFAULT_ADMIN_ROLE, _from)){  // allow contract admin on sending tokens even if recipient is locked\n            require(!lockedList[_from], \"Locked::isNotLocked - User is locked\");\n            require(!lockedList[_to], \"Locked::isNotLocked - User is locked\");\n        }\n        _;\n    }\n\n    /// @dev check if user has been locked\n    /// @param _user - usr to check\n    /// @return true or false\n    function isLocked(address _user) public view returns (bool) {\n        return lockedList[_user];\n    }\n    \n    /// @dev add user to lock\n    /// @param _user to lock\n    function addLock (address _user) public  isController() {        \n        _addLock(_user);\n    }\n\n    function addLockMultiple(address[] memory _users) public isController() {\n        uint256 length = _users.length;\n        require(length <= 256, \"Locked-addLockMultiple: List too long\");\n        for (uint256 i = 0; i < length; i++) {\n            _addLock(_users[i]);\n        }\n    }\n\n    /// @dev unlock user\n    /// @param _user - user to unlock\n    function removeLock (address _user) isController() public {       \n        _removeLock(_user);\n    }\n\n\n    /// @dev add user to lock for internal needs\n    /// @param _user to lock\n    function _addLock(address _user) internal {\n        lockedList[_user] = true;\n        emit AddedLock(_user);\n    }\n\n    /// @dev unlock user for internal needs\n    /// @param _user - user to unlock\n    function _removeLock (address _user) internal {\n        lockedList[_user] = false;\n        emit RemovedLock(_user);\n    }\n\n}",
  "sourcePath": "/home/win2win/eth/projects/AuditChain/Core-Smart-Contracts-v1/contracts/Locked.sol",
  "compiler": {
    "name": "solc",
    "version": "0.8.0+commit.c7dfd78e.Emscripten.clang"
  },
  "schemaVersion": "3.4.1",
  "updatedAt": "2021-08-02T20:50:03.003Z",
  "devdoc": {
    "details": "Smart contract to enable locking and unlocking of token holders. ",
    "kind": "dev",
    "methods": {
      "addLock(address)": {
        "details": "add user to lock",
        "params": {
          "_user": "to lock"
        }
      },
      "getRoleAdmin(bytes32)": {
        "details": "Returns the admin role that controls `role`. See {grantRole} and {revokeRole}. To change a role's admin, use {_setRoleAdmin}."
      },
      "grantRole(bytes32,address)": {
        "details": "Grants `role` to `account`. If `account` had not been already granted `role`, emits a {RoleGranted} event. Requirements: - the caller must have ``role``'s admin role."
      },
      "hasRole(bytes32,address)": {
        "details": "Returns `true` if `account` has been granted `role`."
      },
      "isLocked(address)": {
        "details": "check if user has been locked",
        "params": {
          "_user": "- usr to check"
        },
        "returns": {
          "_0": "true or false"
        }
      },
      "removeLock(address)": {
        "details": "unlock user",
        "params": {
          "_user": "- user to unlock"
        }
      },
      "renounceRole(bytes32,address)": {
        "details": "Revokes `role` from the calling account. Roles are often managed via {grantRole} and {revokeRole}: this function's purpose is to provide a mechanism for accounts to lose their privileges if they are compromised (such as when a trusted device is misplaced). If the calling account had been granted `role`, emits a {RoleRevoked} event. Requirements: - the caller must be `account`."
      },
      "revokeRole(bytes32,address)": {
        "details": "Revokes `role` from `account`. If `account` had been granted `role`, emits a {RoleRevoked} event. Requirements: - the caller must have ``role``'s admin role."
      },
      "supportsInterface(bytes4)": {
        "details": "See {IERC165-supportsInterface}."
      }
    },
    "title": "Locked",
    "version": 1
  },
  "userdoc": {
    "kind": "user",
    "methods": {},
    "version": 1
  }
}