{
  "contractName": "Locked",
  "abi": [
    {
      "anonymous": false,
      "inputs": [
        {
          "indexed": false,
          "internalType": "address",
          "name": "user",
          "type": "address"
        }
      ],
      "name": "AddedLock",
      "type": "event"
    },
    {
      "anonymous": false,
      "inputs": [
        {
          "indexed": false,
          "internalType": "address",
          "name": "user",
          "type": "address"
        }
      ],
      "name": "RemovedLock",
      "type": "event"
    },
    {
      "anonymous": false,
      "inputs": [
        {
          "indexed": true,
          "internalType": "bytes32",
          "name": "role",
          "type": "bytes32"
        },
        {
          "indexed": true,
          "internalType": "bytes32",
          "name": "previousAdminRole",
          "type": "bytes32"
        },
        {
          "indexed": true,
          "internalType": "bytes32",
          "name": "newAdminRole",
          "type": "bytes32"
        }
      ],
      "name": "RoleAdminChanged",
      "type": "event"
    },
    {
      "anonymous": false,
      "inputs": [
        {
          "indexed": true,
          "internalType": "bytes32",
          "name": "role",
          "type": "bytes32"
        },
        {
          "indexed": true,
          "internalType": "address",
          "name": "account",
          "type": "address"
        },
        {
          "indexed": true,
          "internalType": "address",
          "name": "sender",
          "type": "address"
        }
      ],
      "name": "RoleGranted",
      "type": "event"
    },
    {
      "anonymous": false,
      "inputs": [
        {
          "indexed": true,
          "internalType": "bytes32",
          "name": "role",
          "type": "bytes32"
        },
        {
          "indexed": true,
          "internalType": "address",
          "name": "account",
          "type": "address"
        },
        {
          "indexed": true,
          "internalType": "address",
          "name": "sender",
          "type": "address"
        }
      ],
      "name": "RoleRevoked",
      "type": "event"
    },
    {
      "inputs": [],
      "name": "CONTROLLER_ROLE",
      "outputs": [
        {
          "internalType": "bytes32",
          "name": "",
          "type": "bytes32"
        }
      ],
      "stateMutability": "view",
      "type": "function"
    },
    {
      "inputs": [],
      "name": "DEFAULT_ADMIN_ROLE",
      "outputs": [
        {
          "internalType": "bytes32",
          "name": "",
          "type": "bytes32"
        }
      ],
      "stateMutability": "view",
      "type": "function"
    },
    {
      "inputs": [
        {
          "internalType": "bytes32",
          "name": "role",
          "type": "bytes32"
        }
      ],
      "name": "getRoleAdmin",
      "outputs": [
        {
          "internalType": "bytes32",
          "name": "",
          "type": "bytes32"
        }
      ],
      "stateMutability": "view",
      "type": "function"
    },
    {
      "inputs": [
        {
          "internalType": "bytes32",
          "name": "role",
          "type": "bytes32"
        },
        {
          "internalType": "uint256",
          "name": "index",
          "type": "uint256"
        }
      ],
      "name": "getRoleMember",
      "outputs": [
        {
          "internalType": "address",
          "name": "",
          "type": "address"
        }
      ],
      "stateMutability": "view",
      "type": "function"
    },
    {
      "inputs": [
        {
          "internalType": "bytes32",
          "name": "role",
          "type": "bytes32"
        }
      ],
      "name": "getRoleMemberCount",
      "outputs": [
        {
          "internalType": "uint256",
          "name": "",
          "type": "uint256"
        }
      ],
      "stateMutability": "view",
      "type": "function"
    },
    {
      "inputs": [
        {
          "internalType": "bytes32",
          "name": "role",
          "type": "bytes32"
        },
        {
          "internalType": "address",
          "name": "account",
          "type": "address"
        }
      ],
      "name": "grantRole",
      "outputs": [],
      "stateMutability": "nonpayable",
      "type": "function"
    },
    {
      "inputs": [
        {
          "internalType": "bytes32",
          "name": "role",
          "type": "bytes32"
        },
        {
          "internalType": "address",
          "name": "account",
          "type": "address"
        }
      ],
      "name": "hasRole",
      "outputs": [
        {
          "internalType": "bool",
          "name": "",
          "type": "bool"
        }
      ],
      "stateMutability": "view",
      "type": "function"
    },
    {
      "inputs": [
        {
          "internalType": "address",
          "name": "",
          "type": "address"
        }
      ],
      "name": "lockedList",
      "outputs": [
        {
          "internalType": "bool",
          "name": "",
          "type": "bool"
        }
      ],
      "stateMutability": "view",
      "type": "function"
    },
    {
      "inputs": [
        {
          "internalType": "bytes32",
          "name": "role",
          "type": "bytes32"
        },
        {
          "internalType": "address",
          "name": "account",
          "type": "address"
        }
      ],
      "name": "renounceRole",
      "outputs": [],
      "stateMutability": "nonpayable",
      "type": "function"
    },
    {
      "inputs": [
        {
          "internalType": "bytes32",
          "name": "role",
          "type": "bytes32"
        },
        {
          "internalType": "address",
          "name": "account",
          "type": "address"
        }
      ],
      "name": "revokeRole",
      "outputs": [],
      "stateMutability": "nonpayable",
      "type": "function"
    },
    {
      "inputs": [
        {
          "internalType": "address",
          "name": "_user",
          "type": "address"
        }
      ],
      "name": "isLocked",
      "outputs": [
        {
          "internalType": "bool",
          "name": "",
          "type": "bool"
        }
      ],
      "stateMutability": "view",
      "type": "function"
    },
    {
      "inputs": [
        {
          "internalType": "address",
          "name": "_user",
          "type": "address"
        }
      ],
      "name": "addLock",
      "outputs": [],
      "stateMutability": "nonpayable",
      "type": "function"
    },
    {
      "inputs": [
        {
          "internalType": "address[]",
          "name": "_users",
          "type": "address[]"
        }
      ],
      "name": "addLockMultiple",
      "outputs": [],
      "stateMutability": "nonpayable",
      "type": "function"
    },
    {
      "inputs": [
        {
          "internalType": "address",
          "name": "_user",
          "type": "address"
        }
      ],
      "name": "removeLock",
      "outputs": [],
      "stateMutability": "nonpayable",
      "type": "function"
    }
  ],
  "bytecode": "0x608060405234801561001057600080fd5b506110fc806100206000396000f3fe608060405234801561001057600080fd5b50600436106100ea5760003560e01c8063882f327b1161008c57806391d148541161006657806391d1485414610441578063a217fddf146104a5578063ca15c873146104c3578063d547741f14610505576100ea565b8063882f327b146102e35780638f557373146103275780639010d07c146103df576100ea565b80632f2ff15d116100c85780632f2ff15d146101a957806336568abe146101f75780634a387bef146102455780634a4fbeec14610289576100ea565b8063092c5b3b146100ef5780631a921b3e1461010d578063248a9ca314610167575b600080fd5b6100f7610553565b6040518082815260200191505060405180910390f35b61014f6004803603602081101561012357600080fd5b81019080803573ffffffffffffffffffffffffffffffffffffffff169060200190929190505050610577565b60405180821515815260200191505060405180910390f35b6101936004803603602081101561017d57600080fd5b8101908080359060200190929190505050610597565b6040518082815260200191505060405180910390f35b6101f5600480360360408110156101bf57600080fd5b8101908080359060200190929190803573ffffffffffffffffffffffffffffffffffffffff1690602001909291905050506105b6565b005b6102436004803603604081101561020d57600080fd5b8101908080359060200190929190803573ffffffffffffffffffffffffffffffffffffffff16906020019092919050505061063f565b005b6102876004803603602081101561025b57600080fd5b81019080803573ffffffffffffffffffffffffffffffffffffffff1690602001909291905050506106d8565b005b6102cb6004803603602081101561029f57600080fd5b81019080803573ffffffffffffffffffffffffffffffffffffffff169060200190929190505050610763565b60405180821515815260200191505060405180910390f35b610325600480360360208110156102f957600080fd5b81019080803573ffffffffffffffffffffffffffffffffffffffff1690602001909291905050506107b9565b005b6103dd6004803603602081101561033d57600080fd5b810190808035906020019064010000000081111561035a57600080fd5b82018360208201111561036c57600080fd5b8035906020019184602083028401116401000000008311171561038e57600080fd5b919080806020026020016040519081016040528093929190818152602001838360200280828437600081840152601f19601f820116905080830192505050505050509192919290505050610844565b005b610415600480360360408110156103f557600080fd5b81019080803590602001909291908035906020019092919050505061095d565b604051808273ffffffffffffffffffffffffffffffffffffffff16815260200191505060405180910390f35b61048d6004803603604081101561045757600080fd5b8101908080359060200190929190803573ffffffffffffffffffffffffffffffffffffffff16906020019092919050505061098e565b60405180821515815260200191505060405180910390f35b6104ad6109bf565b6040518082815260200191505060405180910390f35b6104ef600480360360208110156104d957600080fd5b81019080803590602001909291905050506109c6565b6040518082815260200191505060405180910390f35b6105516004803603604081101561051b57600080fd5b8101908080359060200190929190803573ffffffffffffffffffffffffffffffffffffffff1690602001909291905050506109ec565b005b7f7b765e0e932d348852a6f810bfa1ab891e259123f02db8cdcde614c57022335781565b60016020528060005260406000206000915054906101000a900460ff1681565b6000806000838152602001908152602001600020600201549050919050565b6105dc600080848152602001908152602001600020600201546105d7610a75565b61098e565b610631576040517f08c379a000000000000000000000000000000000000000000000000000000000815260040180806020018281038252602f815260200180610fe3602f913960400191505060405180910390fd5b61063b8282610a7d565b5050565b610647610a75565b73ffffffffffffffffffffffffffffffffffffffff168173ffffffffffffffffffffffffffffffffffffffff16146106ca576040517f08c379a000000000000000000000000000000000000000000000000000000000815260040180806020018281038252602f815260200180611098602f913960400191505060405180910390fd5b6106d48282610b10565b5050565b6107027f7b765e0e932d348852a6f810bfa1ab891e259123f02db8cdcde614c5702233573361098e565b610757576040517f08c379a00000000000000000000000000000000000000000000000000000000081526004018080602001828103825260318152602001806110676031913960400191505060405180910390fd5b61076081610ba3565b50565b6000600160008373ffffffffffffffffffffffffffffffffffffffff1673ffffffffffffffffffffffffffffffffffffffff16815260200190815260200160002060009054906101000a900460ff169050919050565b6107e37f7b765e0e932d348852a6f810bfa1ab891e259123f02db8cdcde614c5702233573361098e565b610838576040517f08c379a00000000000000000000000000000000000000000000000000000000081526004018080602001828103825260318152602001806110676031913960400191505060405180910390fd5b61084181610c4b565b50565b61086e7f7b765e0e932d348852a6f810bfa1ab891e259123f02db8cdcde614c5702233573361098e565b6108c3576040517f08c379a00000000000000000000000000000000000000000000000000000000081526004018080602001828103825260318152602001806110676031913960400191505060405180910390fd5b600081519050610100811115610924576040517f08c379a00000000000000000000000000000000000000000000000000000000081526004018080602001828103825260258152602001806110126025913960400191505060405180910390fd5b60005b818110156109585761094b83828151811061093e57fe5b6020026020010151610c4b565b8080600101915050610927565b505050565b600061098682600080868152602001908152602001600020600001610cf290919063ffffffff16565b905092915050565b60006109b782600080868152602001908152602001600020600001610d0c90919063ffffffff16565b905092915050565b6000801b81565b60006109e5600080848152602001908152602001600020600001610d3c565b9050919050565b610a1260008084815260200190815260200160002060020154610a0d610a75565b61098e565b610a67576040517f08c379a00000000000000000000000000000000000000000000000000000000081526004018080602001828103825260308152602001806110376030913960400191505060405180910390fd5b610a718282610b10565b5050565b600033905090565b610aa481600080858152602001908152602001600020600001610d5190919063ffffffff16565b15610b0c57610ab1610a75565b73ffffffffffffffffffffffffffffffffffffffff168173ffffffffffffffffffffffffffffffffffffffff16837f2f8788117e7eff1d82e926ec794901d17c78024a50270940304540a733656f0d60405160405180910390a45b5050565b610b3781600080858152602001908152602001600020600001610d8190919063ffffffff16565b15610b9f57610b44610a75565b73ffffffffffffffffffffffffffffffffffffffff168173ffffffffffffffffffffffffffffffffffffffff16837ff6391f5c32d9c69d2a47ea670b442974b53935d1edc7fd64eb21e047a839171b60405160405180910390a45b5050565b6000600160008373ffffffffffffffffffffffffffffffffffffffff1673ffffffffffffffffffffffffffffffffffffffff16815260200190815260200160002060006101000a81548160ff0219169083151502179055507f6134e30ca79f58d7566528b3768c7d33c9c30815c63cfeae3b69f52cf31dd61a81604051808273ffffffffffffffffffffffffffffffffffffffff16815260200191505060405180910390a150565b60018060008373ffffffffffffffffffffffffffffffffffffffff1673ffffffffffffffffffffffffffffffffffffffff16815260200190815260200160002060006101000a81548160ff0219169083151502179055507f1b6f28dfffb89ba40ba9067329c3c0e8bd926256b970cf7d060cd48b1cd0e44e81604051808273ffffffffffffffffffffffffffffffffffffffff16815260200191505060405180910390a150565b6000610d018360000183610db1565b60001c905092915050565b6000610d34836000018373ffffffffffffffffffffffffffffffffffffffff1660001b610e34565b905092915050565b6000610d4a82600001610e57565b9050919050565b6000610d79836000018373ffffffffffffffffffffffffffffffffffffffff1660001b610e68565b905092915050565b6000610da9836000018373ffffffffffffffffffffffffffffffffffffffff1660001b610ed8565b905092915050565b600081836000018054905011610e12576040517f08c379a0000000000000000000000000000000000000000000000000000000008152600401808060200182810382526022815260200180610fc16022913960400191505060405180910390fd5b826000018281548110610e2157fe5b9060005260206000200154905092915050565b600080836001016000848152602001908152602001600020541415905092915050565b600081600001805490509050919050565b6000610e748383610e34565b610ecd578260000182908060018154018082558091505060019003906000526020600020016000909190919091505582600001805490508360010160008481526020019081526020016000208190555060019050610ed2565b600090505b92915050565b60008083600101600084815260200190815260200160002054905060008114610fb45760006001820390506000600186600001805490500390506000866000018281548110610f2357fe5b9060005260206000200154905080876000018481548110610f4057fe5b9060005260206000200181905550600183018760010160008381526020019081526020016000208190555086600001805480610f7857fe5b60019003818190600052602060002001600090559055866001016000878152602001908152602001600020600090556001945050505050610fba565b60009150505b9291505056fe456e756d657261626c655365743a20696e646578206f7574206f6620626f756e6473416363657373436f6e74726f6c3a2073656e646572206d75737420626520616e2061646d696e20746f206772616e744c6f636b65642d6164644c6f636b4d756c7469706c653a204c69737420746f6f206c6f6e67416363657373436f6e74726f6c3a2073656e646572206d75737420626520616e2061646d696e20746f207265766f6b654c6f636b65643a3a6973436f6e74726f6c6c6572202d2043616c6c6572206973206e6f74206120636f6e74726f6c6c6572416363657373436f6e74726f6c3a2063616e206f6e6c792072656e6f756e636520726f6c657320666f722073656c66a264697066735822122043c9be2c5aaf0aaa689f3ae814a8cd669d12d5d59287fbba991b8bece724256464736f6c63430007060033",
  "immutableReferences": {},
  "source": "// SPDX-License-Identifier: MIT\r\npragma solidity =0.7.6;\r\n\r\nimport \"@openzeppelin/contracts/access/AccessControl.sol\";\r\n\r\n/// @title Locked\r\n/// @dev Smart contract to enable locking and unlocking of token holders. \r\ncontract Locked is AccessControl {\r\n\r\n    mapping (address => bool) public lockedList;\r\n\r\n    event AddedLock(address user);\r\n    event RemovedLock(address user);\r\n\r\n    // Create a new role identifier for the controller role\r\n    bytes32 public constant CONTROLLER_ROLE = keccak256(\"CONTROLLER_ROLE\");\r\n\r\n       modifier isController {\r\n            require(hasRole(CONTROLLER_ROLE, msg.sender), \"Locked::isController - Caller is not a controller\");\r\n\r\n        _;\r\n    }\r\n\r\n\r\n    /// @dev terminate transaction if any of the participants is locked\r\n    /// @param _from - user initiating process\r\n    /// @param _to  - user involved in process\r\n    modifier isNotLocked(address _from, address _to) {\r\n\r\n        if (hasRole(DEFAULT_ADMIN_ROLE, _from)){  // allow contract admin on sending tokens even if recipient is locked\r\n            require(!lockedList[_from], \"Locked::isNotLocked - User is locked\");\r\n            require(!lockedList[_to], \"Locked::isNotLocked - User is locked\");\r\n        }\r\n        _;\r\n    }\r\n\r\n    /// @dev check if user has been locked\r\n    /// @param _user - usr to check\r\n    /// @return true or false\r\n    function isLocked(address _user) public view returns (bool) {\r\n        return lockedList[_user];\r\n    }\r\n    \r\n    /// @dev add user to lock\r\n    /// @param _user to lock\r\n    function addLock (address _user) public  isController() {        \r\n        _addLock(_user);\r\n    }\r\n\r\n    function addLockMultiple(address[] memory _users) public isController() {\r\n        uint256 length = _users.length;\r\n        require(length <= 256, \"Locked-addLockMultiple: List too long\");\r\n        for (uint256 i = 0; i < length; i++) {\r\n            _addLock(_users[i]);\r\n        }\r\n    }\r\n\r\n    /// @dev unlock user\r\n    /// @param _user - user to unlock\r\n    function removeLock (address _user) isController() public {       \r\n        _removeLock(_user);\r\n    }\r\n\r\n\r\n    /// @dev add user to lock for internal needs\r\n    /// @param _user to lock\r\n    function _addLock(address _user) internal {\r\n        lockedList[_user] = true;\r\n        emit AddedLock(_user);\r\n    }\r\n\r\n    /// @dev unlock user for internal needs\r\n    /// @param _user - user to unlock\r\n    function _removeLock (address _user) internal {\r\n        lockedList[_user] = false;\r\n        emit RemovedLock(_user);\r\n    }\r\n\r\n}",
  "sourcePath": "/home/bogdan/Ethereum/Projects/TGE/Core-Smart-Contracts-v1/contracts/Locked.sol",
  "compiler": {
    "name": "solc",
    "version": "0.7.6+commit.7338295f.Emscripten.clang"
  },
  "schemaVersion": "3.4.0",
  "updatedAt": "2021-05-04T13:52:45.181Z",
  "devdoc": {
    "details": "Smart contract to enable locking and unlocking of token holders. ",
    "kind": "dev",
    "methods": {
      "addLock(address)": {
        "details": "add user to lock",
        "params": {
          "_user": "to lock"
        }
      },
      "getRoleAdmin(bytes32)": {
        "details": "Returns the admin role that controls `role`. See {grantRole} and {revokeRole}. To change a role's admin, use {_setRoleAdmin}."
      },
      "getRoleMember(bytes32,uint256)": {
        "details": "Returns one of the accounts that have `role`. `index` must be a value between 0 and {getRoleMemberCount}, non-inclusive. Role bearers are not sorted in any particular way, and their ordering may change at any point. WARNING: When using {getRoleMember} and {getRoleMemberCount}, make sure you perform all queries on the same block. See the following https://forum.openzeppelin.com/t/iterating-over-elements-on-enumerableset-in-openzeppelin-contracts/2296[forum post] for more information."
      },
      "getRoleMemberCount(bytes32)": {
        "details": "Returns the number of accounts that have `role`. Can be used together with {getRoleMember} to enumerate all bearers of a role."
      },
      "grantRole(bytes32,address)": {
        "details": "Grants `role` to `account`. If `account` had not been already granted `role`, emits a {RoleGranted} event. Requirements: - the caller must have ``role``'s admin role."
      },
      "hasRole(bytes32,address)": {
        "details": "Returns `true` if `account` has been granted `role`."
      },
      "isLocked(address)": {
        "details": "check if user has been locked",
        "params": {
          "_user": "- usr to check"
        },
        "returns": {
          "_0": "true or false"
        }
      },
      "removeLock(address)": {
        "details": "unlock user",
        "params": {
          "_user": "- user to unlock"
        }
      },
      "renounceRole(bytes32,address)": {
        "details": "Revokes `role` from the calling account. Roles are often managed via {grantRole} and {revokeRole}: this function's purpose is to provide a mechanism for accounts to lose their privileges if they are compromised (such as when a trusted device is misplaced). If the calling account had been granted `role`, emits a {RoleRevoked} event. Requirements: - the caller must be `account`."
      },
      "revokeRole(bytes32,address)": {
        "details": "Revokes `role` from `account`. If `account` had been granted `role`, emits a {RoleRevoked} event. Requirements: - the caller must have ``role``'s admin role."
      }
    },
    "title": "Locked",
    "version": 1
  },
  "userdoc": {
    "kind": "user",
    "methods": {},
    "version": 1
  }
}