{
  "contractName": "Members",
  "abi": [
    {
      "inputs": [
        {
          "internalType": "contract AuditToken",
          "name": "_auditToken",
          "type": "address"
        },
        {
          "internalType": "address",
          "name": "_platformAddress",
          "type": "address"
        }
      ],
      "stateMutability": "nonpayable",
      "type": "constructor"
    },
    {
      "anonymous": false,
      "inputs": [
        {
          "indexed": true,
          "internalType": "address",
          "name": "user",
          "type": "address"
        },
        {
          "indexed": false,
          "internalType": "string",
          "name": "name",
          "type": "string"
        }
      ],
      "name": "EnterpriseUserAdded",
      "type": "event"
    },
    {
      "anonymous": false,
      "inputs": [
        {
          "indexed": true,
          "internalType": "address",
          "name": "from",
          "type": "address"
        },
        {
          "indexed": false,
          "internalType": "uint256",
          "name": "accessFee",
          "type": "uint256"
        },
        {
          "indexed": false,
          "internalType": "address",
          "name": "cohortAddress",
          "type": "address"
        },
        {
          "indexed": false,
          "internalType": "address",
          "name": "enterprise",
          "type": "address"
        },
        {
          "indexed": false,
          "internalType": "uint256",
          "name": "enterpriseShare",
          "type": "uint256"
        }
      ],
      "name": "LogDataSubscriberPaid",
      "type": "event"
    },
    {
      "anonymous": false,
      "inputs": [
        {
          "indexed": false,
          "internalType": "address",
          "name": "from",
          "type": "address"
        },
        {
          "indexed": true,
          "internalType": "address",
          "name": "validator",
          "type": "address"
        },
        {
          "indexed": false,
          "internalType": "uint256",
          "name": "amount",
          "type": "uint256"
        }
      ],
      "name": "LogDataSubscriberValidatorPaid",
      "type": "event"
    },
    {
      "anonymous": false,
      "inputs": [
        {
          "indexed": true,
          "internalType": "address",
          "name": "from",
          "type": "address"
        },
        {
          "indexed": false,
          "internalType": "uint256",
          "name": "amount",
          "type": "uint256"
        }
      ],
      "name": "LogDepositReceived",
      "type": "event"
    },
    {
      "anonymous": false,
      "inputs": [
        {
          "indexed": false,
          "internalType": "address",
          "name": "cohort",
          "type": "address"
        },
        {
          "indexed": false,
          "internalType": "uint256",
          "name": "tokens",
          "type": "uint256"
        },
        {
          "indexed": false,
          "internalType": "uint256",
          "name": "enterpriseAmount",
          "type": "uint256"
        },
        {
          "indexed": true,
          "internalType": "address",
          "name": "enterprise",
          "type": "address"
        }
      ],
      "name": "LogRewardsDeposited",
      "type": "event"
    },
    {
      "anonymous": false,
      "inputs": [
        {
          "indexed": true,
          "internalType": "address",
          "name": "validator",
          "type": "address"
        },
        {
          "indexed": false,
          "internalType": "uint256",
          "name": "tokens",
          "type": "uint256"
        }
      ],
      "name": "LogRewardsReceived",
      "type": "event"
    },
    {
      "anonymous": false,
      "inputs": [
        {
          "indexed": true,
          "internalType": "address",
          "name": "from",
          "type": "address"
        },
        {
          "indexed": false,
          "internalType": "uint256",
          "name": "amount",
          "type": "uint256"
        }
      ],
      "name": "LogRewardsRedeemed",
      "type": "event"
    },
    {
      "anonymous": false,
      "inputs": [
        {
          "indexed": false,
          "internalType": "address",
          "name": "subscriber",
          "type": "address"
        },
        {
          "indexed": false,
          "internalType": "uint256",
          "name": "numberOfSubscriptions",
          "type": "uint256"
        }
      ],
      "name": "LogSubscriptionCompleted",
      "type": "event"
    },
    {
      "anonymous": false,
      "inputs": [
        {
          "indexed": false,
          "internalType": "uint256",
          "name": "portion",
          "type": "uint256"
        }
      ],
      "name": "LogUpdateEnterpriseMatch",
      "type": "event"
    },
    {
      "anonymous": false,
      "inputs": [
        {
          "indexed": false,
          "internalType": "uint256",
          "name": "minDepositDays",
          "type": "uint256"
        }
      ],
      "name": "LogUpdateMinDepositDays",
      "type": "event"
    },
    {
      "anonymous": false,
      "inputs": [
        {
          "indexed": false,
          "internalType": "uint256",
          "name": "rewards",
          "type": "uint256"
        }
      ],
      "name": "LogUpdateRewards",
      "type": "event"
    },
    {
      "anonymous": false,
      "inputs": [
        {
          "indexed": true,
          "internalType": "bytes32",
          "name": "role",
          "type": "bytes32"
        },
        {
          "indexed": true,
          "internalType": "bytes32",
          "name": "previousAdminRole",
          "type": "bytes32"
        },
        {
          "indexed": true,
          "internalType": "bytes32",
          "name": "newAdminRole",
          "type": "bytes32"
        }
      ],
      "name": "RoleAdminChanged",
      "type": "event"
    },
    {
      "anonymous": false,
      "inputs": [
        {
          "indexed": true,
          "internalType": "bytes32",
          "name": "role",
          "type": "bytes32"
        },
        {
          "indexed": true,
          "internalType": "address",
          "name": "account",
          "type": "address"
        },
        {
          "indexed": true,
          "internalType": "address",
          "name": "sender",
          "type": "address"
        }
      ],
      "name": "RoleGranted",
      "type": "event"
    },
    {
      "anonymous": false,
      "inputs": [
        {
          "indexed": true,
          "internalType": "bytes32",
          "name": "role",
          "type": "bytes32"
        },
        {
          "indexed": true,
          "internalType": "address",
          "name": "account",
          "type": "address"
        },
        {
          "indexed": true,
          "internalType": "address",
          "name": "sender",
          "type": "address"
        }
      ],
      "name": "RoleRevoked",
      "type": "event"
    },
    {
      "anonymous": false,
      "inputs": [
        {
          "indexed": true,
          "internalType": "address",
          "name": "user",
          "type": "address"
        },
        {
          "indexed": false,
          "internalType": "string",
          "name": "name",
          "type": "string"
        },
        {
          "indexed": false,
          "internalType": "enum Members.UserType",
          "name": "userType",
          "type": "uint8"
        }
      ],
      "name": "UserAdded",
      "type": "event"
    },
    {
      "inputs": [],
      "name": "CONTROLLER_ROLE",
      "outputs": [
        {
          "internalType": "bytes32",
          "name": "",
          "type": "bytes32"
        }
      ],
      "stateMutability": "view",
      "type": "function",
      "constant": true
    },
    {
      "inputs": [],
      "name": "DEFAULT_ADMIN_ROLE",
      "outputs": [
        {
          "internalType": "bytes32",
          "name": "",
          "type": "bytes32"
        }
      ],
      "stateMutability": "view",
      "type": "function",
      "constant": true
    },
    {
      "inputs": [],
      "name": "SETTER_ROLE",
      "outputs": [
        {
          "internalType": "bytes32",
          "name": "",
          "type": "bytes32"
        }
      ],
      "stateMutability": "view",
      "type": "function",
      "constant": true
    },
    {
      "inputs": [],
      "name": "accessFee",
      "outputs": [
        {
          "internalType": "uint256",
          "name": "",
          "type": "uint256"
        }
      ],
      "stateMutability": "view",
      "type": "function",
      "constant": true
    },
    {
      "inputs": [],
      "name": "amountTokensPerValidation",
      "outputs": [
        {
          "internalType": "uint256",
          "name": "",
          "type": "uint256"
        }
      ],
      "stateMutability": "view",
      "type": "function",
      "constant": true
    },
    {
      "inputs": [],
      "name": "auditToken",
      "outputs": [
        {
          "internalType": "contract AuditToken",
          "name": "",
          "type": "address"
        }
      ],
      "stateMutability": "view",
      "type": "function",
      "constant": true
    },
    {
      "inputs": [],
      "name": "cohortFactory",
      "outputs": [
        {
          "internalType": "contract ICohortFactory",
          "name": "",
          "type": "address"
        }
      ],
      "stateMutability": "view",
      "type": "function",
      "constant": true
    },
    {
      "inputs": [
        {
          "internalType": "address",
          "name": "",
          "type": "address"
        },
        {
          "internalType": "address",
          "name": "",
          "type": "address"
        }
      ],
      "name": "dataSubscriberCohortMap",
      "outputs": [
        {
          "internalType": "bool",
          "name": "",
          "type": "bool"
        }
      ],
      "stateMutability": "view",
      "type": "function",
      "constant": true
    },
    {
      "inputs": [
        {
          "internalType": "address",
          "name": "",
          "type": "address"
        },
        {
          "internalType": "uint256",
          "name": "",
          "type": "uint256"
        }
      ],
      "name": "dataSubscriberCohorts",
      "outputs": [
        {
          "internalType": "address",
          "name": "cohort",
          "type": "address"
        },
        {
          "internalType": "uint256",
          "name": "audits",
          "type": "uint256"
        }
      ],
      "stateMutability": "view",
      "type": "function",
      "constant": true
    },
    {
      "inputs": [
        {
          "internalType": "address",
          "name": "",
          "type": "address"
        }
      ],
      "name": "dataSubscriberMap",
      "outputs": [
        {
          "internalType": "bool",
          "name": "",
          "type": "bool"
        }
      ],
      "stateMutability": "view",
      "type": "function",
      "constant": true
    },
    {
      "inputs": [
        {
          "internalType": "uint256",
          "name": "",
          "type": "uint256"
        }
      ],
      "name": "dataSubscribers",
      "outputs": [
        {
          "internalType": "address",
          "name": "user",
          "type": "address"
        },
        {
          "internalType": "string",
          "name": "name",
          "type": "string"
        }
      ],
      "stateMutability": "view",
      "type": "function",
      "constant": true
    },
    {
      "inputs": [
        {
          "internalType": "address",
          "name": "",
          "type": "address"
        }
      ],
      "name": "deposits",
      "outputs": [
        {
          "internalType": "uint256",
          "name": "",
          "type": "uint256"
        }
      ],
      "stateMutability": "view",
      "type": "function",
      "constant": true
    },
    {
      "inputs": [
        {
          "internalType": "address",
          "name": "",
          "type": "address"
        }
      ],
      "name": "enterpriseMap",
      "outputs": [
        {
          "internalType": "bool",
          "name": "",
          "type": "bool"
        }
      ],
      "stateMutability": "view",
      "type": "function",
      "constant": true
    },
    {
      "inputs": [],
      "name": "enterpriseMatch",
      "outputs": [
        {
          "internalType": "uint256",
          "name": "",
          "type": "uint256"
        }
      ],
      "stateMutability": "view",
      "type": "function",
      "constant": true
    },
    {
      "inputs": [],
      "name": "enterpriseShareSubscriber",
      "outputs": [
        {
          "internalType": "uint256",
          "name": "",
          "type": "uint256"
        }
      ],
      "stateMutability": "view",
      "type": "function",
      "constant": true
    },
    {
      "inputs": [
        {
          "internalType": "uint256",
          "name": "",
          "type": "uint256"
        }
      ],
      "name": "enterprises",
      "outputs": [
        {
          "internalType": "address",
          "name": "user",
          "type": "address"
        },
        {
          "internalType": "string",
          "name": "name",
          "type": "string"
        }
      ],
      "stateMutability": "view",
      "type": "function",
      "constant": true
    },
    {
      "inputs": [
        {
          "internalType": "bytes32",
          "name": "role",
          "type": "bytes32"
        }
      ],
      "name": "getRoleAdmin",
      "outputs": [
        {
          "internalType": "bytes32",
          "name": "",
          "type": "bytes32"
        }
      ],
      "stateMutability": "view",
      "type": "function",
      "constant": true
    },
    {
      "inputs": [
        {
          "internalType": "bytes32",
          "name": "role",
          "type": "bytes32"
        },
        {
          "internalType": "uint256",
          "name": "index",
          "type": "uint256"
        }
      ],
      "name": "getRoleMember",
      "outputs": [
        {
          "internalType": "address",
          "name": "",
          "type": "address"
        }
      ],
      "stateMutability": "view",
      "type": "function",
      "constant": true
    },
    {
      "inputs": [
        {
          "internalType": "bytes32",
          "name": "role",
          "type": "bytes32"
        }
      ],
      "name": "getRoleMemberCount",
      "outputs": [
        {
          "internalType": "uint256",
          "name": "",
          "type": "uint256"
        }
      ],
      "stateMutability": "view",
      "type": "function",
      "constant": true
    },
    {
      "inputs": [
        {
          "internalType": "bytes32",
          "name": "role",
          "type": "bytes32"
        },
        {
          "internalType": "address",
          "name": "account",
          "type": "address"
        }
      ],
      "name": "grantRole",
      "outputs": [],
      "stateMutability": "nonpayable",
      "type": "function"
    },
    {
      "inputs": [
        {
          "internalType": "bytes32",
          "name": "role",
          "type": "bytes32"
        },
        {
          "internalType": "address",
          "name": "account",
          "type": "address"
        }
      ],
      "name": "hasRole",
      "outputs": [
        {
          "internalType": "bool",
          "name": "",
          "type": "bool"
        }
      ],
      "stateMutability": "view",
      "type": "function",
      "constant": true
    },
    {
      "inputs": [],
      "name": "minDepositDays",
      "outputs": [
        {
          "internalType": "uint256",
          "name": "",
          "type": "uint256"
        }
      ],
      "stateMutability": "view",
      "type": "function",
      "constant": true
    },
    {
      "inputs": [],
      "name": "platformAddress",
      "outputs": [
        {
          "internalType": "address",
          "name": "",
          "type": "address"
        }
      ],
      "stateMutability": "view",
      "type": "function",
      "constant": true
    },
    {
      "inputs": [],
      "name": "platformShareValidation",
      "outputs": [
        {
          "internalType": "uint256",
          "name": "",
          "type": "uint256"
        }
      ],
      "stateMutability": "view",
      "type": "function",
      "constant": true
    },
    {
      "inputs": [],
      "name": "recentBlockUpdated",
      "outputs": [
        {
          "internalType": "uint256",
          "name": "",
          "type": "uint256"
        }
      ],
      "stateMutability": "view",
      "type": "function",
      "constant": true
    },
    {
      "inputs": [
        {
          "internalType": "bytes32",
          "name": "role",
          "type": "bytes32"
        },
        {
          "internalType": "address",
          "name": "account",
          "type": "address"
        }
      ],
      "name": "renounceRole",
      "outputs": [],
      "stateMutability": "nonpayable",
      "type": "function"
    },
    {
      "inputs": [
        {
          "internalType": "bytes32",
          "name": "role",
          "type": "bytes32"
        },
        {
          "internalType": "address",
          "name": "account",
          "type": "address"
        }
      ],
      "name": "revokeRole",
      "outputs": [],
      "stateMutability": "nonpayable",
      "type": "function"
    },
    {
      "inputs": [],
      "name": "stakedAmount",
      "outputs": [
        {
          "internalType": "uint256",
          "name": "",
          "type": "uint256"
        }
      ],
      "stateMutability": "view",
      "type": "function",
      "constant": true
    },
    {
      "inputs": [
        {
          "internalType": "address",
          "name": "",
          "type": "address"
        }
      ],
      "name": "validatorMap",
      "outputs": [
        {
          "internalType": "bool",
          "name": "",
          "type": "bool"
        }
      ],
      "stateMutability": "view",
      "type": "function",
      "constant": true
    },
    {
      "inputs": [],
      "name": "validatorShareSubscriber",
      "outputs": [
        {
          "internalType": "uint256",
          "name": "",
          "type": "uint256"
        }
      ],
      "stateMutability": "view",
      "type": "function",
      "constant": true
    },
    {
      "inputs": [
        {
          "internalType": "uint256",
          "name": "",
          "type": "uint256"
        }
      ],
      "name": "validators",
      "outputs": [
        {
          "internalType": "address",
          "name": "user",
          "type": "address"
        },
        {
          "internalType": "string",
          "name": "name",
          "type": "string"
        }
      ],
      "stateMutability": "view",
      "type": "function",
      "constant": true
    },
    {
      "inputs": [
        {
          "internalType": "address",
          "name": "_cohortFactory",
          "type": "address"
        }
      ],
      "name": "setCohortFactory",
      "outputs": [],
      "stateMutability": "nonpayable",
      "type": "function"
    },
    {
      "inputs": [
        {
          "internalType": "uint256",
          "name": "_amountTokensPerValidation",
          "type": "uint256"
        }
      ],
      "name": "updateRewards",
      "outputs": [],
      "stateMutability": "nonpayable",
      "type": "function"
    },
    {
      "inputs": [
        {
          "internalType": "uint256",
          "name": "_minDepositDays",
          "type": "uint256"
        }
      ],
      "name": "updateMinDepositDays",
      "outputs": [],
      "stateMutability": "nonpayable",
      "type": "function"
    },
    {
      "inputs": [
        {
          "internalType": "uint256",
          "name": "_enterpriseMatch",
          "type": "uint256"
        }
      ],
      "name": "updateEnterpriseMatch",
      "outputs": [],
      "stateMutability": "nonpayable",
      "type": "function"
    },
    {
      "inputs": [
        {
          "internalType": "uint256",
          "name": "_enterpriseShareSubscriber",
          "type": "uint256"
        },
        {
          "internalType": "uint256",
          "name": "_validatorShareSubscriber",
          "type": "uint256"
        }
      ],
      "name": "setDataSubscriberShares",
      "outputs": [],
      "stateMutability": "nonpayable",
      "type": "function"
    },
    {
      "inputs": [
        {
          "internalType": "uint256",
          "name": "amount",
          "type": "uint256"
        }
      ],
      "name": "stake",
      "outputs": [],
      "stateMutability": "nonpayable",
      "type": "function"
    },
    {
      "inputs": [
        {
          "internalType": "address[]",
          "name": "_validators",
          "type": "address[]"
        },
        {
          "internalType": "uint256[]",
          "name": "tokens",
          "type": "uint256[]"
        },
        {
          "internalType": "address",
          "name": "cohort",
          "type": "address"
        }
      ],
      "name": "updateDailyEarningsTransferFunds",
      "outputs": [],
      "stateMutability": "nonpayable",
      "type": "function"
    },
    {
      "inputs": [
        {
          "internalType": "address",
          "name": "cohortAddress",
          "type": "address"
        },
        {
          "internalType": "uint256",
          "name": "audits",
          "type": "uint256"
        }
      ],
      "name": "dataSubscriberPayment",
      "outputs": [],
      "stateMutability": "nonpayable",
      "type": "function"
    },
    {
      "inputs": [
        {
          "internalType": "address",
          "name": "subscriber",
          "type": "address"
        }
      ],
      "name": "returnCohortsForDataSubscriber",
      "outputs": [
        {
          "components": [
            {
              "internalType": "address",
              "name": "cohort",
              "type": "address"
            },
            {
              "internalType": "uint256",
              "name": "audits",
              "type": "uint256"
            }
          ],
          "internalType": "struct Members.DataSubscriberTypes[]",
          "name": "",
          "type": "tuple[]"
        }
      ],
      "stateMutability": "view",
      "type": "function",
      "constant": true
    },
    {
      "inputs": [
        {
          "internalType": "address[]",
          "name": "cohortAddress",
          "type": "address[]"
        },
        {
          "internalType": "uint256[]",
          "name": "audits",
          "type": "uint256[]"
        }
      ],
      "name": "dataSubscriberPaymentMultiple",
      "outputs": [],
      "stateMutability": "nonpayable",
      "type": "function"
    },
    {
      "inputs": [
        {
          "internalType": "uint256",
          "name": "amount",
          "type": "uint256"
        }
      ],
      "name": "redeem",
      "outputs": [],
      "stateMutability": "nonpayable",
      "type": "function"
    },
    {
      "inputs": [
        {
          "internalType": "address",
          "name": "user",
          "type": "address"
        },
        {
          "internalType": "string",
          "name": "name",
          "type": "string"
        },
        {
          "internalType": "enum Members.UserType",
          "name": "userType",
          "type": "uint8"
        }
      ],
      "name": "addUser",
      "outputs": [],
      "stateMutability": "nonpayable",
      "type": "function"
    },
    {
      "inputs": [],
      "name": "returnEnterpriseCount",
      "outputs": [
        {
          "internalType": "uint256",
          "name": "",
          "type": "uint256"
        }
      ],
      "stateMutability": "view",
      "type": "function",
      "constant": true
    },
    {
      "inputs": [],
      "name": "returnValidatorCount",
      "outputs": [
        {
          "internalType": "uint256",
          "name": "",
          "type": "uint256"
        }
      ],
      "stateMutability": "view",
      "type": "function",
      "constant": true
    },
    {
      "inputs": [],
      "name": "returnDataSubscriberCount",
      "outputs": [
        {
          "internalType": "uint256",
          "name": "",
          "type": "uint256"
        }
      ],
      "stateMutability": "view",
      "type": "function",
      "constant": true
    }
  ],
  "bytecode": "0x6080604052670de0b6b3a7640000600755683635c9adc5dea0000060085560286009556028600a55600f600c55613a98600e55601e600f553480156200004457600080fd5b506040516200631c3803806200631c83398181016040528101906200006a9190620003b3565b600073ffffffffffffffffffffffffffffffffffffffff168273ffffffffffffffffffffffffffffffffffffffff161415620000dd576040517f08c379a0000000000000000000000000000000000000000000000000000000008152600401620000d490620004c4565b60405180910390fd5b600073ffffffffffffffffffffffffffffffffffffffff168173ffffffffffffffffffffffffffffffffffffffff16141562000150576040517f08c379a00000000000000000000000000000000000000000000000000000000081526004016200014790620004e6565b60405180910390fd5b81600160006101000a81548173ffffffffffffffffffffffffffffffffffffffff021916908373ffffffffffffffffffffffffffffffffffffffff16021790555080600b60006101000a81548173ffffffffffffffffffffffffffffffffffffffff021916908373ffffffffffffffffffffffffffffffffffffffff160217905550620001e76000801b33620001ef60201b60201c565b505062000595565b6200020182826200020560201b60201c565b5050565b6200023381600080858152602001908152602001600020600001620002a860201b6200335e1790919060201c565b15620002a45762000249620002e060201b60201c565b73ffffffffffffffffffffffffffffffffffffffff168173ffffffffffffffffffffffffffffffffffffffff16837f2f8788117e7eff1d82e926ec794901d17c78024a50270940304540a733656f0d60405160405180910390a45b5050565b6000620002d8836000018373ffffffffffffffffffffffffffffffffffffffff1660001b620002e860201b60201c565b905092915050565b600033905090565b6000620002fc83836200036260201b60201c565b620003575782600001829080600181540180825580915050600190039060005260206000200160009091909190915055826000018054905083600101600084815260200190815260200160002081905550600190506200035c565b600090505b92915050565b600080836001016000848152602001908152602001600020541415905092915050565b600081519050620003968162000561565b92915050565b600081519050620003ad816200057b565b92915050565b60008060408385031215620003c757600080fd5b6000620003d7858286016200039c565b9250506020620003ea8582860162000385565b9150509250929050565b60006200040360348362000508565b91507f4d656d626572733a636f6e7374727563746f72202d20417564697420746f6b6560008301527f6e20616464726573732063616e277420626520300000000000000000000000006020830152604082019050919050565b60006200046b60318362000508565b91507f4d656d626572733a636f6e7374727563746f72202d20506c6174666f726d206160008301527f6464726573732063616e277420626520300000000000000000000000000000006020830152604082019050919050565b60006020820190508181036000830152620004df81620003f4565b9050919050565b6000602082019050818103600083015262000501816200045c565b9050919050565b600082825260208201905092915050565b6000620005268262000541565b9050919050565b60006200053a8262000519565b9050919050565b600073ffffffffffffffffffffffffffffffffffffffff82169050919050565b6200056c8162000519565b81146200057857600080fd5b50565b62000586816200052d565b81146200059257600080fd5b50565b615d7780620005a56000396000f3fe608060405234801561001057600080fd5b506004361061028a5760003560e01c806378f5a6ae1161015c578063b1e95e94116100ce578063dac95d4111610087578063dac95d4114610813578063db006a7514610831578063dbe55e561461084d578063e9b6c9751461086b578063f8838cfa14610889578063fc7e286d146108a75761028a565b8063b1e95e941461072c578063be07b32e14610748578063c173ac6014610778578063ca15c87314610796578063d3156a85146107c6578063d547741f146107f75761028a565b806398c3c1161161012057806398c3c116146106675780639fbae28614610685578063a2011b3f146106b6578063a217fddf146106d4578063a694fc3a146106f2578063a7579be81461070e5761028a565b806378f5a6ae1461058a57806382d51ba8146105ba5780638ab134e8146105eb5780639010d07c1461060757806391d14854146106375761028a565b8063373d6132116102005780634bd4545f116101b95780634bd4545f146104dc5780634d9c798c146104fa578063525d14d8146105185780635659ae58146105345780635c3e15211461055257806374eb9cdb1461056e5761028a565b8063373d61321461041c5780633b1191151461043a57806340d268541461046a578063492b85cd14610486578063495348d0146104a45780634a9fcdce146104c05761028a565b8063248a9ca311610252578063248a9ca3146103355780632f2ff15d1461036557806332cd4244146103815780633507abaf146103b157806335aa2e44146103cf57806336568abe146104005761028a565b8063092c5b3b1461028f5780630acf09d8146102ad5780630c13f833146102cb57806318d50d33146102e75780631dd634d714610317575b600080fd5b6102976108d7565b6040516102a49190615587565b60405180910390f35b6102b56108fb565b6040516102c291906158e8565b60405180910390f35b6102e560048036038101906102e09190614866565b610901565b005b61030160048036038101906102fc919061453f565b6109ef565b60405161030e919061556c565b60405180910390f35b61031f610a0f565b60405161032c91906158e8565b60405180910390f35b61034f600480360381019061034a91906147c5565b610a1c565b60405161035c9190615587565b60405180910390f35b61037f600480360381019061037a91906147ee565b610a3b565b005b61039b6004803603810190610396919061453f565b610ac4565b6040516103a8919061554a565b60405180910390f35b6103b9610bc2565b6040516103c691906158e8565b60405180910390f35b6103e960048036038101906103e49190614866565b610bc8565b6040516103f79291906154ba565b60405180910390f35b61041a600480360381019061041591906147ee565b610cb4565b005b610424610d4d565b60405161043191906158e8565b60405180910390f35b610454600480360381019061044f919061453f565b610d53565b604051610461919061556c565b60405180910390f35b610484600480360381019061047f91906145cd565b610d73565b005b61048e611349565b60405161049b91906158e8565b60405180910390f35b6104be60048036038101906104b9919061453f565b61134f565b005b6104da60048036038101906104d5919061471d565b61146c565b005b6104e4611b99565b6040516104f191906155bd565b60405180910390f35b610502611bbf565b60405161050f91906158e8565b60405180910390f35b610532600480360381019061052d91906146b1565b611bc5565b005b61053c611c97565b60405161054991906158e8565b60405180910390f35b61056c600480360381019061056791906148b8565b611c9d565b005b61058860048036038101906105839190614866565b611d70565b005b6105a4600480360381019061059f9190614591565b611e5e565b6040516105b1919061556c565b60405180910390f35b6105d460048036038101906105cf9190614634565b611e8d565b6040516105e29291906154ea565b60405180910390f35b61060560048036038101906106009190614634565b611eee565b005b610621600480360381019061061c919061482a565b6127ba565b60405161062e9190615476565b60405180910390f35b610651600480360381019061064c91906147ee565b6127eb565b60405161065e919061556c565b60405180910390f35b61066f61281c565b60405161067c91906155a2565b60405180910390f35b61069f600480360381019061069a9190614866565b612842565b6040516106ad9291906154ba565b60405180910390f35b6106be61292e565b6040516106cb9190615587565b60405180910390f35b6106dc612952565b6040516106e99190615587565b60405180910390f35b61070c60048036038101906107079190614866565b612959565b005b610716612d3b565b60405161072391906158e8565b60405180910390f35b61074660048036038101906107419190614866565b612d41565b005b610762600480360381019061075d919061453f565b612e2f565b60405161076f919061556c565b60405180910390f35b610780612e4f565b60405161078d91906158e8565b60405180910390f35b6107b060048036038101906107ab91906147c5565b612e5c565b6040516107bd91906158e8565b60405180910390f35b6107e060048036038101906107db9190614866565b612e82565b6040516107ee9291906154ba565b60405180910390f35b610811600480360381019061080c91906147ee565b612f6e565b005b61081b612ff7565b60405161082891906158e8565b60405180910390f35b61084b60048036038101906108469190614866565b612ffd565b005b61085561330d565b6040516108629190615476565b60405180910390f35b610873613333565b60405161088091906158e8565b60405180910390f35b610891613339565b60405161089e91906158e8565b60405180910390f35b6108c160048036038101906108bc919061453f565b613346565b6040516108ce91906158e8565b60405180910390f35b7f7b765e0e932d348852a6f810bfa1ab891e259123f02db8cdcde614c57022335781565b600d5481565b61092b7f61c92169ef077349011ff0b1383c894d86c5f0b41d986366b58a6cf31e93beda336127eb565b61096a576040517f08c379a000000000000000000000000000000000000000000000000000000000815260040161096190615768565b60405180910390fd5b60008114156109ae576040517f08c379a00000000000000000000000000000000000000000000000000000000081526004016109a590615668565b60405180910390fd5b80600e819055507f993e68e99eaf9d58cf27bbe7a3e2392d07c3fcddc07ed570962f7702b592c24a816040516109e491906158e8565b60405180910390a150565b60136020528060005260406000206000915054906101000a900460ff1681565b6000601480549050905090565b6000806000838152602001908152602001600020600201549050919050565b610a6160008084815260200190815260200160002060020154610a5c61338e565b6127eb565b610ab6576040517f08c379a000000000000000000000000000000000000000000000000000000000815260040180806020018281038252602f815260200180615c43602f913960400191505060405180910390fd5b610ac08282613396565b5050565b6060600560008373ffffffffffffffffffffffffffffffffffffffff1673ffffffffffffffffffffffffffffffffffffffff168152602001908152602001600020805480602002602001604051908101604052809291908181526020016000905b82821015610bb757838290600052602060002090600202016040518060400160405290816000820160009054906101000a900473ffffffffffffffffffffffffffffffffffffffff1673ffffffffffffffffffffffffffffffffffffffff1673ffffffffffffffffffffffffffffffffffffffff16815260200160018201548152505081526020019060010190610b25565b505050509050919050565b600c5481565b60128181548110610bd857600080fd5b90600052602060002090600202016000915090508060000160009054906101000a900473ffffffffffffffffffffffffffffffffffffffff1690806001018054600181600116156101000203166002900480601f016020809104026020016040519081016040528092919081815260200182805460018160011615610100020316600290048015610caa5780601f10610c7f57610100808354040283529160200191610caa565b820191906000526020600020905b815481529060010190602001808311610c8d57829003601f168201915b5050505050905082565b610cbc61338e565b73ffffffffffffffffffffffffffffffffffffffff168173ffffffffffffffffffffffffffffffffffffffff1614610d3f576040517f08c379a000000000000000000000000000000000000000000000000000000000815260040180806020018281038252602f815260200180615d13602f913960400191505060405180910390fd5b610d498282613429565b5050565b60035481565b60156020528060005260406000206000915054906101000a900460ff1681565b610d9d7f7b765e0e932d348852a6f810bfa1ab891e259123f02db8cdcde614c570223357336127eb565b610ddc576040517f08c379a0000000000000000000000000000000000000000000000000000000008152600401610dd390615808565b60405180910390fd5b610de46141a7565b83816000019073ffffffffffffffffffffffffffffffffffffffff16908173ffffffffffffffffffffffffffffffffffffffff1681525050828160200181905250600280811115610e3157fe5b826002811115610e3d57fe5b1415610fbf57601560008573ffffffffffffffffffffffffffffffffffffffff1673ffffffffffffffffffffffffffffffffffffffff16815260200190815260200160002060009054906101000a900460ff1615610ed0576040517f08c379a0000000000000000000000000000000000000000000000000000000008152600401610ec7906156e8565b60405180910390fd5b601481908060018154018082558091505060019003906000526020600020906002020160009091909190915060008201518160000160006101000a81548173ffffffffffffffffffffffffffffffffffffffff021916908373ffffffffffffffffffffffffffffffffffffffff1602179055506020820151816001019080519060200190610f5f9291906141d7565b5050506001601560008673ffffffffffffffffffffffffffffffffffffffff1673ffffffffffffffffffffffffffffffffffffffff16815260200190815260200160002060006101000a81548160ff0219169083151502179055506112f3565b60016002811115610fcc57fe5b826002811115610fd857fe5b141561115a57601360008573ffffffffffffffffffffffffffffffffffffffff1673ffffffffffffffffffffffffffffffffffffffff16815260200190815260200160002060009054906101000a900460ff161561106b576040517f08c379a000000000000000000000000000000000000000000000000000000000815260040161106290615648565b60405180910390fd5b601281908060018154018082558091505060019003906000526020600020906002020160009091909190915060008201518160000160006101000a81548173ffffffffffffffffffffffffffffffffffffffff021916908373ffffffffffffffffffffffffffffffffffffffff16021790555060208201518160010190805190602001906110fa9291906141d7565b5050506001601360008673ffffffffffffffffffffffffffffffffffffffff1673ffffffffffffffffffffffffffffffffffffffff16815260200190815260200160002060006101000a81548160ff0219169083151502179055506112f2565b6000600281111561116757fe5b82600281111561117357fe5b14156112f157601160008573ffffffffffffffffffffffffffffffffffffffff1673ffffffffffffffffffffffffffffffffffffffff16815260200190815260200160002060009054906101000a900460ff1615611206576040517f08c379a00000000000000000000000000000000000000000000000000000000081526004016111fd906156c8565b60405180910390fd5b601081908060018154018082558091505060019003906000526020600020906002020160009091909190915060008201518160000160006101000a81548173ffffffffffffffffffffffffffffffffffffffff021916908373ffffffffffffffffffffffffffffffffffffffff16021790555060208201518160010190805190602001906112959291906141d7565b5050506001601160008673ffffffffffffffffffffffffffffffffffffffff1673ffffffffffffffffffffffffffffffffffffffff16815260200190815260200160002060006101000a81548160ff0219169083151502179055505b5b5b8373ffffffffffffffffffffffffffffffffffffffff167f8897d4c16f6b907647cc92f3b2f80418ac81581b8e74f9dda595d3910b44c862848460405161133b9291906155d8565b60405180910390a250505050565b60085481565b6113797f7b765e0e932d348852a6f810bfa1ab891e259123f02db8cdcde614c570223357336127eb565b6113b8576040517f08c379a00000000000000000000000000000000000000000000000000000000081526004016113af90615808565b60405180910390fd5b600073ffffffffffffffffffffffffffffffffffffffff168173ffffffffffffffffffffffffffffffffffffffff161415611428576040517f08c379a000000000000000000000000000000000000000000000000000000000815260040161141f90615748565b60405180910390fd5b80600260006101000a81548173ffffffffffffffffffffffffffffffffffffffff021916908373ffffffffffffffffffffffffffffffffffffffff16021790555050565b6114967f7b765e0e932d348852a6f810bfa1ab891e259123f02db8cdcde614c570223357336127eb565b6114d5576040517f08c379a00000000000000000000000000000000000000000000000000000000081526004016114cc90615808565b60405180910390fd5b600073ffffffffffffffffffffffffffffffffffffffff168173ffffffffffffffffffffffffffffffffffffffff161415611545576040517f08c379a000000000000000000000000000000000000000000000000000000000815260040161153c90615788565b60405180910390fd5b8151835114611589576040517f08c379a000000000000000000000000000000000000000000000000000000000815260040161158090615628565b60405180910390fd5b6000808273ffffffffffffffffffffffffffffffffffffffff16639478a8c06040518163ffffffff1660e01b8152600401602060405180830381600087803b1580156115d457600080fd5b505af11580156115e8573d6000803e3d6000fd5b505050506040513d601f19601f8201168201806040525081019061160c9190614568565b90508273ffffffffffffffffffffffffffffffffffffffff16632faa66196040518163ffffffff1660e01b8152600401600060405180830381600087803b15801561165657600080fd5b505af115801561166a573d6000803e3d6000fd5b50505050600080600090505b86518110156118f357600073ffffffffffffffffffffffffffffffffffffffff168782815181106116a357fe5b602002602001015173ffffffffffffffffffffffffffffffffffffffff161415611702576040517f08c379a00000000000000000000000000000000000000000000000000000000081526004016116f9906157c8565b60405180910390fd5b6000611740612710611732600e548a868151811061171c57fe5b60200260200101516134bc90919063ffffffff16565b61354290919063ffffffff16565b905061175581846135cb90919063ffffffff16565b92506117e1816117d389858151811061176a57fe5b6020026020010151600460008d888151811061178257fe5b602002602001015173ffffffffffffffffffffffffffffffffffffffff1673ffffffffffffffffffffffffffffffffffffffff168152602001908152602001600020546135cb90919063ffffffff16565b6135cb90919063ffffffff16565b600460008a85815181106117f157fe5b602002602001015173ffffffffffffffffffffffffffffffffffffffff1673ffffffffffffffffffffffffffffffffffffffff1681526020019081526020016000208190555061185d87838151811061184657fe5b6020026020010151866135cb90919063ffffffff16565b945087828151811061186b57fe5b602002602001015173ffffffffffffffffffffffffffffffffffffffff167f764a965eb8edef713db93e80a1a5eef9a4891c74b26bfb68d0bf12ffc30c9ee46118d0838a86815181106118ba57fe5b60200260200101516135cb90919063ffffffff16565b6040516118dd91906158e8565b60405180910390a2508080600101915050611676565b5061194681600460008573ffffffffffffffffffffffffffffffffffffffff1673ffffffffffffffffffffffffffffffffffffffff1681526020019081526020016000205461365390919063ffffffff16565b600460008473ffffffffffffffffffffffffffffffffffffffff1673ffffffffffffffffffffffffffffffffffffffff1681526020019081526020016000208190555060006119b360556119a5600c54876134bc90919063ffffffff16565b61354290919063ffffffff16565b905043600d81905550600160009054906101000a900473ffffffffffffffffffffffffffffffffffffffff1673ffffffffffffffffffffffffffffffffffffffff166340c10f19600b60009054906101000a900473ffffffffffffffffffffffffffffffffffffffff16836040518363ffffffff1660e01b8152600401611a3b9291906154ea565b602060405180830381600087803b158015611a5557600080fd5b505af1158015611a69573d6000803e3d6000fd5b505050506040513d601f19601f82011682018060405250810190611a8d919061479c565b50600160009054906101000a900473ffffffffffffffffffffffffffffffffffffffff1673ffffffffffffffffffffffffffffffffffffffff166340c10f1930866040518363ffffffff1660e01b8152600401611aeb9291906154ea565b602060405180830381600087803b158015611b0557600080fd5b505af1158015611b19573d6000803e3d6000fd5b505050506040513d601f19601f82011682018060405250810190611b3d919061479c565b508273ffffffffffffffffffffffffffffffffffffffff167f474e6e877135ae827a16b786fc98e0c36d2bb2d99251cba405b5f50418981491868685604051611b8893929190615513565b60405180910390a250505050505050565b600260009054906101000a900473ffffffffffffffffffffffffffffffffffffffff1681565b60075481565b600082519050610100811115611c10576040517f08c379a0000000000000000000000000000000000000000000000000000000008152600401611c0790615728565b60405180910390fd5b60005b81811015611c5857611c4b848281518110611c2a57fe5b6020026020010151848381518110611c3e57fe5b6020026020010151611eee565b8080600101915050611c13565b507fe0b9e94ab5fbe92a5c1fcdc7f3dba88b173c784bda0772e4998afde0085752683382604051611c8a929190615491565b60405180910390a1505050565b600f5481565b611cc77f61c92169ef077349011ff0b1383c894d86c5f0b41d986366b58a6cf31e93beda336127eb565b611d06576040517f08c379a0000000000000000000000000000000000000000000000000000000008152600401611cfd90615768565b60405180910390fd5b6064611d1d600a54846135cb90919063ffffffff16565b1115611d5e576040517f08c379a0000000000000000000000000000000000000000000000000000000008152600401611d5590615608565b60405180910390fd5b8160098190555080600a819055505050565b611d9a7f61c92169ef077349011ff0b1383c894d86c5f0b41d986366b58a6cf31e93beda336127eb565b611dd9576040517f08c379a0000000000000000000000000000000000000000000000000000000008152600401611dd090615768565b60405180910390fd5b6000811415611e1d576040517f08c379a0000000000000000000000000000000000000000000000000000000008152600401611e1490615848565b60405180910390fd5b80600f819055507f3ef37ec580f71948d160049e31c67ac1e6fc9711038f837710cdfaf9074d7b8581604051611e5391906158e8565b60405180910390a150565b60066020528160005260406000206020528060005260406000206000915091509054906101000a900460ff1681565b60056020528160005260406000208181548110611ea957600080fd5b9060005260206000209060020201600091509150508060000160009054906101000a900473ffffffffffffffffffffffffffffffffffffffff16908060010154905082565b600073ffffffffffffffffffffffffffffffffffffffff168273ffffffffffffffffffffffffffffffffffffffff161415611f5e576040517f08c379a0000000000000000000000000000000000000000000000000000000008152600401611f55906157e8565b60405180910390fd5b60008110158015611f70575060058111155b611faf576040517f08c379a0000000000000000000000000000000000000000000000000000000008152600401611fa690615868565b60405180910390fd5b600660003373ffffffffffffffffffffffffffffffffffffffff1673ffffffffffffffffffffffffffffffffffffffff16815260200190815260200160002060008373ffffffffffffffffffffffffffffffffffffffff1673ffffffffffffffffffffffffffffffffffffffff16815260200190815260200160002060009054906101000a900460ff1615612079576040517f08c379a000000000000000000000000000000000000000000000000000000000815260040161207090615708565b60405180910390fd5b601560003373ffffffffffffffffffffffffffffffffffffffff1673ffffffffffffffffffffffffffffffffffffffff16815260200190815260200160002060009054906101000a900460ff16612105576040517f08c379a00000000000000000000000000000000000000000000000000000000081526004016120fc90615688565b60405180910390fd5b6121563330600854600160009054906101000a900473ffffffffffffffffffffffffffffffffffffffff1673ffffffffffffffffffffffffffffffffffffffff166136d6909392919063ffffffff16565b612215600b60009054906101000a900473ffffffffffffffffffffffffffffffffffffffff166121cd60646121bf6121ae600a546121a0600954606461365390919063ffffffff16565b61365390919063ffffffff16565b6008546134bc90919063ffffffff16565b61354290919063ffffffff16565b600160009054906101000a900473ffffffffffffffffffffffffffffffffffffffff1673ffffffffffffffffffffffffffffffffffffffff166137979092919063ffffffff16565b601360003373ffffffffffffffffffffffffffffffffffffffff1673ffffffffffffffffffffffffffffffffffffffff16815260200190815260200160002060009054906101000a900460ff16806122b65750601160003373ffffffffffffffffffffffffffffffffffffffff1673ffffffffffffffffffffffffffffffffffffffff16815260200190815260200160002060009054906101000a900460ff165b15612370576122d260085460035461365390919063ffffffff16565b60038190555061232c600854600460003373ffffffffffffffffffffffffffffffffffffffff1673ffffffffffffffffffffffffffffffffffffffff1681526020019081526020016000205461365390919063ffffffff16565b600460003373ffffffffffffffffffffffffffffffffffffffff1673ffffffffffffffffffffffffffffffffffffffff168152602001908152602001600020819055505b60008273ffffffffffffffffffffffffffffffffffffffff16639478a8c06040518163ffffffff1660e01b8152600401602060405180830381600087803b1580156123ba57600080fd5b505af11580156123ce573d6000803e3d6000fd5b505050506040513d601f19601f820116820180604052508101906123f29190614568565b9050600061242060646124126009546008546134bc90919063ffffffff16565b61354290919063ffffffff16565b905061247481600460008573ffffffffffffffffffffffffffffffffffffffff1673ffffffffffffffffffffffffffffffffffffffff168152602001908152602001600020546135cb90919063ffffffff16565b600460008473ffffffffffffffffffffffffffffffffffffffff1673ffffffffffffffffffffffffffffffffffffffff168152602001908152602001600020819055506124ea846124e560646124d7600a546008546134bc90919063ffffffff16565b61354290919063ffffffff16565b613839565b600560003373ffffffffffffffffffffffffffffffffffffffff1673ffffffffffffffffffffffffffffffffffffffff1681526020019081526020016000206001816001815401808255809150500390600052602060002090505083600560003373ffffffffffffffffffffffffffffffffffffffff1673ffffffffffffffffffffffffffffffffffffffff1681526020019081526020016000206001600560003373ffffffffffffffffffffffffffffffffffffffff1673ffffffffffffffffffffffffffffffffffffffff1681526020019081526020016000208054905003815481106125d557fe5b906000526020600020906002020160000160006101000a81548173ffffffffffffffffffffffffffffffffffffffff021916908373ffffffffffffffffffffffffffffffffffffffff16021790555082600560003373ffffffffffffffffffffffffffffffffffffffff1673ffffffffffffffffffffffffffffffffffffffff1681526020019081526020016000206001600560003373ffffffffffffffffffffffffffffffffffffffff1673ffffffffffffffffffffffffffffffffffffffff1681526020019081526020016000208054905003815481106126b457fe5b9060005260206000209060020201600101819055506001600660003373ffffffffffffffffffffffffffffffffffffffff1673ffffffffffffffffffffffffffffffffffffffff16815260200190815260200160002060008673ffffffffffffffffffffffffffffffffffffffff1673ffffffffffffffffffffffffffffffffffffffff16815260200190815260200160002060006101000a81548160ff0219169083151502179055503373ffffffffffffffffffffffffffffffffffffffff167f7833ac38b85d1f3dfe4f67a3a0d6d37d2ea07d1211d4d1ff478800902fd9e5af6008548685856040516127ac9493929190615903565b60405180910390a250505050565b60006127e382600080868152602001908152602001600020600001613b7b90919063ffffffff16565b905092915050565b600061281482600080868152602001908152602001600020600001613b9590919063ffffffff16565b905092915050565b600160009054906101000a900473ffffffffffffffffffffffffffffffffffffffff1681565b6010818154811061285257600080fd5b90600052602060002090600202016000915090508060000160009054906101000a900473ffffffffffffffffffffffffffffffffffffffff1690806001018054600181600116156101000203166002900480601f0160208091040260200160405190810160405280929190818152602001828054600181600116156101000203166002900480156129245780601f106128f957610100808354040283529160200191612924565b820191906000526020600020905b81548152906001019060200180831161290757829003601f168201915b5050505050905082565b7f61c92169ef077349011ff0b1383c894d86c5f0b41d986366b58a6cf31e93beda81565b6000801b81565b6000811161299c576040517f08c379a0000000000000000000000000000000000000000000000000000000008152600401612993906158c8565b60405180910390fd5b601360003373ffffffffffffffffffffffffffffffffffffffff1673ffffffffffffffffffffffffffffffffffffffff16815260200190815260200160002060009054906101000a900460ff1615612b0b5769010f0cf064dd59200000600460003373ffffffffffffffffffffffffffffffffffffffff1673ffffffffffffffffffffffffffffffffffffffff1681526020019081526020016000205482011015612a7c576040517f08c379a0000000000000000000000000000000000000000000000000000000008152600401612a73906157a8565b60405180910390fd5b69054b40b1f852bda00000600460003373ffffffffffffffffffffffffffffffffffffffff1673ffffffffffffffffffffffffffffffffffffffff1681526020019081526020016000205482011115612b0a576040517f08c379a0000000000000000000000000000000000000000000000000000000008152600401612b01906158a8565b60405180910390fd5b5b601360003373ffffffffffffffffffffffffffffffffffffffff1673ffffffffffffffffffffffffffffffffffffffff16815260200190815260200160002060009054906101000a900460ff1680612bac5750601160003373ffffffffffffffffffffffffffffffffffffffff1673ffffffffffffffffffffffffffffffffffffffff16815260200190815260200160002060009054906101000a900460ff165b612beb576040517f08c379a0000000000000000000000000000000000000000000000000000000008152600401612be2906156a8565b60405180910390fd5b612c00816003546135cb90919063ffffffff16565b600381905550612c55333083600160009054906101000a900473ffffffffffffffffffffffffffffffffffffffff1673ffffffffffffffffffffffffffffffffffffffff166136d6909392919063ffffffff16565b612ca781600460003373ffffffffffffffffffffffffffffffffffffffff1673ffffffffffffffffffffffffffffffffffffffff168152602001908152602001600020546135cb90919063ffffffff16565b600460003373ffffffffffffffffffffffffffffffffffffffff1673ffffffffffffffffffffffffffffffffffffffff168152602001908152602001600020819055503373ffffffffffffffffffffffffffffffffffffffff167f3916187166447a01764df803fb1147a37c55a4ca1c7271a7a75c0ab1079b2d9582604051612d3091906158e8565b60405180910390a250565b600e5481565b612d6b7f61c92169ef077349011ff0b1383c894d86c5f0b41d986366b58a6cf31e93beda336127eb565b612daa576040517f08c379a0000000000000000000000000000000000000000000000000000000008152600401612da190615768565b60405180910390fd5b6000811415612dee576040517f08c379a0000000000000000000000000000000000000000000000000000000008152600401612de590615828565b60405180910390fd5b806007819055507f297b2b35bd089c3afcbe21d2741e8421d5e980a7b157d5a3544abb25c4fe47b481604051612e2491906158e8565b60405180910390a150565b60116020528060005260406000206000915054906101000a900460ff1681565b6000601080549050905090565b6000612e7b600080848152602001908152602001600020600001613bc5565b9050919050565b60148181548110612e9257600080fd5b90600052602060002090600202016000915090508060000160009054906101000a900473ffffffffffffffffffffffffffffffffffffffff1690806001018054600181600116156101000203166002900480601f016020809104026020016040519081016040528092919081815260200182805460018160011615610100020316600290048015612f645780601f10612f3957610100808354040283529160200191612f64565b820191906000526020600020905b815481529060010190602001808311612f4757829003601f168201915b5050505050905082565b612f9460008084815260200190815260200160002060020154612f8f61338e565b6127eb565b612fe9576040517f08c379a0000000000000000000000000000000000000000000000000000000008152600401808060200182810382526030815260200180615c986030913960400191505060405180910390fd5b612ff38282613429565b5050565b60095481565b601160003373ffffffffffffffffffffffffffffffffffffffff1673ffffffffffffffffffffffffffffffffffffffff16815260200190815260200160002060009054906101000a900460ff16156131bf578061317d61312f612710613121600260009054906101000a900473ffffffffffffffffffffffffffffffffffffffff1673ffffffffffffffffffffffffffffffffffffffff1663c535124e6040518163ffffffff1660e01b815260040160206040518083038186803b1580156130c457600080fd5b505afa1580156130d8573d6000803e3d6000fd5b505050506040513d601f19601f820116820180604052508101906130fc919061488f565b613113600754600e546134bc90919063ffffffff16565b6134bc90919063ffffffff16565b61354290919063ffffffff16565b600460003373ffffffffffffffffffffffffffffffffffffffff1673ffffffffffffffffffffffffffffffffffffffff1681526020019081526020016000205461365390919063ffffffff16565b10156131be576040517f08c379a00000000000000000000000000000000000000000000000000000000081526004016131b590615888565b60405180910390fd5b5b6131d48160035461365390919063ffffffff16565b60038190555061322c81600460003373ffffffffffffffffffffffffffffffffffffffff1673ffffffffffffffffffffffffffffffffffffffff1681526020019081526020016000205461365390919063ffffffff16565b600460003373ffffffffffffffffffffffffffffffffffffffff1673ffffffffffffffffffffffffffffffffffffffff168152602001908152602001600020819055506132bc3382600160009054906101000a900473ffffffffffffffffffffffffffffffffffffffff1673ffffffffffffffffffffffffffffffffffffffff166137979092919063ffffffff16565b3373ffffffffffffffffffffffffffffffffffffffff167f857a4bd4d7b4553d36107a81e2fdc06c87eee30a74c23d62f1ca89ce3b9ed0ae8260405161330291906158e8565b60405180910390a250565b600b60009054906101000a900473ffffffffffffffffffffffffffffffffffffffff1681565b600a5481565b6000601280549050905090565b60046020528060005260406000206000915090505481565b6000613386836000018373ffffffffffffffffffffffffffffffffffffffff1660001b613bda565b905092915050565b600033905090565b6133bd8160008085815260200190815260200160002060000161335e90919063ffffffff16565b15613425576133ca61338e565b73ffffffffffffffffffffffffffffffffffffffff168173ffffffffffffffffffffffffffffffffffffffff16837f2f8788117e7eff1d82e926ec794901d17c78024a50270940304540a733656f0d60405160405180910390a45b5050565b61345081600080858152602001908152602001600020600001613c4a90919063ffffffff16565b156134b85761345d61338e565b73ffffffffffffffffffffffffffffffffffffffff168173ffffffffffffffffffffffffffffffffffffffff16837ff6391f5c32d9c69d2a47ea670b442974b53935d1edc7fd64eb21e047a839171b60405160405180910390a45b5050565b6000808314156134cf576000905061353c565b60008284029050828482816134e057fe5b0414613537576040517f08c379a0000000000000000000000000000000000000000000000000000000008152600401808060200182810382526021815260200180615cc86021913960400191505060405180910390fd5b809150505b92915050565b60008082116135b9576040517f08c379a000000000000000000000000000000000000000000000000000000000815260040180806020018281038252601a8152602001807f536166654d6174683a206469766973696f6e206279207a65726f00000000000081525060200191505060405180910390fd5b8183816135c257fe5b04905092915050565b600080828401905083811015613649576040517f08c379a000000000000000000000000000000000000000000000000000000000815260040180806020018281038252601b8152602001807f536166654d6174683a206164646974696f6e206f766572666c6f77000000000081525060200191505060405180910390fd5b8091505092915050565b6000828211156136cb576040517f08c379a000000000000000000000000000000000000000000000000000000000815260040180806020018281038252601e8152602001807f536166654d6174683a207375627472616374696f6e206f766572666c6f77000081525060200191505060405180910390fd5b818303905092915050565b613791846323b872dd60e01b858585604051602401808473ffffffffffffffffffffffffffffffffffffffff1681526020018373ffffffffffffffffffffffffffffffffffffffff1681526020018281526020019350505050604051602081830303815290604052907bffffffffffffffffffffffffffffffffffffffffffffffffffffffff19166020820180517bffffffffffffffffffffffffffffffffffffffffffffffffffffffff8381831617835250505050613c7a565b50505050565b6138348363a9059cbb60e01b8484604051602401808373ffffffffffffffffffffffffffffffffffffffff16815260200182815260200192505050604051602081830303815290604052907bffffffffffffffffffffffffffffffffffffffffffffffffffffffff19166020820180517bffffffffffffffffffffffffffffffffffffffffffffffffffffffff8381831617835250505050613c7a565b505050565b60008273ffffffffffffffffffffffffffffffffffffffff1663ebb33a816040518163ffffffff1660e01b815260040160006040518083038186803b15801561388157600080fd5b505afa158015613895573d6000803e3d6000fd5b505050506040513d6000823e3d601f19601f820116820180604052508101906138be9190614670565b9050600080600090505b825181101561394557613936600460008584815181106138e457fe5b602002602001015173ffffffffffffffffffffffffffffffffffffffff1673ffffffffffffffffffffffffffffffffffffffff16815260200190815260200160002054836135cb90919063ffffffff16565b915080806001019150506138c8565b5060005b8251811015613b745760006139d3836139c5678ac7230489e800006004600089888151811061397457fe5b602002602001015173ffffffffffffffffffffffffffffffffffffffff1673ffffffffffffffffffffffffffffffffffffffff168152602001908152602001600020546134bc90919063ffffffff16565b61354290919063ffffffff16565b90506000613a04678ac7230489e800006139f684896134bc90919063ffffffff16565b61354290919063ffffffff16565b9050613aac613a4b678ac7230489e80000613a3d6064613a2f866008546134bc90919063ffffffff16565b61354290919063ffffffff16565b61354290919063ffffffff16565b60046000888781518110613a5b57fe5b602002602001015173ffffffffffffffffffffffffffffffffffffffff1673ffffffffffffffffffffffffffffffffffffffff168152602001908152602001600020546135cb90919063ffffffff16565b60046000878681518110613abc57fe5b602002602001015173ffffffffffffffffffffffffffffffffffffffff1673ffffffffffffffffffffffffffffffffffffffff16815260200190815260200160002081905550848381518110613b0e57fe5b602002602001015173ffffffffffffffffffffffffffffffffffffffff167f3e4fd36a8c6a5f774423977e7d7e6badc0d7f8972efdaa142830e6048bdcdd523383604051613b5d929190615491565b60405180910390a250508080600101915050613949565b5050505050565b6000613b8a8360000183613d69565b60001c905092915050565b6000613bbd836000018373ffffffffffffffffffffffffffffffffffffffff1660001b613dec565b905092915050565b6000613bd382600001613e0f565b9050919050565b6000613be68383613dec565b613c3f578260000182908060018154018082558091505060019003906000526020600020016000909190919091505582600001805490508360010160008481526020019081526020016000208190555060019050613c44565b600090505b92915050565b6000613c72836000018373ffffffffffffffffffffffffffffffffffffffff1660001b613e20565b905092915050565b6000613cdc826040518060400160405280602081526020017f5361666545524332303a206c6f772d6c6576656c2063616c6c206661696c65648152508573ffffffffffffffffffffffffffffffffffffffff16613f089092919063ffffffff16565b9050600081511115613d6457808060200190516020811015613cfd57600080fd5b8101908080519060200190929190505050613d63576040517f08c379a000000000000000000000000000000000000000000000000000000000815260040180806020018281038252602a815260200180615ce9602a913960400191505060405180910390fd5b5b505050565b600081836000018054905011613dca576040517f08c379a0000000000000000000000000000000000000000000000000000000008152600401808060200182810382526022815260200180615c216022913960400191505060405180910390fd5b826000018281548110613dd957fe5b9060005260206000200154905092915050565b600080836001016000848152602001908152602001600020541415905092915050565b600081600001805490509050919050565b60008083600101600084815260200190815260200160002054905060008114613efc5760006001820390506000600186600001805490500390506000866000018281548110613e6b57fe5b9060005260206000200154905080876000018481548110613e8857fe5b9060005260206000200181905550600183018760010160008381526020019081526020016000208190555086600001805480613ec057fe5b60019003818190600052602060002001600090559055866001016000878152602001908152602001600020600090556001945050505050613f02565b60009150505b92915050565b6060613f178484600085613f20565b90509392505050565b606082471015613f7b576040517f08c379a0000000000000000000000000000000000000000000000000000000008152600401808060200182810382526026815260200180615c726026913960400191505060405180910390fd5b613f84856140c8565b613ff6576040517f08c379a000000000000000000000000000000000000000000000000000000000815260040180806020018281038252601d8152602001807f416464726573733a2063616c6c20746f206e6f6e2d636f6e747261637400000081525060200191505060405180910390fd5b6000808673ffffffffffffffffffffffffffffffffffffffff1685876040518082805190602001908083835b602083106140455780518252602082019150602081019050602083039250614022565b6001836020036101000a03801982511681845116808217855250505050505090500191505060006040518083038185875af1925050503d80600081146140a7576040519150601f19603f3d011682016040523d82523d6000602084013e6140ac565b606091505b50915091506140bc8282866140db565b92505050949350505050565b600080823b905060008111915050919050565b606083156140eb578290506141a0565b6000835111156140fe5782518084602001fd5b816040517f08c379a00000000000000000000000000000000000000000000000000000000081526004018080602001828103825283818151815260200191508051906020019080838360005b8381101561416557808201518184015260208101905061414a565b50505050905090810190601f1680156141925780820380516001836020036101000a031916815260200191505b509250505060405180910390fd5b9392505050565b6040518060400160405280600073ffffffffffffffffffffffffffffffffffffffff168152602001606081525090565b828054600181600116156101000203166002900490600052602060002090601f01602090048101928261420d5760008555614254565b82601f1061422657805160ff1916838001178555614254565b82800160010185558215614254579182015b82811115614253578251825591602001919060010190614238565b5b5090506142619190614265565b5090565b5b8082111561427e576000816000905550600101614266565b5090565b600061429561429084615979565b615948565b905080838252602082019050828560208602820111156142b457600080fd5b60005b858110156142e457816142ca8882614404565b8452602084019350602083019250506001810190506142b7565b5050509392505050565b60006143016142fc84615979565b615948565b9050808382526020820190508285602086028201111561432057600080fd5b60005b8581101561435057816143368882614419565b845260208401935060208301925050600181019050614323565b5050509392505050565b600061436d614368846159a5565b615948565b9050808382526020820190508285602086028201111561438c57600080fd5b60005b858110156143bc57816143a28882614515565b84526020840193506020830192505060018101905061438f565b5050509392505050565b60006143d96143d4846159d1565b615948565b9050828152602081018484840111156143f157600080fd5b6143fc848285615b4b565b509392505050565b60008135905061441381615bb4565b92915050565b60008151905061442881615bb4565b92915050565b600082601f83011261443f57600080fd5b813561444f848260208601614282565b91505092915050565b600082601f83011261446957600080fd5b81516144798482602086016142ee565b91505092915050565b600082601f83011261449357600080fd5b81356144a384826020860161435a565b91505092915050565b6000815190506144bb81615bcb565b92915050565b6000813590506144d081615be2565b92915050565b6000813590506144e581615bf9565b92915050565b600082601f8301126144fc57600080fd5b813561450c8482602086016143c6565b91505092915050565b60008135905061452481615c09565b92915050565b60008151905061453981615c09565b92915050565b60006020828403121561455157600080fd5b600061455f84828501614404565b91505092915050565b60006020828403121561457a57600080fd5b600061458884828501614419565b91505092915050565b600080604083850312156145a457600080fd5b60006145b285828601614404565b92505060206145c385828601614404565b9150509250929050565b6000806000606084860312156145e257600080fd5b60006145f086828701614404565b935050602084013567ffffffffffffffff81111561460d57600080fd5b614619868287016144eb565b925050604061462a868287016144d6565b9150509250925092565b6000806040838503121561464757600080fd5b600061465585828601614404565b925050602061466685828601614515565b9150509250929050565b60006020828403121561468257600080fd5b600082015167ffffffffffffffff81111561469c57600080fd5b6146a884828501614458565b91505092915050565b600080604083850312156146c457600080fd5b600083013567ffffffffffffffff8111156146de57600080fd5b6146ea8582860161442e565b925050602083013567ffffffffffffffff81111561470757600080fd5b61471385828601614482565b9150509250929050565b60008060006060848603121561473257600080fd5b600084013567ffffffffffffffff81111561474c57600080fd5b6147588682870161442e565b935050602084013567ffffffffffffffff81111561477557600080fd5b61478186828701614482565b925050604061479286828701614404565b9150509250925092565b6000602082840312156147ae57600080fd5b60006147bc848285016144ac565b91505092915050565b6000602082840312156147d757600080fd5b60006147e5848285016144c1565b91505092915050565b6000806040838503121561480157600080fd5b600061480f858286016144c1565b925050602061482085828601614404565b9150509250929050565b6000806040838503121561483d57600080fd5b600061484b858286016144c1565b925050602061485c85828601614515565b9150509250929050565b60006020828403121561487857600080fd5b600061488684828501614515565b91505092915050565b6000602082840312156148a157600080fd5b60006148af8482850161452a565b91505092915050565b600080604083850312156148cb57600080fd5b60006148d985828601614515565b92505060206148ea85828601614515565b9150509250929050565b60006149008383615429565b60408301905092915050565b61491581615abb565b82525050565b61492481615a56565b82525050565b61493381615a56565b82525050565b600061494482615a11565b61494e8185615a34565b935061495983615a01565b8060005b8381101561498a57815161497188826148f4565b975061497c83615a27565b92505060018101905061495d565b5085935050505092915050565b6149a081615a68565b82525050565b6149af81615a74565b82525050565b6149be81615acd565b82525050565b6149cd81615af1565b82525050565b6149dc81615b15565b82525050565b60006149ed82615a1c565b6149f78185615a45565b9350614a07818560208601615b5a565b614a1081615b8f565b840191505092915050565b6000614a28603883615a45565b91507f456e746572707269736520616e642056616c696461746f72207368617265732060008301527f63616e2774206265206c6172676572207468616e2031303000000000000000006020830152604082019050919050565b6000614a8e606c83615a45565b91507f4d656d626572733a7570646174654461696c794561726e696e67735472616e7360008301527f66657246756e6473202d204c697374206f662076616c696461746f727320646f60208301527f65736e2774206d61746368206c69737420206f6620746865697220726573706560408301527f637469766520746f6b656e7300000000000000000000000000000000000000006060830152608082019050919050565b6000614b40602f83615a45565b91507f4d656d626572733a61646455736572202d20546869732056616c696461746f7260008301527f20616c72656164792065786973742e00000000000000000000000000000000006020830152604082019050919050565b6000614ba6604c83615a45565b91507f4d656d626572733a7570646174654d696e4465706f73697444617973202d204e60008301527f65772076616c756520666f722074686520656e7465727072697365206d61746360208301527f682063616e2774206265203000000000000000000000000000000000000000006040830152606082019050919050565b6000614c32604783615a45565b91507f4d656d626572733a64617461537562736372696265725061796d656e74202d2060008301527f596f75206861766520746f20726567697374657220617320646174612073756260208301527f73637269626572000000000000000000000000000000000000000000000000006040830152606082019050919050565b6000614cbe604a83615a45565b91507f5374616b696e673a7374616b65202d205573657220686173206265656e206e6f60008301527f74207265676973746572656420617320612076616c696461746f72206f72206560208301527f6e74657270726973652e000000000000000000000000000000000000000000006040830152606082019050919050565b6000614d4a603083615a45565b91507f4d656d626572733a61646455736572202d205468697320456e7465727072697360008301527f6520616c72656164792065786973742e000000000000000000000000000000006020830152604082019050919050565b6000614db0603583615a45565b91507f4d656d626572733a61646455736572202d20546869732044617461205375627360008301527f63726962657220616c72656164792065786973742e00000000000000000000006020830152604082019050919050565b6000614e16603a83615a45565b91507f4d656d626572733a64617461537562736372696265725061796d656e74202d2060008301527f596f752061726520616c726561647920737562736372696265640000000000006020830152604082019050919050565b6000614e7c603483615a45565b91507f4d656d626572732d64617461537562736372696265725061796d656e744d756c60008301527f7469706c653a204c69737420746f6f206c6f6e670000000000000000000000006020830152604082019050919050565b6000614ee2603b83615a45565b91507f4d656d626572733a736574436f686f7274466163746f7279202d20436f686f7260008301527f74466163746f727920616464726573732063616e2774206265203000000000006020830152604082019050919050565b6000614f48602983615a45565b91507f4d656d626572733a6973536574746572202d2043616c6c6572206973206e6f7460008301527f20612073657474657200000000000000000000000000000000000000000000006020830152604082019050919050565b6000614fae601983615a45565b91507f436f686f727420616464726573732063616e27742062652030000000000000006000830152602082019050919050565b6000614fee603f83615a45565b91507f5374616b696e673a7374616b65202d204d696e696d756d20636f6e747269627560008301527f74696f6e20616d6f756e742069732035303030204155445420746f6b656e73006020830152604082019050919050565b6000615054602f83615a45565b91507f4f6e65206f66207468652076616c696461746f727320696e20746865206c697360008301527f74206861732061646472657373203000000000000000000000000000000000006020830152604082019050919050565b60006150ba603983615a45565b91507f4d656d626572733a64617461537562736372696265725061796d656e74202d2060008301527f436f686f727420616464726573732063616e27742062652030000000000000006020830152604082019050919050565b6000615120603183615a45565b91507f4d656d626572733a4973436f6e74726f6c6c6572202d2043616c6c657220697360008301527f206e6f74206120636f6e74726f6c6c65720000000000000000000000000000006020830152604082019050919050565b6000615186603b83615a45565b91507f4d656d626572733a75706461746552657761726473202d204e65772076616c7560008301527f6520666f7220746865207265776172642063616e2774206265203000000000006020830152604082019050919050565b60006151ec604c83615a45565b91507f4d656d626572733a7570646174654d696e4465706f73697444617973202d204e60008301527f65772076616c756520666f7220746865206d696e206465706f7369742064617960208301527f732063616e2774206265203000000000000000000000000000000000000000006040830152606082019050919050565b6000615278602783615a45565b91507f41756469742074797065206973206e6f7420696e20746865207265717569726560008301527f642072616e6765000000000000000000000000000000000000000000000000006020830152604082019050919050565b60006152de605283615a45565b91507f4d656d6265723a72656465656d202d20596f7572206465706f7369742077696c60008301527f6c20626520746f6f206c6f7720746f2066756c6c66696c20796f7572206f757460208301527f7374616e64696e67207061796d656e74732e00000000000000000000000000006040830152606082019050919050565b600061536a604083615a45565b91507f5374616b696e673a7374616b65202d204d6178696d756d20636f6e747269627560008301527f74696f6e20616d6f756e74206973203235303030204155445420746f6b656e736020830152604082019050919050565b60006153d0602183615a45565b91507f4d656d626572733a7374616b65202d20416d6f756e742063616e27742062652060008301527f30000000000000000000000000000000000000000000000000000000000000006020830152604082019050919050565b60408201600082015161543f600085018261491b565b5060208201516154526020850182615458565b50505050565b61546181615ab1565b82525050565b61547081615ab1565b82525050565b600060208201905061548b600083018461492a565b92915050565b60006040820190506154a6600083018561490c565b6154b36020830184615467565b9392505050565b60006040820190506154cf600083018561492a565b81810360208301526154e181846149e2565b90509392505050565b60006040820190506154ff600083018561492a565b61550c6020830184615467565b9392505050565b6000606082019050615528600083018661492a565b6155356020830185615467565b6155426040830184615467565b949350505050565b600060208201905081810360008301526155648184614939565b905092915050565b60006020820190506155816000830184614997565b92915050565b600060208201905061559c60008301846149a6565b92915050565b60006020820190506155b760008301846149b5565b92915050565b60006020820190506155d260008301846149c4565b92915050565b600060408201905081810360008301526155f281856149e2565b905061560160208301846149d3565b9392505050565b6000602082019050818103600083015261562181614a1b565b9050919050565b6000602082019050818103600083015261564181614a81565b9050919050565b6000602082019050818103600083015261566181614b33565b9050919050565b6000602082019050818103600083015261568181614b99565b9050919050565b600060208201905081810360008301526156a181614c25565b9050919050565b600060208201905081810360008301526156c181614cb1565b9050919050565b600060208201905081810360008301526156e181614d3d565b9050919050565b6000602082019050818103600083015261570181614da3565b9050919050565b6000602082019050818103600083015261572181614e09565b9050919050565b6000602082019050818103600083015261574181614e6f565b9050919050565b6000602082019050818103600083015261576181614ed5565b9050919050565b6000602082019050818103600083015261578181614f3b565b9050919050565b600060208201905081810360008301526157a181614fa1565b9050919050565b600060208201905081810360008301526157c181614fe1565b9050919050565b600060208201905081810360008301526157e181615047565b9050919050565b60006020820190508181036000830152615801816150ad565b9050919050565b6000602082019050818103600083015261582181615113565b9050919050565b6000602082019050818103600083015261584181615179565b9050919050565b60006020820190508181036000830152615861816151df565b9050919050565b600060208201905081810360008301526158818161526b565b9050919050565b600060208201905081810360008301526158a1816152d1565b9050919050565b600060208201905081810360008301526158c18161535d565b9050919050565b600060208201905081810360008301526158e1816153c3565b9050919050565b60006020820190506158fd6000830184615467565b92915050565b60006080820190506159186000830187615467565b615925602083018661492a565b615932604083018561492a565b61593f6060830184615467565b95945050505050565b6000604051905081810181811067ffffffffffffffff8211171561596f5761596e615b8d565b5b8060405250919050565b600067ffffffffffffffff82111561599457615993615b8d565b5b602082029050602081019050919050565b600067ffffffffffffffff8211156159c0576159bf615b8d565b5b602082029050602081019050919050565b600067ffffffffffffffff8211156159ec576159eb615b8d565b5b601f19601f8301169050602081019050919050565b6000819050602082019050919050565b600081519050919050565b600081519050919050565b6000602082019050919050565b600082825260208201905092915050565b600082825260208201905092915050565b6000615a6182615a91565b9050919050565b60008115159050919050565b6000819050919050565b6000819050615a8c82615ba0565b919050565b600073ffffffffffffffffffffffffffffffffffffffff82169050919050565b6000819050919050565b6000615ac682615b27565b9050919050565b6000615ad882615adf565b9050919050565b6000615aea82615a91565b9050919050565b6000615afc82615b03565b9050919050565b6000615b0e82615a91565b9050919050565b6000615b2082615a7e565b9050919050565b6000615b3282615b39565b9050919050565b6000615b4482615a91565b9050919050565b82818337600083830152505050565b60005b83811015615b78578082015181840152602081019050615b5d565b83811115615b87576000848401525b50505050565bfe5b6000601f19601f8301169050919050565b60038110615bb157615bb0615b8d565b5b50565b615bbd81615a56565b8114615bc857600080fd5b50565b615bd481615a68565b8114615bdf57600080fd5b50565b615beb81615a74565b8114615bf657600080fd5b50565b60038110615c0657600080fd5b50565b615c1281615ab1565b8114615c1d57600080fd5b5056fe456e756d657261626c655365743a20696e646578206f7574206f6620626f756e6473416363657373436f6e74726f6c3a2073656e646572206d75737420626520616e2061646d696e20746f206772616e74416464726573733a20696e73756666696369656e742062616c616e636520666f722063616c6c416363657373436f6e74726f6c3a2073656e646572206d75737420626520616e2061646d696e20746f207265766f6b65536166654d6174683a206d756c7469706c69636174696f6e206f766572666c6f775361666545524332303a204552433230206f7065726174696f6e20646964206e6f742073756363656564416363657373436f6e74726f6c3a2063616e206f6e6c792072656e6f756e636520726f6c657320666f722073656c66a2646970667358221220b9f210e3da189a2f17cda42b5328c9b377d583d5c30107ebfad3bc36005ef68164736f6c63430007060033",
  "immutableReferences": {},
  "source": "// SPDX-License-Identifier: MIT\npragma solidity =0.7.6;\npragma experimental ABIEncoderV2;\nimport \"@openzeppelin/contracts/access/AccessControl.sol\";\nimport \"@openzeppelin/contracts/token/ERC20/IERC20.sol\";\nimport \"@openzeppelin/contracts/math/SafeMath.sol\";\nimport \"@openzeppelin/contracts/token/ERC20/SafeERC20.sol\";\nimport \"./ICohort.sol\";\nimport \"./ICohortFactory.sol\";\nimport \"./../AuditToken.sol\";\n\n/**\n * @title Members\n * Allows on creation of Enterprise and Validator accounts and staking of funds by validators\n * Validators and enterprises have ability to withdraw their staking and earnings \n * Contract also contains several update functions controlled by the Governance contracts\n */\n\ncontract Members is  AccessControl {\n\n    using SafeMath for uint256;\n    using SafeERC20 for AuditToken;\n\n    struct DataSubscriberTypes{\n        address cohort;\n        uint256 audits;\n    }\n\n    bytes32 public constant CONTROLLER_ROLE = keccak256(\"CONTROLLER_ROLE\");\n    bytes32 public constant SETTER_ROLE =  keccak256(\"SETTER_ROLE\");\n\n    AuditToken public auditToken;                       //AUDT token \n    ICohortFactory public cohortFactory;\n    uint256 public stakedAmount;                        //total number of staked tokens   \n    mapping(address => uint256) public deposits;        //track deposits per user\n    mapping(address => DataSubscriberTypes[]) public dataSubscriberCohorts;\n    mapping(address => mapping(address => bool)) public dataSubscriberCohortMap;\n    uint256 public amountTokensPerValidation =  1e18;    //New minted amount per validation\n\n    uint256 public accessFee = 1000e18;\n    uint256 public enterpriseShareSubscriber = 40;\n    uint256 public validatorShareSubscriber = 40;\n    address public platformAddress;\n    uint256 public platformShareValidation = 15;    \n    uint256 public recentBlockUpdated;\n    uint256 public enterpriseMatch = 15e3;          //allow fractional enterprise match up to 4 decimal points\n    uint256 public minDepositDays = 30;\n \n    /// @dev check if caller is a controller     \n    modifier isController {\n        require(hasRole(CONTROLLER_ROLE, msg.sender), \"Members:IsController - Caller is not a controller\");\n\n        _;\n    }\n\n    /// @dev check if caller is a setter     \n    modifier isSetter {\n        require(hasRole(SETTER_ROLE, msg.sender), \"Members:isSetter - Caller is not a setter\");\n\n        _;\n    }\n\n     // Audit types to be used. Two types added for future expansion \n    enum UserType {Enterprise, Validator, DataSubscriber}\n\n    // Structure to store address and name of the registered\n    struct User {  \n        address user;\n        string name;                                                                                                                         \n    }\n\n    User[] public enterprises;\n    mapping(address => bool) public enterpriseMap;\n\n    User[] public validators;\n    mapping(address => bool) public validatorMap;\n\n    User[] public dataSubscribers;\n    mapping(address => bool) public dataSubscriberMap;\n   \n    \n    event EnterpriseUserAdded(address indexed user, string name);\n    event UserAdded(address indexed user, string name, UserType userType);\n    event LogDepositReceived(address indexed from, uint amount);\n    event LogRewardsRedeemed(address indexed from, uint256 amount);\n    event LogDataSubscriberPaid(address indexed from, uint256 accessFee,  address cohortAddress, address enterprise, uint256 enterpriseShare);\n    event LogDataSubscriberValidatorPaid(address  from, address indexed validator, uint256 amount);\n    event LogRewardsDeposited(address cohort, uint256 tokens, uint256 enterpriseAmount, address indexed enterprise);\n    event LogRewardsReceived(address indexed validator, uint256 tokens );\n    event LogSubscriptionCompleted(address subscriber, uint256 numberOfSubscriptions);\n    event LogUpdateRewards(uint256 rewards);\n    event LogUpdateEnterpriseMatch(uint256 portion);\n    event LogUpdateMinDepositDays(uint256 minDepositDays);\n\n    constructor(AuditToken _auditToken, address _platformAddress ) {\n\n        require(_auditToken != AuditToken(0), \"Members:constructor - Audit token address can't be 0\");\n        require(_platformAddress != address(0), \"Members:constructor - Platform address can't be 0\");\n        auditToken = _auditToken;        \n        platformAddress = _platformAddress;\n        _setupRole(DEFAULT_ADMIN_ROLE, msg.sender);\n    }\n\n    /**\n    * @dev to be called by administrator to set cohort Factory contract\n    * @param _cohortFactory cohortFactory contract\n    */\n    function setCohortFactory(address _cohortFactory) public isController() {\n\n        require(_cohortFactory != address(0), \"Members:setCohortFactory - CohortFactory address can't be 0\");\n        cohortFactory = ICohortFactory(_cohortFactory);\n    }\n\n\n    /**\n    * @dev to be called by Governance contract to update new amount for validation rewards\n    * @param _amountTokensPerValidation new value of reward per validation\n    */\n    function updateRewards(uint256 _amountTokensPerValidation) public isSetter() {\n\n        require(_amountTokensPerValidation != 0, \"Members:updateRewards - New value for the reward can't be 0\");\n        amountTokensPerValidation = _amountTokensPerValidation;\n        emit LogUpdateRewards(_amountTokensPerValidation);\n    }\n\n\n    /**\n    * @dev to be called by Governance contract to update days to calculate enterprise min deposit requirements\n    * @param _minDepositDays new value of min deposit days\n    */\n    function updateMinDepositDays(uint256 _minDepositDays) public isSetter()  {\n\n        require(_minDepositDays != 0, \"Members:updateMinDepositDays - New value for the min deposit days can't be 0\");\n        minDepositDays = _minDepositDays;\n        emit LogUpdateMinDepositDays(_minDepositDays);\n    }\n    \n    /**\n    * @dev to be called by Governance contract\n    * @param _enterpriseMatch new value of enterprise portion of enterprise value of validation cost\n    */\n    function updateEnterpriseMatch(uint256 _enterpriseMatch) public isSetter()  {\n\n        require(_enterpriseMatch != 0, \"Members:updateMinDepositDays - New value for the enterprise match can't be 0\");\n        enterpriseMatch = _enterpriseMatch;\n        emit LogUpdateEnterpriseMatch(_enterpriseMatch);\n    }\n\n    /**\n    * @dev to be called by Governance contract to change enterprise and validators shares\n    * of data subscription fees. \n    * @param _enterpriseShareSubscriber  - share of the enterprise\n    * @param _validatorShareSubscriber - share of the subscribers\n    */\n    function setDataSubscriberShares(uint256 _enterpriseShareSubscriber, uint256 _validatorShareSubscriber ) public isSetter()  {\n\n        require(_enterpriseShareSubscriber.add(validatorShareSubscriber) <=100, \"Enterprise and Validator shares can't be larger than 100\");\n        enterpriseShareSubscriber = _enterpriseShareSubscriber;\n        validatorShareSubscriber = _validatorShareSubscriber;\n    }\n\n    /**\n     * @dev Function to accept contribution to staking\n     * @param amount number of AUDT tokens sent to contract for staking     \n     */ \n     function stake(uint256 amount) public {\n\n        require(amount > 0, \"Members:stake - Amount can't be 0\");\n\n        if (validatorMap[msg.sender]){ \n            require(amount + deposits[msg.sender] >= 5e21, \"Staking:stake - Minimum contribution amount is 5000 AUDT tokens\");  \n            require(amount + deposits[msg.sender] <= 25e21, \"Staking:stake - Maximum contribution amount is 25000 AUDT tokens\");     \n        }\n        require(validatorMap[msg.sender] || enterpriseMap[msg.sender], \"Staking:stake - User has been not registered as a validator or enterprise.\"); \n        stakedAmount = stakedAmount.add(amount);  // track tokens contributed so far\n        auditToken.safeTransferFrom(msg.sender, address(this), amount);\n        deposits[msg.sender] = deposits[msg.sender].add(amount);\n        emit LogDepositReceived(msg.sender, amount);       \n    }\n\n    /**\n    * @dev to be called by scheduled calls by platform daily to save gas\n    * the process can be called at any time \n    * @param _validators - list of validators eligible for earnings\n    * @param tokens - list of tokens earned by each validator\n    */\n    function updateDailyEarningsTransferFunds(address[] memory _validators, uint256[] memory tokens, address cohort) public isController() {\n\n        require(cohort != address(0), \"Cohort address can't be 0\");\n        require(_validators.length == tokens.length, \"Members:updateDailyEarningsTransferFunds - List of validators doesn't match list  of their respective tokens\");\n\n        uint256 totalRewardTokens;\n\n        address enterpriseAddress = ICohort(cohort).enterprise();\n        ICohort(cohort).resetOutstandingValidations();\n        uint256 totalEnterprisePay;\n\n        for (uint256 i=0; i< _validators.length; i++){\n            require(_validators[i] != address(0), \"One of the validators in the list has address 0\");\n            // 1e4 to adjust for 4 decimal points for enterpriseMatch\n            uint256 enterprisePortion =  (tokens[i].mul(enterpriseMatch).div(1e4));\n            totalEnterprisePay = totalEnterprisePay.add(enterprisePortion);\n            deposits[_validators[i]] = deposits[_validators[i]].add(tokens[i]).add(enterprisePortion);\n            totalRewardTokens = totalRewardTokens.add(tokens[i]);\n            LogRewardsReceived(_validators[i], tokens[i].add(enterprisePortion));\n        }\n        // decrease enterprise token amount by its reward share to validators\n        deposits[enterpriseAddress] = deposits[enterpriseAddress].sub(totalEnterprisePay);\n\n        uint256 amountTokensPlatform = totalRewardTokens.mul(platformShareValidation).div(85);\n        \n        recentBlockUpdated = block.number;\n        auditToken.mint(platformAddress, amountTokensPlatform);\n        auditToken.mint(address(this), totalRewardTokens);\n        emit LogRewardsDeposited(cohort, totalRewardTokens, totalEnterprisePay, enterpriseAddress);\n    }\n\n    /**\n    * @dev called when data subscriber initiates subscription \n    * @param cohortAddress - address of the cohort to which data subscriber wants access \n    * @param audits - type of audits this cohort is part of\n    */\n    function dataSubscriberPayment(address cohortAddress, uint256 audits) public  {\n\n        require(cohortAddress != address(0), \"Members:dataSubscriberPayment - Cohort address can't be 0\");\n        require(audits >=0 && audits <=5, \"Audit type is not in the required range\");\n        require(!dataSubscriberCohortMap[msg.sender][cohortAddress], \"Members:dataSubscriberPayment - You are already subscribed\");\n        require(dataSubscriberMap[msg.sender], \"Members:dataSubscriberPayment - You have to register as data subscriber\");\n\n        auditToken.safeTransferFrom(msg.sender, address(this), accessFee);\n        auditToken.safeTransfer(platformAddress, accessFee.mul((uint256(100)).sub(enterpriseShareSubscriber).sub(validatorShareSubscriber)).div(100));\n\n        if (validatorMap[msg.sender] || enterpriseMap[msg.sender]){\n            stakedAmount = stakedAmount.sub(accessFee);  // track tokens contributed so far\n            deposits[msg.sender] = deposits[msg.sender].sub(accessFee);\n        }\n\n        address cohortOwner = ICohort(cohortAddress).enterprise();\n        uint256 enterpriseShare = accessFee.mul(enterpriseShareSubscriber).div(100);\n        deposits[cohortOwner] = deposits[cohortOwner].add(enterpriseShare);\n        allocateValidatorDataSubscriberFee(cohortAddress, accessFee.mul(validatorShareSubscriber).div(100));\n        dataSubscriberCohorts[msg.sender].push();\n        dataSubscriberCohorts[msg.sender][dataSubscriberCohorts[msg.sender].length -1].cohort = cohortAddress;\n        dataSubscriberCohorts[msg.sender][dataSubscriberCohorts[msg.sender].length- 1].audits = audits;\n        dataSubscriberCohortMap[msg.sender][cohortAddress] = true;\n\n        emit LogDataSubscriberPaid(msg.sender, accessFee, cohortAddress, cohortOwner, enterpriseShare);\n    }\n\n    /**\n    * @dev To return all cohorts to which data subscriber is subscribed to \n    * @param subscriber - address of the subscriber\n    * @return the structure with cohort address and their types for subscriber\n    */\n    function returnCohortsForDataSubscriber(address subscriber) public view returns(DataSubscriberTypes[] memory){\n            return (dataSubscriberCohorts[subscriber]);\n    }\n\n    /**\n    * @dev To automate subscription for multiple cohorts for data subscriber \n    * @param cohortAddress - array of cohort addresses\n    * @param audits - array of audit types for each cohort\n    */\n    function dataSubscriberPaymentMultiple(address[] memory cohortAddress, uint256[] memory audits) public {\n\n        uint256 length = cohortAddress.length;\n        require(length <= 256, \"Members-dataSubscriberPaymentMultiple: List too long\");\n        for (uint256 i = 0; i < length; i++) {\n            dataSubscriberPayment(cohortAddress[i], audits[i]);\n        }\n\n        emit LogSubscriptionCompleted(msg.sender, length);\n    }\n\n    /**\n    * @dev To calculate validator share of data subscriber fee and allocate it to validator deposits\n    * @param cohortAddress - address of cohort holding list of validators\n    * @param amount - total amount of tokens available for allocation\n    */\n    function allocateValidatorDataSubscriberFee(address cohortAddress, uint amount) internal  {\n\n        address[] memory cohortValidators = ICohort(cohortAddress).returnValidators();\n        uint256 totalDeposits;\n\n        for (uint i=0; i < cohortValidators.length; i++){\n            totalDeposits = totalDeposits.add(deposits[cohortValidators[i]]);\n        }\n\n        for (uint i=0; i < cohortValidators.length; i++){\n            uint256 oneValidatorPercentage = (deposits[cohortValidators[i]].mul(10e18)).div(totalDeposits);\n            uint256 oneValidatorAmount = amount.mul(oneValidatorPercentage).div(10e18);\n            deposits[cohortValidators[i]] = deposits[cohortValidators[i]].add(accessFee.mul(oneValidatorAmount).div(100).div(10e18)  );\n            emit LogDataSubscriberValidatorPaid(msg.sender, cohortValidators[i], oneValidatorAmount);\n        }\n    }\n   \n     /**\n     * @dev Function to redeem contribution. \n     * @param amount number of tokens being redeemed\n     */\n    function redeem(uint256 amount) public {\n\n          if (enterpriseMap[msg.sender]){\n              // div(1e4) to adjust for four decimal points\n            require(deposits[msg.sender]\n            .sub(enterpriseMatch\n            .mul(amountTokensPerValidation)\n            .mul(cohortFactory.returnOutstandingValidations())\n            .div(1e4)) >= amount, \n            \"Member:redeem - Your deposit will be too low to fullfil your outstanding payments.\");\n          }\n\n        stakedAmount = stakedAmount.sub(amount);       \n        deposits[msg.sender] = deposits[msg.sender].sub(amount);\n        auditToken.safeTransfer(msg.sender, amount);\n        emit LogRewardsRedeemed(msg.sender, amount);\n        \n    }\n\n   \n    /*\n    * @dev add new platform user\n    * @param user to add\n    * @param name name of the user\n    * @param userType  \n    */\n    function addUser(address user, string memory name, UserType userType) public isController() {\n\n        User memory newUser;\n        newUser.user = user;\n        newUser.name = name;\n\n        if (userType == UserType.DataSubscriber){\n            require(!dataSubscriberMap[user], \"Members:addUser - This Data Subscriber already exist.\");\n            dataSubscribers.push(newUser);\n            dataSubscriberMap[user]= true;\n        }\n        else if (userType == UserType.Validator){            \n            require(!validatorMap[user], \"Members:addUser - This Validator already exist.\");\n            validators.push(newUser);\n            validatorMap[user]= true;\n        }\n        else if (userType == UserType.Enterprise){\n            require(!enterpriseMap[user], \"Members:addUser - This Enterprise already exist.\");\n            enterprises.push(newUser);\n            enterpriseMap[user]= true;\n        }\n\n        emit UserAdded(user, name, userType);\n    }\n\n    /*\n    * @dev return enterprise count\n    */\n    function returnEnterpriseCount() public view returns (uint256) {\n\n        return enterprises.length;\n    }\n\n    /*\n    * @dev return validator count\n    */\n    function returnValidatorCount() public view returns (uint256) {\n\n        return validators.length;\n    }\n\n      /*\n    * @dev return data subscribers count\n    */\n    function returnDataSubscriberCount() public view returns (uint256) {\n\n        return dataSubscribers.length;\n    }\n\n}\n\n\n",
  "sourcePath": "/home/bogdan/Ethereum/Projects/TGE/Core-Smart-Contracts-v1/contracts/Auditchain/Members.sol",
  "compiler": {
    "name": "solc",
    "version": "0.7.6+commit.7338295f.Emscripten.clang"
  },
  "schemaVersion": "3.3.4",
  "updatedAt": "2021-04-08T02:43:32.855Z",
  "networkType": "ethereum",
  "devdoc": {
    "kind": "dev",
    "methods": {
      "dataSubscriberPayment(address,uint256)": {
        "details": "called when data subscriber initiates subscription ",
        "params": {
          "audits": "- type of audits this cohort is part of",
          "cohortAddress": "- address of the cohort to which data subscriber wants access "
        }
      },
      "dataSubscriberPaymentMultiple(address[],uint256[])": {
        "details": "To automate subscription for multiple cohorts for data subscriber ",
        "params": {
          "audits": "- array of audit types for each cohort",
          "cohortAddress": "- array of cohort addresses"
        }
      },
      "getRoleAdmin(bytes32)": {
        "details": "Returns the admin role that controls `role`. See {grantRole} and {revokeRole}. To change a role's admin, use {_setRoleAdmin}."
      },
      "getRoleMember(bytes32,uint256)": {
        "details": "Returns one of the accounts that have `role`. `index` must be a value between 0 and {getRoleMemberCount}, non-inclusive. Role bearers are not sorted in any particular way, and their ordering may change at any point. WARNING: When using {getRoleMember} and {getRoleMemberCount}, make sure you perform all queries on the same block. See the following https://forum.openzeppelin.com/t/iterating-over-elements-on-enumerableset-in-openzeppelin-contracts/2296[forum post] for more information."
      },
      "getRoleMemberCount(bytes32)": {
        "details": "Returns the number of accounts that have `role`. Can be used together with {getRoleMember} to enumerate all bearers of a role."
      },
      "grantRole(bytes32,address)": {
        "details": "Grants `role` to `account`. If `account` had not been already granted `role`, emits a {RoleGranted} event. Requirements: - the caller must have ``role``'s admin role."
      },
      "hasRole(bytes32,address)": {
        "details": "Returns `true` if `account` has been granted `role`."
      },
      "redeem(uint256)": {
        "details": "Function to redeem contribution. ",
        "params": {
          "amount": "number of tokens being redeemed"
        }
      },
      "renounceRole(bytes32,address)": {
        "details": "Revokes `role` from the calling account. Roles are often managed via {grantRole} and {revokeRole}: this function's purpose is to provide a mechanism for accounts to lose their privileges if they are compromised (such as when a trusted device is misplaced). If the calling account had been granted `role`, emits a {RoleRevoked} event. Requirements: - the caller must be `account`."
      },
      "returnCohortsForDataSubscriber(address)": {
        "details": "To return all cohorts to which data subscriber is subscribed to ",
        "params": {
          "subscriber": "- address of the subscriber"
        },
        "returns": {
          "_0": "the structure with cohort address and their types for subscriber"
        }
      },
      "revokeRole(bytes32,address)": {
        "details": "Revokes `role` from `account`. If `account` had been granted `role`, emits a {RoleRevoked} event. Requirements: - the caller must have ``role``'s admin role."
      },
      "setCohortFactory(address)": {
        "details": "to be called by administrator to set cohort Factory contract",
        "params": {
          "_cohortFactory": "cohortFactory contract"
        }
      },
      "setDataSubscriberShares(uint256,uint256)": {
        "details": "to be called by Governance contract to change enterprise and validators shares of data subscription fees. ",
        "params": {
          "_enterpriseShareSubscriber": "- share of the enterprise",
          "_validatorShareSubscriber": "- share of the subscribers"
        }
      },
      "stake(uint256)": {
        "details": "Function to accept contribution to staking",
        "params": {
          "amount": "number of AUDT tokens sent to contract for staking     "
        }
      },
      "updateDailyEarningsTransferFunds(address[],uint256[],address)": {
        "details": "to be called by scheduled calls by platform daily to save gas the process can be called at any time ",
        "params": {
          "_validators": "- list of validators eligible for earnings",
          "tokens": "- list of tokens earned by each validator"
        }
      },
      "updateEnterpriseMatch(uint256)": {
        "details": "to be called by Governance contract",
        "params": {
          "_enterpriseMatch": "new value of enterprise portion of enterprise value of validation cost"
        }
      },
      "updateMinDepositDays(uint256)": {
        "details": "to be called by Governance contract to update days to calculate enterprise min deposit requirements",
        "params": {
          "_minDepositDays": "new value of min deposit days"
        }
      },
      "updateRewards(uint256)": {
        "details": "to be called by Governance contract to update new amount for validation rewards",
        "params": {
          "_amountTokensPerValidation": "new value of reward per validation"
        }
      }
    },
    "title": "Members Allows on creation of Enterprise and Validator accounts and staking of funds by validators Validators and enterprises have ability to withdraw their staking and earnings  Contract also contains several update functions controlled by the Governance contracts",
    "version": 1
  },
  "userdoc": {
    "kind": "user",
    "methods": {},
    "version": 1
  }
}