{
  "contractName": "MemberHelpers",
  "abi": [
    {
      "inputs": [
        {
          "internalType": "address",
          "name": "_members",
          "type": "address"
        }
      ],
      "stateMutability": "nonpayable",
      "type": "constructor"
    },
    {
      "anonymous": false,
      "inputs": [
        {
          "indexed": false,
          "internalType": "uint256",
          "name": "minDepositDays",
          "type": "uint256"
        }
      ],
      "name": "LogUpdateMinDepositDays",
      "type": "event"
    },
    {
      "anonymous": false,
      "inputs": [
        {
          "indexed": true,
          "internalType": "bytes32",
          "name": "role",
          "type": "bytes32"
        },
        {
          "indexed": true,
          "internalType": "bytes32",
          "name": "previousAdminRole",
          "type": "bytes32"
        },
        {
          "indexed": true,
          "internalType": "bytes32",
          "name": "newAdminRole",
          "type": "bytes32"
        }
      ],
      "name": "RoleAdminChanged",
      "type": "event"
    },
    {
      "anonymous": false,
      "inputs": [
        {
          "indexed": true,
          "internalType": "bytes32",
          "name": "role",
          "type": "bytes32"
        },
        {
          "indexed": true,
          "internalType": "address",
          "name": "account",
          "type": "address"
        },
        {
          "indexed": true,
          "internalType": "address",
          "name": "sender",
          "type": "address"
        }
      ],
      "name": "RoleGranted",
      "type": "event"
    },
    {
      "anonymous": false,
      "inputs": [
        {
          "indexed": true,
          "internalType": "bytes32",
          "name": "role",
          "type": "bytes32"
        },
        {
          "indexed": true,
          "internalType": "address",
          "name": "account",
          "type": "address"
        },
        {
          "indexed": true,
          "internalType": "address",
          "name": "sender",
          "type": "address"
        }
      ],
      "name": "RoleRevoked",
      "type": "event"
    },
    {
      "inputs": [],
      "name": "DEFAULT_ADMIN_ROLE",
      "outputs": [
        {
          "internalType": "bytes32",
          "name": "",
          "type": "bytes32"
        }
      ],
      "stateMutability": "view",
      "type": "function",
      "constant": true
    },
    {
      "inputs": [],
      "name": "SETTER_ROLE",
      "outputs": [
        {
          "internalType": "bytes32",
          "name": "",
          "type": "bytes32"
        }
      ],
      "stateMutability": "view",
      "type": "function",
      "constant": true
    },
    {
      "inputs": [
        {
          "internalType": "bytes32",
          "name": "role",
          "type": "bytes32"
        }
      ],
      "name": "getRoleAdmin",
      "outputs": [
        {
          "internalType": "bytes32",
          "name": "",
          "type": "bytes32"
        }
      ],
      "stateMutability": "view",
      "type": "function",
      "constant": true
    },
    {
      "inputs": [
        {
          "internalType": "bytes32",
          "name": "role",
          "type": "bytes32"
        },
        {
          "internalType": "uint256",
          "name": "index",
          "type": "uint256"
        }
      ],
      "name": "getRoleMember",
      "outputs": [
        {
          "internalType": "address",
          "name": "",
          "type": "address"
        }
      ],
      "stateMutability": "view",
      "type": "function",
      "constant": true
    },
    {
      "inputs": [
        {
          "internalType": "bytes32",
          "name": "role",
          "type": "bytes32"
        }
      ],
      "name": "getRoleMemberCount",
      "outputs": [
        {
          "internalType": "uint256",
          "name": "",
          "type": "uint256"
        }
      ],
      "stateMutability": "view",
      "type": "function",
      "constant": true
    },
    {
      "inputs": [
        {
          "internalType": "bytes32",
          "name": "role",
          "type": "bytes32"
        },
        {
          "internalType": "address",
          "name": "account",
          "type": "address"
        }
      ],
      "name": "grantRole",
      "outputs": [],
      "stateMutability": "nonpayable",
      "type": "function"
    },
    {
      "inputs": [
        {
          "internalType": "bytes32",
          "name": "role",
          "type": "bytes32"
        },
        {
          "internalType": "address",
          "name": "account",
          "type": "address"
        }
      ],
      "name": "hasRole",
      "outputs": [
        {
          "internalType": "bool",
          "name": "",
          "type": "bool"
        }
      ],
      "stateMutability": "view",
      "type": "function",
      "constant": true
    },
    {
      "inputs": [],
      "name": "minDepositDays",
      "outputs": [
        {
          "internalType": "uint256",
          "name": "",
          "type": "uint256"
        }
      ],
      "stateMutability": "view",
      "type": "function",
      "constant": true
    },
    {
      "inputs": [
        {
          "internalType": "bytes32",
          "name": "role",
          "type": "bytes32"
        },
        {
          "internalType": "address",
          "name": "account",
          "type": "address"
        }
      ],
      "name": "renounceRole",
      "outputs": [],
      "stateMutability": "nonpayable",
      "type": "function"
    },
    {
      "inputs": [
        {
          "internalType": "bytes32",
          "name": "role",
          "type": "bytes32"
        },
        {
          "internalType": "address",
          "name": "account",
          "type": "address"
        }
      ],
      "name": "revokeRole",
      "outputs": [],
      "stateMutability": "nonpayable",
      "type": "function"
    },
    {
      "inputs": [
        {
          "internalType": "uint256",
          "name": "_minDepositDays",
          "type": "uint256"
        }
      ],
      "name": "updateMinDepositDays",
      "outputs": [],
      "stateMutability": "nonpayable",
      "type": "function"
    }
  ],
  "bytecode": "0x6080604052601e60015534801561001557600080fd5b5060405162000f5738038062000f578339818101604052602081101561003a57600080fd5b8101908080519060200190929190505050600073ffffffffffffffffffffffffffffffffffffffff168173ffffffffffffffffffffffffffffffffffffffff1614156100d2576040517f08c379a000000000000000000000000000000000000000000000000000000000815260040180806020018281038252603581526020018062000f226035913960400191505060405180910390fd5b80600260006101000a81548173ffffffffffffffffffffffffffffffffffffffff021916908373ffffffffffffffffffffffffffffffffffffffff1602179055506101266000801b3361012c60201b60201c565b506102b4565b61013c828261014060201b60201c565b5050565b61016b816000808581526020019081526020016000206000016101dd60201b6107071790919060201c565b156101d95761017e61021360201b60201c565b73ffffffffffffffffffffffffffffffffffffffff168173ffffffffffffffffffffffffffffffffffffffff16837f2f8788117e7eff1d82e926ec794901d17c78024a50270940304540a733656f0d60405160405180910390a45b5050565b600061020b836000018373ffffffffffffffffffffffffffffffffffffffff1660001b61021b60201b60201c565b905092915050565b600033905090565b600061022d838361029160201b60201c565b61028657826000018290806001815401808255809150506001900390600052602060002001600090919091909150558260000180549050836001016000848152602001908152602001600020819055506001905061028b565b600090505b92915050565b600080836001016000848152602001908152602001600020541415905092915050565b610c5e80620002c46000396000f3fe608060405234801561001057600080fd5b50600436106100a95760003560e01c80639010d07c116100715780639010d07c146101d857806391d148541461023a578063a2011b3f1461029e578063a217fddf146102bc578063ca15c873146102da578063d547741f1461031c576100a9565b8063248a9ca3146100ae5780632f2ff15d146100f057806336568abe1461013e5780635659ae581461018c57806374eb9cdb146101aa575b600080fd5b6100da600480360360208110156100c457600080fd5b810190808035906020019092919050505061036a565b6040518082815260200191505060405180910390f35b61013c6004803603604081101561010657600080fd5b8101908080359060200190929190803573ffffffffffffffffffffffffffffffffffffffff169060200190929190505050610389565b005b61018a6004803603604081101561015457600080fd5b8101908080359060200190929190803573ffffffffffffffffffffffffffffffffffffffff169060200190929190505050610412565b005b6101946104ab565b6040518082815260200191505060405180910390f35b6101d6600480360360208110156101c057600080fd5b81019080803590602001909291905050506104b1565b005b61020e600480360360408110156101ee57600080fd5b8101908080359060200190929190803590602001909291905050506105cb565b604051808273ffffffffffffffffffffffffffffffffffffffff16815260200191505060405180910390f35b6102866004803603604081101561025057600080fd5b8101908080359060200190929190803573ffffffffffffffffffffffffffffffffffffffff1690602001909291905050506105fc565b60405180821515815260200191505060405180910390f35b6102a661062d565b6040518082815260200191505060405180910390f35b6102c4610651565b6040518082815260200191505060405180910390f35b610306600480360360208110156102f057600080fd5b8101908080359060200190929190505050610658565b6040518082815260200191505060405180910390f35b6103686004803603604081101561033257600080fd5b8101908080359060200190929190803573ffffffffffffffffffffffffffffffffffffffff16906020019092919050505061067e565b005b6000806000838152602001908152602001600020600201549050919050565b6103af600080848152602001908152602001600020600201546103aa610737565b6105fc565b610404576040517f08c379a000000000000000000000000000000000000000000000000000000000815260040180806020018281038252602f815260200180610b26602f913960400191505060405180910390fd5b61040e828261073f565b5050565b61041a610737565b73ffffffffffffffffffffffffffffffffffffffff168173ffffffffffffffffffffffffffffffffffffffff161461049d576040517f08c379a000000000000000000000000000000000000000000000000000000000815260040180806020018281038252602f815260200180610bfa602f913960400191505060405180910390fd5b6104a782826107d2565b5050565b60015481565b6104db7f61c92169ef077349011ff0b1383c894d86c5f0b41d986366b58a6cf31e93beda336105fc565b610530576040517f08c379a0000000000000000000000000000000000000000000000000000000008152600401808060200182810382526029815260200180610b856029913960400191505060405180910390fd5b600081141561058a576040517f08c379a000000000000000000000000000000000000000000000000000000000815260040180806020018281038252604c815260200180610bae604c913960600191505060405180910390fd5b806001819055507f3ef37ec580f71948d160049e31c67ac1e6fc9711038f837710cdfaf9074d7b85816040518082815260200191505060405180910390a150565b60006105f48260008086815260200190815260200160002060000161086590919063ffffffff16565b905092915050565b60006106258260008086815260200190815260200160002060000161087f90919063ffffffff16565b905092915050565b7f61c92169ef077349011ff0b1383c894d86c5f0b41d986366b58a6cf31e93beda81565b6000801b81565b60006106776000808481526020019081526020016000206000016108af565b9050919050565b6106a46000808481526020019081526020016000206002015461069f610737565b6105fc565b6106f9576040517f08c379a0000000000000000000000000000000000000000000000000000000008152600401808060200182810382526030815260200180610b556030913960400191505060405180910390fd5b61070382826107d2565b5050565b600061072f836000018373ffffffffffffffffffffffffffffffffffffffff1660001b6108c4565b905092915050565b600033905090565b6107668160008085815260200190815260200160002060000161070790919063ffffffff16565b156107ce57610773610737565b73ffffffffffffffffffffffffffffffffffffffff168173ffffffffffffffffffffffffffffffffffffffff16837f2f8788117e7eff1d82e926ec794901d17c78024a50270940304540a733656f0d60405160405180910390a45b5050565b6107f98160008085815260200190815260200160002060000161093490919063ffffffff16565b1561086157610806610737565b73ffffffffffffffffffffffffffffffffffffffff168173ffffffffffffffffffffffffffffffffffffffff16837ff6391f5c32d9c69d2a47ea670b442974b53935d1edc7fd64eb21e047a839171b60405160405180910390a45b5050565b60006108748360000183610964565b60001c905092915050565b60006108a7836000018373ffffffffffffffffffffffffffffffffffffffff1660001b6109e7565b905092915050565b60006108bd82600001610a0a565b9050919050565b60006108d083836109e7565b61092957826000018290806001815401808255809150506001900390600052602060002001600090919091909150558260000180549050836001016000848152602001908152602001600020819055506001905061092e565b600090505b92915050565b600061095c836000018373ffffffffffffffffffffffffffffffffffffffff1660001b610a1b565b905092915050565b6000818360000180549050116109c5576040517f08c379a0000000000000000000000000000000000000000000000000000000008152600401808060200182810382526022815260200180610b046022913960400191505060405180910390fd5b8260000182815481106109d457fe5b9060005260206000200154905092915050565b600080836001016000848152602001908152602001600020541415905092915050565b600081600001805490509050919050565b60008083600101600084815260200190815260200160002054905060008114610af75760006001820390506000600186600001805490500390506000866000018281548110610a6657fe5b9060005260206000200154905080876000018481548110610a8357fe5b9060005260206000200181905550600183018760010160008381526020019081526020016000208190555086600001805480610abb57fe5b60019003818190600052602060002001600090559055866001016000878152602001908152602001600020600090556001945050505050610afd565b60009150505b9291505056fe456e756d657261626c655365743a20696e646578206f7574206f6620626f756e6473416363657373436f6e74726f6c3a2073656e646572206d75737420626520616e2061646d696e20746f206772616e74416363657373436f6e74726f6c3a2073656e646572206d75737420626520616e2061646d696e20746f207265766f6b654d656d626572733a6973536574746572202d2043616c6c6572206973206e6f742061207365747465724d656d626572733a7570646174654d696e4465706f73697444617973202d204e65772076616c756520666f7220746865206d696e206465706f73697420646179732063616e27742062652030416363657373436f6e74726f6c3a2063616e206f6e6c792072656e6f756e636520726f6c657320666f722073656c66a26469706673582212201e54e75b6d58f40e050759c482725663231d175eed012b0891575972987d467564736f6c634300070600334d656d62657248656c706572733a636f6e7374727563746f72202d204d656d62657220616464726573732063616e27742062652030",
  "immutableReferences": {},
  "source": "// SPDX-License-Identifier: MIT\r\npragma solidity =0.7.6;\r\nimport \"./Members.sol\";\r\nimport \"@openzeppelin/contracts/access/AccessControl.sol\";\r\n\r\n/**\r\n * @title MemberHelpers\r\n * Additional function for Members \r\n */\r\ncontract MemberHelpers is  AccessControl {\r\n\r\n    bytes32 public constant SETTER_ROLE =  keccak256(\"SETTER_ROLE\");\r\n    uint256 public minDepositDays = 30;\r\n\r\n \r\n\r\n    event LogUpdateMinDepositDays(uint256 minDepositDays);\r\n\r\n    Members members;\r\n\r\n    constructor(address  _members ) {\r\n        require(_members != address(0), \"MemberHelpers:constructor - Member address can't be 0\");\r\n        members = Members(_members);\r\n        _setupRole(DEFAULT_ADMIN_ROLE, msg.sender);\r\n    }\r\n\r\n\r\n   /// @dev check if caller is a setter     \r\n    modifier isSetter {\r\n        require(hasRole(SETTER_ROLE, msg.sender), \"Members:isSetter - Caller is not a setter\");\r\n\r\n        _;\r\n    }\r\n\r\n    \r\n    // /*\r\n    // * @dev return name of the enterprise\r\n    // * @param enterprise to return the name\r\n    // */\r\n    // function returnEnterpriseName(address enterprise) public view returns (string memory) {\r\n\r\n    //     for (uint256 i = 0; i < members.enterpriseCount(); i++){\r\n    //         (address user, string memory name) = members.enterprises(i);\r\n\r\n    //         if (user == enterprise)\r\n    //             return name;\r\n    //     }\r\n    //     return \"Not Enterprise\";\r\n    // }\r\n\r\n    // /*\r\n    // * @dev return name of the validator\r\n    // * @param validator to return the name\r\n    // */\r\n    // function returnValidatorName(address validator) public view returns (string memory) {\r\n\r\n    //     for (uint256 i = 0; i < members.returnValidatorCount(); i++){\r\n\r\n    //         (address user, string memory name) = members.validators(i);\r\n    //         if (user == validator)\r\n    //             return name;\r\n    //     }\r\n    //     return \"Not Validator\";\r\n    // }\r\n    \r\n\r\n    // /*\r\n    // * @dev return name of the data subscriber\r\n    // * @param validator to return the name\r\n    // */\r\n    // function returnDataSubscriberName(address dataSubscribers) public view returns (string memory) {\r\n\r\n    //     for (uint256 i = 0; i < members.returnDataSubscriberCount(); i++){\r\n    //         (address user, string memory name) = members.dataSubscribers(i);\r\n    //         if (user == dataSubscribers)\r\n    //             return name;\r\n    //     }\r\n    //     return \"Not Data Subscriber\";\r\n    // }\r\n\r\n\r\n    /**\r\n    * @dev to be called by Governance contract to update days to calculate enterprise min deposit requirements\r\n    * @param _minDepositDays new value of min deposit days\r\n    */\r\n    function updateMinDepositDays(uint256 _minDepositDays) public isSetter()  {\r\n\r\n        require(_minDepositDays != 0, \"Members:updateMinDepositDays - New value for the min deposit days can't be 0\");\r\n        minDepositDays = _minDepositDays;\r\n        emit LogUpdateMinDepositDays(_minDepositDays);\r\n    }\r\n\r\n    \r\n}",
  "sourcePath": "/home/bogdan/Ethereum/Projects/TGE/Core-Smart-Contracts-v1/contracts/Auditchain/MemberHelpers.sol",
  "compiler": {
    "name": "solc",
    "version": "0.7.6+commit.7338295f.Emscripten.clang"
  },
  "schemaVersion": "3.4.0",
  "updatedAt": "2021-05-18T18:33:06.813Z",
  "networkType": "ethereum",
  "devdoc": {
    "kind": "dev",
    "methods": {
      "getRoleAdmin(bytes32)": {
        "details": "Returns the admin role that controls `role`. See {grantRole} and {revokeRole}. To change a role's admin, use {_setRoleAdmin}."
      },
      "getRoleMember(bytes32,uint256)": {
        "details": "Returns one of the accounts that have `role`. `index` must be a value between 0 and {getRoleMemberCount}, non-inclusive. Role bearers are not sorted in any particular way, and their ordering may change at any point. WARNING: When using {getRoleMember} and {getRoleMemberCount}, make sure you perform all queries on the same block. See the following https://forum.openzeppelin.com/t/iterating-over-elements-on-enumerableset-in-openzeppelin-contracts/2296[forum post] for more information."
      },
      "getRoleMemberCount(bytes32)": {
        "details": "Returns the number of accounts that have `role`. Can be used together with {getRoleMember} to enumerate all bearers of a role."
      },
      "grantRole(bytes32,address)": {
        "details": "Grants `role` to `account`. If `account` had not been already granted `role`, emits a {RoleGranted} event. Requirements: - the caller must have ``role``'s admin role."
      },
      "hasRole(bytes32,address)": {
        "details": "Returns `true` if `account` has been granted `role`."
      },
      "renounceRole(bytes32,address)": {
        "details": "Revokes `role` from the calling account. Roles are often managed via {grantRole} and {revokeRole}: this function's purpose is to provide a mechanism for accounts to lose their privileges if they are compromised (such as when a trusted device is misplaced). If the calling account had been granted `role`, emits a {RoleRevoked} event. Requirements: - the caller must be `account`."
      },
      "revokeRole(bytes32,address)": {
        "details": "Revokes `role` from `account`. If `account` had been granted `role`, emits a {RoleRevoked} event. Requirements: - the caller must have ``role``'s admin role."
      },
      "updateMinDepositDays(uint256)": {
        "details": "to be called by Governance contract to update days to calculate enterprise min deposit requirements",
        "params": {
          "_minDepositDays": "new value of min deposit days"
        }
      }
    },
    "title": "MemberHelpers Additional function for Members ",
    "version": 1
  },
  "userdoc": {
    "kind": "user",
    "methods": {},
    "version": 1
  }
}