{
  "contractName": "Members",
  "abi": [
    {
      "inputs": [
        {
          "internalType": "contract AuditToken",
          "name": "_auditToken",
          "type": "address"
        },
        {
          "internalType": "address",
          "name": "_platformAddress",
          "type": "address"
        }
      ],
      "stateMutability": "nonpayable",
      "type": "constructor"
    },
    {
      "anonymous": false,
      "inputs": [
        {
          "indexed": true,
          "internalType": "address",
          "name": "from",
          "type": "address"
        },
        {
          "indexed": false,
          "internalType": "uint256",
          "name": "accessFee",
          "type": "uint256"
        },
        {
          "indexed": false,
          "internalType": "address",
          "name": "cohortAddress",
          "type": "address"
        },
        {
          "indexed": false,
          "internalType": "address",
          "name": "enterprise",
          "type": "address"
        },
        {
          "indexed": false,
          "internalType": "uint256",
          "name": "enterpriseShare",
          "type": "uint256"
        }
      ],
      "name": "LogDataSubscriberPaid",
      "type": "event"
    },
    {
      "anonymous": false,
      "inputs": [
        {
          "indexed": false,
          "internalType": "address",
          "name": "from",
          "type": "address"
        },
        {
          "indexed": true,
          "internalType": "address",
          "name": "validator",
          "type": "address"
        },
        {
          "indexed": false,
          "internalType": "uint256",
          "name": "amount",
          "type": "uint256"
        }
      ],
      "name": "LogDataSubscriberValidatorPaid",
      "type": "event"
    },
    {
      "anonymous": false,
      "inputs": [
        {
          "indexed": true,
          "internalType": "address",
          "name": "from",
          "type": "address"
        },
        {
          "indexed": false,
          "internalType": "uint256",
          "name": "amount",
          "type": "uint256"
        }
      ],
      "name": "LogDepositReceived",
      "type": "event"
    },
    {
      "anonymous": false,
      "inputs": [
        {
          "indexed": false,
          "internalType": "address",
          "name": "cohort",
          "type": "address"
        },
        {
          "indexed": false,
          "internalType": "uint256",
          "name": "tokens",
          "type": "uint256"
        },
        {
          "indexed": false,
          "internalType": "uint256",
          "name": "enterpriseAmount",
          "type": "uint256"
        },
        {
          "indexed": true,
          "internalType": "address",
          "name": "enterprise",
          "type": "address"
        }
      ],
      "name": "LogRewardsDeposited",
      "type": "event"
    },
    {
      "anonymous": false,
      "inputs": [
        {
          "indexed": true,
          "internalType": "address",
          "name": "validator",
          "type": "address"
        },
        {
          "indexed": false,
          "internalType": "uint256",
          "name": "tokens",
          "type": "uint256"
        }
      ],
      "name": "LogRewardsReceived",
      "type": "event"
    },
    {
      "anonymous": false,
      "inputs": [
        {
          "indexed": true,
          "internalType": "address",
          "name": "from",
          "type": "address"
        },
        {
          "indexed": false,
          "internalType": "uint256",
          "name": "amount",
          "type": "uint256"
        }
      ],
      "name": "LogRewardsRedeemed",
      "type": "event"
    },
    {
      "anonymous": false,
      "inputs": [
        {
          "indexed": false,
          "internalType": "address",
          "name": "subscriber",
          "type": "address"
        },
        {
          "indexed": false,
          "internalType": "uint256",
          "name": "numberOfSubscriptions",
          "type": "uint256"
        }
      ],
      "name": "LogSubscriptionCompleted",
      "type": "event"
    },
    {
      "anonymous": false,
      "inputs": [
        {
          "indexed": false,
          "internalType": "uint256",
          "name": "portion",
          "type": "uint256"
        }
      ],
      "name": "LogUpdateEnterpriseMatch",
      "type": "event"
    },
    {
      "anonymous": false,
      "inputs": [
        {
          "indexed": false,
          "internalType": "uint256",
          "name": "rewards",
          "type": "uint256"
        }
      ],
      "name": "LogUpdateRewards",
      "type": "event"
    },
    {
      "anonymous": false,
      "inputs": [
        {
          "indexed": true,
          "internalType": "bytes32",
          "name": "role",
          "type": "bytes32"
        },
        {
          "indexed": true,
          "internalType": "bytes32",
          "name": "previousAdminRole",
          "type": "bytes32"
        },
        {
          "indexed": true,
          "internalType": "bytes32",
          "name": "newAdminRole",
          "type": "bytes32"
        }
      ],
      "name": "RoleAdminChanged",
      "type": "event"
    },
    {
      "anonymous": false,
      "inputs": [
        {
          "indexed": true,
          "internalType": "bytes32",
          "name": "role",
          "type": "bytes32"
        },
        {
          "indexed": true,
          "internalType": "address",
          "name": "account",
          "type": "address"
        },
        {
          "indexed": true,
          "internalType": "address",
          "name": "sender",
          "type": "address"
        }
      ],
      "name": "RoleGranted",
      "type": "event"
    },
    {
      "anonymous": false,
      "inputs": [
        {
          "indexed": true,
          "internalType": "bytes32",
          "name": "role",
          "type": "bytes32"
        },
        {
          "indexed": true,
          "internalType": "address",
          "name": "account",
          "type": "address"
        },
        {
          "indexed": true,
          "internalType": "address",
          "name": "sender",
          "type": "address"
        }
      ],
      "name": "RoleRevoked",
      "type": "event"
    },
    {
      "anonymous": false,
      "inputs": [
        {
          "indexed": true,
          "internalType": "address",
          "name": "user",
          "type": "address"
        },
        {
          "indexed": false,
          "internalType": "string",
          "name": "name",
          "type": "string"
        },
        {
          "indexed": false,
          "internalType": "enum Members.UserType",
          "name": "userType",
          "type": "uint8"
        }
      ],
      "name": "UserAdded",
      "type": "event"
    },
    {
      "inputs": [],
      "name": "CONTROLLER_ROLE",
      "outputs": [
        {
          "internalType": "bytes32",
          "name": "",
          "type": "bytes32"
        }
      ],
      "stateMutability": "view",
      "type": "function",
      "constant": true
    },
    {
      "inputs": [],
      "name": "DEFAULT_ADMIN_ROLE",
      "outputs": [
        {
          "internalType": "bytes32",
          "name": "",
          "type": "bytes32"
        }
      ],
      "stateMutability": "view",
      "type": "function",
      "constant": true
    },
    {
      "inputs": [],
      "name": "SETTER_ROLE",
      "outputs": [
        {
          "internalType": "bytes32",
          "name": "",
          "type": "bytes32"
        }
      ],
      "stateMutability": "view",
      "type": "function",
      "constant": true
    },
    {
      "inputs": [],
      "name": "accessFee",
      "outputs": [
        {
          "internalType": "uint256",
          "name": "",
          "type": "uint256"
        }
      ],
      "stateMutability": "view",
      "type": "function",
      "constant": true
    },
    {
      "inputs": [],
      "name": "amountTokensPerValidation",
      "outputs": [
        {
          "internalType": "uint256",
          "name": "",
          "type": "uint256"
        }
      ],
      "stateMutability": "view",
      "type": "function",
      "constant": true
    },
    {
      "inputs": [],
      "name": "auditToken",
      "outputs": [
        {
          "internalType": "contract AuditToken",
          "name": "",
          "type": "address"
        }
      ],
      "stateMutability": "view",
      "type": "function",
      "constant": true
    },
    {
      "inputs": [],
      "name": "cohortFactory",
      "outputs": [
        {
          "internalType": "contract ICohortFactory",
          "name": "",
          "type": "address"
        }
      ],
      "stateMutability": "view",
      "type": "function",
      "constant": true
    },
    {
      "inputs": [
        {
          "internalType": "address",
          "name": "",
          "type": "address"
        },
        {
          "internalType": "address",
          "name": "",
          "type": "address"
        }
      ],
      "name": "dataSubscriberCohortMap",
      "outputs": [
        {
          "internalType": "bool",
          "name": "",
          "type": "bool"
        }
      ],
      "stateMutability": "view",
      "type": "function",
      "constant": true
    },
    {
      "inputs": [
        {
          "internalType": "address",
          "name": "",
          "type": "address"
        },
        {
          "internalType": "uint256",
          "name": "",
          "type": "uint256"
        }
      ],
      "name": "dataSubscriberCohorts",
      "outputs": [
        {
          "internalType": "address",
          "name": "cohort",
          "type": "address"
        },
        {
          "internalType": "uint256",
          "name": "audits",
          "type": "uint256"
        }
      ],
      "stateMutability": "view",
      "type": "function",
      "constant": true
    },
    {
      "inputs": [],
      "name": "dataSubscriberCount",
      "outputs": [
        {
          "internalType": "uint256",
          "name": "",
          "type": "uint256"
        }
      ],
      "stateMutability": "view",
      "type": "function",
      "constant": true
    },
    {
      "inputs": [
        {
          "internalType": "address",
          "name": "",
          "type": "address"
        }
      ],
      "name": "deposits",
      "outputs": [
        {
          "internalType": "uint256",
          "name": "",
          "type": "uint256"
        }
      ],
      "stateMutability": "view",
      "type": "function",
      "constant": true
    },
    {
      "inputs": [],
      "name": "enterpriseCount",
      "outputs": [
        {
          "internalType": "uint256",
          "name": "",
          "type": "uint256"
        }
      ],
      "stateMutability": "view",
      "type": "function",
      "constant": true
    },
    {
      "inputs": [],
      "name": "enterpriseMatch",
      "outputs": [
        {
          "internalType": "uint256",
          "name": "",
          "type": "uint256"
        }
      ],
      "stateMutability": "view",
      "type": "function",
      "constant": true
    },
    {
      "inputs": [],
      "name": "enterpriseShareSubscriber",
      "outputs": [
        {
          "internalType": "uint256",
          "name": "",
          "type": "uint256"
        }
      ],
      "stateMutability": "view",
      "type": "function",
      "constant": true
    },
    {
      "inputs": [
        {
          "internalType": "bytes32",
          "name": "role",
          "type": "bytes32"
        }
      ],
      "name": "getRoleAdmin",
      "outputs": [
        {
          "internalType": "bytes32",
          "name": "",
          "type": "bytes32"
        }
      ],
      "stateMutability": "view",
      "type": "function",
      "constant": true
    },
    {
      "inputs": [
        {
          "internalType": "bytes32",
          "name": "role",
          "type": "bytes32"
        },
        {
          "internalType": "uint256",
          "name": "index",
          "type": "uint256"
        }
      ],
      "name": "getRoleMember",
      "outputs": [
        {
          "internalType": "address",
          "name": "",
          "type": "address"
        }
      ],
      "stateMutability": "view",
      "type": "function",
      "constant": true
    },
    {
      "inputs": [
        {
          "internalType": "bytes32",
          "name": "role",
          "type": "bytes32"
        }
      ],
      "name": "getRoleMemberCount",
      "outputs": [
        {
          "internalType": "uint256",
          "name": "",
          "type": "uint256"
        }
      ],
      "stateMutability": "view",
      "type": "function",
      "constant": true
    },
    {
      "inputs": [
        {
          "internalType": "bytes32",
          "name": "role",
          "type": "bytes32"
        },
        {
          "internalType": "address",
          "name": "account",
          "type": "address"
        }
      ],
      "name": "grantRole",
      "outputs": [],
      "stateMutability": "nonpayable",
      "type": "function"
    },
    {
      "inputs": [
        {
          "internalType": "bytes32",
          "name": "role",
          "type": "bytes32"
        },
        {
          "internalType": "address",
          "name": "account",
          "type": "address"
        }
      ],
      "name": "hasRole",
      "outputs": [
        {
          "internalType": "bool",
          "name": "",
          "type": "bool"
        }
      ],
      "stateMutability": "view",
      "type": "function",
      "constant": true
    },
    {
      "inputs": [],
      "name": "platformAddress",
      "outputs": [
        {
          "internalType": "address",
          "name": "",
          "type": "address"
        }
      ],
      "stateMutability": "view",
      "type": "function",
      "constant": true
    },
    {
      "inputs": [],
      "name": "platformShareValidation",
      "outputs": [
        {
          "internalType": "uint256",
          "name": "",
          "type": "uint256"
        }
      ],
      "stateMutability": "view",
      "type": "function",
      "constant": true
    },
    {
      "inputs": [],
      "name": "recentBlockUpdated",
      "outputs": [
        {
          "internalType": "uint256",
          "name": "",
          "type": "uint256"
        }
      ],
      "stateMutability": "view",
      "type": "function",
      "constant": true
    },
    {
      "inputs": [
        {
          "internalType": "bytes32",
          "name": "role",
          "type": "bytes32"
        },
        {
          "internalType": "address",
          "name": "account",
          "type": "address"
        }
      ],
      "name": "renounceRole",
      "outputs": [],
      "stateMutability": "nonpayable",
      "type": "function"
    },
    {
      "inputs": [
        {
          "internalType": "bytes32",
          "name": "role",
          "type": "bytes32"
        },
        {
          "internalType": "address",
          "name": "account",
          "type": "address"
        }
      ],
      "name": "revokeRole",
      "outputs": [],
      "stateMutability": "nonpayable",
      "type": "function"
    },
    {
      "inputs": [],
      "name": "stakedAmount",
      "outputs": [
        {
          "internalType": "uint256",
          "name": "",
          "type": "uint256"
        }
      ],
      "stateMutability": "view",
      "type": "function",
      "constant": true
    },
    {
      "inputs": [
        {
          "internalType": "address",
          "name": "",
          "type": "address"
        },
        {
          "internalType": "enum Members.UserType",
          "name": "",
          "type": "uint8"
        }
      ],
      "name": "user",
      "outputs": [
        {
          "internalType": "string",
          "name": "",
          "type": "string"
        }
      ],
      "stateMutability": "view",
      "type": "function",
      "constant": true
    },
    {
      "inputs": [
        {
          "internalType": "address",
          "name": "",
          "type": "address"
        },
        {
          "internalType": "enum Members.UserType",
          "name": "",
          "type": "uint8"
        }
      ],
      "name": "userMap",
      "outputs": [
        {
          "internalType": "bool",
          "name": "",
          "type": "bool"
        }
      ],
      "stateMutability": "view",
      "type": "function",
      "constant": true
    },
    {
      "inputs": [],
      "name": "validatorCount",
      "outputs": [
        {
          "internalType": "uint256",
          "name": "",
          "type": "uint256"
        }
      ],
      "stateMutability": "view",
      "type": "function",
      "constant": true
    },
    {
      "inputs": [],
      "name": "validatorShareSubscriber",
      "outputs": [
        {
          "internalType": "uint256",
          "name": "",
          "type": "uint256"
        }
      ],
      "stateMutability": "view",
      "type": "function",
      "constant": true
    },
    {
      "inputs": [
        {
          "internalType": "address",
          "name": "_cohortFactory",
          "type": "address"
        }
      ],
      "name": "setCohortFactory",
      "outputs": [],
      "stateMutability": "nonpayable",
      "type": "function"
    },
    {
      "inputs": [
        {
          "internalType": "uint256",
          "name": "_amountTokensPerValidation",
          "type": "uint256"
        }
      ],
      "name": "updateRewards",
      "outputs": [],
      "stateMutability": "nonpayable",
      "type": "function"
    },
    {
      "inputs": [
        {
          "internalType": "uint256",
          "name": "_enterpriseMatch",
          "type": "uint256"
        }
      ],
      "name": "updateEnterpriseMatch",
      "outputs": [],
      "stateMutability": "nonpayable",
      "type": "function"
    },
    {
      "inputs": [
        {
          "internalType": "uint256",
          "name": "_enterpriseShareSubscriber",
          "type": "uint256"
        },
        {
          "internalType": "uint256",
          "name": "_validatorShareSubscriber",
          "type": "uint256"
        }
      ],
      "name": "setDataSubscriberShares",
      "outputs": [],
      "stateMutability": "nonpayable",
      "type": "function"
    },
    {
      "inputs": [
        {
          "internalType": "uint256",
          "name": "amount",
          "type": "uint256"
        }
      ],
      "name": "stake",
      "outputs": [],
      "stateMutability": "nonpayable",
      "type": "function"
    },
    {
      "inputs": [
        {
          "internalType": "address[]",
          "name": "_validators",
          "type": "address[]"
        },
        {
          "internalType": "uint256[]",
          "name": "tokens",
          "type": "uint256[]"
        },
        {
          "internalType": "address",
          "name": "cohort",
          "type": "address"
        }
      ],
      "name": "updateDailyEarningsTransferFunds",
      "outputs": [],
      "stateMutability": "nonpayable",
      "type": "function"
    },
    {
      "inputs": [
        {
          "internalType": "address[]",
          "name": "_validators",
          "type": "address[]"
        }
      ],
      "name": "processPayment",
      "outputs": [],
      "stateMutability": "nonpayable",
      "type": "function"
    },
    {
      "inputs": [
        {
          "internalType": "address",
          "name": "cohortAddress",
          "type": "address"
        },
        {
          "internalType": "uint256",
          "name": "audits",
          "type": "uint256"
        }
      ],
      "name": "dataSubscriberPayment",
      "outputs": [],
      "stateMutability": "nonpayable",
      "type": "function"
    },
    {
      "inputs": [
        {
          "internalType": "address",
          "name": "subscriber",
          "type": "address"
        }
      ],
      "name": "returnCohortsForDataSubscriber",
      "outputs": [
        {
          "components": [
            {
              "internalType": "address",
              "name": "cohort",
              "type": "address"
            },
            {
              "internalType": "uint256",
              "name": "audits",
              "type": "uint256"
            }
          ],
          "internalType": "struct Members.DataSubscriberTypes[]",
          "name": "",
          "type": "tuple[]"
        }
      ],
      "stateMutability": "view",
      "type": "function",
      "constant": true
    },
    {
      "inputs": [
        {
          "internalType": "address[]",
          "name": "cohortAddress",
          "type": "address[]"
        },
        {
          "internalType": "uint256[]",
          "name": "audits",
          "type": "uint256[]"
        }
      ],
      "name": "dataSubscriberPaymentMultiple",
      "outputs": [],
      "stateMutability": "nonpayable",
      "type": "function"
    },
    {
      "inputs": [
        {
          "internalType": "uint256",
          "name": "amount",
          "type": "uint256"
        }
      ],
      "name": "redeem",
      "outputs": [],
      "stateMutability": "nonpayable",
      "type": "function"
    },
    {
      "inputs": [
        {
          "internalType": "address",
          "name": "newUser",
          "type": "address"
        },
        {
          "internalType": "string",
          "name": "name",
          "type": "string"
        },
        {
          "internalType": "enum Members.UserType",
          "name": "userType",
          "type": "uint8"
        }
      ],
      "name": "addUser",
      "outputs": [],
      "stateMutability": "nonpayable",
      "type": "function"
    }
  ],
  "bytecode": "0x6080604052670de0b6b3a7640000600755683635c9adc5dea0000060085560286009556028600a55600f600c5560c8600e553480156200003e57600080fd5b506040516200611a3803806200611a8339818101604052810190620000649190620003ad565b600073ffffffffffffffffffffffffffffffffffffffff168273ffffffffffffffffffffffffffffffffffffffff161415620000d7576040517f08c379a0000000000000000000000000000000000000000000000000000000008152600401620000ce90620004be565b60405180910390fd5b600073ffffffffffffffffffffffffffffffffffffffff168173ffffffffffffffffffffffffffffffffffffffff1614156200014a576040517f08c379a00000000000000000000000000000000000000000000000000000000081526004016200014190620004e0565b60405180910390fd5b81600160006101000a81548173ffffffffffffffffffffffffffffffffffffffff021916908373ffffffffffffffffffffffffffffffffffffffff16021790555080600b60006101000a81548173ffffffffffffffffffffffffffffffffffffffff021916908373ffffffffffffffffffffffffffffffffffffffff160217905550620001e16000801b33620001e960201b60201c565b50506200058f565b620001fb8282620001ff60201b60201c565b5050565b6200022d81600080858152602001908152602001600020600001620002a260201b620032a41790919060201c565b156200029e5762000243620002da60201b60201c565b73ffffffffffffffffffffffffffffffffffffffff168173ffffffffffffffffffffffffffffffffffffffff16837f2f8788117e7eff1d82e926ec794901d17c78024a50270940304540a733656f0d60405160405180910390a45b5050565b6000620002d2836000018373ffffffffffffffffffffffffffffffffffffffff1660001b620002e260201b60201c565b905092915050565b600033905090565b6000620002f683836200035c60201b60201c565b6200035157826000018290806001815401808255809150506001900390600052602060002001600090919091909150558260000180549050836001016000848152602001908152602001600020819055506001905062000356565b600090505b92915050565b600080836001016000848152602001908152602001600020541415905092915050565b60008151905062000390816200055b565b92915050565b600081519050620003a78162000575565b92915050565b60008060408385031215620003c157600080fd5b6000620003d18582860162000396565b9250506020620003e4858286016200037f565b9150509250929050565b6000620003fd60348362000502565b91507f4d656d626572733a636f6e7374727563746f72202d20417564697420746f6b6560008301527f6e20616464726573732063616e277420626520300000000000000000000000006020830152604082019050919050565b60006200046560318362000502565b91507f4d656d626572733a636f6e7374727563746f72202d20506c6174666f726d206160008301527f6464726573732063616e277420626520300000000000000000000000000000006020830152604082019050919050565b60006020820190508181036000830152620004d981620003ee565b9050919050565b60006020820190508181036000830152620004fb8162000456565b9050919050565b600082825260208201905092915050565b600062000520826200053b565b9050919050565b6000620005348262000513565b9050919050565b600073ffffffffffffffffffffffffffffffffffffffff82169050919050565b620005668162000513565b81146200057257600080fd5b50565b620005808162000527565b81146200058c57600080fd5b50565b615b7b806200059f6000396000f3fe608060405234801561001057600080fd5b50600436106102535760003560e01c806378f5a6ae11610146578063a7579be8116100c3578063d547741f11610087578063d547741f146106fd578063dac95d4114610719578063db006a7514610737578063dbe55e5614610753578063e9b6c97514610771578063fc7e286d1461078f57610253565b8063a7579be814610645578063b1e95e9414610663578063ba0e142f1461067f578063ca15c873146106af578063cb66dbe8146106df57610253565b806391d148541161010a57806391d148541461059f57806398c3c116146105cf578063a2011b3f146105ed578063a217fddf1461060b578063a694fc3a1461062957610253565b806378f5a6ae146104d65780637ca5e8d31461050657806382d51ba8146105225780638ab134e8146105535780639010d07c1461056f57610253565b806340d26854116101d45780634d9c798c116101985780634d9c798c14610432578063525d14d8146104505780635c3e15211461046c578063662cc715146104885780636f9cf985146104a657610253565b806340d26854146103a2578063492b85cd146103be578063495348d0146103dc5780634a9fcdce146103f85780634bd4545f1461041457610253565b80632f2ff15d1161021b5780632f2ff15d146102fe57806332cd42441461031a5780633507abaf1461034a57806336568abe14610368578063373d61321461038457610253565b8063092c5b3b146102585780630acf09d8146102765780630c13f833146102945780630f43a677146102b0578063248a9ca3146102ce575b600080fd5b6102606107bf565b60405161026d91906153c9565b60405180910390f35b61027e6107e3565b60405161028b91906156ec565b60405180910390f35b6102ae60048036038101906102a991906147f9565b6107e9565b005b6102b86108d7565b6040516102c591906156ec565b60405180910390f35b6102e860048036038101906102e39190614758565b6108dd565b6040516102f591906153c9565b60405180910390f35b61031860048036038101906103139190614781565b6108fc565b005b610334600480360381019061032f9190614455565b610985565b604051610341919061538c565b60405180910390f35b610352610a83565b60405161035f91906156ec565b60405180910390f35b610382600480360381019061037d9190614781565b610a89565b005b61038c610b22565b60405161039991906156ec565b60405180910390f35b6103bc60048036038101906103b7919061451f565b610b28565b005b6103c6610e33565b6040516103d391906156ec565b60405180910390f35b6103f660048036038101906103f19190614455565b610e39565b005b610412600480360381019061040d91906146b0565b610f56565b005b61041c611683565b60405161042991906153ff565b60405180910390f35b61043a6116a9565b60405161044791906156ec565b60405180910390f35b61046a60048036038101906104659190614644565b6116af565b005b6104866004803603810190610481919061484b565b611781565b005b610490611854565b60405161049d91906156ec565b60405180910390f35b6104c060048036038101906104bb91906144e3565b61185a565b6040516104cd91906153ae565b60405180910390f35b6104f060048036038101906104eb91906144a7565b611889565b6040516104fd91906153ae565b60405180910390f35b610520600480360381019061051b91906145c2565b6118b8565b005b61053c60048036038101906105379190614586565b611df4565b60405161054a92919061532c565b60405180910390f35b61056d60048036038101906105689190614586565b611e55565b005b610589600480360381019061058491906147bd565b6127b1565b60405161059691906152b1565b60405180910390f35b6105b960048036038101906105b49190614781565b6127e2565b6040516105c691906153ae565b60405180910390f35b6105d7612813565b6040516105e491906153e4565b60405180910390f35b6105f5612839565b60405161060291906153c9565b60405180910390f35b61061361285d565b60405161062091906153c9565b60405180910390f35b610643600480360381019061063e91906147f9565b612864565b005b61064d612cbd565b60405161065a91906156ec565b60405180910390f35b61067d600480360381019061067891906147f9565b612cc3565b005b610699600480360381019061069491906144e3565b612db1565b6040516106a6919061541a565b60405180910390f35b6106c960048036038101906106c49190614758565b612e6e565b6040516106d691906156ec565b60405180910390f35b6106e7612e94565b6040516106f491906156ec565b60405180910390f35b61071760048036038101906107129190614781565b612e9a565b005b610721612f23565b60405161072e91906156ec565b60405180910390f35b610751600480360381019061074c91906147f9565b612f29565b005b61075b613260565b60405161076891906152b1565b60405180910390f35b610779613286565b60405161078691906156ec565b60405180910390f35b6107a960048036038101906107a49190614455565b61328c565b6040516107b691906156ec565b60405180910390f35b7f7b765e0e932d348852a6f810bfa1ab891e259123f02db8cdcde614c57022335781565b600d5481565b6108137f61c92169ef077349011ff0b1383c894d86c5f0b41d986366b58a6cf31e93beda336127e2565b610852576040517f08c379a00000000000000000000000000000000000000000000000000000000081526004016108499061558c565b60405180910390fd5b6000811415610896576040517f08c379a000000000000000000000000000000000000000000000000000000000815260040161088d906154ac565b60405180910390fd5b80600e819055507f993e68e99eaf9d58cf27bbe7a3e2392d07c3fcddc07ed570962f7702b592c24a816040516108cc91906156ec565b60405180910390a150565b60125481565b6000806000838152602001908152602001600020600201549050919050565b6109226000808481526020019081526020016000206002015461091d6132d4565b6127e2565b610977576040517f08c379a000000000000000000000000000000000000000000000000000000000815260040180806020018281038252602f815260200180615a47602f913960400191505060405180910390fd5b61098182826132dc565b5050565b6060600560008373ffffffffffffffffffffffffffffffffffffffff1673ffffffffffffffffffffffffffffffffffffffff168152602001908152602001600020805480602002602001604051908101604052809291908181526020016000905b82821015610a7857838290600052602060002090600202016040518060400160405290816000820160009054906101000a900473ffffffffffffffffffffffffffffffffffffffff1673ffffffffffffffffffffffffffffffffffffffff1673ffffffffffffffffffffffffffffffffffffffff168152602001600182015481525050815260200190600101906109e6565b505050509050919050565b600c5481565b610a916132d4565b73ffffffffffffffffffffffffffffffffffffffff168173ffffffffffffffffffffffffffffffffffffffff1614610b14576040517f08c379a000000000000000000000000000000000000000000000000000000000815260040180806020018281038252602f815260200180615b17602f913960400191505060405180910390fd5b610b1e828261336f565b5050565b60035481565b610b527f7b765e0e932d348852a6f810bfa1ab891e259123f02db8cdcde614c570223357336127e2565b610b91576040517f08c379a0000000000000000000000000000000000000000000000000000000008152600401610b889061562c565b60405180910390fd5b601060008473ffffffffffffffffffffffffffffffffffffffff1673ffffffffffffffffffffffffffffffffffffffff1681526020019081526020016000206000826002811115610bde57fe5b6002811115610be957fe5b815260200190815260200160002060009054906101000a900460ff1615610c45576040517f08c379a0000000000000000000000000000000000000000000000000000000008152600401610c3c9061550c565b60405180910390fd5b81600f60008573ffffffffffffffffffffffffffffffffffffffff1673ffffffffffffffffffffffffffffffffffffffff1681526020019081526020016000206000836002811115610c9357fe5b6002811115610c9e57fe5b81526020019081526020016000209080519060200190610cbf9291906140ed565b506001601060008573ffffffffffffffffffffffffffffffffffffffff1673ffffffffffffffffffffffffffffffffffffffff1681526020019081526020016000206000836002811115610d0f57fe5b6002811115610d1a57fe5b815260200190815260200160002060006101000a81548160ff021916908315150217905550600280811115610d4b57fe5b816002811115610d5757fe5b1415610d7457601360008154809291906001019190505550610dde565b60016002811115610d8157fe5b816002811115610d8d57fe5b1415610daa57601260008154809291906001019190505550610ddd565b60006002811115610db757fe5b816002811115610dc357fe5b1415610ddc576011600081548092919060010191905055505b5b5b8273ffffffffffffffffffffffffffffffffffffffff167f8897d4c16f6b907647cc92f3b2f80418ac81581b8e74f9dda595d3910b44c8628383604051610e2692919061543c565b60405180910390a2505050565b60085481565b610e637f7b765e0e932d348852a6f810bfa1ab891e259123f02db8cdcde614c570223357336127e2565b610ea2576040517f08c379a0000000000000000000000000000000000000000000000000000000008152600401610e999061562c565b60405180910390fd5b600073ffffffffffffffffffffffffffffffffffffffff168173ffffffffffffffffffffffffffffffffffffffff161415610f12576040517f08c379a0000000000000000000000000000000000000000000000000000000008152600401610f099061556c565b60405180910390fd5b80600260006101000a81548173ffffffffffffffffffffffffffffffffffffffff021916908373ffffffffffffffffffffffffffffffffffffffff16021790555050565b610f807f7b765e0e932d348852a6f810bfa1ab891e259123f02db8cdcde614c570223357336127e2565b610fbf576040517f08c379a0000000000000000000000000000000000000000000000000000000008152600401610fb69061562c565b60405180910390fd5b600073ffffffffffffffffffffffffffffffffffffffff168173ffffffffffffffffffffffffffffffffffffffff16141561102f576040517f08c379a0000000000000000000000000000000000000000000000000000000008152600401611026906155ac565b60405180910390fd5b8151835114611073576040517f08c379a000000000000000000000000000000000000000000000000000000000815260040161106a9061548c565b60405180910390fd5b6000808273ffffffffffffffffffffffffffffffffffffffff16639478a8c06040518163ffffffff1660e01b8152600401602060405180830381600087803b1580156110be57600080fd5b505af11580156110d2573d6000803e3d6000fd5b505050506040513d601f19601f820116820180604052508101906110f6919061447e565b90508273ffffffffffffffffffffffffffffffffffffffff16632faa66196040518163ffffffff1660e01b8152600401600060405180830381600087803b15801561114057600080fd5b505af1158015611154573d6000803e3d6000fd5b50505050600080600090505b86518110156113dd57600073ffffffffffffffffffffffffffffffffffffffff1687828151811061118d57fe5b602002602001015173ffffffffffffffffffffffffffffffffffffffff1614156111ec576040517f08c379a00000000000000000000000000000000000000000000000000000000081526004016111e3906155ec565b60405180910390fd5b600061122a61271061121c600e548a868151811061120657fe5b602002602001015161340290919063ffffffff16565b61348890919063ffffffff16565b905061123f818461351190919063ffffffff16565b92506112cb816112bd89858151811061125457fe5b6020026020010151600460008d888151811061126c57fe5b602002602001015173ffffffffffffffffffffffffffffffffffffffff1673ffffffffffffffffffffffffffffffffffffffff1681526020019081526020016000205461351190919063ffffffff16565b61351190919063ffffffff16565b600460008a85815181106112db57fe5b602002602001015173ffffffffffffffffffffffffffffffffffffffff1673ffffffffffffffffffffffffffffffffffffffff1681526020019081526020016000208190555061134787838151811061133057fe5b60200260200101518661351190919063ffffffff16565b945087828151811061135557fe5b602002602001015173ffffffffffffffffffffffffffffffffffffffff167f764a965eb8edef713db93e80a1a5eef9a4891c74b26bfb68d0bf12ffc30c9ee46113ba838a86815181106113a457fe5b602002602001015161351190919063ffffffff16565b6040516113c791906156ec565b60405180910390a2508080600101915050611160565b5061143081600460008573ffffffffffffffffffffffffffffffffffffffff1673ffffffffffffffffffffffffffffffffffffffff1681526020019081526020016000205461359990919063ffffffff16565b600460008473ffffffffffffffffffffffffffffffffffffffff1673ffffffffffffffffffffffffffffffffffffffff16815260200190815260200160002081905550600061149d605561148f600c548761340290919063ffffffff16565b61348890919063ffffffff16565b905043600d81905550600160009054906101000a900473ffffffffffffffffffffffffffffffffffffffff1673ffffffffffffffffffffffffffffffffffffffff166340c10f19600b60009054906101000a900473ffffffffffffffffffffffffffffffffffffffff16836040518363ffffffff1660e01b815260040161152592919061532c565b602060405180830381600087803b15801561153f57600080fd5b505af1158015611553573d6000803e3d6000fd5b505050506040513d601f19601f82011682018060405250810190611577919061472f565b50600160009054906101000a900473ffffffffffffffffffffffffffffffffffffffff1673ffffffffffffffffffffffffffffffffffffffff166340c10f1930866040518363ffffffff1660e01b81526004016115d592919061532c565b602060405180830381600087803b1580156115ef57600080fd5b505af1158015611603573d6000803e3d6000fd5b505050506040513d601f19601f82011682018060405250810190611627919061472f565b508273ffffffffffffffffffffffffffffffffffffffff167f474e6e877135ae827a16b786fc98e0c36d2bb2d99251cba405b5f5041898149186868560405161167293929190615355565b60405180910390a250505050505050565b600260009054906101000a900473ffffffffffffffffffffffffffffffffffffffff1681565b60075481565b6000825190506101008111156116fa576040517f08c379a00000000000000000000000000000000000000000000000000000000081526004016116f19061554c565b60405180910390fd5b60005b818110156117425761173584828151811061171457fe5b602002602001015184838151811061172857fe5b6020026020010151611e55565b80806001019150506116fd565b507fe0b9e94ab5fbe92a5c1fcdc7f3dba88b173c784bda0772e4998afde00857526833826040516117749291906152cc565b60405180910390a1505050565b6117ab7f61c92169ef077349011ff0b1383c894d86c5f0b41d986366b58a6cf31e93beda336127e2565b6117ea576040517f08c379a00000000000000000000000000000000000000000000000000000000081526004016117e19061558c565b60405180910390fd5b6064611801600a548461351190919063ffffffff16565b1115611842576040517f08c379a00000000000000000000000000000000000000000000000000000000081526004016118399061546c565b60405180910390fd5b8160098190555080600a819055505050565b60115481565b60106020528160005260406000206020528060005260406000206000915091509054906101000a900460ff1681565b60066020528160005260406000206020528060005260406000206000915091509054906101000a900460ff1681565b6118e27f7b765e0e932d348852a6f810bfa1ab891e259123f02db8cdcde614c570223357336127e2565b611921576040517f08c379a00000000000000000000000000000000000000000000000000000000081526004016119189061562c565b60405180910390fd5b60003373ffffffffffffffffffffffffffffffffffffffff16639478a8c06040518163ffffffff1660e01b8152600401602060405180830381600087803b15801561196b57600080fd5b505af115801561197f573d6000803e3d6000fd5b505050506040513d601f19601f820116820180604052508101906119a3919061447e565b905060006119d160646119c3600e5460075461340290919063ffffffff16565b61348890919063ffffffff16565b905060006119ff60646119f1600c5460075461340290919063ffffffff16565b61348890919063ffffffff16565b90506000611a2a82611a1c8560075461351190919063ffffffff16565b61359990919063ffffffff16565b90506000611a4286518361348890919063ffffffff16565b9050611a9684600460008873ffffffffffffffffffffffffffffffffffffffff1673ffffffffffffffffffffffffffffffffffffffff1681526020019081526020016000205461359990919063ffffffff16565b600460008773ffffffffffffffffffffffffffffffffffffffff1673ffffffffffffffffffffffffffffffffffffffff16815260200190815260200160002081905550600160009054906101000a900473ffffffffffffffffffffffffffffffffffffffff1673ffffffffffffffffffffffffffffffffffffffff166340c10f19306007546040518363ffffffff1660e01b8152600401611b3892919061532c565b602060405180830381600087803b158015611b5257600080fd5b505af1158015611b66573d6000803e3d6000fd5b505050506040513d601f19601f82011682018060405250810190611b8a919061472f565b50611bff8360046000600b60009054906101000a900473ffffffffffffffffffffffffffffffffffffffff1673ffffffffffffffffffffffffffffffffffffffff1673ffffffffffffffffffffffffffffffffffffffff1681526020019081526020016000205461351190919063ffffffff16565b60046000600b60009054906101000a900473ffffffffffffffffffffffffffffffffffffffff1673ffffffffffffffffffffffffffffffffffffffff1673ffffffffffffffffffffffffffffffffffffffff1681526020019081526020016000208190555060005b8651811015611d9957611cd582600460008a8581518110611c8457fe5b602002602001015173ffffffffffffffffffffffffffffffffffffffff1673ffffffffffffffffffffffffffffffffffffffff1681526020019081526020016000205461351190919063ffffffff16565b60046000898481518110611ce557fe5b602002602001015173ffffffffffffffffffffffffffffffffffffffff1673ffffffffffffffffffffffffffffffffffffffff16815260200190815260200160002081905550868181518110611d3757fe5b602002602001015173ffffffffffffffffffffffffffffffffffffffff167f764a965eb8edef713db93e80a1a5eef9a4891c74b26bfb68d0bf12ffc30c9ee483604051611d8491906156ec565b60405180910390a28080600101915050611c67565b508473ffffffffffffffffffffffffffffffffffffffff167f474e6e877135ae827a16b786fc98e0c36d2bb2d99251cba405b5f50418981491338487604051611de4939291906152f5565b60405180910390a2505050505050565b60056020528160005260406000208181548110611e1057600080fd5b9060005260206000209060020201600091509150508060000160009054906101000a900473ffffffffffffffffffffffffffffffffffffffff16908060010154905082565b600073ffffffffffffffffffffffffffffffffffffffff168273ffffffffffffffffffffffffffffffffffffffff161415611ec5576040517f08c379a0000000000000000000000000000000000000000000000000000000008152600401611ebc9061560c565b60405180910390fd5b60008110158015611ed7575060058111155b611f16576040517f08c379a0000000000000000000000000000000000000000000000000000000008152600401611f0d9061566c565b60405180910390fd5b600660003373ffffffffffffffffffffffffffffffffffffffff1673ffffffffffffffffffffffffffffffffffffffff16815260200190815260200160002060008373ffffffffffffffffffffffffffffffffffffffff1673ffffffffffffffffffffffffffffffffffffffff16815260200190815260200160002060009054906101000a900460ff1615611fe0576040517f08c379a0000000000000000000000000000000000000000000000000000000008152600401611fd79061552c565b60405180910390fd5b601060003373ffffffffffffffffffffffffffffffffffffffff1673ffffffffffffffffffffffffffffffffffffffff168152602001908152602001600020600060028081111561202d57fe5b600281111561203857fe5b815260200190815260200160002060009054906101000a900460ff16612093576040517f08c379a000000000000000000000000000000000000000000000000000000000815260040161208a906154cc565b60405180910390fd5b6120e43330600854600160009054906101000a900473ffffffffffffffffffffffffffffffffffffffff1673ffffffffffffffffffffffffffffffffffffffff1661361c909392919063ffffffff16565b60006121246008546121166064612108600a5460095461351190919063ffffffff16565b61340290919063ffffffff16565b61348890919063ffffffff16565b90506121bc600b60009054906101000a900473ffffffffffffffffffffffffffffffffffffffff1661217460646121668560085461340290919063ffffffff16565b61348890919063ffffffff16565b600160009054906101000a900473ffffffffffffffffffffffffffffffffffffffff1673ffffffffffffffffffffffffffffffffffffffff166136dd9092919063ffffffff16565b601060003373ffffffffffffffffffffffffffffffffffffffff1673ffffffffffffffffffffffffffffffffffffffff16815260200190815260200160002060006001600281111561220a57fe5b600281111561221557fe5b815260200190815260200160002060009054906101000a900460ff16806122ac5750601060003373ffffffffffffffffffffffffffffffffffffffff1673ffffffffffffffffffffffffffffffffffffffff168152602001908152602001600020600080600281111561228457fe5b600281111561228f57fe5b815260200190815260200160002060009054906101000a900460ff165b15612366576122c860085460035461359990919063ffffffff16565b600381905550612322600854600460003373ffffffffffffffffffffffffffffffffffffffff1673ffffffffffffffffffffffffffffffffffffffff1681526020019081526020016000205461359990919063ffffffff16565b600460003373ffffffffffffffffffffffffffffffffffffffff1673ffffffffffffffffffffffffffffffffffffffff168152602001908152602001600020819055505b60008373ffffffffffffffffffffffffffffffffffffffff16639478a8c06040518163ffffffff1660e01b8152600401602060405180830381600087803b1580156123b057600080fd5b505af11580156123c4573d6000803e3d6000fd5b505050506040513d601f19601f820116820180604052508101906123e8919061447e565b90506000612416606461240860095460085461340290919063ffffffff16565b61348890919063ffffffff16565b905061246a81600460008573ffffffffffffffffffffffffffffffffffffffff1673ffffffffffffffffffffffffffffffffffffffff1681526020019081526020016000205461351190919063ffffffff16565b600460008473ffffffffffffffffffffffffffffffffffffffff1673ffffffffffffffffffffffffffffffffffffffff168152602001908152602001600020819055506124e0856124db60646124cd600a5460085461340290919063ffffffff16565b61348890919063ffffffff16565b61377f565b600560003373ffffffffffffffffffffffffffffffffffffffff1673ffffffffffffffffffffffffffffffffffffffff1681526020019081526020016000206001816001815401808255809150500390600052602060002090505084600560003373ffffffffffffffffffffffffffffffffffffffff1673ffffffffffffffffffffffffffffffffffffffff1681526020019081526020016000206001600560003373ffffffffffffffffffffffffffffffffffffffff1673ffffffffffffffffffffffffffffffffffffffff1681526020019081526020016000208054905003815481106125cb57fe5b906000526020600020906002020160000160006101000a81548173ffffffffffffffffffffffffffffffffffffffff021916908373ffffffffffffffffffffffffffffffffffffffff16021790555083600560003373ffffffffffffffffffffffffffffffffffffffff1673ffffffffffffffffffffffffffffffffffffffff1681526020019081526020016000206001600560003373ffffffffffffffffffffffffffffffffffffffff1673ffffffffffffffffffffffffffffffffffffffff1681526020019081526020016000208054905003815481106126aa57fe5b9060005260206000209060020201600101819055506001600660003373ffffffffffffffffffffffffffffffffffffffff1673ffffffffffffffffffffffffffffffffffffffff16815260200190815260200160002060008773ffffffffffffffffffffffffffffffffffffffff1673ffffffffffffffffffffffffffffffffffffffff16815260200190815260200160002060006101000a81548160ff0219169083151502179055503373ffffffffffffffffffffffffffffffffffffffff167f7833ac38b85d1f3dfe4f67a3a0d6d37d2ea07d1211d4d1ff478800902fd9e5af6008548785856040516127a29493929190615707565b60405180910390a25050505050565b60006127da82600080868152602001908152602001600020600001613ac190919063ffffffff16565b905092915050565b600061280b82600080868152602001908152602001600020600001613adb90919063ffffffff16565b905092915050565b600160009054906101000a900473ffffffffffffffffffffffffffffffffffffffff1681565b7f61c92169ef077349011ff0b1383c894d86c5f0b41d986366b58a6cf31e93beda81565b6000801b81565b600081116128a7576040517f08c379a000000000000000000000000000000000000000000000000000000000815260040161289e906156cc565b60405180910390fd5b601060003373ffffffffffffffffffffffffffffffffffffffff1673ffffffffffffffffffffffffffffffffffffffff1681526020019081526020016000206000600160028111156128f557fe5b600281111561290057fe5b815260200190815260200160002060009054906101000a900460ff1615612a3e5769010f0cf064dd59200000600460003373ffffffffffffffffffffffffffffffffffffffff1673ffffffffffffffffffffffffffffffffffffffff16815260200190815260200160002054820110156129af576040517f08c379a00000000000000000000000000000000000000000000000000000000081526004016129a6906155cc565b60405180910390fd5b69054b40b1f852bda00000600460003373ffffffffffffffffffffffffffffffffffffffff1673ffffffffffffffffffffffffffffffffffffffff1681526020019081526020016000205482011115612a3d576040517f08c379a0000000000000000000000000000000000000000000000000000000008152600401612a34906156ac565b60405180910390fd5b5b601060003373ffffffffffffffffffffffffffffffffffffffff1673ffffffffffffffffffffffffffffffffffffffff168152602001908152602001600020600060016002811115612a8c57fe5b6002811115612a9757fe5b815260200190815260200160002060009054906101000a900460ff1680612b2e5750601060003373ffffffffffffffffffffffffffffffffffffffff1673ffffffffffffffffffffffffffffffffffffffff1681526020019081526020016000206000806002811115612b0657fe5b6002811115612b1157fe5b815260200190815260200160002060009054906101000a900460ff165b612b6d576040517f08c379a0000000000000000000000000000000000000000000000000000000008152600401612b64906154ec565b60405180910390fd5b612b828160035461351190919063ffffffff16565b600381905550612bd7333083600160009054906101000a900473ffffffffffffffffffffffffffffffffffffffff1673ffffffffffffffffffffffffffffffffffffffff1661361c909392919063ffffffff16565b612c2981600460003373ffffffffffffffffffffffffffffffffffffffff1673ffffffffffffffffffffffffffffffffffffffff1681526020019081526020016000205461351190919063ffffffff16565b600460003373ffffffffffffffffffffffffffffffffffffffff1673ffffffffffffffffffffffffffffffffffffffff168152602001908152602001600020819055503373ffffffffffffffffffffffffffffffffffffffff167f3916187166447a01764df803fb1147a37c55a4ca1c7271a7a75c0ab1079b2d9582604051612cb291906156ec565b60405180910390a250565b600e5481565b612ced7f61c92169ef077349011ff0b1383c894d86c5f0b41d986366b58a6cf31e93beda336127e2565b612d2c576040517f08c379a0000000000000000000000000000000000000000000000000000000008152600401612d239061558c565b60405180910390fd5b6000811415612d70576040517f08c379a0000000000000000000000000000000000000000000000000000000008152600401612d679061564c565b60405180910390fd5b806007819055507f297b2b35bd089c3afcbe21d2741e8421d5e980a7b157d5a3544abb25c4fe47b481604051612da691906156ec565b60405180910390a150565b600f602052816000526040600020602052806000526040600020600091509150508054600181600116156101000203166002900480601f016020809104026020016040519081016040528092919081815260200182805460018160011615610100020316600290048015612e665780601f10612e3b57610100808354040283529160200191612e66565b820191906000526020600020905b815481529060010190602001808311612e4957829003601f168201915b505050505081565b6000612e8d600080848152602001908152602001600020600001613b0b565b9050919050565b60135481565b612ec060008084815260200190815260200160002060020154612ebb6132d4565b6127e2565b612f15576040517f08c379a0000000000000000000000000000000000000000000000000000000008152600401808060200182810382526030815260200180615a9c6030913960400191505060405180910390fd5b612f1f828261336f565b5050565b60095481565b601060003373ffffffffffffffffffffffffffffffffffffffff1673ffffffffffffffffffffffffffffffffffffffff1681526020019081526020016000206000806002811115612f7657fe5b6002811115612f8157fe5b815260200190815260200160002060009054906101000a900460ff161561311257806130d0613082612710613074600260009054906101000a900473ffffffffffffffffffffffffffffffffffffffff1673ffffffffffffffffffffffffffffffffffffffff1663c535124e6040518163ffffffff1660e01b815260040160206040518083038186803b15801561301757600080fd5b505afa15801561302b573d6000803e3d6000fd5b505050506040513d601f19601f8201168201806040525081019061304f9190614822565b613066600754600e5461340290919063ffffffff16565b61340290919063ffffffff16565b61348890919063ffffffff16565b600460003373ffffffffffffffffffffffffffffffffffffffff1673ffffffffffffffffffffffffffffffffffffffff1681526020019081526020016000205461359990919063ffffffff16565b1015613111576040517f08c379a00000000000000000000000000000000000000000000000000000000081526004016131089061568c565b60405180910390fd5b5b6131278160035461359990919063ffffffff16565b60038190555061317f81600460003373ffffffffffffffffffffffffffffffffffffffff1673ffffffffffffffffffffffffffffffffffffffff1681526020019081526020016000205461359990919063ffffffff16565b600460003373ffffffffffffffffffffffffffffffffffffffff1673ffffffffffffffffffffffffffffffffffffffff1681526020019081526020016000208190555061320f3382600160009054906101000a900473ffffffffffffffffffffffffffffffffffffffff1673ffffffffffffffffffffffffffffffffffffffff166136dd9092919063ffffffff16565b3373ffffffffffffffffffffffffffffffffffffffff167f857a4bd4d7b4553d36107a81e2fdc06c87eee30a74c23d62f1ca89ce3b9ed0ae8260405161325591906156ec565b60405180910390a250565b600b60009054906101000a900473ffffffffffffffffffffffffffffffffffffffff1681565b600a5481565b60046020528060005260406000206000915090505481565b60006132cc836000018373ffffffffffffffffffffffffffffffffffffffff1660001b613b20565b905092915050565b600033905090565b613303816000808581526020019081526020016000206000016132a490919063ffffffff16565b1561336b576133106132d4565b73ffffffffffffffffffffffffffffffffffffffff168173ffffffffffffffffffffffffffffffffffffffff16837f2f8788117e7eff1d82e926ec794901d17c78024a50270940304540a733656f0d60405160405180910390a45b5050565b61339681600080858152602001908152602001600020600001613b9090919063ffffffff16565b156133fe576133a36132d4565b73ffffffffffffffffffffffffffffffffffffffff168173ffffffffffffffffffffffffffffffffffffffff16837ff6391f5c32d9c69d2a47ea670b442974b53935d1edc7fd64eb21e047a839171b60405160405180910390a45b5050565b6000808314156134155760009050613482565b600082840290508284828161342657fe5b041461347d576040517f08c379a0000000000000000000000000000000000000000000000000000000008152600401808060200182810382526021815260200180615acc6021913960400191505060405180910390fd5b809150505b92915050565b60008082116134ff576040517f08c379a000000000000000000000000000000000000000000000000000000000815260040180806020018281038252601a8152602001807f536166654d6174683a206469766973696f6e206279207a65726f00000000000081525060200191505060405180910390fd5b81838161350857fe5b04905092915050565b60008082840190508381101561358f576040517f08c379a000000000000000000000000000000000000000000000000000000000815260040180806020018281038252601b8152602001807f536166654d6174683a206164646974696f6e206f766572666c6f77000000000081525060200191505060405180910390fd5b8091505092915050565b600082821115613611576040517f08c379a000000000000000000000000000000000000000000000000000000000815260040180806020018281038252601e8152602001807f536166654d6174683a207375627472616374696f6e206f766572666c6f77000081525060200191505060405180910390fd5b818303905092915050565b6136d7846323b872dd60e01b858585604051602401808473ffffffffffffffffffffffffffffffffffffffff1681526020018373ffffffffffffffffffffffffffffffffffffffff1681526020018281526020019350505050604051602081830303815290604052907bffffffffffffffffffffffffffffffffffffffffffffffffffffffff19166020820180517bffffffffffffffffffffffffffffffffffffffffffffffffffffffff8381831617835250505050613bc0565b50505050565b61377a8363a9059cbb60e01b8484604051602401808373ffffffffffffffffffffffffffffffffffffffff16815260200182815260200192505050604051602081830303815290604052907bffffffffffffffffffffffffffffffffffffffffffffffffffffffff19166020820180517bffffffffffffffffffffffffffffffffffffffffffffffffffffffff8381831617835250505050613bc0565b505050565b60008273ffffffffffffffffffffffffffffffffffffffff1663ebb33a816040518163ffffffff1660e01b815260040160006040518083038186803b1580156137c757600080fd5b505afa1580156137db573d6000803e3d6000fd5b505050506040513d6000823e3d601f19601f820116820180604052508101906138049190614603565b9050600080600090505b825181101561388b5761387c6004600085848151811061382a57fe5b602002602001015173ffffffffffffffffffffffffffffffffffffffff1673ffffffffffffffffffffffffffffffffffffffff168152602001908152602001600020548361351190919063ffffffff16565b9150808060010191505061380e565b5060005b8251811015613aba5760006139198361390b678ac7230489e80000600460008988815181106138ba57fe5b602002602001015173ffffffffffffffffffffffffffffffffffffffff1673ffffffffffffffffffffffffffffffffffffffff1681526020019081526020016000205461340290919063ffffffff16565b61348890919063ffffffff16565b9050600061394a678ac7230489e8000061393c848961340290919063ffffffff16565b61348890919063ffffffff16565b90506139f2613991678ac7230489e8000061398360646139758660085461340290919063ffffffff16565b61348890919063ffffffff16565b61348890919063ffffffff16565b600460008887815181106139a157fe5b602002602001015173ffffffffffffffffffffffffffffffffffffffff1673ffffffffffffffffffffffffffffffffffffffff1681526020019081526020016000205461351190919063ffffffff16565b60046000878681518110613a0257fe5b602002602001015173ffffffffffffffffffffffffffffffffffffffff1673ffffffffffffffffffffffffffffffffffffffff16815260200190815260200160002081905550848381518110613a5457fe5b602002602001015173ffffffffffffffffffffffffffffffffffffffff167f3e4fd36a8c6a5f774423977e7d7e6badc0d7f8972efdaa142830e6048bdcdd523383604051613aa39291906152cc565b60405180910390a25050808060010191505061388f565b5050505050565b6000613ad08360000183613caf565b60001c905092915050565b6000613b03836000018373ffffffffffffffffffffffffffffffffffffffff1660001b613d32565b905092915050565b6000613b1982600001613d55565b9050919050565b6000613b2c8383613d32565b613b85578260000182908060018154018082558091505060019003906000526020600020016000909190919091505582600001805490508360010160008481526020019081526020016000208190555060019050613b8a565b600090505b92915050565b6000613bb8836000018373ffffffffffffffffffffffffffffffffffffffff1660001b613d66565b905092915050565b6000613c22826040518060400160405280602081526020017f5361666545524332303a206c6f772d6c6576656c2063616c6c206661696c65648152508573ffffffffffffffffffffffffffffffffffffffff16613e4e9092919063ffffffff16565b9050600081511115613caa57808060200190516020811015613c4357600080fd5b8101908080519060200190929190505050613ca9576040517f08c379a000000000000000000000000000000000000000000000000000000000815260040180806020018281038252602a815260200180615aed602a913960400191505060405180910390fd5b5b505050565b600081836000018054905011613d10576040517f08c379a0000000000000000000000000000000000000000000000000000000008152600401808060200182810382526022815260200180615a256022913960400191505060405180910390fd5b826000018281548110613d1f57fe5b9060005260206000200154905092915050565b600080836001016000848152602001908152602001600020541415905092915050565b600081600001805490509050919050565b60008083600101600084815260200190815260200160002054905060008114613e425760006001820390506000600186600001805490500390506000866000018281548110613db157fe5b9060005260206000200154905080876000018481548110613dce57fe5b9060005260206000200181905550600183018760010160008381526020019081526020016000208190555086600001805480613e0657fe5b60019003818190600052602060002001600090559055866001016000878152602001908152602001600020600090556001945050505050613e48565b60009150505b92915050565b6060613e5d8484600085613e66565b90509392505050565b606082471015613ec1576040517f08c379a0000000000000000000000000000000000000000000000000000000008152600401808060200182810382526026815260200180615a766026913960400191505060405180910390fd5b613eca8561400e565b613f3c576040517f08c379a000000000000000000000000000000000000000000000000000000000815260040180806020018281038252601d8152602001807f416464726573733a2063616c6c20746f206e6f6e2d636f6e747261637400000081525060200191505060405180910390fd5b6000808673ffffffffffffffffffffffffffffffffffffffff1685876040518082805190602001908083835b60208310613f8b5780518252602082019150602081019050602083039250613f68565b6001836020036101000a03801982511681845116808217855250505050505090500191505060006040518083038185875af1925050503d8060008114613fed576040519150601f19603f3d011682016040523d82523d6000602084013e613ff2565b606091505b5091509150614002828286614021565b92505050949350505050565b600080823b905060008111915050919050565b60608315614031578290506140e6565b6000835111156140445782518084602001fd5b816040517f08c379a00000000000000000000000000000000000000000000000000000000081526004018080602001828103825283818151815260200191508051906020019080838360005b838110156140ab578082015181840152602081019050614090565b50505050905090810190601f1680156140d85780820380516001836020036101000a031916815260200191505b509250505060405180910390fd5b9392505050565b828054600181600116156101000203166002900490600052602060002090601f016020900481019282614123576000855561416a565b82601f1061413c57805160ff191683800117855561416a565b8280016001018555821561416a579182015b8281111561416957825182559160200191906001019061414e565b5b509050614177919061417b565b5090565b5b8082111561419457600081600090555060010161417c565b5090565b60006141ab6141a68461577d565b61574c565b905080838252602082019050828560208602820111156141ca57600080fd5b60005b858110156141fa57816141e0888261431a565b8452602084019350602083019250506001810190506141cd565b5050509392505050565b60006142176142128461577d565b61574c565b9050808382526020820190508285602086028201111561423657600080fd5b60005b85811015614266578161424c888261432f565b845260208401935060208301925050600181019050614239565b5050509392505050565b600061428361427e846157a9565b61574c565b905080838252602082019050828560208602820111156142a257600080fd5b60005b858110156142d257816142b8888261442b565b8452602084019350602083019250506001810190506142a5565b5050509392505050565b60006142ef6142ea846157d5565b61574c565b90508281526020810184848401111561430757600080fd5b61431284828561594f565b509392505050565b600081359050614329816159b8565b92915050565b60008151905061433e816159b8565b92915050565b600082601f83011261435557600080fd5b8135614365848260208601614198565b91505092915050565b600082601f83011261437f57600080fd5b815161438f848260208601614204565b91505092915050565b600082601f8301126143a957600080fd5b81356143b9848260208601614270565b91505092915050565b6000815190506143d1816159cf565b92915050565b6000813590506143e6816159e6565b92915050565b6000813590506143fb816159fd565b92915050565b600082601f83011261441257600080fd5b81356144228482602086016142dc565b91505092915050565b60008135905061443a81615a0d565b92915050565b60008151905061444f81615a0d565b92915050565b60006020828403121561446757600080fd5b60006144758482850161431a565b91505092915050565b60006020828403121561449057600080fd5b600061449e8482850161432f565b91505092915050565b600080604083850312156144ba57600080fd5b60006144c88582860161431a565b92505060206144d98582860161431a565b9150509250929050565b600080604083850312156144f657600080fd5b60006145048582860161431a565b9250506020614515858286016143ec565b9150509250929050565b60008060006060848603121561453457600080fd5b60006145428682870161431a565b935050602084013567ffffffffffffffff81111561455f57600080fd5b61456b86828701614401565b925050604061457c868287016143ec565b9150509250925092565b6000806040838503121561459957600080fd5b60006145a78582860161431a565b92505060206145b88582860161442b565b9150509250929050565b6000602082840312156145d457600080fd5b600082013567ffffffffffffffff8111156145ee57600080fd5b6145fa84828501614344565b91505092915050565b60006020828403121561461557600080fd5b600082015167ffffffffffffffff81111561462f57600080fd5b61463b8482850161436e565b91505092915050565b6000806040838503121561465757600080fd5b600083013567ffffffffffffffff81111561467157600080fd5b61467d85828601614344565b925050602083013567ffffffffffffffff81111561469a57600080fd5b6146a685828601614398565b9150509250929050565b6000806000606084860312156146c557600080fd5b600084013567ffffffffffffffff8111156146df57600080fd5b6146eb86828701614344565b935050602084013567ffffffffffffffff81111561470857600080fd5b61471486828701614398565b92505060406147258682870161431a565b9150509250925092565b60006020828403121561474157600080fd5b600061474f848285016143c2565b91505092915050565b60006020828403121561476a57600080fd5b6000614778848285016143d7565b91505092915050565b6000806040838503121561479457600080fd5b60006147a2858286016143d7565b92505060206147b38582860161431a565b9150509250929050565b600080604083850312156147d057600080fd5b60006147de858286016143d7565b92505060206147ef8582860161442b565b9150509250929050565b60006020828403121561480b57600080fd5b60006148198482850161442b565b91505092915050565b60006020828403121561483457600080fd5b600061484284828501614440565b91505092915050565b6000806040838503121561485e57600080fd5b600061486c8582860161442b565b925050602061487d8582860161442b565b9150509250929050565b60006148938383615264565b60408301905092915050565b6148a8816158bf565b82525050565b6148b78161585a565b82525050565b6148c68161585a565b82525050565b60006148d782615815565b6148e18185615838565b93506148ec83615805565b8060005b8381101561491d5781516149048882614887565b975061490f8361582b565b9250506001810190506148f0565b5085935050505092915050565b6149338161586c565b82525050565b61494281615878565b82525050565b614951816158d1565b82525050565b614960816158f5565b82525050565b61496f81615919565b82525050565b600061498082615820565b61498a8185615849565b935061499a81856020860161595e565b6149a381615993565b840191505092915050565b60006149bb603883615849565b91507f456e746572707269736520616e642056616c696461746f72207368617265732060008301527f63616e2774206265206c6172676572207468616e2031303000000000000000006020830152604082019050919050565b6000614a21606c83615849565b91507f4d656d626572733a7570646174654461696c794561726e696e67735472616e7360008301527f66657246756e6473202d204c697374206f662076616c696461746f727320646f60208301527f65736e2774206d61746368206c69737420206f6620746865697220726573706560408301527f637469766520746f6b656e7300000000000000000000000000000000000000006060830152608082019050919050565b6000614ad3604c83615849565b91507f4d656d626572733a7570646174654d696e4465706f73697444617973202d204e60008301527f65772076616c756520666f722074686520656e7465727072697365206d61746360208301527f682063616e2774206265203000000000000000000000000000000000000000006040830152606082019050919050565b6000614b5f604783615849565b91507f4d656d626572733a64617461537562736372696265725061796d656e74202d2060008301527f596f75206861766520746f20726567697374657220617320646174612073756260208301527f73637269626572000000000000000000000000000000000000000000000000006040830152606082019050919050565b6000614beb604a83615849565b91507f5374616b696e673a7374616b65202d205573657220686173206265656e206e6f60008301527f74207265676973746572656420617320612076616c696461746f72206f72206560208301527f6e74657270726973652e000000000000000000000000000000000000000000006040830152606082019050919050565b6000614c77602a83615849565b91507f4d656d626572733a61646455736572202d2054686973207573657220616c726560008301527f6164792065786973742e000000000000000000000000000000000000000000006020830152604082019050919050565b6000614cdd603a83615849565b91507f4d656d626572733a64617461537562736372696265725061796d656e74202d2060008301527f596f752061726520616c726561647920737562736372696265640000000000006020830152604082019050919050565b6000614d43603483615849565b91507f4d656d626572732d64617461537562736372696265725061796d656e744d756c60008301527f7469706c653a204c69737420746f6f206c6f6e670000000000000000000000006020830152604082019050919050565b6000614da9603b83615849565b91507f4d656d626572733a736574436f686f7274466163746f7279202d20436f686f7260008301527f74466163746f727920616464726573732063616e2774206265203000000000006020830152604082019050919050565b6000614e0f602983615849565b91507f4d656d626572733a6973536574746572202d2043616c6c6572206973206e6f7460008301527f20612073657474657200000000000000000000000000000000000000000000006020830152604082019050919050565b6000614e75601983615849565b91507f436f686f727420616464726573732063616e27742062652030000000000000006000830152602082019050919050565b6000614eb5603f83615849565b91507f5374616b696e673a7374616b65202d204d696e696d756d20636f6e747269627560008301527f74696f6e20616d6f756e742069732035303030204155445420746f6b656e73006020830152604082019050919050565b6000614f1b602f83615849565b91507f4f6e65206f66207468652076616c696461746f727320696e20746865206c697360008301527f74206861732061646472657373203000000000000000000000000000000000006020830152604082019050919050565b6000614f81603983615849565b91507f4d656d626572733a64617461537562736372696265725061796d656e74202d2060008301527f436f686f727420616464726573732063616e27742062652030000000000000006020830152604082019050919050565b6000614fe7603183615849565b91507f4d656d626572733a4973436f6e74726f6c6c6572202d2043616c6c657220697360008301527f206e6f74206120636f6e74726f6c6c65720000000000000000000000000000006020830152604082019050919050565b600061504d603b83615849565b91507f4d656d626572733a75706461746552657761726473202d204e65772076616c7560008301527f6520666f7220746865207265776172642063616e2774206265203000000000006020830152604082019050919050565b60006150b3602783615849565b91507f41756469742074797065206973206e6f7420696e20746865207265717569726560008301527f642072616e6765000000000000000000000000000000000000000000000000006020830152604082019050919050565b6000615119605283615849565b91507f4d656d6265723a72656465656d202d20596f7572206465706f7369742077696c60008301527f6c20626520746f6f206c6f7720746f2066756c6c66696c20796f7572206f757460208301527f7374616e64696e67207061796d656e74732e00000000000000000000000000006040830152606082019050919050565b60006151a5604083615849565b91507f5374616b696e673a7374616b65202d204d6178696d756d20636f6e747269627560008301527f74696f6e20616d6f756e74206973203235303030204155445420746f6b656e736020830152604082019050919050565b600061520b602183615849565b91507f4d656d626572733a7374616b65202d20416d6f756e742063616e27742062652060008301527f30000000000000000000000000000000000000000000000000000000000000006020830152604082019050919050565b60408201600082015161527a60008501826148ae565b50602082015161528d6020850182615293565b50505050565b61529c816158b5565b82525050565b6152ab816158b5565b82525050565b60006020820190506152c660008301846148bd565b92915050565b60006040820190506152e1600083018561489f565b6152ee60208301846152a2565b9392505050565b600060608201905061530a600083018661489f565b61531760208301856152a2565b61532460408301846152a2565b949350505050565b600060408201905061534160008301856148bd565b61534e60208301846152a2565b9392505050565b600060608201905061536a60008301866148bd565b61537760208301856152a2565b61538460408301846152a2565b949350505050565b600060208201905081810360008301526153a681846148cc565b905092915050565b60006020820190506153c3600083018461492a565b92915050565b60006020820190506153de6000830184614939565b92915050565b60006020820190506153f96000830184614948565b92915050565b60006020820190506154146000830184614957565b92915050565b600060208201905081810360008301526154348184614975565b905092915050565b600060408201905081810360008301526154568185614975565b90506154656020830184614966565b9392505050565b60006020820190508181036000830152615485816149ae565b9050919050565b600060208201905081810360008301526154a581614a14565b9050919050565b600060208201905081810360008301526154c581614ac6565b9050919050565b600060208201905081810360008301526154e581614b52565b9050919050565b6000602082019050818103600083015261550581614bde565b9050919050565b6000602082019050818103600083015261552581614c6a565b9050919050565b6000602082019050818103600083015261554581614cd0565b9050919050565b6000602082019050818103600083015261556581614d36565b9050919050565b6000602082019050818103600083015261558581614d9c565b9050919050565b600060208201905081810360008301526155a581614e02565b9050919050565b600060208201905081810360008301526155c581614e68565b9050919050565b600060208201905081810360008301526155e581614ea8565b9050919050565b6000602082019050818103600083015261560581614f0e565b9050919050565b6000602082019050818103600083015261562581614f74565b9050919050565b6000602082019050818103600083015261564581614fda565b9050919050565b6000602082019050818103600083015261566581615040565b9050919050565b60006020820190508181036000830152615685816150a6565b9050919050565b600060208201905081810360008301526156a58161510c565b9050919050565b600060208201905081810360008301526156c581615198565b9050919050565b600060208201905081810360008301526156e5816151fe565b9050919050565b600060208201905061570160008301846152a2565b92915050565b600060808201905061571c60008301876152a2565b61572960208301866148bd565b61573660408301856148bd565b61574360608301846152a2565b95945050505050565b6000604051905081810181811067ffffffffffffffff8211171561577357615772615991565b5b8060405250919050565b600067ffffffffffffffff82111561579857615797615991565b5b602082029050602081019050919050565b600067ffffffffffffffff8211156157c4576157c3615991565b5b602082029050602081019050919050565b600067ffffffffffffffff8211156157f0576157ef615991565b5b601f19601f8301169050602081019050919050565b6000819050602082019050919050565b600081519050919050565b600081519050919050565b6000602082019050919050565b600082825260208201905092915050565b600082825260208201905092915050565b600061586582615895565b9050919050565b60008115159050919050565b6000819050919050565b6000819050615890826159a4565b919050565b600073ffffffffffffffffffffffffffffffffffffffff82169050919050565b6000819050919050565b60006158ca8261592b565b9050919050565b60006158dc826158e3565b9050919050565b60006158ee82615895565b9050919050565b600061590082615907565b9050919050565b600061591282615895565b9050919050565b600061592482615882565b9050919050565b60006159368261593d565b9050919050565b600061594882615895565b9050919050565b82818337600083830152505050565b60005b8381101561597c578082015181840152602081019050615961565b8381111561598b576000848401525b50505050565bfe5b6000601f19601f8301169050919050565b600381106159b5576159b4615991565b5b50565b6159c18161585a565b81146159cc57600080fd5b50565b6159d88161586c565b81146159e357600080fd5b50565b6159ef81615878565b81146159fa57600080fd5b50565b60038110615a0a57600080fd5b50565b615a16816158b5565b8114615a2157600080fd5b5056fe456e756d657261626c655365743a20696e646578206f7574206f6620626f756e6473416363657373436f6e74726f6c3a2073656e646572206d75737420626520616e2061646d696e20746f206772616e74416464726573733a20696e73756666696369656e742062616c616e636520666f722063616c6c416363657373436f6e74726f6c3a2073656e646572206d75737420626520616e2061646d696e20746f207265766f6b65536166654d6174683a206d756c7469706c69636174696f6e206f766572666c6f775361666545524332303a204552433230206f7065726174696f6e20646964206e6f742073756363656564416363657373436f6e74726f6c3a2063616e206f6e6c792072656e6f756e636520726f6c657320666f722073656c66a2646970667358221220a56a15e841e829f2cccc689d60555f52f821e535e2d07b9d1d51b6ca8873f0ee64736f6c63430007060033",
  "immutableReferences": {},
  "source": "// SPDX-License-Identifier: MIT\r\npragma solidity =0.7.6;\r\npragma experimental ABIEncoderV2;\r\nimport \"@openzeppelin/contracts/access/AccessControl.sol\";\r\nimport \"@openzeppelin/contracts/token/ERC20/IERC20.sol\";\r\n// import \"@openzeppelin/contracts/math/SafeMath.sol\";\r\nimport \"@openzeppelin/contracts/token/ERC20/SafeERC20.sol\";\r\nimport \"./ICohort.sol\";\r\nimport \"./ICohortFactory.sol\";\r\nimport \"./../AuditToken.sol\";\r\n\r\n/**\r\n * @title Members\r\n * Allows on creation of Enterprise and Validator accounts and staking of funds by validators\r\n * Validators and enterprises have ability to withdraw their staking and earnings \r\n * Contract also contains several update functions controlled by the Governance contracts\r\n */\r\n\r\ncontract Members is  AccessControl {\r\n\r\n    using SafeMath for uint256;\r\n    using SafeERC20 for AuditToken;\r\n\r\n    struct DataSubscriberTypes{\r\n        address cohort;\r\n        uint256 audits;\r\n    }\r\n\r\n    bytes32 public constant CONTROLLER_ROLE = keccak256(\"CONTROLLER_ROLE\");\r\n    bytes32 public constant SETTER_ROLE =  keccak256(\"SETTER_ROLE\");\r\n\r\n    AuditToken public auditToken;                       //AUDT token \r\n    ICohortFactory public cohortFactory;\r\n    uint256 public stakedAmount;                        //total number of staked tokens   \r\n    mapping(address => uint256) public deposits;        //track deposits per user\r\n    mapping(address => DataSubscriberTypes[]) public dataSubscriberCohorts;\r\n    mapping(address => mapping(address => bool)) public dataSubscriberCohortMap;\r\n    uint256 public amountTokensPerValidation =  1e18;    //New minted amount per validation\r\n\r\n    uint256 public accessFee = 1000e18;\r\n    uint256 public enterpriseShareSubscriber = 40;\r\n    uint256 public validatorShareSubscriber = 40;\r\n    address public platformAddress;\r\n    uint256 public platformShareValidation = 15;    \r\n    uint256 public recentBlockUpdated;\r\n    uint256 public enterpriseMatch = 200;         \r\n    \r\n \r\n    /// @dev check if caller is a controller     \r\n    modifier isController {\r\n        require(hasRole(CONTROLLER_ROLE, msg.sender), \"Members:IsController - Caller is not a controller\");\r\n\r\n        _;\r\n    }\r\n\r\n    /// @dev check if caller is a setter     \r\n    modifier isSetter {\r\n        require(hasRole(SETTER_ROLE, msg.sender), \"Members:isSetter - Caller is not a setter\");\r\n\r\n        _;\r\n    }\r\n\r\n     // Audit types to be used. Two types added for future expansion \r\n    enum UserType {Enterprise, Validator, DataSubscriber}  \r\n\r\n    mapping(address => mapping(UserType => string)) public user;\r\n    mapping(address => mapping(UserType => bool)) public userMap;\r\n    uint256 public enterpriseCount;\r\n    uint256 public validatorCount;\r\n    uint256 public dataSubscriberCount;\r\n    \r\n    event UserAdded(address indexed user, string name, UserType userType);\r\n    event LogDepositReceived(address indexed from, uint amount);\r\n    event LogRewardsRedeemed(address indexed from, uint256 amount);\r\n    event LogDataSubscriberPaid(address indexed from, uint256 accessFee,  address cohortAddress, address enterprise, uint256 enterpriseShare);\r\n    event LogDataSubscriberValidatorPaid(address  from, address indexed validator, uint256 amount);\r\n    event LogRewardsDeposited(address cohort, uint256 tokens, uint256 enterpriseAmount, address indexed enterprise);\r\n    event LogRewardsReceived(address indexed validator, uint256 tokens );\r\n    event LogSubscriptionCompleted(address subscriber, uint256 numberOfSubscriptions);\r\n    event LogUpdateRewards(uint256 rewards);\r\n    event LogUpdateEnterpriseMatch(uint256 portion);\r\n    \r\n\r\n    constructor(AuditToken _auditToken, address _platformAddress ) {\r\n\r\n        require(_auditToken != AuditToken(0), \"Members:constructor - Audit token address can't be 0\");\r\n        require(_platformAddress != address(0), \"Members:constructor - Platform address can't be 0\");\r\n        auditToken = _auditToken;        \r\n        platformAddress = _platformAddress;\r\n        _setupRole(DEFAULT_ADMIN_ROLE, msg.sender);\r\n    }\r\n\r\n    /**\r\n    * @dev to be called by administrator to set cohort Factory contract\r\n    * @param _cohortFactory cohortFactory contract\r\n    */\r\n    function setCohortFactory(address _cohortFactory) public isController() {\r\n\r\n        require(_cohortFactory != address(0), \"Members:setCohortFactory - CohortFactory address can't be 0\");\r\n        cohortFactory = ICohortFactory(_cohortFactory);\r\n    }\r\n\r\n\r\n    /**\r\n    * @dev to be called by Governance contract to update new amount for validation rewards\r\n    * @param _amountTokensPerValidation new value of reward per validation\r\n    */\r\n    function updateRewards(uint256 _amountTokensPerValidation) public isSetter() {\r\n\r\n        require(_amountTokensPerValidation != 0, \"Members:updateRewards - New value for the reward can't be 0\");\r\n        amountTokensPerValidation = _amountTokensPerValidation;\r\n        emit LogUpdateRewards(_amountTokensPerValidation);\r\n    }\r\n    \r\n    /**\r\n    * @dev to be called by Governance contract\r\n    * @param _enterpriseMatch new value of enterprise portion of enterprise value of validation cost\r\n    */\r\n    function updateEnterpriseMatch(uint256 _enterpriseMatch) public isSetter()  {\r\n\r\n        require(_enterpriseMatch != 0, \"Members:updateMinDepositDays - New value for the enterprise match can't be 0\");\r\n        enterpriseMatch = _enterpriseMatch;\r\n        emit LogUpdateEnterpriseMatch(_enterpriseMatch);\r\n    }\r\n\r\n    /**\r\n    * @dev to be called by Governance contract to change enterprise and validators shares\r\n    * of data subscription fees. \r\n    * @param _enterpriseShareSubscriber  - share of the enterprise\r\n    * @param _validatorShareSubscriber - share of the subscribers\r\n    */\r\n    function setDataSubscriberShares(uint256 _enterpriseShareSubscriber, uint256 _validatorShareSubscriber ) public isSetter()  {\r\n\r\n        require(_enterpriseShareSubscriber.add(validatorShareSubscriber) <=100, \"Enterprise and Validator shares can't be larger than 100\");\r\n        enterpriseShareSubscriber = _enterpriseShareSubscriber;\r\n        validatorShareSubscriber = _validatorShareSubscriber;\r\n    }\r\n\r\n    /**\r\n     * @dev Function to accept contribution to staking\r\n     * @param amount number of AUDT tokens sent to contract for staking     \r\n     */ \r\n     function stake(uint256 amount) public {\r\n\r\n        require(amount > 0, \"Members:stake - Amount can't be 0\");\r\n\r\n        // user[newUser][userType] = name;\r\n        // userMap[newUser][userType] = true;\r\n\r\n        if (userMap[msg.sender][UserType.Validator]){ \r\n            require(amount + deposits[msg.sender] >= 5e21, \"Staking:stake - Minimum contribution amount is 5000 AUDT tokens\");  \r\n            require(amount + deposits[msg.sender] <= 25e21, \"Staking:stake - Maximum contribution amount is 25000 AUDT tokens\");     \r\n        }\r\n        require(userMap[msg.sender][UserType.Validator] || userMap[msg.sender][UserType.Enterprise], \"Staking:stake - User has been not registered as a validator or enterprise.\"); \r\n        stakedAmount = stakedAmount.add(amount);  // track tokens contributed so far\r\n        auditToken.safeTransferFrom(msg.sender, address(this), amount);\r\n        deposits[msg.sender] = deposits[msg.sender].add(amount);\r\n        emit LogDepositReceived(msg.sender, amount);       \r\n    }\r\n\r\n    /**\r\n    * @dev to be called by scheduled calls by platform daily to save gas\r\n    * the process can be called at any time \r\n    * @param _validators - list of validators eligible for earnings\r\n    * @param tokens - list of tokens earned by each validator\r\n    */\r\n    function updateDailyEarningsTransferFunds(address[] memory _validators, uint256[] memory tokens, address cohort) public isController() {\r\n\r\n        require(cohort != address(0), \"Cohort address can't be 0\");\r\n        require(_validators.length == tokens.length, \"Members:updateDailyEarningsTransferFunds - List of validators doesn't match list  of their respective tokens\");\r\n\r\n        uint256 totalRewardTokens;\r\n\r\n        address enterpriseAddress = ICohort(cohort).enterprise();\r\n        ICohort(cohort).resetOutstandingValidations();\r\n        uint256 totalEnterprisePay;\r\n\r\n        for (uint256 i=0; i< _validators.length; i++){\r\n            require(_validators[i] != address(0), \"One of the validators in the list has address 0\");\r\n            // 1e4 to adjust for 4 decimal points for enterpriseMatch\r\n            uint256 enterprisePortion =  (tokens[i].mul(enterpriseMatch).div(1e4));\r\n            totalEnterprisePay = totalEnterprisePay.add(enterprisePortion);\r\n            deposits[_validators[i]] = deposits[_validators[i]].add(tokens[i]).add(enterprisePortion);\r\n            totalRewardTokens = totalRewardTokens.add(tokens[i]);\r\n            LogRewardsReceived(_validators[i], tokens[i].add(enterprisePortion));\r\n        }\r\n        // decrease enterprise token amount by its reward share to validators\r\n        deposits[enterpriseAddress] = deposits[enterpriseAddress].sub(totalEnterprisePay);\r\n\r\n        uint256 amountTokensPlatform = totalRewardTokens.mul(platformShareValidation).div(85);\r\n        \r\n        recentBlockUpdated = block.number;\r\n        auditToken.mint(platformAddress, amountTokensPlatform);\r\n        auditToken.mint(address(this), totalRewardTokens);\r\n        emit LogRewardsDeposited(cohort, totalRewardTokens, totalEnterprisePay, enterpriseAddress);\r\n    }\r\n\r\n    function processPayment(address[] memory _validators) public isController() {\r\n\r\n        address enterpriseAddress = ICohort(msg.sender).enterprise();\r\n        uint256 enterprisePortion =  amountTokensPerValidation.mul(enterpriseMatch).div(100);\r\n        uint256 platformFee = amountTokensPerValidation.mul(platformShareValidation).div(100);\r\n        uint256 validatorsFee = amountTokensPerValidation.add(enterprisePortion).sub(platformFee);\r\n        uint256 paymentPerValidator = validatorsFee.div(_validators.length);\r\n        deposits[enterpriseAddress] = deposits[enterpriseAddress].sub(enterprisePortion);\r\n        auditToken.mint(address(this), amountTokensPerValidation);\r\n        deposits[platformAddress] = deposits[platformAddress].add(platformFee);\r\n\r\n        for (uint256 i=0; i< _validators.length; i++){                     \r\n            deposits[_validators[i]] = deposits[_validators[i]].add(paymentPerValidator);\r\n            LogRewardsReceived(_validators[i], paymentPerValidator);\r\n        }\r\n        emit LogRewardsDeposited(msg.sender, validatorsFee, enterprisePortion, enterpriseAddress);\r\n    }\r\n\r\n    /**\r\n    * @dev called when data subscriber initiates subscription \r\n    * @param cohortAddress - address of the cohort to which data subscriber wants access \r\n    * @param audits - type of audits this cohort is part of\r\n    */\r\n    function dataSubscriberPayment(address cohortAddress, uint256 audits) public  {\r\n\r\n        require(cohortAddress != address(0), \"Members:dataSubscriberPayment - Cohort address can't be 0\");\r\n        require(audits >=0 && audits <=5, \"Audit type is not in the required range\");\r\n        require(!dataSubscriberCohortMap[msg.sender][cohortAddress], \"Members:dataSubscriberPayment - You are already subscribed\");\r\n        require(userMap[msg.sender][UserType.DataSubscriber], \"Members:dataSubscriberPayment - You have to register as data subscriber\");\r\n\r\n        auditToken.safeTransferFrom(msg.sender, address(this), accessFee);\r\n        uint platformShare = (((enterpriseShareSubscriber).add(validatorShareSubscriber)).mul(100)).div(accessFee);\r\n        auditToken.safeTransfer(platformAddress, accessFee.mul(platformShare).div(100));\r\n        // auditToken.safeTransfer(platformAddress, accessFee.mul((uint256(100)).sub(enterpriseShareSubscriber).sub(validatorShareSubscriber)).div(100));\r\n\r\n        if (userMap[msg.sender][UserType.Validator] || userMap[msg.sender][UserType.Enterprise]){\r\n            stakedAmount = stakedAmount.sub(accessFee);  // track tokens contributed so far\r\n            deposits[msg.sender] = deposits[msg.sender].sub(accessFee);\r\n        }\r\n\r\n        address cohortOwner = ICohort(cohortAddress).enterprise();\r\n        uint256 enterpriseShare = accessFee.mul(enterpriseShareSubscriber).div(100);\r\n        deposits[cohortOwner] = deposits[cohortOwner].add(enterpriseShare);\r\n        allocateValidatorDataSubscriberFee(cohortAddress, accessFee.mul(validatorShareSubscriber).div(100));\r\n        dataSubscriberCohorts[msg.sender].push();\r\n        dataSubscriberCohorts[msg.sender][dataSubscriberCohorts[msg.sender].length -1].cohort = cohortAddress;\r\n        dataSubscriberCohorts[msg.sender][dataSubscriberCohorts[msg.sender].length- 1].audits = audits;\r\n        dataSubscriberCohortMap[msg.sender][cohortAddress] = true;\r\n\r\n        emit LogDataSubscriberPaid(msg.sender, accessFee, cohortAddress, cohortOwner, enterpriseShare);\r\n    }\r\n\r\n    /**\r\n    * @dev To return all cohorts to which data subscriber is subscribed to \r\n    * @param subscriber - address of the subscriber\r\n    * @return the structure with cohort address and their types for subscriber\r\n    */\r\n    function returnCohortsForDataSubscriber(address subscriber) public view returns(DataSubscriberTypes[] memory){\r\n            return (dataSubscriberCohorts[subscriber]);\r\n    }\r\n\r\n    /**\r\n    * @dev To automate subscription for multiple cohorts for data subscriber \r\n    * @param cohortAddress - array of cohort addresses\r\n    * @param audits - array of audit types for each cohort\r\n    */\r\n    function dataSubscriberPaymentMultiple(address[] memory cohortAddress, uint256[] memory audits) public {\r\n\r\n        uint256 length = cohortAddress.length;\r\n        require(length <= 256, \"Members-dataSubscriberPaymentMultiple: List too long\");\r\n        for (uint256 i = 0; i < length; i++) {\r\n            dataSubscriberPayment(cohortAddress[i], audits[i]);\r\n        }\r\n\r\n        emit LogSubscriptionCompleted(msg.sender, length);\r\n    }\r\n\r\n    /**\r\n    * @dev To calculate validator share of data subscriber fee and allocate it to validator deposits\r\n    * @param cohortAddress - address of cohort holding list of validators\r\n    * @param amount - total amount of tokens available for allocation\r\n    */\r\n    function allocateValidatorDataSubscriberFee(address cohortAddress, uint amount) internal  {\r\n\r\n        address[] memory cohortValidators = ICohort(cohortAddress).returnValidators();\r\n        uint256 totalDeposits;\r\n\r\n        for (uint i=0; i < cohortValidators.length; i++){\r\n            totalDeposits = totalDeposits.add(deposits[cohortValidators[i]]);\r\n        }\r\n\r\n        for (uint i=0; i < cohortValidators.length; i++){\r\n            uint256 oneValidatorPercentage = (deposits[cohortValidators[i]].mul(10e18)).div(totalDeposits);\r\n            uint256 oneValidatorAmount = amount.mul(oneValidatorPercentage).div(10e18);\r\n            deposits[cohortValidators[i]] = deposits[cohortValidators[i]].add(accessFee.mul(oneValidatorAmount).div(100).div(10e18)  );\r\n            emit LogDataSubscriberValidatorPaid(msg.sender, cohortValidators[i], oneValidatorAmount);\r\n        }\r\n    }\r\n   \r\n     /**\r\n     * @dev Function to redeem contribution. \r\n     * @param amount number of tokens being redeemed\r\n     */\r\n    function redeem(uint256 amount) public {\r\n\r\n          if (userMap[msg.sender][UserType.Enterprise]){\r\n              // div(1e4) to adjust for four decimal points\r\n            require(deposits[msg.sender]\r\n            .sub(enterpriseMatch.mul(amountTokensPerValidation).mul(cohortFactory.returnOutstandingValidations()).div(1e4)) >= amount, \r\n            \"Member:redeem - Your deposit will be too low to fullfil your outstanding payments.\");\r\n          }\r\n\r\n        stakedAmount = stakedAmount.sub(amount);       \r\n        deposits[msg.sender] = deposits[msg.sender].sub(amount);\r\n        auditToken.safeTransfer(msg.sender, amount);\r\n        emit LogRewardsRedeemed(msg.sender, amount);\r\n        \r\n    }\r\n\r\n   \r\n    /*\r\n    * @dev add new platform user\r\n    * @param user to add\r\n    * @param name name of the user\r\n    * @param userType  \r\n    */\r\n    function addUser(address newUser, string memory name, UserType userType) public isController() {\r\n\r\n        require(!userMap[newUser][userType], \"Members:addUser - This user already exist.\");\r\n        user[newUser][userType] = name;\r\n        userMap[newUser][userType] = true;\r\n\r\n        if (userType == UserType.DataSubscriber) \r\n            dataSubscriberCount++;\r\n        else if (userType == UserType.Validator)\r\n            validatorCount++;\r\n        else if (userType == UserType.Enterprise)\r\n            enterpriseCount++;\r\n     \r\n        emit UserAdded(newUser, name, userType);\r\n    }\r\n\r\n}\r\n\r\n\r\n\r\n",
  "sourcePath": "/home/bogdan/Ethereum/Projects/TGE/Core-Smart-Contracts-v1/contracts/Auditchain/Members.sol",
  "compiler": {
    "name": "solc",
    "version": "0.7.6+commit.7338295f.Emscripten.clang"
  },
  "schemaVersion": "3.4.0",
  "updatedAt": "2021-05-18T18:33:06.691Z",
  "networkType": "ethereum",
  "devdoc": {
    "kind": "dev",
    "methods": {
      "dataSubscriberPayment(address,uint256)": {
        "details": "called when data subscriber initiates subscription ",
        "params": {
          "audits": "- type of audits this cohort is part of",
          "cohortAddress": "- address of the cohort to which data subscriber wants access "
        }
      },
      "dataSubscriberPaymentMultiple(address[],uint256[])": {
        "details": "To automate subscription for multiple cohorts for data subscriber ",
        "params": {
          "audits": "- array of audit types for each cohort",
          "cohortAddress": "- array of cohort addresses"
        }
      },
      "getRoleAdmin(bytes32)": {
        "details": "Returns the admin role that controls `role`. See {grantRole} and {revokeRole}. To change a role's admin, use {_setRoleAdmin}."
      },
      "getRoleMember(bytes32,uint256)": {
        "details": "Returns one of the accounts that have `role`. `index` must be a value between 0 and {getRoleMemberCount}, non-inclusive. Role bearers are not sorted in any particular way, and their ordering may change at any point. WARNING: When using {getRoleMember} and {getRoleMemberCount}, make sure you perform all queries on the same block. See the following https://forum.openzeppelin.com/t/iterating-over-elements-on-enumerableset-in-openzeppelin-contracts/2296[forum post] for more information."
      },
      "getRoleMemberCount(bytes32)": {
        "details": "Returns the number of accounts that have `role`. Can be used together with {getRoleMember} to enumerate all bearers of a role."
      },
      "grantRole(bytes32,address)": {
        "details": "Grants `role` to `account`. If `account` had not been already granted `role`, emits a {RoleGranted} event. Requirements: - the caller must have ``role``'s admin role."
      },
      "hasRole(bytes32,address)": {
        "details": "Returns `true` if `account` has been granted `role`."
      },
      "redeem(uint256)": {
        "details": "Function to redeem contribution. ",
        "params": {
          "amount": "number of tokens being redeemed"
        }
      },
      "renounceRole(bytes32,address)": {
        "details": "Revokes `role` from the calling account. Roles are often managed via {grantRole} and {revokeRole}: this function's purpose is to provide a mechanism for accounts to lose their privileges if they are compromised (such as when a trusted device is misplaced). If the calling account had been granted `role`, emits a {RoleRevoked} event. Requirements: - the caller must be `account`."
      },
      "returnCohortsForDataSubscriber(address)": {
        "details": "To return all cohorts to which data subscriber is subscribed to ",
        "params": {
          "subscriber": "- address of the subscriber"
        },
        "returns": {
          "_0": "the structure with cohort address and their types for subscriber"
        }
      },
      "revokeRole(bytes32,address)": {
        "details": "Revokes `role` from `account`. If `account` had been granted `role`, emits a {RoleRevoked} event. Requirements: - the caller must have ``role``'s admin role."
      },
      "setCohortFactory(address)": {
        "details": "to be called by administrator to set cohort Factory contract",
        "params": {
          "_cohortFactory": "cohortFactory contract"
        }
      },
      "setDataSubscriberShares(uint256,uint256)": {
        "details": "to be called by Governance contract to change enterprise and validators shares of data subscription fees. ",
        "params": {
          "_enterpriseShareSubscriber": "- share of the enterprise",
          "_validatorShareSubscriber": "- share of the subscribers"
        }
      },
      "stake(uint256)": {
        "details": "Function to accept contribution to staking",
        "params": {
          "amount": "number of AUDT tokens sent to contract for staking     "
        }
      },
      "updateDailyEarningsTransferFunds(address[],uint256[],address)": {
        "details": "to be called by scheduled calls by platform daily to save gas the process can be called at any time ",
        "params": {
          "_validators": "- list of validators eligible for earnings",
          "tokens": "- list of tokens earned by each validator"
        }
      },
      "updateEnterpriseMatch(uint256)": {
        "details": "to be called by Governance contract",
        "params": {
          "_enterpriseMatch": "new value of enterprise portion of enterprise value of validation cost"
        }
      },
      "updateRewards(uint256)": {
        "details": "to be called by Governance contract to update new amount for validation rewards",
        "params": {
          "_amountTokensPerValidation": "new value of reward per validation"
        }
      }
    },
    "title": "Members Allows on creation of Enterprise and Validator accounts and staking of funds by validators Validators and enterprises have ability to withdraw their staking and earnings  Contract also contains several update functions controlled by the Governance contracts",
    "version": 1
  },
  "userdoc": {
    "kind": "user",
    "methods": {},
    "version": 1
  }
}