{
  "contractName": "Members",
  "abi": [
    {
      "inputs": [
        {
          "internalType": "contract AuditToken",
          "name": "_auditToken",
          "type": "address"
        },
        {
          "internalType": "address",
          "name": "_platformAddress",
          "type": "address"
        }
      ],
      "stateMutability": "nonpayable",
      "type": "constructor"
    },
    {
      "anonymous": false,
      "inputs": [
        {
          "indexed": true,
          "internalType": "address",
          "name": "user",
          "type": "address"
        },
        {
          "indexed": false,
          "internalType": "string",
          "name": "name",
          "type": "string"
        }
      ],
      "name": "EnterpriseUserAdded",
      "type": "event"
    },
    {
      "anonymous": false,
      "inputs": [
        {
          "indexed": true,
          "internalType": "address",
          "name": "from",
          "type": "address"
        },
        {
          "indexed": false,
          "internalType": "uint256",
          "name": "accessFee",
          "type": "uint256"
        },
        {
          "indexed": false,
          "internalType": "address",
          "name": "cohortAddress",
          "type": "address"
        },
        {
          "indexed": false,
          "internalType": "address",
          "name": "enterprise",
          "type": "address"
        },
        {
          "indexed": false,
          "internalType": "uint256",
          "name": "enterpriseShare",
          "type": "uint256"
        }
      ],
      "name": "LogDataSubscriberPaid",
      "type": "event"
    },
    {
      "anonymous": false,
      "inputs": [
        {
          "indexed": false,
          "internalType": "address",
          "name": "from",
          "type": "address"
        },
        {
          "indexed": true,
          "internalType": "address",
          "name": "validator",
          "type": "address"
        },
        {
          "indexed": false,
          "internalType": "uint256",
          "name": "amount",
          "type": "uint256"
        }
      ],
      "name": "LogDataSubscriberValidatorPaid",
      "type": "event"
    },
    {
      "anonymous": false,
      "inputs": [
        {
          "indexed": true,
          "internalType": "address",
          "name": "from",
          "type": "address"
        },
        {
          "indexed": false,
          "internalType": "uint256",
          "name": "amount",
          "type": "uint256"
        }
      ],
      "name": "LogDepositReceived",
      "type": "event"
    },
    {
      "anonymous": false,
      "inputs": [
        {
          "indexed": false,
          "internalType": "address",
          "name": "cohort",
          "type": "address"
        },
        {
          "indexed": false,
          "internalType": "uint256",
          "name": "tokens",
          "type": "uint256"
        },
        {
          "indexed": false,
          "internalType": "uint256",
          "name": "enterpriseAmount",
          "type": "uint256"
        },
        {
          "indexed": true,
          "internalType": "address",
          "name": "enterprise",
          "type": "address"
        }
      ],
      "name": "LogRewardsDeposited",
      "type": "event"
    },
    {
      "anonymous": false,
      "inputs": [
        {
          "indexed": true,
          "internalType": "address",
          "name": "validator",
          "type": "address"
        },
        {
          "indexed": false,
          "internalType": "uint256",
          "name": "tokens",
          "type": "uint256"
        }
      ],
      "name": "LogRewardsReceived",
      "type": "event"
    },
    {
      "anonymous": false,
      "inputs": [
        {
          "indexed": true,
          "internalType": "address",
          "name": "from",
          "type": "address"
        },
        {
          "indexed": false,
          "internalType": "uint256",
          "name": "amount",
          "type": "uint256"
        }
      ],
      "name": "LogRewardsRedeemed",
      "type": "event"
    },
    {
      "anonymous": false,
      "inputs": [
        {
          "indexed": false,
          "internalType": "address",
          "name": "subscriber",
          "type": "address"
        },
        {
          "indexed": false,
          "internalType": "uint256",
          "name": "numberOfSubscriptions",
          "type": "uint256"
        }
      ],
      "name": "LogSubscriptionCompleted",
      "type": "event"
    },
    {
      "anonymous": false,
      "inputs": [
        {
          "indexed": false,
          "internalType": "uint256",
          "name": "portion",
          "type": "uint256"
        }
      ],
      "name": "LogUpdateEnterpriseMatch",
      "type": "event"
    },
    {
      "anonymous": false,
      "inputs": [
        {
          "indexed": false,
          "internalType": "uint256",
          "name": "rewards",
          "type": "uint256"
        }
      ],
      "name": "LogUpdateRewards",
      "type": "event"
    },
    {
      "anonymous": false,
      "inputs": [
        {
          "indexed": true,
          "internalType": "bytes32",
          "name": "role",
          "type": "bytes32"
        },
        {
          "indexed": true,
          "internalType": "bytes32",
          "name": "previousAdminRole",
          "type": "bytes32"
        },
        {
          "indexed": true,
          "internalType": "bytes32",
          "name": "newAdminRole",
          "type": "bytes32"
        }
      ],
      "name": "RoleAdminChanged",
      "type": "event"
    },
    {
      "anonymous": false,
      "inputs": [
        {
          "indexed": true,
          "internalType": "bytes32",
          "name": "role",
          "type": "bytes32"
        },
        {
          "indexed": true,
          "internalType": "address",
          "name": "account",
          "type": "address"
        },
        {
          "indexed": true,
          "internalType": "address",
          "name": "sender",
          "type": "address"
        }
      ],
      "name": "RoleGranted",
      "type": "event"
    },
    {
      "anonymous": false,
      "inputs": [
        {
          "indexed": true,
          "internalType": "bytes32",
          "name": "role",
          "type": "bytes32"
        },
        {
          "indexed": true,
          "internalType": "address",
          "name": "account",
          "type": "address"
        },
        {
          "indexed": true,
          "internalType": "address",
          "name": "sender",
          "type": "address"
        }
      ],
      "name": "RoleRevoked",
      "type": "event"
    },
    {
      "anonymous": false,
      "inputs": [
        {
          "indexed": true,
          "internalType": "address",
          "name": "user",
          "type": "address"
        },
        {
          "indexed": false,
          "internalType": "string",
          "name": "name",
          "type": "string"
        },
        {
          "indexed": false,
          "internalType": "enum Members.UserType",
          "name": "userType",
          "type": "uint8"
        }
      ],
      "name": "UserAdded",
      "type": "event"
    },
    {
      "inputs": [],
      "name": "CONTROLLER_ROLE",
      "outputs": [
        {
          "internalType": "bytes32",
          "name": "",
          "type": "bytes32"
        }
      ],
      "stateMutability": "view",
      "type": "function",
      "constant": true
    },
    {
      "inputs": [],
      "name": "DEFAULT_ADMIN_ROLE",
      "outputs": [
        {
          "internalType": "bytes32",
          "name": "",
          "type": "bytes32"
        }
      ],
      "stateMutability": "view",
      "type": "function",
      "constant": true
    },
    {
      "inputs": [],
      "name": "SETTER_ROLE",
      "outputs": [
        {
          "internalType": "bytes32",
          "name": "",
          "type": "bytes32"
        }
      ],
      "stateMutability": "view",
      "type": "function",
      "constant": true
    },
    {
      "inputs": [],
      "name": "accessFee",
      "outputs": [
        {
          "internalType": "uint256",
          "name": "",
          "type": "uint256"
        }
      ],
      "stateMutability": "view",
      "type": "function",
      "constant": true
    },
    {
      "inputs": [],
      "name": "amountTokensPerValidation",
      "outputs": [
        {
          "internalType": "uint256",
          "name": "",
          "type": "uint256"
        }
      ],
      "stateMutability": "view",
      "type": "function",
      "constant": true
    },
    {
      "inputs": [],
      "name": "auditToken",
      "outputs": [
        {
          "internalType": "contract AuditToken",
          "name": "",
          "type": "address"
        }
      ],
      "stateMutability": "view",
      "type": "function",
      "constant": true
    },
    {
      "inputs": [],
      "name": "cohortFactory",
      "outputs": [
        {
          "internalType": "contract ICohortFactory",
          "name": "",
          "type": "address"
        }
      ],
      "stateMutability": "view",
      "type": "function",
      "constant": true
    },
    {
      "inputs": [
        {
          "internalType": "address",
          "name": "",
          "type": "address"
        },
        {
          "internalType": "address",
          "name": "",
          "type": "address"
        }
      ],
      "name": "dataSubscriberCohortMap",
      "outputs": [
        {
          "internalType": "bool",
          "name": "",
          "type": "bool"
        }
      ],
      "stateMutability": "view",
      "type": "function",
      "constant": true
    },
    {
      "inputs": [
        {
          "internalType": "address",
          "name": "",
          "type": "address"
        },
        {
          "internalType": "uint256",
          "name": "",
          "type": "uint256"
        }
      ],
      "name": "dataSubscriberCohorts",
      "outputs": [
        {
          "internalType": "address",
          "name": "cohort",
          "type": "address"
        },
        {
          "internalType": "uint256",
          "name": "audits",
          "type": "uint256"
        }
      ],
      "stateMutability": "view",
      "type": "function",
      "constant": true
    },
    {
      "inputs": [],
      "name": "dataSubscriberCount",
      "outputs": [
        {
          "internalType": "uint256",
          "name": "",
          "type": "uint256"
        }
      ],
      "stateMutability": "view",
      "type": "function",
      "constant": true
    },
    {
      "inputs": [
        {
          "internalType": "address",
          "name": "",
          "type": "address"
        }
      ],
      "name": "deposits",
      "outputs": [
        {
          "internalType": "uint256",
          "name": "",
          "type": "uint256"
        }
      ],
      "stateMutability": "view",
      "type": "function",
      "constant": true
    },
    {
      "inputs": [],
      "name": "enterpriseCount",
      "outputs": [
        {
          "internalType": "uint256",
          "name": "",
          "type": "uint256"
        }
      ],
      "stateMutability": "view",
      "type": "function",
      "constant": true
    },
    {
      "inputs": [],
      "name": "enterpriseMatch",
      "outputs": [
        {
          "internalType": "uint256",
          "name": "",
          "type": "uint256"
        }
      ],
      "stateMutability": "view",
      "type": "function",
      "constant": true
    },
    {
      "inputs": [],
      "name": "enterpriseShareSubscriber",
      "outputs": [
        {
          "internalType": "uint256",
          "name": "",
          "type": "uint256"
        }
      ],
      "stateMutability": "view",
      "type": "function",
      "constant": true
    },
    {
      "inputs": [
        {
          "internalType": "bytes32",
          "name": "role",
          "type": "bytes32"
        }
      ],
      "name": "getRoleAdmin",
      "outputs": [
        {
          "internalType": "bytes32",
          "name": "",
          "type": "bytes32"
        }
      ],
      "stateMutability": "view",
      "type": "function",
      "constant": true
    },
    {
      "inputs": [
        {
          "internalType": "bytes32",
          "name": "role",
          "type": "bytes32"
        },
        {
          "internalType": "uint256",
          "name": "index",
          "type": "uint256"
        }
      ],
      "name": "getRoleMember",
      "outputs": [
        {
          "internalType": "address",
          "name": "",
          "type": "address"
        }
      ],
      "stateMutability": "view",
      "type": "function",
      "constant": true
    },
    {
      "inputs": [
        {
          "internalType": "bytes32",
          "name": "role",
          "type": "bytes32"
        }
      ],
      "name": "getRoleMemberCount",
      "outputs": [
        {
          "internalType": "uint256",
          "name": "",
          "type": "uint256"
        }
      ],
      "stateMutability": "view",
      "type": "function",
      "constant": true
    },
    {
      "inputs": [
        {
          "internalType": "bytes32",
          "name": "role",
          "type": "bytes32"
        },
        {
          "internalType": "address",
          "name": "account",
          "type": "address"
        }
      ],
      "name": "grantRole",
      "outputs": [],
      "stateMutability": "nonpayable",
      "type": "function"
    },
    {
      "inputs": [
        {
          "internalType": "bytes32",
          "name": "role",
          "type": "bytes32"
        },
        {
          "internalType": "address",
          "name": "account",
          "type": "address"
        }
      ],
      "name": "hasRole",
      "outputs": [
        {
          "internalType": "bool",
          "name": "",
          "type": "bool"
        }
      ],
      "stateMutability": "view",
      "type": "function",
      "constant": true
    },
    {
      "inputs": [],
      "name": "platformAddress",
      "outputs": [
        {
          "internalType": "address",
          "name": "",
          "type": "address"
        }
      ],
      "stateMutability": "view",
      "type": "function",
      "constant": true
    },
    {
      "inputs": [],
      "name": "platformShareValidation",
      "outputs": [
        {
          "internalType": "uint256",
          "name": "",
          "type": "uint256"
        }
      ],
      "stateMutability": "view",
      "type": "function",
      "constant": true
    },
    {
      "inputs": [],
      "name": "recentBlockUpdated",
      "outputs": [
        {
          "internalType": "uint256",
          "name": "",
          "type": "uint256"
        }
      ],
      "stateMutability": "view",
      "type": "function",
      "constant": true
    },
    {
      "inputs": [
        {
          "internalType": "bytes32",
          "name": "role",
          "type": "bytes32"
        },
        {
          "internalType": "address",
          "name": "account",
          "type": "address"
        }
      ],
      "name": "renounceRole",
      "outputs": [],
      "stateMutability": "nonpayable",
      "type": "function"
    },
    {
      "inputs": [
        {
          "internalType": "bytes32",
          "name": "role",
          "type": "bytes32"
        },
        {
          "internalType": "address",
          "name": "account",
          "type": "address"
        }
      ],
      "name": "revokeRole",
      "outputs": [],
      "stateMutability": "nonpayable",
      "type": "function"
    },
    {
      "inputs": [],
      "name": "stakedAmount",
      "outputs": [
        {
          "internalType": "uint256",
          "name": "",
          "type": "uint256"
        }
      ],
      "stateMutability": "view",
      "type": "function",
      "constant": true
    },
    {
      "inputs": [
        {
          "internalType": "address",
          "name": "",
          "type": "address"
        },
        {
          "internalType": "enum Members.UserType",
          "name": "",
          "type": "uint8"
        }
      ],
      "name": "user",
      "outputs": [
        {
          "internalType": "string",
          "name": "",
          "type": "string"
        }
      ],
      "stateMutability": "view",
      "type": "function",
      "constant": true
    },
    {
      "inputs": [
        {
          "internalType": "address",
          "name": "",
          "type": "address"
        },
        {
          "internalType": "enum Members.UserType",
          "name": "",
          "type": "uint8"
        }
      ],
      "name": "userMap",
      "outputs": [
        {
          "internalType": "bool",
          "name": "",
          "type": "bool"
        }
      ],
      "stateMutability": "view",
      "type": "function",
      "constant": true
    },
    {
      "inputs": [],
      "name": "validatorCount",
      "outputs": [
        {
          "internalType": "uint256",
          "name": "",
          "type": "uint256"
        }
      ],
      "stateMutability": "view",
      "type": "function",
      "constant": true
    },
    {
      "inputs": [],
      "name": "validatorShareSubscriber",
      "outputs": [
        {
          "internalType": "uint256",
          "name": "",
          "type": "uint256"
        }
      ],
      "stateMutability": "view",
      "type": "function",
      "constant": true
    },
    {
      "inputs": [
        {
          "internalType": "address",
          "name": "_cohortFactory",
          "type": "address"
        }
      ],
      "name": "setCohortFactory",
      "outputs": [],
      "stateMutability": "nonpayable",
      "type": "function"
    },
    {
      "inputs": [
        {
          "internalType": "uint256",
          "name": "_amountTokensPerValidation",
          "type": "uint256"
        }
      ],
      "name": "updateRewards",
      "outputs": [],
      "stateMutability": "nonpayable",
      "type": "function"
    },
    {
      "inputs": [
        {
          "internalType": "uint256",
          "name": "_enterpriseMatch",
          "type": "uint256"
        }
      ],
      "name": "updateEnterpriseMatch",
      "outputs": [],
      "stateMutability": "nonpayable",
      "type": "function"
    },
    {
      "inputs": [
        {
          "internalType": "uint256",
          "name": "_enterpriseShareSubscriber",
          "type": "uint256"
        },
        {
          "internalType": "uint256",
          "name": "_validatorShareSubscriber",
          "type": "uint256"
        }
      ],
      "name": "setDataSubscriberShares",
      "outputs": [],
      "stateMutability": "nonpayable",
      "type": "function"
    },
    {
      "inputs": [
        {
          "internalType": "uint256",
          "name": "amount",
          "type": "uint256"
        }
      ],
      "name": "stake",
      "outputs": [],
      "stateMutability": "nonpayable",
      "type": "function"
    },
    {
      "inputs": [
        {
          "internalType": "address[]",
          "name": "_validators",
          "type": "address[]"
        },
        {
          "internalType": "uint256[]",
          "name": "tokens",
          "type": "uint256[]"
        },
        {
          "internalType": "address",
          "name": "cohort",
          "type": "address"
        }
      ],
      "name": "updateDailyEarningsTransferFunds",
      "outputs": [],
      "stateMutability": "nonpayable",
      "type": "function"
    },
    {
      "inputs": [
        {
          "internalType": "address",
          "name": "cohortAddress",
          "type": "address"
        },
        {
          "internalType": "uint256",
          "name": "audits",
          "type": "uint256"
        }
      ],
      "name": "dataSubscriberPayment",
      "outputs": [],
      "stateMutability": "nonpayable",
      "type": "function"
    },
    {
      "inputs": [
        {
          "internalType": "address",
          "name": "subscriber",
          "type": "address"
        }
      ],
      "name": "returnCohortsForDataSubscriber",
      "outputs": [
        {
          "components": [
            {
              "internalType": "address",
              "name": "cohort",
              "type": "address"
            },
            {
              "internalType": "uint256",
              "name": "audits",
              "type": "uint256"
            }
          ],
          "internalType": "struct Members.DataSubscriberTypes[]",
          "name": "",
          "type": "tuple[]"
        }
      ],
      "stateMutability": "view",
      "type": "function",
      "constant": true
    },
    {
      "inputs": [
        {
          "internalType": "address[]",
          "name": "cohortAddress",
          "type": "address[]"
        },
        {
          "internalType": "uint256[]",
          "name": "audits",
          "type": "uint256[]"
        }
      ],
      "name": "dataSubscriberPaymentMultiple",
      "outputs": [],
      "stateMutability": "nonpayable",
      "type": "function"
    },
    {
      "inputs": [
        {
          "internalType": "uint256",
          "name": "amount",
          "type": "uint256"
        }
      ],
      "name": "redeem",
      "outputs": [],
      "stateMutability": "nonpayable",
      "type": "function"
    },
    {
      "inputs": [
        {
          "internalType": "address",
          "name": "newUser",
          "type": "address"
        },
        {
          "internalType": "string",
          "name": "name",
          "type": "string"
        },
        {
          "internalType": "enum Members.UserType",
          "name": "userType",
          "type": "uint8"
        }
      ],
      "name": "addUser",
      "outputs": [],
      "stateMutability": "nonpayable",
      "type": "function"
    }
  ],
  "bytecode": "0x6080604052670de0b6b3a7640000600755683635c9adc5dea0000060085560286009556028600a55600f600c55613a98600e553480156200003f57600080fd5b5060405162005b4038038062005b408339818101604052810190620000659190620003ae565b600073ffffffffffffffffffffffffffffffffffffffff168273ffffffffffffffffffffffffffffffffffffffff161415620000d8576040517f08c379a0000000000000000000000000000000000000000000000000000000008152600401620000cf90620004bf565b60405180910390fd5b600073ffffffffffffffffffffffffffffffffffffffff168173ffffffffffffffffffffffffffffffffffffffff1614156200014b576040517f08c379a00000000000000000000000000000000000000000000000000000000081526004016200014290620004e1565b60405180910390fd5b81600160006101000a81548173ffffffffffffffffffffffffffffffffffffffff021916908373ffffffffffffffffffffffffffffffffffffffff16021790555080600b60006101000a81548173ffffffffffffffffffffffffffffffffffffffff021916908373ffffffffffffffffffffffffffffffffffffffff160217905550620001e26000801b33620001ea60201b60201c565b505062000590565b620001fc82826200020060201b60201c565b5050565b6200022e81600080858152602001908152602001600020600001620002a360201b62002d411790919060201c565b156200029f5762000244620002db60201b60201c565b73ffffffffffffffffffffffffffffffffffffffff168173ffffffffffffffffffffffffffffffffffffffff16837f2f8788117e7eff1d82e926ec794901d17c78024a50270940304540a733656f0d60405160405180910390a45b5050565b6000620002d3836000018373ffffffffffffffffffffffffffffffffffffffff1660001b620002e360201b60201c565b905092915050565b600033905090565b6000620002f783836200035d60201b60201c565b6200035257826000018290806001815401808255809150506001900390600052602060002001600090919091909150558260000180549050836001016000848152602001908152602001600020819055506001905062000357565b600090505b92915050565b600080836001016000848152602001908152602001600020541415905092915050565b60008151905062000391816200055c565b92915050565b600081519050620003a88162000576565b92915050565b60008060408385031215620003c257600080fd5b6000620003d28582860162000397565b9250506020620003e58582860162000380565b9150509250929050565b6000620003fe60348362000503565b91507f4d656d626572733a636f6e7374727563746f72202d20417564697420746f6b6560008301527f6e20616464726573732063616e277420626520300000000000000000000000006020830152604082019050919050565b60006200046660318362000503565b91507f4d656d626572733a636f6e7374727563746f72202d20506c6174666f726d206160008301527f6464726573732063616e277420626520300000000000000000000000000000006020830152604082019050919050565b60006020820190508181036000830152620004da81620003ef565b9050919050565b60006020820190508181036000830152620004fc8162000457565b9050919050565b600082825260208201905092915050565b600062000521826200053c565b9050919050565b6000620005358262000514565b9050919050565b600073ffffffffffffffffffffffffffffffffffffffff82169050919050565b620005678162000514565b81146200057357600080fd5b50565b620005818162000528565b81146200058d57600080fd5b50565b6155a080620005a06000396000f3fe608060405234801561001057600080fd5b50600436106102485760003560e01c806378f5a6ae1161013b578063b1e95e94116100b8578063dac95d411161007c578063dac95d41146106f2578063db006a7514610710578063dbe55e561461072c578063e9b6c9751461074a578063fc7e286d1461076857610248565b8063b1e95e941461063c578063ba0e142f14610658578063ca15c87314610688578063cb66dbe8146106b8578063d547741f146106d657610248565b806398c3c116116100ff57806398c3c116146105a8578063a2011b3f146105c6578063a217fddf146105e4578063a694fc3a14610602578063a7579be81461061e57610248565b806378f5a6ae146104cb57806382d51ba8146104fb5780638ab134e81461052c5780639010d07c1461054857806391d148541461057857610248565b806340d26854116101c95780634d9c798c1161018d5780634d9c798c14610427578063525d14d8146104455780635c3e152114610461578063662cc7151461047d5780636f9cf9851461049b57610248565b806340d2685414610397578063492b85cd146103b3578063495348d0146103d15780634a9fcdce146103ed5780634bd4545f1461040957610248565b80632f2ff15d116102105780632f2ff15d146102f357806332cd42441461030f5780633507abaf1461033f57806336568abe1461035d578063373d61321461037957610248565b8063092c5b3b1461024d5780630acf09d81461026b5780630c13f833146102895780630f43a677146102a5578063248a9ca3146102c3575b600080fd5b610255610798565b6040516102629190614dee565b60405180910390f35b6102736107bc565b6040516102809190615111565b60405180910390f35b6102a3600480360381019061029e9190614255565b6107c2565b005b6102ad6108b0565b6040516102ba9190615111565b60405180910390f35b6102dd60048036038101906102d891906141b4565b6108b6565b6040516102ea9190614dee565b60405180910390f35b61030d600480360381019061030891906141dd565b6108d5565b005b61032960048036038101906103249190613ef2565b61095e565b6040516103369190614db1565b60405180910390f35b610347610a5c565b6040516103549190615111565b60405180910390f35b610377600480360381019061037291906141dd565b610a62565b005b610381610afb565b60405161038e9190615111565b60405180910390f35b6103b160048036038101906103ac9190613fbc565b610b01565b005b6103bb610e0c565b6040516103c89190615111565b60405180910390f35b6103eb60048036038101906103e69190613ef2565b610e12565b005b6104076004803603810190610402919061410c565b610f2f565b005b61041161165c565b60405161041e9190614e24565b60405180910390f35b61042f611682565b60405161043c9190615111565b60405180910390f35b61045f600480360381019061045a91906140a0565b611688565b005b61047b600480360381019061047691906142a7565b61175a565b005b61048561182d565b6040516104929190615111565b60405180910390f35b6104b560048036038101906104b09190613f80565b611833565b6040516104c29190614dd3565b60405180910390f35b6104e560048036038101906104e09190613f44565b611862565b6040516104f29190614dd3565b60405180910390f35b61051560048036038101906105109190614023565b611891565b604051610523929190614d51565b60405180910390f35b61054660048036038101906105419190614023565b6118f2565b005b610562600480360381019061055d9190614219565b61224e565b60405161056f9190614d0d565b60405180910390f35b610592600480360381019061058d91906141dd565b61227f565b60405161059f9190614dd3565b60405180910390f35b6105b06122b0565b6040516105bd9190614e09565b60405180910390f35b6105ce6122d6565b6040516105db9190614dee565b60405180910390f35b6105ec6122fa565b6040516105f99190614dee565b60405180910390f35b61061c60048036038101906106179190614255565b612301565b005b61062661275a565b6040516106339190615111565b60405180910390f35b61065660048036038101906106519190614255565b612760565b005b610672600480360381019061066d9190613f80565b61284e565b60405161067f9190614e3f565b60405180910390f35b6106a2600480360381019061069d91906141b4565b61290b565b6040516106af9190615111565b60405180910390f35b6106c0612931565b6040516106cd9190615111565b60405180910390f35b6106f060048036038101906106eb91906141dd565b612937565b005b6106fa6129c0565b6040516107079190615111565b60405180910390f35b61072a60048036038101906107259190614255565b6129c6565b005b610734612cfd565b6040516107419190614d0d565b60405180910390f35b610752612d23565b60405161075f9190615111565b60405180910390f35b610782600480360381019061077d9190613ef2565b612d29565b60405161078f9190615111565b60405180910390f35b7f7b765e0e932d348852a6f810bfa1ab891e259123f02db8cdcde614c57022335781565b600d5481565b6107ec7f61c92169ef077349011ff0b1383c894d86c5f0b41d986366b58a6cf31e93beda3361227f565b61082b576040517f08c379a000000000000000000000000000000000000000000000000000000000815260040161082290614fb1565b60405180910390fd5b600081141561086f576040517f08c379a000000000000000000000000000000000000000000000000000000000815260040161086690614ed1565b60405180910390fd5b80600e819055507f993e68e99eaf9d58cf27bbe7a3e2392d07c3fcddc07ed570962f7702b592c24a816040516108a59190615111565b60405180910390a150565b60125481565b6000806000838152602001908152602001600020600201549050919050565b6108fb600080848152602001908152602001600020600201546108f6612d71565b61227f565b610950576040517f08c379a000000000000000000000000000000000000000000000000000000000815260040180806020018281038252602f81526020018061546c602f913960400191505060405180910390fd5b61095a8282612d79565b5050565b6060600560008373ffffffffffffffffffffffffffffffffffffffff1673ffffffffffffffffffffffffffffffffffffffff168152602001908152602001600020805480602002602001604051908101604052809291908181526020016000905b82821015610a5157838290600052602060002090600202016040518060400160405290816000820160009054906101000a900473ffffffffffffffffffffffffffffffffffffffff1673ffffffffffffffffffffffffffffffffffffffff1673ffffffffffffffffffffffffffffffffffffffff168152602001600182015481525050815260200190600101906109bf565b505050509050919050565b600c5481565b610a6a612d71565b73ffffffffffffffffffffffffffffffffffffffff168173ffffffffffffffffffffffffffffffffffffffff1614610aed576040517f08c379a000000000000000000000000000000000000000000000000000000000815260040180806020018281038252602f81526020018061553c602f913960400191505060405180910390fd5b610af78282612e0c565b5050565b60035481565b610b2b7f7b765e0e932d348852a6f810bfa1ab891e259123f02db8cdcde614c5702233573361227f565b610b6a576040517f08c379a0000000000000000000000000000000000000000000000000000000008152600401610b6190615051565b60405180910390fd5b601060008473ffffffffffffffffffffffffffffffffffffffff1673ffffffffffffffffffffffffffffffffffffffff1681526020019081526020016000206000826002811115610bb757fe5b6002811115610bc257fe5b815260200190815260200160002060009054906101000a900460ff1615610c1e576040517f08c379a0000000000000000000000000000000000000000000000000000000008152600401610c1590614f31565b60405180910390fd5b81600f60008573ffffffffffffffffffffffffffffffffffffffff1673ffffffffffffffffffffffffffffffffffffffff1681526020019081526020016000206000836002811115610c6c57fe5b6002811115610c7757fe5b81526020019081526020016000209080519060200190610c98929190613b8a565b506001601060008573ffffffffffffffffffffffffffffffffffffffff1673ffffffffffffffffffffffffffffffffffffffff1681526020019081526020016000206000836002811115610ce857fe5b6002811115610cf357fe5b815260200190815260200160002060006101000a81548160ff021916908315150217905550600280811115610d2457fe5b816002811115610d3057fe5b1415610d4d57601360008154809291906001019190505550610db7565b60016002811115610d5a57fe5b816002811115610d6657fe5b1415610d8357601260008154809291906001019190505550610db6565b60006002811115610d9057fe5b816002811115610d9c57fe5b1415610db5576011600081548092919060010191905055505b5b5b8273ffffffffffffffffffffffffffffffffffffffff167f8897d4c16f6b907647cc92f3b2f80418ac81581b8e74f9dda595d3910b44c8628383604051610dff929190614e61565b60405180910390a2505050565b60085481565b610e3c7f7b765e0e932d348852a6f810bfa1ab891e259123f02db8cdcde614c5702233573361227f565b610e7b576040517f08c379a0000000000000000000000000000000000000000000000000000000008152600401610e7290615051565b60405180910390fd5b600073ffffffffffffffffffffffffffffffffffffffff168173ffffffffffffffffffffffffffffffffffffffff161415610eeb576040517f08c379a0000000000000000000000000000000000000000000000000000000008152600401610ee290614f91565b60405180910390fd5b80600260006101000a81548173ffffffffffffffffffffffffffffffffffffffff021916908373ffffffffffffffffffffffffffffffffffffffff16021790555050565b610f597f7b765e0e932d348852a6f810bfa1ab891e259123f02db8cdcde614c5702233573361227f565b610f98576040517f08c379a0000000000000000000000000000000000000000000000000000000008152600401610f8f90615051565b60405180910390fd5b600073ffffffffffffffffffffffffffffffffffffffff168173ffffffffffffffffffffffffffffffffffffffff161415611008576040517f08c379a0000000000000000000000000000000000000000000000000000000008152600401610fff90614fd1565b60405180910390fd5b815183511461104c576040517f08c379a000000000000000000000000000000000000000000000000000000000815260040161104390614eb1565b60405180910390fd5b6000808273ffffffffffffffffffffffffffffffffffffffff16639478a8c06040518163ffffffff1660e01b8152600401602060405180830381600087803b15801561109757600080fd5b505af11580156110ab573d6000803e3d6000fd5b505050506040513d601f19601f820116820180604052508101906110cf9190613f1b565b90508273ffffffffffffffffffffffffffffffffffffffff16632faa66196040518163ffffffff1660e01b8152600401600060405180830381600087803b15801561111957600080fd5b505af115801561112d573d6000803e3d6000fd5b50505050600080600090505b86518110156113b657600073ffffffffffffffffffffffffffffffffffffffff1687828151811061116657fe5b602002602001015173ffffffffffffffffffffffffffffffffffffffff1614156111c5576040517f08c379a00000000000000000000000000000000000000000000000000000000081526004016111bc90615011565b60405180910390fd5b60006112036127106111f5600e548a86815181106111df57fe5b6020026020010151612e9f90919063ffffffff16565b612f2590919063ffffffff16565b90506112188184612fae90919063ffffffff16565b92506112a48161129689858151811061122d57fe5b6020026020010151600460008d888151811061124557fe5b602002602001015173ffffffffffffffffffffffffffffffffffffffff1673ffffffffffffffffffffffffffffffffffffffff16815260200190815260200160002054612fae90919063ffffffff16565b612fae90919063ffffffff16565b600460008a85815181106112b457fe5b602002602001015173ffffffffffffffffffffffffffffffffffffffff1673ffffffffffffffffffffffffffffffffffffffff1681526020019081526020016000208190555061132087838151811061130957fe5b602002602001015186612fae90919063ffffffff16565b945087828151811061132e57fe5b602002602001015173ffffffffffffffffffffffffffffffffffffffff167f764a965eb8edef713db93e80a1a5eef9a4891c74b26bfb68d0bf12ffc30c9ee4611393838a868151811061137d57fe5b6020026020010151612fae90919063ffffffff16565b6040516113a09190615111565b60405180910390a2508080600101915050611139565b5061140981600460008573ffffffffffffffffffffffffffffffffffffffff1673ffffffffffffffffffffffffffffffffffffffff1681526020019081526020016000205461303690919063ffffffff16565b600460008473ffffffffffffffffffffffffffffffffffffffff1673ffffffffffffffffffffffffffffffffffffffff1681526020019081526020016000208190555060006114766055611468600c5487612e9f90919063ffffffff16565b612f2590919063ffffffff16565b905043600d81905550600160009054906101000a900473ffffffffffffffffffffffffffffffffffffffff1673ffffffffffffffffffffffffffffffffffffffff166340c10f19600b60009054906101000a900473ffffffffffffffffffffffffffffffffffffffff16836040518363ffffffff1660e01b81526004016114fe929190614d51565b602060405180830381600087803b15801561151857600080fd5b505af115801561152c573d6000803e3d6000fd5b505050506040513d601f19601f82011682018060405250810190611550919061418b565b50600160009054906101000a900473ffffffffffffffffffffffffffffffffffffffff1673ffffffffffffffffffffffffffffffffffffffff166340c10f1930866040518363ffffffff1660e01b81526004016115ae929190614d51565b602060405180830381600087803b1580156115c857600080fd5b505af11580156115dc573d6000803e3d6000fd5b505050506040513d601f19601f82011682018060405250810190611600919061418b565b508273ffffffffffffffffffffffffffffffffffffffff167f474e6e877135ae827a16b786fc98e0c36d2bb2d99251cba405b5f5041898149186868560405161164b93929190614d7a565b60405180910390a250505050505050565b600260009054906101000a900473ffffffffffffffffffffffffffffffffffffffff1681565b60075481565b6000825190506101008111156116d3576040517f08c379a00000000000000000000000000000000000000000000000000000000081526004016116ca90614f71565b60405180910390fd5b60005b8181101561171b5761170e8482815181106116ed57fe5b602002602001015184838151811061170157fe5b60200260200101516118f2565b80806001019150506116d6565b507fe0b9e94ab5fbe92a5c1fcdc7f3dba88b173c784bda0772e4998afde008575268338260405161174d929190614d28565b60405180910390a1505050565b6117847f61c92169ef077349011ff0b1383c894d86c5f0b41d986366b58a6cf31e93beda3361227f565b6117c3576040517f08c379a00000000000000000000000000000000000000000000000000000000081526004016117ba90614fb1565b60405180910390fd5b60646117da600a5484612fae90919063ffffffff16565b111561181b576040517f08c379a000000000000000000000000000000000000000000000000000000000815260040161181290614e91565b60405180910390fd5b8160098190555080600a819055505050565b60115481565b60106020528160005260406000206020528060005260406000206000915091509054906101000a900460ff1681565b60066020528160005260406000206020528060005260406000206000915091509054906101000a900460ff1681565b600560205281600052604060002081815481106118ad57600080fd5b9060005260206000209060020201600091509150508060000160009054906101000a900473ffffffffffffffffffffffffffffffffffffffff16908060010154905082565b600073ffffffffffffffffffffffffffffffffffffffff168273ffffffffffffffffffffffffffffffffffffffff161415611962576040517f08c379a000000000000000000000000000000000000000000000000000000000815260040161195990615031565b60405180910390fd5b60008110158015611974575060058111155b6119b3576040517f08c379a00000000000000000000000000000000000000000000000000000000081526004016119aa90615091565b60405180910390fd5b600660003373ffffffffffffffffffffffffffffffffffffffff1673ffffffffffffffffffffffffffffffffffffffff16815260200190815260200160002060008373ffffffffffffffffffffffffffffffffffffffff1673ffffffffffffffffffffffffffffffffffffffff16815260200190815260200160002060009054906101000a900460ff1615611a7d576040517f08c379a0000000000000000000000000000000000000000000000000000000008152600401611a7490614f51565b60405180910390fd5b601060003373ffffffffffffffffffffffffffffffffffffffff1673ffffffffffffffffffffffffffffffffffffffff1681526020019081526020016000206000600280811115611aca57fe5b6002811115611ad557fe5b815260200190815260200160002060009054906101000a900460ff16611b30576040517f08c379a0000000000000000000000000000000000000000000000000000000008152600401611b2790614ef1565b60405180910390fd5b611b813330600854600160009054906101000a900473ffffffffffffffffffffffffffffffffffffffff1673ffffffffffffffffffffffffffffffffffffffff166130b9909392919063ffffffff16565b6000611bc1600854611bb36064611ba5600a54600954612fae90919063ffffffff16565b612e9f90919063ffffffff16565b612f2590919063ffffffff16565b9050611c59600b60009054906101000a900473ffffffffffffffffffffffffffffffffffffffff16611c116064611c0385600854612e9f90919063ffffffff16565b612f2590919063ffffffff16565b600160009054906101000a900473ffffffffffffffffffffffffffffffffffffffff1673ffffffffffffffffffffffffffffffffffffffff1661317a9092919063ffffffff16565b601060003373ffffffffffffffffffffffffffffffffffffffff1673ffffffffffffffffffffffffffffffffffffffff168152602001908152602001600020600060016002811115611ca757fe5b6002811115611cb257fe5b815260200190815260200160002060009054906101000a900460ff1680611d495750601060003373ffffffffffffffffffffffffffffffffffffffff1673ffffffffffffffffffffffffffffffffffffffff1681526020019081526020016000206000806002811115611d2157fe5b6002811115611d2c57fe5b815260200190815260200160002060009054906101000a900460ff165b15611e0357611d6560085460035461303690919063ffffffff16565b600381905550611dbf600854600460003373ffffffffffffffffffffffffffffffffffffffff1673ffffffffffffffffffffffffffffffffffffffff1681526020019081526020016000205461303690919063ffffffff16565b600460003373ffffffffffffffffffffffffffffffffffffffff1673ffffffffffffffffffffffffffffffffffffffff168152602001908152602001600020819055505b60008373ffffffffffffffffffffffffffffffffffffffff16639478a8c06040518163ffffffff1660e01b8152600401602060405180830381600087803b158015611e4d57600080fd5b505af1158015611e61573d6000803e3d6000fd5b505050506040513d601f19601f82011682018060405250810190611e859190613f1b565b90506000611eb36064611ea5600954600854612e9f90919063ffffffff16565b612f2590919063ffffffff16565b9050611f0781600460008573ffffffffffffffffffffffffffffffffffffffff1673ffffffffffffffffffffffffffffffffffffffff16815260200190815260200160002054612fae90919063ffffffff16565b600460008473ffffffffffffffffffffffffffffffffffffffff1673ffffffffffffffffffffffffffffffffffffffff16815260200190815260200160002081905550611f7d85611f786064611f6a600a54600854612e9f90919063ffffffff16565b612f2590919063ffffffff16565b61321c565b600560003373ffffffffffffffffffffffffffffffffffffffff1673ffffffffffffffffffffffffffffffffffffffff1681526020019081526020016000206001816001815401808255809150500390600052602060002090505084600560003373ffffffffffffffffffffffffffffffffffffffff1673ffffffffffffffffffffffffffffffffffffffff1681526020019081526020016000206001600560003373ffffffffffffffffffffffffffffffffffffffff1673ffffffffffffffffffffffffffffffffffffffff16815260200190815260200160002080549050038154811061206857fe5b906000526020600020906002020160000160006101000a81548173ffffffffffffffffffffffffffffffffffffffff021916908373ffffffffffffffffffffffffffffffffffffffff16021790555083600560003373ffffffffffffffffffffffffffffffffffffffff1673ffffffffffffffffffffffffffffffffffffffff1681526020019081526020016000206001600560003373ffffffffffffffffffffffffffffffffffffffff1673ffffffffffffffffffffffffffffffffffffffff16815260200190815260200160002080549050038154811061214757fe5b9060005260206000209060020201600101819055506001600660003373ffffffffffffffffffffffffffffffffffffffff1673ffffffffffffffffffffffffffffffffffffffff16815260200190815260200160002060008773ffffffffffffffffffffffffffffffffffffffff1673ffffffffffffffffffffffffffffffffffffffff16815260200190815260200160002060006101000a81548160ff0219169083151502179055503373ffffffffffffffffffffffffffffffffffffffff167f7833ac38b85d1f3dfe4f67a3a0d6d37d2ea07d1211d4d1ff478800902fd9e5af60085487858560405161223f949392919061512c565b60405180910390a25050505050565b60006122778260008086815260200190815260200160002060000161355e90919063ffffffff16565b905092915050565b60006122a88260008086815260200190815260200160002060000161357890919063ffffffff16565b905092915050565b600160009054906101000a900473ffffffffffffffffffffffffffffffffffffffff1681565b7f61c92169ef077349011ff0b1383c894d86c5f0b41d986366b58a6cf31e93beda81565b6000801b81565b60008111612344576040517f08c379a000000000000000000000000000000000000000000000000000000000815260040161233b906150f1565b60405180910390fd5b601060003373ffffffffffffffffffffffffffffffffffffffff1673ffffffffffffffffffffffffffffffffffffffff16815260200190815260200160002060006001600281111561239257fe5b600281111561239d57fe5b815260200190815260200160002060009054906101000a900460ff16156124db5769010f0cf064dd59200000600460003373ffffffffffffffffffffffffffffffffffffffff1673ffffffffffffffffffffffffffffffffffffffff168152602001908152602001600020548201101561244c576040517f08c379a000000000000000000000000000000000000000000000000000000000815260040161244390614ff1565b60405180910390fd5b69054b40b1f852bda00000600460003373ffffffffffffffffffffffffffffffffffffffff1673ffffffffffffffffffffffffffffffffffffffff16815260200190815260200160002054820111156124da576040517f08c379a00000000000000000000000000000000000000000000000000000000081526004016124d1906150d1565b60405180910390fd5b5b601060003373ffffffffffffffffffffffffffffffffffffffff1673ffffffffffffffffffffffffffffffffffffffff16815260200190815260200160002060006001600281111561252957fe5b600281111561253457fe5b815260200190815260200160002060009054906101000a900460ff16806125cb5750601060003373ffffffffffffffffffffffffffffffffffffffff1673ffffffffffffffffffffffffffffffffffffffff16815260200190815260200160002060008060028111156125a357fe5b60028111156125ae57fe5b815260200190815260200160002060009054906101000a900460ff165b61260a576040517f08c379a000000000000000000000000000000000000000000000000000000000815260040161260190614f11565b60405180910390fd5b61261f81600354612fae90919063ffffffff16565b600381905550612674333083600160009054906101000a900473ffffffffffffffffffffffffffffffffffffffff1673ffffffffffffffffffffffffffffffffffffffff166130b9909392919063ffffffff16565b6126c681600460003373ffffffffffffffffffffffffffffffffffffffff1673ffffffffffffffffffffffffffffffffffffffff16815260200190815260200160002054612fae90919063ffffffff16565b600460003373ffffffffffffffffffffffffffffffffffffffff1673ffffffffffffffffffffffffffffffffffffffff168152602001908152602001600020819055503373ffffffffffffffffffffffffffffffffffffffff167f3916187166447a01764df803fb1147a37c55a4ca1c7271a7a75c0ab1079b2d958260405161274f9190615111565b60405180910390a250565b600e5481565b61278a7f61c92169ef077349011ff0b1383c894d86c5f0b41d986366b58a6cf31e93beda3361227f565b6127c9576040517f08c379a00000000000000000000000000000000000000000000000000000000081526004016127c090614fb1565b60405180910390fd5b600081141561280d576040517f08c379a000000000000000000000000000000000000000000000000000000000815260040161280490615071565b60405180910390fd5b806007819055507f297b2b35bd089c3afcbe21d2741e8421d5e980a7b157d5a3544abb25c4fe47b4816040516128439190615111565b60405180910390a150565b600f602052816000526040600020602052806000526040600020600091509150508054600181600116156101000203166002900480601f0160208091040260200160405190810160405280929190818152602001828054600181600116156101000203166002900480156129035780601f106128d857610100808354040283529160200191612903565b820191906000526020600020905b8154815290600101906020018083116128e657829003601f168201915b505050505081565b600061292a6000808481526020019081526020016000206000016135a8565b9050919050565b60135481565b61295d60008084815260200190815260200160002060020154612958612d71565b61227f565b6129b2576040517f08c379a00000000000000000000000000000000000000000000000000000000081526004018080602001828103825260308152602001806154c16030913960400191505060405180910390fd5b6129bc8282612e0c565b5050565b60095481565b601060003373ffffffffffffffffffffffffffffffffffffffff1673ffffffffffffffffffffffffffffffffffffffff1681526020019081526020016000206000806002811115612a1357fe5b6002811115612a1e57fe5b815260200190815260200160002060009054906101000a900460ff1615612baf5780612b6d612b1f612710612b11600260009054906101000a900473ffffffffffffffffffffffffffffffffffffffff1673ffffffffffffffffffffffffffffffffffffffff1663c535124e6040518163ffffffff1660e01b815260040160206040518083038186803b158015612ab457600080fd5b505afa158015612ac8573d6000803e3d6000fd5b505050506040513d601f19601f82011682018060405250810190612aec919061427e565b612b03600754600e54612e9f90919063ffffffff16565b612e9f90919063ffffffff16565b612f2590919063ffffffff16565b600460003373ffffffffffffffffffffffffffffffffffffffff1673ffffffffffffffffffffffffffffffffffffffff1681526020019081526020016000205461303690919063ffffffff16565b1015612bae576040517f08c379a0000000000000000000000000000000000000000000000000000000008152600401612ba5906150b1565b60405180910390fd5b5b612bc48160035461303690919063ffffffff16565b600381905550612c1c81600460003373ffffffffffffffffffffffffffffffffffffffff1673ffffffffffffffffffffffffffffffffffffffff1681526020019081526020016000205461303690919063ffffffff16565b600460003373ffffffffffffffffffffffffffffffffffffffff1673ffffffffffffffffffffffffffffffffffffffff16815260200190815260200160002081905550612cac3382600160009054906101000a900473ffffffffffffffffffffffffffffffffffffffff1673ffffffffffffffffffffffffffffffffffffffff1661317a9092919063ffffffff16565b3373ffffffffffffffffffffffffffffffffffffffff167f857a4bd4d7b4553d36107a81e2fdc06c87eee30a74c23d62f1ca89ce3b9ed0ae82604051612cf29190615111565b60405180910390a250565b600b60009054906101000a900473ffffffffffffffffffffffffffffffffffffffff1681565b600a5481565b60046020528060005260406000206000915090505481565b6000612d69836000018373ffffffffffffffffffffffffffffffffffffffff1660001b6135bd565b905092915050565b600033905090565b612da081600080858152602001908152602001600020600001612d4190919063ffffffff16565b15612e0857612dad612d71565b73ffffffffffffffffffffffffffffffffffffffff168173ffffffffffffffffffffffffffffffffffffffff16837f2f8788117e7eff1d82e926ec794901d17c78024a50270940304540a733656f0d60405160405180910390a45b5050565b612e338160008085815260200190815260200160002060000161362d90919063ffffffff16565b15612e9b57612e40612d71565b73ffffffffffffffffffffffffffffffffffffffff168173ffffffffffffffffffffffffffffffffffffffff16837ff6391f5c32d9c69d2a47ea670b442974b53935d1edc7fd64eb21e047a839171b60405160405180910390a45b5050565b600080831415612eb25760009050612f1f565b6000828402905082848281612ec357fe5b0414612f1a576040517f08c379a00000000000000000000000000000000000000000000000000000000081526004018080602001828103825260218152602001806154f16021913960400191505060405180910390fd5b809150505b92915050565b6000808211612f9c576040517f08c379a000000000000000000000000000000000000000000000000000000000815260040180806020018281038252601a8152602001807f536166654d6174683a206469766973696f6e206279207a65726f00000000000081525060200191505060405180910390fd5b818381612fa557fe5b04905092915050565b60008082840190508381101561302c576040517f08c379a000000000000000000000000000000000000000000000000000000000815260040180806020018281038252601b8152602001807f536166654d6174683a206164646974696f6e206f766572666c6f77000000000081525060200191505060405180910390fd5b8091505092915050565b6000828211156130ae576040517f08c379a000000000000000000000000000000000000000000000000000000000815260040180806020018281038252601e8152602001807f536166654d6174683a207375627472616374696f6e206f766572666c6f77000081525060200191505060405180910390fd5b818303905092915050565b613174846323b872dd60e01b858585604051602401808473ffffffffffffffffffffffffffffffffffffffff1681526020018373ffffffffffffffffffffffffffffffffffffffff1681526020018281526020019350505050604051602081830303815290604052907bffffffffffffffffffffffffffffffffffffffffffffffffffffffff19166020820180517bffffffffffffffffffffffffffffffffffffffffffffffffffffffff838183161783525050505061365d565b50505050565b6132178363a9059cbb60e01b8484604051602401808373ffffffffffffffffffffffffffffffffffffffff16815260200182815260200192505050604051602081830303815290604052907bffffffffffffffffffffffffffffffffffffffffffffffffffffffff19166020820180517bffffffffffffffffffffffffffffffffffffffffffffffffffffffff838183161783525050505061365d565b505050565b60008273ffffffffffffffffffffffffffffffffffffffff1663ebb33a816040518163ffffffff1660e01b815260040160006040518083038186803b15801561326457600080fd5b505afa158015613278573d6000803e3d6000fd5b505050506040513d6000823e3d601f19601f820116820180604052508101906132a1919061405f565b9050600080600090505b825181101561332857613319600460008584815181106132c757fe5b602002602001015173ffffffffffffffffffffffffffffffffffffffff1673ffffffffffffffffffffffffffffffffffffffff1681526020019081526020016000205483612fae90919063ffffffff16565b915080806001019150506132ab565b5060005b82518110156135575760006133b6836133a8678ac7230489e800006004600089888151811061335757fe5b602002602001015173ffffffffffffffffffffffffffffffffffffffff1673ffffffffffffffffffffffffffffffffffffffff16815260200190815260200160002054612e9f90919063ffffffff16565b612f2590919063ffffffff16565b905060006133e7678ac7230489e800006133d98489612e9f90919063ffffffff16565b612f2590919063ffffffff16565b905061348f61342e678ac7230489e80000613420606461341286600854612e9f90919063ffffffff16565b612f2590919063ffffffff16565b612f2590919063ffffffff16565b6004600088878151811061343e57fe5b602002602001015173ffffffffffffffffffffffffffffffffffffffff1673ffffffffffffffffffffffffffffffffffffffff16815260200190815260200160002054612fae90919063ffffffff16565b6004600087868151811061349f57fe5b602002602001015173ffffffffffffffffffffffffffffffffffffffff1673ffffffffffffffffffffffffffffffffffffffff168152602001908152602001600020819055508483815181106134f157fe5b602002602001015173ffffffffffffffffffffffffffffffffffffffff167f3e4fd36a8c6a5f774423977e7d7e6badc0d7f8972efdaa142830e6048bdcdd523383604051613540929190614d28565b60405180910390a25050808060010191505061332c565b5050505050565b600061356d836000018361374c565b60001c905092915050565b60006135a0836000018373ffffffffffffffffffffffffffffffffffffffff1660001b6137cf565b905092915050565b60006135b6826000016137f2565b9050919050565b60006135c983836137cf565b613622578260000182908060018154018082558091505060019003906000526020600020016000909190919091505582600001805490508360010160008481526020019081526020016000208190555060019050613627565b600090505b92915050565b6000613655836000018373ffffffffffffffffffffffffffffffffffffffff1660001b613803565b905092915050565b60006136bf826040518060400160405280602081526020017f5361666545524332303a206c6f772d6c6576656c2063616c6c206661696c65648152508573ffffffffffffffffffffffffffffffffffffffff166138eb9092919063ffffffff16565b9050600081511115613747578080602001905160208110156136e057600080fd5b8101908080519060200190929190505050613746576040517f08c379a000000000000000000000000000000000000000000000000000000000815260040180806020018281038252602a815260200180615512602a913960400191505060405180910390fd5b5b505050565b6000818360000180549050116137ad576040517f08c379a000000000000000000000000000000000000000000000000000000000815260040180806020018281038252602281526020018061544a6022913960400191505060405180910390fd5b8260000182815481106137bc57fe5b9060005260206000200154905092915050565b600080836001016000848152602001908152602001600020541415905092915050565b600081600001805490509050919050565b600080836001016000848152602001908152602001600020549050600081146138df576000600182039050600060018660000180549050039050600086600001828154811061384e57fe5b906000526020600020015490508087600001848154811061386b57fe5b90600052602060002001819055506001830187600101600083815260200190815260200160002081905550866000018054806138a357fe5b600190038181906000526020600020016000905590558660010160008781526020019081526020016000206000905560019450505050506138e5565b60009150505b92915050565b60606138fa8484600085613903565b90509392505050565b60608247101561395e576040517f08c379a000000000000000000000000000000000000000000000000000000000815260040180806020018281038252602681526020018061549b6026913960400191505060405180910390fd5b61396785613aab565b6139d9576040517f08c379a000000000000000000000000000000000000000000000000000000000815260040180806020018281038252601d8152602001807f416464726573733a2063616c6c20746f206e6f6e2d636f6e747261637400000081525060200191505060405180910390fd5b6000808673ffffffffffffffffffffffffffffffffffffffff1685876040518082805190602001908083835b60208310613a285780518252602082019150602081019050602083039250613a05565b6001836020036101000a03801982511681845116808217855250505050505090500191505060006040518083038185875af1925050503d8060008114613a8a576040519150601f19603f3d011682016040523d82523d6000602084013e613a8f565b606091505b5091509150613a9f828286613abe565b92505050949350505050565b600080823b905060008111915050919050565b60608315613ace57829050613b83565b600083511115613ae15782518084602001fd5b816040517f08c379a00000000000000000000000000000000000000000000000000000000081526004018080602001828103825283818151815260200191508051906020019080838360005b83811015613b48578082015181840152602081019050613b2d565b50505050905090810190601f168015613b755780820380516001836020036101000a031916815260200191505b509250505060405180910390fd5b9392505050565b828054600181600116156101000203166002900490600052602060002090601f016020900481019282613bc05760008555613c07565b82601f10613bd957805160ff1916838001178555613c07565b82800160010185558215613c07579182015b82811115613c06578251825591602001919060010190613beb565b5b509050613c149190613c18565b5090565b5b80821115613c31576000816000905550600101613c19565b5090565b6000613c48613c43846151a2565b615171565b90508083825260208201905082856020860282011115613c6757600080fd5b60005b85811015613c975781613c7d8882613db7565b845260208401935060208301925050600181019050613c6a565b5050509392505050565b6000613cb4613caf846151a2565b615171565b90508083825260208201905082856020860282011115613cd357600080fd5b60005b85811015613d035781613ce98882613dcc565b845260208401935060208301925050600181019050613cd6565b5050509392505050565b6000613d20613d1b846151ce565b615171565b90508083825260208201905082856020860282011115613d3f57600080fd5b60005b85811015613d6f5781613d558882613ec8565b845260208401935060208301925050600181019050613d42565b5050509392505050565b6000613d8c613d87846151fa565b615171565b905082815260208101848484011115613da457600080fd5b613daf848285615374565b509392505050565b600081359050613dc6816153dd565b92915050565b600081519050613ddb816153dd565b92915050565b600082601f830112613df257600080fd5b8135613e02848260208601613c35565b91505092915050565b600082601f830112613e1c57600080fd5b8151613e2c848260208601613ca1565b91505092915050565b600082601f830112613e4657600080fd5b8135613e56848260208601613d0d565b91505092915050565b600081519050613e6e816153f4565b92915050565b600081359050613e838161540b565b92915050565b600081359050613e9881615422565b92915050565b600082601f830112613eaf57600080fd5b8135613ebf848260208601613d79565b91505092915050565b600081359050613ed781615432565b92915050565b600081519050613eec81615432565b92915050565b600060208284031215613f0457600080fd5b6000613f1284828501613db7565b91505092915050565b600060208284031215613f2d57600080fd5b6000613f3b84828501613dcc565b91505092915050565b60008060408385031215613f5757600080fd5b6000613f6585828601613db7565b9250506020613f7685828601613db7565b9150509250929050565b60008060408385031215613f9357600080fd5b6000613fa185828601613db7565b9250506020613fb285828601613e89565b9150509250929050565b600080600060608486031215613fd157600080fd5b6000613fdf86828701613db7565b935050602084013567ffffffffffffffff811115613ffc57600080fd5b61400886828701613e9e565b925050604061401986828701613e89565b9150509250925092565b6000806040838503121561403657600080fd5b600061404485828601613db7565b925050602061405585828601613ec8565b9150509250929050565b60006020828403121561407157600080fd5b600082015167ffffffffffffffff81111561408b57600080fd5b61409784828501613e0b565b91505092915050565b600080604083850312156140b357600080fd5b600083013567ffffffffffffffff8111156140cd57600080fd5b6140d985828601613de1565b925050602083013567ffffffffffffffff8111156140f657600080fd5b61410285828601613e35565b9150509250929050565b60008060006060848603121561412157600080fd5b600084013567ffffffffffffffff81111561413b57600080fd5b61414786828701613de1565b935050602084013567ffffffffffffffff81111561416457600080fd5b61417086828701613e35565b925050604061418186828701613db7565b9150509250925092565b60006020828403121561419d57600080fd5b60006141ab84828501613e5f565b91505092915050565b6000602082840312156141c657600080fd5b60006141d484828501613e74565b91505092915050565b600080604083850312156141f057600080fd5b60006141fe85828601613e74565b925050602061420f85828601613db7565b9150509250929050565b6000806040838503121561422c57600080fd5b600061423a85828601613e74565b925050602061424b85828601613ec8565b9150509250929050565b60006020828403121561426757600080fd5b600061427584828501613ec8565b91505092915050565b60006020828403121561429057600080fd5b600061429e84828501613edd565b91505092915050565b600080604083850312156142ba57600080fd5b60006142c885828601613ec8565b92505060206142d985828601613ec8565b9150509250929050565b60006142ef8383614cc0565b60408301905092915050565b614304816152e4565b82525050565b6143138161527f565b82525050565b6143228161527f565b82525050565b60006143338261523a565b61433d818561525d565b93506143488361522a565b8060005b8381101561437957815161436088826142e3565b975061436b83615250565b92505060018101905061434c565b5085935050505092915050565b61438f81615291565b82525050565b61439e8161529d565b82525050565b6143ad816152f6565b82525050565b6143bc8161531a565b82525050565b6143cb8161533e565b82525050565b60006143dc82615245565b6143e6818561526e565b93506143f6818560208601615383565b6143ff816153b8565b840191505092915050565b600061441760388361526e565b91507f456e746572707269736520616e642056616c696461746f72207368617265732060008301527f63616e2774206265206c6172676572207468616e2031303000000000000000006020830152604082019050919050565b600061447d606c8361526e565b91507f4d656d626572733a7570646174654461696c794561726e696e67735472616e7360008301527f66657246756e6473202d204c697374206f662076616c696461746f727320646f60208301527f65736e2774206d61746368206c69737420206f6620746865697220726573706560408301527f637469766520746f6b656e7300000000000000000000000000000000000000006060830152608082019050919050565b600061452f604c8361526e565b91507f4d656d626572733a7570646174654d696e4465706f73697444617973202d204e60008301527f65772076616c756520666f722074686520656e7465727072697365206d61746360208301527f682063616e2774206265203000000000000000000000000000000000000000006040830152606082019050919050565b60006145bb60478361526e565b91507f4d656d626572733a64617461537562736372696265725061796d656e74202d2060008301527f596f75206861766520746f20726567697374657220617320646174612073756260208301527f73637269626572000000000000000000000000000000000000000000000000006040830152606082019050919050565b6000614647604a8361526e565b91507f5374616b696e673a7374616b65202d205573657220686173206265656e206e6f60008301527f74207265676973746572656420617320612076616c696461746f72206f72206560208301527f6e74657270726973652e000000000000000000000000000000000000000000006040830152606082019050919050565b60006146d3602a8361526e565b91507f4d656d626572733a61646455736572202d2054686973207573657220616c726560008301527f6164792065786973742e000000000000000000000000000000000000000000006020830152604082019050919050565b6000614739603a8361526e565b91507f4d656d626572733a64617461537562736372696265725061796d656e74202d2060008301527f596f752061726520616c726561647920737562736372696265640000000000006020830152604082019050919050565b600061479f60348361526e565b91507f4d656d626572732d64617461537562736372696265725061796d656e744d756c60008301527f7469706c653a204c69737420746f6f206c6f6e670000000000000000000000006020830152604082019050919050565b6000614805603b8361526e565b91507f4d656d626572733a736574436f686f7274466163746f7279202d20436f686f7260008301527f74466163746f727920616464726573732063616e2774206265203000000000006020830152604082019050919050565b600061486b60298361526e565b91507f4d656d626572733a6973536574746572202d2043616c6c6572206973206e6f7460008301527f20612073657474657200000000000000000000000000000000000000000000006020830152604082019050919050565b60006148d160198361526e565b91507f436f686f727420616464726573732063616e27742062652030000000000000006000830152602082019050919050565b6000614911603f8361526e565b91507f5374616b696e673a7374616b65202d204d696e696d756d20636f6e747269627560008301527f74696f6e20616d6f756e742069732035303030204155445420746f6b656e73006020830152604082019050919050565b6000614977602f8361526e565b91507f4f6e65206f66207468652076616c696461746f727320696e20746865206c697360008301527f74206861732061646472657373203000000000000000000000000000000000006020830152604082019050919050565b60006149dd60398361526e565b91507f4d656d626572733a64617461537562736372696265725061796d656e74202d2060008301527f436f686f727420616464726573732063616e27742062652030000000000000006020830152604082019050919050565b6000614a4360318361526e565b91507f4d656d626572733a4973436f6e74726f6c6c6572202d2043616c6c657220697360008301527f206e6f74206120636f6e74726f6c6c65720000000000000000000000000000006020830152604082019050919050565b6000614aa9603b8361526e565b91507f4d656d626572733a75706461746552657761726473202d204e65772076616c7560008301527f6520666f7220746865207265776172642063616e2774206265203000000000006020830152604082019050919050565b6000614b0f60278361526e565b91507f41756469742074797065206973206e6f7420696e20746865207265717569726560008301527f642072616e6765000000000000000000000000000000000000000000000000006020830152604082019050919050565b6000614b7560528361526e565b91507f4d656d6265723a72656465656d202d20596f7572206465706f7369742077696c60008301527f6c20626520746f6f206c6f7720746f2066756c6c66696c20796f7572206f757460208301527f7374616e64696e67207061796d656e74732e00000000000000000000000000006040830152606082019050919050565b6000614c0160408361526e565b91507f5374616b696e673a7374616b65202d204d6178696d756d20636f6e747269627560008301527f74696f6e20616d6f756e74206973203235303030204155445420746f6b656e736020830152604082019050919050565b6000614c6760218361526e565b91507f4d656d626572733a7374616b65202d20416d6f756e742063616e27742062652060008301527f30000000000000000000000000000000000000000000000000000000000000006020830152604082019050919050565b604082016000820151614cd6600085018261430a565b506020820151614ce96020850182614cef565b50505050565b614cf8816152da565b82525050565b614d07816152da565b82525050565b6000602082019050614d226000830184614319565b92915050565b6000604082019050614d3d60008301856142fb565b614d4a6020830184614cfe565b9392505050565b6000604082019050614d666000830185614319565b614d736020830184614cfe565b9392505050565b6000606082019050614d8f6000830186614319565b614d9c6020830185614cfe565b614da96040830184614cfe565b949350505050565b60006020820190508181036000830152614dcb8184614328565b905092915050565b6000602082019050614de86000830184614386565b92915050565b6000602082019050614e036000830184614395565b92915050565b6000602082019050614e1e60008301846143a4565b92915050565b6000602082019050614e3960008301846143b3565b92915050565b60006020820190508181036000830152614e5981846143d1565b905092915050565b60006040820190508181036000830152614e7b81856143d1565b9050614e8a60208301846143c2565b9392505050565b60006020820190508181036000830152614eaa8161440a565b9050919050565b60006020820190508181036000830152614eca81614470565b9050919050565b60006020820190508181036000830152614eea81614522565b9050919050565b60006020820190508181036000830152614f0a816145ae565b9050919050565b60006020820190508181036000830152614f2a8161463a565b9050919050565b60006020820190508181036000830152614f4a816146c6565b9050919050565b60006020820190508181036000830152614f6a8161472c565b9050919050565b60006020820190508181036000830152614f8a81614792565b9050919050565b60006020820190508181036000830152614faa816147f8565b9050919050565b60006020820190508181036000830152614fca8161485e565b9050919050565b60006020820190508181036000830152614fea816148c4565b9050919050565b6000602082019050818103600083015261500a81614904565b9050919050565b6000602082019050818103600083015261502a8161496a565b9050919050565b6000602082019050818103600083015261504a816149d0565b9050919050565b6000602082019050818103600083015261506a81614a36565b9050919050565b6000602082019050818103600083015261508a81614a9c565b9050919050565b600060208201905081810360008301526150aa81614b02565b9050919050565b600060208201905081810360008301526150ca81614b68565b9050919050565b600060208201905081810360008301526150ea81614bf4565b9050919050565b6000602082019050818103600083015261510a81614c5a565b9050919050565b60006020820190506151266000830184614cfe565b92915050565b60006080820190506151416000830187614cfe565b61514e6020830186614319565b61515b6040830185614319565b6151686060830184614cfe565b95945050505050565b6000604051905081810181811067ffffffffffffffff82111715615198576151976153b6565b5b8060405250919050565b600067ffffffffffffffff8211156151bd576151bc6153b6565b5b602082029050602081019050919050565b600067ffffffffffffffff8211156151e9576151e86153b6565b5b602082029050602081019050919050565b600067ffffffffffffffff821115615215576152146153b6565b5b601f19601f8301169050602081019050919050565b6000819050602082019050919050565b600081519050919050565b600081519050919050565b6000602082019050919050565b600082825260208201905092915050565b600082825260208201905092915050565b600061528a826152ba565b9050919050565b60008115159050919050565b6000819050919050565b60008190506152b5826153c9565b919050565b600073ffffffffffffffffffffffffffffffffffffffff82169050919050565b6000819050919050565b60006152ef82615350565b9050919050565b600061530182615308565b9050919050565b6000615313826152ba565b9050919050565b60006153258261532c565b9050919050565b6000615337826152ba565b9050919050565b6000615349826152a7565b9050919050565b600061535b82615362565b9050919050565b600061536d826152ba565b9050919050565b82818337600083830152505050565b60005b838110156153a1578082015181840152602081019050615386565b838111156153b0576000848401525b50505050565bfe5b6000601f19601f8301169050919050565b600381106153da576153d96153b6565b5b50565b6153e68161527f565b81146153f157600080fd5b50565b6153fd81615291565b811461540857600080fd5b50565b6154148161529d565b811461541f57600080fd5b50565b6003811061542f57600080fd5b50565b61543b816152da565b811461544657600080fd5b5056fe456e756d657261626c655365743a20696e646578206f7574206f6620626f756e6473416363657373436f6e74726f6c3a2073656e646572206d75737420626520616e2061646d696e20746f206772616e74416464726573733a20696e73756666696369656e742062616c616e636520666f722063616c6c416363657373436f6e74726f6c3a2073656e646572206d75737420626520616e2061646d696e20746f207265766f6b65536166654d6174683a206d756c7469706c69636174696f6e206f766572666c6f775361666545524332303a204552433230206f7065726174696f6e20646964206e6f742073756363656564416363657373436f6e74726f6c3a2063616e206f6e6c792072656e6f756e636520726f6c657320666f722073656c66a26469706673582212203c212718a2645775dce39f6a24f2428b4447f39559834eeba54c7ae1fb09a88764736f6c63430007060033",
  "immutableReferences": {},
  "source": "// SPDX-License-Identifier: MIT\r\npragma solidity =0.7.6;\r\npragma experimental ABIEncoderV2;\r\nimport \"@openzeppelin/contracts/access/AccessControl.sol\";\r\nimport \"@openzeppelin/contracts/token/ERC20/IERC20.sol\";\r\n// import \"@openzeppelin/contracts/math/SafeMath.sol\";\r\nimport \"@openzeppelin/contracts/token/ERC20/SafeERC20.sol\";\r\nimport \"./ICohort.sol\";\r\nimport \"./ICohortFactory.sol\";\r\nimport \"./../AuditToken.sol\";\r\n\r\n/**\r\n * @title Members\r\n * Allows on creation of Enterprise and Validator accounts and staking of funds by validators\r\n * Validators and enterprises have ability to withdraw their staking and earnings \r\n * Contract also contains several update functions controlled by the Governance contracts\r\n */\r\n\r\ncontract Members is  AccessControl {\r\n\r\n    using SafeMath for uint256;\r\n    using SafeERC20 for AuditToken;\r\n\r\n    struct DataSubscriberTypes{\r\n        address cohort;\r\n        uint256 audits;\r\n    }\r\n\r\n    bytes32 public constant CONTROLLER_ROLE = keccak256(\"CONTROLLER_ROLE\");\r\n    bytes32 public constant SETTER_ROLE =  keccak256(\"SETTER_ROLE\");\r\n\r\n    AuditToken public auditToken;                       //AUDT token \r\n    ICohortFactory public cohortFactory;\r\n    uint256 public stakedAmount;                        //total number of staked tokens   \r\n    mapping(address => uint256) public deposits;        //track deposits per user\r\n    mapping(address => DataSubscriberTypes[]) public dataSubscriberCohorts;\r\n    mapping(address => mapping(address => bool)) public dataSubscriberCohortMap;\r\n    uint256 public amountTokensPerValidation =  1e18;    //New minted amount per validation\r\n\r\n    uint256 public accessFee = 1000e18;\r\n    uint256 public enterpriseShareSubscriber = 40;\r\n    uint256 public validatorShareSubscriber = 40;\r\n    address public platformAddress;\r\n    uint256 public platformShareValidation = 15;    \r\n    uint256 public recentBlockUpdated;\r\n    uint256 public enterpriseMatch = 15e3;          //allow fractional enterprise match up to 4 decimal points\r\n    \r\n \r\n    /// @dev check if caller is a controller     \r\n    modifier isController {\r\n        require(hasRole(CONTROLLER_ROLE, msg.sender), \"Members:IsController - Caller is not a controller\");\r\n\r\n        _;\r\n    }\r\n\r\n    /// @dev check if caller is a setter     \r\n    modifier isSetter {\r\n        require(hasRole(SETTER_ROLE, msg.sender), \"Members:isSetter - Caller is not a setter\");\r\n\r\n        _;\r\n    }\r\n\r\n     // Audit types to be used. Two types added for future expansion \r\n    enum UserType {Enterprise, Validator, DataSubscriber}\r\n\r\n    // Structure to store address and name of the registered\r\n    struct User {  \r\n        address user;\r\n        string name;                                                                                                                         \r\n    }\r\n\r\n  \r\n\r\n    mapping(address => mapping(UserType => string)) public user;\r\n    mapping(address => mapping(UserType => bool)) public userMap;\r\n    uint256 public enterpriseCount;\r\n    uint256 public validatorCount;\r\n    uint256 public dataSubscriberCount;\r\n    \r\n    event EnterpriseUserAdded(address indexed user, string name);\r\n    event UserAdded(address indexed user, string name, UserType userType);\r\n    event LogDepositReceived(address indexed from, uint amount);\r\n    event LogRewardsRedeemed(address indexed from, uint256 amount);\r\n    event LogDataSubscriberPaid(address indexed from, uint256 accessFee,  address cohortAddress, address enterprise, uint256 enterpriseShare);\r\n    event LogDataSubscriberValidatorPaid(address  from, address indexed validator, uint256 amount);\r\n    event LogRewardsDeposited(address cohort, uint256 tokens, uint256 enterpriseAmount, address indexed enterprise);\r\n    event LogRewardsReceived(address indexed validator, uint256 tokens );\r\n    event LogSubscriptionCompleted(address subscriber, uint256 numberOfSubscriptions);\r\n    event LogUpdateRewards(uint256 rewards);\r\n    event LogUpdateEnterpriseMatch(uint256 portion);\r\n    \r\n\r\n    constructor(AuditToken _auditToken, address _platformAddress ) {\r\n\r\n        require(_auditToken != AuditToken(0), \"Members:constructor - Audit token address can't be 0\");\r\n        require(_platformAddress != address(0), \"Members:constructor - Platform address can't be 0\");\r\n        auditToken = _auditToken;        \r\n        platformAddress = _platformAddress;\r\n        _setupRole(DEFAULT_ADMIN_ROLE, msg.sender);\r\n    }\r\n\r\n    /**\r\n    * @dev to be called by administrator to set cohort Factory contract\r\n    * @param _cohortFactory cohortFactory contract\r\n    */\r\n    function setCohortFactory(address _cohortFactory) public isController() {\r\n\r\n        require(_cohortFactory != address(0), \"Members:setCohortFactory - CohortFactory address can't be 0\");\r\n        cohortFactory = ICohortFactory(_cohortFactory);\r\n    }\r\n\r\n\r\n    /**\r\n    * @dev to be called by Governance contract to update new amount for validation rewards\r\n    * @param _amountTokensPerValidation new value of reward per validation\r\n    */\r\n    function updateRewards(uint256 _amountTokensPerValidation) public isSetter() {\r\n\r\n        require(_amountTokensPerValidation != 0, \"Members:updateRewards - New value for the reward can't be 0\");\r\n        amountTokensPerValidation = _amountTokensPerValidation;\r\n        emit LogUpdateRewards(_amountTokensPerValidation);\r\n    }\r\n    \r\n    /**\r\n    * @dev to be called by Governance contract\r\n    * @param _enterpriseMatch new value of enterprise portion of enterprise value of validation cost\r\n    */\r\n    function updateEnterpriseMatch(uint256 _enterpriseMatch) public isSetter()  {\r\n\r\n        require(_enterpriseMatch != 0, \"Members:updateMinDepositDays - New value for the enterprise match can't be 0\");\r\n        enterpriseMatch = _enterpriseMatch;\r\n        emit LogUpdateEnterpriseMatch(_enterpriseMatch);\r\n    }\r\n\r\n    /**\r\n    * @dev to be called by Governance contract to change enterprise and validators shares\r\n    * of data subscription fees. \r\n    * @param _enterpriseShareSubscriber  - share of the enterprise\r\n    * @param _validatorShareSubscriber - share of the subscribers\r\n    */\r\n    function setDataSubscriberShares(uint256 _enterpriseShareSubscriber, uint256 _validatorShareSubscriber ) public isSetter()  {\r\n\r\n        require(_enterpriseShareSubscriber.add(validatorShareSubscriber) <=100, \"Enterprise and Validator shares can't be larger than 100\");\r\n        enterpriseShareSubscriber = _enterpriseShareSubscriber;\r\n        validatorShareSubscriber = _validatorShareSubscriber;\r\n    }\r\n\r\n    /**\r\n     * @dev Function to accept contribution to staking\r\n     * @param amount number of AUDT tokens sent to contract for staking     \r\n     */ \r\n     function stake(uint256 amount) public {\r\n\r\n        require(amount > 0, \"Members:stake - Amount can't be 0\");\r\n\r\n        // user[newUser][userType] = name;\r\n        // userMap[newUser][userType] = true;\r\n\r\n        if (userMap[msg.sender][UserType.Validator]){ \r\n            require(amount + deposits[msg.sender] >= 5e21, \"Staking:stake - Minimum contribution amount is 5000 AUDT tokens\");  \r\n            require(amount + deposits[msg.sender] <= 25e21, \"Staking:stake - Maximum contribution amount is 25000 AUDT tokens\");     \r\n        }\r\n        require(userMap[msg.sender][UserType.Validator] || userMap[msg.sender][UserType.Enterprise], \"Staking:stake - User has been not registered as a validator or enterprise.\"); \r\n        stakedAmount = stakedAmount.add(amount);  // track tokens contributed so far\r\n        auditToken.safeTransferFrom(msg.sender, address(this), amount);\r\n        deposits[msg.sender] = deposits[msg.sender].add(amount);\r\n        emit LogDepositReceived(msg.sender, amount);       \r\n    }\r\n\r\n    /**\r\n    * @dev to be called by scheduled calls by platform daily to save gas\r\n    * the process can be called at any time \r\n    * @param _validators - list of validators eligible for earnings\r\n    * @param tokens - list of tokens earned by each validator\r\n    */\r\n    function updateDailyEarningsTransferFunds(address[] memory _validators, uint256[] memory tokens, address cohort) public isController() {\r\n\r\n        require(cohort != address(0), \"Cohort address can't be 0\");\r\n        require(_validators.length == tokens.length, \"Members:updateDailyEarningsTransferFunds - List of validators doesn't match list  of their respective tokens\");\r\n\r\n        uint256 totalRewardTokens;\r\n\r\n        address enterpriseAddress = ICohort(cohort).enterprise();\r\n        ICohort(cohort).resetOutstandingValidations();\r\n        uint256 totalEnterprisePay;\r\n\r\n        for (uint256 i=0; i< _validators.length; i++){\r\n            require(_validators[i] != address(0), \"One of the validators in the list has address 0\");\r\n            // 1e4 to adjust for 4 decimal points for enterpriseMatch\r\n            uint256 enterprisePortion =  (tokens[i].mul(enterpriseMatch).div(1e4));\r\n            totalEnterprisePay = totalEnterprisePay.add(enterprisePortion);\r\n            deposits[_validators[i]] = deposits[_validators[i]].add(tokens[i]).add(enterprisePortion);\r\n            totalRewardTokens = totalRewardTokens.add(tokens[i]);\r\n            LogRewardsReceived(_validators[i], tokens[i].add(enterprisePortion));\r\n        }\r\n        // decrease enterprise token amount by its reward share to validators\r\n        deposits[enterpriseAddress] = deposits[enterpriseAddress].sub(totalEnterprisePay);\r\n\r\n        uint256 amountTokensPlatform = totalRewardTokens.mul(platformShareValidation).div(85);\r\n        \r\n        recentBlockUpdated = block.number;\r\n        auditToken.mint(platformAddress, amountTokensPlatform);\r\n        auditToken.mint(address(this), totalRewardTokens);\r\n        emit LogRewardsDeposited(cohort, totalRewardTokens, totalEnterprisePay, enterpriseAddress);\r\n    }\r\n\r\n    /**\r\n    * @dev called when data subscriber initiates subscription \r\n    * @param cohortAddress - address of the cohort to which data subscriber wants access \r\n    * @param audits - type of audits this cohort is part of\r\n    */\r\n    function dataSubscriberPayment(address cohortAddress, uint256 audits) public  {\r\n\r\n        require(cohortAddress != address(0), \"Members:dataSubscriberPayment - Cohort address can't be 0\");\r\n        require(audits >=0 && audits <=5, \"Audit type is not in the required range\");\r\n        require(!dataSubscriberCohortMap[msg.sender][cohortAddress], \"Members:dataSubscriberPayment - You are already subscribed\");\r\n        require(userMap[msg.sender][UserType.DataSubscriber], \"Members:dataSubscriberPayment - You have to register as data subscriber\");\r\n\r\n        auditToken.safeTransferFrom(msg.sender, address(this), accessFee);\r\n        uint platformShare = (((enterpriseShareSubscriber).add(validatorShareSubscriber)).mul(100)).div(accessFee);\r\n        auditToken.safeTransfer(platformAddress, accessFee.mul(platformShare).div(100));\r\n        // auditToken.safeTransfer(platformAddress, accessFee.mul((uint256(100)).sub(enterpriseShareSubscriber).sub(validatorShareSubscriber)).div(100));\r\n\r\n        if (userMap[msg.sender][UserType.Validator] || userMap[msg.sender][UserType.Enterprise]){\r\n            stakedAmount = stakedAmount.sub(accessFee);  // track tokens contributed so far\r\n            deposits[msg.sender] = deposits[msg.sender].sub(accessFee);\r\n        }\r\n\r\n        address cohortOwner = ICohort(cohortAddress).enterprise();\r\n        uint256 enterpriseShare = accessFee.mul(enterpriseShareSubscriber).div(100);\r\n        deposits[cohortOwner] = deposits[cohortOwner].add(enterpriseShare);\r\n        allocateValidatorDataSubscriberFee(cohortAddress, accessFee.mul(validatorShareSubscriber).div(100));\r\n        dataSubscriberCohorts[msg.sender].push();\r\n        dataSubscriberCohorts[msg.sender][dataSubscriberCohorts[msg.sender].length -1].cohort = cohortAddress;\r\n        dataSubscriberCohorts[msg.sender][dataSubscriberCohorts[msg.sender].length- 1].audits = audits;\r\n        dataSubscriberCohortMap[msg.sender][cohortAddress] = true;\r\n\r\n        emit LogDataSubscriberPaid(msg.sender, accessFee, cohortAddress, cohortOwner, enterpriseShare);\r\n    }\r\n\r\n    /**\r\n    * @dev To return all cohorts to which data subscriber is subscribed to \r\n    * @param subscriber - address of the subscriber\r\n    * @return the structure with cohort address and their types for subscriber\r\n    */\r\n    function returnCohortsForDataSubscriber(address subscriber) public view returns(DataSubscriberTypes[] memory){\r\n            return (dataSubscriberCohorts[subscriber]);\r\n    }\r\n\r\n    /**\r\n    * @dev To automate subscription for multiple cohorts for data subscriber \r\n    * @param cohortAddress - array of cohort addresses\r\n    * @param audits - array of audit types for each cohort\r\n    */\r\n    function dataSubscriberPaymentMultiple(address[] memory cohortAddress, uint256[] memory audits) public {\r\n\r\n        uint256 length = cohortAddress.length;\r\n        require(length <= 256, \"Members-dataSubscriberPaymentMultiple: List too long\");\r\n        for (uint256 i = 0; i < length; i++) {\r\n            dataSubscriberPayment(cohortAddress[i], audits[i]);\r\n        }\r\n\r\n        emit LogSubscriptionCompleted(msg.sender, length);\r\n    }\r\n\r\n    /**\r\n    * @dev To calculate validator share of data subscriber fee and allocate it to validator deposits\r\n    * @param cohortAddress - address of cohort holding list of validators\r\n    * @param amount - total amount of tokens available for allocation\r\n    */\r\n    function allocateValidatorDataSubscriberFee(address cohortAddress, uint amount) internal  {\r\n\r\n        address[] memory cohortValidators = ICohort(cohortAddress).returnValidators();\r\n        uint256 totalDeposits;\r\n\r\n        for (uint i=0; i < cohortValidators.length; i++){\r\n            totalDeposits = totalDeposits.add(deposits[cohortValidators[i]]);\r\n        }\r\n\r\n        for (uint i=0; i < cohortValidators.length; i++){\r\n            uint256 oneValidatorPercentage = (deposits[cohortValidators[i]].mul(10e18)).div(totalDeposits);\r\n            uint256 oneValidatorAmount = amount.mul(oneValidatorPercentage).div(10e18);\r\n            deposits[cohortValidators[i]] = deposits[cohortValidators[i]].add(accessFee.mul(oneValidatorAmount).div(100).div(10e18)  );\r\n            emit LogDataSubscriberValidatorPaid(msg.sender, cohortValidators[i], oneValidatorAmount);\r\n        }\r\n    }\r\n   \r\n     /**\r\n     * @dev Function to redeem contribution. \r\n     * @param amount number of tokens being redeemed\r\n     */\r\n    function redeem(uint256 amount) public {\r\n\r\n          if (userMap[msg.sender][UserType.Enterprise]){\r\n              // div(1e4) to adjust for four decimal points\r\n            require(deposits[msg.sender]\r\n            .sub(enterpriseMatch.mul(amountTokensPerValidation).mul(cohortFactory.returnOutstandingValidations()).div(1e4)) >= amount, \r\n            \"Member:redeem - Your deposit will be too low to fullfil your outstanding payments.\");\r\n          }\r\n\r\n        stakedAmount = stakedAmount.sub(amount);       \r\n        deposits[msg.sender] = deposits[msg.sender].sub(amount);\r\n        auditToken.safeTransfer(msg.sender, amount);\r\n        emit LogRewardsRedeemed(msg.sender, amount);\r\n        \r\n    }\r\n\r\n   \r\n    /*\r\n    * @dev add new platform user\r\n    * @param user to add\r\n    * @param name name of the user\r\n    * @param userType  \r\n    */\r\n    function addUser(address newUser, string memory name, UserType userType) public isController() {\r\n\r\n        require(!userMap[newUser][userType], \"Members:addUser - This user already exist.\");\r\n        user[newUser][userType] = name;\r\n        userMap[newUser][userType] = true;\r\n\r\n        if (userType == UserType.DataSubscriber) \r\n            dataSubscriberCount++;\r\n        else if (userType == UserType.Validator)\r\n            validatorCount++;\r\n        else if (userType == UserType.Enterprise)\r\n            enterpriseCount++;\r\n     \r\n        emit UserAdded(newUser, name, userType);\r\n    }\r\n\r\n}\r\n\r\n\r\n\r\n",
  "sourcePath": "/home/bogdan/Ethereum/Projects/TGE/Core-Smart-Contracts-v1/contracts/Auditchain/Members.sol",
  "compiler": {
    "name": "solc",
    "version": "0.7.6+commit.7338295f.Emscripten.clang"
  },
  "schemaVersion": "3.4.0",
  "updatedAt": "2021-04-30T01:31:52.812Z",
  "networkType": "ethereum",
  "devdoc": {
    "kind": "dev",
    "methods": {
      "dataSubscriberPayment(address,uint256)": {
        "details": "called when data subscriber initiates subscription ",
        "params": {
          "audits": "- type of audits this cohort is part of",
          "cohortAddress": "- address of the cohort to which data subscriber wants access "
        }
      },
      "dataSubscriberPaymentMultiple(address[],uint256[])": {
        "details": "To automate subscription for multiple cohorts for data subscriber ",
        "params": {
          "audits": "- array of audit types for each cohort",
          "cohortAddress": "- array of cohort addresses"
        }
      },
      "getRoleAdmin(bytes32)": {
        "details": "Returns the admin role that controls `role`. See {grantRole} and {revokeRole}. To change a role's admin, use {_setRoleAdmin}."
      },
      "getRoleMember(bytes32,uint256)": {
        "details": "Returns one of the accounts that have `role`. `index` must be a value between 0 and {getRoleMemberCount}, non-inclusive. Role bearers are not sorted in any particular way, and their ordering may change at any point. WARNING: When using {getRoleMember} and {getRoleMemberCount}, make sure you perform all queries on the same block. See the following https://forum.openzeppelin.com/t/iterating-over-elements-on-enumerableset-in-openzeppelin-contracts/2296[forum post] for more information."
      },
      "getRoleMemberCount(bytes32)": {
        "details": "Returns the number of accounts that have `role`. Can be used together with {getRoleMember} to enumerate all bearers of a role."
      },
      "grantRole(bytes32,address)": {
        "details": "Grants `role` to `account`. If `account` had not been already granted `role`, emits a {RoleGranted} event. Requirements: - the caller must have ``role``'s admin role."
      },
      "hasRole(bytes32,address)": {
        "details": "Returns `true` if `account` has been granted `role`."
      },
      "redeem(uint256)": {
        "details": "Function to redeem contribution. ",
        "params": {
          "amount": "number of tokens being redeemed"
        }
      },
      "renounceRole(bytes32,address)": {
        "details": "Revokes `role` from the calling account. Roles are often managed via {grantRole} and {revokeRole}: this function's purpose is to provide a mechanism for accounts to lose their privileges if they are compromised (such as when a trusted device is misplaced). If the calling account had been granted `role`, emits a {RoleRevoked} event. Requirements: - the caller must be `account`."
      },
      "returnCohortsForDataSubscriber(address)": {
        "details": "To return all cohorts to which data subscriber is subscribed to ",
        "params": {
          "subscriber": "- address of the subscriber"
        },
        "returns": {
          "_0": "the structure with cohort address and their types for subscriber"
        }
      },
      "revokeRole(bytes32,address)": {
        "details": "Revokes `role` from `account`. If `account` had been granted `role`, emits a {RoleRevoked} event. Requirements: - the caller must have ``role``'s admin role."
      },
      "setCohortFactory(address)": {
        "details": "to be called by administrator to set cohort Factory contract",
        "params": {
          "_cohortFactory": "cohortFactory contract"
        }
      },
      "setDataSubscriberShares(uint256,uint256)": {
        "details": "to be called by Governance contract to change enterprise and validators shares of data subscription fees. ",
        "params": {
          "_enterpriseShareSubscriber": "- share of the enterprise",
          "_validatorShareSubscriber": "- share of the subscribers"
        }
      },
      "stake(uint256)": {
        "details": "Function to accept contribution to staking",
        "params": {
          "amount": "number of AUDT tokens sent to contract for staking     "
        }
      },
      "updateDailyEarningsTransferFunds(address[],uint256[],address)": {
        "details": "to be called by scheduled calls by platform daily to save gas the process can be called at any time ",
        "params": {
          "_validators": "- list of validators eligible for earnings",
          "tokens": "- list of tokens earned by each validator"
        }
      },
      "updateEnterpriseMatch(uint256)": {
        "details": "to be called by Governance contract",
        "params": {
          "_enterpriseMatch": "new value of enterprise portion of enterprise value of validation cost"
        }
      },
      "updateRewards(uint256)": {
        "details": "to be called by Governance contract to update new amount for validation rewards",
        "params": {
          "_amountTokensPerValidation": "new value of reward per validation"
        }
      }
    },
    "title": "Members Allows on creation of Enterprise and Validator accounts and staking of funds by validators Validators and enterprises have ability to withdraw their staking and earnings  Contract also contains several update functions controlled by the Governance contracts",
    "version": 1
  },
  "userdoc": {
    "kind": "user",
    "methods": {},
    "version": 1
  }
}