{
  "contractName": "Members",
  "abi": [
    {
      "inputs": [
        {
          "internalType": "address",
          "name": "_platformAddress",
          "type": "address"
        }
      ],
      "stateMutability": "nonpayable",
      "type": "constructor"
    },
    {
      "anonymous": false,
      "inputs": [
        {
          "indexed": true,
          "internalType": "address",
          "name": "from",
          "type": "address"
        },
        {
          "indexed": false,
          "internalType": "uint256",
          "name": "amount",
          "type": "uint256"
        }
      ],
      "name": "LogDepositReceived",
      "type": "event"
    },
    {
      "anonymous": false,
      "inputs": [
        {
          "indexed": false,
          "internalType": "address",
          "name": "subscriber",
          "type": "address"
        },
        {
          "indexed": false,
          "internalType": "uint256",
          "name": "numberOfSubscriptions",
          "type": "uint256"
        }
      ],
      "name": "LogSubscriptionCompleted",
      "type": "event"
    },
    {
      "anonymous": false,
      "inputs": [
        {
          "indexed": false,
          "internalType": "uint256",
          "name": "portion",
          "type": "uint256"
        }
      ],
      "name": "LogUpdateEnterpriseMatch",
      "type": "event"
    },
    {
      "anonymous": false,
      "inputs": [
        {
          "indexed": false,
          "internalType": "uint256",
          "name": "rewards",
          "type": "uint256"
        }
      ],
      "name": "LogUpdateRewards",
      "type": "event"
    },
    {
      "anonymous": false,
      "inputs": [
        {
          "indexed": true,
          "internalType": "bytes32",
          "name": "role",
          "type": "bytes32"
        },
        {
          "indexed": true,
          "internalType": "bytes32",
          "name": "previousAdminRole",
          "type": "bytes32"
        },
        {
          "indexed": true,
          "internalType": "bytes32",
          "name": "newAdminRole",
          "type": "bytes32"
        }
      ],
      "name": "RoleAdminChanged",
      "type": "event"
    },
    {
      "anonymous": false,
      "inputs": [
        {
          "indexed": true,
          "internalType": "bytes32",
          "name": "role",
          "type": "bytes32"
        },
        {
          "indexed": true,
          "internalType": "address",
          "name": "account",
          "type": "address"
        },
        {
          "indexed": true,
          "internalType": "address",
          "name": "sender",
          "type": "address"
        }
      ],
      "name": "RoleGranted",
      "type": "event"
    },
    {
      "anonymous": false,
      "inputs": [
        {
          "indexed": true,
          "internalType": "bytes32",
          "name": "role",
          "type": "bytes32"
        },
        {
          "indexed": true,
          "internalType": "address",
          "name": "account",
          "type": "address"
        },
        {
          "indexed": true,
          "internalType": "address",
          "name": "sender",
          "type": "address"
        }
      ],
      "name": "RoleRevoked",
      "type": "event"
    },
    {
      "anonymous": false,
      "inputs": [
        {
          "indexed": true,
          "internalType": "address",
          "name": "user",
          "type": "address"
        },
        {
          "indexed": false,
          "internalType": "string",
          "name": "name",
          "type": "string"
        },
        {
          "indexed": false,
          "internalType": "enum Members.UserType",
          "name": "userType",
          "type": "uint8"
        }
      ],
      "name": "UserAdded",
      "type": "event"
    },
    {
      "inputs": [],
      "name": "CONTROLLER_ROLE",
      "outputs": [
        {
          "internalType": "bytes32",
          "name": "",
          "type": "bytes32"
        }
      ],
      "stateMutability": "view",
      "type": "function",
      "constant": true
    },
    {
      "inputs": [],
      "name": "DEFAULT_ADMIN_ROLE",
      "outputs": [
        {
          "internalType": "bytes32",
          "name": "",
          "type": "bytes32"
        }
      ],
      "stateMutability": "view",
      "type": "function",
      "constant": true
    },
    {
      "inputs": [],
      "name": "SETTER_ROLE",
      "outputs": [
        {
          "internalType": "bytes32",
          "name": "",
          "type": "bytes32"
        }
      ],
      "stateMutability": "view",
      "type": "function",
      "constant": true
    },
    {
      "inputs": [],
      "name": "accessFee",
      "outputs": [
        {
          "internalType": "uint256",
          "name": "",
          "type": "uint256"
        }
      ],
      "stateMutability": "view",
      "type": "function",
      "constant": true
    },
    {
      "inputs": [],
      "name": "amountTokensPerValidation",
      "outputs": [
        {
          "internalType": "uint256",
          "name": "",
          "type": "uint256"
        }
      ],
      "stateMutability": "view",
      "type": "function",
      "constant": true
    },
    {
      "inputs": [
        {
          "internalType": "uint256",
          "name": "",
          "type": "uint256"
        }
      ],
      "name": "dataSubscribers",
      "outputs": [
        {
          "internalType": "address",
          "name": "",
          "type": "address"
        }
      ],
      "stateMutability": "view",
      "type": "function",
      "constant": true
    },
    {
      "inputs": [],
      "name": "enterpriseMatch",
      "outputs": [
        {
          "internalType": "uint256",
          "name": "",
          "type": "uint256"
        }
      ],
      "stateMutability": "view",
      "type": "function",
      "constant": true
    },
    {
      "inputs": [],
      "name": "enterpriseShareSubscriber",
      "outputs": [
        {
          "internalType": "uint256",
          "name": "",
          "type": "uint256"
        }
      ],
      "stateMutability": "view",
      "type": "function",
      "constant": true
    },
    {
      "inputs": [
        {
          "internalType": "uint256",
          "name": "",
          "type": "uint256"
        }
      ],
      "name": "enterprises",
      "outputs": [
        {
          "internalType": "address",
          "name": "",
          "type": "address"
        }
      ],
      "stateMutability": "view",
      "type": "function",
      "constant": true
    },
    {
      "inputs": [
        {
          "internalType": "bytes32",
          "name": "role",
          "type": "bytes32"
        }
      ],
      "name": "getRoleAdmin",
      "outputs": [
        {
          "internalType": "bytes32",
          "name": "",
          "type": "bytes32"
        }
      ],
      "stateMutability": "view",
      "type": "function",
      "constant": true
    },
    {
      "inputs": [
        {
          "internalType": "bytes32",
          "name": "role",
          "type": "bytes32"
        },
        {
          "internalType": "address",
          "name": "account",
          "type": "address"
        }
      ],
      "name": "grantRole",
      "outputs": [],
      "stateMutability": "nonpayable",
      "type": "function"
    },
    {
      "inputs": [
        {
          "internalType": "bytes32",
          "name": "role",
          "type": "bytes32"
        },
        {
          "internalType": "address",
          "name": "account",
          "type": "address"
        }
      ],
      "name": "hasRole",
      "outputs": [
        {
          "internalType": "bool",
          "name": "",
          "type": "bool"
        }
      ],
      "stateMutability": "view",
      "type": "function",
      "constant": true
    },
    {
      "inputs": [],
      "name": "platformAddress",
      "outputs": [
        {
          "internalType": "address",
          "name": "",
          "type": "address"
        }
      ],
      "stateMutability": "view",
      "type": "function",
      "constant": true
    },
    {
      "inputs": [],
      "name": "platformShareValidation",
      "outputs": [
        {
          "internalType": "uint256",
          "name": "",
          "type": "uint256"
        }
      ],
      "stateMutability": "view",
      "type": "function",
      "constant": true
    },
    {
      "inputs": [],
      "name": "recentBlockUpdated",
      "outputs": [
        {
          "internalType": "uint256",
          "name": "",
          "type": "uint256"
        }
      ],
      "stateMutability": "view",
      "type": "function",
      "constant": true
    },
    {
      "inputs": [
        {
          "internalType": "bytes32",
          "name": "role",
          "type": "bytes32"
        },
        {
          "internalType": "address",
          "name": "account",
          "type": "address"
        }
      ],
      "name": "renounceRole",
      "outputs": [],
      "stateMutability": "nonpayable",
      "type": "function"
    },
    {
      "inputs": [
        {
          "internalType": "bytes32",
          "name": "role",
          "type": "bytes32"
        },
        {
          "internalType": "address",
          "name": "account",
          "type": "address"
        }
      ],
      "name": "revokeRole",
      "outputs": [],
      "stateMutability": "nonpayable",
      "type": "function"
    },
    {
      "inputs": [
        {
          "internalType": "bytes4",
          "name": "interfaceId",
          "type": "bytes4"
        }
      ],
      "name": "supportsInterface",
      "outputs": [
        {
          "internalType": "bool",
          "name": "",
          "type": "bool"
        }
      ],
      "stateMutability": "view",
      "type": "function",
      "constant": true
    },
    {
      "inputs": [
        {
          "internalType": "address",
          "name": "",
          "type": "address"
        },
        {
          "internalType": "enum Members.UserType",
          "name": "",
          "type": "uint8"
        }
      ],
      "name": "user",
      "outputs": [
        {
          "internalType": "string",
          "name": "",
          "type": "string"
        }
      ],
      "stateMutability": "view",
      "type": "function",
      "constant": true
    },
    {
      "inputs": [
        {
          "internalType": "address",
          "name": "",
          "type": "address"
        },
        {
          "internalType": "enum Members.UserType",
          "name": "",
          "type": "uint8"
        }
      ],
      "name": "userMap",
      "outputs": [
        {
          "internalType": "bool",
          "name": "",
          "type": "bool"
        }
      ],
      "stateMutability": "view",
      "type": "function",
      "constant": true
    },
    {
      "inputs": [],
      "name": "validatorShareSubscriber",
      "outputs": [
        {
          "internalType": "uint256",
          "name": "",
          "type": "uint256"
        }
      ],
      "stateMutability": "view",
      "type": "function",
      "constant": true
    },
    {
      "inputs": [
        {
          "internalType": "uint256",
          "name": "",
          "type": "uint256"
        }
      ],
      "name": "validators",
      "outputs": [
        {
          "internalType": "address",
          "name": "",
          "type": "address"
        }
      ],
      "stateMutability": "view",
      "type": "function",
      "constant": true
    },
    {
      "inputs": [
        {
          "internalType": "uint256",
          "name": "_amountTokensPerValidation",
          "type": "uint256"
        }
      ],
      "name": "updateRewards",
      "outputs": [],
      "stateMutability": "nonpayable",
      "type": "function"
    },
    {
      "inputs": [
        {
          "internalType": "uint256",
          "name": "_enterpriseMatch",
          "type": "uint256"
        }
      ],
      "name": "updateEnterpriseMatch",
      "outputs": [],
      "stateMutability": "nonpayable",
      "type": "function"
    },
    {
      "inputs": [
        {
          "internalType": "uint256",
          "name": "_enterpriseShareSubscriber",
          "type": "uint256"
        },
        {
          "internalType": "uint256",
          "name": "_validatorShareSubscriber",
          "type": "uint256"
        }
      ],
      "name": "setDataSubscriberShares",
      "outputs": [],
      "stateMutability": "nonpayable",
      "type": "function"
    },
    {
      "inputs": [
        {
          "internalType": "address",
          "name": "newUser",
          "type": "address"
        },
        {
          "internalType": "string",
          "name": "name",
          "type": "string"
        },
        {
          "internalType": "enum Members.UserType",
          "name": "userType",
          "type": "uint8"
        }
      ],
      "name": "addUser",
      "outputs": [],
      "stateMutability": "nonpayable",
      "type": "function"
    },
    {
      "inputs": [],
      "name": "returnValidatorList",
      "outputs": [
        {
          "internalType": "address[]",
          "name": "",
          "type": "address[]"
        }
      ],
      "stateMutability": "view",
      "type": "function",
      "constant": true
    }
  ],
  "bytecode": "0x608060405268056bc75e2d6310000060015568056bc75e2d6310000060025560286003556028600455600f60065560c86008553480156200003f57600080fd5b5060405162002ace38038062002ace8339818101604052810190620000659190620002c5565b600073ffffffffffffffffffffffffffffffffffffffff168173ffffffffffffffffffffffffffffffffffffffff161415620000d8576040517f08c379a0000000000000000000000000000000000000000000000000000000008152600401620000cf9062000359565b60405180910390fd5b80600560006101000a81548173ffffffffffffffffffffffffffffffffffffffff021916908373ffffffffffffffffffffffffffffffffffffffff1602179055506200012e6000801b336200013560201b60201c565b50620003da565b6200014782826200014b60201b60201c565b5050565b6200015d82826200023c60201b60201c565b6200023857600160008084815260200190815260200160002060000160008373ffffffffffffffffffffffffffffffffffffffff1673ffffffffffffffffffffffffffffffffffffffff16815260200190815260200160002060006101000a81548160ff021916908315150217905550620001dd620002a660201b60201c565b73ffffffffffffffffffffffffffffffffffffffff168173ffffffffffffffffffffffffffffffffffffffff16837f2f8788117e7eff1d82e926ec794901d17c78024a50270940304540a733656f0d60405160405180910390a45b5050565b600080600084815260200190815260200160002060000160008373ffffffffffffffffffffffffffffffffffffffff1673ffffffffffffffffffffffffffffffffffffffff16815260200190815260200160002060009054906101000a900460ff16905092915050565b600033905090565b600081519050620002bf81620003c0565b92915050565b600060208284031215620002d857600080fd5b6000620002e884828501620002ae565b91505092915050565b6000620003006031836200037b565b91507f4d656d626572733a636f6e7374727563746f72202d20506c6174666f726d206160008301527f6464726573732063616e277420626520300000000000000000000000000000006020830152604082019050919050565b600060208201905081810360008301526200037481620002f1565b9050919050565b600082825260208201905092915050565b60006200039982620003a0565b9050919050565b600073ffffffffffffffffffffffffffffffffffffffff82169050919050565b620003cb816200038c565b8114620003d757600080fd5b50565b6126e480620003ea6000396000f3fe608060405234801561001057600080fd5b50600436106101a95760003560e01c80636f9cf985116100f9578063ba0e142f11610097578063dac95d4111610071578063dac95d41146104e2578063dbe55e5614610500578063e9b6c9751461051e578063f89a32bf1461053c576101a9565b8063ba0e142f14610466578063d3156a8514610496578063d547741f146104c6576101a9565b8063a2011b3f116100d3578063a2011b3f146103f0578063a217fddf1461040e578063a7579be81461042c578063b1e95e941461044a576101a9565b80636f9cf9851461036057806391d14854146103905780639fbae286146103c0576101a9565b80633507abaf1161016657806340d268541161014057806340d26854146102ec578063492b85cd146103085780634d9c798c146103265780635c3e152114610344576101a9565b80633507abaf1461028257806335aa2e44146102a057806336568abe146102d0576101a9565b806301ffc9a7146101ae578063092c5b3b146101de5780630acf09d8146101fc5780630c13f8331461021a578063248a9ca3146102365780632f2ff15d14610266575b600080fd5b6101c860048036038101906101c39190611b1d565b61055a565b6040516101d5919061210c565b60405180910390f35b6101e66105d4565b6040516101f39190612127565b60405180910390f35b6102046105f8565b6040516102119190612294565b60405180910390f35b610234600480360381019061022f9190611b46565b6105fe565b005b610250600480360381019061024b9190611ab8565b6106ec565b60405161025d9190612127565b60405180910390f35b610280600480360381019061027b9190611ae1565b61070b565b005b61028a610734565b6040516102979190612294565b60405180910390f35b6102ba60048036038101906102b59190611b46565b61073a565b6040516102c791906120cf565b60405180910390f35b6102ea60048036038101906102e59190611ae1565b610779565b005b61030660048036038101906103019190611a51565b6107fc565b005b610310610e16565b60405161031d9190612294565b60405180910390f35b61032e610e1c565b60405161033b9190612294565b60405180910390f35b61035e60048036038101906103599190611b6f565b610e22565b005b61037a60048036038101906103759190611a15565b610ef5565b604051610387919061210c565b60405180910390f35b6103aa60048036038101906103a59190611ae1565b610f24565b6040516103b7919061210c565b60405180910390f35b6103da60048036038101906103d59190611b46565b610f8e565b6040516103e791906120cf565b60405180910390f35b6103f8610fcd565b6040516104059190612127565b60405180910390f35b610416610ff1565b6040516104239190612127565b60405180910390f35b610434610ff8565b6040516104419190612294565b60405180910390f35b610464600480360381019061045f9190611b46565b610ffe565b005b610480600480360381019061047b9190611a15565b6110ec565b60405161048d9190612142565b60405180910390f35b6104b060048036038101906104ab9190611b46565b611199565b6040516104bd91906120cf565b60405180910390f35b6104e060048036038101906104db9190611ae1565b6111d8565b005b6104ea611201565b6040516104f79190612294565b60405180910390f35b610508611207565b60405161051591906120cf565b60405180910390f35b61052661122d565b6040516105339190612294565b60405180910390f35b610544611233565b60405161055191906120ea565b60405180910390f35b60007f7965db0b000000000000000000000000000000000000000000000000000000007bffffffffffffffffffffffffffffffffffffffffffffffffffffffff1916827bffffffffffffffffffffffffffffffffffffffffffffffffffffffff191614806105cd57506105cc826112c1565b5b9050919050565b7f7b765e0e932d348852a6f810bfa1ab891e259123f02db8cdcde614c57022335781565b60075481565b6106287f61c92169ef077349011ff0b1383c894d86c5f0b41d986366b58a6cf31e93beda33610f24565b610667576040517f08c379a000000000000000000000000000000000000000000000000000000000815260040161065e90612214565b60405180910390fd5b60008114156106ab576040517f08c379a00000000000000000000000000000000000000000000000000000000081526004016106a2906121d4565b60405180910390fd5b806008819055507f993e68e99eaf9d58cf27bbe7a3e2392d07c3fcddc07ed570962f7702b592c24a816040516106e19190612294565b60405180910390a150565b6000806000838152602001908152602001600020600101549050919050565b610714826106ec565b6107258161072061132b565b611333565b61072f83836113d0565b505050565b60065481565b600c818154811061074a57600080fd5b906000526020600020016000915054906101000a900473ffffffffffffffffffffffffffffffffffffffff1681565b61078161132b565b73ffffffffffffffffffffffffffffffffffffffff168173ffffffffffffffffffffffffffffffffffffffff16146107ee576040517f08c379a00000000000000000000000000000000000000000000000000000000081526004016107e590612274565b60405180910390fd5b6107f882826114b0565b5050565b6108267f7b765e0e932d348852a6f810bfa1ab891e259123f02db8cdcde614c57022335733610f24565b610865576040517f08c379a000000000000000000000000000000000000000000000000000000000815260040161085c90612234565b60405180910390fd5b600a60008473ffffffffffffffffffffffffffffffffffffffff1673ffffffffffffffffffffffffffffffffffffffff16815260200190815260200160002060008260028111156108df577f4e487b7100000000000000000000000000000000000000000000000000000000600052602160045260246000fd5b6002811115610917577f4e487b7100000000000000000000000000000000000000000000000000000000600052602160045260246000fd5b815260200190815260200160002060009054906101000a900460ff1615610973576040517f08c379a000000000000000000000000000000000000000000000000000000000815260040161096a906121f4565b60405180910390fd5b81600960008573ffffffffffffffffffffffffffffffffffffffff1673ffffffffffffffffffffffffffffffffffffffff16815260200190815260200160002060008360028111156109ee577f4e487b7100000000000000000000000000000000000000000000000000000000600052602160045260246000fd5b6002811115610a26577f4e487b7100000000000000000000000000000000000000000000000000000000600052602160045260246000fd5b81526020019081526020016000209080519060200190610a479291906118a1565b506001600a60008573ffffffffffffffffffffffffffffffffffffffff1673ffffffffffffffffffffffffffffffffffffffff1681526020019081526020016000206000836002811115610ac4577f4e487b7100000000000000000000000000000000000000000000000000000000600052602160045260246000fd5b6002811115610afc577f4e487b7100000000000000000000000000000000000000000000000000000000600052602160045260246000fd5b815260200190815260200160002060006101000a81548160ff021916908315150217905550600280811115610b5a577f4e487b7100000000000000000000000000000000000000000000000000000000600052602160045260246000fd5b816002811115610b93577f4e487b7100000000000000000000000000000000000000000000000000000000600052602160045260246000fd5b1415610c0157600d839080600181540180825580915050600190039060005260206000200160009091909190916101000a81548173ffffffffffffffffffffffffffffffffffffffff021916908373ffffffffffffffffffffffffffffffffffffffff160217905550610dc1565b60016002811115610c3b577f4e487b7100000000000000000000000000000000000000000000000000000000600052602160045260246000fd5b816002811115610c74577f4e487b7100000000000000000000000000000000000000000000000000000000600052602160045260246000fd5b1415610ce257600c839080600181540180825580915050600190039060005260206000200160009091909190916101000a81548173ffffffffffffffffffffffffffffffffffffffff021916908373ffffffffffffffffffffffffffffffffffffffff160217905550610dc0565b60006002811115610d1c577f4e487b7100000000000000000000000000000000000000000000000000000000600052602160045260246000fd5b816002811115610d55577f4e487b7100000000000000000000000000000000000000000000000000000000600052602160045260246000fd5b1415610dbf57600b839080600181540180825580915050600190039060005260206000200160009091909190916101000a81548173ffffffffffffffffffffffffffffffffffffffff021916908373ffffffffffffffffffffffffffffffffffffffff1602179055505b5b5b8273ffffffffffffffffffffffffffffffffffffffff167f8897d4c16f6b907647cc92f3b2f80418ac81581b8e74f9dda595d3910b44c8628383604051610e09929190612164565b60405180910390a2505050565b60025481565b60015481565b610e4c7f61c92169ef077349011ff0b1383c894d86c5f0b41d986366b58a6cf31e93beda33610f24565b610e8b576040517f08c379a0000000000000000000000000000000000000000000000000000000008152600401610e8290612214565b60405180910390fd5b6064610ea26004548461159190919063ffffffff16565b1115610ee3576040517f08c379a0000000000000000000000000000000000000000000000000000000008152600401610eda906121b4565b60405180910390fd5b81600381905550806004819055505050565b600a6020528160005260406000206020528060005260406000206000915091509054906101000a900460ff1681565b600080600084815260200190815260200160002060000160008373ffffffffffffffffffffffffffffffffffffffff1673ffffffffffffffffffffffffffffffffffffffff16815260200190815260200160002060009054906101000a900460ff16905092915050565b600b8181548110610f9e57600080fd5b906000526020600020016000915054906101000a900473ffffffffffffffffffffffffffffffffffffffff1681565b7f61c92169ef077349011ff0b1383c894d86c5f0b41d986366b58a6cf31e93beda81565b6000801b81565b60085481565b6110287f61c92169ef077349011ff0b1383c894d86c5f0b41d986366b58a6cf31e93beda33610f24565b611067576040517f08c379a000000000000000000000000000000000000000000000000000000000815260040161105e90612214565b60405180910390fd5b60008114156110ab576040517f08c379a00000000000000000000000000000000000000000000000000000000081526004016110a290612254565b60405180910390fd5b806001819055507f297b2b35bd089c3afcbe21d2741e8421d5e980a7b157d5a3544abb25c4fe47b4816040516110e19190612294565b60405180910390a150565b60096020528160005260406000206020528060005260406000206000915091505080546111189061252f565b80601f01602080910402602001604051908101604052809291908181526020018280546111449061252f565b80156111915780601f1061116657610100808354040283529160200191611191565b820191906000526020600020905b81548152906001019060200180831161117457829003601f168201915b505050505081565b600d81815481106111a957600080fd5b906000526020600020016000915054906101000a900473ffffffffffffffffffffffffffffffffffffffff1681565b6111e1826106ec565b6111f2816111ed61132b565b611333565b6111fc83836114b0565b505050565b60035481565b600560009054906101000a900473ffffffffffffffffffffffffffffffffffffffff1681565b60045481565b6060600c8054806020026020016040519081016040528092919081815260200182805480156112b757602002820191906000526020600020905b8160009054906101000a900473ffffffffffffffffffffffffffffffffffffffff1673ffffffffffffffffffffffffffffffffffffffff168152602001906001019080831161126d575b5050505050905090565b60007f01ffc9a7000000000000000000000000000000000000000000000000000000007bffffffffffffffffffffffffffffffffffffffffffffffffffffffff1916827bffffffffffffffffffffffffffffffffffffffffffffffffffffffff1916149050919050565b600033905090565b61133d8282610f24565b6113cc576113628173ffffffffffffffffffffffffffffffffffffffff1660146115a7565b6113708360001c60206115a7565b604051602001611381929190612095565b6040516020818303038152906040526040517f08c379a00000000000000000000000000000000000000000000000000000000081526004016113c39190612142565b60405180910390fd5b5050565b6113da8282610f24565b6114ac57600160008084815260200190815260200160002060000160008373ffffffffffffffffffffffffffffffffffffffff1673ffffffffffffffffffffffffffffffffffffffff16815260200190815260200160002060006101000a81548160ff02191690831515021790555061145161132b565b73ffffffffffffffffffffffffffffffffffffffff168173ffffffffffffffffffffffffffffffffffffffff16837f2f8788117e7eff1d82e926ec794901d17c78024a50270940304540a733656f0d60405160405180910390a45b5050565b6114ba8282610f24565b1561158d57600080600084815260200190815260200160002060000160008373ffffffffffffffffffffffffffffffffffffffff1673ffffffffffffffffffffffffffffffffffffffff16815260200190815260200160002060006101000a81548160ff02191690831515021790555061153261132b565b73ffffffffffffffffffffffffffffffffffffffff168173ffffffffffffffffffffffffffffffffffffffff16837ff6391f5c32d9c69d2a47ea670b442974b53935d1edc7fd64eb21e047a839171b60405160405180910390a45b5050565b6000818361159f9190612370565b905092915050565b6060600060028360026115ba91906123c6565b6115c49190612370565b67ffffffffffffffff811115611603577f4e487b7100000000000000000000000000000000000000000000000000000000600052604160045260246000fd5b6040519080825280601f01601f1916602001820160405280156116355781602001600182028036833780820191505090505b5090507f300000000000000000000000000000000000000000000000000000000000000081600081518110611693577f4e487b7100000000000000000000000000000000000000000000000000000000600052603260045260246000fd5b60200101907effffffffffffffffffffffffffffffffffffffffffffffffffffffffffffff1916908160001a9053507f78000000000000000000000000000000000000000000000000000000000000008160018151811061171d577f4e487b7100000000000000000000000000000000000000000000000000000000600052603260045260246000fd5b60200101907effffffffffffffffffffffffffffffffffffffffffffffffffffffffffffff1916908160001a9053506000600184600261175d91906123c6565b6117679190612370565b90505b6001811115611853577f3031323334353637383961626364656600000000000000000000000000000000600f8616601081106117cf577f4e487b7100000000000000000000000000000000000000000000000000000000600052603260045260246000fd5b1a60f81b82828151811061180c577f4e487b7100000000000000000000000000000000000000000000000000000000600052603260045260246000fd5b60200101907effffffffffffffffffffffffffffffffffffffffffffffffffffffffffffff1916908160001a905350600485901c94508061184c90612505565b905061176a565b5060008414611897576040517f08c379a000000000000000000000000000000000000000000000000000000000815260040161188e90612194565b60405180910390fd5b8091505092915050565b8280546118ad9061252f565b90600052602060002090601f0160209004810192826118cf5760008555611916565b82601f106118e857805160ff1916838001178555611916565b82800160010185558215611916579182015b828111156119155782518255916020019190600101906118fa565b5b5090506119239190611927565b5090565b5b80821115611940576000816000905550600101611928565b5090565b6000611957611952846122e0565b6122af565b90508281526020810184848401111561196f57600080fd5b61197a8482856124c3565b509392505050565b60008135905061199181612642565b92915050565b6000813590506119a681612659565b92915050565b6000813590506119bb81612670565b92915050565b6000813590506119d081612687565b92915050565b600082601f8301126119e757600080fd5b81356119f7848260208601611944565b91505092915050565b600081359050611a0f81612697565b92915050565b60008060408385031215611a2857600080fd5b6000611a3685828601611982565b9250506020611a47858286016119c1565b9150509250929050565b600080600060608486031215611a6657600080fd5b6000611a7486828701611982565b935050602084013567ffffffffffffffff811115611a9157600080fd5b611a9d868287016119d6565b9250506040611aae868287016119c1565b9150509250925092565b600060208284031215611aca57600080fd5b6000611ad884828501611997565b91505092915050565b60008060408385031215611af457600080fd5b6000611b0285828601611997565b9250506020611b1385828601611982565b9150509250929050565b600060208284031215611b2f57600080fd5b6000611b3d848285016119ac565b91505092915050565b600060208284031215611b5857600080fd5b6000611b6684828501611a00565b91505092915050565b60008060408385031215611b8257600080fd5b6000611b9085828601611a00565b9250506020611ba185828601611a00565b9150509250929050565b6000611bb78383611bc3565b60208301905092915050565b611bcc81612420565b82525050565b611bdb81612420565b82525050565b6000611bec82612320565b611bf68185612343565b9350611c0183612310565b8060005b83811015611c32578151611c198882611bab565b9750611c2483612336565b925050600181019050611c05565b5085935050505092915050565b611c4881612432565b82525050565b611c578161243e565b82525050565b611c66816124b1565b82525050565b6000611c778261232b565b611c818185612354565b9350611c918185602086016124d2565b611c9a8161261d565b840191505092915050565b6000611cb08261232b565b611cba8185612365565b9350611cca8185602086016124d2565b80840191505092915050565b6000611ce3602083612354565b91507f537472696e67733a20686578206c656e67746820696e73756666696369656e746000830152602082019050919050565b6000611d23603883612354565b91507f456e746572707269736520616e642056616c696461746f72207368617265732060008301527f63616e2774206265206c6172676572207468616e2031303000000000000000006020830152604082019050919050565b6000611d89604c83612354565b91507f4d656d626572733a7570646174654d696e4465706f73697444617973202d204e60008301527f65772076616c756520666f722074686520656e7465727072697365206d61746360208301527f682063616e2774206265203000000000000000000000000000000000000000006040830152606082019050919050565b6000611e15602a83612354565b91507f4d656d626572733a61646455736572202d2054686973207573657220616c726560008301527f6164792065786973742e000000000000000000000000000000000000000000006020830152604082019050919050565b6000611e7b602983612354565b91507f4d656d626572733a6973536574746572202d2043616c6c6572206973206e6f7460008301527f20612073657474657200000000000000000000000000000000000000000000006020830152604082019050919050565b6000611ee1603183612354565b91507f4d656d626572733a4973436f6e74726f6c6c6572202d2043616c6c657220697360008301527f206e6f74206120636f6e74726f6c6c65720000000000000000000000000000006020830152604082019050919050565b6000611f47603b83612354565b91507f4d656d626572733a75706461746552657761726473202d204e65772076616c7560008301527f6520666f7220746865207265776172642063616e2774206265203000000000006020830152604082019050919050565b6000611fad601783612365565b91507f416363657373436f6e74726f6c3a206163636f756e74200000000000000000006000830152601782019050919050565b6000611fed601183612365565b91507f206973206d697373696e6720726f6c65200000000000000000000000000000006000830152601182019050919050565b600061202d602f83612354565b91507f416363657373436f6e74726f6c3a2063616e206f6e6c792072656e6f756e636560008301527f20726f6c657320666f722073656c6600000000000000000000000000000000006020830152604082019050919050565b61208f816124a7565b82525050565b60006120a082611fa0565b91506120ac8285611ca5565b91506120b782611fe0565b91506120c38284611ca5565b91508190509392505050565b60006020820190506120e46000830184611bd2565b92915050565b600060208201905081810360008301526121048184611be1565b905092915050565b60006020820190506121216000830184611c3f565b92915050565b600060208201905061213c6000830184611c4e565b92915050565b6000602082019050818103600083015261215c8184611c6c565b905092915050565b6000604082019050818103600083015261217e8185611c6c565b905061218d6020830184611c5d565b9392505050565b600060208201905081810360008301526121ad81611cd6565b9050919050565b600060208201905081810360008301526121cd81611d16565b9050919050565b600060208201905081810360008301526121ed81611d7c565b9050919050565b6000602082019050818103600083015261220d81611e08565b9050919050565b6000602082019050818103600083015261222d81611e6e565b9050919050565b6000602082019050818103600083015261224d81611ed4565b9050919050565b6000602082019050818103600083015261226d81611f3a565b9050919050565b6000602082019050818103600083015261228d81612020565b9050919050565b60006020820190506122a96000830184612086565b92915050565b6000604051905081810181811067ffffffffffffffff821117156122d6576122d56125ee565b5b8060405250919050565b600067ffffffffffffffff8211156122fb576122fa6125ee565b5b601f19601f8301169050602081019050919050565b6000819050602082019050919050565b600081519050919050565b600081519050919050565b6000602082019050919050565b600082825260208201905092915050565b600082825260208201905092915050565b600081905092915050565b600061237b826124a7565b9150612386836124a7565b9250827fffffffffffffffffffffffffffffffffffffffffffffffffffffffffffffffff038211156123bb576123ba612561565b5b828201905092915050565b60006123d1826124a7565b91506123dc836124a7565b9250817fffffffffffffffffffffffffffffffffffffffffffffffffffffffffffffffff048311821515161561241557612414612561565b5b828202905092915050565b600061242b82612487565b9050919050565b60008115159050919050565b6000819050919050565b60007fffffffff0000000000000000000000000000000000000000000000000000000082169050919050565b60008190506124828261262e565b919050565b600073ffffffffffffffffffffffffffffffffffffffff82169050919050565b6000819050919050565b60006124bc82612474565b9050919050565b82818337600083830152505050565b60005b838110156124f05780820151818401526020810190506124d5565b838111156124ff576000848401525b50505050565b6000612510826124a7565b9150600082141561252457612523612561565b5b600182039050919050565b6000600282049050600182168061254757607f821691505b6020821081141561255b5761255a6125bf565b5b50919050565b7f4e487b7100000000000000000000000000000000000000000000000000000000600052601160045260246000fd5b7f4e487b7100000000000000000000000000000000000000000000000000000000600052602160045260246000fd5b7f4e487b7100000000000000000000000000000000000000000000000000000000600052602260045260246000fd5b7f4e487b7100000000000000000000000000000000000000000000000000000000600052604160045260246000fd5b6000601f19601f8301169050919050565b6003811061263f5761263e612590565b5b50565b61264b81612420565b811461265657600080fd5b50565b6126628161243e565b811461266d57600080fd5b50565b61267981612448565b811461268457600080fd5b50565b6003811061269457600080fd5b50565b6126a0816124a7565b81146126ab57600080fd5b5056fea2646970667358221220b7bf5a42d129bdc6176146be35e6d7d653346eccfc4ab6580fbdc995f8de21dd64736f6c63430008000033",
  "immutableReferences": {},
  "source": "// SPDX-License-Identifier: MIT\npragma solidity =0.8.0;\npragma experimental ABIEncoderV2;\nimport \"@openzeppelin/contracts/access/AccessControl.sol\";\nimport \"@openzeppelin/contracts/token/ERC20/IERC20.sol\";\nimport \"@openzeppelin/contracts/token/ERC20/utils/SafeERC20.sol\";\nimport \"@openzeppelin/contracts/utils/math/SafeMath.sol\";\nimport \"./ICohortFactory.sol\";\nimport \"./../IAuditToken.sol\";\n\n/**\n * @title Members\n * Allows on creation of Enterprise and Validator accounts and staking of funds by validators\n * Validators and enterprises have ability to withdraw their staking and earnings \n * Contract also contains several update functions controlled by the Governance contracts\n */\n\ncontract Members is  AccessControl {\n\n    using SafeMath for uint256;\n    using SafeERC20 for IERC20;\n\n   \n\n    bytes32 public constant CONTROLLER_ROLE = keccak256(\"CONTROLLER_ROLE\");\n    bytes32 public constant SETTER_ROLE =  keccak256(\"SETTER_ROLE\");\n\n    uint256 public amountTokensPerValidation =  100e18;    //New minted amount per validation\n\n    uint256 public accessFee = 100e18;\n    uint256 public enterpriseShareSubscriber = 40;\n    uint256 public validatorShareSubscriber = 40;\n    address public platformAddress;\n    uint256 public platformShareValidation = 15;    \n    uint256 public recentBlockUpdated;\n    uint256 public enterpriseMatch = 200;         \n    \n \n    /// @dev check if caller is a controller     \n    modifier isController {\n        require(hasRole(CONTROLLER_ROLE, msg.sender), \"Members:IsController - Caller is not a controller\");\n\n        _;\n    }\n\n    /// @dev check if caller is a setter     \n    modifier isSetter {\n        require(hasRole(SETTER_ROLE, msg.sender), \"Members:isSetter - Caller is not a setter\");\n\n        _;\n    }\n\n     // Audit types to be used. Two types added for future expansion \n    enum UserType {Enterprise, Validator, DataSubscriber}  \n\n\n\n    mapping(address => mapping(UserType => string)) public user;\n    mapping(address => mapping(UserType => bool)) public userMap;\n    address[] public enterprises;\n    address[] public validators;\n    address[] public dataSubscribers;\n    // uint256 public enterpriseCount;\n    // uint256 public validatorCount;\n    // uint256 public dataSubscriberCount;\n    \n    event UserAdded(address indexed user, string name, UserType userType);\n    event LogDepositReceived(address indexed from, uint amount);\n    event LogSubscriptionCompleted(address subscriber, uint256 numberOfSubscriptions);\n    event LogUpdateRewards(uint256 rewards);\n    event LogUpdateEnterpriseMatch(uint256 portion);\n    \n\n    constructor(address _platformAddress ) {\n        require(_platformAddress != address(0), \"Members:constructor - Platform address can't be 0\");\n        platformAddress = _platformAddress;\n        _setupRole(DEFAULT_ADMIN_ROLE, msg.sender);\n    }\n\n\n    /**\n    * @dev to be called by Governance contract to update new amount for validation rewards\n    * @param _amountTokensPerValidation new value of reward per validation\n    */\n    function updateRewards(uint256 _amountTokensPerValidation) public isSetter() {\n\n        require(_amountTokensPerValidation != 0, \"Members:updateRewards - New value for the reward can't be 0\");\n        amountTokensPerValidation = _amountTokensPerValidation;\n        emit LogUpdateRewards(_amountTokensPerValidation);\n    }\n    \n    /**\n    * @dev to be called by Governance contract\n    * @param _enterpriseMatch new value of enterprise portion of enterprise value of validation cost\n    */\n    function updateEnterpriseMatch(uint256 _enterpriseMatch) public isSetter()  {\n\n        require(_enterpriseMatch != 0, \"Members:updateMinDepositDays - New value for the enterprise match can't be 0\");\n        enterpriseMatch = _enterpriseMatch;\n        emit LogUpdateEnterpriseMatch(_enterpriseMatch);\n    }\n\n    /**\n    * @dev to be called by Governance contract to change enterprise and validators shares\n    * of data subscription fees. \n    * @param _enterpriseShareSubscriber  - share of the enterprise\n    * @param _validatorShareSubscriber - share of the subscribers\n    */\n    function setDataSubscriberShares(uint256 _enterpriseShareSubscriber, uint256 _validatorShareSubscriber ) public isSetter()  {\n\n        require(_enterpriseShareSubscriber.add(validatorShareSubscriber) <=100, \"Enterprise and Validator shares can't be larger than 100\");\n        enterpriseShareSubscriber = _enterpriseShareSubscriber;\n        validatorShareSubscriber = _validatorShareSubscriber;\n    }\n\n   \n    /*\n    * @dev add new platform user\n    * @param user to add\n    * @param name name of the user\n    * @param userType  \n    */\n    function addUser(address newUser, string memory name, UserType userType) public isController() {\n\n        require(!userMap[newUser][userType], \"Members:addUser - This user already exist.\");\n        user[newUser][userType] = name;\n        userMap[newUser][userType] = true;\n\n        if (userType == UserType.DataSubscriber) \n            dataSubscribers.push(newUser);\n            // dataSubscriberCount++;\n        else if (userType == UserType.Validator)\n            validators.push(newUser);\n            // validatorCount++;\n        else if (userType == UserType.Enterprise)\n            enterprises.push(newUser);\n            // enterpriseCount++;\n\n        // userAddersses.push(newUser);\n     \n        emit UserAdded(newUser, name, userType);\n    }\n\n    function returnValidatorList() public view returns(address[] memory) {\n\n        return validators;\n    }\n\n}\n",
  "sourcePath": "/home/win2win/eth/projects/AuditChain/Core-Smart-Contracts-v1/contracts/Auditchain/Members.sol",
  "compiler": {
    "name": "solc",
    "version": "0.8.0+commit.c7dfd78e.Emscripten.clang"
  },
  "schemaVersion": "3.4.1",
  "updatedAt": "2021-08-02T21:34:49.385Z",
  "networkType": "ethereum",
  "devdoc": {
    "kind": "dev",
    "methods": {
      "getRoleAdmin(bytes32)": {
        "details": "Returns the admin role that controls `role`. See {grantRole} and {revokeRole}. To change a role's admin, use {_setRoleAdmin}."
      },
      "grantRole(bytes32,address)": {
        "details": "Grants `role` to `account`. If `account` had not been already granted `role`, emits a {RoleGranted} event. Requirements: - the caller must have ``role``'s admin role."
      },
      "hasRole(bytes32,address)": {
        "details": "Returns `true` if `account` has been granted `role`."
      },
      "renounceRole(bytes32,address)": {
        "details": "Revokes `role` from the calling account. Roles are often managed via {grantRole} and {revokeRole}: this function's purpose is to provide a mechanism for accounts to lose their privileges if they are compromised (such as when a trusted device is misplaced). If the calling account had been granted `role`, emits a {RoleRevoked} event. Requirements: - the caller must be `account`."
      },
      "revokeRole(bytes32,address)": {
        "details": "Revokes `role` from `account`. If `account` had been granted `role`, emits a {RoleRevoked} event. Requirements: - the caller must have ``role``'s admin role."
      },
      "setDataSubscriberShares(uint256,uint256)": {
        "details": "to be called by Governance contract to change enterprise and validators shares of data subscription fees. ",
        "params": {
          "_enterpriseShareSubscriber": "- share of the enterprise",
          "_validatorShareSubscriber": "- share of the subscribers"
        }
      },
      "supportsInterface(bytes4)": {
        "details": "See {IERC165-supportsInterface}."
      },
      "updateEnterpriseMatch(uint256)": {
        "details": "to be called by Governance contract",
        "params": {
          "_enterpriseMatch": "new value of enterprise portion of enterprise value of validation cost"
        }
      },
      "updateRewards(uint256)": {
        "details": "to be called by Governance contract to update new amount for validation rewards",
        "params": {
          "_amountTokensPerValidation": "new value of reward per validation"
        }
      }
    },
    "title": "Members Allows on creation of Enterprise and Validator accounts and staking of funds by validators Validators and enterprises have ability to withdraw their staking and earnings  Contract also contains several update functions controlled by the Governance contracts",
    "version": 1
  },
  "userdoc": {
    "kind": "user",
    "methods": {},
    "version": 1
  }
}