{
  "contractName": "Members",
  "abi": [
    {
      "inputs": [
        {
          "internalType": "address",
          "name": "_platformAddress",
          "type": "address"
        }
      ],
      "stateMutability": "nonpayable",
      "type": "constructor"
    },
    {
      "anonymous": false,
      "inputs": [
        {
          "indexed": false,
          "internalType": "uint256",
          "name": "params",
          "type": "uint256"
        },
        {
          "indexed": true,
          "internalType": "string",
          "name": "action",
          "type": "string"
        }
      ],
      "name": "LogGovernanceUpdate",
      "type": "event"
    },
    {
      "anonymous": false,
      "inputs": [
        {
          "indexed": true,
          "internalType": "bytes32",
          "name": "role",
          "type": "bytes32"
        },
        {
          "indexed": true,
          "internalType": "bytes32",
          "name": "previousAdminRole",
          "type": "bytes32"
        },
        {
          "indexed": true,
          "internalType": "bytes32",
          "name": "newAdminRole",
          "type": "bytes32"
        }
      ],
      "name": "RoleAdminChanged",
      "type": "event"
    },
    {
      "anonymous": false,
      "inputs": [
        {
          "indexed": true,
          "internalType": "bytes32",
          "name": "role",
          "type": "bytes32"
        },
        {
          "indexed": true,
          "internalType": "address",
          "name": "account",
          "type": "address"
        },
        {
          "indexed": true,
          "internalType": "address",
          "name": "sender",
          "type": "address"
        }
      ],
      "name": "RoleGranted",
      "type": "event"
    },
    {
      "anonymous": false,
      "inputs": [
        {
          "indexed": true,
          "internalType": "bytes32",
          "name": "role",
          "type": "bytes32"
        },
        {
          "indexed": true,
          "internalType": "address",
          "name": "account",
          "type": "address"
        },
        {
          "indexed": true,
          "internalType": "address",
          "name": "sender",
          "type": "address"
        }
      ],
      "name": "RoleRevoked",
      "type": "event"
    },
    {
      "anonymous": false,
      "inputs": [
        {
          "indexed": true,
          "internalType": "address",
          "name": "user",
          "type": "address"
        },
        {
          "indexed": false,
          "internalType": "string",
          "name": "name",
          "type": "string"
        },
        {
          "indexed": true,
          "internalType": "enum Members.UserType",
          "name": "userType",
          "type": "uint8"
        }
      ],
      "name": "UserAdded",
      "type": "event"
    },
    {
      "inputs": [],
      "name": "CONTROLLER_ROLE",
      "outputs": [
        {
          "internalType": "bytes32",
          "name": "",
          "type": "bytes32"
        }
      ],
      "stateMutability": "view",
      "type": "function",
      "constant": true
    },
    {
      "inputs": [],
      "name": "DEFAULT_ADMIN_ROLE",
      "outputs": [
        {
          "internalType": "bytes32",
          "name": "",
          "type": "bytes32"
        }
      ],
      "stateMutability": "view",
      "type": "function",
      "constant": true
    },
    {
      "inputs": [],
      "name": "SETTER_ROLE",
      "outputs": [
        {
          "internalType": "bytes32",
          "name": "",
          "type": "bytes32"
        }
      ],
      "stateMutability": "view",
      "type": "function",
      "constant": true
    },
    {
      "inputs": [],
      "name": "accessFee",
      "outputs": [
        {
          "internalType": "uint256",
          "name": "",
          "type": "uint256"
        }
      ],
      "stateMutability": "view",
      "type": "function",
      "constant": true
    },
    {
      "inputs": [],
      "name": "amountTokensPerValidation",
      "outputs": [
        {
          "internalType": "uint256",
          "name": "",
          "type": "uint256"
        }
      ],
      "stateMutability": "view",
      "type": "function",
      "constant": true
    },
    {
      "inputs": [
        {
          "internalType": "uint256",
          "name": "",
          "type": "uint256"
        }
      ],
      "name": "dataSubscribers",
      "outputs": [
        {
          "internalType": "address",
          "name": "",
          "type": "address"
        }
      ],
      "stateMutability": "view",
      "type": "function",
      "constant": true
    },
    {
      "inputs": [],
      "name": "enterpriseMatch",
      "outputs": [
        {
          "internalType": "uint256",
          "name": "",
          "type": "uint256"
        }
      ],
      "stateMutability": "view",
      "type": "function",
      "constant": true
    },
    {
      "inputs": [],
      "name": "enterpriseShareSubscriber",
      "outputs": [
        {
          "internalType": "uint256",
          "name": "",
          "type": "uint256"
        }
      ],
      "stateMutability": "view",
      "type": "function",
      "constant": true
    },
    {
      "inputs": [
        {
          "internalType": "uint256",
          "name": "",
          "type": "uint256"
        }
      ],
      "name": "enterprises",
      "outputs": [
        {
          "internalType": "address",
          "name": "",
          "type": "address"
        }
      ],
      "stateMutability": "view",
      "type": "function",
      "constant": true
    },
    {
      "inputs": [
        {
          "internalType": "bytes32",
          "name": "role",
          "type": "bytes32"
        }
      ],
      "name": "getRoleAdmin",
      "outputs": [
        {
          "internalType": "bytes32",
          "name": "",
          "type": "bytes32"
        }
      ],
      "stateMutability": "view",
      "type": "function",
      "constant": true
    },
    {
      "inputs": [
        {
          "internalType": "bytes32",
          "name": "role",
          "type": "bytes32"
        },
        {
          "internalType": "address",
          "name": "account",
          "type": "address"
        }
      ],
      "name": "grantRole",
      "outputs": [],
      "stateMutability": "nonpayable",
      "type": "function"
    },
    {
      "inputs": [
        {
          "internalType": "bytes32",
          "name": "role",
          "type": "bytes32"
        },
        {
          "internalType": "address",
          "name": "account",
          "type": "address"
        }
      ],
      "name": "hasRole",
      "outputs": [
        {
          "internalType": "bool",
          "name": "",
          "type": "bool"
        }
      ],
      "stateMutability": "view",
      "type": "function",
      "constant": true
    },
    {
      "inputs": [],
      "name": "minDepositDays",
      "outputs": [
        {
          "internalType": "uint256",
          "name": "",
          "type": "uint256"
        }
      ],
      "stateMutability": "view",
      "type": "function",
      "constant": true
    },
    {
      "inputs": [],
      "name": "platformAddress",
      "outputs": [
        {
          "internalType": "address",
          "name": "",
          "type": "address"
        }
      ],
      "stateMutability": "view",
      "type": "function",
      "constant": true
    },
    {
      "inputs": [],
      "name": "platformShareValidation",
      "outputs": [
        {
          "internalType": "uint256",
          "name": "",
          "type": "uint256"
        }
      ],
      "stateMutability": "view",
      "type": "function",
      "constant": true
    },
    {
      "inputs": [
        {
          "internalType": "bytes32",
          "name": "role",
          "type": "bytes32"
        },
        {
          "internalType": "address",
          "name": "account",
          "type": "address"
        }
      ],
      "name": "renounceRole",
      "outputs": [],
      "stateMutability": "nonpayable",
      "type": "function"
    },
    {
      "inputs": [],
      "name": "requiredQuorum",
      "outputs": [
        {
          "internalType": "uint256",
          "name": "",
          "type": "uint256"
        }
      ],
      "stateMutability": "view",
      "type": "function",
      "constant": true
    },
    {
      "inputs": [
        {
          "internalType": "bytes32",
          "name": "role",
          "type": "bytes32"
        },
        {
          "internalType": "address",
          "name": "account",
          "type": "address"
        }
      ],
      "name": "revokeRole",
      "outputs": [],
      "stateMutability": "nonpayable",
      "type": "function"
    },
    {
      "inputs": [
        {
          "internalType": "bytes4",
          "name": "interfaceId",
          "type": "bytes4"
        }
      ],
      "name": "supportsInterface",
      "outputs": [
        {
          "internalType": "bool",
          "name": "",
          "type": "bool"
        }
      ],
      "stateMutability": "view",
      "type": "function",
      "constant": true
    },
    {
      "inputs": [
        {
          "internalType": "address",
          "name": "",
          "type": "address"
        },
        {
          "internalType": "enum Members.UserType",
          "name": "",
          "type": "uint8"
        }
      ],
      "name": "user",
      "outputs": [
        {
          "internalType": "string",
          "name": "",
          "type": "string"
        }
      ],
      "stateMutability": "view",
      "type": "function",
      "constant": true
    },
    {
      "inputs": [
        {
          "internalType": "address",
          "name": "",
          "type": "address"
        },
        {
          "internalType": "enum Members.UserType",
          "name": "",
          "type": "uint8"
        }
      ],
      "name": "userMap",
      "outputs": [
        {
          "internalType": "bool",
          "name": "",
          "type": "bool"
        }
      ],
      "stateMutability": "view",
      "type": "function",
      "constant": true
    },
    {
      "inputs": [],
      "name": "validatorShareSubscriber",
      "outputs": [
        {
          "internalType": "uint256",
          "name": "",
          "type": "uint256"
        }
      ],
      "stateMutability": "view",
      "type": "function",
      "constant": true
    },
    {
      "inputs": [
        {
          "internalType": "uint256",
          "name": "",
          "type": "uint256"
        }
      ],
      "name": "validators",
      "outputs": [
        {
          "internalType": "address",
          "name": "",
          "type": "address"
        }
      ],
      "stateMutability": "view",
      "type": "function",
      "constant": true
    },
    {
      "inputs": [
        {
          "internalType": "uint256",
          "name": "_requiredQuorum",
          "type": "uint256"
        }
      ],
      "name": "updateQuorum",
      "outputs": [],
      "stateMutability": "nonpayable",
      "type": "function"
    },
    {
      "inputs": [
        {
          "internalType": "uint256",
          "name": "_newFee",
          "type": "uint256"
        }
      ],
      "name": "updatePlatformShareValidation",
      "outputs": [],
      "stateMutability": "nonpayable",
      "type": "function"
    },
    {
      "inputs": [
        {
          "internalType": "uint256",
          "name": "_accessFee",
          "type": "uint256"
        }
      ],
      "name": "updateAccessFee",
      "outputs": [],
      "stateMutability": "nonpayable",
      "type": "function"
    },
    {
      "inputs": [
        {
          "internalType": "uint256",
          "name": "_minDepositDays",
          "type": "uint256"
        }
      ],
      "name": "updateMinDepositDays",
      "outputs": [],
      "stateMutability": "nonpayable",
      "type": "function"
    },
    {
      "inputs": [
        {
          "internalType": "uint256",
          "name": "_amountTokensPerValidation",
          "type": "uint256"
        }
      ],
      "name": "updateTokensPerValidation",
      "outputs": [],
      "stateMutability": "nonpayable",
      "type": "function"
    },
    {
      "inputs": [
        {
          "internalType": "uint256",
          "name": "_enterpriseMatch",
          "type": "uint256"
        }
      ],
      "name": "updateEnterpriseMatch",
      "outputs": [],
      "stateMutability": "nonpayable",
      "type": "function"
    },
    {
      "inputs": [
        {
          "internalType": "uint256",
          "name": "_enterpriseShareSubscriber",
          "type": "uint256"
        },
        {
          "internalType": "uint256",
          "name": "_validatorShareSubscriber",
          "type": "uint256"
        }
      ],
      "name": "updateDataSubscriberShares",
      "outputs": [],
      "stateMutability": "nonpayable",
      "type": "function"
    },
    {
      "inputs": [
        {
          "internalType": "address",
          "name": "newUser",
          "type": "address"
        },
        {
          "internalType": "string",
          "name": "name",
          "type": "string"
        },
        {
          "internalType": "enum Members.UserType",
          "name": "userType",
          "type": "uint8"
        }
      ],
      "name": "addUser",
      "outputs": [],
      "stateMutability": "nonpayable",
      "type": "function"
    },
    {
      "inputs": [],
      "name": "returnValidatorList",
      "outputs": [
        {
          "internalType": "address[]",
          "name": "",
          "type": "address[]"
        }
      ],
      "stateMutability": "view",
      "type": "function",
      "constant": true
    }
  ],
  "bytecode": "0x608060405268056bc75e2d6310000060015568056bc75e2d6310000060025560286003556028600455600f60065560c8600755603c60085560506009553480156200004957600080fd5b50604051620035b1380380620035b183398181016040528101906200006f9190620002cf565b600073ffffffffffffffffffffffffffffffffffffffff168173ffffffffffffffffffffffffffffffffffffffff161415620000e2576040517f08c379a0000000000000000000000000000000000000000000000000000000008152600401620000d99062000363565b60405180910390fd5b80600560006101000a81548173ffffffffffffffffffffffffffffffffffffffff021916908373ffffffffffffffffffffffffffffffffffffffff160217905550620001386000801b336200013f60201b60201c565b50620003e4565b6200015182826200015560201b60201c565b5050565b6200016782826200024660201b60201c565b6200024257600160008084815260200190815260200160002060000160008373ffffffffffffffffffffffffffffffffffffffff1673ffffffffffffffffffffffffffffffffffffffff16815260200190815260200160002060006101000a81548160ff021916908315150217905550620001e7620002b060201b60201c565b73ffffffffffffffffffffffffffffffffffffffff168173ffffffffffffffffffffffffffffffffffffffff16837f2f8788117e7eff1d82e926ec794901d17c78024a50270940304540a733656f0d60405160405180910390a45b5050565b600080600084815260200190815260200160002060000160008373ffffffffffffffffffffffffffffffffffffffff1673ffffffffffffffffffffffffffffffffffffffff16815260200190815260200160002060009054906101000a900460ff16905092915050565b600033905090565b600081519050620002c981620003ca565b92915050565b600060208284031215620002e257600080fd5b6000620002f284828501620002b8565b91505092915050565b60006200030a60318362000385565b91507f4d656d626572733a636f6e7374727563746f72202d20506c6174666f726d206160008301527f6464726573732063616e277420626520300000000000000000000000000000006020830152604082019050919050565b600060208201905081810360008301526200037e81620002fb565b9050919050565b600082825260208201905092915050565b6000620003a382620003aa565b9050919050565b600073ffffffffffffffffffffffffffffffffffffffff82169050919050565b620003d58162000396565b8114620003e157600080fd5b50565b6131bd80620003f46000396000f3fe608060405234801561001057600080fd5b50600436106101f05760003560e01c80637036014e1161010f578063d3156a85116100a2578063e735413211610071578063e7354132146105bb578063e9b6c975146105d7578063f2c5722f146105f5578063f89a32bf14610611576101f0565b8063d3156a8514610533578063d547741f14610563578063dac95d411461057f578063dbe55e561461059d576101f0565b8063a2011b3f116100de578063a2011b3f146104a9578063a217fddf146104c7578063a7579be8146104e5578063ba0e142f14610503576101f0565b80637036014e1461040f57806374eb9cdb1461042d57806391d14854146104495780639fbae28614610479576101f0565b806335aa2e44116101875780634d9c798c116101565780634d9c798c1461038757806352e2b371146103a55780635659ae58146103c15780636f9cf985146103df576101f0565b806335aa2e441461030157806336568abe1461033157806340d268541461034d578063492b85cd14610369576101f0565b8063248a9ca3116101c3578063248a9ca31461027b5780632f2ff15d146102ab5780633507abaf146102c757806335680dc2146102e5576101f0565b806301ffc9a7146101f5578063092c5b3b146102255780630c13f833146102435780631612d06d1461025f575b600080fd5b61020f600480360381019061020a91906120f9565b61062f565b60405161021c9190612bfd565b60405180910390f35b61022d6106a9565b60405161023a9190612c18565b60405180910390f35b61025d60048036038101906102589190612122565b6106cd565b005b6102796004803603810190610274919061214b565b6107cf565b005b61029560048036038101906102909190612094565b61093c565b6040516102a29190612c18565b60405180910390f35b6102c560048036038101906102c091906120bd565b61095b565b005b6102cf610984565b6040516102dc9190612dd5565b60405180910390f35b6102ff60048036038101906102fa9190612122565b61098a565b005b61031b60048036038101906103169190612122565b610a8c565b6040516103289190612bc0565b60405180910390f35b61034b600480360381019061034691906120bd565b610acb565b005b6103676004803603810190610362919061202d565b610b4e565b005b61037161119f565b60405161037e9190612dd5565b60405180910390f35b61038f6111a5565b60405161039c9190612dd5565b60405180910390f35b6103bf60048036038101906103ba9190612122565b6111ab565b005b6103c96112ad565b6040516103d69190612dd5565b60405180910390f35b6103f960048036038101906103f49190611ff1565b6112b3565b6040516104069190612bfd565b60405180910390f35b6104176112e2565b6040516104249190612dd5565b60405180910390f35b61044760048036038101906104429190612122565b6112e8565b005b610463600480360381019061045e91906120bd565b6113ea565b6040516104709190612bfd565b60405180910390f35b610493600480360381019061048e9190612122565b611454565b6040516104a09190612bc0565b60405180910390f35b6104b1611493565b6040516104be9190612c18565b60405180910390f35b6104cf6114b7565b6040516104dc9190612c18565b60405180910390f35b6104ed6114be565b6040516104fa9190612dd5565b60405180910390f35b61051d60048036038101906105189190611ff1565b6114c4565b60405161052a9190612c33565b60405180910390f35b61054d60048036038101906105489190612122565b611571565b60405161055a9190612bc0565b60405180910390f35b61057d600480360381019061057891906120bd565b6115b0565b005b6105876115d9565b6040516105949190612dd5565b60405180910390f35b6105a56115df565b6040516105b29190612bc0565b60405180910390f35b6105d560048036038101906105d09190612122565b611605565b005b6105df611707565b6040516105ec9190612dd5565b60405180910390f35b61060f600480360381019061060a9190612122565b61170d565b005b61061961180f565b6040516106269190612bdb565b60405180910390f35b60007f7965db0b000000000000000000000000000000000000000000000000000000007bffffffffffffffffffffffffffffffffffffffffffffffffffffffff1916827bffffffffffffffffffffffffffffffffffffffffffffffffffffffff191614806106a257506106a18261189d565b5b9050919050565b7f7b765e0e932d348852a6f810bfa1ab891e259123f02db8cdcde614c57022335781565b6106f77f61c92169ef077349011ff0b1383c894d86c5f0b41d986366b58a6cf31e93beda336113ea565b610736576040517f08c379a000000000000000000000000000000000000000000000000000000000815260040161072d90612d35565b60405180910390fd5b600081141561077a576040517f08c379a000000000000000000000000000000000000000000000000000000000815260040161077190612c75565b60405180910390fd5b8060078190555060405161078d90612af3565b60405180910390207ff99dba3a76085484eae2e89cc2e2ee5edffe3f1d25cdd1e6c5757447b9b5b473826040516107c49190612dd5565b60405180910390a250565b6107f97f61c92169ef077349011ff0b1383c894d86c5f0b41d986366b58a6cf31e93beda336113ea565b610838576040517f08c379a000000000000000000000000000000000000000000000000000000000815260040161082f90612d35565b60405180910390fd5b605a61084f6004548461190790919063ffffffff16565b1115610890576040517f08c379a000000000000000000000000000000000000000000000000000000000815260040161088790612d15565b60405180910390fd5b81600381905550806004819055506040516108aa90612b81565b60405180910390207ff99dba3a76085484eae2e89cc2e2ee5edffe3f1d25cdd1e6c5757447b9b5b4736003546040516108e39190612dd5565b60405180910390a26040516108f790612b08565b60405180910390207ff99dba3a76085484eae2e89cc2e2ee5edffe3f1d25cdd1e6c5757447b9b5b4736004546040516109309190612dd5565b60405180910390a25050565b6000806000838152602001908152602001600020600101549050919050565b6109648261093c565b6109758161097061191d565b611925565b61097f83836119c2565b505050565b60065481565b6109b47f61c92169ef077349011ff0b1383c894d86c5f0b41d986366b58a6cf31e93beda336113ea565b6109f3576040517f08c379a00000000000000000000000000000000000000000000000000000000081526004016109ea90612d35565b60405180910390fd5b6000811415610a37576040517f08c379a0000000000000000000000000000000000000000000000000000000008152600401610a2e90612d75565b60405180910390fd5b80600981905550604051610a4a90612b1d565b60405180910390207ff99dba3a76085484eae2e89cc2e2ee5edffe3f1d25cdd1e6c5757447b9b5b47382604051610a819190612dd5565b60405180910390a250565b600d8181548110610a9c57600080fd5b906000526020600020016000915054906101000a900473ffffffffffffffffffffffffffffffffffffffff1681565b610ad361191d565b73ffffffffffffffffffffffffffffffffffffffff168173ffffffffffffffffffffffffffffffffffffffff1614610b40576040517f08c379a0000000000000000000000000000000000000000000000000000000008152600401610b3790612db5565b60405180910390fd5b610b4a8282611aa2565b5050565b610b787f7b765e0e932d348852a6f810bfa1ab891e259123f02db8cdcde614c570223357336113ea565b610bb7576040517f08c379a0000000000000000000000000000000000000000000000000000000008152600401610bae90612d55565b60405180910390fd5b600b60008473ffffffffffffffffffffffffffffffffffffffff1673ffffffffffffffffffffffffffffffffffffffff1681526020019081526020016000206000826002811115610c31577f4e487b7100000000000000000000000000000000000000000000000000000000600052602160045260246000fd5b6002811115610c69577f4e487b7100000000000000000000000000000000000000000000000000000000600052602160045260246000fd5b815260200190815260200160002060009054906101000a900460ff1615610cc5576040517f08c379a0000000000000000000000000000000000000000000000000000000008152600401610cbc90612cf5565b60405180910390fd5b81600a60008573ffffffffffffffffffffffffffffffffffffffff1673ffffffffffffffffffffffffffffffffffffffff1681526020019081526020016000206000836002811115610d40577f4e487b7100000000000000000000000000000000000000000000000000000000600052602160045260246000fd5b6002811115610d78577f4e487b7100000000000000000000000000000000000000000000000000000000600052602160045260246000fd5b81526020019081526020016000209080519060200190610d99929190611e7d565b506001600b60008573ffffffffffffffffffffffffffffffffffffffff1673ffffffffffffffffffffffffffffffffffffffff1681526020019081526020016000206000836002811115610e16577f4e487b7100000000000000000000000000000000000000000000000000000000600052602160045260246000fd5b6002811115610e4e577f4e487b7100000000000000000000000000000000000000000000000000000000600052602160045260246000fd5b815260200190815260200160002060006101000a81548160ff021916908315150217905550600280811115610eac577f4e487b7100000000000000000000000000000000000000000000000000000000600052602160045260246000fd5b816002811115610ee5577f4e487b7100000000000000000000000000000000000000000000000000000000600052602160045260246000fd5b1415610f5357600e839080600181540180825580915050600190039060005260206000200160009091909190916101000a81548173ffffffffffffffffffffffffffffffffffffffff021916908373ffffffffffffffffffffffffffffffffffffffff160217905550611113565b60016002811115610f8d577f4e487b7100000000000000000000000000000000000000000000000000000000600052602160045260246000fd5b816002811115610fc6577f4e487b7100000000000000000000000000000000000000000000000000000000600052602160045260246000fd5b141561103457600d839080600181540180825580915050600190039060005260206000200160009091909190916101000a81548173ffffffffffffffffffffffffffffffffffffffff021916908373ffffffffffffffffffffffffffffffffffffffff160217905550611112565b6000600281111561106e577f4e487b7100000000000000000000000000000000000000000000000000000000600052602160045260246000fd5b8160028111156110a7577f4e487b7100000000000000000000000000000000000000000000000000000000600052602160045260246000fd5b141561111157600c839080600181540180825580915050600190039060005260206000200160009091909190916101000a81548173ffffffffffffffffffffffffffffffffffffffff021916908373ffffffffffffffffffffffffffffffffffffffff1602179055505b5b5b80600281111561114c577f4e487b7100000000000000000000000000000000000000000000000000000000600052602160045260246000fd5b8373ffffffffffffffffffffffffffffffffffffffff167f8897d4c16f6b907647cc92f3b2f80418ac81581b8e74f9dda595d3910b44c862846040516111929190612c33565b60405180910390a3505050565b60025481565b60015481565b6111d57f61c92169ef077349011ff0b1383c894d86c5f0b41d986366b58a6cf31e93beda336113ea565b611214576040517f08c379a000000000000000000000000000000000000000000000000000000000815260040161120b90612d35565b60405180910390fd5b6000811415611258576040517f08c379a000000000000000000000000000000000000000000000000000000000815260040161124f90612c95565b60405180910390fd5b8060068190555060405161126b90612b96565b60405180910390207ff99dba3a76085484eae2e89cc2e2ee5edffe3f1d25cdd1e6c5757447b9b5b473826040516112a29190612dd5565b60405180910390a250565b60085481565b600b6020528160005260406000206020528060005260406000206000915091509054906101000a900460ff1681565b60095481565b6113127f61c92169ef077349011ff0b1383c894d86c5f0b41d986366b58a6cf31e93beda336113ea565b611351576040517f08c379a000000000000000000000000000000000000000000000000000000000815260040161134890612d35565b60405180910390fd5b6000811415611395576040517f08c379a000000000000000000000000000000000000000000000000000000000815260040161138c90612d95565b60405180910390fd5b806008819055506040516113a890612bab565b60405180910390207ff99dba3a76085484eae2e89cc2e2ee5edffe3f1d25cdd1e6c5757447b9b5b473826040516113df9190612dd5565b60405180910390a250565b600080600084815260200190815260200160002060000160008373ffffffffffffffffffffffffffffffffffffffff1673ffffffffffffffffffffffffffffffffffffffff16815260200190815260200160002060009054906101000a900460ff16905092915050565b600c818154811061146457600080fd5b906000526020600020016000915054906101000a900473ffffffffffffffffffffffffffffffffffffffff1681565b7f61c92169ef077349011ff0b1383c894d86c5f0b41d986366b58a6cf31e93beda81565b6000801b81565b60075481565b600a6020528160005260406000206020528060005260406000206000915091505080546114f09061304b565b80601f016020809104026020016040519081016040528092919081815260200182805461151c9061304b565b80156115695780601f1061153e57610100808354040283529160200191611569565b820191906000526020600020905b81548152906001019060200180831161154c57829003601f168201915b505050505081565b600e818154811061158157600080fd5b906000526020600020016000915054906101000a900473ffffffffffffffffffffffffffffffffffffffff1681565b6115b98261093c565b6115ca816115c561191d565b611925565b6115d48383611aa2565b505050565b60035481565b600560009054906101000a900473ffffffffffffffffffffffffffffffffffffffff1681565b61162f7f61c92169ef077349011ff0b1383c894d86c5f0b41d986366b58a6cf31e93beda336113ea565b61166e576040517f08c379a000000000000000000000000000000000000000000000000000000000815260040161166590612d35565b60405180910390fd5b60008114156116b2576040517f08c379a00000000000000000000000000000000000000000000000000000000081526004016116a990612cb5565b60405180910390fd5b806001819055506040516116c590612ade565b60405180910390207ff99dba3a76085484eae2e89cc2e2ee5edffe3f1d25cdd1e6c5757447b9b5b473826040516116fc9190612dd5565b60405180910390a250565b60045481565b6117377f61c92169ef077349011ff0b1383c894d86c5f0b41d986366b58a6cf31e93beda336113ea565b611776576040517f08c379a000000000000000000000000000000000000000000000000000000000815260040161176d90612d35565b60405180910390fd5b60008114156117ba576040517f08c379a00000000000000000000000000000000000000000000000000000000081526004016117b190612cd5565b60405180910390fd5b806002819055506040516117cd90612b32565b60405180910390207ff99dba3a76085484eae2e89cc2e2ee5edffe3f1d25cdd1e6c5757447b9b5b473826040516118049190612dd5565b60405180910390a250565b6060600d80548060200260200160405190810160405280929190818152602001828054801561189357602002820191906000526020600020905b8160009054906101000a900473ffffffffffffffffffffffffffffffffffffffff1673ffffffffffffffffffffffffffffffffffffffff1681526020019060010190808311611849575b5050505050905090565b60007f01ffc9a7000000000000000000000000000000000000000000000000000000007bffffffffffffffffffffffffffffffffffffffffffffffffffffffff1916827bffffffffffffffffffffffffffffffffffffffffffffffffffffffff1916149050919050565b600081836119159190612eb1565b905092915050565b600033905090565b61192f82826113ea565b6119be576119548173ffffffffffffffffffffffffffffffffffffffff166014611b83565b6119628360001c6020611b83565b604051602001611973929190612b47565b6040516020818303038152906040526040517f08c379a00000000000000000000000000000000000000000000000000000000081526004016119b59190612c33565b60405180910390fd5b5050565b6119cc82826113ea565b611a9e57600160008084815260200190815260200160002060000160008373ffffffffffffffffffffffffffffffffffffffff1673ffffffffffffffffffffffffffffffffffffffff16815260200190815260200160002060006101000a81548160ff021916908315150217905550611a4361191d565b73ffffffffffffffffffffffffffffffffffffffff168173ffffffffffffffffffffffffffffffffffffffff16837f2f8788117e7eff1d82e926ec794901d17c78024a50270940304540a733656f0d60405160405180910390a45b5050565b611aac82826113ea565b15611b7f57600080600084815260200190815260200160002060000160008373ffffffffffffffffffffffffffffffffffffffff1673ffffffffffffffffffffffffffffffffffffffff16815260200190815260200160002060006101000a81548160ff021916908315150217905550611b2461191d565b73ffffffffffffffffffffffffffffffffffffffff168173ffffffffffffffffffffffffffffffffffffffff16837ff6391f5c32d9c69d2a47ea670b442974b53935d1edc7fd64eb21e047a839171b60405160405180910390a45b5050565b606060006002836002611b969190612f07565b611ba09190612eb1565b67ffffffffffffffff811115611bdf577f4e487b7100000000000000000000000000000000000000000000000000000000600052604160045260246000fd5b6040519080825280601f01601f191660200182016040528015611c115781602001600182028036833780820191505090505b5090507f300000000000000000000000000000000000000000000000000000000000000081600081518110611c6f577f4e487b7100000000000000000000000000000000000000000000000000000000600052603260045260246000fd5b60200101907effffffffffffffffffffffffffffffffffffffffffffffffffffffffffffff1916908160001a9053507f780000000000000000000000000000000000000000000000000000000000000081600181518110611cf9577f4e487b7100000000000000000000000000000000000000000000000000000000600052603260045260246000fd5b60200101907effffffffffffffffffffffffffffffffffffffffffffffffffffffffffffff1916908160001a90535060006001846002611d399190612f07565b611d439190612eb1565b90505b6001811115611e2f577f3031323334353637383961626364656600000000000000000000000000000000600f861660108110611dab577f4e487b7100000000000000000000000000000000000000000000000000000000600052603260045260246000fd5b1a60f81b828281518110611de8577f4e487b7100000000000000000000000000000000000000000000000000000000600052603260045260246000fd5b60200101907effffffffffffffffffffffffffffffffffffffffffffffffffffffffffffff1916908160001a905350600485901c945080611e2890613021565b9050611d46565b5060008414611e73576040517f08c379a0000000000000000000000000000000000000000000000000000000008152600401611e6a90612c55565b60405180910390fd5b8091505092915050565b828054611e899061304b565b90600052602060002090601f016020900481019282611eab5760008555611ef2565b82601f10611ec457805160ff1916838001178555611ef2565b82800160010185558215611ef2579182015b82811115611ef1578251825591602001919060010190611ed6565b5b509050611eff9190611f03565b5090565b5b80821115611f1c576000816000905550600101611f04565b5090565b6000611f33611f2e84612e21565b612df0565b905082815260208101848484011115611f4b57600080fd5b611f56848285612fdf565b509392505050565b600081359050611f6d8161311b565b92915050565b600081359050611f8281613132565b92915050565b600081359050611f9781613149565b92915050565b600081359050611fac81613160565b92915050565b600082601f830112611fc357600080fd5b8135611fd3848260208601611f20565b91505092915050565b600081359050611feb81613170565b92915050565b6000806040838503121561200457600080fd5b600061201285828601611f5e565b925050602061202385828601611f9d565b9150509250929050565b60008060006060848603121561204257600080fd5b600061205086828701611f5e565b935050602084013567ffffffffffffffff81111561206d57600080fd5b61207986828701611fb2565b925050604061208a86828701611f9d565b9150509250925092565b6000602082840312156120a657600080fd5b60006120b484828501611f73565b91505092915050565b600080604083850312156120d057600080fd5b60006120de85828601611f73565b92505060206120ef85828601611f5e565b9150509250929050565b60006020828403121561210b57600080fd5b600061211984828501611f88565b91505092915050565b60006020828403121561213457600080fd5b600061214284828501611fdc565b91505092915050565b6000806040838503121561215e57600080fd5b600061216c85828601611fdc565b925050602061217d85828601611fdc565b9150509250929050565b6000612193838361219f565b60208301905092915050565b6121a881612f61565b82525050565b6121b781612f61565b82525050565b60006121c882612e61565b6121d28185612e84565b93506121dd83612e51565b8060005b8381101561220e5781516121f58882612187565b975061220083612e77565b9250506001810190506121e1565b5085935050505092915050565b61222481612f73565b82525050565b61223381612f7f565b82525050565b600061224482612e6c565b61224e8185612e95565b935061225e818560208601612fee565b6122678161310a565b840191505092915050565b600061227d82612e6c565b6122878185612ea6565b9350612297818560208601612fee565b80840191505092915050565b60006122b0602083612e95565b91507f537472696e67733a20686578206c656e67746820696e73756666696369656e746000830152602082019050919050565b60006122f0600d83612ea6565b91507f75706461746552657761726473000000000000000000000000000000000000006000830152600d82019050919050565b6000612330604d83612e95565b91507f4d656d626572733a757064617465456e74657270726973654d61746368202d2060008301527f4e65772076616c756520666f722074686520656e7465727072697365206d617460208301527f63682063616e27742062652030000000000000000000000000000000000000006040830152606082019050919050565b60006123bc605183612e95565b91507f4d656d626572733a757064617465506c6174666f726d536861726556616c696460008301527f6174696f6e202d204e65772076616c756520666f722074686520706c6174666f60208301527f726d206665652063616e277420626520300000000000000000000000000000006040830152606082019050919050565b6000612448601583612ea6565b91507f757064617465456e74657270726973654d6174636800000000000000000000006000830152601582019050919050565b6000612488604783612e95565b91507f4d656d626572733a757064617465546f6b656e7350657256616c69646174696f60008301527f6e202d204e65772076616c756520666f7220746865207265776172642063616e60208301527f27742062652030000000000000000000000000000000000000000000000000006040830152606082019050919050565b6000612514604183612e95565b91507f4d656d626572733a757064617465416363657373466565202d204e657720766160008301527f6c756520666f722074686520616363657373206665652063616e27742062652060208301527f30000000000000000000000000000000000000000000000000000000000000006040830152606082019050919050565b60006125a0602a83612e95565b91507f4d656d626572733a61646455736572202d2054686973207573657220616c726560008301527f6164792065786973742e000000000000000000000000000000000000000000006020830152604082019050919050565b6000612606602483612ea6565b91507f75706461746544617461537562736372696265725368617265733a56616c696460008301527f61746f72000000000000000000000000000000000000000000000000000000006020830152602482019050919050565b600061266c600c83612ea6565b91507f75706461746551756f72756d00000000000000000000000000000000000000006000830152600c82019050919050565b60006126ac603783612e95565b91507f456e746572707269736520616e642056616c696461746f72207368617265732060008301527f63616e2774206265206c6172676572207468616e2039300000000000000000006020830152604082019050919050565b6000612712602983612e95565b91507f4d656d626572733a6973536574746572202d2043616c6c6572206973206e6f7460008301527f20612073657474657200000000000000000000000000000000000000000000006020830152604082019050919050565b6000612778600f83612ea6565b91507f75706461746541636365737346656500000000000000000000000000000000006000830152600f82019050919050565b60006127b8603183612e95565b91507f4d656d626572733a4973436f6e74726f6c6c6572202d2043616c6c657220697360008301527f206e6f74206120636f6e74726f6c6c65720000000000000000000000000000006020830152604082019050919050565b600061281e601783612ea6565b91507f416363657373436f6e74726f6c3a206163636f756e74200000000000000000006000830152601782019050919050565b600061285e603283612e95565b91507f4d656d626572733a75706461746551756f72756d202d204e65772071756f727560008301527f6d2076616c75652063616e2774206265203000000000000000000000000000006020830152604082019050919050565b60006128c4604c83612e95565b91507f4d656d626572733a7570646174654d696e4465706f73697444617973202d204e60008301527f65772076616c756520666f7220746865206d696e206465706f7369742064617960208301527f732063616e2774206265203000000000000000000000000000000000000000006040830152606082019050919050565b6000612950602583612ea6565b91507f75706461746544617461537562736372696265725368617265733a456e74657260008301527f70726973650000000000000000000000000000000000000000000000000000006020830152602582019050919050565b60006129b6601d83612ea6565b91507f757064617465506c6174666f726d536861726556616c69646174696f6e0000006000830152601d82019050919050565b60006129f6601483612ea6565b91507f7570646174654d696e4465706f736974446179730000000000000000000000006000830152601482019050919050565b6000612a36601183612ea6565b91507f206973206d697373696e6720726f6c65200000000000000000000000000000006000830152601182019050919050565b6000612a76602f83612e95565b91507f416363657373436f6e74726f6c3a2063616e206f6e6c792072656e6f756e636560008301527f20726f6c657320666f722073656c6600000000000000000000000000000000006020830152604082019050919050565b612ad881612fd5565b82525050565b6000612ae9826122e3565b9150819050919050565b6000612afe8261243b565b9150819050919050565b6000612b13826125f9565b9150819050919050565b6000612b288261265f565b9150819050919050565b6000612b3d8261276b565b9150819050919050565b6000612b5282612811565b9150612b5e8285612272565b9150612b6982612a29565b9150612b758284612272565b91508190509392505050565b6000612b8c82612943565b9150819050919050565b6000612ba1826129a9565b9150819050919050565b6000612bb6826129e9565b9150819050919050565b6000602082019050612bd560008301846121ae565b92915050565b60006020820190508181036000830152612bf581846121bd565b905092915050565b6000602082019050612c12600083018461221b565b92915050565b6000602082019050612c2d600083018461222a565b92915050565b60006020820190508181036000830152612c4d8184612239565b905092915050565b60006020820190508181036000830152612c6e816122a3565b9050919050565b60006020820190508181036000830152612c8e81612323565b9050919050565b60006020820190508181036000830152612cae816123af565b9050919050565b60006020820190508181036000830152612cce8161247b565b9050919050565b60006020820190508181036000830152612cee81612507565b9050919050565b60006020820190508181036000830152612d0e81612593565b9050919050565b60006020820190508181036000830152612d2e8161269f565b9050919050565b60006020820190508181036000830152612d4e81612705565b9050919050565b60006020820190508181036000830152612d6e816127ab565b9050919050565b60006020820190508181036000830152612d8e81612851565b9050919050565b60006020820190508181036000830152612dae816128b7565b9050919050565b60006020820190508181036000830152612dce81612a69565b9050919050565b6000602082019050612dea6000830184612acf565b92915050565b6000604051905081810181811067ffffffffffffffff82111715612e1757612e166130db565b5b8060405250919050565b600067ffffffffffffffff821115612e3c57612e3b6130db565b5b601f19601f8301169050602081019050919050565b6000819050602082019050919050565b600081519050919050565b600081519050919050565b6000602082019050919050565b600082825260208201905092915050565b600082825260208201905092915050565b600081905092915050565b6000612ebc82612fd5565b9150612ec783612fd5565b9250827fffffffffffffffffffffffffffffffffffffffffffffffffffffffffffffffff03821115612efc57612efb61307d565b5b828201905092915050565b6000612f1282612fd5565b9150612f1d83612fd5565b9250817fffffffffffffffffffffffffffffffffffffffffffffffffffffffffffffffff0483118215151615612f5657612f5561307d565b5b828202905092915050565b6000612f6c82612fb5565b9050919050565b60008115159050919050565b6000819050919050565b60007fffffffff0000000000000000000000000000000000000000000000000000000082169050919050565b600073ffffffffffffffffffffffffffffffffffffffff82169050919050565b6000819050919050565b82818337600083830152505050565b60005b8381101561300c578082015181840152602081019050612ff1565b8381111561301b576000848401525b50505050565b600061302c82612fd5565b915060008214156130405761303f61307d565b5b600182039050919050565b6000600282049050600182168061306357607f821691505b60208210811415613077576130766130ac565b5b50919050565b7f4e487b7100000000000000000000000000000000000000000000000000000000600052601160045260246000fd5b7f4e487b7100000000000000000000000000000000000000000000000000000000600052602260045260246000fd5b7f4e487b7100000000000000000000000000000000000000000000000000000000600052604160045260246000fd5b6000601f19601f8301169050919050565b61312481612f61565b811461312f57600080fd5b50565b61313b81612f7f565b811461314657600080fd5b50565b61315281612f89565b811461315d57600080fd5b50565b6003811061316d57600080fd5b50565b61317981612fd5565b811461318457600080fd5b5056fea264697066735822122051d68721bc56d45b4032978d9f40fff4141c4e253235c184b117d20da94bd84a64736f6c63430008000033",
  "immutableReferences": {},
  "source": "// SPDX-License-Identifier: MIT\npragma solidity =0.8.0;\npragma experimental ABIEncoderV2;\nimport \"@openzeppelin/contracts/access/AccessControl.sol\";\nimport \"@openzeppelin/contracts/token/ERC20/IERC20.sol\";\nimport \"@openzeppelin/contracts/token/ERC20/utils/SafeERC20.sol\";\nimport \"@openzeppelin/contracts/utils/math/SafeMath.sol\";\nimport \"./ICohortFactory.sol\";\nimport \"./../IAuditToken.sol\";\n\n/**\n * @title Members\n * Allows on creation of Enterprise and Validator accounts and staking of funds by validators\n * Validators and enterprises have ability to withdraw their staking and earnings \n * Contract also contains several update functions controlled by the Governance contracts\n */\n\ncontract Members is  AccessControl {\n\n    using SafeMath for uint256;\n    using SafeERC20 for IERC20;\n\n   \n\n    bytes32 public constant CONTROLLER_ROLE = keccak256(\"CONTROLLER_ROLE\");\n    bytes32 public constant SETTER_ROLE =  keccak256(\"SETTER_ROLE\");\n\n    uint256 public amountTokensPerValidation =  100e18;    //New minted amount per validation\n\n    uint256 public accessFee = 100e18;              // data subscriber fee for access to reports\n    uint256 public enterpriseShareSubscriber = 40;  // share of enterprise income from data subscriber fee\n    uint256 public validatorShareSubscriber = 40;   // share of validator income from data subscriber fee\n    address public platformAddress;                 // address where all platform fees are deposited\n    uint256 public platformShareValidation = 15;    // fee from validation\n    uint256 public enterpriseMatch = 200;           // percentage to match against amountTokensPerValidation\n    uint256 public minDepositDays = 60;             // number of days to considered for calculation of average spendings\n    uint256 public requiredQuorum = 80;             // quorum required to consider validation valid\n    \n\n    \n \n    /// @dev check if caller is a controller     \n    modifier isController {\n        require(hasRole(CONTROLLER_ROLE, msg.sender), \"Members:IsController - Caller is not a controller\");\n\n        _;\n    }\n\n    /// @dev check if caller is a setter     \n    modifier isSetter {\n        require(hasRole(SETTER_ROLE, msg.sender), \"Members:isSetter - Caller is not a setter\");\n\n        _;\n    }\n\n     // Audit types to be used. Two types added for future expansion \n    enum UserType {Enterprise, Validator, DataSubscriber}  \n\n\n\n    mapping(address => mapping(UserType => string)) public user;\n    mapping(address => mapping(UserType => bool)) public userMap;\n    address[] public enterprises;\n    address[] public validators;\n    address[] public dataSubscribers;\n    \n    event UserAdded(address indexed user, string name, UserType indexed userType);\n    event LogGovernanceUpdate(uint256 params, string indexed action);\n\n    \n\n    constructor(address _platformAddress ) {\n        require(_platformAddress != address(0), \"Members:constructor - Platform address can't be 0\");\n        platformAddress = _platformAddress;\n        _setupRole(DEFAULT_ADMIN_ROLE, msg.sender);\n    }\n\n\n     /**\n     * @dev to be called by governance to update new amount for required quorum\n     * @param _requiredQuorum new value of required quorum\n     */\n    function updateQuorum(uint256 _requiredQuorum) public isSetter() {\n        require(_requiredQuorum != 0, \"Members:updateQuorum - New quorum value can't be 0\");\n        requiredQuorum = _requiredQuorum;\n        LogGovernanceUpdate(_requiredQuorum, \"updateQuorum\");\n    }\n\n\n    /**\n    * @dev to be called by Governance contract to update new value for the validation platform fee\n    * @param _newFee new value for data subscriber access fee\n    */\n    function updatePlatformShareValidation(uint256 _newFee) public isSetter() {\n\n        require(_newFee != 0, \"Members:updatePlatformShareValidation - New value for the platform fee can't be 0\");\n        platformShareValidation = _newFee;\n        emit LogGovernanceUpdate(_newFee, \"updatePlatformShareValidation\");\n    }\n\n    /**\n    * @dev to be called by Governance contract to update new value for data sub access fee\n    * @param _accessFee new value for data subscriber access fee\n    */\n    function updateAccessFee(uint256 _accessFee) public isSetter() {\n\n        require(_accessFee != 0, \"Members:updateAccessFee - New value for the access fee can't be 0\");\n        accessFee = _accessFee;\n        emit LogGovernanceUpdate(_accessFee, \"updateAccessFee\");\n    }\n\n     /**\n    * @dev to be called by Governance contract to update new amount for validation rewards\n    * @param _minDepositDays new value for minimum of days to calculate \n    */\n    function updateMinDepositDays(uint256 _minDepositDays) public isSetter() {\n\n        require(_minDepositDays != 0, \"Members:updateMinDepositDays - New value for the min deposit days can't be 0\");\n        minDepositDays = _minDepositDays;\n        emit LogGovernanceUpdate(_minDepositDays, \"updateMinDepositDays\");\n    }\n\n    /**\n    * @dev to be called by Governance contract to update new amount for validation rewards\n    * @param _amountTokensPerValidation new value of reward per validation\n    */\n    function updateTokensPerValidation(uint256 _amountTokensPerValidation) public isSetter() {\n\n        require(_amountTokensPerValidation != 0, \"Members:updateTokensPerValidation - New value for the reward can't be 0\");\n        amountTokensPerValidation = _amountTokensPerValidation;\n        emit LogGovernanceUpdate(_amountTokensPerValidation, \"updateRewards\");\n\n    }\n    \n    /**\n    * @dev to be called by Governance contract\n    * @param _enterpriseMatch new value of enterprise portion of enterprise value of validation cost\n    */\n    function updateEnterpriseMatch(uint256 _enterpriseMatch) public isSetter()  {\n\n        require(_enterpriseMatch != 0, \"Members:updateEnterpriseMatch - New value for the enterprise match can't be 0\");\n        enterpriseMatch = _enterpriseMatch;\n        emit LogGovernanceUpdate(_enterpriseMatch, \"updateEnterpriseMatch\");\n\n    }\n\n    /**\n    * @dev to be called by Governance contract to change enterprise and validators shares\n    * of data subscription fees. \n    * @param _enterpriseShareSubscriber  - share of the enterprise\n    * @param _validatorShareSubscriber - share of the subscribers\n    */\n    function updateDataSubscriberShares(uint256 _enterpriseShareSubscriber, uint256 _validatorShareSubscriber ) public isSetter()  {\n\n        // platform share should be at least 10%\n        require(_enterpriseShareSubscriber.add(validatorShareSubscriber) <=90, \"Enterprise and Validator shares can't be larger than 90\");\n        enterpriseShareSubscriber = _enterpriseShareSubscriber;\n        validatorShareSubscriber = _validatorShareSubscriber;\n        emit LogGovernanceUpdate(enterpriseShareSubscriber, \"updateDataSubscriberShares:Enterprise\");\n        emit LogGovernanceUpdate(validatorShareSubscriber, \"updateDataSubscriberShares:Validator\");\n    }\n\n   \n    /** \n    * @dev add new platform user\n    * @param newUser to add\n    * @param name name of the user\n    * @param userType  type of the user, enterprise, validator or data subscriber\n    */\n    function addUser(address newUser, string memory name, UserType userType) public isController() {\n\n        require(!userMap[newUser][userType], \"Members:addUser - This user already exist.\");\n        user[newUser][userType] = name;\n        userMap[newUser][userType] = true;\n\n        if (userType == UserType.DataSubscriber) \n            dataSubscribers.push(newUser);\n            // dataSubscriberCount++;\n        else if (userType == UserType.Validator)\n            validators.push(newUser);\n            // validatorCount++;\n        else if (userType == UserType.Enterprise)\n            enterprises.push(newUser);\n            // enterpriseCount++;\n\n        // userAddersses.push(newUser);\n     \n        emit UserAdded(newUser, name, userType);\n    }\n\n    function returnValidatorList() public view returns(address[] memory) {\n\n        return validators;\n    }\n\n   \n\n}\n",
  "sourcePath": "/home/win2win/eth/projects/AuditChain/Core-Smart-Contracts-v1/contracts/Auditchain/Members.sol",
  "compiler": {
    "name": "solc",
    "version": "0.8.0+commit.c7dfd78e.Emscripten.clang"
  },
  "schemaVersion": "3.4.1",
  "updatedAt": "2022-03-24T12:29:20.419Z",
  "networkType": "ethereum",
  "devdoc": {
    "kind": "dev",
    "methods": {
      "addUser(address,string,uint8)": {
        "details": "add new platform user",
        "params": {
          "name": "name of the user",
          "newUser": "to add",
          "userType": "type of the user, enterprise, validator or data subscriber"
        }
      },
      "getRoleAdmin(bytes32)": {
        "details": "Returns the admin role that controls `role`. See {grantRole} and {revokeRole}. To change a role's admin, use {_setRoleAdmin}."
      },
      "grantRole(bytes32,address)": {
        "details": "Grants `role` to `account`. If `account` had not been already granted `role`, emits a {RoleGranted} event. Requirements: - the caller must have ``role``'s admin role."
      },
      "hasRole(bytes32,address)": {
        "details": "Returns `true` if `account` has been granted `role`."
      },
      "renounceRole(bytes32,address)": {
        "details": "Revokes `role` from the calling account. Roles are often managed via {grantRole} and {revokeRole}: this function's purpose is to provide a mechanism for accounts to lose their privileges if they are compromised (such as when a trusted device is misplaced). If the calling account had been revoked `role`, emits a {RoleRevoked} event. Requirements: - the caller must be `account`."
      },
      "revokeRole(bytes32,address)": {
        "details": "Revokes `role` from `account`. If `account` had been granted `role`, emits a {RoleRevoked} event. Requirements: - the caller must have ``role``'s admin role."
      },
      "supportsInterface(bytes4)": {
        "details": "See {IERC165-supportsInterface}."
      },
      "updateAccessFee(uint256)": {
        "details": "to be called by Governance contract to update new value for data sub access fee",
        "params": {
          "_accessFee": "new value for data subscriber access fee"
        }
      },
      "updateDataSubscriberShares(uint256,uint256)": {
        "details": "to be called by Governance contract to change enterprise and validators shares of data subscription fees. ",
        "params": {
          "_enterpriseShareSubscriber": "- share of the enterprise",
          "_validatorShareSubscriber": "- share of the subscribers"
        }
      },
      "updateEnterpriseMatch(uint256)": {
        "details": "to be called by Governance contract",
        "params": {
          "_enterpriseMatch": "new value of enterprise portion of enterprise value of validation cost"
        }
      },
      "updateMinDepositDays(uint256)": {
        "details": "to be called by Governance contract to update new amount for validation rewards",
        "params": {
          "_minDepositDays": "new value for minimum of days to calculate "
        }
      },
      "updatePlatformShareValidation(uint256)": {
        "details": "to be called by Governance contract to update new value for the validation platform fee",
        "params": {
          "_newFee": "new value for data subscriber access fee"
        }
      },
      "updateQuorum(uint256)": {
        "details": "to be called by governance to update new amount for required quorum",
        "params": {
          "_requiredQuorum": "new value of required quorum"
        }
      },
      "updateTokensPerValidation(uint256)": {
        "details": "to be called by Governance contract to update new amount for validation rewards",
        "params": {
          "_amountTokensPerValidation": "new value of reward per validation"
        }
      }
    },
    "title": "Members Allows on creation of Enterprise and Validator accounts and staking of funds by validators Validators and enterprises have ability to withdraw their staking and earnings  Contract also contains several update functions controlled by the Governance contracts",
    "version": 1
  },
  "userdoc": {
    "kind": "user",
    "methods": {},
    "version": 1
  }
}