{
  "contractName": "Members",
  "abi": [
    {
      "inputs": [
        {
          "internalType": "contract AuditToken",
          "name": "_auditToken",
          "type": "address"
        },
        {
          "internalType": "address",
          "name": "_platformAddress",
          "type": "address"
        }
      ],
      "stateMutability": "nonpayable",
      "type": "constructor"
    },
    {
      "anonymous": false,
      "inputs": [
        {
          "indexed": true,
          "internalType": "address",
          "name": "user",
          "type": "address"
        },
        {
          "indexed": false,
          "internalType": "string",
          "name": "name",
          "type": "string"
        }
      ],
      "name": "EnterpriseUserAdded",
      "type": "event"
    },
    {
      "anonymous": false,
      "inputs": [
        {
          "indexed": true,
          "internalType": "address",
          "name": "from",
          "type": "address"
        },
        {
          "indexed": false,
          "internalType": "uint256",
          "name": "accessFee",
          "type": "uint256"
        },
        {
          "indexed": false,
          "internalType": "address",
          "name": "cohortAddress",
          "type": "address"
        },
        {
          "indexed": false,
          "internalType": "address",
          "name": "enterprise",
          "type": "address"
        },
        {
          "indexed": false,
          "internalType": "uint256",
          "name": "enterpriseShare",
          "type": "uint256"
        }
      ],
      "name": "LogDataSubscriberPaid",
      "type": "event"
    },
    {
      "anonymous": false,
      "inputs": [
        {
          "indexed": false,
          "internalType": "address",
          "name": "from",
          "type": "address"
        },
        {
          "indexed": true,
          "internalType": "address",
          "name": "validator",
          "type": "address"
        },
        {
          "indexed": false,
          "internalType": "uint256",
          "name": "amount",
          "type": "uint256"
        }
      ],
      "name": "LogDataSubscriberValidatorPaid",
      "type": "event"
    },
    {
      "anonymous": false,
      "inputs": [
        {
          "indexed": true,
          "internalType": "address",
          "name": "from",
          "type": "address"
        },
        {
          "indexed": false,
          "internalType": "uint256",
          "name": "amount",
          "type": "uint256"
        }
      ],
      "name": "LogDepositReceived",
      "type": "event"
    },
    {
      "anonymous": false,
      "inputs": [
        {
          "indexed": false,
          "internalType": "address",
          "name": "cohort",
          "type": "address"
        },
        {
          "indexed": false,
          "internalType": "uint256",
          "name": "tokens",
          "type": "uint256"
        },
        {
          "indexed": false,
          "internalType": "uint256",
          "name": "enterpriseAmount",
          "type": "uint256"
        },
        {
          "indexed": true,
          "internalType": "address",
          "name": "enterprise",
          "type": "address"
        }
      ],
      "name": "LogRewardsDeposited",
      "type": "event"
    },
    {
      "anonymous": false,
      "inputs": [
        {
          "indexed": true,
          "internalType": "address",
          "name": "validator",
          "type": "address"
        },
        {
          "indexed": false,
          "internalType": "uint256",
          "name": "tokens",
          "type": "uint256"
        }
      ],
      "name": "LogRewardsReceived",
      "type": "event"
    },
    {
      "anonymous": false,
      "inputs": [
        {
          "indexed": true,
          "internalType": "address",
          "name": "from",
          "type": "address"
        },
        {
          "indexed": false,
          "internalType": "uint256",
          "name": "amount",
          "type": "uint256"
        }
      ],
      "name": "LogRewardsRedeemed",
      "type": "event"
    },
    {
      "anonymous": false,
      "inputs": [
        {
          "indexed": false,
          "internalType": "address",
          "name": "subscriber",
          "type": "address"
        },
        {
          "indexed": false,
          "internalType": "uint256",
          "name": "numberOfSubscriptions",
          "type": "uint256"
        }
      ],
      "name": "LogSubscriptionCompleted",
      "type": "event"
    },
    {
      "anonymous": false,
      "inputs": [
        {
          "indexed": false,
          "internalType": "uint256",
          "name": "portion",
          "type": "uint256"
        }
      ],
      "name": "LogUpdateEnterpriseMatch",
      "type": "event"
    },
    {
      "anonymous": false,
      "inputs": [
        {
          "indexed": false,
          "internalType": "uint256",
          "name": "minDepositDays",
          "type": "uint256"
        }
      ],
      "name": "LogUpdateMinDepositDays",
      "type": "event"
    },
    {
      "anonymous": false,
      "inputs": [
        {
          "indexed": false,
          "internalType": "uint256",
          "name": "rewards",
          "type": "uint256"
        }
      ],
      "name": "LogUpdateRewards",
      "type": "event"
    },
    {
      "anonymous": false,
      "inputs": [
        {
          "indexed": true,
          "internalType": "bytes32",
          "name": "role",
          "type": "bytes32"
        },
        {
          "indexed": true,
          "internalType": "bytes32",
          "name": "previousAdminRole",
          "type": "bytes32"
        },
        {
          "indexed": true,
          "internalType": "bytes32",
          "name": "newAdminRole",
          "type": "bytes32"
        }
      ],
      "name": "RoleAdminChanged",
      "type": "event"
    },
    {
      "anonymous": false,
      "inputs": [
        {
          "indexed": true,
          "internalType": "bytes32",
          "name": "role",
          "type": "bytes32"
        },
        {
          "indexed": true,
          "internalType": "address",
          "name": "account",
          "type": "address"
        },
        {
          "indexed": true,
          "internalType": "address",
          "name": "sender",
          "type": "address"
        }
      ],
      "name": "RoleGranted",
      "type": "event"
    },
    {
      "anonymous": false,
      "inputs": [
        {
          "indexed": true,
          "internalType": "bytes32",
          "name": "role",
          "type": "bytes32"
        },
        {
          "indexed": true,
          "internalType": "address",
          "name": "account",
          "type": "address"
        },
        {
          "indexed": true,
          "internalType": "address",
          "name": "sender",
          "type": "address"
        }
      ],
      "name": "RoleRevoked",
      "type": "event"
    },
    {
      "anonymous": false,
      "inputs": [
        {
          "indexed": true,
          "internalType": "address",
          "name": "user",
          "type": "address"
        },
        {
          "indexed": false,
          "internalType": "string",
          "name": "name",
          "type": "string"
        }
      ],
      "name": "ValidatorUserAdded",
      "type": "event"
    },
    {
      "inputs": [],
      "name": "CONTROLLER_ROLE",
      "outputs": [
        {
          "internalType": "bytes32",
          "name": "",
          "type": "bytes32"
        }
      ],
      "stateMutability": "view",
      "type": "function",
      "constant": true
    },
    {
      "inputs": [],
      "name": "DEFAULT_ADMIN_ROLE",
      "outputs": [
        {
          "internalType": "bytes32",
          "name": "",
          "type": "bytes32"
        }
      ],
      "stateMutability": "view",
      "type": "function",
      "constant": true
    },
    {
      "inputs": [],
      "name": "SETTER_ROLE",
      "outputs": [
        {
          "internalType": "bytes32",
          "name": "",
          "type": "bytes32"
        }
      ],
      "stateMutability": "view",
      "type": "function",
      "constant": true
    },
    {
      "inputs": [],
      "name": "accessFee",
      "outputs": [
        {
          "internalType": "uint256",
          "name": "",
          "type": "uint256"
        }
      ],
      "stateMutability": "view",
      "type": "function",
      "constant": true
    },
    {
      "inputs": [],
      "name": "amountTokensPerValidation",
      "outputs": [
        {
          "internalType": "uint256",
          "name": "",
          "type": "uint256"
        }
      ],
      "stateMutability": "view",
      "type": "function",
      "constant": true
    },
    {
      "inputs": [],
      "name": "auditToken",
      "outputs": [
        {
          "internalType": "contract AuditToken",
          "name": "",
          "type": "address"
        }
      ],
      "stateMutability": "view",
      "type": "function",
      "constant": true
    },
    {
      "inputs": [],
      "name": "cohortFactory",
      "outputs": [
        {
          "internalType": "contract CohortFactory",
          "name": "",
          "type": "address"
        }
      ],
      "stateMutability": "view",
      "type": "function",
      "constant": true
    },
    {
      "inputs": [
        {
          "internalType": "address",
          "name": "",
          "type": "address"
        },
        {
          "internalType": "uint256",
          "name": "",
          "type": "uint256"
        }
      ],
      "name": "dataSubscribers",
      "outputs": [
        {
          "internalType": "address",
          "name": "cohort",
          "type": "address"
        },
        {
          "internalType": "uint256",
          "name": "audits",
          "type": "uint256"
        }
      ],
      "stateMutability": "view",
      "type": "function",
      "constant": true
    },
    {
      "inputs": [
        {
          "internalType": "address",
          "name": "",
          "type": "address"
        },
        {
          "internalType": "address",
          "name": "",
          "type": "address"
        }
      ],
      "name": "dataSubscribersMap",
      "outputs": [
        {
          "internalType": "bool",
          "name": "",
          "type": "bool"
        }
      ],
      "stateMutability": "view",
      "type": "function",
      "constant": true
    },
    {
      "inputs": [
        {
          "internalType": "address",
          "name": "",
          "type": "address"
        }
      ],
      "name": "deposits",
      "outputs": [
        {
          "internalType": "uint256",
          "name": "",
          "type": "uint256"
        }
      ],
      "stateMutability": "view",
      "type": "function",
      "constant": true
    },
    {
      "inputs": [
        {
          "internalType": "address",
          "name": "",
          "type": "address"
        }
      ],
      "name": "enterpriseMap",
      "outputs": [
        {
          "internalType": "bool",
          "name": "",
          "type": "bool"
        }
      ],
      "stateMutability": "view",
      "type": "function",
      "constant": true
    },
    {
      "inputs": [],
      "name": "enterpriseMatch",
      "outputs": [
        {
          "internalType": "uint256",
          "name": "",
          "type": "uint256"
        }
      ],
      "stateMutability": "view",
      "type": "function",
      "constant": true
    },
    {
      "inputs": [],
      "name": "enterpriseShareSubscriber",
      "outputs": [
        {
          "internalType": "uint256",
          "name": "",
          "type": "uint256"
        }
      ],
      "stateMutability": "view",
      "type": "function",
      "constant": true
    },
    {
      "inputs": [
        {
          "internalType": "uint256",
          "name": "",
          "type": "uint256"
        }
      ],
      "name": "enterprises",
      "outputs": [
        {
          "internalType": "address",
          "name": "user",
          "type": "address"
        },
        {
          "internalType": "string",
          "name": "name",
          "type": "string"
        }
      ],
      "stateMutability": "view",
      "type": "function",
      "constant": true
    },
    {
      "inputs": [
        {
          "internalType": "bytes32",
          "name": "role",
          "type": "bytes32"
        }
      ],
      "name": "getRoleAdmin",
      "outputs": [
        {
          "internalType": "bytes32",
          "name": "",
          "type": "bytes32"
        }
      ],
      "stateMutability": "view",
      "type": "function",
      "constant": true
    },
    {
      "inputs": [
        {
          "internalType": "bytes32",
          "name": "role",
          "type": "bytes32"
        },
        {
          "internalType": "uint256",
          "name": "index",
          "type": "uint256"
        }
      ],
      "name": "getRoleMember",
      "outputs": [
        {
          "internalType": "address",
          "name": "",
          "type": "address"
        }
      ],
      "stateMutability": "view",
      "type": "function",
      "constant": true
    },
    {
      "inputs": [
        {
          "internalType": "bytes32",
          "name": "role",
          "type": "bytes32"
        }
      ],
      "name": "getRoleMemberCount",
      "outputs": [
        {
          "internalType": "uint256",
          "name": "",
          "type": "uint256"
        }
      ],
      "stateMutability": "view",
      "type": "function",
      "constant": true
    },
    {
      "inputs": [
        {
          "internalType": "bytes32",
          "name": "role",
          "type": "bytes32"
        },
        {
          "internalType": "address",
          "name": "account",
          "type": "address"
        }
      ],
      "name": "grantRole",
      "outputs": [],
      "stateMutability": "nonpayable",
      "type": "function"
    },
    {
      "inputs": [
        {
          "internalType": "bytes32",
          "name": "role",
          "type": "bytes32"
        },
        {
          "internalType": "address",
          "name": "account",
          "type": "address"
        }
      ],
      "name": "hasRole",
      "outputs": [
        {
          "internalType": "bool",
          "name": "",
          "type": "bool"
        }
      ],
      "stateMutability": "view",
      "type": "function",
      "constant": true
    },
    {
      "inputs": [],
      "name": "minDepositDays",
      "outputs": [
        {
          "internalType": "uint256",
          "name": "",
          "type": "uint256"
        }
      ],
      "stateMutability": "view",
      "type": "function",
      "constant": true
    },
    {
      "inputs": [],
      "name": "platformAddress",
      "outputs": [
        {
          "internalType": "address",
          "name": "",
          "type": "address"
        }
      ],
      "stateMutability": "view",
      "type": "function",
      "constant": true
    },
    {
      "inputs": [],
      "name": "platformShareValidation",
      "outputs": [
        {
          "internalType": "uint256",
          "name": "",
          "type": "uint256"
        }
      ],
      "stateMutability": "view",
      "type": "function",
      "constant": true
    },
    {
      "inputs": [],
      "name": "recentBlockUpdated",
      "outputs": [
        {
          "internalType": "uint256",
          "name": "",
          "type": "uint256"
        }
      ],
      "stateMutability": "view",
      "type": "function",
      "constant": true
    },
    {
      "inputs": [
        {
          "internalType": "bytes32",
          "name": "role",
          "type": "bytes32"
        },
        {
          "internalType": "address",
          "name": "account",
          "type": "address"
        }
      ],
      "name": "renounceRole",
      "outputs": [],
      "stateMutability": "nonpayable",
      "type": "function"
    },
    {
      "inputs": [
        {
          "internalType": "bytes32",
          "name": "role",
          "type": "bytes32"
        },
        {
          "internalType": "address",
          "name": "account",
          "type": "address"
        }
      ],
      "name": "revokeRole",
      "outputs": [],
      "stateMutability": "nonpayable",
      "type": "function"
    },
    {
      "inputs": [],
      "name": "stakedAmount",
      "outputs": [
        {
          "internalType": "uint256",
          "name": "",
          "type": "uint256"
        }
      ],
      "stateMutability": "view",
      "type": "function",
      "constant": true
    },
    {
      "inputs": [
        {
          "internalType": "address",
          "name": "",
          "type": "address"
        }
      ],
      "name": "validatorMap",
      "outputs": [
        {
          "internalType": "bool",
          "name": "",
          "type": "bool"
        }
      ],
      "stateMutability": "view",
      "type": "function",
      "constant": true
    },
    {
      "inputs": [],
      "name": "validatorShareSubscriber",
      "outputs": [
        {
          "internalType": "uint256",
          "name": "",
          "type": "uint256"
        }
      ],
      "stateMutability": "view",
      "type": "function",
      "constant": true
    },
    {
      "inputs": [
        {
          "internalType": "uint256",
          "name": "",
          "type": "uint256"
        }
      ],
      "name": "validators",
      "outputs": [
        {
          "internalType": "address",
          "name": "user",
          "type": "address"
        },
        {
          "internalType": "string",
          "name": "name",
          "type": "string"
        }
      ],
      "stateMutability": "view",
      "type": "function",
      "constant": true
    },
    {
      "inputs": [
        {
          "internalType": "contract CohortFactory",
          "name": "_cohortFactory",
          "type": "address"
        }
      ],
      "name": "setCohortFactory",
      "outputs": [],
      "stateMutability": "nonpayable",
      "type": "function"
    },
    {
      "inputs": [
        {
          "internalType": "uint256",
          "name": "_amountTokensPerValidation",
          "type": "uint256"
        }
      ],
      "name": "updateRewards",
      "outputs": [],
      "stateMutability": "nonpayable",
      "type": "function"
    },
    {
      "inputs": [
        {
          "internalType": "uint256",
          "name": "_minDepositDays",
          "type": "uint256"
        }
      ],
      "name": "updateMinDepositDays",
      "outputs": [],
      "stateMutability": "nonpayable",
      "type": "function"
    },
    {
      "inputs": [
        {
          "internalType": "uint256",
          "name": "_enterpriseMatch",
          "type": "uint256"
        }
      ],
      "name": "updateEnterpriseMatch",
      "outputs": [],
      "stateMutability": "nonpayable",
      "type": "function"
    },
    {
      "inputs": [
        {
          "internalType": "uint256",
          "name": "_enterpriseShareSubscriber",
          "type": "uint256"
        },
        {
          "internalType": "uint256",
          "name": "_validatorShareSubscriber",
          "type": "uint256"
        }
      ],
      "name": "setDataSubscriberShares",
      "outputs": [],
      "stateMutability": "nonpayable",
      "type": "function"
    },
    {
      "inputs": [
        {
          "internalType": "uint256",
          "name": "amount",
          "type": "uint256"
        }
      ],
      "name": "stake",
      "outputs": [],
      "stateMutability": "nonpayable",
      "type": "function"
    },
    {
      "inputs": [
        {
          "internalType": "address[]",
          "name": "_validators",
          "type": "address[]"
        },
        {
          "internalType": "uint256[]",
          "name": "tokens",
          "type": "uint256[]"
        },
        {
          "internalType": "address",
          "name": "cohort",
          "type": "address"
        }
      ],
      "name": "updateDailyEarningsTransferFunds",
      "outputs": [],
      "stateMutability": "nonpayable",
      "type": "function"
    },
    {
      "inputs": [
        {
          "internalType": "address",
          "name": "cohortAddress",
          "type": "address"
        },
        {
          "internalType": "uint256",
          "name": "audits",
          "type": "uint256"
        }
      ],
      "name": "dataSubscriberPayment",
      "outputs": [],
      "stateMutability": "nonpayable",
      "type": "function"
    },
    {
      "inputs": [
        {
          "internalType": "address",
          "name": "subscriber",
          "type": "address"
        }
      ],
      "name": "returnCohortsForDataSubscriber",
      "outputs": [
        {
          "components": [
            {
              "internalType": "address",
              "name": "cohort",
              "type": "address"
            },
            {
              "internalType": "uint256",
              "name": "audits",
              "type": "uint256"
            }
          ],
          "internalType": "struct Members.DataSubscriberTypes[]",
          "name": "",
          "type": "tuple[]"
        }
      ],
      "stateMutability": "view",
      "type": "function",
      "constant": true
    },
    {
      "inputs": [
        {
          "internalType": "address[]",
          "name": "cohortAddress",
          "type": "address[]"
        },
        {
          "internalType": "uint256[]",
          "name": "audits",
          "type": "uint256[]"
        }
      ],
      "name": "dataSubscriberPaymentMultiple",
      "outputs": [],
      "stateMutability": "nonpayable",
      "type": "function"
    },
    {
      "inputs": [
        {
          "internalType": "uint256",
          "name": "amount",
          "type": "uint256"
        }
      ],
      "name": "redeem",
      "outputs": [],
      "stateMutability": "nonpayable",
      "type": "function"
    },
    {
      "inputs": [],
      "name": "returnOutstandingValidations",
      "outputs": [
        {
          "internalType": "uint256",
          "name": "",
          "type": "uint256"
        }
      ],
      "stateMutability": "view",
      "type": "function",
      "constant": true
    },
    {
      "inputs": [
        {
          "internalType": "address",
          "name": "user",
          "type": "address"
        },
        {
          "internalType": "string",
          "name": "name",
          "type": "string"
        }
      ],
      "name": "addEnterpriseUser",
      "outputs": [],
      "stateMutability": "nonpayable",
      "type": "function"
    },
    {
      "inputs": [
        {
          "internalType": "address",
          "name": "user",
          "type": "address"
        },
        {
          "internalType": "string",
          "name": "name",
          "type": "string"
        }
      ],
      "name": "addValidatorUser",
      "outputs": [],
      "stateMutability": "nonpayable",
      "type": "function"
    },
    {
      "inputs": [],
      "name": "returnEnterpriseCount",
      "outputs": [
        {
          "internalType": "uint256",
          "name": "",
          "type": "uint256"
        }
      ],
      "stateMutability": "view",
      "type": "function",
      "constant": true
    },
    {
      "inputs": [],
      "name": "returnValidatorCount",
      "outputs": [
        {
          "internalType": "uint256",
          "name": "",
          "type": "uint256"
        }
      ],
      "stateMutability": "view",
      "type": "function",
      "constant": true
    },
    {
      "inputs": [
        {
          "internalType": "address",
          "name": "enterprise",
          "type": "address"
        }
      ],
      "name": "returnEnterpriseName",
      "outputs": [
        {
          "internalType": "string",
          "name": "",
          "type": "string"
        }
      ],
      "stateMutability": "view",
      "type": "function",
      "constant": true
    },
    {
      "inputs": [
        {
          "internalType": "address",
          "name": "validator",
          "type": "address"
        }
      ],
      "name": "returnValidatorName",
      "outputs": [
        {
          "internalType": "string",
          "name": "",
          "type": "string"
        }
      ],
      "stateMutability": "view",
      "type": "function",
      "constant": true
    }
  ],
  "bytecode": "0x6080604052670de0b6b3a7640000600755683635c9adc5dea0000060085560286009556028600a55600f600c55613a98600e55601e600f553480156200004457600080fd5b5060405162005f9038038062005f9083398181016040528101906200006a9190620003b3565b600073ffffffffffffffffffffffffffffffffffffffff168273ffffffffffffffffffffffffffffffffffffffff161415620000dd576040517f08c379a0000000000000000000000000000000000000000000000000000000008152600401620000d490620004c4565b60405180910390fd5b600073ffffffffffffffffffffffffffffffffffffffff168173ffffffffffffffffffffffffffffffffffffffff16141562000150576040517f08c379a00000000000000000000000000000000000000000000000000000000081526004016200014790620004e6565b60405180910390fd5b81600160006101000a81548173ffffffffffffffffffffffffffffffffffffffff021916908373ffffffffffffffffffffffffffffffffffffffff16021790555080600b60006101000a81548173ffffffffffffffffffffffffffffffffffffffff021916908373ffffffffffffffffffffffffffffffffffffffff160217905550620001e76000801b33620001ef60201b60201c565b505062000595565b6200020182826200020560201b60201c565b5050565b6200023381600080858152602001908152602001600020600001620002a860201b6200321c1790919060201c565b15620002a45762000249620002e060201b60201c565b73ffffffffffffffffffffffffffffffffffffffff168173ffffffffffffffffffffffffffffffffffffffff16837f2f8788117e7eff1d82e926ec794901d17c78024a50270940304540a733656f0d60405160405180910390a45b5050565b6000620002d8836000018373ffffffffffffffffffffffffffffffffffffffff1660001b620002e860201b60201c565b905092915050565b600033905090565b6000620002fc83836200036260201b60201c565b620003575782600001829080600181540180825580915050600190039060005260206000200160009091909190915055826000018054905083600101600084815260200190815260200160002081905550600190506200035c565b600090505b92915050565b600080836001016000848152602001908152602001600020541415905092915050565b600081519050620003968162000561565b92915050565b600081519050620003ad816200057b565b92915050565b60008060408385031215620003c757600080fd5b6000620003d7858286016200039c565b9250506020620003ea8582860162000385565b9150509250929050565b60006200040360348362000508565b91507f4d656d626572733a636f6e7374727563746f72202d20417564697420746f6b6560008301527f6e20616464726573732063616e277420626520300000000000000000000000006020830152604082019050919050565b60006200046b60318362000508565b91507f4d656d626572733a636f6e7374727563746f72202d20506c6174666f726d206160008301527f6464726573732063616e277420626520300000000000000000000000000000006020830152604082019050919050565b60006020820190508181036000830152620004df81620003f4565b9050919050565b6000602082019050818103600083015262000501816200045c565b9050919050565b600082825260208201905092915050565b6000620005268262000541565b9050919050565b60006200053a8262000519565b9050919050565b600073ffffffffffffffffffffffffffffffffffffffff82169050919050565b6200056c8162000519565b81146200057857600080fd5b50565b62000586816200052d565b81146200059257600080fd5b50565b6159eb80620005a56000396000f3fe608060405234801561001057600080fd5b50600436106102955760003560e01c8063799314fc11610167578063be07b32e116100ce578063dac95d4111610087578063dac95d4114610839578063db006a7514610857578063dbe55e5614610873578063e9b6c97514610891578063f8838cfa146108af578063fc7e286d146108cd57610295565b8063be07b32e14610751578063c173ac6014610781578063c535124e1461079f578063ca15c873146107bd578063cb422b39146107ed578063d547741f1461081d57610295565b8063a2011b3f11610120578063a2011b3f146106a3578063a217fddf146106c1578063a694fc3a146106df578063a7579be8146106fb578063b1e95e9414610719578063b4e67c721461073557610295565b8063799314fc146105a85780638ab134e8146105d85780639010d07c146105f457806391d148541461062457806398c3c116146106545780639fbae2861461067257610295565b8063373d61321161020b5780634bd4545f116101c45780634bd4545f146104fa5780634d9c798c14610518578063525d14d8146105365780635659ae58146105525780635c3e15211461057057806374eb9cdb1461058c57610295565b8063373d6132146104395780633d9bc47614610457578063435eef4714610488578063492b85cd146104a4578063495348d0146104c25780634a9fcdce146104de57610295565b8063248a9ca31161025d578063248a9ca3146103525780632f2ff15d1461038257806332cd42441461039e5780633507abaf146103ce57806335aa2e44146103ec57806336568abe1461041d57610295565b80630396bda91461029a578063092c5b3b146102ca5780630acf09d8146102e85780630c13f8331461030657806318d50d3314610322575b600080fd5b6102b460048036038101906102af91906144c3565b6108fd565b6040516102c1919061533a565b60405180910390f35b6102d2610a8c565b6040516102df91906152e9565b60405180910390f35b6102f0610ab0565b6040516102fd919061557c565b60405180910390f35b610320600480360381019061031b919061486c565b610ab6565b005b61033c600480360381019061033791906144c3565b610ba4565b60405161034991906152ce565b60405180910390f35b61036c600480360381019061036791906147a2565b610bc4565b60405161037991906152e9565b60405180910390f35b61039c600480360381019061039791906147cb565b610be3565b005b6103b860048036038101906103b391906144c3565b610c6c565b6040516103c591906152ac565b60405180910390f35b6103d6610d6a565b6040516103e3919061557c565b60405180910390f35b6104066004803603810190610401919061486c565b610d70565b60405161041492919061521c565b60405180910390f35b610437600480360381019061043291906147cb565b610e5c565b005b610441610ef5565b60405161044e919061557c565b60405180910390f35b610471600480360381019061046c91906145a5565b610efb565b60405161047f92919061524c565b60405180910390f35b6104a2600480360381019061049d9190614551565b610f5c565b005b6104ac6111d8565b6040516104b9919061557c565b60405180910390f35b6104dc60048036038101906104d79190614843565b6111de565b005b6104f860048036038101906104f391906146fa565b6112fb565b005b6105026118ef565b60405161050f919061531f565b60405180910390f35b610520611915565b60405161052d919061557c565b60405180910390f35b610550600480360381019061054b9190614622565b61191b565b005b61055a6119ed565b604051610567919061557c565b60405180910390f35b61058a600480360381019061058591906148be565b6119f3565b005b6105a660048036038101906105a1919061486c565b611ab6565b005b6105c260048036038101906105bd9190614515565b611ba4565b6040516105cf91906152ce565b60405180910390f35b6105f260048036038101906105ed91906145a5565b611bd3565b005b61060e60048036038101906106099190614807565b6122b6565b60405161061b91906151bd565b60405180910390f35b61063e600480360381019061063991906147cb565b6122e7565b60405161064b91906152ce565b60405180910390f35b61065c612318565b6040516106699190615304565b60405180910390f35b61068c6004803603810190610687919061486c565b61233e565b60405161069a92919061521c565b60405180910390f35b6106ab61242a565b6040516106b891906152e9565b60405180910390f35b6106c961244e565b6040516106d691906152e9565b60405180910390f35b6106f960048036038101906106f4919061486c565b612455565b005b6107036127f4565b604051610710919061557c565b60405180910390f35b610733600480360381019061072e919061486c565b6127fa565b005b61074f600480360381019061074a9190614551565b6128e8565b005b61076b600480360381019061076691906144c3565b612b64565b60405161077891906152ce565b60405180910390f35b610789612b84565b604051610796919061557c565b60405180910390f35b6107a7612b91565b6040516107b4919061557c565b60405180910390f35b6107d760048036038101906107d291906147a2565b612d0f565b6040516107e4919061557c565b60405180910390f35b610807600480360381019061080291906144c3565b612d35565b604051610814919061533a565b60405180910390f35b610837600480360381019061083291906147cb565b612ec4565b005b610841612f4d565b60405161084e919061557c565b60405180910390f35b610871600480360381019061086c919061486c565b612f53565b005b61087b6131cb565b60405161088891906151bd565b60405180910390f35b6108996131f1565b6040516108a6919061557c565b60405180910390f35b6108b76131f7565b6040516108c4919061557c565b60405180910390f35b6108e760048036038101906108e291906144c3565b613204565b6040516108f4919061557c565b60405180910390f35b606060005b601080549050811015610a4d578273ffffffffffffffffffffffffffffffffffffffff166010828154811061093357fe5b906000526020600020906002020160000160009054906101000a900473ffffffffffffffffffffffffffffffffffffffff1673ffffffffffffffffffffffffffffffffffffffff161415610a40576010818154811061098e57fe5b90600052602060002090600202016001018054600181600116156101000203166002900480601f016020809104026020016040519081016040528092919081815260200182805460018160011615610100020316600290048015610a335780601f10610a0857610100808354040283529160200191610a33565b820191906000526020600020905b815481529060010190602001808311610a1657829003601f168201915b5050505050915050610a87565b8080600101915050610902565b506040518060400160405280600e81526020017f4e6f7420456e746572707269736500000000000000000000000000000000000081525090505b919050565b7f7b765e0e932d348852a6f810bfa1ab891e259123f02db8cdcde614c57022335781565b600d5481565b610ae07f61c92169ef077349011ff0b1383c894d86c5f0b41d986366b58a6cf31e93beda336122e7565b610b1f576040517f08c379a0000000000000000000000000000000000000000000000000000000008152600401610b169061547c565b60405180910390fd5b6000811415610b63576040517f08c379a0000000000000000000000000000000000000000000000000000000008152600401610b5a9061537c565b60405180910390fd5b80600e819055507f993e68e99eaf9d58cf27bbe7a3e2392d07c3fcddc07ed570962f7702b592c24a81604051610b99919061557c565b60405180910390a150565b60136020528060005260406000206000915054906101000a900460ff1681565b6000806000838152602001908152602001600020600201549050919050565b610c0960008084815260200190815260200160002060020154610c0461324c565b6122e7565b610c5e576040517f08c379a000000000000000000000000000000000000000000000000000000000815260040180806020018281038252602f8152602001806158b7602f913960400191505060405180910390fd5b610c688282613254565b5050565b6060600560008373ffffffffffffffffffffffffffffffffffffffff1673ffffffffffffffffffffffffffffffffffffffff168152602001908152602001600020805480602002602001604051908101604052809291908181526020016000905b82821015610d5f57838290600052602060002090600202016040518060400160405290816000820160009054906101000a900473ffffffffffffffffffffffffffffffffffffffff1673ffffffffffffffffffffffffffffffffffffffff1673ffffffffffffffffffffffffffffffffffffffff16815260200160018201548152505081526020019060010190610ccd565b505050509050919050565b600c5481565b60128181548110610d8057600080fd5b90600052602060002090600202016000915090508060000160009054906101000a900473ffffffffffffffffffffffffffffffffffffffff1690806001018054600181600116156101000203166002900480601f016020809104026020016040519081016040528092919081815260200182805460018160011615610100020316600290048015610e525780601f10610e2757610100808354040283529160200191610e52565b820191906000526020600020905b815481529060010190602001808311610e3557829003601f168201915b5050505050905082565b610e6461324c565b73ffffffffffffffffffffffffffffffffffffffff168173ffffffffffffffffffffffffffffffffffffffff1614610ee7576040517f08c379a000000000000000000000000000000000000000000000000000000000815260040180806020018281038252602f815260200180615987602f913960400191505060405180910390fd5b610ef182826132e7565b5050565b60035481565b60056020528160005260406000208181548110610f1757600080fd5b9060005260206000209060020201600091509150508060000160009054906101000a900473ffffffffffffffffffffffffffffffffffffffff16908060010154905082565b610f867f7b765e0e932d348852a6f810bfa1ab891e259123f02db8cdcde614c570223357336122e7565b610fc5576040517f08c379a0000000000000000000000000000000000000000000000000000000008152600401610fbc906154dc565b60405180910390fd5b610fcd614065565b601360008473ffffffffffffffffffffffffffffffffffffffff1673ffffffffffffffffffffffffffffffffffffffff16815260200190815260200160002060009054906101000a900460ff161561105a576040517f08c379a0000000000000000000000000000000000000000000000000000000008152600401611051906153dc565b60405180910390fd5b82816000019073ffffffffffffffffffffffffffffffffffffffff16908173ffffffffffffffffffffffffffffffffffffffff1681525050818160200181905250601281908060018154018082558091505060019003906000526020600020906002020160009091909190915060008201518160000160006101000a81548173ffffffffffffffffffffffffffffffffffffffff021916908373ffffffffffffffffffffffffffffffffffffffff160217905550602082015181600101908051906020019061112a929190614095565b5050506001601360008573ffffffffffffffffffffffffffffffffffffffff1673ffffffffffffffffffffffffffffffffffffffff16815260200190815260200160002060006101000a81548160ff0219169083151502179055508273ffffffffffffffffffffffffffffffffffffffff167fa49cc98d73a5d52994337a5ce7ff4f7758cf75c159290e7c3a032c6e314ef441836040516111cb919061533a565b60405180910390a2505050565b60085481565b6112087f7b765e0e932d348852a6f810bfa1ab891e259123f02db8cdcde614c570223357336122e7565b611247576040517f08c379a000000000000000000000000000000000000000000000000000000000815260040161123e906154dc565b60405180910390fd5b600073ffffffffffffffffffffffffffffffffffffffff168173ffffffffffffffffffffffffffffffffffffffff1614156112b7576040517f08c379a00000000000000000000000000000000000000000000000000000000081526004016112ae9061545c565b60405180910390fd5b80600260006101000a81548173ffffffffffffffffffffffffffffffffffffffff021916908373ffffffffffffffffffffffffffffffffffffffff16021790555050565b6113257f7b765e0e932d348852a6f810bfa1ab891e259123f02db8cdcde614c570223357336122e7565b611364576040517f08c379a000000000000000000000000000000000000000000000000000000000815260040161135b906154dc565b60405180910390fd5b6000808273ffffffffffffffffffffffffffffffffffffffff16639478a8c06040518163ffffffff1660e01b815260040160206040518083038186803b1580156113ad57600080fd5b505afa1580156113c1573d6000803e3d6000fd5b505050506040513d601f19601f820116820180604052508101906113e591906144ec565b90508273ffffffffffffffffffffffffffffffffffffffff16632faa66196040518163ffffffff1660e01b8152600401600060405180830381600087803b15801561142f57600080fd5b505af1158015611443573d6000803e3d6000fd5b50505050600080600090505b8651811015611649576000611496612710611488600e548a868151811061147257fe5b602002602001015161337a90919063ffffffff16565b61340090919063ffffffff16565b90506114ab818461348990919063ffffffff16565b9250611537816115298985815181106114c057fe5b6020026020010151600460008d88815181106114d857fe5b602002602001015173ffffffffffffffffffffffffffffffffffffffff1673ffffffffffffffffffffffffffffffffffffffff1681526020019081526020016000205461348990919063ffffffff16565b61348990919063ffffffff16565b600460008a858151811061154757fe5b602002602001015173ffffffffffffffffffffffffffffffffffffffff1673ffffffffffffffffffffffffffffffffffffffff168152602001908152602001600020819055506115b387838151811061159c57fe5b60200260200101518661348990919063ffffffff16565b94508782815181106115c157fe5b602002602001015173ffffffffffffffffffffffffffffffffffffffff167f764a965eb8edef713db93e80a1a5eef9a4891c74b26bfb68d0bf12ffc30c9ee4611626838a868151811061161057fe5b602002602001015161348990919063ffffffff16565b604051611633919061557c565b60405180910390a250808060010191505061144f565b5061169c81600460008573ffffffffffffffffffffffffffffffffffffffff1673ffffffffffffffffffffffffffffffffffffffff1681526020019081526020016000205461351190919063ffffffff16565b600460008473ffffffffffffffffffffffffffffffffffffffff1673ffffffffffffffffffffffffffffffffffffffff16815260200190815260200160002081905550600061170960556116fb600c548761337a90919063ffffffff16565b61340090919063ffffffff16565b905043600d81905550600160009054906101000a900473ffffffffffffffffffffffffffffffffffffffff1673ffffffffffffffffffffffffffffffffffffffff166340c10f19600b60009054906101000a900473ffffffffffffffffffffffffffffffffffffffff16836040518363ffffffff1660e01b815260040161179192919061524c565b602060405180830381600087803b1580156117ab57600080fd5b505af11580156117bf573d6000803e3d6000fd5b505050506040513d601f19601f820116820180604052508101906117e39190614779565b50600160009054906101000a900473ffffffffffffffffffffffffffffffffffffffff1673ffffffffffffffffffffffffffffffffffffffff166340c10f1930866040518363ffffffff1660e01b815260040161184192919061524c565b602060405180830381600087803b15801561185b57600080fd5b505af115801561186f573d6000803e3d6000fd5b505050506040513d601f19601f820116820180604052508101906118939190614779565b508273ffffffffffffffffffffffffffffffffffffffff167f474e6e877135ae827a16b786fc98e0c36d2bb2d99251cba405b5f504189814918686856040516118de93929190615275565b60405180910390a250505050505050565b600260009054906101000a900473ffffffffffffffffffffffffffffffffffffffff1681565b60075481565b600082519050610100811115611966576040517f08c379a000000000000000000000000000000000000000000000000000000000815260040161195d9061543c565b60405180910390fd5b60005b818110156119ae576119a184828151811061198057fe5b602002602001015184838151811061199457fe5b6020026020010151611bd3565b8080600101915050611969565b507fe0b9e94ab5fbe92a5c1fcdc7f3dba88b173c784bda0772e4998afde00857526833826040516119e09291906151f3565b60405180910390a1505050565b600f5481565b611a1d7f61c92169ef077349011ff0b1383c894d86c5f0b41d986366b58a6cf31e93beda336122e7565b611a5c576040517f08c379a0000000000000000000000000000000000000000000000000000000008152600401611a539061547c565b60405180910390fd5b6064600a5483011115611aa4576040517f08c379a0000000000000000000000000000000000000000000000000000000008152600401611a9b9061535c565b60405180910390fd5b8160098190555080600a819055505050565b611ae07f61c92169ef077349011ff0b1383c894d86c5f0b41d986366b58a6cf31e93beda336122e7565b611b1f576040517f08c379a0000000000000000000000000000000000000000000000000000000008152600401611b169061547c565b60405180910390fd5b6000811415611b63576040517f08c379a0000000000000000000000000000000000000000000000000000000008152600401611b5a906154fc565b60405180910390fd5b80600f819055507f3ef37ec580f71948d160049e31c67ac1e6fc9711038f837710cdfaf9074d7b8581604051611b99919061557c565b60405180910390a150565b60066020528160005260406000206020528060005260406000206000915091509054906101000a900460ff1681565b600073ffffffffffffffffffffffffffffffffffffffff168273ffffffffffffffffffffffffffffffffffffffff161415611c43576040517f08c379a0000000000000000000000000000000000000000000000000000000008152600401611c3a906154bc565b60405180910390fd5b60008110158015611c55575060058111155b611c94576040517f08c379a0000000000000000000000000000000000000000000000000000000008152600401611c8b9061551c565b60405180910390fd5b600660003373ffffffffffffffffffffffffffffffffffffffff1673ffffffffffffffffffffffffffffffffffffffff16815260200190815260200160002060008373ffffffffffffffffffffffffffffffffffffffff1673ffffffffffffffffffffffffffffffffffffffff16815260200190815260200160002060009054906101000a900460ff1615611d5e576040517f08c379a0000000000000000000000000000000000000000000000000000000008152600401611d559061541c565b60405180910390fd5b611daf3330600854600160009054906101000a900473ffffffffffffffffffffffffffffffffffffffff1673ffffffffffffffffffffffffffffffffffffffff16613594909392919063ffffffff16565b611e6e600b60009054906101000a900473ffffffffffffffffffffffffffffffffffffffff16611e266064611e18611e07600a54611df9600954606461351190919063ffffffff16565b61351190919063ffffffff16565b60085461337a90919063ffffffff16565b61340090919063ffffffff16565b600160009054906101000a900473ffffffffffffffffffffffffffffffffffffffff1673ffffffffffffffffffffffffffffffffffffffff166136559092919063ffffffff16565b60008273ffffffffffffffffffffffffffffffffffffffff16639478a8c06040518163ffffffff1660e01b815260040160206040518083038186803b158015611eb657600080fd5b505afa158015611eca573d6000803e3d6000fd5b505050506040513d601f19601f82011682018060405250810190611eee91906144ec565b90506000611f1c6064611f0e60095460085461337a90919063ffffffff16565b61340090919063ffffffff16565b9050611f7081600460008573ffffffffffffffffffffffffffffffffffffffff1673ffffffffffffffffffffffffffffffffffffffff1681526020019081526020016000205461348990919063ffffffff16565b600460008473ffffffffffffffffffffffffffffffffffffffff1673ffffffffffffffffffffffffffffffffffffffff16815260200190815260200160002081905550611fe684611fe16064611fd3600a5460085461337a90919063ffffffff16565b61340090919063ffffffff16565b6136f7565b600560003373ffffffffffffffffffffffffffffffffffffffff1673ffffffffffffffffffffffffffffffffffffffff1681526020019081526020016000206001816001815401808255809150500390600052602060002090505083600560003373ffffffffffffffffffffffffffffffffffffffff1673ffffffffffffffffffffffffffffffffffffffff1681526020019081526020016000206001600560003373ffffffffffffffffffffffffffffffffffffffff1673ffffffffffffffffffffffffffffffffffffffff1681526020019081526020016000208054905003815481106120d157fe5b906000526020600020906002020160000160006101000a81548173ffffffffffffffffffffffffffffffffffffffff021916908373ffffffffffffffffffffffffffffffffffffffff16021790555082600560003373ffffffffffffffffffffffffffffffffffffffff1673ffffffffffffffffffffffffffffffffffffffff1681526020019081526020016000206001600560003373ffffffffffffffffffffffffffffffffffffffff1673ffffffffffffffffffffffffffffffffffffffff1681526020019081526020016000208054905003815481106121b057fe5b9060005260206000209060020201600101819055506001600660003373ffffffffffffffffffffffffffffffffffffffff1673ffffffffffffffffffffffffffffffffffffffff16815260200190815260200160002060008673ffffffffffffffffffffffffffffffffffffffff1673ffffffffffffffffffffffffffffffffffffffff16815260200190815260200160002060006101000a81548160ff0219169083151502179055503373ffffffffffffffffffffffffffffffffffffffff167f7833ac38b85d1f3dfe4f67a3a0d6d37d2ea07d1211d4d1ff478800902fd9e5af6008548685856040516122a89493929190615597565b60405180910390a250505050565b60006122df82600080868152602001908152602001600020600001613a3990919063ffffffff16565b905092915050565b600061231082600080868152602001908152602001600020600001613a5390919063ffffffff16565b905092915050565b600160009054906101000a900473ffffffffffffffffffffffffffffffffffffffff1681565b6010818154811061234e57600080fd5b90600052602060002090600202016000915090508060000160009054906101000a900473ffffffffffffffffffffffffffffffffffffffff1690806001018054600181600116156101000203166002900480601f0160208091040260200160405190810160405280929190818152602001828054600181600116156101000203166002900480156124205780601f106123f557610100808354040283529160200191612420565b820191906000526020600020905b81548152906001019060200180831161240357829003601f168201915b5050505050905082565b7f61c92169ef077349011ff0b1383c894d86c5f0b41d986366b58a6cf31e93beda81565b6000801b81565b601360003373ffffffffffffffffffffffffffffffffffffffff1673ffffffffffffffffffffffffffffffffffffffff16815260200190815260200160002060009054906101000a900460ff16156125c45769010f0cf064dd59200000600460003373ffffffffffffffffffffffffffffffffffffffff1673ffffffffffffffffffffffffffffffffffffffff1681526020019081526020016000205482011015612535576040517f08c379a000000000000000000000000000000000000000000000000000000000815260040161252c9061549c565b60405180910390fd5b69054b40b1f852bda00000600460003373ffffffffffffffffffffffffffffffffffffffff1673ffffffffffffffffffffffffffffffffffffffff16815260200190815260200160002054820111156125c3576040517f08c379a00000000000000000000000000000000000000000000000000000000081526004016125ba9061555c565b60405180910390fd5b5b601360003373ffffffffffffffffffffffffffffffffffffffff1673ffffffffffffffffffffffffffffffffffffffff16815260200190815260200160002060009054906101000a900460ff16806126655750601160003373ffffffffffffffffffffffffffffffffffffffff1673ffffffffffffffffffffffffffffffffffffffff16815260200190815260200160002060009054906101000a900460ff165b6126a4576040517f08c379a000000000000000000000000000000000000000000000000000000000815260040161269b906153bc565b60405180910390fd5b6126b98160035461348990919063ffffffff16565b60038190555061270e333083600160009054906101000a900473ffffffffffffffffffffffffffffffffffffffff1673ffffffffffffffffffffffffffffffffffffffff16613594909392919063ffffffff16565b61276081600460003373ffffffffffffffffffffffffffffffffffffffff1673ffffffffffffffffffffffffffffffffffffffff1681526020019081526020016000205461348990919063ffffffff16565b600460003373ffffffffffffffffffffffffffffffffffffffff1673ffffffffffffffffffffffffffffffffffffffff168152602001908152602001600020819055503373ffffffffffffffffffffffffffffffffffffffff167f3916187166447a01764df803fb1147a37c55a4ca1c7271a7a75c0ab1079b2d95826040516127e9919061557c565b60405180910390a250565b600e5481565b6128247f61c92169ef077349011ff0b1383c894d86c5f0b41d986366b58a6cf31e93beda336122e7565b612863576040517f08c379a000000000000000000000000000000000000000000000000000000000815260040161285a9061547c565b60405180910390fd5b60008114156128a7576040517f08c379a000000000000000000000000000000000000000000000000000000000815260040161289e906153fc565b60405180910390fd5b806007819055507f297b2b35bd089c3afcbe21d2741e8421d5e980a7b157d5a3544abb25c4fe47b4816040516128dd919061557c565b60405180910390a150565b6129127f7b765e0e932d348852a6f810bfa1ab891e259123f02db8cdcde614c570223357336122e7565b612951576040517f08c379a0000000000000000000000000000000000000000000000000000000008152600401612948906154dc565b60405180910390fd5b612959614123565b601160008473ffffffffffffffffffffffffffffffffffffffff1673ffffffffffffffffffffffffffffffffffffffff16815260200190815260200160002060009054906101000a900460ff16156129e6576040517f08c379a00000000000000000000000000000000000000000000000000000000081526004016129dd9061539c565b60405180910390fd5b82816000019073ffffffffffffffffffffffffffffffffffffffff16908173ffffffffffffffffffffffffffffffffffffffff1681525050818160200181905250601081908060018154018082558091505060019003906000526020600020906002020160009091909190915060008201518160000160006101000a81548173ffffffffffffffffffffffffffffffffffffffff021916908373ffffffffffffffffffffffffffffffffffffffff1602179055506020820151816001019080519060200190612ab6929190614095565b5050506001601160008573ffffffffffffffffffffffffffffffffffffffff1673ffffffffffffffffffffffffffffffffffffffff16815260200190815260200160002060006101000a81548160ff0219169083151502179055508273ffffffffffffffffffffffffffffffffffffffff167fd7f5fe495c47ab97645a898f2c0a68b2de8a974578c5d055704c4e3d151846e383604051612b57919061533a565b60405180910390a2505050565b60116020528060005260406000206000915054906101000a900460ff1681565b6000601080549050905090565b600080600260009054906101000a900473ffffffffffffffffffffffffffffffffffffffff1673ffffffffffffffffffffffffffffffffffffffff166387247dea336040518263ffffffff1660e01b8152600401612bef91906151d8565b60006040518083038186803b158015612c0757600080fd5b505afa158015612c1b573d6000803e3d6000fd5b505050506040513d6000823e3d601f19601f82011682018060405250810190612c44919061468e565b5090506000805b8251811015612d0657612cf7838281518110612c6357fe5b602002602001015173ffffffffffffffffffffffffffffffffffffffff1663860008f06040518163ffffffff1660e01b815260040160206040518083038186803b158015612cb057600080fd5b505afa158015612cc4573d6000803e3d6000fd5b505050506040513d601f19601f82011682018060405250810190612ce89190614895565b8361348990919063ffffffff16565b91508080600101915050612c4b565b50809250505090565b6000612d2e600080848152602001908152602001600020600001613a83565b9050919050565b606060005b601280549050811015612e85578273ffffffffffffffffffffffffffffffffffffffff1660128281548110612d6b57fe5b906000526020600020906002020160000160009054906101000a900473ffffffffffffffffffffffffffffffffffffffff1673ffffffffffffffffffffffffffffffffffffffff161415612e785760128181548110612dc657fe5b90600052602060002090600202016001018054600181600116156101000203166002900480601f016020809104026020016040519081016040528092919081815260200182805460018160011615610100020316600290048015612e6b5780601f10612e4057610100808354040283529160200191612e6b565b820191906000526020600020905b815481529060010190602001808311612e4e57829003601f168201915b5050505050915050612ebf565b8080600101915050612d3a565b506040518060400160405280600d81526020017f4e6f742056616c696461746f720000000000000000000000000000000000000081525090505b919050565b612eea60008084815260200190815260200160002060020154612ee561324c565b6122e7565b612f3f576040517f08c379a000000000000000000000000000000000000000000000000000000000815260040180806020018281038252603081526020018061590c6030913960400191505060405180910390fd5b612f4982826132e7565b5050565b60095481565b601160003373ffffffffffffffffffffffffffffffffffffffff1673ffffffffffffffffffffffffffffffffffffffff16815260200190815260200160002060009054906101000a900460ff161561307d578061303b612fed612710612fdf612fba612b91565b612fd1600754600e5461337a90919063ffffffff16565b61337a90919063ffffffff16565b61340090919063ffffffff16565b600460003373ffffffffffffffffffffffffffffffffffffffff1673ffffffffffffffffffffffffffffffffffffffff1681526020019081526020016000205461351190919063ffffffff16565b101561307c576040517f08c379a00000000000000000000000000000000000000000000000000000000081526004016130739061553c565b60405180910390fd5b5b6130928160035461351190919063ffffffff16565b6003819055506130ea81600460003373ffffffffffffffffffffffffffffffffffffffff1673ffffffffffffffffffffffffffffffffffffffff1681526020019081526020016000205461351190919063ffffffff16565b600460003373ffffffffffffffffffffffffffffffffffffffff1673ffffffffffffffffffffffffffffffffffffffff1681526020019081526020016000208190555061317a3382600160009054906101000a900473ffffffffffffffffffffffffffffffffffffffff1673ffffffffffffffffffffffffffffffffffffffff166136559092919063ffffffff16565b3373ffffffffffffffffffffffffffffffffffffffff167f857a4bd4d7b4553d36107a81e2fdc06c87eee30a74c23d62f1ca89ce3b9ed0ae826040516131c0919061557c565b60405180910390a250565b600b60009054906101000a900473ffffffffffffffffffffffffffffffffffffffff1681565b600a5481565b6000601280549050905090565b60046020528060005260406000206000915090505481565b6000613244836000018373ffffffffffffffffffffffffffffffffffffffff1660001b613a98565b905092915050565b600033905090565b61327b8160008085815260200190815260200160002060000161321c90919063ffffffff16565b156132e35761328861324c565b73ffffffffffffffffffffffffffffffffffffffff168173ffffffffffffffffffffffffffffffffffffffff16837f2f8788117e7eff1d82e926ec794901d17c78024a50270940304540a733656f0d60405160405180910390a45b5050565b61330e81600080858152602001908152602001600020600001613b0890919063ffffffff16565b156133765761331b61324c565b73ffffffffffffffffffffffffffffffffffffffff168173ffffffffffffffffffffffffffffffffffffffff16837ff6391f5c32d9c69d2a47ea670b442974b53935d1edc7fd64eb21e047a839171b60405160405180910390a45b5050565b60008083141561338d57600090506133fa565b600082840290508284828161339e57fe5b04146133f5576040517f08c379a000000000000000000000000000000000000000000000000000000000815260040180806020018281038252602181526020018061593c6021913960400191505060405180910390fd5b809150505b92915050565b6000808211613477576040517f08c379a000000000000000000000000000000000000000000000000000000000815260040180806020018281038252601a8152602001807f536166654d6174683a206469766973696f6e206279207a65726f00000000000081525060200191505060405180910390fd5b81838161348057fe5b04905092915050565b600080828401905083811015613507576040517f08c379a000000000000000000000000000000000000000000000000000000000815260040180806020018281038252601b8152602001807f536166654d6174683a206164646974696f6e206f766572666c6f77000000000081525060200191505060405180910390fd5b8091505092915050565b600082821115613589576040517f08c379a000000000000000000000000000000000000000000000000000000000815260040180806020018281038252601e8152602001807f536166654d6174683a207375627472616374696f6e206f766572666c6f77000081525060200191505060405180910390fd5b818303905092915050565b61364f846323b872dd60e01b858585604051602401808473ffffffffffffffffffffffffffffffffffffffff1681526020018373ffffffffffffffffffffffffffffffffffffffff1681526020018281526020019350505050604051602081830303815290604052907bffffffffffffffffffffffffffffffffffffffffffffffffffffffff19166020820180517bffffffffffffffffffffffffffffffffffffffffffffffffffffffff8381831617835250505050613b38565b50505050565b6136f28363a9059cbb60e01b8484604051602401808373ffffffffffffffffffffffffffffffffffffffff16815260200182815260200192505050604051602081830303815290604052907bffffffffffffffffffffffffffffffffffffffffffffffffffffffff19166020820180517bffffffffffffffffffffffffffffffffffffffffffffffffffffffff8381831617835250505050613b38565b505050565b60008273ffffffffffffffffffffffffffffffffffffffff1663ebb33a816040518163ffffffff1660e01b815260040160006040518083038186803b15801561373f57600080fd5b505afa158015613753573d6000803e3d6000fd5b505050506040513d6000823e3d601f19601f8201168201806040525081019061377c91906145e1565b9050600080600090505b8251811015613803576137f4600460008584815181106137a257fe5b602002602001015173ffffffffffffffffffffffffffffffffffffffff1673ffffffffffffffffffffffffffffffffffffffff168152602001908152602001600020548361348990919063ffffffff16565b91508080600101915050613786565b5060005b8251811015613a3257600061389183613883678ac7230489e800006004600089888151811061383257fe5b602002602001015173ffffffffffffffffffffffffffffffffffffffff1673ffffffffffffffffffffffffffffffffffffffff1681526020019081526020016000205461337a90919063ffffffff16565b61340090919063ffffffff16565b905060006138c2678ac7230489e800006138b4848961337a90919063ffffffff16565b61340090919063ffffffff16565b905061396a613909678ac7230489e800006138fb60646138ed8660085461337a90919063ffffffff16565b61340090919063ffffffff16565b61340090919063ffffffff16565b6004600088878151811061391957fe5b602002602001015173ffffffffffffffffffffffffffffffffffffffff1673ffffffffffffffffffffffffffffffffffffffff1681526020019081526020016000205461348990919063ffffffff16565b6004600087868151811061397a57fe5b602002602001015173ffffffffffffffffffffffffffffffffffffffff1673ffffffffffffffffffffffffffffffffffffffff168152602001908152602001600020819055508483815181106139cc57fe5b602002602001015173ffffffffffffffffffffffffffffffffffffffff167f3e4fd36a8c6a5f774423977e7d7e6badc0d7f8972efdaa142830e6048bdcdd523383604051613a1b9291906151f3565b60405180910390a250508080600101915050613807565b5050505050565b6000613a488360000183613c27565b60001c905092915050565b6000613a7b836000018373ffffffffffffffffffffffffffffffffffffffff1660001b613caa565b905092915050565b6000613a9182600001613ccd565b9050919050565b6000613aa48383613caa565b613afd578260000182908060018154018082558091505060019003906000526020600020016000909190919091505582600001805490508360010160008481526020019081526020016000208190555060019050613b02565b600090505b92915050565b6000613b30836000018373ffffffffffffffffffffffffffffffffffffffff1660001b613cde565b905092915050565b6000613b9a826040518060400160405280602081526020017f5361666545524332303a206c6f772d6c6576656c2063616c6c206661696c65648152508573ffffffffffffffffffffffffffffffffffffffff16613dc69092919063ffffffff16565b9050600081511115613c2257808060200190516020811015613bbb57600080fd5b8101908080519060200190929190505050613c21576040517f08c379a000000000000000000000000000000000000000000000000000000000815260040180806020018281038252602a81526020018061595d602a913960400191505060405180910390fd5b5b505050565b600081836000018054905011613c88576040517f08c379a00000000000000000000000000000000000000000000000000000000081526004018080602001828103825260228152602001806158956022913960400191505060405180910390fd5b826000018281548110613c9757fe5b9060005260206000200154905092915050565b600080836001016000848152602001908152602001600020541415905092915050565b600081600001805490509050919050565b60008083600101600084815260200190815260200160002054905060008114613dba5760006001820390506000600186600001805490500390506000866000018281548110613d2957fe5b9060005260206000200154905080876000018481548110613d4657fe5b9060005260206000200181905550600183018760010160008381526020019081526020016000208190555086600001805480613d7e57fe5b60019003818190600052602060002001600090559055866001016000878152602001908152602001600020600090556001945050505050613dc0565b60009150505b92915050565b6060613dd58484600085613dde565b90509392505050565b606082471015613e39576040517f08c379a00000000000000000000000000000000000000000000000000000000081526004018080602001828103825260268152602001806158e66026913960400191505060405180910390fd5b613e4285613f86565b613eb4576040517f08c379a000000000000000000000000000000000000000000000000000000000815260040180806020018281038252601d8152602001807f416464726573733a2063616c6c20746f206e6f6e2d636f6e747261637400000081525060200191505060405180910390fd5b6000808673ffffffffffffffffffffffffffffffffffffffff1685876040518082805190602001908083835b60208310613f035780518252602082019150602081019050602083039250613ee0565b6001836020036101000a03801982511681845116808217855250505050505090500191505060006040518083038185875af1925050503d8060008114613f65576040519150601f19603f3d011682016040523d82523d6000602084013e613f6a565b606091505b5091509150613f7a828286613f99565b92505050949350505050565b600080823b905060008111915050919050565b60608315613fa95782905061405e565b600083511115613fbc5782518084602001fd5b816040517f08c379a00000000000000000000000000000000000000000000000000000000081526004018080602001828103825283818151815260200191508051906020019080838360005b83811015614023578082015181840152602081019050614008565b50505050905090810190601f1680156140505780820380516001836020036101000a031916815260200191505b509250505060405180910390fd5b9392505050565b6040518060400160405280600073ffffffffffffffffffffffffffffffffffffffff168152602001606081525090565b828054600181600116156101000203166002900490600052602060002090601f0160209004810192826140cb5760008555614112565b82601f106140e457805160ff1916838001178555614112565b82800160010185558215614112579182015b828111156141115782518255916020019190600101906140f6565b5b50905061411f9190614153565b5090565b6040518060400160405280600073ffffffffffffffffffffffffffffffffffffffff168152602001606081525090565b5b8082111561416c576000816000905550600101614154565b5090565b600061418361417e8461560d565b6155dc565b905080838252602082019050828560208602820111156141a257600080fd5b60005b858110156141d257816141b8888261435e565b8452602084019350602083019250506001810190506141a5565b5050509392505050565b60006141ef6141ea8461560d565b6155dc565b9050808382526020820190508285602086028201111561420e57600080fd5b60005b8581101561423e57816142248882614373565b845260208401935060208301925050600181019050614211565b5050509392505050565b600061425b61425684615639565b6155dc565b9050808382526020820190508285602086028201111561427a57600080fd5b60005b858110156142aa57816142908882614499565b84526020840193506020830192505060018101905061427d565b5050509392505050565b60006142c76142c284615639565b6155dc565b905080838252602082019050828560208602820111156142e657600080fd5b60005b8581101561431657816142fc88826144ae565b8452602084019350602083019250506001810190506142e9565b5050509392505050565b600061433361432e84615665565b6155dc565b90508281526020810184848401111561434b57600080fd5b6143568482856157cc565b509392505050565b60008135905061436d81615821565b92915050565b60008151905061438281615821565b92915050565b600082601f83011261439957600080fd5b81356143a9848260208601614170565b91505092915050565b600082601f8301126143c357600080fd5b81516143d38482602086016141dc565b91505092915050565b600082601f8301126143ed57600080fd5b81356143fd848260208601614248565b91505092915050565b600082601f83011261441757600080fd5b81516144278482602086016142b4565b91505092915050565b60008151905061443f81615838565b92915050565b6000813590506144548161584f565b92915050565b60008135905061446981615866565b92915050565b600082601f83011261448057600080fd5b8135614490848260208601614320565b91505092915050565b6000813590506144a88161587d565b92915050565b6000815190506144bd8161587d565b92915050565b6000602082840312156144d557600080fd5b60006144e38482850161435e565b91505092915050565b6000602082840312156144fe57600080fd5b600061450c84828501614373565b91505092915050565b6000806040838503121561452857600080fd5b60006145368582860161435e565b92505060206145478582860161435e565b9150509250929050565b6000806040838503121561456457600080fd5b60006145728582860161435e565b925050602083013567ffffffffffffffff81111561458f57600080fd5b61459b8582860161446f565b9150509250929050565b600080604083850312156145b857600080fd5b60006145c68582860161435e565b92505060206145d785828601614499565b9150509250929050565b6000602082840312156145f357600080fd5b600082015167ffffffffffffffff81111561460d57600080fd5b614619848285016143b2565b91505092915050565b6000806040838503121561463557600080fd5b600083013567ffffffffffffffff81111561464f57600080fd5b61465b85828601614388565b925050602083013567ffffffffffffffff81111561467857600080fd5b614684858286016143dc565b9150509250929050565b600080604083850312156146a157600080fd5b600083015167ffffffffffffffff8111156146bb57600080fd5b6146c7858286016143b2565b925050602083015167ffffffffffffffff8111156146e457600080fd5b6146f085828601614406565b9150509250929050565b60008060006060848603121561470f57600080fd5b600084013567ffffffffffffffff81111561472957600080fd5b61473586828701614388565b935050602084013567ffffffffffffffff81111561475257600080fd5b61475e868287016143dc565b925050604061476f8682870161435e565b9150509250925092565b60006020828403121561478b57600080fd5b600061479984828501614430565b91505092915050565b6000602082840312156147b457600080fd5b60006147c284828501614445565b91505092915050565b600080604083850312156147de57600080fd5b60006147ec85828601614445565b92505060206147fd8582860161435e565b9150509250929050565b6000806040838503121561481a57600080fd5b600061482885828601614445565b925050602061483985828601614499565b9150509250929050565b60006020828403121561485557600080fd5b60006148638482850161445a565b91505092915050565b60006020828403121561487e57600080fd5b600061488c84828501614499565b91505092915050565b6000602082840312156148a757600080fd5b60006148b5848285016144ae565b91505092915050565b600080604083850312156148d157600080fd5b60006148df85828601614499565b92505060206148f085828601614499565b9150509250929050565b60006149068383615170565b60408301905092915050565b61491b8161574e565b82525050565b61492a816156ea565b82525050565b614939816156ea565b82525050565b600061494a826156a5565b61495481856156c8565b935061495f83615695565b8060005b8381101561499057815161497788826148fa565b9750614982836156bb565b925050600181019050614963565b5085935050505092915050565b6149a6816156fc565b82525050565b6149b581615708565b82525050565b6149c481615760565b82525050565b6149d381615784565b82525050565b60006149e4826156b0565b6149ee81856156d9565b93506149fe8185602086016157db565b614a0781615810565b840191505092915050565b6000614a1f6038836156d9565b91507f456e746572707269736520616e642056616c696461746f72207368617265732060008301527f63616e2774206265206c6172676572207468616e2031303000000000000000006020830152604082019050919050565b6000614a85604c836156d9565b91507f4d656d626572733a7570646174654d696e4465706f73697444617973202d204e60008301527f65772076616c756520666f722074686520656e7465727072697365206d61746360208301527f682063616e2774206265203000000000000000000000000000000000000000006040830152606082019050919050565b6000614b11603a836156d9565b91507f4d656d626572733a616464456e746572707269736555736572202d205468697360008301527f20456e746572707269736520616c72656164792065786973742e0000000000006020830152604082019050919050565b6000614b77604a836156d9565b91507f5374616b696e673a7374616b65202d205573657220686173206265656e206e6f60008301527f74207265676973746572656420617320612076616c696461746f72206f72206560208301527f6e74657270726973652e000000000000000000000000000000000000000000006040830152606082019050919050565b6000614c036038836156d9565b91507f4d656d626572733a61646456616c696461746f7255736572202d20546869732060008301527f56616c696461746f7220616c72656164792065786973742e00000000000000006020830152604082019050919050565b6000614c69603a836156d9565b91507f436f686f72743a75706461746552657761726473202d204e65772076616c756560008301527f20666f7220746865207265776172642063616e277420626520300000000000006020830152604082019050919050565b6000614ccf603a836156d9565b91507f4d656d626572733a64617461537562736372696265725061796d656e74202d2060008301527f596f752061726520616c726561647920737562736372696265640000000000006020830152604082019050919050565b6000614d356034836156d9565b91507f4d656d626572732d64617461537562736372696265725061796d656e744d756c60008301527f7469706c653a204c69737420746f6f206c6f6e670000000000000000000000006020830152604082019050919050565b6000614d9b603b836156d9565b91507f4d656d626572733a736574436f686f7274466163746f7279202d20436f686f7260008301527f74466163746f727920616464726573732063616e2774206265203000000000006020830152604082019050919050565b6000614e016029836156d9565b91507f4d656d626572733a6973536574746572202d2043616c6c6572206973206e6f7460008301527f20612073657474657200000000000000000000000000000000000000000000006020830152604082019050919050565b6000614e67603f836156d9565b91507f5374616b696e673a7374616b65202d204d696e696d756d20636f6e747269627560008301527f74696f6e20616d6f756e742069732035303030204155445420746f6b656e73006020830152604082019050919050565b6000614ecd6039836156d9565b91507f4d656d626572733a64617461537562736372696265725061796d656e74202d2060008301527f436f686f727420616464726573732063616e27742062652030000000000000006020830152604082019050919050565b6000614f336031836156d9565b91507f4d656d626572733a4973436f6e74726f6c6c6572202d2043616c6c657220697360008301527f206e6f74206120636f6e74726f6c6c65720000000000000000000000000000006020830152604082019050919050565b6000614f99604c836156d9565b91507f4d656d626572733a7570646174654d696e4465706f73697444617973202d204e60008301527f65772076616c756520666f7220746865206d696e206465706f7369742064617960208301527f732063616e2774206265203000000000000000000000000000000000000000006040830152606082019050919050565b60006150256027836156d9565b91507f41756469742074797065206973206e6f7420696e20746865207265717569726560008301527f642072616e6765000000000000000000000000000000000000000000000000006020830152604082019050919050565b600061508b6052836156d9565b91507f4d656d6265723a72656465656d202d20596f7572206465706f7369742077696c60008301527f6c20626520746f6f206c6f7720746f2066756c6c66696c20796f7572206f757460208301527f7374616e64696e67207061796d656e74732e00000000000000000000000000006040830152606082019050919050565b60006151176040836156d9565b91507f5374616b696e673a7374616b65202d204d6178696d756d20636f6e747269627560008301527f74696f6e20616d6f756e74206973203235303030204155445420746f6b656e736020830152604082019050919050565b6040820160008201516151866000850182614921565b506020820151615199602085018261519f565b50505050565b6151a881615744565b82525050565b6151b781615744565b82525050565b60006020820190506151d26000830184614930565b92915050565b60006020820190506151ed6000830184614912565b92915050565b60006040820190506152086000830185614912565b61521560208301846151ae565b9392505050565b60006040820190506152316000830185614930565b818103602083015261524381846149d9565b90509392505050565b60006040820190506152616000830185614930565b61526e60208301846151ae565b9392505050565b600060608201905061528a6000830186614930565b61529760208301856151ae565b6152a460408301846151ae565b949350505050565b600060208201905081810360008301526152c6818461493f565b905092915050565b60006020820190506152e3600083018461499d565b92915050565b60006020820190506152fe60008301846149ac565b92915050565b600060208201905061531960008301846149bb565b92915050565b600060208201905061533460008301846149ca565b92915050565b6000602082019050818103600083015261535481846149d9565b905092915050565b6000602082019050818103600083015261537581614a12565b9050919050565b6000602082019050818103600083015261539581614a78565b9050919050565b600060208201905081810360008301526153b581614b04565b9050919050565b600060208201905081810360008301526153d581614b6a565b9050919050565b600060208201905081810360008301526153f581614bf6565b9050919050565b6000602082019050818103600083015261541581614c5c565b9050919050565b6000602082019050818103600083015261543581614cc2565b9050919050565b6000602082019050818103600083015261545581614d28565b9050919050565b6000602082019050818103600083015261547581614d8e565b9050919050565b6000602082019050818103600083015261549581614df4565b9050919050565b600060208201905081810360008301526154b581614e5a565b9050919050565b600060208201905081810360008301526154d581614ec0565b9050919050565b600060208201905081810360008301526154f581614f26565b9050919050565b6000602082019050818103600083015261551581614f8c565b9050919050565b6000602082019050818103600083015261553581615018565b9050919050565b600060208201905081810360008301526155558161507e565b9050919050565b600060208201905081810360008301526155758161510a565b9050919050565b600060208201905061559160008301846151ae565b92915050565b60006080820190506155ac60008301876151ae565b6155b96020830186614930565b6155c66040830185614930565b6155d360608301846151ae565b95945050505050565b6000604051905081810181811067ffffffffffffffff821117156156035761560261580e565b5b8060405250919050565b600067ffffffffffffffff8211156156285761562761580e565b5b602082029050602081019050919050565b600067ffffffffffffffff8211156156545761565361580e565b5b602082029050602081019050919050565b600067ffffffffffffffff8211156156805761567f61580e565b5b601f19601f8301169050602081019050919050565b6000819050602082019050919050565b600081519050919050565b600081519050919050565b6000602082019050919050565b600082825260208201905092915050565b600082825260208201905092915050565b60006156f582615724565b9050919050565b60008115159050919050565b6000819050919050565b600061571d826156ea565b9050919050565b600073ffffffffffffffffffffffffffffffffffffffff82169050919050565b6000819050919050565b6000615759826157a8565b9050919050565b600061576b82615772565b9050919050565b600061577d82615724565b9050919050565b600061578f82615796565b9050919050565b60006157a182615724565b9050919050565b60006157b3826157ba565b9050919050565b60006157c582615724565b9050919050565b82818337600083830152505050565b60005b838110156157f95780820151818401526020810190506157de565b83811115615808576000848401525b50505050565bfe5b6000601f19601f8301169050919050565b61582a816156ea565b811461583557600080fd5b50565b615841816156fc565b811461584c57600080fd5b50565b61585881615708565b811461586357600080fd5b50565b61586f81615712565b811461587a57600080fd5b50565b61588681615744565b811461589157600080fd5b5056fe456e756d657261626c655365743a20696e646578206f7574206f6620626f756e6473416363657373436f6e74726f6c3a2073656e646572206d75737420626520616e2061646d696e20746f206772616e74416464726573733a20696e73756666696369656e742062616c616e636520666f722063616c6c416363657373436f6e74726f6c3a2073656e646572206d75737420626520616e2061646d696e20746f207265766f6b65536166654d6174683a206d756c7469706c69636174696f6e206f766572666c6f775361666545524332303a204552433230206f7065726174696f6e20646964206e6f742073756363656564416363657373436f6e74726f6c3a2063616e206f6e6c792072656e6f756e636520726f6c657320666f722073656c66a26469706673582212203ebb1f0eda9bcfad5509121aa87aa7d9228aca2574b3006b03b25a302b2443bf64736f6c63430007060033",
  "immutableReferences": {},
  "source": "// SPDX-License-Identifier: MIT\npragma solidity >=0.7.0 <0.8.0;\npragma experimental ABIEncoderV2;\nimport \"@openzeppelin/contracts/access/AccessControl.sol\";\nimport \"@openzeppelin/contracts/token/ERC20/IERC20.sol\";\nimport \"@openzeppelin/contracts/math/SafeMath.sol\";\nimport \"@openzeppelin/contracts/token/ERC20/SafeERC20.sol\";\nimport \"./CohortFactory.sol\";\nimport \"./Cohort.sol\";\nimport \"./../AuditToken.sol\";\n\n/**\n * @title Members\n * @dev AccessControl \n * Allows on creation of Enterprise and Validator accounts and staking of funds by validators\n * Validators also have ability to withdraw their staking\n */\n\ncontract Members is  AccessControl {\n\n    using SafeMath for uint256;\n    using SafeERC20 for AuditToken;\n\n    struct DataSubscriberTypes{\n        address cohort;\n        uint256 audits;\n    }\n\n    \n\n    // Create a new role identifier for the controller role\n    bytes32 public constant CONTROLLER_ROLE = keccak256(\"CONTROLLER_ROLE\");\n    bytes32 public constant SETTER_ROLE =  keccak256(\"SETTER_ROLE\");\n    AuditToken public auditToken;                            //AUDT token \n    CohortFactory public cohortFactory;\n    uint256 public stakedAmount;                        //total number of staked tokens   \n    mapping(address => uint256) public deposits;        //track deposits per user\n    mapping(address => DataSubscriberTypes[]) public dataSubscribers;\n    mapping(address => mapping(address => bool)) public dataSubscribersMap;\n    uint256 public amountTokensPerValidation =  1e18;    //New minted amount per validation\n\n    uint256 public accessFee = 1000e18;\n    uint256 public enterpriseShareSubscriber = 40;\n    uint256 public validatorShareSubscriber = 40;\n    address public platformAddress;\n    uint256 public platformShareValidation = 15;    \n    uint256 public recentBlockUpdated;\n    uint256 public enterpriseMatch = 15e3;          //allow fractional enterprise match up to 4 decimal points\n    uint256 public minDepositDays = 30;\n \n    /// @dev check if caller is a controller     \n    modifier isController {\n        require(hasRole(CONTROLLER_ROLE, msg.sender), \"Members:IsController - Caller is not a controller\");\n\n        _;\n    }\n\n\n     /// @dev check if caller is a controller     \n    modifier isSetter {\n        require(hasRole(SETTER_ROLE, msg.sender), \"Members:isSetter - Caller is not a setter\");\n\n        _;\n    }\n\n    // Structure to store address and name of the Enterprise\n    struct Enterprise {  \n        address user;\n        string name;                                                                                                                         \n    }\n\n    // Structure to store address and name of the validator\n    struct Validator {\n        address user;\n        string name;\n    }\n\n    Enterprise[] public enterprises;\n    mapping(address => bool) public enterpriseMap;\n\n    Validator[] public validators;\n    mapping(address => bool) public validatorMap;\n    \n    event EnterpriseUserAdded(address indexed user, string name);\n    event ValidatorUserAdded(address indexed user, string name);\n    event LogDepositReceived(address indexed from, uint amount);\n    event LogRewardsRedeemed(address indexed from, uint256 amount);\n    event LogDataSubscriberPaid(address indexed from, uint256 accessFee,  address cohortAddress, address enterprise, uint256 enterpriseShare);\n    event LogDataSubscriberValidatorPaid(address  from, address indexed validator, uint256 amount);\n    event LogRewardsDeposited(address cohort, uint256 tokens, uint256 enterpriseAmount, address indexed enterprise);\n    event LogRewardsReceived(address indexed validator, uint256 tokens );\n    event LogSubscriptionCompleted(address subscriber, uint256 numberOfSubscriptions);\n    event LogUpdateRewards(uint256 rewards);\n    event LogUpdateEnterpriseMatch(uint256 portion);\n    event LogUpdateMinDepositDays(uint256 minDepositDays);\n\n    constructor(AuditToken _auditToken, address _platformAddress ) {\n\n        require(_auditToken != AuditToken(0), \"Members:constructor - Audit token address can't be 0\");\n        require(_platformAddress != address(0), \"Members:constructor - Platform address can't be 0\");\n        auditToken = _auditToken;        \n        platformAddress = _platformAddress;\n        _setupRole(DEFAULT_ADMIN_ROLE, msg.sender);\n    }\n\n    /**\n    * @dev to be called by administrator to set cohort Factory contract\n    * @param _cohortFactory cohortFactory contract\n    */\n    function setCohortFactory(CohortFactory _cohortFactory) public isController() {\n\n        require(_cohortFactory != CohortFactory(0), \"Members:setCohortFactory - CohortFactory address can't be 0\");\n        cohortFactory = _cohortFactory;\n    }\n\n\n    /**\n    * @dev to be called by Governance contract to update new amount for validation rewards\n    * @param _amountTokensPerValidation new value of reward per validation\n    */\n    function updateRewards(uint256 _amountTokensPerValidation) public isSetter() {\n\n        require(_amountTokensPerValidation != 0, \"Cohort:updateRewards - New value for the reward can't be 0\");\n        amountTokensPerValidation = _amountTokensPerValidation;\n        emit LogUpdateRewards(_amountTokensPerValidation);\n    }\n\n\n    /**\n    * @dev to be called by Governance contract to update days to calculate enterprise min deposit requirements\n    * @param _minDepositDays new value of min deposit days\n    */\n    function updateMinDepositDays(uint256 _minDepositDays) public isSetter()  {\n\n        require(_minDepositDays != 0, \"Members:updateMinDepositDays - New value for the min deposit days can't be 0\");\n        minDepositDays = _minDepositDays;\n        emit LogUpdateMinDepositDays(_minDepositDays);\n    }\n    \n    /**\n    * @dev to be called by Governance contract\n    * @param _enterpriseMatch new value of enterprise portion of enterprise value of validation cost\n    */\n    function updateEnterpriseMatch(uint256 _enterpriseMatch) public isSetter()  {\n        require(_enterpriseMatch != 0, \"Members:updateMinDepositDays - New value for the enterprise match can't be 0\");\n        enterpriseMatch = _enterpriseMatch;\n        emit LogUpdateEnterpriseMatch(_enterpriseMatch);\n    }\n\n    /**\n    * @dev to be called by Governance contract to change enterprise and validators shares\n    * of data subscription fees. \n    * @param _enterpriseShareSubscriber  - share of the enterprise\n    * @param _validatorShareSubscriber - share of the subscribers\n    */\n    function setDataSubscriberShares(uint256 _enterpriseShareSubscriber, uint256 _validatorShareSubscriber ) public isSetter()  {\n\n        require(_enterpriseShareSubscriber + validatorShareSubscriber <=100, \"Enterprise and Validator shares can't be larger than 100\");\n        enterpriseShareSubscriber = _enterpriseShareSubscriber;\n        validatorShareSubscriber = _validatorShareSubscriber;\n    }\n\n    /**\n     * @dev Function to accept contribution to staking\n     * @param amount number of AUDT tokens sent to contract for staking     \n     */ \n     function stake(uint256 amount) public {\n\n        if (validatorMap[msg.sender]){ \n            require(amount + deposits[msg.sender] >= 5e21, \"Staking:stake - Minimum contribution amount is 5000 AUDT tokens\");  \n            require(amount + deposits[msg.sender] <= 25e21, \"Staking:stake - Maximum contribution amount is 25000 AUDT tokens\");     \n        }\n        require(validatorMap[msg.sender] || enterpriseMap[msg.sender], \"Staking:stake - User has been not registered as a validator or enterprise.\"); \n        stakedAmount = stakedAmount.add(amount);  // track tokens contributed so far\n        auditToken.safeTransferFrom(msg.sender, address(this), amount);\n        deposits[msg.sender] = deposits[msg.sender].add(amount);\n        emit LogDepositReceived(msg.sender, amount);       \n    }\n\n    /**\n    * @dev to be called by scheduled calls by platform daily \n    * @param _validators - list of validators eligible for earnings\n    * @param tokens - list of tokens earned by each validator\n    */\n    function updateDailyEarningsTransferFunds(address[] memory _validators, uint256[] memory tokens, address cohort) public isController() {\n\n        uint256 totalRewardTokens;\n\n        address enterpriseAddress = Cohort(cohort).enterprise();\n        Cohort(cohort).resetOutstandingValidations();\n        uint256 totalEnterprisePay;\n\n        for (uint256 i=0; i< _validators.length; i++){\n            // 1e4 to adjust for 4 decimal points for enterpriseMatch\n            uint256 enterprisePortion =  (tokens[i].mul(enterpriseMatch).div(1e4));\n            totalEnterprisePay = totalEnterprisePay.add(enterprisePortion);\n            deposits[_validators[i]] = deposits[_validators[i]].add(tokens[i]).add(enterprisePortion);\n            totalRewardTokens = totalRewardTokens.add(tokens[i]);\n            LogRewardsReceived(_validators[i], tokens[i].add(enterprisePortion));\n        }\n        // decrease enterprise token amount by its reward share to validators\n        deposits[enterpriseAddress] = deposits[enterpriseAddress].sub(totalEnterprisePay);\n\n        uint256 amountTokensPlatform = totalRewardTokens.mul(platformShareValidation).div(85);\n        \n        recentBlockUpdated = block.number;\n\n        auditToken.mint(platformAddress, amountTokensPlatform);\n        auditToken.mint(address(this), totalRewardTokens);\n        emit LogRewardsDeposited(cohort, totalRewardTokens, totalEnterprisePay, enterpriseAddress);\n    }\n\n    /**\n    * @dev called when data subscriber initiates subscription \n    * @param cohortAddress - address of the cohort to which data subscriber wants access \n    * @param audits - type of audits this cohort is part of\n    */\n    function dataSubscriberPayment(address cohortAddress, uint256 audits) public  {\n\n        require(cohortAddress != address(0), \"Members:dataSubscriberPayment - Cohort address can't be 0\");\n        require(audits >=0 && audits <=5, \"Audit type is not in the required range\");\n        require(!dataSubscribersMap[msg.sender][cohortAddress], \"Members:dataSubscriberPayment - You are already subscribed\");\n\n        auditToken.safeTransferFrom(msg.sender, address(this), accessFee);\n        auditToken.safeTransfer(platformAddress, accessFee.mul((uint256(100)).sub(enterpriseShareSubscriber).sub(validatorShareSubscriber)).div(100));\n\n        address cohortOwner = Cohort(cohortAddress).enterprise();\n        uint256 enterpriseShare = accessFee.mul(enterpriseShareSubscriber).div(100);\n        deposits[cohortOwner] = deposits[cohortOwner].add(enterpriseShare);\n        allocateValidatorDataSubscriberFee(Cohort(cohortAddress), accessFee.mul(validatorShareSubscriber).div(100));\n        dataSubscribers[msg.sender].push();\n        dataSubscribers[msg.sender][dataSubscribers[msg.sender].length -1].cohort = cohortAddress;\n        dataSubscribers[msg.sender][dataSubscribers[msg.sender].length- 1].audits = audits;\n        dataSubscribersMap[msg.sender][cohortAddress] = true;\n\n        emit LogDataSubscriberPaid(msg.sender, accessFee, cohortAddress, cohortOwner, enterpriseShare);\n    }\n\n    /**\n    * @dev To return all cohorts to which data subscriber is subscribed to \n    * @param subscriber - address of the subscriber\n    * @return the structure with cohort address and their types for subscriber\n    */\n    function returnCohortsForDataSubscriber(address subscriber) public view returns(DataSubscriberTypes[] memory){\n            return (dataSubscribers[subscriber]);\n    }\n\n    /**\n    * @dev To automate subscription for multiple cohorts for data subscriber \n    * @param cohortAddress - array of cohort addresses\n    * @param audits - array of audit types for each cohort\n    */\n    function dataSubscriberPaymentMultiple(address[] memory cohortAddress, uint256[] memory audits) public {\n\n        uint256 length = cohortAddress.length;\n        require(length <= 256, \"Members-dataSubscriberPaymentMultiple: List too long\");\n        for (uint256 i = 0; i < length; i++) {\n            dataSubscriberPayment(cohortAddress[i], audits[i]);\n        }\n\n        emit LogSubscriptionCompleted(msg.sender, length);\n    }\n\n    /**\n    * @dev To calculate validator share of data subscriber fee and allocate it to validator deposits\n    * @param cohortAddress - address of cohort holding list of validators\n    * @param amount - total amount of tokens available for allocation\n    */\n    function allocateValidatorDataSubscriberFee(Cohort cohortAddress, uint amount) internal  {\n\n        address[] memory cohortValidators = Cohort(cohortAddress).returnValidators();\n        uint256 totalDeposits;\n\n        for (uint i=0; i < cohortValidators.length; i++){\n            totalDeposits = totalDeposits.add(deposits[cohortValidators[i]]);\n        }\n\n        for (uint i=0; i < cohortValidators.length; i++){\n            uint256 oneValidatorPercentage = (deposits[cohortValidators[i]].mul(10e18)).div(totalDeposits);\n            uint256 oneValidatorAmount = amount.mul(oneValidatorPercentage).div(10e18);\n            deposits[cohortValidators[i]] = deposits[cohortValidators[i]].add(accessFee.mul(oneValidatorAmount).div(100).div(10e18)  );\n            emit LogDataSubscriberValidatorPaid(msg.sender, cohortValidators[i], oneValidatorAmount);\n        }\n    }\n   \n     /**\n     * @dev Function to redeem contribution. \n     * @param amount number of tokens being redeemed\n     */\n    function redeem(uint256 amount) public {\n\n          if (enterpriseMap[msg.sender]){\n              // div(1e4) to adjust for four decimal points\n            require(deposits[msg.sender].sub(enterpriseMatch.mul(amountTokensPerValidation).mul(returnOutstandingValidations()).div(1e4)) >= amount, \n            \"Member:redeem - Your deposit will be too low to fullfil your outstanding payments.\");\n          }\n\n        stakedAmount = stakedAmount.sub(amount);       \n        deposits[msg.sender] = deposits[msg.sender].sub(amount);\n        auditToken.safeTransfer(msg.sender, amount);\n        emit LogRewardsRedeemed(msg.sender, amount);\n        \n    }\n\n    /**\n     * @dev Function to calculate outstanding validations for enterprise. \n     */   \n    function returnOutstandingValidations() public view returns(uint256) {\n\n         (address[] memory cohorts, ) = CohortFactory(cohortFactory).returnCohorts(msg.sender);\n         uint totalOutstandingValidations;\n\n         for (uint256 i; i< cohorts.length; i++)\n             totalOutstandingValidations = totalOutstandingValidations.add(Cohort(cohorts[i]).outstandingValidations());\n\n        return totalOutstandingValidations;\n    }\n\n    /**\n    * @dev add enterprise user\n    * @param user to add\n    * @param name name of the user\n    */\n    function addEnterpriseUser (address user, string memory name) public  isController() {    \n        Enterprise memory newEnterprise;\n        require(!enterpriseMap[user], \"Members:addEnterpriseUser - This Enterprise already exist.\");\n        newEnterprise.user = user;\n        newEnterprise.name = name;\n        \n        enterprises.push(newEnterprise);\n        enterpriseMap[user] = true;\n        emit EnterpriseUserAdded(user, name);\n    }\n\n    /*\n    * @dev add validator user\n    * @param user to add\n    * @param name name of the user\n    */\n    function addValidatorUser(address user, string memory name) public isController() {\n\n        Validator memory newValidator;\n        require(!validatorMap[user], \"Members:addValidatorUser - This Validator already exist.\");\n        newValidator.user = user;\n        newValidator.name = name;\n        validators.push(newValidator);\n        validatorMap[user] = true;\n        emit ValidatorUserAdded(user, name);\n    }\n\n    /*\n    * @dev return enterprise count\n    */\n    function returnEnterpriseCount() public view returns (uint256) {\n\n        return enterprises.length;\n    }\n\n    /*\n    * @dev return validator count\n    */\n    function returnValidatorCount() public view returns (uint256) {\n\n        return validators.length;\n    }\n\n    /*\n    * @dev return name of the enterprise\n    * @param enterprise to return the name\n    */\n    function returnEnterpriseName(address enterprise) public view returns (string memory) {\n\n        for (uint256 i = 0; i < enterprises.length; i++){\n\n            if (enterprises[i].user == enterprise)\n                return enterprises[i].name;\n        }\n        return \"Not Enterprise\";\n    }\n\n    /*\n    * @dev return name of the validator\n    * @param validator to return the name\n    */\n    function returnValidatorName(address validator) public view returns (string memory) {\n\n        for (uint256 i = 0; i < validators.length; i++){\n\n            if (validators[i].user == validator)\n                return validators[i].name;\n        }\n        return \"Not Validator\";\n    }\n\n}",
  "sourcePath": "/home/bogdan/Ethereum/Projects/TGE/Core-Smart-Contracts-v1/contracts/Auditchain/Members.sol",
  "compiler": {
    "name": "solc",
    "version": "0.7.6+commit.7338295f.Emscripten.clang"
  },
  "schemaVersion": "3.3.4",
  "updatedAt": "2021-03-11T20:24:18.645Z",
  "networkType": "ethereum",
  "devdoc": {
    "details": "AccessControl  Allows on creation of Enterprise and Validator accounts and staking of funds by validators Validators also have ability to withdraw their staking",
    "kind": "dev",
    "methods": {
      "addEnterpriseUser(address,string)": {
        "details": "add enterprise user",
        "params": {
          "name": "name of the user",
          "user": "to add"
        }
      },
      "dataSubscriberPayment(address,uint256)": {
        "details": "called when data subscriber initiates subscription ",
        "params": {
          "audits": "- type of audits this cohort is part of",
          "cohortAddress": "- address of the cohort to which data subscriber wants access "
        }
      },
      "dataSubscriberPaymentMultiple(address[],uint256[])": {
        "details": "To automate subscription for multiple cohorts for data subscriber ",
        "params": {
          "audits": "- array of audit types for each cohort",
          "cohortAddress": "- array of cohort addresses"
        }
      },
      "getRoleAdmin(bytes32)": {
        "details": "Returns the admin role that controls `role`. See {grantRole} and {revokeRole}. To change a role's admin, use {_setRoleAdmin}."
      },
      "getRoleMember(bytes32,uint256)": {
        "details": "Returns one of the accounts that have `role`. `index` must be a value between 0 and {getRoleMemberCount}, non-inclusive. Role bearers are not sorted in any particular way, and their ordering may change at any point. WARNING: When using {getRoleMember} and {getRoleMemberCount}, make sure you perform all queries on the same block. See the following https://forum.openzeppelin.com/t/iterating-over-elements-on-enumerableset-in-openzeppelin-contracts/2296[forum post] for more information."
      },
      "getRoleMemberCount(bytes32)": {
        "details": "Returns the number of accounts that have `role`. Can be used together with {getRoleMember} to enumerate all bearers of a role."
      },
      "grantRole(bytes32,address)": {
        "details": "Grants `role` to `account`. If `account` had not been already granted `role`, emits a {RoleGranted} event. Requirements: - the caller must have ``role``'s admin role."
      },
      "hasRole(bytes32,address)": {
        "details": "Returns `true` if `account` has been granted `role`."
      },
      "redeem(uint256)": {
        "details": "Function to redeem contribution. ",
        "params": {
          "amount": "number of tokens being redeemed"
        }
      },
      "renounceRole(bytes32,address)": {
        "details": "Revokes `role` from the calling account. Roles are often managed via {grantRole} and {revokeRole}: this function's purpose is to provide a mechanism for accounts to lose their privileges if they are compromised (such as when a trusted device is misplaced). If the calling account had been granted `role`, emits a {RoleRevoked} event. Requirements: - the caller must be `account`."
      },
      "returnCohortsForDataSubscriber(address)": {
        "details": "To return all cohorts to which data subscriber is subscribed to ",
        "params": {
          "subscriber": "- address of the subscriber"
        },
        "returns": {
          "_0": "the structure with cohort address and their types for subscriber"
        }
      },
      "returnOutstandingValidations()": {
        "details": "Function to calculate outstanding validations for enterprise. "
      },
      "revokeRole(bytes32,address)": {
        "details": "Revokes `role` from `account`. If `account` had been granted `role`, emits a {RoleRevoked} event. Requirements: - the caller must have ``role``'s admin role."
      },
      "setCohortFactory(address)": {
        "details": "to be called by administrator to set cohort Factory contract",
        "params": {
          "_cohortFactory": "cohortFactory contract"
        }
      },
      "setDataSubscriberShares(uint256,uint256)": {
        "details": "to be called by Governance contract to change enterprise and validators shares of data subscription fees. ",
        "params": {
          "_enterpriseShareSubscriber": "- share of the enterprise",
          "_validatorShareSubscriber": "- share of the subscribers"
        }
      },
      "stake(uint256)": {
        "details": "Function to accept contribution to staking",
        "params": {
          "amount": "number of AUDT tokens sent to contract for staking     "
        }
      },
      "updateDailyEarningsTransferFunds(address[],uint256[],address)": {
        "details": "to be called by scheduled calls by platform daily ",
        "params": {
          "_validators": "- list of validators eligible for earnings",
          "tokens": "- list of tokens earned by each validator"
        }
      },
      "updateEnterpriseMatch(uint256)": {
        "details": "to be called by Governance contract",
        "params": {
          "_enterpriseMatch": "new value of enterprise portion of enterprise value of validation cost"
        }
      },
      "updateMinDepositDays(uint256)": {
        "details": "to be called by Governance contract to update days to calculate enterprise min deposit requirements",
        "params": {
          "_minDepositDays": "new value of min deposit days"
        }
      },
      "updateRewards(uint256)": {
        "details": "to be called by Governance contract to update new amount for validation rewards",
        "params": {
          "_amountTokensPerValidation": "new value of reward per validation"
        }
      }
    },
    "title": "Members",
    "version": 1
  },
  "userdoc": {
    "kind": "user",
    "methods": {},
    "version": 1
  }
}