{
  "contractName": "Members",
  "abi": [
    {
      "inputs": [
        {
          "internalType": "contract AuditToken",
          "name": "_auditToken",
          "type": "address"
        },
        {
          "internalType": "address",
          "name": "_platformAddress",
          "type": "address"
        }
      ],
      "stateMutability": "nonpayable",
      "type": "constructor"
    },
    {
      "anonymous": false,
      "inputs": [
        {
          "indexed": true,
          "internalType": "address",
          "name": "user",
          "type": "address"
        },
        {
          "indexed": false,
          "internalType": "string",
          "name": "name",
          "type": "string"
        }
      ],
      "name": "EnterpriseUserAdded",
      "type": "event"
    },
    {
      "anonymous": false,
      "inputs": [
        {
          "indexed": true,
          "internalType": "address",
          "name": "from",
          "type": "address"
        },
        {
          "indexed": false,
          "internalType": "uint256",
          "name": "accessFee",
          "type": "uint256"
        },
        {
          "indexed": false,
          "internalType": "address",
          "name": "cohortAddress",
          "type": "address"
        },
        {
          "indexed": false,
          "internalType": "address",
          "name": "enterprise",
          "type": "address"
        },
        {
          "indexed": false,
          "internalType": "uint256",
          "name": "enterpriseShare",
          "type": "uint256"
        }
      ],
      "name": "LogDataSubscriberPaid",
      "type": "event"
    },
    {
      "anonymous": false,
      "inputs": [
        {
          "indexed": false,
          "internalType": "address",
          "name": "from",
          "type": "address"
        },
        {
          "indexed": true,
          "internalType": "address",
          "name": "validator",
          "type": "address"
        },
        {
          "indexed": false,
          "internalType": "uint256",
          "name": "amount",
          "type": "uint256"
        }
      ],
      "name": "LogDataSubscriberValidatorPaid",
      "type": "event"
    },
    {
      "anonymous": false,
      "inputs": [
        {
          "indexed": true,
          "internalType": "address",
          "name": "from",
          "type": "address"
        },
        {
          "indexed": false,
          "internalType": "uint256",
          "name": "amount",
          "type": "uint256"
        }
      ],
      "name": "LogDepositReceived",
      "type": "event"
    },
    {
      "anonymous": false,
      "inputs": [
        {
          "indexed": false,
          "internalType": "address",
          "name": "cohort",
          "type": "address"
        },
        {
          "indexed": false,
          "internalType": "uint256",
          "name": "tokens",
          "type": "uint256"
        },
        {
          "indexed": false,
          "internalType": "uint256",
          "name": "enterpriseAmount",
          "type": "uint256"
        },
        {
          "indexed": true,
          "internalType": "address",
          "name": "enterprise",
          "type": "address"
        }
      ],
      "name": "LogRewardsDeposited",
      "type": "event"
    },
    {
      "anonymous": false,
      "inputs": [
        {
          "indexed": true,
          "internalType": "address",
          "name": "validator",
          "type": "address"
        },
        {
          "indexed": false,
          "internalType": "uint256",
          "name": "tokens",
          "type": "uint256"
        }
      ],
      "name": "LogRewardsReceived",
      "type": "event"
    },
    {
      "anonymous": false,
      "inputs": [
        {
          "indexed": true,
          "internalType": "address",
          "name": "from",
          "type": "address"
        },
        {
          "indexed": false,
          "internalType": "uint256",
          "name": "amount",
          "type": "uint256"
        }
      ],
      "name": "LogRewardsRedeemed",
      "type": "event"
    },
    {
      "anonymous": false,
      "inputs": [
        {
          "indexed": false,
          "internalType": "address",
          "name": "subscriber",
          "type": "address"
        },
        {
          "indexed": false,
          "internalType": "uint256",
          "name": "numberOfSubscriptions",
          "type": "uint256"
        }
      ],
      "name": "LogSubscriptionCompleted",
      "type": "event"
    },
    {
      "anonymous": false,
      "inputs": [
        {
          "indexed": false,
          "internalType": "uint256",
          "name": "portion",
          "type": "uint256"
        }
      ],
      "name": "LogUpdateEnterpriseMatch",
      "type": "event"
    },
    {
      "anonymous": false,
      "inputs": [
        {
          "indexed": false,
          "internalType": "uint256",
          "name": "minDepositDays",
          "type": "uint256"
        }
      ],
      "name": "LogUpdateMinDepositDays",
      "type": "event"
    },
    {
      "anonymous": false,
      "inputs": [
        {
          "indexed": false,
          "internalType": "uint256",
          "name": "rewards",
          "type": "uint256"
        }
      ],
      "name": "LogUpdateRewards",
      "type": "event"
    },
    {
      "anonymous": false,
      "inputs": [
        {
          "indexed": true,
          "internalType": "bytes32",
          "name": "role",
          "type": "bytes32"
        },
        {
          "indexed": true,
          "internalType": "bytes32",
          "name": "previousAdminRole",
          "type": "bytes32"
        },
        {
          "indexed": true,
          "internalType": "bytes32",
          "name": "newAdminRole",
          "type": "bytes32"
        }
      ],
      "name": "RoleAdminChanged",
      "type": "event"
    },
    {
      "anonymous": false,
      "inputs": [
        {
          "indexed": true,
          "internalType": "bytes32",
          "name": "role",
          "type": "bytes32"
        },
        {
          "indexed": true,
          "internalType": "address",
          "name": "account",
          "type": "address"
        },
        {
          "indexed": true,
          "internalType": "address",
          "name": "sender",
          "type": "address"
        }
      ],
      "name": "RoleGranted",
      "type": "event"
    },
    {
      "anonymous": false,
      "inputs": [
        {
          "indexed": true,
          "internalType": "bytes32",
          "name": "role",
          "type": "bytes32"
        },
        {
          "indexed": true,
          "internalType": "address",
          "name": "account",
          "type": "address"
        },
        {
          "indexed": true,
          "internalType": "address",
          "name": "sender",
          "type": "address"
        }
      ],
      "name": "RoleRevoked",
      "type": "event"
    },
    {
      "anonymous": false,
      "inputs": [
        {
          "indexed": true,
          "internalType": "address",
          "name": "user",
          "type": "address"
        },
        {
          "indexed": false,
          "internalType": "string",
          "name": "name",
          "type": "string"
        },
        {
          "indexed": false,
          "internalType": "enum Members.UserType",
          "name": "userType",
          "type": "uint8"
        }
      ],
      "name": "UserAdded",
      "type": "event"
    },
    {
      "inputs": [],
      "name": "CONTROLLER_ROLE",
      "outputs": [
        {
          "internalType": "bytes32",
          "name": "",
          "type": "bytes32"
        }
      ],
      "stateMutability": "view",
      "type": "function",
      "constant": true
    },
    {
      "inputs": [],
      "name": "DEFAULT_ADMIN_ROLE",
      "outputs": [
        {
          "internalType": "bytes32",
          "name": "",
          "type": "bytes32"
        }
      ],
      "stateMutability": "view",
      "type": "function",
      "constant": true
    },
    {
      "inputs": [],
      "name": "SETTER_ROLE",
      "outputs": [
        {
          "internalType": "bytes32",
          "name": "",
          "type": "bytes32"
        }
      ],
      "stateMutability": "view",
      "type": "function",
      "constant": true
    },
    {
      "inputs": [],
      "name": "accessFee",
      "outputs": [
        {
          "internalType": "uint256",
          "name": "",
          "type": "uint256"
        }
      ],
      "stateMutability": "view",
      "type": "function",
      "constant": true
    },
    {
      "inputs": [],
      "name": "amountTokensPerValidation",
      "outputs": [
        {
          "internalType": "uint256",
          "name": "",
          "type": "uint256"
        }
      ],
      "stateMutability": "view",
      "type": "function",
      "constant": true
    },
    {
      "inputs": [],
      "name": "auditToken",
      "outputs": [
        {
          "internalType": "contract AuditToken",
          "name": "",
          "type": "address"
        }
      ],
      "stateMutability": "view",
      "type": "function",
      "constant": true
    },
    {
      "inputs": [],
      "name": "cohortFactory",
      "outputs": [
        {
          "internalType": "contract ICohortFactory",
          "name": "",
          "type": "address"
        }
      ],
      "stateMutability": "view",
      "type": "function",
      "constant": true
    },
    {
      "inputs": [
        {
          "internalType": "address",
          "name": "",
          "type": "address"
        },
        {
          "internalType": "address",
          "name": "",
          "type": "address"
        }
      ],
      "name": "dataSubscriberCohortMap",
      "outputs": [
        {
          "internalType": "bool",
          "name": "",
          "type": "bool"
        }
      ],
      "stateMutability": "view",
      "type": "function",
      "constant": true
    },
    {
      "inputs": [
        {
          "internalType": "address",
          "name": "",
          "type": "address"
        },
        {
          "internalType": "uint256",
          "name": "",
          "type": "uint256"
        }
      ],
      "name": "dataSubscriberCohorts",
      "outputs": [
        {
          "internalType": "address",
          "name": "cohort",
          "type": "address"
        },
        {
          "internalType": "uint256",
          "name": "audits",
          "type": "uint256"
        }
      ],
      "stateMutability": "view",
      "type": "function",
      "constant": true
    },
    {
      "inputs": [
        {
          "internalType": "address",
          "name": "",
          "type": "address"
        }
      ],
      "name": "dataSubscriberMap",
      "outputs": [
        {
          "internalType": "bool",
          "name": "",
          "type": "bool"
        }
      ],
      "stateMutability": "view",
      "type": "function",
      "constant": true
    },
    {
      "inputs": [
        {
          "internalType": "address",
          "name": "",
          "type": "address"
        }
      ],
      "name": "dataSubscriberNameMap",
      "outputs": [
        {
          "internalType": "uint256",
          "name": "",
          "type": "uint256"
        }
      ],
      "stateMutability": "view",
      "type": "function",
      "constant": true
    },
    {
      "inputs": [
        {
          "internalType": "uint256",
          "name": "",
          "type": "uint256"
        }
      ],
      "name": "dataSubscribers",
      "outputs": [
        {
          "internalType": "address",
          "name": "user",
          "type": "address"
        },
        {
          "internalType": "string",
          "name": "name",
          "type": "string"
        }
      ],
      "stateMutability": "view",
      "type": "function",
      "constant": true
    },
    {
      "inputs": [
        {
          "internalType": "address",
          "name": "",
          "type": "address"
        }
      ],
      "name": "deposits",
      "outputs": [
        {
          "internalType": "uint256",
          "name": "",
          "type": "uint256"
        }
      ],
      "stateMutability": "view",
      "type": "function",
      "constant": true
    },
    {
      "inputs": [
        {
          "internalType": "address",
          "name": "",
          "type": "address"
        }
      ],
      "name": "enterpriseMap",
      "outputs": [
        {
          "internalType": "bool",
          "name": "",
          "type": "bool"
        }
      ],
      "stateMutability": "view",
      "type": "function",
      "constant": true
    },
    {
      "inputs": [],
      "name": "enterpriseMatch",
      "outputs": [
        {
          "internalType": "uint256",
          "name": "",
          "type": "uint256"
        }
      ],
      "stateMutability": "view",
      "type": "function",
      "constant": true
    },
    {
      "inputs": [
        {
          "internalType": "address",
          "name": "",
          "type": "address"
        }
      ],
      "name": "enterpriseNameMap",
      "outputs": [
        {
          "internalType": "uint256",
          "name": "",
          "type": "uint256"
        }
      ],
      "stateMutability": "view",
      "type": "function",
      "constant": true
    },
    {
      "inputs": [],
      "name": "enterpriseShareSubscriber",
      "outputs": [
        {
          "internalType": "uint256",
          "name": "",
          "type": "uint256"
        }
      ],
      "stateMutability": "view",
      "type": "function",
      "constant": true
    },
    {
      "inputs": [
        {
          "internalType": "uint256",
          "name": "",
          "type": "uint256"
        }
      ],
      "name": "enterprises",
      "outputs": [
        {
          "internalType": "address",
          "name": "user",
          "type": "address"
        },
        {
          "internalType": "string",
          "name": "name",
          "type": "string"
        }
      ],
      "stateMutability": "view",
      "type": "function",
      "constant": true
    },
    {
      "inputs": [
        {
          "internalType": "bytes32",
          "name": "role",
          "type": "bytes32"
        }
      ],
      "name": "getRoleAdmin",
      "outputs": [
        {
          "internalType": "bytes32",
          "name": "",
          "type": "bytes32"
        }
      ],
      "stateMutability": "view",
      "type": "function",
      "constant": true
    },
    {
      "inputs": [
        {
          "internalType": "bytes32",
          "name": "role",
          "type": "bytes32"
        },
        {
          "internalType": "uint256",
          "name": "index",
          "type": "uint256"
        }
      ],
      "name": "getRoleMember",
      "outputs": [
        {
          "internalType": "address",
          "name": "",
          "type": "address"
        }
      ],
      "stateMutability": "view",
      "type": "function",
      "constant": true
    },
    {
      "inputs": [
        {
          "internalType": "bytes32",
          "name": "role",
          "type": "bytes32"
        }
      ],
      "name": "getRoleMemberCount",
      "outputs": [
        {
          "internalType": "uint256",
          "name": "",
          "type": "uint256"
        }
      ],
      "stateMutability": "view",
      "type": "function",
      "constant": true
    },
    {
      "inputs": [
        {
          "internalType": "bytes32",
          "name": "role",
          "type": "bytes32"
        },
        {
          "internalType": "address",
          "name": "account",
          "type": "address"
        }
      ],
      "name": "grantRole",
      "outputs": [],
      "stateMutability": "nonpayable",
      "type": "function"
    },
    {
      "inputs": [
        {
          "internalType": "bytes32",
          "name": "role",
          "type": "bytes32"
        },
        {
          "internalType": "address",
          "name": "account",
          "type": "address"
        }
      ],
      "name": "hasRole",
      "outputs": [
        {
          "internalType": "bool",
          "name": "",
          "type": "bool"
        }
      ],
      "stateMutability": "view",
      "type": "function",
      "constant": true
    },
    {
      "inputs": [],
      "name": "minDepositDays",
      "outputs": [
        {
          "internalType": "uint256",
          "name": "",
          "type": "uint256"
        }
      ],
      "stateMutability": "view",
      "type": "function",
      "constant": true
    },
    {
      "inputs": [],
      "name": "platformAddress",
      "outputs": [
        {
          "internalType": "address",
          "name": "",
          "type": "address"
        }
      ],
      "stateMutability": "view",
      "type": "function",
      "constant": true
    },
    {
      "inputs": [],
      "name": "platformShareValidation",
      "outputs": [
        {
          "internalType": "uint256",
          "name": "",
          "type": "uint256"
        }
      ],
      "stateMutability": "view",
      "type": "function",
      "constant": true
    },
    {
      "inputs": [],
      "name": "recentBlockUpdated",
      "outputs": [
        {
          "internalType": "uint256",
          "name": "",
          "type": "uint256"
        }
      ],
      "stateMutability": "view",
      "type": "function",
      "constant": true
    },
    {
      "inputs": [
        {
          "internalType": "bytes32",
          "name": "role",
          "type": "bytes32"
        },
        {
          "internalType": "address",
          "name": "account",
          "type": "address"
        }
      ],
      "name": "renounceRole",
      "outputs": [],
      "stateMutability": "nonpayable",
      "type": "function"
    },
    {
      "inputs": [
        {
          "internalType": "bytes32",
          "name": "role",
          "type": "bytes32"
        },
        {
          "internalType": "address",
          "name": "account",
          "type": "address"
        }
      ],
      "name": "revokeRole",
      "outputs": [],
      "stateMutability": "nonpayable",
      "type": "function"
    },
    {
      "inputs": [],
      "name": "stakedAmount",
      "outputs": [
        {
          "internalType": "uint256",
          "name": "",
          "type": "uint256"
        }
      ],
      "stateMutability": "view",
      "type": "function",
      "constant": true
    },
    {
      "inputs": [
        {
          "internalType": "address",
          "name": "",
          "type": "address"
        }
      ],
      "name": "validatorMap",
      "outputs": [
        {
          "internalType": "bool",
          "name": "",
          "type": "bool"
        }
      ],
      "stateMutability": "view",
      "type": "function",
      "constant": true
    },
    {
      "inputs": [
        {
          "internalType": "address",
          "name": "",
          "type": "address"
        }
      ],
      "name": "validatorNameMap",
      "outputs": [
        {
          "internalType": "uint256",
          "name": "",
          "type": "uint256"
        }
      ],
      "stateMutability": "view",
      "type": "function",
      "constant": true
    },
    {
      "inputs": [],
      "name": "validatorShareSubscriber",
      "outputs": [
        {
          "internalType": "uint256",
          "name": "",
          "type": "uint256"
        }
      ],
      "stateMutability": "view",
      "type": "function",
      "constant": true
    },
    {
      "inputs": [
        {
          "internalType": "uint256",
          "name": "",
          "type": "uint256"
        }
      ],
      "name": "validators",
      "outputs": [
        {
          "internalType": "address",
          "name": "user",
          "type": "address"
        },
        {
          "internalType": "string",
          "name": "name",
          "type": "string"
        }
      ],
      "stateMutability": "view",
      "type": "function",
      "constant": true
    },
    {
      "inputs": [
        {
          "internalType": "address",
          "name": "_cohortFactory",
          "type": "address"
        }
      ],
      "name": "setCohortFactory",
      "outputs": [],
      "stateMutability": "nonpayable",
      "type": "function"
    },
    {
      "inputs": [
        {
          "internalType": "uint256",
          "name": "_amountTokensPerValidation",
          "type": "uint256"
        }
      ],
      "name": "updateRewards",
      "outputs": [],
      "stateMutability": "nonpayable",
      "type": "function"
    },
    {
      "inputs": [
        {
          "internalType": "uint256",
          "name": "_minDepositDays",
          "type": "uint256"
        }
      ],
      "name": "updateMinDepositDays",
      "outputs": [],
      "stateMutability": "nonpayable",
      "type": "function"
    },
    {
      "inputs": [
        {
          "internalType": "uint256",
          "name": "_enterpriseMatch",
          "type": "uint256"
        }
      ],
      "name": "updateEnterpriseMatch",
      "outputs": [],
      "stateMutability": "nonpayable",
      "type": "function"
    },
    {
      "inputs": [
        {
          "internalType": "uint256",
          "name": "_enterpriseShareSubscriber",
          "type": "uint256"
        },
        {
          "internalType": "uint256",
          "name": "_validatorShareSubscriber",
          "type": "uint256"
        }
      ],
      "name": "setDataSubscriberShares",
      "outputs": [],
      "stateMutability": "nonpayable",
      "type": "function"
    },
    {
      "inputs": [
        {
          "internalType": "uint256",
          "name": "amount",
          "type": "uint256"
        }
      ],
      "name": "stake",
      "outputs": [],
      "stateMutability": "nonpayable",
      "type": "function"
    },
    {
      "inputs": [
        {
          "internalType": "address[]",
          "name": "_validators",
          "type": "address[]"
        },
        {
          "internalType": "uint256[]",
          "name": "tokens",
          "type": "uint256[]"
        },
        {
          "internalType": "address",
          "name": "cohort",
          "type": "address"
        }
      ],
      "name": "updateDailyEarningsTransferFunds",
      "outputs": [],
      "stateMutability": "nonpayable",
      "type": "function"
    },
    {
      "inputs": [
        {
          "internalType": "address",
          "name": "cohortAddress",
          "type": "address"
        },
        {
          "internalType": "uint256",
          "name": "audits",
          "type": "uint256"
        }
      ],
      "name": "dataSubscriberPayment",
      "outputs": [],
      "stateMutability": "nonpayable",
      "type": "function"
    },
    {
      "inputs": [
        {
          "internalType": "address",
          "name": "subscriber",
          "type": "address"
        }
      ],
      "name": "returnCohortsForDataSubscriber",
      "outputs": [
        {
          "components": [
            {
              "internalType": "address",
              "name": "cohort",
              "type": "address"
            },
            {
              "internalType": "uint256",
              "name": "audits",
              "type": "uint256"
            }
          ],
          "internalType": "struct Members.DataSubscriberTypes[]",
          "name": "",
          "type": "tuple[]"
        }
      ],
      "stateMutability": "view",
      "type": "function",
      "constant": true
    },
    {
      "inputs": [
        {
          "internalType": "address[]",
          "name": "cohortAddress",
          "type": "address[]"
        },
        {
          "internalType": "uint256[]",
          "name": "audits",
          "type": "uint256[]"
        }
      ],
      "name": "dataSubscriberPaymentMultiple",
      "outputs": [],
      "stateMutability": "nonpayable",
      "type": "function"
    },
    {
      "inputs": [
        {
          "internalType": "uint256",
          "name": "amount",
          "type": "uint256"
        }
      ],
      "name": "redeem",
      "outputs": [],
      "stateMutability": "nonpayable",
      "type": "function"
    },
    {
      "inputs": [
        {
          "internalType": "address",
          "name": "user",
          "type": "address"
        },
        {
          "internalType": "string",
          "name": "name",
          "type": "string"
        },
        {
          "internalType": "enum Members.UserType",
          "name": "userType",
          "type": "uint8"
        }
      ],
      "name": "addUser",
      "outputs": [],
      "stateMutability": "nonpayable",
      "type": "function"
    },
    {
      "inputs": [],
      "name": "returnEnterpriseCount",
      "outputs": [
        {
          "internalType": "uint256",
          "name": "",
          "type": "uint256"
        }
      ],
      "stateMutability": "view",
      "type": "function",
      "constant": true
    },
    {
      "inputs": [],
      "name": "returnValidatorCount",
      "outputs": [
        {
          "internalType": "uint256",
          "name": "",
          "type": "uint256"
        }
      ],
      "stateMutability": "view",
      "type": "function",
      "constant": true
    },
    {
      "inputs": [],
      "name": "returnDataSubscriberCount",
      "outputs": [
        {
          "internalType": "uint256",
          "name": "",
          "type": "uint256"
        }
      ],
      "stateMutability": "view",
      "type": "function",
      "constant": true
    }
  ],
  "bytecode": "0x6080604052670de0b6b3a7640000600755683635c9adc5dea0000060085560286009556028600a55600f600c55613a98600e55601e600f553480156200004457600080fd5b50604051620065093803806200650983398181016040528101906200006a9190620003b3565b600073ffffffffffffffffffffffffffffffffffffffff168273ffffffffffffffffffffffffffffffffffffffff161415620000dd576040517f08c379a0000000000000000000000000000000000000000000000000000000008152600401620000d490620004c4565b60405180910390fd5b600073ffffffffffffffffffffffffffffffffffffffff168173ffffffffffffffffffffffffffffffffffffffff16141562000150576040517f08c379a00000000000000000000000000000000000000000000000000000000081526004016200014790620004e6565b60405180910390fd5b81600160006101000a81548173ffffffffffffffffffffffffffffffffffffffff021916908373ffffffffffffffffffffffffffffffffffffffff16021790555080600b60006101000a81548173ffffffffffffffffffffffffffffffffffffffff021916908373ffffffffffffffffffffffffffffffffffffffff160217905550620001e76000801b33620001ef60201b60201c565b505062000595565b6200020182826200020560201b60201c565b5050565b6200023381600080858152602001908152602001600020600001620002a860201b6200354b1790919060201c565b15620002a45762000249620002e060201b60201c565b73ffffffffffffffffffffffffffffffffffffffff168173ffffffffffffffffffffffffffffffffffffffff16837f2f8788117e7eff1d82e926ec794901d17c78024a50270940304540a733656f0d60405160405180910390a45b5050565b6000620002d8836000018373ffffffffffffffffffffffffffffffffffffffff1660001b620002e860201b60201c565b905092915050565b600033905090565b6000620002fc83836200036260201b60201c565b620003575782600001829080600181540180825580915050600190039060005260206000200160009091909190915055826000018054905083600101600084815260200190815260200160002081905550600190506200035c565b600090505b92915050565b600080836001016000848152602001908152602001600020541415905092915050565b600081519050620003968162000561565b92915050565b600081519050620003ad816200057b565b92915050565b60008060408385031215620003c757600080fd5b6000620003d7858286016200039c565b9250506020620003ea8582860162000385565b9150509250929050565b60006200040360348362000508565b91507f4d656d626572733a636f6e7374727563746f72202d20417564697420746f6b6560008301527f6e20616464726573732063616e277420626520300000000000000000000000006020830152604082019050919050565b60006200046b60318362000508565b91507f4d656d626572733a636f6e7374727563746f72202d20506c6174666f726d206160008301527f6464726573732063616e277420626520300000000000000000000000000000006020830152604082019050919050565b60006020820190508181036000830152620004df81620003f4565b9050919050565b6000602082019050818103600083015262000501816200045c565b9050919050565b600082825260208201905092915050565b6000620005268262000541565b9050919050565b60006200053a8262000519565b9050919050565b600073ffffffffffffffffffffffffffffffffffffffff82169050919050565b6200056c8162000519565b81146200057857600080fd5b50565b62000586816200052d565b81146200059257600080fd5b50565b615f6480620005a56000396000f3fe608060405234801561001057600080fd5b50600436106102bb5760003560e01c806378f5a6ae11610182578063b1e95e94116100e9578063d547741f116100a2578063dbe55e561161007c578063dbe55e561461090e578063e9b6c9751461092c578063f8838cfa1461094a578063fc7e286d14610968576102bb565b8063d547741f146108b8578063dac95d41146108d4578063db006a75146108f2576102bb565b8063b1e95e94146107bd578063be07b32e146107d9578063c173ac6014610809578063ca15c87314610827578063d3156a8514610857578063d490d80414610888576102bb565b806398c3c1161161013b57806398c3c116146106f85780639fbae28614610716578063a2011b3f14610747578063a217fddf14610765578063a694fc3a14610783578063a7579be81461079f576102bb565b806378f5a6ae146105eb57806382d51ba81461061b5780638ab134e81461064c5780638f5d1dac146106685780639010d07c1461069857806391d14854146106c8576102bb565b80633b119115116102265780634bd4545f116101df5780634bd4545f1461053d5780634d9c798c1461055b578063525d14d8146105795780635659ae58146105955780635c3e1521146105b357806374eb9cdb146105cf576102bb565b80633b1191151461046b57806340d268541461049b57806341efc2c6146104b7578063492b85cd146104e7578063495348d0146105055780634a9fcdce14610521576102bb565b80632f2ff15d116102785780632f2ff15d1461039657806332cd4244146103b25780633507abaf146103e257806335aa2e441461040057806336568abe14610431578063373d61321461044d576102bb565b8063092c5b3b146102c05780630acf09d8146102de5780630c13f833146102fc57806318d50d33146103185780631dd634d714610348578063248a9ca314610366575b600080fd5b6102c8610998565b6040516102d59190615774565b60405180910390f35b6102e66109bc565b6040516102f39190615ad5565b60405180910390f35b61031660048036038101906103119190614a53565b6109c2565b005b610332600480360381019061032d919061472c565b610ab0565b60405161033f9190615759565b60405180910390f35b610350610ad0565b60405161035d9190615ad5565b60405180910390f35b610380600480360381019061037b91906149b2565b610add565b60405161038d9190615774565b60405180910390f35b6103b060048036038101906103ab91906149db565b610afc565b005b6103cc60048036038101906103c7919061472c565b610b85565b6040516103d99190615737565b60405180910390f35b6103ea610c83565b6040516103f79190615ad5565b60405180910390f35b61041a60048036038101906104159190614a53565b610c89565b6040516104289291906156a7565b60405180910390f35b61044b600480360381019061044691906149db565b610d75565b005b610455610e0e565b6040516104629190615ad5565b60405180910390f35b6104856004803603810190610480919061472c565b610e14565b6040516104929190615759565b60405180910390f35b6104b560048036038101906104b091906147ba565b610e34565b005b6104d160048036038101906104cc919061472c565b6114ee565b6040516104de9190615ad5565b60405180910390f35b6104ef611506565b6040516104fc9190615ad5565b60405180910390f35b61051f600480360381019061051a919061472c565b61150c565b005b61053b6004803603810190610536919061490a565b611629565b005b610545611d56565b60405161055291906157aa565b60405180910390f35b610563611d7c565b6040516105709190615ad5565b60405180910390f35b610593600480360381019061058e919061489e565b611d82565b005b61059d611e54565b6040516105aa9190615ad5565b60405180910390f35b6105cd60048036038101906105c89190614aa5565b611e5a565b005b6105e960048036038101906105e49190614a53565b611f2d565b005b6106056004803603810190610600919061477e565b61201b565b6040516106129190615759565b60405180910390f35b61063560048036038101906106309190614821565b61204a565b6040516106439291906156d7565b60405180910390f35b61066660048036038101906106619190614821565b6120ab565b005b610682600480360381019061067d919061472c565b612977565b60405161068f9190615ad5565b60405180910390f35b6106b260048036038101906106ad9190614a17565b61298f565b6040516106bf9190615663565b60405180910390f35b6106e260048036038101906106dd91906149db565b6129c0565b6040516106ef9190615759565b60405180910390f35b6107006129f1565b60405161070d919061578f565b60405180910390f35b610730600480360381019061072b9190614a53565b612a17565b60405161073e9291906156a7565b60405180910390f35b61074f612b03565b60405161075c9190615774565b60405180910390f35b61076d612b27565b60405161077a9190615774565b60405180910390f35b61079d60048036038101906107989190614a53565b612b2e565b005b6107a7612f10565b6040516107b49190615ad5565b60405180910390f35b6107d760048036038101906107d29190614a53565b612f16565b005b6107f360048036038101906107ee919061472c565b613004565b6040516108009190615759565b60405180910390f35b610811613024565b60405161081e9190615ad5565b60405180910390f35b610841600480360381019061083c91906149b2565b613031565b60405161084e9190615ad5565b60405180910390f35b610871600480360381019061086c9190614a53565b613057565b60405161087f9291906156a7565b60405180910390f35b6108a2600480360381019061089d919061472c565b613143565b6040516108af9190615ad5565b60405180910390f35b6108d260048036038101906108cd91906149db565b61315b565b005b6108dc6131e4565b6040516108e99190615ad5565b60405180910390f35b61090c60048036038101906109079190614a53565b6131ea565b005b6109166134fa565b6040516109239190615663565b60405180910390f35b610934613520565b6040516109419190615ad5565b60405180910390f35b610952613526565b60405161095f9190615ad5565b60405180910390f35b610982600480360381019061097d919061472c565b613533565b60405161098f9190615ad5565b60405180910390f35b7f7b765e0e932d348852a6f810bfa1ab891e259123f02db8cdcde614c57022335781565b600d5481565b6109ec7f61c92169ef077349011ff0b1383c894d86c5f0b41d986366b58a6cf31e93beda336129c0565b610a2b576040517f08c379a0000000000000000000000000000000000000000000000000000000008152600401610a2290615955565b60405180910390fd5b6000811415610a6f576040517f08c379a0000000000000000000000000000000000000000000000000000000008152600401610a6690615855565b60405180910390fd5b80600e819055507f993e68e99eaf9d58cf27bbe7a3e2392d07c3fcddc07ed570962f7702b592c24a81604051610aa59190615ad5565b60405180910390a150565b60146020528060005260406000206000915054906101000a900460ff1681565b6000601680549050905090565b6000806000838152602001908152602001600020600201549050919050565b610b2260008084815260200190815260200160002060020154610b1d61357b565b6129c0565b610b77576040517f08c379a000000000000000000000000000000000000000000000000000000000815260040180806020018281038252602f815260200180615e30602f913960400191505060405180910390fd5b610b818282613583565b5050565b6060600560008373ffffffffffffffffffffffffffffffffffffffff1673ffffffffffffffffffffffffffffffffffffffff168152602001908152602001600020805480602002602001604051908101604052809291908181526020016000905b82821015610c7857838290600052602060002090600202016040518060400160405290816000820160009054906101000a900473ffffffffffffffffffffffffffffffffffffffff1673ffffffffffffffffffffffffffffffffffffffff1673ffffffffffffffffffffffffffffffffffffffff16815260200160018201548152505081526020019060010190610be6565b505050509050919050565b600c5481565b60138181548110610c9957600080fd5b90600052602060002090600202016000915090508060000160009054906101000a900473ffffffffffffffffffffffffffffffffffffffff1690806001018054600181600116156101000203166002900480601f016020809104026020016040519081016040528092919081815260200182805460018160011615610100020316600290048015610d6b5780601f10610d4057610100808354040283529160200191610d6b565b820191906000526020600020905b815481529060010190602001808311610d4e57829003601f168201915b5050505050905082565b610d7d61357b565b73ffffffffffffffffffffffffffffffffffffffff168173ffffffffffffffffffffffffffffffffffffffff1614610e00576040517f08c379a000000000000000000000000000000000000000000000000000000000815260040180806020018281038252602f815260200180615f00602f913960400191505060405180910390fd5b610e0a8282613616565b5050565b60035481565b60176020528060005260406000206000915054906101000a900460ff1681565b610e5e7f7b765e0e932d348852a6f810bfa1ab891e259123f02db8cdcde614c570223357336129c0565b610e9d576040517f08c379a0000000000000000000000000000000000000000000000000000000008152600401610e94906159f5565b60405180910390fd5b610ea5614394565b83816000019073ffffffffffffffffffffffffffffffffffffffff16908173ffffffffffffffffffffffffffffffffffffffff1681525050828160200181905250600280811115610ef257fe5b826002811115610efe57fe5b14156110cc57601760008573ffffffffffffffffffffffffffffffffffffffff1673ffffffffffffffffffffffffffffffffffffffff16815260200190815260200160002060009054906101000a900460ff1615610f91576040517f08c379a0000000000000000000000000000000000000000000000000000000008152600401610f88906158d5565b60405180910390fd5b601681908060018154018082558091505060019003906000526020600020906002020160009091909190915060008201518160000160006101000a81548173ffffffffffffffffffffffffffffffffffffffff021916908373ffffffffffffffffffffffffffffffffffffffff16021790555060208201518160010190805190602001906110209291906143c4565b5050506001601760008673ffffffffffffffffffffffffffffffffffffffff1673ffffffffffffffffffffffffffffffffffffffff16815260200190815260200160002060006101000a81548160ff021916908315150217905550600160168054905003601860008673ffffffffffffffffffffffffffffffffffffffff1673ffffffffffffffffffffffffffffffffffffffff16815260200190815260200160002081905550611498565b600160028111156110d957fe5b8260028111156110e557fe5b14156112b357601460008573ffffffffffffffffffffffffffffffffffffffff1673ffffffffffffffffffffffffffffffffffffffff16815260200190815260200160002060009054906101000a900460ff1615611178576040517f08c379a000000000000000000000000000000000000000000000000000000000815260040161116f90615835565b60405180910390fd5b601381908060018154018082558091505060019003906000526020600020906002020160009091909190915060008201518160000160006101000a81548173ffffffffffffffffffffffffffffffffffffffff021916908373ffffffffffffffffffffffffffffffffffffffff16021790555060208201518160010190805190602001906112079291906143c4565b5050506001601460008673ffffffffffffffffffffffffffffffffffffffff1673ffffffffffffffffffffffffffffffffffffffff16815260200190815260200160002060006101000a81548160ff021916908315150217905550600160138054905003601560008673ffffffffffffffffffffffffffffffffffffffff1673ffffffffffffffffffffffffffffffffffffffff16815260200190815260200160002081905550611497565b600060028111156112c057fe5b8260028111156112cc57fe5b141561149657601160008573ffffffffffffffffffffffffffffffffffffffff1673ffffffffffffffffffffffffffffffffffffffff16815260200190815260200160002060009054906101000a900460ff161561135f576040517f08c379a0000000000000000000000000000000000000000000000000000000008152600401611356906158b5565b60405180910390fd5b601081908060018154018082558091505060019003906000526020600020906002020160009091909190915060008201518160000160006101000a81548173ffffffffffffffffffffffffffffffffffffffff021916908373ffffffffffffffffffffffffffffffffffffffff16021790555060208201518160010190805190602001906113ee9291906143c4565b5050506001601160008673ffffffffffffffffffffffffffffffffffffffff1673ffffffffffffffffffffffffffffffffffffffff16815260200190815260200160002060006101000a81548160ff021916908315150217905550600160108054905003601260008673ffffffffffffffffffffffffffffffffffffffff1673ffffffffffffffffffffffffffffffffffffffff168152602001908152602001600020819055505b5b5b8373ffffffffffffffffffffffffffffffffffffffff167f8897d4c16f6b907647cc92f3b2f80418ac81581b8e74f9dda595d3910b44c86284846040516114e09291906157c5565b60405180910390a250505050565b60186020528060005260406000206000915090505481565b60085481565b6115367f7b765e0e932d348852a6f810bfa1ab891e259123f02db8cdcde614c570223357336129c0565b611575576040517f08c379a000000000000000000000000000000000000000000000000000000000815260040161156c906159f5565b60405180910390fd5b600073ffffffffffffffffffffffffffffffffffffffff168173ffffffffffffffffffffffffffffffffffffffff1614156115e5576040517f08c379a00000000000000000000000000000000000000000000000000000000081526004016115dc90615935565b60405180910390fd5b80600260006101000a81548173ffffffffffffffffffffffffffffffffffffffff021916908373ffffffffffffffffffffffffffffffffffffffff16021790555050565b6116537f7b765e0e932d348852a6f810bfa1ab891e259123f02db8cdcde614c570223357336129c0565b611692576040517f08c379a0000000000000000000000000000000000000000000000000000000008152600401611689906159f5565b60405180910390fd5b600073ffffffffffffffffffffffffffffffffffffffff168173ffffffffffffffffffffffffffffffffffffffff161415611702576040517f08c379a00000000000000000000000000000000000000000000000000000000081526004016116f990615975565b60405180910390fd5b8151835114611746576040517f08c379a000000000000000000000000000000000000000000000000000000000815260040161173d90615815565b60405180910390fd5b6000808273ffffffffffffffffffffffffffffffffffffffff16639478a8c06040518163ffffffff1660e01b8152600401602060405180830381600087803b15801561179157600080fd5b505af11580156117a5573d6000803e3d6000fd5b505050506040513d601f19601f820116820180604052508101906117c99190614755565b90508273ffffffffffffffffffffffffffffffffffffffff16632faa66196040518163ffffffff1660e01b8152600401600060405180830381600087803b15801561181357600080fd5b505af1158015611827573d6000803e3d6000fd5b50505050600080600090505b8651811015611ab057600073ffffffffffffffffffffffffffffffffffffffff1687828151811061186057fe5b602002602001015173ffffffffffffffffffffffffffffffffffffffff1614156118bf576040517f08c379a00000000000000000000000000000000000000000000000000000000081526004016118b6906159b5565b60405180910390fd5b60006118fd6127106118ef600e548a86815181106118d957fe5b60200260200101516136a990919063ffffffff16565b61372f90919063ffffffff16565b905061191281846137b890919063ffffffff16565b925061199e8161199089858151811061192757fe5b6020026020010151600460008d888151811061193f57fe5b602002602001015173ffffffffffffffffffffffffffffffffffffffff1673ffffffffffffffffffffffffffffffffffffffff168152602001908152602001600020546137b890919063ffffffff16565b6137b890919063ffffffff16565b600460008a85815181106119ae57fe5b602002602001015173ffffffffffffffffffffffffffffffffffffffff1673ffffffffffffffffffffffffffffffffffffffff16815260200190815260200160002081905550611a1a878381518110611a0357fe5b6020026020010151866137b890919063ffffffff16565b9450878281518110611a2857fe5b602002602001015173ffffffffffffffffffffffffffffffffffffffff167f764a965eb8edef713db93e80a1a5eef9a4891c74b26bfb68d0bf12ffc30c9ee4611a8d838a8681518110611a7757fe5b60200260200101516137b890919063ffffffff16565b604051611a9a9190615ad5565b60405180910390a2508080600101915050611833565b50611b0381600460008573ffffffffffffffffffffffffffffffffffffffff1673ffffffffffffffffffffffffffffffffffffffff1681526020019081526020016000205461384090919063ffffffff16565b600460008473ffffffffffffffffffffffffffffffffffffffff1673ffffffffffffffffffffffffffffffffffffffff168152602001908152602001600020819055506000611b706055611b62600c54876136a990919063ffffffff16565b61372f90919063ffffffff16565b905043600d81905550600160009054906101000a900473ffffffffffffffffffffffffffffffffffffffff1673ffffffffffffffffffffffffffffffffffffffff166340c10f19600b60009054906101000a900473ffffffffffffffffffffffffffffffffffffffff16836040518363ffffffff1660e01b8152600401611bf89291906156d7565b602060405180830381600087803b158015611c1257600080fd5b505af1158015611c26573d6000803e3d6000fd5b505050506040513d601f19601f82011682018060405250810190611c4a9190614989565b50600160009054906101000a900473ffffffffffffffffffffffffffffffffffffffff1673ffffffffffffffffffffffffffffffffffffffff166340c10f1930866040518363ffffffff1660e01b8152600401611ca89291906156d7565b602060405180830381600087803b158015611cc257600080fd5b505af1158015611cd6573d6000803e3d6000fd5b505050506040513d601f19601f82011682018060405250810190611cfa9190614989565b508273ffffffffffffffffffffffffffffffffffffffff167f474e6e877135ae827a16b786fc98e0c36d2bb2d99251cba405b5f50418981491868685604051611d4593929190615700565b60405180910390a250505050505050565b600260009054906101000a900473ffffffffffffffffffffffffffffffffffffffff1681565b60075481565b600082519050610100811115611dcd576040517f08c379a0000000000000000000000000000000000000000000000000000000008152600401611dc490615915565b60405180910390fd5b60005b81811015611e1557611e08848281518110611de757fe5b6020026020010151848381518110611dfb57fe5b60200260200101516120ab565b8080600101915050611dd0565b507fe0b9e94ab5fbe92a5c1fcdc7f3dba88b173c784bda0772e4998afde0085752683382604051611e4792919061567e565b60405180910390a1505050565b600f5481565b611e847f61c92169ef077349011ff0b1383c894d86c5f0b41d986366b58a6cf31e93beda336129c0565b611ec3576040517f08c379a0000000000000000000000000000000000000000000000000000000008152600401611eba90615955565b60405180910390fd5b6064611eda600a54846137b890919063ffffffff16565b1115611f1b576040517f08c379a0000000000000000000000000000000000000000000000000000000008152600401611f12906157f5565b60405180910390fd5b8160098190555080600a819055505050565b611f577f61c92169ef077349011ff0b1383c894d86c5f0b41d986366b58a6cf31e93beda336129c0565b611f96576040517f08c379a0000000000000000000000000000000000000000000000000000000008152600401611f8d90615955565b60405180910390fd5b6000811415611fda576040517f08c379a0000000000000000000000000000000000000000000000000000000008152600401611fd190615a35565b60405180910390fd5b80600f819055507f3ef37ec580f71948d160049e31c67ac1e6fc9711038f837710cdfaf9074d7b85816040516120109190615ad5565b60405180910390a150565b60066020528160005260406000206020528060005260406000206000915091509054906101000a900460ff1681565b6005602052816000526040600020818154811061206657600080fd5b9060005260206000209060020201600091509150508060000160009054906101000a900473ffffffffffffffffffffffffffffffffffffffff16908060010154905082565b600073ffffffffffffffffffffffffffffffffffffffff168273ffffffffffffffffffffffffffffffffffffffff16141561211b576040517f08c379a0000000000000000000000000000000000000000000000000000000008152600401612112906159d5565b60405180910390fd5b6000811015801561212d575060058111155b61216c576040517f08c379a000000000000000000000000000000000000000000000000000000000815260040161216390615a55565b60405180910390fd5b600660003373ffffffffffffffffffffffffffffffffffffffff1673ffffffffffffffffffffffffffffffffffffffff16815260200190815260200160002060008373ffffffffffffffffffffffffffffffffffffffff1673ffffffffffffffffffffffffffffffffffffffff16815260200190815260200160002060009054906101000a900460ff1615612236576040517f08c379a000000000000000000000000000000000000000000000000000000000815260040161222d906158f5565b60405180910390fd5b601760003373ffffffffffffffffffffffffffffffffffffffff1673ffffffffffffffffffffffffffffffffffffffff16815260200190815260200160002060009054906101000a900460ff166122c2576040517f08c379a00000000000000000000000000000000000000000000000000000000081526004016122b990615875565b60405180910390fd5b6123133330600854600160009054906101000a900473ffffffffffffffffffffffffffffffffffffffff1673ffffffffffffffffffffffffffffffffffffffff166138c3909392919063ffffffff16565b6123d2600b60009054906101000a900473ffffffffffffffffffffffffffffffffffffffff1661238a606461237c61236b600a5461235d600954606461384090919063ffffffff16565b61384090919063ffffffff16565b6008546136a990919063ffffffff16565b61372f90919063ffffffff16565b600160009054906101000a900473ffffffffffffffffffffffffffffffffffffffff1673ffffffffffffffffffffffffffffffffffffffff166139849092919063ffffffff16565b601460003373ffffffffffffffffffffffffffffffffffffffff1673ffffffffffffffffffffffffffffffffffffffff16815260200190815260200160002060009054906101000a900460ff16806124735750601160003373ffffffffffffffffffffffffffffffffffffffff1673ffffffffffffffffffffffffffffffffffffffff16815260200190815260200160002060009054906101000a900460ff165b1561252d5761248f60085460035461384090919063ffffffff16565b6003819055506124e9600854600460003373ffffffffffffffffffffffffffffffffffffffff1673ffffffffffffffffffffffffffffffffffffffff1681526020019081526020016000205461384090919063ffffffff16565b600460003373ffffffffffffffffffffffffffffffffffffffff1673ffffffffffffffffffffffffffffffffffffffff168152602001908152602001600020819055505b60008273ffffffffffffffffffffffffffffffffffffffff16639478a8c06040518163ffffffff1660e01b8152600401602060405180830381600087803b15801561257757600080fd5b505af115801561258b573d6000803e3d6000fd5b505050506040513d601f19601f820116820180604052508101906125af9190614755565b905060006125dd60646125cf6009546008546136a990919063ffffffff16565b61372f90919063ffffffff16565b905061263181600460008573ffffffffffffffffffffffffffffffffffffffff1673ffffffffffffffffffffffffffffffffffffffff168152602001908152602001600020546137b890919063ffffffff16565b600460008473ffffffffffffffffffffffffffffffffffffffff1673ffffffffffffffffffffffffffffffffffffffff168152602001908152602001600020819055506126a7846126a26064612694600a546008546136a990919063ffffffff16565b61372f90919063ffffffff16565b613a26565b600560003373ffffffffffffffffffffffffffffffffffffffff1673ffffffffffffffffffffffffffffffffffffffff1681526020019081526020016000206001816001815401808255809150500390600052602060002090505083600560003373ffffffffffffffffffffffffffffffffffffffff1673ffffffffffffffffffffffffffffffffffffffff1681526020019081526020016000206001600560003373ffffffffffffffffffffffffffffffffffffffff1673ffffffffffffffffffffffffffffffffffffffff16815260200190815260200160002080549050038154811061279257fe5b906000526020600020906002020160000160006101000a81548173ffffffffffffffffffffffffffffffffffffffff021916908373ffffffffffffffffffffffffffffffffffffffff16021790555082600560003373ffffffffffffffffffffffffffffffffffffffff1673ffffffffffffffffffffffffffffffffffffffff1681526020019081526020016000206001600560003373ffffffffffffffffffffffffffffffffffffffff1673ffffffffffffffffffffffffffffffffffffffff16815260200190815260200160002080549050038154811061287157fe5b9060005260206000209060020201600101819055506001600660003373ffffffffffffffffffffffffffffffffffffffff1673ffffffffffffffffffffffffffffffffffffffff16815260200190815260200160002060008673ffffffffffffffffffffffffffffffffffffffff1673ffffffffffffffffffffffffffffffffffffffff16815260200190815260200160002060006101000a81548160ff0219169083151502179055503373ffffffffffffffffffffffffffffffffffffffff167f7833ac38b85d1f3dfe4f67a3a0d6d37d2ea07d1211d4d1ff478800902fd9e5af6008548685856040516129699493929190615af0565b60405180910390a250505050565b60156020528060005260406000206000915090505481565b60006129b882600080868152602001908152602001600020600001613d6890919063ffffffff16565b905092915050565b60006129e982600080868152602001908152602001600020600001613d8290919063ffffffff16565b905092915050565b600160009054906101000a900473ffffffffffffffffffffffffffffffffffffffff1681565b60108181548110612a2757600080fd5b90600052602060002090600202016000915090508060000160009054906101000a900473ffffffffffffffffffffffffffffffffffffffff1690806001018054600181600116156101000203166002900480601f016020809104026020016040519081016040528092919081815260200182805460018160011615610100020316600290048015612af95780601f10612ace57610100808354040283529160200191612af9565b820191906000526020600020905b815481529060010190602001808311612adc57829003601f168201915b5050505050905082565b7f61c92169ef077349011ff0b1383c894d86c5f0b41d986366b58a6cf31e93beda81565b6000801b81565b60008111612b71576040517f08c379a0000000000000000000000000000000000000000000000000000000008152600401612b6890615ab5565b60405180910390fd5b601460003373ffffffffffffffffffffffffffffffffffffffff1673ffffffffffffffffffffffffffffffffffffffff16815260200190815260200160002060009054906101000a900460ff1615612ce05769010f0cf064dd59200000600460003373ffffffffffffffffffffffffffffffffffffffff1673ffffffffffffffffffffffffffffffffffffffff1681526020019081526020016000205482011015612c51576040517f08c379a0000000000000000000000000000000000000000000000000000000008152600401612c4890615995565b60405180910390fd5b69054b40b1f852bda00000600460003373ffffffffffffffffffffffffffffffffffffffff1673ffffffffffffffffffffffffffffffffffffffff1681526020019081526020016000205482011115612cdf576040517f08c379a0000000000000000000000000000000000000000000000000000000008152600401612cd690615a95565b60405180910390fd5b5b601460003373ffffffffffffffffffffffffffffffffffffffff1673ffffffffffffffffffffffffffffffffffffffff16815260200190815260200160002060009054906101000a900460ff1680612d815750601160003373ffffffffffffffffffffffffffffffffffffffff1673ffffffffffffffffffffffffffffffffffffffff16815260200190815260200160002060009054906101000a900460ff165b612dc0576040517f08c379a0000000000000000000000000000000000000000000000000000000008152600401612db790615895565b60405180910390fd5b612dd5816003546137b890919063ffffffff16565b600381905550612e2a333083600160009054906101000a900473ffffffffffffffffffffffffffffffffffffffff1673ffffffffffffffffffffffffffffffffffffffff166138c3909392919063ffffffff16565b612e7c81600460003373ffffffffffffffffffffffffffffffffffffffff1673ffffffffffffffffffffffffffffffffffffffff168152602001908152602001600020546137b890919063ffffffff16565b600460003373ffffffffffffffffffffffffffffffffffffffff1673ffffffffffffffffffffffffffffffffffffffff168152602001908152602001600020819055503373ffffffffffffffffffffffffffffffffffffffff167f3916187166447a01764df803fb1147a37c55a4ca1c7271a7a75c0ab1079b2d9582604051612f059190615ad5565b60405180910390a250565b600e5481565b612f407f61c92169ef077349011ff0b1383c894d86c5f0b41d986366b58a6cf31e93beda336129c0565b612f7f576040517f08c379a0000000000000000000000000000000000000000000000000000000008152600401612f7690615955565b60405180910390fd5b6000811415612fc3576040517f08c379a0000000000000000000000000000000000000000000000000000000008152600401612fba90615a15565b60405180910390fd5b806007819055507f297b2b35bd089c3afcbe21d2741e8421d5e980a7b157d5a3544abb25c4fe47b481604051612ff99190615ad5565b60405180910390a150565b60116020528060005260406000206000915054906101000a900460ff1681565b6000601080549050905090565b6000613050600080848152602001908152602001600020600001613db2565b9050919050565b6016818154811061306757600080fd5b90600052602060002090600202016000915090508060000160009054906101000a900473ffffffffffffffffffffffffffffffffffffffff1690806001018054600181600116156101000203166002900480601f0160208091040260200160405190810160405280929190818152602001828054600181600116156101000203166002900480156131395780601f1061310e57610100808354040283529160200191613139565b820191906000526020600020905b81548152906001019060200180831161311c57829003601f168201915b5050505050905082565b60126020528060005260406000206000915090505481565b6131816000808481526020019081526020016000206002015461317c61357b565b6129c0565b6131d6576040517f08c379a0000000000000000000000000000000000000000000000000000000008152600401808060200182810382526030815260200180615e856030913960400191505060405180910390fd5b6131e08282613616565b5050565b60095481565b601160003373ffffffffffffffffffffffffffffffffffffffff1673ffffffffffffffffffffffffffffffffffffffff16815260200190815260200160002060009054906101000a900460ff16156133ac578061336a61331c61271061330e600260009054906101000a900473ffffffffffffffffffffffffffffffffffffffff1673ffffffffffffffffffffffffffffffffffffffff1663c535124e6040518163ffffffff1660e01b815260040160206040518083038186803b1580156132b157600080fd5b505afa1580156132c5573d6000803e3d6000fd5b505050506040513d601f19601f820116820180604052508101906132e99190614a7c565b613300600754600e546136a990919063ffffffff16565b6136a990919063ffffffff16565b61372f90919063ffffffff16565b600460003373ffffffffffffffffffffffffffffffffffffffff1673ffffffffffffffffffffffffffffffffffffffff1681526020019081526020016000205461384090919063ffffffff16565b10156133ab576040517f08c379a00000000000000000000000000000000000000000000000000000000081526004016133a290615a75565b60405180910390fd5b5b6133c18160035461384090919063ffffffff16565b60038190555061341981600460003373ffffffffffffffffffffffffffffffffffffffff1673ffffffffffffffffffffffffffffffffffffffff1681526020019081526020016000205461384090919063ffffffff16565b600460003373ffffffffffffffffffffffffffffffffffffffff1673ffffffffffffffffffffffffffffffffffffffff168152602001908152602001600020819055506134a93382600160009054906101000a900473ffffffffffffffffffffffffffffffffffffffff1673ffffffffffffffffffffffffffffffffffffffff166139849092919063ffffffff16565b3373ffffffffffffffffffffffffffffffffffffffff167f857a4bd4d7b4553d36107a81e2fdc06c87eee30a74c23d62f1ca89ce3b9ed0ae826040516134ef9190615ad5565b60405180910390a250565b600b60009054906101000a900473ffffffffffffffffffffffffffffffffffffffff1681565b600a5481565b6000601380549050905090565b60046020528060005260406000206000915090505481565b6000613573836000018373ffffffffffffffffffffffffffffffffffffffff1660001b613dc7565b905092915050565b600033905090565b6135aa8160008085815260200190815260200160002060000161354b90919063ffffffff16565b15613612576135b761357b565b73ffffffffffffffffffffffffffffffffffffffff168173ffffffffffffffffffffffffffffffffffffffff16837f2f8788117e7eff1d82e926ec794901d17c78024a50270940304540a733656f0d60405160405180910390a45b5050565b61363d81600080858152602001908152602001600020600001613e3790919063ffffffff16565b156136a55761364a61357b565b73ffffffffffffffffffffffffffffffffffffffff168173ffffffffffffffffffffffffffffffffffffffff16837ff6391f5c32d9c69d2a47ea670b442974b53935d1edc7fd64eb21e047a839171b60405160405180910390a45b5050565b6000808314156136bc5760009050613729565b60008284029050828482816136cd57fe5b0414613724576040517f08c379a0000000000000000000000000000000000000000000000000000000008152600401808060200182810382526021815260200180615eb56021913960400191505060405180910390fd5b809150505b92915050565b60008082116137a6576040517f08c379a000000000000000000000000000000000000000000000000000000000815260040180806020018281038252601a8152602001807f536166654d6174683a206469766973696f6e206279207a65726f00000000000081525060200191505060405180910390fd5b8183816137af57fe5b04905092915050565b600080828401905083811015613836576040517f08c379a000000000000000000000000000000000000000000000000000000000815260040180806020018281038252601b8152602001807f536166654d6174683a206164646974696f6e206f766572666c6f77000000000081525060200191505060405180910390fd5b8091505092915050565b6000828211156138b8576040517f08c379a000000000000000000000000000000000000000000000000000000000815260040180806020018281038252601e8152602001807f536166654d6174683a207375627472616374696f6e206f766572666c6f77000081525060200191505060405180910390fd5b818303905092915050565b61397e846323b872dd60e01b858585604051602401808473ffffffffffffffffffffffffffffffffffffffff1681526020018373ffffffffffffffffffffffffffffffffffffffff1681526020018281526020019350505050604051602081830303815290604052907bffffffffffffffffffffffffffffffffffffffffffffffffffffffff19166020820180517bffffffffffffffffffffffffffffffffffffffffffffffffffffffff8381831617835250505050613e67565b50505050565b613a218363a9059cbb60e01b8484604051602401808373ffffffffffffffffffffffffffffffffffffffff16815260200182815260200192505050604051602081830303815290604052907bffffffffffffffffffffffffffffffffffffffffffffffffffffffff19166020820180517bffffffffffffffffffffffffffffffffffffffffffffffffffffffff8381831617835250505050613e67565b505050565b60008273ffffffffffffffffffffffffffffffffffffffff1663ebb33a816040518163ffffffff1660e01b815260040160006040518083038186803b158015613a6e57600080fd5b505afa158015613a82573d6000803e3d6000fd5b505050506040513d6000823e3d601f19601f82011682018060405250810190613aab919061485d565b9050600080600090505b8251811015613b3257613b2360046000858481518110613ad157fe5b602002602001015173ffffffffffffffffffffffffffffffffffffffff1673ffffffffffffffffffffffffffffffffffffffff16815260200190815260200160002054836137b890919063ffffffff16565b91508080600101915050613ab5565b5060005b8251811015613d61576000613bc083613bb2678ac7230489e8000060046000898881518110613b6157fe5b602002602001015173ffffffffffffffffffffffffffffffffffffffff1673ffffffffffffffffffffffffffffffffffffffff168152602001908152602001600020546136a990919063ffffffff16565b61372f90919063ffffffff16565b90506000613bf1678ac7230489e80000613be384896136a990919063ffffffff16565b61372f90919063ffffffff16565b9050613c99613c38678ac7230489e80000613c2a6064613c1c866008546136a990919063ffffffff16565b61372f90919063ffffffff16565b61372f90919063ffffffff16565b60046000888781518110613c4857fe5b602002602001015173ffffffffffffffffffffffffffffffffffffffff1673ffffffffffffffffffffffffffffffffffffffff168152602001908152602001600020546137b890919063ffffffff16565b60046000878681518110613ca957fe5b602002602001015173ffffffffffffffffffffffffffffffffffffffff1673ffffffffffffffffffffffffffffffffffffffff16815260200190815260200160002081905550848381518110613cfb57fe5b602002602001015173ffffffffffffffffffffffffffffffffffffffff167f3e4fd36a8c6a5f774423977e7d7e6badc0d7f8972efdaa142830e6048bdcdd523383604051613d4a92919061567e565b60405180910390a250508080600101915050613b36565b5050505050565b6000613d778360000183613f56565b60001c905092915050565b6000613daa836000018373ffffffffffffffffffffffffffffffffffffffff1660001b613fd9565b905092915050565b6000613dc082600001613ffc565b9050919050565b6000613dd38383613fd9565b613e2c578260000182908060018154018082558091505060019003906000526020600020016000909190919091505582600001805490508360010160008481526020019081526020016000208190555060019050613e31565b600090505b92915050565b6000613e5f836000018373ffffffffffffffffffffffffffffffffffffffff1660001b61400d565b905092915050565b6000613ec9826040518060400160405280602081526020017f5361666545524332303a206c6f772d6c6576656c2063616c6c206661696c65648152508573ffffffffffffffffffffffffffffffffffffffff166140f59092919063ffffffff16565b9050600081511115613f5157808060200190516020811015613eea57600080fd5b8101908080519060200190929190505050613f50576040517f08c379a000000000000000000000000000000000000000000000000000000000815260040180806020018281038252602a815260200180615ed6602a913960400191505060405180910390fd5b5b505050565b600081836000018054905011613fb7576040517f08c379a0000000000000000000000000000000000000000000000000000000008152600401808060200182810382526022815260200180615e0e6022913960400191505060405180910390fd5b826000018281548110613fc657fe5b9060005260206000200154905092915050565b600080836001016000848152602001908152602001600020541415905092915050565b600081600001805490509050919050565b600080836001016000848152602001908152602001600020549050600081146140e9576000600182039050600060018660000180549050039050600086600001828154811061405857fe5b906000526020600020015490508087600001848154811061407557fe5b90600052602060002001819055506001830187600101600083815260200190815260200160002081905550866000018054806140ad57fe5b600190038181906000526020600020016000905590558660010160008781526020019081526020016000206000905560019450505050506140ef565b60009150505b92915050565b6060614104848460008561410d565b90509392505050565b606082471015614168576040517f08c379a0000000000000000000000000000000000000000000000000000000008152600401808060200182810382526026815260200180615e5f6026913960400191505060405180910390fd5b614171856142b5565b6141e3576040517f08c379a000000000000000000000000000000000000000000000000000000000815260040180806020018281038252601d8152602001807f416464726573733a2063616c6c20746f206e6f6e2d636f6e747261637400000081525060200191505060405180910390fd5b6000808673ffffffffffffffffffffffffffffffffffffffff1685876040518082805190602001908083835b60208310614232578051825260208201915060208101905060208303925061420f565b6001836020036101000a03801982511681845116808217855250505050505090500191505060006040518083038185875af1925050503d8060008114614294576040519150601f19603f3d011682016040523d82523d6000602084013e614299565b606091505b50915091506142a98282866142c8565b92505050949350505050565b600080823b905060008111915050919050565b606083156142d85782905061438d565b6000835111156142eb5782518084602001fd5b816040517f08c379a00000000000000000000000000000000000000000000000000000000081526004018080602001828103825283818151815260200191508051906020019080838360005b83811015614352578082015181840152602081019050614337565b50505050905090810190601f16801561437f5780820380516001836020036101000a031916815260200191505b509250505060405180910390fd5b9392505050565b6040518060400160405280600073ffffffffffffffffffffffffffffffffffffffff168152602001606081525090565b828054600181600116156101000203166002900490600052602060002090601f0160209004810192826143fa5760008555614441565b82601f1061441357805160ff1916838001178555614441565b82800160010185558215614441579182015b82811115614440578251825591602001919060010190614425565b5b50905061444e9190614452565b5090565b5b8082111561446b576000816000905550600101614453565b5090565b600061448261447d84615b66565b615b35565b905080838252602082019050828560208602820111156144a157600080fd5b60005b858110156144d157816144b788826145f1565b8452602084019350602083019250506001810190506144a4565b5050509392505050565b60006144ee6144e984615b66565b615b35565b9050808382526020820190508285602086028201111561450d57600080fd5b60005b8581101561453d57816145238882614606565b845260208401935060208301925050600181019050614510565b5050509392505050565b600061455a61455584615b92565b615b35565b9050808382526020820190508285602086028201111561457957600080fd5b60005b858110156145a9578161458f8882614702565b84526020840193506020830192505060018101905061457c565b5050509392505050565b60006145c66145c184615bbe565b615b35565b9050828152602081018484840111156145de57600080fd5b6145e9848285615d38565b509392505050565b60008135905061460081615da1565b92915050565b60008151905061461581615da1565b92915050565b600082601f83011261462c57600080fd5b813561463c84826020860161446f565b91505092915050565b600082601f83011261465657600080fd5b81516146668482602086016144db565b91505092915050565b600082601f83011261468057600080fd5b8135614690848260208601614547565b91505092915050565b6000815190506146a881615db8565b92915050565b6000813590506146bd81615dcf565b92915050565b6000813590506146d281615de6565b92915050565b600082601f8301126146e957600080fd5b81356146f98482602086016145b3565b91505092915050565b60008135905061471181615df6565b92915050565b60008151905061472681615df6565b92915050565b60006020828403121561473e57600080fd5b600061474c848285016145f1565b91505092915050565b60006020828403121561476757600080fd5b600061477584828501614606565b91505092915050565b6000806040838503121561479157600080fd5b600061479f858286016145f1565b92505060206147b0858286016145f1565b9150509250929050565b6000806000606084860312156147cf57600080fd5b60006147dd868287016145f1565b935050602084013567ffffffffffffffff8111156147fa57600080fd5b614806868287016146d8565b9250506040614817868287016146c3565b9150509250925092565b6000806040838503121561483457600080fd5b6000614842858286016145f1565b925050602061485385828601614702565b9150509250929050565b60006020828403121561486f57600080fd5b600082015167ffffffffffffffff81111561488957600080fd5b61489584828501614645565b91505092915050565b600080604083850312156148b157600080fd5b600083013567ffffffffffffffff8111156148cb57600080fd5b6148d78582860161461b565b925050602083013567ffffffffffffffff8111156148f457600080fd5b6149008582860161466f565b9150509250929050565b60008060006060848603121561491f57600080fd5b600084013567ffffffffffffffff81111561493957600080fd5b6149458682870161461b565b935050602084013567ffffffffffffffff81111561496257600080fd5b61496e8682870161466f565b925050604061497f868287016145f1565b9150509250925092565b60006020828403121561499b57600080fd5b60006149a984828501614699565b91505092915050565b6000602082840312156149c457600080fd5b60006149d2848285016146ae565b91505092915050565b600080604083850312156149ee57600080fd5b60006149fc858286016146ae565b9250506020614a0d858286016145f1565b9150509250929050565b60008060408385031215614a2a57600080fd5b6000614a38858286016146ae565b9250506020614a4985828601614702565b9150509250929050565b600060208284031215614a6557600080fd5b6000614a7384828501614702565b91505092915050565b600060208284031215614a8e57600080fd5b6000614a9c84828501614717565b91505092915050565b60008060408385031215614ab857600080fd5b6000614ac685828601614702565b9250506020614ad785828601614702565b9150509250929050565b6000614aed8383615616565b60408301905092915050565b614b0281615ca8565b82525050565b614b1181615c43565b82525050565b614b2081615c43565b82525050565b6000614b3182615bfe565b614b3b8185615c21565b9350614b4683615bee565b8060005b83811015614b77578151614b5e8882614ae1565b9750614b6983615c14565b925050600181019050614b4a565b5085935050505092915050565b614b8d81615c55565b82525050565b614b9c81615c61565b82525050565b614bab81615cba565b82525050565b614bba81615cde565b82525050565b614bc981615d02565b82525050565b6000614bda82615c09565b614be48185615c32565b9350614bf4818560208601615d47565b614bfd81615d7c565b840191505092915050565b6000614c15603883615c32565b91507f456e746572707269736520616e642056616c696461746f72207368617265732060008301527f63616e2774206265206c6172676572207468616e2031303000000000000000006020830152604082019050919050565b6000614c7b606c83615c32565b91507f4d656d626572733a7570646174654461696c794561726e696e67735472616e7360008301527f66657246756e6473202d204c697374206f662076616c696461746f727320646f60208301527f65736e2774206d61746368206c69737420206f6620746865697220726573706560408301527f637469766520746f6b656e7300000000000000000000000000000000000000006060830152608082019050919050565b6000614d2d602f83615c32565b91507f4d656d626572733a61646455736572202d20546869732056616c696461746f7260008301527f20616c72656164792065786973742e00000000000000000000000000000000006020830152604082019050919050565b6000614d93604c83615c32565b91507f4d656d626572733a7570646174654d696e4465706f73697444617973202d204e60008301527f65772076616c756520666f722074686520656e7465727072697365206d61746360208301527f682063616e2774206265203000000000000000000000000000000000000000006040830152606082019050919050565b6000614e1f604783615c32565b91507f4d656d626572733a64617461537562736372696265725061796d656e74202d2060008301527f596f75206861766520746f20726567697374657220617320646174612073756260208301527f73637269626572000000000000000000000000000000000000000000000000006040830152606082019050919050565b6000614eab604a83615c32565b91507f5374616b696e673a7374616b65202d205573657220686173206265656e206e6f60008301527f74207265676973746572656420617320612076616c696461746f72206f72206560208301527f6e74657270726973652e000000000000000000000000000000000000000000006040830152606082019050919050565b6000614f37603083615c32565b91507f4d656d626572733a61646455736572202d205468697320456e7465727072697360008301527f6520616c72656164792065786973742e000000000000000000000000000000006020830152604082019050919050565b6000614f9d603583615c32565b91507f4d656d626572733a61646455736572202d20546869732044617461205375627360008301527f63726962657220616c72656164792065786973742e00000000000000000000006020830152604082019050919050565b6000615003603a83615c32565b91507f4d656d626572733a64617461537562736372696265725061796d656e74202d2060008301527f596f752061726520616c726561647920737562736372696265640000000000006020830152604082019050919050565b6000615069603483615c32565b91507f4d656d626572732d64617461537562736372696265725061796d656e744d756c60008301527f7469706c653a204c69737420746f6f206c6f6e670000000000000000000000006020830152604082019050919050565b60006150cf603b83615c32565b91507f4d656d626572733a736574436f686f7274466163746f7279202d20436f686f7260008301527f74466163746f727920616464726573732063616e2774206265203000000000006020830152604082019050919050565b6000615135602983615c32565b91507f4d656d626572733a6973536574746572202d2043616c6c6572206973206e6f7460008301527f20612073657474657200000000000000000000000000000000000000000000006020830152604082019050919050565b600061519b601983615c32565b91507f436f686f727420616464726573732063616e27742062652030000000000000006000830152602082019050919050565b60006151db603f83615c32565b91507f5374616b696e673a7374616b65202d204d696e696d756d20636f6e747269627560008301527f74696f6e20616d6f756e742069732035303030204155445420746f6b656e73006020830152604082019050919050565b6000615241602f83615c32565b91507f4f6e65206f66207468652076616c696461746f727320696e20746865206c697360008301527f74206861732061646472657373203000000000000000000000000000000000006020830152604082019050919050565b60006152a7603983615c32565b91507f4d656d626572733a64617461537562736372696265725061796d656e74202d2060008301527f436f686f727420616464726573732063616e27742062652030000000000000006020830152604082019050919050565b600061530d603183615c32565b91507f4d656d626572733a4973436f6e74726f6c6c6572202d2043616c6c657220697360008301527f206e6f74206120636f6e74726f6c6c65720000000000000000000000000000006020830152604082019050919050565b6000615373603b83615c32565b91507f4d656d626572733a75706461746552657761726473202d204e65772076616c7560008301527f6520666f7220746865207265776172642063616e2774206265203000000000006020830152604082019050919050565b60006153d9604c83615c32565b91507f4d656d626572733a7570646174654d696e4465706f73697444617973202d204e60008301527f65772076616c756520666f7220746865206d696e206465706f7369742064617960208301527f732063616e2774206265203000000000000000000000000000000000000000006040830152606082019050919050565b6000615465602783615c32565b91507f41756469742074797065206973206e6f7420696e20746865207265717569726560008301527f642072616e6765000000000000000000000000000000000000000000000000006020830152604082019050919050565b60006154cb605283615c32565b91507f4d656d6265723a72656465656d202d20596f7572206465706f7369742077696c60008301527f6c20626520746f6f206c6f7720746f2066756c6c66696c20796f7572206f757460208301527f7374616e64696e67207061796d656e74732e00000000000000000000000000006040830152606082019050919050565b6000615557604083615c32565b91507f5374616b696e673a7374616b65202d204d6178696d756d20636f6e747269627560008301527f74696f6e20616d6f756e74206973203235303030204155445420746f6b656e736020830152604082019050919050565b60006155bd602183615c32565b91507f4d656d626572733a7374616b65202d20416d6f756e742063616e27742062652060008301527f30000000000000000000000000000000000000000000000000000000000000006020830152604082019050919050565b60408201600082015161562c6000850182614b08565b50602082015161563f6020850182615645565b50505050565b61564e81615c9e565b82525050565b61565d81615c9e565b82525050565b60006020820190506156786000830184614b17565b92915050565b60006040820190506156936000830185614af9565b6156a06020830184615654565b9392505050565b60006040820190506156bc6000830185614b17565b81810360208301526156ce8184614bcf565b90509392505050565b60006040820190506156ec6000830185614b17565b6156f96020830184615654565b9392505050565b60006060820190506157156000830186614b17565b6157226020830185615654565b61572f6040830184615654565b949350505050565b600060208201905081810360008301526157518184614b26565b905092915050565b600060208201905061576e6000830184614b84565b92915050565b60006020820190506157896000830184614b93565b92915050565b60006020820190506157a46000830184614ba2565b92915050565b60006020820190506157bf6000830184614bb1565b92915050565b600060408201905081810360008301526157df8185614bcf565b90506157ee6020830184614bc0565b9392505050565b6000602082019050818103600083015261580e81614c08565b9050919050565b6000602082019050818103600083015261582e81614c6e565b9050919050565b6000602082019050818103600083015261584e81614d20565b9050919050565b6000602082019050818103600083015261586e81614d86565b9050919050565b6000602082019050818103600083015261588e81614e12565b9050919050565b600060208201905081810360008301526158ae81614e9e565b9050919050565b600060208201905081810360008301526158ce81614f2a565b9050919050565b600060208201905081810360008301526158ee81614f90565b9050919050565b6000602082019050818103600083015261590e81614ff6565b9050919050565b6000602082019050818103600083015261592e8161505c565b9050919050565b6000602082019050818103600083015261594e816150c2565b9050919050565b6000602082019050818103600083015261596e81615128565b9050919050565b6000602082019050818103600083015261598e8161518e565b9050919050565b600060208201905081810360008301526159ae816151ce565b9050919050565b600060208201905081810360008301526159ce81615234565b9050919050565b600060208201905081810360008301526159ee8161529a565b9050919050565b60006020820190508181036000830152615a0e81615300565b9050919050565b60006020820190508181036000830152615a2e81615366565b9050919050565b60006020820190508181036000830152615a4e816153cc565b9050919050565b60006020820190508181036000830152615a6e81615458565b9050919050565b60006020820190508181036000830152615a8e816154be565b9050919050565b60006020820190508181036000830152615aae8161554a565b9050919050565b60006020820190508181036000830152615ace816155b0565b9050919050565b6000602082019050615aea6000830184615654565b92915050565b6000608082019050615b056000830187615654565b615b126020830186614b17565b615b1f6040830185614b17565b615b2c6060830184615654565b95945050505050565b6000604051905081810181811067ffffffffffffffff82111715615b5c57615b5b615d7a565b5b8060405250919050565b600067ffffffffffffffff821115615b8157615b80615d7a565b5b602082029050602081019050919050565b600067ffffffffffffffff821115615bad57615bac615d7a565b5b602082029050602081019050919050565b600067ffffffffffffffff821115615bd957615bd8615d7a565b5b601f19601f8301169050602081019050919050565b6000819050602082019050919050565b600081519050919050565b600081519050919050565b6000602082019050919050565b600082825260208201905092915050565b600082825260208201905092915050565b6000615c4e82615c7e565b9050919050565b60008115159050919050565b6000819050919050565b6000819050615c7982615d8d565b919050565b600073ffffffffffffffffffffffffffffffffffffffff82169050919050565b6000819050919050565b6000615cb382615d14565b9050919050565b6000615cc582615ccc565b9050919050565b6000615cd782615c7e565b9050919050565b6000615ce982615cf0565b9050919050565b6000615cfb82615c7e565b9050919050565b6000615d0d82615c6b565b9050919050565b6000615d1f82615d26565b9050919050565b6000615d3182615c7e565b9050919050565b82818337600083830152505050565b60005b83811015615d65578082015181840152602081019050615d4a565b83811115615d74576000848401525b50505050565bfe5b6000601f19601f8301169050919050565b60038110615d9e57615d9d615d7a565b5b50565b615daa81615c43565b8114615db557600080fd5b50565b615dc181615c55565b8114615dcc57600080fd5b50565b615dd881615c61565b8114615de357600080fd5b50565b60038110615df357600080fd5b50565b615dff81615c9e565b8114615e0a57600080fd5b5056fe456e756d657261626c655365743a20696e646578206f7574206f6620626f756e6473416363657373436f6e74726f6c3a2073656e646572206d75737420626520616e2061646d696e20746f206772616e74416464726573733a20696e73756666696369656e742062616c616e636520666f722063616c6c416363657373436f6e74726f6c3a2073656e646572206d75737420626520616e2061646d696e20746f207265766f6b65536166654d6174683a206d756c7469706c69636174696f6e206f766572666c6f775361666545524332303a204552433230206f7065726174696f6e20646964206e6f742073756363656564416363657373436f6e74726f6c3a2063616e206f6e6c792072656e6f756e636520726f6c657320666f722073656c66a2646970667358221220de7641c003b8de54170ee37e07c621519864534c85f8e5424817700c4e51487c64736f6c63430007060033",
  "immutableReferences": {},
  "source": "// SPDX-License-Identifier: MIT\npragma solidity =0.7.6;\npragma experimental ABIEncoderV2;\nimport \"@openzeppelin/contracts/access/AccessControl.sol\";\nimport \"@openzeppelin/contracts/token/ERC20/IERC20.sol\";\nimport \"@openzeppelin/contracts/math/SafeMath.sol\";\nimport \"@openzeppelin/contracts/token/ERC20/SafeERC20.sol\";\nimport \"./ICohort.sol\";\nimport \"./ICohortFactory.sol\";\nimport \"./../AuditToken.sol\";\n\n/**\n * @title Members\n * Allows on creation of Enterprise and Validator accounts and staking of funds by validators\n * Validators and enterprises have ability to withdraw their staking and earnings \n * Contract also contains several update functions controlled by the Governance contracts\n */\n\ncontract Members is  AccessControl {\n\n    using SafeMath for uint256;\n    using SafeERC20 for AuditToken;\n\n    struct DataSubscriberTypes{\n        address cohort;\n        uint256 audits;\n    }\n\n    bytes32 public constant CONTROLLER_ROLE = keccak256(\"CONTROLLER_ROLE\");\n    bytes32 public constant SETTER_ROLE =  keccak256(\"SETTER_ROLE\");\n\n    AuditToken public auditToken;                       //AUDT token \n    ICohortFactory public cohortFactory;\n    uint256 public stakedAmount;                        //total number of staked tokens   \n    mapping(address => uint256) public deposits;        //track deposits per user\n    mapping(address => DataSubscriberTypes[]) public dataSubscriberCohorts;\n    mapping(address => mapping(address => bool)) public dataSubscriberCohortMap;\n    uint256 public amountTokensPerValidation =  1e18;    //New minted amount per validation\n\n    uint256 public accessFee = 1000e18;\n    uint256 public enterpriseShareSubscriber = 40;\n    uint256 public validatorShareSubscriber = 40;\n    address public platformAddress;\n    uint256 public platformShareValidation = 15;    \n    uint256 public recentBlockUpdated;\n    uint256 public enterpriseMatch = 15e3;          //allow fractional enterprise match up to 4 decimal points\n    uint256 public minDepositDays = 30;\n \n    /// @dev check if caller is a controller     \n    modifier isController {\n        require(hasRole(CONTROLLER_ROLE, msg.sender), \"Members:IsController - Caller is not a controller\");\n\n        _;\n    }\n\n    /// @dev check if caller is a setter     \n    modifier isSetter {\n        require(hasRole(SETTER_ROLE, msg.sender), \"Members:isSetter - Caller is not a setter\");\n\n        _;\n    }\n\n     // Audit types to be used. Two types added for future expansion \n    enum UserType {Enterprise, Validator, DataSubscriber}\n\n    // Structure to store address and name of the registered\n    struct User {  \n        address user;\n        string name;                                                                                                                         \n    }\n\n    User[] public enterprises;\n    mapping(address => bool) public enterpriseMap;\n    mapping(address => uint256) public enterpriseNameMap;\n\n    User[] public validators;\n    mapping(address => bool) public validatorMap;\n    mapping(address => uint256) public validatorNameMap;\n\n    User[] public dataSubscribers;\n    mapping(address => bool) public dataSubscriberMap;\n    mapping(address => uint256) public dataSubscriberNameMap;\n   \n    \n    event EnterpriseUserAdded(address indexed user, string name);\n    event UserAdded(address indexed user, string name, UserType userType);\n    event LogDepositReceived(address indexed from, uint amount);\n    event LogRewardsRedeemed(address indexed from, uint256 amount);\n    event LogDataSubscriberPaid(address indexed from, uint256 accessFee,  address cohortAddress, address enterprise, uint256 enterpriseShare);\n    event LogDataSubscriberValidatorPaid(address  from, address indexed validator, uint256 amount);\n    event LogRewardsDeposited(address cohort, uint256 tokens, uint256 enterpriseAmount, address indexed enterprise);\n    event LogRewardsReceived(address indexed validator, uint256 tokens );\n    event LogSubscriptionCompleted(address subscriber, uint256 numberOfSubscriptions);\n    event LogUpdateRewards(uint256 rewards);\n    event LogUpdateEnterpriseMatch(uint256 portion);\n    event LogUpdateMinDepositDays(uint256 minDepositDays);\n\n    constructor(AuditToken _auditToken, address _platformAddress ) {\n\n        require(_auditToken != AuditToken(0), \"Members:constructor - Audit token address can't be 0\");\n        require(_platformAddress != address(0), \"Members:constructor - Platform address can't be 0\");\n        auditToken = _auditToken;        \n        platformAddress = _platformAddress;\n        _setupRole(DEFAULT_ADMIN_ROLE, msg.sender);\n    }\n\n    /**\n    * @dev to be called by administrator to set cohort Factory contract\n    * @param _cohortFactory cohortFactory contract\n    */\n    function setCohortFactory(address _cohortFactory) public isController() {\n\n        require(_cohortFactory != address(0), \"Members:setCohortFactory - CohortFactory address can't be 0\");\n        cohortFactory = ICohortFactory(_cohortFactory);\n    }\n\n\n    /**\n    * @dev to be called by Governance contract to update new amount for validation rewards\n    * @param _amountTokensPerValidation new value of reward per validation\n    */\n    function updateRewards(uint256 _amountTokensPerValidation) public isSetter() {\n\n        require(_amountTokensPerValidation != 0, \"Members:updateRewards - New value for the reward can't be 0\");\n        amountTokensPerValidation = _amountTokensPerValidation;\n        emit LogUpdateRewards(_amountTokensPerValidation);\n    }\n\n\n    /**\n    * @dev to be called by Governance contract to update days to calculate enterprise min deposit requirements\n    * @param _minDepositDays new value of min deposit days\n    */\n    function updateMinDepositDays(uint256 _minDepositDays) public isSetter()  {\n\n        require(_minDepositDays != 0, \"Members:updateMinDepositDays - New value for the min deposit days can't be 0\");\n        minDepositDays = _minDepositDays;\n        emit LogUpdateMinDepositDays(_minDepositDays);\n    }\n    \n    /**\n    * @dev to be called by Governance contract\n    * @param _enterpriseMatch new value of enterprise portion of enterprise value of validation cost\n    */\n    function updateEnterpriseMatch(uint256 _enterpriseMatch) public isSetter()  {\n\n        require(_enterpriseMatch != 0, \"Members:updateMinDepositDays - New value for the enterprise match can't be 0\");\n        enterpriseMatch = _enterpriseMatch;\n        emit LogUpdateEnterpriseMatch(_enterpriseMatch);\n    }\n\n    /**\n    * @dev to be called by Governance contract to change enterprise and validators shares\n    * of data subscription fees. \n    * @param _enterpriseShareSubscriber  - share of the enterprise\n    * @param _validatorShareSubscriber - share of the subscribers\n    */\n    function setDataSubscriberShares(uint256 _enterpriseShareSubscriber, uint256 _validatorShareSubscriber ) public isSetter()  {\n\n        require(_enterpriseShareSubscriber.add(validatorShareSubscriber) <=100, \"Enterprise and Validator shares can't be larger than 100\");\n        enterpriseShareSubscriber = _enterpriseShareSubscriber;\n        validatorShareSubscriber = _validatorShareSubscriber;\n    }\n\n    /**\n     * @dev Function to accept contribution to staking\n     * @param amount number of AUDT tokens sent to contract for staking     \n     */ \n     function stake(uint256 amount) public {\n\n        require(amount > 0, \"Members:stake - Amount can't be 0\");\n\n        if (validatorMap[msg.sender]){ \n            require(amount + deposits[msg.sender] >= 5e21, \"Staking:stake - Minimum contribution amount is 5000 AUDT tokens\");  \n            require(amount + deposits[msg.sender] <= 25e21, \"Staking:stake - Maximum contribution amount is 25000 AUDT tokens\");     \n        }\n        require(validatorMap[msg.sender] || enterpriseMap[msg.sender], \"Staking:stake - User has been not registered as a validator or enterprise.\"); \n        stakedAmount = stakedAmount.add(amount);  // track tokens contributed so far\n        auditToken.safeTransferFrom(msg.sender, address(this), amount);\n        deposits[msg.sender] = deposits[msg.sender].add(amount);\n        emit LogDepositReceived(msg.sender, amount);       \n    }\n\n    /**\n    * @dev to be called by scheduled calls by platform daily to save gas\n    * the process can be called at any time \n    * @param _validators - list of validators eligible for earnings\n    * @param tokens - list of tokens earned by each validator\n    */\n    function updateDailyEarningsTransferFunds(address[] memory _validators, uint256[] memory tokens, address cohort) public isController() {\n\n        require(cohort != address(0), \"Cohort address can't be 0\");\n        require(_validators.length == tokens.length, \"Members:updateDailyEarningsTransferFunds - List of validators doesn't match list  of their respective tokens\");\n\n        uint256 totalRewardTokens;\n\n        address enterpriseAddress = ICohort(cohort).enterprise();\n        ICohort(cohort).resetOutstandingValidations();\n        uint256 totalEnterprisePay;\n\n        for (uint256 i=0; i< _validators.length; i++){\n            require(_validators[i] != address(0), \"One of the validators in the list has address 0\");\n            // 1e4 to adjust for 4 decimal points for enterpriseMatch\n            uint256 enterprisePortion =  (tokens[i].mul(enterpriseMatch).div(1e4));\n            totalEnterprisePay = totalEnterprisePay.add(enterprisePortion);\n            deposits[_validators[i]] = deposits[_validators[i]].add(tokens[i]).add(enterprisePortion);\n            totalRewardTokens = totalRewardTokens.add(tokens[i]);\n            LogRewardsReceived(_validators[i], tokens[i].add(enterprisePortion));\n        }\n        // decrease enterprise token amount by its reward share to validators\n        deposits[enterpriseAddress] = deposits[enterpriseAddress].sub(totalEnterprisePay);\n\n        uint256 amountTokensPlatform = totalRewardTokens.mul(platformShareValidation).div(85);\n        \n        recentBlockUpdated = block.number;\n        auditToken.mint(platformAddress, amountTokensPlatform);\n        auditToken.mint(address(this), totalRewardTokens);\n        emit LogRewardsDeposited(cohort, totalRewardTokens, totalEnterprisePay, enterpriseAddress);\n    }\n\n    /**\n    * @dev called when data subscriber initiates subscription \n    * @param cohortAddress - address of the cohort to which data subscriber wants access \n    * @param audits - type of audits this cohort is part of\n    */\n    function dataSubscriberPayment(address cohortAddress, uint256 audits) public  {\n\n        require(cohortAddress != address(0), \"Members:dataSubscriberPayment - Cohort address can't be 0\");\n        require(audits >=0 && audits <=5, \"Audit type is not in the required range\");\n        require(!dataSubscriberCohortMap[msg.sender][cohortAddress], \"Members:dataSubscriberPayment - You are already subscribed\");\n        require(dataSubscriberMap[msg.sender], \"Members:dataSubscriberPayment - You have to register as data subscriber\");\n\n        auditToken.safeTransferFrom(msg.sender, address(this), accessFee);\n        auditToken.safeTransfer(platformAddress, accessFee.mul((uint256(100)).sub(enterpriseShareSubscriber).sub(validatorShareSubscriber)).div(100));\n\n        if (validatorMap[msg.sender] || enterpriseMap[msg.sender]){\n            stakedAmount = stakedAmount.sub(accessFee);  // track tokens contributed so far\n            deposits[msg.sender] = deposits[msg.sender].sub(accessFee);\n        }\n\n        address cohortOwner = ICohort(cohortAddress).enterprise();\n        uint256 enterpriseShare = accessFee.mul(enterpriseShareSubscriber).div(100);\n        deposits[cohortOwner] = deposits[cohortOwner].add(enterpriseShare);\n        allocateValidatorDataSubscriberFee(cohortAddress, accessFee.mul(validatorShareSubscriber).div(100));\n        dataSubscriberCohorts[msg.sender].push();\n        dataSubscriberCohorts[msg.sender][dataSubscriberCohorts[msg.sender].length -1].cohort = cohortAddress;\n        dataSubscriberCohorts[msg.sender][dataSubscriberCohorts[msg.sender].length- 1].audits = audits;\n        dataSubscriberCohortMap[msg.sender][cohortAddress] = true;\n\n        emit LogDataSubscriberPaid(msg.sender, accessFee, cohortAddress, cohortOwner, enterpriseShare);\n    }\n\n    /**\n    * @dev To return all cohorts to which data subscriber is subscribed to \n    * @param subscriber - address of the subscriber\n    * @return the structure with cohort address and their types for subscriber\n    */\n    function returnCohortsForDataSubscriber(address subscriber) public view returns(DataSubscriberTypes[] memory){\n            return (dataSubscriberCohorts[subscriber]);\n    }\n\n    /**\n    * @dev To automate subscription for multiple cohorts for data subscriber \n    * @param cohortAddress - array of cohort addresses\n    * @param audits - array of audit types for each cohort\n    */\n    function dataSubscriberPaymentMultiple(address[] memory cohortAddress, uint256[] memory audits) public {\n\n        uint256 length = cohortAddress.length;\n        require(length <= 256, \"Members-dataSubscriberPaymentMultiple: List too long\");\n        for (uint256 i = 0; i < length; i++) {\n            dataSubscriberPayment(cohortAddress[i], audits[i]);\n        }\n\n        emit LogSubscriptionCompleted(msg.sender, length);\n    }\n\n    /**\n    * @dev To calculate validator share of data subscriber fee and allocate it to validator deposits\n    * @param cohortAddress - address of cohort holding list of validators\n    * @param amount - total amount of tokens available for allocation\n    */\n    function allocateValidatorDataSubscriberFee(address cohortAddress, uint amount) internal  {\n\n        address[] memory cohortValidators = ICohort(cohortAddress).returnValidators();\n        uint256 totalDeposits;\n\n        for (uint i=0; i < cohortValidators.length; i++){\n            totalDeposits = totalDeposits.add(deposits[cohortValidators[i]]);\n        }\n\n        for (uint i=0; i < cohortValidators.length; i++){\n            uint256 oneValidatorPercentage = (deposits[cohortValidators[i]].mul(10e18)).div(totalDeposits);\n            uint256 oneValidatorAmount = amount.mul(oneValidatorPercentage).div(10e18);\n            deposits[cohortValidators[i]] = deposits[cohortValidators[i]].add(accessFee.mul(oneValidatorAmount).div(100).div(10e18)  );\n            emit LogDataSubscriberValidatorPaid(msg.sender, cohortValidators[i], oneValidatorAmount);\n        }\n    }\n   \n     /**\n     * @dev Function to redeem contribution. \n     * @param amount number of tokens being redeemed\n     */\n    function redeem(uint256 amount) public {\n\n          if (enterpriseMap[msg.sender]){\n              // div(1e4) to adjust for four decimal points\n            require(deposits[msg.sender]\n            .sub(enterpriseMatch\n            .mul(amountTokensPerValidation)\n            .mul(cohortFactory.returnOutstandingValidations())\n            .div(1e4)) >= amount, \n            \"Member:redeem - Your deposit will be too low to fullfil your outstanding payments.\");\n          }\n\n        stakedAmount = stakedAmount.sub(amount);       \n        deposits[msg.sender] = deposits[msg.sender].sub(amount);\n        auditToken.safeTransfer(msg.sender, amount);\n        emit LogRewardsRedeemed(msg.sender, amount);\n        \n    }\n\n   \n    /*\n    * @dev add new platform user\n    * @param user to add\n    * @param name name of the user\n    * @param userType  \n    */\n    function addUser(address user, string memory name, UserType userType) public isController() {\n\n        User memory newUser;\n        newUser.user = user;\n        newUser.name = name;\n\n        if (userType == UserType.DataSubscriber){\n            require(!dataSubscriberMap[user], \"Members:addUser - This Data Subscriber already exist.\");\n            dataSubscribers.push(newUser);\n            dataSubscriberMap[user]= true;\n            dataSubscriberNameMap[user] = dataSubscribers.length - 1;\n        }\n        else if (userType == UserType.Validator){            \n            require(!validatorMap[user], \"Members:addUser - This Validator already exist.\");\n            validators.push(newUser);\n            validatorMap[user]= true;\n            validatorNameMap[user] = validators.length - 1;\n        }\n        else if (userType == UserType.Enterprise){\n            require(!enterpriseMap[user], \"Members:addUser - This Enterprise already exist.\");\n            enterprises.push(newUser);\n            enterpriseMap[user]= true;\n            enterpriseNameMap[user] = enterprises.length - 1;\n        }\n\n        emit UserAdded(user, name, userType);\n    }\n\n    /*\n    * @dev return enterprise count\n    */\n    function returnEnterpriseCount() public view returns (uint256) {\n\n        return enterprises.length;\n    }\n\n    /*\n    * @dev return validator count\n    */\n    function returnValidatorCount() public view returns (uint256) {\n\n        return validators.length;\n    }\n\n      /*\n    * @dev return data subscribers count\n    */\n    function returnDataSubscriberCount() public view returns (uint256) {\n\n        return dataSubscribers.length;\n    }\n\n}\n\n\n",
  "sourcePath": "/home/bogdan/Ethereum/Projects/TGE/Core-Smart-Contracts-v1/contracts/Auditchain/Members.sol",
  "compiler": {
    "name": "solc",
    "version": "0.7.6+commit.7338295f.Emscripten.clang"
  },
  "schemaVersion": "3.3.4",
  "updatedAt": "2021-04-10T00:47:14.043Z",
  "networkType": "ethereum",
  "devdoc": {
    "kind": "dev",
    "methods": {
      "dataSubscriberPayment(address,uint256)": {
        "details": "called when data subscriber initiates subscription ",
        "params": {
          "audits": "- type of audits this cohort is part of",
          "cohortAddress": "- address of the cohort to which data subscriber wants access "
        }
      },
      "dataSubscriberPaymentMultiple(address[],uint256[])": {
        "details": "To automate subscription for multiple cohorts for data subscriber ",
        "params": {
          "audits": "- array of audit types for each cohort",
          "cohortAddress": "- array of cohort addresses"
        }
      },
      "getRoleAdmin(bytes32)": {
        "details": "Returns the admin role that controls `role`. See {grantRole} and {revokeRole}. To change a role's admin, use {_setRoleAdmin}."
      },
      "getRoleMember(bytes32,uint256)": {
        "details": "Returns one of the accounts that have `role`. `index` must be a value between 0 and {getRoleMemberCount}, non-inclusive. Role bearers are not sorted in any particular way, and their ordering may change at any point. WARNING: When using {getRoleMember} and {getRoleMemberCount}, make sure you perform all queries on the same block. See the following https://forum.openzeppelin.com/t/iterating-over-elements-on-enumerableset-in-openzeppelin-contracts/2296[forum post] for more information."
      },
      "getRoleMemberCount(bytes32)": {
        "details": "Returns the number of accounts that have `role`. Can be used together with {getRoleMember} to enumerate all bearers of a role."
      },
      "grantRole(bytes32,address)": {
        "details": "Grants `role` to `account`. If `account` had not been already granted `role`, emits a {RoleGranted} event. Requirements: - the caller must have ``role``'s admin role."
      },
      "hasRole(bytes32,address)": {
        "details": "Returns `true` if `account` has been granted `role`."
      },
      "redeem(uint256)": {
        "details": "Function to redeem contribution. ",
        "params": {
          "amount": "number of tokens being redeemed"
        }
      },
      "renounceRole(bytes32,address)": {
        "details": "Revokes `role` from the calling account. Roles are often managed via {grantRole} and {revokeRole}: this function's purpose is to provide a mechanism for accounts to lose their privileges if they are compromised (such as when a trusted device is misplaced). If the calling account had been granted `role`, emits a {RoleRevoked} event. Requirements: - the caller must be `account`."
      },
      "returnCohortsForDataSubscriber(address)": {
        "details": "To return all cohorts to which data subscriber is subscribed to ",
        "params": {
          "subscriber": "- address of the subscriber"
        },
        "returns": {
          "_0": "the structure with cohort address and their types for subscriber"
        }
      },
      "revokeRole(bytes32,address)": {
        "details": "Revokes `role` from `account`. If `account` had been granted `role`, emits a {RoleRevoked} event. Requirements: - the caller must have ``role``'s admin role."
      },
      "setCohortFactory(address)": {
        "details": "to be called by administrator to set cohort Factory contract",
        "params": {
          "_cohortFactory": "cohortFactory contract"
        }
      },
      "setDataSubscriberShares(uint256,uint256)": {
        "details": "to be called by Governance contract to change enterprise and validators shares of data subscription fees. ",
        "params": {
          "_enterpriseShareSubscriber": "- share of the enterprise",
          "_validatorShareSubscriber": "- share of the subscribers"
        }
      },
      "stake(uint256)": {
        "details": "Function to accept contribution to staking",
        "params": {
          "amount": "number of AUDT tokens sent to contract for staking     "
        }
      },
      "updateDailyEarningsTransferFunds(address[],uint256[],address)": {
        "details": "to be called by scheduled calls by platform daily to save gas the process can be called at any time ",
        "params": {
          "_validators": "- list of validators eligible for earnings",
          "tokens": "- list of tokens earned by each validator"
        }
      },
      "updateEnterpriseMatch(uint256)": {
        "details": "to be called by Governance contract",
        "params": {
          "_enterpriseMatch": "new value of enterprise portion of enterprise value of validation cost"
        }
      },
      "updateMinDepositDays(uint256)": {
        "details": "to be called by Governance contract to update days to calculate enterprise min deposit requirements",
        "params": {
          "_minDepositDays": "new value of min deposit days"
        }
      },
      "updateRewards(uint256)": {
        "details": "to be called by Governance contract to update new amount for validation rewards",
        "params": {
          "_amountTokensPerValidation": "new value of reward per validation"
        }
      }
    },
    "title": "Members Allows on creation of Enterprise and Validator accounts and staking of funds by validators Validators and enterprises have ability to withdraw their staking and earnings  Contract also contains several update functions controlled by the Governance contracts",
    "version": 1
  },
  "userdoc": {
    "kind": "user",
    "methods": {},
    "version": 1
  }
}