{
  "contractName": "MemberHelpers",
  "abi": [
    {
      "inputs": [
        {
          "internalType": "address",
          "name": "_members",
          "type": "address"
        },
        {
          "internalType": "address",
          "name": "_auditToken",
          "type": "address"
        }
      ],
      "stateMutability": "nonpayable",
      "type": "constructor"
    },
    {
      "anonymous": false,
      "inputs": [
        {
          "indexed": true,
          "internalType": "address",
          "name": "from",
          "type": "address"
        },
        {
          "indexed": false,
          "internalType": "uint256",
          "name": "accessFee",
          "type": "uint256"
        },
        {
          "indexed": false,
          "internalType": "uint256",
          "name": "audits",
          "type": "uint256"
        },
        {
          "indexed": false,
          "internalType": "address",
          "name": "enterprise",
          "type": "address"
        },
        {
          "indexed": false,
          "internalType": "uint256",
          "name": "enterpriseShare",
          "type": "uint256"
        }
      ],
      "name": "LogDataSubscriberPaid",
      "type": "event"
    },
    {
      "anonymous": false,
      "inputs": [
        {
          "indexed": false,
          "internalType": "address",
          "name": "from",
          "type": "address"
        },
        {
          "indexed": true,
          "internalType": "address",
          "name": "validator",
          "type": "address"
        },
        {
          "indexed": false,
          "internalType": "uint256",
          "name": "amount",
          "type": "uint256"
        }
      ],
      "name": "LogDataSubscriberValidatorPaid",
      "type": "event"
    },
    {
      "anonymous": false,
      "inputs": [
        {
          "indexed": true,
          "internalType": "address",
          "name": "from",
          "type": "address"
        },
        {
          "indexed": false,
          "internalType": "uint256",
          "name": "amount",
          "type": "uint256"
        }
      ],
      "name": "LogDepositReceived",
      "type": "event"
    },
    {
      "anonymous": false,
      "inputs": [
        {
          "indexed": false,
          "internalType": "address",
          "name": "requestor",
          "type": "address"
        },
        {
          "indexed": false,
          "internalType": "address[]",
          "name": "validators",
          "type": "address[]"
        }
      ],
      "name": "LogNonCohortValidationPaid",
      "type": "event"
    },
    {
      "anonymous": false,
      "inputs": [
        {
          "indexed": false,
          "internalType": "uint256",
          "name": "tokens",
          "type": "uint256"
        },
        {
          "indexed": false,
          "internalType": "uint256",
          "name": "enterpriseAmount",
          "type": "uint256"
        },
        {
          "indexed": true,
          "internalType": "address",
          "name": "enterprise",
          "type": "address"
        }
      ],
      "name": "LogRewardsDeposited",
      "type": "event"
    },
    {
      "anonymous": false,
      "inputs": [
        {
          "indexed": true,
          "internalType": "address",
          "name": "validator",
          "type": "address"
        },
        {
          "indexed": false,
          "internalType": "uint256",
          "name": "tokens",
          "type": "uint256"
        }
      ],
      "name": "LogRewardsReceived",
      "type": "event"
    },
    {
      "anonymous": false,
      "inputs": [
        {
          "indexed": true,
          "internalType": "address",
          "name": "from",
          "type": "address"
        },
        {
          "indexed": false,
          "internalType": "uint256",
          "name": "amount",
          "type": "uint256"
        }
      ],
      "name": "LogRewardsRedeemed",
      "type": "event"
    },
    {
      "anonymous": false,
      "inputs": [
        {
          "indexed": false,
          "internalType": "address",
          "name": "subscriber",
          "type": "address"
        },
        {
          "indexed": false,
          "internalType": "uint256",
          "name": "numberOfSubscriptions",
          "type": "uint256"
        }
      ],
      "name": "LogSubscriptionCompleted",
      "type": "event"
    },
    {
      "anonymous": false,
      "inputs": [
        {
          "indexed": true,
          "internalType": "bytes32",
          "name": "role",
          "type": "bytes32"
        },
        {
          "indexed": true,
          "internalType": "bytes32",
          "name": "previousAdminRole",
          "type": "bytes32"
        },
        {
          "indexed": true,
          "internalType": "bytes32",
          "name": "newAdminRole",
          "type": "bytes32"
        }
      ],
      "name": "RoleAdminChanged",
      "type": "event"
    },
    {
      "anonymous": false,
      "inputs": [
        {
          "indexed": true,
          "internalType": "bytes32",
          "name": "role",
          "type": "bytes32"
        },
        {
          "indexed": true,
          "internalType": "address",
          "name": "account",
          "type": "address"
        },
        {
          "indexed": true,
          "internalType": "address",
          "name": "sender",
          "type": "address"
        }
      ],
      "name": "RoleGranted",
      "type": "event"
    },
    {
      "anonymous": false,
      "inputs": [
        {
          "indexed": true,
          "internalType": "bytes32",
          "name": "role",
          "type": "bytes32"
        },
        {
          "indexed": true,
          "internalType": "address",
          "name": "account",
          "type": "address"
        },
        {
          "indexed": true,
          "internalType": "address",
          "name": "sender",
          "type": "address"
        }
      ],
      "name": "RoleRevoked",
      "type": "event"
    },
    {
      "inputs": [],
      "name": "CONTROLLER_ROLE",
      "outputs": [
        {
          "internalType": "bytes32",
          "name": "",
          "type": "bytes32"
        }
      ],
      "stateMutability": "view",
      "type": "function"
    },
    {
      "inputs": [],
      "name": "DEFAULT_ADMIN_ROLE",
      "outputs": [
        {
          "internalType": "bytes32",
          "name": "",
          "type": "bytes32"
        }
      ],
      "stateMutability": "view",
      "type": "function"
    },
    {
      "inputs": [],
      "name": "auditToken",
      "outputs": [
        {
          "internalType": "address",
          "name": "",
          "type": "address"
        }
      ],
      "stateMutability": "view",
      "type": "function"
    },
    {
      "inputs": [],
      "name": "cohort",
      "outputs": [
        {
          "internalType": "contract ICohort",
          "name": "",
          "type": "address"
        }
      ],
      "stateMutability": "view",
      "type": "function"
    },
    {
      "inputs": [],
      "name": "cohortFactory",
      "outputs": [
        {
          "internalType": "contract ICohortFactory",
          "name": "",
          "type": "address"
        }
      ],
      "stateMutability": "view",
      "type": "function"
    },
    {
      "inputs": [],
      "name": "cohortValidationFee",
      "outputs": [
        {
          "internalType": "uint256",
          "name": "",
          "type": "uint256"
        }
      ],
      "stateMutability": "view",
      "type": "function"
    },
    {
      "inputs": [
        {
          "internalType": "address",
          "name": "",
          "type": "address"
        },
        {
          "internalType": "address",
          "name": "",
          "type": "address"
        },
        {
          "internalType": "uint256",
          "name": "",
          "type": "uint256"
        }
      ],
      "name": "dataSubscriberCohortMap",
      "outputs": [
        {
          "internalType": "bool",
          "name": "",
          "type": "bool"
        }
      ],
      "stateMutability": "view",
      "type": "function"
    },
    {
      "inputs": [
        {
          "internalType": "address",
          "name": "",
          "type": "address"
        },
        {
          "internalType": "uint256",
          "name": "",
          "type": "uint256"
        }
      ],
      "name": "dataSubscriberCohorts",
      "outputs": [
        {
          "internalType": "address",
          "name": "cohort",
          "type": "address"
        },
        {
          "internalType": "uint256",
          "name": "audits",
          "type": "uint256"
        }
      ],
      "stateMutability": "view",
      "type": "function"
    },
    {
      "inputs": [
        {
          "internalType": "address",
          "name": "",
          "type": "address"
        }
      ],
      "name": "deposits",
      "outputs": [
        {
          "internalType": "uint256",
          "name": "",
          "type": "uint256"
        }
      ],
      "stateMutability": "view",
      "type": "function"
    },
    {
      "inputs": [
        {
          "internalType": "bytes32",
          "name": "role",
          "type": "bytes32"
        }
      ],
      "name": "getRoleAdmin",
      "outputs": [
        {
          "internalType": "bytes32",
          "name": "",
          "type": "bytes32"
        }
      ],
      "stateMutability": "view",
      "type": "function"
    },
    {
      "inputs": [
        {
          "internalType": "bytes32",
          "name": "role",
          "type": "bytes32"
        },
        {
          "internalType": "address",
          "name": "account",
          "type": "address"
        }
      ],
      "name": "grantRole",
      "outputs": [],
      "stateMutability": "nonpayable",
      "type": "function"
    },
    {
      "inputs": [
        {
          "internalType": "bytes32",
          "name": "role",
          "type": "bytes32"
        },
        {
          "internalType": "address",
          "name": "account",
          "type": "address"
        }
      ],
      "name": "hasRole",
      "outputs": [
        {
          "internalType": "bool",
          "name": "",
          "type": "bool"
        }
      ],
      "stateMutability": "view",
      "type": "function"
    },
    {
      "inputs": [],
      "name": "minDepositDays",
      "outputs": [
        {
          "internalType": "uint256",
          "name": "",
          "type": "uint256"
        }
      ],
      "stateMutability": "view",
      "type": "function"
    },
    {
      "inputs": [],
      "name": "nonCohortValidationFee",
      "outputs": [
        {
          "internalType": "uint256",
          "name": "",
          "type": "uint256"
        }
      ],
      "stateMutability": "view",
      "type": "function"
    },
    {
      "inputs": [
        {
          "internalType": "bytes32",
          "name": "role",
          "type": "bytes32"
        },
        {
          "internalType": "address",
          "name": "account",
          "type": "address"
        }
      ],
      "name": "renounceRole",
      "outputs": [],
      "stateMutability": "nonpayable",
      "type": "function"
    },
    {
      "inputs": [
        {
          "internalType": "bytes32",
          "name": "role",
          "type": "bytes32"
        },
        {
          "internalType": "address",
          "name": "account",
          "type": "address"
        }
      ],
      "name": "revokeRole",
      "outputs": [],
      "stateMutability": "nonpayable",
      "type": "function"
    },
    {
      "inputs": [],
      "name": "stakedAmount",
      "outputs": [
        {
          "internalType": "uint256",
          "name": "",
          "type": "uint256"
        }
      ],
      "stateMutability": "view",
      "type": "function"
    },
    {
      "inputs": [
        {
          "internalType": "bytes4",
          "name": "interfaceId",
          "type": "bytes4"
        }
      ],
      "name": "supportsInterface",
      "outputs": [
        {
          "internalType": "bool",
          "name": "",
          "type": "bool"
        }
      ],
      "stateMutability": "view",
      "type": "function"
    },
    {
      "inputs": [
        {
          "internalType": "address",
          "name": "_cohortFactory",
          "type": "address"
        }
      ],
      "name": "setCohortFactory",
      "outputs": [],
      "stateMutability": "nonpayable",
      "type": "function"
    },
    {
      "inputs": [
        {
          "internalType": "address",
          "name": "user",
          "type": "address"
        }
      ],
      "name": "returnDepositAmount",
      "outputs": [
        {
          "internalType": "uint256",
          "name": "",
          "type": "uint256"
        }
      ],
      "stateMutability": "view",
      "type": "function"
    },
    {
      "inputs": [
        {
          "internalType": "uint256",
          "name": "amount",
          "type": "uint256"
        }
      ],
      "name": "stake",
      "outputs": [],
      "stateMutability": "nonpayable",
      "type": "function"
    },
    {
      "inputs": [
        {
          "internalType": "address",
          "name": "_cohort",
          "type": "address"
        }
      ],
      "name": "setCohort",
      "outputs": [],
      "stateMutability": "nonpayable",
      "type": "function"
    },
    {
      "inputs": [
        {
          "internalType": "uint256",
          "name": "amount",
          "type": "uint256"
        }
      ],
      "name": "redeem",
      "outputs": [],
      "stateMutability": "nonpayable",
      "type": "function"
    },
    {
      "inputs": [
        {
          "internalType": "address[]",
          "name": "_validators",
          "type": "address[]"
        },
        {
          "internalType": "address",
          "name": "_requestor",
          "type": "address"
        }
      ],
      "name": "processNonChortPayment",
      "outputs": [],
      "stateMutability": "nonpayable",
      "type": "function"
    },
    {
      "inputs": [
        {
          "internalType": "address[]",
          "name": "_validators",
          "type": "address[]"
        },
        {
          "internalType": "address",
          "name": "_requestor",
          "type": "address"
        }
      ],
      "name": "processPayment",
      "outputs": [],
      "stateMutability": "nonpayable",
      "type": "function"
    },
    {
      "inputs": [
        {
          "internalType": "address",
          "name": "enterpriseAddress",
          "type": "address"
        },
        {
          "internalType": "uint256",
          "name": "audits",
          "type": "uint256"
        }
      ],
      "name": "dataSubscriberPayment",
      "outputs": [],
      "stateMutability": "nonpayable",
      "type": "function"
    },
    {
      "inputs": [
        {
          "internalType": "address[]",
          "name": "cohortAddress",
          "type": "address[]"
        },
        {
          "internalType": "uint256[]",
          "name": "audits",
          "type": "uint256[]"
        }
      ],
      "name": "dataSubscriberPaymentMultiple",
      "outputs": [],
      "stateMutability": "nonpayable",
      "type": "function"
    },
    {
      "inputs": [
        {
          "internalType": "address",
          "name": "subscriber",
          "type": "address"
        }
      ],
      "name": "returnCohortsForDataSubscriber",
      "outputs": [
        {
          "components": [
            {
              "internalType": "address",
              "name": "cohort",
              "type": "address"
            },
            {
              "internalType": "uint256",
              "name": "audits",
              "type": "uint256"
            }
          ],
          "internalType": "struct MemberHelpers.DataSubscriberTypes[]",
          "name": "",
          "type": "tuple[]"
        }
      ],
      "stateMutability": "view",
      "type": "function"
    }
  ],
  "bytecode": "0x6080604052601e60015568056bc75e2d6310000060025568056bc75e2d631000006003553480156200003057600080fd5b5060405162005b8638038062005b868339818101604052810190620000569190620002f8565b600073ffffffffffffffffffffffffffffffffffffffff168273ffffffffffffffffffffffffffffffffffffffff161415620000c9576040517f08c379a0000000000000000000000000000000000000000000000000000000008152600401620000c090620003a1565b60405180910390fd5b81600660006101000a81548173ffffffffffffffffffffffffffffffffffffffff021916908373ffffffffffffffffffffffffffffffffffffffff16021790555080600560006101000a81548173ffffffffffffffffffffffffffffffffffffffff021916908373ffffffffffffffffffffffffffffffffffffffff160217905550620001606000801b336200016860201b60201c565b505062000422565b6200017a82826200017e60201b60201c565b5050565b6200019082826200026f60201b60201c565b6200026b57600160008084815260200190815260200160002060000160008373ffffffffffffffffffffffffffffffffffffffff1673ffffffffffffffffffffffffffffffffffffffff16815260200190815260200160002060006101000a81548160ff02191690831515021790555062000210620002d960201b60201c565b73ffffffffffffffffffffffffffffffffffffffff168173ffffffffffffffffffffffffffffffffffffffff16837f2f8788117e7eff1d82e926ec794901d17c78024a50270940304540a733656f0d60405160405180910390a45b5050565b600080600084815260200190815260200160002060000160008373ffffffffffffffffffffffffffffffffffffffff1673ffffffffffffffffffffffffffffffffffffffff16815260200190815260200160002060009054906101000a900460ff16905092915050565b600033905090565b600081519050620002f28162000408565b92915050565b600080604083850312156200030c57600080fd5b60006200031c85828601620002e1565b92505060206200032f85828601620002e1565b9150509250929050565b600062000348603583620003c3565b91507f4d656d62657248656c706572733a636f6e7374727563746f72202d204d656d6260008301527f657220616464726573732063616e2774206265203000000000000000000000006020830152604082019050919050565b60006020820190508181036000830152620003bc8162000339565b9050919050565b600082825260208201905092915050565b6000620003e182620003e8565b9050919050565b600073ffffffffffffffffffffffffffffffffffffffff82169050919050565b6200041381620003d4565b81146200041f57600080fd5b50565b61575480620004326000396000f3fe608060405234801561001057600080fd5b50600436106101c45760003560e01c80635659ae58116100f9578063a217fddf11610097578063db006a7511610071578063db006a7514610506578063dc1f454214610522578063f96487d61461053e578063fc7e286d1461055c576101c4565b8063a217fddf146104b0578063a694fc3a146104ce578063d547741f146104ea576101c4565b80638319d390116100d35780638319d390146104165780638ab134e81461044657806391d148541461046257806398c3c11614610492576101c4565b80635659ae58146103ab5780636a78abfa146103c957806382d51ba8146103e5576101c4565b806332cd424411610166578063495348d011610140578063495348d01461033957806349ebbd15146103555780634bd4545f14610371578063525d14d81461038f576101c4565b806332cd4244146102cf57806336568abe146102ff578063373d61321461031b576101c4565b80631476ad21116101a25780631476ad21146102355780631f82e76c14610265578063248a9ca3146102835780632f2ff15d146102b3576101c4565b806301ffc9a7146101c9578063092c5b3b146101f957806313176a4014610217575b600080fd5b6101e360048036038101906101de919061415d565b61058c565b6040516101f09190614e9e565b60405180910390f35b610201610606565b60405161020e9190614eb9565b60405180910390f35b61021f61062a565b60405161022c9190614eef565b60405180910390f35b61024f600480360381019061024a9190613f43565b610650565b60405161025c9190614e9e565b60405180910390f35b61026d61068c565b60405161027a919061518c565b60405180910390f35b61029d600480360381019061029891906140f8565b610692565b6040516102aa9190614eb9565b60405180910390f35b6102cd60048036038101906102c89190614121565b6106b1565b005b6102e960048036038101906102e49190613ef1565b6106da565b6040516102f69190614e7c565b60405180910390f35b61031960048036038101906103149190614121565b6107d8565b005b61032361085b565b604051610330919061518c565b60405180910390f35b610353600480360381019061034e9190613ef1565b610861565b005b61036f600480360381019061036a9190613ef1565b61097e565b005b610379610a9b565b6040516103869190614ed4565b60405180910390f35b6103a960048036038101906103a49190614063565b610ac1565b005b6103b3610bf3565b6040516103c0919061518c565b60405180910390f35b6103e360048036038101906103de919061400f565b610bf9565b005b6103ff60048036038101906103fa9190613f92565b610deb565b60405161040d929190614e53565b60405180910390f35b610430600480360381019061042b9190613ef1565b610e4c565b60405161043d919061518c565b60405180910390f35b610460600480360381019061045b9190613f92565b610e95565b005b61047c60048036038101906104779190614121565b611f3e565b6040516104899190614e9e565b60405180910390f35b61049a611fa8565b6040516104a79190614da8565b60405180910390f35b6104b8611fce565b6040516104c59190614eb9565b60405180910390f35b6104e860048036038101906104e39190614186565b611fd5565b005b61050460048036038101906104ff9190614121565b612680565b005b610520600480360381019061051b9190614186565b6126a9565b005b61053c6004803603810190610537919061400f565b612ba7565b005b610546612ec2565b604051610553919061518c565b60405180910390f35b61057660048036038101906105719190613ef1565b612ec8565b604051610583919061518c565b60405180910390f35b60007f7965db0b000000000000000000000000000000000000000000000000000000007bffffffffffffffffffffffffffffffffffffffffffffffffffffffff1916827bffffffffffffffffffffffffffffffffffffffffffffffffffffffff191614806105ff57506105fe82612ee0565b5b9050919050565b7f7b765e0e932d348852a6f810bfa1ab891e259123f02db8cdcde614c57022335781565b600860009054906101000a900473ffffffffffffffffffffffffffffffffffffffff1681565b600b602052826000526040600020602052816000526040600020602052806000526040600020600092509250509054906101000a900460ff1681565b60035481565b6000806000838152602001908152602001600020600101549050919050565b6106ba82610692565b6106cb816106c6612f4a565b612f52565b6106d58383612fef565b505050565b6060600a60008373ffffffffffffffffffffffffffffffffffffffff1673ffffffffffffffffffffffffffffffffffffffff168152602001908152602001600020805480602002602001604051908101604052809291908181526020016000905b828210156107cd57838290600052602060002090600202016040518060400160405290816000820160009054906101000a900473ffffffffffffffffffffffffffffffffffffffff1673ffffffffffffffffffffffffffffffffffffffff1673ffffffffffffffffffffffffffffffffffffffff1681526020016001820154815250508152602001906001019061073b565b505050509050919050565b6107e0612f4a565b73ffffffffffffffffffffffffffffffffffffffff168173ffffffffffffffffffffffffffffffffffffffff161461084d576040517f08c379a00000000000000000000000000000000000000000000000000000000081526004016108449061516c565b60405180910390fd5b61085782826130cf565b5050565b60045481565b61088b7f7b765e0e932d348852a6f810bfa1ab891e259123f02db8cdcde614c57022335733611f3e565b6108ca576040517f08c379a00000000000000000000000000000000000000000000000000000000081526004016108c190614f4c565b60405180910390fd5b600073ffffffffffffffffffffffffffffffffffffffff168173ffffffffffffffffffffffffffffffffffffffff16141561093a576040517f08c379a00000000000000000000000000000000000000000000000000000000081526004016109319061502c565b60405180910390fd5b80600760006101000a81548173ffffffffffffffffffffffffffffffffffffffff021916908373ffffffffffffffffffffffffffffffffffffffff16021790555050565b6109a87f7b765e0e932d348852a6f810bfa1ab891e259123f02db8cdcde614c57022335733611f3e565b6109e7576040517f08c379a00000000000000000000000000000000000000000000000000000000081526004016109de90614f4c565b60405180910390fd5b600073ffffffffffffffffffffffffffffffffffffffff168173ffffffffffffffffffffffffffffffffffffffff161415610a57576040517f08c379a0000000000000000000000000000000000000000000000000000000008152600401610a4e9061506c565b60405180910390fd5b80600860006101000a81548173ffffffffffffffffffffffffffffffffffffffff021916908373ffffffffffffffffffffffffffffffffffffffff16021790555050565b600760009054906101000a900473ffffffffffffffffffffffffffffffffffffffff1681565b600082519050610100811115610b0c576040517f08c379a0000000000000000000000000000000000000000000000000000000008152600401610b039061512c565b60405180910390fd5b60005b81811015610bb457610ba1848281518110610b53577f4e487b7100000000000000000000000000000000000000000000000000000000600052603260045260246000fd5b6020026020010151848381518110610b94577f4e487b7100000000000000000000000000000000000000000000000000000000600052603260045260246000fd5b6020026020010151610e95565b8080610bac90615581565b915050610b0f565b507fe0b9e94ab5fbe92a5c1fcdc7f3dba88b173c784bda0772e4998afde0085752683382604051610be6929190614e53565b60405180910390a1505050565b60015481565b610c237f7b765e0e932d348852a6f810bfa1ab891e259123f02db8cdcde614c57022335733611f3e565b610c62576040517f08c379a0000000000000000000000000000000000000000000000000000000008152600401610c5990614f4c565b60405180910390fd5b6000610dc86064610dba600660009054906101000a900473ffffffffffffffffffffffffffffffffffffffff1673ffffffffffffffffffffffffffffffffffffffff1663a7579be86040518163ffffffff1660e01b815260040160206040518083038186803b158015610cd457600080fd5b505afa158015610ce8573d6000803e3d6000fd5b505050506040513d601f19601f82011682018060405250810190610d0c91906141af565b600660009054906101000a900473ffffffffffffffffffffffffffffffffffffffff1673ffffffffffffffffffffffffffffffffffffffff16634d9c798c6040518163ffffffff1660e01b815260040160206040518083038186803b158015610d7457600080fd5b505afa158015610d88573d6000803e3d6000fd5b505050506040513d601f19601f82011682018060405250810190610dac91906141af565b6131b090919063ffffffff16565b6131c690919063ffffffff16565b90506000670de0b6b3a76400009050600067016345785d8a000090505050505050565b600a6020528160005260406000208181548110610e0757600080fd5b9060005260206000209060020201600091509150508060000160009054906101000a900473ffffffffffffffffffffffffffffffffffffffff16908060010154905082565b6000600960008373ffffffffffffffffffffffffffffffffffffffff1673ffffffffffffffffffffffffffffffffffffffff168152602001908152602001600020549050919050565b600073ffffffffffffffffffffffffffffffffffffffff168273ffffffffffffffffffffffffffffffffffffffff161415610f05576040517f08c379a0000000000000000000000000000000000000000000000000000000008152600401610efc9061500c565b60405180910390fd5b60008110158015610f17575060058111155b610f56576040517f08c379a0000000000000000000000000000000000000000000000000000000008152600401610f4d9061514c565b60405180910390fd5b600b60003373ffffffffffffffffffffffffffffffffffffffff1673ffffffffffffffffffffffffffffffffffffffff16815260200190815260200160002060008373ffffffffffffffffffffffffffffffffffffffff1673ffffffffffffffffffffffffffffffffffffffff168152602001908152602001600020600082815260200190815260200160002060009054906101000a900460ff1615611031576040517f08c379a000000000000000000000000000000000000000000000000000000000815260040161102890614f6c565b60405180910390fd5b600660009054906101000a900473ffffffffffffffffffffffffffffffffffffffff1673ffffffffffffffffffffffffffffffffffffffff16636f9cf985336002808111156110a9577f4e487b7100000000000000000000000000000000000000000000000000000000600052602160045260246000fd5b6040518363ffffffff1660e01b81526004016110c6929190614e2a565b60206040518083038186803b1580156110de57600080fd5b505afa1580156110f2573d6000803e3d6000fd5b505050506040513d601f19601f8201168201806040525081019061111691906140cf565b611155576040517f08c379a000000000000000000000000000000000000000000000000000000000815260040161114c906150ec565b60405180910390fd5b600660009054906101000a900473ffffffffffffffffffffffffffffffffffffffff1673ffffffffffffffffffffffffffffffffffffffff1663492b85cd6040518163ffffffff1660e01b815260040160206040518083038186803b1580156111bd57600080fd5b505afa1580156111d1573d6000803e3d6000fd5b505050506040513d601f19601f820116820180604052508101906111f591906141af565b600960003373ffffffffffffffffffffffffffffffffffffffff1673ffffffffffffffffffffffffffffffffffffffff168152602001908152602001600020541015611276576040517f08c379a000000000000000000000000000000000000000000000000000000000815260040161126d9061504c565b60405180910390fd5b6113643330600660009054906101000a900473ffffffffffffffffffffffffffffffffffffffff1673ffffffffffffffffffffffffffffffffffffffff1663492b85cd6040518163ffffffff1660e01b815260040160206040518083038186803b1580156112e357600080fd5b505afa1580156112f7573d6000803e3d6000fd5b505050506040513d601f19601f8201168201806040525081019061131b91906141af565b600560009054906101000a900473ffffffffffffffffffffffffffffffffffffffff1673ffffffffffffffffffffffffffffffffffffffff166131dc909392919063ffffffff16565b6000600660009054906101000a900473ffffffffffffffffffffffffffffffffffffffff1673ffffffffffffffffffffffffffffffffffffffff1663e9b6c9756040518163ffffffff1660e01b815260040160206040518083038186803b1580156113ce57600080fd5b505afa1580156113e2573d6000803e3d6000fd5b505050506040513d601f19601f8201168201806040525081019061140691906141af565b600660009054906101000a900473ffffffffffffffffffffffffffffffffffffffff1673ffffffffffffffffffffffffffffffffffffffff1663dac95d416040518163ffffffff1660e01b815260040160206040518083038186803b15801561146e57600080fd5b505afa158015611482573d6000803e3d6000fd5b505050506040513d601f19601f820116820180604052508101906114a691906141af565b60646114b29190615405565b6114bc9190615405565b905061166e600660009054906101000a900473ffffffffffffffffffffffffffffffffffffffff1673ffffffffffffffffffffffffffffffffffffffff1663dbe55e566040518163ffffffff1660e01b815260040160206040518083038186803b15801561152957600080fd5b505afa15801561153d573d6000803e3d6000fd5b505050506040513d601f19601f820116820180604052508101906115619190613f1a565b611626606461161885600660009054906101000a900473ffffffffffffffffffffffffffffffffffffffff1673ffffffffffffffffffffffffffffffffffffffff1663492b85cd6040518163ffffffff1660e01b815260040160206040518083038186803b1580156115d257600080fd5b505afa1580156115e6573d6000803e3d6000fd5b505050506040513d601f19601f8201168201806040525081019061160a91906141af565b6131b090919063ffffffff16565b6131c690919063ffffffff16565b600560009054906101000a900473ffffffffffffffffffffffffffffffffffffffff1673ffffffffffffffffffffffffffffffffffffffff166132659092919063ffffffff16565b600660009054906101000a900473ffffffffffffffffffffffffffffffffffffffff1673ffffffffffffffffffffffffffffffffffffffff16636f9cf985336002808111156116e6577f4e487b7100000000000000000000000000000000000000000000000000000000600052602160045260246000fd5b6040518363ffffffff1660e01b8152600401611703929190614e2a565b60206040518083038186803b15801561171b57600080fd5b505afa15801561172f573d6000803e3d6000fd5b505050506040513d601f19601f8201168201806040525081019061175391906140cf565b806118405750600660009054906101000a900473ffffffffffffffffffffffffffffffffffffffff1673ffffffffffffffffffffffffffffffffffffffff16636f9cf98533600060028111156117d2577f4e487b7100000000000000000000000000000000000000000000000000000000600052602160045260246000fd5b6040518363ffffffff1660e01b81526004016117ef929190614e2a565b60206040518083038186803b15801561180757600080fd5b505afa15801561181b573d6000803e3d6000fd5b505050506040513d601f19601f8201168201806040525081019061183f91906140cf565b5b15611a34576118f9600660009054906101000a900473ffffffffffffffffffffffffffffffffffffffff1673ffffffffffffffffffffffffffffffffffffffff1663492b85cd6040518163ffffffff1660e01b815260040160206040518083038186803b1580156118b057600080fd5b505afa1580156118c4573d6000803e3d6000fd5b505050506040513d601f19601f820116820180604052508101906118e891906141af565b6004546132eb90919063ffffffff16565b6004819055506119f0600660009054906101000a900473ffffffffffffffffffffffffffffffffffffffff1673ffffffffffffffffffffffffffffffffffffffff1663492b85cd6040518163ffffffff1660e01b815260040160206040518083038186803b15801561196a57600080fd5b505afa15801561197e573d6000803e3d6000fd5b505050506040513d601f19601f820116820180604052508101906119a291906141af565b600960003373ffffffffffffffffffffffffffffffffffffffff1673ffffffffffffffffffffffffffffffffffffffff168152602001908152602001600020546132eb90919063ffffffff16565b600960003373ffffffffffffffffffffffffffffffffffffffff1673ffffffffffffffffffffffffffffffffffffffff168152602001908152602001600020819055505b6000611b9a6064611b8c600660009054906101000a900473ffffffffffffffffffffffffffffffffffffffff1673ffffffffffffffffffffffffffffffffffffffff1663dac95d416040518163ffffffff1660e01b815260040160206040518083038186803b158015611aa657600080fd5b505afa158015611aba573d6000803e3d6000fd5b505050506040513d601f19601f82011682018060405250810190611ade91906141af565b600660009054906101000a900473ffffffffffffffffffffffffffffffffffffffff1673ffffffffffffffffffffffffffffffffffffffff1663492b85cd6040518163ffffffff1660e01b815260040160206040518083038186803b158015611b4657600080fd5b505afa158015611b5a573d6000803e3d6000fd5b505050506040513d601f19601f82011682018060405250810190611b7e91906141af565b6131b090919063ffffffff16565b6131c690919063ffffffff16565b9050611bee81600960008773ffffffffffffffffffffffffffffffffffffffff1673ffffffffffffffffffffffffffffffffffffffff1681526020019081526020016000205461330190919063ffffffff16565b600960008673ffffffffffffffffffffffffffffffffffffffff1673ffffffffffffffffffffffffffffffffffffffff16815260200190815260200160002081905550611d9f8484611d9a6064611d8c600660009054906101000a900473ffffffffffffffffffffffffffffffffffffffff1673ffffffffffffffffffffffffffffffffffffffff1663e9b6c9756040518163ffffffff1660e01b815260040160206040518083038186803b158015611ca657600080fd5b505afa158015611cba573d6000803e3d6000fd5b505050506040513d601f19601f82011682018060405250810190611cde91906141af565b600660009054906101000a900473ffffffffffffffffffffffffffffffffffffffff1673ffffffffffffffffffffffffffffffffffffffff1663492b85cd6040518163ffffffff1660e01b815260040160206040518083038186803b158015611d4657600080fd5b505afa158015611d5a573d6000803e3d6000fd5b505050506040513d601f19601f82011682018060405250810190611d7e91906141af565b6131b090919063ffffffff16565b6131c690919063ffffffff16565b613317565b6001600b60003373ffffffffffffffffffffffffffffffffffffffff1673ffffffffffffffffffffffffffffffffffffffff16815260200190815260200160002060008673ffffffffffffffffffffffffffffffffffffffff1673ffffffffffffffffffffffffffffffffffffffff168152602001908152602001600020600085815260200190815260200160002060006101000a81548160ff0219169083151502179055503373ffffffffffffffffffffffffffffffffffffffff167f789d6ca7c6ba494ee9a2cbda76e410066f2ab37d7bf222e02830f76f977a7d29600660009054906101000a900473ffffffffffffffffffffffffffffffffffffffff1673ffffffffffffffffffffffffffffffffffffffff1663492b85cd6040518163ffffffff1660e01b815260040160206040518083038186803b158015611ee557600080fd5b505afa158015611ef9573d6000803e3d6000fd5b505050506040513d601f19601f82011682018060405250810190611f1d91906141af565b858785604051611f3094939291906151a7565b60405180910390a250505050565b600080600084815260200190815260200160002060000160008373ffffffffffffffffffffffffffffffffffffffff1673ffffffffffffffffffffffffffffffffffffffff16815260200190815260200160002060009054906101000a900460ff16905092915050565b600560009054906101000a900473ffffffffffffffffffffffffffffffffffffffff1681565b6000801b81565b60008111612018576040517f08c379a000000000000000000000000000000000000000000000000000000000815260040161200f90614fec565b60405180910390fd5b600660009054906101000a900473ffffffffffffffffffffffffffffffffffffffff1673ffffffffffffffffffffffffffffffffffffffff16636f9cf9853360016002811115612091577f4e487b7100000000000000000000000000000000000000000000000000000000600052602160045260246000fd5b6040518363ffffffff1660e01b81526004016120ae929190614e2a565b60206040518083038186803b1580156120c657600080fd5b505afa1580156120da573d6000803e3d6000fd5b505050506040513d601f19601f820116820180604052508101906120fe91906140cf565b156122325769010f0cf064dd59200000600960003373ffffffffffffffffffffffffffffffffffffffff1673ffffffffffffffffffffffffffffffffffffffff16815260200190815260200160002054826121599190615324565b101561219a576040517f08c379a000000000000000000000000000000000000000000000000000000000815260040161219190614f8c565b60405180910390fd5b69054b40b1f852bda00000600960003373ffffffffffffffffffffffffffffffffffffffff1673ffffffffffffffffffffffffffffffffffffffff16815260200190815260200160002054826121f09190615324565b1115612231576040517f08c379a00000000000000000000000000000000000000000000000000000000081526004016122289061508c565b60405180910390fd5b5b600660009054906101000a900473ffffffffffffffffffffffffffffffffffffffff1673ffffffffffffffffffffffffffffffffffffffff16636f9cf98533600060028111156122ab577f4e487b7100000000000000000000000000000000000000000000000000000000600052602160045260246000fd5b6040518363ffffffff1660e01b81526004016122c8929190614e2a565b60206040518083038186803b1580156122e057600080fd5b505afa1580156122f4573d6000803e3d6000fd5b505050506040513d601f19601f8201168201806040525081019061231891906140cf565b806124055750600660009054906101000a900473ffffffffffffffffffffffffffffffffffffffff1673ffffffffffffffffffffffffffffffffffffffff16636f9cf9853360016002811115612397577f4e487b7100000000000000000000000000000000000000000000000000000000600052602160045260246000fd5b6040518363ffffffff1660e01b81526004016123b4929190614e2a565b60206040518083038186803b1580156123cc57600080fd5b505afa1580156123e0573d6000803e3d6000fd5b505050506040513d601f19601f8201168201806040525081019061240491906140cf565b5b806124f15750600660009054906101000a900473ffffffffffffffffffffffffffffffffffffffff1673ffffffffffffffffffffffffffffffffffffffff16636f9cf98533600280811115612483577f4e487b7100000000000000000000000000000000000000000000000000000000600052602160045260246000fd5b6040518363ffffffff1660e01b81526004016124a0929190614e2a565b60206040518083038186803b1580156124b857600080fd5b505afa1580156124cc573d6000803e3d6000fd5b505050506040513d601f19601f820116820180604052508101906124f091906140cf565b5b612530576040517f08c379a000000000000000000000000000000000000000000000000000000000815260040161252790614fac565b60405180910390fd5b6125458160045461330190919063ffffffff16565b60048190555061259a333083600560009054906101000a900473ffffffffffffffffffffffffffffffffffffffff1673ffffffffffffffffffffffffffffffffffffffff166131dc909392919063ffffffff16565b6125ec81600960003373ffffffffffffffffffffffffffffffffffffffff1673ffffffffffffffffffffffffffffffffffffffff1681526020019081526020016000205461330190919063ffffffff16565b600960003373ffffffffffffffffffffffffffffffffffffffff1673ffffffffffffffffffffffffffffffffffffffff168152602001908152602001600020819055503373ffffffffffffffffffffffffffffffffffffffff167f3916187166447a01764df803fb1147a37c55a4ca1c7271a7a75c0ab1079b2d9582604051612675919061518c565b60405180910390a250565b61268982610692565b61269a81612695612f4a565b612f52565b6126a483836130cf565b505050565b600660009054906101000a900473ffffffffffffffffffffffffffffffffffffffff1673ffffffffffffffffffffffffffffffffffffffff16636f9cf9853360006002811115612722577f4e487b7100000000000000000000000000000000000000000000000000000000600052602160045260246000fd5b6040518363ffffffff1660e01b815260040161273f929190614e2a565b60206040518083038186803b15801561275757600080fd5b505afa15801561276b573d6000803e3d6000fd5b505050506040513d601f19601f8201168201806040525081019061278f91906140cf565b15612a59576000600860009054906101000a900473ffffffffffffffffffffffffffffffffffffffff1673ffffffffffffffffffffffffffffffffffffffff1663f9e0853a336040518263ffffffff1660e01b81526004016127f19190614da8565b60206040518083038186803b15801561280957600080fd5b505afa15801561281d573d6000803e3d6000fd5b505050506040513d601f19601f8201168201806040525081019061284191906141af565b90506000811115612a575781612a156129c76127106129b9856129ab600660009054906101000a900473ffffffffffffffffffffffffffffffffffffffff1673ffffffffffffffffffffffffffffffffffffffff16634d9c798c6040518163ffffffff1660e01b815260040160206040518083038186803b1580156128c557600080fd5b505afa1580156128d9573d6000803e3d6000fd5b505050506040513d601f19601f820116820180604052508101906128fd91906141af565b600660009054906101000a900473ffffffffffffffffffffffffffffffffffffffff1673ffffffffffffffffffffffffffffffffffffffff1663a7579be86040518163ffffffff1660e01b815260040160206040518083038186803b15801561296557600080fd5b505afa158015612979573d6000803e3d6000fd5b505050506040513d601f19601f8201168201806040525081019061299d91906141af565b6131b090919063ffffffff16565b6131b090919063ffffffff16565b6131c690919063ffffffff16565b600960003373ffffffffffffffffffffffffffffffffffffffff1673ffffffffffffffffffffffffffffffffffffffff168152602001908152602001600020546132eb90919063ffffffff16565b1015612a56576040517f08c379a0000000000000000000000000000000000000000000000000000000008152600401612a4d906150ac565b60405180910390fd5b5b505b612a6e816004546132eb90919063ffffffff16565b600481905550612ac681600960003373ffffffffffffffffffffffffffffffffffffffff1673ffffffffffffffffffffffffffffffffffffffff168152602001908152602001600020546132eb90919063ffffffff16565b600960003373ffffffffffffffffffffffffffffffffffffffff1673ffffffffffffffffffffffffffffffffffffffff16815260200190815260200160002081905550612b563382600560009054906101000a900473ffffffffffffffffffffffffffffffffffffffff1673ffffffffffffffffffffffffffffffffffffffff166132659092919063ffffffff16565b3373ffffffffffffffffffffffffffffffffffffffff167f857a4bd4d7b4553d36107a81e2fdc06c87eee30a74c23d62f1ca89ce3b9ed0ae82604051612b9c919061518c565b60405180910390a250565b612bd17f7b765e0e932d348852a6f810bfa1ab891e259123f02db8cdcde614c57022335733611f3e565b612c10576040517f08c379a0000000000000000000000000000000000000000000000000000000008152600401612c0790614f4c565b60405180910390fd5b6000612c2883516002546131c690919063ffffffff16565b9050612c7e600254600960008573ffffffffffffffffffffffffffffffffffffffff1673ffffffffffffffffffffffffffffffffffffffff168152602001908152602001600020546132eb90919063ffffffff16565b600960008473ffffffffffffffffffffffffffffffffffffffff1673ffffffffffffffffffffffffffffffffffffffff1681526020019081526020016000208190555060005b8351811015612e8357612d5f8260096000878581518110612d0e577f4e487b7100000000000000000000000000000000000000000000000000000000600052603260045260246000fd5b602002602001015173ffffffffffffffffffffffffffffffffffffffff1673ffffffffffffffffffffffffffffffffffffffff1681526020019081526020016000205461330190919063ffffffff16565b60096000868481518110612d9c577f4e487b7100000000000000000000000000000000000000000000000000000000600052603260045260246000fd5b602002602001015173ffffffffffffffffffffffffffffffffffffffff1673ffffffffffffffffffffffffffffffffffffffff16815260200190815260200160002081905550838181518110612e1b577f4e487b7100000000000000000000000000000000000000000000000000000000600052603260045260246000fd5b602002602001015173ffffffffffffffffffffffffffffffffffffffff167f764a965eb8edef713db93e80a1a5eef9a4891c74b26bfb68d0bf12ffc30c9ee483604051612e68919061518c565b60405180910390a28080612e7b90615581565b915050612cc4565b507f3db71f10d4058a0724aeaa2dfdd41d419f4b2b6c427d52897c94f1f4a914c2608284604051612eb5929190614dfa565b60405180910390a1505050565b60025481565b60096020528060005260406000206000915090505481565b60007f01ffc9a7000000000000000000000000000000000000000000000000000000007bffffffffffffffffffffffffffffffffffffffffffffffffffffffff1916827bffffffffffffffffffffffffffffffffffffffffffffffffffffffff1916149050919050565b600033905090565b612f5c8282611f3e565b612feb57612f818173ffffffffffffffffffffffffffffffffffffffff166014613735565b612f8f8360001c6020613735565b604051602001612fa0929190614d6e565b6040516020818303038152906040526040517f08c379a0000000000000000000000000000000000000000000000000000000008152600401612fe29190614f0a565b60405180910390fd5b5050565b612ff98282611f3e565b6130cb57600160008084815260200190815260200160002060000160008373ffffffffffffffffffffffffffffffffffffffff1673ffffffffffffffffffffffffffffffffffffffff16815260200190815260200160002060006101000a81548160ff021916908315150217905550613070612f4a565b73ffffffffffffffffffffffffffffffffffffffff168173ffffffffffffffffffffffffffffffffffffffff16837f2f8788117e7eff1d82e926ec794901d17c78024a50270940304540a733656f0d60405160405180910390a45b5050565b6130d98282611f3e565b156131ac57600080600084815260200190815260200160002060000160008373ffffffffffffffffffffffffffffffffffffffff1673ffffffffffffffffffffffffffffffffffffffff16815260200190815260200160002060006101000a81548160ff021916908315150217905550613151612f4a565b73ffffffffffffffffffffffffffffffffffffffff168173ffffffffffffffffffffffffffffffffffffffff16837ff6391f5c32d9c69d2a47ea670b442974b53935d1edc7fd64eb21e047a839171b60405160405180910390a45b5050565b600081836131be91906153ab565b905092915050565b600081836131d4919061537a565b905092915050565b61325f846323b872dd60e01b8585856040516024016131fd93929190614dc3565b604051602081830303815290604052907bffffffffffffffffffffffffffffffffffffffffffffffffffffffff19166020820180517bffffffffffffffffffffffffffffffffffffffffffffffffffffffff8381831617835250505050613a2f565b50505050565b6132e68363a9059cbb60e01b8484604051602401613284929190614e53565b604051602081830303815290604052907bffffffffffffffffffffffffffffffffffffffffffffffffffffffff19166020820180517bffffffffffffffffffffffffffffffffffffffffffffffffffffffff8381831617835250505050613a2f565b505050565b600081836132f99190615405565b905092915050565b6000818361330f9190615324565b905092915050565b6000600760009054906101000a900473ffffffffffffffffffffffffffffffffffffffff1673ffffffffffffffffffffffffffffffffffffffff166302495c5985856040518363ffffffff1660e01b8152600401613376929190614e53565b60006040518083038186803b15801561338e57600080fd5b505afa1580156133a2573d6000803e3d6000fd5b505050506040513d6000823e3d601f19601f820116820180604052508101906133cb9190613fce565b9050600080600090505b8251811015613485576134706009600085848151811061341e577f4e487b7100000000000000000000000000000000000000000000000000000000600052603260045260246000fd5b602002602001015173ffffffffffffffffffffffffffffffffffffffff1673ffffffffffffffffffffffffffffffffffffffff168152602001908152602001600020548361330190919063ffffffff16565b9150808061347d90615581565b9150506133d5565b5060005b825181101561372d57600061354083613532678ac7230489e80000600960008988815181106134e1577f4e487b7100000000000000000000000000000000000000000000000000000000600052603260045260246000fd5b602002602001015173ffffffffffffffffffffffffffffffffffffffff1673ffffffffffffffffffffffffffffffffffffffff168152602001908152602001600020546131b090919063ffffffff16565b6131c690919063ffffffff16565b90506000613571678ac7230489e8000061356384896131b090919063ffffffff16565b6131c690919063ffffffff16565b905061360581600960008887815181106135b4577f4e487b7100000000000000000000000000000000000000000000000000000000600052603260045260246000fd5b602002602001015173ffffffffffffffffffffffffffffffffffffffff1673ffffffffffffffffffffffffffffffffffffffff1681526020019081526020016000205461330190919063ffffffff16565b60096000878681518110613642577f4e487b7100000000000000000000000000000000000000000000000000000000600052603260045260246000fd5b602002602001015173ffffffffffffffffffffffffffffffffffffffff1673ffffffffffffffffffffffffffffffffffffffff168152602001908152602001600020819055508483815181106136c1577f4e487b7100000000000000000000000000000000000000000000000000000000600052603260045260246000fd5b602002602001015173ffffffffffffffffffffffffffffffffffffffff167f3e4fd36a8c6a5f774423977e7d7e6badc0d7f8972efdaa142830e6048bdcdd523383604051613710929190614e53565b60405180910390a25050808061372590615581565b915050613489565b505050505050565b60606000600283600261374891906153ab565b6137529190615324565b67ffffffffffffffff811115613791577f4e487b7100000000000000000000000000000000000000000000000000000000600052604160045260246000fd5b6040519080825280601f01601f1916602001820160405280156137c35781602001600182028036833780820191505090505b5090507f300000000000000000000000000000000000000000000000000000000000000081600081518110613821577f4e487b7100000000000000000000000000000000000000000000000000000000600052603260045260246000fd5b60200101907effffffffffffffffffffffffffffffffffffffffffffffffffffffffffffff1916908160001a9053507f7800000000000000000000000000000000000000000000000000000000000000816001815181106138ab577f4e487b7100000000000000000000000000000000000000000000000000000000600052603260045260246000fd5b60200101907effffffffffffffffffffffffffffffffffffffffffffffffffffffffffffff1916908160001a905350600060018460026138eb91906153ab565b6138f59190615324565b90505b60018111156139e1577f3031323334353637383961626364656600000000000000000000000000000000600f86166010811061395d577f4e487b7100000000000000000000000000000000000000000000000000000000600052603260045260246000fd5b1a60f81b82828151811061399a577f4e487b7100000000000000000000000000000000000000000000000000000000600052603260045260246000fd5b60200101907effffffffffffffffffffffffffffffffffffffffffffffffffffffffffffff1916908160001a905350600485901c9450806139da90615557565b90506138f8565b5060008414613a25576040517f08c379a0000000000000000000000000000000000000000000000000000000008152600401613a1c90614f2c565b60405180910390fd5b8091505092915050565b6000613a91826040518060400160405280602081526020017f5361666545524332303a206c6f772d6c6576656c2063616c6c206661696c65648152508573ffffffffffffffffffffffffffffffffffffffff16613af69092919063ffffffff16565b9050600081511115613af15780806020019051810190613ab191906140cf565b613af0576040517f08c379a0000000000000000000000000000000000000000000000000000000008152600401613ae79061510c565b60405180910390fd5b5b505050565b6060613b058484600085613b0e565b90509392505050565b606082471015613b53576040517f08c379a0000000000000000000000000000000000000000000000000000000008152600401613b4a90614fcc565b60405180910390fd5b613b5c85613c22565b613b9b576040517f08c379a0000000000000000000000000000000000000000000000000000000008152600401613b92906150cc565b60405180910390fd5b6000808673ffffffffffffffffffffffffffffffffffffffff168587604051613bc49190614d57565b60006040518083038185875af1925050503d8060008114613c01576040519150601f19603f3d011682016040523d82523d6000602084013e613c06565b606091505b5091509150613c16828286613c35565b92505050949350505050565b600080823b905060008111915050919050565b60608315613c4557829050613c95565b600083511115613c585782518084602001fd5b816040517f08c379a0000000000000000000000000000000000000000000000000000000008152600401613c8c9190614f0a565b60405180910390fd5b9392505050565b6000613caf613caa8461521d565b6151ec565b90508083825260208201905082856020860282011115613cce57600080fd5b60005b85811015613cfe5781613ce48882613de0565b845260208401935060208301925050600181019050613cd1565b5050509392505050565b6000613d1b613d168461521d565b6151ec565b90508083825260208201905082856020860282011115613d3a57600080fd5b60005b85811015613d6a5781613d508882613df5565b845260208401935060208301925050600181019050613d3d565b5050509392505050565b6000613d87613d8284615249565b6151ec565b90508083825260208201905082856020860282011115613da657600080fd5b60005b85811015613dd65781613dbc8882613ec7565b845260208401935060208301925050600181019050613da9565b5050509392505050565b600081359050613def816156ab565b92915050565b600081519050613e04816156ab565b92915050565b600082601f830112613e1b57600080fd5b8135613e2b848260208601613c9c565b91505092915050565b600082601f830112613e4557600080fd5b8151613e55848260208601613d08565b91505092915050565b600082601f830112613e6f57600080fd5b8135613e7f848260208601613d74565b91505092915050565b600081519050613e97816156c2565b92915050565b600081359050613eac816156d9565b92915050565b600081359050613ec1816156f0565b92915050565b600081359050613ed681615707565b92915050565b600081519050613eeb81615707565b92915050565b600060208284031215613f0357600080fd5b6000613f1184828501613de0565b91505092915050565b600060208284031215613f2c57600080fd5b6000613f3a84828501613df5565b91505092915050565b600080600060608486031215613f5857600080fd5b6000613f6686828701613de0565b9350506020613f7786828701613de0565b9250506040613f8886828701613ec7565b9150509250925092565b60008060408385031215613fa557600080fd5b6000613fb385828601613de0565b9250506020613fc485828601613ec7565b9150509250929050565b600060208284031215613fe057600080fd5b600082015167ffffffffffffffff811115613ffa57600080fd5b61400684828501613e34565b91505092915050565b6000806040838503121561402257600080fd5b600083013567ffffffffffffffff81111561403c57600080fd5b61404885828601613e0a565b925050602061405985828601613de0565b9150509250929050565b6000806040838503121561407657600080fd5b600083013567ffffffffffffffff81111561409057600080fd5b61409c85828601613e0a565b925050602083013567ffffffffffffffff8111156140b957600080fd5b6140c585828601613e5e565b9150509250929050565b6000602082840312156140e157600080fd5b60006140ef84828501613e88565b91505092915050565b60006020828403121561410a57600080fd5b600061411884828501613e9d565b91505092915050565b6000806040838503121561413457600080fd5b600061414285828601613e9d565b925050602061415385828601613de0565b9150509250929050565b60006020828403121561416f57600080fd5b600061417d84828501613eb2565b91505092915050565b60006020828403121561419857600080fd5b60006141a684828501613ec7565b91505092915050565b6000602082840312156141c157600080fd5b60006141cf84828501613edc565b91505092915050565b60006141e48383614208565b60208301905092915050565b60006141fc8383614d0a565b60408301905092915050565b61421181615439565b82525050565b61422081615439565b82525050565b600061423182615295565b61423b81856152db565b935061424683615275565b8060005b8381101561427757815161425e88826141d8565b9750614269836152c1565b92505060018101905061424a565b5085935050505092915050565b600061428f826152a0565b61429981856152ec565b93506142a483615285565b8060005b838110156142d55781516142bc88826141f0565b97506142c7836152ce565b9250506001810190506142a8565b5085935050505092915050565b6142eb8161544b565b82525050565b6142fa81615457565b82525050565b600061430b826152ab565b61431581856152fd565b9350614325818560208601615524565b80840191505092915050565b61433a816154ca565b82525050565b614349816154ee565b82525050565b61435881615512565b82525050565b6000614369826152b6565b6143738185615308565b9350614383818560208601615524565b61438c81615686565b840191505092915050565b60006143a2826152b6565b6143ac8185615319565b93506143bc818560208601615524565b80840191505092915050565b60006143d5602083615308565b91507f537472696e67733a20686578206c656e67746820696e73756666696369656e746000830152602082019050919050565b6000614415603783615308565b91507f4d656d62657248656c706572733a4973436f6e74726f6c6c6572202d2043616c60008301527f6c6572206973206e6f74206120636f6e74726f6c6c65720000000000000000006020830152604082019050919050565b600061447b604083615308565b91507f4d656d62657248656c706572733a64617461537562736372696265725061796d60008301527f656e74202d20596f752061726520616c726561647920737562736372696265646020830152604082019050919050565b60006144e1604583615308565b91507f4d656d62657248656c706572733a7374616b65202d204d696e696d756d20636f60008301527f6e747269627574696f6e20616d6f756e7420697320353030302041554454207460208301527f6f6b656e730000000000000000000000000000000000000000000000000000006040830152606082019050919050565b600061456d604a83615308565b91507f5374616b696e673a7374616b65202d205573657220686173206265656e206e6f60008301527f74207265676973746572656420617320612076616c696461746f72206f72206560208301527f6e74657270726973652e000000000000000000000000000000000000000000006040830152606082019050919050565b60006145f9602683615308565b91507f416464726573733a20696e73756666696369656e742062616c616e636520666f60008301527f722063616c6c00000000000000000000000000000000000000000000000000006020830152604082019050919050565b600061465f602783615308565b91507f4d656d62657248656c706572733a7374616b65202d20416d6f756e742063616e60008301527f27742062652030000000000000000000000000000000000000000000000000006020830152604082019050919050565b60006146c5604383615308565b91507f4d656d62657248656c706572733a64617461537562736372696265725061796d60008301527f656e74202d20456e746572707269736520616464726573732063616e2774206260208301527f65203000000000000000000000000000000000000000000000000000000000006040830152606082019050919050565b6000614751604183615308565b91507f4d656d62657248656c706572733a736574436f686f7274466163746f7279202d60008301527f20436f686f7274466163746f727920616464726573732063616e27742062652060208301527f30000000000000000000000000000000000000000000000000000000000000006040830152606082019050919050565b60006147dd605d83615308565b91507f4d656d62657248656c706572733a64617461537562736372696265725061796d60008301527f656e74202d20596f7520646f6e2774206861766520656e6f756768204155445460208301527f20746f20636f6d706c65742074686973207472616e61736374696f6e2e0000006040830152606082019050919050565b6000614869602d83615308565b91507f4d656d626572733a736574436f686f7274202d20436f686f727420616464726560008301527f73732063616e27742062652030000000000000000000000000000000000000006020830152604082019050919050565b60006148cf604683615308565b91507f4d656d62657248656c706572733a7374616b65202d204d6178696d756d20636f60008301527f6e747269627574696f6e20616d6f756e7420697320323530303020415544542060208301527f746f6b656e7300000000000000000000000000000000000000000000000000006040830152606082019050919050565b600061495b606783615308565b91507f4d656d62657248656c706572733a72656465656d202d20596f7572206465706f60008301527f7369742077696c6c20626520746f6f206c6f6f75747374616e64696e6756616c60208301527f7720746f2066756c6c66696c20796f7572206f75747374616e64696e6720706160408301527f796d656e74732e000000000000000000000000000000000000000000000000006060830152608082019050919050565b6000614a0d601d83615308565b91507f416464726573733a2063616c6c20746f206e6f6e2d636f6e74726163740000006000830152602082019050919050565b6000614a4d601783615319565b91507f416363657373436f6e74726f6c3a206163636f756e74200000000000000000006000830152601782019050919050565b6000614a8d604d83615308565b91507f4d656d62657248656c706572733a64617461537562736372696265725061796d60008301527f656e74202d20596f75206861766520746f20726567697374657220617320646160208301527f74612073756273637269626572000000000000000000000000000000000000006040830152606082019050919050565b6000614b19602a83615308565b91507f5361666545524332303a204552433230206f7065726174696f6e20646964206e60008301527f6f742073756363656564000000000000000000000000000000000000000000006020830152604082019050919050565b6000614b7f603b83615308565b91507f4d656d62657248656c706572733a64617461537562736372696265725061796d60008301527f656e744d756c7469706c65202d204c69737420746f6f206c6f6e6700000000006020830152604082019050919050565b6000614be5604d83615308565b91507f4d656d62657248656c706572733a64617461537562736372696265725061796d60008301527f656e74202d2041756469742074797065206973206e6f7420696e20746865207260208301527f657175697265642072616e6765000000000000000000000000000000000000006040830152606082019050919050565b6000614c71601183615319565b91507f206973206d697373696e6720726f6c65200000000000000000000000000000006000830152601182019050919050565b6000614cb1602f83615308565b91507f416363657373436f6e74726f6c3a2063616e206f6e6c792072656e6f756e636560008301527f20726f6c657320666f722073656c6600000000000000000000000000000000006020830152604082019050919050565b604082016000820151614d206000850182614208565b506020820151614d336020850182614d39565b50505050565b614d42816154c0565b82525050565b614d51816154c0565b82525050565b6000614d638284614300565b915081905092915050565b6000614d7982614a40565b9150614d858285614397565b9150614d9082614c64565b9150614d9c8284614397565b91508190509392505050565b6000602082019050614dbd6000830184614217565b92915050565b6000606082019050614dd86000830186614217565b614de56020830185614217565b614df26040830184614d48565b949350505050565b6000604082019050614e0f6000830185614217565b8181036020830152614e218184614226565b90509392505050565b6000604082019050614e3f6000830185614217565b614e4c602083018461434f565b9392505050565b6000604082019050614e686000830185614217565b614e756020830184614d48565b9392505050565b60006020820190508181036000830152614e968184614284565b905092915050565b6000602082019050614eb360008301846142e2565b92915050565b6000602082019050614ece60008301846142f1565b92915050565b6000602082019050614ee96000830184614331565b92915050565b6000602082019050614f046000830184614340565b92915050565b60006020820190508181036000830152614f24818461435e565b905092915050565b60006020820190508181036000830152614f45816143c8565b9050919050565b60006020820190508181036000830152614f6581614408565b9050919050565b60006020820190508181036000830152614f858161446e565b9050919050565b60006020820190508181036000830152614fa5816144d4565b9050919050565b60006020820190508181036000830152614fc581614560565b9050919050565b60006020820190508181036000830152614fe5816145ec565b9050919050565b6000602082019050818103600083015261500581614652565b9050919050565b60006020820190508181036000830152615025816146b8565b9050919050565b6000602082019050818103600083015261504581614744565b9050919050565b60006020820190508181036000830152615065816147d0565b9050919050565b600060208201905081810360008301526150858161485c565b9050919050565b600060208201905081810360008301526150a5816148c2565b9050919050565b600060208201905081810360008301526150c58161494e565b9050919050565b600060208201905081810360008301526150e581614a00565b9050919050565b6000602082019050818103600083015261510581614a80565b9050919050565b6000602082019050818103600083015261512581614b0c565b9050919050565b6000602082019050818103600083015261514581614b72565b9050919050565b6000602082019050818103600083015261516581614bd8565b9050919050565b6000602082019050818103600083015261518581614ca4565b9050919050565b60006020820190506151a16000830184614d48565b92915050565b60006080820190506151bc6000830187614d48565b6151c96020830186614d48565b6151d66040830185614217565b6151e36060830184614d48565b95945050505050565b6000604051905081810181811067ffffffffffffffff8211171561521357615212615657565b5b8060405250919050565b600067ffffffffffffffff82111561523857615237615657565b5b602082029050602081019050919050565b600067ffffffffffffffff82111561526457615263615657565b5b602082029050602081019050919050565b6000819050602082019050919050565b6000819050602082019050919050565b600081519050919050565b600081519050919050565b600081519050919050565b600081519050919050565b6000602082019050919050565b6000602082019050919050565b600082825260208201905092915050565b600082825260208201905092915050565b600081905092915050565b600082825260208201905092915050565b600081905092915050565b600061532f826154c0565b915061533a836154c0565b9250827fffffffffffffffffffffffffffffffffffffffffffffffffffffffffffffffff0382111561536f5761536e6155ca565b5b828201905092915050565b6000615385826154c0565b9150615390836154c0565b9250826153a05761539f6155f9565b5b828204905092915050565b60006153b6826154c0565b91506153c1836154c0565b9250817fffffffffffffffffffffffffffffffffffffffffffffffffffffffffffffffff04831182151516156153fa576153f96155ca565b5b828202905092915050565b6000615410826154c0565b915061541b836154c0565b92508282101561542e5761542d6155ca565b5b828203905092915050565b6000615444826154a0565b9050919050565b60008115159050919050565b6000819050919050565b60007fffffffff0000000000000000000000000000000000000000000000000000000082169050919050565b600081905061549b82615697565b919050565b600073ffffffffffffffffffffffffffffffffffffffff82169050919050565b6000819050919050565b60006154d5826154dc565b9050919050565b60006154e7826154a0565b9050919050565b60006154f982615500565b9050919050565b600061550b826154a0565b9050919050565b600061551d8261548d565b9050919050565b60005b83811015615542578082015181840152602081019050615527565b83811115615551576000848401525b50505050565b6000615562826154c0565b91506000821415615576576155756155ca565b5b600182039050919050565b600061558c826154c0565b91507fffffffffffffffffffffffffffffffffffffffffffffffffffffffffffffffff8214156155bf576155be6155ca565b5b600182019050919050565b7f4e487b7100000000000000000000000000000000000000000000000000000000600052601160045260246000fd5b7f4e487b7100000000000000000000000000000000000000000000000000000000600052601260045260246000fd5b7f4e487b7100000000000000000000000000000000000000000000000000000000600052602160045260246000fd5b7f4e487b7100000000000000000000000000000000000000000000000000000000600052604160045260246000fd5b6000601f19601f8301169050919050565b600381106156a8576156a7615628565b5b50565b6156b481615439565b81146156bf57600080fd5b50565b6156cb8161544b565b81146156d657600080fd5b50565b6156e281615457565b81146156ed57600080fd5b50565b6156f981615461565b811461570457600080fd5b50565b615710816154c0565b811461571b57600080fd5b5056fea26469706673582212206cd1a68f528ca4a42cac39eb77fc845477aa9d014c4843100ae4cc939d724e1d64736f6c63430008000033",
  "immutableReferences": {},
  "source": "// SPDX-License-Identifier: MIT\npragma solidity =0.8.0;\nimport \"./Members.sol\";\nimport \"@openzeppelin/contracts/access/AccessControl.sol\";\nimport \"@openzeppelin/contracts/utils/math/SafeMath.sol\";\nimport \"@openzeppelin/contracts/token/ERC20/utils/SafeERC20.sol\";\nimport \"./../IAuditToken.sol\";\nimport \"./ICohortFactory.sol\";\nimport \"./ICohort.sol\";\n\n\n\n\n/**\n * @title MemberHelpers\n * Additional function for Members \n */\ncontract MemberHelpers is  AccessControl {\n    using SafeMath for uint256;\n    using SafeERC20 for IERC20;\n\n\n    bytes32 public constant CONTROLLER_ROLE = keccak256(\"CONTROLLER_ROLE\");\n\n    uint256 public minDepositDays = 30;\n    uint256 public nonCohortValidationFee = 100e18;\n    uint256 public cohortValidationFee = 100e18;\n    uint256 public stakedAmount;                        //total number of staked tokens   \n    address public auditToken;                       //AUDT token \n    Members members;\n    ICohortFactory public cohortFactory;\n    ICohort public cohort;\n    mapping(address => uint256) public deposits;        //track deposits per user\n    mapping(address => DataSubscriberTypes[]) public dataSubscriberCohorts;\n    mapping(address => mapping(address => mapping(uint256 => bool))) public dataSubscriberCohortMap;\n\n\n     struct DataSubscriberTypes{\n        address cohort;\n        uint256 audits;\n    }\n\n\n    enum UserType {Enterprise, Validator, DataSubscriber}  \n\n    event LogDepositReceived(address indexed from, uint amount);\n    event LogRewardsRedeemed(address indexed from, uint256 amount);\n    event LogRewardsReceived(address indexed validator, uint256 tokens );\n    event LogNonCohortValidationPaid(address requestor, address[] validators);\n    event LogRewardsDeposited(uint256 tokens, uint256 enterpriseAmount, address indexed enterprise);\n    event LogDataSubscriberPaid(address indexed from, uint256 accessFee,  uint256 audits, address enterprise, uint256 enterpriseShare);\n    event LogSubscriptionCompleted(address subscriber, uint256 numberOfSubscriptions);\n    event LogDataSubscriberValidatorPaid(address  from, address indexed validator, uint256 amount);\n    \n\n\n\n\n     constructor(address  _members, address _auditToken ) {\n        require(_members != address(0), \"MemberHelpers:constructor - Member address can't be 0\");\n        members = Members(_members);\n        auditToken = _auditToken;\n        _setupRole(DEFAULT_ADMIN_ROLE, msg.sender);\n    }\n\n     /// @dev check if caller is a controller     \n    modifier isController {\n        require(hasRole(CONTROLLER_ROLE, msg.sender), \"MemberHelpers:IsController - Caller is not a controller\");\n\n        _;\n    }\n\n   /**\n    * @dev to be called by administrator to set cohort Factory contract\n    * @param _cohortFactory cohortFactory contract\n    */\n    function setCohortFactory(address _cohortFactory) public isController() {\n\n        require(_cohortFactory != address(0), \"MemberHelpers:setCohortFactory - CohortFactory address can't be 0\");\n        cohortFactory = ICohortFactory(_cohortFactory);\n    }\n\n    function returnDepositAmount(address user) public view returns(uint256){\n\n        return deposits[user];\n    }\n\n\n     /**\n     * @dev Function to accept contribution to staking\n     * @param amount number of AUDT tokens sent to contract for staking     \n     */ \n     function stake(uint256 amount) public {\n\n        require(amount > 0, \"MemberHelpers:stake - Amount can't be 0\");\n      \n        if (members.userMap(msg.sender, Members.UserType(1))){ \n            require(amount + deposits[msg.sender] >= 5e21, \"MemberHelpers:stake - Minimum contribution amount is 5000 AUDT tokens\");  \n            require(amount + deposits[msg.sender] <= 25e21, \"MemberHelpers:stake - Maximum contribution amount is 25000 AUDT tokens\");     \n        }\n        require(members.userMap(msg.sender, Members.UserType(0)) || members.userMap(msg.sender, Members.UserType(1)) || members.userMap(msg.sender, Members.UserType(2)) , \"Staking:stake - User has been not registered as a validator or enterprise.\"); \n        stakedAmount = stakedAmount.add(amount);  // track tokens contributed so far\n        IERC20(auditToken).safeTransferFrom(msg.sender, address(this), amount);\n        deposits[msg.sender] = deposits[msg.sender].add(amount);\n        emit LogDepositReceived(msg.sender, amount);\n\n    }\n\n\n    /**\n    * @dev to be called by administrator to set cohort Factory contract\n    * @param _cohort cohort contract\n    */\n    function setCohort(address _cohort) public isController() {\n\n        require(_cohort != address(0), \"Members:setCohort - Cohort address can't be 0\");\n        cohort = ICohort(_cohort);\n    }\n\n\n    /**\n     * @dev Function to redeem contribution. \n     * @param amount number of tokens being redeemed\n     */\n    function redeem(uint256 amount) public {\n\n          if (members.userMap(msg.sender, Members.UserType(0))){\n              uint256  outstandingVal = cohort.outstandingValidations(msg.sender);\n              if (outstandingVal > 0 ) \n              // div(1e4) to adjust for four decimal points\n            require(deposits[msg.sender]\n            .sub(members.enterpriseMatch().mul(members.amountTokensPerValidation()).mul(outstandingVal).div(1e4)) >= amount, \n            \"MemberHelpers:redeem - Your deposit will be too looutstandingValw to fullfil your outstanding payments.\");\n          }\n\n        stakedAmount = stakedAmount.sub(amount);       \n        deposits[msg.sender] = deposits[msg.sender].sub(amount);\n        IERC20(auditToken).safeTransfer(msg.sender, amount);\n        emit LogRewardsRedeemed(msg.sender, amount);\n        \n    }\n\n     function processNonChortPayment(address[] memory _validators, address _requestor) public isController() {\n\n        uint paymentPerValidator = nonCohortValidationFee.div(_validators.length);\n\n        deposits[_requestor] = deposits[_requestor].sub(nonCohortValidationFee);\n        \n        for (uint i=0; i < _validators.length; i++) {\n            deposits[_validators[i]] = deposits[_validators[i]].add(paymentPerValidator);\n           emit LogRewardsReceived(_validators[i], paymentPerValidator);\n        }\n        emit LogNonCohortValidationPaid(_requestor, _validators);\n    }\n\n     function processPayment(address[] memory _validators, address _requestor) public isController() {\n\n        uint256 enterprisePortion =  (members.amountTokensPerValidation().mul(members.enterpriseMatch())).div(100);\n        // uint256 platformFee = (members.amountTokensPerValidation().mul(members.platformShareValidation())).div(100);\n        // uint256 validatorsFee = (members.amountTokensPerValidation().add(enterprisePortion)).sub(platformFee);\n        // uint256 paymentPerValidator = validatorsFee.div(_validators.length);\n        // deposits[_requestor] = deposits[_requestor].sub(enterprisePortion);\n        // IAuditToken(auditToken).mint(address(this), members.amountTokensPerValidation());\n        // deposits[members.platformAddress()] = deposits[members.platformAddress()].add(platformFee);\n\n        uint256 paymentPerValidator = 1000000000000000000;\n        uint256 validatorsFee = 100000000000000000;\n        // uint256 enterprisePortion = 100000000000000000;\n\n\n        // for (uint256 i=0; i< _validators.length; i++){                     \n        //     deposits[_validators[i]] = deposits[_validators[i]].add(paymentPerValidator);\n\n        //     emit LogRewardsReceived(_validators[i], paymentPerValidator);\n        // }\n        // emit LogRewardsDeposited(validatorsFee, enterprisePortion, _requestor);\n    }\n\n    /**\n    * @dev called when data subscriber initiates subscription \n    * @param enterpriseAddress - address of the enterprise\n    * @param audits - type of audits this cohort is part of\n    */\n    function dataSubscriberPayment(address enterpriseAddress, uint256 audits) public  {\n\n        require(enterpriseAddress != address(0), \"MemberHelpers:dataSubscriberPayment - Enterprise address can't be 0\");\n        require(audits >=0 && audits <=5, \"MemberHelpers:dataSubscriberPayment - Audit type is not in the required range\");\n        require(!dataSubscriberCohortMap[msg.sender][enterpriseAddress][audits], \"MemberHelpers:dataSubscriberPayment - You are already subscribed\");\n        require(members.userMap(msg.sender, Members.UserType(2)), \"MemberHelpers:dataSubscriberPayment - You have to register as data subscriber\");\n        require(deposits[msg.sender] >= members.accessFee(), \"MemberHelpers:dataSubscriberPayment - You don't have enough AUDT to complet this tranasction.\");\n\n        IERC20(auditToken).safeTransferFrom(msg.sender, address(this), members.accessFee());\n        // uint platformShare = (((members.enterpriseShareSubscriber()).add(members.validatorShareSubscriber())).mul(100)).div(members.accessFee());\n        uint platformShare = 100 - members.enterpriseShareSubscriber() -members.validatorShareSubscriber();\n        IERC20(auditToken).safeTransfer(members.platformAddress(), members.accessFee().mul(platformShare).div(100));\n\n        if (members.userMap(msg.sender, Members.UserType(2)) || members.userMap(msg.sender, Members.UserType(0))){\n            stakedAmount = stakedAmount.sub(members.accessFee());  // track tokens contributed so far\n            deposits[msg.sender] = deposits[msg.sender].sub(members.accessFee());\n        }\n\n        uint256 enterpriseShare = members.accessFee().mul(members.enterpriseShareSubscriber()).div(100);\n        deposits[enterpriseAddress] = deposits[enterpriseAddress].add(enterpriseShare);\n        allocateValidatorDataSubscriberFee(enterpriseAddress, audits, members.accessFee().mul(members.validatorShareSubscriber()).div(100));\n        dataSubscriberCohortMap[msg.sender][enterpriseAddress][audits] = true;\n\n        emit LogDataSubscriberPaid(msg.sender, members.accessFee(), audits, enterpriseAddress, enterpriseShare);\n    }\n\n    /**\n    * @dev To automate subscription for multiple cohorts for data subscriber \n    * @param cohortAddress - array of cohort addresses\n    * @param audits - array of audit types for each cohort\n    */\n    function dataSubscriberPaymentMultiple(address[] memory cohortAddress, uint256[] memory audits) public {\n\n        uint256 length = cohortAddress.length;\n        require(length <= 256, \"MemberHelpers:dataSubscriberPaymentMultiple - List too long\");\n        for (uint256 i = 0; i < length; i++) {\n            dataSubscriberPayment(cohortAddress[i], audits[i]);\n        }\n\n        emit LogSubscriptionCompleted(msg.sender, length);\n    }\n\n    /**\n    * @dev To calculate validator share of data subscriber fee and allocate it to validator deposits\n    * @param enterprise - address of cohort holding list of validators\n    * @param audits - audit type\n    * @param amount - total amount of tokens available for allocation\n    */\n    function allocateValidatorDataSubscriberFee(address enterprise, uint256 audits, uint256 amount) internal  {\n\n        address[] memory cohortValidators = cohortFactory.returnValidatorList(enterprise, audits);\n        uint256 totalDeposits;\n\n        for (uint i=0; i < cohortValidators.length; i++){\n            totalDeposits = totalDeposits.add(deposits[cohortValidators[i]]);\n        // emit total(totalDeposits);\n        }\n\n        for (uint i=0; i < cohortValidators.length; i++){\n            uint256 oneValidatorPercentage = (deposits[cohortValidators[i]].mul(10e18)).div(totalDeposits);\n            uint256 oneValidatorAmount = amount.mul(oneValidatorPercentage).div(10e18);\n        //     deposits[cohortValidators[i]] = deposits[cohortValidators[i]].add(members.accessFee().mul(oneValidatorAmount).div(100).div(10e18)  );\n\n            deposits[cohortValidators[i]] = deposits[cohortValidators[i]].add(oneValidatorAmount);\n            emit LogDataSubscriberValidatorPaid(msg.sender, cohortValidators[i], oneValidatorAmount);\n        }\n    }\n\n    // event total(uint256 dep);\n\n    /**\n    * @dev To return all cohorts to which data subscriber is subscribed to \n    * @param subscriber - address of the subscriber\n    * @return the structure with cohort address and their types for subscriber\n    */\n    function returnCohortsForDataSubscriber(address subscriber) public view returns(DataSubscriberTypes[] memory){\n            return (dataSubscriberCohorts[subscriber]);\n    }\n    \n}",
  "sourcePath": "/home/win2win/eth/projects/AuditChain/Core-Smart-Contracts-v1/contracts/Auditchain/MemberHelpers.sol",
  "compiler": {
    "name": "solc",
    "version": "0.8.0+commit.c7dfd78e.Emscripten.clang"
  },
  "schemaVersion": "3.4.1",
  "updatedAt": "2021-08-02T21:35:14.006Z",
  "devdoc": {
    "kind": "dev",
    "methods": {
      "dataSubscriberPayment(address,uint256)": {
        "details": "called when data subscriber initiates subscription ",
        "params": {
          "audits": "- type of audits this cohort is part of",
          "enterpriseAddress": "- address of the enterprise"
        }
      },
      "dataSubscriberPaymentMultiple(address[],uint256[])": {
        "details": "To automate subscription for multiple cohorts for data subscriber ",
        "params": {
          "audits": "- array of audit types for each cohort",
          "cohortAddress": "- array of cohort addresses"
        }
      },
      "getRoleAdmin(bytes32)": {
        "details": "Returns the admin role that controls `role`. See {grantRole} and {revokeRole}. To change a role's admin, use {_setRoleAdmin}."
      },
      "grantRole(bytes32,address)": {
        "details": "Grants `role` to `account`. If `account` had not been already granted `role`, emits a {RoleGranted} event. Requirements: - the caller must have ``role``'s admin role."
      },
      "hasRole(bytes32,address)": {
        "details": "Returns `true` if `account` has been granted `role`."
      },
      "redeem(uint256)": {
        "details": "Function to redeem contribution. ",
        "params": {
          "amount": "number of tokens being redeemed"
        }
      },
      "renounceRole(bytes32,address)": {
        "details": "Revokes `role` from the calling account. Roles are often managed via {grantRole} and {revokeRole}: this function's purpose is to provide a mechanism for accounts to lose their privileges if they are compromised (such as when a trusted device is misplaced). If the calling account had been granted `role`, emits a {RoleRevoked} event. Requirements: - the caller must be `account`."
      },
      "returnCohortsForDataSubscriber(address)": {
        "details": "To return all cohorts to which data subscriber is subscribed to ",
        "params": {
          "subscriber": "- address of the subscriber"
        },
        "returns": {
          "_0": "the structure with cohort address and their types for subscriber"
        }
      },
      "revokeRole(bytes32,address)": {
        "details": "Revokes `role` from `account`. If `account` had been granted `role`, emits a {RoleRevoked} event. Requirements: - the caller must have ``role``'s admin role."
      },
      "setCohort(address)": {
        "details": "to be called by administrator to set cohort Factory contract",
        "params": {
          "_cohort": "cohort contract"
        }
      },
      "setCohortFactory(address)": {
        "details": "to be called by administrator to set cohort Factory contract",
        "params": {
          "_cohortFactory": "cohortFactory contract"
        }
      },
      "stake(uint256)": {
        "details": "Function to accept contribution to staking",
        "params": {
          "amount": "number of AUDT tokens sent to contract for staking     "
        }
      },
      "supportsInterface(bytes4)": {
        "details": "See {IERC165-supportsInterface}."
      }
    },
    "title": "MemberHelpers Additional function for Members ",
    "version": 1
  },
  "userdoc": {
    "kind": "user",
    "methods": {},
    "version": 1
  }
}