{
  "contractName": "MemberHelpers",
  "abi": [
    {
      "inputs": [
        {
          "internalType": "address",
          "name": "_members",
          "type": "address"
        }
      ],
      "stateMutability": "nonpayable",
      "type": "constructor"
    },
    {
      "anonymous": false,
      "inputs": [
        {
          "indexed": true,
          "internalType": "bytes32",
          "name": "role",
          "type": "bytes32"
        },
        {
          "indexed": true,
          "internalType": "bytes32",
          "name": "previousAdminRole",
          "type": "bytes32"
        },
        {
          "indexed": true,
          "internalType": "bytes32",
          "name": "newAdminRole",
          "type": "bytes32"
        }
      ],
      "name": "RoleAdminChanged",
      "type": "event"
    },
    {
      "anonymous": false,
      "inputs": [
        {
          "indexed": true,
          "internalType": "bytes32",
          "name": "role",
          "type": "bytes32"
        },
        {
          "indexed": true,
          "internalType": "address",
          "name": "account",
          "type": "address"
        },
        {
          "indexed": true,
          "internalType": "address",
          "name": "sender",
          "type": "address"
        }
      ],
      "name": "RoleGranted",
      "type": "event"
    },
    {
      "anonymous": false,
      "inputs": [
        {
          "indexed": true,
          "internalType": "bytes32",
          "name": "role",
          "type": "bytes32"
        },
        {
          "indexed": true,
          "internalType": "address",
          "name": "account",
          "type": "address"
        },
        {
          "indexed": true,
          "internalType": "address",
          "name": "sender",
          "type": "address"
        }
      ],
      "name": "RoleRevoked",
      "type": "event"
    },
    {
      "inputs": [],
      "name": "DEFAULT_ADMIN_ROLE",
      "outputs": [
        {
          "internalType": "bytes32",
          "name": "",
          "type": "bytes32"
        }
      ],
      "stateMutability": "view",
      "type": "function",
      "constant": true
    },
    {
      "inputs": [
        {
          "internalType": "bytes32",
          "name": "role",
          "type": "bytes32"
        }
      ],
      "name": "getRoleAdmin",
      "outputs": [
        {
          "internalType": "bytes32",
          "name": "",
          "type": "bytes32"
        }
      ],
      "stateMutability": "view",
      "type": "function",
      "constant": true
    },
    {
      "inputs": [
        {
          "internalType": "bytes32",
          "name": "role",
          "type": "bytes32"
        },
        {
          "internalType": "uint256",
          "name": "index",
          "type": "uint256"
        }
      ],
      "name": "getRoleMember",
      "outputs": [
        {
          "internalType": "address",
          "name": "",
          "type": "address"
        }
      ],
      "stateMutability": "view",
      "type": "function",
      "constant": true
    },
    {
      "inputs": [
        {
          "internalType": "bytes32",
          "name": "role",
          "type": "bytes32"
        }
      ],
      "name": "getRoleMemberCount",
      "outputs": [
        {
          "internalType": "uint256",
          "name": "",
          "type": "uint256"
        }
      ],
      "stateMutability": "view",
      "type": "function",
      "constant": true
    },
    {
      "inputs": [
        {
          "internalType": "bytes32",
          "name": "role",
          "type": "bytes32"
        },
        {
          "internalType": "address",
          "name": "account",
          "type": "address"
        }
      ],
      "name": "grantRole",
      "outputs": [],
      "stateMutability": "nonpayable",
      "type": "function"
    },
    {
      "inputs": [
        {
          "internalType": "bytes32",
          "name": "role",
          "type": "bytes32"
        },
        {
          "internalType": "address",
          "name": "account",
          "type": "address"
        }
      ],
      "name": "hasRole",
      "outputs": [
        {
          "internalType": "bool",
          "name": "",
          "type": "bool"
        }
      ],
      "stateMutability": "view",
      "type": "function",
      "constant": true
    },
    {
      "inputs": [
        {
          "internalType": "bytes32",
          "name": "role",
          "type": "bytes32"
        },
        {
          "internalType": "address",
          "name": "account",
          "type": "address"
        }
      ],
      "name": "renounceRole",
      "outputs": [],
      "stateMutability": "nonpayable",
      "type": "function"
    },
    {
      "inputs": [
        {
          "internalType": "bytes32",
          "name": "role",
          "type": "bytes32"
        },
        {
          "internalType": "address",
          "name": "account",
          "type": "address"
        }
      ],
      "name": "revokeRole",
      "outputs": [],
      "stateMutability": "nonpayable",
      "type": "function"
    },
    {
      "inputs": [
        {
          "internalType": "address",
          "name": "enterprise",
          "type": "address"
        }
      ],
      "name": "returnEnterpriseName",
      "outputs": [
        {
          "internalType": "string",
          "name": "",
          "type": "string"
        }
      ],
      "stateMutability": "view",
      "type": "function",
      "constant": true
    },
    {
      "inputs": [
        {
          "internalType": "address",
          "name": "validator",
          "type": "address"
        }
      ],
      "name": "returnValidatorName",
      "outputs": [
        {
          "internalType": "string",
          "name": "",
          "type": "string"
        }
      ],
      "stateMutability": "view",
      "type": "function",
      "constant": true
    },
    {
      "inputs": [
        {
          "internalType": "address",
          "name": "dataSubscribers",
          "type": "address"
        }
      ],
      "name": "returnDataSubscriberName",
      "outputs": [
        {
          "internalType": "string",
          "name": "",
          "type": "string"
        }
      ],
      "stateMutability": "view",
      "type": "function",
      "constant": true
    }
  ],
  "bytecode": "0x60806040523480156200001157600080fd5b50604051620017a5380380620017a5833981810160405260208110156200003757600080fd5b8101908080519060200190929190505050600073ffffffffffffffffffffffffffffffffffffffff168173ffffffffffffffffffffffffffffffffffffffff161415620000d0576040517f08c379a0000000000000000000000000000000000000000000000000000000008152600401808060200182810382526035815260200180620017706035913960400191505060405180910390fd5b80600160006101000a81548173ffffffffffffffffffffffffffffffffffffffff021916908373ffffffffffffffffffffffffffffffffffffffff160217905550620001266000801b336200012d60201b60201c565b50620002c3565b6200013f82826200014360201b60201c565b5050565b6200017181600080858152602001908152602001600020600001620001e660201b62000fbb1790919060201c565b15620001e257620001876200021e60201b60201c565b73ffffffffffffffffffffffffffffffffffffffff168173ffffffffffffffffffffffffffffffffffffffff16837f2f8788117e7eff1d82e926ec794901d17c78024a50270940304540a733656f0d60405160405180910390a45b5050565b600062000216836000018373ffffffffffffffffffffffffffffffffffffffff1660001b6200022660201b60201c565b905092915050565b600033905090565b60006200023a8383620002a060201b60201c565b620002955782600001829080600181540180825580915050600190039060005260206000200160009091909190915055826000018054905083600101600084815260200190815260200160002081905550600190506200029a565b600090505b92915050565b600080836001016000848152602001908152602001600020541415905092915050565b61149d80620002d36000396000f3fe608060405234801561001057600080fd5b50600436106100a95760003560e01c806391d148541161007157806391d14854146102ab578063a03720e01461030f578063a217fddf146103cc578063ca15c873146103ea578063cb422b391461042c578063d547741f146104e9576100a9565b80630396bda9146100ae578063248a9ca31461016b5780632f2ff15d146101ad57806336568abe146101fb5780639010d07c14610249575b600080fd5b6100f0600480360360208110156100c457600080fd5b81019080803573ffffffffffffffffffffffffffffffffffffffff169060200190929190505050610537565b6040518080602001828103825283818151815260200191508051906020019080838360005b83811015610130578082015181840152602081019050610115565b50505050905090810190601f16801561015d5780820380516001836020036101000a031916815260200191505b509250505060405180910390f35b6101976004803603602081101561018157600080fd5b81019080803590602001909291905050506107f0565b6040518082815260200191505060405180910390f35b6101f9600480360360408110156101c357600080fd5b8101908080359060200190929190803573ffffffffffffffffffffffffffffffffffffffff16906020019092919050505061080f565b005b6102476004803603604081101561021157600080fd5b8101908080359060200190929190803573ffffffffffffffffffffffffffffffffffffffff169060200190929190505050610898565b005b61027f6004803603604081101561025f57600080fd5b810190808035906020019092919080359060200190929190505050610931565b604051808273ffffffffffffffffffffffffffffffffffffffff16815260200191505060405180910390f35b6102f7600480360360408110156102c157600080fd5b8101908080359060200190929190803573ffffffffffffffffffffffffffffffffffffffff169060200190929190505050610962565b60405180821515815260200191505060405180910390f35b6103516004803603602081101561032557600080fd5b81019080803573ffffffffffffffffffffffffffffffffffffffff169060200190929190505050610993565b6040518080602001828103825283818151815260200191508051906020019080838360005b83811015610391578082015181840152602081019050610376565b50505050905090810190601f1680156103be5780820380516001836020036101000a031916815260200191505b509250505060405180910390f35b6103d4610c4c565b6040518082815260200191505060405180910390f35b6104166004803603602081101561040057600080fd5b8101908080359060200190929190505050610c53565b6040518082815260200191505060405180910390f35b61046e6004803603602081101561044257600080fd5b81019080803573ffffffffffffffffffffffffffffffffffffffff169060200190929190505050610c79565b6040518080602001828103825283818151815260200191508051906020019080838360005b838110156104ae578082015181840152602081019050610493565b50505050905090810190601f1680156104db5780820380516001836020036101000a031916815260200191505b509250505060405180910390f35b610535600480360360408110156104ff57600080fd5b8101908080359060200190929190803573ffffffffffffffffffffffffffffffffffffffff169060200190929190505050610f32565b005b606060005b600160009054906101000a900473ffffffffffffffffffffffffffffffffffffffff1673ffffffffffffffffffffffffffffffffffffffff1663c173ac606040518163ffffffff1660e01b815260040160206040518083038186803b1580156105a457600080fd5b505afa1580156105b8573d6000803e3d6000fd5b505050506040513d60208110156105ce57600080fd5b81019080805190602001909291905050508110156107b157600080600160009054906101000a900473ffffffffffffffffffffffffffffffffffffffff1673ffffffffffffffffffffffffffffffffffffffff16639fbae286846040518263ffffffff1660e01b81526004018082815260200191505060006040518083038186803b15801561065c57600080fd5b505afa158015610670573d6000803e3d6000fd5b505050506040513d6000823e3d601f19601f82011682018060405250604081101561069a57600080fd5b8101908080519060200190929190805160405193929190846401000000008211156106c457600080fd5b838201915060208201858111156106da57600080fd5b82518660018202830111640100000000821117156106f757600080fd5b8083526020830192505050908051906020019080838360005b8381101561072b578082015181840152602081019050610710565b50505050905090810190601f1680156107585780820380516001836020036101000a031916815260200191505b50604052505050915091508473ffffffffffffffffffffffffffffffffffffffff168273ffffffffffffffffffffffffffffffffffffffff1614156107a2578093505050506107eb565b5050808060010191505061053c565b506040518060400160405280600e81526020017f4e6f7420456e746572707269736500000000000000000000000000000000000081525090505b919050565b6000806000838152602001908152602001600020600201549050919050565b61083560008084815260200190815260200160002060020154610830610feb565b610962565b61088a576040517f08c379a000000000000000000000000000000000000000000000000000000000815260040180806020018281038252602f8152602001806113da602f913960400191505060405180910390fd5b6108948282610ff3565b5050565b6108a0610feb565b73ffffffffffffffffffffffffffffffffffffffff168173ffffffffffffffffffffffffffffffffffffffff1614610923576040517f08c379a000000000000000000000000000000000000000000000000000000000815260040180806020018281038252602f815260200180611439602f913960400191505060405180910390fd5b61092d8282611086565b5050565b600061095a8260008086815260200190815260200160002060000161111990919063ffffffff16565b905092915050565b600061098b8260008086815260200190815260200160002060000161113390919063ffffffff16565b905092915050565b606060005b600160009054906101000a900473ffffffffffffffffffffffffffffffffffffffff1673ffffffffffffffffffffffffffffffffffffffff16631dd634d76040518163ffffffff1660e01b815260040160206040518083038186803b158015610a0057600080fd5b505afa158015610a14573d6000803e3d6000fd5b505050506040513d6020811015610a2a57600080fd5b8101908080519060200190929190505050811015610c0d57600080600160009054906101000a900473ffffffffffffffffffffffffffffffffffffffff1673ffffffffffffffffffffffffffffffffffffffff1663d3156a85846040518263ffffffff1660e01b81526004018082815260200191505060006040518083038186803b158015610ab857600080fd5b505afa158015610acc573d6000803e3d6000fd5b505050506040513d6000823e3d601f19601f820116820180604052506040811015610af657600080fd5b810190808051906020019092919080516040519392919084640100000000821115610b2057600080fd5b83820191506020820185811115610b3657600080fd5b8251866001820283011164010000000082111715610b5357600080fd5b8083526020830192505050908051906020019080838360005b83811015610b87578082015181840152602081019050610b6c565b50505050905090810190601f168015610bb45780820380516001836020036101000a031916815260200191505b50604052505050915091508473ffffffffffffffffffffffffffffffffffffffff168273ffffffffffffffffffffffffffffffffffffffff161415610bfe57809350505050610c47565b50508080600101915050610998565b506040518060400160405280601381526020017f4e6f74204461746120537562736372696265720000000000000000000000000081525090505b919050565b6000801b81565b6000610c72600080848152602001908152602001600020600001611163565b9050919050565b606060005b600160009054906101000a900473ffffffffffffffffffffffffffffffffffffffff1673ffffffffffffffffffffffffffffffffffffffff1663f8838cfa6040518163ffffffff1660e01b815260040160206040518083038186803b158015610ce657600080fd5b505afa158015610cfa573d6000803e3d6000fd5b505050506040513d6020811015610d1057600080fd5b8101908080519060200190929190505050811015610ef357600080600160009054906101000a900473ffffffffffffffffffffffffffffffffffffffff1673ffffffffffffffffffffffffffffffffffffffff166335aa2e44846040518263ffffffff1660e01b81526004018082815260200191505060006040518083038186803b158015610d9e57600080fd5b505afa158015610db2573d6000803e3d6000fd5b505050506040513d6000823e3d601f19601f820116820180604052506040811015610ddc57600080fd5b810190808051906020019092919080516040519392919084640100000000821115610e0657600080fd5b83820191506020820185811115610e1c57600080fd5b8251866001820283011164010000000082111715610e3957600080fd5b8083526020830192505050908051906020019080838360005b83811015610e6d578082015181840152602081019050610e52565b50505050905090810190601f168015610e9a5780820380516001836020036101000a031916815260200191505b50604052505050915091508473ffffffffffffffffffffffffffffffffffffffff168273ffffffffffffffffffffffffffffffffffffffff161415610ee457809350505050610f2d565b50508080600101915050610c7e565b506040518060400160405280600d81526020017f4e6f742056616c696461746f720000000000000000000000000000000000000081525090505b919050565b610f5860008084815260200190815260200160002060020154610f53610feb565b610962565b610fad576040517f08c379a00000000000000000000000000000000000000000000000000000000081526004018080602001828103825260308152602001806114096030913960400191505060405180910390fd5b610fb78282611086565b5050565b6000610fe3836000018373ffffffffffffffffffffffffffffffffffffffff1660001b611178565b905092915050565b600033905090565b61101a81600080858152602001908152602001600020600001610fbb90919063ffffffff16565b1561108257611027610feb565b73ffffffffffffffffffffffffffffffffffffffff168173ffffffffffffffffffffffffffffffffffffffff16837f2f8788117e7eff1d82e926ec794901d17c78024a50270940304540a733656f0d60405160405180910390a45b5050565b6110ad816000808581526020019081526020016000206000016111e890919063ffffffff16565b15611115576110ba610feb565b73ffffffffffffffffffffffffffffffffffffffff168173ffffffffffffffffffffffffffffffffffffffff16837ff6391f5c32d9c69d2a47ea670b442974b53935d1edc7fd64eb21e047a839171b60405160405180910390a45b5050565b60006111288360000183611218565b60001c905092915050565b600061115b836000018373ffffffffffffffffffffffffffffffffffffffff1660001b61129b565b905092915050565b6000611171826000016112be565b9050919050565b6000611184838361129b565b6111dd5782600001829080600181540180825580915050600190039060005260206000200160009091909190915055826000018054905083600101600084815260200190815260200160002081905550600190506111e2565b600090505b92915050565b6000611210836000018373ffffffffffffffffffffffffffffffffffffffff1660001b6112cf565b905092915050565b600081836000018054905011611279576040517f08c379a00000000000000000000000000000000000000000000000000000000081526004018080602001828103825260228152602001806113b86022913960400191505060405180910390fd5b82600001828154811061128857fe5b9060005260206000200154905092915050565b600080836001016000848152602001908152602001600020541415905092915050565b600081600001805490509050919050565b600080836001016000848152602001908152602001600020549050600081146113ab576000600182039050600060018660000180549050039050600086600001828154811061131a57fe5b906000526020600020015490508087600001848154811061133757fe5b906000526020600020018190555060018301876001016000838152602001908152602001600020819055508660000180548061136f57fe5b600190038181906000526020600020016000905590558660010160008781526020019081526020016000206000905560019450505050506113b1565b60009150505b9291505056fe456e756d657261626c655365743a20696e646578206f7574206f6620626f756e6473416363657373436f6e74726f6c3a2073656e646572206d75737420626520616e2061646d696e20746f206772616e74416363657373436f6e74726f6c3a2073656e646572206d75737420626520616e2061646d696e20746f207265766f6b65416363657373436f6e74726f6c3a2063616e206f6e6c792072656e6f756e636520726f6c657320666f722073656c66a2646970667358221220fe7b475d3da3cbb5de5be01559fcab2b0a4c3afed577a870d0f668fbd726ecfc64736f6c634300070600334d656d62657248656c706572733a636f6e7374727563746f72202d204d656d62657220616464726573732063616e27742062652030",
  "immutableReferences": {},
  "source": "// SPDX-License-Identifier: MIT\npragma solidity =0.7.6;\nimport \"./Members.sol\";\nimport \"@openzeppelin/contracts/access/AccessControl.sol\";\n\ncontract MemberHelpers is  AccessControl {\n\n    Members members;\n\n\n    constructor(address  _members ) {\n\n        require(_members != address(0), \"MemberHelpers:constructor - Member address can't be 0\");\n        members = Members(_members);\n        _setupRole(DEFAULT_ADMIN_ROLE, msg.sender);\n    }\n\n    /*\n    * @dev return name of the enterprise\n    * @param enterprise to return the name\n    */\n    function returnEnterpriseName(address enterprise) public view returns (string memory) {\n\n        for (uint256 i = 0; i < members.returnEnterpriseCount(); i++){\n            (address user, string memory name) = members.enterprises(i);\n\n            if (user == enterprise)\n                return name;\n        }\n        return \"Not Enterprise\";\n    }\n\n    /*\n    * @dev return name of the validator\n    * @param validator to return the name\n    */\n    function returnValidatorName(address validator) public view returns (string memory) {\n\n        for (uint256 i = 0; i < members.returnValidatorCount(); i++){\n\n            (address user, string memory name) = members.validators(i);\n            if (user == validator)\n                return name;\n        }\n        return \"Not Validator\";\n    }\n    \n\n    /*\n    * @dev return name of the data subscriber\n    * @param validator to return the name\n    */\n    function returnDataSubscriberName(address dataSubscribers) public view returns (string memory) {\n\n        for (uint256 i = 0; i < members.returnDataSubscriberCount(); i++){\n            (address user, string memory name) = members.dataSubscribers(i);\n            if (user == dataSubscribers)\n                return name;\n        }\n        return \"Not Data Subscriber\";\n    }\n}",
  "sourcePath": "/home/bogdan/Ethereum/Projects/TGE/Core-Smart-Contracts-v1/contracts/Auditchain/MemberHelpers.sol",
  "compiler": {
    "name": "solc",
    "version": "0.7.6+commit.7338295f.Emscripten.clang"
  },
  "schemaVersion": "3.3.4",
  "updatedAt": "2021-03-17T23:25:23.637Z",
  "networkType": "ethereum",
  "devdoc": {
    "kind": "dev",
    "methods": {
      "getRoleAdmin(bytes32)": {
        "details": "Returns the admin role that controls `role`. See {grantRole} and {revokeRole}. To change a role's admin, use {_setRoleAdmin}."
      },
      "getRoleMember(bytes32,uint256)": {
        "details": "Returns one of the accounts that have `role`. `index` must be a value between 0 and {getRoleMemberCount}, non-inclusive. Role bearers are not sorted in any particular way, and their ordering may change at any point. WARNING: When using {getRoleMember} and {getRoleMemberCount}, make sure you perform all queries on the same block. See the following https://forum.openzeppelin.com/t/iterating-over-elements-on-enumerableset-in-openzeppelin-contracts/2296[forum post] for more information."
      },
      "getRoleMemberCount(bytes32)": {
        "details": "Returns the number of accounts that have `role`. Can be used together with {getRoleMember} to enumerate all bearers of a role."
      },
      "grantRole(bytes32,address)": {
        "details": "Grants `role` to `account`. If `account` had not been already granted `role`, emits a {RoleGranted} event. Requirements: - the caller must have ``role``'s admin role."
      },
      "hasRole(bytes32,address)": {
        "details": "Returns `true` if `account` has been granted `role`."
      },
      "renounceRole(bytes32,address)": {
        "details": "Revokes `role` from the calling account. Roles are often managed via {grantRole} and {revokeRole}: this function's purpose is to provide a mechanism for accounts to lose their privileges if they are compromised (such as when a trusted device is misplaced). If the calling account had been granted `role`, emits a {RoleRevoked} event. Requirements: - the caller must be `account`."
      },
      "revokeRole(bytes32,address)": {
        "details": "Revokes `role` from `account`. If `account` had been granted `role`, emits a {RoleRevoked} event. Requirements: - the caller must have ``role``'s admin role."
      }
    },
    "version": 1
  },
  "userdoc": {
    "kind": "user",
    "methods": {},
    "version": 1
  }
}