{
  "contractName": "MemberHelpers",
  "abi": [
    {
      "inputs": [
        {
          "internalType": "address",
          "name": "_members",
          "type": "address"
        },
        {
          "internalType": "address",
          "name": "_auditToken",
          "type": "address"
        }
      ],
      "stateMutability": "nonpayable",
      "type": "constructor"
    },
    {
      "anonymous": false,
      "inputs": [
        {
          "indexed": false,
          "internalType": "address",
          "name": "user",
          "type": "address"
        },
        {
          "indexed": false,
          "internalType": "uint256",
          "name": "amount",
          "type": "uint256"
        }
      ],
      "name": "LogDecreaseDeposit",
      "type": "event"
    },
    {
      "anonymous": false,
      "inputs": [
        {
          "indexed": true,
          "internalType": "address",
          "name": "from",
          "type": "address"
        },
        {
          "indexed": false,
          "internalType": "uint256",
          "name": "amount",
          "type": "uint256"
        }
      ],
      "name": "LogDepositReceived",
      "type": "event"
    },
    {
      "anonymous": false,
      "inputs": [
        {
          "indexed": true,
          "internalType": "address",
          "name": "from",
          "type": "address"
        },
        {
          "indexed": false,
          "internalType": "uint256",
          "name": "amount",
          "type": "uint256"
        }
      ],
      "name": "LogDepositRedeemed",
      "type": "event"
    },
    {
      "anonymous": false,
      "inputs": [
        {
          "indexed": false,
          "internalType": "address",
          "name": "user",
          "type": "address"
        },
        {
          "indexed": false,
          "internalType": "uint256",
          "name": "amount",
          "type": "uint256"
        }
      ],
      "name": "LogIncreaseDeposit",
      "type": "event"
    },
    {
      "anonymous": false,
      "inputs": [
        {
          "indexed": true,
          "internalType": "bytes32",
          "name": "role",
          "type": "bytes32"
        },
        {
          "indexed": true,
          "internalType": "bytes32",
          "name": "previousAdminRole",
          "type": "bytes32"
        },
        {
          "indexed": true,
          "internalType": "bytes32",
          "name": "newAdminRole",
          "type": "bytes32"
        }
      ],
      "name": "RoleAdminChanged",
      "type": "event"
    },
    {
      "anonymous": false,
      "inputs": [
        {
          "indexed": true,
          "internalType": "bytes32",
          "name": "role",
          "type": "bytes32"
        },
        {
          "indexed": true,
          "internalType": "address",
          "name": "account",
          "type": "address"
        },
        {
          "indexed": true,
          "internalType": "address",
          "name": "sender",
          "type": "address"
        }
      ],
      "name": "RoleGranted",
      "type": "event"
    },
    {
      "anonymous": false,
      "inputs": [
        {
          "indexed": true,
          "internalType": "bytes32",
          "name": "role",
          "type": "bytes32"
        },
        {
          "indexed": true,
          "internalType": "address",
          "name": "account",
          "type": "address"
        },
        {
          "indexed": true,
          "internalType": "address",
          "name": "sender",
          "type": "address"
        }
      ],
      "name": "RoleRevoked",
      "type": "event"
    },
    {
      "inputs": [],
      "name": "CONTROLLER_ROLE",
      "outputs": [
        {
          "internalType": "bytes32",
          "name": "",
          "type": "bytes32"
        }
      ],
      "stateMutability": "view",
      "type": "function",
      "constant": true
    },
    {
      "inputs": [],
      "name": "DEFAULT_ADMIN_ROLE",
      "outputs": [
        {
          "internalType": "bytes32",
          "name": "",
          "type": "bytes32"
        }
      ],
      "stateMutability": "view",
      "type": "function",
      "constant": true
    },
    {
      "inputs": [],
      "name": "auditToken",
      "outputs": [
        {
          "internalType": "address",
          "name": "",
          "type": "address"
        }
      ],
      "stateMutability": "view",
      "type": "function",
      "constant": true
    },
    {
      "inputs": [
        {
          "internalType": "address",
          "name": "",
          "type": "address"
        }
      ],
      "name": "deposits",
      "outputs": [
        {
          "internalType": "uint256",
          "name": "",
          "type": "uint256"
        }
      ],
      "stateMutability": "view",
      "type": "function",
      "constant": true
    },
    {
      "inputs": [
        {
          "internalType": "bytes32",
          "name": "role",
          "type": "bytes32"
        }
      ],
      "name": "getRoleAdmin",
      "outputs": [
        {
          "internalType": "bytes32",
          "name": "",
          "type": "bytes32"
        }
      ],
      "stateMutability": "view",
      "type": "function",
      "constant": true
    },
    {
      "inputs": [
        {
          "internalType": "bytes32",
          "name": "role",
          "type": "bytes32"
        },
        {
          "internalType": "address",
          "name": "account",
          "type": "address"
        }
      ],
      "name": "grantRole",
      "outputs": [],
      "stateMutability": "nonpayable",
      "type": "function"
    },
    {
      "inputs": [
        {
          "internalType": "bytes32",
          "name": "role",
          "type": "bytes32"
        },
        {
          "internalType": "address",
          "name": "account",
          "type": "address"
        }
      ],
      "name": "hasRole",
      "outputs": [
        {
          "internalType": "bool",
          "name": "",
          "type": "bool"
        }
      ],
      "stateMutability": "view",
      "type": "function",
      "constant": true
    },
    {
      "inputs": [],
      "name": "maxContribution",
      "outputs": [
        {
          "internalType": "uint256",
          "name": "",
          "type": "uint256"
        }
      ],
      "stateMutability": "view",
      "type": "function",
      "constant": true
    },
    {
      "inputs": [],
      "name": "minContribution",
      "outputs": [
        {
          "internalType": "uint256",
          "name": "",
          "type": "uint256"
        }
      ],
      "stateMutability": "view",
      "type": "function",
      "constant": true
    },
    {
      "inputs": [
        {
          "internalType": "bytes32",
          "name": "role",
          "type": "bytes32"
        },
        {
          "internalType": "address",
          "name": "account",
          "type": "address"
        }
      ],
      "name": "renounceRole",
      "outputs": [],
      "stateMutability": "nonpayable",
      "type": "function"
    },
    {
      "inputs": [
        {
          "internalType": "bytes32",
          "name": "role",
          "type": "bytes32"
        },
        {
          "internalType": "address",
          "name": "account",
          "type": "address"
        }
      ],
      "name": "revokeRole",
      "outputs": [],
      "stateMutability": "nonpayable",
      "type": "function"
    },
    {
      "inputs": [
        {
          "internalType": "bytes4",
          "name": "interfaceId",
          "type": "bytes4"
        }
      ],
      "name": "supportsInterface",
      "outputs": [
        {
          "internalType": "bool",
          "name": "",
          "type": "bool"
        }
      ],
      "stateMutability": "view",
      "type": "function",
      "constant": true
    },
    {
      "inputs": [],
      "name": "totalStaked",
      "outputs": [
        {
          "internalType": "uint256",
          "name": "",
          "type": "uint256"
        }
      ],
      "stateMutability": "view",
      "type": "function",
      "constant": true
    },
    {
      "inputs": [],
      "name": "validations",
      "outputs": [
        {
          "internalType": "contract IValidations",
          "name": "",
          "type": "address"
        }
      ],
      "stateMutability": "view",
      "type": "function",
      "constant": true
    },
    {
      "inputs": [
        {
          "internalType": "address",
          "name": "user",
          "type": "address"
        }
      ],
      "name": "returnDepositAmount",
      "outputs": [
        {
          "internalType": "uint256",
          "name": "",
          "type": "uint256"
        }
      ],
      "stateMutability": "view",
      "type": "function",
      "constant": true
    },
    {
      "inputs": [
        {
          "internalType": "address",
          "name": "user",
          "type": "address"
        },
        {
          "internalType": "uint256",
          "name": "amount",
          "type": "uint256"
        }
      ],
      "name": "increaseDeposit",
      "outputs": [],
      "stateMutability": "nonpayable",
      "type": "function"
    },
    {
      "inputs": [
        {
          "internalType": "address",
          "name": "user",
          "type": "address"
        },
        {
          "internalType": "uint256",
          "name": "amount",
          "type": "uint256"
        }
      ],
      "name": "decreaseDeposit",
      "outputs": [],
      "stateMutability": "nonpayable",
      "type": "function"
    },
    {
      "inputs": [
        {
          "internalType": "uint256",
          "name": "amount",
          "type": "uint256"
        }
      ],
      "name": "stake",
      "outputs": [],
      "stateMutability": "nonpayable",
      "type": "function"
    },
    {
      "inputs": [
        {
          "internalType": "uint256",
          "name": "amount",
          "type": "uint256"
        }
      ],
      "name": "redeem",
      "outputs": [],
      "stateMutability": "nonpayable",
      "type": "function"
    },
    {
      "inputs": [
        {
          "internalType": "address",
          "name": "_validations",
          "type": "address"
        }
      ],
      "name": "setValidation",
      "outputs": [],
      "stateMutability": "nonpayable",
      "type": "function"
    }
  ],
  "bytecode": "0x608060405269010f0cf064dd5920000060055569054b40b1f852bda000006006553480156200002d57600080fd5b506040516200354138038062003541833981810160405281019062000053919062000368565b600073ffffffffffffffffffffffffffffffffffffffff168273ffffffffffffffffffffffffffffffffffffffff161415620000c6576040517f08c379a0000000000000000000000000000000000000000000000000000000008152600401620000bd9062000479565b60405180910390fd5b600073ffffffffffffffffffffffffffffffffffffffff168173ffffffffffffffffffffffffffffffffffffffff16141562000139576040517f08c379a000000000000000000000000000000000000000000000000000000000815260040162000130906200049b565b60405180910390fd5b81600260006101000a81548173ffffffffffffffffffffffffffffffffffffffff021916908373ffffffffffffffffffffffffffffffffffffffff16021790555080600160006101000a81548173ffffffffffffffffffffffffffffffffffffffff021916908373ffffffffffffffffffffffffffffffffffffffff160217905550620001d06000801b33620001d860201b60201c565b50506200051c565b620001ea8282620001ee60201b60201c565b5050565b620002008282620002df60201b60201c565b620002db57600160008084815260200190815260200160002060000160008373ffffffffffffffffffffffffffffffffffffffff1673ffffffffffffffffffffffffffffffffffffffff16815260200190815260200160002060006101000a81548160ff021916908315150217905550620002806200034960201b60201c565b73ffffffffffffffffffffffffffffffffffffffff168173ffffffffffffffffffffffffffffffffffffffff16837f2f8788117e7eff1d82e926ec794901d17c78024a50270940304540a733656f0d60405160405180910390a45b5050565b600080600084815260200190815260200160002060000160008373ffffffffffffffffffffffffffffffffffffffff1673ffffffffffffffffffffffffffffffffffffffff16815260200190815260200160002060009054906101000a900460ff16905092915050565b600033905090565b600081519050620003628162000502565b92915050565b600080604083850312156200037c57600080fd5b60006200038c8582860162000351565b92505060206200039f8582860162000351565b9150509250929050565b6000620003b8603583620004bd565b91507f4d656d62657248656c706572733a636f6e7374727563746f72202d204d656d6260008301527f657220616464726573732063616e2774206265203000000000000000000000006020830152604082019050919050565b600062000420603383620004bd565b91507f4d656d62657248656c706572733a736574436f686f7274202d20436f686f727460008301527f20616464726573732063616e27742062652030000000000000000000000000006020830152604082019050919050565b600060208201905081810360008301526200049481620003a9565b9050919050565b60006020820190508181036000830152620004b68162000411565b9050919050565b600082825260208201905092915050565b6000620004db82620004e2565b9050919050565b600073ffffffffffffffffffffffffffffffffffffffff82169050919050565b6200050d81620004ce565b81146200051957600080fd5b50565b613015806200052c6000396000f3fe608060405234801561001057600080fd5b506004361061012c5760003560e01c8063a217fddf116100ad578063d417b7b311610071578063d417b7b314610331578063d547741f1461034d578063db006a7514610369578063de17f72014610385578063fc7e286d146103a35761012c565b8063a217fddf146102a1578063a264c7cf146102bf578063a694fc3a146102db578063aaffadf3146102f7578063c3fb1a6e146103155761012c565b8063817b1cd2116100f4578063817b1cd2146101e75780638319d390146102055780638d3d65761461023557806391d148541461025357806398c3c116146102835761012c565b806301ffc9a714610131578063092c5b3b14610161578063248a9ca31461017f5780632f2ff15d146101af57806336568abe146101cb575b600080fd5b61014b600480360381019061014691906121f0565b6103d3565b6040516101589190612a56565b60405180910390f35b61016961044d565b6040516101769190612a71565b60405180910390f35b6101996004803603810190610194919061218b565b610471565b6040516101a69190612a71565b60405180910390f35b6101c960048036038101906101c491906121b4565b610490565b005b6101e560048036038101906101e091906121b4565b6104b9565b005b6101ef61053c565b6040516101fc9190612c29565b60405180910390f35b61021f600480360381019061021a91906120fd565b610542565b60405161022c9190612c29565b60405180910390f35b61023d61058b565b60405161024a9190612c29565b60405180910390f35b61026d600480360381019061026891906121b4565b610591565b60405161027a9190612a56565b60405180910390f35b61028b6105fb565b60405161029891906129b2565b60405180910390f35b6102a9610621565b6040516102b69190612a71565b60405180910390f35b6102d960048036038101906102d491906120fd565b610628565b005b6102f560048036038101906102f09190612219565b6107a5565b005b6102ff610e40565b60405161030c9190612c29565b60405180910390f35b61032f600480360381019061032a9190612126565b610e46565b005b61034b60048036038101906103469190612126565b610fe1565b005b610367600480360381019061036291906121b4565b61117c565b005b610383600480360381019061037e9190612219565b6111a5565b005b61038d6116a3565b60405161039a9190612a8c565b60405180910390f35b6103bd60048036038101906103b891906120fd565b6116c9565b6040516103ca9190612c29565b60405180910390f35b60007f7965db0b000000000000000000000000000000000000000000000000000000007bffffffffffffffffffffffffffffffffffffffffffffffffffffffff1916827bffffffffffffffffffffffffffffffffffffffffffffffffffffffff191614806104465750610445826116e1565b5b9050919050565b7f7b765e0e932d348852a6f810bfa1ab891e259123f02db8cdcde614c57022335781565b6000806000838152602001908152602001600020600101549050919050565b61049982610471565b6104aa816104a561174b565b611753565b6104b483836117f0565b505050565b6104c161174b565b73ffffffffffffffffffffffffffffffffffffffff168173ffffffffffffffffffffffffffffffffffffffff161461052e576040517f08c379a000000000000000000000000000000000000000000000000000000000815260040161052590612c09565b60405180910390fd5b61053882826118d0565b5050565b60075481565b6000600460008373ffffffffffffffffffffffffffffffffffffffff1673ffffffffffffffffffffffffffffffffffffffff168152602001908152602001600020549050919050565b60065481565b600080600084815260200190815260200160002060000160008373ffffffffffffffffffffffffffffffffffffffff1673ffffffffffffffffffffffffffffffffffffffff16815260200190815260200160002060009054906101000a900460ff16905092915050565b600160009054906101000a900473ffffffffffffffffffffffffffffffffffffffff1681565b6000801b81565b6040518060400160405280600d81526020017f73657456616c69646174696f6e00000000000000000000000000000000000000815250600081604051602001610671919061294b565b60405160208183030381529060405290506106ac7f7b765e0e932d348852a6f810bfa1ab891e259123f02db8cdcde614c57022335733610591565b81906106ee576040517f08c379a00000000000000000000000000000000000000000000000000000000081526004016106e59190612aa7565b60405180910390fd5b50600073ffffffffffffffffffffffffffffffffffffffff168373ffffffffffffffffffffffffffffffffffffffff16141561075f576040517f08c379a000000000000000000000000000000000000000000000000000000000815260040161075690612be9565b60405180910390fd5b82600360006101000a81548173ffffffffffffffffffffffffffffffffffffffff021916908373ffffffffffffffffffffffffffffffffffffffff160217905550505050565b600081116107e8576040517f08c379a00000000000000000000000000000000000000000000000000000000081526004016107df90612b49565b60405180910390fd5b600260009054906101000a900473ffffffffffffffffffffffffffffffffffffffff1673ffffffffffffffffffffffffffffffffffffffff16636f9cf9853360016002811115610861577f4e487b7100000000000000000000000000000000000000000000000000000000600052602160045260246000fd5b6040518363ffffffff1660e01b815260040161087e929190612a04565b60206040518083038186803b15801561089657600080fd5b505afa1580156108aa573d6000803e3d6000fd5b505050506040513d601f19601f820116820180604052508101906108ce9190612162565b156109f257600554600460003373ffffffffffffffffffffffffffffffffffffffff1673ffffffffffffffffffffffffffffffffffffffff16815260200190815260200160002054826109219190612c81565b1015610962576040517f08c379a000000000000000000000000000000000000000000000000000000000815260040161095990612ae9565b60405180910390fd5b600654600460003373ffffffffffffffffffffffffffffffffffffffff1673ffffffffffffffffffffffffffffffffffffffff16815260200190815260200160002054826109b09190612c81565b11156109f1576040517f08c379a00000000000000000000000000000000000000000000000000000000081526004016109e890612b89565b60405180910390fd5b5b600260009054906101000a900473ffffffffffffffffffffffffffffffffffffffff1673ffffffffffffffffffffffffffffffffffffffff16636f9cf9853360006002811115610a6b577f4e487b7100000000000000000000000000000000000000000000000000000000600052602160045260246000fd5b6040518363ffffffff1660e01b8152600401610a88929190612a04565b60206040518083038186803b158015610aa057600080fd5b505afa158015610ab4573d6000803e3d6000fd5b505050506040513d601f19601f82011682018060405250810190610ad89190612162565b80610bc55750600260009054906101000a900473ffffffffffffffffffffffffffffffffffffffff1673ffffffffffffffffffffffffffffffffffffffff16636f9cf9853360016002811115610b57577f4e487b7100000000000000000000000000000000000000000000000000000000600052602160045260246000fd5b6040518363ffffffff1660e01b8152600401610b74929190612a04565b60206040518083038186803b158015610b8c57600080fd5b505afa158015610ba0573d6000803e3d6000fd5b505050506040513d601f19601f82011682018060405250810190610bc49190612162565b5b80610cb15750600260009054906101000a900473ffffffffffffffffffffffffffffffffffffffff1673ffffffffffffffffffffffffffffffffffffffff16636f9cf98533600280811115610c43577f4e487b7100000000000000000000000000000000000000000000000000000000600052602160045260246000fd5b6040518363ffffffff1660e01b8152600401610c60929190612a04565b60206040518083038186803b158015610c7857600080fd5b505afa158015610c8c573d6000803e3d6000fd5b505050506040513d601f19601f82011682018060405250810190610cb09190612162565b5b610cf0576040517f08c379a0000000000000000000000000000000000000000000000000000000008152600401610ce790612b09565b60405180910390fd5b610d3f333083600160009054906101000a900473ffffffffffffffffffffffffffffffffffffffff1673ffffffffffffffffffffffffffffffffffffffff166119b1909392919063ffffffff16565b610d9181600460003373ffffffffffffffffffffffffffffffffffffffff1673ffffffffffffffffffffffffffffffffffffffff16815260200190815260200160002054611a3a90919063ffffffff16565b600460003373ffffffffffffffffffffffffffffffffffffffff1673ffffffffffffffffffffffffffffffffffffffff16815260200190815260200160002081905550610de981600754611a3a90919063ffffffff16565b6007819055503373ffffffffffffffffffffffffffffffffffffffff167f3916187166447a01764df803fb1147a37c55a4ca1c7271a7a75c0ab1079b2d9582604051610e359190612c29565b60405180910390a250565b60055481565b6040518060400160405280600f81526020017f64656372656173654465706f6973740000000000000000000000000000000000815250600081604051602001610e8f919061294b565b6040516020818303038152906040529050610eca7f7b765e0e932d348852a6f810bfa1ab891e259123f02db8cdcde614c57022335733610591565b8190610f0c576040517f08c379a0000000000000000000000000000000000000000000000000000000008152600401610f039190612aa7565b60405180910390fd5b50610f5f83600460008773ffffffffffffffffffffffffffffffffffffffff1673ffffffffffffffffffffffffffffffffffffffff16815260200190815260200160002054611a5090919063ffffffff16565b600460008673ffffffffffffffffffffffffffffffffffffffff1673ffffffffffffffffffffffffffffffffffffffff168152602001908152602001600020819055507fc712b41e0b9b7891d0d4ffebc1102bbe2f6ffa1ad4d8047cda3a6dd03ca6ed428484604051610fd3929190612a2d565b60405180910390a150505050565b6040518060400160405280600f81526020017f696e6372656173654465706f736974000000000000000000000000000000000081525060008160405160200161102a919061294b565b60405160208183030381529060405290506110657f7b765e0e932d348852a6f810bfa1ab891e259123f02db8cdcde614c57022335733610591565b81906110a7576040517f08c379a000000000000000000000000000000000000000000000000000000000815260040161109e9190612aa7565b60405180910390fd5b506110fa83600460008773ffffffffffffffffffffffffffffffffffffffff1673ffffffffffffffffffffffffffffffffffffffff16815260200190815260200160002054611a3a90919063ffffffff16565b600460008673ffffffffffffffffffffffffffffffffffffffff1673ffffffffffffffffffffffffffffffffffffffff168152602001908152602001600020819055507f6c5e7e4e203673af133e4db76883b962ff3faf782281e7bea6f78f2c7874dba0848460405161116e929190612a2d565b60405180910390a150505050565b61118582610471565b6111968161119161174b565b611753565b6111a083836118d0565b505050565b600260009054906101000a900473ffffffffffffffffffffffffffffffffffffffff1673ffffffffffffffffffffffffffffffffffffffff16636f9cf985336000600281111561121e577f4e487b7100000000000000000000000000000000000000000000000000000000600052602160045260246000fd5b6040518363ffffffff1660e01b815260040161123b929190612a04565b60206040518083038186803b15801561125357600080fd5b505afa158015611267573d6000803e3d6000fd5b505050506040513d601f19601f8201168201806040525081019061128b9190612162565b15611555576000600360009054906101000a900473ffffffffffffffffffffffffffffffffffffffff1673ffffffffffffffffffffffffffffffffffffffff1663f9e0853a336040518263ffffffff1660e01b81526004016112ed91906129b2565b60206040518083038186803b15801561130557600080fd5b505afa158015611319573d6000803e3d6000fd5b505050506040513d601f19601f8201168201806040525081019061133d9190612242565b9050600081111561155357816115116114c36127106114b5856114a7600260009054906101000a900473ffffffffffffffffffffffffffffffffffffffff1673ffffffffffffffffffffffffffffffffffffffff16634d9c798c6040518163ffffffff1660e01b815260040160206040518083038186803b1580156113c157600080fd5b505afa1580156113d5573d6000803e3d6000fd5b505050506040513d601f19601f820116820180604052508101906113f99190612242565b600260009054906101000a900473ffffffffffffffffffffffffffffffffffffffff1673ffffffffffffffffffffffffffffffffffffffff1663a7579be86040518163ffffffff1660e01b815260040160206040518083038186803b15801561146157600080fd5b505afa158015611475573d6000803e3d6000fd5b505050506040513d601f19601f820116820180604052508101906114999190612242565b611a6690919063ffffffff16565b611a6690919063ffffffff16565b611a7c90919063ffffffff16565b600460003373ffffffffffffffffffffffffffffffffffffffff1673ffffffffffffffffffffffffffffffffffffffff16815260200190815260200160002054611a5090919063ffffffff16565b1015611552576040517f08c379a000000000000000000000000000000000000000000000000000000000815260040161154990612b69565b60405180910390fd5b5b505b6115a781600460003373ffffffffffffffffffffffffffffffffffffffff1673ffffffffffffffffffffffffffffffffffffffff16815260200190815260200160002054611a5090919063ffffffff16565b600460003373ffffffffffffffffffffffffffffffffffffffff1673ffffffffffffffffffffffffffffffffffffffff168152602001908152602001600020819055506115ff81600754611a5090919063ffffffff16565b6007819055506116523382600160009054906101000a900473ffffffffffffffffffffffffffffffffffffffff1673ffffffffffffffffffffffffffffffffffffffff16611a929092919063ffffffff16565b3373ffffffffffffffffffffffffffffffffffffffff167f20753e209c8b7c10296bc27da0f765febee7e5b7ef4056d315655b1687468b7d826040516116989190612c29565b60405180910390a250565b600360009054906101000a900473ffffffffffffffffffffffffffffffffffffffff1681565b60046020528060005260406000206000915090505481565b60007f01ffc9a7000000000000000000000000000000000000000000000000000000007bffffffffffffffffffffffffffffffffffffffffffffffffffffffff1916827bffffffffffffffffffffffffffffffffffffffffffffffffffffffff1916149050919050565b600033905090565b61175d8282610591565b6117ec576117828173ffffffffffffffffffffffffffffffffffffffff166014611b18565b6117908360001c6020611b18565b6040516020016117a1929190612978565b6040516020818303038152906040526040517f08c379a00000000000000000000000000000000000000000000000000000000081526004016117e39190612aa7565b60405180910390fd5b5050565b6117fa8282610591565b6118cc57600160008084815260200190815260200160002060000160008373ffffffffffffffffffffffffffffffffffffffff1673ffffffffffffffffffffffffffffffffffffffff16815260200190815260200160002060006101000a81548160ff02191690831515021790555061187161174b565b73ffffffffffffffffffffffffffffffffffffffff168173ffffffffffffffffffffffffffffffffffffffff16837f2f8788117e7eff1d82e926ec794901d17c78024a50270940304540a733656f0d60405160405180910390a45b5050565b6118da8282610591565b156119ad57600080600084815260200190815260200160002060000160008373ffffffffffffffffffffffffffffffffffffffff1673ffffffffffffffffffffffffffffffffffffffff16815260200190815260200160002060006101000a81548160ff02191690831515021790555061195261174b565b73ffffffffffffffffffffffffffffffffffffffff168173ffffffffffffffffffffffffffffffffffffffff16837ff6391f5c32d9c69d2a47ea670b442974b53935d1edc7fd64eb21e047a839171b60405160405180910390a45b5050565b611a34846323b872dd60e01b8585856040516024016119d2939291906129cd565b604051602081830303815290604052907bffffffffffffffffffffffffffffffffffffffffffffffffffffffff19166020820180517bffffffffffffffffffffffffffffffffffffffffffffffffffffffff8381831617835250505050611e12565b50505050565b60008183611a489190612c81565b905092915050565b60008183611a5e9190612d62565b905092915050565b60008183611a749190612d08565b905092915050565b60008183611a8a9190612cd7565b905092915050565b611b138363a9059cbb60e01b8484604051602401611ab1929190612a2d565b604051602081830303815290604052907bffffffffffffffffffffffffffffffffffffffffffffffffffffffff19166020820180517bffffffffffffffffffffffffffffffffffffffffffffffffffffffff8381831617835250505050611e12565b505050565b606060006002836002611b2b9190612d08565b611b359190612c81565b67ffffffffffffffff811115611b74577f4e487b7100000000000000000000000000000000000000000000000000000000600052604160045260246000fd5b6040519080825280601f01601f191660200182016040528015611ba65781602001600182028036833780820191505090505b5090507f300000000000000000000000000000000000000000000000000000000000000081600081518110611c04577f4e487b7100000000000000000000000000000000000000000000000000000000600052603260045260246000fd5b60200101907effffffffffffffffffffffffffffffffffffffffffffffffffffffffffffff1916908160001a9053507f780000000000000000000000000000000000000000000000000000000000000081600181518110611c8e577f4e487b7100000000000000000000000000000000000000000000000000000000600052603260045260246000fd5b60200101907effffffffffffffffffffffffffffffffffffffffffffffffffffffffffffff1916908160001a90535060006001846002611cce9190612d08565b611cd89190612c81565b90505b6001811115611dc4577f3031323334353637383961626364656600000000000000000000000000000000600f861660108110611d40577f4e487b7100000000000000000000000000000000000000000000000000000000600052603260045260246000fd5b1a60f81b828281518110611d7d577f4e487b7100000000000000000000000000000000000000000000000000000000600052603260045260246000fd5b60200101907effffffffffffffffffffffffffffffffffffffffffffffffffffffffffffff1916908160001a905350600485901c945080611dbd90612e90565b9050611cdb565b5060008414611e08576040517f08c379a0000000000000000000000000000000000000000000000000000000008152600401611dff90612ac9565b60405180910390fd5b8091505092915050565b6000611e74826040518060400160405280602081526020017f5361666545524332303a206c6f772d6c6576656c2063616c6c206661696c65648152508573ffffffffffffffffffffffffffffffffffffffff16611ed99092919063ffffffff16565b9050600081511115611ed45780806020019051810190611e949190612162565b611ed3576040517f08c379a0000000000000000000000000000000000000000000000000000000008152600401611eca90612bc9565b60405180910390fd5b5b505050565b6060611ee88484600085611ef1565b90509392505050565b606082471015611f36576040517f08c379a0000000000000000000000000000000000000000000000000000000008152600401611f2d90612b29565b60405180910390fd5b611f3f85612005565b611f7e576040517f08c379a0000000000000000000000000000000000000000000000000000000008152600401611f7590612ba9565b60405180910390fd5b6000808673ffffffffffffffffffffffffffffffffffffffff168587604051611fa79190612934565b60006040518083038185875af1925050503d8060008114611fe4576040519150601f19603f3d011682016040523d82523d6000602084013e611fe9565b606091505b5091509150611ff9828286612018565b92505050949350505050565b600080823b905060008111915050919050565b6060831561202857829050612078565b60008351111561203b5782518084602001fd5b816040517f08c379a000000000000000000000000000000000000000000000000000000000815260040161206f9190612aa7565b60405180910390fd5b9392505050565b60008135905061208e81612f6c565b92915050565b6000815190506120a381612f83565b92915050565b6000813590506120b881612f9a565b92915050565b6000813590506120cd81612fb1565b92915050565b6000813590506120e281612fc8565b92915050565b6000815190506120f781612fc8565b92915050565b60006020828403121561210f57600080fd5b600061211d8482850161207f565b91505092915050565b6000806040838503121561213957600080fd5b60006121478582860161207f565b9250506020612158858286016120d3565b9150509250929050565b60006020828403121561217457600080fd5b600061218284828501612094565b91505092915050565b60006020828403121561219d57600080fd5b60006121ab848285016120a9565b91505092915050565b600080604083850312156121c757600080fd5b60006121d5858286016120a9565b92505060206121e68582860161207f565b9150509250929050565b60006020828403121561220257600080fd5b6000612210848285016120be565b91505092915050565b60006020828403121561222b57600080fd5b6000612239848285016120d3565b91505092915050565b60006020828403121561225457600080fd5b6000612262848285016120e8565b91505092915050565b61227481612d96565b82525050565b61228381612da8565b82525050565b61229281612db4565b82525050565b60006122a382612c44565b6122ad8185612c5a565b93506122bd818560208601612e5d565b80840191505092915050565b6122d281612e27565b82525050565b6122e181612e4b565b82525050565b60006122f282612c4f565b6122fc8185612c65565b935061230c818560208601612e5d565b61231581612f47565b840191505092915050565b600061232b82612c4f565b6123358185612c76565b9350612345818560208601612e5d565b80840191505092915050565b600061235e602083612c65565b91507f537472696e67733a20686578206c656e67746820696e73756666696369656e746000830152602082019050919050565b600061239e604583612c65565b91507f4d656d62657248656c706572733a7374616b65202d204d696e696d756d20636f60008301527f6e747269627574696f6e20616d6f756e7420697320353030302041554454207460208301527f6f6b656e730000000000000000000000000000000000000000000000000000006040830152606082019050919050565b600061242a604a83612c65565b91507f5374616b696e673a7374616b65202d205573657220686173206265656e206e6f60008301527f74207265676973746572656420617320612076616c696461746f72206f72206560208301527f6e74657270726973652e000000000000000000000000000000000000000000006040830152606082019050919050565b60006124b6602683612c65565b91507f416464726573733a20696e73756666696369656e742062616c616e636520666f60008301527f722063616c6c00000000000000000000000000000000000000000000000000006020830152604082019050919050565b600061251c602783612c65565b91507f4d656d62657248656c706572733a7374616b65202d20416d6f756e742063616e60008301527f27742062652030000000000000000000000000000000000000000000000000006020830152604082019050919050565b6000612582605983612c65565b91507f4d656d62657248656c706572733a72656465656d202d20596f7572206465706f60008301527f7369742077696c6c20626520746f6f206c6f7720746f2066756c6c66696c207960208301527f6f7572206f75747374616e64696e67207061796d656e74732e000000000000006040830152606082019050919050565b600061260e604683612c65565b91507f4d656d62657248656c706572733a7374616b65202d204d6178696d756d20636f60008301527f6e747269627574696f6e20616d6f756e7420697320323530303020415544542060208301527f746f6b656e7300000000000000000000000000000000000000000000000000006040830152606082019050919050565b600061269a602783612c76565b91507f4d656d62657248656c70657273286973436f6e74726f6c6c6572202d204d6f6460008301527f6966696572293a000000000000000000000000000000000000000000000000006020830152602782019050919050565b6000612700601d83612c65565b91507f416464726573733a2063616c6c20746f206e6f6e2d636f6e74726163740000006000830152602082019050919050565b6000612740601783612c76565b91507f416363657373436f6e74726f6c3a206163636f756e74200000000000000000006000830152601782019050919050565b6000612780602a83612c65565b91507f5361666545524332303a204552433230206f7065726174696f6e20646964206e60008301527f6f742073756363656564000000000000000000000000000000000000000000006020830152604082019050919050565b60006127e6603b83612c65565b91507f4d656d62657248656c706572733a73657456616c69646174696f6e202d20566160008301527f6c69646174696f6e20616464726573732063616e2774206265203000000000006020830152604082019050919050565b600061284c601183612c76565b91507f206973206d697373696e6720726f6c65200000000000000000000000000000006000830152601182019050919050565b600061288c601c83612c76565b91507f2d2043616c6c6572206973206e6f74206120636f6e74726f6c6c6572000000006000830152601c82019050919050565b60006128cc602f83612c65565b91507f416363657373436f6e74726f6c3a2063616e206f6e6c792072656e6f756e636560008301527f20726f6c657320666f722073656c6600000000000000000000000000000000006020830152604082019050919050565b61292e81612e1d565b82525050565b60006129408284612298565b915081905092915050565b60006129568261268d565b91506129628284612320565b915061296d8261287f565b915081905092915050565b600061298382612733565b915061298f8285612320565b915061299a8261283f565b91506129a68284612320565b91508190509392505050565b60006020820190506129c7600083018461226b565b92915050565b60006060820190506129e2600083018661226b565b6129ef602083018561226b565b6129fc6040830184612925565b949350505050565b6000604082019050612a19600083018561226b565b612a2660208301846122d8565b9392505050565b6000604082019050612a42600083018561226b565b612a4f6020830184612925565b9392505050565b6000602082019050612a6b600083018461227a565b92915050565b6000602082019050612a866000830184612289565b92915050565b6000602082019050612aa160008301846122c9565b92915050565b60006020820190508181036000830152612ac181846122e7565b905092915050565b60006020820190508181036000830152612ae281612351565b9050919050565b60006020820190508181036000830152612b0281612391565b9050919050565b60006020820190508181036000830152612b228161241d565b9050919050565b60006020820190508181036000830152612b42816124a9565b9050919050565b60006020820190508181036000830152612b628161250f565b9050919050565b60006020820190508181036000830152612b8281612575565b9050919050565b60006020820190508181036000830152612ba281612601565b9050919050565b60006020820190508181036000830152612bc2816126f3565b9050919050565b60006020820190508181036000830152612be281612773565b9050919050565b60006020820190508181036000830152612c02816127d9565b9050919050565b60006020820190508181036000830152612c22816128bf565b9050919050565b6000602082019050612c3e6000830184612925565b92915050565b600081519050919050565b600081519050919050565b600081905092915050565b600082825260208201905092915050565b600081905092915050565b6000612c8c82612e1d565b9150612c9783612e1d565b9250827fffffffffffffffffffffffffffffffffffffffffffffffffffffffffffffffff03821115612ccc57612ccb612eba565b5b828201905092915050565b6000612ce282612e1d565b9150612ced83612e1d565b925082612cfd57612cfc612ee9565b5b828204905092915050565b6000612d1382612e1d565b9150612d1e83612e1d565b9250817fffffffffffffffffffffffffffffffffffffffffffffffffffffffffffffffff0483118215151615612d5757612d56612eba565b5b828202905092915050565b6000612d6d82612e1d565b9150612d7883612e1d565b925082821015612d8b57612d8a612eba565b5b828203905092915050565b6000612da182612dfd565b9050919050565b60008115159050919050565b6000819050919050565b60007fffffffff0000000000000000000000000000000000000000000000000000000082169050919050565b6000819050612df882612f58565b919050565b600073ffffffffffffffffffffffffffffffffffffffff82169050919050565b6000819050919050565b6000612e3282612e39565b9050919050565b6000612e4482612dfd565b9050919050565b6000612e5682612dea565b9050919050565b60005b83811015612e7b578082015181840152602081019050612e60565b83811115612e8a576000848401525b50505050565b6000612e9b82612e1d565b91506000821415612eaf57612eae612eba565b5b600182039050919050565b7f4e487b7100000000000000000000000000000000000000000000000000000000600052601160045260246000fd5b7f4e487b7100000000000000000000000000000000000000000000000000000000600052601260045260246000fd5b7f4e487b7100000000000000000000000000000000000000000000000000000000600052602160045260246000fd5b6000601f19601f8301169050919050565b60038110612f6957612f68612f18565b5b50565b612f7581612d96565b8114612f8057600080fd5b50565b612f8c81612da8565b8114612f9757600080fd5b50565b612fa381612db4565b8114612fae57600080fd5b50565b612fba81612dbe565b8114612fc557600080fd5b50565b612fd181612e1d565b8114612fdc57600080fd5b5056fea2646970667358221220fb95dc31ab283dd89bcbb8b4a8742e3c3e6e174ae82b3e3c02694515890b100464736f6c63430008000033",
  "immutableReferences": {},
  "source": "// SPDX-License-Identifier: MIT\npragma solidity =0.8.0;\nimport \"./Members.sol\";\nimport \"@openzeppelin/contracts/access/AccessControl.sol\";\nimport \"@openzeppelin/contracts/utils/math/SafeMath.sol\";\nimport \"@openzeppelin/contracts/token/ERC20/utils/SafeERC20.sol\";\nimport \"./../IAuditToken.sol\";\nimport \"./IValidations.sol\";\n\n/**\n * @title MemberHelpers\n * Additional function for Members\n */\ncontract MemberHelpers is AccessControl {\n    using SafeMath for uint256;\n    using SafeERC20 for IERC20;\n\n    bytes32 public constant CONTROLLER_ROLE = keccak256(\"CONTROLLER_ROLE\");\n\n    address public auditToken; //AUDT token\n    Members members; // Members contract\n    IValidations public validations; // Validation interface\n    mapping(address => uint256) public deposits; //track deposits per user\n    uint256 public minContribution = 5e21;\n    uint256 public maxContribution = 25e21;\n    uint256 public totalStaked;\n    \n\n    event LogDepositReceived(address indexed from, uint256 amount);\n    event LogDepositRedeemed(address indexed from, uint256 amount);\n    event LogIncreaseDeposit(address user, uint256 amount);\n    event LogDecreaseDeposit(address user, uint256 amount);\n\n    constructor(address _members, address _auditToken) {\n        require(_members != address(0),\"MemberHelpers:constructor - Member address can't be 0\");\n        require(_auditToken != address(0), \"MemberHelpers:setCohort - Cohort address can't be 0\");\n\n        members = Members(_members);\n        auditToken = _auditToken;\n        _setupRole(DEFAULT_ADMIN_ROLE, msg.sender);\n    }\n\n    /// @dev check if caller is a controller\n    modifier isController(string memory source) {\n        string memory msgError = string(abi.encodePacked(\"MemberHelpers(isController - Modifier):\", source, \"- Caller is not a controller\"));\n        require(hasRole(CONTROLLER_ROLE, msg.sender),msgError);\n\n        _;\n    }\n\n\n     /// @dev check if user is validator\n    modifier isValidator(string memory source) {\n\n        string memory msgError = string(abi.encodePacked(\"NodeOperations(Modifier):\", source, \"- You are not a validator\"));\n        require( members.userMap(msg.sender, Members.UserType(1)), msgError);\n\n        _;\n    }\n\n    function returnDepositAmount(address user) public view returns (uint256) {\n        return deposits[user];\n    }\n\n   \n\n    function increaseDeposit(address user, uint256 amount) public isController(\"increaseDeposit\") {\n        deposits[user] = deposits[user].add(amount);\n        emit LogIncreaseDeposit(user, amount);\n    }\n\n    function decreaseDeposit(address user, uint256 amount) public isController(\"decreaseDepoist\") {\n        deposits[user] = deposits[user].sub(amount);\n        emit LogDecreaseDeposit(user, amount);\n    }\n\n    /**\n     * @dev Function to accept contribution to staking\n     * @param amount number of AUDT tokens sent to contract for staking\n     */\n    function stake(uint256 amount) public {\n        require(amount > 0, \"MemberHelpers:stake - Amount can't be 0\");\n\n        if (members.userMap(msg.sender, Members.UserType(1))) {\n            require(\n                amount + deposits[msg.sender] >= minContribution,\n                \"MemberHelpers:stake - Minimum contribution amount is 5000 AUDT tokens\"\n            );\n            require(\n                amount + deposits[msg.sender] <= maxContribution,\n                \"MemberHelpers:stake - Maximum contribution amount is 25000 AUDT tokens\"\n            );\n        }\n        require(\n            members.userMap(msg.sender, Members.UserType(0)) ||\n                members.userMap(msg.sender, Members.UserType(1)) ||\n                members.userMap(msg.sender, Members.UserType(2)),\n            \"Staking:stake - User has been not registered as a validator or enterprise.\"\n        );\n        IERC20(auditToken).safeTransferFrom(msg.sender, address(this), amount);\n        deposits[msg.sender] = deposits[msg.sender].add(amount);\n        totalStaked = totalStaked.add(amount);\n        emit LogDepositReceived(msg.sender, amount);\n    }\n\n    /**\n     * @dev Function to redeem contribution.\n     * @param amount number of tokens being redeemed\n     */\n    function redeem(uint256 amount) public {\n        if (members.userMap(msg.sender, Members.UserType(0))) {\n            uint256 outstandingVal = validations.outstandingValidations(msg.sender);\n\n            if (outstandingVal > 0)\n                // div(1e4) to adjust for four decimal points\n                require(\n                    deposits[msg.sender].sub(\n                        members\n                            .enterpriseMatch()\n                            .mul(members.amountTokensPerValidation())\n                            .mul(outstandingVal)\n                            .div(1e4)\n                    ) >= amount,\n                    \"MemberHelpers:redeem - Your deposit will be too low to fullfil your outstanding payments.\"\n                );\n        }\n\n        deposits[msg.sender] = deposits[msg.sender].sub(amount);\n        totalStaked = totalStaked.sub(amount);\n        IERC20(auditToken).safeTransfer(msg.sender, amount);\n        emit LogDepositRedeemed(msg.sender, amount);\n    }\n\n    /**\n     * @dev to be called by administrator to set Validation address\n     * @param _validations validation contract address\n     */\n    function setValidation(address _validations) public isController(\"setValidation\") {\n        require( _validations != address(0), \"MemberHelpers:setValidation - Validation address can't be 0\");\n        validations = IValidations(_validations);\n    }\n\n}\n",
  "sourcePath": "/home/win2win/eth/projects/AuditChain/Core-Smart-Contracts-v1/contracts/Auditchain/MemberHelpers.sol",
  "compiler": {
    "name": "solc",
    "version": "0.8.0+commit.c7dfd78e.Emscripten.clang"
  },
  "schemaVersion": "3.4.1",
  "updatedAt": "2022-03-22T15:42:42.213Z",
  "networkType": "ethereum",
  "devdoc": {
    "kind": "dev",
    "methods": {
      "getRoleAdmin(bytes32)": {
        "details": "Returns the admin role that controls `role`. See {grantRole} and {revokeRole}. To change a role's admin, use {_setRoleAdmin}."
      },
      "grantRole(bytes32,address)": {
        "details": "Grants `role` to `account`. If `account` had not been already granted `role`, emits a {RoleGranted} event. Requirements: - the caller must have ``role``'s admin role."
      },
      "hasRole(bytes32,address)": {
        "details": "Returns `true` if `account` has been granted `role`."
      },
      "redeem(uint256)": {
        "details": "Function to redeem contribution.",
        "params": {
          "amount": "number of tokens being redeemed"
        }
      },
      "renounceRole(bytes32,address)": {
        "details": "Revokes `role` from the calling account. Roles are often managed via {grantRole} and {revokeRole}: this function's purpose is to provide a mechanism for accounts to lose their privileges if they are compromised (such as when a trusted device is misplaced). If the calling account had been revoked `role`, emits a {RoleRevoked} event. Requirements: - the caller must be `account`."
      },
      "revokeRole(bytes32,address)": {
        "details": "Revokes `role` from `account`. If `account` had been granted `role`, emits a {RoleRevoked} event. Requirements: - the caller must have ``role``'s admin role."
      },
      "setValidation(address)": {
        "details": "to be called by administrator to set Validation address",
        "params": {
          "_validations": "validation contract address"
        }
      },
      "stake(uint256)": {
        "details": "Function to accept contribution to staking",
        "params": {
          "amount": "number of AUDT tokens sent to contract for staking"
        }
      },
      "supportsInterface(bytes4)": {
        "details": "See {IERC165-supportsInterface}."
      }
    },
    "title": "MemberHelpers Additional function for Members",
    "version": 1
  },
  "userdoc": {
    "kind": "user",
    "methods": {},
    "version": 1
  }
}