{
  "contractName": "NodeOperations",
  "abi": [
    {
      "inputs": [
        {
          "internalType": "address",
          "name": "_memberHelpers",
          "type": "address"
        },
        {
          "internalType": "address",
          "name": "_auditToken",
          "type": "address"
        },
        {
          "internalType": "address",
          "name": "_members",
          "type": "address"
        }
      ],
      "stateMutability": "nonpayable",
      "type": "constructor"
    },
    {
      "anonymous": false,
      "inputs": [
        {
          "indexed": true,
          "internalType": "address",
          "name": "user",
          "type": "address"
        },
        {
          "indexed": false,
          "internalType": "string",
          "name": "action",
          "type": "string"
        }
      ],
      "name": "LogCPAToggled",
      "type": "event"
    },
    {
      "anonymous": false,
      "inputs": [
        {
          "indexed": true,
          "internalType": "address",
          "name": "delegating",
          "type": "address"
        },
        {
          "indexed": false,
          "internalType": "uint256",
          "name": "amount",
          "type": "uint256"
        }
      ],
      "name": "LogDelegatedStakeRewardsIncreased",
      "type": "event"
    },
    {
      "anonymous": false,
      "inputs": [
        {
          "indexed": true,
          "internalType": "address",
          "name": "delegating",
          "type": "address"
        },
        {
          "indexed": true,
          "internalType": "address",
          "name": "newDelegatee",
          "type": "address"
        }
      ],
      "name": "LogDelegation",
      "type": "event"
    },
    {
      "anonymous": false,
      "inputs": [
        {
          "indexed": false,
          "internalType": "uint256",
          "name": "params",
          "type": "uint256"
        },
        {
          "indexed": true,
          "internalType": "string",
          "name": "action",
          "type": "string"
        }
      ],
      "name": "LogGovernanceUpdate",
      "type": "event"
    },
    {
      "anonymous": false,
      "inputs": [
        {
          "indexed": true,
          "internalType": "address",
          "name": "user",
          "type": "address"
        },
        {
          "indexed": false,
          "internalType": "string",
          "name": "action",
          "type": "string"
        }
      ],
      "name": "LogNoDelegateToggled",
      "type": "event"
    },
    {
      "anonymous": false,
      "inputs": [
        {
          "indexed": true,
          "internalType": "address",
          "name": "user",
          "type": "address"
        },
        {
          "indexed": false,
          "internalType": "string",
          "name": "action",
          "type": "string"
        }
      ],
      "name": "LogNodeOperatorToggled",
      "type": "event"
    },
    {
      "anonymous": false,
      "inputs": [
        {
          "indexed": true,
          "internalType": "address",
          "name": "delegating",
          "type": "address"
        },
        {
          "indexed": false,
          "internalType": "uint256",
          "name": "amount",
          "type": "uint256"
        }
      ],
      "name": "LogReferralStakeRewardsIncreased",
      "type": "event"
    },
    {
      "anonymous": false,
      "inputs": [
        {
          "indexed": true,
          "internalType": "address",
          "name": "delegating",
          "type": "address"
        },
        {
          "indexed": true,
          "internalType": "address",
          "name": "delegatee",
          "type": "address"
        }
      ],
      "name": "LogRemoveDelegation",
      "type": "event"
    },
    {
      "anonymous": false,
      "inputs": [
        {
          "indexed": true,
          "internalType": "address",
          "name": "validator",
          "type": "address"
        },
        {
          "indexed": false,
          "internalType": "uint256",
          "name": "amount",
          "type": "uint256"
        }
      ],
      "name": "LogStakeRewardsIncreased",
      "type": "event"
    },
    {
      "anonymous": false,
      "inputs": [
        {
          "indexed": true,
          "internalType": "address",
          "name": "user",
          "type": "address"
        },
        {
          "indexed": false,
          "internalType": "uint256",
          "name": "amount",
          "type": "uint256"
        }
      ],
      "name": "LogStakingRewardsClaimed",
      "type": "event"
    },
    {
      "anonymous": false,
      "inputs": [
        {
          "indexed": true,
          "internalType": "address",
          "name": "user",
          "type": "address"
        },
        {
          "indexed": false,
          "internalType": "uint256",
          "name": "amount",
          "type": "uint256"
        }
      ],
      "name": "LogStakingRewardsTransferredOut",
      "type": "event"
    },
    {
      "anonymous": false,
      "inputs": [
        {
          "indexed": true,
          "internalType": "bytes32",
          "name": "role",
          "type": "bytes32"
        },
        {
          "indexed": true,
          "internalType": "bytes32",
          "name": "previousAdminRole",
          "type": "bytes32"
        },
        {
          "indexed": true,
          "internalType": "bytes32",
          "name": "newAdminRole",
          "type": "bytes32"
        }
      ],
      "name": "RoleAdminChanged",
      "type": "event"
    },
    {
      "anonymous": false,
      "inputs": [
        {
          "indexed": true,
          "internalType": "bytes32",
          "name": "role",
          "type": "bytes32"
        },
        {
          "indexed": true,
          "internalType": "address",
          "name": "account",
          "type": "address"
        },
        {
          "indexed": true,
          "internalType": "address",
          "name": "sender",
          "type": "address"
        }
      ],
      "name": "RoleGranted",
      "type": "event"
    },
    {
      "anonymous": false,
      "inputs": [
        {
          "indexed": true,
          "internalType": "bytes32",
          "name": "role",
          "type": "bytes32"
        },
        {
          "indexed": true,
          "internalType": "address",
          "name": "account",
          "type": "address"
        },
        {
          "indexed": true,
          "internalType": "address",
          "name": "sender",
          "type": "address"
        }
      ],
      "name": "RoleRevoked",
      "type": "event"
    },
    {
      "inputs": [],
      "name": "CONTROLLER_ROLE",
      "outputs": [
        {
          "internalType": "bytes32",
          "name": "",
          "type": "bytes32"
        }
      ],
      "stateMutability": "view",
      "type": "function"
    },
    {
      "inputs": [
        {
          "internalType": "uint256",
          "name": "",
          "type": "uint256"
        }
      ],
      "name": "CPAs",
      "outputs": [
        {
          "internalType": "address",
          "name": "",
          "type": "address"
        }
      ],
      "stateMutability": "view",
      "type": "function"
    },
    {
      "inputs": [],
      "name": "DEFAULT_ADMIN_ROLE",
      "outputs": [
        {
          "internalType": "bytes32",
          "name": "",
          "type": "bytes32"
        }
      ],
      "stateMutability": "view",
      "type": "function"
    },
    {
      "inputs": [],
      "name": "POWFee",
      "outputs": [
        {
          "internalType": "uint256",
          "name": "",
          "type": "uint256"
        }
      ],
      "stateMutability": "view",
      "type": "function"
    },
    {
      "inputs": [],
      "name": "SETTER_ROLE",
      "outputs": [
        {
          "internalType": "bytes32",
          "name": "",
          "type": "bytes32"
        }
      ],
      "stateMutability": "view",
      "type": "function"
    },
    {
      "inputs": [],
      "name": "auditToken",
      "outputs": [
        {
          "internalType": "address",
          "name": "",
          "type": "address"
        }
      ],
      "stateMutability": "view",
      "type": "function"
    },
    {
      "inputs": [
        {
          "internalType": "bytes32",
          "name": "role",
          "type": "bytes32"
        }
      ],
      "name": "getRoleAdmin",
      "outputs": [
        {
          "internalType": "bytes32",
          "name": "",
          "type": "bytes32"
        }
      ],
      "stateMutability": "view",
      "type": "function"
    },
    {
      "inputs": [
        {
          "internalType": "bytes32",
          "name": "role",
          "type": "bytes32"
        },
        {
          "internalType": "address",
          "name": "account",
          "type": "address"
        }
      ],
      "name": "grantRole",
      "outputs": [],
      "stateMutability": "nonpayable",
      "type": "function"
    },
    {
      "inputs": [
        {
          "internalType": "bytes32",
          "name": "role",
          "type": "bytes32"
        },
        {
          "internalType": "address",
          "name": "account",
          "type": "address"
        }
      ],
      "name": "hasRole",
      "outputs": [
        {
          "internalType": "bool",
          "name": "",
          "type": "bool"
        }
      ],
      "stateMutability": "view",
      "type": "function"
    },
    {
      "inputs": [],
      "name": "memberHelpers",
      "outputs": [
        {
          "internalType": "contract MemberHelpers",
          "name": "",
          "type": "address"
        }
      ],
      "stateMutability": "view",
      "type": "function"
    },
    {
      "inputs": [],
      "name": "members",
      "outputs": [
        {
          "internalType": "contract Members",
          "name": "",
          "type": "address"
        }
      ],
      "stateMutability": "view",
      "type": "function"
    },
    {
      "inputs": [
        {
          "internalType": "address",
          "name": "",
          "type": "address"
        }
      ],
      "name": "nodeOpStruct",
      "outputs": [
        {
          "internalType": "bool",
          "name": "isNodeOperator",
          "type": "bool"
        },
        {
          "internalType": "uint256",
          "name": "stakeAmount",
          "type": "uint256"
        },
        {
          "internalType": "uint256",
          "name": "delegateAmount",
          "type": "uint256"
        },
        {
          "internalType": "uint256",
          "name": "referralAmount",
          "type": "uint256"
        },
        {
          "internalType": "uint256",
          "name": "POWAmount",
          "type": "uint256"
        },
        {
          "internalType": "address",
          "name": "delegatorLink",
          "type": "address"
        },
        {
          "internalType": "bool",
          "name": "noDelegations",
          "type": "bool"
        },
        {
          "internalType": "bool",
          "name": "isCPA",
          "type": "bool"
        }
      ],
      "stateMutability": "view",
      "type": "function"
    },
    {
      "inputs": [
        {
          "internalType": "uint256",
          "name": "",
          "type": "uint256"
        }
      ],
      "name": "nodeOperators",
      "outputs": [
        {
          "internalType": "address",
          "name": "",
          "type": "address"
        }
      ],
      "stateMutability": "view",
      "type": "function"
    },
    {
      "inputs": [
        {
          "internalType": "bytes32",
          "name": "role",
          "type": "bytes32"
        },
        {
          "internalType": "address",
          "name": "account",
          "type": "address"
        }
      ],
      "name": "renounceRole",
      "outputs": [],
      "stateMutability": "nonpayable",
      "type": "function"
    },
    {
      "inputs": [
        {
          "internalType": "bytes32",
          "name": "role",
          "type": "bytes32"
        },
        {
          "internalType": "address",
          "name": "account",
          "type": "address"
        }
      ],
      "name": "revokeRole",
      "outputs": [],
      "stateMutability": "nonpayable",
      "type": "function"
    },
    {
      "inputs": [],
      "name": "stakeRatio",
      "outputs": [
        {
          "internalType": "uint256",
          "name": "",
          "type": "uint256"
        }
      ],
      "stateMutability": "view",
      "type": "function"
    },
    {
      "inputs": [],
      "name": "stakeRatioDelegating",
      "outputs": [
        {
          "internalType": "uint256",
          "name": "",
          "type": "uint256"
        }
      ],
      "stateMutability": "view",
      "type": "function"
    },
    {
      "inputs": [],
      "name": "stakingRatioReferral",
      "outputs": [
        {
          "internalType": "uint256",
          "name": "",
          "type": "uint256"
        }
      ],
      "stateMutability": "view",
      "type": "function"
    },
    {
      "inputs": [
        {
          "internalType": "bytes4",
          "name": "interfaceId",
          "type": "bytes4"
        }
      ],
      "name": "supportsInterface",
      "outputs": [
        {
          "internalType": "bool",
          "name": "",
          "type": "bool"
        }
      ],
      "stateMutability": "view",
      "type": "function"
    },
    {
      "inputs": [
        {
          "internalType": "uint256",
          "name": "_newRatio",
          "type": "uint256"
        }
      ],
      "name": "updateStakeRatioDelegating",
      "outputs": [],
      "stateMutability": "nonpayable",
      "type": "function"
    },
    {
      "inputs": [
        {
          "internalType": "uint256",
          "name": "_newRatio",
          "type": "uint256"
        }
      ],
      "name": "updateStakingRatioReferral",
      "outputs": [],
      "stateMutability": "nonpayable",
      "type": "function"
    },
    {
      "inputs": [
        {
          "internalType": "uint256",
          "name": "_newRatio",
          "type": "uint256"
        }
      ],
      "name": "updateStakeRatio",
      "outputs": [],
      "stateMutability": "nonpayable",
      "type": "function"
    },
    {
      "inputs": [
        {
          "internalType": "uint256",
          "name": "_newFee",
          "type": "uint256"
        }
      ],
      "name": "updatePOWFee",
      "outputs": [],
      "stateMutability": "nonpayable",
      "type": "function"
    },
    {
      "inputs": [
        {
          "internalType": "address",
          "name": "operator",
          "type": "address"
        }
      ],
      "name": "returnDelegatorLink",
      "outputs": [
        {
          "internalType": "address",
          "name": "",
          "type": "address"
        }
      ],
      "stateMutability": "view",
      "type": "function"
    },
    {
      "inputs": [
        {
          "internalType": "address",
          "name": "operator",
          "type": "address"
        }
      ],
      "name": "isNodeOperator",
      "outputs": [
        {
          "internalType": "bool",
          "name": "",
          "type": "bool"
        }
      ],
      "stateMutability": "view",
      "type": "function"
    },
    {
      "inputs": [
        {
          "internalType": "address",
          "name": "poolOperator",
          "type": "address"
        }
      ],
      "name": "returnPoolList",
      "outputs": [
        {
          "internalType": "address[]",
          "name": "",
          "type": "address[]"
        },
        {
          "internalType": "uint256[]",
          "name": "",
          "type": "uint256[]"
        }
      ],
      "stateMutability": "view",
      "type": "function"
    },
    {
      "inputs": [],
      "name": "toggleNodeOperator",
      "outputs": [],
      "stateMutability": "nonpayable",
      "type": "function"
    },
    {
      "inputs": [],
      "name": "toggleCPA",
      "outputs": [],
      "stateMutability": "nonpayable",
      "type": "function"
    },
    {
      "inputs": [],
      "name": "toggleNoDelegate",
      "outputs": [],
      "stateMutability": "nonpayable",
      "type": "function"
    },
    {
      "inputs": [],
      "name": "returnNodeOperators",
      "outputs": [
        {
          "internalType": "address[]",
          "name": "",
          "type": "address[]"
        }
      ],
      "stateMutability": "view",
      "type": "function"
    },
    {
      "inputs": [],
      "name": "returnNodeOperatorsCount",
      "outputs": [
        {
          "internalType": "uint256",
          "name": "",
          "type": "uint256"
        }
      ],
      "stateMutability": "view",
      "type": "function"
    },
    {
      "inputs": [],
      "name": "returnCPAs",
      "outputs": [
        {
          "internalType": "address[]",
          "name": "",
          "type": "address[]"
        }
      ],
      "stateMutability": "view",
      "type": "function"
    },
    {
      "inputs": [],
      "name": "removeAlldelegations",
      "outputs": [],
      "stateMutability": "nonpayable",
      "type": "function"
    },
    {
      "inputs": [],
      "name": "removeDelegation",
      "outputs": [],
      "stateMutability": "nonpayable",
      "type": "function"
    },
    {
      "inputs": [
        {
          "internalType": "address",
          "name": "delegatee",
          "type": "address"
        }
      ],
      "name": "delegate",
      "outputs": [],
      "stateMutability": "nonpayable",
      "type": "function"
    },
    {
      "inputs": [
        {
          "internalType": "address",
          "name": "validator",
          "type": "address"
        },
        {
          "internalType": "uint256",
          "name": "amount",
          "type": "uint256"
        }
      ],
      "name": "increasePOWRewards",
      "outputs": [],
      "stateMutability": "nonpayable",
      "type": "function"
    },
    {
      "inputs": [
        {
          "internalType": "address",
          "name": "validator",
          "type": "address"
        }
      ],
      "name": "increaseDelegatedStakeRewards",
      "outputs": [],
      "stateMutability": "nonpayable",
      "type": "function"
    },
    {
      "inputs": [
        {
          "internalType": "address",
          "name": "validator",
          "type": "address"
        }
      ],
      "name": "increaseStakeRewards",
      "outputs": [],
      "stateMutability": "nonpayable",
      "type": "function"
    },
    {
      "inputs": [
        {
          "internalType": "bool",
          "name": "deliver",
          "type": "bool"
        }
      ],
      "name": "claimStakeRewards",
      "outputs": [],
      "stateMutability": "nonpayable",
      "type": "function"
    }
  ],
  "bytecode": "0x60806040526103e860065561044c60075561238c600855670de0b6b3a76400006009553480156200002f57600080fd5b5060405162006533380380620065338339818101604052810190620000559190620003ac565b600073ffffffffffffffffffffffffffffffffffffffff168373ffffffffffffffffffffffffffffffffffffffff161415620000c8576040517f08c379a0000000000000000000000000000000000000000000000000000000008152600401620000bf90620004f4565b60405180910390fd5b600073ffffffffffffffffffffffffffffffffffffffff168273ffffffffffffffffffffffffffffffffffffffff1614156200013b576040517f08c379a00000000000000000000000000000000000000000000000000000000081526004016200013290620004d2565b60405180910390fd5b82600160006101000a81548173ffffffffffffffffffffffffffffffffffffffff021916908373ffffffffffffffffffffffffffffffffffffffff16021790555081600260006101000a81548173ffffffffffffffffffffffffffffffffffffffff021916908373ffffffffffffffffffffffffffffffffffffffff16021790555080600360006101000a81548173ffffffffffffffffffffffffffffffffffffffff021916908373ffffffffffffffffffffffffffffffffffffffff160217905550620002136000801b336200021c60201b60201c565b50505062000575565b6200022e82826200023260201b60201c565b5050565b6200024482826200032360201b60201c565b6200031f57600160008084815260200190815260200160002060000160008373ffffffffffffffffffffffffffffffffffffffff1673ffffffffffffffffffffffffffffffffffffffff16815260200190815260200160002060006101000a81548160ff021916908315150217905550620002c46200038d60201b60201c565b73ffffffffffffffffffffffffffffffffffffffff168173ffffffffffffffffffffffffffffffffffffffff16837f2f8788117e7eff1d82e926ec794901d17c78024a50270940304540a733656f0d60405160405180910390a45b5050565b600080600084815260200190815260200160002060000160008373ffffffffffffffffffffffffffffffffffffffff1673ffffffffffffffffffffffffffffffffffffffff16815260200190815260200160002060009054906101000a900460ff16905092915050565b600033905090565b600081519050620003a6816200055b565b92915050565b600080600060608486031215620003c257600080fd5b6000620003d28682870162000395565b9350506020620003e58682870162000395565b9250506040620003f88682870162000395565b9150509250925092565b60006200041160338362000516565b91507f4d656d62657248656c706572733a736574436f686f7274202d20436f686f727460008301527f20616464726573732063616e27742062652030000000000000000000000000006020830152604082019050919050565b600062000479603d8362000516565b91507f4e6f64654f7065726174696f6e733a636f6e7374727563746f72202d204d656d60008301527f62657248656c7065727320616464726573732063616e277420626520300000006020830152604082019050919050565b60006020820190508181036000830152620004ed8162000402565b9050919050565b600060208201905081810360008301526200050f816200046a565b9050919050565b600082825260208201905092915050565b600062000534826200053b565b9050919050565b600073ffffffffffffffffffffffffffffffffffffffff82169050919050565b620005668162000527565b81146200057257600080fd5b50565b615fae80620005856000396000f3fe608060405234801561001057600080fd5b506004361061023d5760003560e01c80637e105bde1161013b578063cfe02b89116100b8578063e6ef7ada1161007c578063e6ef7ada14610698578063e7946f27146106b4578063ed1b4f9b146106be578063f2d1745d146106da578063fcccd100146106f85761023d565b8063cfe02b89146105e1578063d43448b814610611578063d525e67514610641578063d547741f14610672578063e20d2f8c1461068e5761023d565b8063a217fddf116100ff578063a217fddf14610546578063b90b3cb514610564578063bce6294f1461056e578063bdd4d18d146105a5578063cf4cc8bd146105c35761023d565b80637e105bde1461049e5780638e00a8e8146104bc57806391d14854146104da57806398c3c1161461050a578063a2011b3f146105285761023d565b806336568abe116101c95780635c19a95c1161018d5780635c19a95c1461040e5780636f875c4d1461042a57806371d8c7a01461044857806375416a6b14610466578063797a9cf2146104825761023d565b806336568abe146103925780633d666e8b146103ae5780633e10c487146103b857806342083e97146103d457806350da3975146103f05761023d565b80631665217d116102105780631665217d146102de5780632085b90c146102fa578063248a9ca3146103165780632f2ff15d146103465780633373d32a146103625761023d565b806301ffc9a714610242578063092c5b3b14610272578063105fd47014610290578063115cd5b9146102c0575b600080fd5b61025c60048036038101906102579190614b69565b610702565b604051610269919061584d565b60405180910390f35b61027a61077c565b60405161028791906158e6565b60405180910390f35b6102aa60048036038101906102a59190614a4d565b6107a0565b6040516102b7919061584d565b60405180910390f35b6102c86107f9565b6040516102d59190615af9565b60405180910390f35b6102f860048036038101906102f39190614b92565b6107ff565b005b610314600480360381019061030f9190614ab2565b610901565b005b610330600480360381019061032b9190614b04565b610e17565b60405161033d91906158e6565b60405180910390f35b610360600480360381019061035b9190614b2d565b610e36565b005b61037c60048036038101906103779190614b92565b610e5f565b6040516103899190615787565b60405180910390f35b6103ac60048036038101906103a79190614b2d565b610e9e565b005b6103b6610f21565b005b6103d260048036038101906103cd9190614b92565b6116de565b005b6103ee60048036038101906103e99190614a76565b6117e0565b005b6103f8611948565b60405161040591906157f4565b60405180910390f35b61042860048036038101906104239190614a4d565b6119d6565b005b610432611f70565b60405161043f9190615af9565b60405180910390f35b610450611f76565b60405161045d9190615901565b60405180910390f35b610480600480360381019061047b9190614a4d565b611f9c565b005b61049c60048036038101906104979190614b92565b612215565b005b6104a6612317565b6040516104b39190615af9565b60405180910390f35b6104c4612324565b6040516104d19190615af9565b60405180910390f35b6104f460048036038101906104ef9190614b2d565b61232a565b604051610501919061584d565b60405180910390f35b610512612394565b60405161051f9190615787565b60405180910390f35b6105306123ba565b60405161053d91906158e6565b60405180910390f35b61054e6123de565b60405161055b91906158e6565b60405180910390f35b61056c6123e5565b005b61058860048036038101906105839190614a4d565b612914565b60405161059c989796959493929190615868565b60405180910390f35b6105ad6129a3565b6040516105ba919061591c565b60405180910390f35b6105cb6129c9565b6040516105d891906157f4565b60405180910390f35b6105fb60048036038101906105f69190614a4d565b612a57565b6040516106089190615787565b60405180910390f35b61062b60048036038101906106269190614b92565b612ac3565b6040516106389190615787565b60405180910390f35b61065b60048036038101906106569190614a4d565b612b02565b604051610669929190615816565b60405180910390f35b61068c60048036038101906106879190614b2d565b612f2e565b005b610696612f57565b005b6106b260048036038101906106ad9190614b92565b61328f565b005b6106bc613391565b005b6106d860048036038101906106d39190614a4d565b61372c565b005b6106e2613c7f565b6040516106ef9190615af9565b60405180910390f35b610700613c85565b005b60007f7965db0b000000000000000000000000000000000000000000000000000000007bffffffffffffffffffffffffffffffffffffffffffffffffffffffff1916827bffffffffffffffffffffffffffffffffffffffffffffffffffffffff19161480610775575061077482613f6c565b5b9050919050565b7f7b765e0e932d348852a6f810bfa1ab891e259123f02db8cdcde614c57022335781565b6000600a60008373ffffffffffffffffffffffffffffffffffffffff1673ffffffffffffffffffffffffffffffffffffffff16815260200190815260200160002060000160009054906101000a900460ff169050919050565b60085481565b6108297f61c92169ef077349011ff0b1383c894d86c5f0b41d986366b58a6cf31e93beda3361232a565b610868576040517f08c379a000000000000000000000000000000000000000000000000000000000815260040161085f90615959565b60405180910390fd5b60008114156108ac576040517f08c379a00000000000000000000000000000000000000000000000000000000081526004016108a3906159d9565b60405180910390fd5b806009819055506040516108bf906156f6565b60405180910390207ff99dba3a76085484eae2e89cc2e2ee5edffe3f1d25cdd1e6c5757447b9b5b473826040516108f69190615af9565b60405180910390a250565b6000600a60003373ffffffffffffffffffffffffffffffffffffffff1673ffffffffffffffffffffffffffffffffffffffff1681526020019081526020016000206003015490506000600a60003373ffffffffffffffffffffffffffffffffffffffff1673ffffffffffffffffffffffffffffffffffffffff1681526020019081526020016000206004015490506000600a60003373ffffffffffffffffffffffffffffffffffffffff1673ffffffffffffffffffffffffffffffffffffffff1681526020019081526020016000206006015490506000600a60003373ffffffffffffffffffffffffffffffffffffffff1673ffffffffffffffffffffffffffffffffffffffff1681526020019081526020016000206005015490506000610a5684610a4884610a3a878a613fd690919063ffffffff16565b613fd690919063ffffffff16565b613fd690919063ffffffff16565b90506000600a60003373ffffffffffffffffffffffffffffffffffffffff1673ffffffffffffffffffffffffffffffffffffffff168152602001908152602001600020600301819055506000600a60003373ffffffffffffffffffffffffffffffffffffffff1673ffffffffffffffffffffffffffffffffffffffff168152602001908152602001600020600401819055506000600a60003373ffffffffffffffffffffffffffffffffffffffff1673ffffffffffffffffffffffffffffffffffffffff168152602001908152602001600020600601819055506000600a60003373ffffffffffffffffffffffffffffffffffffffff1673ffffffffffffffffffffffffffffffffffffffff168152602001908152602001600020600501819055508515610c8157600260009054906101000a900473ffffffffffffffffffffffffffffffffffffffff1673ffffffffffffffffffffffffffffffffffffffff166340c10f1933836040518363ffffffff1660e01b8152600401610bdb9291906157cb565b602060405180830381600087803b158015610bf557600080fd5b505af1158015610c09573d6000803e3d6000fd5b505050506040513d601f19601f82011682018060405250810190610c2d9190614adb565b503373ffffffffffffffffffffffffffffffffffffffff167f4fcc1f6709c7de29c80bcd44f92e9b5548613a2d8ebefacf9fa570d687cce28c82604051610c749190615af9565b60405180910390a2610e0f565b600160009054906101000a900473ffffffffffffffffffffffffffffffffffffffff1673ffffffffffffffffffffffffffffffffffffffff1663d417b7b333836040518363ffffffff1660e01b8152600401610cde9291906157cb565b600060405180830381600087803b158015610cf857600080fd5b505af1158015610d0c573d6000803e3d6000fd5b50505050600260009054906101000a900473ffffffffffffffffffffffffffffffffffffffff1673ffffffffffffffffffffffffffffffffffffffff166340c10f1930836040518363ffffffff1660e01b8152600401610d6d9291906157cb565b602060405180830381600087803b158015610d8757600080fd5b505af1158015610d9b573d6000803e3d6000fd5b505050506040513d601f19601f82011682018060405250810190610dbf9190614adb565b503373ffffffffffffffffffffffffffffffffffffffff167f935cd710a2bc7a3db341f3f67ba6abdb9ea572d203b87642e2d359559152790582604051610e069190615af9565b60405180910390a25b505050505050565b6000806000838152602001908152602001600020600101549050919050565b610e3f82610e17565b610e5081610e4b613fec565b613ff4565b610e5a8383614091565b505050565b60058181548110610e6f57600080fd5b906000526020600020016000915054906101000a900473ffffffffffffffffffffffffffffffffffffffff1681565b610ea6613fec565b73ffffffffffffffffffffffffffffffffffffffff168173ffffffffffffffffffffffffffffffffffffffff1614610f13576040517f08c379a0000000000000000000000000000000000000000000000000000000008152600401610f0a90615ad9565b60405180910390fd5b610f1d8282614171565b5050565b6040518060400160405280601081526020017f72656d6f766544656c65676174696f6e00000000000000000000000000000000815250600081604051602001610f6a91906156b4565b6040516020818303038152906040529050600360009054906101000a900473ffffffffffffffffffffffffffffffffffffffff1673ffffffffffffffffffffffffffffffffffffffff16636f9cf9853360016002811115610ff4577f4e487b7100000000000000000000000000000000000000000000000000000000600052602160045260246000fd5b6040518363ffffffff1660e01b81526004016110119291906157a2565b60206040518083038186803b15801561102957600080fd5b505afa15801561103d573d6000803e3d6000fd5b505050506040513d601f19601f820116820180604052508101906110619190614adb565b81906110a3576040517f08c379a000000000000000000000000000000000000000000000000000000000815260040161109a9190615937565b60405180910390fd5b506000600a60003373ffffffffffffffffffffffffffffffffffffffff1673ffffffffffffffffffffffffffffffffffffffff16815260200190815260200160002060070160009054906101000a900473ffffffffffffffffffffffffffffffffffffffff169050600073ffffffffffffffffffffffffffffffffffffffff168173ffffffffffffffffffffffffffffffffffffffff16141561117b576040517f08c379a000000000000000000000000000000000000000000000000000000000815260040161117290615999565b60405180910390fd5b60005b600a60008373ffffffffffffffffffffffffffffffffffffffff1673ffffffffffffffffffffffffffffffffffffffff1681526020019081526020016000206001018054905081101561167e573373ffffffffffffffffffffffffffffffffffffffff16600a60008473ffffffffffffffffffffffffffffffffffffffff1673ffffffffffffffffffffffffffffffffffffffff168152602001908152602001600020600101828154811061125c577f4e487b7100000000000000000000000000000000000000000000000000000000600052603260045260246000fd5b9060005260206000200160009054906101000a900473ffffffffffffffffffffffffffffffffffffffff1673ffffffffffffffffffffffffffffffffffffffff16141561166b57600a60008373ffffffffffffffffffffffffffffffffffffffff1673ffffffffffffffffffffffffffffffffffffffff1681526020019081526020016000206001016001600a60008573ffffffffffffffffffffffffffffffffffffffff1673ffffffffffffffffffffffffffffffffffffffff168152602001908152602001600020600101805490506113379190615c8e565b8154811061136e577f4e487b7100000000000000000000000000000000000000000000000000000000600052603260045260246000fd5b9060005260206000200160009054906101000a900473ffffffffffffffffffffffffffffffffffffffff16600a60008473ffffffffffffffffffffffffffffffffffffffff1673ffffffffffffffffffffffffffffffffffffffff1681526020019081526020016000206001018281548110611413577f4e487b7100000000000000000000000000000000000000000000000000000000600052603260045260246000fd5b9060005260206000200160006101000a81548173ffffffffffffffffffffffffffffffffffffffff021916908373ffffffffffffffffffffffffffffffffffffffff160217905550600a60008373ffffffffffffffffffffffffffffffffffffffff1673ffffffffffffffffffffffffffffffffffffffff1681526020019081526020016000206001018054806114d3577f4e487b7100000000000000000000000000000000000000000000000000000000600052603160045260246000fd5b6001900381819060005260206000200160006101000a81549073ffffffffffffffffffffffffffffffffffffffff021916905590556000600a60008473ffffffffffffffffffffffffffffffffffffffff1673ffffffffffffffffffffffffffffffffffffffff16815260200190815260200160002060020160003373ffffffffffffffffffffffffffffffffffffffff1673ffffffffffffffffffffffffffffffffffffffff16815260200190815260200160002060006101000a81548160ff0219169083151502179055506000600a60003373ffffffffffffffffffffffffffffffffffffffff1673ffffffffffffffffffffffffffffffffffffffff16815260200190815260200160002060070160006101000a81548173ffffffffffffffffffffffffffffffffffffffff021916908373ffffffffffffffffffffffffffffffffffffffff160217905550600a60008373ffffffffffffffffffffffffffffffffffffffff1673ffffffffffffffffffffffffffffffffffffffff1681526020019081526020016000206001018054905090505b808061167690615e0a565b91505061117e565b508073ffffffffffffffffffffffffffffffffffffffff163373ffffffffffffffffffffffffffffffffffffffff167f1eceec0a0536d861c2e32af951fed5ce132e28eabd91abe6a89c9fdb3d13233c60405160405180910390a3505050565b6117087f61c92169ef077349011ff0b1383c894d86c5f0b41d986366b58a6cf31e93beda3361232a565b611747576040517f08c379a000000000000000000000000000000000000000000000000000000000815260040161173e90615959565b60405180910390fd5b600081141561178b576040517f08c379a000000000000000000000000000000000000000000000000000000000815260040161178290615a99565b60405180910390fd5b8060078190555060405161179e9061569f565b60405180910390207ff99dba3a76085484eae2e89cc2e2ee5edffe3f1d25cdd1e6c5757447b9b5b473826040516117d59190615af9565b60405180910390a250565b6040518060400160405280601281526020017f696e637265617365504f575265776172647300000000000000000000000000008152506000816040516020016118299190615720565b60405160208183030381529060405290506118647f7b765e0e932d348852a6f810bfa1ab891e259123f02db8cdcde614c5702233573361232a565b81906118a6576040517f08c379a000000000000000000000000000000000000000000000000000000000815260040161189d9190615937565b60405180910390fd5b506118fc83600a60008773ffffffffffffffffffffffffffffffffffffffff1673ffffffffffffffffffffffffffffffffffffffff16815260200190815260200160002060060154613fd690919063ffffffff16565b600a60008673ffffffffffffffffffffffffffffffffffffffff1673ffffffffffffffffffffffffffffffffffffffff1681526020019081526020016000206006018190555050505050565b606060048054806020026020016040519081016040528092919081815260200182805480156119cc57602002820191906000526020600020905b8160009054906101000a900473ffffffffffffffffffffffffffffffffffffffff1673ffffffffffffffffffffffffffffffffffffffff1681526020019060010190808311611982575b5050505050905090565b6040518060400160405280600881526020017f44656c6567617465000000000000000000000000000000000000000000000000815250600081604051602001611a1f91906156b4565b6040516020818303038152906040529050600360009054906101000a900473ffffffffffffffffffffffffffffffffffffffff1673ffffffffffffffffffffffffffffffffffffffff16636f9cf9853360016002811115611aa9577f4e487b7100000000000000000000000000000000000000000000000000000000600052602160045260246000fd5b6040518363ffffffff1660e01b8152600401611ac69291906157a2565b60206040518083038186803b158015611ade57600080fd5b505afa158015611af2573d6000803e3d6000fd5b505050506040513d601f19601f82011682018060405250810190611b169190614adb565b8190611b58576040517f08c379a0000000000000000000000000000000000000000000000000000000008152600401611b4f9190615937565b60405180910390fd5b50600a60003373ffffffffffffffffffffffffffffffffffffffff1673ffffffffffffffffffffffffffffffffffffffff16815260200190815260200160002060000160009054906101000a900460ff1615611be9576040517f08c379a0000000000000000000000000000000000000000000000000000000008152600401611be0906159f9565b60405180910390fd5b600a60008473ffffffffffffffffffffffffffffffffffffffff1673ffffffffffffffffffffffffffffffffffffffff16815260200190815260200160002060020160003373ffffffffffffffffffffffffffffffffffffffff1673ffffffffffffffffffffffffffffffffffffffff16815260200190815260200160002060009054906101000a900460ff1615611cb6576040517f08c379a0000000000000000000000000000000000000000000000000000000008152600401611cad90615a59565b60405180910390fd5b600073ffffffffffffffffffffffffffffffffffffffff16600a60003373ffffffffffffffffffffffffffffffffffffffff1673ffffffffffffffffffffffffffffffffffffffff16815260200190815260200160002060070160009054906101000a900473ffffffffffffffffffffffffffffffffffffffff1673ffffffffffffffffffffffffffffffffffffffff1614611d5557611d54610f21565b5b600a60008473ffffffffffffffffffffffffffffffffffffffff1673ffffffffffffffffffffffffffffffffffffffff168152602001908152602001600020600101339080600181540180825580915050600190039060005260206000200160009091909190916101000a81548173ffffffffffffffffffffffffffffffffffffffff021916908373ffffffffffffffffffffffffffffffffffffffff16021790555082600a60003373ffffffffffffffffffffffffffffffffffffffff1673ffffffffffffffffffffffffffffffffffffffff16815260200190815260200160002060070160006101000a81548173ffffffffffffffffffffffffffffffffffffffff021916908373ffffffffffffffffffffffffffffffffffffffff1602179055506001600a60008573ffffffffffffffffffffffffffffffffffffffff1673ffffffffffffffffffffffffffffffffffffffff16815260200190815260200160002060020160003373ffffffffffffffffffffffffffffffffffffffff1673ffffffffffffffffffffffffffffffffffffffff16815260200190815260200160002060006101000a81548160ff0219169083151502179055508273ffffffffffffffffffffffffffffffffffffffff163373ffffffffffffffffffffffffffffffffffffffff167f4c3b375b28d33f6da54f5db9f9e21f32e8dccce22c6b386a5ccd14acab659ad560405160405180910390a3505050565b60095481565b600160009054906101000a900473ffffffffffffffffffffffffffffffffffffffff1681565b6040518060400160405280601481526020017f696e6372656173655374616b6552657761726473000000000000000000000000815250600081604051602001611fe59190615720565b60405160208183030381529060405290506120207f7b765e0e932d348852a6f810bfa1ab891e259123f02db8cdcde614c5702233573361232a565b8190612062576040517f08c379a00000000000000000000000000000000000000000000000000000000081526004016120599190615937565b60405180910390fd5b506000612124600654600160009054906101000a900473ffffffffffffffffffffffffffffffffffffffff1673ffffffffffffffffffffffffffffffffffffffff16638319d390876040518263ffffffff1660e01b81526004016120c69190615787565b60206040518083038186803b1580156120de57600080fd5b505afa1580156120f2573d6000803e3d6000fd5b505050506040513d601f19601f820116820180604052508101906121169190614bbb565b61425290919063ffffffff16565b905061217b81600a60008773ffffffffffffffffffffffffffffffffffffffff1673ffffffffffffffffffffffffffffffffffffffff16815260200190815260200160002060030154613fd690919063ffffffff16565b600a60008673ffffffffffffffffffffffffffffffffffffffff1673ffffffffffffffffffffffffffffffffffffffff168152602001908152602001600020600301819055508373ffffffffffffffffffffffffffffffffffffffff167f7f4591d6aa3e694b1ffc02f7762738dd3ca8e1d7357293b29833ef3136b213bd826040516122079190615af9565b60405180910390a250505050565b61223f7f61c92169ef077349011ff0b1383c894d86c5f0b41d986366b58a6cf31e93beda3361232a565b61227e576040517f08c379a000000000000000000000000000000000000000000000000000000000815260040161227590615959565b60405180910390fd5b60008114156122c2576040517f08c379a00000000000000000000000000000000000000000000000000000000081526004016122b990615a79565b60405180910390fd5b806006819055506040516122d5906156e1565b60405180910390207ff99dba3a76085484eae2e89cc2e2ee5edffe3f1d25cdd1e6c5757447b9b5b4738260405161230c9190615af9565b60405180910390a250565b6000600480549050905090565b60065481565b600080600084815260200190815260200160002060000160008373ffffffffffffffffffffffffffffffffffffffff1673ffffffffffffffffffffffffffffffffffffffff16815260200190815260200160002060009054906101000a900460ff16905092915050565b600260009054906101000a900473ffffffffffffffffffffffffffffffffffffffff1681565b7f61c92169ef077349011ff0b1383c894d86c5f0b41d986366b58a6cf31e93beda81565b6000801b81565b6040518060400160405280601281526020017f746f67676c654e6f64654f70657261746f72000000000000000000000000000081525060008160405160200161242e91906156b4565b6040516020818303038152906040529050600360009054906101000a900473ffffffffffffffffffffffffffffffffffffffff1673ffffffffffffffffffffffffffffffffffffffff16636f9cf98533600160028111156124b8577f4e487b7100000000000000000000000000000000000000000000000000000000600052602160045260246000fd5b6040518363ffffffff1660e01b81526004016124d59291906157a2565b60206040518083038186803b1580156124ed57600080fd5b505afa158015612501573d6000803e3d6000fd5b505050506040513d601f19601f820116820180604052508101906125259190614adb565b8190612567576040517f08c379a000000000000000000000000000000000000000000000000000000000815260040161255e9190615937565b60405180910390fd5b50600a60003373ffffffffffffffffffffffffffffffffffffffff1673ffffffffffffffffffffffffffffffffffffffff16815260200190815260200160002060000160009054906101000a900460ff1615612679576000600a60003373ffffffffffffffffffffffffffffffffffffffff1673ffffffffffffffffffffffffffffffffffffffff16815260200190815260200160002060000160006101000a81548160ff021916908315150217905550612620614268565b612628613c85565b3373ffffffffffffffffffffffffffffffffffffffff167f865cebc4621af692efc5ecb87041bae7eced8c916f529795ddfc7368978d75f760405161266c90615a19565b60405180910390a2612910565b600160009054906101000a900473ffffffffffffffffffffffffffffffffffffffff1673ffffffffffffffffffffffffffffffffffffffff1663aaffadf36040518163ffffffff1660e01b815260040160206040518083038186803b1580156126e157600080fd5b505afa1580156126f5573d6000803e3d6000fd5b505050506040513d601f19601f820116820180604052508101906127199190614bbb565b600160009054906101000a900473ffffffffffffffffffffffffffffffffffffffff1673ffffffffffffffffffffffffffffffffffffffff16638319d390336040518263ffffffff1660e01b81526004016127749190615787565b60206040518083038186803b15801561278c57600080fd5b505afa1580156127a0573d6000803e3d6000fd5b505050506040513d601f19601f820116820180604052508101906127c49190614bbb565b1015612805576040517f08c379a00000000000000000000000000000000000000000000000000000000081526004016127fc906159b9565b60405180910390fd5b6001600a60003373ffffffffffffffffffffffffffffffffffffffff1673ffffffffffffffffffffffffffffffffffffffff16815260200190815260200160002060000160006101000a81548160ff0219169083151502179055506004339080600181540180825580915050600190039060005260206000200160009091909190916101000a81548173ffffffffffffffffffffffffffffffffffffffff021916908373ffffffffffffffffffffffffffffffffffffffff1602179055503373ffffffffffffffffffffffffffffffffffffffff167f865cebc4621af692efc5ecb87041bae7eced8c916f529795ddfc7368978d75f760405161290790615ab9565b60405180910390a25b5050565b600a6020528060005260406000206000915090508060000160009054906101000a900460ff16908060030154908060040154908060050154908060060154908060070160009054906101000a900473ffffffffffffffffffffffffffffffffffffffff16908060070160149054906101000a900460ff16908060070160159054906101000a900460ff16905088565b600360009054906101000a900473ffffffffffffffffffffffffffffffffffffffff1681565b60606005805480602002602001604051908101604052809291908181526020018280548015612a4d57602002820191906000526020600020905b8160009054906101000a900473ffffffffffffffffffffffffffffffffffffffff1673ffffffffffffffffffffffffffffffffffffffff1681526020019060010190808311612a03575b5050505050905090565b6000600a60008373ffffffffffffffffffffffffffffffffffffffff1673ffffffffffffffffffffffffffffffffffffffff16815260200190815260200160002060070160009054906101000a900473ffffffffffffffffffffffffffffffffffffffff169050919050565b60048181548110612ad357600080fd5b906000526020600020016000915054906101000a900473ffffffffffffffffffffffffffffffffffffffff1681565b6060806000600a60008573ffffffffffffffffffffffffffffffffffffffff1673ffffffffffffffffffffffffffffffffffffffff1681526020019081526020016000206001018054905067ffffffffffffffff811115612b8c577f4e487b7100000000000000000000000000000000000000000000000000000000600052604160045260246000fd5b604051908082528060200260200182016040528015612bba5781602001602082028036833780820191505090505b5090506000600a60008673ffffffffffffffffffffffffffffffffffffffff1673ffffffffffffffffffffffffffffffffffffffff1681526020019081526020016000206001018054905067ffffffffffffffff811115612c44577f4e487b7100000000000000000000000000000000000000000000000000000000600052604160045260246000fd5b604051908082528060200260200182016040528015612c725781602001602082028036833780820191505090505b50905060005b600a60008773ffffffffffffffffffffffffffffffffffffffff1673ffffffffffffffffffffffffffffffffffffffff16815260200190815260200160002060010180549050811015612f2057600a60008773ffffffffffffffffffffffffffffffffffffffff1673ffffffffffffffffffffffffffffffffffffffff1681526020019081526020016000206001018181548110612d3f577f4e487b7100000000000000000000000000000000000000000000000000000000600052603260045260246000fd5b9060005260206000200160009054906101000a900473ffffffffffffffffffffffffffffffffffffffff16838281518110612da3577f4e487b7100000000000000000000000000000000000000000000000000000000600052603260045260246000fd5b602002602001019073ffffffffffffffffffffffffffffffffffffffff16908173ffffffffffffffffffffffffffffffffffffffff1681525050600160009054906101000a900473ffffffffffffffffffffffffffffffffffffffff1673ffffffffffffffffffffffffffffffffffffffff16638319d390848381518110612e54577f4e487b7100000000000000000000000000000000000000000000000000000000600052603260045260246000fd5b60200260200101516040518263ffffffff1660e01b8152600401612e789190615787565b60206040518083038186803b158015612e9057600080fd5b505afa158015612ea4573d6000803e3d6000fd5b505050506040513d601f19601f82011682018060405250810190612ec89190614bbb565b828281518110612f01577f4e487b7100000000000000000000000000000000000000000000000000000000600052603260045260246000fd5b6020026020010181815250508080612f1890615e0a565b915050612c78565b508181935093505050915091565b612f3782610e17565b612f4881612f43613fec565b613ff4565b612f528383614171565b505050565b6040518060400160405280601081526020017f746f67676c654e6f44656c656761746500000000000000000000000000000000815250600081604051602001612fa091906156b4565b6040516020818303038152906040529050600360009054906101000a900473ffffffffffffffffffffffffffffffffffffffff1673ffffffffffffffffffffffffffffffffffffffff16636f9cf985336001600281111561302a577f4e487b7100000000000000000000000000000000000000000000000000000000600052602160045260246000fd5b6040518363ffffffff1660e01b81526004016130479291906157a2565b60206040518083038186803b15801561305f57600080fd5b505afa158015613073573d6000803e3d6000fd5b505050506040513d601f19601f820116820180604052508101906130979190614adb565b81906130d9576040517f08c379a00000000000000000000000000000000000000000000000000000000081526004016130d09190615937565b60405180910390fd5b50600a60003373ffffffffffffffffffffffffffffffffffffffff1673ffffffffffffffffffffffffffffffffffffffff16815260200190815260200160002060070160149054906101000a900460ff16156131db576000600a60003373ffffffffffffffffffffffffffffffffffffffff1673ffffffffffffffffffffffffffffffffffffffff16815260200190815260200160002060070160146101000a81548160ff0219169083151502179055503373ffffffffffffffffffffffffffffffffffffffff167ff513c01ff458e6e9c2d933630bffb2ed21fe264c8a1df87e350103c1d5249a926040516131ce90615a19565b60405180910390a261328b565b6131e3613c85565b6001600a60003373ffffffffffffffffffffffffffffffffffffffff1673ffffffffffffffffffffffffffffffffffffffff16815260200190815260200160002060070160146101000a81548160ff0219169083151502179055503373ffffffffffffffffffffffffffffffffffffffff167ff513c01ff458e6e9c2d933630bffb2ed21fe264c8a1df87e350103c1d5249a9260405161328290615ab9565b60405180910390a25b5050565b6132b97f61c92169ef077349011ff0b1383c894d86c5f0b41d986366b58a6cf31e93beda3361232a565b6132f8576040517f08c379a00000000000000000000000000000000000000000000000000000000081526004016132ef90615959565b60405180910390fd5b600081141561333c576040517f08c379a000000000000000000000000000000000000000000000000000000000815260040161333390615a39565b60405180910390fd5b8060088190555060405161334f9061570b565b60405180910390207ff99dba3a76085484eae2e89cc2e2ee5edffe3f1d25cdd1e6c5757447b9b5b473826040516133869190615af9565b60405180910390a250565b6040518060400160405280600981526020017f746f67676c6543504100000000000000000000000000000000000000000000008152506000816040516020016133da91906156b4565b6040516020818303038152906040529050600360009054906101000a900473ffffffffffffffffffffffffffffffffffffffff1673ffffffffffffffffffffffffffffffffffffffff16636f9cf9853360016002811115613464577f4e487b7100000000000000000000000000000000000000000000000000000000600052602160045260246000fd5b6040518363ffffffff1660e01b81526004016134819291906157a2565b60206040518083038186803b15801561349957600080fd5b505afa1580156134ad573d6000803e3d6000fd5b505050506040513d601f19601f820116820180604052508101906134d19190614adb565b8190613513576040517f08c379a000000000000000000000000000000000000000000000000000000000815260040161350a9190615937565b60405180910390fd5b50600a60003373ffffffffffffffffffffffffffffffffffffffff1673ffffffffffffffffffffffffffffffffffffffff16815260200190815260200160002060070160159054906101000a900460ff161561361d576000600a60003373ffffffffffffffffffffffffffffffffffffffff1673ffffffffffffffffffffffffffffffffffffffff16815260200190815260200160002060070160156101000a81548160ff0219169083151502179055506135cc614494565b3373ffffffffffffffffffffffffffffffffffffffff167f4b8d562d356022e8b61f63ef35522204f80493a3470e8054809edb86e2c7cc2960405161361090615a19565b60405180910390a2613728565b6001600a60003373ffffffffffffffffffffffffffffffffffffffff1673ffffffffffffffffffffffffffffffffffffffff16815260200190815260200160002060070160156101000a81548160ff0219169083151502179055506005339080600181540180825580915050600190039060005260206000200160009091909190916101000a81548173ffffffffffffffffffffffffffffffffffffffff021916908373ffffffffffffffffffffffffffffffffffffffff1602179055503373ffffffffffffffffffffffffffffffffffffffff167f4b8d562d356022e8b61f63ef35522204f80493a3470e8054809edb86e2c7cc2960405161371f90615ab9565b60405180910390a25b5050565b6040518060400160405280601d81526020017f696e63726561736544656c6567617465645374616b65526577617264730000008152506000816040516020016137759190615720565b60405160208183030381529060405290506137b07f7b765e0e932d348852a6f810bfa1ab891e259123f02db8cdcde614c5702233573361232a565b81906137f2576040517f08c379a00000000000000000000000000000000000000000000000000000000081526004016137e99190615937565b60405180910390fd5b50600080600090505b600a60008673ffffffffffffffffffffffffffffffffffffffff1673ffffffffffffffffffffffffffffffffffffffff16815260200190815260200160002060010180549050811015613b85576000600a60008773ffffffffffffffffffffffffffffffffffffffff1673ffffffffffffffffffffffffffffffffffffffff16815260200190815260200160002060010182815481106138c4577f4e487b7100000000000000000000000000000000000000000000000000000000600052603260045260246000fd5b9060005260206000200160009054906101000a900473ffffffffffffffffffffffffffffffffffffffff16905060006139b2600754600160009054906101000a900473ffffffffffffffffffffffffffffffffffffffff1673ffffffffffffffffffffffffffffffffffffffff16638319d390856040518263ffffffff1660e01b81526004016139549190615787565b60206040518083038186803b15801561396c57600080fd5b505afa158015613980573d6000803e3d6000fd5b505050506040513d601f19601f820116820180604052508101906139a49190614bbb565b61425290919063ffffffff16565b9050613a0981600a60008573ffffffffffffffffffffffffffffffffffffffff1673ffffffffffffffffffffffffffffffffffffffff16815260200190815260200160002060040154613fd690919063ffffffff16565b600a60008473ffffffffffffffffffffffffffffffffffffffff1673ffffffffffffffffffffffffffffffffffffffff16815260200190815260200160002060040181905550613b20613b11600854600160009054906101000a900473ffffffffffffffffffffffffffffffffffffffff1673ffffffffffffffffffffffffffffffffffffffff16638319d390866040518263ffffffff1660e01b8152600401613ab39190615787565b60206040518083038186803b158015613acb57600080fd5b505afa158015613adf573d6000803e3d6000fd5b505050506040513d601f19601f82011682018060405250810190613b039190614bbb565b61425290919063ffffffff16565b85613fd690919063ffffffff16565b93508173ffffffffffffffffffffffffffffffffffffffff167f91e762b6a3379646d3eb7b17dc3d73070be2f226797f2120f8df1fd23ceea33182604051613b689190615af9565b60405180910390a250508080613b7d90615e0a565b9150506137fb565b506000811115613c7957613be481600a60008773ffffffffffffffffffffffffffffffffffffffff1673ffffffffffffffffffffffffffffffffffffffff16815260200190815260200160002060050154613fd690919063ffffffff16565b600a60008673ffffffffffffffffffffffffffffffffffffffff1673ffffffffffffffffffffffffffffffffffffffff168152602001908152602001600020600501819055508373ffffffffffffffffffffffffffffffffffffffff167faf09fd05a4dac80c46aefb0d434552d1ff107640d2b30ed5fbd9fedb3f99942f82604051613c709190615af9565b60405180910390a25b50505050565b60075481565b6000600a60003373ffffffffffffffffffffffffffffffffffffffff1673ffffffffffffffffffffffffffffffffffffffff1681526020019081526020016000206001018054905090505b6000811115613f69576000600a60003373ffffffffffffffffffffffffffffffffffffffff1673ffffffffffffffffffffffffffffffffffffffff168152602001908152602001600020600101600183613d2a9190615c8e565b81548110613d61577f4e487b7100000000000000000000000000000000000000000000000000000000600052603260045260246000fd5b9060005260206000200160009054906101000a900473ffffffffffffffffffffffffffffffffffffffff169050600a60003373ffffffffffffffffffffffffffffffffffffffff1673ffffffffffffffffffffffffffffffffffffffff168152602001908152602001600020600101805480613e06577f4e487b7100000000000000000000000000000000000000000000000000000000600052603160045260246000fd5b6001900381819060005260206000200160006101000a81549073ffffffffffffffffffffffffffffffffffffffff021916905590556000600a60003373ffffffffffffffffffffffffffffffffffffffff1673ffffffffffffffffffffffffffffffffffffffff16815260200190815260200160002060020160008373ffffffffffffffffffffffffffffffffffffffff1673ffffffffffffffffffffffffffffffffffffffff16815260200190815260200160002060006101000a81548160ff0219169083151502179055506000600a60008373ffffffffffffffffffffffffffffffffffffffff1673ffffffffffffffffffffffffffffffffffffffff16815260200190815260200160002060070160006101000a81548173ffffffffffffffffffffffffffffffffffffffff021916908373ffffffffffffffffffffffffffffffffffffffff160217905550508080613f6190615de0565b915050613cd0565b50565b60007f01ffc9a7000000000000000000000000000000000000000000000000000000007bffffffffffffffffffffffffffffffffffffffffffffffffffffffff1916827bffffffffffffffffffffffffffffffffffffffffffffffffffffffff1916149050919050565b60008183613fe49190615bad565b905092915050565b600033905090565b613ffe828261232a565b61408d576140238173ffffffffffffffffffffffffffffffffffffffff1660146146c0565b6140318360001c60206146c0565b60405160200161404292919061574d565b6040516020818303038152906040526040517f08c379a00000000000000000000000000000000000000000000000000000000081526004016140849190615937565b60405180910390fd5b5050565b61409b828261232a565b61416d57600160008084815260200190815260200160002060000160008373ffffffffffffffffffffffffffffffffffffffff1673ffffffffffffffffffffffffffffffffffffffff16815260200190815260200160002060006101000a81548160ff021916908315150217905550614112613fec565b73ffffffffffffffffffffffffffffffffffffffff168173ffffffffffffffffffffffffffffffffffffffff16837f2f8788117e7eff1d82e926ec794901d17c78024a50270940304540a733656f0d60405160405180910390a45b5050565b61417b828261232a565b1561424e57600080600084815260200190815260200160002060000160008373ffffffffffffffffffffffffffffffffffffffff1673ffffffffffffffffffffffffffffffffffffffff16815260200190815260200160002060006101000a81548160ff0219169083151502179055506141f3613fec565b73ffffffffffffffffffffffffffffffffffffffff168173ffffffffffffffffffffffffffffffffffffffff16837ff6391f5c32d9c69d2a47ea670b442974b53935d1edc7fd64eb21e047a839171b60405160405180910390a45b5050565b600081836142609190615c03565b905092915050565b60005b600480549050811015614491573373ffffffffffffffffffffffffffffffffffffffff16600482815481106142c9577f4e487b7100000000000000000000000000000000000000000000000000000000600052603260045260246000fd5b9060005260206000200160009054906101000a900473ffffffffffffffffffffffffffffffffffffffff1673ffffffffffffffffffffffffffffffffffffffff16141561447e57600460016004805490506143249190615c8e565b8154811061435b577f4e487b7100000000000000000000000000000000000000000000000000000000600052603260045260246000fd5b9060005260206000200160009054906101000a900473ffffffffffffffffffffffffffffffffffffffff16600482815481106143c0577f4e487b7100000000000000000000000000000000000000000000000000000000600052603260045260246000fd5b9060005260206000200160006101000a81548173ffffffffffffffffffffffffffffffffffffffff021916908373ffffffffffffffffffffffffffffffffffffffff1602179055506004805480614440577f4e487b7100000000000000000000000000000000000000000000000000000000600052603160045260246000fd5b6001900381819060005260206000200160006101000a81549073ffffffffffffffffffffffffffffffffffffffff0219169055905560048054905090505b808061448990615e0a565b91505061426b565b50565b60005b6005805490508110156146bd573373ffffffffffffffffffffffffffffffffffffffff16600582815481106144f5577f4e487b7100000000000000000000000000000000000000000000000000000000600052603260045260246000fd5b9060005260206000200160009054906101000a900473ffffffffffffffffffffffffffffffffffffffff1673ffffffffffffffffffffffffffffffffffffffff1614156146aa57600560016005805490506145509190615c8e565b81548110614587577f4e487b7100000000000000000000000000000000000000000000000000000000600052603260045260246000fd5b9060005260206000200160009054906101000a900473ffffffffffffffffffffffffffffffffffffffff16600582815481106145ec577f4e487b7100000000000000000000000000000000000000000000000000000000600052603260045260246000fd5b9060005260206000200160006101000a81548173ffffffffffffffffffffffffffffffffffffffff021916908373ffffffffffffffffffffffffffffffffffffffff160217905550600580548061466c577f4e487b7100000000000000000000000000000000000000000000000000000000600052603160045260246000fd5b6001900381819060005260206000200160006101000a81549073ffffffffffffffffffffffffffffffffffffffff0219169055905560058054905090505b80806146b590615e0a565b915050614497565b50565b6060600060028360026146d39190615c34565b6146dd9190615bad565b67ffffffffffffffff81111561471c577f4e487b7100000000000000000000000000000000000000000000000000000000600052604160045260246000fd5b6040519080825280601f01601f19166020018201604052801561474e5781602001600182028036833780820191505090505b5090507f3000000000000000000000000000000000000000000000000000000000000000816000815181106147ac577f4e487b7100000000000000000000000000000000000000000000000000000000600052603260045260246000fd5b60200101907effffffffffffffffffffffffffffffffffffffffffffffffffffffffffffff1916908160001a9053507f780000000000000000000000000000000000000000000000000000000000000081600181518110614836577f4e487b7100000000000000000000000000000000000000000000000000000000600052603260045260246000fd5b60200101907effffffffffffffffffffffffffffffffffffffffffffffffffffffffffffff1916908160001a905350600060018460026148769190615c34565b6148809190615bad565b90505b600181111561496c577f3031323334353637383961626364656600000000000000000000000000000000600f8616601081106148e8577f4e487b7100000000000000000000000000000000000000000000000000000000600052603260045260246000fd5b1a60f81b828281518110614925577f4e487b7100000000000000000000000000000000000000000000000000000000600052603260045260246000fd5b60200101907effffffffffffffffffffffffffffffffffffffffffffffffffffffffffffff1916908160001a905350600485901c94508061496590615de0565b9050614883565b50600084146149b0576040517f08c379a00000000000000000000000000000000000000000000000000000000081526004016149a790615979565b60405180910390fd5b8091505092915050565b6000813590506149c981615f05565b92915050565b6000813590506149de81615f1c565b92915050565b6000815190506149f381615f1c565b92915050565b600081359050614a0881615f33565b92915050565b600081359050614a1d81615f4a565b92915050565b600081359050614a3281615f61565b92915050565b600081519050614a4781615f61565b92915050565b600060208284031215614a5f57600080fd5b6000614a6d848285016149ba565b91505092915050565b60008060408385031215614a8957600080fd5b6000614a97858286016149ba565b9250506020614aa885828601614a23565b9150509250929050565b600060208284031215614ac457600080fd5b6000614ad2848285016149cf565b91505092915050565b600060208284031215614aed57600080fd5b6000614afb848285016149e4565b91505092915050565b600060208284031215614b1657600080fd5b6000614b24848285016149f9565b91505092915050565b60008060408385031215614b4057600080fd5b6000614b4e858286016149f9565b9250506020614b5f858286016149ba565b9150509250929050565b600060208284031215614b7b57600080fd5b6000614b8984828501614a0e565b91505092915050565b600060208284031215614ba457600080fd5b6000614bb284828501614a23565b91505092915050565b600060208284031215614bcd57600080fd5b6000614bdb84828501614a38565b91505092915050565b6000614bf08383614c14565b60208301905092915050565b6000614c088383615681565b60208301905092915050565b614c1d81615cc2565b82525050565b614c2c81615cc2565b82525050565b6000614c3d82615b34565b614c478185615b6f565b9350614c5283615b14565b8060005b83811015614c83578151614c6a8882614be4565b9750614c7583615b55565b925050600181019050614c56565b5085935050505092915050565b6000614c9b82615b3f565b614ca58185615b80565b9350614cb083615b24565b8060005b83811015614ce1578151614cc88882614bfc565b9750614cd383615b62565b925050600181019050614cb4565b5085935050505092915050565b614cf781615cd4565b82525050565b614d0681615ce0565b82525050565b614d1581615d53565b82525050565b614d2481615d77565b82525050565b614d3381615d9b565b82525050565b6000614d4482615b4a565b614d4e8185615b91565b9350614d5e818560208601615dad565b614d6781615ee0565b840191505092915050565b6000614d7d82615b4a565b614d878185615ba2565b9350614d97818560208601615dad565b80840191505092915050565b6000614db0601a83615ba2565b91507f7570646174655374616b65526174696f44656c65676174696e670000000000006000830152601a82019050919050565b6000614df0603083615b91565b91507f4e6f64654f7065726174696f6e733a6973536574746572202d2043616c6c657260008301527f206973206e6f74206120736574746572000000000000000000000000000000006020830152604082019050919050565b6000614e56602083615b91565b91507f537472696e67733a20686578206c656e67746820696e73756666696369656e746000830152602082019050919050565b6000614e96604683615b91565b91507f4e6f64654f7065726174696f6e733a72656d6f766544656c65676174696f6e2060008301527f596f7520617265206e6f742064656c65676174696e6720796f7572207374616b60208301527f65207965742e00000000000000000000000000000000000000000000000000006040830152606082019050919050565b6000614f22602683615ba2565b91507f4e6f64654f7065726174696f6e7328697356616c696461746f722d204d6f646960008301527f66696572293a00000000000000000000000000000000000000000000000000006020830152602682019050919050565b6000614f88601083615ba2565b91507f5570646174655374616b65526174696f000000000000000000000000000000006000830152601082019050919050565b6000614fc8604183615b91565b91507f4e6f64654f7065726174696f6e733a746f6767656c4e6f64654f70657261746f60008301527f72202d204d696e696d756d207374616b6520616d6f756e74206e6f74206d657460208301527f2e000000000000000000000000000000000000000000000000000000000000006040830152606082019050919050565b6000615054604183615b91565b91507f4e6f64654f7065726174696f6e733a757064617465504f57466565202d204e6560008301527f772076616c756520666f722074686520504f574665652063616e27742062652060208301527f30000000000000000000000000000000000000000000000000000000000000006040830152606082019050919050565b60006150e0606483615b91565b91507f4e6f64654f7065726174696f6e733a64656c656761677465202d20596f75206160008301527f72652061206e6f6465206f70657261746f722c2066697273742063616e63656c60208301527f207468697320726f6c6520616e64207468656e2064656c65676174652061676160408301527f696e2e20000000000000000000000000000000000000000000000000000000006060830152608082019050919050565b6000615192600c83615ba2565b91507f757064617465504f5746656500000000000000000000000000000000000000006000830152600c82019050919050565b60006151d2601a83615ba2565b91507f7570646174655374616b696e67526174696f526566657272616c0000000000006000830152601a82019050919050565b6000615212600383615b91565b91507f4f464600000000000000000000000000000000000000000000000000000000006000830152602082019050919050565b6000615252602883615ba2565b91507f4e6f64654f7065726174696f6e73286973436f6e74726f6c6c6572202d204d6f60008301527f646966696572293a0000000000000000000000000000000000000000000000006020830152602882019050919050565b60006152b8605483615b91565b91507f4e6f64654f7065726174696f6e733a7570646174655374616b696e675261746960008301527f6f526566657272616c202d204e65772076616c756520666f722074686520737460208301527f616b6520726174696f2063616e277420626520300000000000000000000000006040830152606082019050919050565b6000615344601983615ba2565b91507f2d20596f7520617265206e6f7420612076616c696461746f72000000000000006000830152601982019050919050565b6000615384604483615b91565b91507f4e6f64654f7065726174696f6e733a64656c6567617465202d20596f7520617260008301527f6520616c72656164792064656c65676174696e6720746f2074686973206d656d60208301527f6265722e000000000000000000000000000000000000000000000000000000006040830152606082019050919050565b6000615410601783615ba2565b91507f416363657373436f6e74726f6c3a206163636f756e74200000000000000000006000830152601782019050919050565b6000615450604a83615b91565b91507f4e6f64654f7065726174696f6e733a7570646174655374616b65526174696f2060008301527f2d204e65772076616c756520666f7220746865207374616b6520726174696f2060208301527f63616e27742062652030000000000000000000000000000000000000000000006040830152606082019050919050565b60006154dc605f83615b91565b91507f4e6f64654f7065726174696f6e733a7570646174655374616b65526174696f4460008301527f656c65676174696e67202d204e65772076616c756520666f722074686520737460208301527f616b652064656c65676174696e6720726174696f2063616e27742062652030006040830152606082019050919050565b6000615568600283615b91565b91507f4f4e0000000000000000000000000000000000000000000000000000000000006000830152602082019050919050565b60006155a8601183615ba2565b91507f206973206d697373696e6720726f6c65200000000000000000000000000000006000830152601182019050919050565b60006155e8601c83615ba2565b91507f2d2043616c6c6572206973206e6f74206120636f6e74726f6c6c6572000000006000830152601c82019050919050565b6000615628602f83615b91565b91507f416363657373436f6e74726f6c3a2063616e206f6e6c792072656e6f756e636560008301527f20726f6c657320666f722073656c6600000000000000000000000000000000006020830152604082019050919050565b61568a81615d49565b82525050565b61569981615d49565b82525050565b60006156aa82614da3565b9150819050919050565b60006156bf82614f15565b91506156cb8284614d72565b91506156d682615337565b915081905092915050565b60006156ec82614f7b565b9150819050919050565b600061570182615185565b9150819050919050565b6000615716826151c5565b9150819050919050565b600061572b82615245565b91506157378284614d72565b9150615742826155db565b915081905092915050565b600061575882615403565b91506157648285614d72565b915061576f8261559b565b915061577b8284614d72565b91508190509392505050565b600060208201905061579c6000830184614c23565b92915050565b60006040820190506157b76000830185614c23565b6157c46020830184614d2a565b9392505050565b60006040820190506157e06000830185614c23565b6157ed6020830184615690565b9392505050565b6000602082019050818103600083015261580e8184614c32565b905092915050565b600060408201905081810360008301526158308185614c32565b905081810360208301526158448184614c90565b90509392505050565b60006020820190506158626000830184614cee565b92915050565b60006101008201905061587e600083018b614cee565b61588b602083018a615690565b6158986040830189615690565b6158a56060830188615690565b6158b26080830187615690565b6158bf60a0830186614c23565b6158cc60c0830185614cee565b6158d960e0830184614cee565b9998505050505050505050565b60006020820190506158fb6000830184614cfd565b92915050565b60006020820190506159166000830184614d0c565b92915050565b60006020820190506159316000830184614d1b565b92915050565b600060208201905081810360008301526159518184614d39565b905092915050565b6000602082019050818103600083015261597281614de3565b9050919050565b6000602082019050818103600083015261599281614e49565b9050919050565b600060208201905081810360008301526159b281614e89565b9050919050565b600060208201905081810360008301526159d281614fbb565b9050919050565b600060208201905081810360008301526159f281615047565b9050919050565b60006020820190508181036000830152615a12816150d3565b9050919050565b60006020820190508181036000830152615a3281615205565b9050919050565b60006020820190508181036000830152615a52816152ab565b9050919050565b60006020820190508181036000830152615a7281615377565b9050919050565b60006020820190508181036000830152615a9281615443565b9050919050565b60006020820190508181036000830152615ab2816154cf565b9050919050565b60006020820190508181036000830152615ad28161555b565b9050919050565b60006020820190508181036000830152615af28161561b565b9050919050565b6000602082019050615b0e6000830184615690565b92915050565b6000819050602082019050919050565b6000819050602082019050919050565b600081519050919050565b600081519050919050565b600081519050919050565b6000602082019050919050565b6000602082019050919050565b600082825260208201905092915050565b600082825260208201905092915050565b600082825260208201905092915050565b600081905092915050565b6000615bb882615d49565b9150615bc383615d49565b9250827fffffffffffffffffffffffffffffffffffffffffffffffffffffffffffffffff03821115615bf857615bf7615e53565b5b828201905092915050565b6000615c0e82615d49565b9150615c1983615d49565b925082615c2957615c28615e82565b5b828204905092915050565b6000615c3f82615d49565b9150615c4a83615d49565b9250817fffffffffffffffffffffffffffffffffffffffffffffffffffffffffffffffff0483118215151615615c8357615c82615e53565b5b828202905092915050565b6000615c9982615d49565b9150615ca483615d49565b925082821015615cb757615cb6615e53565b5b828203905092915050565b6000615ccd82615d29565b9050919050565b60008115159050919050565b6000819050919050565b60007fffffffff0000000000000000000000000000000000000000000000000000000082169050919050565b6000819050615d2482615ef1565b919050565b600073ffffffffffffffffffffffffffffffffffffffff82169050919050565b6000819050919050565b6000615d5e82615d65565b9050919050565b6000615d7082615d29565b9050919050565b6000615d8282615d89565b9050919050565b6000615d9482615d29565b9050919050565b6000615da682615d16565b9050919050565b60005b83811015615dcb578082015181840152602081019050615db0565b83811115615dda576000848401525b50505050565b6000615deb82615d49565b91506000821415615dff57615dfe615e53565b5b600182039050919050565b6000615e1582615d49565b91507fffffffffffffffffffffffffffffffffffffffffffffffffffffffffffffffff821415615e4857615e47615e53565b5b600182019050919050565b7f4e487b7100000000000000000000000000000000000000000000000000000000600052601160045260246000fd5b7f4e487b7100000000000000000000000000000000000000000000000000000000600052601260045260246000fd5b7f4e487b7100000000000000000000000000000000000000000000000000000000600052602160045260246000fd5b6000601f19601f8301169050919050565b60038110615f0257615f01615eb1565b5b50565b615f0e81615cc2565b8114615f1957600080fd5b50565b615f2581615cd4565b8114615f3057600080fd5b50565b615f3c81615ce0565b8114615f4757600080fd5b50565b615f5381615cea565b8114615f5e57600080fd5b50565b615f6a81615d49565b8114615f7557600080fd5b5056fea2646970667358221220574a52b72f88436bd9c6f8d502304d6de17207140b1e364d6e33464c8d05439464736f6c63430008000033",
  "immutableReferences": {},
  "source": "// SPDX-License-Identifier: MIT\npragma solidity =0.8.0;\nimport \"@openzeppelin/contracts/access/AccessControl.sol\";\nimport \"@openzeppelin/contracts/utils/math/SafeMath.sol\";\nimport \"./../IAuditToken.sol\";\nimport \"./MemberHelpers.sol\";\n\n\n\n/**\n * @title NodeOperations\n * Functions for Node Operators\n */\ncontract NodeOperations is AccessControl {\n\n    using SafeMath for uint256;\n\n    MemberHelpers public memberHelpers;\n    address public auditToken;          \n    Members public members;\n\n    address[] public nodeOperators;\n    address[] public CPAs;\n\n    uint256 public stakeRatio = 1000;\n    uint256 public stakeRatioDelegating = 1100;\n    uint256 public stakingRatioReferral = 9100;\n    uint256 public POWFee = 1e18;\n\n\n    struct nodeOperator {\n\n        bool isNodeOperator;\n        address[] delegations;\n        mapping(address => bool) isDelegating;\n        uint256 stakeAmount;\n        uint256 delegateAmount;\n        uint256 referralAmount;\n        uint256 POWAmount;\n        address delegatorLink;\n        bool noDelegations;\n        bool isCPA;\n    }\n\n\n    mapping(address => nodeOperator) public nodeOpStruct;\n\n\n\n    bytes32 public constant CONTROLLER_ROLE = keccak256(\"CONTROLLER_ROLE\");\n    bytes32 public constant SETTER_ROLE =  keccak256(\"SETTER_ROLE\");\n\n\n    event LogNodeOperatorToggled(address indexed user, string action);\n    event LogCPAToggled(address indexed user, string action);\n    event LogNoDelegateToggled(address indexed user, string action);\n    event LogRemoveDelegation(address indexed delegating, address indexed delegatee);\n    event LogDelegation(address indexed delegating, address indexed newDelegatee);\n    event LogDelegatedStakeRewardsIncreased(address indexed delegating, uint256 amount);\n    event LogReferralStakeRewardsIncreased(address indexed delegating, uint256 amount);\n    event LogStakingRewardsTransferredOut(address indexed user, uint256 amount);\n    event LogStakingRewardsClaimed(address indexed user, uint256 amount);\n    event LogStakeRewardsIncreased(address indexed validator, uint256 amount);\n    event LogGovernanceUpdate(uint256 params, string indexed action);\n\n    constructor(address _memberHelpers, address _auditToken, address _members) {\n        require(_memberHelpers != address(0), \"NodeOperations:constructor - MemberHelpers address can't be 0\");\n        require( _auditToken != address(0), \"MemberHelpers:setCohort - Cohort address can't be 0\");\n        memberHelpers = MemberHelpers(_memberHelpers);\n        auditToken = _auditToken;\n        members = Members(_members);\n        _setupRole(DEFAULT_ADMIN_ROLE, msg.sender);\n    }\n\n\n\n    /// @dev check if caller is a controller\n    modifier isController(string memory source) {\n        string memory msgError = string(abi.encodePacked(\"NodeOperations(isController - Modifier):\", source, \"- Caller is not a controller\"));\n        require(hasRole(CONTROLLER_ROLE, msg.sender),msgError);\n\n        _;\n    }\n\n\n    /// @dev check if caller is a setter     \n    modifier isSetter {\n        require(hasRole(SETTER_ROLE, msg.sender), \"NodeOperations:isSetter - Caller is not a setter\");\n\n        _;\n    }\n\n    /// @dev check if user is validator\n    modifier isValidator(string memory source) {\n\n        string memory msgError = string(abi.encodePacked(\"NodeOperations(isValidator- Modifier):\", source, \"- You are not a validator\"));\n        require( members.userMap(msg.sender, Members.UserType(1)), msgError);\n\n        _;\n    }\n\n    function updateStakeRatioDelegating(uint256 _newRatio) public isSetter() {\n\n        require(_newRatio != 0, \"NodeOperations:updateStakeRatioDelegating - New value for the stake delegating ratio can't be 0\");\n        stakeRatioDelegating = _newRatio;\n\n        emit LogGovernanceUpdate(_newRatio, \"updateStakeRatioDelegating\");\n    }\n\n    function updateStakingRatioReferral(uint256 _newRatio) public isSetter() {\n\n        require(_newRatio != 0, \"NodeOperations:updateStakingRatioReferral - New value for the stake ratio can't be 0\");\n        stakingRatioReferral = _newRatio;\n        emit LogGovernanceUpdate(_newRatio, \"updateStakingRatioReferral\");\n    }\n\n    function updateStakeRatio(uint256 _newRatio) public isSetter() {\n\n        require(_newRatio != 0, \"NodeOperations:updateStakeRatio - New value for the stake ratio can't be 0\");\n        stakeRatio = _newRatio;\n        emit LogGovernanceUpdate(_newRatio, \"UpdateStakeRatio\");\n    }\n\n    function updatePOWFee(uint256 _newFee) public isSetter() {\n\n        require(_newFee != 0, \"NodeOperations:updatePOWFee - New value for the POWFee can't be 0\");\n        POWFee = _newFee;\n        emit LogGovernanceUpdate(_newFee, \"updatePOWFee\");\n    }\n\n    function returnDelegatorLink(address operator) public view returns (address){\n\n        return nodeOpStruct[operator].delegatorLink;\n    }\n\n    function isNodeOperator(address operator) public view returns (bool) {\n\n        return nodeOpStruct[operator].isNodeOperator;\n\n    }\n\n\n\n    /*** \n    * @dev return members of the staking pool\n    * @param poolOperator - owner of the pool\n    * @param name name of the user\n    * @return array of users with their deposit values\n    */\n\n    function returnPoolList(address poolOperator)public view returns (address[] memory, uint256[] memory) {\n\n        address[] memory poolUsers = new address[](nodeOpStruct[poolOperator].delegations.length  );\n        uint256[] memory poolUsersStakes = new uint256[](nodeOpStruct[poolOperator].delegations.length );\n\n        for (uint256 i = 0; i< nodeOpStruct[poolOperator].delegations.length ;i++) {\n            poolUsers[i]= nodeOpStruct[poolOperator].delegations[i];\n            poolUsersStakes[i] = memberHelpers.returnDepositAmount(poolUsers[i]);\n\n        }\n        return (poolUsers, poolUsersStakes);\n    }\n\n    \n    /// @dev change Node operator status from on to off or the vice versa \n    function toggleNodeOperator( ) public isValidator(\"toggleNodeOperator\") {\n\n\n        if (nodeOpStruct[msg.sender].isNodeOperator){\n            nodeOpStruct[msg.sender].isNodeOperator = false;\n            removeNodeOperator();\n            removeAlldelegations();\n            emit LogNodeOperatorToggled(msg.sender, \"OFF\");\n        }\n        else{\n            require(memberHelpers.returnDepositAmount(msg.sender) >= memberHelpers.minContribution(), \"NodeOperations:toggelNodeOperator - Minimum stake amount not met.\");\n            nodeOpStruct[msg.sender].isNodeOperator = true;\n            nodeOperators.push(msg.sender);\n            emit LogNodeOperatorToggled(msg.sender, \"ON\");\n        }\n    }\n\n    /// @dev change CPA status from on to off or vice versa\n    function toggleCPA( ) public isValidator(\"toggleCPA\") {\n\n        if (nodeOpStruct[msg.sender].isCPA){\n            nodeOpStruct[msg.sender].isCPA = false;\n            removeCPA();\n            emit LogCPAToggled(msg.sender,\"OFF\");\n        }\n        else{\n            nodeOpStruct[msg.sender].isCPA = true;\n            CPAs.push(msg.sender);\n            emit LogCPAToggled(msg.sender,\"ON\");\n        }\n    }\n\n    /// @dev change no delegate flag from on to off or vice versa\n    function toggleNoDelegate( ) isValidator(\"toggleNoDelegate\") public {\n\n        if (nodeOpStruct[msg.sender].noDelegations){\n            nodeOpStruct[msg.sender].noDelegations = false;\n            emit LogNoDelegateToggled(msg.sender, \"OFF\");\n        }\n        else{\n            removeAlldelegations();\n            nodeOpStruct[msg.sender].noDelegations = true;\n            emit LogNoDelegateToggled(msg.sender, \"ON\");\n        }\n    }\n\n    /// @dev remove CPA status\n    function removeCPA() internal {\n\n        for (uint256 i= 0; i < CPAs.length; i++) {\n\n            if (CPAs[i] == msg.sender){\n\n                CPAs[i] = CPAs[CPAs.length - 1];\n                CPAs.pop();\n                i = CPAs.length;\n            }\n        }\n    }\n\n    /// @dev remove Node operator status \n    function removeNodeOperator() internal {\n\n        for (uint256 i= 0; i < nodeOperators.length; i++) {\n\n            if (nodeOperators[i] == msg.sender){\n\n                nodeOperators[i] = nodeOperators[nodeOperators.length - 1];\n                nodeOperators.pop();\n                i = nodeOperators.length;\n            }\n        }\n    }\n\n    /// return all node operators\n    function returnNodeOperators() public view returns (address[] memory) {\n\n        return nodeOperators;\n    }\n\n    function returnNodeOperatorsCount() public view returns(uint256){\n\n        return nodeOperators.length;\n    }\n\n    /// return all CPAs\n    function returnCPAs() public view returns (address[] memory) {\n\n        return CPAs;\n    }\n    \n    /// remove all delegations for specific pool operator\n    function removeAlldelegations() public {\n\n        for (uint256 i = nodeOpStruct[msg.sender].delegations.length  ; i > 0; i--) {\n            address delegating = nodeOpStruct[msg.sender].delegations[i-1];\n            nodeOpStruct[msg.sender].delegations.pop();   \n            nodeOpStruct[msg.sender].isDelegating[delegating] = false;\n            nodeOpStruct[delegating].delegatorLink = address(0x0);\n        }\n    }\n\n    /// remove delegation for pool member \n    function removeDelegation() public isValidator(\"removeDelegation\") {\n\n        address oldDelegatee = nodeOpStruct[msg.sender].delegatorLink;\n\n        require(oldDelegatee != address(0x0), \"NodeOperations:removeDelegation You are not delegating your stake yet.\");\n\n\n        for (uint256 i = 0; i < nodeOpStruct[oldDelegatee].delegations.length; i++) {\n            if (nodeOpStruct[oldDelegatee].delegations[i] == msg.sender) {\n                nodeOpStruct[oldDelegatee].delegations[i] = nodeOpStruct[oldDelegatee].delegations[nodeOpStruct[oldDelegatee].delegations.length - 1];\n                nodeOpStruct[oldDelegatee].delegations.pop();\n                nodeOpStruct[oldDelegatee].isDelegating[msg.sender] = false;\n                nodeOpStruct[msg.sender].delegatorLink = address(0x0);\n                i= nodeOpStruct[oldDelegatee].delegations.length;\n            }\n        }\n\n        emit LogRemoveDelegation(msg.sender, oldDelegatee);\n    }\n\n    /*** \n    * @dev delegate stake to the pool \n    * @param delegatee - owner of the pool \n    */\n\n     function delegate(address delegatee) public isValidator(\"Delegate\") {\n\n        require(!nodeOpStruct[msg.sender].isNodeOperator, \"NodeOperations:delegagte - You are a node operator, first cancel this role and then delegate again. \");\n        require(!nodeOpStruct[delegatee].isDelegating[msg.sender], \"NodeOperations:delegate - You are already delegating to this member.\");\n\n        if (nodeOpStruct[msg.sender].delegatorLink != address(0x0)) \n            removeDelegation();\n\n        nodeOpStruct[delegatee].delegations.push(msg.sender);\n        nodeOpStruct[msg.sender].delegatorLink = delegatee;\n        nodeOpStruct[delegatee].isDelegating[msg.sender] = true;\n\n        emit LogDelegation(msg.sender, delegatee);\n    }\n\n\n    /*** \n    * @dev called by the Validations contract to increase POW amount of winning validator\n    * @param validator - winner of the validation task\n    * @param amount to aword to validator\n    */\n    function increasePOWRewards(address validator, uint256 amount) public isController(\"increasePOWRewards\") {\n            nodeOpStruct[validator].POWAmount = nodeOpStruct[validator].POWAmount.add(amount);\n    }\n\n\n    /*** \n    * @dev called by the Validations contract to increase delegated stake rewards and referral rewards\n    * @param validator - validator for whom values are increased\n    */\n    function increaseDelegatedStakeRewards(address validator) public isController(\"increaseDelegatedStakeRewards\") {\n        uint256 referringReward;\n\n        for (uint256 i = 0; i < nodeOpStruct[validator].delegations.length ; i++) {\n            address delegating = nodeOpStruct[validator].delegations[i];\n            uint256 amount = memberHelpers.returnDepositAmount(delegating).div(stakeRatioDelegating);\n            nodeOpStruct[delegating].delegateAmount = nodeOpStruct[delegating].delegateAmount.add(amount);\n            referringReward = referringReward.add(memberHelpers.returnDepositAmount(delegating).div(stakingRatioReferral));\n            emit LogDelegatedStakeRewardsIncreased(delegating, amount);\n        }\n\n        if (referringReward > 0) {\n            nodeOpStruct[validator].referralAmount = nodeOpStruct[validator].referralAmount.add(referringReward);\n            emit LogReferralStakeRewardsIncreased(validator, referringReward);\n        }\n    }\n\n    /*** \n    * @dev called by the Validations contract to increase pool operator stake reward amount\n    * @param validator - validator for whom values are increased\n    */\n    function increaseStakeRewards(address validator) public isController(\"increaseStakeRewards\") {\n        uint256 amount = memberHelpers.returnDepositAmount(validator).div(stakeRatio);\n        nodeOpStruct[validator].stakeAmount = nodeOpStruct[validator].stakeAmount.add(amount);\n        emit LogStakeRewardsIncreased(validator, amount);\n    }\n\n\n    /*** \n    * @dev called by the Validator to claim their reward\n    * @param deliver - true if amount should be delivered into the wallet or stake deposit\n    */\n    function claimStakeRewards(bool deliver) public {\n        uint256 stakeRewards = nodeOpStruct[msg.sender].stakeAmount;\n        uint256 delegateRewards = nodeOpStruct[msg.sender].delegateAmount;\n        uint256 powRewards = nodeOpStruct[msg.sender].POWAmount;\n        uint256 refRewards = nodeOpStruct[msg.sender].referralAmount;\n\n\n        uint256 payment = stakeRewards.add(powRewards).add(refRewards).add(delegateRewards);\n        nodeOpStruct[msg.sender].stakeAmount= 0;\n        nodeOpStruct[msg.sender].delegateAmount = 0;\n        nodeOpStruct[msg.sender].POWAmount = 0;\n        nodeOpStruct[msg.sender].referralAmount = 0;\n\n\n        if (deliver) {\n            IAuditToken(auditToken).mint(msg.sender, payment);\n            emit LogStakingRewardsTransferredOut(msg.sender, payment);\n        } else {\n            memberHelpers.increaseDeposit(msg.sender, payment);\n            IAuditToken(auditToken).mint(address(this), payment);\n            emit LogStakingRewardsClaimed(msg.sender, payment);\n        }\n    }\n\n}",
  "sourcePath": "/home/win2win/eth/projects/AuditChain/Core-Smart-Contracts-v1/contracts/Auditchain/NodeOperations.sol",
  "compiler": {
    "name": "solc",
    "version": "0.8.0+commit.c7dfd78e.Emscripten.clang"
  },
  "schemaVersion": "3.4.6",
  "updatedAt": "2022-04-04T20:05:45.423Z",
  "devdoc": {
    "kind": "dev",
    "methods": {
      "getRoleAdmin(bytes32)": {
        "details": "Returns the admin role that controls `role`. See {grantRole} and {revokeRole}. To change a role's admin, use {_setRoleAdmin}."
      },
      "grantRole(bytes32,address)": {
        "details": "Grants `role` to `account`. If `account` had not been already granted `role`, emits a {RoleGranted} event. Requirements: - the caller must have ``role``'s admin role."
      },
      "hasRole(bytes32,address)": {
        "details": "Returns `true` if `account` has been granted `role`."
      },
      "renounceRole(bytes32,address)": {
        "details": "Revokes `role` from the calling account. Roles are often managed via {grantRole} and {revokeRole}: this function's purpose is to provide a mechanism for accounts to lose their privileges if they are compromised (such as when a trusted device is misplaced). If the calling account had been revoked `role`, emits a {RoleRevoked} event. Requirements: - the caller must be `account`."
      },
      "revokeRole(bytes32,address)": {
        "details": "Revokes `role` from `account`. If `account` had been granted `role`, emits a {RoleRevoked} event. Requirements: - the caller must have ``role``'s admin role."
      },
      "supportsInterface(bytes4)": {
        "details": "See {IERC165-supportsInterface}."
      },
      "toggleCPA()": {
        "details": "change CPA status from on to off or vice versa"
      },
      "toggleNoDelegate()": {
        "details": "change no delegate flag from on to off or vice versa"
      },
      "toggleNodeOperator()": {
        "details": "change Node operator status from on to off or the vice versa "
      }
    },
    "title": "NodeOperations Functions for Node Operators",
    "version": 1
  },
  "userdoc": {
    "kind": "user",
    "methods": {
      "removeAlldelegations()": {
        "notice": "remove all delegations for specific pool operator"
      },
      "removeDelegation()": {
        "notice": "remove delegation for pool member "
      },
      "returnCPAs()": {
        "notice": "return all CPAs"
      },
      "returnNodeOperators()": {
        "notice": "return all node operators"
      }
    },
    "version": 1
  }
}