{
  "contractName": "Queue",
  "abi": [
    {
      "inputs": [],
      "stateMutability": "nonpayable",
      "type": "constructor"
    },
    {
      "anonymous": false,
      "inputs": [
        {
          "indexed": false,
          "internalType": "uint256",
          "name": "id",
          "type": "uint256"
        }
      ],
      "name": "NewHead",
      "type": "event"
    },
    {
      "anonymous": false,
      "inputs": [
        {
          "indexed": false,
          "internalType": "uint256",
          "name": "id",
          "type": "uint256"
        },
        {
          "indexed": false,
          "internalType": "uint256",
          "name": "price",
          "type": "uint256"
        },
        {
          "indexed": false,
          "internalType": "bytes32",
          "name": "validationHash",
          "type": "bytes32"
        }
      ],
      "name": "ObjectCreated",
      "type": "event"
    },
    {
      "anonymous": false,
      "inputs": [
        {
          "indexed": false,
          "internalType": "uint256",
          "name": "id",
          "type": "uint256"
        }
      ],
      "name": "ObjectRemoved",
      "type": "event"
    },
    {
      "anonymous": false,
      "inputs": [
        {
          "indexed": false,
          "internalType": "uint256",
          "name": "prev",
          "type": "uint256"
        },
        {
          "indexed": false,
          "internalType": "uint256",
          "name": "next",
          "type": "uint256"
        }
      ],
      "name": "ObjectsLinked",
      "type": "event"
    },
    {
      "inputs": [],
      "name": "head",
      "outputs": [
        {
          "internalType": "uint256",
          "name": "",
          "type": "uint256"
        }
      ],
      "stateMutability": "view",
      "type": "function"
    },
    {
      "inputs": [],
      "name": "idCounter",
      "outputs": [
        {
          "internalType": "uint256",
          "name": "",
          "type": "uint256"
        }
      ],
      "stateMutability": "view",
      "type": "function"
    },
    {
      "inputs": [
        {
          "internalType": "uint256",
          "name": "",
          "type": "uint256"
        }
      ],
      "name": "objects",
      "outputs": [
        {
          "internalType": "uint256",
          "name": "id",
          "type": "uint256"
        },
        {
          "internalType": "uint256",
          "name": "next",
          "type": "uint256"
        },
        {
          "internalType": "uint256",
          "name": "price",
          "type": "uint256"
        },
        {
          "internalType": "bytes32",
          "name": "validationHash",
          "type": "bytes32"
        },
        {
          "internalType": "bool",
          "name": "executed",
          "type": "bool"
        }
      ],
      "stateMutability": "view",
      "type": "function"
    },
    {
      "inputs": [],
      "name": "queueCount",
      "outputs": [
        {
          "internalType": "uint256",
          "name": "",
          "type": "uint256"
        }
      ],
      "stateMutability": "view",
      "type": "function"
    },
    {
      "inputs": [
        {
          "internalType": "uint256",
          "name": "_id",
          "type": "uint256"
        }
      ],
      "name": "get",
      "outputs": [
        {
          "internalType": "uint256",
          "name": "",
          "type": "uint256"
        },
        {
          "internalType": "uint256",
          "name": "",
          "type": "uint256"
        },
        {
          "internalType": "uint256",
          "name": "",
          "type": "uint256"
        },
        {
          "internalType": "bytes32",
          "name": "",
          "type": "bytes32"
        }
      ],
      "stateMutability": "view",
      "type": "function"
    },
    {
      "inputs": [
        {
          "internalType": "uint256",
          "name": "_id",
          "type": "uint256"
        }
      ],
      "name": "findPrevId",
      "outputs": [
        {
          "internalType": "uint256",
          "name": "",
          "type": "uint256"
        }
      ],
      "stateMutability": "view",
      "type": "function"
    },
    {
      "inputs": [],
      "name": "findTailId",
      "outputs": [
        {
          "internalType": "uint256",
          "name": "",
          "type": "uint256"
        }
      ],
      "stateMutability": "view",
      "type": "function"
    },
    {
      "inputs": [
        {
          "internalType": "uint256",
          "name": "_price",
          "type": "uint256"
        }
      ],
      "name": "findIdForData",
      "outputs": [
        {
          "internalType": "uint256",
          "name": "",
          "type": "uint256"
        }
      ],
      "stateMutability": "view",
      "type": "function"
    },
    {
      "inputs": [
        {
          "internalType": "bytes32",
          "name": "_validationHash",
          "type": "bytes32"
        }
      ],
      "name": "findIdForValidationHash",
      "outputs": [
        {
          "internalType": "uint256",
          "name": "",
          "type": "uint256"
        }
      ],
      "stateMutability": "view",
      "type": "function"
    },
    {
      "inputs": [
        {
          "internalType": "uint256",
          "name": "_price",
          "type": "uint256"
        }
      ],
      "name": "findIdForLesserPrice",
      "outputs": [
        {
          "internalType": "uint256",
          "name": "",
          "type": "uint256"
        }
      ],
      "stateMutability": "view",
      "type": "function"
    },
    {
      "inputs": [
        {
          "internalType": "uint256",
          "name": "_price",
          "type": "uint256"
        },
        {
          "internalType": "bytes32",
          "name": "_validationHash",
          "type": "bytes32"
        }
      ],
      "name": "addHead",
      "outputs": [],
      "stateMutability": "nonpayable",
      "type": "function"
    },
    {
      "inputs": [
        {
          "internalType": "uint256",
          "name": "_price",
          "type": "uint256"
        },
        {
          "internalType": "bytes32",
          "name": "_validationHash",
          "type": "bytes32"
        }
      ],
      "name": "addTail",
      "outputs": [],
      "stateMutability": "nonpayable",
      "type": "function"
    },
    {
      "inputs": [
        {
          "internalType": "uint256",
          "name": "_id",
          "type": "uint256"
        }
      ],
      "name": "remove",
      "outputs": [],
      "stateMutability": "nonpayable",
      "type": "function"
    },
    {
      "inputs": [
        {
          "internalType": "uint256",
          "name": "_prevId",
          "type": "uint256"
        },
        {
          "internalType": "uint256",
          "name": "_price",
          "type": "uint256"
        },
        {
          "internalType": "bytes32",
          "name": "validationHash",
          "type": "bytes32"
        }
      ],
      "name": "insertAfter",
      "outputs": [],
      "stateMutability": "nonpayable",
      "type": "function"
    },
    {
      "inputs": [
        {
          "internalType": "uint256",
          "name": "_nextId",
          "type": "uint256"
        },
        {
          "internalType": "uint256",
          "name": "_price",
          "type": "uint256"
        },
        {
          "internalType": "bytes32",
          "name": "validatioHash",
          "type": "bytes32"
        }
      ],
      "name": "insertBefore",
      "outputs": [],
      "stateMutability": "nonpayable",
      "type": "function"
    },
    {
      "inputs": [
        {
          "internalType": "uint256",
          "name": "_price",
          "type": "uint256"
        },
        {
          "internalType": "bytes32",
          "name": "_validationHash",
          "type": "bytes32"
        }
      ],
      "name": "addToQueue",
      "outputs": [],
      "stateMutability": "nonpayable",
      "type": "function"
    },
    {
      "inputs": [
        {
          "internalType": "bytes32",
          "name": "_lastValidationHash",
          "type": "bytes32"
        }
      ],
      "name": "getValidationToVote",
      "outputs": [
        {
          "internalType": "bytes32",
          "name": "",
          "type": "bytes32"
        }
      ],
      "stateMutability": "view",
      "type": "function"
    },
    {
      "inputs": [],
      "name": "getNextValidationToVote",
      "outputs": [
        {
          "internalType": "bytes32",
          "name": "validationHash",
          "type": "bytes32"
        }
      ],
      "stateMutability": "view",
      "type": "function"
    },
    {
      "inputs": [],
      "name": "getValidationToProcess",
      "outputs": [
        {
          "internalType": "bytes32",
          "name": "",
          "type": "bytes32"
        }
      ],
      "stateMutability": "view",
      "type": "function"
    },
    {
      "inputs": [
        {
          "internalType": "bytes32",
          "name": "_lastValidationHash",
          "type": "bytes32"
        }
      ],
      "name": "getValidationToProcess",
      "outputs": [
        {
          "internalType": "bytes32",
          "name": "validationHash",
          "type": "bytes32"
        }
      ],
      "stateMutability": "view",
      "type": "function"
    },
    {
      "inputs": [],
      "name": "getNextValidation",
      "outputs": [
        {
          "internalType": "bytes32",
          "name": "",
          "type": "bytes32"
        }
      ],
      "stateMutability": "view",
      "type": "function"
    },
    {
      "inputs": [
        {
          "internalType": "bytes32",
          "name": "_valHash",
          "type": "bytes32"
        }
      ],
      "name": "removeFromQueue",
      "outputs": [],
      "stateMutability": "nonpayable",
      "type": "function"
    },
    {
      "inputs": [
        {
          "internalType": "bytes32",
          "name": "_valHash",
          "type": "bytes32"
        }
      ],
      "name": "setValidatedFlag",
      "outputs": [],
      "stateMutability": "nonpayable",
      "type": "function"
    },
    {
      "inputs": [],
      "name": "returnQueueSize",
      "outputs": [
        {
          "internalType": "uint256",
          "name": "",
          "type": "uint256"
        }
      ],
      "stateMutability": "view",
      "type": "function"
    },
    {
      "inputs": [
        {
          "internalType": "bytes32",
          "name": "_valHash",
          "type": "bytes32"
        },
        {
          "internalType": "uint256",
          "name": "newPrice",
          "type": "uint256"
        }
      ],
      "name": "replaceTransaction",
      "outputs": [],
      "stateMutability": "nonpayable",
      "type": "function"
    },
    {
      "inputs": [
        {
          "internalType": "bytes32",
          "name": "_valHash",
          "type": "bytes32"
        }
      ],
      "name": "cancelTransaction",
      "outputs": [],
      "stateMutability": "nonpayable",
      "type": "function"
    }
  ],
  "bytecode": "0x608060405234801561001057600080fd5b50600080819055506001808190555061155c8061002e6000396000f3fe608060405234801561001057600080fd5b506004361061018e5760003560e01c80639507d39a116100de578063d01d7a8411610097578063eb08ab2811610071578063eb08ab2814610484578063ed175850146104a2578063f7c15fc8146104d6578063fad9fdd5146104f25761018e565b8063d01d7a841461041a578063d4d7675414610438578063dd491553146104685761018e565b80639507d39a1461032f5780639ef36bd114610362578063a8d0fcf914610380578063aed142671461039c578063b771cf9b146103cc578063cd48e3b9146103ea5761018e565b80634cc822151161014b5780637108614a116101255780637108614a146102a75780638f7dcfa3146102c55780639057e605146102e35780639164c51f146103135761018e565b80634cc82215146102515780636b2b35941461026d57806370ba33391461028b5761018e565b806335fda3ae1461019357806346150acb146101af578063469d7c4a146101cb57806346ba2bea146101e9578063479d9575146102055780634879267414610235575b600080fd5b6101ad60048036038101906101a8919061116c565b610522565b005b6101c960048036038101906101c491906111fa565b610562565b005b6101d36105a6565b6040516101e091906112b2565b60405180910390f35b61020360048036038101906101fe9190611236565b6105c0565b005b61021f600480360381019061021a91906111d1565b6105f8565b60405161022c91906112cd565b60405180910390f35b61024f600480360381019061024a919061116c565b61071d565b005b61026b600480360381019061026691906111d1565b610737565b005b610275610876565b60405161028291906112cd565b60405180910390f35b6102a560048036038101906102a0919061116c565b610880565b005b6102af61088c565b6040516102bc91906112cd565b60405180910390f35b6102cd610977565b6040516102da91906112cd565b60405180910390f35b6102fd60048036038101906102f891906111d1565b61097d565b60405161030a91906112cd565b60405180910390f35b61032d60048036038101906103289190611195565b610a69565b005b610349600480360381019061034491906111d1565b610a80565b6040516103599493929190611348565b60405180910390f35b61036a610b0f565b60405161037791906112cd565b60405180910390f35b61039a60048036038101906103959190611236565b610b15565b005b6103b660048036038101906103b1919061116c565b610bab565b6040516103c391906112b2565b60405180910390f35b6103d4610c21565b6040516103e191906112b2565b60405180910390f35b61040460048036038101906103ff91906111d1565b610c74565b60405161041191906112cd565b60405180910390f35b610422610d60565b60405161042f91906112b2565b60405180910390f35b610452600480360381019061044d919061116c565b610d7a565b60405161045f91906112b2565b60405180910390f35b610482600480360381019061047d91906111fa565b610dd1565b005b61048c610df9565b60405161049991906112cd565b60405180910390f35b6104bc60048036038101906104b791906111d1565b610dff565b6040516104cd95949392919061138d565b60405180910390f35b6104f060048036038101906104eb91906111fa565b610e42565b005b61050c6004803603810190610507919061116c565b610e77565b60405161051991906112cd565b60405180910390f35b600061052d82610e77565b905060016003600083815260200190815260200160002060040160006101000a81548160ff0219169083151502179055505050565b60008054141561057b576105768282610dd1565b6105a2565b600061058561088c565b905060006105938484610fa0565b905061059f82826110a9565b50505b5050565b6000806105b4600054610a80565b93505050508091505090565b6000548314156105d9576105d48282610dd1565b6105f3565b60006105e4846105f8565b90506105f1818484610b15565b505b505050565b6000805482141561060c5760009050610718565b600060019050600060036000805481526020019081526020016000206040518060a0016040529081600082015481526020016001820154815260200160028201548152602001600382015481526020016004820160009054906101000a900460ff16151515158152505090505b8381602001511415801561068f57506002548211155b1561070e5760036000826020015181526020019081526020016000206040518060a0016040529081600082015481526020016001820154815260200160028201548152602001600382015481526020016004820160009054906101000a900460ff1615151515815250509050818061070690611480565b925050610679565b8060000151925050505b919050565b600061072882610e77565b905061073381610737565b5050565b6000600360008381526020019081526020016000206040518060a0016040529081600082015481526020016001820154815260200160028201548152602001600382015481526020016004820160009054906101000a900460ff16151515158152505090508160005414156107b8576107b38160200151611101565b6107d5565b60006107c3836105f8565b90506107d38183602001516110a9565b505b60036000826000015181526020019081526020016000206000808201600090556001820160009055600282016000905560038201600090556004820160006101000a81549060ff021916905550506002600081548092919061083690611456565b91905055507fe1919cab237081e04a387d81704c769f832679b068e9b87b1d6a27eb5102b9568260405161086a91906112cd565b60405180910390a15050565b6000600254905090565b6108898161071d565b50565b60008060036000805481526020019081526020016000206040518060a0016040529081600082015481526020016001820154815260200160028201548152602001600382015481526020016004820160009054906101000a900460ff16151515158152505090505b600081602001511461096c5760036000826020015181526020019081526020016000206040518060a0016040529081600082015481526020016001820154815260200160028201548152602001600382015481526020016004820160009054906101000a900460ff16151515158152505090506108f4565b806000015191505090565b60005481565b60008060036000805481526020019081526020016000206040518060a0016040529081600082015481526020016001820154815260200160028201548152602001600382015481526020016004820160009054906101000a900460ff16151515158152505090505b82816040015114610a5c5760036000826020015181526020019081526020016000206040518060a0016040529081600082015481526020016001820154815260200160028201548152602001600382015481526020016004820160009054906101000a900460ff16151515158152505090506109e5565b8060000151915050919050565b610a728261071d565b610a7c8183610e42565b5050565b6000806000806000600360008781526020019081526020016000206040518060a0016040529081600082015481526020016001820154815260200160028201548152602001600382015481526020016004820160009054906101000a900460ff161515151581525050905080600001518160200151826040015183606001519450945094509450509193509193565b60025481565b6000600360008581526020019081526020016000206040518060a0016040529081600082015481526020016001820154815260200160028201548152602001600382015481526020016004820160009054906101000a900460ff16151515158152505090506000610b868484610fa0565b9050610b968183602001516110a9565b610ba48260000151826110a9565b5050505050565b600080610bb783610e77565b90506000610bc482610a80565b505091505060006003600083815260200190815260200160002060040160009054906101000a900460ff1615610c0f57610bfd82610a80565b90919250909150905080915050610c16565b6000801b90505b809350505050919050565b6000600360008054815260200190815260200160002060040160009054906101000a900460ff1615610c6a57610c58600054610a80565b90919250909150905080915050610c71565b6000801b90505b90565b60008060036000805481526020019081526020016000206040518060a0016040529081600082015481526020016001820154815260200160028201548152602001600382015481526020016004820160009054906101000a900460ff16151515158152505090505b82816040015110610d535760036000826020015181526020019081526020016000206040518060a0016040529081600082015481526020016001820154815260200160028201548152602001600382015481526020016004820160009054906101000a900460ff1615151515815250509050610cdc565b8060000151915050919050565b600080610d6e600054610a80565b93505050508091505090565b600080610d8683610e77565b90506000610d9382610a80565b50509150506000811415610dac576000801b9250610dc9565b610db581610a80565b909192509091509050809350505050610dcc565b50505b919050565b6000610ddd8383610fa0565b9050610deb816000546110a9565b610df481611101565b505050565b60015481565b60036020528060005260406000206000915090508060000154908060010154908060020154908060030154908060040160009054906101000a900460ff16905085565b6000610e4d83610c74565b9050610e5a8184846105c0565b60026000815480929190610e6d90611480565b9190505550505050565b60008060036000805481526020019081526020016000206040518060a0016040529081600082015481526020016001820154815260200160028201548152602001600382015481526020016004820160009054906101000a900460ff16151515158152505090506000600190505b83826060015114158015610efb57506002548111155b15610f7a5760036000836020015181526020019081526020016000206040518060a0016040529081600082015481526020016001820154815260200160028201548152602001600382015481526020016004820160009054906101000a900460ff16151515158152505091508080610f7290611480565b915050610ee5565b8382606001511415610f9457816000015192505050610f9b565b6000925050505b919050565b60008060015490506001806000828254610fba91906113e0565b9250508190555060006040518060a00160405280838152602001600081526020018681526020018581526020016000151581525090508060036000836000015181526020019081526020016000206000820151816000015560208201518160010155604082015181600201556060820151816003015560808201518160040160006101000a81548160ff0219169083151502179055509050507fae3fa14712358fd14ea9daaa663953bb097578df220e6c81d698b842db789f2f81600001518260400151836060015160405161109293929190611311565b60405180910390a180600001519250505092915050565b8060036000848152602001908152602001600020600101819055507fbe1f66c94cc2553f09c996e2153854d4b74a747e3c2648161fb8daa3bfe9830282826040516110f59291906112e8565b60405180910390a15050565b806000819055507f58b81d35330cc08b909b14dbf5bcf7c3e769206cd0be7dd65e76e95a815439e18160405161113791906112cd565b60405180910390a150565b600081359050611151816114f8565b92915050565b6000813590506111668161150f565b92915050565b60006020828403121561117e57600080fd5b600061118c84828501611142565b91505092915050565b600080604083850312156111a857600080fd5b60006111b685828601611142565b92505060206111c785828601611157565b9150509250929050565b6000602082840312156111e357600080fd5b60006111f184828501611157565b91505092915050565b6000806040838503121561120d57600080fd5b600061121b85828601611157565b925050602061122c85828601611142565b9150509250929050565b60008060006060848603121561124b57600080fd5b600061125986828701611157565b935050602061126a86828701611157565b925050604061127b86828701611142565b9150509250925092565b61128e81611436565b82525050565b61129d81611442565b82525050565b6112ac8161144c565b82525050565b60006020820190506112c76000830184611294565b92915050565b60006020820190506112e260008301846112a3565b92915050565b60006040820190506112fd60008301856112a3565b61130a60208301846112a3565b9392505050565b600060608201905061132660008301866112a3565b61133360208301856112a3565b6113406040830184611294565b949350505050565b600060808201905061135d60008301876112a3565b61136a60208301866112a3565b61137760408301856112a3565b6113846060830184611294565b95945050505050565b600060a0820190506113a260008301886112a3565b6113af60208301876112a3565b6113bc60408301866112a3565b6113c96060830185611294565b6113d66080830184611285565b9695505050505050565b60006113eb8261144c565b91506113f68361144c565b9250827fffffffffffffffffffffffffffffffffffffffffffffffffffffffffffffffff0382111561142b5761142a6114c9565b5b828201905092915050565b60008115159050919050565b6000819050919050565b6000819050919050565b60006114618261144c565b91506000821415611475576114746114c9565b5b600182039050919050565b600061148b8261144c565b91507fffffffffffffffffffffffffffffffffffffffffffffffffffffffffffffffff8214156114be576114bd6114c9565b5b600182019050919050565b7f4e487b7100000000000000000000000000000000000000000000000000000000600052601160045260246000fd5b61150181611442565b811461150c57600080fd5b50565b6115188161144c565b811461152357600080fd5b5056fea26469706673582212205780f53c609054e4a1c9e983a5c1e9c531b0eef135d99fc4ef7bc7c2a9e79eff64736f6c63430008000033",
  "immutableReferences": {},
  "source": "pragma solidity =0.8.0;\n// SPDX-License-Identifier: MIT\n\n\n\n/**\n * @title LinkedList\n * @dev Data structure\n * @author Alberto Cuesta Caada\n */\ncontract Queue {\n\n    event ObjectCreated(uint256 id, uint256 price, bytes32 validationHash);\n    event ObjectsLinked(uint256 prev, uint256 next);\n    event ObjectRemoved(uint256 id);\n    event NewHead(uint256 id);\n\n    struct Object{\n        uint256 id;\n        uint256 next;\n        uint256 price;\n        bytes32 validationHash;\n        bool executed;\n    }\n\n    uint256 public head;\n    uint256 public idCounter;\n    uint256 public queueCount;\n    mapping (uint256 => Object) public objects;\n\n    /**\n     * @dev Creates an empty list.\n     */\n    constructor() {\n        head = 0;\n        idCounter = 1;\n    }\n\n    /**\n     * @dev Retrieves the Object denoted by `_id`.\n     */\n    function get(uint256 _id)\n        public\n        virtual\n        view\n        returns (uint256, uint256, uint256, bytes32)\n    {\n        Object memory object = objects[_id];\n        return (object.id, object.next, object.price, object.validationHash);\n    }\n\n    /**\n     * @dev Given an Object, denoted by `_id`, returns the id of the Object that points to it, or 0 if `_id` refers to the Head.\n     */\n    function findPrevId(uint256 _id)\n        public\n        virtual\n        view\n        returns (uint256)\n    {\n        if (_id == head) return 0;\n        uint256 count=1;\n        Object memory prevObject = objects[head];\n        while (prevObject.next != _id && count <= queueCount) {\n            prevObject = objects[prevObject.next];\n            count++;\n        }\n        return prevObject.id;\n    }\n\n    /**\n     * @dev Returns the id for the Tail.\n     */\n    function findTailId()\n        public\n        virtual\n        view\n        returns (uint256)\n    {\n        Object memory oldTailObject = objects[head];\n        while (oldTailObject.next != 0) {\n            oldTailObject = objects[oldTailObject.next];    \n        }\n        return oldTailObject.id;\n    }\n\n    /**\n     * @dev Return the id of the first Object matching `_price` in the data field.\n     */\n    function findIdForData(uint256 _price)\n        public\n        virtual\n        view\n        returns (uint256)\n    {\n        Object memory object = objects[head];\n        while (object.price != _price) {\n            object = objects[object.next];\n        }\n        return object.id;\n    }\n\n    function findIdForValidationHash(bytes32 _validationHash)public view returns (uint256) {\n        Object memory object = objects[head];\n        uint256 count=1;\n\n            while (object.validationHash != _validationHash && count <= queueCount) {\n                object = objects[object.next];\n                count++;\n            }\n\n            if (object.validationHash == _validationHash)\n                return object.id;\n            else \n                return 0;\n    }\n\n    /**\n     * @dev Return the id of the first Object matching `_price` in the data field.\n     */\n    function findIdForLesserPrice(uint256 _price)\n        public\n        virtual\n        view\n        returns (uint256)\n    {\n        Object memory object = objects[head];\n        while (object.price >= _price) {\n            object = objects[object.next];\n        }\n        return object.id;\n    }\n\n    /**\n     * @dev Insert a new Object as the new Head with `_price` in the data field.\n     */\n    function addHead(uint256 _price, bytes32 _validationHash)\n        public\n        virtual\n    {\n        uint256 objectId = _createObject(_price, _validationHash);\n        _link(objectId, head);\n        _setHead(objectId);\n    }\n\n    /**\n     * @dev Insert a new Object as the new Tail with `_price` in the data field.\n     */\n    function addTail(uint256 _price, bytes32 _validationHash)\n        public\n        virtual\n    {\n        if (head == 0) {\n            addHead(_price, _validationHash);\n        }\n        else {\n            uint256 oldTailId = findTailId();\n            uint256 newTailId = _createObject(_price, _validationHash);\n            _link(oldTailId, newTailId);\n        }\n    }\n\n    /**\n     * @dev Remove the Object denoted by `_id` from the List.\n     */\n    function remove(uint256 _id)\n        public\n        virtual\n    {\n        Object memory removeObject = objects[_id];\n        if (head == _id) {\n            _setHead(removeObject.next);\n        }\n        else {\n            uint256 prevObjectId = findPrevId(_id);\n            _link(prevObjectId, removeObject.next);\n        }\n        delete objects[removeObject.id];\n        queueCount--;\n        emit ObjectRemoved(_id);\n    }\n\n    /**\n     * @dev Insert a new Object after the Object denoted by `_id` with `_price` in the data field.\n     */\n    function insertAfter(uint256 _prevId, uint256 _price, bytes32 validationHash)\n        public\n        virtual\n    {\n        Object memory prevObject = objects[_prevId];\n        uint256 newObjectId = _createObject(_price, validationHash);\n        _link(newObjectId, prevObject.next);\n        _link(prevObject.id, newObjectId);\n    }\n\n    /**\n     * @dev Insert a new Object before the Object denoted by `_id` with `_price` in the data field.\n     */\n    function insertBefore(uint256 _nextId, uint256 _price, bytes32 validatioHash)\n        public\n        virtual\n    {\n        if (_nextId == head) {\n            addHead(_price, validatioHash);\n        }\n        else {\n            uint256 prevId = findPrevId(_nextId);\n            insertAfter(prevId, _price, validatioHash);\n        }\n    }\n\n    /**\n     * @dev Internal function to update the Head pointer.\n     */\n    function _setHead(uint256 _id)\n        internal\n    {\n        head = _id;\n        emit NewHead(_id);\n    }\n\n    /**\n     * @dev Internal function to create an unlinked Object.\n     */\n    function _createObject(uint256 _price, bytes32 _validationHash)\n        internal\n        returns (uint256)\n    {\n        uint256 newId = idCounter;\n        idCounter += 1;\n        \n        Object memory object = Object(newId, 0, _price, _validationHash, false);\n        objects[object.id] = object;\n        emit ObjectCreated(\n            object.id,\n            object.price,\n            object.validationHash\n        );\n        return object.id;\n    }\n\n    /**\n     * @dev Internal function to link an Object to another.\n     */\n    function _link(uint256 _prevId, uint256 _nextId)\n        internal\n    {\n        objects[_prevId].next = _nextId;\n        emit ObjectsLinked(_prevId, _nextId);\n    }\n\n\n    function addToQueue(uint256 _price, bytes32 _validationHash) public {\n        \n\n       uint256 id = findIdForLesserPrice(_price);\n       insertBefore(id, _price, _validationHash);\n        queueCount++;\n\n    }\n\n    function getValidationToProcess() public view returns (bytes32) {\n\n\n            (,,,bytes32 validationHash) =   get(head);\n        \n        return validationHash;\n    }\n\n    function getValidationToVote(bytes32 _lastValidationHash) public view returns (bytes32) {\n\n        uint256 id = findIdForValidationHash(_lastValidationHash);\n        (,uint256 prevId,,) = get(id);\n\n        bytes32 validationHash;\n\n            if (objects[prevId].executed){\n                (,,,validationHash) =   get(prevId);\n            } else\n                validationHash =  0x0;\n\n        \n        return validationHash;\n    }\n\n\n    function getNextValidationToVote() public view returns(bytes32 validationHash) {\n\n        if (objects[head].executed){\n                (,,,validationHash) =   get(head);\n            } else\n                validationHash =  0x0;\n        return validationHash;\n    }\n\n    function getValidationToProcess(bytes32 _lastValidationHash) public view returns(bytes32 validationHash) {\n\n\n        uint256 id = findIdForValidationHash(_lastValidationHash);\n        (,uint256 prevId,,) = get(id);\n\n        if (prevId == 0)\n            validationHash = 0x0;\n        else{\n            (,,,validationHash) =   get(prevId);\n            return validationHash;\n        }\n    }\n\n    function getNextValidation() public view returns(bytes32) {\n\n        (,,,bytes32 validationHash) = get(head);\n        return validationHash;\n    }\n\n\n\n    function removeFromQueue(bytes32 _valHash) public {\n        uint256 id = findIdForValidationHash(_valHash);\n        remove(id);\n       \n    }\n\n    function setValidatedFlag(bytes32 _valHash)public {\n\n        uint256 id = findIdForValidationHash(_valHash);\n        objects[id].executed = true;\n    }\n\n    function returnQueueSize() public view returns(uint256) {\n        return queueCount;\n    }\n\n    function replaceTransaction(bytes32 _valHash, uint256 newPrice) public {\n        removeFromQueue(_valHash);\n        addToQueue(newPrice, _valHash); \n    }\n\n    function cancelTransaction(bytes32 _valHash) public {\n\n        removeFromQueue(_valHash);\n\n    }\n\n\n}",
  "sourcePath": "/home/win2win/eth/projects/AuditChain/Core-Smart-Contracts-v1/contracts/Auditchain/Queue.sol",
  "compiler": {
    "name": "solc",
    "version": "0.8.0+commit.c7dfd78e.Emscripten.clang"
  },
  "schemaVersion": "3.4.6",
  "updatedAt": "2022-04-04T20:05:45.460Z",
  "devdoc": {
    "author": "Alberto Cuesta Caada",
    "details": "Data structure",
    "kind": "dev",
    "methods": {
      "addHead(uint256,bytes32)": {
        "details": "Insert a new Object as the new Head with `_price` in the data field."
      },
      "addTail(uint256,bytes32)": {
        "details": "Insert a new Object as the new Tail with `_price` in the data field."
      },
      "constructor": {
        "details": "Creates an empty list."
      },
      "findIdForData(uint256)": {
        "details": "Return the id of the first Object matching `_price` in the data field."
      },
      "findIdForLesserPrice(uint256)": {
        "details": "Return the id of the first Object matching `_price` in the data field."
      },
      "findPrevId(uint256)": {
        "details": "Given an Object, denoted by `_id`, returns the id of the Object that points to it, or 0 if `_id` refers to the Head."
      },
      "findTailId()": {
        "details": "Returns the id for the Tail."
      },
      "get(uint256)": {
        "details": "Retrieves the Object denoted by `_id`."
      },
      "insertAfter(uint256,uint256,bytes32)": {
        "details": "Insert a new Object after the Object denoted by `_id` with `_price` in the data field."
      },
      "insertBefore(uint256,uint256,bytes32)": {
        "details": "Insert a new Object before the Object denoted by `_id` with `_price` in the data field."
      },
      "remove(uint256)": {
        "details": "Remove the Object denoted by `_id` from the List."
      }
    },
    "title": "LinkedList",
    "version": 1
  },
  "userdoc": {
    "kind": "user",
    "methods": {},
    "version": 1
  }
}