{
  "contractName": "Queue",
  "abi": [
    {
      "inputs": [],
      "stateMutability": "nonpayable",
      "type": "constructor"
    },
    {
      "anonymous": false,
      "inputs": [
        {
          "indexed": false,
          "internalType": "uint256",
          "name": "id",
          "type": "uint256"
        }
      ],
      "name": "NewHead",
      "type": "event"
    },
    {
      "anonymous": false,
      "inputs": [
        {
          "indexed": false,
          "internalType": "uint256",
          "name": "id",
          "type": "uint256"
        },
        {
          "indexed": false,
          "internalType": "uint256",
          "name": "price",
          "type": "uint256"
        },
        {
          "indexed": false,
          "internalType": "bytes32",
          "name": "validationHash",
          "type": "bytes32"
        }
      ],
      "name": "ObjectCreated",
      "type": "event"
    },
    {
      "anonymous": false,
      "inputs": [
        {
          "indexed": false,
          "internalType": "uint256",
          "name": "id",
          "type": "uint256"
        }
      ],
      "name": "ObjectRemoved",
      "type": "event"
    },
    {
      "anonymous": false,
      "inputs": [
        {
          "indexed": false,
          "internalType": "uint256",
          "name": "prev",
          "type": "uint256"
        },
        {
          "indexed": false,
          "internalType": "uint256",
          "name": "next",
          "type": "uint256"
        }
      ],
      "name": "ObjectsLinked",
      "type": "event"
    },
    {
      "inputs": [],
      "name": "head",
      "outputs": [
        {
          "internalType": "uint256",
          "name": "",
          "type": "uint256"
        }
      ],
      "stateMutability": "view",
      "type": "function"
    },
    {
      "inputs": [],
      "name": "idCounter",
      "outputs": [
        {
          "internalType": "uint256",
          "name": "",
          "type": "uint256"
        }
      ],
      "stateMutability": "view",
      "type": "function"
    },
    {
      "inputs": [
        {
          "internalType": "uint256",
          "name": "",
          "type": "uint256"
        }
      ],
      "name": "objects",
      "outputs": [
        {
          "internalType": "uint256",
          "name": "id",
          "type": "uint256"
        },
        {
          "internalType": "uint256",
          "name": "next",
          "type": "uint256"
        },
        {
          "internalType": "uint256",
          "name": "price",
          "type": "uint256"
        },
        {
          "internalType": "bytes32",
          "name": "validationHash",
          "type": "bytes32"
        },
        {
          "internalType": "bool",
          "name": "executed",
          "type": "bool"
        }
      ],
      "stateMutability": "view",
      "type": "function"
    },
    {
      "inputs": [],
      "name": "queueCount",
      "outputs": [
        {
          "internalType": "uint256",
          "name": "",
          "type": "uint256"
        }
      ],
      "stateMutability": "view",
      "type": "function"
    },
    {
      "inputs": [
        {
          "internalType": "uint256",
          "name": "_id",
          "type": "uint256"
        }
      ],
      "name": "get",
      "outputs": [
        {
          "internalType": "uint256",
          "name": "id",
          "type": "uint256"
        },
        {
          "internalType": "uint256",
          "name": "next",
          "type": "uint256"
        },
        {
          "internalType": "uint256",
          "name": "price",
          "type": "uint256"
        },
        {
          "internalType": "bytes32",
          "name": "validationHash",
          "type": "bytes32"
        },
        {
          "internalType": "bool",
          "name": "executed",
          "type": "bool"
        }
      ],
      "stateMutability": "view",
      "type": "function"
    },
    {
      "inputs": [
        {
          "internalType": "uint256",
          "name": "_id",
          "type": "uint256"
        }
      ],
      "name": "findPrevId",
      "outputs": [
        {
          "internalType": "uint256",
          "name": "",
          "type": "uint256"
        }
      ],
      "stateMutability": "view",
      "type": "function"
    },
    {
      "inputs": [],
      "name": "findTailId",
      "outputs": [
        {
          "internalType": "uint256",
          "name": "",
          "type": "uint256"
        }
      ],
      "stateMutability": "view",
      "type": "function"
    },
    {
      "inputs": [
        {
          "internalType": "uint256",
          "name": "_price",
          "type": "uint256"
        }
      ],
      "name": "findIdForData",
      "outputs": [
        {
          "internalType": "uint256",
          "name": "",
          "type": "uint256"
        }
      ],
      "stateMutability": "view",
      "type": "function"
    },
    {
      "inputs": [
        {
          "internalType": "bytes32",
          "name": "_validationHash",
          "type": "bytes32"
        }
      ],
      "name": "findIdForValidationHash",
      "outputs": [
        {
          "internalType": "uint256",
          "name": "",
          "type": "uint256"
        }
      ],
      "stateMutability": "view",
      "type": "function"
    },
    {
      "inputs": [
        {
          "internalType": "uint256",
          "name": "_price",
          "type": "uint256"
        }
      ],
      "name": "findIdForLesserPrice",
      "outputs": [
        {
          "internalType": "uint256",
          "name": "",
          "type": "uint256"
        }
      ],
      "stateMutability": "view",
      "type": "function"
    },
    {
      "inputs": [
        {
          "internalType": "uint256",
          "name": "_price",
          "type": "uint256"
        },
        {
          "internalType": "bytes32",
          "name": "_validationHash",
          "type": "bytes32"
        }
      ],
      "name": "addToQueue",
      "outputs": [],
      "stateMutability": "nonpayable",
      "type": "function"
    },
    {
      "inputs": [
        {
          "internalType": "bytes32",
          "name": "_lastValidationHash",
          "type": "bytes32"
        }
      ],
      "name": "getValidationToVote",
      "outputs": [
        {
          "internalType": "bytes32",
          "name": "",
          "type": "bytes32"
        }
      ],
      "stateMutability": "view",
      "type": "function"
    },
    {
      "inputs": [],
      "name": "getNextValidationToVote",
      "outputs": [
        {
          "internalType": "bytes32",
          "name": "validationHash",
          "type": "bytes32"
        }
      ],
      "stateMutability": "view",
      "type": "function"
    },
    {
      "inputs": [],
      "name": "getValidationToProcess",
      "outputs": [
        {
          "internalType": "bytes32",
          "name": "",
          "type": "bytes32"
        }
      ],
      "stateMutability": "view",
      "type": "function"
    },
    {
      "inputs": [
        {
          "internalType": "bytes32",
          "name": "_lastValidationHash",
          "type": "bytes32"
        }
      ],
      "name": "getValidationToProcess",
      "outputs": [
        {
          "internalType": "bytes32",
          "name": "validationHash",
          "type": "bytes32"
        }
      ],
      "stateMutability": "view",
      "type": "function"
    },
    {
      "inputs": [],
      "name": "getNextValidation",
      "outputs": [
        {
          "internalType": "bytes32",
          "name": "",
          "type": "bytes32"
        }
      ],
      "stateMutability": "view",
      "type": "function"
    },
    {
      "inputs": [
        {
          "internalType": "bytes32",
          "name": "_valHash",
          "type": "bytes32"
        }
      ],
      "name": "removeFromQueue",
      "outputs": [],
      "stateMutability": "nonpayable",
      "type": "function"
    },
    {
      "inputs": [
        {
          "internalType": "bytes32",
          "name": "_valHash",
          "type": "bytes32"
        }
      ],
      "name": "setValidatedFlag",
      "outputs": [],
      "stateMutability": "nonpayable",
      "type": "function"
    },
    {
      "inputs": [],
      "name": "returnQueueSize",
      "outputs": [
        {
          "internalType": "uint256",
          "name": "",
          "type": "uint256"
        }
      ],
      "stateMutability": "view",
      "type": "function"
    },
    {
      "inputs": [
        {
          "internalType": "uint256",
          "name": "newPrice",
          "type": "uint256"
        },
        {
          "internalType": "bytes32",
          "name": "_valHash",
          "type": "bytes32"
        }
      ],
      "name": "replaceTransaction",
      "outputs": [],
      "stateMutability": "nonpayable",
      "type": "function"
    },
    {
      "inputs": [
        {
          "internalType": "bytes32",
          "name": "_valHash",
          "type": "bytes32"
        }
      ],
      "name": "cancelTransaction",
      "outputs": [],
      "stateMutability": "nonpayable",
      "type": "function"
    }
  ],
  "bytecode": "0x608060405234801561001057600080fd5b5060008081905550600180819055506113808061002e6000396000f3fe608060405234801561001057600080fd5b50600436106101375760003560e01c80639507d39a116100b8578063d01d7a841161007c578063d01d7a8414610354578063d4d7675414610372578063eb08ab28146103a2578063ed175850146103c0578063f7c15fc8146103f4578063fad9fdd51461041057610137565b80639507d39a146102845780639ef36bd1146102b8578063aed14267146102d6578063b771cf9b14610306578063cd48e3b91461032457610137565b80636b2b3594116100ff5780636b2b3594146101de57806370ba3339146101fc5780637108614a146102185780638f7dcfa3146102365780639057e6051461025457610137565b80633412a8b31461013c57806335fda3ae14610158578063469d7c4a14610174578063479d95751461019257806348792674146101c2575b600080fd5b610156600480360381019061015191906110b2565b610440565b005b610172600480360381019061016d9190611060565b610457565b005b61017c610497565b604051610189919061111b565b60405180910390f35b6101ac60048036038101906101a79190611089565b6104b2565b6040516101b99190611136565b60405180910390f35b6101dc60048036038101906101d79190611060565b6105d7565b005b6101e66105f1565b6040516101f39190611136565b60405180910390f35b61021660048036038101906102119190611060565b6105fb565b005b610220610607565b60405161022d9190611136565b60405180910390f35b61023e6106f2565b60405161024b9190611136565b60405180910390f35b61026e60048036038101906102699190611089565b6106f8565b60405161027b9190611136565b60405180910390f35b61029e60048036038101906102999190611089565b6107e4565b6040516102af9594939291906111b1565b60405180910390f35b6102c061087d565b6040516102cd9190611136565b60405180910390f35b6102f060048036038101906102eb9190611060565b610883565b6040516102fd919061111b565b60405180910390f35b61030e6108fe565b60405161031b919061111b565b60405180910390f35b61033e60048036038101906103399190611089565b610955565b60405161034b9190611136565b60405180910390f35b61035c610a41565b604051610369919061111b565b60405180910390f35b61038c60048036038101906103879190611060565b610a5c565b604051610399919061111b565b60405180910390f35b6103aa610ab8565b6040516103b79190611136565b60405180910390f35b6103da60048036038101906103d59190611089565b610abe565b6040516103eb9594939291906111b1565b60405180910390f35b61040e600480360381019061040991906110b2565b610b01565b005b61042a60048036038101906104259190611060565b610b36565b6040516104379190611136565b60405180910390f35b610449816105d7565b6104538282610b01565b5050565b600061046282610b36565b905060016003600083815260200190815260200160002060040160006101000a81548160ff0219169083151502179055505050565b6000806104a56000546107e4565b5093505050508091505090565b600080548214156104c657600090506105d2565b600060019050600060036000805481526020019081526020016000206040518060a0016040529081600082015481526020016001820154815260200160028201548152602001600382015481526020016004820160009054906101000a900460ff16151515158152505090505b8381602001511415801561054957506002548211155b156105c85760036000826020015181526020019081526020016000206040518060a0016040529081600082015481526020016001820154815260200160028201548152602001600382015481526020016004820160009054906101000a900460ff161515151581525050905081806105c0906112a4565b925050610533565b8060000151925050505b919050565b60006105e282610b36565b90506105ed81610c5f565b5050565b6000600254905090565b610604816105d7565b50565b60008060036000805481526020019081526020016000206040518060a0016040529081600082015481526020016001820154815260200160028201548152602001600382015481526020016004820160009054906101000a900460ff16151515158152505090505b60008160200151146106e75760036000826020015181526020019081526020016000206040518060a0016040529081600082015481526020016001820154815260200160028201548152602001600382015481526020016004820160009054906101000a900460ff161515151581525050905061066f565b806000015191505090565b60005481565b60008060036000805481526020019081526020016000206040518060a0016040529081600082015481526020016001820154815260200160028201548152602001600382015481526020016004820160009054906101000a900460ff16151515158152505090505b828160400151146107d75760036000826020015181526020019081526020016000206040518060a0016040529081600082015481526020016001820154815260200160028201548152602001600382015481526020016004820160009054906101000a900460ff1615151515815250509050610760565b8060000151915050919050565b600080600080600080600360008881526020019081526020016000206040518060a0016040529081600082015481526020016001820154815260200160028201548152602001600382015481526020016004820160009054906101000a900460ff161515151581525050905080600001518160200151826040015183606001518460800151955095509550955095505091939590929450565b60025481565b60008061088f83610b36565b9050600061089c826107e4565b50505091505060006003600083815260200190815260200160002060040160009054906101000a900460ff16156108ec576108d6826107e4565b90919293509091925090915050809150506108f3565b6000801b90505b809350505050919050565b6000600360008054815260200190815260200160002060040160009054906101000a900460ff161561094b576109356000546107e4565b9091929350909192509091505080915050610952565b6000801b90505b90565b60008060036000805481526020019081526020016000206040518060a0016040529081600082015481526020016001820154815260200160028201548152602001600382015481526020016004820160009054906101000a900460ff16151515158152505090505b82816040015110610a345760036000826020015181526020019081526020016000206040518060a0016040529081600082015481526020016001820154815260200160028201548152602001600382015481526020016004820160009054906101000a900460ff16151515158152505090506109bd565b8060000151915050919050565b600080610a4f6000546107e4565b5093505050508091505090565b600080610a6883610b36565b90506000610a75826107e4565b5050509150506000811415610a8f576000801b9250610ab0565b610a98816107e4565b90919293509091925090915050809350505050610ab3565b50505b919050565b60015481565b60036020528060005260406000206000915090508060000154908060010154908060020154908060030154908060040160009054906101000a900460ff16905085565b6000610b0c83610955565b9050610b19818484610d9e565b60026000815480929190610b2c906112a4565b9190505550505050565b60008060036000805481526020019081526020016000206040518060a0016040529081600082015481526020016001820154815260200160028201548152602001600382015481526020016004820160009054906101000a900460ff16151515158152505090506000600190505b83826060015114158015610bba57506002548111155b15610c395760036000836020015181526020019081526020016000206040518060a0016040529081600082015481526020016001820154815260200160028201548152602001600382015481526020016004820160009054906101000a900460ff16151515158152505091508080610c31906112a4565b915050610ba4565b8382606001511415610c5357816000015192505050610c5a565b6000925050505b919050565b6000600360008381526020019081526020016000206040518060a0016040529081600082015481526020016001820154815260200160028201548152602001600382015481526020016004820160009054906101000a900460ff1615151515815250509050816000541415610ce057610cdb8160200151610dd6565b610cfd565b6000610ceb836104b2565b9050610cfb818360200151610e17565b505b60036000826000015181526020019081526020016000206000808201600090556001820160009055600282016000905560038201600090556004820160006101000a81549060ff0219169055505060026000815480929190610d5e9061127a565b91905055507fe1919cab237081e04a387d81704c769f832679b068e9b87b1d6a27eb5102b95682604051610d929190611136565b60405180910390a15050565b600054831415610db757610db28282610e6f565b610dd1565b6000610dc2846104b2565b9050610dcf818484610e97565b505b505050565b806000819055507f58b81d35330cc08b909b14dbf5bcf7c3e769206cd0be7dd65e76e95a815439e181604051610e0c9190611136565b60405180910390a150565b8060036000848152602001908152602001600020600101819055507fbe1f66c94cc2553f09c996e2153854d4b74a747e3c2648161fb8daa3bfe983028282604051610e63929190611151565b60405180910390a15050565b6000610e7b8383610f2d565b9050610e8981600054610e17565b610e9281610dd6565b505050565b6000600360008581526020019081526020016000206040518060a0016040529081600082015481526020016001820154815260200160028201548152602001600382015481526020016004820160009054906101000a900460ff16151515158152505090506000610f088484610f2d565b9050610f18818360200151610e17565b610f26826000015182610e17565b5050505050565b60008060015490506001806000828254610f479190611204565b9250508190555060006040518060a00160405280838152602001600081526020018681526020018581526020016000151581525090508060036000836000015181526020019081526020016000206000820151816000015560208201518160010155604082015181600201556060820151816003015560808201518160040160006101000a81548160ff0219169083151502179055509050507fae3fa14712358fd14ea9daaa663953bb097578df220e6c81d698b842db789f2f81600001518260400151836060015160405161101f9392919061117a565b60405180910390a180600001519250505092915050565b6000813590506110458161131c565b92915050565b60008135905061105a81611333565b92915050565b60006020828403121561107257600080fd5b600061108084828501611036565b91505092915050565b60006020828403121561109b57600080fd5b60006110a98482850161104b565b91505092915050565b600080604083850312156110c557600080fd5b60006110d38582860161104b565b92505060206110e485828601611036565b9150509250929050565b6110f78161125a565b82525050565b61110681611266565b82525050565b61111581611270565b82525050565b600060208201905061113060008301846110fd565b92915050565b600060208201905061114b600083018461110c565b92915050565b6000604082019050611166600083018561110c565b611173602083018461110c565b9392505050565b600060608201905061118f600083018661110c565b61119c602083018561110c565b6111a960408301846110fd565b949350505050565b600060a0820190506111c6600083018861110c565b6111d3602083018761110c565b6111e0604083018661110c565b6111ed60608301856110fd565b6111fa60808301846110ee565b9695505050505050565b600061120f82611270565b915061121a83611270565b9250827fffffffffffffffffffffffffffffffffffffffffffffffffffffffffffffffff0382111561124f5761124e6112ed565b5b828201905092915050565b60008115159050919050565b6000819050919050565b6000819050919050565b600061128582611270565b91506000821415611299576112986112ed565b5b600182039050919050565b60006112af82611270565b91507fffffffffffffffffffffffffffffffffffffffffffffffffffffffffffffffff8214156112e2576112e16112ed565b5b600182019050919050565b7f4e487b7100000000000000000000000000000000000000000000000000000000600052601160045260246000fd5b61132581611266565b811461133057600080fd5b50565b61133c81611270565b811461134757600080fd5b5056fea26469706673582212207303a3737a2e0340bb1a16647e2ac56c86471319e606175cb95fc674e162613e64736f6c63430008000033",
  "immutableReferences": {},
  "source": "pragma solidity =0.8.0;\n// SPDX-License-Identifier: MIT\n\n\n\n/**\n * @title LinkedList\n * @dev Data structure\n * @author Alberto Cuesta Caada\n */\ncontract Queue {\n\n    event ObjectCreated(uint256 id, uint256 price, bytes32 validationHash);\n    event ObjectsLinked(uint256 prev, uint256 next);\n    event ObjectRemoved(uint256 id);\n    event NewHead(uint256 id);\n\n    struct Object{\n        uint256 id;\n        uint256 next;\n        uint256 price;\n        bytes32 validationHash;\n        bool executed;\n    }\n\n    uint256 public head;\n    uint256 public idCounter;\n    uint256 public queueCount;\n    mapping (uint256 => Object) public objects;\n\n    /**\n     * @dev Creates an empty list.\n     */\n    constructor() {\n        head = 0;\n        idCounter = 1;\n    }\n\n    // event queueAdded(uint256 value, bytes32 hashValue);\n\n    /**\n     * @dev Retrieves the Object denoted by `_id`.\n     */\n    function get(uint256 _id)\n        public\n        virtual\n        view\n        returns (uint256 id, uint256 next, uint256 price, bytes32 validationHash, bool executed)\n    {\n        Object memory object = objects[_id];\n        return (object.id, object.next, object.price, object.validationHash, object.executed);\n    }\n\n    /**\n     * @dev Given an Object, denoted by `_id`, returns the id of the Object that points to it, or 0 if `_id` refers to the Head.\n     */\n    function findPrevId(uint256 _id)\n        public\n        virtual\n        view\n        returns (uint256)\n    {\n        if (_id == head) return 0;\n        uint256 count=1;\n        Object memory prevObject = objects[head];\n        while (prevObject.next != _id && count <= queueCount) {\n            prevObject = objects[prevObject.next];\n            count++;\n        }\n        return prevObject.id;\n    }\n\n    /**\n     * @dev Returns the id for the Tail.\n     */\n    function findTailId()\n        public\n        virtual\n        view\n        returns (uint256)\n    {\n        Object memory oldTailObject = objects[head];\n        while (oldTailObject.next != 0) {\n            oldTailObject = objects[oldTailObject.next];    \n        }\n        return oldTailObject.id;\n    }\n\n    /**\n     * @dev Return the id of the first Object matching `_price` in the data field.\n     */\n    function findIdForData(uint256 _price)\n        public\n        virtual\n        view\n        returns (uint256)\n    {\n        Object memory object = objects[head];\n        while (object.price != _price) {\n            object = objects[object.next];\n        }\n        return object.id;\n    }\n\n    function findIdForValidationHash(bytes32 _validationHash)public view returns (uint256) {\n        Object memory object = objects[head];\n        uint256 count=1;\n\n            while (object.validationHash != _validationHash && count <= queueCount) {\n                object = objects[object.next];\n                count++;\n            }\n\n            if (object.validationHash == _validationHash)\n                return object.id;\n            else \n                return 0;\n    }\n\n    /**\n     * @dev Return the id of the first Object matching `_price` in the data field.\n     */\n    function findIdForLesserPrice(uint256 _price)\n        public\n        virtual\n        view\n        returns (uint256)\n    {\n        Object memory object = objects[head];\n        while (object.price >= _price) {\n            object = objects[object.next];\n        }\n        return object.id;\n    }\n\n    /**\n     * @dev Insert a new Object as the new Head with `_price` in the data field.\n     */\n    function addHead(uint256 _price, bytes32 _validationHash)\n        internal\n        virtual\n    {\n        uint256 objectId = _createObject(_price, _validationHash);\n        _link(objectId, head);\n        _setHead(objectId);\n    }\n\n    /**\n     * @dev Insert a new Object as the new Tail with `_price` in the data field.\n     */\n    function addTail(uint256 _price, bytes32 _validationHash)\n        internal\n        virtual\n    {\n        if (head == 0) {\n            addHead(_price, _validationHash);\n        }\n        else {\n            uint256 oldTailId = findTailId();\n            uint256 newTailId = _createObject(_price, _validationHash);\n            _link(oldTailId, newTailId);\n        }\n    }\n\n    /**\n     * @dev Remove the Object denoted by `_id` from the List.\n     */\n    function remove(uint256 _id)\n        internal\n        virtual\n    {\n        Object memory removeObject = objects[_id];\n        if (head == _id) {\n            _setHead(removeObject.next);\n        }\n        else {\n            uint256 prevObjectId = findPrevId(_id);\n            _link(prevObjectId, removeObject.next);\n        }\n        delete objects[removeObject.id];\n        queueCount--;\n        emit ObjectRemoved(_id);\n    }\n\n    /**\n     * @dev Insert a new Object after the Object denoted by `_id` with `_price` in the data field.\n     */\n    function insertAfter(uint256 _prevId, uint256 _price, bytes32 validationHash)\n        internal\n        virtual\n    {\n        Object memory prevObject = objects[_prevId];\n        uint256 newObjectId = _createObject(_price, validationHash);\n        _link(newObjectId, prevObject.next);\n        _link(prevObject.id, newObjectId);\n    }\n\n    /**\n     * @dev Insert a new Object before the Object denoted by `_id` with `_price` in the data field.\n     */\n    function insertBefore(uint256 _nextId, uint256 _price, bytes32 validatioHash)\n        internal\n        virtual\n    {\n        if (_nextId == head) {\n            addHead(_price, validatioHash);\n        }\n        else {\n            uint256 prevId = findPrevId(_nextId);\n            insertAfter(prevId, _price, validatioHash);\n        }\n    }\n\n    /**\n     * @dev Internal function to update the Head pointer.\n     */\n    function _setHead(uint256 _id)\n        internal\n    {\n        head = _id;\n        emit NewHead(_id);\n    }\n\n    /**\n     * @dev Internal function to create an unlinked Object.\n     */\n    function _createObject(uint256 _price, bytes32 _validationHash)\n        internal\n        returns (uint256)\n    {\n        uint256 newId = idCounter;\n        idCounter += 1;\n        \n        Object memory object = Object(newId, 0, _price, _validationHash, false);\n        objects[object.id] = object;\n        emit ObjectCreated(\n            object.id,\n            object.price,\n            object.validationHash\n        );\n        return object.id;\n    }\n\n    /**\n     * @dev Internal function to link an Object to another.\n     */\n    function _link(uint256 _prevId, uint256 _nextId)\n        internal\n    {\n        objects[_prevId].next = _nextId;\n        emit ObjectsLinked(_prevId, _nextId);\n    }\n\n\n    function addToQueue(uint256 _price, bytes32 _validationHash) public {\n        \n\n       uint256 id = findIdForLesserPrice(_price);\n       insertBefore(id, _price, _validationHash);\n       queueCount++;\n    //    emit queueAdded(_price, _validationHash);\n\n    }\n\n    function getValidationToProcess() public view returns (bytes32) {\n\n\n            (,,,bytes32 validationHash,) =   get(head);\n        \n        return validationHash;\n    }\n\n    function getValidationToVote(bytes32 _lastValidationHash) public view returns (bytes32) {\n\n        uint256 id = findIdForValidationHash(_lastValidationHash);\n        (,uint256 prevId,,,) = get(id);\n\n        bytes32 validationHash;\n\n            if (objects[prevId].executed){\n                (,,,validationHash,) =   get(prevId);\n            } else\n                validationHash =  0x0;\n\n        \n        return validationHash;\n    }\n\n\n    function getNextValidationToVote() public view returns(bytes32 validationHash) {\n\n        if (objects[head].executed){\n                (,,,validationHash,) =   get(head);\n            } else\n                validationHash =  0x0;\n        return validationHash;\n    }\n\n    function getValidationToProcess(bytes32 _lastValidationHash) public view returns(bytes32 validationHash) {\n\n\n        uint256 id = findIdForValidationHash(_lastValidationHash);\n        (,uint256 prevId,,,) = get(id);\n\n        if (prevId == 0)\n            validationHash = 0x0;\n        else{\n            (,,,validationHash,) =   get(prevId);\n            return validationHash;\n        }\n    }\n\n    function getNextValidation() public view returns(bytes32) {\n\n        (,,,bytes32 validationHash,) = get(head);\n        return validationHash;\n    }\n\n\n\n    function removeFromQueue(bytes32 _valHash) public {\n        uint256 id = findIdForValidationHash(_valHash);\n        remove(id);\n       \n    }\n\n    function setValidatedFlag(bytes32 _valHash) public {\n\n        uint256 id = findIdForValidationHash(_valHash);\n        objects[id].executed = true;\n    }\n\n    function returnQueueSize() public view returns(uint256) {\n        return queueCount;\n    }\n\n    function replaceTransaction(uint256 newPrice, bytes32 _valHash) public {\n        removeFromQueue(_valHash);\n        addToQueue(newPrice, _valHash); \n    }\n\n    function cancelTransaction(bytes32 _valHash) public {\n\n        removeFromQueue(_valHash);\n\n    }\n\n\n}",
  "sourcePath": "/home/win2win/eth/projects/AuditChain/Core-Smart-Contracts-v1/contracts/Auditchain/Queue.sol",
  "compiler": {
    "name": "solc",
    "version": "0.8.0+commit.c7dfd78e.Emscripten.clang"
  },
  "schemaVersion": "3.4.1",
  "updatedAt": "2022-04-13T20:33:05.849Z",
  "devdoc": {
    "author": "Alberto Cuesta Caada",
    "details": "Data structure",
    "kind": "dev",
    "methods": {
      "constructor": {
        "details": "Creates an empty list."
      },
      "findIdForData(uint256)": {
        "details": "Return the id of the first Object matching `_price` in the data field."
      },
      "findIdForLesserPrice(uint256)": {
        "details": "Return the id of the first Object matching `_price` in the data field."
      },
      "findPrevId(uint256)": {
        "details": "Given an Object, denoted by `_id`, returns the id of the Object that points to it, or 0 if `_id` refers to the Head."
      },
      "findTailId()": {
        "details": "Returns the id for the Tail."
      },
      "get(uint256)": {
        "details": "Retrieves the Object denoted by `_id`."
      }
    },
    "title": "LinkedList",
    "version": 1
  },
  "userdoc": {
    "kind": "user",
    "methods": {},
    "version": 1
  }
}