{
  "contractName": "RulesERC721Token",
  "abi": [
    {
      "inputs": [
        {
          "internalType": "string",
          "name": "_name",
          "type": "string"
        },
        {
          "internalType": "string",
          "name": "_symbol",
          "type": "string"
        },
        {
          "internalType": "address",
          "name": "_cohort",
          "type": "address"
        }
      ],
      "stateMutability": "nonpayable",
      "type": "constructor"
    },
    {
      "anonymous": false,
      "inputs": [
        {
          "indexed": true,
          "internalType": "address",
          "name": "owner",
          "type": "address"
        },
        {
          "indexed": true,
          "internalType": "address",
          "name": "approved",
          "type": "address"
        },
        {
          "indexed": true,
          "internalType": "uint256",
          "name": "tokenId",
          "type": "uint256"
        }
      ],
      "name": "Approval",
      "type": "event"
    },
    {
      "anonymous": false,
      "inputs": [
        {
          "indexed": true,
          "internalType": "address",
          "name": "owner",
          "type": "address"
        },
        {
          "indexed": true,
          "internalType": "address",
          "name": "operator",
          "type": "address"
        },
        {
          "indexed": false,
          "internalType": "bool",
          "name": "approved",
          "type": "bool"
        }
      ],
      "name": "ApprovalForAll",
      "type": "event"
    },
    {
      "anonymous": false,
      "inputs": [
        {
          "indexed": false,
          "internalType": "uint256",
          "name": "tokenId",
          "type": "uint256"
        },
        {
          "indexed": false,
          "internalType": "address",
          "name": "recipient",
          "type": "address"
        }
      ],
      "name": "Mint",
      "type": "event"
    },
    {
      "anonymous": false,
      "inputs": [
        {
          "indexed": true,
          "internalType": "address",
          "name": "from",
          "type": "address"
        },
        {
          "indexed": true,
          "internalType": "address",
          "name": "to",
          "type": "address"
        },
        {
          "indexed": true,
          "internalType": "uint256",
          "name": "tokenId",
          "type": "uint256"
        }
      ],
      "name": "Transfer",
      "type": "event"
    },
    {
      "inputs": [
        {
          "internalType": "bytes32",
          "name": "",
          "type": "bytes32"
        }
      ],
      "name": "NFTCompleted",
      "outputs": [
        {
          "internalType": "bool",
          "name": "",
          "type": "bool"
        }
      ],
      "stateMutability": "view",
      "type": "function",
      "constant": true
    },
    {
      "inputs": [
        {
          "internalType": "address",
          "name": "to",
          "type": "address"
        },
        {
          "internalType": "uint256",
          "name": "tokenId",
          "type": "uint256"
        }
      ],
      "name": "approve",
      "outputs": [],
      "stateMutability": "nonpayable",
      "type": "function"
    },
    {
      "inputs": [
        {
          "internalType": "address",
          "name": "owner",
          "type": "address"
        }
      ],
      "name": "balanceOf",
      "outputs": [
        {
          "internalType": "uint256",
          "name": "",
          "type": "uint256"
        }
      ],
      "stateMutability": "view",
      "type": "function",
      "constant": true
    },
    {
      "inputs": [
        {
          "internalType": "uint256",
          "name": "tokenId",
          "type": "uint256"
        }
      ],
      "name": "getApproved",
      "outputs": [
        {
          "internalType": "address",
          "name": "",
          "type": "address"
        }
      ],
      "stateMutability": "view",
      "type": "function",
      "constant": true
    },
    {
      "inputs": [
        {
          "internalType": "address",
          "name": "owner",
          "type": "address"
        },
        {
          "internalType": "address",
          "name": "operator",
          "type": "address"
        }
      ],
      "name": "isApprovedForAll",
      "outputs": [
        {
          "internalType": "bool",
          "name": "",
          "type": "bool"
        }
      ],
      "stateMutability": "view",
      "type": "function",
      "constant": true
    },
    {
      "inputs": [],
      "name": "name",
      "outputs": [
        {
          "internalType": "string",
          "name": "",
          "type": "string"
        }
      ],
      "stateMutability": "view",
      "type": "function",
      "constant": true
    },
    {
      "inputs": [
        {
          "internalType": "uint256",
          "name": "tokenId",
          "type": "uint256"
        }
      ],
      "name": "ownerOf",
      "outputs": [
        {
          "internalType": "address",
          "name": "",
          "type": "address"
        }
      ],
      "stateMutability": "view",
      "type": "function",
      "constant": true
    },
    {
      "inputs": [
        {
          "internalType": "address",
          "name": "from",
          "type": "address"
        },
        {
          "internalType": "address",
          "name": "to",
          "type": "address"
        },
        {
          "internalType": "uint256",
          "name": "tokenId",
          "type": "uint256"
        }
      ],
      "name": "safeTransferFrom",
      "outputs": [],
      "stateMutability": "nonpayable",
      "type": "function"
    },
    {
      "inputs": [
        {
          "internalType": "address",
          "name": "from",
          "type": "address"
        },
        {
          "internalType": "address",
          "name": "to",
          "type": "address"
        },
        {
          "internalType": "uint256",
          "name": "tokenId",
          "type": "uint256"
        },
        {
          "internalType": "bytes",
          "name": "_data",
          "type": "bytes"
        }
      ],
      "name": "safeTransferFrom",
      "outputs": [],
      "stateMutability": "nonpayable",
      "type": "function"
    },
    {
      "inputs": [
        {
          "internalType": "address",
          "name": "operator",
          "type": "address"
        },
        {
          "internalType": "bool",
          "name": "approved",
          "type": "bool"
        }
      ],
      "name": "setApprovalForAll",
      "outputs": [],
      "stateMutability": "nonpayable",
      "type": "function"
    },
    {
      "inputs": [],
      "name": "symbol",
      "outputs": [
        {
          "internalType": "string",
          "name": "",
          "type": "string"
        }
      ],
      "stateMutability": "view",
      "type": "function",
      "constant": true
    },
    {
      "inputs": [
        {
          "internalType": "uint256",
          "name": "index",
          "type": "uint256"
        }
      ],
      "name": "tokenByIndex",
      "outputs": [
        {
          "internalType": "uint256",
          "name": "",
          "type": "uint256"
        }
      ],
      "stateMutability": "view",
      "type": "function",
      "constant": true
    },
    {
      "inputs": [
        {
          "internalType": "address",
          "name": "owner",
          "type": "address"
        },
        {
          "internalType": "uint256",
          "name": "index",
          "type": "uint256"
        }
      ],
      "name": "tokenOfOwnerByIndex",
      "outputs": [
        {
          "internalType": "uint256",
          "name": "",
          "type": "uint256"
        }
      ],
      "stateMutability": "view",
      "type": "function",
      "constant": true
    },
    {
      "inputs": [],
      "name": "totalSupply",
      "outputs": [
        {
          "internalType": "uint256",
          "name": "",
          "type": "uint256"
        }
      ],
      "stateMutability": "view",
      "type": "function",
      "constant": true
    },
    {
      "inputs": [
        {
          "internalType": "address",
          "name": "from",
          "type": "address"
        },
        {
          "internalType": "address",
          "name": "to",
          "type": "address"
        },
        {
          "internalType": "uint256",
          "name": "tokenId",
          "type": "uint256"
        }
      ],
      "name": "transferFrom",
      "outputs": [],
      "stateMutability": "nonpayable",
      "type": "function"
    },
    {
      "inputs": [
        {
          "internalType": "uint256",
          "name": "tokenId",
          "type": "uint256"
        }
      ],
      "name": "tokenURI",
      "outputs": [
        {
          "internalType": "string",
          "name": "",
          "type": "string"
        }
      ],
      "stateMutability": "view",
      "type": "function",
      "constant": true
    },
    {
      "inputs": [
        {
          "internalType": "bytes4",
          "name": "interfaceId",
          "type": "bytes4"
        }
      ],
      "name": "supportsInterface",
      "outputs": [
        {
          "internalType": "bool",
          "name": "",
          "type": "bool"
        }
      ],
      "stateMutability": "view",
      "type": "function",
      "constant": true
    },
    {
      "inputs": [
        {
          "internalType": "bytes32",
          "name": "_hash",
          "type": "bytes32"
        }
      ],
      "name": "mintTo",
      "outputs": [
        {
          "internalType": "uint256",
          "name": "",
          "type": "uint256"
        }
      ],
      "stateMutability": "nonpayable",
      "type": "function"
    },
    {
      "inputs": [
        {
          "internalType": "address",
          "name": "user",
          "type": "address"
        },
        {
          "internalType": "string",
          "name": "url",
          "type": "string"
        }
      ],
      "name": "mintToPure",
      "outputs": [
        {
          "internalType": "uint256",
          "name": "",
          "type": "uint256"
        }
      ],
      "stateMutability": "nonpayable",
      "type": "function"
    }
  ],
  "bytecode": "0x60806040523480156200001157600080fd5b5060405162003f8638038062003f868339818101604052810190620000379190620001f0565b8282816000908051906020019062000051929190620000b7565b5080600190805190602001906200006a929190620000b7565b50505080600b60006101000a81548173ffffffffffffffffffffffffffffffffffffffff021916908373ffffffffffffffffffffffffffffffffffffffff160217905550505050620003f7565b828054620000c59062000349565b90600052602060002090601f016020900481019282620000e9576000855562000135565b82601f106200010457805160ff191683800117855562000135565b8280016001018555821562000135579182015b828111156200013457825182559160200191906001019062000117565b5b50905062000144919062000148565b5090565b5b808211156200016357600081600090555060010162000149565b5090565b60006200017e6200017884620002ac565b62000278565b9050828152602081018484840111156200019757600080fd5b620001a484828562000313565b509392505050565b600081519050620001bd81620003dd565b92915050565b600082601f830112620001d557600080fd5b8151620001e784826020860162000167565b91505092915050565b6000806000606084860312156200020657600080fd5b600084015167ffffffffffffffff8111156200022157600080fd5b6200022f86828701620001c3565b935050602084015167ffffffffffffffff8111156200024d57600080fd5b6200025b86828701620001c3565b92505060406200026e86828701620001ac565b9150509250925092565b6000604051905081810181811067ffffffffffffffff82111715620002a257620002a1620003ae565b5b8060405250919050565b600067ffffffffffffffff821115620002ca57620002c9620003ae565b5b601f19601f8301169050602081019050919050565b6000620002ec82620002f3565b9050919050565b600073ffffffffffffffffffffffffffffffffffffffff82169050919050565b60005b838110156200033357808201518184015260208101905062000316565b8381111562000343576000848401525b50505050565b600060028204905060018216806200036257607f821691505b602082108114156200037957620003786200037f565b5b50919050565b7f4e487b7100000000000000000000000000000000000000000000000000000000600052602260045260246000fd5b7f4e487b7100000000000000000000000000000000000000000000000000000000600052604160045260246000fd5b620003e881620002df565b8114620003f457600080fd5b50565b613b7f80620004076000396000f3fe608060405234801561001057600080fd5b50600436106101215760003560e01c80636352211e116100ad578063a22cb46511610071578063a22cb46514610354578063b88d4fde14610370578063c87b56dd1461038c578063e985e9c5146103bc578063f5622dda146103ec57610121565b80636352211e1461027657806365b0bce0146102a657806370a08231146102d6578063923326461461030657806395d89b411461033657610121565b806318160ddd116100f457806318160ddd146101c057806323b872dd146101de5780632f745c59146101fa57806342842e0e1461022a5780634f6ccce71461024657610121565b806301ffc9a71461012657806306fdde0314610156578063081812fc14610174578063095ea7b3146101a4575b600080fd5b610140600480360381019061013b919061291a565b61041c565b60405161014d9190613377565b60405180910390f35b61015e61042e565b60405161016b91906133ad565b60405180910390f35b61018e6004803603810190610189919061296c565b6104c0565b60405161019b9190613310565b60405180910390f35b6101be60048036038101906101b991906127ad565b610545565b005b6101c861065d565b6040516101d5919061368f565b60405180910390f35b6101f860048036038101906101f39190612653565b61066a565b005b610214600480360381019061020f91906127ad565b6106ca565b604051610221919061368f565b60405180910390f35b610244600480360381019061023f9190612653565b61076f565b005b610260600480360381019061025b919061296c565b61078f565b60405161026d919061368f565b60405180910390f35b610290600480360381019061028b919061296c565b610826565b60405161029d9190613310565b60405180910390f35b6102c060048036038101906102bb9190612759565b6108d8565b6040516102cd919061368f565b60405180910390f35b6102f060048036038101906102eb91906125ee565b610903565b6040516102fd919061368f565b60405180910390f35b610320600480360381019061031b91906128f1565b6109bb565b60405161032d919061368f565b60405180910390f35b61033e610c6b565b60405161034b91906133ad565b60405180910390f35b61036e6004803603810190610369919061271d565b610cfd565b005b61038a600480360381019061038591906126a2565b610d13565b005b6103a660048036038101906103a1919061296c565b610d75565b6040516103b391906133ad565b60405180910390f35b6103d660048036038101906103d19190612617565b610d87565b6040516103e39190613377565b60405180910390f35b610406600480360381019061040191906128f1565b610e1b565b6040516104139190613377565b60405180910390f35b600061042782610e3b565b9050919050565b60606000805461043d90613936565b80601f016020809104026020016040519081016040528092919081815260200182805461046990613936565b80156104b65780601f1061048b576101008083540402835291602001916104b6565b820191906000526020600020905b81548152906001019060200180831161049957829003601f168201915b5050505050905090565b60006104cb82610eb5565b61050a576040517f08c379a00000000000000000000000000000000000000000000000000000000081526004016105019061356f565b60405180910390fd5b6004600083815260200190815260200160002060009054906101000a900473ffffffffffffffffffffffffffffffffffffffff169050919050565b600061055082610826565b90508073ffffffffffffffffffffffffffffffffffffffff168373ffffffffffffffffffffffffffffffffffffffff1614156105c1576040517f08c379a00000000000000000000000000000000000000000000000000000000081526004016105b8906135cf565b60405180910390fd5b8073ffffffffffffffffffffffffffffffffffffffff166105e0610f21565b73ffffffffffffffffffffffffffffffffffffffff16148061060f575061060e81610609610f21565b610d87565b5b61064e576040517f08c379a0000000000000000000000000000000000000000000000000000000008152600401610645906134af565b60405180910390fd5b6106588383610f29565b505050565b6000600980549050905090565b61067b610675610f21565b82610fe2565b6106ba576040517f08c379a00000000000000000000000000000000000000000000000000000000081526004016106b1906135ef565b60405180910390fd5b6106c58383836110c0565b505050565b60006106d583610903565b8210610716576040517f08c379a000000000000000000000000000000000000000000000000000000000815260040161070d906133cf565b60405180910390fd5b600760008473ffffffffffffffffffffffffffffffffffffffff1673ffffffffffffffffffffffffffffffffffffffff168152602001908152602001600020600083815260200190815260200160002054905092915050565b61078a83838360405180602001604052806000815250610d13565b505050565b600061079961065d565b82106107da576040517f08c379a00000000000000000000000000000000000000000000000000000000081526004016107d19061360f565b60405180910390fd5b60098281548110610814577f4e487b7100000000000000000000000000000000000000000000000000000000600052603260045260246000fd5b90600052602060002001549050919050565b6000806002600084815260200190815260200160002060009054906101000a900473ffffffffffffffffffffffffffffffffffffffff169050600073ffffffffffffffffffffffffffffffffffffffff168173ffffffffffffffffffffffffffffffffffffffff1614156108cf576040517f08c379a00000000000000000000000000000000000000000000000000000000081526004016108c6906134ef565b60405180910390fd5b80915050919050565b6000806108e361131c565b90506108ef848261133e565b6108f9818461135c565b8091505092915050565b60008073ffffffffffffffffffffffffffffffffffffffff168273ffffffffffffffffffffffffffffffffffffffff161415610974576040517f08c379a000000000000000000000000000000000000000000000000000000000815260040161096b906134cf565b60405180910390fd5b600360008373ffffffffffffffffffffffffffffffffffffffff1673ffffffffffffffffffffffffffffffffffffffff168152602001908152602001600020549050919050565b6000806000806000600b60009054906101000a900473ffffffffffffffffffffffffffffffffffffffff1673ffffffffffffffffffffffffffffffffffffffff1663e28c3802876040518263ffffffff1660e01b8152600401610a1e9190613392565b60006040518083038186803b158015610a3657600080fd5b505afa158015610a4a573d6000803e3d6000fd5b505050506040513d6000823e3d601f19601f82011682018060405250810190610a7391906127e9565b505050505095509550955050945050600073ffffffffffffffffffffffffffffffffffffffff168473ffffffffffffffffffffffffffffffffffffffff161415610af2576040517f08c379a0000000000000000000000000000000000000000000000000000000008152600401610ae99061366f565b60405180910390fd5b60008311610b35576040517f08c379a0000000000000000000000000000000000000000000000000000000008152600401610b2c9061362f565b60405180910390fd5b60018114610b78576040517f08c379a0000000000000000000000000000000000000000000000000000000008152600401610b6f9061364f565b60405180910390fd5b600c600087815260200190815260200160002060009054906101000a900460ff1615610bd9576040517f08c379a0000000000000000000000000000000000000000000000000000000008152600401610bd09061346f565b60405180910390fd5b6000610be361131c565b90506001600c600089815260200190815260200160002060006101000a81548160ff021916908315150217905550610c1b858261133e565b610c25818461135c565b7ff3cea5493d790af0133817606f7350a91d7f154ea52eaa79d179d4d231e501028186604051610c569291906136aa565b60405180910390a18095505050505050919050565b606060018054610c7a90613936565b80601f0160208091040260200160405190810160405280929190818152602001828054610ca690613936565b8015610cf35780601f10610cc857610100808354040283529160200191610cf3565b820191906000526020600020905b815481529060010190602001808311610cd657829003601f168201915b5050505050905090565b610d0f610d08610f21565b83836113d0565b5050565b610d24610d1e610f21565b83610fe2565b610d63576040517f08c379a0000000000000000000000000000000000000000000000000000000008152600401610d5a906135ef565b60405180910390fd5b610d6f8484848461153d565b50505050565b6060610d8082611599565b9050919050565b6000600560008473ffffffffffffffffffffffffffffffffffffffff1673ffffffffffffffffffffffffffffffffffffffff16815260200190815260200160002060008373ffffffffffffffffffffffffffffffffffffffff1673ffffffffffffffffffffffffffffffffffffffff16815260200190815260200160002060009054906101000a900460ff16905092915050565b600c6020528060005260406000206000915054906101000a900460ff1681565b60007f780e9d63000000000000000000000000000000000000000000000000000000007bffffffffffffffffffffffffffffffffffffffffffffffffffffffff1916827bffffffffffffffffffffffffffffffffffffffffffffffffffffffff19161480610eae5750610ead826116eb565b5b9050919050565b60008073ffffffffffffffffffffffffffffffffffffffff166002600084815260200190815260200160002060009054906101000a900473ffffffffffffffffffffffffffffffffffffffff1673ffffffffffffffffffffffffffffffffffffffff1614159050919050565b600033905090565b816004600083815260200190815260200160002060006101000a81548173ffffffffffffffffffffffffffffffffffffffff021916908373ffffffffffffffffffffffffffffffffffffffff160217905550808273ffffffffffffffffffffffffffffffffffffffff16610f9c83610826565b73ffffffffffffffffffffffffffffffffffffffff167f8c5be1e5ebec7d5bd14f71427d1e84f3dd0314c0f7b2291e5b200ac8c7c3b92560405160405180910390a45050565b6000610fed82610eb5565b61102c576040517f08c379a00000000000000000000000000000000000000000000000000000000081526004016110239061348f565b60405180910390fd5b600061103783610826565b90508073ffffffffffffffffffffffffffffffffffffffff168473ffffffffffffffffffffffffffffffffffffffff1614806110a657508373ffffffffffffffffffffffffffffffffffffffff1661108e846104c0565b73ffffffffffffffffffffffffffffffffffffffff16145b806110b757506110b68185610d87565b5b91505092915050565b8273ffffffffffffffffffffffffffffffffffffffff166110e082610826565b73ffffffffffffffffffffffffffffffffffffffff1614611136576040517f08c379a000000000000000000000000000000000000000000000000000000000815260040161112d9061358f565b60405180910390fd5b600073ffffffffffffffffffffffffffffffffffffffff168273ffffffffffffffffffffffffffffffffffffffff1614156111a6576040517f08c379a000000000000000000000000000000000000000000000000000000000815260040161119d9061342f565b60405180910390fd5b6111b18383836117cd565b6111bc600082610f29565b6001600360008573ffffffffffffffffffffffffffffffffffffffff1673ffffffffffffffffffffffffffffffffffffffff168152602001908152602001600020600082825461120c919061382e565b925050819055506001600360008473ffffffffffffffffffffffffffffffffffffffff1673ffffffffffffffffffffffffffffffffffffffff168152602001908152602001600020600082825461126391906137a7565b92505081905550816002600083815260200190815260200160002060006101000a81548173ffffffffffffffffffffffffffffffffffffffff021916908373ffffffffffffffffffffffffffffffffffffffff160217905550808273ffffffffffffffffffffffffffffffffffffffff168473ffffffffffffffffffffffffffffffffffffffff167fddf252ad1be2c89b69c2b068fc378daa952ba7f163c4a11628f55a4df523b3ef60405160405180910390a4505050565b6000611339600161132b61065d565b6117dd90919063ffffffff16565b905090565b6113588282604051806020016040528060008152506117f3565b5050565b61136582610eb5565b6113a4576040517f08c379a000000000000000000000000000000000000000000000000000000000815260040161139b9061350f565b60405180910390fd5b806006600084815260200190815260200160002090805190602001906113cb92919061232c565b505050565b8173ffffffffffffffffffffffffffffffffffffffff168373ffffffffffffffffffffffffffffffffffffffff16141561143f576040517f08c379a00000000000000000000000000000000000000000000000000000000081526004016114369061344f565b60405180910390fd5b80600560008573ffffffffffffffffffffffffffffffffffffffff1673ffffffffffffffffffffffffffffffffffffffff16815260200190815260200160002060008473ffffffffffffffffffffffffffffffffffffffff1673ffffffffffffffffffffffffffffffffffffffff16815260200190815260200160002060006101000a81548160ff0219169083151502179055508173ffffffffffffffffffffffffffffffffffffffff168373ffffffffffffffffffffffffffffffffffffffff167f17307eab39ab6107e8899845ad3d59bd9653f200f220920489ca2b5937696c31836040516115309190613377565b60405180910390a3505050565b6115488484846110c0565b6115548484848461184e565b611593576040517f08c379a000000000000000000000000000000000000000000000000000000000815260040161158a906133ef565b60405180910390fd5b50505050565b60606115a482610eb5565b6115e3576040517f08c379a00000000000000000000000000000000000000000000000000000000081526004016115da9061354f565b60405180910390fd5b600060066000848152602001908152602001600020805461160390613936565b80601f016020809104026020016040519081016040528092919081815260200182805461162f90613936565b801561167c5780601f106116515761010080835404028352916020019161167c565b820191906000526020600020905b81548152906001019060200180831161165f57829003601f168201915b50505050509050600061168d6119e5565b90506000815114156116a35781925050506116e6565b6000825111156116d85780826040516020016116c09291906132ec565b604051602081830303815290604052925050506116e6565b6116e1846119fc565b925050505b919050565b60007f80ac58cd000000000000000000000000000000000000000000000000000000007bffffffffffffffffffffffffffffffffffffffffffffffffffffffff1916827bffffffffffffffffffffffffffffffffffffffffffffffffffffffff191614806117b657507f5b5e139f000000000000000000000000000000000000000000000000000000007bffffffffffffffffffffffffffffffffffffffffffffffffffffffff1916827bffffffffffffffffffffffffffffffffffffffffffffffffffffffff1916145b806117c657506117c582611aa3565b5b9050919050565b6117d8838383611b0d565b505050565b600081836117eb91906137a7565b905092915050565b6117fd8383611c21565b61180a600084848461184e565b611849576040517f08c379a0000000000000000000000000000000000000000000000000000000008152600401611840906133ef565b60405180910390fd5b505050565b600061186f8473ffffffffffffffffffffffffffffffffffffffff16611def565b156119d8578373ffffffffffffffffffffffffffffffffffffffff1663150b7a02611898610f21565b8786866040518563ffffffff1660e01b81526004016118ba949392919061332b565b602060405180830381600087803b1580156118d457600080fd5b505af192505050801561190557506040513d601f19601f820116820180604052508101906119029190612943565b60015b611988573d8060008114611935576040519150601f19603f3d011682016040523d82523d6000602084013e61193a565b606091505b50600081511415611980576040517f08c379a0000000000000000000000000000000000000000000000000000000008152600401611977906133ef565b60405180910390fd5b805181602001fd5b63150b7a0260e01b7bffffffffffffffffffffffffffffffffffffffffffffffffffffffff1916817bffffffffffffffffffffffffffffffffffffffffffffffffffffffff1916149150506119dd565b600190505b949350505050565b606060405180602001604052806000815250905090565b6060611a0782610eb5565b611a46576040517f08c379a0000000000000000000000000000000000000000000000000000000008152600401611a3d906135af565b60405180910390fd5b6000611a506119e5565b90506000815111611a705760405180602001604052806000815250611a9b565b80611a7a84611e02565b604051602001611a8b9291906132ec565b6040516020818303038152906040525b915050919050565b60007f01ffc9a7000000000000000000000000000000000000000000000000000000007bffffffffffffffffffffffffffffffffffffffffffffffffffffffff1916827bffffffffffffffffffffffffffffffffffffffffffffffffffffffff1916149050919050565b611b18838383611faf565b600073ffffffffffffffffffffffffffffffffffffffff168373ffffffffffffffffffffffffffffffffffffffff161415611b5b57611b5681611fb4565b611b9a565b8173ffffffffffffffffffffffffffffffffffffffff168373ffffffffffffffffffffffffffffffffffffffff1614611b9957611b988382611ffd565b5b5b600073ffffffffffffffffffffffffffffffffffffffff168273ffffffffffffffffffffffffffffffffffffffff161415611bdd57611bd88161216a565b611c1c565b8273ffffffffffffffffffffffffffffffffffffffff168273ffffffffffffffffffffffffffffffffffffffff1614611c1b57611c1a82826122ad565b5b5b505050565b600073ffffffffffffffffffffffffffffffffffffffff168273ffffffffffffffffffffffffffffffffffffffff161415611c91576040517f08c379a0000000000000000000000000000000000000000000000000000000008152600401611c889061352f565b60405180910390fd5b611c9a81610eb5565b15611cda576040517f08c379a0000000000000000000000000000000000000000000000000000000008152600401611cd19061340f565b60405180910390fd5b611ce6600083836117cd565b6001600360008473ffffffffffffffffffffffffffffffffffffffff1673ffffffffffffffffffffffffffffffffffffffff1681526020019081526020016000206000828254611d3691906137a7565b92505081905550816002600083815260200190815260200160002060006101000a81548173ffffffffffffffffffffffffffffffffffffffff021916908373ffffffffffffffffffffffffffffffffffffffff160217905550808273ffffffffffffffffffffffffffffffffffffffff16600073ffffffffffffffffffffffffffffffffffffffff167fddf252ad1be2c89b69c2b068fc378daa952ba7f163c4a11628f55a4df523b3ef60405160405180910390a45050565b600080823b905060008111915050919050565b60606000821415611e4a576040518060400160405280600181526020017f30000000000000000000000000000000000000000000000000000000000000008152509050611faa565b600082905060005b60008214611e7c578080611e6590613968565b915050600a82611e7591906137fd565b9150611e52565b60008167ffffffffffffffff811115611ebe577f4e487b7100000000000000000000000000000000000000000000000000000000600052604160045260246000fd5b6040519080825280601f01601f191660200182016040528015611ef05781602001600182028036833780820191505090505b5090505b60008514611fa357600182611f09919061382e565b9150600a85611f1891906139b1565b6030611f2491906137a7565b60f81b818381518110611f60577f4e487b7100000000000000000000000000000000000000000000000000000000600052603260045260246000fd5b60200101907effffffffffffffffffffffffffffffffffffffffffffffffffffffffffffff1916908160001a905350600a85611f9c91906137fd565b9450611ef4565b8093505050505b919050565b505050565b600980549050600a600083815260200190815260200160002081905550600981908060018154018082558091505060019003906000526020600020016000909190919091505550565b6000600161200a84610903565b612014919061382e565b90506000600860008481526020019081526020016000205490508181146120f9576000600760008673ffffffffffffffffffffffffffffffffffffffff1673ffffffffffffffffffffffffffffffffffffffff168152602001908152602001600020600084815260200190815260200160002054905080600760008773ffffffffffffffffffffffffffffffffffffffff1673ffffffffffffffffffffffffffffffffffffffff168152602001908152602001600020600084815260200190815260200160002081905550816008600083815260200190815260200160002081905550505b6008600084815260200190815260200160002060009055600760008573ffffffffffffffffffffffffffffffffffffffff1673ffffffffffffffffffffffffffffffffffffffff16815260200190815260200160002060008381526020019081526020016000206000905550505050565b6000600160098054905061217e919061382e565b90506000600a60008481526020019081526020016000205490506000600983815481106121d4577f4e487b7100000000000000000000000000000000000000000000000000000000600052603260045260246000fd5b90600052602060002001549050806009838154811061221c577f4e487b7100000000000000000000000000000000000000000000000000000000600052603260045260246000fd5b906000526020600020018190555081600a600083815260200190815260200160002081905550600a6000858152602001908152602001600020600090556009805480612291577f4e487b7100000000000000000000000000000000000000000000000000000000600052603160045260246000fd5b6001900381819060005260206000200160009055905550505050565b60006122b883610903565b905081600760008573ffffffffffffffffffffffffffffffffffffffff1673ffffffffffffffffffffffffffffffffffffffff168152602001908152602001600020600083815260200190815260200160002081905550806008600084815260200190815260200160002081905550505050565b82805461233890613936565b90600052602060002090601f01602090048101928261235a57600085556123a1565b82601f1061237357805160ff19168380011785556123a1565b828001600101855582156123a1579182015b828111156123a0578251825591602001919060010190612385565b5b5090506123ae91906123b2565b5090565b5b808211156123cb5760008160009055506001016123b3565b5090565b60006123e26123dd84613704565b6136d3565b9050828152602081018484840111156123fa57600080fd5b6124058482856138f4565b509392505050565b600061242061241b84613734565b6136d3565b90508281526020810184848401111561243857600080fd5b6124438482856138f4565b509392505050565b600061245e61245984613734565b6136d3565b90508281526020810184848401111561247657600080fd5b612481848285613903565b509392505050565b60008135905061249881613aaf565b92915050565b6000815190506124ad81613aaf565b92915050565b6000813590506124c281613ac6565b92915050565b6000815190506124d781613ac6565b92915050565b6000813590506124ec81613add565b92915050565b60008135905061250181613af4565b92915050565b60008151905061251681613af4565b92915050565b600082601f83011261252d57600080fd5b813561253d8482602086016123cf565b91505092915050565b60008151905061255581613b0b565b92915050565b600082601f83011261256c57600080fd5b813561257c84826020860161240d565b91505092915050565b600082601f83011261259657600080fd5b81516125a684826020860161244b565b91505092915050565b6000813590506125be81613b1b565b92915050565b6000815190506125d381613b1b565b92915050565b6000815190506125e881613b32565b92915050565b60006020828403121561260057600080fd5b600061260e84828501612489565b91505092915050565b6000806040838503121561262a57600080fd5b600061263885828601612489565b925050602061264985828601612489565b9150509250929050565b60008060006060848603121561266857600080fd5b600061267686828701612489565b935050602061268786828701612489565b9250506040612698868287016125af565b9150509250925092565b600080600080608085870312156126b857600080fd5b60006126c687828801612489565b94505060206126d787828801612489565b93505060406126e8878288016125af565b925050606085013567ffffffffffffffff81111561270557600080fd5b6127118782880161251c565b91505092959194509250565b6000806040838503121561273057600080fd5b600061273e85828601612489565b925050602061274f858286016124b3565b9150509250929050565b6000806040838503121561276c57600080fd5b600061277a85828601612489565b925050602083013567ffffffffffffffff81111561279757600080fd5b6127a38582860161255b565b9150509250929050565b600080604083850312156127c057600080fd5b60006127ce85828601612489565b92505060206127df858286016125af565b9150509250929050565b60008060008060008060008060008060006101608c8e03121561280b57600080fd5b60006128198e828f016124c8565b9b5050602061282a8e828f0161249e565b9a5050604061283b8e828f016125c4565b995050606061284c8e828f016125c4565b98505060808c015167ffffffffffffffff81111561286957600080fd5b6128758e828f01612585565b97505060a06128868e828f016125c4565b96505060c06128978e828f016125c4565b95505060e06128a88e828f01612546565b9450506101006128ba8e828f016125d9565b9350506101206128cc8e828f0161249e565b9250506101406128de8e828f016125c4565b9150509295989b509295989b9093969950565b60006020828403121561290357600080fd5b6000612911848285016124dd565b91505092915050565b60006020828403121561292c57600080fd5b600061293a848285016124f2565b91505092915050565b60006020828403121561295557600080fd5b600061296384828501612507565b91505092915050565b60006020828403121561297e57600080fd5b600061298c848285016125af565b91505092915050565b61299e81613862565b82525050565b6129ad81613874565b82525050565b6129bc81613880565b82525050565b60006129cd82613764565b6129d7818561377a565b93506129e7818560208601613903565b6129f081613a9e565b840191505092915050565b6000612a068261376f565b612a10818561378b565b9350612a20818560208601613903565b612a2981613a9e565b840191505092915050565b6000612a3f8261376f565b612a49818561379c565b9350612a59818560208601613903565b80840191505092915050565b6000612a72602b8361378b565b91507f455243373231456e756d657261626c653a206f776e657220696e646578206f7560008301527f74206f6620626f756e64730000000000000000000000000000000000000000006020830152604082019050919050565b6000612ad860328361378b565b91507f4552433732313a207472616e7366657220746f206e6f6e20455243373231526560008301527f63656976657220696d706c656d656e74657200000000000000000000000000006020830152604082019050919050565b6000612b3e601c8361378b565b91507f4552433732313a20746f6b656e20616c7265616479206d696e746564000000006000830152602082019050919050565b6000612b7e60248361378b565b91507f4552433732313a207472616e7366657220746f20746865207a65726f2061646460008301527f72657373000000000000000000000000000000000000000000000000000000006020830152604082019050919050565b6000612be460198361378b565b91507f4552433732313a20617070726f766520746f2063616c6c6572000000000000006000830152602082019050919050565b6000612c24603e8361378b565b91507f52756c6573455243373231546f6b656e3a6d696e74546f20202d20546869732060008301527f746f6b656e20686173206265656e20616c726561647920636c61696d656400006020830152604082019050919050565b6000612c8a602c8361378b565b91507f4552433732313a206f70657261746f7220717565727920666f72206e6f6e657860008301527f697374656e7420746f6b656e00000000000000000000000000000000000000006020830152604082019050919050565b6000612cf060388361378b565b91507f4552433732313a20617070726f76652063616c6c6572206973206e6f74206f7760008301527f6e6572206e6f7220617070726f76656420666f7220616c6c00000000000000006020830152604082019050919050565b6000612d56602a8361378b565b91507f4552433732313a2062616c616e636520717565727920666f7220746865207a6560008301527f726f2061646472657373000000000000000000000000000000000000000000006020830152604082019050919050565b6000612dbc60298361378b565b91507f4552433732313a206f776e657220717565727920666f72206e6f6e657869737460008301527f656e7420746f6b656e00000000000000000000000000000000000000000000006020830152604082019050919050565b6000612e22602e8361378b565b91507f45524337323155524953746f726167653a2055524920736574206f66206e6f6e60008301527f6578697374656e7420746f6b656e0000000000000000000000000000000000006020830152604082019050919050565b6000612e8860208361378b565b91507f4552433732313a206d696e7420746f20746865207a65726f20616464726573736000830152602082019050919050565b6000612ec860318361378b565b91507f45524337323155524953746f726167653a2055524920717565727920666f722060008301527f6e6f6e6578697374656e7420746f6b656e0000000000000000000000000000006020830152604082019050919050565b6000612f2e602c8361378b565b91507f4552433732313a20617070726f76656420717565727920666f72206e6f6e657860008301527f697374656e7420746f6b656e00000000000000000000000000000000000000006020830152604082019050919050565b6000612f9460298361378b565b91507f4552433732313a207472616e73666572206f6620746f6b656e2074686174206960008301527f73206e6f74206f776e00000000000000000000000000000000000000000000006020830152604082019050919050565b6000612ffa602f8361378b565b91507f4552433732314d657461646174613a2055524920717565727920666f72206e6f60008301527f6e6578697374656e7420746f6b656e00000000000000000000000000000000006020830152604082019050919050565b600061306060218361378b565b91507f4552433732313a20617070726f76616c20746f2063757272656e74206f776e6560008301527f72000000000000000000000000000000000000000000000000000000000000006020830152604082019050919050565b60006130c660318361378b565b91507f4552433732313a207472616e736665722063616c6c6572206973206e6f74206f60008301527f776e6572206e6f7220617070726f7665640000000000000000000000000000006020830152604082019050919050565b600061312c602c8361378b565b91507f455243373231456e756d657261626c653a20676c6f62616c20696e646578206f60008301527f7574206f6620626f756e647300000000000000000000000000000000000000006020830152604082019050919050565b6000613192603c8361378b565b91507f52756c6573455243373231546f6b656e3a6d696e74546f202d2054686973207260008301527f756c65206861736e2774206265656e20617070726f76656420796574000000006020830152604082019050919050565b60006131f860498361378b565b91507f52756c6573455243373231546f6b656e3a6d696e74546f202d2054686973207260008301527f756c65206861736e27742072656365697665642073756666696369656e74207160208301527f756f72756d2079657400000000000000000000000000000000000000000000006040830152606082019050919050565b600061328460368361378b565b91507f52756c6573455243373231546f6b656e3a6d696e74546f202d2052656369706960008301527f656e7420616464726573732063616e27742062652030000000000000000000006020830152604082019050919050565b6132e6816138d6565b82525050565b60006132f88285612a34565b91506133048284612a34565b91508190509392505050565b60006020820190506133256000830184612995565b92915050565b60006080820190506133406000830187612995565b61334d6020830186612995565b61335a60408301856132dd565b818103606083015261336c81846129c2565b905095945050505050565b600060208201905061338c60008301846129a4565b92915050565b60006020820190506133a760008301846129b3565b92915050565b600060208201905081810360008301526133c781846129fb565b905092915050565b600060208201905081810360008301526133e881612a65565b9050919050565b6000602082019050818103600083015261340881612acb565b9050919050565b6000602082019050818103600083015261342881612b31565b9050919050565b6000602082019050818103600083015261344881612b71565b9050919050565b6000602082019050818103600083015261346881612bd7565b9050919050565b6000602082019050818103600083015261348881612c17565b9050919050565b600060208201905081810360008301526134a881612c7d565b9050919050565b600060208201905081810360008301526134c881612ce3565b9050919050565b600060208201905081810360008301526134e881612d49565b9050919050565b6000602082019050818103600083015261350881612daf565b9050919050565b6000602082019050818103600083015261352881612e15565b9050919050565b6000602082019050818103600083015261354881612e7b565b9050919050565b6000602082019050818103600083015261356881612ebb565b9050919050565b6000602082019050818103600083015261358881612f21565b9050919050565b600060208201905081810360008301526135a881612f87565b9050919050565b600060208201905081810360008301526135c881612fed565b9050919050565b600060208201905081810360008301526135e881613053565b9050919050565b60006020820190508181036000830152613608816130b9565b9050919050565b600060208201905081810360008301526136288161311f565b9050919050565b6000602082019050818103600083015261364881613185565b9050919050565b60006020820190508181036000830152613668816131eb565b9050919050565b6000602082019050818103600083015261368881613277565b9050919050565b60006020820190506136a460008301846132dd565b92915050565b60006040820190506136bf60008301856132dd565b6136cc6020830184612995565b9392505050565b6000604051905081810181811067ffffffffffffffff821117156136fa576136f9613a6f565b5b8060405250919050565b600067ffffffffffffffff82111561371f5761371e613a6f565b5b601f19601f8301169050602081019050919050565b600067ffffffffffffffff82111561374f5761374e613a6f565b5b601f19601f8301169050602081019050919050565b600081519050919050565b600081519050919050565b600082825260208201905092915050565b600082825260208201905092915050565b600081905092915050565b60006137b2826138d6565b91506137bd836138d6565b9250827fffffffffffffffffffffffffffffffffffffffffffffffffffffffffffffffff038211156137f2576137f16139e2565b5b828201905092915050565b6000613808826138d6565b9150613813836138d6565b92508261382357613822613a11565b5b828204905092915050565b6000613839826138d6565b9150613844836138d6565b925082821015613857576138566139e2565b5b828203905092915050565b600061386d826138b6565b9050919050565b60008115159050919050565b6000819050919050565b60007fffffffff0000000000000000000000000000000000000000000000000000000082169050919050565b600073ffffffffffffffffffffffffffffffffffffffff82169050919050565b6000819050919050565b600067ffffffffffffffff82169050919050565b82818337600083830152505050565b60005b83811015613921578082015181840152602081019050613906565b83811115613930576000848401525b50505050565b6000600282049050600182168061394e57607f821691505b6020821081141561396257613961613a40565b5b50919050565b6000613973826138d6565b91507fffffffffffffffffffffffffffffffffffffffffffffffffffffffffffffffff8214156139a6576139a56139e2565b5b600182019050919050565b60006139bc826138d6565b91506139c7836138d6565b9250826139d7576139d6613a11565b5b828206905092915050565b7f4e487b7100000000000000000000000000000000000000000000000000000000600052601160045260246000fd5b7f4e487b7100000000000000000000000000000000000000000000000000000000600052601260045260246000fd5b7f4e487b7100000000000000000000000000000000000000000000000000000000600052602260045260246000fd5b7f4e487b7100000000000000000000000000000000000000000000000000000000600052604160045260246000fd5b6000601f19601f8301169050919050565b613ab881613862565b8114613ac357600080fd5b50565b613acf81613874565b8114613ada57600080fd5b50565b613ae681613880565b8114613af157600080fd5b50565b613afd8161388a565b8114613b0857600080fd5b50565b60078110613b1857600080fd5b50565b613b24816138d6565b8114613b2f57600080fd5b50565b613b3b816138e0565b8114613b4657600080fd5b5056fea2646970667358221220f9b85831c192cfb5d87af5c6e6acdf77fc1ad00ee657438cc67cd7584a9333d164736f6c63430008000033",
  "immutableReferences": {},
  "source": "// SPDX-License-Identifier: MIT\npragma solidity =0.8.0;\n\nimport \"@openzeppelin/contracts/token/ERC721/ERC721.sol\";\n\nimport \"@openzeppelin/contracts/token/ERC721/extensions/ERC721Enumerable.sol\";\nimport \"@openzeppelin/contracts/token/ERC721/extensions/ERC721URIStorage.sol\";\nimport \"@openzeppelin/contracts/utils/math/SafeMath.sol\";\nimport \"../Auditchain/ValidationsCohort.sol\";\n\n\n\n/**\n * @title RulesERC721Token\n * RulesERC721Token - ERC721 contract that and has minting functionality.\n */\ncontract RulesERC721Token is ERC721, ERC721URIStorage, ERC721Enumerable\n{\n    using SafeMath for uint256;\n    ValidationsCohort cohort;\n\n    mapping(bytes32 => bool) public NFTCompleted;\n    event Mint(uint256 tokenId, address recipient);\n\n    function tokenURI(uint256 tokenId) public view virtual override(ERC721URIStorage, ERC721) returns (string memory) {\n       \n        return super.tokenURI(tokenId);\n    }\n     \n    function _beforeTokenTransfer(address from, address to, uint256 tokenId) internal virtual override(ERC721Enumerable, ERC721) {\n        super._beforeTokenTransfer(from, to, tokenId);\n    }\n\n\n    function supportsInterface(bytes4 interfaceId) public view virtual override(ERC721Enumerable, ERC721) returns (bool) {\n       return super.supportsInterface(interfaceId);\n\n    }\n\n    function _burn(uint256 tokenId) internal virtual override(ERC721URIStorage, ERC721) {\n        super._burn(tokenId);\n    }\n\n\n    constructor(string memory _name, string memory _symbol, address _cohort)\n        ERC721(_name, _symbol)\n    {\n        cohort = ValidationsCohort(_cohort);\n        \n    }\n\n    /**\n     * @dev Mints a token to an enterprise/rule creator with a given validation hash and cohort\n     * @param _hash of the validated document\n     * @return newTokenId\n     */\n    function mintTo(bytes32 _hash)\n        public\n        returns (uint256)\n    {\n        (,address enterprise,, uint256 executionTime , string memory url, uint256 consensus, , , , , ) = cohort.validations(_hash);\n        require(enterprise != address(0), \"RulesERC721Token:mintTo - Recipient address can't be 0\");\n        require(executionTime > 0 , \"RulesERC721Token:mintTo - This rule hasn't been approved yet\");\n        require(consensus == 1,  \"RulesERC721Token:mintTo - This rule hasn't received sufficient quorum yet\");\n        require(!NFTCompleted[_hash], \"RulesERC721Token:mintTo  - This token has been already claimed\");\n        uint256 newTokenId = _getNextTokenId();\n        NFTCompleted[_hash] = true;\n        _safeMint(enterprise, newTokenId);\n        _setTokenURI(newTokenId, url);\n        emit Mint(newTokenId, enterprise);\n        return newTokenId;\n    }\n\n    function mintToPure(address user, string memory url) public returns (uint256) {\n\n        uint256 newTokenId = _getNextTokenId();\n\n        _safeMint(user, newTokenId);\n        _setTokenURI(newTokenId, url);\n        return newTokenId;\n\n    }\n\n    function _getNextTokenId() private view returns (uint256) {\n        return totalSupply().add(1);\n    }\n\n\n}\n",
  "sourcePath": "/home/win2win/eth/projects/AuditChain/Core-Smart-Contracts-v1/contracts/NFT/RulesERC721Token.sol",
  "compiler": {
    "name": "solc",
    "version": "0.8.0+commit.c7dfd78e.Emscripten.clang"
  },
  "schemaVersion": "3.4.1",
  "updatedAt": "2022-03-22T15:42:42.246Z",
  "networkType": "ethereum",
  "devdoc": {
    "kind": "dev",
    "methods": {
      "approve(address,uint256)": {
        "details": "See {IERC721-approve}."
      },
      "balanceOf(address)": {
        "details": "See {IERC721-balanceOf}."
      },
      "getApproved(uint256)": {
        "details": "See {IERC721-getApproved}."
      },
      "isApprovedForAll(address,address)": {
        "details": "See {IERC721-isApprovedForAll}."
      },
      "mintTo(bytes32)": {
        "details": "Mints a token to an enterprise/rule creator with a given validation hash and cohort",
        "params": {
          "_hash": "of the validated document"
        },
        "returns": {
          "_0": "newTokenId"
        }
      },
      "name()": {
        "details": "See {IERC721Metadata-name}."
      },
      "ownerOf(uint256)": {
        "details": "See {IERC721-ownerOf}."
      },
      "safeTransferFrom(address,address,uint256)": {
        "details": "See {IERC721-safeTransferFrom}."
      },
      "safeTransferFrom(address,address,uint256,bytes)": {
        "details": "See {IERC721-safeTransferFrom}."
      },
      "setApprovalForAll(address,bool)": {
        "details": "See {IERC721-setApprovalForAll}."
      },
      "symbol()": {
        "details": "See {IERC721Metadata-symbol}."
      },
      "tokenByIndex(uint256)": {
        "details": "See {IERC721Enumerable-tokenByIndex}."
      },
      "tokenOfOwnerByIndex(address,uint256)": {
        "details": "See {IERC721Enumerable-tokenOfOwnerByIndex}."
      },
      "totalSupply()": {
        "details": "See {IERC721Enumerable-totalSupply}."
      },
      "transferFrom(address,address,uint256)": {
        "details": "See {IERC721-transferFrom}."
      }
    },
    "title": "RulesERC721Token RulesERC721Token - ERC721 contract that and has minting functionality.",
    "version": 1
  },
  "userdoc": {
    "kind": "user",
    "methods": {},
    "version": 1
  }
}