{
  "contractName": "TestSetDelay",
  "abi": [
    {
      "inputs": [
        {
          "internalType": "uint256",
          "name": "_delay",
          "type": "uint256"
        }
      ],
      "stateMutability": "nonpayable",
      "type": "constructor"
    },
    {
      "inputs": [],
      "name": "delay",
      "outputs": [
        {
          "internalType": "uint256",
          "name": "",
          "type": "uint256"
        }
      ],
      "stateMutability": "view",
      "type": "function",
      "constant": true
    },
    {
      "inputs": [],
      "name": "newAddress",
      "outputs": [
        {
          "internalType": "address",
          "name": "",
          "type": "address"
        }
      ],
      "stateMutability": "view",
      "type": "function",
      "constant": true
    },
    {
      "inputs": [
        {
          "internalType": "address",
          "name": "t",
          "type": "address"
        },
        {
          "internalType": "uint256",
          "name": "delay_",
          "type": "uint256"
        }
      ],
      "name": "setDelay",
      "outputs": [],
      "stateMutability": "nonpayable",
      "type": "function"
    }
  ],
  "bytecode": "0x608060405234801561001057600080fd5b506040516101ef3803806101ef8339818101604052602081101561003357600080fd5b810190808051906020019092919050505080600081905550506101948061005b6000396000f3fe608060405234801561001057600080fd5b50600436106100415760003560e01c80636a42b8f8146100465780636d21e4e214610064578063ccdb3f45146100b2575b600080fd5b61004e6100e6565b6040518082815260200191505060405180910390f35b6100b06004803603604081101561007a57600080fd5b81019080803573ffffffffffffffffffffffffffffffffffffffff169060200190929190803590602001909291905050506100ec565b005b6100ba610138565b604051808273ffffffffffffffffffffffffffffffffffffffff16815260200191505060405180910390f35b60005481565b8060008190555081600160006101000a81548173ffffffffffffffffffffffffffffffffffffffff021916908373ffffffffffffffffffffffffffffffffffffffff1602179055505050565b600160009054906101000a900473ffffffffffffffffffffffffffffffffffffffff168156fea264697066735822122081e98836a464f1939dbd3437b417de7c3a9e5e96cad288141e7351b2562b11fc64736f6c63430007060033",
  "immutableReferences": {},
  "source": "// SPDX-License-Identifier: MIT\npragma solidity =0.7.6;\n\n\ncontract TestSetDelay {\n    \n    uint public delay;\n    address public newAddress;\n    \n    constructor(uint256 _delay){\n        delay = _delay;\n    }\n\n    function setDelay(address t, uint256 delay_) public  {\n       \n        delay = delay_;\n        newAddress = t;\n        // require(delay==1, \"\");\n              \n    }\n}\n",
  "sourcePath": "/home/bogdan/Ethereum/Projects/TGE/Core-Smart-Contracts-v1/contracts/Governance/TestSetDelay.sol",
  "compiler": {
    "name": "solc",
    "version": "0.7.6+commit.7338295f.Emscripten.clang"
  },
  "schemaVersion": "3.4.0",
  "updatedAt": "2021-04-27T20:37:25.391Z",
  "networkType": "ethereum",
  "devdoc": {
    "kind": "dev",
    "methods": {},
    "version": 1
  },
  "userdoc": {
    "kind": "user",
    "methods": {},
    "version": 1
  }
}