{
  "contractName": "ValidationsCohort",
  "abi": [
    {
      "inputs": [
        {
          "internalType": "address",
          "name": "_members",
          "type": "address"
        },
        {
          "internalType": "address",
          "name": "_memberHelpers",
          "type": "address"
        },
        {
          "internalType": "address",
          "name": "_cohortFactory",
          "type": "address"
        },
        {
          "internalType": "address",
          "name": "_depositModifiers",
          "type": "address"
        },
        {
          "internalType": "address",
          "name": "_nodeOperations",
          "type": "address"
        },
        {
          "internalType": "address",
          "name": "_validationHelpers",
          "type": "address"
        },
        {
          "internalType": "address",
          "name": "_queue",
          "type": "address"
        }
      ],
      "stateMutability": "nonpayable",
      "type": "constructor"
    },
    {
      "anonymous": false,
      "inputs": [
        {
          "indexed": false,
          "internalType": "bytes32",
          "name": "validationHash",
          "type": "bytes32"
        },
        {
          "indexed": false,
          "internalType": "address",
          "name": "winner",
          "type": "address"
        },
        {
          "indexed": false,
          "internalType": "uint256",
          "name": "pointsPlus",
          "type": "uint256"
        },
        {
          "indexed": false,
          "internalType": "uint256",
          "name": "pointsMinus",
          "type": "uint256"
        }
      ],
      "name": "PaymentProcessed",
      "type": "event"
    },
    {
      "anonymous": false,
      "inputs": [
        {
          "indexed": true,
          "internalType": "uint256",
          "name": "audits",
          "type": "uint256"
        },
        {
          "indexed": true,
          "internalType": "address",
          "name": "requestor",
          "type": "address"
        },
        {
          "indexed": true,
          "internalType": "bytes32",
          "name": "validationHash",
          "type": "bytes32"
        },
        {
          "indexed": false,
          "internalType": "bytes32",
          "name": "documentHash",
          "type": "bytes32"
        },
        {
          "indexed": false,
          "internalType": "uint256",
          "name": "consensus",
          "type": "uint256"
        },
        {
          "indexed": false,
          "internalType": "uint256",
          "name": "quorum",
          "type": "uint256"
        },
        {
          "indexed": false,
          "internalType": "uint256",
          "name": "timeExecuted",
          "type": "uint256"
        },
        {
          "indexed": false,
          "internalType": "string",
          "name": "url",
          "type": "string"
        },
        {
          "indexed": false,
          "internalType": "address[]",
          "name": "winners",
          "type": "address[]"
        }
      ],
      "name": "RequestExecuted",
      "type": "event"
    },
    {
      "anonymous": false,
      "inputs": [
        {
          "indexed": true,
          "internalType": "address",
          "name": "user",
          "type": "address"
        },
        {
          "indexed": true,
          "internalType": "bytes32",
          "name": "validationHash",
          "type": "bytes32"
        },
        {
          "indexed": false,
          "internalType": "uint256",
          "name": "initTime",
          "type": "uint256"
        },
        {
          "indexed": false,
          "internalType": "bytes32",
          "name": "documentHash",
          "type": "bytes32"
        },
        {
          "indexed": false,
          "internalType": "string",
          "name": "url",
          "type": "string"
        },
        {
          "indexed": true,
          "internalType": "enum Validations.AuditTypes",
          "name": "auditType",
          "type": "uint8"
        }
      ],
      "name": "ValidationInitialized",
      "type": "event"
    },
    {
      "anonymous": false,
      "inputs": [
        {
          "indexed": true,
          "internalType": "address",
          "name": "validator",
          "type": "address"
        },
        {
          "indexed": true,
          "internalType": "bytes32",
          "name": "documentHash",
          "type": "bytes32"
        },
        {
          "indexed": true,
          "internalType": "uint256",
          "name": "validationTime",
          "type": "uint256"
        },
        {
          "indexed": false,
          "internalType": "enum Validations.ValidationStatus",
          "name": "decision",
          "type": "uint8"
        },
        {
          "indexed": false,
          "internalType": "string",
          "name": "valUrl",
          "type": "string"
        }
      ],
      "name": "ValidatorValidated",
      "type": "event"
    },
    {
      "anonymous": false,
      "inputs": [
        {
          "indexed": false,
          "internalType": "address",
          "name": "validator",
          "type": "address"
        },
        {
          "indexed": false,
          "internalType": "address",
          "name": "winner",
          "type": "address"
        },
        {
          "indexed": false,
          "internalType": "bool",
          "name": "isValid",
          "type": "bool"
        }
      ],
      "name": "WinnerVoted",
      "type": "event"
    },
    {
      "inputs": [
        {
          "internalType": "uint256",
          "name": "",
          "type": "uint256"
        },
        {
          "internalType": "bytes32",
          "name": "",
          "type": "bytes32"
        }
      ],
      "name": "activeOperatorsStake",
      "outputs": [
        {
          "internalType": "uint256",
          "name": "",
          "type": "uint256"
        }
      ],
      "stateMutability": "view",
      "type": "function",
      "constant": true
    },
    {
      "inputs": [],
      "name": "audits",
      "outputs": [
        {
          "internalType": "enum Validations.AuditTypes",
          "name": "",
          "type": "uint8"
        }
      ],
      "stateMutability": "view",
      "type": "function",
      "constant": true
    },
    {
      "inputs": [],
      "name": "cohortFactory",
      "outputs": [
        {
          "internalType": "contract ICohortFactory",
          "name": "",
          "type": "address"
        }
      ],
      "stateMutability": "view",
      "type": "function",
      "constant": true
    },
    {
      "inputs": [
        {
          "internalType": "bytes32",
          "name": "validationHash",
          "type": "bytes32"
        }
      ],
      "name": "collectValidationResults",
      "outputs": [
        {
          "internalType": "address[]",
          "name": "",
          "type": "address[]"
        },
        {
          "internalType": "uint256[]",
          "name": "",
          "type": "uint256[]"
        },
        {
          "internalType": "uint256[]",
          "name": "",
          "type": "uint256[]"
        },
        {
          "internalType": "uint256[]",
          "name": "",
          "type": "uint256[]"
        },
        {
          "internalType": "string[]",
          "name": "",
          "type": "string[]"
        },
        {
          "internalType": "bytes32[]",
          "name": "",
          "type": "bytes32[]"
        }
      ],
      "stateMutability": "view",
      "type": "function",
      "constant": true
    },
    {
      "inputs": [],
      "name": "depositModifiers",
      "outputs": [
        {
          "internalType": "contract DepositModifiers",
          "name": "",
          "type": "address"
        }
      ],
      "stateMutability": "view",
      "type": "function",
      "constant": true
    },
    {
      "inputs": [
        {
          "internalType": "bytes32",
          "name": "validationHash",
          "type": "bytes32"
        }
      ],
      "name": "hasVoted",
      "outputs": [
        {
          "internalType": "bool",
          "name": "",
          "type": "bool"
        }
      ],
      "stateMutability": "view",
      "type": "function",
      "constant": true
    },
    {
      "inputs": [
        {
          "internalType": "bytes32",
          "name": "validationHash",
          "type": "bytes32"
        }
      ],
      "name": "isValidated",
      "outputs": [
        {
          "internalType": "enum Validations.ValidationStatus",
          "name": "",
          "type": "uint8"
        }
      ],
      "stateMutability": "view",
      "type": "function",
      "constant": true
    },
    {
      "inputs": [],
      "name": "memberHelpers",
      "outputs": [
        {
          "internalType": "contract MemberHelpers",
          "name": "",
          "type": "address"
        }
      ],
      "stateMutability": "view",
      "type": "function",
      "constant": true
    },
    {
      "inputs": [],
      "name": "members",
      "outputs": [
        {
          "internalType": "contract Members",
          "name": "",
          "type": "address"
        }
      ],
      "stateMutability": "view",
      "type": "function",
      "constant": true
    },
    {
      "inputs": [],
      "name": "nodeOperations",
      "outputs": [
        {
          "internalType": "contract INodeOperations",
          "name": "",
          "type": "address"
        }
      ],
      "stateMutability": "view",
      "type": "function",
      "constant": true
    },
    {
      "inputs": [
        {
          "internalType": "address",
          "name": "",
          "type": "address"
        }
      ],
      "name": "outstandingValidations",
      "outputs": [
        {
          "internalType": "uint256",
          "name": "",
          "type": "uint256"
        }
      ],
      "stateMutability": "view",
      "type": "function",
      "constant": true
    },
    {
      "inputs": [],
      "name": "queue",
      "outputs": [
        {
          "internalType": "contract Queue",
          "name": "",
          "type": "address"
        }
      ],
      "stateMutability": "view",
      "type": "function",
      "constant": true
    },
    {
      "inputs": [],
      "name": "quorum",
      "outputs": [
        {
          "internalType": "uint256",
          "name": "",
          "type": "uint256"
        }
      ],
      "stateMutability": "view",
      "type": "function",
      "constant": true
    },
    {
      "inputs": [],
      "name": "recentTimestamp",
      "outputs": [
        {
          "internalType": "uint256",
          "name": "",
          "type": "uint256"
        }
      ],
      "stateMutability": "view",
      "type": "function",
      "constant": true
    },
    {
      "inputs": [],
      "name": "recentValidationHash",
      "outputs": [
        {
          "internalType": "bytes32",
          "name": "",
          "type": "bytes32"
        }
      ],
      "stateMutability": "view",
      "type": "function",
      "constant": true
    },
    {
      "inputs": [
        {
          "internalType": "bytes32",
          "name": "validationHash",
          "type": "bytes32"
        }
      ],
      "name": "returnValidationRecord",
      "outputs": [
        {
          "internalType": "bool",
          "name": "cohort",
          "type": "bool"
        },
        {
          "internalType": "address",
          "name": "requestor",
          "type": "address"
        },
        {
          "internalType": "uint256",
          "name": "validationTime",
          "type": "uint256"
        },
        {
          "internalType": "uint256",
          "name": "executionTime",
          "type": "uint256"
        },
        {
          "internalType": "string",
          "name": "url",
          "type": "string"
        },
        {
          "internalType": "uint256",
          "name": "consensus",
          "type": "uint256"
        },
        {
          "internalType": "uint256",
          "name": "validationsCompleted",
          "type": "uint256"
        },
        {
          "internalType": "uint64",
          "name": "winnerConfirmations",
          "type": "uint64"
        },
        {
          "internalType": "bool",
          "name": "paymentSent",
          "type": "bool"
        },
        {
          "internalType": "address",
          "name": "winner",
          "type": "address"
        }
      ],
      "stateMutability": "view",
      "type": "function",
      "constant": true
    },
    {
      "inputs": [
        {
          "internalType": "bytes32",
          "name": "validationHash",
          "type": "bytes32"
        },
        {
          "internalType": "address",
          "name": "user",
          "type": "address"
        }
      ],
      "name": "returnValidationUrl",
      "outputs": [
        {
          "internalType": "string",
          "name": "url",
          "type": "string"
        }
      ],
      "stateMutability": "view",
      "type": "function",
      "constant": true
    },
    {
      "inputs": [
        {
          "internalType": "bytes32",
          "name": "validationHash",
          "type": "bytes32"
        },
        {
          "internalType": "address",
          "name": "user",
          "type": "address"
        }
      ],
      "name": "returnWinnerPoints",
      "outputs": [
        {
          "internalType": "uint256",
          "name": "plus",
          "type": "uint256"
        },
        {
          "internalType": "uint256",
          "name": "minus",
          "type": "uint256"
        }
      ],
      "stateMutability": "view",
      "type": "function",
      "constant": true
    },
    {
      "inputs": [],
      "name": "validationHelpers",
      "outputs": [
        {
          "internalType": "contract IValidatinosHelpers",
          "name": "",
          "type": "address"
        }
      ],
      "stateMutability": "view",
      "type": "function",
      "constant": true
    },
    {
      "inputs": [
        {
          "internalType": "bytes32",
          "name": "",
          "type": "bytes32"
        }
      ],
      "name": "validations",
      "outputs": [
        {
          "internalType": "bool",
          "name": "cohort",
          "type": "bool"
        },
        {
          "internalType": "address",
          "name": "requestor",
          "type": "address"
        },
        {
          "internalType": "uint256",
          "name": "validationTime",
          "type": "uint256"
        },
        {
          "internalType": "uint256",
          "name": "executionTime",
          "type": "uint256"
        },
        {
          "internalType": "string",
          "name": "url",
          "type": "string"
        },
        {
          "internalType": "uint256",
          "name": "consensus",
          "type": "uint256"
        },
        {
          "internalType": "uint256",
          "name": "validationsCompleted",
          "type": "uint256"
        },
        {
          "internalType": "enum Validations.AuditTypes",
          "name": "auditType",
          "type": "uint8"
        },
        {
          "internalType": "uint64",
          "name": "winnerConfirmations",
          "type": "uint64"
        },
        {
          "internalType": "address",
          "name": "winner",
          "type": "address"
        },
        {
          "internalType": "uint256",
          "name": "stakeValue",
          "type": "uint256"
        }
      ],
      "stateMutability": "view",
      "type": "function",
      "constant": true
    },
    {
      "inputs": [
        {
          "internalType": "address[]",
          "name": "winners",
          "type": "address[]"
        },
        {
          "internalType": "bool[]",
          "name": "vote",
          "type": "bool[]"
        },
        {
          "internalType": "bytes32",
          "name": "validationHash",
          "type": "bytes32"
        }
      ],
      "name": "voteWinner",
      "outputs": [],
      "stateMutability": "nonpayable",
      "type": "function"
    },
    {
      "inputs": [
        {
          "internalType": "address",
          "name": "",
          "type": "address"
        },
        {
          "internalType": "bytes32",
          "name": "",
          "type": "bytes32"
        }
      ],
      "name": "votes",
      "outputs": [
        {
          "internalType": "bool",
          "name": "",
          "type": "bool"
        }
      ],
      "stateMutability": "view",
      "type": "function",
      "constant": true
    },
    {
      "inputs": [
        {
          "internalType": "bytes32",
          "name": "documentHash",
          "type": "bytes32"
        },
        {
          "internalType": "string",
          "name": "url",
          "type": "string"
        },
        {
          "internalType": "enum Validations.AuditTypes",
          "name": "auditType",
          "type": "uint8"
        },
        {
          "internalType": "uint256",
          "name": "price",
          "type": "uint256"
        }
      ],
      "name": "initializeValidationCohort",
      "outputs": [],
      "stateMutability": "nonpayable",
      "type": "function"
    },
    {
      "inputs": [
        {
          "internalType": "address",
          "name": "requestor",
          "type": "address"
        }
      ],
      "name": "checkIfRequestorHasFunds",
      "outputs": [
        {
          "internalType": "bool",
          "name": "",
          "type": "bool"
        }
      ],
      "stateMutability": "view",
      "type": "function",
      "constant": true
    },
    {
      "inputs": [
        {
          "internalType": "bytes32",
          "name": "validationHash",
          "type": "bytes32"
        }
      ],
      "name": "returnValidatorList",
      "outputs": [
        {
          "internalType": "address[]",
          "name": "",
          "type": "address[]"
        }
      ],
      "stateMutability": "view",
      "type": "function",
      "constant": true
    },
    {
      "inputs": [
        {
          "internalType": "bytes32",
          "name": "documentHash",
          "type": "bytes32"
        },
        {
          "internalType": "uint256",
          "name": "validationTime",
          "type": "uint256"
        },
        {
          "internalType": "address",
          "name": "subscriber",
          "type": "address"
        },
        {
          "internalType": "enum Validations.ValidationStatus",
          "name": "decision",
          "type": "uint8"
        },
        {
          "internalType": "string",
          "name": "valUrl",
          "type": "string"
        },
        {
          "internalType": "bytes32",
          "name": "reportHash",
          "type": "bytes32"
        }
      ],
      "name": "validate",
      "outputs": [],
      "stateMutability": "nonpayable",
      "type": "function"
    },
    {
      "inputs": [
        {
          "internalType": "bytes32",
          "name": "validationHash",
          "type": "bytes32"
        }
      ],
      "name": "returnValidatorCount",
      "outputs": [
        {
          "internalType": "uint256",
          "name": "",
          "type": "uint256"
        }
      ],
      "stateMutability": "nonpayable",
      "type": "function"
    }
  ],
  "bytecode": "0x60806040526064600e553480156200001657600080fd5b5060405162005d6738038062005d6783398181016040528101906200003c91906200023d565b86868686868686600160008190555086600160006101000a81548173ffffffffffffffffffffffffffffffffffffffff021916908373ffffffffffffffffffffffffffffffffffffffff16021790555085600360006101000a81548173ffffffffffffffffffffffffffffffffffffffff021916908373ffffffffffffffffffffffffffffffffffffffff16021790555084600560006101000a81548173ffffffffffffffffffffffffffffffffffffffff021916908373ffffffffffffffffffffffffffffffffffffffff16021790555083600460006101000a81548173ffffffffffffffffffffffffffffffffffffffff021916908373ffffffffffffffffffffffffffffffffffffffff16021790555082600660006101000a81548173ffffffffffffffffffffffffffffffffffffffff021916908373ffffffffffffffffffffffffffffffffffffffff16021790555081600760006101000a81548173ffffffffffffffffffffffffffffffffffffffff021916908373ffffffffffffffffffffffffffffffffffffffff16021790555080600260006101000a81548173ffffffffffffffffffffffffffffffffffffffff021916908373ffffffffffffffffffffffffffffffffffffffff160217905550505050505050505050505050505062000338565b60008151905062000237816200031e565b92915050565b600080600080600080600060e0888a0312156200025957600080fd5b6000620002698a828b0162000226565b97505060206200027c8a828b0162000226565b96505060406200028f8a828b0162000226565b9550506060620002a28a828b0162000226565b9450506080620002b58a828b0162000226565b93505060a0620002c88a828b0162000226565b92505060c0620002db8a828b0162000226565b91505092959891949750929550565b6000620002f782620002fe565b9050919050565b600073ffffffffffffffffffffffffffffffffffffffff82169050919050565b6200032981620002ea565b81146200033557600080fd5b50565b615a1f80620003486000396000f3fe608060405234801561001057600080fd5b50600436106101a95760003560e01c806371d8c7a0116100f9578063cd7a558011610097578063e10d29ee11610071578063e10d29ee1461051d578063e28c38021461053b578063ee5c17d714610575578063f9e0853a146105a5576101a9565b8063cd7a5580146104b3578063d4632bcf146104e3578063d577832c146104ff576101a9565b8063b08e5d80116100d3578063b08e5d8014610400578063b39fd6cf14610430578063bdd4d18d14610465578063bf1db71e14610483576101a9565b806371d8c7a0146103a657806395d1ca4d146103c457806399ae444a146103e2576101a9565b806341035f2a1161016657806356756cd71161014057806356756cd7146102ee5780635b3c5c4a14610327578063613c28a11461035757806362e23f2714610375576101a9565b806341035f2a1461028457806342d47412146102b45780634bd4545f146102d0576101a9565b80631703a018146101ae5780631b4613cb146101cc5780631db5ade8146101fc57806320120ffa1461022c578063220dd75e1461024a5780633a2eb80b14610266575b600080fd5b6101b66105d5565b6040516101c39190615119565b60405180910390f35b6101e660048036038101906101e19190613fa5565b6105db565b6040516101f39190614c25565b60405180910390f35b61021660048036038101906102119190613df0565b610642565b6040516102239190614c25565b60405180910390f35b610234610671565b6040516102419190614eca565b60405180910390f35b610264600480360381019061025f919061400a565b610697565b005b61026e610817565b60405161027b9190614ee5565b60405180910390f35b61029e60048036038101906102999190613fa5565b61083d565b6040516102ab9190614b78565b60405180910390f35b6102ce60048036038101906102c99190613e6d565b610983565b005b6102d86110a9565b6040516102e59190614eaf565b60405180910390f35b61030860048036038101906103039190613fa5565b6110cf565b60405161031e9a99989796959493929190614cf2565b60405180910390f35b610341600480360381019061033c9190613fce565b61125e565b60405161034e9190614fb7565b60405180910390f35b61035f61134a565b60405161036c9190614d95565b60405180910390f35b61038f600480360381019061038a9190613fce565b611350565b60405161039d92919061519b565b60405180910390f35b6103ae6113fa565b6040516103bb9190614f00565b60405180910390f35b6103cc611420565b6040516103d99190614e94565b60405180910390f35b6103ea611446565b6040516103f79190614f51565b60405180910390f35b61041a6004803603810190610415919061414f565b611459565b6040516104279190615119565b60405180910390f35b61044a60048036038101906104459190613fa5565b61147e565b60405161045c96959493929190614b9a565b60405180910390f35b61046d611ea0565b60405161047a9190614f1b565b60405180910390f35b61049d60048036038101906104989190613fa5565b611ec6565b6040516104aa9190614f6c565b60405180910390f35b6104cd60048036038101906104c89190613d9e565b611f30565b6040516104da9190614c25565b60405180910390f35b6104fd60048036038101906104f89190614085565b6122a7565b005b610507612472565b6040516105149190615119565b60405180910390f35b610525612478565b6040516105329190614f36565b60405180910390f35b61055560048036038101906105509190613fa5565b61249e565b60405161056c9b9a99989796959493929190614c40565b60405180910390f35b61058f600480360381019061058a9190613fa5565b6125ee565b60405161059c9190615119565b60405180910390f35b6105bf60048036038101906105ba9190613d9e565b612734565b6040516105cc9190615119565b60405180910390f35b600e5481565b6000600a60003373ffffffffffffffffffffffffffffffffffffffff1673ffffffffffffffffffffffffffffffffffffffff168152602001908152602001600020600083815260200190815260200160002060009054906101000a900460ff169050919050565b600a6020528160005260406000206020528060005260406000206000915091509054906101000a900460ff1681565b600660009054906101000a900473ffffffffffffffffffffffffffffffffffffffff1681565b6106a033611f30565b6106df576040517f08c379a00000000000000000000000000000000000000000000000000000000081526004016106d6906150f9565b60405180910390fd5b600560009054906101000a900473ffffffffffffffffffffffffffffffffffffffff1673ffffffffffffffffffffffffffffffffffffffff1663df03d08133846006811115610757577f4e487b7100000000000000000000000000000000000000000000000000000000600052602160045260246000fd5b6040518363ffffffff1660e01b8152600401610774929190614b4f565b60206040518083038186803b15801561078c57600080fd5b505afa1580156107a0573d6000803e3d6000fd5b505050506040513d601f19601f820116820180604052508101906107c49190613f40565b610803576040517f08c379a00000000000000000000000000000000000000000000000000000000081526004016107fa90615079565b60405180910390fd5b61081184848460018561274c565b50505050565b600760009054906101000a900473ffffffffffffffffffffffffffffffffffffffff1681565b60606000600f600084815260200190815260200160002090506000600560009054906101000a900473ffffffffffffffffffffffffffffffffffffffff1673ffffffffffffffffffffffffffffffffffffffff166302495c598360000160019054906101000a900473ffffffffffffffffffffffffffffffffffffffff168460060160009054906101000a900460ff166006811115610905577f4e487b7100000000000000000000000000000000000000000000000000000000600052602160045260246000fd5b6040518363ffffffff1660e01b8152600401610922929190614b4f565b60006040518083038186803b15801561093a57600080fd5b505afa15801561094e573d6000803e3d6000fd5b505050506040513d6000823e3d601f19601f820116820180604052508101906109779190613e2c565b90508092505050919050565b6000600f6000838152602001908152602001600020905060005b84518160ff161015610d7557838160ff16815181106109e5577f4e487b7100000000000000000000000000000000000000000000000000000000600052603260045260246000fd5b602002602001015115610b1757610a8a600183600a016000888560ff1681518110610a39577f4e487b7100000000000000000000000000000000000000000000000000000000600052603260045260246000fd5b602002602001015173ffffffffffffffffffffffffffffffffffffffff1673ffffffffffffffffffffffffffffffffffffffff16815260200190815260200160002054612a2b90919063ffffffff16565b82600a016000878460ff1681518110610acc577f4e487b7100000000000000000000000000000000000000000000000000000000600052603260045260246000fd5b602002602001015173ffffffffffffffffffffffffffffffffffffffff1673ffffffffffffffffffffffffffffffffffffffff16815260200190815260200160002081905550610c38565b610baf600183600b016000888560ff1681518110610b5e577f4e487b7100000000000000000000000000000000000000000000000000000000600052603260045260246000fd5b602002602001015173ffffffffffffffffffffffffffffffffffffffff1673ffffffffffffffffffffffffffffffffffffffff16815260200190815260200160002054612a2b90919063ffffffff16565b82600b016000878460ff1681518110610bf1577f4e487b7100000000000000000000000000000000000000000000000000000000600052603260045260246000fd5b602002602001015173ffffffffffffffffffffffffffffffffffffffff1673ffffffffffffffffffffffffffffffffffffffff168152602001908152602001600020819055505b6001600a60003373ffffffffffffffffffffffffffffffffffffffff1673ffffffffffffffffffffffffffffffffffffffff168152602001908152602001600020600085815260200190815260200160002060006101000a81548160ff0219169083151502179055507f7bfe96c39755f2a1ee6120326dcd0a14a7f1931a8ce8f4f08675b9d74f7ca93633868360ff1681518110610cff577f4e487b7100000000000000000000000000000000000000000000000000000000600052603260045260246000fd5b6020026020010151868460ff1681518110610d43577f4e487b7100000000000000000000000000000000000000000000000000000000600052603260045260246000fd5b6020026020010151604051610d5a93929190614a81565b60405180910390a18080610d6d906157c6565b91505061099d565b5080600d01600081819054906101000a900467ffffffffffffffff1680929190610d9e90615795565b91906101000a81548167ffffffffffffffff021916908367ffffffffffffffff160217905550506000610dd0836125ee565b9050600081606484600d0160009054906101000a900467ffffffffffffffff16610dfa9190615484565b67ffffffffffffffff16610e0e91906153f9565b9050600160009054906101000a900473ffffffffffffffffffffffffffffffffffffffff1673ffffffffffffffffffffffffffffffffffffffff16637036014e6040518163ffffffff1660e01b815260040160206040518083038186803b158015610e7857600080fd5b505afa158015610e8c573d6000803e3d6000fd5b505050506040513d601f19601f82011682018060405250810190610eb09190614126565b8110158015610f0f5750600073ffffffffffffffffffffffffffffffffffffffff1683600d0160089054906101000a900473ffffffffffffffffffffffffffffffffffffffff1673ffffffffffffffffffffffffffffffffffffffff16145b156110a1576000600760009054906101000a900473ffffffffffffffffffffffffffffffffffffffff1673ffffffffffffffffffffffffffffffffffffffff16639dd4640286896040518363ffffffff1660e01b8152600401610f73929190614df5565b60206040518083038186803b158015610f8b57600080fd5b505afa158015610f9f573d6000803e3d6000fd5b505050506040513d601f19601f82011682018060405250810190610fc39190613dc7565b90508084600d0160086101000a81548173ffffffffffffffffffffffffffffffffffffffff021916908373ffffffffffffffffffffffffffffffffffffffff1602179055506110128582612a41565b600260009054906101000a900473ffffffffffffffffffffffffffffffffffffffff1673ffffffffffffffffffffffffffffffffffffffff166348792674866040518263ffffffff1660e01b815260040161106d9190614d95565b600060405180830381600087803b15801561108757600080fd5b505af115801561109b573d6000803e3d6000fd5b50505050505b505050505050565b600560009054906101000a900473ffffffffffffffffffffffffffffffffffffffff1681565b6000806000806060600080600080600080600f60008d815260200190815260200160002090508060000160009054906101000a900460ff169a508060000160019054906101000a900473ffffffffffffffffffffffffffffffffffffffff169950806001015498508060020154975080600301805461114d9061571a565b80601f01602080910402602001604051908101604052809291908181526020018280546111799061571a565b80156111c65780601f1061119b576101008083540402835291602001916111c6565b820191906000526020600020905b8154815290600101906020018083116111a957829003601f168201915b50505050509650806004015495508060050154945080600d0160009054906101000a900467ffffffffffffffff16935080600d0160089054906101000a900473ffffffffffffffffffffffffffffffffffffffff169150600073ffffffffffffffffffffffffffffffffffffffff168273ffffffffffffffffffffffffffffffffffffffff1614159250509193959799509193959799565b60606000600f600085815260200190815260200160002090508060090160008473ffffffffffffffffffffffffffffffffffffffff1673ffffffffffffffffffffffffffffffffffffffff16815260200190815260200160002080546112c39061571a565b80601f01602080910402602001604051908101604052809291908181526020018280546112ef9061571a565b801561133c5780601f106113115761010080835404028352916020019161133c565b820191906000526020600020905b81548152906001019060200180831161131f57829003601f168201915b505050505091505092915050565b600d5481565b6000806000600f6000868152602001908152602001600020905080600a0160008573ffffffffffffffffffffffffffffffffffffffff1673ffffffffffffffffffffffffffffffffffffffff16815260200190815260200160002054925080600b0160008573ffffffffffffffffffffffffffffffffffffffff1673ffffffffffffffffffffffffffffffffffffffff168152602001908152602001600020549150509250929050565b600360009054906101000a900473ffffffffffffffffffffffffffffffffffffffff1681565b600460009054906101000a900473ffffffffffffffffffffffffffffffffffffffff1681565b600960009054906101000a900460ff1681565b600b602052816000526040600020602052806000526040600020600091509150505481565b606080606080606080600080600f60008a8152602001908152602001600020905060006114aa8a61083d565b90506000826005015467ffffffffffffffff8111156114f2577f4e487b7100000000000000000000000000000000000000000000000000000000600052604160045260246000fd5b6040519080825280602002602001820160405280156115205781602001602082028036833780820191505090505b5090506000836005015467ffffffffffffffff811115611569577f4e487b7100000000000000000000000000000000000000000000000000000000600052604160045260246000fd5b6040519080825280602002602001820160405280156115975781602001602082028036833780820191505090505b5090506000846005015467ffffffffffffffff8111156115e0577f4e487b7100000000000000000000000000000000000000000000000000000000600052604160045260246000fd5b60405190808252806020026020018201604052801561160e5781602001602082028036833780820191505090505b5090506000856005015467ffffffffffffffff811115611657577f4e487b7100000000000000000000000000000000000000000000000000000000600052604160045260246000fd5b6040519080825280602002602001820160405280156116855781602001602082028036833780820191505090505b5090506000866005015467ffffffffffffffff8111156116ce577f4e487b7100000000000000000000000000000000000000000000000000000000600052604160045260246000fd5b60405190808252806020026020018201604052801561170157816020015b60608152602001906001900390816116ec5790505b5090506000876005015467ffffffffffffffff81111561174a577f4e487b7100000000000000000000000000000000000000000000000000000000600052604160045260246000fd5b6040519080825280602002602001820160405280156117785781602001602082028036833780820191505090505b50905060005b8751811015611e7b57600060028111156117c1577f4e487b7100000000000000000000000000000000000000000000000000000000600052602160045260246000fd5b8960070160008a8481518110611800577f4e487b7100000000000000000000000000000000000000000000000000000000600052603260045260246000fd5b602002602001015173ffffffffffffffffffffffffffffffffffffffff1673ffffffffffffffffffffffffffffffffffffffff16815260200190815260200160002060009054906101000a900460ff166002811115611888577f4e487b7100000000000000000000000000000000000000000000000000000000600052602160045260246000fd5b14611e6857600360009054906101000a900473ffffffffffffffffffffffffffffffffffffffff1673ffffffffffffffffffffffffffffffffffffffff16638319d390898381518110611904577f4e487b7100000000000000000000000000000000000000000000000000000000600052603260045260246000fd5b60200260200101516040518263ffffffff1660e01b81526004016119289190614a66565b60206040518083038186803b15801561194057600080fd5b505afa158015611954573d6000803e3d6000fd5b505050506040513d601f19601f820116820180604052508101906119789190614126565b868b815181106119b1577f4e487b7100000000000000000000000000000000000000000000000000000000600052603260045260246000fd5b6020026020010181815250508860070160008983815181106119fc577f4e487b7100000000000000000000000000000000000000000000000000000000600052603260045260246000fd5b602002602001015173ffffffffffffffffffffffffffffffffffffffff1673ffffffffffffffffffffffffffffffffffffffff16815260200190815260200160002060009054906101000a900460ff166002811115611a84577f4e487b7100000000000000000000000000000000000000000000000000000000600052602160045260246000fd5b858b81518110611abd577f4e487b7100000000000000000000000000000000000000000000000000000000600052603260045260246000fd5b602002602001018181525050886008016000898381518110611b08577f4e487b7100000000000000000000000000000000000000000000000000000000600052603260045260246000fd5b602002602001015173ffffffffffffffffffffffffffffffffffffffff1673ffffffffffffffffffffffffffffffffffffffff16815260200190815260200160002054848b81518110611b84577f4e487b7100000000000000000000000000000000000000000000000000000000600052603260045260246000fd5b602002602001018181525050886009016000898381518110611bcf577f4e487b7100000000000000000000000000000000000000000000000000000000600052603260045260246000fd5b602002602001015173ffffffffffffffffffffffffffffffffffffffff1673ffffffffffffffffffffffffffffffffffffffff1681526020019081526020016000208054611c1c9061571a565b80601f0160208091040260200160405190810160405280929190818152602001828054611c489061571a565b8015611c955780601f10611c6a57610100808354040283529160200191611c95565b820191906000526020600020905b815481529060010190602001808311611c7857829003601f168201915b5050505050838b81518110611cd3577f4e487b7100000000000000000000000000000000000000000000000000000000600052603260045260246000fd5b6020026020010181905250878181518110611d17577f4e487b7100000000000000000000000000000000000000000000000000000000600052603260045260246000fd5b6020026020010151878b81518110611d58577f4e487b7100000000000000000000000000000000000000000000000000000000600052603260045260246000fd5b602002602001019073ffffffffffffffffffffffffffffffffffffffff16908173ffffffffffffffffffffffffffffffffffffffff168152505088600c016000898381518110611dd1577f4e487b7100000000000000000000000000000000000000000000000000000000600052603260045260246000fd5b602002602001015173ffffffffffffffffffffffffffffffffffffffff1673ffffffffffffffffffffffffffffffffffffffff16815260200190815260200160002054828b81518110611e4d577f4e487b7100000000000000000000000000000000000000000000000000000000600052603260045260246000fd5b6020026020010181815250508980611e649061574c565b9a50505b8080611e739061574c565b91505061177e565b508585858585859e509e509e509e509e509e5050505050505050505091939550919395565b600160009054906101000a900473ffffffffffffffffffffffffffffffffffffffff1681565b6000600f600083815260200190815260200160002060070160003373ffffffffffffffffffffffffffffffffffffffff1673ffffffffffffffffffffffffffffffffffffffff16815260200190815260200160002060009054906101000a900460ff169050919050565b600080600860008473ffffffffffffffffffffffffffffffffffffffff1673ffffffffffffffffffffffffffffffffffffffff1681526020019081526020016000205411156121e15761212e6064612120600160009054906101000a900473ffffffffffffffffffffffffffffffffffffffff1673ffffffffffffffffffffffffffffffffffffffff1663a7579be86040518163ffffffff1660e01b815260040160206040518083038186803b158015611fe957600080fd5b505afa158015611ffd573d6000803e3d6000fd5b505050506040513d601f19601f820116820180604052508101906120219190614126565b612112600860008873ffffffffffffffffffffffffffffffffffffffff1673ffffffffffffffffffffffffffffffffffffffff16815260200190815260200160002054600160009054906101000a900473ffffffffffffffffffffffffffffffffffffffff1673ffffffffffffffffffffffffffffffffffffffff16634d9c798c6040518163ffffffff1660e01b815260040160206040518083038186803b1580156120cc57600080fd5b505afa1580156120e0573d6000803e3d6000fd5b505050506040513d601f19601f820116820180604052508101906121049190614126565b612caf90919063ffffffff16565b612caf90919063ffffffff16565b612cc590919063ffffffff16565b600360009054906101000a900473ffffffffffffffffffffffffffffffffffffffff1673ffffffffffffffffffffffffffffffffffffffff1663fc7e286d846040518263ffffffff1660e01b81526004016121899190614a66565b60206040518083038186803b1580156121a157600080fd5b505afa1580156121b5573d6000803e3d6000fd5b505050506040513d601f19601f820116820180604052508101906121d99190614126565b1190506122a2565b6000600360009054906101000a900473ffffffffffffffffffffffffffffffffffffffff1673ffffffffffffffffffffffffffffffffffffffff1663fc7e286d846040518263ffffffff1660e01b815260040161223e9190614a66565b60206040518083038186803b15801561225657600080fd5b505afa15801561226a573d6000803e3d6000fd5b505050506040513d601f19601f8201168201806040525081019061228e9190614126565b141561229d57600090506122a2565b600190505b919050565b60008686866040516020016122be93929190614a29565b6040516020818303038152906040528051906020012090506000600f60008381526020019081526020016000209050600080600560009054906101000a900473ffffffffffffffffffffffffffffffffffffffff1673ffffffffffffffffffffffffffffffffffffffff16636df853458460000160019054906101000a900473ffffffffffffffffffffffffffffffffffffffff16338660060160009054906101000a900460ff16600681111561239e577f4e487b7100000000000000000000000000000000000000000000000000000000600052602160045260246000fd5b6040518463ffffffff1660e01b81526004016123bc93929190614aef565b604080518083038186803b1580156123d357600080fd5b505afa1580156123e7573d6000803e3d6000fd5b505050506040513d601f19601f8201168201806040525081019061240b9190613f69565b915091508180156124195750805b612458576040517f08c379a000000000000000000000000000000000000000000000000000000000815260040161244f90615039565b60405180910390fd5b6124668a8a8a8a8a8a612cdb565b50505050505050505050565b600c5481565b600260009054906101000a900473ffffffffffffffffffffffffffffffffffffffff1681565b600f6020528060005260406000206000915090508060000160009054906101000a900460ff16908060000160019054906101000a900473ffffffffffffffffffffffffffffffffffffffff16908060010154908060020154908060030180546125069061571a565b80601f01602080910402602001604051908101604052809291908181526020018280546125329061571a565b801561257f5780601f106125545761010080835404028352916020019161257f565b820191906000526020600020905b81548152906001019060200180831161256257829003601f168201915b5050505050908060040154908060050154908060060160009054906101000a900460ff169080600d0160009054906101000a900467ffffffffffffffff169080600d0160089054906101000a900473ffffffffffffffffffffffffffffffffffffffff169080600e015490508b565b600080600f600084815260200190815260200160002090506000600560009054906101000a900473ffffffffffffffffffffffffffffffffffffffff1673ffffffffffffffffffffffffffffffffffffffff166302495c598360000160019054906101000a900473ffffffffffffffffffffffffffffffffffffffff168460060160009054906101000a900460ff1660068111156126b5577f4e487b7100000000000000000000000000000000000000000000000000000000600052602160045260246000fd5b6040518363ffffffff1660e01b81526004016126d2929190614b4f565b60006040518083038186803b1580156126ea57600080fd5b505afa1580156126fe573d6000803e3d6000fd5b505050506040513d6000823e3d601f19601f820116820180604052508101906127279190613e2c565b9050805192505050919050565b60086020528060005260406000206000915090505481565b6000602060ff1611612793576040517f08c379a000000000000000000000000000000000000000000000000000000000815260040161278a90615099565b60405180910390fd5b600042905060008682336040516020016127af93929190614a29565b604051602081830303815290604052805190602001209050600860003373ffffffffffffffffffffffffffffffffffffffff1673ffffffffffffffffffffffffffffffffffffffff16815260200190815260200160002060008154809291906128179061574c565b91905055506000600f600083815260200190815260200160002090508681600301908051906020019061284b929190613a14565b50828160010181905550338160000160016101000a81548173ffffffffffffffffffffffffffffffffffffffff021916908373ffffffffffffffffffffffffffffffffffffffff160217905550858160060160006101000a81548160ff021916908360068111156128e5577f4e487b7100000000000000000000000000000000000000000000000000000000600052602160045260246000fd5b0217905550848160000160006101000a81548160ff021916908315150217905550600260009054906101000a900473ffffffffffffffffffffffffffffffffffffffff1673ffffffffffffffffffffffffffffffffffffffff1663f7c15fc885846040518363ffffffff1660e01b8152600401612963929190615134565b600060405180830381600087803b15801561297d57600080fd5b505af1158015612991573d6000803e3d6000fd5b505050508560068111156129ce577f4e487b7100000000000000000000000000000000000000000000000000000000600052602160045260246000fd5b823373ffffffffffffffffffffffffffffffffffffffff167f0dbeddfe9d39098957269db428a8da4b30b5f27a77cce961d530be73e35879d3868c8c604051612a199392919061515d565b60405180910390a45050505050505050565b60008183612a3991906153a3565b905092915050565b6000600f60008481526020019081526020016000209050612acf6001600860008460000160019054906101000a900473ffffffffffffffffffffffffffffffffffffffff1673ffffffffffffffffffffffffffffffffffffffff1673ffffffffffffffffffffffffffffffffffffffff168152602001908152602001600020546136f390919063ffffffff16565b600860008360000160019054906101000a900473ffffffffffffffffffffffffffffffffffffffff1673ffffffffffffffffffffffffffffffffffffffff1673ffffffffffffffffffffffffffffffffffffffff16815260200190815260200160002081905550600460009054906101000a900473ffffffffffffffffffffffffffffffffffffffff1673ffffffffffffffffffffffffffffffffffffffff1663a5cfbb31838360000160019054906101000a900473ffffffffffffffffffffffffffffffffffffffff16866040518463ffffffff1660e01b8152600401612bb993929190614ab8565b600060405180830381600087803b158015612bd357600080fd5b505af1158015612be7573d6000803e3d6000fd5b505050507f9a856ce2140763bf5c60c4782eca2bb7700a1492350b575c4455066ce05bfe9c838383600a0160008673ffffffffffffffffffffffffffffffffffffffff1673ffffffffffffffffffffffffffffffffffffffff1681526020019081526020016000205484600b0160008773ffffffffffffffffffffffffffffffffffffffff1673ffffffffffffffffffffffffffffffffffffffff16815260200190815260200160002054604051612ca29493929190614db0565b60405180910390a1505050565b60008183612cbd919061542a565b905092915050565b60008183612cd391906153f9565b905092915050565b6000868686604051602001612cf293929190614a29565b6040516020818303038152906040528051906020012090506000600f60008381526020019081526020016000209050600160009054906101000a900473ffffffffffffffffffffffffffffffffffffffff1673ffffffffffffffffffffffffffffffffffffffff16636f9cf9853360016002811115612d9a577f4e487b7100000000000000000000000000000000000000000000000000000000600052602160045260246000fd5b6040518363ffffffff1660e01b8152600401612db7929190614b26565b60206040518083038186803b158015612dcf57600080fd5b505afa158015612de3573d6000803e3d6000fd5b505050506040513d601f19601f82011682018060405250810190612e079190613f40565b612e46576040517f08c379a0000000000000000000000000000000000000000000000000000000008152600401612e3d90615059565b60405180910390fd5b86816001015414612e8c576040517f08c379a0000000000000000000000000000000000000000000000000000000008152600401612e8390615019565b60405180910390fd5b60006002811115612ec6577f4e487b7100000000000000000000000000000000000000000000000000000000600052602160045260246000fd5b8160070160003373ffffffffffffffffffffffffffffffffffffffff1673ffffffffffffffffffffffffffffffffffffffff16815260200190815260200160002060009054906101000a900460ff166002811115612f4d577f4e487b7100000000000000000000000000000000000000000000000000000000600052602160045260246000fd5b14612f8d576040517f08c379a0000000000000000000000000000000000000000000000000000000008152600401612f8490614fd9565b60405180910390fd5b600073ffffffffffffffffffffffffffffffffffffffff16600660009054906101000a900473ffffffffffffffffffffffffffffffffffffffff1673ffffffffffffffffffffffffffffffffffffffff1663cfe02b89336040518263ffffffff1660e01b81526004016130009190614a66565b60206040518083038186803b15801561301857600080fd5b505afa15801561302c573d6000803e3d6000fd5b505050506040513d601f19601f820116820180604052508101906130509190613dc7565b73ffffffffffffffffffffffffffffffffffffffff16146130a6576040517f08c379a000000000000000000000000000000000000000000000000000000000815260040161309d906150b9565b60405180910390fd5b600660009054906101000a900473ffffffffffffffffffffffffffffffffffffffff1673ffffffffffffffffffffffffffffffffffffffff1663105fd470336040518263ffffffff1660e01b81526004016131019190614a66565b60206040518083038186803b15801561311957600080fd5b505afa15801561312d573d6000803e3d6000fd5b505050506040513d601f19601f820116820180604052508101906131519190613f40565b613190576040517f08c379a000000000000000000000000000000000000000000000000000000000815260040161318790614ff9565b60405180910390fd5b848160070160003373ffffffffffffffffffffffffffffffffffffffff1673ffffffffffffffffffffffffffffffffffffffff16815260200190815260200160002060006101000a81548160ff0219169083600281111561321a577f4e487b7100000000000000000000000000000000000000000000000000000000600052602160045260246000fd5b0217905550428160080160003373ffffffffffffffffffffffffffffffffffffffff1673ffffffffffffffffffffffffffffffffffffffff16815260200190815260200160002081905550838160090160003373ffffffffffffffffffffffffffffffffffffffff1673ffffffffffffffffffffffffffffffffffffffff16815260200190815260200160002090805190602001906132ba929190613a14565b508281600c0160003373ffffffffffffffffffffffffffffffffffffffff1673ffffffffffffffffffffffffffffffffffffffff168152602001908152602001600020819055508060050160008154809291906133169061574c565b9190505550600660009054906101000a900473ffffffffffffffffffffffffffffffffffffffff1673ffffffffffffffffffffffffffffffffffffffff166375416a6b336040518263ffffffff1660e01b81526004016133769190614a66565b600060405180830381600087803b15801561339057600080fd5b505af11580156133a4573d6000803e3d6000fd5b50505050600660009054906101000a900473ffffffffffffffffffffffffffffffffffffffff1673ffffffffffffffffffffffffffffffffffffffff1663ed1b4f9b336040518263ffffffff1660e01b81526004016134039190614a66565b600060405180830381600087803b15801561341d57600080fd5b505af1158015613431573d6000803e3d6000fd5b505050506000600360009054906101000a900473ffffffffffffffffffffffffffffffffffffffff1673ffffffffffffffffffffffffffffffffffffffff16638319d390336040518263ffffffff1660e01b81526004016134929190614a66565b60206040518083038186803b1580156134aa57600080fd5b505afa1580156134be573d6000803e3d6000fd5b505050506040513d601f19601f820116820180604052508101906134e29190614126565b90506134f383828460010154613709565b8160080160003373ffffffffffffffffffffffffffffffffffffffff1673ffffffffffffffffffffffffffffffffffffffff16815260200190815260200160002054893373ffffffffffffffffffffffffffffffffffffffff167f4b29a3ed7e349f58641b48e385088f3e9ac94e5d63b51319f463ba16e6e6ba73898960405161357e929190614f87565b60405180910390a46000600c5411801561359c575060008260020154145b156136135761360c600b6000600c5481526020019081526020016000206000600d548152602001908152602001600020546064600b60008c81526020019081526020016000206000878152602001908152602001600020546135fe919061542a565b612cc590919063ffffffff16565b600e819055505b600160009054906101000a900473ffffffffffffffffffffffffffffffffffffffff1673ffffffffffffffffffffffffffffffffffffffff16637036014e6040518163ffffffff1660e01b815260040160206040518083038186803b15801561367b57600080fd5b505afa15801561368f573d6000803e3d6000fd5b505050506040513d601f19601f820116820180604052508101906136b39190614126565b600e541015806136c557506064600e54145b80156136d5575060008260020154145b156136e8576136e7838a600e5461376d565b5b505050505050505050565b6000818361370191906154c6565b905092915050565b61374082600b6000848152602001908152602001600020600086815260200190815260200160002054612a2b90919063ffffffff16565b600b6000838152602001908152602001600020600085815260200190815260200160002081905550505050565b600260005414156137b3576040517f08c379a00000000000000000000000000000000000000000000000000000000081526004016137aa906150d9565b60405180910390fd5b60026000819055506000600f60008581526020019081526020016000209050428160020181905550600080600760009054906101000a900473ffffffffffffffffffffffffffffffffffffffff1673ffffffffffffffffffffffffffffffffffffffff1663a4c46cc0876040518263ffffffff1660e01b81526004016138399190614d95565b60006040518083038186803b15801561385157600080fd5b505afa158015613865573d6000803e3d6000fd5b505050506040513d6000823e3d601f19601f8201168201806040525081019061388e9190613eec565b915091508083600401819055508260010154600c8190555085600d81905550600260009054906101000a900473ffffffffffffffffffffffffffffffffffffffff1673ffffffffffffffffffffffffffffffffffffffff166335fda3ae876040518263ffffffff1660e01b81526004016139089190614d95565b600060405180830381600087803b15801561392257600080fd5b505af1158015613936573d6000803e3d6000fd5b50505050858360000160019054906101000a900473ffffffffffffffffffffffffffffffffffffffff1673ffffffffffffffffffffffffffffffffffffffff168460060160009054906101000a900460ff1660068111156139c0577f4e487b7100000000000000000000000000000000000000000000000000000000600052602160045260246000fd5b7fe03e992493c423b331e1dad96e612b25875b27d3b641b9bea71da12a87863514888589428a6003018a6040516139fc96959493929190614e25565b60405180910390a45050506001600081905550505050565b828054613a209061571a565b90600052602060002090601f016020900481019282613a425760008555613a89565b82601f10613a5b57805160ff1916838001178555613a89565b82800160010185558215613a89579182015b82811115613a88578251825591602001919060010190613a6d565b5b509050613a969190613a9a565b5090565b5b80821115613ab3576000816000905550600101613a9b565b5090565b6000613aca613ac5846151f5565b6151c4565b90508083825260208201905082856020860282011115613ae957600080fd5b60005b85811015613b195781613aff8882613c39565b845260208401935060208301925050600181019050613aec565b5050509392505050565b6000613b36613b31846151f5565b6151c4565b90508083825260208201905082856020860282011115613b5557600080fd5b60005b85811015613b855781613b6b8882613c4e565b845260208401935060208301925050600181019050613b58565b5050509392505050565b6000613ba2613b9d84615221565b6151c4565b90508083825260208201905082856020860282011115613bc157600080fd5b60005b85811015613bf15781613bd78882613ce1565b845260208401935060208301925050600181019050613bc4565b5050509392505050565b6000613c0e613c098461524d565b6151c4565b905082815260208101848484011115613c2657600080fd5b613c318482856156d8565b509392505050565b600081359050613c488161596d565b92915050565b600081519050613c5d8161596d565b92915050565b600082601f830112613c7457600080fd5b8135613c84848260208601613ab7565b91505092915050565b600082601f830112613c9e57600080fd5b8151613cae848260208601613b23565b91505092915050565b600082601f830112613cc857600080fd5b8135613cd8848260208601613b8f565b91505092915050565b600081359050613cf081615984565b92915050565b600081519050613d0581615984565b92915050565b600081359050613d1a8161599b565b92915050565b600081359050613d2f816159b2565b92915050565b600081359050613d44816159c2565b92915050565b600082601f830112613d5b57600080fd5b8135613d6b848260208601613bfb565b91505092915050565b600081359050613d83816159d2565b92915050565b600081519050613d98816159d2565b92915050565b600060208284031215613db057600080fd5b6000613dbe84828501613c39565b91505092915050565b600060208284031215613dd957600080fd5b6000613de784828501613c4e565b91505092915050565b60008060408385031215613e0357600080fd5b6000613e1185828601613c39565b9250506020613e2285828601613d0b565b9150509250929050565b600060208284031215613e3e57600080fd5b600082015167ffffffffffffffff811115613e5857600080fd5b613e6484828501613c8d565b91505092915050565b600080600060608486031215613e8257600080fd5b600084013567ffffffffffffffff811115613e9c57600080fd5b613ea886828701613c63565b935050602084013567ffffffffffffffff811115613ec557600080fd5b613ed186828701613cb7565b9250506040613ee286828701613d0b565b9150509250925092565b60008060408385031215613eff57600080fd5b600083015167ffffffffffffffff811115613f1957600080fd5b613f2585828601613c8d565b9250506020613f3685828601613d89565b9150509250929050565b600060208284031215613f5257600080fd5b6000613f6084828501613cf6565b91505092915050565b60008060408385031215613f7c57600080fd5b6000613f8a85828601613cf6565b9250506020613f9b85828601613cf6565b9150509250929050565b600060208284031215613fb757600080fd5b6000613fc584828501613d0b565b91505092915050565b60008060408385031215613fe157600080fd5b6000613fef85828601613d0b565b925050602061400085828601613c39565b9150509250929050565b6000806000806080858703121561402057600080fd5b600061402e87828801613d0b565b945050602085013567ffffffffffffffff81111561404b57600080fd5b61405787828801613d4a565b935050604061406887828801613d20565b925050606061407987828801613d74565b91505092959194509250565b60008060008060008060c0878903121561409e57600080fd5b60006140ac89828a01613d0b565b96505060206140bd89828a01613d74565b95505060406140ce89828a01613c39565b94505060606140df89828a01613d35565b935050608087013567ffffffffffffffff8111156140fc57600080fd5b61410889828a01613d4a565b92505060a061411989828a01613d0b565b9150509295509295509295565b60006020828403121561413857600080fd5b600061414684828501613d89565b91505092915050565b6000806040838503121561416257600080fd5b600061417085828601613d74565b925050602061418185828601613d0b565b9150509250929050565b600061419783836141e7565b60208301905092915050565b60006141af83836143ba565b60208301905092915050565b60006141c78383614485565b905092915050565b60006141db83836149e5565b60208301905092915050565b6141f0816154fa565b82525050565b6141ff816154fa565b82525050565b614216614211826154fa565b6157f0565b82525050565b6000614227826152d2565b614231818561533d565b935061423c8361527d565b8060005b8381101561426d578151614254888261418b565b975061425f83615309565b925050600181019050614240565b5085935050505092915050565b6000614285826152dd565b61428f818561534e565b935061429a8361528d565b8060005b838110156142cb5781516142b288826141a3565b97506142bd83615316565b92505060018101905061429e565b5085935050505092915050565b60006142e3826152e8565b6142ed818561535f565b9350836020820285016142ff8561529d565b8060005b8581101561433b578484038952815161431c85826141bb565b945061432783615323565b925060208a01995050600181019050614303565b50829750879550505050505092915050565b6000614358826152f3565b6143628185615370565b935061436d836152ad565b8060005b8381101561439e57815161438588826141cf565b975061439083615330565b925050600181019050614371565b5085935050505092915050565b6143b48161550c565b82525050565b6143c381615518565b82525050565b6143d281615518565b82525050565b6143e96143e482615518565b615802565b82525050565b6143f8816155a6565b82525050565b614407816155ca565b82525050565b614416816155ee565b82525050565b61442581615612565b82525050565b61443481615636565b82525050565b6144438161565a565b82525050565b6144528161567e565b82525050565b614461816156a2565b82525050565b614470816156b4565b82525050565b61447f816156c6565b82525050565b6000614490826152fe565b61449a8185615381565b93506144aa8185602086016156e7565b6144b381615913565b840191505092915050565b60006144c9826152fe565b6144d38185615392565b93506144e38185602086016156e7565b6144ec81615913565b840191505092915050565b600081546145048161571a565b61450e8186615392565b94506001821660008114614529576001811461453b5761456e565b60ff198316865260208601935061456e565b614544856152bd565b60005b8381101561456657815481890152600182019150602081019050614547565b808801955050505b50505092915050565b6000614584603f83615392565b91507f56616c69646174696f6e3a76616c6964617465202d205468697320646f63756d60008301527f656e7420686173206265656e2076616c69646174656420616c72656164792e006020830152604082019050919050565b60006145ea603283615392565b91507f56616c69646174696f6e733a76616c6964617465202d20796f7520617265206e60008301527f6f742061206e6f6465206f70657261746f7200000000000000000000000000006020830152604082019050919050565b6000614650603883615392565b91507f56616c69646174696f6e3a76616c6964617465202d207468652076616c69646160008301527f74696f6e20706172616d7320646f6e2774206d617463682e00000000000000006020830152604082019050919050565b60006146b6605283615392565b91507f436f686f72743a76616c6964617465202d2056616c696461746f72206973206e60008301527f6f742070617274206f662074686520636f686f7274206f7220646f63756d656e60208301527f74204861736820697320696e76616c69642e00000000000000000000000000006040830152606082019050919050565b6000614742603283615392565b91507f56616c69646174696f6e3a76616c6964617465202d2056616c696461746f722060008301527f6973206e6f7420617574686f72697a65642e00000000000000000000000000006020830152604082019050919050565b60006147a8605583615392565b91507f436f686f72743a696e7469616c697a6556616c69646174696f6e202d204f6e6c60008301527f7920656e7465727072697365206f77696e67207468697320636f686f7274206360208301527f616e2063616c6c20746869732066756e6374696f6e00000000000000000000006040830152606082019050919050565b6000614834604083615392565b91507f56616c69646174696f6e3a696e697469616c697a6556616c69646174696f6e2060008301527f2d20446f63756d656e7420686173682076616c75652063616e277420626520306020830152604082019050919050565b600061489a605083615392565b91507f56616c69646174696f6e733a76616c6964617465202d20796f752063616e277460008301527f2076616c696461746564206265636175736520796f7520686176652064656c6560208301527f676174656420796f7572207374616b65000000000000000000000000000000006040830152606082019050919050565b6000614926601f83615392565b91507f5265656e7472616e637947756172643a207265656e7472616e742063616c6c006000830152602082019050919050565b6000614966604f83615392565b91507f4e6f436f686f72743a696e697469616c697a6556616c69646174696f6e202d2060008301527f4e6f742073756666696369656e742066756e64732e204465706f73697420616460208301527f646974696f6e616c2066756e64732e00000000000000000000000000000000006040830152606082019050919050565b6149ee8161557b565b82525050565b6149fd8161557b565b82525050565b614a14614a0f8261557b565b61581e565b82525050565b614a2381615585565b82525050565b6000614a3582866143d8565b602082019150614a458285614a03565b602082019150614a558284614205565b601482019150819050949350505050565b6000602082019050614a7b60008301846141f6565b92915050565b6000606082019050614a9660008301866141f6565b614aa360208301856141f6565b614ab060408301846143ab565b949350505050565b6000606082019050614acd60008301866141f6565b614ada60208301856141f6565b614ae760408301846143c9565b949350505050565b6000606082019050614b0460008301866141f6565b614b1160208301856141f6565b614b1e60408301846149f4565b949350505050565b6000604082019050614b3b60008301856141f6565b614b486020830184614467565b9392505050565b6000604082019050614b6460008301856141f6565b614b7160208301846149f4565b9392505050565b60006020820190508181036000830152614b92818461421c565b905092915050565b600060c0820190508181036000830152614bb4818961421c565b90508181036020830152614bc8818861434d565b90508181036040830152614bdc818761434d565b90508181036060830152614bf0818661434d565b90508181036080830152614c0481856142d8565b905081810360a0830152614c18818461427a565b9050979650505050505050565b6000602082019050614c3a60008301846143ab565b92915050565b600061016082019050614c56600083018e6143ab565b614c63602083018d6141f6565b614c70604083018c6149f4565b614c7d606083018b6149f4565b8181036080830152614c8f818a6144be565b9050614c9e60a08301896149f4565b614cab60c08301886149f4565b614cb860e0830187614458565b614cc6610100830186614a1a565b614cd46101208301856141f6565b614ce26101408301846149f4565b9c9b505050505050505050505050565b600061014082019050614d08600083018d6143ab565b614d15602083018c6141f6565b614d22604083018b6149f4565b614d2f606083018a6149f4565b8181036080830152614d4181896144be565b9050614d5060a08301886149f4565b614d5d60c08301876149f4565b614d6a60e0830186614a1a565b614d786101008301856143ab565b614d866101208301846141f6565b9b9a5050505050505050505050565b6000602082019050614daa60008301846143c9565b92915050565b6000608082019050614dc560008301876143c9565b614dd260208301866141f6565b614ddf60408301856149f4565b614dec60608301846149f4565b95945050505050565b6000604082019050614e0a60008301856143c9565b8181036020830152614e1c818461421c565b90509392505050565b600060c082019050614e3a60008301896143c9565b614e4760208301886149f4565b614e5460408301876149f4565b614e6160608301866149f4565b8181036080830152614e7381856144f7565b905081810360a0830152614e87818461421c565b9050979650505050505050565b6000602082019050614ea960008301846143ef565b92915050565b6000602082019050614ec460008301846143fe565b92915050565b6000602082019050614edf600083018461440d565b92915050565b6000602082019050614efa600083018461441c565b92915050565b6000602082019050614f15600083018461442b565b92915050565b6000602082019050614f30600083018461443a565b92915050565b6000602082019050614f4b6000830184614449565b92915050565b6000602082019050614f666000830184614458565b92915050565b6000602082019050614f816000830184614476565b92915050565b6000604082019050614f9c6000830185614476565b8181036020830152614fae81846144be565b90509392505050565b60006020820190508181036000830152614fd181846144be565b905092915050565b60006020820190508181036000830152614ff281614577565b9050919050565b60006020820190508181036000830152615012816145dd565b9050919050565b6000602082019050818103600083015261503281614643565b9050919050565b60006020820190508181036000830152615052816146a9565b9050919050565b6000602082019050818103600083015261507281614735565b9050919050565b600060208201905081810360008301526150928161479b565b9050919050565b600060208201905081810360008301526150b281614827565b9050919050565b600060208201905081810360008301526150d28161488d565b9050919050565b600060208201905081810360008301526150f281614919565b9050919050565b6000602082019050818103600083015261511281614959565b9050919050565b600060208201905061512e60008301846149f4565b92915050565b600060408201905061514960008301856149f4565b61515660208301846143c9565b9392505050565b600060608201905061517260008301866149f4565b61517f60208301856143c9565b818103604083015261519181846144be565b9050949350505050565b60006040820190506151b060008301856149f4565b6151bd60208301846149f4565b9392505050565b6000604051905081810181811067ffffffffffffffff821117156151eb576151ea6158e4565b5b8060405250919050565b600067ffffffffffffffff8211156152105761520f6158e4565b5b602082029050602081019050919050565b600067ffffffffffffffff82111561523c5761523b6158e4565b5b602082029050602081019050919050565b600067ffffffffffffffff821115615268576152676158e4565b5b601f19601f8301169050602081019050919050565b6000819050602082019050919050565b6000819050602082019050919050565b6000819050602082019050919050565b6000819050602082019050919050565b60008190508160005260206000209050919050565b600081519050919050565b600081519050919050565b600081519050919050565b600081519050919050565b600081519050919050565b6000602082019050919050565b6000602082019050919050565b6000602082019050919050565b6000602082019050919050565b600082825260208201905092915050565b600082825260208201905092915050565b600082825260208201905092915050565b600082825260208201905092915050565b600082825260208201905092915050565b600082825260208201905092915050565b60006153ae8261557b565b91506153b98361557b565b9250827fffffffffffffffffffffffffffffffffffffffffffffffffffffffffffffffff038211156153ee576153ed615828565b5b828201905092915050565b60006154048261557b565b915061540f8361557b565b92508261541f5761541e615857565b5b828204905092915050565b60006154358261557b565b91506154408361557b565b9250817fffffffffffffffffffffffffffffffffffffffffffffffffffffffffffffffff048311821515161561547957615478615828565b5b828202905092915050565b600061548f82615585565b915061549a83615585565b92508167ffffffffffffffff04831182151516156154bb576154ba615828565b5b828202905092915050565b60006154d18261557b565b91506154dc8361557b565b9250828210156154ef576154ee615828565b5b828203905092915050565b60006155058261555b565b9050919050565b60008115159050919050565b6000819050919050565b600081905061553082615931565b919050565b600081905061554382615945565b919050565b600081905061555682615959565b919050565b600073ffffffffffffffffffffffffffffffffffffffff82169050919050565b6000819050919050565b600067ffffffffffffffff82169050919050565b600060ff82169050919050565b60006155b1826155b8565b9050919050565b60006155c38261555b565b9050919050565b60006155d5826155dc565b9050919050565b60006155e78261555b565b9050919050565b60006155f982615600565b9050919050565b600061560b8261555b565b9050919050565b600061561d82615624565b9050919050565b600061562f8261555b565b9050919050565b600061564182615648565b9050919050565b60006156538261555b565b9050919050565b60006156658261566c565b9050919050565b60006156778261555b565b9050919050565b600061568982615690565b9050919050565b600061569b8261555b565b9050919050565b60006156ad82615522565b9050919050565b60006156bf82615535565b9050919050565b60006156d182615548565b9050919050565b82818337600083830152505050565b60005b838110156157055780820151818401526020810190506156ea565b83811115615714576000848401525b50505050565b6000600282049050600182168061573257607f821691505b60208210811415615746576157456158b5565b5b50919050565b60006157578261557b565b91507fffffffffffffffffffffffffffffffffffffffffffffffffffffffffffffffff82141561578a57615789615828565b5b600182019050919050565b60006157a082615585565b915067ffffffffffffffff8214156157bb576157ba615828565b5b600182019050919050565b60006157d182615599565b915060ff8214156157e5576157e4615828565b5b600182019050919050565b60006157fb8261580c565b9050919050565b6000819050919050565b600061581782615924565b9050919050565b6000819050919050565b7f4e487b7100000000000000000000000000000000000000000000000000000000600052601160045260246000fd5b7f4e487b7100000000000000000000000000000000000000000000000000000000600052601260045260246000fd5b7f4e487b7100000000000000000000000000000000000000000000000000000000600052602160045260246000fd5b7f4e487b7100000000000000000000000000000000000000000000000000000000600052602260045260246000fd5b7f4e487b7100000000000000000000000000000000000000000000000000000000600052604160045260246000fd5b6000601f19601f8301169050919050565b60008160601b9050919050565b6007811061594257615941615886565b5b50565b6003811061595657615955615886565b5b50565b6003811061596a57615969615886565b5b50565b615976816154fa565b811461598157600080fd5b50565b61598d8161550c565b811461599857600080fd5b50565b6159a481615518565b81146159af57600080fd5b50565b600781106159bf57600080fd5b50565b600381106159cf57600080fd5b50565b6159db8161557b565b81146159e657600080fd5b5056fea2646970667358221220dd7dd38a5fbac2e501a994969a608368bbe512833c13b7cf4878e0b8c893314564736f6c63430008000033",
  "immutableReferences": {},
  "source": "// SPDX-License-Identifier: MIT\npragma solidity =0.8.0;\n\nimport \"./Validations.sol\";\nimport \"@openzeppelin/contracts/utils/math/SafeMath.sol\";\n\n\ncontract ValidationsCohort is Validations {\n    using SafeMath for uint256;\n\n    constructor(address _members, address _memberHelpers, address _cohortFactory, address _depositModifiers, address _nodeOperations, address _validationHelpers, address _queue) \n        Validations(_members, _memberHelpers, _cohortFactory, _depositModifiers, _nodeOperations, _validationHelpers, _queue){\n\n    }\n\n\n    /**\n    * @dev to be called by Enterprise to initiate new validation\n    * @param documentHash - hash of unique identifier of validated transaction\n    * @param url - locatoin of the file on IPFS or other decentralized file storage\n    * @param auditType - type of auditing \n    */\n    function initializeValidationCohort(bytes32 documentHash, string memory url, AuditTypes auditType, uint256 price) public {\n\n        require(checkIfRequestorHasFunds(msg.sender), \"NoCohort:initializeValidation - Not sufficient funds. Deposit additional funds.\");\n        require(cohortFactory.cohortMap(msg.sender, uint256(auditType)), \"Cohort:intializeValidation - Only enterprise owing this cohort can call this function\");\n        super.initializeValidation(documentHash, url, auditType, true, price);\n        \n    }\n\n\n   /**\n   * @dev verify if requesting party has sufficient funds\n   * @param requestor a user whos funds are checked\n   * @return true or false \n   */\n   function checkIfRequestorHasFunds(address requestor) public override view returns (bool) {\n\n       if (outstandingValidations[requestor] > 0 )\n        return ( memberHelpers.deposits(requestor) > members.amountTokensPerValidation()\n                    .mul(outstandingValidations[requestor])\n                    .mul(members.enterpriseMatch())\n                    .div(1e2));\n        else if (memberHelpers.deposits(requestor) == 0)\n            return false;\n        else\n            return true;\n    }\n\n\n    function processPayments(bytes32 validationHash, address winner) internal override {\n\n        Validation storage validation = validations[validationHash];\n        outstandingValidations[validation.requestor] = outstandingValidations[validation.requestor].sub(1);\n        depositModifiers.processPayment(winner, validation.requestor, validationHash);\n        emit PaymentProcessed(validationHash, winner, validation.winnerVotesPlus[winner], validation.winnerVotesMinus[winner]);\n    }\n\n    function returnValidatorList(bytes32 validationHash) public view override returns (address[] memory){\n\n        Validation storage validation = validations[validationHash];\n        address[] memory validatorsList = cohortFactory.returnValidatorList(validation.requestor, uint256(validation.auditType));\n        return validatorsList;\n    }\n\n\n\n     function validate(bytes32 documentHash, uint256 validationTime, address subscriber, ValidationStatus decision, string memory valUrl, bytes32 reportHash) public override {\n\n        bytes32 validationHash = keccak256(abi.encodePacked(documentHash, validationTime, subscriber));\n        Validation storage validation = validations[validationHash];\n        (bool ivited, bool accepted) = cohortFactory.isValidatorInvited(validation.requestor, msg.sender, uint256(validation.auditType));\n        require(ivited && accepted, \"Cohort:validate - Validator is not part of the cohort or document Hash is invalid.\");\n\n        super.validate(documentHash, validationTime, subscriber, decision, valUrl, reportHash);\n        \n    }\n\n     function returnValidatorCount(bytes32 validationHash) public override returns (uint256){\n\n        Validation storage validation = validations[validationHash];\n        address[] memory validatorsList = cohortFactory.returnValidatorList(validation.requestor, uint256(validation.auditType));\n\n        return validatorsList.length;\n    }\n\n\n\n\n}",
  "sourcePath": "/home/win2win/eth/projects/AuditChain/Core-Smart-Contracts-v1/contracts/Auditchain/ValidationsCohort.sol",
  "compiler": {
    "name": "solc",
    "version": "0.8.0+commit.c7dfd78e.Emscripten.clang"
  },
  "schemaVersion": "3.4.1",
  "updatedAt": "2022-03-22T15:42:42.078Z",
  "networkType": "ethereum",
  "devdoc": {
    "kind": "dev",
    "methods": {
      "checkIfRequestorHasFunds(address)": {
        "details": "verify if requesting party has sufficient funds",
        "params": {
          "requestor": "a user whos funds are checked"
        },
        "returns": {
          "_0": "true or false "
        }
      },
      "collectValidationResults(bytes32)": {
        "details": "Review the validation results",
        "params": {
          "validationHash": "- consist of hash of hashed document and timestamp"
        },
        "returns": {
          "_0": "array  of validators",
          "_1": "array of stakes of each validatoralidation.requestor",
          "_2": "array of validation choices for each validator"
        }
      },
      "initializeValidationCohort(bytes32,string,uint8,uint256)": {
        "details": "to be called by Enterprise to initiate new validation",
        "params": {
          "auditType": "- type of auditing ",
          "documentHash": "- hash of unique identifier of validated transaction",
          "url": "- locatoin of the file on IPFS or other decentralized file storage"
        }
      },
      "isValidated(bytes32)": {
        "details": "validators can check if specific document has been already validated by them",
        "params": {
          "validationHash": "- consist of hash of hashed document and timestamp"
        },
        "returns": {
          "_0": "validation choices used by validator"
        }
      },
      "validate(bytes32,uint256,address,uint8,string,bytes32)": {
        "details": "called by validator to approve or disapprove this validation",
        "params": {
          "decision": "- one of the ValidationStatus choices cast by validator",
          "documentHash": "- hash of validated document",
          "validationTime": "- this is the time when validation has been initialized"
        }
      }
    },
    "version": 1
  },
  "userdoc": {
    "kind": "user",
    "methods": {},
    "version": 1
  }
}