{
  "contractName": "ValidationsNoCohort",
  "abi": [
    {
      "inputs": [
        {
          "internalType": "address",
          "name": "_members",
          "type": "address"
        },
        {
          "internalType": "address",
          "name": "_memberHelpers",
          "type": "address"
        },
        {
          "internalType": "address",
          "name": "_cohortFactory",
          "type": "address"
        },
        {
          "internalType": "address",
          "name": "_depositModifiers",
          "type": "address"
        },
        {
          "internalType": "address",
          "name": "_nodeOperations",
          "type": "address"
        },
        {
          "internalType": "address",
          "name": "_validationHelpers",
          "type": "address"
        },
        {
          "internalType": "address",
          "name": "queue",
          "type": "address"
        }
      ],
      "stateMutability": "nonpayable",
      "type": "constructor"
    },
    {
      "anonymous": false,
      "inputs": [
        {
          "indexed": false,
          "internalType": "bytes32",
          "name": "validationHash",
          "type": "bytes32"
        },
        {
          "indexed": false,
          "internalType": "address",
          "name": "winner",
          "type": "address"
        },
        {
          "indexed": false,
          "internalType": "uint256",
          "name": "pointsPlus",
          "type": "uint256"
        },
        {
          "indexed": false,
          "internalType": "uint256",
          "name": "pointsMinus",
          "type": "uint256"
        }
      ],
      "name": "PaymentProcessed",
      "type": "event"
    },
    {
      "anonymous": false,
      "inputs": [
        {
          "indexed": true,
          "internalType": "uint256",
          "name": "audits",
          "type": "uint256"
        },
        {
          "indexed": true,
          "internalType": "address",
          "name": "requestor",
          "type": "address"
        },
        {
          "indexed": true,
          "internalType": "bytes32",
          "name": "validationHash",
          "type": "bytes32"
        },
        {
          "indexed": false,
          "internalType": "bytes32",
          "name": "documentHash",
          "type": "bytes32"
        },
        {
          "indexed": false,
          "internalType": "uint256",
          "name": "consensus",
          "type": "uint256"
        },
        {
          "indexed": false,
          "internalType": "uint256",
          "name": "quorum",
          "type": "uint256"
        },
        {
          "indexed": false,
          "internalType": "uint256",
          "name": "timeExecuted",
          "type": "uint256"
        },
        {
          "indexed": false,
          "internalType": "string",
          "name": "url",
          "type": "string"
        },
        {
          "indexed": false,
          "internalType": "address[]",
          "name": "winners",
          "type": "address[]"
        }
      ],
      "name": "RequestExecuted",
      "type": "event"
    },
    {
      "anonymous": false,
      "inputs": [
        {
          "indexed": true,
          "internalType": "address",
          "name": "user",
          "type": "address"
        },
        {
          "indexed": true,
          "internalType": "bytes32",
          "name": "validationHash",
          "type": "bytes32"
        },
        {
          "indexed": false,
          "internalType": "uint256",
          "name": "initTime",
          "type": "uint256"
        },
        {
          "indexed": false,
          "internalType": "bytes32",
          "name": "documentHash",
          "type": "bytes32"
        },
        {
          "indexed": false,
          "internalType": "string",
          "name": "url",
          "type": "string"
        },
        {
          "indexed": true,
          "internalType": "enum Validations.AuditTypes",
          "name": "auditType",
          "type": "uint8"
        }
      ],
      "name": "ValidationInitialized",
      "type": "event"
    },
    {
      "anonymous": false,
      "inputs": [
        {
          "indexed": true,
          "internalType": "address",
          "name": "validator",
          "type": "address"
        },
        {
          "indexed": true,
          "internalType": "bytes32",
          "name": "documentHash",
          "type": "bytes32"
        },
        {
          "indexed": true,
          "internalType": "uint256",
          "name": "validationTime",
          "type": "uint256"
        },
        {
          "indexed": false,
          "internalType": "enum Validations.ValidationStatus",
          "name": "decision",
          "type": "uint8"
        },
        {
          "indexed": false,
          "internalType": "string",
          "name": "valUrl",
          "type": "string"
        }
      ],
      "name": "ValidatorValidated",
      "type": "event"
    },
    {
      "anonymous": false,
      "inputs": [
        {
          "indexed": false,
          "internalType": "address",
          "name": "validator",
          "type": "address"
        },
        {
          "indexed": false,
          "internalType": "address",
          "name": "winner",
          "type": "address"
        },
        {
          "indexed": false,
          "internalType": "bool",
          "name": "isValid",
          "type": "bool"
        }
      ],
      "name": "WinnerVoted",
      "type": "event"
    },
    {
      "inputs": [
        {
          "internalType": "uint256",
          "name": "",
          "type": "uint256"
        },
        {
          "internalType": "bytes32",
          "name": "",
          "type": "bytes32"
        }
      ],
      "name": "activeOperatorsStake",
      "outputs": [
        {
          "internalType": "uint256",
          "name": "",
          "type": "uint256"
        }
      ],
      "stateMutability": "view",
      "type": "function"
    },
    {
      "inputs": [],
      "name": "audits",
      "outputs": [
        {
          "internalType": "enum Validations.AuditTypes",
          "name": "",
          "type": "uint8"
        }
      ],
      "stateMutability": "view",
      "type": "function"
    },
    {
      "inputs": [],
      "name": "cohortFactory",
      "outputs": [
        {
          "internalType": "contract ICohortFactory",
          "name": "",
          "type": "address"
        }
      ],
      "stateMutability": "view",
      "type": "function"
    },
    {
      "inputs": [
        {
          "internalType": "bytes32",
          "name": "validationHash",
          "type": "bytes32"
        }
      ],
      "name": "collectValidationResults",
      "outputs": [
        {
          "internalType": "address[]",
          "name": "",
          "type": "address[]"
        },
        {
          "internalType": "uint256[]",
          "name": "",
          "type": "uint256[]"
        },
        {
          "internalType": "uint256[]",
          "name": "",
          "type": "uint256[]"
        },
        {
          "internalType": "uint256[]",
          "name": "",
          "type": "uint256[]"
        },
        {
          "internalType": "string[]",
          "name": "",
          "type": "string[]"
        },
        {
          "internalType": "bytes32[]",
          "name": "",
          "type": "bytes32[]"
        }
      ],
      "stateMutability": "view",
      "type": "function"
    },
    {
      "inputs": [],
      "name": "depositModifiers",
      "outputs": [
        {
          "internalType": "contract DepositModifiers",
          "name": "",
          "type": "address"
        }
      ],
      "stateMutability": "view",
      "type": "function"
    },
    {
      "inputs": [
        {
          "internalType": "bytes32",
          "name": "validationHash",
          "type": "bytes32"
        }
      ],
      "name": "hasVoted",
      "outputs": [
        {
          "internalType": "bool",
          "name": "",
          "type": "bool"
        }
      ],
      "stateMutability": "view",
      "type": "function"
    },
    {
      "inputs": [
        {
          "internalType": "bytes32",
          "name": "validationHash",
          "type": "bytes32"
        }
      ],
      "name": "isValidated",
      "outputs": [
        {
          "internalType": "enum Validations.ValidationStatus",
          "name": "",
          "type": "uint8"
        }
      ],
      "stateMutability": "view",
      "type": "function"
    },
    {
      "inputs": [],
      "name": "memberHelpers",
      "outputs": [
        {
          "internalType": "contract MemberHelpers",
          "name": "",
          "type": "address"
        }
      ],
      "stateMutability": "view",
      "type": "function"
    },
    {
      "inputs": [],
      "name": "members",
      "outputs": [
        {
          "internalType": "contract Members",
          "name": "",
          "type": "address"
        }
      ],
      "stateMutability": "view",
      "type": "function"
    },
    {
      "inputs": [],
      "name": "nodeOperations",
      "outputs": [
        {
          "internalType": "contract INodeOperations",
          "name": "",
          "type": "address"
        }
      ],
      "stateMutability": "view",
      "type": "function"
    },
    {
      "inputs": [
        {
          "internalType": "address",
          "name": "",
          "type": "address"
        }
      ],
      "name": "outstandingValidations",
      "outputs": [
        {
          "internalType": "uint256",
          "name": "",
          "type": "uint256"
        }
      ],
      "stateMutability": "view",
      "type": "function"
    },
    {
      "inputs": [],
      "name": "queue",
      "outputs": [
        {
          "internalType": "contract Queue",
          "name": "",
          "type": "address"
        }
      ],
      "stateMutability": "view",
      "type": "function"
    },
    {
      "inputs": [],
      "name": "quorum",
      "outputs": [
        {
          "internalType": "uint256",
          "name": "",
          "type": "uint256"
        }
      ],
      "stateMutability": "view",
      "type": "function"
    },
    {
      "inputs": [],
      "name": "recentTimestamp",
      "outputs": [
        {
          "internalType": "uint256",
          "name": "",
          "type": "uint256"
        }
      ],
      "stateMutability": "view",
      "type": "function"
    },
    {
      "inputs": [],
      "name": "recentValidationHash",
      "outputs": [
        {
          "internalType": "bytes32",
          "name": "",
          "type": "bytes32"
        }
      ],
      "stateMutability": "view",
      "type": "function"
    },
    {
      "inputs": [
        {
          "internalType": "bytes32",
          "name": "validationHash",
          "type": "bytes32"
        }
      ],
      "name": "returnValidationRecord",
      "outputs": [
        {
          "internalType": "bool",
          "name": "cohort",
          "type": "bool"
        },
        {
          "internalType": "address",
          "name": "requestor",
          "type": "address"
        },
        {
          "internalType": "uint256",
          "name": "validationTime",
          "type": "uint256"
        },
        {
          "internalType": "uint256",
          "name": "executionTime",
          "type": "uint256"
        },
        {
          "internalType": "string",
          "name": "url",
          "type": "string"
        },
        {
          "internalType": "uint256",
          "name": "consensus",
          "type": "uint256"
        },
        {
          "internalType": "uint256",
          "name": "validationsCompleted",
          "type": "uint256"
        },
        {
          "internalType": "uint64",
          "name": "winnerConfirmations",
          "type": "uint64"
        },
        {
          "internalType": "bool",
          "name": "paymentSent",
          "type": "bool"
        },
        {
          "internalType": "address",
          "name": "winner",
          "type": "address"
        }
      ],
      "stateMutability": "view",
      "type": "function"
    },
    {
      "inputs": [
        {
          "internalType": "bytes32",
          "name": "validationHash",
          "type": "bytes32"
        },
        {
          "internalType": "address",
          "name": "user",
          "type": "address"
        }
      ],
      "name": "returnValidationUrl",
      "outputs": [
        {
          "internalType": "string",
          "name": "url",
          "type": "string"
        }
      ],
      "stateMutability": "view",
      "type": "function"
    },
    {
      "inputs": [
        {
          "internalType": "bytes32",
          "name": "validationHash",
          "type": "bytes32"
        },
        {
          "internalType": "address",
          "name": "user",
          "type": "address"
        }
      ],
      "name": "returnWinnerPoints",
      "outputs": [
        {
          "internalType": "uint256",
          "name": "plus",
          "type": "uint256"
        },
        {
          "internalType": "uint256",
          "name": "minus",
          "type": "uint256"
        }
      ],
      "stateMutability": "view",
      "type": "function"
    },
    {
      "inputs": [],
      "name": "validationHelpers",
      "outputs": [
        {
          "internalType": "contract IValidatinosHelpers",
          "name": "",
          "type": "address"
        }
      ],
      "stateMutability": "view",
      "type": "function"
    },
    {
      "inputs": [
        {
          "internalType": "bytes32",
          "name": "",
          "type": "bytes32"
        }
      ],
      "name": "validations",
      "outputs": [
        {
          "internalType": "bool",
          "name": "cohort",
          "type": "bool"
        },
        {
          "internalType": "address",
          "name": "requestor",
          "type": "address"
        },
        {
          "internalType": "uint256",
          "name": "validationTime",
          "type": "uint256"
        },
        {
          "internalType": "uint256",
          "name": "executionTime",
          "type": "uint256"
        },
        {
          "internalType": "string",
          "name": "url",
          "type": "string"
        },
        {
          "internalType": "uint256",
          "name": "consensus",
          "type": "uint256"
        },
        {
          "internalType": "uint256",
          "name": "validationsCompleted",
          "type": "uint256"
        },
        {
          "internalType": "enum Validations.AuditTypes",
          "name": "auditType",
          "type": "uint8"
        },
        {
          "internalType": "uint64",
          "name": "winnerConfirmations",
          "type": "uint64"
        },
        {
          "internalType": "address",
          "name": "winner",
          "type": "address"
        },
        {
          "internalType": "uint256",
          "name": "stakeValue",
          "type": "uint256"
        }
      ],
      "stateMutability": "view",
      "type": "function"
    },
    {
      "inputs": [
        {
          "internalType": "address[]",
          "name": "winners",
          "type": "address[]"
        },
        {
          "internalType": "bool[]",
          "name": "vote",
          "type": "bool[]"
        },
        {
          "internalType": "bytes32",
          "name": "validationHash",
          "type": "bytes32"
        }
      ],
      "name": "voteWinner",
      "outputs": [],
      "stateMutability": "nonpayable",
      "type": "function"
    },
    {
      "inputs": [
        {
          "internalType": "address",
          "name": "",
          "type": "address"
        },
        {
          "internalType": "bytes32",
          "name": "",
          "type": "bytes32"
        }
      ],
      "name": "votes",
      "outputs": [
        {
          "internalType": "bool",
          "name": "",
          "type": "bool"
        }
      ],
      "stateMutability": "view",
      "type": "function"
    },
    {
      "inputs": [
        {
          "internalType": "bytes32",
          "name": "documentHash",
          "type": "bytes32"
        },
        {
          "internalType": "string",
          "name": "url",
          "type": "string"
        },
        {
          "internalType": "enum Validations.AuditTypes",
          "name": "auditType",
          "type": "uint8"
        },
        {
          "internalType": "uint256",
          "name": "price",
          "type": "uint256"
        }
      ],
      "name": "initializeValidationNoCohort",
      "outputs": [],
      "stateMutability": "nonpayable",
      "type": "function"
    },
    {
      "inputs": [
        {
          "internalType": "address",
          "name": "requestor",
          "type": "address"
        }
      ],
      "name": "checkIfRequestorHasFunds",
      "outputs": [
        {
          "internalType": "bool",
          "name": "",
          "type": "bool"
        }
      ],
      "stateMutability": "view",
      "type": "function"
    },
    {
      "inputs": [
        {
          "internalType": "bytes32",
          "name": "documentHash",
          "type": "bytes32"
        },
        {
          "internalType": "uint256",
          "name": "validationTime",
          "type": "uint256"
        },
        {
          "internalType": "address",
          "name": "subscriber",
          "type": "address"
        },
        {
          "internalType": "enum Validations.ValidationStatus",
          "name": "decision",
          "type": "uint8"
        },
        {
          "internalType": "string",
          "name": "valUrl",
          "type": "string"
        },
        {
          "internalType": "bytes32",
          "name": "reportHash",
          "type": "bytes32"
        }
      ],
      "name": "validate",
      "outputs": [],
      "stateMutability": "nonpayable",
      "type": "function"
    },
    {
      "inputs": [
        {
          "internalType": "bytes32",
          "name": "recentValidationHash",
          "type": "bytes32"
        }
      ],
      "name": "returnValidatorCount",
      "outputs": [
        {
          "internalType": "uint256",
          "name": "",
          "type": "uint256"
        }
      ],
      "stateMutability": "view",
      "type": "function"
    },
    {
      "inputs": [
        {
          "internalType": "bytes32",
          "name": "validationHash",
          "type": "bytes32"
        }
      ],
      "name": "returnValidatorList",
      "outputs": [
        {
          "internalType": "address[]",
          "name": "",
          "type": "address[]"
        }
      ],
      "stateMutability": "view",
      "type": "function"
    },
    {
      "inputs": [
        {
          "internalType": "bytes32",
          "name": "validationHash",
          "type": "bytes32"
        }
      ],
      "name": "returnValidatorListActual",
      "outputs": [
        {
          "internalType": "address[]",
          "name": "",
          "type": "address[]"
        }
      ],
      "stateMutability": "view",
      "type": "function"
    }
  ],
  "bytecode": "0x60806040526064600e553480156200001657600080fd5b5060405162005acf38038062005acf83398181016040528101906200003c91906200023d565b86868686868686600160008190555086600160006101000a81548173ffffffffffffffffffffffffffffffffffffffff021916908373ffffffffffffffffffffffffffffffffffffffff16021790555085600360006101000a81548173ffffffffffffffffffffffffffffffffffffffff021916908373ffffffffffffffffffffffffffffffffffffffff16021790555084600560006101000a81548173ffffffffffffffffffffffffffffffffffffffff021916908373ffffffffffffffffffffffffffffffffffffffff16021790555083600460006101000a81548173ffffffffffffffffffffffffffffffffffffffff021916908373ffffffffffffffffffffffffffffffffffffffff16021790555082600660006101000a81548173ffffffffffffffffffffffffffffffffffffffff021916908373ffffffffffffffffffffffffffffffffffffffff16021790555081600760006101000a81548173ffffffffffffffffffffffffffffffffffffffff021916908373ffffffffffffffffffffffffffffffffffffffff16021790555080600260006101000a81548173ffffffffffffffffffffffffffffffffffffffff021916908373ffffffffffffffffffffffffffffffffffffffff160217905550505050505050505050505050505062000338565b60008151905062000237816200031e565b92915050565b600080600080600080600060e0888a0312156200025957600080fd5b6000620002698a828b0162000226565b97505060206200027c8a828b0162000226565b96505060406200028f8a828b0162000226565b9550506060620002a28a828b0162000226565b9450506080620002b58a828b0162000226565b93505060a0620002c88a828b0162000226565b92505060c0620002db8a828b0162000226565b91505092959891949750929550565b6000620002f782620002fe565b9050919050565b600073ffffffffffffffffffffffffffffffffffffffff82169050919050565b6200032981620002ea565b81146200033557600080fd5b50565b61578780620003486000396000f3fe608060405234801561001057600080fd5b50600436106101c45760003560e01c806371df6ae8116100f9578063cd7a558011610097578063e10d29ee11610071578063e10d29ee14610568578063e28c380214610586578063ee5c17d7146105c0578063f9e0853a146105f0576101c4565b8063cd7a5580146104fe578063d4632bcf1461052e578063d577832c1461054a576101c4565b8063b08e5d80116100d3578063b08e5d801461044b578063b39fd6cf1461047b578063bdd4d18d146104b0578063bf1db71e146104ce576101c4565b806371df6ae8146103df57806395d1ca4d1461040f57806399ae444a1461042d576101c4565b806342d47412116101665780635b3c5c4a116101405780635b3c5c4a14610342578063613c28a11461037257806362e23f271461039057806371d8c7a0146103c1576101c4565b806342d47412146102cf5780634bd4545f146102eb57806356756cd714610309576101c4565b806320120ffa116101a257806320120ffa146102475780633a06c09a146102655780633a2eb80b1461028157806341035f2a1461029f576101c4565b80631703a018146101c95780631b4613cb146101e75780631db5ade814610217575b600080fd5b6101d1610620565b6040516101de9190614e81565b60405180910390f35b61020160048036038101906101fc9190613df3565b610626565b60405161020e91906149ad565b60405180910390f35b610231600480360381019061022c9190613c7a565b61068d565b60405161023e91906149ad565b60405180910390f35b61024f6106bc565b60405161025c9190614c52565b60405180910390f35b61027f600480360381019061027a9190613e58565b6106e2565b005b610289610862565b6040516102969190614c6d565b60405180910390f35b6102b960048036038101906102b49190613df3565b610888565b6040516102c69190614900565b60405180910390f35b6102e960048036038101906102e49190613cf7565b61093c565b005b6102f3611062565b6040516103009190614c37565b60405180910390f35b610323600480360381019061031e9190613df3565b611088565b6040516103399a99989796959493929190614a7a565b60405180910390f35b61035c60048036038101906103579190613e1c565b611217565b6040516103699190614d3f565b60405180910390f35b61037a611303565b6040516103879190614b1d565b60405180910390f35b6103aa60048036038101906103a59190613e1c565b611309565b6040516103b8929190614f03565b60405180910390f35b6103c96113b3565b6040516103d69190614c88565b60405180910390f35b6103f960048036038101906103f49190613df3565b6113d9565b6040516104069190614900565b60405180910390f35b610417611708565b6040516104249190614c1c565b60405180910390f35b61043561172e565b6040516104429190614cd9565b60405180910390f35b61046560048036038101906104609190613f9d565b611741565b6040516104729190614e81565b60405180910390f35b61049560048036038101906104909190613df3565b611766565b6040516104a796959493929190614922565b60405180910390f35b6104b8612188565b6040516104c59190614ca3565b60405180910390f35b6104e860048036038101906104e39190613df3565b6121ae565b6040516104f59190614cf4565b60405180910390f35b61051860048036038101906105139190613c28565b612218565b60405161052591906149ad565b60405180910390f35b61054860048036038101906105439190613ed3565b61240f565b005b610552612425565b60405161055f9190614e81565b60405180910390f35b61057061242b565b60405161057d9190614cbe565b60405180910390f35b6105a0600480360381019061059b9190613df3565b612451565b6040516105b79b9a999897969594939291906149c8565b60405180910390f35b6105da60048036038101906105d59190613df3565b6125a1565b6040516105e79190614e81565b60405180910390f35b61060a60048036038101906106059190613c28565b6125be565b6040516106179190614e81565b60405180910390f35b600e5481565b6000600a60003373ffffffffffffffffffffffffffffffffffffffff1673ffffffffffffffffffffffffffffffffffffffff168152602001908152602001600020600083815260200190815260200160002060009054906101000a900460ff169050919050565b600a6020528160005260406000206020528060005260406000206000915091509054906101000a900460ff1681565b600660009054906101000a900473ffffffffffffffffffffffffffffffffffffffff1681565b6106eb33612218565b61072a576040517f08c379a000000000000000000000000000000000000000000000000000000000815260040161072190614dc1565b60405180910390fd5b600160009054906101000a900473ffffffffffffffffffffffffffffffffffffffff1673ffffffffffffffffffffffffffffffffffffffff16636f9cf985336002808111156107a2577f4e487b7100000000000000000000000000000000000000000000000000000000600052602160045260246000fd5b6040518363ffffffff1660e01b81526004016107bf9291906148d7565b60206040518083038186803b1580156107d757600080fd5b505afa1580156107eb573d6000803e3d6000fd5b505050506040513d601f19601f8201168201806040525081019061080f9190613dca565b61084e576040517f08c379a000000000000000000000000000000000000000000000000000000000815260040161084590614e61565b60405180910390fd5b61085c8484846000856125d6565b50505050565b600760009054906101000a900473ffffffffffffffffffffffffffffffffffffffff1681565b60606000600660009054906101000a900473ffffffffffffffffffffffffffffffffffffffff1673ffffffffffffffffffffffffffffffffffffffff166350da39756040518163ffffffff1660e01b815260040160006040518083038186803b1580156108f457600080fd5b505afa158015610908573d6000803e3d6000fd5b505050506040513d6000823e3d601f19601f820116820180604052508101906109319190613cb6565b905080915050919050565b6000600f6000838152602001908152602001600020905060005b84518160ff161015610d2e57838160ff168151811061099e577f4e487b7100000000000000000000000000000000000000000000000000000000600052603260045260246000fd5b602002602001015115610ad057610a43600183600a016000888560ff16815181106109f2577f4e487b7100000000000000000000000000000000000000000000000000000000600052603260045260246000fd5b602002602001015173ffffffffffffffffffffffffffffffffffffffff1673ffffffffffffffffffffffffffffffffffffffff168152602001908152602001600020546128b590919063ffffffff16565b82600a016000878460ff1681518110610a85577f4e487b7100000000000000000000000000000000000000000000000000000000600052603260045260246000fd5b602002602001015173ffffffffffffffffffffffffffffffffffffffff1673ffffffffffffffffffffffffffffffffffffffff16815260200190815260200160002081905550610bf1565b610b68600183600b016000888560ff1681518110610b17577f4e487b7100000000000000000000000000000000000000000000000000000000600052603260045260246000fd5b602002602001015173ffffffffffffffffffffffffffffffffffffffff1673ffffffffffffffffffffffffffffffffffffffff168152602001908152602001600020546128b590919063ffffffff16565b82600b016000878460ff1681518110610baa577f4e487b7100000000000000000000000000000000000000000000000000000000600052603260045260246000fd5b602002602001015173ffffffffffffffffffffffffffffffffffffffff1673ffffffffffffffffffffffffffffffffffffffff168152602001908152602001600020819055505b6001600a60003373ffffffffffffffffffffffffffffffffffffffff1673ffffffffffffffffffffffffffffffffffffffff168152602001908152602001600020600085815260200190815260200160002060006101000a81548160ff0219169083151502179055507f7bfe96c39755f2a1ee6120326dcd0a14a7f1931a8ce8f4f08675b9d74f7ca93633868360ff1681518110610cb8577f4e487b7100000000000000000000000000000000000000000000000000000000600052603260045260246000fd5b6020026020010151868460ff1681518110610cfc577f4e487b7100000000000000000000000000000000000000000000000000000000600052603260045260246000fd5b6020026020010151604051610d1393929190614869565b60405180910390a18080610d269061552e565b915050610956565b5080600d01600081819054906101000a900467ffffffffffffffff1680929190610d57906154fd565b91906101000a81548167ffffffffffffffff021916908367ffffffffffffffff160217905550506000610d89836125a1565b9050600081606484600d0160009054906101000a900467ffffffffffffffff16610db391906151ec565b67ffffffffffffffff16610dc79190615161565b9050600160009054906101000a900473ffffffffffffffffffffffffffffffffffffffff1673ffffffffffffffffffffffffffffffffffffffff16637036014e6040518163ffffffff1660e01b815260040160206040518083038186803b158015610e3157600080fd5b505afa158015610e45573d6000803e3d6000fd5b505050506040513d601f19601f82011682018060405250810190610e699190613f74565b8110158015610ec85750600073ffffffffffffffffffffffffffffffffffffffff1683600d0160089054906101000a900473ffffffffffffffffffffffffffffffffffffffff1673ffffffffffffffffffffffffffffffffffffffff16145b1561105a576000600760009054906101000a900473ffffffffffffffffffffffffffffffffffffffff1673ffffffffffffffffffffffffffffffffffffffff16639dd4640286896040518363ffffffff1660e01b8152600401610f2c929190614b7d565b60206040518083038186803b158015610f4457600080fd5b505afa158015610f58573d6000803e3d6000fd5b505050506040513d601f19601f82011682018060405250810190610f7c9190613c51565b90508084600d0160086101000a81548173ffffffffffffffffffffffffffffffffffffffff021916908373ffffffffffffffffffffffffffffffffffffffff160217905550610fcb85826128cb565b600260009054906101000a900473ffffffffffffffffffffffffffffffffffffffff1673ffffffffffffffffffffffffffffffffffffffff166348792674866040518263ffffffff1660e01b81526004016110269190614b1d565b600060405180830381600087803b15801561104057600080fd5b505af1158015611054573d6000803e3d6000fd5b50505050505b505050505050565b600560009054906101000a900473ffffffffffffffffffffffffffffffffffffffff1681565b6000806000806060600080600080600080600f60008d815260200190815260200160002090508060000160009054906101000a900460ff169a508060000160019054906101000a900473ffffffffffffffffffffffffffffffffffffffff169950806001015498508060020154975080600301805461110690615482565b80601f016020809104026020016040519081016040528092919081815260200182805461113290615482565b801561117f5780601f106111545761010080835404028352916020019161117f565b820191906000526020600020905b81548152906001019060200180831161116257829003601f168201915b50505050509650806004015495508060050154945080600d0160009054906101000a900467ffffffffffffffff16935080600d0160089054906101000a900473ffffffffffffffffffffffffffffffffffffffff169150600073ffffffffffffffffffffffffffffffffffffffff168273ffffffffffffffffffffffffffffffffffffffff1614159250509193959799509193959799565b60606000600f600085815260200190815260200160002090508060090160008473ffffffffffffffffffffffffffffffffffffffff1673ffffffffffffffffffffffffffffffffffffffff168152602001908152602001600020805461127c90615482565b80601f01602080910402602001604051908101604052809291908181526020018280546112a890615482565b80156112f55780601f106112ca576101008083540402835291602001916112f5565b820191906000526020600020905b8154815290600101906020018083116112d857829003601f168201915b505050505091505092915050565b600d5481565b6000806000600f6000868152602001908152602001600020905080600a0160008573ffffffffffffffffffffffffffffffffffffffff1673ffffffffffffffffffffffffffffffffffffffff16815260200190815260200160002054925080600b0160008573ffffffffffffffffffffffffffffffffffffffff1673ffffffffffffffffffffffffffffffffffffffff168152602001908152602001600020549150509250929050565b600360009054906101000a900473ffffffffffffffffffffffffffffffffffffffff1681565b60606000600f60008481526020019081526020016000209050600080826005015467ffffffffffffffff811115611439577f4e487b7100000000000000000000000000000000000000000000000000000000600052604160045260246000fd5b6040519080825280602002602001820160405280156114675781602001602082028036833780820191505090505b5090506000600660009054906101000a900473ffffffffffffffffffffffffffffffffffffffff1673ffffffffffffffffffffffffffffffffffffffff166350da39756040518163ffffffff1660e01b815260040160006040518083038186803b1580156114d457600080fd5b505afa1580156114e8573d6000803e3d6000fd5b505050506040513d6000823e3d601f19601f820116820180604052508101906115119190613cb6565b905060005b81518110156116fb5760006002811115611559577f4e487b7100000000000000000000000000000000000000000000000000000000600052602160045260246000fd5b856007016000848481518110611598577f4e487b7100000000000000000000000000000000000000000000000000000000600052603260045260246000fd5b602002602001015173ffffffffffffffffffffffffffffffffffffffff1673ffffffffffffffffffffffffffffffffffffffff16815260200190815260200160002060009054906101000a900460ff166002811115611620577f4e487b7100000000000000000000000000000000000000000000000000000000600052602160045260246000fd5b146116e85781818151811061165e577f4e487b7100000000000000000000000000000000000000000000000000000000600052603260045260246000fd5b602002602001015183858151811061169f577f4e487b7100000000000000000000000000000000000000000000000000000000600052603260045260246000fd5b602002602001019073ffffffffffffffffffffffffffffffffffffffff16908173ffffffffffffffffffffffffffffffffffffffff168152505083806116e4906154b4565b9450505b80806116f3906154b4565b915050611516565b5081945050505050919050565b600460009054906101000a900473ffffffffffffffffffffffffffffffffffffffff1681565b600960009054906101000a900460ff1681565b600b602052816000526040600020602052806000526040600020600091509150505481565b606080606080606080600080600f60008a8152602001908152602001600020905060006117928a610888565b90506000826005015467ffffffffffffffff8111156117da577f4e487b7100000000000000000000000000000000000000000000000000000000600052604160045260246000fd5b6040519080825280602002602001820160405280156118085781602001602082028036833780820191505090505b5090506000836005015467ffffffffffffffff811115611851577f4e487b7100000000000000000000000000000000000000000000000000000000600052604160045260246000fd5b60405190808252806020026020018201604052801561187f5781602001602082028036833780820191505090505b5090506000846005015467ffffffffffffffff8111156118c8577f4e487b7100000000000000000000000000000000000000000000000000000000600052604160045260246000fd5b6040519080825280602002602001820160405280156118f65781602001602082028036833780820191505090505b5090506000856005015467ffffffffffffffff81111561193f577f4e487b7100000000000000000000000000000000000000000000000000000000600052604160045260246000fd5b60405190808252806020026020018201604052801561196d5781602001602082028036833780820191505090505b5090506000866005015467ffffffffffffffff8111156119b6577f4e487b7100000000000000000000000000000000000000000000000000000000600052604160045260246000fd5b6040519080825280602002602001820160405280156119e957816020015b60608152602001906001900390816119d45790505b5090506000876005015467ffffffffffffffff811115611a32577f4e487b7100000000000000000000000000000000000000000000000000000000600052604160045260246000fd5b604051908082528060200260200182016040528015611a605781602001602082028036833780820191505090505b50905060005b87518110156121635760006002811115611aa9577f4e487b7100000000000000000000000000000000000000000000000000000000600052602160045260246000fd5b8960070160008a8481518110611ae8577f4e487b7100000000000000000000000000000000000000000000000000000000600052603260045260246000fd5b602002602001015173ffffffffffffffffffffffffffffffffffffffff1673ffffffffffffffffffffffffffffffffffffffff16815260200190815260200160002060009054906101000a900460ff166002811115611b70577f4e487b7100000000000000000000000000000000000000000000000000000000600052602160045260246000fd5b1461215057600360009054906101000a900473ffffffffffffffffffffffffffffffffffffffff1673ffffffffffffffffffffffffffffffffffffffff16638319d390898381518110611bec577f4e487b7100000000000000000000000000000000000000000000000000000000600052603260045260246000fd5b60200260200101516040518263ffffffff1660e01b8152600401611c10919061484e565b60206040518083038186803b158015611c2857600080fd5b505afa158015611c3c573d6000803e3d6000fd5b505050506040513d601f19601f82011682018060405250810190611c609190613f74565b868b81518110611c99577f4e487b7100000000000000000000000000000000000000000000000000000000600052603260045260246000fd5b602002602001018181525050886007016000898381518110611ce4577f4e487b7100000000000000000000000000000000000000000000000000000000600052603260045260246000fd5b602002602001015173ffffffffffffffffffffffffffffffffffffffff1673ffffffffffffffffffffffffffffffffffffffff16815260200190815260200160002060009054906101000a900460ff166002811115611d6c577f4e487b7100000000000000000000000000000000000000000000000000000000600052602160045260246000fd5b858b81518110611da5577f4e487b7100000000000000000000000000000000000000000000000000000000600052603260045260246000fd5b602002602001018181525050886008016000898381518110611df0577f4e487b7100000000000000000000000000000000000000000000000000000000600052603260045260246000fd5b602002602001015173ffffffffffffffffffffffffffffffffffffffff1673ffffffffffffffffffffffffffffffffffffffff16815260200190815260200160002054848b81518110611e6c577f4e487b7100000000000000000000000000000000000000000000000000000000600052603260045260246000fd5b602002602001018181525050886009016000898381518110611eb7577f4e487b7100000000000000000000000000000000000000000000000000000000600052603260045260246000fd5b602002602001015173ffffffffffffffffffffffffffffffffffffffff1673ffffffffffffffffffffffffffffffffffffffff1681526020019081526020016000208054611f0490615482565b80601f0160208091040260200160405190810160405280929190818152602001828054611f3090615482565b8015611f7d5780601f10611f5257610100808354040283529160200191611f7d565b820191906000526020600020905b815481529060010190602001808311611f6057829003601f168201915b5050505050838b81518110611fbb577f4e487b7100000000000000000000000000000000000000000000000000000000600052603260045260246000fd5b6020026020010181905250878181518110611fff577f4e487b7100000000000000000000000000000000000000000000000000000000600052603260045260246000fd5b6020026020010151878b81518110612040577f4e487b7100000000000000000000000000000000000000000000000000000000600052603260045260246000fd5b602002602001019073ffffffffffffffffffffffffffffffffffffffff16908173ffffffffffffffffffffffffffffffffffffffff168152505088600c0160008983815181106120b9577f4e487b7100000000000000000000000000000000000000000000000000000000600052603260045260246000fd5b602002602001015173ffffffffffffffffffffffffffffffffffffffff1673ffffffffffffffffffffffffffffffffffffffff16815260200190815260200160002054828b81518110612135577f4e487b7100000000000000000000000000000000000000000000000000000000600052603260045260246000fd5b602002602001018181525050898061214c906154b4565b9a50505b808061215b906154b4565b915050611a66565b508585858585859e509e509e509e509e509e5050505050505050505091939550919395565b600160009054906101000a900473ffffffffffffffffffffffffffffffffffffffff1681565b6000600f600083815260200190815260200160002060070160003373ffffffffffffffffffffffffffffffffffffffff1673ffffffffffffffffffffffffffffffffffffffff16815260200190815260200160002060009054906101000a900460ff169050919050565b600080600860008473ffffffffffffffffffffffffffffffffffffffff1673ffffffffffffffffffffffffffffffffffffffff16815260200190815260200160002054111561240557612352600860008473ffffffffffffffffffffffffffffffffffffffff1673ffffffffffffffffffffffffffffffffffffffff16815260200190815260200160002054600660009054906101000a900473ffffffffffffffffffffffffffffffffffffffff1673ffffffffffffffffffffffffffffffffffffffff16636f875c4d6040518163ffffffff1660e01b815260040160206040518083038186803b15801561230c57600080fd5b505afa158015612320573d6000803e3d6000fd5b505050506040513d601f19601f820116820180604052508101906123449190613f74565b612b3990919063ffffffff16565b600360009054906101000a900473ffffffffffffffffffffffffffffffffffffffff1673ffffffffffffffffffffffffffffffffffffffff1663fc7e286d846040518263ffffffff1660e01b81526004016123ad919061484e565b60206040518083038186803b1580156123c557600080fd5b505afa1580156123d9573d6000803e3d6000fd5b505050506040513d601f19601f820116820180604052508101906123fd9190613f74565b11905061240a565b600190505b919050565b61241d868686868686612b4f565b505050505050565b600c5481565b600260009054906101000a900473ffffffffffffffffffffffffffffffffffffffff1681565b600f6020528060005260406000206000915090508060000160009054906101000a900460ff16908060000160019054906101000a900473ffffffffffffffffffffffffffffffffffffffff16908060010154908060020154908060030180546124b990615482565b80601f01602080910402602001604051908101604052809291908181526020018280546124e590615482565b80156125325780601f1061250757610100808354040283529160200191612532565b820191906000526020600020905b81548152906001019060200180831161251557829003601f168201915b5050505050908060040154908060050154908060060160009054906101000a900460ff169080600d0160009054906101000a900467ffffffffffffffff169080600d0160089054906101000a900473ffffffffffffffffffffffffffffffffffffffff169080600e015490508b565b6000806125ad83611766565b505050505090508051915050919050565b60086020528060005260406000206000915090505481565b6000602060ff161161261d576040517f08c379a000000000000000000000000000000000000000000000000000000000815260040161261490614e01565b60405180910390fd5b6000429050600086823360405160200161263993929190614811565b604051602081830303815290604052805190602001209050600860003373ffffffffffffffffffffffffffffffffffffffff1673ffffffffffffffffffffffffffffffffffffffff16815260200190815260200160002060008154809291906126a1906154b4565b91905055506000600f60008381526020019081526020016000209050868160030190805190602001906126d592919061389e565b50828160010181905550338160000160016101000a81548173ffffffffffffffffffffffffffffffffffffffff021916908373ffffffffffffffffffffffffffffffffffffffff160217905550858160060160006101000a81548160ff0219169083600681111561276f577f4e487b7100000000000000000000000000000000000000000000000000000000600052602160045260246000fd5b0217905550848160000160006101000a81548160ff021916908315150217905550600260009054906101000a900473ffffffffffffffffffffffffffffffffffffffff1673ffffffffffffffffffffffffffffffffffffffff1663f7c15fc885846040518363ffffffff1660e01b81526004016127ed929190614e9c565b600060405180830381600087803b15801561280757600080fd5b505af115801561281b573d6000803e3d6000fd5b50505050856006811115612858577f4e487b7100000000000000000000000000000000000000000000000000000000600052602160045260246000fd5b823373ffffffffffffffffffffffffffffffffffffffff167f0dbeddfe9d39098957269db428a8da4b30b5f27a77cce961d530be73e35879d3868c8c6040516128a393929190614ec5565b60405180910390a45050505050505050565b600081836128c3919061510b565b905092915050565b6000600f600084815260200190815260200160002090506129596001600860008460000160019054906101000a900473ffffffffffffffffffffffffffffffffffffffff1673ffffffffffffffffffffffffffffffffffffffff1673ffffffffffffffffffffffffffffffffffffffff1681526020019081526020016000205461356790919063ffffffff16565b600860008360000160019054906101000a900473ffffffffffffffffffffffffffffffffffffffff1673ffffffffffffffffffffffffffffffffffffffff1673ffffffffffffffffffffffffffffffffffffffff16815260200190815260200160002081905550600460009054906101000a900473ffffffffffffffffffffffffffffffffffffffff1673ffffffffffffffffffffffffffffffffffffffff1663dc8c62c8838360000160019054906101000a900473ffffffffffffffffffffffffffffffffffffffff16866040518463ffffffff1660e01b8152600401612a43939291906148a0565b600060405180830381600087803b158015612a5d57600080fd5b505af1158015612a71573d6000803e3d6000fd5b505050507f9a856ce2140763bf5c60c4782eca2bb7700a1492350b575c4455066ce05bfe9c838383600a0160008673ffffffffffffffffffffffffffffffffffffffff1673ffffffffffffffffffffffffffffffffffffffff1681526020019081526020016000205484600b0160008773ffffffffffffffffffffffffffffffffffffffff1673ffffffffffffffffffffffffffffffffffffffff16815260200190815260200160002054604051612b2c9493929190614b38565b60405180910390a1505050565b60008183612b479190615192565b905092915050565b6000868686604051602001612b6693929190614811565b6040516020818303038152906040528051906020012090506000600f60008381526020019081526020016000209050600160009054906101000a900473ffffffffffffffffffffffffffffffffffffffff1673ffffffffffffffffffffffffffffffffffffffff16636f9cf9853360016002811115612c0e577f4e487b7100000000000000000000000000000000000000000000000000000000600052602160045260246000fd5b6040518363ffffffff1660e01b8152600401612c2b9291906148d7565b60206040518083038186803b158015612c4357600080fd5b505afa158015612c57573d6000803e3d6000fd5b505050506040513d601f19601f82011682018060405250810190612c7b9190613dca565b612cba576040517f08c379a0000000000000000000000000000000000000000000000000000000008152600401612cb190614de1565b60405180910390fd5b86816001015414612d00576040517f08c379a0000000000000000000000000000000000000000000000000000000008152600401612cf790614da1565b60405180910390fd5b60006002811115612d3a577f4e487b7100000000000000000000000000000000000000000000000000000000600052602160045260246000fd5b8160070160003373ffffffffffffffffffffffffffffffffffffffff1673ffffffffffffffffffffffffffffffffffffffff16815260200190815260200160002060009054906101000a900460ff166002811115612dc1577f4e487b7100000000000000000000000000000000000000000000000000000000600052602160045260246000fd5b14612e01576040517f08c379a0000000000000000000000000000000000000000000000000000000008152600401612df890614d61565b60405180910390fd5b600073ffffffffffffffffffffffffffffffffffffffff16600660009054906101000a900473ffffffffffffffffffffffffffffffffffffffff1673ffffffffffffffffffffffffffffffffffffffff1663cfe02b89336040518263ffffffff1660e01b8152600401612e74919061484e565b60206040518083038186803b158015612e8c57600080fd5b505afa158015612ea0573d6000803e3d6000fd5b505050506040513d601f19601f82011682018060405250810190612ec49190613c51565b73ffffffffffffffffffffffffffffffffffffffff1614612f1a576040517f08c379a0000000000000000000000000000000000000000000000000000000008152600401612f1190614e21565b60405180910390fd5b600660009054906101000a900473ffffffffffffffffffffffffffffffffffffffff1673ffffffffffffffffffffffffffffffffffffffff1663105fd470336040518263ffffffff1660e01b8152600401612f75919061484e565b60206040518083038186803b158015612f8d57600080fd5b505afa158015612fa1573d6000803e3d6000fd5b505050506040513d601f19601f82011682018060405250810190612fc59190613dca565b613004576040517f08c379a0000000000000000000000000000000000000000000000000000000008152600401612ffb90614d81565b60405180910390fd5b848160070160003373ffffffffffffffffffffffffffffffffffffffff1673ffffffffffffffffffffffffffffffffffffffff16815260200190815260200160002060006101000a81548160ff0219169083600281111561308e577f4e487b7100000000000000000000000000000000000000000000000000000000600052602160045260246000fd5b0217905550428160080160003373ffffffffffffffffffffffffffffffffffffffff1673ffffffffffffffffffffffffffffffffffffffff16815260200190815260200160002081905550838160090160003373ffffffffffffffffffffffffffffffffffffffff1673ffffffffffffffffffffffffffffffffffffffff168152602001908152602001600020908051906020019061312e92919061389e565b508281600c0160003373ffffffffffffffffffffffffffffffffffffffff1673ffffffffffffffffffffffffffffffffffffffff1681526020019081526020016000208190555080600501600081548092919061318a906154b4565b9190505550600660009054906101000a900473ffffffffffffffffffffffffffffffffffffffff1673ffffffffffffffffffffffffffffffffffffffff166375416a6b336040518263ffffffff1660e01b81526004016131ea919061484e565b600060405180830381600087803b15801561320457600080fd5b505af1158015613218573d6000803e3d6000fd5b50505050600660009054906101000a900473ffffffffffffffffffffffffffffffffffffffff1673ffffffffffffffffffffffffffffffffffffffff1663ed1b4f9b336040518263ffffffff1660e01b8152600401613277919061484e565b600060405180830381600087803b15801561329157600080fd5b505af11580156132a5573d6000803e3d6000fd5b505050506000600360009054906101000a900473ffffffffffffffffffffffffffffffffffffffff1673ffffffffffffffffffffffffffffffffffffffff16638319d390336040518263ffffffff1660e01b8152600401613306919061484e565b60206040518083038186803b15801561331e57600080fd5b505afa158015613332573d6000803e3d6000fd5b505050506040513d601f19601f820116820180604052508101906133569190613f74565b90506133678382846001015461357d565b8160080160003373ffffffffffffffffffffffffffffffffffffffff1673ffffffffffffffffffffffffffffffffffffffff16815260200190815260200160002054893373ffffffffffffffffffffffffffffffffffffffff167f4b29a3ed7e349f58641b48e385088f3e9ac94e5d63b51319f463ba16e6e6ba7389896040516133f2929190614d0f565b60405180910390a46000600c54118015613410575060008260020154145b1561348757613480600b6000600c5481526020019081526020016000206000600d548152602001908152602001600020546064600b60008c81526020019081526020016000206000878152602001908152602001600020546134729190615192565b6135e190919063ffffffff16565b600e819055505b600160009054906101000a900473ffffffffffffffffffffffffffffffffffffffff1673ffffffffffffffffffffffffffffffffffffffff16637036014e6040518163ffffffff1660e01b815260040160206040518083038186803b1580156134ef57600080fd5b505afa158015613503573d6000803e3d6000fd5b505050506040513d601f19601f820116820180604052508101906135279190613f74565b600e5410158061353957506064600e54145b8015613549575060008260020154145b1561355c5761355b838a600e546135f7565b5b505050505050505050565b60008183613575919061522e565b905092915050565b6135b482600b60008481526020019081526020016000206000868152602001908152602001600020546128b590919063ffffffff16565b600b6000838152602001908152602001600020600085815260200190815260200160002081905550505050565b600081836135ef9190615161565b905092915050565b6002600054141561363d576040517f08c379a000000000000000000000000000000000000000000000000000000000815260040161363490614e41565b60405180910390fd5b60026000819055506000600f60008581526020019081526020016000209050428160020181905550600080600760009054906101000a900473ffffffffffffffffffffffffffffffffffffffff1673ffffffffffffffffffffffffffffffffffffffff1663a4c46cc0876040518263ffffffff1660e01b81526004016136c39190614b1d565b60006040518083038186803b1580156136db57600080fd5b505afa1580156136ef573d6000803e3d6000fd5b505050506040513d6000823e3d601f19601f820116820180604052508101906137189190613d76565b915091508083600401819055508260010154600c8190555085600d81905550600260009054906101000a900473ffffffffffffffffffffffffffffffffffffffff1673ffffffffffffffffffffffffffffffffffffffff166335fda3ae876040518263ffffffff1660e01b81526004016137929190614b1d565b600060405180830381600087803b1580156137ac57600080fd5b505af11580156137c0573d6000803e3d6000fd5b50505050858360000160019054906101000a900473ffffffffffffffffffffffffffffffffffffffff1673ffffffffffffffffffffffffffffffffffffffff168460060160009054906101000a900460ff16600681111561384a577f4e487b7100000000000000000000000000000000000000000000000000000000600052602160045260246000fd5b7fe03e992493c423b331e1dad96e612b25875b27d3b641b9bea71da12a87863514888589428a6003018a60405161388696959493929190614bad565b60405180910390a45050506001600081905550505050565b8280546138aa90615482565b90600052602060002090601f0160209004810192826138cc5760008555613913565b82601f106138e557805160ff1916838001178555613913565b82800160010185558215613913579182015b828111156139125782518255916020019190600101906138f7565b5b5090506139209190613924565b5090565b5b8082111561393d576000816000905550600101613925565b5090565b600061395461394f84614f5d565b614f2c565b9050808382526020820190508285602086028201111561397357600080fd5b60005b858110156139a357816139898882613ac3565b845260208401935060208301925050600181019050613976565b5050509392505050565b60006139c06139bb84614f5d565b614f2c565b905080838252602082019050828560208602820111156139df57600080fd5b60005b85811015613a0f57816139f58882613ad8565b8452602084019350602083019250506001810190506139e2565b5050509392505050565b6000613a2c613a2784614f89565b614f2c565b90508083825260208201905082856020860282011115613a4b57600080fd5b60005b85811015613a7b5781613a618882613b6b565b845260208401935060208301925050600181019050613a4e565b5050509392505050565b6000613a98613a9384614fb5565b614f2c565b905082815260208101848484011115613ab057600080fd5b613abb848285615440565b509392505050565b600081359050613ad2816156d5565b92915050565b600081519050613ae7816156d5565b92915050565b600082601f830112613afe57600080fd5b8135613b0e848260208601613941565b91505092915050565b600082601f830112613b2857600080fd5b8151613b388482602086016139ad565b91505092915050565b600082601f830112613b5257600080fd5b8135613b62848260208601613a19565b91505092915050565b600081359050613b7a816156ec565b92915050565b600081519050613b8f816156ec565b92915050565b600081359050613ba481615703565b92915050565b600081359050613bb98161571a565b92915050565b600081359050613bce8161572a565b92915050565b600082601f830112613be557600080fd5b8135613bf5848260208601613a85565b91505092915050565b600081359050613c0d8161573a565b92915050565b600081519050613c228161573a565b92915050565b600060208284031215613c3a57600080fd5b6000613c4884828501613ac3565b91505092915050565b600060208284031215613c6357600080fd5b6000613c7184828501613ad8565b91505092915050565b60008060408385031215613c8d57600080fd5b6000613c9b85828601613ac3565b9250506020613cac85828601613b95565b9150509250929050565b600060208284031215613cc857600080fd5b600082015167ffffffffffffffff811115613ce257600080fd5b613cee84828501613b17565b91505092915050565b600080600060608486031215613d0c57600080fd5b600084013567ffffffffffffffff811115613d2657600080fd5b613d3286828701613aed565b935050602084013567ffffffffffffffff811115613d4f57600080fd5b613d5b86828701613b41565b9250506040613d6c86828701613b95565b9150509250925092565b60008060408385031215613d8957600080fd5b600083015167ffffffffffffffff811115613da357600080fd5b613daf85828601613b17565b9250506020613dc085828601613c13565b9150509250929050565b600060208284031215613ddc57600080fd5b6000613dea84828501613b80565b91505092915050565b600060208284031215613e0557600080fd5b6000613e1384828501613b95565b91505092915050565b60008060408385031215613e2f57600080fd5b6000613e3d85828601613b95565b9250506020613e4e85828601613ac3565b9150509250929050565b60008060008060808587031215613e6e57600080fd5b6000613e7c87828801613b95565b945050602085013567ffffffffffffffff811115613e9957600080fd5b613ea587828801613bd4565b9350506040613eb687828801613baa565b9250506060613ec787828801613bfe565b91505092959194509250565b60008060008060008060c08789031215613eec57600080fd5b6000613efa89828a01613b95565b9650506020613f0b89828a01613bfe565b9550506040613f1c89828a01613ac3565b9450506060613f2d89828a01613bbf565b935050608087013567ffffffffffffffff811115613f4a57600080fd5b613f5689828a01613bd4565b92505060a0613f6789828a01613b95565b9150509295509295509295565b600060208284031215613f8657600080fd5b6000613f9484828501613c13565b91505092915050565b60008060408385031215613fb057600080fd5b6000613fbe85828601613bfe565b9250506020613fcf85828601613b95565b9150509250929050565b6000613fe58383614035565b60208301905092915050565b6000613ffd8383614208565b60208301905092915050565b600061401583836142d3565b905092915050565b600061402983836147cd565b60208301905092915050565b61403e81615262565b82525050565b61404d81615262565b82525050565b61406461405f82615262565b615558565b82525050565b60006140758261503a565b61407f81856150a5565b935061408a83614fe5565b8060005b838110156140bb5781516140a28882613fd9565b97506140ad83615071565b92505060018101905061408e565b5085935050505092915050565b60006140d382615045565b6140dd81856150b6565b93506140e883614ff5565b8060005b838110156141195781516141008882613ff1565b975061410b8361507e565b9250506001810190506140ec565b5085935050505092915050565b600061413182615050565b61413b81856150c7565b93508360208202850161414d85615005565b8060005b85811015614189578484038952815161416a8582614009565b94506141758361508b565b925060208a01995050600181019050614151565b50829750879550505050505092915050565b60006141a68261505b565b6141b081856150d8565b93506141bb83615015565b8060005b838110156141ec5781516141d3888261401d565b97506141de83615098565b9250506001810190506141bf565b5085935050505092915050565b61420281615274565b82525050565b61421181615280565b82525050565b61422081615280565b82525050565b61423761423282615280565b61556a565b82525050565b6142468161530e565b82525050565b61425581615332565b82525050565b61426481615356565b82525050565b6142738161537a565b82525050565b6142828161539e565b82525050565b614291816153c2565b82525050565b6142a0816153e6565b82525050565b6142af8161540a565b82525050565b6142be8161541c565b82525050565b6142cd8161542e565b82525050565b60006142de82615066565b6142e881856150e9565b93506142f881856020860161544f565b6143018161567b565b840191505092915050565b600061431782615066565b61432181856150fa565b935061433181856020860161544f565b61433a8161567b565b840191505092915050565b6000815461435281615482565b61435c81866150fa565b945060018216600081146143775760018114614389576143bc565b60ff19831686526020860193506143bc565b61439285615025565b60005b838110156143b457815481890152600182019150602081019050614395565b808801955050505b50505092915050565b60006143d2603f836150fa565b91507f56616c69646174696f6e3a76616c6964617465202d205468697320646f63756d60008301527f656e7420686173206265656e2076616c69646174656420616c72656164792e006020830152604082019050919050565b60006144386032836150fa565b91507f56616c69646174696f6e733a76616c6964617465202d20796f7520617265206e60008301527f6f742061206e6f6465206f70657261746f7200000000000000000000000000006020830152604082019050919050565b600061449e6038836150fa565b91507f56616c69646174696f6e3a76616c6964617465202d207468652076616c69646160008301527f74696f6e20706172616d7320646f6e2774206d617463682e00000000000000006020830152604082019050919050565b60006145046062836150fa565b91507f56616c69646174696f6e734e6f436f686f72743a696e697469616c697a65566160008301527f6c69646174696f6e4e6f436f686f7274202d204e6f742073756666696369656e60208301527f742066756e64732e204465706f736974206164646974696f6e616c2066756e6460408301527f732e0000000000000000000000000000000000000000000000000000000000006060830152608082019050919050565b60006145b66032836150fa565b91507f56616c69646174696f6e3a76616c6964617465202d2056616c696461746f722060008301527f6973206e6f7420617574686f72697a65642e00000000000000000000000000006020830152604082019050919050565b600061461c6040836150fa565b91507f56616c69646174696f6e3a696e697469616c697a6556616c69646174696f6e2060008301527f2d20446f63756d656e7420686173682076616c75652063616e277420626520306020830152604082019050919050565b60006146826050836150fa565b91507f56616c69646174696f6e733a76616c6964617465202d20796f752063616e277460008301527f2076616c696461746564206265636175736520796f7520686176652064656c6560208301527f676174656420796f7572207374616b65000000000000000000000000000000006040830152606082019050919050565b600061470e601f836150fa565b91507f5265656e7472616e637947756172643a207265656e7472616e742063616c6c006000830152602082019050919050565b600061474e605a836150fa565b91507f56616c69646174696f6e734e6f436f686f72743a696e697469616c697a65566160008301527f6c69646174696f6e4e6f436f686f7274202d20596f75206861766520746f207260208301527f65676973746572206173206461746120737562736372696265720000000000006040830152606082019050919050565b6147d6816152e3565b82525050565b6147e5816152e3565b82525050565b6147fc6147f7826152e3565b615586565b82525050565b61480b816152ed565b82525050565b600061481d8286614226565b60208201915061482d82856147eb565b60208201915061483d8284614053565b601482019150819050949350505050565b60006020820190506148636000830184614044565b92915050565b600060608201905061487e6000830186614044565b61488b6020830185614044565b61489860408301846141f9565b949350505050565b60006060820190506148b56000830186614044565b6148c26020830185614044565b6148cf6040830184614217565b949350505050565b60006040820190506148ec6000830185614044565b6148f960208301846142b5565b9392505050565b6000602082019050818103600083015261491a818461406a565b905092915050565b600060c082019050818103600083015261493c818961406a565b90508181036020830152614950818861419b565b90508181036040830152614964818761419b565b90508181036060830152614978818661419b565b9050818103608083015261498c8185614126565b905081810360a08301526149a081846140c8565b9050979650505050505050565b60006020820190506149c260008301846141f9565b92915050565b6000610160820190506149de600083018e6141f9565b6149eb602083018d614044565b6149f8604083018c6147dc565b614a05606083018b6147dc565b8181036080830152614a17818a61430c565b9050614a2660a08301896147dc565b614a3360c08301886147dc565b614a4060e08301876142a6565b614a4e610100830186614802565b614a5c610120830185614044565b614a6a6101408301846147dc565b9c9b505050505050505050505050565b600061014082019050614a90600083018d6141f9565b614a9d602083018c614044565b614aaa604083018b6147dc565b614ab7606083018a6147dc565b8181036080830152614ac9818961430c565b9050614ad860a08301886147dc565b614ae560c08301876147dc565b614af260e0830186614802565b614b006101008301856141f9565b614b0e610120830184614044565b9b9a5050505050505050505050565b6000602082019050614b326000830184614217565b92915050565b6000608082019050614b4d6000830187614217565b614b5a6020830186614044565b614b6760408301856147dc565b614b7460608301846147dc565b95945050505050565b6000604082019050614b926000830185614217565b8181036020830152614ba4818461406a565b90509392505050565b600060c082019050614bc26000830189614217565b614bcf60208301886147dc565b614bdc60408301876147dc565b614be960608301866147dc565b8181036080830152614bfb8185614345565b905081810360a0830152614c0f818461406a565b9050979650505050505050565b6000602082019050614c31600083018461423d565b92915050565b6000602082019050614c4c600083018461424c565b92915050565b6000602082019050614c67600083018461425b565b92915050565b6000602082019050614c82600083018461426a565b92915050565b6000602082019050614c9d6000830184614279565b92915050565b6000602082019050614cb86000830184614288565b92915050565b6000602082019050614cd36000830184614297565b92915050565b6000602082019050614cee60008301846142a6565b92915050565b6000602082019050614d0960008301846142c4565b92915050565b6000604082019050614d2460008301856142c4565b8181036020830152614d36818461430c565b90509392505050565b60006020820190508181036000830152614d59818461430c565b905092915050565b60006020820190508181036000830152614d7a816143c5565b9050919050565b60006020820190508181036000830152614d9a8161442b565b9050919050565b60006020820190508181036000830152614dba81614491565b9050919050565b60006020820190508181036000830152614dda816144f7565b9050919050565b60006020820190508181036000830152614dfa816145a9565b9050919050565b60006020820190508181036000830152614e1a8161460f565b9050919050565b60006020820190508181036000830152614e3a81614675565b9050919050565b60006020820190508181036000830152614e5a81614701565b9050919050565b60006020820190508181036000830152614e7a81614741565b9050919050565b6000602082019050614e9660008301846147dc565b92915050565b6000604082019050614eb160008301856147dc565b614ebe6020830184614217565b9392505050565b6000606082019050614eda60008301866147dc565b614ee76020830185614217565b8181036040830152614ef9818461430c565b9050949350505050565b6000604082019050614f1860008301856147dc565b614f2560208301846147dc565b9392505050565b6000604051905081810181811067ffffffffffffffff82111715614f5357614f5261564c565b5b8060405250919050565b600067ffffffffffffffff821115614f7857614f7761564c565b5b602082029050602081019050919050565b600067ffffffffffffffff821115614fa457614fa361564c565b5b602082029050602081019050919050565b600067ffffffffffffffff821115614fd057614fcf61564c565b5b601f19601f8301169050602081019050919050565b6000819050602082019050919050565b6000819050602082019050919050565b6000819050602082019050919050565b6000819050602082019050919050565b60008190508160005260206000209050919050565b600081519050919050565b600081519050919050565b600081519050919050565b600081519050919050565b600081519050919050565b6000602082019050919050565b6000602082019050919050565b6000602082019050919050565b6000602082019050919050565b600082825260208201905092915050565b600082825260208201905092915050565b600082825260208201905092915050565b600082825260208201905092915050565b600082825260208201905092915050565b600082825260208201905092915050565b6000615116826152e3565b9150615121836152e3565b9250827fffffffffffffffffffffffffffffffffffffffffffffffffffffffffffffffff0382111561515657615155615590565b5b828201905092915050565b600061516c826152e3565b9150615177836152e3565b925082615187576151866155bf565b5b828204905092915050565b600061519d826152e3565b91506151a8836152e3565b9250817fffffffffffffffffffffffffffffffffffffffffffffffffffffffffffffffff04831182151516156151e1576151e0615590565b5b828202905092915050565b60006151f7826152ed565b9150615202836152ed565b92508167ffffffffffffffff048311821515161561522357615222615590565b5b828202905092915050565b6000615239826152e3565b9150615244836152e3565b92508282101561525757615256615590565b5b828203905092915050565b600061526d826152c3565b9050919050565b60008115159050919050565b6000819050919050565b600081905061529882615699565b919050565b60008190506152ab826156ad565b919050565b60008190506152be826156c1565b919050565b600073ffffffffffffffffffffffffffffffffffffffff82169050919050565b6000819050919050565b600067ffffffffffffffff82169050919050565b600060ff82169050919050565b600061531982615320565b9050919050565b600061532b826152c3565b9050919050565b600061533d82615344565b9050919050565b600061534f826152c3565b9050919050565b600061536182615368565b9050919050565b6000615373826152c3565b9050919050565b60006153858261538c565b9050919050565b6000615397826152c3565b9050919050565b60006153a9826153b0565b9050919050565b60006153bb826152c3565b9050919050565b60006153cd826153d4565b9050919050565b60006153df826152c3565b9050919050565b60006153f1826153f8565b9050919050565b6000615403826152c3565b9050919050565b60006154158261528a565b9050919050565b60006154278261529d565b9050919050565b6000615439826152b0565b9050919050565b82818337600083830152505050565b60005b8381101561546d578082015181840152602081019050615452565b8381111561547c576000848401525b50505050565b6000600282049050600182168061549a57607f821691505b602082108114156154ae576154ad61561d565b5b50919050565b60006154bf826152e3565b91507fffffffffffffffffffffffffffffffffffffffffffffffffffffffffffffffff8214156154f2576154f1615590565b5b600182019050919050565b6000615508826152ed565b915067ffffffffffffffff82141561552357615522615590565b5b600182019050919050565b600061553982615301565b915060ff82141561554d5761554c615590565b5b600182019050919050565b600061556382615574565b9050919050565b6000819050919050565b600061557f8261568c565b9050919050565b6000819050919050565b7f4e487b7100000000000000000000000000000000000000000000000000000000600052601160045260246000fd5b7f4e487b7100000000000000000000000000000000000000000000000000000000600052601260045260246000fd5b7f4e487b7100000000000000000000000000000000000000000000000000000000600052602160045260246000fd5b7f4e487b7100000000000000000000000000000000000000000000000000000000600052602260045260246000fd5b7f4e487b7100000000000000000000000000000000000000000000000000000000600052604160045260246000fd5b6000601f19601f8301169050919050565b60008160601b9050919050565b600781106156aa576156a96155ee565b5b50565b600381106156be576156bd6155ee565b5b50565b600381106156d2576156d16155ee565b5b50565b6156de81615262565b81146156e957600080fd5b50565b6156f581615274565b811461570057600080fd5b50565b61570c81615280565b811461571757600080fd5b50565b6007811061572757600080fd5b50565b6003811061573757600080fd5b50565b615743816152e3565b811461574e57600080fd5b5056fea2646970667358221220aa08b301c4439a12751ec03e0b08ac4f3e439915767d03efb7d69349ee5acfa064736f6c63430008000033",
  "immutableReferences": {},
  "source": "// SPDX-License-Identifier: MIT\npragma solidity =0.8.0;\n\nimport \"./Validations.sol\";\nimport \"@openzeppelin/contracts/utils/math/SafeMath.sol\";\n\n\n/**\n * @title ValidationsNoCohort\n * Allows on validation with cohort requested by data subscribers. \n */\n\ncontract ValidationsNoCohort is Validations {\n    using SafeMath for uint256;\n\n    constructor(address _members, address _memberHelpers, address _cohortFactory, address _depositModifiers, address _nodeOperations, address _validationHelpers, address queue ) \n        Validations(_members, _memberHelpers, _cohortFactory, _depositModifiers, _nodeOperations, _validationHelpers, queue){\n\n    }\n\n    /**\n    * @dev to be called by data subscriber to initiate new validation\n    * @param documentHash - hash of unique identifier of validated transaction\n    * @param url - locatoin of the file on IPFS or   function returnValidatorList(bytes32 validationHash) public view override  returns (address[] memory){\n    * @param auditType - type of auditing \n    */\n    function initializeValidationNoCohort(bytes32 documentHash, string memory url, AuditTypes auditType, uint256 price) public {\n\n        require(checkIfRequestorHasFunds(msg.sender), \"ValidationsNoCohort:initializeValidationNoCohort - Not sufficient funds. Deposit additional funds.\");\n        require(members.userMap(msg.sender, Members.UserType(2)), \"ValidationsNoCohort:initializeValidationNoCohort - You have to register as data subscriber\");\n        super.initializeValidation(documentHash, url, auditType, false, price);\n        \n    }\n\n   /**\n   * @dev verify if requesting party has sufficient funds\n   * @param requestor a user whos funds are checked\n   * @return true or false \n   */\n      function checkIfRequestorHasFunds(address requestor) public override view returns (bool) {\n       if (outstandingValidations[requestor] > 0 )\n          return ( memberHelpers.deposits(requestor) > nodeOperations.POWFee().mul(outstandingValidations[requestor]));\n       else \n          return true;\n    }\n\n\n    function processPayments(bytes32 validationHash, address winner) internal override { \n\n        Validation storage validation = validations[validationHash];\n        outstandingValidations[validation.requestor] = outstandingValidations[validation.requestor].sub(1);\n        depositModifiers.processNonChortPayment(winner, validation.requestor, validationHash);\n        emit PaymentProcessed(validationHash, winner, validation.winnerVotesPlus[winner], validation.winnerVotesMinus[winner]);\n    }\n\n    function validate(bytes32 documentHash, uint256 validationTime, address subscriber, ValidationStatus decision, string memory valUrl, bytes32 reportHash) public override {\n        super.validate(documentHash, validationTime, subscriber, decision, valUrl, reportHash);\n    }\n\n    function returnValidatorCount(bytes32 recentValidationHash) public view override returns (uint256){\n        // return nodeOperations.returnNodeOperatorsCount();\n\n        (address[] memory nodeOperators,,,,,) = collectValidationResults(recentValidationHash);\n        return nodeOperators.length;\n        \n    }\n\n    function returnValidatorList(bytes32 validationHash) public view override  returns (address[] memory){\n\n        address[] memory validatorsList = nodeOperations.returnNodeOperators();\n        return validatorsList;\n    }\n\n\n       function returnValidatorListActual(bytes32 validationHash) public view returns (address[] memory){\n\n        //  (address[] memory nodeOperators,,,,,)  = collectValidationResults(validationHash);\n        Validation storage validation = validations[validationHash];\n        uint256 j=0;\n\n        address[] memory validatorListActive = new address[](validation.validationsCompleted);\n        address[] memory validatorsList = nodeOperations.returnNodeOperators();\n\n         for (uint256 i = 0; i < validatorsList.length; i++) {\n            if(validation.validatorChoice[validatorsList[i]] != ValidationStatus.Undefined) {\n                validatorListActive[j] = validatorsList[i];\n                j++;\n            }\n        }\n        return validatorListActive;\n    }\n\n\n\n}",
  "sourcePath": "/home/win2win/eth/projects/AuditChain/Core-Smart-Contracts-v1/contracts/Auditchain/ValidationsNoCohort.sol",
  "compiler": {
    "name": "solc",
    "version": "0.8.0+commit.c7dfd78e.Emscripten.clang"
  },
  "schemaVersion": "3.4.1",
  "updatedAt": "2022-04-13T20:33:05.937Z",
  "devdoc": {
    "kind": "dev",
    "methods": {
      "checkIfRequestorHasFunds(address)": {
        "details": "verify if requesting party has sufficient funds",
        "params": {
          "requestor": "a user whos funds are checked"
        },
        "returns": {
          "_0": "true or false "
        }
      },
      "collectValidationResults(bytes32)": {
        "details": "Review the validation results",
        "params": {
          "validationHash": "- consist of hash of hashed document and timestamp"
        },
        "returns": {
          "_0": "array  of validators",
          "_1": "array of stakes of each validatoralidation.requestor",
          "_2": "array of validation choices for each validator"
        }
      },
      "initializeValidationNoCohort(bytes32,string,uint8,uint256)": {
        "details": "to be called by data subscriber to initiate new validation",
        "params": {
          "auditType": "- type of auditing ",
          "documentHash": "- hash of unique identifier of validated transaction",
          "url": "- locatoin of the file on IPFS or   function returnValidatorList(bytes32 validationHash) public view override  returns (address[] memory){"
        }
      },
      "isValidated(bytes32)": {
        "details": "validators can check if specific document has been already validated by them",
        "params": {
          "validationHash": "- consist of hash of hashed document and timestamp"
        },
        "returns": {
          "_0": "validation choices used by validator"
        }
      },
      "validate(bytes32,uint256,address,uint8,string,bytes32)": {
        "details": "called by validator to approve or disapprove this validation",
        "params": {
          "decision": "- one of the ValidationStatus choices cast by validator",
          "documentHash": "- hash of validated document",
          "validationTime": "- this is the time when validation has been initialized"
        }
      }
    },
    "title": "ValidationsNoCohort Allows on validation with cohort requested by data subscribers. ",
    "version": 1
  },
  "userdoc": {
    "kind": "user",
    "methods": {},
    "version": 1
  }
}