{
  "contractName": "ValidationHelpers",
  "abi": [
    {
      "inputs": [
        {
          "internalType": "address",
          "name": "_memberHelpers",
          "type": "address"
        }
      ],
      "stateMutability": "nonpayable",
      "type": "constructor"
    },
    {
      "inputs": [
        {
          "internalType": "bytes32",
          "name": "documentHash",
          "type": "bytes32"
        },
        {
          "internalType": "uint256",
          "name": "_validationTime",
          "type": "uint256"
        }
      ],
      "name": "isHashAndTimeCorrect",
      "outputs": [
        {
          "internalType": "bool",
          "name": "",
          "type": "bool"
        }
      ],
      "stateMutability": "view",
      "type": "function",
      "constant": true
    },
    {
      "inputs": [
        {
          "internalType": "bytes32",
          "name": "validationHash",
          "type": "bytes32"
        },
        {
          "internalType": "address",
          "name": "contractAddress",
          "type": "address"
        }
      ],
      "name": "returnWinnerStruct",
      "outputs": [
        {
          "internalType": "string",
          "name": "valUrl",
          "type": "string"
        },
        {
          "internalType": "address",
          "name": "winner",
          "type": "address"
        },
        {
          "internalType": "uint256",
          "name": "validationTime",
          "type": "uint256"
        }
      ],
      "stateMutability": "view",
      "type": "function",
      "constant": true
    },
    {
      "inputs": [
        {
          "internalType": "bytes32",
          "name": "validationHash",
          "type": "bytes32"
        },
        {
          "internalType": "address[]",
          "name": "winners",
          "type": "address[]"
        }
      ],
      "name": "selectWinner",
      "outputs": [
        {
          "internalType": "address",
          "name": "",
          "type": "address"
        }
      ],
      "stateMutability": "view",
      "type": "function",
      "constant": true
    },
    {
      "inputs": [
        {
          "internalType": "bytes32",
          "name": "validationHash",
          "type": "bytes32"
        }
      ],
      "name": "determineWinners",
      "outputs": [
        {
          "internalType": "address[]",
          "name": "",
          "type": "address[]"
        },
        {
          "internalType": "uint256",
          "name": "",
          "type": "uint256"
        }
      ],
      "stateMutability": "view",
      "type": "function",
      "constant": true
    },
    {
      "inputs": [
        {
          "internalType": "uint256[]",
          "name": "validation",
          "type": "uint256[]"
        }
      ],
      "name": "determineConsensus",
      "outputs": [
        {
          "internalType": "uint256",
          "name": "",
          "type": "uint256"
        }
      ],
      "stateMutability": "pure",
      "type": "function",
      "constant": true
    },
    {
      "inputs": [
        {
          "internalType": "bytes32",
          "name": "validationHash",
          "type": "bytes32"
        },
        {
          "internalType": "address",
          "name": "validationContract",
          "type": "address"
        }
      ],
      "name": "calculateVoteQuorum",
      "outputs": [
        {
          "internalType": "uint256",
          "name": "",
          "type": "uint256"
        }
      ],
      "stateMutability": "view",
      "type": "function",
      "constant": true
    }
  ],
  "bytecode": "0x60806040523480156200001157600080fd5b506040516200285638038062002856833981810160405281019062000037919062000095565b806000806101000a81548173ffffffffffffffffffffffffffffffffffffffff021916908373ffffffffffffffffffffffffffffffffffffffff160217905550506200010f565b6000815190506200008f81620000f5565b92915050565b600060208284031215620000a857600080fd5b6000620000b8848285016200007e565b91505092915050565b6000620000ce82620000d5565b9050919050565b600073ffffffffffffffffffffffffffffffffffffffff82169050919050565b6200010081620000c1565b81146200010c57600080fd5b50565b612737806200011f6000396000f3fe608060405234801561001057600080fd5b50600436106100625760003560e01c8063311b093e146100675780639dd4640214610099578063a415b96a146100c9578063a4c46cc0146100f9578063ab6c77a71461012a578063b46366961461015a575b600080fd5b610081600480360381019061007c9190611d75565b61018a565b60405161009093929190612171565b60405180910390f35b6100b360048036038101906100ae9190611db1565b6102ec565b6040516100c091906120c7565b60405180910390f35b6100e360048036038101906100de9190611d75565b610598565b6040516100f091906121cf565b60405180910390f35b610113600480360381019061010e9190611d4c565b610a30565b6040516101219291906120e2565b60405180910390f35b610144600480360381019061013f9190611e05565b610df5565b6040516101519190612112565b60405180910390f35b610174600480360381019061016f9190611c18565b610ede565b60405161018191906121cf565b60405180910390f35b60606000808373ffffffffffffffffffffffffffffffffffffffff166356756cd7866040518263ffffffff1660e01b81526004016101c8919061212d565b60006040518083038186803b1580156101e057600080fd5b505afa1580156101f4573d6000803e3d6000fd5b505050506040513d6000823e3d601f19601f8201168201806040525081019061021d9190611c59565b9091929394959697985090919293949596975090919293949550909192939450909192935090919250909150905080935081925050508373ffffffffffffffffffffffffffffffffffffffff16635b3c5c4a86846040518363ffffffff1660e01b815260040161028e929190612148565b60006040518083038186803b1580156102a657600080fd5b505afa1580156102ba573d6000803e3d6000fd5b505050506040513d6000823e3d601f19601f820116820180604052508101906102e39190611e41565b92509250925092565b60008082600081518110610329577f4e487b7100000000000000000000000000000000000000000000000000000000600052603260045260246000fd5b602002602001015190506000600190505b83518160ff16101561058d576000803373ffffffffffffffffffffffffffffffffffffffff166362e23f2788888660ff16815181106103a2577f4e487b7100000000000000000000000000000000000000000000000000000000600052603260045260246000fd5b60200260200101516040518363ffffffff1660e01b81526004016103c7929190612148565b604080518083038186803b1580156103de57600080fd5b505afa1580156103f2573d6000803e3d6000fd5b505050506040513d601f19601f820116820180604052508101906104169190611eab565b915091506000803373ffffffffffffffffffffffffffffffffffffffff166362e23f278a8a6001896104489190612465565b60ff1681518110610482577f4e487b7100000000000000000000000000000000000000000000000000000000600052603260045260246000fd5b60200260200101516040518363ffffffff1660e01b81526004016104a7929190612148565b604080518083038186803b1580156104be57600080fd5b505afa1580156104d2573d6000803e3d6000fd5b505050506040513d601f19601f820116820180604052508101906104f69190611eab565b9150915082841115610576576105158183610fdb90919063ffffffff16565b6105288486610fdb90919063ffffffff16565b111561057557878560ff168151811061056a577f4e487b7100000000000000000000000000000000000000000000000000000000600052603260045260246000fd5b602002602001015195505b5b505050508080610585906125b2565b91505061033a565b508091505092915050565b6000806000808473ffffffffffffffffffffffffffffffffffffffff166341035f2a876040518263ffffffff1660e01b81526004016105d7919061212d565b60006040518083038186803b1580156105ef57600080fd5b505afa158015610603573d6000803e3d6000fd5b505050506040513d6000823e3d601f19601f8201168201806040525081019061062c9190611abe565b90506000815111610672576040517f08c379a0000000000000000000000000000000000000000000000000000000008152600401610669906121af565b60405180910390fd5b6000808673ffffffffffffffffffffffffffffffffffffffff1663b39fd6cf896040518263ffffffff1660e01b81526004016106ae919061212d565b60006040518083038186803b1580156106c657600080fd5b505afa1580156106da573d6000803e3d6000fd5b505050506040513d6000823e3d601f19601f820116820180604052508101906107039190611aff565b505050925050915060005b83518110156109eb5760008054906101000a900473ffffffffffffffffffffffffffffffffffffffff1673ffffffffffffffffffffffffffffffffffffffff16638319d39085838151811061078c577f4e487b7100000000000000000000000000000000000000000000000000000000600052603260045260246000fd5b60200260200101516040518263ffffffff1660e01b81526004016107b091906120c7565b60206040518083038186803b1580156107c857600080fd5b505afa1580156107dc573d6000803e3d6000fd5b505050506040513d601f19601f820116820180604052508101906108009190611e82565b8661080b9190612350565b955060005b82518110156109d757838181518110610852577f4e487b7100000000000000000000000000000000000000000000000000000000600052603260045260246000fd5b602002602001015173ffffffffffffffffffffffffffffffffffffffff168583815181106108a9577f4e487b7100000000000000000000000000000000000000000000000000000000600052603260045260246000fd5b602002602001015173ffffffffffffffffffffffffffffffffffffffff1614156109c45760008054906101000a900473ffffffffffffffffffffffffffffffffffffffff1673ffffffffffffffffffffffffffffffffffffffff16638319d390868481518110610942577f4e487b7100000000000000000000000000000000000000000000000000000000600052603260045260246000fd5b60200260200101516040518263ffffffff1660e01b815260040161096691906120c7565b60206040518083038186803b15801561097e57600080fd5b505afa158015610992573d6000803e3d6000fd5b505050506040513d601f19601f820116820180604052508101906109b69190611e82565b866109c19190612350565b95505b80806109cf90612569565b915050610810565b5080806109e390612569565b91505061070e565b506000841415610a0357600095505050505050610a2a565b610a2285606486610a1491906123d7565b610ff190919063ffffffff16565b955050505050505b92915050565b6060600080600080610a4186611007565b9250925092506000610a5283610ede565b90506000845167ffffffffffffffff811115610a97577f4e487b7100000000000000000000000000000000000000000000000000000000600052604160045260246000fd5b604051908082528060200260200182016040528015610ac55781602001602082028036833780820191505090505b50905060008060009050600085600081518110610b0b577f4e487b7100000000000000000000000000000000000000000000000000000000600052603260045260246000fd5b6020026020010151905060005b83610c3e5785888481518110610b57577f4e487b7100000000000000000000000000000000000000000000000000000000600052603260045260246000fd5b6020026020010151148015610bab575081878481518110610ba1577f4e487b7100000000000000000000000000000000000000000000000000000000600052603260045260246000fd5b6020026020010151145b15610c0c576001858481518110610beb577f4e487b7100000000000000000000000000000000000000000000000000000000600052603260045260246000fd5b6020026020010190151590811515815250508080610c0890612569565b9150505b8851600184610c1b9190612350565b1415610c2a5760019350610c39565b8280610c3590612569565b9350505b610b18565b60008167ffffffffffffffff811115610c80577f4e487b7100000000000000000000000000000000000000000000000000000000600052604160045260246000fd5b604051908082528060200260200182016040528015610cae5781602001602082028036833780820191505090505b509050600080600090505b8b51811015610dde57878181518110610cfb577f4e487b7100000000000000000000000000000000000000000000000000000000600052603260045260246000fd5b602002602001015115610dcb578b8181518110610d41577f4e487b7100000000000000000000000000000000000000000000000000000000600052603260045260246000fd5b6020026020010151838381518110610d82577f4e487b7100000000000000000000000000000000000000000000000000000000600052603260045260246000fd5b602002602001019073ffffffffffffffffffffffffffffffffffffffff16908173ffffffffffffffffffffffffffffffffffffffff16815250508180610dc790612569565b9250505b8080610dd690612569565b915050610cb9565b5081889c509c505050505050505050505050915091565b6000808383604051602001610e0b92919061209b565b60405160208183030381529060405280519060200120905060003373ffffffffffffffffffffffffffffffffffffffff166356756cd7836040518263ffffffff1660e01b8152600401610e5e919061212d565b60006040518083038186803b158015610e7657600080fd5b505afa158015610e8a573d6000803e3d6000fd5b505050506040513d6000823e3d601f19601f82011682018060405250810190610eb39190611c59565b505050505050509250505083811415610ed157600192505050610ed8565b6000925050505b92915050565b600080600080600090505b8451811015610fa85760016002811115610f2c577f4e487b7100000000000000000000000000000000000000000000000000000000600052602160045260246000fd5b858281518110610f65577f4e487b7100000000000000000000000000000000000000000000000000000000600052603260045260246000fd5b60200260200101511415610f86578280610f7e90612569565b935050610f95565b8180610f9190612569565b9250505b8080610fa090612569565b915050610ee9565b5080821115610fbc57600192505050610fd6565b81811115610fcf57600292505050610fd6565b6002925050505b919050565b60008183610fe99190612431565b905092915050565b60008183610fff91906123a6565b905092915050565b606080606060008060003373ffffffffffffffffffffffffffffffffffffffff1663b39fd6cf886040518263ffffffff1660e01b815260040161104a919061212d565b60006040518083038186803b15801561106257600080fd5b505afa158015611076573d6000803e3d6000fd5b505050506040513d6000823e3d601f19601f8201168201806040525081019061109f9190611aff565b5050935093505092506000815190506000600190505b818110156116245760008382815181106110f8577f4e487b7100000000000000000000000000000000000000000000000000000000600052603260045260246000fd5b60200260200101519050600086838151811061113d577f4e487b7100000000000000000000000000000000000000000000000000000000600052603260045260246000fd5b602002602001015190506000868481518110611182577f4e487b7100000000000000000000000000000000000000000000000000000000600052603260045260246000fd5b60200260200101519050600060018561119b9190612431565b90505b6000811380156111ed5750838782815181106111e3577f4e487b7100000000000000000000000000000000000000000000000000000000600052603260045260246000fd5b6020026020010151115b156114e95786818151811061122b577f4e487b7100000000000000000000000000000000000000000000000000000000600052603260045260246000fd5b602002602001015187868151811061126c577f4e487b7100000000000000000000000000000000000000000000000000000000600052603260045260246000fd5b60200260200101818152505083876001876112879190612431565b815181106112be577f4e487b7100000000000000000000000000000000000000000000000000000000600052603260045260246000fd5b602002602001018181525050888181518110611303577f4e487b7100000000000000000000000000000000000000000000000000000000600052603260045260246000fd5b6020026020010151898681518110611344577f4e487b7100000000000000000000000000000000000000000000000000000000600052603260045260246000fd5b602002602001019073ffffffffffffffffffffffffffffffffffffffff16908173ffffffffffffffffffffffffffffffffffffffff1681525050828960018761138d9190612431565b815181106113c4577f4e487b7100000000000000000000000000000000000000000000000000000000600052603260045260246000fd5b602002602001019073ffffffffffffffffffffffffffffffffffffffff16908173ffffffffffffffffffffffffffffffffffffffff1681525050878181518110611437577f4e487b7100000000000000000000000000000000000000000000000000000000600052603260045260246000fd5b6020026020010151888681518110611478577f4e487b7100000000000000000000000000000000000000000000000000000000600052603260045260246000fd5b60200260200101818152505081886001876114939190612431565b815181106114ca577f4e487b7100000000000000000000000000000000000000000000000000000000600052603260045260246000fd5b60200260200101818152505080806114e19061253f565b91505061119e565b83876001836114f89190612350565b8151811061152f577f4e487b7100000000000000000000000000000000000000000000000000000000600052603260045260246000fd5b602002602001018181525050828960018361154a9190612350565b81518110611581577f4e487b7100000000000000000000000000000000000000000000000000000000600052603260045260246000fd5b602002602001019073ffffffffffffffffffffffffffffffffffffffff16908173ffffffffffffffffffffffffffffffffffffffff168152505081886001836115ca9190612350565b81518110611601577f4e487b7100000000000000000000000000000000000000000000000000000000600052603260045260246000fd5b60200260200101818152505050505050808061161c90612569565b9150506110b5565b50838383965096509650505050509193909250565b600061164c6116478461221b565b6121ea565b9050808382526020820190508285602086028201111561166b57600080fd5b60005b8581101561169b578161168188826118f0565b84526020840193506020830192505060018101905061166e565b5050509392505050565b60006116b86116b38461221b565b6121ea565b905080838252602082019050828560208602820111156116d757600080fd5b60005b8581101561170757816116ed8882611905565b8452602084019350602083019250506001810190506116da565b5050509392505050565b600061172461171f84612247565b6121ea565b9050808382526020820190508285602086028201111561174357600080fd5b60005b8581101561177357816117598882611a40565b845260208401935060208301925050600181019050611746565b5050509392505050565b600061179061178b84612273565b6121ea565b9050808382526020820190508260005b858110156117d057815185016117b68882611a55565b8452602084019350602083019250506001810190506117a0565b5050509392505050565b60006117ed6117e88461229f565b6121ea565b9050808382526020820190508285602086028201111561180c57600080fd5b60005b8581101561183c57816118228882611a7f565b84526020840193506020830192505060018101905061180f565b5050509392505050565b60006118596118548461229f565b6121ea565b9050808382526020820190508285602086028201111561187857600080fd5b60005b858110156118a8578161188e8882611a94565b84526020840193506020830192505060018101905061187b565b5050509392505050565b60006118c56118c0846122cb565b6121ea565b9050828152602081018484840111156118dd57600080fd5b6118e884828561250c565b509392505050565b6000813590506118ff8161268e565b92915050565b6000815190506119148161268e565b92915050565b600082601f83011261192b57600080fd5b813561193b848260208601611639565b91505092915050565b600082601f83011261195557600080fd5b81516119658482602086016116a5565b91505092915050565b600082601f83011261197f57600080fd5b815161198f848260208601611711565b91505092915050565b600082601f8301126119a957600080fd5b81516119b984826020860161177d565b91505092915050565b600082601f8301126119d357600080fd5b81356119e38482602086016117da565b91505092915050565b600082601f8301126119fd57600080fd5b8151611a0d848260208601611846565b91505092915050565b600081519050611a25816126a5565b92915050565b600081359050611a3a816126bc565b92915050565b600081519050611a4f816126bc565b92915050565b600082601f830112611a6657600080fd5b8151611a768482602086016118b2565b91505092915050565b600081359050611a8e816126d3565b92915050565b600081519050611aa3816126d3565b92915050565b600081519050611ab8816126ea565b92915050565b600060208284031215611ad057600080fd5b600082015167ffffffffffffffff811115611aea57600080fd5b611af684828501611944565b91505092915050565b60008060008060008060c08789031215611b1857600080fd5b600087015167ffffffffffffffff811115611b3257600080fd5b611b3e89828a01611944565b965050602087015167ffffffffffffffff811115611b5b57600080fd5b611b6789828a016119ec565b955050604087015167ffffffffffffffff811115611b8457600080fd5b611b9089828a016119ec565b945050606087015167ffffffffffffffff811115611bad57600080fd5b611bb989828a016119ec565b935050608087015167ffffffffffffffff811115611bd657600080fd5b611be289828a01611998565b92505060a087015167ffffffffffffffff811115611bff57600080fd5b611c0b89828a0161196e565b9150509295509295509295565b600060208284031215611c2a57600080fd5b600082013567ffffffffffffffff811115611c4457600080fd5b611c50848285016119c2565b91505092915050565b6000806000806000806000806000806101408b8d031215611c7957600080fd5b6000611c878d828e01611a16565b9a50506020611c988d828e01611905565b9950506040611ca98d828e01611a94565b9850506060611cba8d828e01611a94565b97505060808b015167ffffffffffffffff811115611cd757600080fd5b611ce38d828e01611a55565b96505060a0611cf48d828e01611a94565b95505060c0611d058d828e01611a94565b94505060e0611d168d828e01611aa9565b935050610100611d288d828e01611a16565b925050610120611d3a8d828e01611905565b9150509295989b9194979a5092959850565b600060208284031215611d5e57600080fd5b6000611d6c84828501611a2b565b91505092915050565b60008060408385031215611d8857600080fd5b6000611d9685828601611a2b565b9250506020611da7858286016118f0565b9150509250929050565b60008060408385031215611dc457600080fd5b6000611dd285828601611a2b565b925050602083013567ffffffffffffffff811115611def57600080fd5b611dfb8582860161191a565b9150509250929050565b60008060408385031215611e1857600080fd5b6000611e2685828601611a2b565b9250506020611e3785828601611a7f565b9150509250929050565b600060208284031215611e5357600080fd5b600082015167ffffffffffffffff811115611e6d57600080fd5b611e7984828501611a55565b91505092915050565b600060208284031215611e9457600080fd5b6000611ea284828501611a94565b91505092915050565b60008060408385031215611ebe57600080fd5b6000611ecc85828601611a94565b9250506020611edd85828601611a94565b9150509250929050565b6000611ef38383611eff565b60208301905092915050565b611f0881612499565b82525050565b611f1781612499565b82525050565b6000611f288261230b565b611f32818561232e565b9350611f3d836122fb565b8060005b83811015611f6e578151611f558882611ee7565b9750611f6083612321565b925050600181019050611f41565b5085935050505092915050565b611f84816124ab565b82525050565b611f93816124b7565b82525050565b611faa611fa5826124b7565b6125dc565b82525050565b6000611fbb82612316565b611fc5818561233f565b9350611fd581856020860161250c565b611fde8161267d565b840191505092915050565b6000611ff660548361233f565b91507f56616c69646174696f6e48656c706572733a63616c63756c617465566f74655160008301527f756f72756d202d205468657265206973206e6f2076616c696461746f7273206f60208301527f7220686173682077617320696e636f72726563740000000000000000000000006040830152606082019050919050565b61207e816124e1565b82525050565b612095612090826124e1565b6125e6565b82525050565b60006120a78285611f99565b6020820191506120b78284612084565b6020820191508190509392505050565b60006020820190506120dc6000830184611f0e565b92915050565b600060408201905081810360008301526120fc8185611f1d565b905061210b6020830184612075565b9392505050565b60006020820190506121276000830184611f7b565b92915050565b60006020820190506121426000830184611f8a565b92915050565b600060408201905061215d6000830185611f8a565b61216a6020830184611f0e565b9392505050565b6000606082019050818103600083015261218b8186611fb0565b905061219a6020830185611f0e565b6121a76040830184612075565b949350505050565b600060208201905081810360008301526121c881611fe9565b9050919050565b60006020820190506121e46000830184612075565b92915050565b6000604051905081810181811067ffffffffffffffff821117156122115761221061264e565b5b8060405250919050565b600067ffffffffffffffff8211156122365761223561264e565b5b602082029050602081019050919050565b600067ffffffffffffffff8211156122625761226161264e565b5b602082029050602081019050919050565b600067ffffffffffffffff82111561228e5761228d61264e565b5b602082029050602081019050919050565b600067ffffffffffffffff8211156122ba576122b961264e565b5b602082029050602081019050919050565b600067ffffffffffffffff8211156122e6576122e561264e565b5b601f19601f8301169050602081019050919050565b6000819050602082019050919050565b600081519050919050565b600081519050919050565b6000602082019050919050565b600082825260208201905092915050565b600082825260208201905092915050565b600061235b826124e1565b9150612366836124e1565b9250827fffffffffffffffffffffffffffffffffffffffffffffffffffffffffffffffff0382111561239b5761239a6125f0565b5b828201905092915050565b60006123b1826124e1565b91506123bc836124e1565b9250826123cc576123cb61261f565b5b828204905092915050565b60006123e2826124e1565b91506123ed836124e1565b9250817fffffffffffffffffffffffffffffffffffffffffffffffffffffffffffffffff0483118215151615612426576124256125f0565b5b828202905092915050565b600061243c826124e1565b9150612447836124e1565b92508282101561245a576124596125f0565b5b828203905092915050565b6000612470826124ff565b915061247b836124ff565b92508282101561248e5761248d6125f0565b5b828203905092915050565b60006124a4826124c1565b9050919050565b60008115159050919050565b6000819050919050565b600073ffffffffffffffffffffffffffffffffffffffff82169050919050565b6000819050919050565b600067ffffffffffffffff82169050919050565b600060ff82169050919050565b60005b8381101561252a57808201518184015260208101905061250f565b83811115612539576000848401525b50505050565b600061254a826124e1565b9150600082141561255e5761255d6125f0565b5b600182039050919050565b6000612574826124e1565b91507fffffffffffffffffffffffffffffffffffffffffffffffffffffffffffffffff8214156125a7576125a66125f0565b5b600182019050919050565b60006125bd826124ff565b915060ff8214156125d1576125d06125f0565b5b600182019050919050565b6000819050919050565b6000819050919050565b7f4e487b7100000000000000000000000000000000000000000000000000000000600052601160045260246000fd5b7f4e487b7100000000000000000000000000000000000000000000000000000000600052601260045260246000fd5b7f4e487b7100000000000000000000000000000000000000000000000000000000600052604160045260246000fd5b6000601f19601f8301169050919050565b61269781612499565b81146126a257600080fd5b50565b6126ae816124ab565b81146126b957600080fd5b50565b6126c5816124b7565b81146126d057600080fd5b50565b6126dc816124e1565b81146126e757600080fd5b50565b6126f3816124eb565b81146126fe57600080fd5b5056fea26469706673582212208d734cae70511a26aa45f5b0d05df1a1a8e37e88dfbc6d1c6482947fd0659a7e64736f6c63430008000033",
  "immutableReferences": {},
  "source": "// SPDX-License-Identifier: MIT\npragma solidity =0.8.0;\n\nimport \"./IValidations.sol\";\nimport \"@openzeppelin/contracts/utils/math/SafeMath.sol\";\nimport \"./MemberHelpers.sol\";\n\n/**\n * @title ValidationHelpers\n * @dev additinal function for validations\n */\n\ncontract ValidationHelpers {\n\n    using SafeMath for uint256;\n\n    // Validation can be approved or disapproved. Initial status is undefined.\n    enum ValidationStatus {Undefined, Yes, No}   \n    MemberHelpers memberHelpers;\n    // address validationCohort;\n    // address validationNoCohort;\n\n    constructor(address _memberHelpers)  {\n\n        memberHelpers = MemberHelpers(_memberHelpers);\n        // validationCohort = _validationCohort;\n        // validationNoCohort = _validationNoCohort;\n    }\n\n\n    function isHashAndTimeCorrect( bytes32 documentHash, uint256 _validationTime) public  view returns (bool){\n\n\n        bytes32 validationHash = keccak256(abi.encodePacked(documentHash, _validationTime));\n\n        (,,uint validationTime,,,,,,,) = IValidations(msg.sender).returnValidationRecord(validationHash);\n        if (validationTime == _validationTime)\n            return true;\n        else\n            return false;\n    }\n\n\n    function returnWinnerStruct(bytes32 validationHash, address contractAddress)public view returns (string memory valUrl, address winner, uint256 validationTime){\n\n        \n        (,,validationTime,,,,,,,winner) = IValidations(contractAddress).returnValidationRecord(validationHash);\n        valUrl = IValidations(contractAddress).returnValidationUrl(validationHash, winner);\n\n        return (valUrl, winner, validationTime);\n\n    }\n\n\n    function selectWinner(bytes32 validationHash, address[] memory winners) public view returns (address) {\n\n        address winner = winners[0];\n\n        for (uint8 i=1; i < winners.length; i++){\n           (uint256 plus, uint256 minus) =  IValidations(msg.sender).returnWinnerPoints(validationHash, winners[i]);\n           (uint256 plusBefore, uint256 minusBefore) =  IValidations(msg.sender).returnWinnerPoints(validationHash, winners[i-1]);\n\n            if (plus > minus)\n                if (plus.sub(minus) > plusBefore.sub(minusBefore))\n                    {winner = winners[i];}\n        }\n        return winner;\n    }\n\n\n     function determineWinners(bytes32 validationHash) public  view returns (address[] memory, uint256){\n\n        (address[] memory validator, uint256[] memory status, uint256[] memory validationTimes) = insertionSort (validationHash);\n\n        uint256 consensus = determineConsensus(status);\n        bool[] memory isWinner = new bool[](validator.length);\n        bool done;\n        uint256 i=0;\n        uint256 topValidationTime = validationTimes[0];\n        uint256 numFound=0;\n        \n        while (!done) {\n            if (uint256(status[i]) == consensus && validationTimes[i] == topValidationTime){\n                isWinner[i] = true;\n                numFound ++;\n            } \n         \n            if (i + 1 == validator.length)\n                done = true;\n            else\n                i++;\n          }\n        \n        address[] memory winners = new address[](numFound);\n        uint256 j;\n\n        for (uint256 k = 0; k< validator.length; k++){\n\n            if (isWinner[k]){\n                winners[j] = validator[k];\n                j++;\n            }\n        }\n        return (winners, consensus);\n    }\n\n\n\n function insertionSort(bytes32 validationHash) internal view returns (address[] memory, uint256[] memory, uint256[] memory) {\n\n        (address[] memory validator, ,uint256[] memory status, uint256[] memory validationTimes,,) =  IValidations(msg.sender).collectValidationResults(validationHash);\n\n        uint length = validationTimes.length;\n        \n        for (uint i = 1; i < length; i++) {\n            \n            uint key = validationTimes[i];\n            address user = validator[i];\n            uint256 choice = status[i];\n            uint j = i - 1;\n            while ((int(j) > 0) && (validationTimes[j] > key)) {\n                validationTimes[i] = validationTimes[j];\n                validationTimes[i-1] = key; \n                validator[i] = validator[j];\n                validator[i-1] = user;\n                status[i] = status[j];\n                status[i-1] =  choice; \n                j--;\n            }\n            validationTimes[j + 1] = key;\n            validator[j+1] = user;\n            status[j+1] = choice;\n        }\n\n        return (validator, status, validationTimes );\n    }\n\n\n\n function determineConsensus(uint256[] memory validation) public pure returns(uint256 ) {\n\n        uint256 yes;\n        uint256 no;\n\n        for (uint256 i=0; i< validation.length; i++) {\n\n            if (validation[i] == uint256(ValidationStatus.Yes))\n                yes++;\n            else\n                no++;\n        }\n\n        if (yes > no)\n            return 1; // consensus is to approve\n        else if (no > yes)\n            return 2; // consensus is to disapprove\n        else\n            return 2; // consensus is tie - should not happen\n    }\n\n    /**\n     * @dev to calculate state of the quorum for the validation\n     * @param validationHash - consist of hash of hashed document and timestamp\n     * @return number representing current participation level in percentage\n     */\n    function calculateVoteQuorum(bytes32 validationHash, address validationContract)public view returns (uint256)\n    {\n\n\n        uint256 totalStaked;\n        uint256 currentlyVoted;\n\n        // address  contractToCall = determineCaller(chort);\n\n        address[] memory validatorsList = IValidations(validationContract).returnValidatorList(validationHash);\n        require(validatorsList.length > 0, \"ValidationHelpers:calculateVoteQuorum - There is no validators or hash was incorrect\");\n        // (,,uint validationTime,,,,,,,) = IValidations(validationContract).returnValidationRecord(validationHash);\n        (address[] memory validatorListActive, ,uint256[] memory choice,,,) =  IValidations(validationContract).collectValidationResults(validationHash);\n\n        // Validation storage validation = validations[validationHash];\n        // require(validationTime> 0, \"ValidationHelpers:calculateVoteQuorum - Validation hash doesn't exist\");\n\n        for (uint256 i = 0; i < validatorsList.length; i++) {\n            totalStaked += memberHelpers.returnDepositAmount(validatorsList[i]);\n            // if (choice.length <= i) \n             for (uint256 j=0; j< choice.length; j++){\n                 if (validatorsList[i] == validatorListActive[j])\n                    currentlyVoted += memberHelpers.returnDepositAmount(validatorsList[i]);\n             }\n        }\n        if (currentlyVoted == 0)\n            return 0;\n        else\n           return (currentlyVoted * 100).div(totalStaked);\n\n    }\n\n}",
  "sourcePath": "/home/win2win/eth/projects/AuditChain/Core-Smart-Contracts-v1/contracts/Auditchain/ValidationHelpers.sol",
  "compiler": {
    "name": "solc",
    "version": "0.8.0+commit.c7dfd78e.Emscripten.clang"
  },
  "schemaVersion": "3.4.1",
  "updatedAt": "2022-04-08T16:19:02.353Z",
  "networkType": "ethereum",
  "devdoc": {
    "details": "additinal function for validations",
    "kind": "dev",
    "methods": {
      "calculateVoteQuorum(bytes32,address)": {
        "details": "to calculate state of the quorum for the validation",
        "params": {
          "validationHash": "- consist of hash of hashed document and timestamp"
        },
        "returns": {
          "_0": "number representing current participation level in percentage"
        }
      }
    },
    "title": "ValidationHelpers",
    "version": 1
  },
  "userdoc": {
    "kind": "user",
    "methods": {},
    "version": 1
  }
}